{
  "_format": "hh-sol-artifact-1",
  "contractName": "PowerToken",
  "sourceName": "contracts/iq/PowerToken.sol",
  "abi": [
    {
      "inputs": [
        {
          "internalType": "string",
          "name": "_name",
          "type": "string"
        },
        {
          "internalType": "string",
          "name": "_symbol",
          "type": "string"
        },
        {
          "internalType": "string",
          "name": "_baseUri",
          "type": "string"
        },
        {
          "internalType": "uint32",
          "name": "_halfLife",
          "type": "uint32"
        }
      ],
      "stateMutability": "nonpayable",
      "type": "constructor"
    },
    {
      "anonymous": false,
      "inputs": [
        {
          "indexed": true,
          "internalType": "address",
          "name": "_owner",
          "type": "address"
        },
        {
          "indexed": true,
          "internalType": "address",
          "name": "_operator",
          "type": "address"
        },
        {
          "indexed": false,
          "internalType": "bool",
          "name": "_approved",
          "type": "bool"
        }
      ],
      "name": "ApprovalForAll",
      "type": "event"
    },
    {
      "anonymous": false,
      "inputs": [
        {
          "indexed": true,
          "internalType": "address",
          "name": "_operator",
          "type": "address"
        },
        {
          "indexed": true,
          "internalType": "address",
          "name": "_from",
          "type": "address"
        },
        {
          "indexed": true,
          "internalType": "address",
          "name": "_to",
          "type": "address"
        },
        {
          "indexed": false,
          "internalType": "uint256[]",
          "name": "_ids",
          "type": "uint256[]"
        },
        {
          "indexed": false,
          "internalType": "uint256[]",
          "name": "_values",
          "type": "uint256[]"
        }
      ],
      "name": "TransferBatch",
      "type": "event"
    },
    {
      "anonymous": false,
      "inputs": [
        {
          "indexed": true,
          "internalType": "address",
          "name": "_operator",
          "type": "address"
        },
        {
          "indexed": true,
          "internalType": "address",
          "name": "_from",
          "type": "address"
        },
        {
          "indexed": true,
          "internalType": "address",
          "name": "_to",
          "type": "address"
        },
        {
          "indexed": false,
          "internalType": "uint256",
          "name": "_id",
          "type": "uint256"
        },
        {
          "indexed": false,
          "internalType": "uint256",
          "name": "_value",
          "type": "uint256"
        }
      ],
      "name": "TransferSingle",
      "type": "event"
    },
    {
      "anonymous": false,
      "inputs": [
        {
          "indexed": false,
          "internalType": "string",
          "name": "_value",
          "type": "string"
        },
        {
          "indexed": true,
          "internalType": "uint256",
          "name": "_id",
          "type": "uint256"
        }
      ],
      "name": "URI",
      "type": "event"
    },
    {
      "inputs": [
        {
          "internalType": "address",
          "name": "account",
          "type": "address"
        },
        {
          "internalType": "uint256",
          "name": "id",
          "type": "uint256"
        }
      ],
      "name": "balanceOf",
      "outputs": [
        {
          "internalType": "uint256",
          "name": "",
          "type": "uint256"
        }
      ],
      "stateMutability": "view",
      "type": "function"
    },
    {
      "inputs": [
        {
          "internalType": "address[]",
          "name": "accounts",
          "type": "address[]"
        },
        {
          "internalType": "uint256[]",
          "name": "ids",
          "type": "uint256[]"
        }
      ],
      "name": "balanceOfBatch",
      "outputs": [
        {
          "internalType": "uint256[]",
          "name": "",
          "type": "uint256[]"
        }
      ],
      "stateMutability": "view",
      "type": "function"
    },
    {
      "inputs": [
        {
          "internalType": "address",
          "name": "_account",
          "type": "address"
        },
        {
          "internalType": "uint256",
          "name": "_id",
          "type": "uint256"
        },
        {
          "internalType": "uint256",
          "name": "_value",
          "type": "uint256"
        }
      ],
      "name": "burn",
      "outputs": [],
      "stateMutability": "nonpayable",
      "type": "function"
    },
    {
      "inputs": [
        {
          "internalType": "address",
          "name": "who",
          "type": "address"
        },
        {
          "internalType": "uint32",
          "name": "timestamp",
          "type": "uint32"
        }
      ],
      "name": "energyAt",
      "outputs": [
        {
          "internalType": "uint112",
          "name": "",
          "type": "uint112"
        }
      ],
      "stateMutability": "view",
      "type": "function"
    },
    {
      "inputs": [],
      "name": "halfLife",
      "outputs": [
        {
          "internalType": "uint32",
          "name": "",
          "type": "uint32"
        }
      ],
      "stateMutability": "view",
      "type": "function"
    },
    {
      "inputs": [
        {
          "internalType": "address",
          "name": "account",
          "type": "address"
        },
        {
          "internalType": "address",
          "name": "operator",
          "type": "address"
        }
      ],
      "name": "isApprovedForAll",
      "outputs": [
        {
          "internalType": "bool",
          "name": "",
          "type": "bool"
        }
      ],
      "stateMutability": "view",
      "type": "function"
    },
    {
      "inputs": [
        {
          "internalType": "address",
          "name": "_to",
          "type": "address"
        },
        {
          "internalType": "uint256",
          "name": "_id",
          "type": "uint256"
        },
        {
          "internalType": "uint256",
          "name": "_value",
          "type": "uint256"
        },
        {
          "internalType": "bytes",
          "name": "_data",
          "type": "bytes"
        }
      ],
      "name": "mint",
      "outputs": [],
      "stateMutability": "nonpayable",
      "type": "function"
    },
    {
      "inputs": [],
      "name": "name",
      "outputs": [
        {
          "internalType": "string",
          "name": "",
          "type": "string"
        }
      ],
      "stateMutability": "view",
      "type": "function"
    },
    {
      "inputs": [],
      "name": "owner",
      "outputs": [
        {
          "internalType": "address",
          "name": "",
          "type": "address"
        }
      ],
      "stateMutability": "view",
      "type": "function"
    },
    {
      "inputs": [
        {
          "internalType": "address",
          "name": "_from",
          "type": "address"
        },
        {
          "internalType": "address",
          "name": "_to",
          "type": "address"
        },
        {
          "internalType": "uint256[]",
          "name": "_ids",
          "type": "uint256[]"
        },
        {
          "internalType": "uint256[]",
          "name": "_values",
          "type": "uint256[]"
        },
        {
          "internalType": "bytes",
          "name": "_data",
          "type": "bytes"
        }
      ],
      "name": "safeBatchTransferFrom",
      "outputs": [],
      "stateMutability": "nonpayable",
      "type": "function"
    },
    {
      "inputs": [
        {
          "internalType": "address",
          "name": "_from",
          "type": "address"
        },
        {
          "internalType": "address",
          "name": "_to",
          "type": "address"
        },
        {
          "internalType": "uint256",
          "name": "_id",
          "type": "uint256"
        },
        {
          "internalType": "uint256",
          "name": "_value",
          "type": "uint256"
        },
        {
          "internalType": "bytes",
          "name": "_data",
          "type": "bytes"
        }
      ],
      "name": "safeTransferFrom",
      "outputs": [],
      "stateMutability": "nonpayable",
      "type": "function"
    },
    {
      "inputs": [
        {
          "internalType": "address",
          "name": "operator",
          "type": "address"
        },
        {
          "internalType": "bool",
          "name": "approved",
          "type": "bool"
        }
      ],
      "name": "setApprovalForAll",
      "outputs": [],
      "stateMutability": "nonpayable",
      "type": "function"
    },
    {
      "inputs": [],
      "name": "symbol",
      "outputs": [
        {
          "internalType": "string",
          "name": "",
          "type": "string"
        }
      ],
      "stateMutability": "view",
      "type": "function"
    },
    {
      "inputs": [
        {
          "internalType": "uint256",
          "name": "",
          "type": "uint256"
        }
      ],
      "name": "uri",
      "outputs": [
        {
          "internalType": "string",
          "name": "",
          "type": "string"
        }
      ],
      "stateMutability": "view",
      "type": "function"
    }
  ],
  "bytecode": "0x60806040523480156200001157600080fd5b5060405162001ecb38038062001ecb833981810160405260808110156200003757600080fd5b81019080805160405193929190846401000000008211156200005857600080fd5b9083019060208201858111156200006e57600080fd5b82516401000000008111828201881017156200008957600080fd5b82525081516020918201929091019080838360005b83811015620000b85781810151838201526020016200009e565b50505050905090810190601f168015620000e65780820380516001836020036101000a031916815260200191505b50604052602001805160405193929190846401000000008211156200010a57600080fd5b9083019060208201858111156200012057600080fd5b82516401000000008111828201881017156200013b57600080fd5b82525081516020918201929091019080838360005b838110156200016a57818101518382015260200162000150565b50505050905090810190601f168015620001985780820380516001836020036101000a031916815260200191505b5060405260200180516040519392919084640100000000821115620001bc57600080fd5b908301906020820185811115620001d257600080fd5b8251640100000000811182820188101715620001ed57600080fd5b82525081516020918201929091019080838360005b838110156200021c57818101518382015260200162000202565b50505050905090810190601f1680156200024a5780820380516001836020036101000a031916815260200191505b50604052602090810151865190935086925085918591620002729160009190860190620002d9565b50815162000288906001906020850190620002d9565b5080516200029e906002906020840190620002d9565b5050600380546001600160a01b0319163317905550506006805463ffffffff90921663ffffffff199092169190911790555062000385915050565b828054600181600116156101000203166002900490600052602060002090601f0160209004810192826200031157600085556200035c565b82601f106200032c57805160ff19168380011785556200035c565b828001600101855582156200035c579182015b828111156200035c5782518255916020019190600101906200033f565b506200036a9291506200036e565b5090565b5b808211156200036a57600081556001016200036f565b611b3680620003956000396000f3fe608060405234801561001057600080fd5b50600436106100e95760003560e01c80637bc90d1c1161008c578063a22cb46511610066578063a22cb465146105c9578063e985e9c5146105f7578063f242432a14610639578063f5298aca146106ce576100e9565b80637bc90d1c1461057c5780638da5cb5b1461059d57806395d89b41146105c1576100e9565b80632eb2c2d6116100c85780632eb2c2d6146101c65780634e1273f4146102f55780635370028e1461046c578063731133e9146104ba576100e9565b8062fdd58e146100ee57806306fdde031461012c5780630e89341c146101a9575b600080fd5b61011a6004803603604081101561010457600080fd5b506001600160a01b038135169060200135610700565b60408051918252519081900360200190f35b610134610772565b6040805160208082528351818301528351919283929083019185019080838360005b8381101561016e578181015183820152602001610156565b50505050905090810190601f16801561019b5780820380516001836020036101000a031916815260200191505b509250505060405180910390f35b610134600480360360208110156101bf57600080fd5b5035610800565b6102f3600480360360a08110156101dc57600080fd5b6001600160a01b03823581169260208101359091169181019060608101604082013564010000000081111561021057600080fd5b82018360208201111561022257600080fd5b8035906020019184602083028401116401000000008311171561024457600080fd5b91939092909160208101903564010000000081111561026257600080fd5b82018360208201111561027457600080fd5b8035906020019184602083028401116401000000008311171561029657600080fd5b9193909290916020810190356401000000008111156102b457600080fd5b8201836020820111156102c657600080fd5b803590602001918460018302840111640100000000831117156102e857600080fd5b509092509050610895565b005b61041c6004803603604081101561030b57600080fd5b81019060208101813564010000000081111561032657600080fd5b82018360208201111561033857600080fd5b8035906020019184602083028401116401000000008311171561035a57600080fd5b91908080602002602001604051908101604052809392919081815260200183836020028082843760009201919091525092959493602081019350359150506401000000008111156103aa57600080fd5b8201836020820111156103bc57600080fd5b803590602001918460208302840111640100000000831117156103de57600080fd5b919080806020026020016040519081016040528093929190818152602001838360200280828437600092019190915250929550610b35945050505050565b60408051602080825283518183015283519192839290830191858101910280838360005b83811015610458578181015183820152602001610440565b505050509050019250505060405180910390f35b61049e6004803603604081101561048257600080fd5b5080356001600160a01b0316906020013563ffffffff16610c21565b604080516001600160701b039092168252519081900360200190f35b6102f3600480360360808110156104d057600080fd5b6001600160a01b03823516916020810135916040820135919081019060808101606082013564010000000081111561050757600080fd5b82018360208201111561051957600080fd5b8035906020019184600183028401116401000000008311171561053b57600080fd5b91908080601f016020809104026020016040519081016040528093929190818152602001838380828437600092019190915250929550610c86945050505050565b610584610cef565b6040805163ffffffff9092168252519081900360200190f35b6105a5610cfb565b604080516001600160a01b039092168252519081900360200190f35b610134610d0a565b6102f3600480360360408110156105df57600080fd5b506001600160a01b0381351690602001351515610d64565b6106256004803603604081101561060d57600080fd5b506001600160a01b0381358116916020013516610e1a565b604080519115158252519081900360200190f35b6102f3600480360360a081101561064f57600080fd5b6001600160a01b03823581169260208101359091169160408201359160608101359181019060a08101608082013564010000000081111561068f57600080fd5b8201836020820111156106a157600080fd5b803590602001918460018302840111640100000000831117156106c357600080fd5b509092509050610e48565b6102f3600480360360608110156106e457600080fd5b506001600160a01b03813516906020810135906040013561102d565b60006001600160a01b0383166107475760405162461bcd60e51b815260040180806020018281038252602b815260200180611990602b913960400191505060405180910390fd5b5060008181526004602090815260408083206001600160a01b03861684529091529020545b92915050565b6000805460408051602060026001851615610100026000190190941693909304601f810184900484028201840190925281815292918301828280156107f85780601f106107cd576101008083540402835291602001916107f8565b820191906000526020600020905b8154815290600101906020018083116107db57829003601f168201915b505050505081565b60028054604080516020601f60001961010060018716150201909416859004938401819004810282018101909252828152606093909290918301828280156108895780601f1061085e57610100808354040283529160200191610889565b820191906000526020600020905b81548152906001019060200180831161086c57829003601f168201915b50505050509050919050565b6001600160a01b0387166108da5760405162461bcd60e51b81526004018080602001828103825260258152602001806119bb6025913960400191505060405180910390fd5b8483146109185760405162461bcd60e51b8152600401808060200182810382526029815260200180611a4d6029913960400191505060405180910390fd5b6001600160a01b03881633148061095757506001600160a01b038816600090815260056020908152604080832033845290915290205460ff1615156001145b6109925760405162461bcd60e51b815260040180806020018281038252602f8152602001806119e0602f913960400191505060405180910390fd5b60005b858110156109d5576109cd89898989858181106109ae57fe5b905060200201358888868181106109c157fe5b9050602002013561108b565b600101610995565b50866001600160a01b0316886001600160a01b0316336001600160a01b03167f4a39dc06d4c0dbc64b70af90fd698a233a518aa5d07e595d983b8c0526c8f7fb898989896040518080602001806020018381038352878782818152602001925060200280828437600083820152601f01601f19169091018481038352858152602090810191508690860280828437600083820152604051601f909101601f19169092018290039850909650505050505050a4610b2b33898989898080602002602001604051908101604052809392919081815260200183836020028082843760009201919091525050604080516020808d0282810182019093528c82529093508c92508b91829185019084908082843760009201919091525050604080516020601f8c018190048102820181019092528a815292508a91508990819084018382808284376000920191909152506110d292505050565b5050505050505050565b60608151835114610b775760405162461bcd60e51b8152600401808060200182810382526029815260200180611a9f6029913960400191505060405180910390fd5b6000835167ffffffffffffffff81118015610b9157600080fd5b50604051908082528060200260200182016040528015610bbb578160200160208202803683370190505b50905060005b8451811015610c1957610bfa858281518110610bd957fe5b6020026020010151858381518110610bed57fe5b6020026020010151610700565b828281518110610c0657fe5b6020908102919091010152600101610bc1565b509392505050565b6001600160a01b0382166000908152600760209081526040808320815160608101835290546001600160701b038082168352600160701b82041693820193909352600160e01b90920463ffffffff1690820152610c7e81846112db565b949350505050565b6003546001600160a01b03163314610cd4576040805162461bcd60e51b815260206004820152600c60248201526b2737ba1030b71037bbb732b960a11b604482015290519081900360640190fd5b610ce98484846001600160701b03168461135b565b50505050565b60065463ffffffff1681565b6003546001600160a01b031681565b60018054604080516020600284861615610100026000190190941693909304601f810184900484028201840190925281815292918301828280156107f85780601f106107cd576101008083540402835291602001916107f8565b336001600160a01b0383161415610dac5760405162461bcd60e51b8152600401808060200182810382526029815260200180611a766029913960400191505060405180910390fd5b3360008181526005602090815260408083206001600160a01b03871680855290835292819020805460ff1916861515908117909155815190815290519293927f17307eab39ab6107e8899845ad3d59bd9653f200f220920489ca2b5937696c31929181900390910190a35050565b6001600160a01b03918216600090815260056020908152604080832093909416825291909152205460ff1690565b6001600160701b038310610ea3576040805162461bcd60e51b815260206004820152601360248201527f56616c7565206f7574206f6620626f756e647300000000000000000000000000604482015290519081900360640190fd5b6001600160a01b038516610efe576040805162461bcd60e51b815260206004820152601560248201527f5f746f206d757374206265206e6f6e2d7a65726f2e0000000000000000000000604482015290519081900360640190fd5b6001600160a01b038616331480610f3d57506001600160a01b038616600090815260056020908152604080832033845290915290205460ff1615156001145b610f785760405162461bcd60e51b815260040180806020018281038252602f8152602001806119e0602f913960400191505060405180910390fd5b610f848686868661108b565b846001600160a01b0316866001600160a01b0316336001600160a01b03167fc3d58168c5ae7397731d063d5bbf3d657854427343f4c083240f7aacaa2d0f628787604051808381526020018281526020019250505060405180910390a4611025338787878787878080601f0160208091040260200160405190810160405280939291908181526020018383808284376000920191909152506113d892505050565b505050505050565b6003546001600160a01b0316331461107b576040805162461bcd60e51b815260206004820152600c60248201526b2737ba1030b71037bbb732b960a11b604482015290519081900360640190fd5b611086838383611565565b505050565b611097848484846115f5565b60009182526004602090815260408084206001600160a01b039687168552909152808320805483900390559290931681522080549091019055565b6110e4846001600160a01b0316611834565b156110255763bc197c8160e01b6001600160e01b031916846001600160a01b031663bc197c8188888787876040518663ffffffff1660e01b815260040180866001600160a01b03168152602001856001600160a01b03168152602001806020018060200180602001848103845287818151815260200191508051906020019060200280838360005b8381101561118457818101518382015260200161116c565b50505050905001848103835286818151815260200191508051906020019060200280838360005b838110156111c35781810151838201526020016111ab565b50505050905001848103825285818151815260200191508051906020019080838360005b838110156111ff5781810151838201526020016111e7565b50505050905090810190601f16801561122c5780820380516001836020036101000a031916815260200191505b5098505050505050505050602060405180830381600087803b15801561125157600080fd5b505af1158015611265573d6000803e3d6000fd5b505050506040513d602081101561127b57600080fd5b50517fffffffff0000000000000000000000000000000000000000000000000000000016146110255760405162461bcd60e51b815260040180806020018281038252603e815260200180611a0f603e913960400191505060405180910390fd5b600082602001516001600160701b031683600001516001600160701b0316111561132d5760408301516020840151845160065461132393929091039063ffffffff168561183a565b835103905061076c565b60408301518351602085015160065461135193929091039063ffffffff168561183a565b835101905061076c565b61136860008585856115f5565b60008381526004602090815260408083206001600160a01b0388168085529083528184208054870190558151878152928301869052815190939233927fc3d58168c5ae7397731d063d5bbf3d657854427343f4c083240f7aacaa2d0f6292918290030190a4610ce9336000868686865b6113ea846001600160a01b0316611834565b156110255763f23a6e6160e01b6001600160e01b031916846001600160a01b031663f23a6e6188888787876040518663ffffffff1660e01b815260040180866001600160a01b03168152602001856001600160a01b0316815260200184815260200183815260200180602001828103825283818151815260200191508051906020019080838360005b8381101561148b578181015183820152602001611473565b50505050905090810190601f1680156114b85780820380516001836020036101000a031916815260200191505b509650505050505050602060405180830381600087803b1580156114db57600080fd5b505af11580156114ef573d6000803e3d6000fd5b505050506040513d602081101561150557600080fd5b50517fffffffff0000000000000000000000000000000000000000000000000000000016146110255760405162461bcd60e51b8152600401808060200182810382526039815260200180611ac86039913960400191505060405180910390fd5b61157283600084846115f5565b60008281526004602090815260408083206001600160a01b0387168085529083528184208054869003905581518681529283018590528151909233927fc3d58168c5ae7397731d063d5bbf3d657854427343f4c083240f7aacaa2d0f6292918290030190a4611086338460008585604051806020016040528060008152506113d8565b426001600160a01b03851615611712576001600160a01b038516600090815260076020908152604091829020825160608101845290546001600160701b038082168352600160701b82041692820192909252600160e01b90910463ffffffff169181019190915261166681836112db565b6001600160701b03908116602083810191825263ffffffff85811660408087019182528651899003861687526001600160a01b038c166000908152600790945290922094518554935192516dffffffffffffffffffffffffffff19909416908516177fffffffff0000000000000000000000000000ffffffffffffffffffffffffffff16600160701b9290941691909102929092176001600160e01b0316600160e01b91909216021790555b6001600160a01b0384161561182d576001600160a01b038416600090815260076020908152604091829020825160608101845290546001600160701b038082168352600160701b82041692820192909252600160e01b90910463ffffffff169181019190915261178281836112db565b6001600160701b03908116602083810191825263ffffffff858116604080870191825286518901861687526001600160a01b038b166000908152600790945290922094518554935192516dffffffffffffffffffffffffffff19909416908516177fffffffff0000000000000000000000000000ffffffffffffffffffffffffffff16600160701b9290941691909102929092176001600160e01b0316600160e01b91909216021790555b5050505050565b3b151590565b60008463ffffffff168263ffffffff16101561189d576040805162461bcd60e51b815260206004820152600e60248201527f496e76616c696420706572696f64000000000000000000000000000000000000604482015290519081900360640190fd5b84820391508263ffffffff168263ffffffff16816118b757fe5b0463ffffffff16846001600160701b0316901c93508263ffffffff168263ffffffff16816118e157fe5b06915063ffffffff821615806118fe57506001600160701b038416155b1561190a575082610c7e565b60006001600160701b0385168163ffffffff86811690861671b17217f7d1cf79abc9e3b39803f2f6af40f3028161193d57fe5b049050600160901b5b82156119825792820192808284028161195b57fe5b0493849003939250600160901b01808284028161197457fe5b049250600160901b01611946565b509197965050505050505056fe455243313135353a2062616c616e636520717565727920666f7220746865207a65726f206164647265737364657374696e6174696f6e2061646472657373206d757374206265206e6f6e2d7a65726f2e4e656564206f70657261746f7220617070726f76616c20666f7220337264207061727479207472616e73666572732e636f6e74726163742072657475726e656420616e20756e6b6e6f776e2076616c75652066726f6d206f6e45524331313535426174636852656365697665645f69647320616e64205f76616c756573206172726179206c656e677468206d757374206d617463682e455243313135353a2073657474696e6720617070726f76616c2073746174757320666f722073656c66455243313135353a206163636f756e747320616e6420696473206c656e677468206d69736d61746368636f6e74726163742072657475726e656420616e20756e6b6e6f776e2076616c75652066726f6d206f6e455243313135355265636569766564a26469706673582212205adb432ae255c934ef22928ed72edcc9161e28b53771c1f2a437a550083588b464736f6c63430007060033",
  "linkReferences": {},
  "deployedLinkReferences": {}
}