{
  "_format": "hh-sol-artifact-1",
  "contractName": "PowerToken",
  "sourceName": "contracts/iq/PowerToken.sol",
  "abi": [
    {
      "anonymous": false,
      "inputs": [
        {
          "indexed": true,
          "internalType": "address",
          "name": "owner",
          "type": "address"
        },
        {
          "indexed": true,
          "internalType": "address",
          "name": "spender",
          "type": "address"
        },
        {
          "indexed": false,
          "internalType": "uint256",
          "name": "value",
          "type": "uint256"
        }
      ],
      "name": "Approval",
      "type": "event"
    },
    {
      "anonymous": false,
      "inputs": [
        {
          "indexed": true,
          "internalType": "address",
          "name": "previousOwner",
          "type": "address"
        },
        {
          "indexed": true,
          "internalType": "address",
          "name": "newOwner",
          "type": "address"
        }
      ],
      "name": "OwnershipTransferred",
      "type": "event"
    },
    {
      "anonymous": false,
      "inputs": [
        {
          "indexed": true,
          "internalType": "address",
          "name": "from",
          "type": "address"
        },
        {
          "indexed": true,
          "internalType": "address",
          "name": "to",
          "type": "address"
        },
        {
          "indexed": false,
          "internalType": "uint256",
          "name": "value",
          "type": "uint256"
        }
      ],
      "name": "Transfer",
      "type": "event"
    },
    {
      "inputs": [
        {
          "internalType": "address",
          "name": "newOwner",
          "type": "address"
        }
      ],
      "name": "addOwner",
      "outputs": [],
      "stateMutability": "nonpayable",
      "type": "function"
    },
    {
      "inputs": [
        {
          "internalType": "address",
          "name": "owner",
          "type": "address"
        },
        {
          "internalType": "address",
          "name": "spender",
          "type": "address"
        }
      ],
      "name": "allowance",
      "outputs": [
        {
          "internalType": "uint256",
          "name": "",
          "type": "uint256"
        }
      ],
      "stateMutability": "view",
      "type": "function"
    },
    {
      "inputs": [
        {
          "internalType": "address",
          "name": "spender",
          "type": "address"
        },
        {
          "internalType": "uint256",
          "name": "amount",
          "type": "uint256"
        }
      ],
      "name": "approve",
      "outputs": [
        {
          "internalType": "bool",
          "name": "",
          "type": "bool"
        }
      ],
      "stateMutability": "nonpayable",
      "type": "function"
    },
    {
      "inputs": [
        {
          "internalType": "address",
          "name": "account",
          "type": "address"
        }
      ],
      "name": "balanceOf",
      "outputs": [
        {
          "internalType": "uint256",
          "name": "",
          "type": "uint256"
        }
      ],
      "stateMutability": "view",
      "type": "function"
    },
    {
      "inputs": [
        {
          "internalType": "address",
          "name": "account",
          "type": "address"
        },
        {
          "internalType": "uint256",
          "name": "value",
          "type": "uint256"
        },
        {
          "internalType": "bool",
          "name": "withLocks",
          "type": "bool"
        }
      ],
      "name": "burnFrom",
      "outputs": [],
      "stateMutability": "nonpayable",
      "type": "function"
    },
    {
      "inputs": [],
      "name": "decimals",
      "outputs": [
        {
          "internalType": "uint8",
          "name": "",
          "type": "uint8"
        }
      ],
      "stateMutability": "view",
      "type": "function"
    },
    {
      "inputs": [
        {
          "internalType": "address",
          "name": "spender",
          "type": "address"
        },
        {
          "internalType": "uint256",
          "name": "subtractedValue",
          "type": "uint256"
        }
      ],
      "name": "decreaseAllowance",
      "outputs": [
        {
          "internalType": "bool",
          "name": "",
          "type": "bool"
        }
      ],
      "stateMutability": "nonpayable",
      "type": "function"
    },
    {
      "inputs": [
        {
          "internalType": "address",
          "name": "who",
          "type": "address"
        },
        {
          "internalType": "uint32",
          "name": "timestamp",
          "type": "uint32"
        }
      ],
      "name": "energyAt",
      "outputs": [
        {
          "internalType": "uint112",
          "name": "",
          "type": "uint112"
        }
      ],
      "stateMutability": "view",
      "type": "function"
    },
    {
      "inputs": [],
      "name": "getFactor",
      "outputs": [
        {
          "internalType": "uint112",
          "name": "",
          "type": "uint112"
        }
      ],
      "stateMutability": "view",
      "type": "function"
    },
    {
      "inputs": [],
      "name": "getHalfLife",
      "outputs": [
        {
          "internalType": "uint32",
          "name": "",
          "type": "uint32"
        }
      ],
      "stateMutability": "view",
      "type": "function"
    },
    {
      "inputs": [],
      "name": "getInterestRateHalvingPeriod",
      "outputs": [
        {
          "internalType": "uint32",
          "name": "",
          "type": "uint32"
        }
      ],
      "stateMutability": "view",
      "type": "function"
    },
    {
      "inputs": [],
      "name": "getLastDeal",
      "outputs": [
        {
          "internalType": "uint32",
          "name": "",
          "type": "uint32"
        }
      ],
      "stateMutability": "view",
      "type": "function"
    },
    {
      "inputs": [
        {
          "internalType": "address",
          "name": "spender",
          "type": "address"
        },
        {
          "internalType": "uint256",
          "name": "addedValue",
          "type": "uint256"
        }
      ],
      "name": "increaseAllowance",
      "outputs": [
        {
          "internalType": "bool",
          "name": "",
          "type": "bool"
        }
      ],
      "stateMutability": "nonpayable",
      "type": "function"
    },
    {
      "inputs": [
        {
          "internalType": "string",
          "name": "name_",
          "type": "string"
        },
        {
          "internalType": "string",
          "name": "symbol_",
          "type": "string"
        }
      ],
      "name": "initialize",
      "outputs": [],
      "stateMutability": "nonpayable",
      "type": "function"
    },
    {
      "inputs": [
        {
          "internalType": "address",
          "name": "initialOwner",
          "type": "address"
        }
      ],
      "name": "initialize",
      "outputs": [],
      "stateMutability": "nonpayable",
      "type": "function"
    },
    {
      "inputs": [
        {
          "internalType": "string",
          "name": "name",
          "type": "string"
        },
        {
          "internalType": "string",
          "name": "symbol",
          "type": "string"
        },
        {
          "internalType": "uint32",
          "name": "halfLife",
          "type": "uint32"
        },
        {
          "internalType": "uint32[]",
          "name": "allowedLoanDurations",
          "type": "uint32[]"
        },
        {
          "internalType": "uint112",
          "name": "factor",
          "type": "uint112"
        },
        {
          "internalType": "uint32",
          "name": "interestRateHalvingPeriod",
          "type": "uint32"
        },
        {
          "internalType": "address",
          "name": "owner",
          "type": "address"
        }
      ],
      "name": "initialize",
      "outputs": [],
      "stateMutability": "nonpayable",
      "type": "function"
    },
    {
      "inputs": [
        {
          "internalType": "uint32",
          "name": "duration",
          "type": "uint32"
        }
      ],
      "name": "isAllowedLoanDuration",
      "outputs": [
        {
          "internalType": "bool",
          "name": "allowed",
          "type": "bool"
        }
      ],
      "stateMutability": "view",
      "type": "function"
    },
    {
      "inputs": [
        {
          "internalType": "address",
          "name": "account",
          "type": "address"
        }
      ],
      "name": "isOwner",
      "outputs": [
        {
          "internalType": "bool",
          "name": "",
          "type": "bool"
        }
      ],
      "stateMutability": "view",
      "type": "function"
    },
    {
      "inputs": [
        {
          "internalType": "address",
          "name": "to",
          "type": "address"
        },
        {
          "internalType": "uint256",
          "name": "value",
          "type": "uint256"
        },
        {
          "internalType": "bool",
          "name": "withLocks",
          "type": "bool"
        }
      ],
      "name": "mint",
      "outputs": [],
      "stateMutability": "nonpayable",
      "type": "function"
    },
    {
      "inputs": [],
      "name": "name",
      "outputs": [
        {
          "internalType": "string",
          "name": "",
          "type": "string"
        }
      ],
      "stateMutability": "view",
      "type": "function"
    },
    {
      "inputs": [],
      "name": "renounceOwnership",
      "outputs": [],
      "stateMutability": "nonpayable",
      "type": "function"
    },
    {
      "inputs": [],
      "name": "symbol",
      "outputs": [
        {
          "internalType": "string",
          "name": "",
          "type": "string"
        }
      ],
      "stateMutability": "view",
      "type": "function"
    },
    {
      "inputs": [],
      "name": "totalSupply",
      "outputs": [
        {
          "internalType": "uint256",
          "name": "",
          "type": "uint256"
        }
      ],
      "stateMutability": "view",
      "type": "function"
    },
    {
      "inputs": [
        {
          "internalType": "address",
          "name": "recipient",
          "type": "address"
        },
        {
          "internalType": "uint256",
          "name": "amount",
          "type": "uint256"
        }
      ],
      "name": "transfer",
      "outputs": [
        {
          "internalType": "bool",
          "name": "",
          "type": "bool"
        }
      ],
      "stateMutability": "nonpayable",
      "type": "function"
    },
    {
      "inputs": [
        {
          "internalType": "address",
          "name": "from",
          "type": "address"
        },
        {
          "internalType": "address",
          "name": "to",
          "type": "address"
        },
        {
          "internalType": "uint256",
          "name": "amount",
          "type": "uint256"
        }
      ],
      "name": "transfer",
      "outputs": [
        {
          "internalType": "bool",
          "name": "",
          "type": "bool"
        }
      ],
      "stateMutability": "nonpayable",
      "type": "function"
    },
    {
      "inputs": [
        {
          "internalType": "address",
          "name": "sender",
          "type": "address"
        },
        {
          "internalType": "address",
          "name": "recipient",
          "type": "address"
        },
        {
          "internalType": "uint256",
          "name": "amount",
          "type": "uint256"
        }
      ],
      "name": "transferFrom",
      "outputs": [
        {
          "internalType": "bool",
          "name": "",
          "type": "bool"
        }
      ],
      "stateMutability": "nonpayable",
      "type": "function"
    },
    {
      "inputs": [
        {
          "internalType": "address",
          "name": "currentOwner",
          "type": "address"
        },
        {
          "internalType": "address",
          "name": "newOwner",
          "type": "address"
        }
      ],
      "name": "transferOwnership",
      "outputs": [],
      "stateMutability": "nonpayable",
      "type": "function"
    }
  ],
  "bytecode": "0x608060405234801561001057600080fd5b50612085806100206000396000f3fe608060405234801561001057600080fd5b50600436106101b95760003560e01c80636d44ddab116100f9578063a457c2d711610097578063c4d66de811610071578063c4d66de814610660578063d1a1beb414610686578063dd62ed3e146106ba578063f69449e2146106e8576101b9565b8063a457c2d7146105d2578063a9059cbb146105fe578063beabacc81461062a576101b9565b806370a08231116100d357806370a0823114610594578063715018a6146105ba5780637983a29d146105c257806395d89b41146105ca576101b9565b80636d44ddab146105435780636e4d89831461054b5780637065cb481461056e576101b9565b806339509351116101665780634cd88b76116101405780634cd88b76146103925780635184cc43146104bf5780635370028e146104e35780636d43542114610515576101b9565b8063395093511461030f5780633e42db131461033b578063404d61111461035c576101b9565b806323b872dd1161019757806323b872dd146102955780632f54bf6e146102cb578063313ce567146102f1576101b9565b806306fdde03146101be578063095ea7b31461023b57806318160ddd1461027b575b600080fd5b6101c66108ca565b6040805160208082528351818301528351919283929083019185019080838360005b838110156102005781810151838201526020016101e8565b50505050905090810190601f16801561022d5780820380516001836020036101000a031916815260200191505b509250505060405180910390f35b6102676004803603604081101561025157600080fd5b506001600160a01b038135169060200135610960565b604080519115158252519081900360200190f35b610283610976565b60408051918252519081900360200190f35b610267600480360360608110156102ab57600080fd5b506001600160a01b0381358116916020810135909116906040013561097c565b610267600480360360208110156102e157600080fd5b50356001600160a01b03166109e6565b6102f9610a08565b6040805160ff9092168252519081900360200190f35b6102676004803603604081101561032557600080fd5b506001600160a01b038135169060200135610a11565b610343610a47565b6040805163ffffffff9092168252519081900360200190f35b6103906004803603606081101561037257600080fd5b506001600160a01b0381351690602081013590604001351515610a5a565b005b610390600480360360408110156103a857600080fd5b8101906020810181356401000000008111156103c357600080fd5b8201836020820111156103d557600080fd5b803590602001918460018302840111640100000000831117156103f757600080fd5b91908080601f016020809104026020016040519081016040528093929190818152602001838380828437600092019190915250929594936020810193503591505064010000000081111561044a57600080fd5b82018360208201111561045c57600080fd5b8035906020019184600183028401116401000000008311171561047e57600080fd5b91908080601f016020809104026020016040519081016040528093929190818152602001838380828437600092019190915250929550610ad3945050505050565b6104c7610b74565b604080516001600160701b039092168252519081900360200190f35b6104c7600480360360408110156104f957600080fd5b5080356001600160a01b0316906020013563ffffffff16610b83565b6103906004803603604081101561052b57600080fd5b506001600160a01b0381358116916020013516610be9565b610343610d6c565b6102676004803603602081101561056157600080fd5b503563ffffffff16610d7f565b6103906004803603602081101561058457600080fd5b50356001600160a01b0316610dea565b610283600480360360208110156105aa57600080fd5b50356001600160a01b0316610efe565b610390610f19565b610343610fcf565b6101c6610fdb565b610267600480360360408110156105e857600080fd5b506001600160a01b03813516906020013561103c565b6102676004803603604081101561061457600080fd5b506001600160a01b03813516906020013561108b565b6102676004803603606081101561064057600080fd5b506001600160a01b03813581169160208101359091169060400135611098565b6103906004803603602081101561067657600080fd5b50356001600160a01b031661110c565b6103906004803603606081101561069c57600080fd5b506001600160a01b038135169060208101359060400135151561119e565b610283600480360360408110156106d057600080fd5b506001600160a01b038135811691602001351661121b565b610390600480360360e08110156106fe57600080fd5b81019060208101813564010000000081111561071957600080fd5b82018360208201111561072b57600080fd5b8035906020019184600183028401116401000000008311171561074d57600080fd5b91908080601f01602080910402602001604051908101604052809392919081815260200183838082843760009201919091525092959493602081019350359150506401000000008111156107a057600080fd5b8201836020820111156107b257600080fd5b803590602001918460018302840111640100000000831117156107d457600080fd5b91908080601f016020809104026020016040519081016040528093929190818152602001838380828437600092019190915250929563ffffffff85351695909490935060408101925060200135905064010000000081111561083557600080fd5b82018360208201111561084757600080fd5b8035906020019184602083028401116401000000008311171561086957600080fd5b919080806020026020016040519081016040528093929190818152602001838360200280828437600092019190915250929550505081356001600160701b0316925050602081013563ffffffff1690604001356001600160a01b0316611246565b60038054604080516020601f60026000196101006001881615020190951694909404938401819004810282018101909252828152606093909290918301828280156109565780601f1061092b57610100808354040283529160200191610956565b820191906000526020600020905b81548152906001019060200180831161093957829003601f168201915b5050505050905090565b600061096d338484611376565b50600192915050565b60025490565b6000610989848484611462565b6109db84336109d685604051806060016040528060288152602001611f70602891396001600160a01b038a16600090815260016020908152604080832033845290915290205491906115bf565b611376565b5060015b9392505050565b6001600160a01b03811660009081526006602052604090205460ff165b919050565b60055460ff1690565b3360008181526001602090815260408083206001600160a01b0387168452909152812054909161096d9185906109d69086611656565b600b54600160701b900463ffffffff1690565b3360009081526006602052604090205460ff161515600114610ac3576040805162461bcd60e51b815260206004820181905260248201527f4f776e61626c653a2063616c6c6572206973206e6f7420746865206f776e6572604482015290519081900360640190fd5b610ace8383836116b0565b505050565b6003546002600019610100600184161502019091160415610b3b576040805162461bcd60e51b815260206004820152601360248201527f416c726561647920696e697469616c697a656400000000000000000000000000604482015290519081900360640190fd5b8151610b4e906003906020850190611d75565b508051610b62906004906020840190611d75565b50506005805460ff1916601217905550565b600b546001600160701b031690565b6001600160a01b0382166000908152600960209081526040808320815160608101835290546001600160701b038082168352600160701b82041693820193909352600160e01b90920463ffffffff1690820152610be18185856117ae565b949350505050565b3360009081526006602052604090205460ff161515600114610c52576040805162461bcd60e51b815260206004820181905260248201527f4f776e61626c653a2063616c6c6572206973206e6f7420746865206f776e6572604482015290519081900360640190fd5b6001600160a01b038116610c975760405162461bcd60e51b8152600401808060200182810382526026815260200180611f026026913960400191505060405180910390fd5b610ca0826109e6565b610cf1576040805162461bcd60e51b815260206004820152600c60248201527f4e6f7420616e206f776e65720000000000000000000000000000000000000000604482015290519081900360640190fd5b806001600160a01b0316826001600160a01b03167f8be0079c531659141344cd1fd0a4f28419497f9722a3daafe3b4186f6b6457e060405160405180910390a36001600160a01b03918216600090815260066020526040808220805460ff199081169091559290931681529190912080549091166001179055565b600b54600160901b900463ffffffff1690565b600a54600090815b81811015610de0578363ffffffff16600a8281548110610da357fe5b6000918252602090912060088204015460079091166004026101000a900463ffffffff161415610dd857600192505050610a03565b600101610d87565b5060009392505050565b3360009081526006602052604090205460ff161515600114610e53576040805162461bcd60e51b815260206004820181905260248201527f4f776e61626c653a2063616c6c6572206973206e6f7420746865206f776e6572604482015290519081900360640190fd5b6001600160a01b038116610e985760405162461bcd60e51b8152600401808060200182810382526026815260200180611f026026913960400191505060405180910390fd5b6040516001600160a01b038216906000907f8be0079c531659141344cd1fd0a4f28419497f9722a3daafe3b4186f6b6457e0908290a36001600160a01b03166000908152600660205260409020805460ff19166001908117909155600780549091019055565b6001600160a01b031660009081526020819052604090205490565b3360009081526006602052604090205460ff161515600114610f82576040805162461bcd60e51b815260206004820181905260248201527f4f776e61626c653a2063616c6c6572206973206e6f7420746865206f776e6572604482015290519081900360640190fd5b6007805460001901905533600081815260066020526040808220805460ff19169055519091907f8be0079c531659141344cd1fd0a4f28419497f9722a3daafe3b4186f6b6457e0908390a3565b60085463ffffffff1690565b60048054604080516020601f60026000196101006001881615020190951694909404938401819004810282018101909252828152606093909290918301828280156109565780601f1061092b57610100808354040283529160200191610956565b600061096d33846109d68560405180606001604052806025815260200161202b602591393360009081526001602090815260408083206001600160a01b038d16845290915290205491906115bf565b600061096d338484611462565b3360009081526006602052604081205460ff161515600114611101576040805162461bcd60e51b815260206004820181905260248201527f4f776e61626c653a2063616c6c6572206973206e6f7420746865206f776e6572604482015290519081900360640190fd5b6109db848484611462565b6007541561114b5760405162461bcd60e51b8152600401808060200182810382526029815260200180611f986029913960400191505060405180910390fd5b6001600160a01b038116600081815260066020526040808220805460ff19166001908117909155600755517f8be0079c531659141344cd1fd0a4f28419497f9722a3daafe3b4186f6b6457e0908290a350565b3360009081526006602052604090205460ff161515600114611207576040805162461bcd60e51b815260206004820181905260248201527f4f776e61626c653a2063616c6c6572206973206e6f7420746865206f776e6572604482015290519081900360640190fd5b610ace83836001600160701b03168361182e565b6001600160a01b03918216600090815260016020908152604080832093909416825291909152205490565b600b54600160701b900463ffffffff16156112a8576040805162461bcd60e51b815260206004820152601360248201527f416c726561647920696e697469616c697a656400000000000000000000000000604482015290519081900360640190fd5b6008805463ffffffff191663ffffffff871617905583516112d090600a906020870190611e01565b50600b80547fffffffffffffffffffffffffffff00000000ffffffffffffffffffffffffffff16600160701b4263ffffffff90811691909102919091176dffffffffffffffffffffffffffff19166001600160701b038616177fffffffffffffffffffff00000000ffffffffffffffffffffffffffffffffffff16600160901b918516919091021790556113638161110c565b61136d8787610ad3565b50505050505050565b6001600160a01b0383166113bb5760405162461bcd60e51b81526004018080602001828103825260248152602001806120076024913960400191505060405180910390fd5b6001600160a01b0382166114005760405162461bcd60e51b8152600401808060200182810382526022815260200180611f286022913960400191505060405180910390fd5b6001600160a01b03808416600081815260016020908152604080832094871680845294825291829020859055815185815291517f8c5be1e5ebec7d5bd14f71427d1e84f3dd0314c0f7b2291e5b200ac8c7c3b9259281900390910190a3505050565b6001600160a01b0383166114a75760405162461bcd60e51b8152600401808060200182810382526025815260200180611fe26025913960400191505060405180910390fd5b6001600160a01b0382166114ec5760405162461bcd60e51b8152600401808060200182810382526023815260200180611ebd6023913960400191505060405180910390fd5b6114f98383836001611920565b61153681604051806060016040528060268152602001611f4a602691396001600160a01b03861660009081526020819052604090205491906115bf565b6001600160a01b0380851660009081526020819052604080822093909355908416815220546115659082611656565b6001600160a01b038084166000818152602081815260409182902094909455805185815290519193928716927fddf252ad1be2c89b69c2b068fc378daa952ba7f163c4a11628f55a4df523b3ef92918290030190a3505050565b6000818484111561164e5760405162461bcd60e51b81526004018080602001828103825283818151815260200191508051906020019080838360005b838110156116135781810151838201526020016115fb565b50505050905090810190601f1680156116405780820380516001836020036101000a031916815260200191505b509250505060405180910390fd5b505050900390565b6000828201838110156109df576040805162461bcd60e51b815260206004820152601b60248201527f536166654d6174683a206164646974696f6e206f766572666c6f770000000000604482015290519081900360640190fd5b6001600160a01b0383166116f55760405162461bcd60e51b8152600401808060200182810382526021815260200180611fc16021913960400191505060405180910390fd5b6117028360008484611920565b61173f82604051806060016040528060228152602001611ee0602291396001600160a01b03861660009081526020819052604090205491906115bf565b6001600160a01b0384166000908152602081905260409020556002546117659083611bc3565b6002556040805183815290516000916001600160a01b038616917fddf252ad1be2c89b69c2b068fc378daa952ba7f163c4a11628f55a4df523b3ef9181900360200190a3505050565b6000806117ba84610efe565b905084602001516001600160701b0316816001600160701b0316111561180457604085015160208601516008546117fb929184039063ffffffff1686611c20565b900390506109df565b6040850151602086015160085461182692918490039063ffffffff1686611c20565b0190506109df565b6001600160a01b038316611889576040805162461bcd60e51b815260206004820152601f60248201527f45524332303a206d696e7420746f20746865207a65726f206164647265737300604482015290519081900360640190fd5b6118966000848484611920565b6002546118a39083611656565b6002556001600160a01b0383166000908152602081905260409020546118c99083611656565b6001600160a01b0384166000818152602081815260408083209490945583518681529351929391927fddf252ad1be2c89b69c2b068fc378daa952ba7f163c4a11628f55a4df523b3ef9281900390910190a3505050565b426001600160a01b03851615611a6f576001600160a01b038516600090815260096020908152604091829020825160608101845290546001600160701b038082168352600160701b82041692820192909252600160e01b90910463ffffffff16918101919091526119928187846117ae565b6001600160701b0316602082015263ffffffff8216604082015282156119c35780518490036001600160701b031681525b6001600160a01b0386166000908152600960209081526040918290208351815492850151939094015163ffffffff16600160e01b027bffffffffffffffffffffffffffffffffffffffffffffffffffffffff6001600160701b03948516600160701b027fffffffff0000000000000000000000000000ffffffffffffffffffffffffffff959096166dffffffffffffffffffffffffffff19909416939093179390931693909317161790555b6001600160a01b03841615611bbc576001600160a01b038416600090815260096020908152604091829020825160608101845290546001600160701b038082168352600160701b82041692820192909252600160e01b90910463ffffffff1691810191909152611ae08186846117ae565b6001600160701b0316602082015263ffffffff821660408201528215611b1057805184016001600160701b031681525b6001600160a01b0385166000908152600960209081526040918290208351815492850151939094015163ffffffff16600160e01b027bffffffffffffffffffffffffffffffffffffffffffffffffffffffff6001600160701b03948516600160701b027fffffffff0000000000000000000000000000ffffffffffffffffffffffffffff959096166dffffffffffffffffffffffffffff19909416939093179390931693909317161790555b5050505050565b600082821115611c1a576040805162461bcd60e51b815260206004820152601e60248201527f536166654d6174683a207375627472616374696f6e206f766572666c6f770000604482015290519081900360640190fd5b50900390565b60008463ffffffff168263ffffffff161015611c83576040805162461bcd60e51b815260206004820152600e60248201527f496e76616c696420706572696f64000000000000000000000000000000000000604482015290519081900360640190fd5b84820391508263ffffffff168263ffffffff1681611c9d57fe5b0463ffffffff16846001600160701b0316901c93508263ffffffff168263ffffffff1681611cc757fe5b06915063ffffffff82161580611ce457506001600160701b038416155b15611cf0575082610be1565b60006001600160701b0385168163ffffffff86811690861671b17217f7d1cf79abc9e3b39803f2f6af40f30281611d2357fe5b049050600160901b5b8215611d6857928201928082840281611d4157fe5b0493849003939250600160901b018082840281611d5a57fe5b049250600160901b01611d2c565b5091979650505050505050565b828054600181600116156101000203166002900490600052602060002090601f016020900481019282611dab5760008555611df1565b82601f10611dc457805160ff1916838001178555611df1565b82800160010185558215611df1579182015b82811115611df1578251825591602001919060010190611dd6565b50611dfd929150611ea7565b5090565b82805482825590600052602060002090600701600890048101928215611df15791602002820160005b83821115611e6e57835183826101000a81548163ffffffff021916908363ffffffff1602179055509260200192600401602081600301049283019260010302611e2a565b8015611e9e5782816101000a81549063ffffffff0219169055600401602081600301049283019260010302611e6e565b5050611dfd9291505b5b80821115611dfd5760008155600101611ea856fe45524332303a207472616e7366657220746f20746865207a65726f206164647265737345524332303a206275726e20616d6f756e7420657863656564732062616c616e63654f776e61626c653a206e6577206f776e657220697320746865207a65726f206164647265737345524332303a20617070726f766520746f20746865207a65726f206164647265737345524332303a207472616e7366657220616d6f756e7420657863656564732062616c616e636545524332303a207472616e7366657220616d6f756e74206578636565647320616c6c6f77616e6365496e697469616c697a61626c654f776e61626c653a20616c726561647920696e697469616c697a656445524332303a206275726e2066726f6d20746865207a65726f206164647265737345524332303a207472616e736665722066726f6d20746865207a65726f206164647265737345524332303a20617070726f76652066726f6d20746865207a65726f206164647265737345524332303a2064656372656173656420616c6c6f77616e63652062656c6f77207a65726fa2646970667358221220dc68a503d4ad9b494eadbe690ca46e75c3936c473effeb19f00d9326d989090a64736f6c63430007060033",
  "linkReferences": {},
  "deployedLinkReferences": {}
}