{
  "_format": "hh-sol-artifact-1",
  "contractName": "PowerToken",
  "sourceName": "contracts/iq/PowerToken.sol",
  "abi": [
    {
      "anonymous": false,
      "inputs": [
        {
          "indexed": true,
          "internalType": "address",
          "name": "_owner",
          "type": "address"
        },
        {
          "indexed": true,
          "internalType": "address",
          "name": "_operator",
          "type": "address"
        },
        {
          "indexed": false,
          "internalType": "bool",
          "name": "_approved",
          "type": "bool"
        }
      ],
      "name": "ApprovalForAll",
      "type": "event"
    },
    {
      "anonymous": false,
      "inputs": [
        {
          "indexed": true,
          "internalType": "address",
          "name": "_operator",
          "type": "address"
        },
        {
          "indexed": true,
          "internalType": "address",
          "name": "_from",
          "type": "address"
        },
        {
          "indexed": true,
          "internalType": "address",
          "name": "_to",
          "type": "address"
        },
        {
          "indexed": false,
          "internalType": "uint256[]",
          "name": "_ids",
          "type": "uint256[]"
        },
        {
          "indexed": false,
          "internalType": "uint256[]",
          "name": "_values",
          "type": "uint256[]"
        }
      ],
      "name": "TransferBatch",
      "type": "event"
    },
    {
      "anonymous": false,
      "inputs": [
        {
          "indexed": true,
          "internalType": "address",
          "name": "_operator",
          "type": "address"
        },
        {
          "indexed": true,
          "internalType": "address",
          "name": "_from",
          "type": "address"
        },
        {
          "indexed": true,
          "internalType": "address",
          "name": "_to",
          "type": "address"
        },
        {
          "indexed": false,
          "internalType": "uint256",
          "name": "_id",
          "type": "uint256"
        },
        {
          "indexed": false,
          "internalType": "uint256",
          "name": "_value",
          "type": "uint256"
        }
      ],
      "name": "TransferSingle",
      "type": "event"
    },
    {
      "anonymous": false,
      "inputs": [
        {
          "indexed": false,
          "internalType": "string",
          "name": "_value",
          "type": "string"
        },
        {
          "indexed": true,
          "internalType": "uint256",
          "name": "_id",
          "type": "uint256"
        }
      ],
      "name": "URI",
      "type": "event"
    },
    {
      "inputs": [
        {
          "internalType": "address",
          "name": "account",
          "type": "address"
        },
        {
          "internalType": "uint256",
          "name": "id",
          "type": "uint256"
        }
      ],
      "name": "balanceOf",
      "outputs": [
        {
          "internalType": "uint256",
          "name": "",
          "type": "uint256"
        }
      ],
      "stateMutability": "view",
      "type": "function"
    },
    {
      "inputs": [
        {
          "internalType": "address[]",
          "name": "accounts",
          "type": "address[]"
        },
        {
          "internalType": "uint256[]",
          "name": "ids",
          "type": "uint256[]"
        }
      ],
      "name": "balanceOfBatch",
      "outputs": [
        {
          "internalType": "uint256[]",
          "name": "",
          "type": "uint256[]"
        }
      ],
      "stateMutability": "view",
      "type": "function"
    },
    {
      "inputs": [
        {
          "internalType": "address",
          "name": "_account",
          "type": "address"
        },
        {
          "internalType": "uint256",
          "name": "_id",
          "type": "uint256"
        },
        {
          "internalType": "uint256",
          "name": "_value",
          "type": "uint256"
        }
      ],
      "name": "burn",
      "outputs": [],
      "stateMutability": "nonpayable",
      "type": "function"
    },
    {
      "inputs": [
        {
          "internalType": "address",
          "name": "who",
          "type": "address"
        },
        {
          "internalType": "uint32",
          "name": "timestamp",
          "type": "uint32"
        }
      ],
      "name": "energyAt",
      "outputs": [
        {
          "internalType": "uint112",
          "name": "",
          "type": "uint112"
        }
      ],
      "stateMutability": "view",
      "type": "function"
    },
    {
      "inputs": [],
      "name": "halfLife",
      "outputs": [
        {
          "internalType": "uint32",
          "name": "",
          "type": "uint32"
        }
      ],
      "stateMutability": "view",
      "type": "function"
    },
    {
      "inputs": [
        {
          "internalType": "string",
          "name": "_name",
          "type": "string"
        },
        {
          "internalType": "string",
          "name": "_symbol",
          "type": "string"
        },
        {
          "internalType": "string",
          "name": "_baseUri",
          "type": "string"
        },
        {
          "internalType": "uint32",
          "name": "_halfLife",
          "type": "uint32"
        }
      ],
      "name": "initialize",
      "outputs": [],
      "stateMutability": "nonpayable",
      "type": "function"
    },
    {
      "inputs": [
        {
          "internalType": "address",
          "name": "account",
          "type": "address"
        },
        {
          "internalType": "address",
          "name": "operator",
          "type": "address"
        }
      ],
      "name": "isApprovedForAll",
      "outputs": [
        {
          "internalType": "bool",
          "name": "",
          "type": "bool"
        }
      ],
      "stateMutability": "view",
      "type": "function"
    },
    {
      "inputs": [
        {
          "internalType": "address",
          "name": "_to",
          "type": "address"
        },
        {
          "internalType": "uint256",
          "name": "_id",
          "type": "uint256"
        },
        {
          "internalType": "uint256",
          "name": "_value",
          "type": "uint256"
        },
        {
          "internalType": "bytes",
          "name": "_data",
          "type": "bytes"
        }
      ],
      "name": "mint",
      "outputs": [],
      "stateMutability": "nonpayable",
      "type": "function"
    },
    {
      "inputs": [],
      "name": "name",
      "outputs": [
        {
          "internalType": "string",
          "name": "",
          "type": "string"
        }
      ],
      "stateMutability": "view",
      "type": "function"
    },
    {
      "inputs": [],
      "name": "owner",
      "outputs": [
        {
          "internalType": "address",
          "name": "",
          "type": "address"
        }
      ],
      "stateMutability": "view",
      "type": "function"
    },
    {
      "inputs": [
        {
          "internalType": "address",
          "name": "_from",
          "type": "address"
        },
        {
          "internalType": "address",
          "name": "_to",
          "type": "address"
        },
        {
          "internalType": "uint256[]",
          "name": "_ids",
          "type": "uint256[]"
        },
        {
          "internalType": "uint256[]",
          "name": "_values",
          "type": "uint256[]"
        },
        {
          "internalType": "bytes",
          "name": "_data",
          "type": "bytes"
        }
      ],
      "name": "safeBatchTransferFrom",
      "outputs": [],
      "stateMutability": "nonpayable",
      "type": "function"
    },
    {
      "inputs": [
        {
          "internalType": "address",
          "name": "_from",
          "type": "address"
        },
        {
          "internalType": "address",
          "name": "_to",
          "type": "address"
        },
        {
          "internalType": "uint256",
          "name": "_id",
          "type": "uint256"
        },
        {
          "internalType": "uint256",
          "name": "_value",
          "type": "uint256"
        },
        {
          "internalType": "bytes",
          "name": "_data",
          "type": "bytes"
        }
      ],
      "name": "safeTransferFrom",
      "outputs": [],
      "stateMutability": "nonpayable",
      "type": "function"
    },
    {
      "inputs": [
        {
          "internalType": "address",
          "name": "operator",
          "type": "address"
        },
        {
          "internalType": "bool",
          "name": "approved",
          "type": "bool"
        }
      ],
      "name": "setApprovalForAll",
      "outputs": [],
      "stateMutability": "nonpayable",
      "type": "function"
    },
    {
      "inputs": [
        {
          "internalType": "address",
          "name": "",
          "type": "address"
        }
      ],
      "name": "states",
      "outputs": [
        {
          "internalType": "uint112",
          "name": "balance",
          "type": "uint112"
        },
        {
          "internalType": "uint112",
          "name": "energy",
          "type": "uint112"
        },
        {
          "internalType": "uint32",
          "name": "timestamp",
          "type": "uint32"
        }
      ],
      "stateMutability": "view",
      "type": "function"
    },
    {
      "inputs": [],
      "name": "symbol",
      "outputs": [
        {
          "internalType": "string",
          "name": "",
          "type": "string"
        }
      ],
      "stateMutability": "view",
      "type": "function"
    },
    {
      "inputs": [
        {
          "internalType": "uint256",
          "name": "",
          "type": "uint256"
        }
      ],
      "name": "uri",
      "outputs": [
        {
          "internalType": "string",
          "name": "",
          "type": "string"
        }
      ],
      "stateMutability": "view",
      "type": "function"
    }
  ],
  "bytecode": "0x608060405234801561001057600080fd5b50611f28806100206000396000f3fe608060405234801561001057600080fd5b50600436106100ff5760003560e01c8063731133e911610097578063a22cb46511610066578063a22cb465146107f1578063e985e9c51461081f578063f242432a14610861578063f5298aca146108f6576100ff565b8063731133e9146106e25780637bc90d1c146107a45780638da5cb5b146107c557806395d89b41146107e9576100ff565b80632eb2c2d6116100d35780632eb2c2d6146102325780634e1273f4146103615780635370028e146104d857806359f0bee914610526576100ff565b8062fdd58e1461010457806302a223371461014257806306fdde03146101985780630e89341c14610215575b600080fd5b6101306004803603604081101561011a57600080fd5b506001600160a01b038135169060200135610928565b60408051918252519081900360200190f35b6101686004803603602081101561015857600080fd5b50356001600160a01b031661099a565b604080516001600160701b03948516815292909316602083015263ffffffff168183015290519081900360600190f35b6101a06109d0565b6040805160208082528351818301528351919283929083019185019080838360005b838110156101da5781810151838201526020016101c2565b50505050905090810190601f1680156102075780820380516001836020036101000a031916815260200191505b509250505060405180910390f35b6101a06004803603602081101561022b57600080fd5b5035610a5e565b61035f600480360360a081101561024857600080fd5b6001600160a01b03823581169260208101359091169181019060608101604082013564010000000081111561027c57600080fd5b82018360208201111561028e57600080fd5b803590602001918460208302840111640100000000831117156102b057600080fd5b9193909290916020810190356401000000008111156102ce57600080fd5b8201836020820111156102e057600080fd5b8035906020019184602083028401116401000000008311171561030257600080fd5b91939092909160208101903564010000000081111561032057600080fd5b82018360208201111561033257600080fd5b8035906020019184600183028401116401000000008311171561035457600080fd5b509092509050610af3565b005b6104886004803603604081101561037757600080fd5b81019060208101813564010000000081111561039257600080fd5b8201836020820111156103a457600080fd5b803590602001918460208302840111640100000000831117156103c657600080fd5b919080806020026020016040519081016040528093929190818152602001838360200280828437600092019190915250929594936020810193503591505064010000000081111561041657600080fd5b82018360208201111561042857600080fd5b8035906020019184602083028401116401000000008311171561044a57600080fd5b919080806020026020016040519081016040528093929190818152602001838360200280828437600092019190915250929550610d93945050505050565b60408051602080825283518183015283519192839290830191858101910280838360005b838110156104c45781810151838201526020016104ac565b505050509050019250505060405180910390f35b61050a600480360360408110156104ee57600080fd5b5080356001600160a01b0316906020013563ffffffff16610e7f565b604080516001600160701b039092168252519081900360200190f35b61035f6004803603608081101561053c57600080fd5b81019060208101813564010000000081111561055757600080fd5b82018360208201111561056957600080fd5b8035906020019184600183028401116401000000008311171561058b57600080fd5b91908080601f01602080910402602001604051908101604052809392919081815260200183838082843760009201919091525092959493602081019350359150506401000000008111156105de57600080fd5b8201836020820111156105f057600080fd5b8035906020019184600183028401116401000000008311171561061257600080fd5b91908080601f016020809104026020016040519081016040528093929190818152602001838380828437600092019190915250929594936020810193503591505064010000000081111561066557600080fd5b82018360208201111561067757600080fd5b8035906020019184600183028401116401000000008311171561069957600080fd5b91908080601f0160208091040260200160405190810160405280939291908181526020018383808284376000920191909152509295505050903563ffffffff169150610ee49050565b61035f600480360360808110156106f857600080fd5b6001600160a01b03823516916020810135916040820135919081019060808101606082013564010000000081111561072f57600080fd5b82018360208201111561074157600080fd5b8035906020019184600183028401116401000000008311171561076357600080fd5b91908080601f016020809104026020016040519081016040528093929190818152602001838380828437600092019190915250929550610f0a945050505050565b6107ac610f6d565b6040805163ffffffff9092168252519081900360200190f35b6107cd610f79565b604080516001600160a01b039092168252519081900360200190f35b6101a0610f88565b61035f6004803603604081101561080757600080fd5b506001600160a01b0381351690602001351515610fe2565b61084d6004803603604081101561083557600080fd5b506001600160a01b0381358116916020013516611098565b604080519115158252519081900360200190f35b61035f600480360360a081101561087757600080fd5b6001600160a01b03823581169260208101359091169160408201359160608101359181019060a0810160808201356401000000008111156108b757600080fd5b8201836020820111156108c957600080fd5b803590602001918460018302840111640100000000831117156108eb57600080fd5b5090925090506110c6565b61035f6004803603606081101561090c57600080fd5b506001600160a01b0381351690602081013590604001356112ab565b60006001600160a01b03831661096f5760405162461bcd60e51b815260040180806020018281038252602b815260200180611d82602b913960400191505060405180910390fd5b5060008181526004602090815260408083206001600160a01b03861684529091529020545b92915050565b6007602052600090815260409020546001600160701b0380821691600160701b810490911690600160e01b900463ffffffff1683565b6000805460408051602060026001851615610100026000190190941693909304601f81018490048402820184019092528181529291830182828015610a565780601f10610a2b57610100808354040283529160200191610a56565b820191906000526020600020905b815481529060010190602001808311610a3957829003601f168201915b505050505081565b60028054604080516020601f6000196101006001871615020190941685900493840181900481028201810190925282815260609390929091830182828015610ae75780601f10610abc57610100808354040283529160200191610ae7565b820191906000526020600020905b815481529060010190602001808311610aca57829003601f168201915b50505050509050919050565b6001600160a01b038716610b385760405162461bcd60e51b8152600401808060200182810382526025815260200180611dad6025913960400191505060405180910390fd5b848314610b765760405162461bcd60e51b8152600401808060200182810382526029815260200180611e3f6029913960400191505060405180910390fd5b6001600160a01b038816331480610bb557506001600160a01b038816600090815260056020908152604080832033845290915290205460ff1615156001145b610bf05760405162461bcd60e51b815260040180806020018281038252602f815260200180611dd2602f913960400191505060405180910390fd5b60005b85811015610c3357610c2b8989898985818110610c0c57fe5b90506020020135888886818110610c1f57fe5b90506020020135611309565b600101610bf3565b50866001600160a01b0316886001600160a01b0316336001600160a01b03167f4a39dc06d4c0dbc64b70af90fd698a233a518aa5d07e595d983b8c0526c8f7fb898989896040518080602001806020018381038352878782818152602001925060200280828437600083820152601f01601f19169091018481038352858152602090810191508690860280828437600083820152604051601f909101601f19169092018290039850909650505050505050a4610d8933898989898080602002602001604051908101604052809392919081815260200183836020028082843760009201919091525050604080516020808d0282810182019093528c82529093508c92508b91829185019084908082843760009201919091525050604080516020601f8c018190048102820181019092528a815292508a915089908190840183828082843760009201919091525061135092505050565b5050505050505050565b60608151835114610dd55760405162461bcd60e51b8152600401808060200182810382526029815260200180611e916029913960400191505060405180910390fd5b6000835167ffffffffffffffff81118015610def57600080fd5b50604051908082528060200260200182016040528015610e19578160200160208202803683370190505b50905060005b8451811015610e7757610e58858281518110610e3757fe5b6020026020010151858381518110610e4b57fe5b6020026020010151610928565b828281518110610e6457fe5b6020908102919091010152600101610e1f565b509392505050565b6001600160a01b0382166000908152600760209081526040808320815160608101835290546001600160701b038082168352600160701b82041693820193909352600160e01b90920463ffffffff1690820152610edc8184611559565b949350505050565b6006805463ffffffff191663ffffffff8316179055610f048484846115d9565b50505050565b6003546001600160a01b03163314610f58576040805162461bcd60e51b815260206004820152600c60248201526b2737ba1030b71037bbb732b960a11b604482015290519081900360640190fd5b610f048484846001600160701b0316846116ac565b60065463ffffffff1681565b6003546001600160a01b031681565b60018054604080516020600284861615610100026000190190941693909304601f81018490048402820184019092528181529291830182828015610a565780601f10610a2b57610100808354040283529160200191610a56565b336001600160a01b038316141561102a5760405162461bcd60e51b8152600401808060200182810382526029815260200180611e686029913960400191505060405180910390fd5b3360008181526005602090815260408083206001600160a01b03871680855290835292819020805460ff1916861515908117909155815190815290519293927f17307eab39ab6107e8899845ad3d59bd9653f200f220920489ca2b5937696c31929181900390910190a35050565b6001600160a01b03918216600090815260056020908152604080832093909416825291909152205460ff1690565b6001600160701b038310611121576040805162461bcd60e51b815260206004820152601360248201527f56616c7565206f7574206f6620626f756e647300000000000000000000000000604482015290519081900360640190fd5b6001600160a01b03851661117c576040805162461bcd60e51b815260206004820152601560248201527f5f746f206d757374206265206e6f6e2d7a65726f2e0000000000000000000000604482015290519081900360640190fd5b6001600160a01b0386163314806111bb57506001600160a01b038616600090815260056020908152604080832033845290915290205460ff1615156001145b6111f65760405162461bcd60e51b815260040180806020018281038252602f815260200180611dd2602f913960400191505060405180910390fd5b61120286868686611309565b846001600160a01b0316866001600160a01b0316336001600160a01b03167fc3d58168c5ae7397731d063d5bbf3d657854427343f4c083240f7aacaa2d0f628787604051808381526020018281526020019250505060405180910390a46112a3338787878787878080601f01602080910402602001604051908101604052809392919081815260200183838082843760009201919091525061172992505050565b505050505050565b6003546001600160a01b031633146112f9576040805162461bcd60e51b815260206004820152600c60248201526b2737ba1030b71037bbb732b960a11b604482015290519081900360640190fd5b6113048383836118b6565b505050565b61131584848484611946565b60009182526004602090815260408084206001600160a01b039687168552909152808320805483900390559290931681522080549091019055565b611362846001600160a01b0316611b85565b156112a35763bc197c8160e01b6001600160e01b031916846001600160a01b031663bc197c8188888787876040518663ffffffff1660e01b815260040180866001600160a01b03168152602001856001600160a01b03168152602001806020018060200180602001848103845287818151815260200191508051906020019060200280838360005b838110156114025781810151838201526020016113ea565b50505050905001848103835286818151815260200191508051906020019060200280838360005b83811015611441578181015183820152602001611429565b50505050905001848103825285818151815260200191508051906020019080838360005b8381101561147d578181015183820152602001611465565b50505050905090810190601f1680156114aa5780820380516001836020036101000a031916815260200191505b5098505050505050505050602060405180830381600087803b1580156114cf57600080fd5b505af11580156114e3573d6000803e3d6000fd5b505050506040513d60208110156114f957600080fd5b50517fffffffff0000000000000000000000000000000000000000000000000000000016146112a35760405162461bcd60e51b815260040180806020018281038252603e815260200180611e01603e913960400191505060405180910390fd5b600082602001516001600160701b031683600001516001600160701b031611156115ab576040830151602084015184516006546115a193929091039063ffffffff1685611b8b565b8351039050610994565b6040830151835160208501516006546115cf93929091039063ffffffff1685611b8b565b8351019050610994565b6000546002600019610100600184161502019091160415611641576040805162461bcd60e51b815260206004820152601c60248201527f436f6e747261637420616c726561647920696e697469616c697a656400000000604482015290519081900360640190fd5b8251611654906000906020860190611ce0565b508151611668906001906020850190611ce0565b50805161167c906002906020840190611ce0565b5050600380547fffffffffffffffffffffffff000000000000000000000000000000000000000016331790555050565b6116b96000858585611946565b60008381526004602090815260408083206001600160a01b0388168085529083528184208054870190558151878152928301869052815190939233927fc3d58168c5ae7397731d063d5bbf3d657854427343f4c083240f7aacaa2d0f6292918290030190a4610f04336000868686865b61173b846001600160a01b0316611b85565b156112a35763f23a6e6160e01b6001600160e01b031916846001600160a01b031663f23a6e6188888787876040518663ffffffff1660e01b815260040180866001600160a01b03168152602001856001600160a01b0316815260200184815260200183815260200180602001828103825283818151815260200191508051906020019080838360005b838110156117dc5781810151838201526020016117c4565b50505050905090810190601f1680156118095780820380516001836020036101000a031916815260200191505b509650505050505050602060405180830381600087803b15801561182c57600080fd5b505af1158015611840573d6000803e3d6000fd5b505050506040513d602081101561185657600080fd5b50517fffffffff0000000000000000000000000000000000000000000000000000000016146112a35760405162461bcd60e51b8152600401808060200182810382526039815260200180611eba6039913960400191505060405180910390fd5b6118c38360008484611946565b60008281526004602090815260408083206001600160a01b0387168085529083528184208054869003905581518681529283018590528151909233927fc3d58168c5ae7397731d063d5bbf3d657854427343f4c083240f7aacaa2d0f6292918290030190a461130433846000858560405180602001604052806000815250611729565b426001600160a01b03851615611a63576001600160a01b038516600090815260076020908152604091829020825160608101845290546001600160701b038082168352600160701b82041692820192909252600160e01b90910463ffffffff16918101919091526119b78183611559565b6001600160701b03908116602083810191825263ffffffff85811660408087019182528651899003861687526001600160a01b038c166000908152600790945290922094518554935192516dffffffffffffffffffffffffffff19909416908516177fffffffff0000000000000000000000000000ffffffffffffffffffffffffffff16600160701b9290941691909102929092176001600160e01b0316600160e01b91909216021790555b6001600160a01b03841615611b7e576001600160a01b038416600090815260076020908152604091829020825160608101845290546001600160701b038082168352600160701b82041692820192909252600160e01b90910463ffffffff1691810191909152611ad38183611559565b6001600160701b03908116602083810191825263ffffffff858116604080870191825286518901861687526001600160a01b038b166000908152600790945290922094518554935192516dffffffffffffffffffffffffffff19909416908516177fffffffff0000000000000000000000000000ffffffffffffffffffffffffffff16600160701b9290941691909102929092176001600160e01b0316600160e01b91909216021790555b5050505050565b3b151590565b60008463ffffffff168263ffffffff161015611bee576040805162461bcd60e51b815260206004820152600e60248201527f496e76616c696420706572696f64000000000000000000000000000000000000604482015290519081900360640190fd5b84820391508263ffffffff168263ffffffff1681611c0857fe5b0463ffffffff16846001600160701b0316901c93508263ffffffff168263ffffffff1681611c3257fe5b06915063ffffffff82161580611c4f57506001600160701b038416155b15611c5b575082610edc565b60006001600160701b0385168163ffffffff86811690861671b17217f7d1cf79abc9e3b39803f2f6af40f30281611c8e57fe5b049050600160901b5b8215611cd357928201928082840281611cac57fe5b0493849003939250600160901b018082840281611cc557fe5b049250600160901b01611c97565b5091979650505050505050565b828054600181600116156101000203166002900490600052602060002090601f016020900481019282611d165760008555611d5c565b82601f10611d2f57805160ff1916838001178555611d5c565b82800160010185558215611d5c579182015b82811115611d5c578251825591602001919060010190611d41565b50611d68929150611d6c565b5090565b5b80821115611d685760008155600101611d6d56fe455243313135353a2062616c616e636520717565727920666f7220746865207a65726f206164647265737364657374696e6174696f6e2061646472657373206d757374206265206e6f6e2d7a65726f2e4e656564206f70657261746f7220617070726f76616c20666f7220337264207061727479207472616e73666572732e636f6e74726163742072657475726e656420616e20756e6b6e6f776e2076616c75652066726f6d206f6e45524331313535426174636852656365697665645f69647320616e64205f76616c756573206172726179206c656e677468206d757374206d617463682e455243313135353a2073657474696e6720617070726f76616c2073746174757320666f722073656c66455243313135353a206163636f756e747320616e6420696473206c656e677468206d69736d61746368636f6e74726163742072657475726e656420616e20756e6b6e6f776e2076616c75652066726f6d206f6e455243313135355265636569766564a2646970667358221220d51643d56ed46a8760ed708a3e9a96ce7a8d51721af66dd2f4935ae58731386364736f6c63430007060033",
  "linkReferences": {},
  "deployedLinkReferences": {}
}