{
  "_format": "hh-sol-artifact-1",
  "contractName": "EnterpriseConfigurator",
  "sourceName": "contracts/EnterpriseConfigurator.sol",
  "abi": [
    {
      "anonymous": false,
      "inputs": [
        {
          "indexed": true,
          "internalType": "address",
          "name": "previousOwner",
          "type": "address"
        },
        {
          "indexed": true,
          "internalType": "address",
          "name": "newOwner",
          "type": "address"
        }
      ],
      "name": "OwnershipTransferred",
      "type": "event"
    },
    {
      "inputs": [
        {
          "internalType": "contract IPowerToken",
          "name": "powerToken",
          "type": "address"
        },
        {
          "components": [
            {
              "internalType": "uint112",
              "name": "factor",
              "type": "uint112"
            },
            {
              "internalType": "uint32",
              "name": "halfLife",
              "type": "uint32"
            },
            {
              "internalType": "uint16",
              "name": "serviceFeePercent",
              "type": "uint16"
            },
            {
              "internalType": "uint16",
              "name": "previousServiceFeePercent",
              "type": "uint16"
            },
            {
              "internalType": "contract IERC20Metadata",
              "name": "factorToken",
              "type": "address"
            },
            {
              "internalType": "uint32",
              "name": "serviceFeePercentChangeTime",
              "type": "uint32"
            },
            {
              "internalType": "uint32",
              "name": "minLoanPeriod",
              "type": "uint32"
            },
            {
              "internalType": "uint32",
              "name": "maxLoanPeriod",
              "type": "uint32"
            }
          ],
          "internalType": "struct EnterpriseConfigurator.ServiceConfig",
          "name": "config",
          "type": "tuple"
        }
      ],
      "name": "addService",
      "outputs": [],
      "stateMutability": "nonpayable",
      "type": "function"
    },
    {
      "inputs": [],
      "name": "getBorrowToken",
      "outputs": [
        {
          "internalType": "contract IBorrowToken",
          "name": "",
          "type": "address"
        }
      ],
      "stateMutability": "view",
      "type": "function"
    },
    {
      "inputs": [],
      "name": "getBorrowerLoanReturnGracePeriod",
      "outputs": [
        {
          "internalType": "uint32",
          "name": "",
          "type": "uint32"
        }
      ],
      "stateMutability": "view",
      "type": "function"
    },
    {
      "inputs": [],
      "name": "getConfig",
      "outputs": [
        {
          "internalType": "address",
          "name": "loanEstimator",
          "type": "address"
        },
        {
          "internalType": "address",
          "name": "previousEstimator",
          "type": "address"
        },
        {
          "internalType": "uint32",
          "name": "loanEstimatorChangeTime",
          "type": "uint32"
        }
      ],
      "stateMutability": "view",
      "type": "function"
    },
    {
      "inputs": [],
      "name": "getEnterpriseCollector",
      "outputs": [
        {
          "internalType": "address",
          "name": "",
          "type": "address"
        }
      ],
      "stateMutability": "view",
      "type": "function"
    },
    {
      "inputs": [],
      "name": "getEnterpriseLoanCollectGracePeriod",
      "outputs": [
        {
          "internalType": "uint32",
          "name": "",
          "type": "uint32"
        }
      ],
      "stateMutability": "view",
      "type": "function"
    },
    {
      "inputs": [],
      "name": "getEnterpriseVault",
      "outputs": [
        {
          "internalType": "address",
          "name": "",
          "type": "address"
        }
      ],
      "stateMutability": "view",
      "type": "function"
    },
    {
      "inputs": [
        {
          "internalType": "contract IPowerToken",
          "name": "powerToken",
          "type": "address"
        }
      ],
      "name": "getFactor",
      "outputs": [
        {
          "internalType": "uint112",
          "name": "",
          "type": "uint112"
        }
      ],
      "stateMutability": "view",
      "type": "function"
    },
    {
      "inputs": [
        {
          "internalType": "contract IPowerToken",
          "name": "powerToken",
          "type": "address"
        }
      ],
      "name": "getFactorToken",
      "outputs": [
        {
          "internalType": "contract IERC20Metadata",
          "name": "",
          "type": "address"
        }
      ],
      "stateMutability": "view",
      "type": "function"
    },
    {
      "inputs": [
        {
          "internalType": "contract IPowerToken",
          "name": "powerToken",
          "type": "address"
        }
      ],
      "name": "getHalfLife",
      "outputs": [
        {
          "internalType": "uint32",
          "name": "",
          "type": "uint32"
        }
      ],
      "stateMutability": "view",
      "type": "function"
    },
    {
      "inputs": [],
      "name": "getInterestToken",
      "outputs": [
        {
          "internalType": "contract IInterestToken",
          "name": "",
          "type": "address"
        }
      ],
      "stateMutability": "view",
      "type": "function"
    },
    {
      "inputs": [],
      "name": "getLienTerms",
      "outputs": [
        {
          "internalType": "uint32",
          "name": "lienPercent",
          "type": "uint32"
        },
        {
          "internalType": "uint112",
          "name": "minimumLien",
          "type": "uint112"
        }
      ],
      "stateMutability": "view",
      "type": "function"
    },
    {
      "inputs": [],
      "name": "getLiquidityToken",
      "outputs": [
        {
          "internalType": "contract IERC20Metadata",
          "name": "",
          "type": "address"
        }
      ],
      "stateMutability": "view",
      "type": "function"
    },
    {
      "inputs": [],
      "name": "getLoanCostEstimator",
      "outputs": [
        {
          "internalType": "contract ILoanCostEstimator",
          "name": "",
          "type": "address"
        }
      ],
      "stateMutability": "view",
      "type": "function"
    },
    {
      "inputs": [
        {
          "internalType": "contract IPowerToken",
          "name": "powerToken",
          "type": "address"
        }
      ],
      "name": "getMaxLoanPeriod",
      "outputs": [
        {
          "internalType": "uint32",
          "name": "",
          "type": "uint32"
        }
      ],
      "stateMutability": "view",
      "type": "function"
    },
    {
      "inputs": [
        {
          "internalType": "contract IPowerToken",
          "name": "powerToken",
          "type": "address"
        }
      ],
      "name": "getMinLoanPeriod",
      "outputs": [
        {
          "internalType": "uint32",
          "name": "",
          "type": "uint32"
        }
      ],
      "stateMutability": "view",
      "type": "function"
    },
    {
      "inputs": [],
      "name": "getPowerTokenImpl",
      "outputs": [
        {
          "internalType": "address",
          "name": "",
          "type": "address"
        }
      ],
      "stateMutability": "view",
      "type": "function"
    },
    {
      "inputs": [
        {
          "internalType": "contract IPowerToken",
          "name": "powerToken",
          "type": "address"
        }
      ],
      "name": "getServiceFeePercent",
      "outputs": [
        {
          "internalType": "uint112",
          "name": "",
          "type": "uint112"
        }
      ],
      "stateMutability": "view",
      "type": "function"
    },
    {
      "inputs": [
        {
          "internalType": "contract IEnterprise",
          "name": "enterprise",
          "type": "address"
        },
        {
          "internalType": "contract IERC20Metadata",
          "name": "liquidityToken",
          "type": "address"
        },
        {
          "internalType": "contract IInterestToken",
          "name": "interestToken",
          "type": "address"
        },
        {
          "internalType": "contract IBorrowToken",
          "name": "borrowToken",
          "type": "address"
        },
        {
          "internalType": "address",
          "name": "owner",
          "type": "address"
        }
      ],
      "name": "initialize",
      "outputs": [],
      "stateMutability": "nonpayable",
      "type": "function"
    },
    {
      "inputs": [
        {
          "internalType": "address",
          "name": "initialOwner",
          "type": "address"
        }
      ],
      "name": "initialize",
      "outputs": [],
      "stateMutability": "nonpayable",
      "type": "function"
    },
    {
      "inputs": [
        {
          "internalType": "address",
          "name": "powerTokenImpl",
          "type": "address"
        },
        {
          "internalType": "uint32",
          "name": "borrowerLoanReturnGracePeriod",
          "type": "uint32"
        },
        {
          "internalType": "uint32",
          "name": "enterpriseLoanCollectGracePeriod",
          "type": "uint32"
        },
        {
          "internalType": "contract ILoanCostEstimator",
          "name": "estimator",
          "type": "address"
        },
        {
          "internalType": "contract IConverter",
          "name": "converter",
          "type": "address"
        }
      ],
      "name": "initialize2",
      "outputs": [],
      "stateMutability": "nonpayable",
      "type": "function"
    },
    {
      "inputs": [
        {
          "internalType": "contract IPowerToken",
          "name": "powerToken",
          "type": "address"
        },
        {
          "internalType": "uint32",
          "name": "duration",
          "type": "uint32"
        }
      ],
      "name": "isAllowedLoanDuration",
      "outputs": [
        {
          "internalType": "bool",
          "name": "",
          "type": "bool"
        }
      ],
      "stateMutability": "view",
      "type": "function"
    },
    {
      "inputs": [
        {
          "internalType": "contract IERC20",
          "name": "token",
          "type": "address"
        }
      ],
      "name": "isSupportedPaymentToken",
      "outputs": [
        {
          "internalType": "bool",
          "name": "",
          "type": "bool"
        }
      ],
      "stateMutability": "view",
      "type": "function"
    },
    {
      "inputs": [],
      "name": "owner",
      "outputs": [
        {
          "internalType": "address",
          "name": "",
          "type": "address"
        }
      ],
      "stateMutability": "view",
      "type": "function"
    },
    {
      "inputs": [
        {
          "internalType": "uint16",
          "name": "newLienPercent",
          "type": "uint16"
        },
        {
          "internalType": "uint112",
          "name": "newMinimumLien",
          "type": "uint112"
        }
      ],
      "name": "scheduleLienTerms",
      "outputs": [],
      "stateMutability": "nonpayable",
      "type": "function"
    },
    {
      "inputs": [
        {
          "internalType": "contract ILoanCostEstimator",
          "name": "newEstimator",
          "type": "address"
        }
      ],
      "name": "scheduleLoanCostEstimator",
      "outputs": [],
      "stateMutability": "nonpayable",
      "type": "function"
    },
    {
      "inputs": [
        {
          "internalType": "contract IPowerToken",
          "name": "powerToken",
          "type": "address"
        },
        {
          "internalType": "uint16",
          "name": "newFeePercent",
          "type": "uint16"
        }
      ],
      "name": "scheduleServiceFeePercent",
      "outputs": [],
      "stateMutability": "nonpayable",
      "type": "function"
    },
    {
      "inputs": [
        {
          "internalType": "contract IPowerToken[]",
          "name": "powerToken",
          "type": "address[]"
        },
        {
          "internalType": "uint16[]",
          "name": "newFeePercent",
          "type": "uint16[]"
        }
      ],
      "name": "scheduleServiceFeePercentBatch",
      "outputs": [],
      "stateMutability": "nonpayable",
      "type": "function"
    },
    {
      "inputs": [
        {
          "internalType": "address",
          "name": "newCollector",
          "type": "address"
        }
      ],
      "name": "setEnterpriseCollector",
      "outputs": [],
      "stateMutability": "nonpayable",
      "type": "function"
    },
    {
      "inputs": [
        {
          "internalType": "uint32",
          "name": "newPeriod",
          "type": "uint32"
        }
      ],
      "name": "setEnterpriseConfigChangeGracePeriod",
      "outputs": [],
      "stateMutability": "nonpayable",
      "type": "function"
    },
    {
      "inputs": [
        {
          "internalType": "address",
          "name": "newVault",
          "type": "address"
        }
      ],
      "name": "setEnterpriseVault",
      "outputs": [],
      "stateMutability": "nonpayable",
      "type": "function"
    },
    {
      "inputs": [
        {
          "internalType": "contract IPowerToken",
          "name": "powerToken",
          "type": "address"
        },
        {
          "internalType": "uint112",
          "name": "factor",
          "type": "uint112"
        },
        {
          "internalType": "contract IERC20Metadata",
          "name": "factorToken",
          "type": "address"
        }
      ],
      "name": "setFactor",
      "outputs": [],
      "stateMutability": "nonpayable",
      "type": "function"
    },
    {
      "inputs": [
        {
          "internalType": "uint256",
          "name": "index",
          "type": "uint256"
        }
      ],
      "name": "supportedPaymentTokens",
      "outputs": [
        {
          "internalType": "address",
          "name": "",
          "type": "address"
        }
      ],
      "stateMutability": "view",
      "type": "function"
    },
    {
      "inputs": [
        {
          "internalType": "contract IERC20",
          "name": "token",
          "type": "address"
        }
      ],
      "name": "supportedPaymentTokensIndex",
      "outputs": [
        {
          "internalType": "int16",
          "name": "",
          "type": "int16"
        }
      ],
      "stateMutability": "view",
      "type": "function"
    },
    {
      "inputs": [
        {
          "internalType": "address",
          "name": "newOwner",
          "type": "address"
        }
      ],
      "name": "transferOwnership",
      "outputs": [],
      "stateMutability": "nonpayable",
      "type": "function"
    }
  ],
  "bytecode": "0x60806040526009805463ffffffff60a01b19166102a360a71b17905534801561002757600080fd5b50611f6e806100376000396000f3fe608060405234801561001057600080fd5b50600436106102415760003560e01c806390f55edd11610145578063c93d0b92116100bd578063f8dd5c831161008c578063fde4737b11610071578063fde4737b1461060d578063fec0dea014610620578063fee657551461062857600080fd5b8063f8dd5c83146105ce578063f9770bc3146105e157600080fd5b8063c93d0b921461055e578063d437657d1461056f578063ea01abcc146105a8578063f2fde38b146105bb57600080fd5b8063a0cffa5911610114578063a554b26d116100f9578063a554b26d146104fe578063c3f909d41461050f578063c4d66de81461054b57600080fd5b8063a0cffa59146104d6578063a0efd118146104e957600080fd5b806390f55edd146104645780639612f6041461047757806396ea2975146104b05780639f6348ce146104c357600080fd5b8063644e44df116101d85780637ef95c97116101a757806383b9a0091161018c57806383b9a0091461040c5780638da5cb5b1461041d5780638fcfd8b31461042e57600080fd5b80637ef95c97146103d35780638188d50d146103e657600080fd5b8063644e44df1461036c578063689418691461037d57806372b42778146103af5780637791c42d146103c257600080fd5b80632b39a0ac116102145780632b39a0ac146102da5780632fb2067f146103055780633ff6fe871461034657806362c1f3881461035957600080fd5b80630ea1dc9e146102465780631388d1a8146102705780631459457a1461029f57806327623ddd146102b4575b600080fd5b6002546001600160a01b03165b6040516001600160a01b0390911681526020015b60405180910390f35b61025361027e366004611afc565b6001600160a01b039081166000908152600e60205260409020600101541690565b6102b26102ad366004611c10565b61063b565b005b6102c76102c2366004611afc565b61083b565b60405160019190910b8152602001610267565b6102ed6102e8366004611afc565b610868565b6040516001600160701b039091168152602001610267565b610336610313366004611afc565b6001600160a01b03166000908152600c6020526040812054600190810b900b1390565b6040519015158152602001610267565b6102b2610354366004611ba7565b6108bd565b6102b2610367366004611afc565b610ac0565b6001546001600160a01b0316610253565b6102ed61038b366004611afc565b6001600160a01b03166000908152600e60205260409020546001600160701b031690565b6102b26103bd366004611afc565b610b81565b600a546001600160a01b0316610253565b6102b26103e1366004611e0a565b610cb2565b600a54600160a01b900463ffffffff165b60405163ffffffff9091168152602001610267565b6004546001600160a01b0316610253565b6000546001600160a01b0316610253565b6103f761043c366004611afc565b6001600160a01b03166000908152600e6020526040902054600160701b900463ffffffff1690565b6102b2610472366004611afc565b610e2d565b6103f7610485366004611afc565b6001600160a01b03166000908152600e6020526040902060010154600160e01b900463ffffffff1690565b6102536104be366004611e33565b610eee565b6102b26104d1366004611b3b565b610f2c565b6103366104e4366004611dc5565b61108b565b600a54600160c01b900463ffffffff166103f7565b6009546001600160a01b0316610253565b600654600754600954604080516001600160a01b039485168152939092166020840152600160c01b900463ffffffff1690820152606001610267565b6102b2610559366004611afc565b6110e4565b6003546001600160a01b0316610253565b6103f761057d366004611afc565b6001600160a01b03166000908152600e6020526040902060010154600160c01b900463ffffffff1690565b6102b26105b6366004611d91565b6111ae565b6102b26105c9366004611afc565b61129d565b6102b26105dc366004611c52565b6113ce565b6105e9611589565b6040805163ffffffff90931683526001600160701b03909116602083015201610267565b6102b261061b366004611e4b565b6115f1565b610253611671565b6102b2610636366004611d49565b6116ab565b6002546001600160a01b0316156106995760405162461bcd60e51b815260206004820152601360248201527f416c726561647920696e697469616c697a65640000000000000000000000000060448201526064015b60405180910390fd5b6106a2816110e4565b600580546001600160a01b038088166001600160a01b03199283161790925560028054868416908316179055600380548584169083161790556001805492871692909116919091179055604080517f8da5cb5b00000000000000000000000000000000000000000000000000000000815290513091638da5cb5b916004828101926020929190829003018186803b15801561073c57600080fd5b505afa158015610750573d6000803e3d6000fd5b505050506040513d601f19601f820116820180604052508101906107749190611b1f565b600960006101000a8154816001600160a01b0302191690836001600160a01b03160217905550306001600160a01b0316638da5cb5b6040518163ffffffff1660e01b815260040160206040518083038186803b1580156107d357600080fd5b505afa1580156107e7573d6000803e3d6000fd5b505050506040513d601f19601f8201168201806040525081019061080b9190611b1f565b600a80546001600160a01b0319166001600160a01b03929092169190911790556108348461181d565b5050505050565b6001600160a01b0381166000908152600c602052604081205461086290600190810b611e8d565b92915050565b6001600160a01b0381166000908152600e602052604081206001810154600160a01b900463ffffffff164210156108ab5754600160a01b900461ffff1692915050565b54600160901b900461ffff1692915050565b6000546001600160a01b031633146109175760405162461bcd60e51b815260206004820181905260248201527f4f776e61626c653a2063616c6c6572206973206e6f7420746865206f776e65726044820152606401610690565b8281146109665760405162461bcd60e51b815260206004820152601460248201527f496e76616c6964206172726179206c656e6774680000000000000000000000006044820152606401610690565b60095460009061098390600160a01b900463ffffffff1642611e65565b905060005b84811015610ab8576109f28686838181106109b357634e487b7160e01b600052603260045260246000fd5b90506020020160208101906109c89190611afc565b6001600160a01b03166000908152600e6020526040902054600160701b900463ffffffff16151590565b610a335760405162461bcd60e51b81526020600482015260126024820152712ab735b737bbb7102837bbb2b92a37b5b2b760711b6044820152606401610690565b610aa6868683818110610a5657634e487b7160e01b600052603260045260246000fd5b9050602002016020810190610a6b9190611afc565b858584818110610a8b57634e487b7160e01b600052603260045260246000fd5b9050602002016020810190610aa09190611df0565b84611935565b80610ab081611ed2565b915050610988565b505050505050565b6000546001600160a01b03163314610b1a5760405162461bcd60e51b815260206004820181905260248201527f4f776e61626c653a2063616c6c6572206973206e6f7420746865206f776e65726044820152606401610690565b6001600160a01b038116610b5f5760405162461bcd60e51b815260206004820152600c60248201526b5a65726f206164647265737360a01b6044820152606401610690565b600980546001600160a01b0319166001600160a01b0392909216919091179055565b6000546001600160a01b03163314610bdb5760405162461bcd60e51b815260206004820181905260248201527f4f776e61626c653a2063616c6c6572206973206e6f7420746865206f776e65726044820152606401610690565b6001600160a01b038116610c205760405162461bcd60e51b815260206004820152600c60248201526b5a65726f206164647265737360a01b6044820152606401610690565b60095442600160c01b90910463ffffffff1611610c5a57600654600780546001600160a01b0319166001600160a01b039092169190911790555b600680546001600160a01b0319166001600160a01b038316179055600954610c8f90600160a01b900463ffffffff1642611e65565b600960186101000a81548163ffffffff021916908363ffffffff16021790555050565b6000546001600160a01b03163314610d0c5760405162461bcd60e51b815260206004820181905260248201527f4f776e61626c653a2063616c6c6572206973206e6f7420746865206f776e65726044820152606401610690565b600b5442600160e01b90910463ffffffff1611610d9957600a8054600160f01b61ffff600160e01b830416027dffffffffffffffffffffffffffffffffffffffffffffffffffffffffffff909116179055600b8054600160701b6001600160701b038216027fffffffff0000000000000000000000000000ffffffffffffffffffffffffffff9091161790555b600a80547fffff0000ffffffffffffffffffffffffffffffffffffffffffffffffffffffff16600160e01b61ffff851602179055600b80546dffffffffffffffffffffffffffff19166001600160701b038316179055600954610e0990600160a01b900463ffffffff1642611e65565b600b601c6101000a81548163ffffffff021916908363ffffffff1602179055505050565b6000546001600160a01b03163314610e875760405162461bcd60e51b815260206004820181905260248201527f4f776e61626c653a2063616c6c6572206973206e6f7420746865206f776e65726044820152606401610690565b6001600160a01b038116610ecc5760405162461bcd60e51b815260206004820152600c60248201526b5a65726f206164647265737360a01b6044820152606401610690565b600a80546001600160a01b0319166001600160a01b0392909216919091179055565b6000600d8281548110610f1157634e487b7160e01b600052603260045260246000fd5b6000918252602090912001546001600160a01b031692915050565b6004546001600160a01b031615610f855760405162461bcd60e51b815260206004820152601360248201527f416c726561647920696e697469616c697a6564000000000000000000000000006044820152606401610690565b8263ffffffff168463ffffffff161115610fe15760405162461bcd60e51b815260206004820152601560248201527f496e76616c696420677261636520706572696f647300000000000000000000006044820152606401610690565b600480546001600160a01b03199081166001600160a01b0397881617909155600a80547fffffffff0000000000000000ffffffffffffffffffffffffffffffffffffffff16600160a01b63ffffffff978816027fffffffff00000000ffffffffffffffffffffffffffffffffffffffffffffffff1617600160c01b959096169490940294909417909255600680548416918516919091179055600880549092169216919091179055565b6001600160a01b0382166000908152600e60205260408120600181015463ffffffff808516600160c01b90920416118015906110dc5750600181015463ffffffff600160e01b909104811690841611155b949350505050565b6000546001600160a01b0316156111635760405162461bcd60e51b815260206004820152602960248201527f496e697469616c697a61626c654f776e61626c653a20616c726561647920696e60448201527f697469616c697a656400000000000000000000000000000000000000000000006064820152608401610690565b600080546001600160a01b0319166001600160a01b03831690811782556040519091907f8be0079c531659141344cd1fd0a4f28419497f9722a3daafe3b4186f6b6457e0908290a350565b6000546001600160a01b031633146112085760405162461bcd60e51b815260206004820181905260248201527f4f776e61626c653a2063616c6c6572206973206e6f7420746865206f776e65726044820152606401610690565b6001600160a01b0382166000908152600e60205260409020548290600160701b900463ffffffff166112715760405162461bcd60e51b81526020600482015260126024820152712ab735b737bbb7102837bbb2b92a37b5b2b760711b6044820152606401610690565b600954611298908490849061129390600160a01b900463ffffffff1642611e65565b611935565b505050565b6000546001600160a01b031633146112f75760405162461bcd60e51b815260206004820181905260248201527f4f776e61626c653a2063616c6c6572206973206e6f7420746865206f776e65726044820152606401610690565b6001600160a01b0381166113735760405162461bcd60e51b815260206004820152602660248201527f4f776e61626c653a206e6577206f776e657220697320746865207a65726f206160448201527f64647265737300000000000000000000000000000000000000000000000000006064820152608401610690565b600080546040516001600160a01b03808516939216917f8be0079c531659141344cd1fd0a4f28419497f9722a3daafe3b4186f6b6457e091a3600080546001600160a01b0319166001600160a01b0392909216919091179055565b6005546001600160a01b031633146114285760405162461bcd60e51b815260206004820152601160248201527f4e6f7420616e20656e74657270726973650000000000000000000000000000006044820152606401610690565b6001600160a01b039182166000908152600e602090815260409182902083518154928501519385015160608601516001600160701b039092167fffffffffffffffffffffffffffff00000000000000000000000000000000000090941693909317600160701b63ffffffff95861602177fffffffffffffffffffff00000000ffffffffffffffffffffffffffffffffffff16600160901b61ffff9485160261ffff60a01b191617600160a01b93909116830217815560808401516001909101805460a086015160c087015160e090970151939097167fffffffffffffffff000000000000000000000000000000000000000000000000909116179584169092029490941777ffffffffffffffffffffffffffffffffffffffffffffffff16600160c01b938316939093027bffffffffffffffffffffffffffffffffffffffffffffffffffffffff1692909217600160e01b9390911692909202919091179055565b600b546000908190600160e01b900463ffffffff164210156115ce575050600a54600b54600160f01b90910461ffff1691600160701b9091046001600160701b031690565b5050600a54600b54600160e01b90910461ffff16916001600160701b0390911690565b6000546001600160a01b0316331461164b5760405162461bcd60e51b815260206004820181905260248201527f4f776e61626c653a2063616c6c6572206973206e6f7420746865206f776e65726044820152606401610690565b6009805463ffffffff909216600160a01b0263ffffffff60a01b19909216919091179055565b600954600090600160c01b900463ffffffff1642101561169b57506007546001600160a01b031690565b506006546001600160a01b031690565b6000546001600160a01b031633146117055760405162461bcd60e51b815260206004820181905260248201527f4f776e61626c653a2063616c6c6572206973206e6f7420746865206f776e65726044820152606401610690565b6001600160a01b0383166000908152600e60205260409020548390600160701b900463ffffffff1661176e5760405162461bcd60e51b81526020600482015260126024820152712ab735b737bbb7102837bbb2b92a37b5b2b760711b6044820152606401610690565b6001600160a01b0382166117c45760405162461bcd60e51b815260206004820152601460248201527f496e76616c696420466163746f7220546f6b656e0000000000000000000000006044820152606401610690565b506001600160a01b039283166000908152600e6020526040902080546dffffffffffffffffffffffffffff19166001600160701b0393909316929092178255600190910180546001600160a01b03191691909216179055565b6001600160a01b0381166000908152600c6020526040902054600190810b900b6118b557600d8054600180820183557fd7b6990105719101dabeb77144f2a3385c8033acd3af97e9423a695e81ad1eb590910180546001600160a01b0319166001600160a01b03851690811790915591546000928352600c6020526040909220805461ffff191661ffff9390920b9290921617905550565b6001600160a01b0381166000908152600c6020526040812054600190810b900b1215611932576001600160a01b0381166000908152600c60205260409020546119009060010b611eed565b6001600160a01b0382166000908152600c60205260409020805460019290920b61ffff1661ffff199092169190911790555b50565b61138861ffff831611156119b15760405162461bcd60e51b815260206004820152602560248201527f4d6178696d756d2073657276696365206665652070657263656e74207468726560448201527f73686f6c640000000000000000000000000000000000000000000000000000006064820152608401610690565b6001600160a01b0383166000908152600e60205260409020600181015442600160a01b90910463ffffffff1611611a03578054600160a01b61ffff600160901b8304160261ffff60a01b199091161781555b805461ffff909316600160901b027fffffffffffffffffffffffff0000ffffffffffffffffffffffffffffffffffff9093169290921782556001909101805463ffffffff909216600160a01b0263ffffffff60a01b1990921691909117905550565b60008083601f840112611a76578182fd5b50813567ffffffffffffffff811115611a8d578182fd5b6020830191508360208260051b8501011115611aa857600080fd5b9250929050565b8035611aba81611f23565b919050565b80356001600160701b0381168114611aba57600080fd5b803561ffff81168114611aba57600080fd5b803563ffffffff81168114611aba57600080fd5b600060208284031215611b0d578081fd5b8135611b1881611f23565b9392505050565b600060208284031215611b30578081fd5b8151611b1881611f23565b600080600080600060a08688031215611b52578081fd5b8535611b5d81611f23565b9450611b6b60208701611ae8565b9350611b7960408701611ae8565b92506060860135611b8981611f23565b91506080860135611b9981611f23565b809150509295509295909350565b60008060008060408587031215611bbc578384fd5b843567ffffffffffffffff80821115611bd3578586fd5b611bdf88838901611a65565b90965094506020870135915080821115611bf7578384fd5b50611c0487828801611a65565b95989497509550505050565b600080600080600060a08688031215611c27578081fd5b8535611c3281611f23565b94506020860135611c4281611f23565b93506040860135611b7981611f23565b600080828403610120811215611c66578283fd5b8335611c7181611f23565b9250610100601f198201811315611c86578283fd5b604051915080820182811067ffffffffffffffff82111715611cb657634e487b7160e01b84526041600452602484fd5b604052611cc560208601611abf565b8252611cd360408601611ae8565b6020830152611ce460608601611ad6565b6040830152611cf560808601611ad6565b6060830152611d0660a08601611aaf565b6080830152611d1760c08601611ae8565b60a0830152611d2860e08601611ae8565b60c0830152611d38818601611ae8565b60e083015250809150509250929050565b600080600060608486031215611d5d578081fd5b8335611d6881611f23565b9250611d7660208501611abf565b91506040840135611d8681611f23565b809150509250925092565b60008060408385031215611da3578182fd5b8235611dae81611f23565b9150611dbc60208401611ad6565b90509250929050565b60008060408385031215611dd7578182fd5b8235611de281611f23565b9150611dbc60208401611ae8565b600060208284031215611e01578081fd5b611b1882611ad6565b60008060408385031215611e1c578182fd5b611e2583611ad6565b9150611dbc60208401611abf565b600060208284031215611e44578081fd5b5035919050565b600060208284031215611e5c578081fd5b611b1882611ae8565b600063ffffffff808316818516808303821115611e8457611e84611f0d565b01949350505050565b60008160010b8360010b82811281617fff1901831281151615611eb257611eb2611f0d565b81617fff018313811615611ec857611ec8611f0d565b5090039392505050565b6000600019821415611ee657611ee6611f0d565b5060010190565b60008160010b617fff19811415611f0657611f06611f0d565b9003919050565b634e487b7160e01b600052601160045260246000fd5b6001600160a01b038116811461193257600080fdfea26469706673582212207df296a19e853fcbb4ccfc1e98677d1cbe47b56bc1798ac3bdd6b19cc410c64364736f6c63430008040033",
  "linkReferences": {},
  "deployedLinkReferences": {}
}