{
  "_format": "hh-sol-artifact-1",
  "contractName": "EnterpriseConfigurator",
  "sourceName": "contracts/EnterpriseConfigurator.sol",
  "abi": [
    {
      "anonymous": false,
      "inputs": [
        {
          "indexed": true,
          "internalType": "address",
          "name": "previousOwner",
          "type": "address"
        },
        {
          "indexed": true,
          "internalType": "address",
          "name": "newOwner",
          "type": "address"
        }
      ],
      "name": "OwnershipTransferred",
      "type": "event"
    },
    {
      "inputs": [
        {
          "internalType": "contract IPowerToken",
          "name": "powerToken",
          "type": "address"
        },
        {
          "components": [
            {
              "internalType": "uint112",
              "name": "factor",
              "type": "uint112"
            },
            {
              "internalType": "uint32",
              "name": "halfLife",
              "type": "uint32"
            },
            {
              "internalType": "uint16",
              "name": "serviceFeePercent",
              "type": "uint16"
            },
            {
              "internalType": "uint16",
              "name": "previousServiceFeePercent",
              "type": "uint16"
            },
            {
              "internalType": "contract IERC20Detailed",
              "name": "factorToken",
              "type": "address"
            },
            {
              "internalType": "uint32",
              "name": "serviceFeePercentChangeTime",
              "type": "uint32"
            },
            {
              "internalType": "uint32",
              "name": "minLoanPeriod",
              "type": "uint32"
            },
            {
              "internalType": "uint32",
              "name": "maxLoanPeriod",
              "type": "uint32"
            }
          ],
          "internalType": "struct EnterpriseConfigurator.ServiceConfig",
          "name": "config",
          "type": "tuple"
        }
      ],
      "name": "addService",
      "outputs": [],
      "stateMutability": "nonpayable",
      "type": "function"
    },
    {
      "inputs": [],
      "name": "getBorrowToken",
      "outputs": [
        {
          "internalType": "contract IBorrowToken",
          "name": "",
          "type": "address"
        }
      ],
      "stateMutability": "view",
      "type": "function"
    },
    {
      "inputs": [],
      "name": "getBorrowerLoanReturnGracePeriod",
      "outputs": [
        {
          "internalType": "uint32",
          "name": "",
          "type": "uint32"
        }
      ],
      "stateMutability": "view",
      "type": "function"
    },
    {
      "inputs": [],
      "name": "getConfig",
      "outputs": [
        {
          "internalType": "address",
          "name": "loanEstimator",
          "type": "address"
        },
        {
          "internalType": "address",
          "name": "previousEstimator",
          "type": "address"
        },
        {
          "internalType": "uint32",
          "name": "loanEstimatorChangeTime",
          "type": "uint32"
        }
      ],
      "stateMutability": "view",
      "type": "function"
    },
    {
      "inputs": [],
      "name": "getEnterpriseCollector",
      "outputs": [
        {
          "internalType": "address",
          "name": "",
          "type": "address"
        }
      ],
      "stateMutability": "view",
      "type": "function"
    },
    {
      "inputs": [],
      "name": "getEnterpriseLoanCollectGracePeriod",
      "outputs": [
        {
          "internalType": "uint32",
          "name": "",
          "type": "uint32"
        }
      ],
      "stateMutability": "view",
      "type": "function"
    },
    {
      "inputs": [],
      "name": "getEnterpriseVault",
      "outputs": [
        {
          "internalType": "address",
          "name": "",
          "type": "address"
        }
      ],
      "stateMutability": "view",
      "type": "function"
    },
    {
      "inputs": [
        {
          "internalType": "contract IPowerToken",
          "name": "powerToken",
          "type": "address"
        }
      ],
      "name": "getFactor",
      "outputs": [
        {
          "internalType": "uint112",
          "name": "",
          "type": "uint112"
        }
      ],
      "stateMutability": "view",
      "type": "function"
    },
    {
      "inputs": [
        {
          "internalType": "contract IPowerToken",
          "name": "powerToken",
          "type": "address"
        }
      ],
      "name": "getFactorToken",
      "outputs": [
        {
          "internalType": "contract IERC20Detailed",
          "name": "",
          "type": "address"
        }
      ],
      "stateMutability": "view",
      "type": "function"
    },
    {
      "inputs": [
        {
          "internalType": "contract IPowerToken",
          "name": "powerToken",
          "type": "address"
        }
      ],
      "name": "getHalfLife",
      "outputs": [
        {
          "internalType": "uint32",
          "name": "",
          "type": "uint32"
        }
      ],
      "stateMutability": "view",
      "type": "function"
    },
    {
      "inputs": [],
      "name": "getInterestToken",
      "outputs": [
        {
          "internalType": "contract IInterestToken",
          "name": "",
          "type": "address"
        }
      ],
      "stateMutability": "view",
      "type": "function"
    },
    {
      "inputs": [],
      "name": "getLienTerms",
      "outputs": [
        {
          "internalType": "uint32",
          "name": "lienPercent",
          "type": "uint32"
        },
        {
          "internalType": "uint112",
          "name": "minimumLien",
          "type": "uint112"
        }
      ],
      "stateMutability": "view",
      "type": "function"
    },
    {
      "inputs": [],
      "name": "getLiquidityToken",
      "outputs": [
        {
          "internalType": "contract IERC20Detailed",
          "name": "",
          "type": "address"
        }
      ],
      "stateMutability": "view",
      "type": "function"
    },
    {
      "inputs": [],
      "name": "getLoanCostEstimator",
      "outputs": [
        {
          "internalType": "contract ILoanCostEstimator",
          "name": "",
          "type": "address"
        }
      ],
      "stateMutability": "view",
      "type": "function"
    },
    {
      "inputs": [
        {
          "internalType": "contract IPowerToken",
          "name": "powerToken",
          "type": "address"
        }
      ],
      "name": "getMaxLoanPeriod",
      "outputs": [
        {
          "internalType": "uint32",
          "name": "",
          "type": "uint32"
        }
      ],
      "stateMutability": "view",
      "type": "function"
    },
    {
      "inputs": [
        {
          "internalType": "contract IPowerToken",
          "name": "powerToken",
          "type": "address"
        }
      ],
      "name": "getMinLoanPeriod",
      "outputs": [
        {
          "internalType": "uint32",
          "name": "",
          "type": "uint32"
        }
      ],
      "stateMutability": "view",
      "type": "function"
    },
    {
      "inputs": [],
      "name": "getPowerTokenImpl",
      "outputs": [
        {
          "internalType": "address",
          "name": "",
          "type": "address"
        }
      ],
      "stateMutability": "view",
      "type": "function"
    },
    {
      "inputs": [
        {
          "internalType": "contract IPowerToken",
          "name": "powerToken",
          "type": "address"
        }
      ],
      "name": "getServiceFeePercent",
      "outputs": [
        {
          "internalType": "uint112",
          "name": "",
          "type": "uint112"
        }
      ],
      "stateMutability": "view",
      "type": "function"
    },
    {
      "inputs": [
        {
          "internalType": "contract IEnterprise",
          "name": "enterprise",
          "type": "address"
        },
        {
          "internalType": "contract IERC20Detailed",
          "name": "liquidityToken",
          "type": "address"
        },
        {
          "internalType": "contract IInterestToken",
          "name": "interestToken",
          "type": "address"
        },
        {
          "internalType": "contract IBorrowToken",
          "name": "borrowToken",
          "type": "address"
        },
        {
          "internalType": "address",
          "name": "owner",
          "type": "address"
        }
      ],
      "name": "initialize",
      "outputs": [],
      "stateMutability": "nonpayable",
      "type": "function"
    },
    {
      "inputs": [
        {
          "internalType": "address",
          "name": "initialOwner",
          "type": "address"
        }
      ],
      "name": "initialize",
      "outputs": [],
      "stateMutability": "nonpayable",
      "type": "function"
    },
    {
      "inputs": [
        {
          "internalType": "address",
          "name": "powerTokenImpl",
          "type": "address"
        },
        {
          "internalType": "uint32",
          "name": "borrowerLoanReturnGracePeriod",
          "type": "uint32"
        },
        {
          "internalType": "uint32",
          "name": "enterpriseLoanCollectGracePeriod",
          "type": "uint32"
        },
        {
          "internalType": "contract ILoanCostEstimator",
          "name": "estimator",
          "type": "address"
        },
        {
          "internalType": "contract IConverter",
          "name": "converter",
          "type": "address"
        }
      ],
      "name": "initialize2",
      "outputs": [],
      "stateMutability": "nonpayable",
      "type": "function"
    },
    {
      "inputs": [
        {
          "internalType": "contract IPowerToken",
          "name": "powerToken",
          "type": "address"
        },
        {
          "internalType": "uint32",
          "name": "duration",
          "type": "uint32"
        }
      ],
      "name": "isAllowedLoanDuration",
      "outputs": [
        {
          "internalType": "bool",
          "name": "",
          "type": "bool"
        }
      ],
      "stateMutability": "view",
      "type": "function"
    },
    {
      "inputs": [
        {
          "internalType": "contract IERC20",
          "name": "token",
          "type": "address"
        }
      ],
      "name": "isSupportedPaymentToken",
      "outputs": [
        {
          "internalType": "bool",
          "name": "",
          "type": "bool"
        }
      ],
      "stateMutability": "view",
      "type": "function"
    },
    {
      "inputs": [],
      "name": "owner",
      "outputs": [
        {
          "internalType": "address",
          "name": "",
          "type": "address"
        }
      ],
      "stateMutability": "view",
      "type": "function"
    },
    {
      "inputs": [
        {
          "internalType": "uint16",
          "name": "newLienPercent",
          "type": "uint16"
        },
        {
          "internalType": "uint112",
          "name": "newMinimumLien",
          "type": "uint112"
        }
      ],
      "name": "scheduleLienTerms",
      "outputs": [],
      "stateMutability": "nonpayable",
      "type": "function"
    },
    {
      "inputs": [
        {
          "internalType": "contract ILoanCostEstimator",
          "name": "newEstimator",
          "type": "address"
        }
      ],
      "name": "scheduleLoanCostEstimator",
      "outputs": [],
      "stateMutability": "nonpayable",
      "type": "function"
    },
    {
      "inputs": [
        {
          "internalType": "contract IPowerToken",
          "name": "powerToken",
          "type": "address"
        },
        {
          "internalType": "uint16",
          "name": "newFeePercent",
          "type": "uint16"
        }
      ],
      "name": "scheduleServiceFeePercent",
      "outputs": [],
      "stateMutability": "nonpayable",
      "type": "function"
    },
    {
      "inputs": [
        {
          "internalType": "contract IPowerToken[]",
          "name": "powerToken",
          "type": "address[]"
        },
        {
          "internalType": "uint16[]",
          "name": "newFeePercent",
          "type": "uint16[]"
        }
      ],
      "name": "scheduleServiceFeePercentBatch",
      "outputs": [],
      "stateMutability": "nonpayable",
      "type": "function"
    },
    {
      "inputs": [
        {
          "internalType": "address",
          "name": "newCollector",
          "type": "address"
        }
      ],
      "name": "setEnterpriseCollector",
      "outputs": [],
      "stateMutability": "nonpayable",
      "type": "function"
    },
    {
      "inputs": [
        {
          "internalType": "uint32",
          "name": "newPeriod",
          "type": "uint32"
        }
      ],
      "name": "setEnterpriseConfigChangeGracePeriod",
      "outputs": [],
      "stateMutability": "nonpayable",
      "type": "function"
    },
    {
      "inputs": [
        {
          "internalType": "address",
          "name": "newVault",
          "type": "address"
        }
      ],
      "name": "setEnterpriseVault",
      "outputs": [],
      "stateMutability": "nonpayable",
      "type": "function"
    },
    {
      "inputs": [
        {
          "internalType": "contract IPowerToken",
          "name": "powerToken",
          "type": "address"
        },
        {
          "internalType": "uint112",
          "name": "factor",
          "type": "uint112"
        },
        {
          "internalType": "contract IERC20Detailed",
          "name": "factorToken",
          "type": "address"
        }
      ],
      "name": "setFactor",
      "outputs": [],
      "stateMutability": "nonpayable",
      "type": "function"
    },
    {
      "inputs": [
        {
          "internalType": "uint256",
          "name": "index",
          "type": "uint256"
        }
      ],
      "name": "supportedPaymentTokens",
      "outputs": [
        {
          "internalType": "address",
          "name": "",
          "type": "address"
        }
      ],
      "stateMutability": "view",
      "type": "function"
    },
    {
      "inputs": [
        {
          "internalType": "contract IERC20",
          "name": "token",
          "type": "address"
        }
      ],
      "name": "supportedPaymentTokensIndex",
      "outputs": [
        {
          "internalType": "int16",
          "name": "",
          "type": "int16"
        }
      ],
      "stateMutability": "view",
      "type": "function"
    },
    {
      "inputs": [
        {
          "internalType": "address",
          "name": "newOwner",
          "type": "address"
        }
      ],
      "name": "transferOwnership",
      "outputs": [],
      "stateMutability": "nonpayable",
      "type": "function"
    }
  ],
  "bytecode": "0x60806040526009805463ffffffff60a01b19166102a360a71b17905534801561002757600080fd5b50611df3806100376000396000f3fe608060405234801561001057600080fd5b50600436106102415760003560e01c806390f55edd11610145578063c93d0b92116100bd578063f8dd5c831161008c578063fde4737b11610071578063fde4737b14610496578063fec0dea0146104a9578063fee65755146104b157610241565b8063f8dd5c831461046d578063f9770bc31461048057610241565b8063c93d0b921461042c578063d437657d14610434578063ea01abcc14610447578063f2fde38b1461045a57610241565b8063a0cffa5911610114578063a554b26d116100f9578063a554b26d146103fa578063c3f909d414610402578063c4d66de81461041957610241565b8063a0cffa59146103df578063a0efd118146103f257610241565b806390f55edd146103935780639612f604146103a657806396ea2975146103b95780639f6348ce146103cc57610241565b8063644e44df116101d85780637ef95c97116101a757806383b9a0091161018c57806383b9a009146103705780638da5cb5b146103785780638fcfd8b31461038057610241565b80637ef95c97146103485780638188d50d1461035b57610241565b8063644e44df14610312578063689418691461031a57806372b427781461032d5780637791c42d1461034057610241565b80632b39a0ac116102145780632b39a0ac146102ac5780632fb2067f146102cc5780633ff6fe87146102ec57806362c1f388146102ff57610241565b80630ea1dc9e146102465780631388d1a8146102645780631459457a1461027757806327623ddd1461028c575b600080fd5b61024e6104c4565b60405161025b9190611ae1565b60405180910390f35b61024e61027236600461178a565b6104d4565b61028a61028536600461189e565b6104f8565b005b61029f61029a36600461178a565b6106cc565b60405161025b9190611b29565b6102bf6102ba36600461178a565b6106ee565b60405161025b9190611d15565b6102df6102da36600461178a565b610744565b60405161025b9190611b1e565b61028a6102fa366004611835565b610767565b61028a61030d36600461178a565b6108a2565b61024e610949565b6102bf61032836600461178a565b610958565b61028a61033b36600461178a565b61097c565b61024e610a8b565b61028a610356366004611a86565b610a9a565b610363610c20565b60405161025b9190611d29565b61024e610c33565b61024e610c42565b61036361038e36600461178a565b610c51565b61028a6103a136600461178a565b610c79565b6103636103b436600461178a565b610d20565b61024e6103c7366004611aaf565b610d4b565b61028a6103da3660046117c9565b610d75565b6102df6103ed366004611a41565b610e44565b610363610e9d565b61024e610eb0565b61040a610ebf565b60405161025b93929190611af5565b61028a61042736600461178a565b610eea565b61024e610f7d565b61036361044236600461178a565b610f8c565b61028a610455366004611a0d565b610fb7565b61028a61046836600461178a565b611060565b61028a61047b3660046118e0565b61115f565b6104886112d8565b60405161025b929190611d3a565b61028a6104a4366004611ac7565b611341565b61024e6113c6565b61028a6104bf3660046119c5565b611402565b6002546001600160a01b03165b90565b6001600160a01b038082166000908152600e6020526040902060010154165b919050565b6002546001600160a01b03161561052a5760405162461bcd60e51b815260040161052190611ca7565b60405180910390fd5b61053381610eea565b600580546001600160a01b038088166001600160a01b03199283161790925560028054868416908316179055600380548584169083161790556001805492871692909116919091179055604080517f8da5cb5b00000000000000000000000000000000000000000000000000000000815290513091638da5cb5b916004828101926020929190829003018186803b1580156105cd57600080fd5b505afa1580156105e1573d6000803e3d6000fd5b505050506040513d601f19601f8201168201806040525081019061060591906117ad565b600960006101000a8154816001600160a01b0302191690836001600160a01b03160217905550306001600160a01b0316638da5cb5b6040518163ffffffff1660e01b815260040160206040518083038186803b15801561066457600080fd5b505afa158015610678573d6000803e3d6000fd5b505050506040513d601f19601f8201168201806040525081019061069c91906117ad565b600a80546001600160a01b0319166001600160a01b03929092169190911790556106c584611506565b5050505050565b6001600160a01b03166000908152600c602052604090205460010b6000190190565b6001600160a01b0381166000908152600e602052604081206001810154600160a01b900463ffffffff164210156107325754600160a01b900461ffff1690506104f3565b54600160901b900461ffff1692915050565b6001600160a01b03166000908152600c6020526040812054600190810b900b1390565b6000546001600160a01b031633146107c6576040805162461bcd60e51b815260206004820181905260248201527f4f776e61626c653a2063616c6c6572206973206e6f7420746865206f776e6572604482015290519081900360640190fd5b8281146107e55760405162461bcd60e51b815260040161052190611b37565b600954600160a01b900463ffffffff16420160005b8481101561089a5761082b86868381811061081157fe5b9050602002016020810190610826919061178a565b611600565b6108475760405162461bcd60e51b815260040161052190611c70565b61089286868381811061085657fe5b905060200201602081019061086b919061178a565b85858481811061087757fe5b905060200201602081019061088c9190611a6c565b8461162a565b6001016107fa565b505050505050565b6000546001600160a01b03163314610901576040805162461bcd60e51b815260206004820181905260248201527f4f776e61626c653a2063616c6c6572206973206e6f7420746865206f776e6572604482015290519081900360640190fd5b6001600160a01b0381166109275760405162461bcd60e51b815260040161052190611bcb565b600980546001600160a01b0319166001600160a01b0392909216919091179055565b6001546001600160a01b031690565b6001600160a01b03166000908152600e60205260409020546001600160701b031690565b6000546001600160a01b031633146109db576040805162461bcd60e51b815260206004820181905260248201527f4f776e61626c653a2063616c6c6572206973206e6f7420746865206f776e6572604482015290519081900360640190fd5b6001600160a01b038116610a015760405162461bcd60e51b815260040161052190611bcb565b60095442600160c01b90910463ffffffff1611610a3b57600654600780546001600160a01b0319166001600160a01b039092169190911790555b600680546001600160a01b039092166001600160a01b0319909216919091179055600980544263ffffffff600160a01b830481169190910116600160c01b0263ffffffff60c01b19909116179055565b600a546001600160a01b031690565b6000546001600160a01b03163314610af9576040805162461bcd60e51b815260206004820181905260248201527f4f776e61626c653a2063616c6c6572206973206e6f7420746865206f776e6572604482015290519081900360640190fd5b600b5442600160e01b90910463ffffffff1611610b8657600a8054600160f01b61ffff600160e01b830416027dffffffffffffffffffffffffffffffffffffffffffffffffffffffffffff909116179055600b8054600160701b6001600160701b038216027fffffffff0000000000000000000000000000ffffffffffffffffffffffffffff9091161790555b600a80547fffff0000ffffffffffffffffffffffffffffffffffffffffffffffffffffffff16600160e01b61ffff949094168402179055600b80546009546dffffffffffffffffffffffffffff199091166001600160701b0393909316929092177bffffffffffffffffffffffffffffffffffffffffffffffffffffffff16600160a01b90920463ffffffff908116420116909202179055565b600a54600160a01b900463ffffffff1690565b6004546001600160a01b031690565b6000546001600160a01b031690565b6001600160a01b03166000908152600e6020526040902054600160701b900463ffffffff1690565b6000546001600160a01b03163314610cd8576040805162461bcd60e51b815260206004820181905260248201527f4f776e61626c653a2063616c6c6572206973206e6f7420746865206f776e6572604482015290519081900360640190fd5b6001600160a01b038116610cfe5760405162461bcd60e51b815260040161052190611bcb565b600a80546001600160a01b0319166001600160a01b0392909216919091179055565b6001600160a01b03166000908152600e6020526040902060010154600160e01b900463ffffffff1690565b6000600d8281548110610d5a57fe5b6000918252602090912001546001600160a01b031692915050565b6004546001600160a01b031615610d9e5760405162461bcd60e51b815260040161052190611ca7565b8263ffffffff168463ffffffff161115610dca5760405162461bcd60e51b815260040161052190611cde565b600480546001600160a01b03199081166001600160a01b0397881617909155600a805463ffffffff60a01b1916600160a01b63ffffffff978816021763ffffffff60c01b1916600160c01b959096169490940294909417909255600680548416918516919091179055600880549092169216919091179055565b6001600160a01b0382166000908152600e60205260408120600181015463ffffffff808516600160c01b9092041611801590610e955750600181015463ffffffff600160e01b909104811690841611155b949350505050565b600a54600160c01b900463ffffffff1690565b6009546001600160a01b031690565b6006546007546009546001600160a01b03928316939290911691600160c01b90910463ffffffff1690565b6000546001600160a01b031615610f325760405162461bcd60e51b8152600401808060200182810382526029815260200180611d956029913960400191505060405180910390fd5b600080546001600160a01b0319166001600160a01b03831690811782556040519091907f8be0079c531659141344cd1fd0a4f28419497f9722a3daafe3b4186f6b6457e0908290a350565b6003546001600160a01b031690565b6001600160a01b03166000908152600e6020526040902060010154600160c01b900463ffffffff1690565b6000546001600160a01b03163314611016576040805162461bcd60e51b815260206004820181905260248201527f4f776e61626c653a2063616c6c6572206973206e6f7420746865206f776e6572604482015290519081900360640190fd5b8161102081611600565b61103c5760405162461bcd60e51b815260040161052190611c70565b61105b8383600960149054906101000a900463ffffffff16420161162a565b505050565b6000546001600160a01b031633146110bf576040805162461bcd60e51b815260206004820181905260248201527f4f776e61626c653a2063616c6c6572206973206e6f7420746865206f776e6572604482015290519081900360640190fd5b6001600160a01b0381166111045760405162461bcd60e51b8152600401808060200182810382526026815260200180611d6f6026913960400191505060405180910390fd5b600080546040516001600160a01b03808516939216917f8be0079c531659141344cd1fd0a4f28419497f9722a3daafe3b4186f6b6457e091a3600080546001600160a01b0319166001600160a01b0392909216919091179055565b6005546001600160a01b031633146111895760405162461bcd60e51b815260040161052190611c02565b6001600160a01b039182166000908152600e602090815260409182902083518154928501519385015160608601516dffffffffffffffffffffffffffff199094166001600160701b03909216919091177fffffffffffffffffffffffffffff00000000ffffffffffffffffffffffffffff16600160701b63ffffffff958616021773ffff0000000000000000000000000000000000001916600160901b61ffff928316021761ffff60a01b1916600160a01b91909316810292909217815560808401516001909101805460a086015160c087015160e0909701516001600160a01b0319909216939097169290921763ffffffff60a01b19169584169092029490941763ffffffff60c01b1916600160c01b93831693909302929092177bffffffffffffffffffffffffffffffffffffffffffffffffffffffff16600160e01b9390911692909202919091179055565b600b546000908190600160e01b900463ffffffff1642101561131e575050600a54600b54600160f01b90910461ffff1690600160701b90046001600160701b031661133d565b5050600a54600b54600160e01b90910461ffff16906001600160701b03165b9091565b6000546001600160a01b031633146113a0576040805162461bcd60e51b815260206004820181905260248201527f4f776e61626c653a2063616c6c6572206973206e6f7420746865206f776e6572604482015290519081900360640190fd5b6009805463ffffffff909216600160a01b0263ffffffff60a01b19909216919091179055565b600954600090600160c01b900463ffffffff164210156113f257506007546001600160a01b03166104d1565b506006546001600160a01b031690565b6000546001600160a01b03163314611461576040805162461bcd60e51b815260206004820181905260248201527f4f776e61626c653a2063616c6c6572206973206e6f7420746865206f776e6572604482015290519081900360640190fd5b8261146b81611600565b6114875760405162461bcd60e51b815260040161052190611c70565b6001600160a01b0382166114ad5760405162461bcd60e51b815260040161052190611c39565b506001600160a01b039283166000908152600e6020526040902080546dffffffffffffffffffffffffffff19166001600160701b0393909316929092178255600190910180546001600160a01b03191691909216179055565b6001600160a01b0381166000908152600c6020526040902054600190810b900b6115a057600d8054600180820183557fd7b6990105719101dabeb77144f2a3385c8033acd3af97e9423a695e81ad1eb590910180546001600160a01b0319166001600160a01b03851690811790915591546000928352600c6020526040909220805461ffff191661ffff9390920b929092161790556115fd565b6001600160a01b0381166000908152600c6020526040812054600190810b900b12156115fd576001600160a01b0381166000908152600c602052604081208054600181810b90930390920b61ffff1661ffff199092169190911790555b50565b6001600160a01b03166000908152600e6020526040902054600160701b900463ffffffff16151590565b61138861ffff831611156116505760405162461bcd60e51b815260040161052190611b6e565b6001600160a01b0383166000908152600e60205260409020600181015442600160a01b90910463ffffffff16116116a2578054600160a01b61ffff600160901b8304160261ffff60a01b199091161781555b805461ffff909316600160901b0273ffff000000000000000000000000000000000000199093169290921782556001909101805463ffffffff909216600160a01b0263ffffffff60a01b1990921691909117905550565b60008083601f84011261170a578182fd5b50813567ffffffffffffffff811115611721578182fd5b602083019150836020808302850101111561173b57600080fd5b9250929050565b80356104f381611d59565b80356001600160701b03811681146104f357600080fd5b803561ffff811681146104f357600080fd5b803563ffffffff811681146104f357600080fd5b60006020828403121561179b578081fd5b81356117a681611d59565b9392505050565b6000602082840312156117be578081fd5b81516117a681611d59565b600080600080600060a086880312156117e0578081fd5b85356117eb81611d59565b94506117f960208701611776565b935061180760408701611776565b9250606086013561181781611d59565b9150608086013561182781611d59565b809150509295509295909350565b6000806000806040858703121561184a578384fd5b843567ffffffffffffffff80821115611861578586fd5b61186d888389016116f9565b90965094506020870135915080821115611885578384fd5b50611892878288016116f9565b95989497509550505050565b600080600080600060a086880312156118b5578081fd5b85356118c081611d59565b945060208601356118d081611d59565b9350604086013561180781611d59565b6000808284036101208112156118f4578283fd5b83356118ff81611d59565b9250610100601f198201811315611914578283fd5b604051915080820182811067ffffffffffffffff8211171561193257fe5b6040526119416020860161174d565b825261194f60408601611776565b602083015261196060608601611764565b604083015261197160808601611764565b606083015261198260a08601611742565b608083015261199360c08601611776565b60a08301526119a460e08601611776565b60c08301526119b4818601611776565b60e083015250809150509250929050565b6000806000606084860312156119d9578081fd5b83356119e481611d59565b92506119f26020850161174d565b91506040840135611a0281611d59565b809150509250925092565b60008060408385031215611a1f578182fd5b8235611a2a81611d59565b9150611a3860208401611764565b90509250929050565b60008060408385031215611a53578182fd5b8235611a5e81611d59565b9150611a3860208401611776565b600060208284031215611a7d578081fd5b6117a682611764565b60008060408385031215611a98578182fd5b611aa183611764565b9150611a386020840161174d565b600060208284031215611ac0578081fd5b5035919050565b600060208284031215611ad8578081fd5b6117a682611776565b6001600160a01b0391909116815260200190565b6001600160a01b03938416815291909216602082015263ffffffff909116604082015260600190565b901515815260200190565b60019190910b815260200190565b60208082526014908201527f496e76616c6964206172726179206c656e677468000000000000000000000000604082015260600190565b60208082526025908201527f4d6178696d756d2073657276696365206665652070657263656e74207468726560408201527f73686f6c64000000000000000000000000000000000000000000000000000000606082015260800190565b6020808252600c908201527f5a65726f20616464726573730000000000000000000000000000000000000000604082015260600190565b60208082526011908201527f4e6f7420616e20656e7465727072697365000000000000000000000000000000604082015260600190565b60208082526014908201527f496e76616c696420466163746f7220546f6b656e000000000000000000000000604082015260600190565b60208082526012908201527f556e6b6e6f776e20506f776572546f6b656e0000000000000000000000000000604082015260600190565b60208082526013908201527f416c726561647920696e697469616c697a656400000000000000000000000000604082015260600190565b60208082526015908201527f496e76616c696420677261636520706572696f64730000000000000000000000604082015260600190565b6001600160701b0391909116815260200190565b63ffffffff91909116815260200190565b63ffffffff9290921682526001600160701b0316602082015260400190565b6001600160a01b03811681146115fd57600080fdfe4f776e61626c653a206e6577206f776e657220697320746865207a65726f2061646472657373496e697469616c697a61626c654f776e61626c653a20616c726561647920696e697469616c697a6564a2646970667358221220a379db1eda0c739e88be8aaf768d2f7d731401ae4ba94d30319c79f6e129a3f464736f6c63430007060033",
  "linkReferences": {},
  "deployedLinkReferences": {}
}