{
  "_format": "hh-sol-artifact-1",
  "contractName": "EnterpriseConfigurator",
  "sourceName": "contracts/EnterpriseConfigurator.sol",
  "abi": [
    {
      "anonymous": false,
      "inputs": [
        {
          "indexed": true,
          "internalType": "address",
          "name": "previousOwner",
          "type": "address"
        },
        {
          "indexed": true,
          "internalType": "address",
          "name": "newOwner",
          "type": "address"
        }
      ],
      "name": "OwnershipTransferred",
      "type": "event"
    },
    {
      "inputs": [
        {
          "internalType": "contract IPowerToken",
          "name": "powerToken",
          "type": "address"
        },
        {
          "components": [
            {
              "internalType": "uint112",
              "name": "baseRate",
              "type": "uint112"
            },
            {
              "internalType": "uint112",
              "name": "minGCFee",
              "type": "uint112"
            },
            {
              "internalType": "uint32",
              "name": "halfLife",
              "type": "uint32"
            },
            {
              "internalType": "contract IERC20Metadata",
              "name": "baseToken",
              "type": "address"
            },
            {
              "internalType": "uint32",
              "name": "minLoanDuration",
              "type": "uint32"
            },
            {
              "internalType": "uint32",
              "name": "maxLoanDuration",
              "type": "uint32"
            },
            {
              "internalType": "uint16",
              "name": "serviceFeePercent",
              "type": "uint16"
            }
          ],
          "internalType": "struct EnterpriseConfigurator.ServiceConfig",
          "name": "config",
          "type": "tuple"
        }
      ],
      "name": "addService",
      "outputs": [],
      "stateMutability": "nonpayable",
      "type": "function"
    },
    {
      "inputs": [
        {
          "internalType": "address",
          "name": "token",
          "type": "address"
        }
      ],
      "name": "disablePaymentToken",
      "outputs": [],
      "stateMutability": "nonpayable",
      "type": "function"
    },
    {
      "inputs": [
        {
          "internalType": "address",
          "name": "token",
          "type": "address"
        }
      ],
      "name": "enablePaymentToken",
      "outputs": [],
      "stateMutability": "nonpayable",
      "type": "function"
    },
    {
      "inputs": [
        {
          "internalType": "contract IPowerToken",
          "name": "powerToken",
          "type": "address"
        }
      ],
      "name": "getBaseRate",
      "outputs": [
        {
          "internalType": "uint112",
          "name": "",
          "type": "uint112"
        }
      ],
      "stateMutability": "view",
      "type": "function"
    },
    {
      "inputs": [
        {
          "internalType": "contract IPowerToken",
          "name": "powerToken",
          "type": "address"
        }
      ],
      "name": "getBaseToken",
      "outputs": [
        {
          "internalType": "contract IERC20Metadata",
          "name": "",
          "type": "address"
        }
      ],
      "stateMutability": "view",
      "type": "function"
    },
    {
      "inputs": [],
      "name": "getBaseUri",
      "outputs": [
        {
          "internalType": "string",
          "name": "",
          "type": "string"
        }
      ],
      "stateMutability": "view",
      "type": "function"
    },
    {
      "inputs": [],
      "name": "getBorrowToken",
      "outputs": [
        {
          "internalType": "contract IBorrowToken",
          "name": "",
          "type": "address"
        }
      ],
      "stateMutability": "view",
      "type": "function"
    },
    {
      "inputs": [],
      "name": "getBorrowerLoanReturnGracePeriod",
      "outputs": [
        {
          "internalType": "uint32",
          "name": "",
          "type": "uint32"
        }
      ],
      "stateMutability": "view",
      "type": "function"
    },
    {
      "inputs": [],
      "name": "getConverter",
      "outputs": [
        {
          "internalType": "contract IConverter",
          "name": "",
          "type": "address"
        }
      ],
      "stateMutability": "view",
      "type": "function"
    },
    {
      "inputs": [],
      "name": "getEnterpriseCollector",
      "outputs": [
        {
          "internalType": "address",
          "name": "",
          "type": "address"
        }
      ],
      "stateMutability": "view",
      "type": "function"
    },
    {
      "inputs": [],
      "name": "getEnterpriseLoanCollectGracePeriod",
      "outputs": [
        {
          "internalType": "uint32",
          "name": "",
          "type": "uint32"
        }
      ],
      "stateMutability": "view",
      "type": "function"
    },
    {
      "inputs": [],
      "name": "getEnterpriseVault",
      "outputs": [
        {
          "internalType": "address",
          "name": "",
          "type": "address"
        }
      ],
      "stateMutability": "view",
      "type": "function"
    },
    {
      "inputs": [],
      "name": "getGCFeePercent",
      "outputs": [
        {
          "internalType": "uint16",
          "name": "",
          "type": "uint16"
        }
      ],
      "stateMutability": "view",
      "type": "function"
    },
    {
      "inputs": [
        {
          "internalType": "contract IPowerToken",
          "name": "powerToken",
          "type": "address"
        }
      ],
      "name": "getHalfLife",
      "outputs": [
        {
          "internalType": "uint32",
          "name": "",
          "type": "uint32"
        }
      ],
      "stateMutability": "view",
      "type": "function"
    },
    {
      "inputs": [],
      "name": "getInterestToken",
      "outputs": [
        {
          "internalType": "contract IInterestToken",
          "name": "",
          "type": "address"
        }
      ],
      "stateMutability": "view",
      "type": "function"
    },
    {
      "inputs": [],
      "name": "getLiquidityToken",
      "outputs": [
        {
          "internalType": "contract IERC20Metadata",
          "name": "",
          "type": "address"
        }
      ],
      "stateMutability": "view",
      "type": "function"
    },
    {
      "inputs": [],
      "name": "getLoanCostEstimator",
      "outputs": [
        {
          "internalType": "contract ILoanCostEstimator",
          "name": "",
          "type": "address"
        }
      ],
      "stateMutability": "view",
      "type": "function"
    },
    {
      "inputs": [
        {
          "internalType": "contract IPowerToken",
          "name": "powerToken",
          "type": "address"
        }
      ],
      "name": "getMaxLoanDuration",
      "outputs": [
        {
          "internalType": "uint32",
          "name": "",
          "type": "uint32"
        }
      ],
      "stateMutability": "view",
      "type": "function"
    },
    {
      "inputs": [
        {
          "internalType": "contract IPowerToken",
          "name": "powerToken",
          "type": "address"
        }
      ],
      "name": "getMinGCFee",
      "outputs": [
        {
          "internalType": "uint112",
          "name": "",
          "type": "uint112"
        }
      ],
      "stateMutability": "view",
      "type": "function"
    },
    {
      "inputs": [
        {
          "internalType": "contract IPowerToken",
          "name": "powerToken",
          "type": "address"
        }
      ],
      "name": "getMinLoanDuration",
      "outputs": [
        {
          "internalType": "uint32",
          "name": "",
          "type": "uint32"
        }
      ],
      "stateMutability": "view",
      "type": "function"
    },
    {
      "inputs": [],
      "name": "getPowerTokenImpl",
      "outputs": [
        {
          "internalType": "address",
          "name": "",
          "type": "address"
        }
      ],
      "stateMutability": "view",
      "type": "function"
    },
    {
      "inputs": [
        {
          "internalType": "contract IPowerToken",
          "name": "powerToken",
          "type": "address"
        }
      ],
      "name": "getServiceFeePercent",
      "outputs": [
        {
          "internalType": "uint112",
          "name": "",
          "type": "uint112"
        }
      ],
      "stateMutability": "view",
      "type": "function"
    },
    {
      "inputs": [
        {
          "internalType": "contract IEnterprise",
          "name": "enterprise",
          "type": "address"
        },
        {
          "internalType": "contract IERC20Metadata",
          "name": "liquidityToken",
          "type": "address"
        },
        {
          "internalType": "contract IInterestToken",
          "name": "interestToken",
          "type": "address"
        },
        {
          "internalType": "contract IBorrowToken",
          "name": "borrowToken",
          "type": "address"
        },
        {
          "internalType": "address",
          "name": "owner",
          "type": "address"
        }
      ],
      "name": "initialize",
      "outputs": [],
      "stateMutability": "nonpayable",
      "type": "function"
    },
    {
      "inputs": [
        {
          "internalType": "address",
          "name": "initialOwner",
          "type": "address"
        }
      ],
      "name": "initialize",
      "outputs": [],
      "stateMutability": "nonpayable",
      "type": "function"
    },
    {
      "inputs": [
        {
          "internalType": "string",
          "name": "baseUri",
          "type": "string"
        },
        {
          "internalType": "address",
          "name": "powerTokenImpl",
          "type": "address"
        },
        {
          "internalType": "contract ILoanCostEstimator",
          "name": "estimator",
          "type": "address"
        },
        {
          "internalType": "contract IConverter",
          "name": "converter",
          "type": "address"
        }
      ],
      "name": "initialize2",
      "outputs": [],
      "stateMutability": "nonpayable",
      "type": "function"
    },
    {
      "inputs": [
        {
          "internalType": "contract IPowerToken",
          "name": "powerToken",
          "type": "address"
        },
        {
          "internalType": "uint32",
          "name": "duration",
          "type": "uint32"
        }
      ],
      "name": "isAllowedLoanDuration",
      "outputs": [
        {
          "internalType": "bool",
          "name": "",
          "type": "bool"
        }
      ],
      "stateMutability": "view",
      "type": "function"
    },
    {
      "inputs": [
        {
          "internalType": "contract IERC20",
          "name": "token",
          "type": "address"
        }
      ],
      "name": "isSupportedPaymentToken",
      "outputs": [
        {
          "internalType": "bool",
          "name": "",
          "type": "bool"
        }
      ],
      "stateMutability": "view",
      "type": "function"
    },
    {
      "inputs": [],
      "name": "owner",
      "outputs": [
        {
          "internalType": "address",
          "name": "",
          "type": "address"
        }
      ],
      "stateMutability": "view",
      "type": "function"
    },
    {
      "inputs": [
        {
          "internalType": "contract IPowerToken[]",
          "name": "powerToken",
          "type": "address[]"
        },
        {
          "internalType": "uint16[]",
          "name": "newServiceFeePercent",
          "type": "uint16[]"
        }
      ],
      "name": "scheduleServiceFeePercentBatch",
      "outputs": [],
      "stateMutability": "nonpayable",
      "type": "function"
    },
    {
      "inputs": [
        {
          "internalType": "contract IPowerToken",
          "name": "powerToken",
          "type": "address"
        },
        {
          "internalType": "uint112",
          "name": "baseRate",
          "type": "uint112"
        },
        {
          "internalType": "contract IERC20Metadata",
          "name": "baseToken",
          "type": "address"
        },
        {
          "internalType": "uint112",
          "name": "minGCFee",
          "type": "uint112"
        }
      ],
      "name": "setBaseRate",
      "outputs": [],
      "stateMutability": "nonpayable",
      "type": "function"
    },
    {
      "inputs": [
        {
          "internalType": "string",
          "name": "baseUri",
          "type": "string"
        }
      ],
      "name": "setBaseUri",
      "outputs": [],
      "stateMutability": "nonpayable",
      "type": "function"
    },
    {
      "inputs": [
        {
          "internalType": "uint32",
          "name": "newPeriod",
          "type": "uint32"
        }
      ],
      "name": "setBorrowerLoanReturnGracePeriod",
      "outputs": [],
      "stateMutability": "nonpayable",
      "type": "function"
    },
    {
      "inputs": [
        {
          "internalType": "contract IConverter",
          "name": "newConverter",
          "type": "address"
        }
      ],
      "name": "setConverter",
      "outputs": [],
      "stateMutability": "nonpayable",
      "type": "function"
    },
    {
      "inputs": [
        {
          "internalType": "address",
          "name": "newCollector",
          "type": "address"
        }
      ],
      "name": "setEnterpriseCollector",
      "outputs": [],
      "stateMutability": "nonpayable",
      "type": "function"
    },
    {
      "inputs": [
        {
          "internalType": "uint32",
          "name": "newPeriod",
          "type": "uint32"
        }
      ],
      "name": "setEnterpriseLoanCollectGracePeriod",
      "outputs": [],
      "stateMutability": "nonpayable",
      "type": "function"
    },
    {
      "inputs": [
        {
          "internalType": "address",
          "name": "newVault",
          "type": "address"
        }
      ],
      "name": "setEnterpriseVault",
      "outputs": [],
      "stateMutability": "nonpayable",
      "type": "function"
    },
    {
      "inputs": [
        {
          "internalType": "uint16",
          "name": "newGcFeePercent",
          "type": "uint16"
        }
      ],
      "name": "setGcFeePercent",
      "outputs": [],
      "stateMutability": "nonpayable",
      "type": "function"
    },
    {
      "inputs": [
        {
          "internalType": "contract ILoanCostEstimator",
          "name": "newEstimator",
          "type": "address"
        }
      ],
      "name": "setLoanCostEstimator",
      "outputs": [],
      "stateMutability": "nonpayable",
      "type": "function"
    },
    {
      "inputs": [
        {
          "internalType": "contract IPowerToken",
          "name": "powerToken",
          "type": "address"
        },
        {
          "internalType": "uint32",
          "name": "minLoanDuration",
          "type": "uint32"
        },
        {
          "internalType": "uint32",
          "name": "maxLoanDuration",
          "type": "uint32"
        }
      ],
      "name": "setLoanDurationLimits",
      "outputs": [],
      "stateMutability": "nonpayable",
      "type": "function"
    },
    {
      "inputs": [
        {
          "internalType": "contract IPowerToken",
          "name": "powerToken",
          "type": "address"
        },
        {
          "internalType": "uint16",
          "name": "newFeePercent",
          "type": "uint16"
        }
      ],
      "name": "setServiceFeePercent",
      "outputs": [],
      "stateMutability": "nonpayable",
      "type": "function"
    },
    {
      "inputs": [
        {
          "internalType": "uint256",
          "name": "index",
          "type": "uint256"
        }
      ],
      "name": "supportedPaymentTokens",
      "outputs": [
        {
          "internalType": "address",
          "name": "",
          "type": "address"
        }
      ],
      "stateMutability": "view",
      "type": "function"
    },
    {
      "inputs": [
        {
          "internalType": "contract IERC20",
          "name": "token",
          "type": "address"
        }
      ],
      "name": "supportedPaymentTokensIndex",
      "outputs": [
        {
          "internalType": "int16",
          "name": "",
          "type": "int16"
        }
      ],
      "stateMutability": "view",
      "type": "function"
    },
    {
      "inputs": [
        {
          "internalType": "address",
          "name": "newOwner",
          "type": "address"
        }
      ],
      "name": "transferOwnership",
      "outputs": [],
      "stateMutability": "nonpayable",
      "type": "function"
    }
  ],
  "bytecode": "0x608060405260098054600160a01b600160e01b031916650546000002a360a71b17905534801561002e57600080fd5b506123fd8061003e6000396000f3fe608060405234801561001057600080fd5b50600436106102e95760003560e01c80638da5cb5b11610191578063b19337a4116100e3578063c4d66de811610097578063cc284f7b11610071578063cc284f7b14610780578063f2fde38b14610793578063fec0dea0146107a657600080fd5b8063c4d66de814610749578063c71c24331461075c578063c93d0b921461076f57600080fd5b8063b56de97e116100c8578063b56de97e14610710578063bfd84fb414610723578063c20aa9bc1461073657600080fd5b8063b19337a4146106dc578063b406bf6d146106ef57600080fd5b80639c7aa7f811610145578063a0efd1181161011f578063a0efd118146106a3578063a554b26d146106b8578063a773f2f0146106c957600080fd5b80639c7aa7f81461066a578063a0bcfc7f1461067d578063a0cffa591461069057600080fd5b806390f55edd1161017657806390f55edd1461060b57806396ea29751461061e5780639ba7a8c01461063157600080fd5b80638da5cb5b146105c45780638fcfd8b3146105d557600080fd5b806338ad79011161024a578063644e44df116101fe5780638188d50d116101d85780638188d50d1461055e57806383b9a00914610573578063854bb4a21461058457600080fd5b8063644e44df146105035780637791c42d146105145780637c8322d51461052557600080fd5b8063449497ec1161022f578063449497ec146104ca5780634ad56c03146104dd57806362c1f388146104f057600080fd5b806338ad7901146104a45780633ff6fe87146104b757600080fd5b80632261b07f116102a15780632b39a0ac116102865780632b39a0ac146103fa5780632e365ade146104505780632fb2067f1461046357600080fd5b80632261b07f146103c357806327623ddd146103d457600080fd5b80630ea1dc9e116102d25780630ea1dc9e1461034f5780631459457a146103605780631acaac2a1461037557600080fd5b80630c10fd0f146102ee5780630cac36b21461033a575b600080fd5b61031d6102fc366004611e7f565b6001600160a01b039081166000908152600d60205260409020600101541690565b6040516001600160a01b0390911681526020015b60405180910390f35b6103426107b7565b604051610331919061226e565b6003546001600160a01b031661031d565b61037361036e366004611f27565b610849565b005b6103ae610383366004611e7f565b6001600160a01b03166000908152600d6020526040902060010154600160c01b900463ffffffff1690565b60405163ffffffff9091168152602001610331565b6007546001600160a01b031661031d565b6103e76103e2366004611e7f565b610a47565b60405160019190910b8152602001610331565b610431610408366004611e7f565b6001600160a01b03166000908152600d6020526040902060010154600160e01b900461ffff1690565b6040516dffffffffffffffffffffffffffff9091168152602001610331565b61037361045e366004612254565b610a74565b610494610471366004611e7f565b6001600160a01b03166000908152600a6020526040812054600190810b900b1390565b6040519015158152602001610331565b6103736104b2366004611f97565b610b5d565b6103736104c5366004611ebe565b610cf6565b6103736104d8366004612222565b610ebf565b6103736104eb3660046121b5565b610f29565b6103736104fe366004611e7f565b610fd0565b6002546001600160a01b031661031d565b6009546001600160a01b031661031d565b6103ae610533366004611e7f565b6001600160a01b03166000908152600d6020526040902060010154600160a01b900463ffffffff1690565b600954600160a01b900463ffffffff166103ae565b6005546001600160a01b031661031d565b610431610592366004611e7f565b6001600160a01b03166000908152600d6020526040902054600160701b90046dffffffffffffffffffffffffffff1690565b6000546001600160a01b031661031d565b6103ae6105e3366004611e7f565b6001600160a01b03166000908152600d6020526040902054600160e01b900463ffffffff1690565b610373610619366004611e7f565b61107f565b61031d61062c36600461223c565b61112e565b61043161063f366004611e7f565b6001600160a01b03166000908152600d60205260409020546dffffffffffffffffffffffffffff1690565b610373610678366004611e7f565b61116c565b61037361068b366004612175565b6111c0565b61049461069e366004612106565b611219565b600954600160c01b900463ffffffff166103ae565b6008546001600160a01b031661031d565b6103736106d736600461207b565b611272565b6103736106ea366004611e7f565b6113f9565b600954600160e01b900461ffff1660405161ffff9091168152602001610331565b61037361071e366004612254565b6114a8565b610373610731366004611e7f565b611578565b6103736107443660046120d2565b61160e565b610373610757366004611e7f565b6116c9565b61037361076a366004612131565b611793565b6004546001600160a01b031661031d565b61037361078e366004611e7f565b6118b4565b6103736107a1366004611e7f565b611963565b6006546001600160a01b031661031d565b6060600c80546107c690612306565b80601f01602080910402602001604051908101604052809291908181526020018280546107f290612306565b801561083f5780601f106108145761010080835404028352916020019161083f565b820191906000526020600020905b81548152906001019060200180831161082257829003601f168201915b5050505050905090565b6003546001600160a01b0316156108a75760405162461bcd60e51b815260206004820152601360248201527f416c726561647920696e697469616c697a65640000000000000000000000000060448201526064015b60405180910390fd5b6108b0816116c9565b600180546001600160a01b038088166001600160a01b03199283161790925560038054868416908316179055600480548584169083161781556002805493881693909216929092179055604080517f8da5cb5b00000000000000000000000000000000000000000000000000000000815290513092638da5cb5b92808201926020929091829003018186803b15801561094857600080fd5b505afa15801561095c573d6000803e3d6000fd5b505050506040513d601f19601f820116820180604052508101906109809190611ea2565b600860006101000a8154816001600160a01b0302191690836001600160a01b03160217905550306001600160a01b0316638da5cb5b6040518163ffffffff1660e01b815260040160206040518083038186803b1580156109df57600080fd5b505afa1580156109f3573d6000803e3d6000fd5b505050506040513d601f19601f82011682018060405250810190610a179190611ea2565b600980546001600160a01b0319166001600160a01b0392909216919091179055610a4084611a82565b5050505050565b6001600160a01b0381166000908152600a6020526040812054610a6e90600190810b6122c1565b92915050565b6000546001600160a01b03163314610abc5760405162461bcd60e51b815260206004820181905260248201526000805160206123a8833981519152604482015260640161089e565b60095463ffffffff600160c01b90910481169082161115610b1f5760405162461bcd60e51b815260206004820152601560248201527f496e76616c696420677261636520706572696f64730000000000000000000000604482015260640161089e565b6009805463ffffffff909216600160a01b027fffffffffffffffff00000000ffffffffffffffffffffffffffffffffffffffff909216919091179055565b6001546001600160a01b03163314610bb75760405162461bcd60e51b815260206004820152601160248201527f4e6f7420616e20656e7465727072697365000000000000000000000000000000604482015260640161089e565b6001600160a01b039182166000908152600d60209081526040918290208351815492850151938501516dffffffffffffffffffffffffffff9182167fffffffff0000000000000000000000000000000000000000000000000000000090941693909317600160701b9190941602929092177bffffffffffffffffffffffffffffffffffffffffffffffffffffffff16600160e01b63ffffffff9283168102919091178355606084015160019093018054608086015160a087015160c090970151959097167fffffffffffffffff00000000000000000000000000000000000000000000000090911617600160a01b96841696909602959095177fffff000000000000ffffffffffffffffffffffffffffffffffffffffffffffff16600160c01b949092169390930261ffff60e01b19161761ffff909116909102179055565b6000546001600160a01b03163314610d3e5760405162461bcd60e51b815260206004820181905260248201526000805160206123a8833981519152604482015260640161089e565b828114610d8d5760405162461bcd60e51b815260206004820152601460248201527f496e76616c6964206172726179206c656e677468000000000000000000000000604482015260640161089e565b60005b83811015610a4057610dfa858583818110610dbb57634e487b7160e01b600052603260045260246000fd5b9050602002016020810190610dd09190611e7f565b6001600160a01b03166000908152600d6020526040902054600160e01b900463ffffffff16151590565b610e3b5760405162461bcd60e51b81526020600482015260126024820152712ab735b737bbb7102837bbb2b92a37b5b2b760711b604482015260640161089e565b610ead858583818110610e5e57634e487b7160e01b600052603260045260246000fd5b9050602002016020810190610e739190611e7f565b848484818110610e9357634e487b7160e01b600052603260045260246000fd5b9050602002016020810190610ea89190612222565b611b99565b80610eb781612341565b915050610d90565b6000546001600160a01b03163314610f075760405162461bcd60e51b815260206004820181905260248201526000805160206123a8833981519152604482015260640161089e565b6009805461ffff909216600160e01b0261ffff60e01b19909216919091179055565b6005546001600160a01b031615610f825760405162461bcd60e51b815260206004820152601360248201527f416c726561647920696e697469616c697a656400000000000000000000000000604482015260640161089e565b610f8e600c8686611d08565b50600580546001600160a01b039485166001600160a01b0319918216179091556006805493851693821693909317909255600780549190931691161790555050565b6000546001600160a01b031633146110185760405162461bcd60e51b815260206004820181905260248201526000805160206123a8833981519152604482015260640161089e565b6001600160a01b03811661105d5760405162461bcd60e51b815260206004820152600c60248201526b5a65726f206164647265737360a01b604482015260640161089e565b600880546001600160a01b0319166001600160a01b0392909216919091179055565b6000546001600160a01b031633146110c75760405162461bcd60e51b815260206004820181905260248201526000805160206123a8833981519152604482015260640161089e565b6001600160a01b03811661110c5760405162461bcd60e51b815260206004820152600c60248201526b5a65726f206164647265737360a01b604482015260640161089e565b600980546001600160a01b0319166001600160a01b0392909216919091179055565b6000600b828154811061115157634e487b7160e01b600052603260045260246000fd5b6000918252602090912001546001600160a01b031692915050565b6000546001600160a01b031633146111b45760405162461bcd60e51b815260206004820181905260248201526000805160206123a8833981519152604482015260640161089e565b6111bd81611c51565b50565b6000546001600160a01b031633146112085760405162461bcd60e51b815260206004820181905260248201526000805160206123a8833981519152604482015260640161089e565b611214600c8383611d08565b505050565b6001600160a01b0382166000908152600d60205260408120600181015463ffffffff808516600160a01b909204161180159061126a5750600181015463ffffffff600160c01b909104811690841611155b949350505050565b6000546001600160a01b031633146112ba5760405162461bcd60e51b815260206004820181905260248201526000805160206123a8833981519152604482015260640161089e565b6001600160a01b0384166000908152600d60205260409020548490600160e01b900463ffffffff166113235760405162461bcd60e51b81526020600482015260126024820152712ab735b737bbb7102837bbb2b92a37b5b2b760711b604482015260640161089e565b6001600160a01b0383166113795760405162461bcd60e51b815260206004820152601260248201527f496e76616c6964204261736520546f6b656e0000000000000000000000000000604482015260640161089e565b506001600160a01b039384166000908152600d602052604090208054600182018054949096166001600160a01b0319909416939093179094556dffffffffffffffffffffffffffff908116600160701b027fffffffff00000000000000000000000000000000000000000000000000000000909216921691909117179055565b6000546001600160a01b031633146114415760405162461bcd60e51b815260206004820181905260248201526000805160206123a8833981519152604482015260640161089e565b6001600160a01b0381166114865760405162461bcd60e51b815260206004820152600c60248201526b5a65726f206164647265737360a01b604482015260640161089e565b600780546001600160a01b0319166001600160a01b0392909216919091179055565b6000546001600160a01b031633146114f05760405162461bcd60e51b815260206004820181905260248201526000805160206123a8833981519152604482015260640161089e565b60095463ffffffff808316600160a01b9092041611156115525760405162461bcd60e51b815260206004820152601560248201527f496e76616c696420677261636520706572696f64730000000000000000000000604482015260640161089e565b6009805463ffffffff909216600160c01b0263ffffffff60c01b19909216919091179055565b6000546001600160a01b031633146115c05760405162461bcd60e51b815260206004820181905260248201526000805160206123a8833981519152604482015260640161089e565b6001600160a01b0381166116055760405162461bcd60e51b815260206004820152600c60248201526b5a65726f206164647265737360a01b604482015260640161089e565b6111bd81611a82565b6000546001600160a01b031633146116565760405162461bcd60e51b815260206004820181905260248201526000805160206123a8833981519152604482015260640161089e565b6001600160a01b0382166000908152600d60205260409020548290600160e01b900463ffffffff166116bf5760405162461bcd60e51b81526020600482015260126024820152712ab735b737bbb7102837bbb2b92a37b5b2b760711b604482015260640161089e565b6112148383611b99565b6000546001600160a01b0316156117485760405162461bcd60e51b815260206004820152602960248201527f496e697469616c697a61626c654f776e61626c653a20616c726561647920696e60448201527f697469616c697a65640000000000000000000000000000000000000000000000606482015260840161089e565b600080546001600160a01b0319166001600160a01b03831690811782556040519091907f8be0079c531659141344cd1fd0a4f28419497f9722a3daafe3b4186f6b6457e0908290a350565b6000546001600160a01b031633146117db5760405162461bcd60e51b815260206004820181905260248201526000805160206123a8833981519152604482015260640161089e565b6001600160a01b0383166000908152600d60205260409020548390600160e01b900463ffffffff166118445760405162461bcd60e51b81526020600482015260126024820152712ab735b737bbb7102837bbb2b92a37b5b2b760711b604482015260640161089e565b506001600160a01b03929092166000908152600d6020526040902060010180547fffffffff0000000000000000ffffffffffffffffffffffffffffffffffffffff16600160a01b63ffffffff9384160263ffffffff60c01b191617600160c01b9290931691909102919091179055565b6000546001600160a01b031633146118fc5760405162461bcd60e51b815260206004820181905260248201526000805160206123a8833981519152604482015260640161089e565b6001600160a01b0381166119415760405162461bcd60e51b815260206004820152600c60248201526b5a65726f206164647265737360a01b604482015260640161089e565b600680546001600160a01b0319166001600160a01b0392909216919091179055565b6000546001600160a01b031633146119ab5760405162461bcd60e51b815260206004820181905260248201526000805160206123a8833981519152604482015260640161089e565b6001600160a01b038116611a275760405162461bcd60e51b815260206004820152602660248201527f4f776e61626c653a206e6577206f776e657220697320746865207a65726f206160448201527f6464726573730000000000000000000000000000000000000000000000000000606482015260840161089e565b600080546040516001600160a01b03808516939216917f8be0079c531659141344cd1fd0a4f28419497f9722a3daafe3b4186f6b6457e091a3600080546001600160a01b0319166001600160a01b0392909216919091179055565b6001600160a01b0381166000908152600a6020526040902054600190810b900b611b1a57600b8054600180820183557f0175b7a638427703f0dbe7bb9bbf987a2551717b34e79f33b5b1008d1fa01db990910180546001600160a01b0319166001600160a01b0394909416938417905590546000928352600a6020526040909220805461ffff191661ffff9390920b92909216179055565b6001600160a01b0381166000908152600a6020526040812054600190810b900b12156111bd576001600160a01b0381166000908152600a6020526040902054611b659060010b61235c565b6001600160a01b0382166000908152600a60205260409020805460019290920b61ffff1661ffff1990921691909117905550565b61138861ffff82161115611c155760405162461bcd60e51b815260206004820152602560248201527f4d6178696d756d2073657276696365206665652070657263656e74207468726560448201527f73686f6c64000000000000000000000000000000000000000000000000000000606482015260840161089e565b6001600160a01b039091166000908152600d60205260409020600101805461ffff909216600160e01b0261ffff60e01b19909216919091179055565b6001600160a01b0381166000908152600a6020526040902054600190810b900b611cbd5760405162461bcd60e51b815260206004820152600d60248201527f496e76616c696420746f6b656e00000000000000000000000000000000000000604482015260640161089e565b6001600160a01b0381166000908152600a6020526040812054600190810b900b13156111bd576001600160a01b0381166000908152600a6020526040902054611b659060010b61235c565b828054611d1490612306565b90600052602060002090601f016020900481019282611d365760008555611d7c565b82601f10611d4f5782800160ff19823516178555611d7c565b82800160010185558215611d7c579182015b82811115611d7c578235825591602001919060010190611d61565b50611d88929150611d8c565b5090565b5b80821115611d885760008155600101611d8d565b60008083601f840112611db2578182fd5b50813567ffffffffffffffff811115611dc9578182fd5b6020830191508360208260051b8501011115611de457600080fd5b9250929050565b8035611df681612392565b919050565b60008083601f840112611e0c578182fd5b50813567ffffffffffffffff811115611e23578182fd5b602083019150836020828501011115611de457600080fd5b80356dffffffffffffffffffffffffffff81168114611df657600080fd5b803561ffff81168114611df657600080fd5b803563ffffffff81168114611df657600080fd5b600060208284031215611e90578081fd5b8135611e9b81612392565b9392505050565b600060208284031215611eb3578081fd5b8151611e9b81612392565b60008060008060408587031215611ed3578283fd5b843567ffffffffffffffff80821115611eea578485fd5b611ef688838901611da1565b90965094506020870135915080821115611f0e578384fd5b50611f1b87828801611da1565b95989497509550505050565b600080600080600060a08688031215611f3e578081fd5b8535611f4981612392565b94506020860135611f5981612392565b93506040860135611f6981612392565b92506060860135611f7981612392565b91506080860135611f8981612392565b809150509295509295909350565b600080828403610100811215611fab578182fd5b8335611fb681612392565b925060e0601f1982011215611fc9578182fd5b5060405160e0810181811067ffffffffffffffff82111715611ff957634e487b7160e01b83526041600452602483fd5b60405261200860208501611e3b565b815261201660408501611e3b565b602082015261202760608501611e6b565b604082015261203860808501611deb565b606082015261204960a08501611e6b565b608082015261205a60c08501611e6b565b60a082015261206b60e08501611e59565b60c0820152809150509250929050565b60008060008060808587031215612090578182fd5b843561209b81612392565b93506120a960208601611e3b565b925060408501356120b981612392565b91506120c760608601611e3b565b905092959194509250565b600080604083850312156120e4578182fd5b82356120ef81612392565b91506120fd60208401611e59565b90509250929050565b60008060408385031215612118578182fd5b823561212381612392565b91506120fd60208401611e6b565b600080600060608486031215612145578081fd5b833561215081612392565b925061215e60208501611e6b565b915061216c60408501611e6b565b90509250925092565b60008060208385031215612187578182fd5b823567ffffffffffffffff81111561219d578283fd5b6121a985828601611dfb565b90969095509350505050565b6000806000806000608086880312156121cc578283fd5b853567ffffffffffffffff8111156121e2578384fd5b6121ee88828901611dfb565b909650945050602086013561220281612392565b9250604086013561221281612392565b91506060860135611f8981612392565b600060208284031215612233578081fd5b611e9b82611e59565b60006020828403121561224d578081fd5b5035919050565b600060208284031215612265578081fd5b611e9b82611e6b565b6000602080835283518082850152825b8181101561229a5785810183015185820160400152820161227e565b818111156122ab5783604083870101525b50601f01601f1916929092016040019392505050565b60008160010b8360010b82811281617fff19018312811516156122e6576122e661237c565b81617fff0183138116156122fc576122fc61237c565b5090039392505050565b600181811c9082168061231a57607f821691505b6020821081141561233b57634e487b7160e01b600052602260045260246000fd5b50919050565b60006000198214156123555761235561237c565b5060010190565b60008160010b617fff198114156123755761237561237c565b9003919050565b634e487b7160e01b600052601160045260246000fd5b6001600160a01b03811681146111bd57600080fdfe4f776e61626c653a2063616c6c6572206973206e6f7420746865206f776e6572a2646970667358221220e0c981c0d06bb0a94fb8765d0b673aebc5a51943e7497777318596124e87bf6364736f6c63430008040033",
  "linkReferences": {},
  "deployedLinkReferences": {}
}