{
  "_format": "hh-sol-artifact-1",
  "contractName": "EnterpriseConfigurator",
  "sourceName": "contracts/EnterpriseConfigurator.sol",
  "abi": [
    {
      "anonymous": false,
      "inputs": [
        {
          "indexed": true,
          "internalType": "address",
          "name": "previousOwner",
          "type": "address"
        },
        {
          "indexed": true,
          "internalType": "address",
          "name": "newOwner",
          "type": "address"
        }
      ],
      "name": "OwnershipTransferred",
      "type": "event"
    },
    {
      "inputs": [
        {
          "internalType": "contract IPowerToken",
          "name": "powerToken",
          "type": "address"
        },
        {
          "components": [
            {
              "internalType": "uint112",
              "name": "baseRate",
              "type": "uint112"
            },
            {
              "internalType": "uint112",
              "name": "minGCFee",
              "type": "uint112"
            },
            {
              "internalType": "uint32",
              "name": "halfLife",
              "type": "uint32"
            },
            {
              "internalType": "contract IERC20Metadata",
              "name": "baseToken",
              "type": "address"
            },
            {
              "internalType": "uint32",
              "name": "minLoanDuration",
              "type": "uint32"
            },
            {
              "internalType": "uint32",
              "name": "maxLoanDuration",
              "type": "uint32"
            },
            {
              "internalType": "uint16",
              "name": "serviceFeePercent",
              "type": "uint16"
            }
          ],
          "internalType": "struct EnterpriseConfigurator.ServiceConfig",
          "name": "config",
          "type": "tuple"
        }
      ],
      "name": "addService",
      "outputs": [],
      "stateMutability": "nonpayable",
      "type": "function"
    },
    {
      "inputs": [
        {
          "internalType": "address",
          "name": "token",
          "type": "address"
        }
      ],
      "name": "disablePaymentToken",
      "outputs": [],
      "stateMutability": "nonpayable",
      "type": "function"
    },
    {
      "inputs": [
        {
          "internalType": "address",
          "name": "token",
          "type": "address"
        }
      ],
      "name": "enablePaymentToken",
      "outputs": [],
      "stateMutability": "nonpayable",
      "type": "function"
    },
    {
      "inputs": [
        {
          "internalType": "contract IPowerToken",
          "name": "powerToken",
          "type": "address"
        }
      ],
      "name": "getBaseRate",
      "outputs": [
        {
          "internalType": "uint112",
          "name": "",
          "type": "uint112"
        }
      ],
      "stateMutability": "view",
      "type": "function"
    },
    {
      "inputs": [
        {
          "internalType": "contract IPowerToken",
          "name": "powerToken",
          "type": "address"
        }
      ],
      "name": "getBaseToken",
      "outputs": [
        {
          "internalType": "contract IERC20Metadata",
          "name": "",
          "type": "address"
        }
      ],
      "stateMutability": "view",
      "type": "function"
    },
    {
      "inputs": [],
      "name": "getBorrowToken",
      "outputs": [
        {
          "internalType": "contract IBorrowToken",
          "name": "",
          "type": "address"
        }
      ],
      "stateMutability": "view",
      "type": "function"
    },
    {
      "inputs": [],
      "name": "getBorrowerLoanReturnGracePeriod",
      "outputs": [
        {
          "internalType": "uint32",
          "name": "",
          "type": "uint32"
        }
      ],
      "stateMutability": "view",
      "type": "function"
    },
    {
      "inputs": [],
      "name": "getConverter",
      "outputs": [
        {
          "internalType": "contract IConverter",
          "name": "",
          "type": "address"
        }
      ],
      "stateMutability": "view",
      "type": "function"
    },
    {
      "inputs": [],
      "name": "getEnterpriseCollector",
      "outputs": [
        {
          "internalType": "address",
          "name": "",
          "type": "address"
        }
      ],
      "stateMutability": "view",
      "type": "function"
    },
    {
      "inputs": [],
      "name": "getEnterpriseLoanCollectGracePeriod",
      "outputs": [
        {
          "internalType": "uint32",
          "name": "",
          "type": "uint32"
        }
      ],
      "stateMutability": "view",
      "type": "function"
    },
    {
      "inputs": [],
      "name": "getEnterpriseVault",
      "outputs": [
        {
          "internalType": "address",
          "name": "",
          "type": "address"
        }
      ],
      "stateMutability": "view",
      "type": "function"
    },
    {
      "inputs": [],
      "name": "getGCFeePercent",
      "outputs": [
        {
          "internalType": "uint16",
          "name": "",
          "type": "uint16"
        }
      ],
      "stateMutability": "view",
      "type": "function"
    },
    {
      "inputs": [
        {
          "internalType": "contract IPowerToken",
          "name": "powerToken",
          "type": "address"
        }
      ],
      "name": "getHalfLife",
      "outputs": [
        {
          "internalType": "uint32",
          "name": "",
          "type": "uint32"
        }
      ],
      "stateMutability": "view",
      "type": "function"
    },
    {
      "inputs": [],
      "name": "getInterestToken",
      "outputs": [
        {
          "internalType": "contract IInterestToken",
          "name": "",
          "type": "address"
        }
      ],
      "stateMutability": "view",
      "type": "function"
    },
    {
      "inputs": [],
      "name": "getLiquidityToken",
      "outputs": [
        {
          "internalType": "contract IERC20Metadata",
          "name": "",
          "type": "address"
        }
      ],
      "stateMutability": "view",
      "type": "function"
    },
    {
      "inputs": [],
      "name": "getLoanCostEstimator",
      "outputs": [
        {
          "internalType": "contract ILoanCostEstimator",
          "name": "",
          "type": "address"
        }
      ],
      "stateMutability": "view",
      "type": "function"
    },
    {
      "inputs": [
        {
          "internalType": "contract IPowerToken",
          "name": "powerToken",
          "type": "address"
        }
      ],
      "name": "getMaxLoanDuration",
      "outputs": [
        {
          "internalType": "uint32",
          "name": "",
          "type": "uint32"
        }
      ],
      "stateMutability": "view",
      "type": "function"
    },
    {
      "inputs": [
        {
          "internalType": "contract IPowerToken",
          "name": "powerToken",
          "type": "address"
        }
      ],
      "name": "getMinGCFee",
      "outputs": [
        {
          "internalType": "uint112",
          "name": "",
          "type": "uint112"
        }
      ],
      "stateMutability": "view",
      "type": "function"
    },
    {
      "inputs": [
        {
          "internalType": "contract IPowerToken",
          "name": "powerToken",
          "type": "address"
        }
      ],
      "name": "getMinLoanDuration",
      "outputs": [
        {
          "internalType": "uint32",
          "name": "",
          "type": "uint32"
        }
      ],
      "stateMutability": "view",
      "type": "function"
    },
    {
      "inputs": [],
      "name": "getPowerTokenImpl",
      "outputs": [
        {
          "internalType": "address",
          "name": "",
          "type": "address"
        }
      ],
      "stateMutability": "view",
      "type": "function"
    },
    {
      "inputs": [
        {
          "internalType": "contract IPowerToken",
          "name": "powerToken",
          "type": "address"
        }
      ],
      "name": "getServiceFeePercent",
      "outputs": [
        {
          "internalType": "uint112",
          "name": "",
          "type": "uint112"
        }
      ],
      "stateMutability": "view",
      "type": "function"
    },
    {
      "inputs": [
        {
          "internalType": "contract IEnterprise",
          "name": "enterprise",
          "type": "address"
        },
        {
          "internalType": "contract IERC20Metadata",
          "name": "liquidityToken",
          "type": "address"
        },
        {
          "internalType": "contract IInterestToken",
          "name": "interestToken",
          "type": "address"
        },
        {
          "internalType": "contract IBorrowToken",
          "name": "borrowToken",
          "type": "address"
        },
        {
          "internalType": "address",
          "name": "owner",
          "type": "address"
        }
      ],
      "name": "initialize",
      "outputs": [],
      "stateMutability": "nonpayable",
      "type": "function"
    },
    {
      "inputs": [
        {
          "internalType": "address",
          "name": "initialOwner",
          "type": "address"
        }
      ],
      "name": "initialize",
      "outputs": [],
      "stateMutability": "nonpayable",
      "type": "function"
    },
    {
      "inputs": [
        {
          "internalType": "address",
          "name": "powerTokenImpl",
          "type": "address"
        },
        {
          "internalType": "uint32",
          "name": "borrowerLoanReturnGracePeriod",
          "type": "uint32"
        },
        {
          "internalType": "uint32",
          "name": "enterpriseLoanCollectGracePeriod",
          "type": "uint32"
        },
        {
          "internalType": "contract ILoanCostEstimator",
          "name": "estimator",
          "type": "address"
        },
        {
          "internalType": "contract IConverter",
          "name": "converter",
          "type": "address"
        }
      ],
      "name": "initialize2",
      "outputs": [],
      "stateMutability": "nonpayable",
      "type": "function"
    },
    {
      "inputs": [
        {
          "internalType": "contract IPowerToken",
          "name": "powerToken",
          "type": "address"
        },
        {
          "internalType": "uint32",
          "name": "duration",
          "type": "uint32"
        }
      ],
      "name": "isAllowedLoanDuration",
      "outputs": [
        {
          "internalType": "bool",
          "name": "",
          "type": "bool"
        }
      ],
      "stateMutability": "view",
      "type": "function"
    },
    {
      "inputs": [
        {
          "internalType": "contract IERC20",
          "name": "token",
          "type": "address"
        }
      ],
      "name": "isSupportedPaymentToken",
      "outputs": [
        {
          "internalType": "bool",
          "name": "",
          "type": "bool"
        }
      ],
      "stateMutability": "view",
      "type": "function"
    },
    {
      "inputs": [],
      "name": "owner",
      "outputs": [
        {
          "internalType": "address",
          "name": "",
          "type": "address"
        }
      ],
      "stateMutability": "view",
      "type": "function"
    },
    {
      "inputs": [
        {
          "internalType": "contract IPowerToken[]",
          "name": "powerToken",
          "type": "address[]"
        },
        {
          "internalType": "uint16[]",
          "name": "newServiceFeePercent",
          "type": "uint16[]"
        }
      ],
      "name": "scheduleServiceFeePercentBatch",
      "outputs": [],
      "stateMutability": "nonpayable",
      "type": "function"
    },
    {
      "inputs": [
        {
          "internalType": "contract IPowerToken",
          "name": "powerToken",
          "type": "address"
        },
        {
          "internalType": "uint112",
          "name": "baseRate",
          "type": "uint112"
        },
        {
          "internalType": "contract IERC20Metadata",
          "name": "baseToken",
          "type": "address"
        },
        {
          "internalType": "uint112",
          "name": "minGCFee",
          "type": "uint112"
        }
      ],
      "name": "setBaseRate",
      "outputs": [],
      "stateMutability": "nonpayable",
      "type": "function"
    },
    {
      "inputs": [
        {
          "internalType": "contract IConverter",
          "name": "newConverter",
          "type": "address"
        }
      ],
      "name": "setConverter",
      "outputs": [],
      "stateMutability": "nonpayable",
      "type": "function"
    },
    {
      "inputs": [
        {
          "internalType": "address",
          "name": "newCollector",
          "type": "address"
        }
      ],
      "name": "setEnterpriseCollector",
      "outputs": [],
      "stateMutability": "nonpayable",
      "type": "function"
    },
    {
      "inputs": [
        {
          "internalType": "address",
          "name": "newVault",
          "type": "address"
        }
      ],
      "name": "setEnterpriseVault",
      "outputs": [],
      "stateMutability": "nonpayable",
      "type": "function"
    },
    {
      "inputs": [
        {
          "internalType": "uint16",
          "name": "newGcFeePercent",
          "type": "uint16"
        }
      ],
      "name": "setGcFeePercent",
      "outputs": [],
      "stateMutability": "nonpayable",
      "type": "function"
    },
    {
      "inputs": [
        {
          "internalType": "contract ILoanCostEstimator",
          "name": "newEstimator",
          "type": "address"
        }
      ],
      "name": "setLoanCostEstimator",
      "outputs": [],
      "stateMutability": "nonpayable",
      "type": "function"
    },
    {
      "inputs": [
        {
          "internalType": "contract IPowerToken",
          "name": "powerToken",
          "type": "address"
        },
        {
          "internalType": "uint32",
          "name": "minLoanDuration",
          "type": "uint32"
        },
        {
          "internalType": "uint32",
          "name": "maxLoanDuration",
          "type": "uint32"
        }
      ],
      "name": "setLoanDurationLimits",
      "outputs": [],
      "stateMutability": "nonpayable",
      "type": "function"
    },
    {
      "inputs": [
        {
          "internalType": "contract IPowerToken",
          "name": "powerToken",
          "type": "address"
        },
        {
          "internalType": "uint16",
          "name": "newFeePercent",
          "type": "uint16"
        }
      ],
      "name": "setServiceFeePercent",
      "outputs": [],
      "stateMutability": "nonpayable",
      "type": "function"
    },
    {
      "inputs": [
        {
          "internalType": "uint256",
          "name": "index",
          "type": "uint256"
        }
      ],
      "name": "supportedPaymentTokens",
      "outputs": [
        {
          "internalType": "address",
          "name": "",
          "type": "address"
        }
      ],
      "stateMutability": "view",
      "type": "function"
    },
    {
      "inputs": [
        {
          "internalType": "contract IERC20",
          "name": "token",
          "type": "address"
        }
      ],
      "name": "supportedPaymentTokensIndex",
      "outputs": [
        {
          "internalType": "int16",
          "name": "",
          "type": "int16"
        }
      ],
      "stateMutability": "view",
      "type": "function"
    },
    {
      "inputs": [
        {
          "internalType": "address",
          "name": "newOwner",
          "type": "address"
        }
      ],
      "name": "transferOwnership",
      "outputs": [],
      "stateMutability": "nonpayable",
      "type": "function"
    }
  ],
  "bytecode": "0x608060405234801561001057600080fd5b50611f84806100206000396000f3fe608060405234801561001057600080fd5b50600436106102ad5760003560e01c80638fcfd8b31161017b578063b19337a4116100d8578063c71c24331161008c578063cc284f7b11610071578063cc284f7b146106f6578063f2fde38b14610709578063fec0dea01461071c57600080fd5b8063c71c2433146106d2578063c93d0b92146106e557600080fd5b8063bfd84fb4116100bd578063bfd84fb414610699578063c20aa9bc146106ac578063c4d66de8146106bf57600080fd5b8063b19337a414610665578063b406bf6d1461067857600080fd5b80639f6348ce1161012f578063a0efd11811610114578063a0efd1181461062c578063a554b26d14610641578063a773f2f01461065257600080fd5b80639f6348ce14610606578063a0cffa591461061957600080fd5b806396ea29751161016057806396ea2975146105a75780639ba7a8c0146105ba5780639c7aa7f8146105f357600080fd5b80638fcfd8b31461055e57806390f55edd1461059457600080fd5b80633ff6fe87116102295780637c8322d5116101dd57806383b9a009116101c257806383b9a009146104fc578063854bb4a21461050d5780638da5cb5b1461054d57600080fd5b80637c8322d5146104ae5780638188d50d146104e757600080fd5b806362c1f3881161020e57806362c1f38814610479578063644e44df1461048c5780637791c42d1461049d57600080fd5b80633ff6fe8714610453578063449497ec1461046657600080fd5b80632261b07f116102805780632b39a0ac116102655780632b39a0ac146103a95780632fb2067f146103ff57806338ad79011461044057600080fd5b80632261b07f1461037257806327623ddd1461038357600080fd5b80630c10fd0f146102b25780630ea1dc9e146102fe5780631459457a1461030f5780631acaac2a14610324575b600080fd5b6102e16102c0366004611b1d565b6001600160a01b039081166000908152600c60205260409020600101541690565b6040516001600160a01b0390911681526020015b60405180910390f35b6003546001600160a01b03166102e1565b61032261031d366004611c31565b61072d565b005b61035d610332366004611b1d565b6001600160a01b03166000908152600c6020526040902060010154600160c01b900463ffffffff1690565b60405163ffffffff90911681526020016102f5565b6007546001600160a01b03166102e1565b610396610391366004611b1d565b61092b565b60405160019190910b81526020016102f5565b6103e06103b7366004611b1d565b6001600160a01b03166000908152600c6020526040902060010154600160e01b900461ffff1690565b6040516dffffffffffffffffffffffffffff90911681526020016102f5565b61043061040d366004611b1d565b6001600160a01b03166000908152600a6020526040812054600190810b900b1390565b60405190151581526020016102f5565b61032261044e366004611c73565b610958565b610322610461366004611bc8565b610af1565b610322610474366004611e51565b610cba565b610322610487366004611b1d565b610d24565b6002546001600160a01b03166102e1565b6009546001600160a01b03166102e1565b61035d6104bc366004611b1d565b6001600160a01b03166000908152600c6020526040902060010154600160a01b900463ffffffff1690565b600954600160a01b900463ffffffff1661035d565b6005546001600160a01b03166102e1565b6103e061051b366004611b1d565b6001600160a01b03166000908152600c6020526040902054600160701b90046dffffffffffffffffffffffffffff1690565b6000546001600160a01b03166102e1565b61035d61056c366004611b1d565b6001600160a01b03166000908152600c6020526040902054600160e01b900463ffffffff1690565b6103226105a2366004611b1d565b610dd3565b6102e16105b5366004611e6b565b610e82565b6103e06105c8366004611b1d565b6001600160a01b03166000908152600c60205260409020546dffffffffffffffffffffffffffff1690565b610322610601366004611b1d565b610ec0565b610322610614366004611b5c565b610f14565b610430610627366004611de2565b61105b565b600954600160c01b900463ffffffff1661035d565b6008546001600160a01b03166102e1565b610322610660366004611d57565b6110b4565b610322610673366004611b1d565b61123b565b600954600160e01b900461ffff1660405161ffff90911681526020016102f5565b6103226106a7366004611b1d565b6112ea565b6103226106ba366004611dae565b611380565b6103226106cd366004611b1d565b611440565b6103226106e0366004611e0d565b61150a565b6004546001600160a01b03166102e1565b610322610704366004611b1d565b61162b565b610322610717366004611b1d565b6116da565b6006546001600160a01b03166102e1565b6003546001600160a01b03161561078b5760405162461bcd60e51b815260206004820152601360248201527f416c726561647920696e697469616c697a65640000000000000000000000000060448201526064015b60405180910390fd5b61079481611440565b600180546001600160a01b038088166001600160a01b03199283161790925560038054868416908316179055600480548584169083161781556002805493881693909216929092179055604080517f8da5cb5b00000000000000000000000000000000000000000000000000000000815290513092638da5cb5b92808201926020929091829003018186803b15801561082c57600080fd5b505afa158015610840573d6000803e3d6000fd5b505050506040513d601f19601f820116820180604052508101906108649190611b40565b600860006101000a8154816001600160a01b0302191690836001600160a01b03160217905550306001600160a01b0316638da5cb5b6040518163ffffffff1660e01b815260040160206040518083038186803b1580156108c357600080fd5b505afa1580156108d7573d6000803e3d6000fd5b505050506040513d601f19601f820116820180604052508101906108fb9190611b40565b600980546001600160a01b0319166001600160a01b0392909216919091179055610924846117f9565b5050505050565b6001600160a01b0381166000908152600a602052604081205461095290600190810b611e83565b92915050565b6001546001600160a01b031633146109b25760405162461bcd60e51b815260206004820152601160248201527f4e6f7420616e20656e74657270726973650000000000000000000000000000006044820152606401610782565b6001600160a01b039182166000908152600c60209081526040918290208351815492850151938501516dffffffffffffffffffffffffffff9182167fffffffff0000000000000000000000000000000000000000000000000000000090941693909317600160701b9190941602929092177bffffffffffffffffffffffffffffffffffffffffffffffffffffffff16600160e01b63ffffffff9283168102919091178355606084015160019093018054608086015160a087015160c090970151959097167fffffffffffffffff00000000000000000000000000000000000000000000000090911617600160a01b96841696909602959095177fffff000000000000ffffffffffffffffffffffffffffffffffffffffffffffff16600160c01b949092169390930261ffff60e01b19161761ffff909116909102179055565b6000546001600160a01b03163314610b395760405162461bcd60e51b81526020600482018190526024820152600080516020611f2f8339815191526044820152606401610782565b828114610b885760405162461bcd60e51b815260206004820152601460248201527f496e76616c6964206172726179206c656e6774680000000000000000000000006044820152606401610782565b60005b8381101561092457610bf5858583818110610bb657634e487b7160e01b600052603260045260246000fd5b9050602002016020810190610bcb9190611b1d565b6001600160a01b03166000908152600c6020526040902054600160e01b900463ffffffff16151590565b610c365760405162461bcd60e51b81526020600482015260126024820152712ab735b737bbb7102837bbb2b92a37b5b2b760711b6044820152606401610782565b610ca8858583818110610c5957634e487b7160e01b600052603260045260246000fd5b9050602002016020810190610c6e9190611b1d565b848484818110610c8e57634e487b7160e01b600052603260045260246000fd5b9050602002016020810190610ca39190611e51565b611910565b80610cb281611ec8565b915050610b8b565b6000546001600160a01b03163314610d025760405162461bcd60e51b81526020600482018190526024820152600080516020611f2f8339815191526044820152606401610782565b6009805461ffff909216600160e01b0261ffff60e01b19909216919091179055565b6000546001600160a01b03163314610d6c5760405162461bcd60e51b81526020600482018190526024820152600080516020611f2f8339815191526044820152606401610782565b6001600160a01b038116610db15760405162461bcd60e51b815260206004820152600c60248201526b5a65726f206164647265737360a01b6044820152606401610782565b600880546001600160a01b0319166001600160a01b0392909216919091179055565b6000546001600160a01b03163314610e1b5760405162461bcd60e51b81526020600482018190526024820152600080516020611f2f8339815191526044820152606401610782565b6001600160a01b038116610e605760405162461bcd60e51b815260206004820152600c60248201526b5a65726f206164647265737360a01b6044820152606401610782565b600980546001600160a01b0319166001600160a01b0392909216919091179055565b6000600b8281548110610ea557634e487b7160e01b600052603260045260246000fd5b6000918252602090912001546001600160a01b031692915050565b6000546001600160a01b03163314610f085760405162461bcd60e51b81526020600482018190526024820152600080516020611f2f8339815191526044820152606401610782565b610f11816119c8565b50565b6005546001600160a01b031615610f6d5760405162461bcd60e51b815260206004820152601360248201527f416c726561647920696e697469616c697a6564000000000000000000000000006044820152606401610782565b8263ffffffff168463ffffffff161115610fc95760405162461bcd60e51b815260206004820152601560248201527f496e76616c696420677261636520706572696f647300000000000000000000006044820152606401610782565b600580546001600160a01b03199081166001600160a01b0397881617909155600980547fffffffff0000000000000000ffffffffffffffffffffffffffffffffffffffff16600160a01b63ffffffff9788160263ffffffff60c01b191617600160c01b959096169490940294909417909255600680548416918516919091179055600780549092169216919091179055565b6001600160a01b0382166000908152600c60205260408120600181015463ffffffff808516600160a01b90920416118015906110ac5750600181015463ffffffff600160c01b909104811690841611155b949350505050565b6000546001600160a01b031633146110fc5760405162461bcd60e51b81526020600482018190526024820152600080516020611f2f8339815191526044820152606401610782565b6001600160a01b0384166000908152600c60205260409020548490600160e01b900463ffffffff166111655760405162461bcd60e51b81526020600482015260126024820152712ab735b737bbb7102837bbb2b92a37b5b2b760711b6044820152606401610782565b6001600160a01b0383166111bb5760405162461bcd60e51b815260206004820152601260248201527f496e76616c6964204261736520546f6b656e00000000000000000000000000006044820152606401610782565b506001600160a01b039384166000908152600c602052604090208054600182018054949096166001600160a01b0319909416939093179094556dffffffffffffffffffffffffffff908116600160701b027fffffffff00000000000000000000000000000000000000000000000000000000909216921691909117179055565b6000546001600160a01b031633146112835760405162461bcd60e51b81526020600482018190526024820152600080516020611f2f8339815191526044820152606401610782565b6001600160a01b0381166112c85760405162461bcd60e51b815260206004820152600c60248201526b5a65726f206164647265737360a01b6044820152606401610782565b600780546001600160a01b0319166001600160a01b0392909216919091179055565b6000546001600160a01b031633146113325760405162461bcd60e51b81526020600482018190526024820152600080516020611f2f8339815191526044820152606401610782565b6001600160a01b0381166113775760405162461bcd60e51b815260206004820152600c60248201526b5a65726f206164647265737360a01b6044820152606401610782565b610f11816117f9565b6000546001600160a01b031633146113c85760405162461bcd60e51b81526020600482018190526024820152600080516020611f2f8339815191526044820152606401610782565b6001600160a01b0382166000908152600c60205260409020548290600160e01b900463ffffffff166114315760405162461bcd60e51b81526020600482015260126024820152712ab735b737bbb7102837bbb2b92a37b5b2b760711b6044820152606401610782565b61143b8383611910565b505050565b6000546001600160a01b0316156114bf5760405162461bcd60e51b815260206004820152602960248201527f496e697469616c697a61626c654f776e61626c653a20616c726561647920696e60448201527f697469616c697a656400000000000000000000000000000000000000000000006064820152608401610782565b600080546001600160a01b0319166001600160a01b03831690811782556040519091907f8be0079c531659141344cd1fd0a4f28419497f9722a3daafe3b4186f6b6457e0908290a350565b6000546001600160a01b031633146115525760405162461bcd60e51b81526020600482018190526024820152600080516020611f2f8339815191526044820152606401610782565b6001600160a01b0383166000908152600c60205260409020548390600160e01b900463ffffffff166115bb5760405162461bcd60e51b81526020600482015260126024820152712ab735b737bbb7102837bbb2b92a37b5b2b760711b6044820152606401610782565b506001600160a01b03929092166000908152600c6020526040902060010180547fffffffff0000000000000000ffffffffffffffffffffffffffffffffffffffff16600160a01b63ffffffff9384160263ffffffff60c01b191617600160c01b9290931691909102919091179055565b6000546001600160a01b031633146116735760405162461bcd60e51b81526020600482018190526024820152600080516020611f2f8339815191526044820152606401610782565b6001600160a01b0381166116b85760405162461bcd60e51b815260206004820152600c60248201526b5a65726f206164647265737360a01b6044820152606401610782565b600680546001600160a01b0319166001600160a01b0392909216919091179055565b6000546001600160a01b031633146117225760405162461bcd60e51b81526020600482018190526024820152600080516020611f2f8339815191526044820152606401610782565b6001600160a01b03811661179e5760405162461bcd60e51b815260206004820152602660248201527f4f776e61626c653a206e6577206f776e657220697320746865207a65726f206160448201527f64647265737300000000000000000000000000000000000000000000000000006064820152608401610782565b600080546040516001600160a01b03808516939216917f8be0079c531659141344cd1fd0a4f28419497f9722a3daafe3b4186f6b6457e091a3600080546001600160a01b0319166001600160a01b0392909216919091179055565b6001600160a01b0381166000908152600a6020526040902054600190810b900b61189157600b8054600180820183557f0175b7a638427703f0dbe7bb9bbf987a2551717b34e79f33b5b1008d1fa01db990910180546001600160a01b0319166001600160a01b0394909416938417905590546000928352600a6020526040909220805461ffff191661ffff9390920b92909216179055565b6001600160a01b0381166000908152600a6020526040812054600190810b900b1215610f11576001600160a01b0381166000908152600a60205260409020546118dc9060010b611ee3565b6001600160a01b0382166000908152600a60205260409020805460019290920b61ffff1661ffff1990921691909117905550565b61138861ffff8216111561198c5760405162461bcd60e51b815260206004820152602560248201527f4d6178696d756d2073657276696365206665652070657263656e74207468726560448201527f73686f6c640000000000000000000000000000000000000000000000000000006064820152608401610782565b6001600160a01b039091166000908152600c60205260409020600101805461ffff909216600160e01b0261ffff60e01b19909216919091179055565b6001600160a01b0381166000908152600a6020526040902054600190810b900b611a345760405162461bcd60e51b815260206004820152600d60248201527f496e76616c696420746f6b656e000000000000000000000000000000000000006044820152606401610782565b6001600160a01b0381166000908152600a6020526040812054600190810b900b1315610f11576001600160a01b0381166000908152600a60205260409020546118dc9060010b611ee3565b60008083601f840112611a90578182fd5b50813567ffffffffffffffff811115611aa7578182fd5b6020830191508360208260051b8501011115611ac257600080fd5b9250929050565b8035611ad481611f19565b919050565b80356dffffffffffffffffffffffffffff81168114611ad457600080fd5b803561ffff81168114611ad457600080fd5b803563ffffffff81168114611ad457600080fd5b600060208284031215611b2e578081fd5b8135611b3981611f19565b9392505050565b600060208284031215611b51578081fd5b8151611b3981611f19565b600080600080600060a08688031215611b73578081fd5b8535611b7e81611f19565b9450611b8c60208701611b09565b9350611b9a60408701611b09565b92506060860135611baa81611f19565b91506080860135611bba81611f19565b809150509295509295909350565b60008060008060408587031215611bdd578384fd5b843567ffffffffffffffff80821115611bf4578586fd5b611c0088838901611a7f565b90965094506020870135915080821115611c18578384fd5b50611c2587828801611a7f565b95989497509550505050565b600080600080600060a08688031215611c48578081fd5b8535611c5381611f19565b94506020860135611c6381611f19565b93506040860135611b9a81611f19565b600080828403610100811215611c87578283fd5b8335611c9281611f19565b925060e0601f1982011215611ca5578182fd5b5060405160e0810181811067ffffffffffffffff82111715611cd557634e487b7160e01b83526041600452602483fd5b604052611ce460208501611ad9565b8152611cf260408501611ad9565b6020820152611d0360608501611b09565b6040820152611d1460808501611ac9565b6060820152611d2560a08501611b09565b6080820152611d3660c08501611b09565b60a0820152611d4760e08501611af7565b60c0820152809150509250929050565b60008060008060808587031215611d6c578182fd5b8435611d7781611f19565b9350611d8560208601611ad9565b92506040850135611d9581611f19565b9150611da360608601611ad9565b905092959194509250565b60008060408385031215611dc0578182fd5b8235611dcb81611f19565b9150611dd960208401611af7565b90509250929050565b60008060408385031215611df4578182fd5b8235611dff81611f19565b9150611dd960208401611b09565b600080600060608486031215611e21578081fd5b8335611e2c81611f19565b9250611e3a60208501611b09565b9150611e4860408501611b09565b90509250925092565b600060208284031215611e62578081fd5b611b3982611af7565b600060208284031215611e7c578081fd5b5035919050565b60008160010b8360010b82811281617fff1901831281151615611ea857611ea8611f03565b81617fff018313811615611ebe57611ebe611f03565b5090039392505050565b6000600019821415611edc57611edc611f03565b5060010190565b60008160010b617fff19811415611efc57611efc611f03565b9003919050565b634e487b7160e01b600052601160045260246000fd5b6001600160a01b0381168114610f1157600080fdfe4f776e61626c653a2063616c6c6572206973206e6f7420746865206f776e6572a264697066735822122009a711f983c10787f9b7232941123594db26c55ec66eda83d6f440d2d6b8adc464736f6c63430008040033",
  "linkReferences": {},
  "deployedLinkReferences": {}
}