{
  "_format": "hh-sol-artifact-1",
  "contractName": "EnterpriseConfigurator",
  "sourceName": "contracts/EnterpriseConfigurator.sol",
  "abi": [
    {
      "anonymous": false,
      "inputs": [
        {
          "indexed": true,
          "internalType": "address",
          "name": "previousOwner",
          "type": "address"
        },
        {
          "indexed": true,
          "internalType": "address",
          "name": "newOwner",
          "type": "address"
        }
      ],
      "name": "OwnershipTransferred",
      "type": "event"
    },
    {
      "inputs": [
        {
          "internalType": "contract IPowerToken",
          "name": "powerToken",
          "type": "address"
        },
        {
          "components": [
            {
              "internalType": "uint112",
              "name": "factor",
              "type": "uint112"
            },
            {
              "internalType": "uint32",
              "name": "halfLife",
              "type": "uint32"
            },
            {
              "internalType": "uint16",
              "name": "serviceFee",
              "type": "uint16"
            },
            {
              "internalType": "uint16",
              "name": "previousServiceFee",
              "type": "uint16"
            },
            {
              "internalType": "contract IERC20",
              "name": "factorToken",
              "type": "address"
            },
            {
              "internalType": "uint32",
              "name": "serviceFeeChangeTime",
              "type": "uint32"
            },
            {
              "internalType": "uint32",
              "name": "minLoanPeriod",
              "type": "uint32"
            },
            {
              "internalType": "uint32",
              "name": "maxLoanPeriod",
              "type": "uint32"
            }
          ],
          "internalType": "struct EnterpriseConfigurator.ServiceConfig",
          "name": "config",
          "type": "tuple"
        }
      ],
      "name": "addService",
      "outputs": [],
      "stateMutability": "nonpayable",
      "type": "function"
    },
    {
      "inputs": [],
      "name": "getBorrowToken",
      "outputs": [
        {
          "internalType": "contract IBorrowToken",
          "name": "",
          "type": "address"
        }
      ],
      "stateMutability": "view",
      "type": "function"
    },
    {
      "inputs": [],
      "name": "getBorrowerLoanReturnGracePeriod",
      "outputs": [
        {
          "internalType": "uint32",
          "name": "",
          "type": "uint32"
        }
      ],
      "stateMutability": "view",
      "type": "function"
    },
    {
      "inputs": [],
      "name": "getConfig",
      "outputs": [
        {
          "internalType": "address",
          "name": "loanEstimator",
          "type": "address"
        },
        {
          "internalType": "address",
          "name": "previousEstimator",
          "type": "address"
        },
        {
          "internalType": "uint32",
          "name": "loanEstimatorChangeTime",
          "type": "uint32"
        }
      ],
      "stateMutability": "view",
      "type": "function"
    },
    {
      "inputs": [],
      "name": "getEnterpriseCollector",
      "outputs": [
        {
          "internalType": "address",
          "name": "",
          "type": "address"
        }
      ],
      "stateMutability": "view",
      "type": "function"
    },
    {
      "inputs": [],
      "name": "getEnterpriseLoanCollectGracePeriod",
      "outputs": [
        {
          "internalType": "uint32",
          "name": "",
          "type": "uint32"
        }
      ],
      "stateMutability": "view",
      "type": "function"
    },
    {
      "inputs": [],
      "name": "getEnterpriseVault",
      "outputs": [
        {
          "internalType": "address",
          "name": "",
          "type": "address"
        }
      ],
      "stateMutability": "view",
      "type": "function"
    },
    {
      "inputs": [
        {
          "internalType": "contract IPowerToken",
          "name": "powerToken",
          "type": "address"
        }
      ],
      "name": "getFactor",
      "outputs": [
        {
          "internalType": "uint112",
          "name": "",
          "type": "uint112"
        }
      ],
      "stateMutability": "view",
      "type": "function"
    },
    {
      "inputs": [
        {
          "internalType": "contract IPowerToken",
          "name": "powerToken",
          "type": "address"
        }
      ],
      "name": "getFactorToken",
      "outputs": [
        {
          "internalType": "contract IERC20",
          "name": "",
          "type": "address"
        }
      ],
      "stateMutability": "view",
      "type": "function"
    },
    {
      "inputs": [
        {
          "internalType": "contract IPowerToken",
          "name": "powerToken",
          "type": "address"
        }
      ],
      "name": "getHalfLife",
      "outputs": [
        {
          "internalType": "uint32",
          "name": "",
          "type": "uint32"
        }
      ],
      "stateMutability": "view",
      "type": "function"
    },
    {
      "inputs": [],
      "name": "getInterestToken",
      "outputs": [
        {
          "internalType": "contract IInterestToken",
          "name": "",
          "type": "address"
        }
      ],
      "stateMutability": "view",
      "type": "function"
    },
    {
      "inputs": [],
      "name": "getLiquidityToken",
      "outputs": [
        {
          "internalType": "contract IERC20Detailed",
          "name": "",
          "type": "address"
        }
      ],
      "stateMutability": "view",
      "type": "function"
    },
    {
      "inputs": [],
      "name": "getLoanCostEstimator",
      "outputs": [
        {
          "internalType": "contract ILoanCostEstimator",
          "name": "",
          "type": "address"
        }
      ],
      "stateMutability": "view",
      "type": "function"
    },
    {
      "inputs": [
        {
          "internalType": "contract IPowerToken",
          "name": "powerToken",
          "type": "address"
        }
      ],
      "name": "getMaxLoanPeriod",
      "outputs": [
        {
          "internalType": "uint32",
          "name": "",
          "type": "uint32"
        }
      ],
      "stateMutability": "view",
      "type": "function"
    },
    {
      "inputs": [
        {
          "internalType": "contract IPowerToken",
          "name": "powerToken",
          "type": "address"
        }
      ],
      "name": "getMinLoanPeriod",
      "outputs": [
        {
          "internalType": "uint32",
          "name": "",
          "type": "uint32"
        }
      ],
      "stateMutability": "view",
      "type": "function"
    },
    {
      "inputs": [],
      "name": "getPowerTokenImpl",
      "outputs": [
        {
          "internalType": "address",
          "name": "",
          "type": "address"
        }
      ],
      "stateMutability": "view",
      "type": "function"
    },
    {
      "inputs": [
        {
          "internalType": "contract IPowerToken",
          "name": "powerToken",
          "type": "address"
        }
      ],
      "name": "getServiceFee",
      "outputs": [
        {
          "internalType": "uint112",
          "name": "",
          "type": "uint112"
        }
      ],
      "stateMutability": "view",
      "type": "function"
    },
    {
      "inputs": [
        {
          "internalType": "contract IEnterprise",
          "name": "enterprise",
          "type": "address"
        },
        {
          "internalType": "contract IERC20Detailed",
          "name": "liquidityToken",
          "type": "address"
        },
        {
          "internalType": "contract IInterestToken",
          "name": "interestToken",
          "type": "address"
        },
        {
          "internalType": "contract IBorrowToken",
          "name": "borrowToken",
          "type": "address"
        },
        {
          "internalType": "address",
          "name": "owner",
          "type": "address"
        }
      ],
      "name": "initialize",
      "outputs": [],
      "stateMutability": "nonpayable",
      "type": "function"
    },
    {
      "inputs": [
        {
          "internalType": "address",
          "name": "initialOwner",
          "type": "address"
        }
      ],
      "name": "initialize",
      "outputs": [],
      "stateMutability": "nonpayable",
      "type": "function"
    },
    {
      "inputs": [
        {
          "internalType": "address",
          "name": "powerTokenImpl",
          "type": "address"
        },
        {
          "internalType": "uint32",
          "name": "borrowerLoanReturnGracePeriod",
          "type": "uint32"
        },
        {
          "internalType": "uint32",
          "name": "enterpriseLoanCollectGracePeriod",
          "type": "uint32"
        },
        {
          "internalType": "contract ILoanCostEstimator",
          "name": "estimator",
          "type": "address"
        },
        {
          "internalType": "contract IConverter",
          "name": "converter",
          "type": "address"
        }
      ],
      "name": "initialize2",
      "outputs": [],
      "stateMutability": "nonpayable",
      "type": "function"
    },
    {
      "inputs": [
        {
          "internalType": "contract IPowerToken",
          "name": "powerToken",
          "type": "address"
        },
        {
          "internalType": "uint32",
          "name": "duration",
          "type": "uint32"
        }
      ],
      "name": "isAllowedLoanDuration",
      "outputs": [
        {
          "internalType": "bool",
          "name": "",
          "type": "bool"
        }
      ],
      "stateMutability": "view",
      "type": "function"
    },
    {
      "inputs": [
        {
          "internalType": "contract IERC20",
          "name": "token",
          "type": "address"
        }
      ],
      "name": "isSupportedPaymentToken",
      "outputs": [
        {
          "internalType": "bool",
          "name": "",
          "type": "bool"
        }
      ],
      "stateMutability": "view",
      "type": "function"
    },
    {
      "inputs": [],
      "name": "owner",
      "outputs": [
        {
          "internalType": "address",
          "name": "",
          "type": "address"
        }
      ],
      "stateMutability": "view",
      "type": "function"
    },
    {
      "inputs": [
        {
          "internalType": "contract IPowerToken",
          "name": "powerToken",
          "type": "address"
        },
        {
          "internalType": "uint16",
          "name": "newFee",
          "type": "uint16"
        }
      ],
      "name": "scheduleEnterpriseFee",
      "outputs": [],
      "stateMutability": "nonpayable",
      "type": "function"
    },
    {
      "inputs": [
        {
          "internalType": "contract IPowerToken[]",
          "name": "powerToken",
          "type": "address[]"
        },
        {
          "internalType": "uint16[]",
          "name": "newFee",
          "type": "uint16[]"
        }
      ],
      "name": "scheduleEnterpriseFeeBatch",
      "outputs": [],
      "stateMutability": "nonpayable",
      "type": "function"
    },
    {
      "inputs": [
        {
          "internalType": "contract ILoanCostEstimator",
          "name": "newEstimator",
          "type": "address"
        }
      ],
      "name": "scheduleLoanCostEstimator",
      "outputs": [],
      "stateMutability": "nonpayable",
      "type": "function"
    },
    {
      "inputs": [
        {
          "internalType": "address",
          "name": "newCollector",
          "type": "address"
        }
      ],
      "name": "setEnterpriseCollector",
      "outputs": [],
      "stateMutability": "nonpayable",
      "type": "function"
    },
    {
      "inputs": [
        {
          "internalType": "uint32",
          "name": "newPeriod",
          "type": "uint32"
        }
      ],
      "name": "setEnterpriseFeeGracePeriod",
      "outputs": [],
      "stateMutability": "nonpayable",
      "type": "function"
    },
    {
      "inputs": [
        {
          "internalType": "address",
          "name": "newVault",
          "type": "address"
        }
      ],
      "name": "setEnterpriseVault",
      "outputs": [],
      "stateMutability": "nonpayable",
      "type": "function"
    },
    {
      "inputs": [
        {
          "internalType": "contract IPowerToken",
          "name": "powerToken",
          "type": "address"
        },
        {
          "internalType": "uint112",
          "name": "factor",
          "type": "uint112"
        },
        {
          "internalType": "contract IERC20",
          "name": "factorToken",
          "type": "address"
        }
      ],
      "name": "setFactor",
      "outputs": [],
      "stateMutability": "nonpayable",
      "type": "function"
    },
    {
      "inputs": [
        {
          "internalType": "uint256",
          "name": "index",
          "type": "uint256"
        }
      ],
      "name": "supportedPaymentTokens",
      "outputs": [
        {
          "internalType": "address",
          "name": "",
          "type": "address"
        }
      ],
      "stateMutability": "view",
      "type": "function"
    },
    {
      "inputs": [
        {
          "internalType": "contract IERC20",
          "name": "token",
          "type": "address"
        }
      ],
      "name": "supportedPaymentTokensIndex",
      "outputs": [
        {
          "internalType": "int16",
          "name": "",
          "type": "int16"
        }
      ],
      "stateMutability": "view",
      "type": "function"
    },
    {
      "inputs": [
        {
          "internalType": "address",
          "name": "newOwner",
          "type": "address"
        }
      ],
      "name": "transferOwnership",
      "outputs": [],
      "stateMutability": "nonpayable",
      "type": "function"
    }
  ],
  "bytecode": "0x60806040526009805463ffffffff60a01b19166102a360a71b17905534801561002757600080fd5b50611afd806100376000396000f3fe608060405234801561001057600080fd5b506004361061020b5760003560e01c806390f55edd1161012a578063c4d66de8116100bd578063f2fde38b1161008c578063f9894d7911610071578063f9894d7914610437578063fec0dea01461044a578063fee65755146104525761020b565b8063f2fde38b14610411578063f8dd5c83146104245761020b565b8063c4d66de8146103d0578063c93d0b92146103e3578063d437657d146103eb578063eb19591e146103fe5761020b565b8063a0cffa59116100f9578063a0cffa5914610396578063a0efd118146103a9578063a554b26d146103b1578063c3f909d4146103b95761020b565b806390f55edd1461034a5780639612f6041461035d57806396ea2975146103705780639f6348ce146103835761020b565b806368941869116101a25780638188d50d116101715780638188d50d1461031257806383b9a009146103275780638da5cb5b1461032f5780638fcfd8b3146103375761020b565b806368941869146102d157806372b42778146102e45780637791c42d146102f75780637ba1e389146102ff5761020b565b80632fb2067f116101de5780632fb2067f146102765780634b4703ec1461029657806362c1f388146102b6578063644e44df146102c95761020b565b80630ea1dc9e146102105780631388d1a81461022e5780631459457a1461024157806327623ddd14610256575b600080fd5b610218610465565b6040516102259190611860565b60405180910390f35b61021861023c366004611532565b610475565b61025461024f366004611646565b610499565b005b610269610264366004611532565b61066d565b60405161022591906118a8565b610289610284366004611532565b61068f565b604051610225919061189d565b6102a96102a4366004611532565b6106b2565b6040516102259190611a37565b6102546102c4366004611532565b610708565b6102186107af565b6102a96102df366004611532565b6107be565b6102546102f2366004611532565b6107e9565b6102186108f8565b61025461030d3660046117b5565b610907565b61031a6109b0565b6040516102259190611a52565b6102186109c3565b6102186109d2565b61031a610345366004611532565b6109e1565b610254610358366004611532565b610a09565b61031a61036b366004611532565b610ab0565b61021861037e36600461182e565b610adb565b610254610391366004611571565b610b05565b6102896103a43660046117e9565b610bd4565b61031a610c2d565b610218610c40565b6103c1610c4f565b60405161022593929190611874565b6102546103de366004611532565b610c7a565b610218610d0d565b61031a6103f9366004611532565b610d1c565b61025461040c3660046115dd565b610d47565b61025461041f366004611532565b610e82565b610254610432366004611688565b610f81565b610254610445366004611846565b611101565b610218611186565b61025461046036600461176d565b6111c2565b6002546001600160a01b03165b90565b6001600160a01b038082166000908152600d6020526040902060010154165b919050565b6002546001600160a01b0316156104cb5760405162461bcd60e51b81526004016104c2906119c9565b60405180910390fd5b6104d481610c7a565b600580546001600160a01b038088166001600160a01b03199283161790925560028054868416908316179055600380548584169083161790556001805492871692909116919091179055604080517f8da5cb5b00000000000000000000000000000000000000000000000000000000815290513091638da5cb5b916004828101926020929190829003018186803b15801561056e57600080fd5b505afa158015610582573d6000803e3d6000fd5b505050506040513d601f19601f820116820180604052508101906105a69190611555565b600960006101000a8154816001600160a01b0302191690836001600160a01b03160217905550306001600160a01b0316638da5cb5b6040518163ffffffff1660e01b815260040160206040518083038186803b15801561060557600080fd5b505afa158015610619573d6000803e3d6000fd5b505050506040513d601f19601f8201168201806040525081019061063d9190611555565b600a80546001600160a01b0319166001600160a01b0392909216919091179055610666846112cd565b5050505050565b6001600160a01b03166000908152600b602052604090205460010b6000190190565b6001600160a01b03166000908152600b6020526040812054600190810b900b1390565b6001600160a01b0381166000908152600d602052604081206001810154600160a01b900463ffffffff164210156106f65754600160a01b900461ffff169050610494565b54600160901b900461ffff1692915050565b6000546001600160a01b03163314610767576040805162461bcd60e51b815260206004820181905260248201527f4f776e61626c653a2063616c6c6572206973206e6f7420746865206f776e6572604482015290519081900360640190fd5b6001600160a01b03811661078d5760405162461bcd60e51b81526004016104c2906118ed565b600980546001600160a01b0319166001600160a01b0392909216919091179055565b6001546001600160a01b031690565b6001600160a01b03166000908152600d60205260409020546dffffffffffffffffffffffffffff1690565b6000546001600160a01b03163314610848576040805162461bcd60e51b815260206004820181905260248201527f4f776e61626c653a2063616c6c6572206973206e6f7420746865206f776e6572604482015290519081900360640190fd5b6001600160a01b03811661086e5760405162461bcd60e51b81526004016104c2906118ed565b60095442600160c01b90910463ffffffff16116108a857600654600780546001600160a01b0319166001600160a01b039092169190911790555b600680546001600160a01b039092166001600160a01b0319909216919091179055600980544263ffffffff600160a01b830481169190910116600160c01b0263ffffffff60c01b19909116179055565b600a546001600160a01b031690565b6000546001600160a01b03163314610966576040805162461bcd60e51b815260206004820181905260248201527f4f776e61626c653a2063616c6c6572206973206e6f7420746865206f776e6572604482015290519081900360640190fd5b81610970816113c7565b61098c5760405162461bcd60e51b81526004016104c290611992565b6109ab8383600960149054906101000a900463ffffffff1642016113f1565b505050565b600a54600160a01b900463ffffffff1690565b6004546001600160a01b031690565b6000546001600160a01b031690565b6001600160a01b03166000908152600d6020526040902054600160701b900463ffffffff1690565b6000546001600160a01b03163314610a68576040805162461bcd60e51b815260206004820181905260248201527f4f776e61626c653a2063616c6c6572206973206e6f7420746865206f776e6572604482015290519081900360640190fd5b6001600160a01b038116610a8e5760405162461bcd60e51b81526004016104c2906118ed565b600a80546001600160a01b0319166001600160a01b0392909216919091179055565b6001600160a01b03166000908152600d6020526040902060010154600160e01b900463ffffffff1690565b6000600c8281548110610aea57fe5b6000918252602090912001546001600160a01b031692915050565b6004546001600160a01b031615610b2e5760405162461bcd60e51b81526004016104c2906119c9565b8263ffffffff168463ffffffff161115610b5a5760405162461bcd60e51b81526004016104c290611a00565b600480546001600160a01b03199081166001600160a01b0397881617909155600a805463ffffffff60a01b1916600160a01b63ffffffff978816021763ffffffff60c01b1916600160c01b959096169490940294909417909255600680548416918516919091179055600880549092169216919091179055565b6001600160a01b0382166000908152600d60205260408120600181015463ffffffff808516600160c01b9092041611801590610c255750600181015463ffffffff600160e01b909104811690841611155b949350505050565b600a54600160c01b900463ffffffff1690565b6009546001600160a01b031690565b6006546007546009546001600160a01b03928316939290911691600160c01b90910463ffffffff1690565b6000546001600160a01b031615610cc25760405162461bcd60e51b8152600401808060200182810382526029815260200180611a9f6029913960400191505060405180910390fd5b600080546001600160a01b0319166001600160a01b03831690811782556040519091907f8be0079c531659141344cd1fd0a4f28419497f9722a3daafe3b4186f6b6457e0908290a350565b6003546001600160a01b031690565b6001600160a01b03166000908152600d6020526040902060010154600160c01b900463ffffffff1690565b6000546001600160a01b03163314610da6576040805162461bcd60e51b815260206004820181905260248201527f4f776e61626c653a2063616c6c6572206973206e6f7420746865206f776e6572604482015290519081900360640190fd5b828114610dc55760405162461bcd60e51b81526004016104c2906118b6565b600954600160a01b900463ffffffff16420160005b84811015610e7a57610e0b868683818110610df157fe5b9050602002016020810190610e069190611532565b6113c7565b610e275760405162461bcd60e51b81526004016104c290611992565b610e72868683818110610e3657fe5b9050602002016020810190610e4b9190611532565b858584818110610e5757fe5b9050602002016020810190610e6c9190611814565b846113f1565b600101610dda565b505050505050565b6000546001600160a01b03163314610ee1576040805162461bcd60e51b815260206004820181905260248201527f4f776e61626c653a2063616c6c6572206973206e6f7420746865206f776e6572604482015290519081900360640190fd5b6001600160a01b038116610f265760405162461bcd60e51b8152600401808060200182810382526026815260200180611a796026913960400191505060405180910390fd5b600080546040516001600160a01b03808516939216917f8be0079c531659141344cd1fd0a4f28419497f9722a3daafe3b4186f6b6457e091a3600080546001600160a01b0319166001600160a01b0392909216919091179055565b6005546001600160a01b03163314610fab5760405162461bcd60e51b81526004016104c290611924565b6001600160a01b039182166000908152600d602090815260409182902083518154928501519385015160608601516dffffffffffffffffffffffffffff199094166dffffffffffffffffffffffffffff909216919091177fffffffffffffffffffffffffffff00000000ffffffffffffffffffffffffffff16600160701b63ffffffff958616021773ffff0000000000000000000000000000000000001916600160901b61ffff928316021761ffff60a01b1916600160a01b91909316810292909217815560808401516001909101805460a086015160c087015160e0909701516001600160a01b0319909216939097169290921763ffffffff60a01b19169584169092029490941763ffffffff60c01b1916600160c01b93831693909302929092177bffffffffffffffffffffffffffffffffffffffffffffffffffffffff16600160e01b9390911692909202919091179055565b6000546001600160a01b03163314611160576040805162461bcd60e51b815260206004820181905260248201527f4f776e61626c653a2063616c6c6572206973206e6f7420746865206f776e6572604482015290519081900360640190fd5b6009805463ffffffff909216600160a01b0263ffffffff60a01b19909216919091179055565b600954600090600160c01b900463ffffffff164210156111b257506007546001600160a01b0316610472565b506006546001600160a01b031690565b6000546001600160a01b03163314611221576040805162461bcd60e51b815260206004820181905260248201527f4f776e61626c653a2063616c6c6572206973206e6f7420746865206f776e6572604482015290519081900360640190fd5b8261122b816113c7565b6112475760405162461bcd60e51b81526004016104c290611992565b6001600160a01b03821661126d5760405162461bcd60e51b81526004016104c29061195b565b506001600160a01b039283166000908152600d6020526040902080546dffffffffffffffffffffffffffff19166dffffffffffffffffffffffffffff93909316929092178255600190910180546001600160a01b03191691909216179055565b6001600160a01b0381166000908152600b6020526040902054600190810b900b61136757600c8054600180820183557fdf6966c971051c3d54ec59162606531493a51404a002842f56009d7e5cf4a8c790910180546001600160a01b0319166001600160a01b03851690811790915591546000928352600b6020526040909220805461ffff191661ffff9390920b929092161790556113c4565b6001600160a01b0381166000908152600b6020526040812054600190810b900b12156113c4576001600160a01b0381166000908152600b602052604081208054600181810b90930390920b61ffff1661ffff199092169190911790555b50565b6001600160a01b03166000908152600d6020526040902054600160701b900463ffffffff16151590565b6001600160a01b0383166000908152600d60205260409020600181015442600160a01b90910463ffffffff1611611443578054600160a01b61ffff600160901b8304160261ffff60a01b199091161781555b805461ffff909316600160901b0273ffff000000000000000000000000000000000000199093169290921782556001909101805463ffffffff909216600160a01b0263ffffffff60a01b1990921691909117905550565b60008083601f8401126114ab578182fd5b50813567ffffffffffffffff8111156114c2578182fd5b60208301915083602080830285010111156114dc57600080fd5b9250929050565b803561049481611a63565b80356dffffffffffffffffffffffffffff8116811461049457600080fd5b803561ffff8116811461049457600080fd5b803563ffffffff8116811461049457600080fd5b600060208284031215611543578081fd5b813561154e81611a63565b9392505050565b600060208284031215611566578081fd5b815161154e81611a63565b600080600080600060a08688031215611588578081fd5b853561159381611a63565b94506115a16020870161151e565b93506115af6040870161151e565b925060608601356115bf81611a63565b915060808601356115cf81611a63565b809150509295509295909350565b600080600080604085870312156115f2578384fd5b843567ffffffffffffffff80821115611609578586fd5b6116158883890161149a565b9096509450602087013591508082111561162d578384fd5b5061163a8782880161149a565b95989497509550505050565b600080600080600060a0868803121561165d578081fd5b853561166881611a63565b9450602086013561167881611a63565b935060408601356115af81611a63565b60008082840361012081121561169c578283fd5b83356116a781611a63565b9250610100601f1982018113156116bc578283fd5b604051915080820182811067ffffffffffffffff821117156116da57fe5b6040526116e9602086016114ee565b82526116f76040860161151e565b60208301526117086060860161150c565b60408301526117196080860161150c565b606083015261172a60a086016114e3565b608083015261173b60c0860161151e565b60a083015261174c60e0860161151e565b60c083015261175c81860161151e565b60e083015250809150509250929050565b600080600060608486031215611781578081fd5b833561178c81611a63565b925061179a602085016114ee565b915060408401356117aa81611a63565b809150509250925092565b600080604083850312156117c7578182fd5b82356117d281611a63565b91506117e06020840161150c565b90509250929050565b600080604083850312156117fb578182fd5b823561180681611a63565b91506117e06020840161151e565b600060208284031215611825578081fd5b61154e8261150c565b60006020828403121561183f578081fd5b5035919050565b600060208284031215611857578081fd5b61154e8261151e565b6001600160a01b0391909116815260200190565b6001600160a01b03938416815291909216602082015263ffffffff909116604082015260600190565b901515815260200190565b60019190910b815260200190565b60208082526014908201527f496e76616c6964206172726179206c656e677468000000000000000000000000604082015260600190565b6020808252600c908201527f5a65726f20616464726573730000000000000000000000000000000000000000604082015260600190565b60208082526011908201527f4e6f7420616e20656e7465727072697365000000000000000000000000000000604082015260600190565b60208082526014908201527f496e76616c696420466163746f7220546f6b656e000000000000000000000000604082015260600190565b60208082526012908201527f556e6b6e6f776e20506f776572546f6b656e0000000000000000000000000000604082015260600190565b60208082526013908201527f416c726561647920696e697469616c697a656400000000000000000000000000604082015260600190565b60208082526015908201527f496e76616c696420677261636520706572696f64730000000000000000000000604082015260600190565b6dffffffffffffffffffffffffffff91909116815260200190565b63ffffffff91909116815260200190565b6001600160a01b03811681146113c457600080fdfe4f776e61626c653a206e6577206f776e657220697320746865207a65726f2061646472657373496e697469616c697a61626c654f776e61626c653a20616c726561647920696e697469616c697a6564a2646970667358221220bc89c1a8a4a8312cdbf74724e36feaa895459cef5243fa9c343c752ce4ab667c64736f6c63430007060033",
  "linkReferences": {},
  "deployedLinkReferences": {}
}