{
  "_format": "hh-sol-artifact-1",
  "contractName": "ERC721",
  "sourceName": "contracts/token/ERC721.sol",
  "abi": [
    {
      "anonymous": false,
      "inputs": [
        {
          "indexed": true,
          "internalType": "address",
          "name": "owner",
          "type": "address"
        },
        {
          "indexed": true,
          "internalType": "address",
          "name": "approved",
          "type": "address"
        },
        {
          "indexed": true,
          "internalType": "uint256",
          "name": "tokenId",
          "type": "uint256"
        }
      ],
      "name": "Approval",
      "type": "event"
    },
    {
      "anonymous": false,
      "inputs": [
        {
          "indexed": true,
          "internalType": "address",
          "name": "owner",
          "type": "address"
        },
        {
          "indexed": true,
          "internalType": "address",
          "name": "operator",
          "type": "address"
        },
        {
          "indexed": false,
          "internalType": "bool",
          "name": "approved",
          "type": "bool"
        }
      ],
      "name": "ApprovalForAll",
      "type": "event"
    },
    {
      "anonymous": false,
      "inputs": [
        {
          "indexed": true,
          "internalType": "address",
          "name": "from",
          "type": "address"
        },
        {
          "indexed": true,
          "internalType": "address",
          "name": "to",
          "type": "address"
        },
        {
          "indexed": true,
          "internalType": "uint256",
          "name": "tokenId",
          "type": "uint256"
        }
      ],
      "name": "Transfer",
      "type": "event"
    },
    {
      "inputs": [
        {
          "internalType": "address",
          "name": "to",
          "type": "address"
        },
        {
          "internalType": "uint256",
          "name": "tokenId",
          "type": "uint256"
        }
      ],
      "name": "approve",
      "outputs": [],
      "stateMutability": "nonpayable",
      "type": "function"
    },
    {
      "inputs": [
        {
          "internalType": "address",
          "name": "owner",
          "type": "address"
        }
      ],
      "name": "balanceOf",
      "outputs": [
        {
          "internalType": "uint256",
          "name": "",
          "type": "uint256"
        }
      ],
      "stateMutability": "view",
      "type": "function"
    },
    {
      "inputs": [],
      "name": "baseURI",
      "outputs": [
        {
          "internalType": "string",
          "name": "",
          "type": "string"
        }
      ],
      "stateMutability": "view",
      "type": "function"
    },
    {
      "inputs": [
        {
          "internalType": "uint256",
          "name": "tokenId",
          "type": "uint256"
        }
      ],
      "name": "getApproved",
      "outputs": [
        {
          "internalType": "address",
          "name": "",
          "type": "address"
        }
      ],
      "stateMutability": "view",
      "type": "function"
    },
    {
      "inputs": [
        {
          "internalType": "string",
          "name": "name_",
          "type": "string"
        },
        {
          "internalType": "string",
          "name": "symbol_",
          "type": "string"
        }
      ],
      "name": "initialize",
      "outputs": [],
      "stateMutability": "nonpayable",
      "type": "function"
    },
    {
      "inputs": [
        {
          "internalType": "address",
          "name": "owner",
          "type": "address"
        },
        {
          "internalType": "address",
          "name": "operator",
          "type": "address"
        }
      ],
      "name": "isApprovedForAll",
      "outputs": [
        {
          "internalType": "bool",
          "name": "",
          "type": "bool"
        }
      ],
      "stateMutability": "view",
      "type": "function"
    },
    {
      "inputs": [],
      "name": "name",
      "outputs": [
        {
          "internalType": "string",
          "name": "",
          "type": "string"
        }
      ],
      "stateMutability": "view",
      "type": "function"
    },
    {
      "inputs": [
        {
          "internalType": "uint256",
          "name": "tokenId",
          "type": "uint256"
        }
      ],
      "name": "ownerOf",
      "outputs": [
        {
          "internalType": "address",
          "name": "",
          "type": "address"
        }
      ],
      "stateMutability": "view",
      "type": "function"
    },
    {
      "inputs": [
        {
          "internalType": "address",
          "name": "from",
          "type": "address"
        },
        {
          "internalType": "address",
          "name": "to",
          "type": "address"
        },
        {
          "internalType": "uint256",
          "name": "tokenId",
          "type": "uint256"
        }
      ],
      "name": "safeTransferFrom",
      "outputs": [],
      "stateMutability": "nonpayable",
      "type": "function"
    },
    {
      "inputs": [
        {
          "internalType": "address",
          "name": "from",
          "type": "address"
        },
        {
          "internalType": "address",
          "name": "to",
          "type": "address"
        },
        {
          "internalType": "uint256",
          "name": "tokenId",
          "type": "uint256"
        },
        {
          "internalType": "bytes",
          "name": "_data",
          "type": "bytes"
        }
      ],
      "name": "safeTransferFrom",
      "outputs": [],
      "stateMutability": "nonpayable",
      "type": "function"
    },
    {
      "inputs": [
        {
          "internalType": "address",
          "name": "operator",
          "type": "address"
        },
        {
          "internalType": "bool",
          "name": "approved",
          "type": "bool"
        }
      ],
      "name": "setApprovalForAll",
      "outputs": [],
      "stateMutability": "nonpayable",
      "type": "function"
    },
    {
      "inputs": [
        {
          "internalType": "bytes4",
          "name": "interfaceId",
          "type": "bytes4"
        }
      ],
      "name": "supportsInterface",
      "outputs": [
        {
          "internalType": "bool",
          "name": "",
          "type": "bool"
        }
      ],
      "stateMutability": "view",
      "type": "function"
    },
    {
      "inputs": [],
      "name": "symbol",
      "outputs": [
        {
          "internalType": "string",
          "name": "",
          "type": "string"
        }
      ],
      "stateMutability": "view",
      "type": "function"
    },
    {
      "inputs": [
        {
          "internalType": "uint256",
          "name": "index",
          "type": "uint256"
        }
      ],
      "name": "tokenByIndex",
      "outputs": [
        {
          "internalType": "uint256",
          "name": "",
          "type": "uint256"
        }
      ],
      "stateMutability": "view",
      "type": "function"
    },
    {
      "inputs": [
        {
          "internalType": "address",
          "name": "owner",
          "type": "address"
        },
        {
          "internalType": "uint256",
          "name": "index",
          "type": "uint256"
        }
      ],
      "name": "tokenOfOwnerByIndex",
      "outputs": [
        {
          "internalType": "uint256",
          "name": "",
          "type": "uint256"
        }
      ],
      "stateMutability": "view",
      "type": "function"
    },
    {
      "inputs": [
        {
          "internalType": "uint256",
          "name": "tokenId",
          "type": "uint256"
        }
      ],
      "name": "tokenURI",
      "outputs": [
        {
          "internalType": "string",
          "name": "",
          "type": "string"
        }
      ],
      "stateMutability": "view",
      "type": "function"
    },
    {
      "inputs": [],
      "name": "totalSupply",
      "outputs": [
        {
          "internalType": "uint256",
          "name": "",
          "type": "uint256"
        }
      ],
      "stateMutability": "view",
      "type": "function"
    },
    {
      "inputs": [
        {
          "internalType": "address",
          "name": "from",
          "type": "address"
        },
        {
          "internalType": "address",
          "name": "to",
          "type": "address"
        },
        {
          "internalType": "uint256",
          "name": "tokenId",
          "type": "uint256"
        }
      ],
      "name": "transferFrom",
      "outputs": [],
      "stateMutability": "nonpayable",
      "type": "function"
    }
  ],
  "bytecode": "0x608060405234801561001057600080fd5b506100216301ffc9a760e01b610026565b6100aa565b6001600160e01b03198082161415610085576040805162461bcd60e51b815260206004820152601c60248201527f4552433136353a20696e76616c696420696e7465726661636520696400000000604482015290519081900360640190fd5b6001600160e01b0319166000908152602081905260409020805460ff19166001179055565b611d92806100b96000396000f3fe608060405234801561001057600080fd5b50600436106101365760003560e01c80634f6ccce7116100b257806395d89b4111610081578063b88d4fde11610066578063b88d4fde146104d7578063c87b56dd1461059d578063e985e9c5146105ba57610136565b806395d89b41146104a1578063a22cb465146104a957610136565b80634f6ccce7146104395780636352211e146104565780636c0360eb1461047357806370a082311461047b57610136565b806318160ddd116101095780632f745c59116100ee5780632f745c59146102aa57806342842e0e146102d65780634cd88b761461030c57610136565b806318160ddd1461025a57806323b872dd1461027457610136565b806301ffc9a71461013b57806306fdde0314610176578063081812fc146101f3578063095ea7b31461022c575b600080fd5b6101626004803603602081101561015157600080fd5b50356001600160e01b0319166105e8565b604080519115158252519081900360200190f35b61017e61060b565b6040805160208082528351818301528351919283929083019185019080838360005b838110156101b85781810151838201526020016101a0565b50505050905090810190601f1680156101e55780820380516001836020036101000a031916815260200191505b509250505060405180910390f35b6102106004803603602081101561020957600080fd5b50356106a1565b604080516001600160a01b039092168252519081900360200190f35b6102586004803603604081101561024257600080fd5b506001600160a01b038135169060200135610703565b005b6102626107de565b60408051918252519081900360200190f35b6102586004803603606081101561028a57600080fd5b506001600160a01b038135811691602081013590911690604001356107ef565b610262600480360360408110156102c057600080fd5b506001600160a01b038135169060200135610846565b610258600480360360608110156102ec57600080fd5b506001600160a01b03813581169160208101359091169060400135610871565b6102586004803603604081101561032257600080fd5b81019060208101813564010000000081111561033d57600080fd5b82018360208201111561034f57600080fd5b8035906020019184600183028401116401000000008311171561037157600080fd5b91908080601f01602080910402602001604051908101604052809392919081815260200183838082843760009201919091525092959493602081019350359150506401000000008111156103c457600080fd5b8201836020820111156103d657600080fd5b803590602001918460018302840111640100000000831117156103f857600080fd5b91908080601f01602080910402602001604051908101604052809392919081815260200183838082843760009201919091525092955061088c945050505050565b6102626004803603602081101561044f57600080fd5b503561099b565b6102106004803603602081101561046c57600080fd5b50356109b1565b61017e6109d9565b6102626004803603602081101561049157600080fd5b50356001600160a01b0316610a3a565b61017e610aa2565b610258600480360360408110156104bf57600080fd5b506001600160a01b0381351690602001351515610b03565b610258600480360360808110156104ed57600080fd5b6001600160a01b0382358116926020810135909116916040820135919081019060808101606082013564010000000081111561052857600080fd5b82018360208201111561053a57600080fd5b8035906020019184600183028401116401000000008311171561055c57600080fd5b91908080601f016020809104026020016040519081016040528093929190818152602001838380828437600092019190915250929550610c08945050505050565b61017e600480360360208110156105b357600080fd5b5035610c66565b610162600480360360408110156105d057600080fd5b506001600160a01b0381358116916020013516610ee7565b6001600160e01b0319811660009081526020819052604090205460ff165b919050565b60068054604080516020601f60026000196101006001881615020190951694909404938401819004810282018101909252828152606093909290918301828280156106975780601f1061066c57610100808354040283529160200191610697565b820191906000526020600020905b81548152906001019060200180831161067a57829003601f168201915b5050505050905090565b60006106ac82610f15565b6106e75760405162461bcd60e51b815260040180806020018281038252602c815260200180611c87602c913960400191505060405180910390fd5b506000908152600460205260409020546001600160a01b031690565b600061070e826109b1565b9050806001600160a01b0316836001600160a01b031614156107615760405162461bcd60e51b8152600401808060200182810382526021815260200180611d0b6021913960400191505060405180910390fd5b806001600160a01b0316610773610f22565b6001600160a01b0316148061079457506107948161078f610f22565b610ee7565b6107cf5760405162461bcd60e51b8152600401808060200182810382526038815260200180611bda6038913960400191505060405180910390fd5b6107d98383610f26565b505050565b60006107ea6002610fac565b905090565b6108006107fa610f22565b82610fb7565b61083b5760405162461bcd60e51b8152600401808060200182810382526031815260200180611d2c6031913960400191505060405180910390fd5b6107d983838361105b565b6001600160a01b038216600090815260016020526040812061086890836111a7565b90505b92915050565b6107d983838360405180602001604052806000815250610c08565b60065460026000196101006001841615020190911604156108f4576040805162461bcd60e51b815260206004820152601b60248201527f436f6e747261637420616c726561647920696e7469616c697a65640000000000604482015290519081900360640190fd5b8151610907906006906020850190611a94565b50805161091b906007906020840190611a94565b506109457f80ac58cd000000000000000000000000000000000000000000000000000000006111b3565b61096e7f5b5e139f000000000000000000000000000000000000000000000000000000006111b3565b6109977f780e9d63000000000000000000000000000000000000000000000000000000006111b3565b5050565b6000806109a9600284611237565b509392505050565b600061086b82604051806060016040528060298152602001611c3c6029913960029190611253565b60098054604080516020601f60026000196101006001881615020190951694909404938401819004810282018101909252828152606093909290918301828280156106975780601f1061066c57610100808354040283529160200191610697565b60006001600160a01b038216610a815760405162461bcd60e51b815260040180806020018281038252602a815260200180611c12602a913960400191505060405180910390fd5b6001600160a01b038216600090815260016020526040902061086b90610fac565b60078054604080516020601f60026000196101006001881615020190951694909404938401819004810282018101909252828152606093909290918301828280156106975780601f1061066c57610100808354040283529160200191610697565b610b0b610f22565b6001600160a01b0316826001600160a01b03161415610b71576040805162461bcd60e51b815260206004820152601960248201527f4552433732313a20617070726f766520746f2063616c6c657200000000000000604482015290519081900360640190fd5b8060056000610b7e610f22565b6001600160a01b03908116825260208083019390935260409182016000908120918716808252919093529120805460ff191692151592909217909155610bc2610f22565b6001600160a01b03167f17307eab39ab6107e8899845ad3d59bd9653f200f220920489ca2b5937696c318360405180821515815260200191505060405180910390a35050565b610c19610c13610f22565b83610fb7565b610c545760405162461bcd60e51b8152600401808060200182810382526031815260200180611d2c6031913960400191505060405180910390fd5b610c608484848461126a565b50505050565b6060610c7182610f15565b610cac5760405162461bcd60e51b815260040180806020018281038252602f815260200180611cdc602f913960400191505060405180910390fd5b60008281526008602090815260408083208054825160026001831615610100026000190190921691909104601f810185900485028201850190935282815292909190830182828015610d3f5780601f10610d1457610100808354040283529160200191610d3f565b820191906000526020600020905b815481529060010190602001808311610d2257829003601f168201915b505050505090506000610d506109d9565b9050805160001415610d6457509050610606565b815115610e255780826040516020018083805190602001908083835b60208310610d9f5780518252601f199092019160209182019101610d80565b51815160209384036101000a600019018019909216911617905285519190930192850191508083835b60208310610de75780518252601f199092019160209182019101610dc8565b6001836020036101000a0380198251168184511680821785525050505050509050019250505060405160208183030381529060405292505050610606565b80610e2f856112bc565b6040516020018083805190602001908083835b60208310610e615780518252601f199092019160209182019101610e42565b51815160209384036101000a600019018019909216911617905285519190930192850191508083835b60208310610ea95780518252601f199092019160209182019101610e8a565b6001836020036101000a0380198251168184511680821785525050505050509050019250505060405160208183030381529060405292505050919050565b6001600160a01b03918216600090815260056020908152604080832093909416825291909152205460ff1690565b600061086b6002836113cb565b3390565b600081815260046020526040902080547fffffffffffffffffffffffff0000000000000000000000000000000000000000166001600160a01b0384169081179091558190610f73826109b1565b6001600160a01b03167f8c5be1e5ebec7d5bd14f71427d1e84f3dd0314c0f7b2291e5b200ac8c7c3b92560405160405180910390a45050565b600061086b826113d7565b6000610fc282610f15565b610ffd5760405162461bcd60e51b815260040180806020018281038252602c815260200180611bae602c913960400191505060405180910390fd5b6000611008836109b1565b9050806001600160a01b0316846001600160a01b031614806110435750836001600160a01b0316611038846106a1565b6001600160a01b0316145b8061105357506110538185610ee7565b949350505050565b826001600160a01b031661106e826109b1565b6001600160a01b0316146110b35760405162461bcd60e51b8152600401808060200182810382526029815260200180611cb36029913960400191505060405180910390fd5b6001600160a01b0382166110f85760405162461bcd60e51b8152600401808060200182810382526024815260200180611b8a6024913960400191505060405180910390fd5b6111038383836107d9565b61110e600082610f26565b6001600160a01b038316600090815260016020526040902061113090826113db565b506001600160a01b038216600090815260016020526040902061115390826113e7565b50611160600282846113f3565b5080826001600160a01b0316846001600160a01b03167fddf252ad1be2c89b69c2b068fc378daa952ba7f163c4a11628f55a4df523b3ef60405160405180910390a4505050565b60006108688383611409565b6001600160e01b03198082161415611212576040805162461bcd60e51b815260206004820152601c60248201527f4552433136353a20696e76616c696420696e7465726661636520696400000000604482015290519081900360640190fd5b6001600160e01b0319166000908152602081905260409020805460ff19166001179055565b6000808080611246868661146d565b9097909650945050505050565b60006112608484846114e8565b90505b9392505050565b61127584848461105b565b611281848484846115b2565b610c605760405162461bcd60e51b8152600401808060200182810382526032815260200180611b586032913960400191505060405180910390fd5b6060816112fd575060408051808201909152600181527f30000000000000000000000000000000000000000000000000000000000000006020820152610606565b8160005b811561131557600101600a82049150611301565b60008167ffffffffffffffff8111801561132e57600080fd5b506040519080825280601f01601f191660200182016040528015611359576020820181803683370190505b50859350905060001982015b83156113c257600a840660300160f81b8282806001900393508151811061138857fe5b60200101907effffffffffffffffffffffffffffffffffffffffffffffffffffffffffffff1916908160001a905350600a84049350611365565b50949350505050565b60006108688383611744565b5490565b6000610868838361175c565b60006108688383611822565b600061126084846001600160a01b03851661186c565b8154600090821061144b5760405162461bcd60e51b8152600401808060200182810382526022815260200180611b366022913960400191505060405180910390fd5b82600001828154811061145a57fe5b9060005260206000200154905092915050565b8154600090819083106114b15760405162461bcd60e51b8152600401808060200182810382526022815260200180611c656022913960400191505060405180910390fd5b60008460000184815481106114c257fe5b906000526020600020906002020190508060000154816001015492509250509250929050565b600082815260018401602052604081205482816115835760405162461bcd60e51b81526004018080602001828103825283818151815260200191508051906020019080838360005b83811015611548578181015183820152602001611530565b50505050905090810190601f1680156115755780820380516001836020036101000a031916815260200191505b509250505060405180910390fd5b5084600001600182038154811061159657fe5b9060005260206000209060020201600101549150509392505050565b60006115c6846001600160a01b0316611903565b6115d257506001611053565b600061170a630a85bd0160e11b6115e7610f22565b88878760405160240180856001600160a01b03168152602001846001600160a01b0316815260200183815260200180602001828103825283818151815260200191508051906020019080838360005b8381101561164e578181015183820152602001611636565b50505050905090810190601f16801561167b5780820380516001836020036101000a031916815260200191505b5095505050505050604051602081830303815290604052907bffffffffffffffffffffffffffffffffffffffffffffffffffffffff19166020820180517bffffffffffffffffffffffffffffffffffffffffffffffffffffffff8381831617835250505050604051806060016040528060328152602001611b58603291396001600160a01b0388169190611909565b9050600081806020019051602081101561172357600080fd5b50516001600160e01b031916630a85bd0160e11b1492505050949350505050565b60009081526001919091016020526040902054151590565b60008181526001830160205260408120548015611818578354600019808301919081019060009087908390811061178f57fe5b90600052602060002001549050808760000184815481106117ac57fe5b6000918252602080832090910192909255828152600189810190925260409020908401905586548790806117dc57fe5b6001900381819060005260206000200160009055905586600101600087815260200190815260200160002060009055600194505050505061086b565b600091505061086b565b600061182e8383611744565b6118645750815460018181018455600084815260208082209093018490558454848252828601909352604090209190915561086b565b50600061086b565b6000828152600184016020526040812054806118d1575050604080518082018252838152602080820184815286546001818101895560008981528481209551600290930290950191825591519082015586548684528188019092529290912055611263565b828560000160018303815481106118e457fe5b9060005260206000209060020201600101819055506000915050611263565b3b151590565b606061126084846000858561191d85611903565b61196e576040805162461bcd60e51b815260206004820152601d60248201527f416464726573733a2063616c6c20746f206e6f6e2d636f6e7472616374000000604482015290519081900360640190fd5b600080866001600160a01b031685876040518082805190602001908083835b602083106119ac5780518252601f19909201916020918201910161198d565b6001836020036101000a03801982511681845116808217855250505050505090500191505060006040518083038185875af1925050503d8060008114611a0e576040519150601f19603f3d011682016040523d82523d6000602084013e611a13565b606091505b5091509150611a23828286611a2e565b979650505050505050565b60608315611a3d575081611263565b825115611a4d5782518084602001fd5b60405162461bcd60e51b8152602060048201818152845160248401528451859391928392604401919085019080838360008315611548578181015183820152602001611530565b828054600181600116156101000203166002900490600052602060002090601f016020900481019282611aca5760008555611b10565b82601f10611ae357805160ff1916838001178555611b10565b82800160010185558215611b10579182015b82811115611b10578251825591602001919060010190611af5565b50611b1c929150611b20565b5090565b5b80821115611b1c5760008155600101611b2156fe456e756d657261626c655365743a20696e646578206f7574206f6620626f756e64734552433732313a207472616e7366657220746f206e6f6e20455243373231526563656976657220696d706c656d656e7465724552433732313a207472616e7366657220746f20746865207a65726f20616464726573734552433732313a206f70657261746f7220717565727920666f72206e6f6e6578697374656e7420746f6b656e4552433732313a20617070726f76652063616c6c6572206973206e6f74206f776e6572206e6f7220617070726f76656420666f7220616c6c4552433732313a2062616c616e636520717565727920666f7220746865207a65726f20616464726573734552433732313a206f776e657220717565727920666f72206e6f6e6578697374656e7420746f6b656e456e756d657261626c654d61703a20696e646578206f7574206f6620626f756e64734552433732313a20617070726f76656420717565727920666f72206e6f6e6578697374656e7420746f6b656e4552433732313a207472616e73666572206f6620746f6b656e2074686174206973206e6f74206f776e4552433732314d657461646174613a2055524920717565727920666f72206e6f6e6578697374656e7420746f6b656e4552433732313a20617070726f76616c20746f2063757272656e74206f776e65724552433732313a207472616e736665722063616c6c6572206973206e6f74206f776e6572206e6f7220617070726f766564a26469706673582212204df486b6d262ac56e6b6fb598dcd71faee5714739c5e62721ba463f767ee7e9a64736f6c63430007060033",
  "linkReferences": {},
  "deployedLinkReferences": {}
}