{
  "_format": "hh-sol-artifact-1",
  "contractName": "ERC721",
  "sourceName": "contracts/token/ERC721.sol",
  "abi": [
    {
      "anonymous": false,
      "inputs": [
        {
          "indexed": true,
          "internalType": "address",
          "name": "owner",
          "type": "address"
        },
        {
          "indexed": true,
          "internalType": "address",
          "name": "approved",
          "type": "address"
        },
        {
          "indexed": true,
          "internalType": "uint256",
          "name": "tokenId",
          "type": "uint256"
        }
      ],
      "name": "Approval",
      "type": "event"
    },
    {
      "anonymous": false,
      "inputs": [
        {
          "indexed": true,
          "internalType": "address",
          "name": "owner",
          "type": "address"
        },
        {
          "indexed": true,
          "internalType": "address",
          "name": "operator",
          "type": "address"
        },
        {
          "indexed": false,
          "internalType": "bool",
          "name": "approved",
          "type": "bool"
        }
      ],
      "name": "ApprovalForAll",
      "type": "event"
    },
    {
      "anonymous": false,
      "inputs": [
        {
          "indexed": true,
          "internalType": "address",
          "name": "from",
          "type": "address"
        },
        {
          "indexed": true,
          "internalType": "address",
          "name": "to",
          "type": "address"
        },
        {
          "indexed": true,
          "internalType": "uint256",
          "name": "tokenId",
          "type": "uint256"
        }
      ],
      "name": "Transfer",
      "type": "event"
    },
    {
      "inputs": [
        {
          "internalType": "address",
          "name": "to",
          "type": "address"
        },
        {
          "internalType": "uint256",
          "name": "tokenId",
          "type": "uint256"
        }
      ],
      "name": "approve",
      "outputs": [],
      "stateMutability": "nonpayable",
      "type": "function"
    },
    {
      "inputs": [
        {
          "internalType": "address",
          "name": "owner",
          "type": "address"
        }
      ],
      "name": "balanceOf",
      "outputs": [
        {
          "internalType": "uint256",
          "name": "",
          "type": "uint256"
        }
      ],
      "stateMutability": "view",
      "type": "function"
    },
    {
      "inputs": [
        {
          "internalType": "uint256",
          "name": "tokenId",
          "type": "uint256"
        }
      ],
      "name": "getApproved",
      "outputs": [
        {
          "internalType": "address",
          "name": "",
          "type": "address"
        }
      ],
      "stateMutability": "view",
      "type": "function"
    },
    {
      "inputs": [
        {
          "internalType": "string",
          "name": "name_",
          "type": "string"
        },
        {
          "internalType": "string",
          "name": "symbol_",
          "type": "string"
        }
      ],
      "name": "initialize",
      "outputs": [],
      "stateMutability": "nonpayable",
      "type": "function"
    },
    {
      "inputs": [
        {
          "internalType": "address",
          "name": "owner",
          "type": "address"
        },
        {
          "internalType": "address",
          "name": "operator",
          "type": "address"
        }
      ],
      "name": "isApprovedForAll",
      "outputs": [
        {
          "internalType": "bool",
          "name": "",
          "type": "bool"
        }
      ],
      "stateMutability": "view",
      "type": "function"
    },
    {
      "inputs": [],
      "name": "name",
      "outputs": [
        {
          "internalType": "string",
          "name": "",
          "type": "string"
        }
      ],
      "stateMutability": "view",
      "type": "function"
    },
    {
      "inputs": [
        {
          "internalType": "uint256",
          "name": "tokenId",
          "type": "uint256"
        }
      ],
      "name": "ownerOf",
      "outputs": [
        {
          "internalType": "address",
          "name": "",
          "type": "address"
        }
      ],
      "stateMutability": "view",
      "type": "function"
    },
    {
      "inputs": [
        {
          "internalType": "address",
          "name": "from",
          "type": "address"
        },
        {
          "internalType": "address",
          "name": "to",
          "type": "address"
        },
        {
          "internalType": "uint256",
          "name": "tokenId",
          "type": "uint256"
        }
      ],
      "name": "safeTransferFrom",
      "outputs": [],
      "stateMutability": "nonpayable",
      "type": "function"
    },
    {
      "inputs": [
        {
          "internalType": "address",
          "name": "from",
          "type": "address"
        },
        {
          "internalType": "address",
          "name": "to",
          "type": "address"
        },
        {
          "internalType": "uint256",
          "name": "tokenId",
          "type": "uint256"
        },
        {
          "internalType": "bytes",
          "name": "_data",
          "type": "bytes"
        }
      ],
      "name": "safeTransferFrom",
      "outputs": [],
      "stateMutability": "nonpayable",
      "type": "function"
    },
    {
      "inputs": [
        {
          "internalType": "address",
          "name": "operator",
          "type": "address"
        },
        {
          "internalType": "bool",
          "name": "approved",
          "type": "bool"
        }
      ],
      "name": "setApprovalForAll",
      "outputs": [],
      "stateMutability": "nonpayable",
      "type": "function"
    },
    {
      "inputs": [
        {
          "internalType": "bytes4",
          "name": "interfaceId",
          "type": "bytes4"
        }
      ],
      "name": "supportsInterface",
      "outputs": [
        {
          "internalType": "bool",
          "name": "",
          "type": "bool"
        }
      ],
      "stateMutability": "view",
      "type": "function"
    },
    {
      "inputs": [],
      "name": "symbol",
      "outputs": [
        {
          "internalType": "string",
          "name": "",
          "type": "string"
        }
      ],
      "stateMutability": "view",
      "type": "function"
    },
    {
      "inputs": [
        {
          "internalType": "uint256",
          "name": "tokenId",
          "type": "uint256"
        }
      ],
      "name": "tokenURI",
      "outputs": [
        {
          "internalType": "string",
          "name": "",
          "type": "string"
        }
      ],
      "stateMutability": "view",
      "type": "function"
    },
    {
      "inputs": [
        {
          "internalType": "address",
          "name": "from",
          "type": "address"
        },
        {
          "internalType": "address",
          "name": "to",
          "type": "address"
        },
        {
          "internalType": "uint256",
          "name": "tokenId",
          "type": "uint256"
        }
      ],
      "name": "transferFrom",
      "outputs": [],
      "stateMutability": "nonpayable",
      "type": "function"
    }
  ],
  "bytecode": "0x608060405234801561001057600080fd5b506115eb806100206000396000f3fe608060405234801561001057600080fd5b50600436106100ea5760003560e01c80636352211e1161008c578063a22cb46511610066578063a22cb465146101e1578063b88d4fde146101f4578063c87b56dd14610207578063e985e9c51461021a57600080fd5b80636352211e146101a557806370a08231146101b857806395d89b41146101d957600080fd5b8063095ea7b3116100c8578063095ea7b31461015757806323b872dd1461016c57806342842e0e1461017f5780634cd88b761461019257600080fd5b806301ffc9a7146100ef57806306fdde0314610117578063081812fc1461012c575b600080fd5b6101026100fd366004611326565b610256565b60405190151581526020015b60405180910390f35b61011f6102f3565b60405161010e919061146e565b61013f61013a3660046113bf565b610385565b6040516001600160a01b03909116815260200161010e565b61016a6101653660046112fd565b61041f565b005b61016a61017a36600461120f565b610551565b61016a61018d36600461120f565b6105d8565b61016a6101a036600461135e565b6105f3565b61013f6101b33660046113bf565b610676565b6101cb6101c63660046111c3565b610701565b60405190815260200161010e565b61011f61079b565b61016a6101ef3660046112c3565b6107aa565b61016a61020236600461124a565b61086f565b61011f6102153660046113bf565b6108fd565b6101026102283660046111dd565b6001600160a01b03918216600090815260056020908152604080832093909416825291909152205460ff1690565b60006001600160e01b031982167f80ac58cd0000000000000000000000000000000000000000000000000000000014806102b957506001600160e01b031982167f5b5e139f00000000000000000000000000000000000000000000000000000000145b806102ed57507f01ffc9a7000000000000000000000000000000000000000000000000000000006001600160e01b03198316145b92915050565b606060008054610302906114f0565b80601f016020809104026020016040519081016040528092919081815260200182805461032e906114f0565b801561037b5780601f106103505761010080835404028352916020019161037b565b820191906000526020600020905b81548152906001019060200180831161035e57829003601f168201915b5050505050905090565b6000818152600260205260408120546001600160a01b03166104035760405162461bcd60e51b815260206004820152602c60248201527f4552433732313a20617070726f76656420717565727920666f72206e6f6e657860448201526b34b9ba32b73a103a37b5b2b760a11b60648201526084015b60405180910390fd5b506000908152600460205260409020546001600160a01b031690565b600061042a82610676565b9050806001600160a01b0316836001600160a01b031614156104b45760405162461bcd60e51b815260206004820152602160248201527f4552433732313a20617070726f76616c20746f2063757272656e74206f776e6560448201527f720000000000000000000000000000000000000000000000000000000000000060648201526084016103fa565b336001600160a01b03821614806104d057506104d08133610228565b6105425760405162461bcd60e51b815260206004820152603860248201527f4552433732313a20617070726f76652063616c6c6572206973206e6f74206f7760448201527f6e6572206e6f7220617070726f76656420666f7220616c6c000000000000000060648201526084016103fa565b61054c83836109f3565b505050565b61055b3382610a6e565b6105cd5760405162461bcd60e51b815260206004820152603160248201527f4552433732313a207472616e736665722063616c6c6572206973206e6f74206f60448201527f776e6572206e6f7220617070726f76656400000000000000000000000000000060648201526084016103fa565b61054c838383610b65565b61054c8383836040518060200160405280600081525061086f565b60008054610600906114f0565b15905061064f5760405162461bcd60e51b815260206004820152601360248201527f416c726561647920696e697469616c697a65640000000000000000000000000060448201526064016103fa565b8151610662906000906020850190611079565b50805161054c906001906020840190611079565b6000818152600260205260408120546001600160a01b0316806102ed5760405162461bcd60e51b815260206004820152602960248201527f4552433732313a206f776e657220717565727920666f72206e6f6e657869737460448201527f656e7420746f6b656e000000000000000000000000000000000000000000000060648201526084016103fa565b60006001600160a01b03821661077f5760405162461bcd60e51b815260206004820152602a60248201527f4552433732313a2062616c616e636520717565727920666f7220746865207a6560448201527f726f20616464726573730000000000000000000000000000000000000000000060648201526084016103fa565b506001600160a01b031660009081526003602052604090205490565b606060018054610302906114f0565b6001600160a01b0382163314156108035760405162461bcd60e51b815260206004820152601960248201527f4552433732313a20617070726f766520746f2063616c6c65720000000000000060448201526064016103fa565b3360008181526005602090815260408083206001600160a01b03871680855290835292819020805460ff191686151590811790915590519081529192917f17307eab39ab6107e8899845ad3d59bd9653f200f220920489ca2b5937696c31910160405180910390a35050565b6108793383610a6e565b6108eb5760405162461bcd60e51b815260206004820152603160248201527f4552433732313a207472616e736665722063616c6c6572206973206e6f74206f60448201527f776e6572206e6f7220617070726f76656400000000000000000000000000000060648201526084016103fa565b6108f784848484610d3f565b50505050565b6000818152600260205260409020546060906001600160a01b031661098a5760405162461bcd60e51b815260206004820152602f60248201527f4552433732314d657461646174613a2055524920717565727920666f72206e6f60448201527f6e6578697374656e7420746f6b656e000000000000000000000000000000000060648201526084016103fa565b60006109a160408051602081019091526000815290565b905060008151116109c157604051806020016040528060008152506109ec565b806109cb84610dc8565b6040516020016109dc929190611403565b6040516020818303038152906040525b9392505050565b6000818152600460205260409020805473ffffffffffffffffffffffffffffffffffffffff19166001600160a01b0384169081179091558190610a3582610676565b6001600160a01b03167f8c5be1e5ebec7d5bd14f71427d1e84f3dd0314c0f7b2291e5b200ac8c7c3b92560405160405180910390a45050565b6000818152600260205260408120546001600160a01b0316610ae75760405162461bcd60e51b815260206004820152602c60248201527f4552433732313a206f70657261746f7220717565727920666f72206e6f6e657860448201526b34b9ba32b73a103a37b5b2b760a11b60648201526084016103fa565b6000610af283610676565b9050806001600160a01b0316846001600160a01b03161480610b2d5750836001600160a01b0316610b2284610385565b6001600160a01b0316145b80610b5d57506001600160a01b0380821660009081526005602090815260408083209388168352929052205460ff165b949350505050565b826001600160a01b0316610b7882610676565b6001600160a01b031614610bf45760405162461bcd60e51b815260206004820152602960248201527f4552433732313a207472616e73666572206f6620746f6b656e2074686174206960448201527f73206e6f74206f776e000000000000000000000000000000000000000000000060648201526084016103fa565b6001600160a01b038216610c6f5760405162461bcd60e51b8152602060048201526024808201527f4552433732313a207472616e7366657220746f20746865207a65726f2061646460448201527f726573730000000000000000000000000000000000000000000000000000000060648201526084016103fa565b610c7a6000826109f3565b6001600160a01b0383166000908152600360205260408120805460019290610ca39084906114ad565b90915550506001600160a01b0382166000908152600360205260408120805460019290610cd1908490611481565b9091555050600081815260026020526040808220805473ffffffffffffffffffffffffffffffffffffffff19166001600160a01b0386811691821790925591518493918716917fddf252ad1be2c89b69c2b068fc378daa952ba7f163c4a11628f55a4df523b3ef91a4505050565b610d4a848484610b65565b610d5684848484610f16565b6108f75760405162461bcd60e51b815260206004820152603260248201527f4552433732313a207472616e7366657220746f206e6f6e20455243373231526560448201527f63656976657220696d706c656d656e746572000000000000000000000000000060648201526084016103fa565b606081610e0857505060408051808201909152600181527f3000000000000000000000000000000000000000000000000000000000000000602082015290565b8160005b8115610e325780610e1c8161152b565b9150610e2b9050600a83611499565b9150610e0c565b60008167ffffffffffffffff811115610e5b57634e487b7160e01b600052604160045260246000fd5b6040519080825280601f01601f191660200182016040528015610e85576020820181803683370190505b5090505b8415610b5d57610e9a6001836114ad565b9150610ea7600a86611546565b610eb2906030611481565b60f81b818381518110610ed557634e487b7160e01b600052603260045260246000fd5b60200101907effffffffffffffffffffffffffffffffffffffffffffffffffffffffffffff1916908160001a905350610f0f600a86611499565b9450610e89565b60006001600160a01b0384163b1561106e57604051630a85bd0160e11b81526001600160a01b0385169063150b7a0290610f5a903390899088908890600401611432565b602060405180830381600087803b158015610f7457600080fd5b505af1925050508015610fa4575060408051601f3d908101601f19168201909252610fa191810190611342565b60015b611054573d808015610fd2576040519150601f19603f3d011682016040523d82523d6000602084013e610fd7565b606091505b50805161104c5760405162461bcd60e51b815260206004820152603260248201527f4552433732313a207472616e7366657220746f206e6f6e20455243373231526560448201527f63656976657220696d706c656d656e746572000000000000000000000000000060648201526084016103fa565b805181602001fd5b6001600160e01b031916630a85bd0160e11b149050610b5d565b506001949350505050565b828054611085906114f0565b90600052602060002090601f0160209004810192826110a757600085556110ed565b82601f106110c057805160ff19168380011785556110ed565b828001600101855582156110ed579182015b828111156110ed5782518255916020019190600101906110d2565b506110f99291506110fd565b5090565b5b808211156110f957600081556001016110fe565b600067ffffffffffffffff8084111561112d5761112d611586565b604051601f8501601f19908116603f0116810190828211818310171561115557611155611586565b8160405280935085815286868601111561116e57600080fd5b858560208301376000602087830101525050509392505050565b80356001600160a01b038116811461119f57600080fd5b919050565b600082601f8301126111b4578081fd5b6109ec83833560208501611112565b6000602082840312156111d4578081fd5b6109ec82611188565b600080604083850312156111ef578081fd5b6111f883611188565b915061120660208401611188565b90509250929050565b600080600060608486031215611223578081fd5b61122c84611188565b925061123a60208501611188565b9150604084013590509250925092565b6000806000806080858703121561125f578081fd5b61126885611188565b935061127660208601611188565b925060408501359150606085013567ffffffffffffffff811115611298578182fd5b8501601f810187136112a8578182fd5b6112b787823560208401611112565b91505092959194509250565b600080604083850312156112d5578182fd5b6112de83611188565b9150602083013580151581146112f2578182fd5b809150509250929050565b6000806040838503121561130f578182fd5b61131883611188565b946020939093013593505050565b600060208284031215611337578081fd5b81356109ec8161159c565b600060208284031215611353578081fd5b81516109ec8161159c565b60008060408385031215611370578182fd5b823567ffffffffffffffff80821115611387578384fd5b611393868387016111a4565b935060208501359150808211156113a8578283fd5b506113b5858286016111a4565b9150509250929050565b6000602082840312156113d0578081fd5b5035919050565b600081518084526113ef8160208601602086016114c4565b601f01601f19169290920160200192915050565b600083516114158184602088016114c4565b8351908301906114298183602088016114c4565b01949350505050565b60006001600160a01b0380871683528086166020840152508360408301526080606083015261146460808301846113d7565b9695505050505050565b6020815260006109ec60208301846113d7565b600082198211156114945761149461155a565b500190565b6000826114a8576114a8611570565b500490565b6000828210156114bf576114bf61155a565b500390565b60005b838110156114df5781810151838201526020016114c7565b838111156108f75750506000910152565b600181811c9082168061150457607f821691505b6020821081141561152557634e487b7160e01b600052602260045260246000fd5b50919050565b600060001982141561153f5761153f61155a565b5060010190565b60008261155557611555611570565b500690565b634e487b7160e01b600052601160045260246000fd5b634e487b7160e01b600052601260045260246000fd5b634e487b7160e01b600052604160045260246000fd5b6001600160e01b0319811681146115b257600080fd5b5056fea26469706673582212200b10456e2a59ddd260a9d2a2265f34680cb10e345a55e9559931d3a597e3379e64736f6c63430008040033",
  "linkReferences": {},
  "deployedLinkReferences": {}
}