{
  "_format": "hh-sol-artifact-1",
  "contractName": "DefaultConverter",
  "sourceName": "contracts/DefaultConverter.sol",
  "abi": [
    {
      "inputs": [
        {
          "internalType": "contract IERC20",
          "name": "source",
          "type": "address"
        },
        {
          "internalType": "uint256",
          "name": "amount",
          "type": "uint256"
        },
        {
          "internalType": "contract IERC20",
          "name": "target",
          "type": "address"
        }
      ],
      "name": "convert",
      "outputs": [
        {
          "internalType": "uint256",
          "name": "",
          "type": "uint256"
        }
      ],
      "stateMutability": "pure",
      "type": "function"
    },
    {
      "inputs": [
        {
          "internalType": "contract IERC20",
          "name": "source",
          "type": "address"
        },
        {
          "internalType": "uint256",
          "name": "amount",
          "type": "uint256"
        },
        {
          "internalType": "contract IERC20",
          "name": "target",
          "type": "address"
        }
      ],
      "name": "estimateConvert",
      "outputs": [
        {
          "internalType": "uint256",
          "name": "",
          "type": "uint256"
        }
      ],
      "stateMutability": "pure",
      "type": "function"
    }
  ],
  "bytecode": "0x608060405234801561001057600080fd5b5061019d806100206000396000f3fe608060405234801561001057600080fd5b50600436106100365760003560e01c8063029b465d1461003b57806329fb92ce1461003b575b600080fd5b61004e61004936600461012c565b610060565b60405190815260200160405180910390f35b60008173ffffffffffffffffffffffffffffffffffffffff168473ffffffffffffffffffffffffffffffffffffffff16146100fb576040517f08c379a000000000000000000000000000000000000000000000000000000000815260206004820152600d60248201527f4e6f7420737570706f7274656400000000000000000000000000000000000000604482015260640160405180910390fd5b509092915050565b803573ffffffffffffffffffffffffffffffffffffffff8116811461012757600080fd5b919050565b600080600060608486031215610140578283fd5b61014984610103565b92506020840135915061015e60408501610103565b9050925092509256fea264697066735822122001d4e689dd318e0506386e78cdac51678a2bc6b2053e08abc734228e1ddf470a64736f6c63430008040033",
  "linkReferences": {},
  "deployedLinkReferences": {}
}