{
  "_format": "hh-sol-artifact-1",
  "contractName": "BorrowToken",
  "sourceName": "contracts/BorrowToken.sol",
  "abi": [
    {
      "anonymous": false,
      "inputs": [
        {
          "indexed": true,
          "internalType": "address",
          "name": "owner",
          "type": "address"
        },
        {
          "indexed": true,
          "internalType": "address",
          "name": "approved",
          "type": "address"
        },
        {
          "indexed": true,
          "internalType": "uint256",
          "name": "tokenId",
          "type": "uint256"
        }
      ],
      "name": "Approval",
      "type": "event"
    },
    {
      "anonymous": false,
      "inputs": [
        {
          "indexed": true,
          "internalType": "address",
          "name": "owner",
          "type": "address"
        },
        {
          "indexed": true,
          "internalType": "address",
          "name": "operator",
          "type": "address"
        },
        {
          "indexed": false,
          "internalType": "bool",
          "name": "approved",
          "type": "bool"
        }
      ],
      "name": "ApprovalForAll",
      "type": "event"
    },
    {
      "anonymous": false,
      "inputs": [
        {
          "indexed": true,
          "internalType": "address",
          "name": "previousOwner",
          "type": "address"
        },
        {
          "indexed": true,
          "internalType": "address",
          "name": "newOwner",
          "type": "address"
        }
      ],
      "name": "OwnershipTransferred",
      "type": "event"
    },
    {
      "anonymous": false,
      "inputs": [
        {
          "indexed": true,
          "internalType": "address",
          "name": "from",
          "type": "address"
        },
        {
          "indexed": true,
          "internalType": "address",
          "name": "to",
          "type": "address"
        },
        {
          "indexed": true,
          "internalType": "uint256",
          "name": "tokenId",
          "type": "uint256"
        }
      ],
      "name": "Transfer",
      "type": "event"
    },
    {
      "inputs": [
        {
          "internalType": "address",
          "name": "to",
          "type": "address"
        },
        {
          "internalType": "uint256",
          "name": "tokenId",
          "type": "uint256"
        }
      ],
      "name": "approve",
      "outputs": [],
      "stateMutability": "nonpayable",
      "type": "function"
    },
    {
      "inputs": [
        {
          "internalType": "address",
          "name": "owner",
          "type": "address"
        }
      ],
      "name": "balanceOf",
      "outputs": [
        {
          "internalType": "uint256",
          "name": "",
          "type": "uint256"
        }
      ],
      "stateMutability": "view",
      "type": "function"
    },
    {
      "inputs": [
        {
          "internalType": "uint256",
          "name": "tokenId",
          "type": "uint256"
        },
        {
          "internalType": "address",
          "name": "burner",
          "type": "address"
        }
      ],
      "name": "burn",
      "outputs": [],
      "stateMutability": "nonpayable",
      "type": "function"
    },
    {
      "inputs": [
        {
          "internalType": "uint256",
          "name": "tokenId",
          "type": "uint256"
        }
      ],
      "name": "getApproved",
      "outputs": [
        {
          "internalType": "address",
          "name": "",
          "type": "address"
        }
      ],
      "stateMutability": "view",
      "type": "function"
    },
    {
      "inputs": [],
      "name": "getCounter",
      "outputs": [
        {
          "internalType": "uint256",
          "name": "",
          "type": "uint256"
        }
      ],
      "stateMutability": "view",
      "type": "function"
    },
    {
      "inputs": [
        {
          "internalType": "string",
          "name": "name",
          "type": "string"
        },
        {
          "internalType": "string",
          "name": "symbol",
          "type": "string"
        },
        {
          "internalType": "contract Enterprise",
          "name": "enterprise",
          "type": "address"
        }
      ],
      "name": "initialize",
      "outputs": [],
      "stateMutability": "nonpayable",
      "type": "function"
    },
    {
      "inputs": [
        {
          "internalType": "string",
          "name": "name_",
          "type": "string"
        },
        {
          "internalType": "string",
          "name": "symbol_",
          "type": "string"
        }
      ],
      "name": "initialize",
      "outputs": [],
      "stateMutability": "nonpayable",
      "type": "function"
    },
    {
      "inputs": [
        {
          "internalType": "address",
          "name": "initialOwner",
          "type": "address"
        }
      ],
      "name": "initialize",
      "outputs": [],
      "stateMutability": "nonpayable",
      "type": "function"
    },
    {
      "inputs": [
        {
          "internalType": "address",
          "name": "owner",
          "type": "address"
        },
        {
          "internalType": "address",
          "name": "operator",
          "type": "address"
        }
      ],
      "name": "isApprovedForAll",
      "outputs": [
        {
          "internalType": "bool",
          "name": "",
          "type": "bool"
        }
      ],
      "stateMutability": "view",
      "type": "function"
    },
    {
      "inputs": [
        {
          "internalType": "address",
          "name": "to",
          "type": "address"
        }
      ],
      "name": "mint",
      "outputs": [
        {
          "internalType": "uint256",
          "name": "",
          "type": "uint256"
        }
      ],
      "stateMutability": "nonpayable",
      "type": "function"
    },
    {
      "inputs": [],
      "name": "name",
      "outputs": [
        {
          "internalType": "string",
          "name": "",
          "type": "string"
        }
      ],
      "stateMutability": "view",
      "type": "function"
    },
    {
      "inputs": [],
      "name": "owner",
      "outputs": [
        {
          "internalType": "address",
          "name": "",
          "type": "address"
        }
      ],
      "stateMutability": "view",
      "type": "function"
    },
    {
      "inputs": [
        {
          "internalType": "uint256",
          "name": "tokenId",
          "type": "uint256"
        }
      ],
      "name": "ownerOf",
      "outputs": [
        {
          "internalType": "address",
          "name": "",
          "type": "address"
        }
      ],
      "stateMutability": "view",
      "type": "function"
    },
    {
      "inputs": [
        {
          "internalType": "address",
          "name": "from",
          "type": "address"
        },
        {
          "internalType": "address",
          "name": "to",
          "type": "address"
        },
        {
          "internalType": "uint256",
          "name": "tokenId",
          "type": "uint256"
        }
      ],
      "name": "safeTransferFrom",
      "outputs": [],
      "stateMutability": "nonpayable",
      "type": "function"
    },
    {
      "inputs": [
        {
          "internalType": "address",
          "name": "from",
          "type": "address"
        },
        {
          "internalType": "address",
          "name": "to",
          "type": "address"
        },
        {
          "internalType": "uint256",
          "name": "tokenId",
          "type": "uint256"
        },
        {
          "internalType": "bytes",
          "name": "_data",
          "type": "bytes"
        }
      ],
      "name": "safeTransferFrom",
      "outputs": [],
      "stateMutability": "nonpayable",
      "type": "function"
    },
    {
      "inputs": [
        {
          "internalType": "address",
          "name": "operator",
          "type": "address"
        },
        {
          "internalType": "bool",
          "name": "approved",
          "type": "bool"
        }
      ],
      "name": "setApprovalForAll",
      "outputs": [],
      "stateMutability": "nonpayable",
      "type": "function"
    },
    {
      "inputs": [
        {
          "internalType": "bytes4",
          "name": "interfaceId",
          "type": "bytes4"
        }
      ],
      "name": "supportsInterface",
      "outputs": [
        {
          "internalType": "bool",
          "name": "",
          "type": "bool"
        }
      ],
      "stateMutability": "view",
      "type": "function"
    },
    {
      "inputs": [],
      "name": "symbol",
      "outputs": [
        {
          "internalType": "string",
          "name": "",
          "type": "string"
        }
      ],
      "stateMutability": "view",
      "type": "function"
    },
    {
      "inputs": [
        {
          "internalType": "uint256",
          "name": "index",
          "type": "uint256"
        }
      ],
      "name": "tokenByIndex",
      "outputs": [
        {
          "internalType": "uint256",
          "name": "",
          "type": "uint256"
        }
      ],
      "stateMutability": "view",
      "type": "function"
    },
    {
      "inputs": [
        {
          "internalType": "address",
          "name": "owner",
          "type": "address"
        },
        {
          "internalType": "uint256",
          "name": "index",
          "type": "uint256"
        }
      ],
      "name": "tokenOfOwnerByIndex",
      "outputs": [
        {
          "internalType": "uint256",
          "name": "",
          "type": "uint256"
        }
      ],
      "stateMutability": "view",
      "type": "function"
    },
    {
      "inputs": [
        {
          "internalType": "uint256",
          "name": "tokenId",
          "type": "uint256"
        }
      ],
      "name": "tokenURI",
      "outputs": [
        {
          "internalType": "string",
          "name": "",
          "type": "string"
        }
      ],
      "stateMutability": "view",
      "type": "function"
    },
    {
      "inputs": [],
      "name": "totalSupply",
      "outputs": [
        {
          "internalType": "uint256",
          "name": "",
          "type": "uint256"
        }
      ],
      "stateMutability": "view",
      "type": "function"
    },
    {
      "inputs": [
        {
          "internalType": "address",
          "name": "from",
          "type": "address"
        },
        {
          "internalType": "address",
          "name": "to",
          "type": "address"
        },
        {
          "internalType": "uint256",
          "name": "tokenId",
          "type": "uint256"
        }
      ],
      "name": "transferFrom",
      "outputs": [],
      "stateMutability": "nonpayable",
      "type": "function"
    },
    {
      "inputs": [
        {
          "internalType": "address",
          "name": "newOwner",
          "type": "address"
        }
      ],
      "name": "transferOwnership",
      "outputs": [],
      "stateMutability": "nonpayable",
      "type": "function"
    }
  ],
  "bytecode": "0x60806040526001600c5534801561001557600080fd5b50612961806100256000396000f3fe608060405234801561001057600080fd5b50600436106101985760003560e01c80636a627842116100e3578063b88d4fde1161008c578063e985e9c511610066578063e985e9c514610344578063f2fde38b14610380578063fcd3533c1461039357600080fd5b8063b88d4fde1461030b578063c4d66de81461031e578063c87b56dd1461033157600080fd5b80638da5cb5b116100bd5780638da5cb5b146102df57806395d89b41146102f0578063a22cb465146102f857600080fd5b80636a627842146102b157806370a08231146102c45780638ada066e146102d757600080fd5b806323b872dd116101455780634cd88b761161011f5780634cd88b76146102785780634f6ccce71461028b5780636352211e1461029e57600080fd5b806323b872dd1461023f5780632f745c591461025257806342842e0e1461026557600080fd5b8063081812fc11610176578063081812fc146101ef578063095ea7b31461021a57806318160ddd1461022d57600080fd5b806301ffc9a71461019d57806306fdde03146101c5578063077f224a146101da575b600080fd5b6101b06101ab3660046123f3565b6103a6565b60405190151581526020015b60405180910390f35b6101cd6103ea565b6040516101bc9190612768565b6101ed6101e83660046124ff565b61047c565b005b6102026101fd366004612638565b6104b3565b6040516001600160a01b0390911681526020016101bc565b6101ed6102283660046123ac565b61054d565b6009545b6040519081526020016101bc565b6101ed61024d3660046122c2565b61067f565b6102316102603660046123ac565b610706565b6101ed6102733660046122c2565b6107ae565b6101ed61028636600461249e565b6107c9565b610231610299366004612638565b61084c565b6102026102ac366004612638565b6108fe565b6102316102bf366004612252565b610989565b6102316102d2366004612252565b610a0f565b600c54610231565b6000546001600160a01b0316610202565b6101cd610aa9565b6101ed61030636600461237f565b610ab8565b6101ed610319366004612302565b610b7d565b6101ed61032c366004612252565b610c0b565b6101cd61033f366004612638565b610cd5565b6101b061035236600461228a565b6001600160a01b03918216600090815260066020908152604080832093909416825291909152205460ff1690565b6101ed61038e366004612252565b610dbe565b6101ed6103a1366004612650565b610eef565b60006001600160e01b031982167f780e9d630000000000000000000000000000000000000000000000000000000014806103e457506103e4826110c1565b92915050565b6060600180546103f990612843565b80601f016020809104026020016040519081016040528092919081815260200182805461042590612843565b80156104725780601f1061044757610100808354040283529160200191610472565b820191906000526020600020905b81548152906001019060200180831161045557829003601f168201915b5050505050905090565b61048581610c0b565b61048f83836107c9565b600b80546001600160a01b0319166001600160a01b03929092169190911790555050565b6000818152600360205260408120546001600160a01b03166105315760405162461bcd60e51b815260206004820152602c60248201527f4552433732313a20617070726f76656420717565727920666f72206e6f6e657860448201526b34b9ba32b73a103a37b5b2b760a11b60648201526084015b60405180910390fd5b506000908152600560205260409020546001600160a01b031690565b6000610558826108fe565b9050806001600160a01b0316836001600160a01b031614156105e25760405162461bcd60e51b815260206004820152602160248201527f4552433732313a20617070726f76616c20746f2063757272656e74206f776e6560448201527f72000000000000000000000000000000000000000000000000000000000000006064820152608401610528565b336001600160a01b03821614806105fe57506105fe8133610352565b6106705760405162461bcd60e51b815260206004820152603860248201527f4552433732313a20617070726f76652063616c6c6572206973206e6f74206f7760448201527f6e6572206e6f7220617070726f76656420666f7220616c6c00000000000000006064820152608401610528565b61067a838361115c565b505050565b61068933826111ca565b6106fb5760405162461bcd60e51b815260206004820152603160248201527f4552433732313a207472616e736665722063616c6c6572206973206e6f74206f60448201527f776e6572206e6f7220617070726f7665640000000000000000000000000000006064820152608401610528565b61067a8383836112c1565b600061071183610a0f565b82106107855760405162461bcd60e51b815260206004820152602b60248201527f455243373231456e756d657261626c653a206f776e657220696e646578206f7560448201527f74206f6620626f756e64730000000000000000000000000000000000000000006064820152608401610528565b506001600160a01b03919091166000908152600760209081526040808320938352929052205490565b61067a83838360405180602001604052806000815250610b7d565b600180546107d690612843565b1590506108255760405162461bcd60e51b815260206004820152601360248201527f416c726561647920696e697469616c697a6564000000000000000000000000006044820152606401610528565b8151610838906001906020850190612118565b50805161067a906002906020840190612118565b600061085760095490565b82106108cb5760405162461bcd60e51b815260206004820152602c60248201527f455243373231456e756d657261626c653a20676c6f62616c20696e646578206f60448201527f7574206f6620626f756e647300000000000000000000000000000000000000006064820152608401610528565b600982815481106108ec57634e487b7160e01b600052603260045260246000fd5b90600052602060002001549050919050565b6000818152600360205260408120546001600160a01b0316806103e45760405162461bcd60e51b815260206004820152602960248201527f4552433732313a206f776e657220717565727920666f72206e6f6e657869737460448201527f656e7420746f6b656e00000000000000000000000000000000000000000000006064820152608401610528565b600080546001600160a01b031633146109e45760405162461bcd60e51b815260206004820181905260248201527f4f776e61626c653a2063616c6c6572206973206e6f7420746865206f776e65726044820152606401610528565b600c546109f18382611499565b600c8054906000610a018361287e565b90915550909150505b919050565b60006001600160a01b038216610a8d5760405162461bcd60e51b815260206004820152602a60248201527f4552433732313a2062616c616e636520717565727920666f7220746865207a6560448201527f726f2061646472657373000000000000000000000000000000000000000000006064820152608401610528565b506001600160a01b031660009081526004602052604090205490565b6060600280546103f990612843565b6001600160a01b038216331415610b115760405162461bcd60e51b815260206004820152601960248201527f4552433732313a20617070726f766520746f2063616c6c6572000000000000006044820152606401610528565b3360008181526006602090815260408083206001600160a01b03871680855290835292819020805460ff191686151590811790915590519081529192917f17307eab39ab6107e8899845ad3d59bd9653f200f220920489ca2b5937696c31910160405180910390a35050565b610b8733836111ca565b610bf95760405162461bcd60e51b815260206004820152603160248201527f4552433732313a207472616e736665722063616c6c6572206973206e6f74206f60448201527f776e6572206e6f7220617070726f7665640000000000000000000000000000006064820152608401610528565b610c05848484846114b7565b50505050565b6000546001600160a01b031615610c8a5760405162461bcd60e51b815260206004820152602960248201527f496e697469616c697a61626c654f776e61626c653a20616c726561647920696e60448201527f697469616c697a656400000000000000000000000000000000000000000000006064820152608401610528565b600080546001600160a01b0319166001600160a01b03831690811782556040519091907f8be0079c531659141344cd1fd0a4f28419497f9722a3daafe3b4186f6b6457e0908290a350565b6000818152600360205260409020546060906001600160a01b0316610d625760405162461bcd60e51b815260206004820152602f60248201527f4552433732314d657461646174613a2055524920717565727920666f72206e6f60448201527f6e6578697374656e7420746f6b656e00000000000000000000000000000000006064820152608401610528565b6000610d6c611535565b90506000815111610d8c5760405180602001604052806000815250610db7565b80610d968461160a565b604051602001610da79291906126bc565b6040516020818303038152906040525b9392505050565b6000546001600160a01b03163314610e185760405162461bcd60e51b815260206004820181905260248201527f4f776e61626c653a2063616c6c6572206973206e6f7420746865206f776e65726044820152606401610528565b6001600160a01b038116610e945760405162461bcd60e51b815260206004820152602660248201527f4f776e61626c653a206e6577206f776e657220697320746865207a65726f206160448201527f64647265737300000000000000000000000000000000000000000000000000006064820152608401610528565b600080546040516001600160a01b03808516939216917f8be0079c531659141344cd1fd0a4f28419497f9722a3daafe3b4186f6b6457e091a3600080546001600160a01b0319166001600160a01b0392909216919091179055565b6000546001600160a01b03163314610f495760405162461bcd60e51b815260206004820181905260248201527f4f776e61626c653a2063616c6c6572206973206e6f7420746865206f776e65726044820152606401610528565b610f5282611758565b600b546040517f0714012c000000000000000000000000000000000000000000000000000000008152600481018490526000916001600160a01b031690630714012c906024016101006040518083038186803b158015610fb157600080fd5b505afa158015610fc5573d6000803e3d6000fd5b505050506040513d601f19601f82011682018060405250810190610fe99190612574565b600b5460e08201516040517f96ea297500000000000000000000000000000000000000000000000000000000815261ffff90911660048201529192506000916001600160a01b03909116906396ea29759060240160206040518083038186803b15801561105557600080fd5b505afa158015611069573d6000803e3d6000fd5b505050506040513d601f19601f8201168201806040525081019061108d919061226e565b9050610c05838360c001516dffffffffffffffffffffffffffff16836001600160a01b03166117ff9092919063ffffffff16565b60006001600160e01b031982167f80ac58cd00000000000000000000000000000000000000000000000000000000148061112457506001600160e01b031982167f5b5e139f00000000000000000000000000000000000000000000000000000000145b806103e457507f01ffc9a7000000000000000000000000000000000000000000000000000000006001600160e01b03198316146103e4565b600081815260056020526040902080546001600160a01b0319166001600160a01b0384169081179091558190611191826108fe565b6001600160a01b03167f8c5be1e5ebec7d5bd14f71427d1e84f3dd0314c0f7b2291e5b200ac8c7c3b92560405160405180910390a45050565b6000818152600360205260408120546001600160a01b03166112435760405162461bcd60e51b815260206004820152602c60248201527f4552433732313a206f70657261746f7220717565727920666f72206e6f6e657860448201526b34b9ba32b73a103a37b5b2b760a11b6064820152608401610528565b600061124e836108fe565b9050806001600160a01b0316846001600160a01b031614806112895750836001600160a01b031661127e846104b3565b6001600160a01b0316145b806112b957506001600160a01b0380821660009081526006602090815260408083209388168352929052205460ff165b949350505050565b826001600160a01b03166112d4826108fe565b6001600160a01b0316146113505760405162461bcd60e51b815260206004820152602960248201527f4552433732313a207472616e73666572206f6620746f6b656e2074686174206960448201527f73206e6f74206f776e00000000000000000000000000000000000000000000006064820152608401610528565b6001600160a01b0382166113cb5760405162461bcd60e51b8152602060048201526024808201527f4552433732313a207472616e7366657220746f20746865207a65726f2061646460448201527f72657373000000000000000000000000000000000000000000000000000000006064820152608401610528565b6113d683838361187f565b6113e160008261115c565b6001600160a01b038316600090815260046020526040812080546001929061140a908490612800565b90915550506001600160a01b03821660009081526004602052604081208054600192906114389084906127d4565b909155505060008181526003602052604080822080546001600160a01b0319166001600160a01b0386811691821790925591518493918716917fddf252ad1be2c89b69c2b068fc378daa952ba7f163c4a11628f55a4df523b3ef91a4505050565b6114b3828260405180602001604052806000815250611916565b5050565b6114c28484846112c1565b6114ce84848484611994565b610c055760405162461bcd60e51b815260206004820152603260248201527f4552433732313a207472616e7366657220746f206e6f6e20455243373231526560448201527131b2b4bb32b91034b6b83632b6b2b73a32b960711b6064820152608401610528565b60606000600b60009054906101000a90046001600160a01b03166001600160a01b0316630cac36b26040518163ffffffff1660e01b815260040160006040518083038186803b15801561158757600080fd5b505afa15801561159b573d6000803e3d6000fd5b505050506040513d6000823e601f3d908101601f191682016040526115c3919081019061242b565b905060008151116115e35760405180602001604052806000815250611604565b806040516020016115f491906126eb565b6040516020818303038152906040525b91505090565b60608161164a57505060408051808201909152600181527f3000000000000000000000000000000000000000000000000000000000000000602082015290565b8160005b8115611674578061165e8161287e565b915061166d9050600a836127ec565b915061164e565b60008167ffffffffffffffff81111561169d57634e487b7160e01b600052604160045260246000fd5b6040519080825280601f01601f1916602001820160405280156116c7576020820181803683370190505b5090505b84156112b9576116dc600183612800565b91506116e9600a86612899565b6116f49060306127d4565b60f81b81838151811061171757634e487b7160e01b600052603260045260246000fd5b60200101907effffffffffffffffffffffffffffffffffffffffffffffffffffffffffffff1916908160001a905350611751600a866127ec565b94506116cb565b6000611763826108fe565b90506117718160008461187f565b61177c60008361115c565b6001600160a01b03811660009081526004602052604081208054600192906117a5908490612800565b909155505060008281526003602052604080822080546001600160a01b0319169055518391906001600160a01b038416907fddf252ad1be2c89b69c2b068fc378daa952ba7f163c4a11628f55a4df523b3ef908390a45050565b604080516001600160a01b038416602482015260448082018490528251808303909101815260649091019091526020810180517bffffffffffffffffffffffffffffffffffffffffffffffffffffffff167fa9059cbb0000000000000000000000000000000000000000000000000000000017905261067a908490611aec565b61188a838383611bd1565b600b546040517f512a53bc0000000000000000000000000000000000000000000000000000000081526001600160a01b0385811660048301528481166024830152604482018490529091169063512a53bc90606401600060405180830381600087803b1580156118f957600080fd5b505af115801561190d573d6000803e3d6000fd5b50505050505050565b6119208383611c89565b61192d6000848484611994565b61067a5760405162461bcd60e51b815260206004820152603260248201527f4552433732313a207472616e7366657220746f206e6f6e20455243373231526560448201527131b2b4bb32b91034b6b83632b6b2b73a32b960711b6064820152608401610528565b60006001600160a01b0384163b15611ae157604051630a85bd0160e11b81526001600160a01b0385169063150b7a02906119d890339089908890889060040161272c565b602060405180830381600087803b1580156119f257600080fd5b505af1925050508015611a22575060408051601f3d908101601f19168201909252611a1f9181019061240f565b60015b611ac7573d808015611a50576040519150601f19603f3d011682016040523d82523d6000602084013e611a55565b606091505b508051611abf5760405162461bcd60e51b815260206004820152603260248201527f4552433732313a207472616e7366657220746f206e6f6e20455243373231526560448201527131b2b4bb32b91034b6b83632b6b2b73a32b960711b6064820152608401610528565b805181602001fd5b6001600160e01b031916630a85bd0160e11b1490506112b9565b506001949350505050565b6000611b41826040518060400160405280602081526020017f5361666545524332303a206c6f772d6c6576656c2063616c6c206661696c6564815250856001600160a01b0316611dd79092919063ffffffff16565b80519091501561067a5780806020019051810190611b5f91906123d7565b61067a5760405162461bcd60e51b815260206004820152602a60248201527f5361666545524332303a204552433230206f7065726174696f6e20646964206e60448201527f6f742073756363656564000000000000000000000000000000000000000000006064820152608401610528565b6001600160a01b038316611c2c57611c2781600980546000838152600a60205260408120829055600182018355919091527f6e1540171b6c0c960b71a7020d9f60077f6af931a8bbf590da0223dacf75c7af0155565b611c4f565b816001600160a01b0316836001600160a01b031614611c4f57611c4f8382611de6565b6001600160a01b038216611c665761067a81611e83565b826001600160a01b0316826001600160a01b03161461067a5761067a8282611f5c565b6001600160a01b038216611cdf5760405162461bcd60e51b815260206004820181905260248201527f4552433732313a206d696e7420746f20746865207a65726f20616464726573736044820152606401610528565b6000818152600360205260409020546001600160a01b031615611d445760405162461bcd60e51b815260206004820152601c60248201527f4552433732313a20746f6b656e20616c7265616479206d696e746564000000006044820152606401610528565b611d506000838361187f565b6001600160a01b0382166000908152600460205260408120805460019290611d799084906127d4565b909155505060008181526003602052604080822080546001600160a01b0319166001600160a01b03861690811790915590518392907fddf252ad1be2c89b69c2b068fc378daa952ba7f163c4a11628f55a4df523b3ef908290a45050565b60606112b98484600085611fa0565b60006001611df384610a0f565b611dfd9190612800565b600083815260086020526040902054909150808214611e50576001600160a01b03841660009081526007602090815260408083208584528252808320548484528184208190558352600890915290208190555b5060009182526008602090815260408084208490556001600160a01b039094168352600781528383209183525290812055565b600954600090611e9590600190612800565b6000838152600a602052604081205460098054939450909284908110611ecb57634e487b7160e01b600052603260045260246000fd5b906000526020600020015490508060098381548110611efa57634e487b7160e01b600052603260045260246000fd5b6000918252602080832090910192909255828152600a90915260408082208490558582528120556009805480611f4057634e487b7160e01b600052603160045260246000fd5b6001900381819060005260206000200160009055905550505050565b6000611f6783610a0f565b6001600160a01b039093166000908152600760209081526040808320868452825280832085905593825260089052919091209190915550565b6060824710156120185760405162461bcd60e51b815260206004820152602660248201527f416464726573733a20696e73756666696369656e742062616c616e636520666f60448201527f722063616c6c00000000000000000000000000000000000000000000000000006064820152608401610528565b843b6120665760405162461bcd60e51b815260206004820152601d60248201527f416464726573733a2063616c6c20746f206e6f6e2d636f6e74726163740000006044820152606401610528565b600080866001600160a01b0316858760405161208291906126a0565b60006040518083038185875af1925050503d80600081146120bf576040519150601f19603f3d011682016040523d82523d6000602084013e6120c4565b606091505b50915091506120d48282866120df565b979650505050505050565b606083156120ee575081610db7565b8251156120fe5782518084602001fd5b8160405162461bcd60e51b81526004016105289190612768565b82805461212490612843565b90600052602060002090601f016020900481019282612146576000855561218c565b82601f1061215f57805160ff191683800117855561218c565b8280016001018555821561218c579182015b8281111561218c578251825591602001919060010190612171565b5061219892915061219c565b5090565b5b80821115612198576000815560010161219d565b60006121c46121bf846127ac565b61277b565b90508281528383830111156121d857600080fd5b828260208301376000602084830101529392505050565b600082601f8301126121ff578081fd5b610db7838335602085016121b1565b80516dffffffffffffffffffffffffffff81168114610a0a57600080fd5b805161ffff81168114610a0a57600080fd5b805163ffffffff81168114610a0a57600080fd5b600060208284031215612263578081fd5b8135610db7816128ef565b60006020828403121561227f578081fd5b8151610db7816128ef565b6000806040838503121561229c578081fd5b82356122a7816128ef565b915060208301356122b7816128ef565b809150509250929050565b6000806000606084860312156122d6578081fd5b83356122e1816128ef565b925060208401356122f1816128ef565b929592945050506040919091013590565b60008060008060808587031215612317578081fd5b8435612322816128ef565b93506020850135612332816128ef565b925060408501359150606085013567ffffffffffffffff811115612354578182fd5b8501601f81018713612364578182fd5b612373878235602084016121b1565b91505092959194509250565b60008060408385031215612391578182fd5b823561239c816128ef565b915060208301356122b781612907565b600080604083850312156123be578081fd5b82356123c9816128ef565b946020939093013593505050565b6000602082840312156123e8578081fd5b8151610db781612907565b600060208284031215612404578081fd5b8135610db781612915565b600060208284031215612420578081fd5b8151610db781612915565b60006020828403121561243c578081fd5b815167ffffffffffffffff811115612452578182fd5b8201601f81018413612462578182fd5b80516124706121bf826127ac565b818152856020838501011115612484578384fd5b612495826020830160208601612817565b95945050505050565b600080604083850312156124b0578182fd5b823567ffffffffffffffff808211156124c7578384fd5b6124d3868387016121ef565b935060208501359150808211156124e8578283fd5b506124f5858286016121ef565b9150509250929050565b600080600060608486031215612513578081fd5b833567ffffffffffffffff8082111561252a578283fd5b612536878388016121ef565b9450602086013591508082111561254b578283fd5b50612558868287016121ef565b9250506040840135612569816128ef565b809150509250925092565b6000610100808385031215612587578182fd5b6040519081019067ffffffffffffffff821181831017156125aa576125aa6128d9565b816040526125b78461220e565b81526125c56020850161222c565b60208201526125d66040850161223e565b60408201526125e76060850161223e565b60608201526125f86080850161223e565b608082015261260960a0850161223e565b60a082015261261a60c0850161220e565b60c082015261262b60e0850161222c565b60e0820152949350505050565b600060208284031215612649578081fd5b5035919050565b60008060408385031215612662578182fd5b8235915060208301356122b7816128ef565b6000815180845261268c816020860160208601612817565b601f01601f19169290920160200192915050565b600082516126b2818460208701612817565b9190910192915050565b600083516126ce818460208801612817565b8351908301906126e2818360208801612817565b01949350505050565b600082516126fd818460208701612817565b7f626f72726f772f00000000000000000000000000000000000000000000000000920191825250600701919050565b60006001600160a01b0380871683528086166020840152508360408301526080606083015261275e6080830184612674565b9695505050505050565b602081526000610db76020830184612674565b604051601f8201601f1916810167ffffffffffffffff811182821017156127a4576127a46128d9565b604052919050565b600067ffffffffffffffff8211156127c6576127c66128d9565b50601f01601f191660200190565b600082198211156127e7576127e76128ad565b500190565b6000826127fb576127fb6128c3565b500490565b600082821015612812576128126128ad565b500390565b60005b8381101561283257818101518382015260200161281a565b83811115610c055750506000910152565b600181811c9082168061285757607f821691505b6020821081141561287857634e487b7160e01b600052602260045260246000fd5b50919050565b6000600019821415612892576128926128ad565b5060010190565b6000826128a8576128a86128c3565b500690565b634e487b7160e01b600052601160045260246000fd5b634e487b7160e01b600052601260045260246000fd5b634e487b7160e01b600052604160045260246000fd5b6001600160a01b038116811461290457600080fd5b50565b801515811461290457600080fd5b6001600160e01b03198116811461290457600080fdfea2646970667358221220dd90615df2daf1390ac6198805cf1eb60b6b6208612315390b5708f8783809a664736f6c63430008040033",
  "linkReferences": {},
  "deployedLinkReferences": {}
}