{
  "_format": "hh-sol-artifact-1",
  "contractName": "BorrowToken",
  "sourceName": "contracts/BorrowToken.sol",
  "abi": [
    {
      "anonymous": false,
      "inputs": [
        {
          "indexed": true,
          "internalType": "address",
          "name": "owner",
          "type": "address"
        },
        {
          "indexed": true,
          "internalType": "address",
          "name": "approved",
          "type": "address"
        },
        {
          "indexed": true,
          "internalType": "uint256",
          "name": "tokenId",
          "type": "uint256"
        }
      ],
      "name": "Approval",
      "type": "event"
    },
    {
      "anonymous": false,
      "inputs": [
        {
          "indexed": true,
          "internalType": "address",
          "name": "owner",
          "type": "address"
        },
        {
          "indexed": true,
          "internalType": "address",
          "name": "operator",
          "type": "address"
        },
        {
          "indexed": false,
          "internalType": "bool",
          "name": "approved",
          "type": "bool"
        }
      ],
      "name": "ApprovalForAll",
      "type": "event"
    },
    {
      "anonymous": false,
      "inputs": [
        {
          "indexed": true,
          "internalType": "address",
          "name": "from",
          "type": "address"
        },
        {
          "indexed": true,
          "internalType": "address",
          "name": "to",
          "type": "address"
        },
        {
          "indexed": true,
          "internalType": "uint256",
          "name": "tokenId",
          "type": "uint256"
        }
      ],
      "name": "Transfer",
      "type": "event"
    },
    {
      "inputs": [
        {
          "internalType": "address",
          "name": "to",
          "type": "address"
        },
        {
          "internalType": "uint256",
          "name": "tokenId",
          "type": "uint256"
        }
      ],
      "name": "approve",
      "outputs": [],
      "stateMutability": "nonpayable",
      "type": "function"
    },
    {
      "inputs": [
        {
          "internalType": "address",
          "name": "owner",
          "type": "address"
        }
      ],
      "name": "balanceOf",
      "outputs": [
        {
          "internalType": "uint256",
          "name": "",
          "type": "uint256"
        }
      ],
      "stateMutability": "view",
      "type": "function"
    },
    {
      "inputs": [
        {
          "internalType": "uint256",
          "name": "tokenId",
          "type": "uint256"
        },
        {
          "internalType": "address",
          "name": "burner",
          "type": "address"
        }
      ],
      "name": "burn",
      "outputs": [],
      "stateMutability": "nonpayable",
      "type": "function"
    },
    {
      "inputs": [
        {
          "internalType": "uint256",
          "name": "tokenId",
          "type": "uint256"
        }
      ],
      "name": "getApproved",
      "outputs": [
        {
          "internalType": "address",
          "name": "",
          "type": "address"
        }
      ],
      "stateMutability": "view",
      "type": "function"
    },
    {
      "inputs": [],
      "name": "getEnterprise",
      "outputs": [
        {
          "internalType": "contract Enterprise",
          "name": "",
          "type": "address"
        }
      ],
      "stateMutability": "view",
      "type": "function"
    },
    {
      "inputs": [],
      "name": "getNextTokenId",
      "outputs": [
        {
          "internalType": "uint256",
          "name": "",
          "type": "uint256"
        }
      ],
      "stateMutability": "view",
      "type": "function"
    },
    {
      "inputs": [
        {
          "internalType": "string",
          "name": "name",
          "type": "string"
        },
        {
          "internalType": "string",
          "name": "symbol",
          "type": "string"
        },
        {
          "internalType": "contract Enterprise",
          "name": "enterprise",
          "type": "address"
        }
      ],
      "name": "initialize",
      "outputs": [],
      "stateMutability": "nonpayable",
      "type": "function"
    },
    {
      "inputs": [
        {
          "internalType": "string",
          "name": "name_",
          "type": "string"
        },
        {
          "internalType": "string",
          "name": "symbol_",
          "type": "string"
        }
      ],
      "name": "initialize",
      "outputs": [],
      "stateMutability": "nonpayable",
      "type": "function"
    },
    {
      "inputs": [
        {
          "internalType": "contract Enterprise",
          "name": "enterprise",
          "type": "address"
        }
      ],
      "name": "initialize",
      "outputs": [],
      "stateMutability": "nonpayable",
      "type": "function"
    },
    {
      "inputs": [
        {
          "internalType": "address",
          "name": "owner",
          "type": "address"
        },
        {
          "internalType": "address",
          "name": "operator",
          "type": "address"
        }
      ],
      "name": "isApprovedForAll",
      "outputs": [
        {
          "internalType": "bool",
          "name": "",
          "type": "bool"
        }
      ],
      "stateMutability": "view",
      "type": "function"
    },
    {
      "inputs": [
        {
          "internalType": "address",
          "name": "to",
          "type": "address"
        }
      ],
      "name": "mint",
      "outputs": [
        {
          "internalType": "uint256",
          "name": "",
          "type": "uint256"
        }
      ],
      "stateMutability": "nonpayable",
      "type": "function"
    },
    {
      "inputs": [],
      "name": "name",
      "outputs": [
        {
          "internalType": "string",
          "name": "",
          "type": "string"
        }
      ],
      "stateMutability": "view",
      "type": "function"
    },
    {
      "inputs": [
        {
          "internalType": "uint256",
          "name": "tokenId",
          "type": "uint256"
        }
      ],
      "name": "ownerOf",
      "outputs": [
        {
          "internalType": "address",
          "name": "",
          "type": "address"
        }
      ],
      "stateMutability": "view",
      "type": "function"
    },
    {
      "inputs": [
        {
          "internalType": "address",
          "name": "from",
          "type": "address"
        },
        {
          "internalType": "address",
          "name": "to",
          "type": "address"
        },
        {
          "internalType": "uint256",
          "name": "tokenId",
          "type": "uint256"
        }
      ],
      "name": "safeTransferFrom",
      "outputs": [],
      "stateMutability": "nonpayable",
      "type": "function"
    },
    {
      "inputs": [
        {
          "internalType": "address",
          "name": "from",
          "type": "address"
        },
        {
          "internalType": "address",
          "name": "to",
          "type": "address"
        },
        {
          "internalType": "uint256",
          "name": "tokenId",
          "type": "uint256"
        },
        {
          "internalType": "bytes",
          "name": "_data",
          "type": "bytes"
        }
      ],
      "name": "safeTransferFrom",
      "outputs": [],
      "stateMutability": "nonpayable",
      "type": "function"
    },
    {
      "inputs": [
        {
          "internalType": "address",
          "name": "operator",
          "type": "address"
        },
        {
          "internalType": "bool",
          "name": "approved",
          "type": "bool"
        }
      ],
      "name": "setApprovalForAll",
      "outputs": [],
      "stateMutability": "nonpayable",
      "type": "function"
    },
    {
      "inputs": [
        {
          "internalType": "bytes4",
          "name": "interfaceId",
          "type": "bytes4"
        }
      ],
      "name": "supportsInterface",
      "outputs": [
        {
          "internalType": "bool",
          "name": "",
          "type": "bool"
        }
      ],
      "stateMutability": "view",
      "type": "function"
    },
    {
      "inputs": [],
      "name": "symbol",
      "outputs": [
        {
          "internalType": "string",
          "name": "",
          "type": "string"
        }
      ],
      "stateMutability": "view",
      "type": "function"
    },
    {
      "inputs": [
        {
          "internalType": "uint256",
          "name": "index",
          "type": "uint256"
        }
      ],
      "name": "tokenByIndex",
      "outputs": [
        {
          "internalType": "uint256",
          "name": "",
          "type": "uint256"
        }
      ],
      "stateMutability": "view",
      "type": "function"
    },
    {
      "inputs": [
        {
          "internalType": "address",
          "name": "owner",
          "type": "address"
        },
        {
          "internalType": "uint256",
          "name": "index",
          "type": "uint256"
        }
      ],
      "name": "tokenOfOwnerByIndex",
      "outputs": [
        {
          "internalType": "uint256",
          "name": "",
          "type": "uint256"
        }
      ],
      "stateMutability": "view",
      "type": "function"
    },
    {
      "inputs": [
        {
          "internalType": "uint256",
          "name": "tokenId",
          "type": "uint256"
        }
      ],
      "name": "tokenURI",
      "outputs": [
        {
          "internalType": "string",
          "name": "",
          "type": "string"
        }
      ],
      "stateMutability": "view",
      "type": "function"
    },
    {
      "inputs": [],
      "name": "totalSupply",
      "outputs": [
        {
          "internalType": "uint256",
          "name": "",
          "type": "uint256"
        }
      ],
      "stateMutability": "view",
      "type": "function"
    },
    {
      "inputs": [
        {
          "internalType": "address",
          "name": "from",
          "type": "address"
        },
        {
          "internalType": "address",
          "name": "to",
          "type": "address"
        },
        {
          "internalType": "uint256",
          "name": "tokenId",
          "type": "uint256"
        }
      ],
      "name": "transferFrom",
      "outputs": [],
      "stateMutability": "nonpayable",
      "type": "function"
    }
  ],
  "bytecode": "0x608060405234801561001057600080fd5b50612446806100206000396000f3fe608060405234801561001057600080fd5b506004361061011d5760003560e01c806301ffc9a71461012257806306fdde031461014a578063077f224a1461015f578063081812fc14610174578063095ea7b31461019f57806318160ddd146101b257806323b872dd146101c45780632f745c59146101d757806342842e0e146101ea5780634cd88b76146101fd5780634f6ccce7146102105780636352211e146102235780636a6278421461023657806370a082311461024957806395d89b411461025c578063a22cb46514610264578063b88d4fde14610277578063c4d66de81461028a578063c87b56dd1461029d578063caa0f92a146102b0578063e298a2fd146102b8578063e985e9c5146102c0578063fcd3533c146102d3575b600080fd5b610135610130366004611de5565b6102e6565b60405190151581526020015b60405180910390f35b610152610311565b6040516101419190612141565b61017261016d366004611eef565b6103a3565b005b610187610182366004612026565b6103bb565b6040516001600160a01b039091168152602001610141565b6101726101ad366004611d9e565b610448565b6009545b604051908152602001610141565b6101726101d2366004611cb5565b610554565b6101b66101e5366004611d9e565b610585565b6101726101f8366004611cb5565b61061b565b61017261020b366004611e8f565b610636565b6101b661021e366004612026565b6106af565b610187610231366004612026565b610750565b6101b6610244366004611c45565b6107c7565b6101b6610257366004611c45565b61081d565b6101526108a4565b610172610272366004611d71565b6108b3565b610172610285366004611cf5565b610974565b610172610298366004611c45565b6109ac565b6101526102ab366004612026565b610a9a565b600b546101b6565b610187610b65565b6101356102ce366004611c7d565b610b74565b6101726102e136600461203e565b610ba2565b60006001600160e01b0319821663780e9d6360e01b148061030b575061030b82610d18565b92915050565b60606001805461032090612308565b80601f016020809104026020016040519081016040528092919081815260200182805461034c90612308565b80156103995780601f1061036e57610100808354040283529160200191610399565b820191906000526020600020905b81548152906001019060200180831161037c57829003601f168201915b5050505050905090565b6103ac816109ac565b6103b68383610636565b505050565b60006103c682610d68565b61042c5760405162461bcd60e51b815260206004820152602c60248201527f4552433732313a20617070726f76656420717565727920666f72206e6f6e657860448201526b34b9ba32b73a103a37b5b2b760a11b60648201526084015b60405180910390fd5b506000908152600560205260409020546001600160a01b031690565b600061045382610750565b9050806001600160a01b0316836001600160a01b031614156104c15760405162461bcd60e51b815260206004820152602160248201527f4552433732313a20617070726f76616c20746f2063757272656e74206f776e656044820152603960f91b6064820152608401610423565b336001600160a01b03821614806104dd57506104dd8133610b74565b61054a5760405162461bcd60e51b815260206004820152603860248201527f4552433732313a20617070726f76652063616c6c6572206973206e6f74206f776044820152771b995c881b9bdc88185c1c1c9bdd995908199bdc88185b1b60421b6064820152608401610423565b6103b68383610d85565b61055e3382610df3565b61057a5760405162461bcd60e51b8152600401610423906121f1565b6103b6838383610ebd565b60006105908361081d565b82106105f25760405162461bcd60e51b815260206004820152602b60248201527f455243373231456e756d657261626c653a206f776e657220696e646578206f7560448201526a74206f6620626f756e647360a81b6064820152608401610423565b506001600160a01b03919091166000908152600760209081526040808320938352929052205490565b6103b683838360405180602001604052806000815250610974565b6001805461064390612308565b1590506106885760405162461bcd60e51b8152602060048201526013602482015272105b1c9958591e481a5b9a5d1a585b1a5e9959606a1b6044820152606401610423565b815161069b906001906020850190611b12565b5080516103b6906002906020840190611b12565b60006106ba60095490565b821061071d5760405162461bcd60e51b815260206004820152602c60248201527f455243373231456e756d657261626c653a20676c6f62616c20696e646578206f60448201526b7574206f6620626f756e647360a01b6064820152608401610423565b6009828154811061073e57634e487b7160e01b600052603260045260246000fd5b90600052602060002001549050919050565b6000818152600360205260408120546001600160a01b03168061030b5760405162461bcd60e51b815260206004820152602960248201527f4552433732313a206f776e657220717565727920666f72206e6f6e657869737460448201526832b73a103a37b5b2b760b91b6064820152608401610423565b600080546001600160a01b031633146107f25760405162461bcd60e51b8152600401610423906121a6565b600b546107ff8382611056565b600b805490600061080f83612343565b90915550909150505b919050565b60006001600160a01b0382166108885760405162461bcd60e51b815260206004820152602a60248201527f4552433732313a2062616c616e636520717565727920666f7220746865207a65604482015269726f206164647265737360b01b6064820152608401610423565b506001600160a01b031660009081526004602052604090205490565b60606002805461032090612308565b6001600160a01b0382163314156109085760405162461bcd60e51b815260206004820152601960248201527822a9219b99189d1030b8383937bb32903a379031b0b63632b960391b6044820152606401610423565b3360008181526006602090815260408083206001600160a01b03871680855290835292819020805460ff191686151590811790915590519081529192917f17307eab39ab6107e8899845ad3d59bd9653f200f220920489ca2b5937696c31910160405180910390a35050565b61097e3383610df3565b61099a5760405162461bcd60e51b8152600401610423906121f1565b6109a684848484611074565b50505050565b6000546001600160a01b031615610a145760405162461bcd60e51b815260206004820152602660248201527f456e74657270726973654f776e61626c653a20616c726561647920696e697469604482015265185b1a5e995960d21b6064820152608401610423565b6001600160a01b038116610a785760405162461bcd60e51b815260206004820152602560248201527f456e74657270726973654f776e61626c653a20696e76616c696420656e746572604482015264707269736560d81b6064820152608401610423565b600080546001600160a01b0319166001600160a01b0392909216919091179055565b6060610aa582610d68565b610b095760405162461bcd60e51b815260206004820152602f60248201527f4552433732314d657461646174613a2055524920717565727920666f72206e6f60448201526e3732bc34b9ba32b73a103a37b5b2b760891b6064820152608401610423565b6000610b136110a7565b90506000815111610b335760405180602001604052806000815250610b5e565b80610b3d8461116e565b604051602001610b4e9291906120aa565b6040516020818303038152906040525b9392505050565b6000546001600160a01b031690565b6001600160a01b03918216600090815260066020908152604080832093909416825291909152205460ff1690565b6000546001600160a01b03163314610bcc5760405162461bcd60e51b8152600401610423906121a6565b610bd582611287565b6000610bdf610b65565b6040516301c5004b60e21b8152600481018590529091506000906001600160a01b03831690630714012c906024016101006040518083038186803b158015610c2657600080fd5b505afa158015610c3a573d6000803e3d6000fd5b505050506040513d601f19601f82011682018060405250810190610c5e9190611f63565b60e0810151604051627080db60e51b815261ffff90911660048201529091506000906001600160a01b03841690630e101b609060240160206040518083038186803b158015610cac57600080fd5b505afa158015610cc0573d6000803e3d6000fd5b505050506040513d601f19601f82011682018060405250810190610ce49190611c61565b9050610d11848360c001516001600160701b0316836001600160a01b031661131c9092919063ffffffff16565b5050505050565b60006001600160e01b031982166380ac58cd60e01b1480610d4957506001600160e01b03198216635b5e139f60e01b145b8061030b57506301ffc9a760e01b6001600160e01b031983161461030b565b6000908152600360205260409020546001600160a01b0316151590565b600081815260056020526040902080546001600160a01b0319166001600160a01b0384169081179091558190610dba82610750565b6001600160a01b03167f8c5be1e5ebec7d5bd14f71427d1e84f3dd0314c0f7b2291e5b200ac8c7c3b92560405160405180910390a45050565b6000610dfe82610d68565b610e5f5760405162461bcd60e51b815260206004820152602c60248201527f4552433732313a206f70657261746f7220717565727920666f72206e6f6e657860448201526b34b9ba32b73a103a37b5b2b760a11b6064820152608401610423565b6000610e6a83610750565b9050806001600160a01b0316846001600160a01b03161480610ea55750836001600160a01b0316610e9a846103bb565b6001600160a01b0316145b80610eb55750610eb58185610b74565b949350505050565b826001600160a01b0316610ed082610750565b6001600160a01b031614610f385760405162461bcd60e51b815260206004820152602960248201527f4552433732313a207472616e73666572206f6620746f6b656e2074686174206960448201526839903737ba1037bbb760b91b6064820152608401610423565b6001600160a01b038216610f9a5760405162461bcd60e51b8152602060048201526024808201527f4552433732313a207472616e7366657220746f20746865207a65726f206164646044820152637265737360e01b6064820152608401610423565b610fa583838361136e565b610fb0600082610d85565b6001600160a01b0383166000908152600460205260408120805460019290610fd99084906122c5565b90915550506001600160a01b0382166000908152600460205260408120805460019290611007908490612299565b909155505060008181526003602052604080822080546001600160a01b0319166001600160a01b0386811691821790925591518493918716916000805160206123f183398151915291a4505050565b6110708282604051806020016040528060008152506113f2565b5050565b61107f848484610ebd565b61108b84848484611425565b6109a65760405162461bcd60e51b815260040161042390612154565b606060006110b3610b65565b6001600160a01b0316630cac36b26040518163ffffffff1660e01b815260040160006040518083038186803b1580156110eb57600080fd5b505afa1580156110ff573d6000803e3d6000fd5b505050506040513d6000823e601f3d908101601f191682016040526111279190810190611e1d565b905060008151116111475760405180602001604052806000815250611168565b8060405160200161115891906120d9565b6040516020818303038152906040525b91505090565b6060816111925750506040805180820190915260018152600360fc1b602082015290565b8160005b81156111bc57806111a681612343565b91506111b59050600a836122b1565b9150611196565b6000816001600160401b038111156111e457634e487b7160e01b600052604160045260246000fd5b6040519080825280601f01601f19166020018201604052801561120e576020820181803683370190505b5090505b8415610eb5576112236001836122c5565b9150611230600a8661235e565b61123b906030612299565b60f81b81838151811061125e57634e487b7160e01b600052603260045260246000fd5b60200101906001600160f81b031916908160001a905350611280600a866122b1565b9450611212565b600061129282610750565b90506112a08160008461136e565b6112ab600083610d85565b6001600160a01b03811660009081526004602052604081208054600192906112d49084906122c5565b909155505060008281526003602052604080822080546001600160a01b0319169055518391906001600160a01b038416906000805160206123f1833981519152908390a45050565b604080516001600160a01b038416602482015260448082018490528251808303909101815260649091019091526020810180516001600160e01b031663a9059cbb60e01b1790526103b6908490611532565b611379838383611604565b611381610b65565b60405163144a94ef60e21b81526001600160a01b038581166004830152848116602483015260448201849052919091169063512a53bc90606401600060405180830381600087803b1580156113d557600080fd5b505af11580156113e9573d6000803e3d6000fd5b50505050505050565b6113fc83836116bc565b6114096000848484611425565b6103b65760405162461bcd60e51b815260040161042390612154565b60006001600160a01b0384163b1561152757604051630a85bd0160e11b81526001600160a01b0385169063150b7a0290611469903390899088908890600401612104565b602060405180830381600087803b15801561148357600080fd5b505af19250505080156114b3575060408051601f3d908101601f191682019092526114b091810190611e01565b60015b61150d573d8080156114e1576040519150601f19603f3d011682016040523d82523d6000602084013e6114e6565b606091505b5080516115055760405162461bcd60e51b815260040161042390612154565b805181602001fd5b6001600160e01b031916630a85bd0160e11b149050610eb5565b506001949350505050565b6000611587826040518060400160405280602081526020017f5361666545524332303a206c6f772d6c6576656c2063616c6c206661696c6564815250856001600160a01b03166117e89092919063ffffffff16565b8051909150156103b657808060200190518101906115a59190611dc9565b6103b65760405162461bcd60e51b815260206004820152602a60248201527f5361666545524332303a204552433230206f7065726174696f6e20646964206e6044820152691bdd081cdd58d8d9595960b21b6064820152608401610423565b6001600160a01b03831661165f5761165a81600980546000838152600a60205260408120829055600182018355919091527f6e1540171b6c0c960b71a7020d9f60077f6af931a8bbf590da0223dacf75c7af0155565b611682565b816001600160a01b0316836001600160a01b0316146116825761168283826117f7565b6001600160a01b038216611699576103b681611894565b826001600160a01b0316826001600160a01b0316146103b6576103b6828261196d565b6001600160a01b0382166117125760405162461bcd60e51b815260206004820181905260248201527f4552433732313a206d696e7420746f20746865207a65726f20616464726573736044820152606401610423565b61171b81610d68565b156117675760405162461bcd60e51b815260206004820152601c60248201527b115490cdcc8c4e881d1bdad95b88185b1c9958591e481b5a5b9d195960221b6044820152606401610423565b6117736000838361136e565b6001600160a01b038216600090815260046020526040812080546001929061179c908490612299565b909155505060008181526003602052604080822080546001600160a01b0319166001600160a01b03861690811790915590518392906000805160206123f1833981519152908290a45050565b6060610eb584846000856119b1565b600060016118048461081d565b61180e91906122c5565b600083815260086020526040902054909150808214611861576001600160a01b03841660009081526007602090815260408083208584528252808320548484528184208190558352600890915290208190555b5060009182526008602090815260408084208490556001600160a01b039094168352600781528383209183525290812055565b6009546000906118a6906001906122c5565b6000838152600a6020526040812054600980549394509092849081106118dc57634e487b7160e01b600052603260045260246000fd5b90600052602060002001549050806009838154811061190b57634e487b7160e01b600052603260045260246000fd5b6000918252602080832090910192909255828152600a9091526040808220849055858252812055600980548061195157634e487b7160e01b600052603160045260246000fd5b6001900381819060005260206000200160009055905550505050565b60006119788361081d565b6001600160a01b039093166000908152600760209081526040808320868452825280832085905593825260089052919091209190915550565b606082471015611a125760405162461bcd60e51b815260206004820152602660248201527f416464726573733a20696e73756666696369656e742062616c616e636520666f6044820152651c8818d85b1b60d21b6064820152608401610423565b843b611a605760405162461bcd60e51b815260206004820152601d60248201527f416464726573733a2063616c6c20746f206e6f6e2d636f6e74726163740000006044820152606401610423565b600080866001600160a01b03168587604051611a7c919061208e565b60006040518083038185875af1925050503d8060008114611ab9576040519150601f19603f3d011682016040523d82523d6000602084013e611abe565b606091505b5091509150611ace828286611ad9565b979650505050505050565b60608315611ae8575081610b5e565b825115611af85782518084602001fd5b8160405162461bcd60e51b81526004016104239190612141565b828054611b1e90612308565b90600052602060002090601f016020900481019282611b405760008555611b86565b82601f10611b5957805160ff1916838001178555611b86565b82800160010185558215611b86579182015b82811115611b86578251825591602001919060010190611b6b565b50611b92929150611b96565b5090565b5b80821115611b925760008155600101611b97565b6000611bbe611bb984612272565b612242565b9050828152838383011115611bd257600080fd5b828260208301376000602084830101529392505050565b600082601f830112611bf9578081fd5b610b5e83833560208501611bab565b80516001600160701b038116811461081857600080fd5b805161ffff8116811461081857600080fd5b805163ffffffff8116811461081857600080fd5b600060208284031215611c56578081fd5b8135610b5e816123b4565b600060208284031215611c72578081fd5b8151610b5e816123b4565b60008060408385031215611c8f578081fd5b8235611c9a816123b4565b91506020830135611caa816123b4565b809150509250929050565b600080600060608486031215611cc9578081fd5b8335611cd4816123b4565b92506020840135611ce4816123b4565b929592945050506040919091013590565b60008060008060808587031215611d0a578081fd5b8435611d15816123b4565b93506020850135611d25816123b4565b92506040850135915060608501356001600160401b03811115611d46578182fd5b8501601f81018713611d56578182fd5b611d6587823560208401611bab565b91505092959194509250565b60008060408385031215611d83578182fd5b8235611d8e816123b4565b91506020830135611caa816123cc565b60008060408385031215611db0578081fd5b8235611dbb816123b4565b946020939093013593505050565b600060208284031215611dda578081fd5b8151610b5e816123cc565b600060208284031215611df6578081fd5b8135610b5e816123da565b600060208284031215611e12578081fd5b8151610b5e816123da565b600060208284031215611e2e578081fd5b81516001600160401b03811115611e43578182fd5b8201601f81018413611e53578182fd5b8051611e61611bb982612272565b818152856020838501011115611e75578384fd5b611e868260208301602086016122dc565b95945050505050565b60008060408385031215611ea1578182fd5b82356001600160401b0380821115611eb7578384fd5b611ec386838701611be9565b93506020850135915080821115611ed8578283fd5b50611ee585828601611be9565b9150509250929050565b600080600060608486031215611f03578081fd5b83356001600160401b0380821115611f19578283fd5b611f2587838801611be9565b94506020860135915080821115611f3a578283fd5b50611f4786828701611be9565b9250506040840135611f58816123b4565b809150509250925092565b6000610100808385031215611f76578182fd5b604051908101906001600160401b0382118183101715611f9857611f9861239e565b81604052611fa584611c08565b8152611fb360208501611c1f565b6020820152611fc460408501611c31565b6040820152611fd560608501611c31565b6060820152611fe660808501611c31565b6080820152611ff760a08501611c31565b60a082015261200860c08501611c08565b60c082015261201960e08501611c1f565b60e0820152949350505050565b600060208284031215612037578081fd5b5035919050565b60008060408385031215612050578182fd5b823591506020830135611caa816123b4565b6000815180845261207a8160208601602086016122dc565b601f01601f19169290920160200192915050565b600082516120a08184602087016122dc565b9190910192915050565b600083516120bc8184602088016122dc565b8351908301906120d08183602088016122dc565b01949350505050565b600082516120eb8184602087016122dc565b66626f72726f772f60c81b920191825250600701919050565b6001600160a01b038581168252841660208201526040810183905260806060820181905260009061213790830184612062565b9695505050505050565b602081526000610b5e6020830184612062565b60208082526032908201527f4552433732313a207472616e7366657220746f206e6f6e20455243373231526560408201527131b2b4bb32b91034b6b83632b6b2b73a32b960711b606082015260800190565b6020808252602b908201527f456e74657270726973654f776e61626c653a2063616c6c6572206973206e6f7460408201526a20456e746572707269736560a81b606082015260800190565b60208082526031908201527f4552433732313a207472616e736665722063616c6c6572206973206e6f74206f6040820152701ddb995c881b9bdc88185c1c1c9bdd9959607a1b606082015260800190565b604051601f8201601f191681016001600160401b038111828210171561226a5761226a61239e565b604052919050565b60006001600160401b0382111561228b5761228b61239e565b50601f01601f191660200190565b600082198211156122ac576122ac612372565b500190565b6000826122c0576122c0612388565b500490565b6000828210156122d7576122d7612372565b500390565b60005b838110156122f75781810151838201526020016122df565b838111156109a65750506000910152565b600181811c9082168061231c57607f821691505b6020821081141561233d57634e487b7160e01b600052602260045260246000fd5b50919050565b600060001982141561235757612357612372565b5060010190565b60008261236d5761236d612388565b500690565b634e487b7160e01b600052601160045260246000fd5b634e487b7160e01b600052601260045260246000fd5b634e487b7160e01b600052604160045260246000fd5b6001600160a01b03811681146123c957600080fd5b50565b80151581146123c957600080fd5b6001600160e01b0319811681146123c957600080fdfeddf252ad1be2c89b69c2b068fc378daa952ba7f163c4a11628f55a4df523b3efa26469706673582212207f14c0c3e3c67624192247fb599a86b8b8d992a776d7078d32d0597eec3b7a4564736f6c63430008040033",
  "linkReferences": {},
  "deployedLinkReferences": {}
}