{
  "_format": "hh-sol-artifact-1",
  "contractName": "BorrowToken",
  "sourceName": "contracts/BorrowToken.sol",
  "abi": [
    {
      "anonymous": false,
      "inputs": [
        {
          "indexed": true,
          "internalType": "address",
          "name": "owner",
          "type": "address"
        },
        {
          "indexed": true,
          "internalType": "address",
          "name": "approved",
          "type": "address"
        },
        {
          "indexed": true,
          "internalType": "uint256",
          "name": "tokenId",
          "type": "uint256"
        }
      ],
      "name": "Approval",
      "type": "event"
    },
    {
      "anonymous": false,
      "inputs": [
        {
          "indexed": true,
          "internalType": "address",
          "name": "owner",
          "type": "address"
        },
        {
          "indexed": true,
          "internalType": "address",
          "name": "operator",
          "type": "address"
        },
        {
          "indexed": false,
          "internalType": "bool",
          "name": "approved",
          "type": "bool"
        }
      ],
      "name": "ApprovalForAll",
      "type": "event"
    },
    {
      "anonymous": false,
      "inputs": [
        {
          "indexed": true,
          "internalType": "address",
          "name": "previousOwner",
          "type": "address"
        },
        {
          "indexed": true,
          "internalType": "address",
          "name": "newOwner",
          "type": "address"
        }
      ],
      "name": "OwnershipTransferred",
      "type": "event"
    },
    {
      "anonymous": false,
      "inputs": [
        {
          "indexed": true,
          "internalType": "address",
          "name": "from",
          "type": "address"
        },
        {
          "indexed": true,
          "internalType": "address",
          "name": "to",
          "type": "address"
        },
        {
          "indexed": true,
          "internalType": "uint256",
          "name": "tokenId",
          "type": "uint256"
        }
      ],
      "name": "Transfer",
      "type": "event"
    },
    {
      "inputs": [
        {
          "internalType": "address",
          "name": "to",
          "type": "address"
        },
        {
          "internalType": "uint256",
          "name": "tokenId",
          "type": "uint256"
        }
      ],
      "name": "approve",
      "outputs": [],
      "stateMutability": "nonpayable",
      "type": "function"
    },
    {
      "inputs": [
        {
          "internalType": "address",
          "name": "owner",
          "type": "address"
        }
      ],
      "name": "balanceOf",
      "outputs": [
        {
          "internalType": "uint256",
          "name": "",
          "type": "uint256"
        }
      ],
      "stateMutability": "view",
      "type": "function"
    },
    {
      "inputs": [
        {
          "internalType": "uint256",
          "name": "tokenId",
          "type": "uint256"
        },
        {
          "internalType": "address",
          "name": "burner",
          "type": "address"
        }
      ],
      "name": "burn",
      "outputs": [],
      "stateMutability": "nonpayable",
      "type": "function"
    },
    {
      "inputs": [
        {
          "internalType": "uint256",
          "name": "tokenId",
          "type": "uint256"
        }
      ],
      "name": "getApproved",
      "outputs": [
        {
          "internalType": "address",
          "name": "",
          "type": "address"
        }
      ],
      "stateMutability": "view",
      "type": "function"
    },
    {
      "inputs": [],
      "name": "getCounter",
      "outputs": [
        {
          "internalType": "uint256",
          "name": "",
          "type": "uint256"
        }
      ],
      "stateMutability": "view",
      "type": "function"
    },
    {
      "inputs": [
        {
          "internalType": "string",
          "name": "name_",
          "type": "string"
        },
        {
          "internalType": "string",
          "name": "symbol_",
          "type": "string"
        }
      ],
      "name": "initialize",
      "outputs": [],
      "stateMutability": "nonpayable",
      "type": "function"
    },
    {
      "inputs": [
        {
          "internalType": "string",
          "name": "name",
          "type": "string"
        },
        {
          "internalType": "string",
          "name": "symbol",
          "type": "string"
        },
        {
          "internalType": "contract EnterpriseConfigurator",
          "name": "configurator",
          "type": "address"
        },
        {
          "internalType": "contract IEnterprise",
          "name": "enterprise",
          "type": "address"
        }
      ],
      "name": "initialize",
      "outputs": [],
      "stateMutability": "nonpayable",
      "type": "function"
    },
    {
      "inputs": [
        {
          "internalType": "address",
          "name": "initialOwner",
          "type": "address"
        }
      ],
      "name": "initialize",
      "outputs": [],
      "stateMutability": "nonpayable",
      "type": "function"
    },
    {
      "inputs": [
        {
          "internalType": "address",
          "name": "owner",
          "type": "address"
        },
        {
          "internalType": "address",
          "name": "operator",
          "type": "address"
        }
      ],
      "name": "isApprovedForAll",
      "outputs": [
        {
          "internalType": "bool",
          "name": "",
          "type": "bool"
        }
      ],
      "stateMutability": "view",
      "type": "function"
    },
    {
      "inputs": [
        {
          "internalType": "address",
          "name": "to",
          "type": "address"
        }
      ],
      "name": "mint",
      "outputs": [
        {
          "internalType": "uint256",
          "name": "",
          "type": "uint256"
        }
      ],
      "stateMutability": "nonpayable",
      "type": "function"
    },
    {
      "inputs": [],
      "name": "name",
      "outputs": [
        {
          "internalType": "string",
          "name": "",
          "type": "string"
        }
      ],
      "stateMutability": "view",
      "type": "function"
    },
    {
      "inputs": [],
      "name": "owner",
      "outputs": [
        {
          "internalType": "address",
          "name": "",
          "type": "address"
        }
      ],
      "stateMutability": "view",
      "type": "function"
    },
    {
      "inputs": [
        {
          "internalType": "uint256",
          "name": "tokenId",
          "type": "uint256"
        }
      ],
      "name": "ownerOf",
      "outputs": [
        {
          "internalType": "address",
          "name": "",
          "type": "address"
        }
      ],
      "stateMutability": "view",
      "type": "function"
    },
    {
      "inputs": [
        {
          "internalType": "address",
          "name": "from",
          "type": "address"
        },
        {
          "internalType": "address",
          "name": "to",
          "type": "address"
        },
        {
          "internalType": "uint256",
          "name": "tokenId",
          "type": "uint256"
        }
      ],
      "name": "safeTransferFrom",
      "outputs": [],
      "stateMutability": "nonpayable",
      "type": "function"
    },
    {
      "inputs": [
        {
          "internalType": "address",
          "name": "from",
          "type": "address"
        },
        {
          "internalType": "address",
          "name": "to",
          "type": "address"
        },
        {
          "internalType": "uint256",
          "name": "tokenId",
          "type": "uint256"
        },
        {
          "internalType": "bytes",
          "name": "_data",
          "type": "bytes"
        }
      ],
      "name": "safeTransferFrom",
      "outputs": [],
      "stateMutability": "nonpayable",
      "type": "function"
    },
    {
      "inputs": [
        {
          "internalType": "address",
          "name": "operator",
          "type": "address"
        },
        {
          "internalType": "bool",
          "name": "approved",
          "type": "bool"
        }
      ],
      "name": "setApprovalForAll",
      "outputs": [],
      "stateMutability": "nonpayable",
      "type": "function"
    },
    {
      "inputs": [
        {
          "internalType": "bytes4",
          "name": "interfaceId",
          "type": "bytes4"
        }
      ],
      "name": "supportsInterface",
      "outputs": [
        {
          "internalType": "bool",
          "name": "",
          "type": "bool"
        }
      ],
      "stateMutability": "view",
      "type": "function"
    },
    {
      "inputs": [],
      "name": "symbol",
      "outputs": [
        {
          "internalType": "string",
          "name": "",
          "type": "string"
        }
      ],
      "stateMutability": "view",
      "type": "function"
    },
    {
      "inputs": [
        {
          "internalType": "uint256",
          "name": "index",
          "type": "uint256"
        }
      ],
      "name": "tokenByIndex",
      "outputs": [
        {
          "internalType": "uint256",
          "name": "",
          "type": "uint256"
        }
      ],
      "stateMutability": "view",
      "type": "function"
    },
    {
      "inputs": [
        {
          "internalType": "address",
          "name": "owner",
          "type": "address"
        },
        {
          "internalType": "uint256",
          "name": "index",
          "type": "uint256"
        }
      ],
      "name": "tokenOfOwnerByIndex",
      "outputs": [
        {
          "internalType": "uint256",
          "name": "",
          "type": "uint256"
        }
      ],
      "stateMutability": "view",
      "type": "function"
    },
    {
      "inputs": [
        {
          "internalType": "uint256",
          "name": "tokenId",
          "type": "uint256"
        }
      ],
      "name": "tokenURI",
      "outputs": [
        {
          "internalType": "string",
          "name": "",
          "type": "string"
        }
      ],
      "stateMutability": "view",
      "type": "function"
    },
    {
      "inputs": [],
      "name": "totalSupply",
      "outputs": [
        {
          "internalType": "uint256",
          "name": "",
          "type": "uint256"
        }
      ],
      "stateMutability": "view",
      "type": "function"
    },
    {
      "inputs": [
        {
          "internalType": "address",
          "name": "from",
          "type": "address"
        },
        {
          "internalType": "address",
          "name": "to",
          "type": "address"
        },
        {
          "internalType": "uint256",
          "name": "tokenId",
          "type": "uint256"
        }
      ],
      "name": "transferFrom",
      "outputs": [],
      "stateMutability": "nonpayable",
      "type": "function"
    },
    {
      "inputs": [
        {
          "internalType": "address",
          "name": "newOwner",
          "type": "address"
        }
      ],
      "name": "transferOwnership",
      "outputs": [],
      "stateMutability": "nonpayable",
      "type": "function"
    }
  ],
  "bytecode": "0x60806040526001600d5534801561001557600080fd5b506129ee806100256000396000f3fe608060405234801561001057600080fd5b50600436106101985760003560e01c806370a08231116100e3578063b88d4fde1161008c578063e985e9c511610066578063e985e9c514610344578063f2fde38b14610380578063fcd3533c1461039357600080fd5b8063b88d4fde1461030b578063c4d66de81461031e578063c87b56dd1461033157600080fd5b80638f15b414116100bd5780638f15b414146102dd57806395d89b41146102f0578063a22cb465146102f857600080fd5b806370a08231146102b15780638ada066e146102c45780638da5cb5b146102cc57600080fd5b80632f745c59116101455780634f6ccce71161011f5780634f6ccce7146102785780636352211e1461028b5780636a6278421461029e57600080fd5b80632f745c591461023f57806342842e0e146102525780634cd88b761461026557600080fd5b8063095ea7b311610176578063095ea7b31461020557806318160ddd1461021a57806323b872dd1461022c57600080fd5b806301ffc9a71461019d57806306fdde03146101c5578063081812fc146101da575b600080fd5b6101b06101ab36600461246f565b6103a6565b60405190151581526020015b60405180910390f35b6101cd6103ea565b6040516101bc91906127f5565b6101ed6101e83660046126c5565b61047c565b6040516001600160a01b0390911681526020016101bc565b610218610213366004612428565b610516565b005b6009545b6040519081526020016101bc565b61021861023a36600461233e565b610648565b61021e61024d366004612428565b6106cf565b61021861026036600461233e565b610777565b61021861027336600461251a565b610792565b61021e6102863660046126c5565b610815565b6101ed6102993660046126c5565b6108c7565b61021e6102ac3660046122ce565b610952565b61021e6102bf3660046122ce565b6109d8565b600d5461021e565b6000546001600160a01b03166101ed565b6102186102eb36600461257b565b610a72565b6101cd610ab5565b6102186103063660046123fb565b610ac4565b61021861031936600461237e565b610b89565b61021861032c3660046122ce565b610c17565b6101cd61033f3660046126c5565b610ce1565b6101b0610352366004612306565b6001600160a01b03918216600090815260066020908152604080832093909416825291909152205460ff1690565b61021861038e3660046122ce565b610dca565b6102186103a13660046126dd565b610efb565b60006001600160e01b031982167f780e9d630000000000000000000000000000000000000000000000000000000014806103e457506103e4826110cd565b92915050565b6060600180546103f9906128d0565b80601f0160208091040260200160405190810160405280929190818152602001828054610425906128d0565b80156104725780601f1061044757610100808354040283529160200191610472565b820191906000526020600020905b81548152906001019060200180831161045557829003601f168201915b5050505050905090565b6000818152600360205260408120546001600160a01b03166104fa5760405162461bcd60e51b815260206004820152602c60248201527f4552433732313a20617070726f76656420717565727920666f72206e6f6e657860448201526b34b9ba32b73a103a37b5b2b760a11b60648201526084015b60405180910390fd5b506000908152600560205260409020546001600160a01b031690565b6000610521826108c7565b9050806001600160a01b0316836001600160a01b031614156105ab5760405162461bcd60e51b815260206004820152602160248201527f4552433732313a20617070726f76616c20746f2063757272656e74206f776e6560448201527f720000000000000000000000000000000000000000000000000000000000000060648201526084016104f1565b336001600160a01b03821614806105c757506105c78133610352565b6106395760405162461bcd60e51b815260206004820152603860248201527f4552433732313a20617070726f76652063616c6c6572206973206e6f74206f7760448201527f6e6572206e6f7220617070726f76656420666f7220616c6c000000000000000060648201526084016104f1565b6106438383611168565b505050565b61065233826111d6565b6106c45760405162461bcd60e51b815260206004820152603160248201527f4552433732313a207472616e736665722063616c6c6572206973206e6f74206f60448201527f776e6572206e6f7220617070726f76656400000000000000000000000000000060648201526084016104f1565b6106438383836112cd565b60006106da836109d8565b821061074e5760405162461bcd60e51b815260206004820152602b60248201527f455243373231456e756d657261626c653a206f776e657220696e646578206f7560448201527f74206f6620626f756e647300000000000000000000000000000000000000000060648201526084016104f1565b506001600160a01b03919091166000908152600760209081526040808320938352929052205490565b61064383838360405180602001604052806000815250610b89565b6001805461079f906128d0565b1590506107ee5760405162461bcd60e51b815260206004820152601360248201527f416c726561647920696e697469616c697a65640000000000000000000000000060448201526064016104f1565b8151610801906001906020850190612194565b508051610643906002906020840190612194565b600061082060095490565b82106108945760405162461bcd60e51b815260206004820152602c60248201527f455243373231456e756d657261626c653a20676c6f62616c20696e646578206f60448201527f7574206f6620626f756e6473000000000000000000000000000000000000000060648201526084016104f1565b600982815481106108b557634e487b7160e01b600052603260045260246000fd5b90600052602060002001549050919050565b6000818152600360205260408120546001600160a01b0316806103e45760405162461bcd60e51b815260206004820152602960248201527f4552433732313a206f776e657220717565727920666f72206e6f6e657869737460448201527f656e7420746f6b656e000000000000000000000000000000000000000000000060648201526084016104f1565b600080546001600160a01b031633146109ad5760405162461bcd60e51b815260206004820181905260248201527f4f776e61626c653a2063616c6c6572206973206e6f7420746865206f776e657260448201526064016104f1565b600d546109ba83826114a5565b600d80549060006109ca8361290b565b90915550909150505b919050565b60006001600160a01b038216610a565760405162461bcd60e51b815260206004820152602a60248201527f4552433732313a2062616c616e636520717565727920666f7220746865207a6560448201527f726f20616464726573730000000000000000000000000000000000000000000060648201526084016104f1565b506001600160a01b031660009081526004602052604090205490565b610a7b81610c17565b610a858484610792565b600c80546001600160a01b039384166001600160a01b031991821617909155600b80549290931691161790555050565b6060600280546103f9906128d0565b6001600160a01b038216331415610b1d5760405162461bcd60e51b815260206004820152601960248201527f4552433732313a20617070726f766520746f2063616c6c65720000000000000060448201526064016104f1565b3360008181526006602090815260408083206001600160a01b03871680855290835292819020805460ff191686151590811790915590519081529192917f17307eab39ab6107e8899845ad3d59bd9653f200f220920489ca2b5937696c31910160405180910390a35050565b610b9333836111d6565b610c055760405162461bcd60e51b815260206004820152603160248201527f4552433732313a207472616e736665722063616c6c6572206973206e6f74206f60448201527f776e6572206e6f7220617070726f76656400000000000000000000000000000060648201526084016104f1565b610c11848484846114c3565b50505050565b6000546001600160a01b031615610c965760405162461bcd60e51b815260206004820152602960248201527f496e697469616c697a61626c654f776e61626c653a20616c726561647920696e60448201527f697469616c697a6564000000000000000000000000000000000000000000000060648201526084016104f1565b600080546001600160a01b0319166001600160a01b03831690811782556040519091907f8be0079c531659141344cd1fd0a4f28419497f9722a3daafe3b4186f6b6457e0908290a350565b6000818152600360205260409020546060906001600160a01b0316610d6e5760405162461bcd60e51b815260206004820152602f60248201527f4552433732314d657461646174613a2055524920717565727920666f72206e6f60448201527f6e6578697374656e7420746f6b656e000000000000000000000000000000000060648201526084016104f1565b6000610d78611541565b90506000815111610d985760405180602001604052806000815250610dc3565b80610da284611686565b604051602001610db3929190612749565b6040516020818303038152906040525b9392505050565b6000546001600160a01b03163314610e245760405162461bcd60e51b815260206004820181905260248201527f4f776e61626c653a2063616c6c6572206973206e6f7420746865206f776e657260448201526064016104f1565b6001600160a01b038116610ea05760405162461bcd60e51b815260206004820152602660248201527f4f776e61626c653a206e6577206f776e657220697320746865207a65726f206160448201527f646472657373000000000000000000000000000000000000000000000000000060648201526084016104f1565b600080546040516001600160a01b03808516939216917f8be0079c531659141344cd1fd0a4f28419497f9722a3daafe3b4186f6b6457e091a3600080546001600160a01b0319166001600160a01b0392909216919091179055565b6000546001600160a01b03163314610f555760405162461bcd60e51b815260206004820181905260248201527f4f776e61626c653a2063616c6c6572206973206e6f7420746865206f776e657260448201526064016104f1565b610f5e826117d4565b600b546040517f0714012c000000000000000000000000000000000000000000000000000000008152600481018490526000916001600160a01b031690630714012c906024016101006040518083038186803b158015610fbd57600080fd5b505afa158015610fd1573d6000803e3d6000fd5b505050506040513d601f19601f82011682018060405250810190610ff59190612601565b600c5460e08201516040517f96ea297500000000000000000000000000000000000000000000000000000000815261ffff90911660048201529192506000916001600160a01b03909116906396ea29759060240160206040518083038186803b15801561106157600080fd5b505afa158015611075573d6000803e3d6000fd5b505050506040513d601f19601f8201168201806040525081019061109991906122ea565b9050610c11838360c001516dffffffffffffffffffffffffffff16836001600160a01b031661187b9092919063ffffffff16565b60006001600160e01b031982167f80ac58cd00000000000000000000000000000000000000000000000000000000148061113057506001600160e01b031982167f5b5e139f00000000000000000000000000000000000000000000000000000000145b806103e457507f01ffc9a7000000000000000000000000000000000000000000000000000000006001600160e01b03198316146103e4565b600081815260056020526040902080546001600160a01b0319166001600160a01b038416908117909155819061119d826108c7565b6001600160a01b03167f8c5be1e5ebec7d5bd14f71427d1e84f3dd0314c0f7b2291e5b200ac8c7c3b92560405160405180910390a45050565b6000818152600360205260408120546001600160a01b031661124f5760405162461bcd60e51b815260206004820152602c60248201527f4552433732313a206f70657261746f7220717565727920666f72206e6f6e657860448201526b34b9ba32b73a103a37b5b2b760a11b60648201526084016104f1565b600061125a836108c7565b9050806001600160a01b0316846001600160a01b031614806112955750836001600160a01b031661128a8461047c565b6001600160a01b0316145b806112c557506001600160a01b0380821660009081526006602090815260408083209388168352929052205460ff165b949350505050565b826001600160a01b03166112e0826108c7565b6001600160a01b03161461135c5760405162461bcd60e51b815260206004820152602960248201527f4552433732313a207472616e73666572206f6620746f6b656e2074686174206960448201527f73206e6f74206f776e000000000000000000000000000000000000000000000060648201526084016104f1565b6001600160a01b0382166113d75760405162461bcd60e51b8152602060048201526024808201527f4552433732313a207472616e7366657220746f20746865207a65726f2061646460448201527f726573730000000000000000000000000000000000000000000000000000000060648201526084016104f1565b6113e28383836118fb565b6113ed600082611168565b6001600160a01b038316600090815260046020526040812080546001929061141690849061288d565b90915550506001600160a01b0382166000908152600460205260408120805460019290611444908490612861565b909155505060008181526003602052604080822080546001600160a01b0319166001600160a01b0386811691821790925591518493918716917fddf252ad1be2c89b69c2b068fc378daa952ba7f163c4a11628f55a4df523b3ef91a4505050565b6114bf828260405180602001604052806000815250611992565b5050565b6114ce8484846112cd565b6114da84848484611a10565b610c115760405162461bcd60e51b815260206004820152603260248201527f4552433732313a207472616e7366657220746f206e6f6e20455243373231526560448201527131b2b4bb32b91034b6b83632b6b2b73a32b960711b60648201526084016104f1565b60606000600b60009054906101000a90046001600160a01b03166001600160a01b0316639b7ae5ec6040518163ffffffff1660e01b815260040160206040518083038186803b15801561159357600080fd5b505afa1580156115a7573d6000803e3d6000fd5b505050506040513d601f19601f820116820180604052508101906115cb91906122ea565b6001600160a01b0316630cac36b26040518163ffffffff1660e01b815260040160006040518083038186803b15801561160357600080fd5b505afa158015611617573d6000803e3d6000fd5b505050506040513d6000823e601f3d908101601f1916820160405261163f91908101906124a7565b9050600081511161165f5760405180602001604052806000815250611680565b806040516020016116709190612778565b6040516020818303038152906040525b91505090565b6060816116c657505060408051808201909152600181527f3000000000000000000000000000000000000000000000000000000000000000602082015290565b8160005b81156116f057806116da8161290b565b91506116e99050600a83612879565b91506116ca565b60008167ffffffffffffffff81111561171957634e487b7160e01b600052604160045260246000fd5b6040519080825280601f01601f191660200182016040528015611743576020820181803683370190505b5090505b84156112c55761175860018361288d565b9150611765600a86612926565b611770906030612861565b60f81b81838151811061179357634e487b7160e01b600052603260045260246000fd5b60200101907effffffffffffffffffffffffffffffffffffffffffffffffffffffffffffff1916908160001a9053506117cd600a86612879565b9450611747565b60006117df826108c7565b90506117ed816000846118fb565b6117f8600083611168565b6001600160a01b038116600090815260046020526040812080546001929061182190849061288d565b909155505060008281526003602052604080822080546001600160a01b0319169055518391906001600160a01b038416907fddf252ad1be2c89b69c2b068fc378daa952ba7f163c4a11628f55a4df523b3ef908390a45050565b604080516001600160a01b038416602482015260448082018490528251808303909101815260649091019091526020810180517bffffffffffffffffffffffffffffffffffffffffffffffffffffffff167fa9059cbb00000000000000000000000000000000000000000000000000000000179052610643908490611b68565b611906838383611c4d565b600b546040517f512a53bc0000000000000000000000000000000000000000000000000000000081526001600160a01b0385811660048301528481166024830152604482018490529091169063512a53bc90606401600060405180830381600087803b15801561197557600080fd5b505af1158015611989573d6000803e3d6000fd5b50505050505050565b61199c8383611d05565b6119a96000848484611a10565b6106435760405162461bcd60e51b815260206004820152603260248201527f4552433732313a207472616e7366657220746f206e6f6e20455243373231526560448201527131b2b4bb32b91034b6b83632b6b2b73a32b960711b60648201526084016104f1565b60006001600160a01b0384163b15611b5d57604051630a85bd0160e11b81526001600160a01b0385169063150b7a0290611a549033908990889088906004016127b9565b602060405180830381600087803b158015611a6e57600080fd5b505af1925050508015611a9e575060408051601f3d908101601f19168201909252611a9b9181019061248b565b60015b611b43573d808015611acc576040519150601f19603f3d011682016040523d82523d6000602084013e611ad1565b606091505b508051611b3b5760405162461bcd60e51b815260206004820152603260248201527f4552433732313a207472616e7366657220746f206e6f6e20455243373231526560448201527131b2b4bb32b91034b6b83632b6b2b73a32b960711b60648201526084016104f1565b805181602001fd5b6001600160e01b031916630a85bd0160e11b1490506112c5565b506001949350505050565b6000611bbd826040518060400160405280602081526020017f5361666545524332303a206c6f772d6c6576656c2063616c6c206661696c6564815250856001600160a01b0316611e539092919063ffffffff16565b8051909150156106435780806020019051810190611bdb9190612453565b6106435760405162461bcd60e51b815260206004820152602a60248201527f5361666545524332303a204552433230206f7065726174696f6e20646964206e60448201527f6f7420737563636565640000000000000000000000000000000000000000000060648201526084016104f1565b6001600160a01b038316611ca857611ca381600980546000838152600a60205260408120829055600182018355919091527f6e1540171b6c0c960b71a7020d9f60077f6af931a8bbf590da0223dacf75c7af0155565b611ccb565b816001600160a01b0316836001600160a01b031614611ccb57611ccb8382611e62565b6001600160a01b038216611ce25761064381611eff565b826001600160a01b0316826001600160a01b031614610643576106438282611fd8565b6001600160a01b038216611d5b5760405162461bcd60e51b815260206004820181905260248201527f4552433732313a206d696e7420746f20746865207a65726f206164647265737360448201526064016104f1565b6000818152600360205260409020546001600160a01b031615611dc05760405162461bcd60e51b815260206004820152601c60248201527f4552433732313a20746f6b656e20616c7265616479206d696e7465640000000060448201526064016104f1565b611dcc600083836118fb565b6001600160a01b0382166000908152600460205260408120805460019290611df5908490612861565b909155505060008181526003602052604080822080546001600160a01b0319166001600160a01b03861690811790915590518392907fddf252ad1be2c89b69c2b068fc378daa952ba7f163c4a11628f55a4df523b3ef908290a45050565b60606112c5848460008561201c565b60006001611e6f846109d8565b611e79919061288d565b600083815260086020526040902054909150808214611ecc576001600160a01b03841660009081526007602090815260408083208584528252808320548484528184208190558352600890915290208190555b5060009182526008602090815260408084208490556001600160a01b039094168352600781528383209183525290812055565b600954600090611f119060019061288d565b6000838152600a602052604081205460098054939450909284908110611f4757634e487b7160e01b600052603260045260246000fd5b906000526020600020015490508060098381548110611f7657634e487b7160e01b600052603260045260246000fd5b6000918252602080832090910192909255828152600a90915260408082208490558582528120556009805480611fbc57634e487b7160e01b600052603160045260246000fd5b6001900381819060005260206000200160009055905550505050565b6000611fe3836109d8565b6001600160a01b039093166000908152600760209081526040808320868452825280832085905593825260089052919091209190915550565b6060824710156120945760405162461bcd60e51b815260206004820152602660248201527f416464726573733a20696e73756666696369656e742062616c616e636520666f60448201527f722063616c6c000000000000000000000000000000000000000000000000000060648201526084016104f1565b843b6120e25760405162461bcd60e51b815260206004820152601d60248201527f416464726573733a2063616c6c20746f206e6f6e2d636f6e747261637400000060448201526064016104f1565b600080866001600160a01b031685876040516120fe919061272d565b60006040518083038185875af1925050503d806000811461213b576040519150601f19603f3d011682016040523d82523d6000602084013e612140565b606091505b509150915061215082828661215b565b979650505050505050565b6060831561216a575081610dc3565b82511561217a5782518084602001fd5b8160405162461bcd60e51b81526004016104f191906127f5565b8280546121a0906128d0565b90600052602060002090601f0160209004810192826121c25760008555612208565b82601f106121db57805160ff1916838001178555612208565b82800160010185558215612208579182015b828111156122085782518255916020019190600101906121ed565b50612214929150612218565b5090565b5b808211156122145760008155600101612219565b600061224061223b84612839565b612808565b905082815283838301111561225457600080fd5b828260208301376000602084830101529392505050565b600082601f83011261227b578081fd5b610dc38383356020850161222d565b80516dffffffffffffffffffffffffffff811681146109d357600080fd5b805161ffff811681146109d357600080fd5b805163ffffffff811681146109d357600080fd5b6000602082840312156122df578081fd5b8135610dc38161297c565b6000602082840312156122fb578081fd5b8151610dc38161297c565b60008060408385031215612318578081fd5b82356123238161297c565b915060208301356123338161297c565b809150509250929050565b600080600060608486031215612352578081fd5b833561235d8161297c565b9250602084013561236d8161297c565b929592945050506040919091013590565b60008060008060808587031215612393578081fd5b843561239e8161297c565b935060208501356123ae8161297c565b925060408501359150606085013567ffffffffffffffff8111156123d0578182fd5b8501601f810187136123e0578182fd5b6123ef8782356020840161222d565b91505092959194509250565b6000806040838503121561240d578081fd5b82356124188161297c565b9150602083013561233381612994565b6000806040838503121561243a578182fd5b82356124458161297c565b946020939093013593505050565b600060208284031215612464578081fd5b8151610dc381612994565b600060208284031215612480578081fd5b8135610dc3816129a2565b60006020828403121561249c578081fd5b8151610dc3816129a2565b6000602082840312156124b8578081fd5b815167ffffffffffffffff8111156124ce578182fd5b8201601f810184136124de578182fd5b80516124ec61223b82612839565b818152856020838501011115612500578384fd5b6125118260208301602086016128a4565b95945050505050565b6000806040838503121561252c578182fd5b823567ffffffffffffffff80821115612543578384fd5b61254f8683870161226b565b93506020850135915080821115612564578283fd5b506125718582860161226b565b9150509250929050565b60008060008060808587031215612590578182fd5b843567ffffffffffffffff808211156125a7578384fd5b6125b38883890161226b565b955060208701359150808211156125c8578384fd5b506125d58782880161226b565b93505060408501356125e68161297c565b915060608501356125f68161297c565b939692955090935050565b6000610100808385031215612614578182fd5b6040519081019067ffffffffffffffff8211818310171561263757612637612966565b816040526126448461228a565b8152612652602085016122a8565b6020820152612663604085016122ba565b6040820152612674606085016122ba565b6060820152612685608085016122ba565b608082015261269660a085016122ba565b60a08201526126a760c0850161228a565b60c08201526126b860e085016122a8565b60e0820152949350505050565b6000602082840312156126d6578081fd5b5035919050565b600080604083850312156126ef578182fd5b8235915060208301356123338161297c565b600081518084526127198160208601602086016128a4565b601f01601f19169290920160200192915050565b6000825161273f8184602087016128a4565b9190910192915050565b6000835161275b8184602088016128a4565b83519083019061276f8183602088016128a4565b01949350505050565b6000825161278a8184602087016128a4565b7f626f72726f772f00000000000000000000000000000000000000000000000000920191825250600701919050565b60006001600160a01b038087168352808616602084015250836040830152608060608301526127eb6080830184612701565b9695505050505050565b602081526000610dc36020830184612701565b604051601f8201601f1916810167ffffffffffffffff8111828210171561283157612831612966565b604052919050565b600067ffffffffffffffff82111561285357612853612966565b50601f01601f191660200190565b600082198211156128745761287461293a565b500190565b60008261288857612888612950565b500490565b60008282101561289f5761289f61293a565b500390565b60005b838110156128bf5781810151838201526020016128a7565b83811115610c115750506000910152565b600181811c908216806128e457607f821691505b6020821081141561290557634e487b7160e01b600052602260045260246000fd5b50919050565b600060001982141561291f5761291f61293a565b5060010190565b60008261293557612935612950565b500690565b634e487b7160e01b600052601160045260246000fd5b634e487b7160e01b600052601260045260246000fd5b634e487b7160e01b600052604160045260246000fd5b6001600160a01b038116811461299157600080fd5b50565b801515811461299157600080fd5b6001600160e01b03198116811461299157600080fdfea2646970667358221220c7c2de668a0c856768a63a2b7febd97f32fb91bcfafa91ed1dd968d913c7025b64736f6c63430008040033",
  "linkReferences": {},
  "deployedLinkReferences": {}
}