{
  "_format": "hh-sol-artifact-1",
  "contractName": "BorrowToken",
  "sourceName": "contracts/BorrowToken.sol",
  "abi": [
    {
      "anonymous": false,
      "inputs": [
        {
          "indexed": true,
          "internalType": "address",
          "name": "owner",
          "type": "address"
        },
        {
          "indexed": true,
          "internalType": "address",
          "name": "approved",
          "type": "address"
        },
        {
          "indexed": true,
          "internalType": "uint256",
          "name": "tokenId",
          "type": "uint256"
        }
      ],
      "name": "Approval",
      "type": "event"
    },
    {
      "anonymous": false,
      "inputs": [
        {
          "indexed": true,
          "internalType": "address",
          "name": "owner",
          "type": "address"
        },
        {
          "indexed": true,
          "internalType": "address",
          "name": "operator",
          "type": "address"
        },
        {
          "indexed": false,
          "internalType": "bool",
          "name": "approved",
          "type": "bool"
        }
      ],
      "name": "ApprovalForAll",
      "type": "event"
    },
    {
      "anonymous": false,
      "inputs": [
        {
          "indexed": true,
          "internalType": "address",
          "name": "from",
          "type": "address"
        },
        {
          "indexed": true,
          "internalType": "address",
          "name": "to",
          "type": "address"
        },
        {
          "indexed": true,
          "internalType": "uint256",
          "name": "tokenId",
          "type": "uint256"
        }
      ],
      "name": "Transfer",
      "type": "event"
    },
    {
      "inputs": [
        {
          "internalType": "address",
          "name": "to",
          "type": "address"
        },
        {
          "internalType": "uint256",
          "name": "tokenId",
          "type": "uint256"
        }
      ],
      "name": "approve",
      "outputs": [],
      "stateMutability": "nonpayable",
      "type": "function"
    },
    {
      "inputs": [
        {
          "internalType": "address",
          "name": "owner",
          "type": "address"
        }
      ],
      "name": "balanceOf",
      "outputs": [
        {
          "internalType": "uint256",
          "name": "",
          "type": "uint256"
        }
      ],
      "stateMutability": "view",
      "type": "function"
    },
    {
      "inputs": [
        {
          "internalType": "uint256",
          "name": "tokenId",
          "type": "uint256"
        },
        {
          "internalType": "address",
          "name": "burner",
          "type": "address"
        }
      ],
      "name": "burn",
      "outputs": [],
      "stateMutability": "nonpayable",
      "type": "function"
    },
    {
      "inputs": [
        {
          "internalType": "uint256",
          "name": "tokenId",
          "type": "uint256"
        }
      ],
      "name": "getApproved",
      "outputs": [
        {
          "internalType": "address",
          "name": "",
          "type": "address"
        }
      ],
      "stateMutability": "view",
      "type": "function"
    },
    {
      "inputs": [],
      "name": "getCounter",
      "outputs": [
        {
          "internalType": "uint256",
          "name": "",
          "type": "uint256"
        }
      ],
      "stateMutability": "view",
      "type": "function"
    },
    {
      "inputs": [],
      "name": "getEnterprise",
      "outputs": [
        {
          "internalType": "contract Enterprise",
          "name": "",
          "type": "address"
        }
      ],
      "stateMutability": "view",
      "type": "function"
    },
    {
      "inputs": [
        {
          "internalType": "string",
          "name": "name",
          "type": "string"
        },
        {
          "internalType": "string",
          "name": "symbol",
          "type": "string"
        },
        {
          "internalType": "contract Enterprise",
          "name": "enterprise",
          "type": "address"
        }
      ],
      "name": "initialize",
      "outputs": [],
      "stateMutability": "nonpayable",
      "type": "function"
    },
    {
      "inputs": [
        {
          "internalType": "string",
          "name": "name_",
          "type": "string"
        },
        {
          "internalType": "string",
          "name": "symbol_",
          "type": "string"
        }
      ],
      "name": "initialize",
      "outputs": [],
      "stateMutability": "nonpayable",
      "type": "function"
    },
    {
      "inputs": [
        {
          "internalType": "contract Enterprise",
          "name": "enterprise",
          "type": "address"
        }
      ],
      "name": "initialize",
      "outputs": [],
      "stateMutability": "nonpayable",
      "type": "function"
    },
    {
      "inputs": [
        {
          "internalType": "address",
          "name": "owner",
          "type": "address"
        },
        {
          "internalType": "address",
          "name": "operator",
          "type": "address"
        }
      ],
      "name": "isApprovedForAll",
      "outputs": [
        {
          "internalType": "bool",
          "name": "",
          "type": "bool"
        }
      ],
      "stateMutability": "view",
      "type": "function"
    },
    {
      "inputs": [
        {
          "internalType": "address",
          "name": "to",
          "type": "address"
        }
      ],
      "name": "mint",
      "outputs": [
        {
          "internalType": "uint256",
          "name": "",
          "type": "uint256"
        }
      ],
      "stateMutability": "nonpayable",
      "type": "function"
    },
    {
      "inputs": [],
      "name": "name",
      "outputs": [
        {
          "internalType": "string",
          "name": "",
          "type": "string"
        }
      ],
      "stateMutability": "view",
      "type": "function"
    },
    {
      "inputs": [
        {
          "internalType": "uint256",
          "name": "tokenId",
          "type": "uint256"
        }
      ],
      "name": "ownerOf",
      "outputs": [
        {
          "internalType": "address",
          "name": "",
          "type": "address"
        }
      ],
      "stateMutability": "view",
      "type": "function"
    },
    {
      "inputs": [
        {
          "internalType": "address",
          "name": "from",
          "type": "address"
        },
        {
          "internalType": "address",
          "name": "to",
          "type": "address"
        },
        {
          "internalType": "uint256",
          "name": "tokenId",
          "type": "uint256"
        }
      ],
      "name": "safeTransferFrom",
      "outputs": [],
      "stateMutability": "nonpayable",
      "type": "function"
    },
    {
      "inputs": [
        {
          "internalType": "address",
          "name": "from",
          "type": "address"
        },
        {
          "internalType": "address",
          "name": "to",
          "type": "address"
        },
        {
          "internalType": "uint256",
          "name": "tokenId",
          "type": "uint256"
        },
        {
          "internalType": "bytes",
          "name": "_data",
          "type": "bytes"
        }
      ],
      "name": "safeTransferFrom",
      "outputs": [],
      "stateMutability": "nonpayable",
      "type": "function"
    },
    {
      "inputs": [
        {
          "internalType": "address",
          "name": "operator",
          "type": "address"
        },
        {
          "internalType": "bool",
          "name": "approved",
          "type": "bool"
        }
      ],
      "name": "setApprovalForAll",
      "outputs": [],
      "stateMutability": "nonpayable",
      "type": "function"
    },
    {
      "inputs": [
        {
          "internalType": "bytes4",
          "name": "interfaceId",
          "type": "bytes4"
        }
      ],
      "name": "supportsInterface",
      "outputs": [
        {
          "internalType": "bool",
          "name": "",
          "type": "bool"
        }
      ],
      "stateMutability": "view",
      "type": "function"
    },
    {
      "inputs": [],
      "name": "symbol",
      "outputs": [
        {
          "internalType": "string",
          "name": "",
          "type": "string"
        }
      ],
      "stateMutability": "view",
      "type": "function"
    },
    {
      "inputs": [
        {
          "internalType": "uint256",
          "name": "index",
          "type": "uint256"
        }
      ],
      "name": "tokenByIndex",
      "outputs": [
        {
          "internalType": "uint256",
          "name": "",
          "type": "uint256"
        }
      ],
      "stateMutability": "view",
      "type": "function"
    },
    {
      "inputs": [
        {
          "internalType": "address",
          "name": "owner",
          "type": "address"
        },
        {
          "internalType": "uint256",
          "name": "index",
          "type": "uint256"
        }
      ],
      "name": "tokenOfOwnerByIndex",
      "outputs": [
        {
          "internalType": "uint256",
          "name": "",
          "type": "uint256"
        }
      ],
      "stateMutability": "view",
      "type": "function"
    },
    {
      "inputs": [
        {
          "internalType": "uint256",
          "name": "tokenId",
          "type": "uint256"
        }
      ],
      "name": "tokenURI",
      "outputs": [
        {
          "internalType": "string",
          "name": "",
          "type": "string"
        }
      ],
      "stateMutability": "view",
      "type": "function"
    },
    {
      "inputs": [],
      "name": "totalSupply",
      "outputs": [
        {
          "internalType": "uint256",
          "name": "",
          "type": "uint256"
        }
      ],
      "stateMutability": "view",
      "type": "function"
    },
    {
      "inputs": [
        {
          "internalType": "address",
          "name": "from",
          "type": "address"
        },
        {
          "internalType": "address",
          "name": "to",
          "type": "address"
        },
        {
          "internalType": "uint256",
          "name": "tokenId",
          "type": "uint256"
        }
      ],
      "name": "transferFrom",
      "outputs": [],
      "stateMutability": "nonpayable",
      "type": "function"
    }
  ],
  "bytecode": "0x60806040526001600b5534801561001557600080fd5b506124e1806100256000396000f3fe608060405234801561001057600080fd5b506004361061014d5760003560e01c80636352211e116100c3578063b88d4fde1161007c578063b88d4fde146102af578063c4d66de8146102c2578063c87b56dd146102d5578063e298a2fd146102e8578063e985e9c5146102f9578063fcd3533c1461033557600080fd5b80636352211e146102535780636a6278421461026657806370a08231146102795780638ada066e1461028c57806395d89b4114610294578063a22cb4651461029c57600080fd5b806318160ddd1161011557806318160ddd146101e257806323b872dd146101f45780632f745c591461020757806342842e0e1461021a5780634cd88b761461022d5780634f6ccce71461024057600080fd5b806301ffc9a71461015257806306fdde031461017a578063077f224a1461018f578063081812fc146101a4578063095ea7b3146101cf575b600080fd5b610165610160366004611e9a565b610348565b60405190151581526020015b60405180910390f35b610182610373565b60405161017191906121fa565b6101a261019d366004611fa6565b610405565b005b6101b76101b23660046120df565b61041d565b6040516001600160a01b039091168152602001610171565b6101a26101dd366004611e53565b6104b7565b6009545b604051908152602001610171565b6101a2610202366004611d69565b6105c8565b6101e6610215366004611e53565b6105f9565b6101a2610228366004611d69565b61068f565b6101a261023b366004611f45565b6106aa565b6101e661024e3660046120df565b610723565b6101b76102613660046120df565b6107c4565b6101e6610274366004611cf9565b61083b565b6101e6610287366004611cf9565b610891565b600b546101e6565b610182610918565b6101a26102aa366004611e26565b610927565b6101a26102bd366004611da9565b6109ec565b6101a26102d0366004611cf9565b610a24565b6101826102e33660046120df565b610b12565b6000546001600160a01b03166101b7565b610165610307366004611d31565b6001600160a01b03918216600090815260066020908152604080832093909416825291909152205460ff1690565b6101a26103433660046120f7565b610bed565b60006001600160e01b0319821663780e9d6360e01b148061036d575061036d82610d67565b92915050565b606060018054610382906123c3565b80601f01602080910402602001604051908101604052809291908181526020018280546103ae906123c3565b80156103fb5780601f106103d0576101008083540402835291602001916103fb565b820191906000526020600020905b8154815290600101906020018083116103de57829003601f168201915b5050505050905090565b61040e81610a24565b61041883836106aa565b505050565b6000818152600360205260408120546001600160a01b031661049b5760405162461bcd60e51b815260206004820152602c60248201527f4552433732313a20617070726f76656420717565727920666f72206e6f6e657860448201526b34b9ba32b73a103a37b5b2b760a11b60648201526084015b60405180910390fd5b506000908152600560205260409020546001600160a01b031690565b60006104c2826107c4565b9050806001600160a01b0316836001600160a01b031614156105305760405162461bcd60e51b815260206004820152602160248201527f4552433732313a20617070726f76616c20746f2063757272656e74206f776e656044820152603960f91b6064820152608401610492565b336001600160a01b038216148061054c575061054c8133610307565b6105be5760405162461bcd60e51b815260206004820152603860248201527f4552433732313a20617070726f76652063616c6c6572206973206e6f74206f7760448201527f6e6572206e6f7220617070726f76656420666f7220616c6c00000000000000006064820152608401610492565b6104188383610db7565b6105d23382610e25565b6105ee5760405162461bcd60e51b8152600401610492906122aa565b610418838383610f1c565b600061060483610891565b82106106665760405162461bcd60e51b815260206004820152602b60248201527f455243373231456e756d657261626c653a206f776e657220696e646578206f7560448201526a74206f6620626f756e647360a81b6064820152608401610492565b506001600160a01b03919091166000908152600760209081526040808320938352929052205490565b610418838383604051806020016040528060008152506109ec565b600180546106b7906123c3565b1590506106fc5760405162461bcd60e51b8152602060048201526013602482015272105b1c9958591e481a5b9a5d1a585b1a5e9959606a1b6044820152606401610492565b815161070f906001906020850190611bc6565b508051610418906002906020840190611bc6565b600061072e60095490565b82106107915760405162461bcd60e51b815260206004820152602c60248201527f455243373231456e756d657261626c653a20676c6f62616c20696e646578206f60448201526b7574206f6620626f756e647360a01b6064820152608401610492565b600982815481106107b257634e487b7160e01b600052603260045260246000fd5b90600052602060002001549050919050565b6000818152600360205260408120546001600160a01b03168061036d5760405162461bcd60e51b815260206004820152602960248201527f4552433732313a206f776e657220717565727920666f72206e6f6e657869737460448201526832b73a103a37b5b2b760b91b6064820152608401610492565b600080546001600160a01b031633146108665760405162461bcd60e51b81526004016104929061225f565b600b5461087383826110c7565b600b8054906000610883836123fe565b90915550909150505b919050565b60006001600160a01b0382166108fc5760405162461bcd60e51b815260206004820152602a60248201527f4552433732313a2062616c616e636520717565727920666f7220746865207a65604482015269726f206164647265737360b01b6064820152608401610492565b506001600160a01b031660009081526004602052604090205490565b606060028054610382906123c3565b6001600160a01b0382163314156109805760405162461bcd60e51b815260206004820152601960248201527f4552433732313a20617070726f766520746f2063616c6c6572000000000000006044820152606401610492565b3360008181526006602090815260408083206001600160a01b03871680855290835292819020805460ff191686151590811790915590519081529192917f17307eab39ab6107e8899845ad3d59bd9653f200f220920489ca2b5937696c31910160405180910390a35050565b6109f63383610e25565b610a125760405162461bcd60e51b8152600401610492906122aa565b610a1e848484846110e5565b50505050565b6000546001600160a01b031615610a8c5760405162461bcd60e51b815260206004820152602660248201527f456e74657270726973654f776e61626c653a20616c726561647920696e697469604482015265185b1a5e995960d21b6064820152608401610492565b6001600160a01b038116610af05760405162461bcd60e51b815260206004820152602560248201527f456e74657270726973654f776e61626c653a20696e76616c696420656e746572604482015264707269736560d81b6064820152608401610492565b600080546001600160a01b0319166001600160a01b0392909216919091179055565b6000818152600360205260409020546060906001600160a01b0316610b915760405162461bcd60e51b815260206004820152602f60248201527f4552433732314d657461646174613a2055524920717565727920666f72206e6f60448201526e3732bc34b9ba32b73a103a37b5b2b760891b6064820152608401610492565b6000610b9b611118565b90506000815111610bbb5760405180602001604052806000815250610be6565b80610bc5846111e9565b604051602001610bd6929190612163565b6040516020818303038152906040525b9392505050565b6000546001600160a01b03163314610c175760405162461bcd60e51b81526004016104929061225f565b610c2082611303565b600080546001600160a01b03166040516301c5004b60e21b8152600481018590529091506000906001600160a01b03831690630714012c906024016101006040518083038186803b158015610c7457600080fd5b505afa158015610c88573d6000803e3d6000fd5b505050506040513d601f19601f82011682018060405250810190610cac919061201b565b60e08101516040516396ea297560e01b815261ffff90911660048201529091506000906001600160a01b038416906396ea29759060240160206040518083038186803b158015610cfb57600080fd5b505afa158015610d0f573d6000803e3d6000fd5b505050506040513d601f19601f82011682018060405250810190610d339190611d15565b9050610d60848360c001516001600160701b0316836001600160a01b03166113aa9092919063ffffffff16565b5050505050565b60006001600160e01b031982166380ac58cd60e01b1480610d9857506001600160e01b03198216635b5e139f60e01b145b8061036d57506301ffc9a760e01b6001600160e01b031983161461036d565b600081815260056020526040902080546001600160a01b0319166001600160a01b0384169081179091558190610dec826107c4565b6001600160a01b03167f8c5be1e5ebec7d5bd14f71427d1e84f3dd0314c0f7b2291e5b200ac8c7c3b92560405160405180910390a45050565b6000818152600360205260408120546001600160a01b0316610e9e5760405162461bcd60e51b815260206004820152602c60248201527f4552433732313a206f70657261746f7220717565727920666f72206e6f6e657860448201526b34b9ba32b73a103a37b5b2b760a11b6064820152608401610492565b6000610ea9836107c4565b9050806001600160a01b0316846001600160a01b03161480610ee45750836001600160a01b0316610ed98461041d565b6001600160a01b0316145b80610f1457506001600160a01b0380821660009081526006602090815260408083209388168352929052205460ff165b949350505050565b826001600160a01b0316610f2f826107c4565b6001600160a01b031614610f975760405162461bcd60e51b815260206004820152602960248201527f4552433732313a207472616e73666572206f6620746f6b656e2074686174206960448201526839903737ba1037bbb760b91b6064820152608401610492565b6001600160a01b038216610ff95760405162461bcd60e51b8152602060048201526024808201527f4552433732313a207472616e7366657220746f20746865207a65726f206164646044820152637265737360e01b6064820152608401610492565b6110048383836113fc565b61100f600082610db7565b6001600160a01b0383166000908152600460205260408120805460019290611038908490612380565b90915550506001600160a01b0382166000908152600460205260408120805460019290611066908490612354565b909155505060008181526003602052604080822080546001600160a01b0319166001600160a01b0386811691821790925591518493918716917fddf252ad1be2c89b69c2b068fc378daa952ba7f163c4a11628f55a4df523b3ef91a4505050565b6110e1828260405180602001604052806000815250611484565b5050565b6110f0848484610f1c565b6110fc848484846114b7565b610a1e5760405162461bcd60e51b81526004016104929061220d565b6060600061112e6000546001600160a01b031690565b6001600160a01b0316630cac36b26040518163ffffffff1660e01b815260040160006040518083038186803b15801561116657600080fd5b505afa15801561117a573d6000803e3d6000fd5b505050506040513d6000823e601f3d908101601f191682016040526111a29190810190611ed2565b905060008151116111c257604051806020016040528060008152506111e3565b806040516020016111d39190612192565b6040516020818303038152906040525b91505090565b60608161120d5750506040805180820190915260018152600360fc1b602082015290565b8160005b81156112375780611221816123fe565b91506112309050600a8361236c565b9150611211565b60008167ffffffffffffffff81111561126057634e487b7160e01b600052604160045260246000fd5b6040519080825280601f01601f19166020018201604052801561128a576020820181803683370190505b5090505b8415610f145761129f600183612380565b91506112ac600a86612419565b6112b7906030612354565b60f81b8183815181106112da57634e487b7160e01b600052603260045260246000fd5b60200101906001600160f81b031916908160001a9053506112fc600a8661236c565b945061128e565b600061130e826107c4565b905061131c816000846113fc565b611327600083610db7565b6001600160a01b0381166000908152600460205260408120805460019290611350908490612380565b909155505060008281526003602052604080822080546001600160a01b0319169055518391906001600160a01b038416907fddf252ad1be2c89b69c2b068fc378daa952ba7f163c4a11628f55a4df523b3ef908390a45050565b604080516001600160a01b038416602482015260448082018490528251808303909101815260649091019091526020810180516001600160e01b031663a9059cbb60e01b1790526104189084906115c4565b611407838383611696565b6000546001600160a01b031660405163144a94ef60e21b81526001600160a01b038581166004830152848116602483015260448201849052919091169063512a53bc90606401600060405180830381600087803b15801561146757600080fd5b505af115801561147b573d6000803e3d6000fd5b50505050505050565b61148e838361174e565b61149b60008484846114b7565b6104185760405162461bcd60e51b81526004016104929061220d565b60006001600160a01b0384163b156115b957604051630a85bd0160e11b81526001600160a01b0385169063150b7a02906114fb9033908990889088906004016121bd565b602060405180830381600087803b15801561151557600080fd5b505af1925050508015611545575060408051601f3d908101601f1916820190925261154291810190611eb6565b60015b61159f573d808015611573576040519150601f19603f3d011682016040523d82523d6000602084013e611578565b606091505b5080516115975760405162461bcd60e51b81526004016104929061220d565b805181602001fd5b6001600160e01b031916630a85bd0160e11b149050610f14565b506001949350505050565b6000611619826040518060400160405280602081526020017f5361666545524332303a206c6f772d6c6576656c2063616c6c206661696c6564815250856001600160a01b031661189c9092919063ffffffff16565b80519091501561041857808060200190518101906116379190611e7e565b6104185760405162461bcd60e51b815260206004820152602a60248201527f5361666545524332303a204552433230206f7065726174696f6e20646964206e6044820152691bdd081cdd58d8d9595960b21b6064820152608401610492565b6001600160a01b0383166116f1576116ec81600980546000838152600a60205260408120829055600182018355919091527f6e1540171b6c0c960b71a7020d9f60077f6af931a8bbf590da0223dacf75c7af0155565b611714565b816001600160a01b0316836001600160a01b0316146117145761171483826118ab565b6001600160a01b03821661172b5761041881611948565b826001600160a01b0316826001600160a01b031614610418576104188282611a21565b6001600160a01b0382166117a45760405162461bcd60e51b815260206004820181905260248201527f4552433732313a206d696e7420746f20746865207a65726f20616464726573736044820152606401610492565b6000818152600360205260409020546001600160a01b0316156118095760405162461bcd60e51b815260206004820152601c60248201527f4552433732313a20746f6b656e20616c7265616479206d696e746564000000006044820152606401610492565b611815600083836113fc565b6001600160a01b038216600090815260046020526040812080546001929061183e908490612354565b909155505060008181526003602052604080822080546001600160a01b0319166001600160a01b03861690811790915590518392907fddf252ad1be2c89b69c2b068fc378daa952ba7f163c4a11628f55a4df523b3ef908290a45050565b6060610f148484600085611a65565b600060016118b884610891565b6118c29190612380565b600083815260086020526040902054909150808214611915576001600160a01b03841660009081526007602090815260408083208584528252808320548484528184208190558352600890915290208190555b5060009182526008602090815260408084208490556001600160a01b039094168352600781528383209183525290812055565b60095460009061195a90600190612380565b6000838152600a60205260408120546009805493945090928490811061199057634e487b7160e01b600052603260045260246000fd5b9060005260206000200154905080600983815481106119bf57634e487b7160e01b600052603260045260246000fd5b6000918252602080832090910192909255828152600a90915260408082208490558582528120556009805480611a0557634e487b7160e01b600052603160045260246000fd5b6001900381819060005260206000200160009055905550505050565b6000611a2c83610891565b6001600160a01b039093166000908152600760209081526040808320868452825280832085905593825260089052919091209190915550565b606082471015611ac65760405162461bcd60e51b815260206004820152602660248201527f416464726573733a20696e73756666696369656e742062616c616e636520666f6044820152651c8818d85b1b60d21b6064820152608401610492565b843b611b145760405162461bcd60e51b815260206004820152601d60248201527f416464726573733a2063616c6c20746f206e6f6e2d636f6e74726163740000006044820152606401610492565b600080866001600160a01b03168587604051611b309190612147565b60006040518083038185875af1925050503d8060008114611b6d576040519150601f19603f3d011682016040523d82523d6000602084013e611b72565b606091505b5091509150611b82828286611b8d565b979650505050505050565b60608315611b9c575081610be6565b825115611bac5782518084602001fd5b8160405162461bcd60e51b815260040161049291906121fa565b828054611bd2906123c3565b90600052602060002090601f016020900481019282611bf45760008555611c3a565b82601f10611c0d57805160ff1916838001178555611c3a565b82800160010185558215611c3a579182015b82811115611c3a578251825591602001919060010190611c1f565b50611c46929150611c4a565b5090565b5b80821115611c465760008155600101611c4b565b6000611c72611c6d8461232c565b6122fb565b9050828152838383011115611c8657600080fd5b828260208301376000602084830101529392505050565b600082601f830112611cad578081fd5b610be683833560208501611c5f565b80516001600160701b038116811461088c57600080fd5b805161ffff8116811461088c57600080fd5b805163ffffffff8116811461088c57600080fd5b600060208284031215611d0a578081fd5b8135610be68161246f565b600060208284031215611d26578081fd5b8151610be68161246f565b60008060408385031215611d43578081fd5b8235611d4e8161246f565b91506020830135611d5e8161246f565b809150509250929050565b600080600060608486031215611d7d578081fd5b8335611d888161246f565b92506020840135611d988161246f565b929592945050506040919091013590565b60008060008060808587031215611dbe578081fd5b8435611dc98161246f565b93506020850135611dd98161246f565b925060408501359150606085013567ffffffffffffffff811115611dfb578182fd5b8501601f81018713611e0b578182fd5b611e1a87823560208401611c5f565b91505092959194509250565b60008060408385031215611e38578182fd5b8235611e438161246f565b91506020830135611d5e81612487565b60008060408385031215611e65578081fd5b8235611e708161246f565b946020939093013593505050565b600060208284031215611e8f578081fd5b8151610be681612487565b600060208284031215611eab578081fd5b8135610be681612495565b600060208284031215611ec7578081fd5b8151610be681612495565b600060208284031215611ee3578081fd5b815167ffffffffffffffff811115611ef9578182fd5b8201601f81018413611f09578182fd5b8051611f17611c6d8261232c565b818152856020838501011115611f2b578384fd5b611f3c826020830160208601612397565b95945050505050565b60008060408385031215611f57578182fd5b823567ffffffffffffffff80821115611f6e578384fd5b611f7a86838701611c9d565b93506020850135915080821115611f8f578283fd5b50611f9c85828601611c9d565b9150509250929050565b600080600060608486031215611fba578081fd5b833567ffffffffffffffff80821115611fd1578283fd5b611fdd87838801611c9d565b94506020860135915080821115611ff2578283fd5b50611fff86828701611c9d565b92505060408401356120108161246f565b809150509250925092565b600061010080838503121561202e578182fd5b6040519081019067ffffffffffffffff8211818310171561205157612051612459565b8160405261205e84611cbc565b815261206c60208501611cd3565b602082015261207d60408501611ce5565b604082015261208e60608501611ce5565b606082015261209f60808501611ce5565b60808201526120b060a08501611ce5565b60a08201526120c160c08501611cbc565b60c08201526120d260e08501611cd3565b60e0820152949350505050565b6000602082840312156120f0578081fd5b5035919050565b60008060408385031215612109578182fd5b823591506020830135611d5e8161246f565b60008151808452612133816020860160208601612397565b601f01601f19169290920160200192915050565b60008251612159818460208701612397565b9190910192915050565b60008351612175818460208801612397565b835190830190612189818360208801612397565b01949350505050565b600082516121a4818460208701612397565b66626f72726f772f60c81b920191825250600701919050565b6001600160a01b03858116825284166020820152604081018390526080606082018190526000906121f09083018461211b565b9695505050505050565b602081526000610be6602083018461211b565b60208082526032908201527f4552433732313a207472616e7366657220746f206e6f6e20455243373231526560408201527131b2b4bb32b91034b6b83632b6b2b73a32b960711b606082015260800190565b6020808252602b908201527f456e74657270726973654f776e61626c653a2063616c6c6572206973206e6f7460408201526a20456e746572707269736560a81b606082015260800190565b60208082526031908201527f4552433732313a207472616e736665722063616c6c6572206973206e6f74206f6040820152701ddb995c881b9bdc88185c1c1c9bdd9959607a1b606082015260800190565b604051601f8201601f1916810167ffffffffffffffff8111828210171561232457612324612459565b604052919050565b600067ffffffffffffffff82111561234657612346612459565b50601f01601f191660200190565b600082198211156123675761236761242d565b500190565b60008261237b5761237b612443565b500490565b6000828210156123925761239261242d565b500390565b60005b838110156123b257818101518382015260200161239a565b83811115610a1e5750506000910152565b600181811c908216806123d757607f821691505b602082108114156123f857634e487b7160e01b600052602260045260246000fd5b50919050565b60006000198214156124125761241261242d565b5060010190565b60008261242857612428612443565b500690565b634e487b7160e01b600052601160045260246000fd5b634e487b7160e01b600052601260045260246000fd5b634e487b7160e01b600052604160045260246000fd5b6001600160a01b038116811461248457600080fd5b50565b801515811461248457600080fd5b6001600160e01b03198116811461248457600080fdfea264697066735822122011d2c93047f2ca85bf34ede5a1a3682cc660d35eb4c88acaaa1130d0f1eea0f264736f6c63430008040033",
  "linkReferences": {},
  "deployedLinkReferences": {}
}