{
  "_format": "hh-sol-artifact-1",
  "contractName": "BorrowToken",
  "sourceName": "contracts/BorrowToken.sol",
  "abi": [
    {
      "anonymous": false,
      "inputs": [
        {
          "indexed": true,
          "internalType": "address",
          "name": "owner",
          "type": "address"
        },
        {
          "indexed": true,
          "internalType": "address",
          "name": "approved",
          "type": "address"
        },
        {
          "indexed": true,
          "internalType": "uint256",
          "name": "tokenId",
          "type": "uint256"
        }
      ],
      "name": "Approval",
      "type": "event"
    },
    {
      "anonymous": false,
      "inputs": [
        {
          "indexed": true,
          "internalType": "address",
          "name": "owner",
          "type": "address"
        },
        {
          "indexed": true,
          "internalType": "address",
          "name": "operator",
          "type": "address"
        },
        {
          "indexed": false,
          "internalType": "bool",
          "name": "approved",
          "type": "bool"
        }
      ],
      "name": "ApprovalForAll",
      "type": "event"
    },
    {
      "anonymous": false,
      "inputs": [
        {
          "indexed": true,
          "internalType": "address",
          "name": "previousOwner",
          "type": "address"
        },
        {
          "indexed": true,
          "internalType": "address",
          "name": "newOwner",
          "type": "address"
        }
      ],
      "name": "OwnershipTransferred",
      "type": "event"
    },
    {
      "anonymous": false,
      "inputs": [
        {
          "indexed": true,
          "internalType": "address",
          "name": "from",
          "type": "address"
        },
        {
          "indexed": true,
          "internalType": "address",
          "name": "to",
          "type": "address"
        },
        {
          "indexed": true,
          "internalType": "uint256",
          "name": "tokenId",
          "type": "uint256"
        }
      ],
      "name": "Transfer",
      "type": "event"
    },
    {
      "inputs": [
        {
          "internalType": "address",
          "name": "to",
          "type": "address"
        },
        {
          "internalType": "uint256",
          "name": "tokenId",
          "type": "uint256"
        }
      ],
      "name": "approve",
      "outputs": [],
      "stateMutability": "nonpayable",
      "type": "function"
    },
    {
      "inputs": [
        {
          "internalType": "address",
          "name": "owner",
          "type": "address"
        }
      ],
      "name": "balanceOf",
      "outputs": [
        {
          "internalType": "uint256",
          "name": "",
          "type": "uint256"
        }
      ],
      "stateMutability": "view",
      "type": "function"
    },
    {
      "inputs": [],
      "name": "baseURI",
      "outputs": [
        {
          "internalType": "string",
          "name": "",
          "type": "string"
        }
      ],
      "stateMutability": "view",
      "type": "function"
    },
    {
      "inputs": [
        {
          "internalType": "uint256",
          "name": "tokenId",
          "type": "uint256"
        },
        {
          "internalType": "address",
          "name": "burner",
          "type": "address"
        }
      ],
      "name": "burn",
      "outputs": [],
      "stateMutability": "nonpayable",
      "type": "function"
    },
    {
      "inputs": [
        {
          "internalType": "uint256",
          "name": "tokenId",
          "type": "uint256"
        }
      ],
      "name": "getApproved",
      "outputs": [
        {
          "internalType": "address",
          "name": "",
          "type": "address"
        }
      ],
      "stateMutability": "view",
      "type": "function"
    },
    {
      "inputs": [],
      "name": "getCounter",
      "outputs": [
        {
          "internalType": "uint256",
          "name": "",
          "type": "uint256"
        }
      ],
      "stateMutability": "view",
      "type": "function"
    },
    {
      "inputs": [
        {
          "internalType": "string",
          "name": "name_",
          "type": "string"
        },
        {
          "internalType": "string",
          "name": "symbol_",
          "type": "string"
        }
      ],
      "name": "initialize",
      "outputs": [],
      "stateMutability": "nonpayable",
      "type": "function"
    },
    {
      "inputs": [
        {
          "internalType": "string",
          "name": "name",
          "type": "string"
        },
        {
          "internalType": "string",
          "name": "symbol",
          "type": "string"
        },
        {
          "internalType": "string",
          "name": "baseUri",
          "type": "string"
        }
      ],
      "name": "initialize",
      "outputs": [],
      "stateMutability": "nonpayable",
      "type": "function"
    },
    {
      "inputs": [
        {
          "internalType": "address",
          "name": "initialOwner",
          "type": "address"
        }
      ],
      "name": "initialize",
      "outputs": [],
      "stateMutability": "nonpayable",
      "type": "function"
    },
    {
      "inputs": [
        {
          "internalType": "address",
          "name": "owner",
          "type": "address"
        },
        {
          "internalType": "address",
          "name": "operator",
          "type": "address"
        }
      ],
      "name": "isApprovedForAll",
      "outputs": [
        {
          "internalType": "bool",
          "name": "",
          "type": "bool"
        }
      ],
      "stateMutability": "view",
      "type": "function"
    },
    {
      "inputs": [
        {
          "internalType": "address",
          "name": "to",
          "type": "address"
        }
      ],
      "name": "mint",
      "outputs": [
        {
          "internalType": "uint256",
          "name": "",
          "type": "uint256"
        }
      ],
      "stateMutability": "nonpayable",
      "type": "function"
    },
    {
      "inputs": [],
      "name": "name",
      "outputs": [
        {
          "internalType": "string",
          "name": "",
          "type": "string"
        }
      ],
      "stateMutability": "view",
      "type": "function"
    },
    {
      "inputs": [],
      "name": "owner",
      "outputs": [
        {
          "internalType": "address",
          "name": "",
          "type": "address"
        }
      ],
      "stateMutability": "view",
      "type": "function"
    },
    {
      "inputs": [
        {
          "internalType": "uint256",
          "name": "tokenId",
          "type": "uint256"
        }
      ],
      "name": "ownerOf",
      "outputs": [
        {
          "internalType": "address",
          "name": "",
          "type": "address"
        }
      ],
      "stateMutability": "view",
      "type": "function"
    },
    {
      "inputs": [
        {
          "internalType": "address",
          "name": "from",
          "type": "address"
        },
        {
          "internalType": "address",
          "name": "to",
          "type": "address"
        },
        {
          "internalType": "uint256",
          "name": "tokenId",
          "type": "uint256"
        }
      ],
      "name": "safeTransferFrom",
      "outputs": [],
      "stateMutability": "nonpayable",
      "type": "function"
    },
    {
      "inputs": [
        {
          "internalType": "address",
          "name": "from",
          "type": "address"
        },
        {
          "internalType": "address",
          "name": "to",
          "type": "address"
        },
        {
          "internalType": "uint256",
          "name": "tokenId",
          "type": "uint256"
        },
        {
          "internalType": "bytes",
          "name": "_data",
          "type": "bytes"
        }
      ],
      "name": "safeTransferFrom",
      "outputs": [],
      "stateMutability": "nonpayable",
      "type": "function"
    },
    {
      "inputs": [
        {
          "internalType": "address",
          "name": "operator",
          "type": "address"
        },
        {
          "internalType": "bool",
          "name": "approved",
          "type": "bool"
        }
      ],
      "name": "setApprovalForAll",
      "outputs": [],
      "stateMutability": "nonpayable",
      "type": "function"
    },
    {
      "inputs": [
        {
          "internalType": "bytes4",
          "name": "interfaceId",
          "type": "bytes4"
        }
      ],
      "name": "supportsInterface",
      "outputs": [
        {
          "internalType": "bool",
          "name": "",
          "type": "bool"
        }
      ],
      "stateMutability": "view",
      "type": "function"
    },
    {
      "inputs": [],
      "name": "symbol",
      "outputs": [
        {
          "internalType": "string",
          "name": "",
          "type": "string"
        }
      ],
      "stateMutability": "view",
      "type": "function"
    },
    {
      "inputs": [
        {
          "internalType": "uint256",
          "name": "index",
          "type": "uint256"
        }
      ],
      "name": "tokenByIndex",
      "outputs": [
        {
          "internalType": "uint256",
          "name": "",
          "type": "uint256"
        }
      ],
      "stateMutability": "view",
      "type": "function"
    },
    {
      "inputs": [
        {
          "internalType": "address",
          "name": "owner",
          "type": "address"
        },
        {
          "internalType": "uint256",
          "name": "index",
          "type": "uint256"
        }
      ],
      "name": "tokenOfOwnerByIndex",
      "outputs": [
        {
          "internalType": "uint256",
          "name": "",
          "type": "uint256"
        }
      ],
      "stateMutability": "view",
      "type": "function"
    },
    {
      "inputs": [
        {
          "internalType": "uint256",
          "name": "tokenId",
          "type": "uint256"
        }
      ],
      "name": "tokenURI",
      "outputs": [
        {
          "internalType": "string",
          "name": "",
          "type": "string"
        }
      ],
      "stateMutability": "view",
      "type": "function"
    },
    {
      "inputs": [],
      "name": "totalSupply",
      "outputs": [
        {
          "internalType": "uint256",
          "name": "",
          "type": "uint256"
        }
      ],
      "stateMutability": "view",
      "type": "function"
    },
    {
      "inputs": [
        {
          "internalType": "address",
          "name": "from",
          "type": "address"
        },
        {
          "internalType": "address",
          "name": "to",
          "type": "address"
        },
        {
          "internalType": "uint256",
          "name": "tokenId",
          "type": "uint256"
        }
      ],
      "name": "transferFrom",
      "outputs": [],
      "stateMutability": "nonpayable",
      "type": "function"
    },
    {
      "inputs": [
        {
          "internalType": "address",
          "name": "newOwner",
          "type": "address"
        }
      ],
      "name": "transferOwnership",
      "outputs": [],
      "stateMutability": "nonpayable",
      "type": "function"
    }
  ],
  "bytecode": "0x60806040526001600c5534801561001557600080fd5b506100266301ffc9a760e01b61002b565b6100af565b6001600160e01b0319808216141561008a576040805162461bcd60e51b815260206004820152601c60248201527f4552433136353a20696e76616c696420696e7465726661636520696400000000604482015290519081900360640190fd5b6001600160e01b0319166000908152602081905260409020805460ff19166001179055565b612a8980620000bf6000396000f3fe608060405234801561001057600080fd5b50600436106101a35760003560e01c80636c0360eb116100ee578063a6487c5311610097578063c87b56dd11610071578063c87b56dd14610334578063e985e9c514610347578063f2fde38b1461035a578063fcd3533c1461036d576101a3565b8063a6487c53146102fb578063b88d4fde1461030e578063c4d66de814610321576101a3565b80638da5cb5b116100c85780638da5cb5b146102d857806395d89b41146102e0578063a22cb465146102e8576101a3565b80636c0360eb146102b557806370a08231146102bd5780638ada066e146102d0576101a3565b80632f745c59116101505780634f6ccce71161012a5780634f6ccce71461027c5780636352211e1461028f5780636a627842146102a2576101a3565b80632f745c591461024357806342842e0e146102565780634cd88b7614610269576101a3565b8063095ea7b311610181578063095ea7b31461020657806318160ddd1461021b57806323b872dd14610230576101a3565b806301ffc9a7146101a857806306fdde03146101d1578063081812fc146101e6575b600080fd5b6101bb6101b63660046124c3565b610380565b6040516101c89190612702565b60405180910390f35b6101d96103a3565b6040516101c8919061270d565b6101f96101f436600461268e565b610439565b6040516101c891906126ca565b610219610214366004612498565b61049b565b005b610223610571565b6040516101c8919061276f565b61021961023e3660046123aa565b610582565b610223610251366004612498565b6105d9565b6102196102643660046123aa565b610604565b6102196102773660046124eb565b61061f565b61022361028a36600461268e565b61072e565b6101f961029d36600461268e565b610744565b6102236102b036600461233a565b61076c565b6101d96107ea565b6102236102cb36600461233a565b61084b565b6102236108b3565b6101f96108b9565b6101d96108c8565b6102196102f6366004612467565b610929565b61021961030936600461254c565b610a2e565b61021961031c3660046123ea565b610a6e565b61021961032f36600461233a565b610acc565b6101d961034236600461268e565b610b6d565b6101bb610355366004612372565b610dee565b61021961036836600461233a565b610e1c565b61021961037b3660046126a6565b610f29565b6001600160e01b0319811660009081526020819052604090205460ff165b919050565b60078054604080516020601f600260001961010060018816150201909516949094049384018190048102820181019092528281526060939092909183018282801561042f5780601f106104045761010080835404028352916020019161042f565b820191906000526020600020905b81548152906001019060200180831161041257829003601f168201915b5050505050905090565b600061044482611102565b61047f5760405162461bcd60e51b815260040180806020018281038252602c81526020018061292b602c913960400191505060405180910390fd5b506000908152600560205260409020546001600160a01b031690565b60006104a682610744565b9050806001600160a01b0316836001600160a01b031614156104f95760405162461bcd60e51b81526004018080602001828103825260218152602001806129d86021913960400191505060405180910390fd5b806001600160a01b031661050b61110f565b6001600160a01b0316148061052757506105278161035561110f565b6105625760405162461bcd60e51b815260040180806020018281038252603881526020018061287e6038913960400191505060405180910390fd5b61056c8383611113565b505050565b600061057d600361118e565b905090565b61059361058d61110f565b82611199565b6105ce5760405162461bcd60e51b81526004018080602001828103825260318152602001806129f96031913960400191505060405180910390fd5b61056c83838361123d565b6001600160a01b03821660009081526002602052604081206105fb9083611389565b90505b92915050565b61056c83838360405180602001604052806000815250610a6e565b6007546002600019610100600184161502019091160415610687576040805162461bcd60e51b815260206004820152601b60248201527f436f6e747261637420616c726561647920696e7469616c697a65640000000000604482015290519081900360640190fd5b815161069a90600790602085019061218b565b5080516106ae90600890602084019061218b565b506106d87f80ac58cd00000000000000000000000000000000000000000000000000000000611395565b6107017f5b5e139f00000000000000000000000000000000000000000000000000000000611395565b61072a7f780e9d6300000000000000000000000000000000000000000000000000000000611395565b5050565b60008061073c600384611419565b509392505050565b60006105fe826040518060600160405280602981526020016128e06029913960039190611435565b6001546000906001600160a01b031633146107ce576040805162461bcd60e51b815260206004820181905260248201527f4f776e61626c653a2063616c6c6572206973206e6f7420746865206f776e6572604482015290519081900360640190fd5b600c546107db838261144c565b600c8054600101905592915050565b600a8054604080516020601f600260001961010060018816150201909516949094049384018190048102820181019092528281526060939092909183018282801561042f5780601f106104045761010080835404028352916020019161042f565b60006001600160a01b0382166108925760405162461bcd60e51b815260040180806020018281038252602a8152602001806128b6602a913960400191505060405180910390fd5b6001600160a01b03821660009081526002602052604090206105fe9061118e565b600c5490565b6001546001600160a01b031690565b60088054604080516020601f600260001961010060018816150201909516949094049384018190048102820181019092528281526060939092909183018282801561042f5780601f106104045761010080835404028352916020019161042f565b61093161110f565b6001600160a01b0316826001600160a01b03161415610997576040805162461bcd60e51b815260206004820152601960248201527f4552433732313a20617070726f766520746f2063616c6c657200000000000000604482015290519081900360640190fd5b80600660006109a461110f565b6001600160a01b03908116825260208083019390935260409182016000908120918716808252919093529120805460ff1916921515929092179091556109e861110f565b6001600160a01b03167f17307eab39ab6107e8899845ad3d59bd9653f200f220920489ca2b5937696c318360405180821515815260200191505060405180910390a35050565b610a3733610acc565b610a41838361061f565b610a4a81611466565b5050600b805473ffffffffffffffffffffffffffffffffffffffff19163317905550565b610a7f610a7961110f565b83611199565b610aba5760405162461bcd60e51b81526004018080602001828103825260318152602001806129f96031913960400191505060405180910390fd5b610ac684848484611479565b50505050565b6001546001600160a01b031615610b145760405162461bcd60e51b81526004018080602001828103825260298152602001806129576029913960400191505060405180910390fd5b6001805473ffffffffffffffffffffffffffffffffffffffff19166001600160a01b0383169081179091556040516000907f8be0079c531659141344cd1fd0a4f28419497f9722a3daafe3b4186f6b6457e0908290a350565b6060610b7882611102565b610bb35760405162461bcd60e51b815260040180806020018281038252602f8152602001806129a9602f913960400191505060405180910390fd5b60008281526009602090815260408083208054825160026001831615610100026000190190921691909104601f810185900485028201850190935282815292909190830182828015610c465780601f10610c1b57610100808354040283529160200191610c46565b820191906000526020600020905b815481529060010190602001808311610c2957829003601f168201915b505050505090506000610c576107ea565b9050805160001415610c6b5750905061039e565b815115610d2c5780826040516020018083805190602001908083835b60208310610ca65780518252601f199092019160209182019101610c87565b51815160209384036101000a600019018019909216911617905285519190930192850191508083835b60208310610cee5780518252601f199092019160209182019101610ccf565b6001836020036101000a038019825116818451168082178552505050505050905001925050506040516020818303038152906040529250505061039e565b80610d36856114cb565b6040516020018083805190602001908083835b60208310610d685780518252601f199092019160209182019101610d49565b51815160209384036101000a600019018019909216911617905285519190930192850191508083835b60208310610db05780518252601f199092019160209182019101610d91565b6001836020036101000a0380198251168184511680821785525050505050509050019250505060405160208183030381529060405292505050919050565b6001600160a01b03918216600090815260066020908152604080832093909416825291909152205460ff1690565b6001546001600160a01b03163314610e7b576040805162461bcd60e51b815260206004820181905260248201527f4f776e61626c653a2063616c6c6572206973206e6f7420746865206f776e6572604482015290519081900360640190fd5b6001600160a01b038116610ec05760405162461bcd60e51b81526004018080602001828103825260268152602001806127e26026913960400191505060405180910390fd5b6001546040516001600160a01b038084169216907f8be0079c531659141344cd1fd0a4f28419497f9722a3daafe3b4186f6b6457e090600090a36001805473ffffffffffffffffffffffffffffffffffffffff19166001600160a01b0392909216919091179055565b6001546001600160a01b03163314610f88576040805162461bcd60e51b815260206004820181905260248201527f4f776e61626c653a2063616c6c6572206973206e6f7420746865206f776e6572604482015290519081900360640190fd5b610f91826115da565b600b546040517f0714012c0000000000000000000000000000000000000000000000000000000081526000916001600160a01b031690630714012c90610fdb90869060040161276f565b6101006040518083038186803b158015610ff457600080fd5b505afa158015611008573d6000803e3d6000fd5b505050506040513d601f19601f8201168201806040525081019061102c91906125d0565b600b5460e08201516040517f8619344b0000000000000000000000000000000000000000000000000000000081529293506000926001600160a01b0390921691638619344b9161107e91600401612760565b60206040518083038186803b15801561109657600080fd5b505afa1580156110aa573d6000803e3d6000fd5b505050506040513d601f19601f820116820180604052508101906110ce9190612356565b9050610ac6838360c001516dffffffffffffffffffffffffffff16836001600160a01b03166116a79092919063ffffffff16565b60006105fe600383611712565b3390565b6000818152600560205260409020805473ffffffffffffffffffffffffffffffffffffffff19166001600160a01b038416908117909155819061115582610744565b6001600160a01b03167f8c5be1e5ebec7d5bd14f71427d1e84f3dd0314c0f7b2291e5b200ac8c7c3b92560405160405180910390a45050565b60006105fe8261171e565b60006111a482611102565b6111df5760405162461bcd60e51b815260040180806020018281038252602c815260200180612852602c913960400191505060405180910390fd5b60006111ea83610744565b9050806001600160a01b0316846001600160a01b031614806112255750836001600160a01b031661121a84610439565b6001600160a01b0316145b8061123557506112358185610dee565b949350505050565b826001600160a01b031661125082610744565b6001600160a01b0316146112955760405162461bcd60e51b81526004018080602001828103825260298152602001806129806029913960400191505060405180910390fd5b6001600160a01b0382166112da5760405162461bcd60e51b81526004018080602001828103825260248152602001806128086024913960400191505060405180910390fd5b6112e5838383611722565b6112f0600082611113565b6001600160a01b038316600090815260026020526040902061131290826117a6565b506001600160a01b038216600090815260026020526040902061133590826117b2565b50611342600382846117be565b5080826001600160a01b0316846001600160a01b03167fddf252ad1be2c89b69c2b068fc378daa952ba7f163c4a11628f55a4df523b3ef60405160405180910390a4505050565b60006105fb83836117d4565b6001600160e01b031980821614156113f4576040805162461bcd60e51b815260206004820152601c60248201527f4552433136353a20696e76616c696420696e7465726661636520696400000000604482015290519081900360640190fd5b6001600160e01b0319166000908152602081905260409020805460ff19166001179055565b60008080806114288686611838565b9097909650945050505050565b60006114428484846118b3565b90505b9392505050565b61072a82826040518060200160405280600081525061197d565b805161072a90600a90602084019061218b565b61148484848461123d565b611490848484846119cf565b610ac65760405162461bcd60e51b81526004018080602001828103825260328152602001806127b06032913960400191505060405180910390fd5b60608161150c575060408051808201909152600181527f3000000000000000000000000000000000000000000000000000000000000000602082015261039e565b8160005b811561152457600101600a82049150611510565b60008167ffffffffffffffff8111801561153d57600080fd5b506040519080825280601f01601f191660200182016040528015611568576020820181803683370190505b50859350905060001982015b83156115d157600a840660300160f81b8282806001900393508151811061159757fe5b60200101907effffffffffffffffffffffffffffffffffffffffffffffffffffffffffffff1916908160001a905350600a84049350611574565b50949350505050565b60006115e582610744565b90506115f381600084611722565b6115fe600083611113565b600082815260096020526040902054600260001961010060018416150201909116041561163c57600082815260096020526040812061163c91612217565b6001600160a01b038116600090815260026020526040902061165e90836117a6565b5061166a600383611b37565b5060405182906000906001600160a01b038416907fddf252ad1be2c89b69c2b068fc378daa952ba7f163c4a11628f55a4df523b3ef908390a45050565b604080516001600160a01b038416602482015260448082018490528251808303909101815260649091019091526020810180516001600160e01b03167fa9059cbb0000000000000000000000000000000000000000000000000000000017905261056c908490611b43565b60006105fb8383611bf4565b5490565b600b546040517f512a53bc0000000000000000000000000000000000000000000000000000000081526001600160a01b039091169063512a53bc9061176f908690869086906004016126de565b600060405180830381600087803b15801561178957600080fd5b505af115801561179d573d6000803e3d6000fd5b50505050505050565b60006105fb8383611c0c565b60006105fb8383611cd2565b600061144284846001600160a01b038516611d1c565b815460009082106118165760405162461bcd60e51b815260040180806020018281038252602281526020018061278e6022913960400191505060405180910390fd5b82600001828154811061182557fe5b9060005260206000200154905092915050565b81546000908190831061187c5760405162461bcd60e51b81526004018080602001828103825260228152602001806129096022913960400191505060405180910390fd5b600084600001848154811061188d57fe5b906000526020600020906002020190508060000154816001015492509250509250929050565b6000828152600184016020526040812054828161194e5760405162461bcd60e51b81526004018080602001828103825283818151815260200191508051906020019080838360005b838110156119135781810151838201526020016118fb565b50505050905090810190601f1680156119405780820380516001836020036101000a031916815260200191505b509250505060405180910390fd5b5084600001600182038154811061196157fe5b9060005260206000209060020201600101549150509392505050565b6119878383611db3565b61199460008484846119cf565b61056c5760405162461bcd60e51b81526004018080602001828103825260328152602001806127b06032913960400191505060405180910390fd5b60006119e3846001600160a01b0316611ee1565b6119ef57506001611235565b6000611afd630a85bd0160e11b611a0461110f565b88878760405160240180856001600160a01b03168152602001846001600160a01b0316815260200183815260200180602001828103825283818151815260200191508051906020019080838360005b83811015611a6b578181015183820152602001611a53565b50505050905090810190601f168015611a985780820380516001836020036101000a031916815260200191505b5095505050505050604051602081830303815290604052906001600160e01b0319166020820180516001600160e01b0383818316178352505050506040518060600160405280603281526020016127b0603291396001600160a01b0388169190611ee7565b90506000818060200190516020811015611b1657600080fd5b50516001600160e01b031916630a85bd0160e11b1492505050949350505050565b60006105fb8383611ef6565b6000611b98826040518060400160405280602081526020017f5361666545524332303a206c6f772d6c6576656c2063616c6c206661696c6564815250856001600160a01b0316611ee79092919063ffffffff16565b80519091501561056c57808060200190516020811015611bb757600080fd5b505161056c5760405162461bcd60e51b815260040180806020018281038252602a815260200180612a2a602a913960400191505060405180910390fd5b60009081526001919091016020526040902054151590565b60008181526001830160205260408120548015611cc85783546000198083019190810190600090879083908110611c3f57fe5b9060005260206000200154905080876000018481548110611c5c57fe5b600091825260208083209091019290925582815260018981019092526040902090840190558654879080611c8c57fe5b600190038181906000526020600020016000905590558660010160008781526020019081526020016000206000905560019450505050506105fe565b60009150506105fe565b6000611cde8383611bf4565b611d14575081546001818101845560008481526020808220909301849055845484825282860190935260409020919091556105fe565b5060006105fe565b600082815260018401602052604081205480611d81575050604080518082018252838152602080820184815286546001818101895560008981528481209551600290930290950191825591519082015586548684528188019092529290912055611445565b82856000016001830381548110611d9457fe5b9060005260206000209060020201600101819055506000915050611445565b6001600160a01b038216611e0e576040805162461bcd60e51b815260206004820181905260248201527f4552433732313a206d696e7420746f20746865207a65726f2061646472657373604482015290519081900360640190fd5b611e1781611102565b15611e69576040805162461bcd60e51b815260206004820152601c60248201527f4552433732313a20746f6b656e20616c7265616479206d696e74656400000000604482015290519081900360640190fd5b611e7560008383611722565b6001600160a01b0382166000908152600260205260409020611e9790826117b2565b50611ea4600382846117be565b5060405181906001600160a01b038416906000907fddf252ad1be2c89b69c2b068fc378daa952ba7f163c4a11628f55a4df523b3ef908290a45050565b3b151590565b60606114428484600085611fca565b60008181526001830160205260408120548015611cc85783546000198083019190810190600090879083908110611f2957fe5b9060005260206000209060020201905080876000018481548110611f4957fe5b600091825260208083208454600290930201918255600193840154918401919091558354825289830190526040902090840190558654879080611f8857fe5b60008281526020808220600260001990940193840201828155600190810183905592909355888152898201909252604082209190915594506105fe9350505050565b60608247101561200b5760405162461bcd60e51b815260040180806020018281038252602681526020018061282c6026913960400191505060405180910390fd5b61201485611ee1565b612065576040805162461bcd60e51b815260206004820152601d60248201527f416464726573733a2063616c6c20746f206e6f6e2d636f6e7472616374000000604482015290519081900360640190fd5b600080866001600160a01b031685876040518082805190602001908083835b602083106120a35780518252601f199092019160209182019101612084565b6001836020036101000a03801982511681845116808217855250505050505090500191505060006040518083038185875af1925050503d8060008114612105576040519150601f19603f3d011682016040523d82523d6000602084013e61210a565b606091505b509150915061211a828286612125565b979650505050505050565b60608315612134575081611445565b8251156121445782518084602001fd5b60405162461bcd60e51b81526020600482018181528451602484015284518593919283926044019190850190808383600083156119135781810151838201526020016118fb565b828054600181600116156101000203166002900490600052602060002090601f0160209004810192826121c15760008555612207565b82601f106121da57805160ff1916838001178555612207565b82800160010185558215612207579182015b828111156122075782518255916020019190600101906121ec565b5061221392915061225e565b5090565b50805460018160011615610100020316600290046000825580601f1061223d575061225b565b601f01602090049060005260206000209081019061225b919061225e565b50565b5b80821115612213576000815560010161225f565b600067ffffffffffffffff8084111561228857fe5b604051601f8501601f1916810160200182811182821017156122a657fe5b6040528481529150818385018610156122be57600080fd5b8484602083013760006020868301015250509392505050565b600082601f8301126122e7578081fd5b6105fb83833560208501612273565b80516dffffffffffffffffffffffffffff8116811461039e57600080fd5b805161ffff8116811461039e57600080fd5b805163ffffffff8116811461039e57600080fd5b60006020828403121561234b578081fd5b813561144581612778565b600060208284031215612367578081fd5b815161144581612778565b60008060408385031215612384578081fd5b823561238f81612778565b9150602083013561239f81612778565b809150509250929050565b6000806000606084860312156123be578081fd5b83356123c981612778565b925060208401356123d981612778565b929592945050506040919091013590565b600080600080608085870312156123ff578081fd5b843561240a81612778565b9350602085013561241a81612778565b925060408501359150606085013567ffffffffffffffff81111561243c578182fd5b8501601f8101871361244c578182fd5b61245b87823560208401612273565b91505092959194509250565b60008060408385031215612479578182fd5b823561248481612778565b91506020830135801515811461239f578182fd5b600080604083850312156124aa578182fd5b82356124b581612778565b946020939093013593505050565b6000602082840312156124d4578081fd5b81356001600160e01b031981168114611445578182fd5b600080604083850312156124fd578182fd5b823567ffffffffffffffff80821115612514578384fd5b612520868387016122d7565b93506020850135915080821115612535578283fd5b50612542858286016122d7565b9150509250929050565b600080600060608486031215612560578283fd5b833567ffffffffffffffff80821115612577578485fd5b612583878388016122d7565b94506020860135915080821115612598578384fd5b6125a4878388016122d7565b935060408601359150808211156125b9578283fd5b506125c6868287016122d7565b9150509250925092565b60006101008083850312156125e3578182fd5b6040519081019067ffffffffffffffff8211818310171561260057fe5b8160405261260d846122f6565b815261261b60208501612314565b602082015261262c60408501612326565b604082015261263d60608501612326565b606082015261264e60808501612326565b608082015261265f60a08501612326565b60a082015261267060c085016122f6565b60c082015261268160e08501612314565b60e0820152949350505050565b60006020828403121561269f578081fd5b5035919050565b600080604083850312156126b8578182fd5b82359150602083013561239f81612778565b6001600160a01b0391909116815260200190565b6001600160a01b039384168152919092166020820152604081019190915260600190565b901515815260200190565b6000602080835283518082850152825b818110156127395785810183015185820160400152820161271d565b8181111561274a5783604083870101525b50601f01601f1916929092016040019392505050565b61ffff91909116815260200190565b90815260200190565b6001600160a01b038116811461225b57600080fdfe456e756d657261626c655365743a20696e646578206f7574206f6620626f756e64734552433732313a207472616e7366657220746f206e6f6e20455243373231526563656976657220696d706c656d656e7465724f776e61626c653a206e6577206f776e657220697320746865207a65726f20616464726573734552433732313a207472616e7366657220746f20746865207a65726f2061646472657373416464726573733a20696e73756666696369656e742062616c616e636520666f722063616c6c4552433732313a206f70657261746f7220717565727920666f72206e6f6e6578697374656e7420746f6b656e4552433732313a20617070726f76652063616c6c6572206973206e6f74206f776e6572206e6f7220617070726f76656420666f7220616c6c4552433732313a2062616c616e636520717565727920666f7220746865207a65726f20616464726573734552433732313a206f776e657220717565727920666f72206e6f6e6578697374656e7420746f6b656e456e756d657261626c654d61703a20696e646578206f7574206f6620626f756e64734552433732313a20617070726f76656420717565727920666f72206e6f6e6578697374656e7420746f6b656e496e697469616c697a61626c654f776e61626c653a20616c726561647920696e697469616c697a65644552433732313a207472616e73666572206f6620746f6b656e2074686174206973206e6f74206f776e4552433732314d657461646174613a2055524920717565727920666f72206e6f6e6578697374656e7420746f6b656e4552433732313a20617070726f76616c20746f2063757272656e74206f776e65724552433732313a207472616e736665722063616c6c6572206973206e6f74206f776e6572206e6f7220617070726f7665645361666545524332303a204552433230206f7065726174696f6e20646964206e6f742073756363656564a26469706673582212209ed9d9be46a94429753e394548646742d757a2a70e2938c0e950f7209a43a9a864736f6c63430007060033",
  "linkReferences": {},
  "deployedLinkReferences": {}
}