{
  "_format": "hh-sol-artifact-1",
  "contractName": "BorrowToken",
  "sourceName": "contracts/BorrowToken.sol",
  "abi": [
    {
      "anonymous": false,
      "inputs": [
        {
          "indexed": true,
          "internalType": "address",
          "name": "owner",
          "type": "address"
        },
        {
          "indexed": true,
          "internalType": "address",
          "name": "approved",
          "type": "address"
        },
        {
          "indexed": true,
          "internalType": "uint256",
          "name": "tokenId",
          "type": "uint256"
        }
      ],
      "name": "Approval",
      "type": "event"
    },
    {
      "anonymous": false,
      "inputs": [
        {
          "indexed": true,
          "internalType": "address",
          "name": "owner",
          "type": "address"
        },
        {
          "indexed": true,
          "internalType": "address",
          "name": "operator",
          "type": "address"
        },
        {
          "indexed": false,
          "internalType": "bool",
          "name": "approved",
          "type": "bool"
        }
      ],
      "name": "ApprovalForAll",
      "type": "event"
    },
    {
      "anonymous": false,
      "inputs": [
        {
          "indexed": true,
          "internalType": "address",
          "name": "previousOwner",
          "type": "address"
        },
        {
          "indexed": true,
          "internalType": "address",
          "name": "newOwner",
          "type": "address"
        }
      ],
      "name": "OwnershipTransferred",
      "type": "event"
    },
    {
      "anonymous": false,
      "inputs": [
        {
          "indexed": true,
          "internalType": "address",
          "name": "from",
          "type": "address"
        },
        {
          "indexed": true,
          "internalType": "address",
          "name": "to",
          "type": "address"
        },
        {
          "indexed": true,
          "internalType": "uint256",
          "name": "tokenId",
          "type": "uint256"
        }
      ],
      "name": "Transfer",
      "type": "event"
    },
    {
      "inputs": [
        {
          "internalType": "address",
          "name": "to",
          "type": "address"
        },
        {
          "internalType": "uint256",
          "name": "tokenId",
          "type": "uint256"
        }
      ],
      "name": "approve",
      "outputs": [],
      "stateMutability": "nonpayable",
      "type": "function"
    },
    {
      "inputs": [
        {
          "internalType": "address",
          "name": "owner",
          "type": "address"
        }
      ],
      "name": "balanceOf",
      "outputs": [
        {
          "internalType": "uint256",
          "name": "",
          "type": "uint256"
        }
      ],
      "stateMutability": "view",
      "type": "function"
    },
    {
      "inputs": [],
      "name": "baseURI",
      "outputs": [
        {
          "internalType": "string",
          "name": "",
          "type": "string"
        }
      ],
      "stateMutability": "view",
      "type": "function"
    },
    {
      "inputs": [
        {
          "internalType": "uint256",
          "name": "tokenId",
          "type": "uint256"
        },
        {
          "internalType": "address",
          "name": "burner",
          "type": "address"
        }
      ],
      "name": "burn",
      "outputs": [],
      "stateMutability": "nonpayable",
      "type": "function"
    },
    {
      "inputs": [
        {
          "internalType": "uint256",
          "name": "tokenId",
          "type": "uint256"
        }
      ],
      "name": "getApproved",
      "outputs": [
        {
          "internalType": "address",
          "name": "",
          "type": "address"
        }
      ],
      "stateMutability": "view",
      "type": "function"
    },
    {
      "inputs": [],
      "name": "getCounter",
      "outputs": [
        {
          "internalType": "uint256",
          "name": "",
          "type": "uint256"
        }
      ],
      "stateMutability": "view",
      "type": "function"
    },
    {
      "inputs": [
        {
          "internalType": "string",
          "name": "name_",
          "type": "string"
        },
        {
          "internalType": "string",
          "name": "symbol_",
          "type": "string"
        }
      ],
      "name": "initialize",
      "outputs": [],
      "stateMutability": "nonpayable",
      "type": "function"
    },
    {
      "inputs": [
        {
          "internalType": "address",
          "name": "initialOwner",
          "type": "address"
        }
      ],
      "name": "initialize",
      "outputs": [],
      "stateMutability": "nonpayable",
      "type": "function"
    },
    {
      "inputs": [
        {
          "internalType": "string",
          "name": "name",
          "type": "string"
        },
        {
          "internalType": "string",
          "name": "symbol",
          "type": "string"
        },
        {
          "internalType": "string",
          "name": "baseUri",
          "type": "string"
        },
        {
          "internalType": "contract EnterpriseConfigurator",
          "name": "configurator",
          "type": "address"
        },
        {
          "internalType": "contract IEnterprise",
          "name": "enterprise",
          "type": "address"
        }
      ],
      "name": "initialize",
      "outputs": [],
      "stateMutability": "nonpayable",
      "type": "function"
    },
    {
      "inputs": [
        {
          "internalType": "address",
          "name": "owner",
          "type": "address"
        },
        {
          "internalType": "address",
          "name": "operator",
          "type": "address"
        }
      ],
      "name": "isApprovedForAll",
      "outputs": [
        {
          "internalType": "bool",
          "name": "",
          "type": "bool"
        }
      ],
      "stateMutability": "view",
      "type": "function"
    },
    {
      "inputs": [
        {
          "internalType": "address",
          "name": "to",
          "type": "address"
        }
      ],
      "name": "mint",
      "outputs": [
        {
          "internalType": "uint256",
          "name": "",
          "type": "uint256"
        }
      ],
      "stateMutability": "nonpayable",
      "type": "function"
    },
    {
      "inputs": [],
      "name": "name",
      "outputs": [
        {
          "internalType": "string",
          "name": "",
          "type": "string"
        }
      ],
      "stateMutability": "view",
      "type": "function"
    },
    {
      "inputs": [],
      "name": "owner",
      "outputs": [
        {
          "internalType": "address",
          "name": "",
          "type": "address"
        }
      ],
      "stateMutability": "view",
      "type": "function"
    },
    {
      "inputs": [
        {
          "internalType": "uint256",
          "name": "tokenId",
          "type": "uint256"
        }
      ],
      "name": "ownerOf",
      "outputs": [
        {
          "internalType": "address",
          "name": "",
          "type": "address"
        }
      ],
      "stateMutability": "view",
      "type": "function"
    },
    {
      "inputs": [
        {
          "internalType": "address",
          "name": "from",
          "type": "address"
        },
        {
          "internalType": "address",
          "name": "to",
          "type": "address"
        },
        {
          "internalType": "uint256",
          "name": "tokenId",
          "type": "uint256"
        }
      ],
      "name": "safeTransferFrom",
      "outputs": [],
      "stateMutability": "nonpayable",
      "type": "function"
    },
    {
      "inputs": [
        {
          "internalType": "address",
          "name": "from",
          "type": "address"
        },
        {
          "internalType": "address",
          "name": "to",
          "type": "address"
        },
        {
          "internalType": "uint256",
          "name": "tokenId",
          "type": "uint256"
        },
        {
          "internalType": "bytes",
          "name": "_data",
          "type": "bytes"
        }
      ],
      "name": "safeTransferFrom",
      "outputs": [],
      "stateMutability": "nonpayable",
      "type": "function"
    },
    {
      "inputs": [
        {
          "internalType": "address",
          "name": "operator",
          "type": "address"
        },
        {
          "internalType": "bool",
          "name": "approved",
          "type": "bool"
        }
      ],
      "name": "setApprovalForAll",
      "outputs": [],
      "stateMutability": "nonpayable",
      "type": "function"
    },
    {
      "inputs": [
        {
          "internalType": "bytes4",
          "name": "interfaceId",
          "type": "bytes4"
        }
      ],
      "name": "supportsInterface",
      "outputs": [
        {
          "internalType": "bool",
          "name": "",
          "type": "bool"
        }
      ],
      "stateMutability": "view",
      "type": "function"
    },
    {
      "inputs": [],
      "name": "symbol",
      "outputs": [
        {
          "internalType": "string",
          "name": "",
          "type": "string"
        }
      ],
      "stateMutability": "view",
      "type": "function"
    },
    {
      "inputs": [
        {
          "internalType": "uint256",
          "name": "index",
          "type": "uint256"
        }
      ],
      "name": "tokenByIndex",
      "outputs": [
        {
          "internalType": "uint256",
          "name": "",
          "type": "uint256"
        }
      ],
      "stateMutability": "view",
      "type": "function"
    },
    {
      "inputs": [
        {
          "internalType": "address",
          "name": "owner",
          "type": "address"
        },
        {
          "internalType": "uint256",
          "name": "index",
          "type": "uint256"
        }
      ],
      "name": "tokenOfOwnerByIndex",
      "outputs": [
        {
          "internalType": "uint256",
          "name": "",
          "type": "uint256"
        }
      ],
      "stateMutability": "view",
      "type": "function"
    },
    {
      "inputs": [
        {
          "internalType": "uint256",
          "name": "tokenId",
          "type": "uint256"
        }
      ],
      "name": "tokenURI",
      "outputs": [
        {
          "internalType": "string",
          "name": "",
          "type": "string"
        }
      ],
      "stateMutability": "view",
      "type": "function"
    },
    {
      "inputs": [],
      "name": "totalSupply",
      "outputs": [
        {
          "internalType": "uint256",
          "name": "",
          "type": "uint256"
        }
      ],
      "stateMutability": "view",
      "type": "function"
    },
    {
      "inputs": [
        {
          "internalType": "address",
          "name": "from",
          "type": "address"
        },
        {
          "internalType": "address",
          "name": "to",
          "type": "address"
        },
        {
          "internalType": "uint256",
          "name": "tokenId",
          "type": "uint256"
        }
      ],
      "name": "transferFrom",
      "outputs": [],
      "stateMutability": "nonpayable",
      "type": "function"
    },
    {
      "inputs": [
        {
          "internalType": "address",
          "name": "newOwner",
          "type": "address"
        }
      ],
      "name": "transferOwnership",
      "outputs": [],
      "stateMutability": "nonpayable",
      "type": "function"
    }
  ],
  "bytecode": "0x60806040526001600d5534801561001557600080fd5b506100266301ffc9a760e01b61002b565b6100af565b6001600160e01b0319808216141561008a576040805162461bcd60e51b815260206004820152601c60248201527f4552433136353a20696e76616c696420696e7465726661636520696400000000604482015290519081900360640190fd5b6001600160e01b0319166000908152602081905260409020805460ff19166001179055565b612acb80620000bf6000396000f3fe608060405234801561001057600080fd5b50600436106101a35760003560e01c80636c0360eb116100ee578063b88d4fde11610097578063d6d0faee11610071578063d6d0faee14610334578063e985e9c514610347578063f2fde38b1461035a578063fcd3533c1461036d576101a3565b8063b88d4fde146102fb578063c4d66de81461030e578063c87b56dd14610321576101a3565b80638da5cb5b116100c85780638da5cb5b146102d857806395d89b41146102e0578063a22cb465146102e8576101a3565b80636c0360eb146102b557806370a08231146102bd5780638ada066e146102d0576101a3565b80632f745c59116101505780634f6ccce71161012a5780634f6ccce71461027c5780636352211e1461028f5780636a627842146102a2576101a3565b80632f745c591461024357806342842e0e146102565780634cd88b7614610269576101a3565b8063095ea7b311610181578063095ea7b31461020657806318160ddd1461021b57806323b872dd14610230576101a3565b806301ffc9a7146101a857806306fdde03146101d1578063081812fc146101e6575b600080fd5b6101bb6101b63660046124dd565b610380565b6040516101c89190612744565b60405180910390f35b6101d96103a3565b6040516101c8919061274f565b6101f96101f43660046126d0565b610439565b6040516101c8919061270c565b6102196102143660046124b2565b61049b565b005b610223610571565b6040516101c891906127b1565b61021961023e3660046123c4565b610582565b6102236102513660046124b2565b6105d9565b6102196102643660046123c4565b610604565b610219610277366004612505565b61061f565b61022361028a3660046126d0565b61072e565b6101f961029d3660046126d0565b610744565b6102236102b0366004612354565b61076c565b6101d96107ea565b6102236102cb366004612354565b61084b565b6102236108b3565b6101f96108b9565b6101d96108c8565b6102196102f6366004612481565b610929565b610219610309366004612404565b610a2e565b61021961031c366004612354565b610a8c565b6101d961032f3660046126d0565b610b2d565b610219610342366004612566565b610dae565b6101bb61035536600461238c565b610e08565b610219610368366004612354565b610e36565b61021961037b3660046126e8565b610f43565b6001600160e01b0319811660009081526020819052604090205460ff165b919050565b60078054604080516020601f600260001961010060018816150201909516949094049384018190048102820181019092528281526060939092909183018282801561042f5780601f106104045761010080835404028352916020019161042f565b820191906000526020600020905b81548152906001019060200180831161041257829003601f168201915b5050505050905090565b60006104448261111c565b61047f5760405162461bcd60e51b815260040180806020018281038252602c81526020018061296d602c913960400191505060405180910390fd5b506000908152600560205260409020546001600160a01b031690565b60006104a682610744565b9050806001600160a01b0316836001600160a01b031614156104f95760405162461bcd60e51b8152600401808060200182810382526021815260200180612a1a6021913960400191505060405180910390fd5b806001600160a01b031661050b611129565b6001600160a01b03161480610527575061052781610355611129565b6105625760405162461bcd60e51b81526004018080602001828103825260388152602001806128c06038913960400191505060405180910390fd5b61056c838361112d565b505050565b600061057d60036111a8565b905090565b61059361058d611129565b826111b3565b6105ce5760405162461bcd60e51b8152600401808060200182810382526031815260200180612a3b6031913960400191505060405180910390fd5b61056c838383611257565b6001600160a01b03821660009081526002602052604081206105fb90836113a3565b90505b92915050565b61056c83838360405180602001604052806000815250610a2e565b6007546002600019610100600184161502019091160415610687576040805162461bcd60e51b815260206004820152601b60248201527f436f6e747261637420616c726561647920696e7469616c697a65640000000000604482015290519081900360640190fd5b815161069a9060079060208501906121a5565b5080516106ae9060089060208401906121a5565b506106d87f80ac58cd000000000000000000000000000000000000000000000000000000006113af565b6107017f5b5e139f000000000000000000000000000000000000000000000000000000006113af565b61072a7f780e9d63000000000000000000000000000000000000000000000000000000006113af565b5050565b60008061073c600384611433565b509392505050565b60006105fe82604051806060016040528060298152602001612922602991396003919061144f565b6001546000906001600160a01b031633146107ce576040805162461bcd60e51b815260206004820181905260248201527f4f776e61626c653a2063616c6c6572206973206e6f7420746865206f776e6572604482015290519081900360640190fd5b600d546107db8382611466565b600d8054600101905592915050565b600a8054604080516020601f600260001961010060018816150201909516949094049384018190048102820181019092528281526060939092909183018282801561042f5780601f106104045761010080835404028352916020019161042f565b60006001600160a01b0382166108925760405162461bcd60e51b815260040180806020018281038252602a8152602001806128f8602a913960400191505060405180910390fd5b6001600160a01b03821660009081526002602052604090206105fe906111a8565b600d5490565b6001546001600160a01b031690565b60088054604080516020601f600260001961010060018816150201909516949094049384018190048102820181019092528281526060939092909183018282801561042f5780601f106104045761010080835404028352916020019161042f565b610931611129565b6001600160a01b0316826001600160a01b03161415610997576040805162461bcd60e51b815260206004820152601960248201527f4552433732313a20617070726f766520746f2063616c6c657200000000000000604482015290519081900360640190fd5b80600660006109a4611129565b6001600160a01b03908116825260208083019390935260409182016000908120918716808252919093529120805460ff1916921515929092179091556109e8611129565b6001600160a01b03167f17307eab39ab6107e8899845ad3d59bd9653f200f220920489ca2b5937696c318360405180821515815260200191505060405180910390a35050565b610a3f610a39611129565b836111b3565b610a7a5760405162461bcd60e51b8152600401808060200182810382526031815260200180612a3b6031913960400191505060405180910390fd5b610a8684848484611480565b50505050565b6001546001600160a01b031615610ad45760405162461bcd60e51b81526004018080602001828103825260298152602001806129996029913960400191505060405180910390fd5b6001805473ffffffffffffffffffffffffffffffffffffffff19166001600160a01b0383169081179091556040516000907f8be0079c531659141344cd1fd0a4f28419497f9722a3daafe3b4186f6b6457e0908290a350565b6060610b388261111c565b610b735760405162461bcd60e51b815260040180806020018281038252602f8152602001806129eb602f913960400191505060405180910390fd5b60008281526009602090815260408083208054825160026001831615610100026000190190921691909104601f810185900485028201850190935282815292909190830182828015610c065780601f10610bdb57610100808354040283529160200191610c06565b820191906000526020600020905b815481529060010190602001808311610be957829003601f168201915b505050505090506000610c176107ea565b9050805160001415610c2b5750905061039e565b815115610cec5780826040516020018083805190602001908083835b60208310610c665780518252601f199092019160209182019101610c47565b51815160209384036101000a600019018019909216911617905285519190930192850191508083835b60208310610cae5780518252601f199092019160209182019101610c8f565b6001836020036101000a038019825116818451168082178552505050505050905001925050506040516020818303038152906040529250505061039e565b80610cf6856114d2565b6040516020018083805190602001908083835b60208310610d285780518252601f199092019160209182019101610d09565b51815160209384036101000a600019018019909216911617905285519190930192850191508083835b60208310610d705780518252601f199092019160209182019101610d51565b6001836020036101000a0380198251168184511680821785525050505050509050019250505060405160208183030381529060405292505050919050565b610db733610a8c565b610dc1858561061f565b610dca836115e1565b600c80546001600160a01b0393841673ffffffffffffffffffffffffffffffffffffffff1991821617909155600b8054929093169116179055505050565b6001600160a01b03918216600090815260066020908152604080832093909416825291909152205460ff1690565b6001546001600160a01b03163314610e95576040805162461bcd60e51b815260206004820181905260248201527f4f776e61626c653a2063616c6c6572206973206e6f7420746865206f776e6572604482015290519081900360640190fd5b6001600160a01b038116610eda5760405162461bcd60e51b81526004018080602001828103825260268152602001806128246026913960400191505060405180910390fd5b6001546040516001600160a01b038084169216907f8be0079c531659141344cd1fd0a4f28419497f9722a3daafe3b4186f6b6457e090600090a36001805473ffffffffffffffffffffffffffffffffffffffff19166001600160a01b0392909216919091179055565b6001546001600160a01b03163314610fa2576040805162461bcd60e51b815260206004820181905260248201527f4f776e61626c653a2063616c6c6572206973206e6f7420746865206f776e6572604482015290519081900360640190fd5b610fab826115f4565b600b546040517f0714012c0000000000000000000000000000000000000000000000000000000081526000916001600160a01b031690630714012c90610ff59086906004016127b1565b6101006040518083038186803b15801561100e57600080fd5b505afa158015611022573d6000803e3d6000fd5b505050506040513d601f19601f820116820180604052508101906110469190612612565b600c5460e08201516040517f96ea29750000000000000000000000000000000000000000000000000000000081529293506000926001600160a01b03909216916396ea297591611098916004016127a2565b60206040518083038186803b1580156110b057600080fd5b505afa1580156110c4573d6000803e3d6000fd5b505050506040513d601f19601f820116820180604052508101906110e89190612370565b9050610a86838360c001516dffffffffffffffffffffffffffff16836001600160a01b03166116c19092919063ffffffff16565b60006105fe60038361172c565b3390565b6000818152600560205260409020805473ffffffffffffffffffffffffffffffffffffffff19166001600160a01b038416908117909155819061116f82610744565b6001600160a01b03167f8c5be1e5ebec7d5bd14f71427d1e84f3dd0314c0f7b2291e5b200ac8c7c3b92560405160405180910390a45050565b60006105fe82611738565b60006111be8261111c565b6111f95760405162461bcd60e51b815260040180806020018281038252602c815260200180612894602c913960400191505060405180910390fd5b600061120483610744565b9050806001600160a01b0316846001600160a01b0316148061123f5750836001600160a01b031661123484610439565b6001600160a01b0316145b8061124f575061124f8185610e08565b949350505050565b826001600160a01b031661126a82610744565b6001600160a01b0316146112af5760405162461bcd60e51b81526004018080602001828103825260298152602001806129c26029913960400191505060405180910390fd5b6001600160a01b0382166112f45760405162461bcd60e51b815260040180806020018281038252602481526020018061284a6024913960400191505060405180910390fd5b6112ff83838361173c565b61130a60008261112d565b6001600160a01b038316600090815260026020526040902061132c90826117c0565b506001600160a01b038216600090815260026020526040902061134f90826117cc565b5061135c600382846117d8565b5080826001600160a01b0316846001600160a01b03167fddf252ad1be2c89b69c2b068fc378daa952ba7f163c4a11628f55a4df523b3ef60405160405180910390a4505050565b60006105fb83836117ee565b6001600160e01b0319808216141561140e576040805162461bcd60e51b815260206004820152601c60248201527f4552433136353a20696e76616c696420696e7465726661636520696400000000604482015290519081900360640190fd5b6001600160e01b0319166000908152602081905260409020805460ff19166001179055565b60008080806114428686611852565b9097909650945050505050565b600061145c8484846118cd565b90505b9392505050565b61072a828260405180602001604052806000815250611997565b61148b848484611257565b611497848484846119e9565b610a865760405162461bcd60e51b81526004018080602001828103825260328152602001806127f26032913960400191505060405180910390fd5b606081611513575060408051808201909152600181527f3000000000000000000000000000000000000000000000000000000000000000602082015261039e565b8160005b811561152b57600101600a82049150611517565b60008167ffffffffffffffff8111801561154457600080fd5b506040519080825280601f01601f19166020018201604052801561156f576020820181803683370190505b50859350905060001982015b83156115d857600a840660300160f81b8282806001900393508151811061159e57fe5b60200101907effffffffffffffffffffffffffffffffffffffffffffffffffffffffffffff1916908160001a905350600a8404935061157b565b50949350505050565b805161072a90600a9060208401906121a5565b60006115ff82610744565b905061160d8160008461173c565b61161860008361112d565b600082815260096020526040902054600260001961010060018416150201909116041561165657600082815260096020526040812061165691612231565b6001600160a01b038116600090815260026020526040902061167890836117c0565b50611684600383611b51565b5060405182906000906001600160a01b038416907fddf252ad1be2c89b69c2b068fc378daa952ba7f163c4a11628f55a4df523b3ef908390a45050565b604080516001600160a01b038416602482015260448082018490528251808303909101815260649091019091526020810180516001600160e01b03167fa9059cbb0000000000000000000000000000000000000000000000000000000017905261056c908490611b5d565b60006105fb8383611c0e565b5490565b600b546040517f512a53bc0000000000000000000000000000000000000000000000000000000081526001600160a01b039091169063512a53bc9061178990869086908690600401612720565b600060405180830381600087803b1580156117a357600080fd5b505af11580156117b7573d6000803e3d6000fd5b50505050505050565b60006105fb8383611c26565b60006105fb8383611cec565b600061145c84846001600160a01b038516611d36565b815460009082106118305760405162461bcd60e51b81526004018080602001828103825260228152602001806127d06022913960400191505060405180910390fd5b82600001828154811061183f57fe5b9060005260206000200154905092915050565b8154600090819083106118965760405162461bcd60e51b815260040180806020018281038252602281526020018061294b6022913960400191505060405180910390fd5b60008460000184815481106118a757fe5b906000526020600020906002020190508060000154816001015492509250509250929050565b600082815260018401602052604081205482816119685760405162461bcd60e51b81526004018080602001828103825283818151815260200191508051906020019080838360005b8381101561192d578181015183820152602001611915565b50505050905090810190601f16801561195a5780820380516001836020036101000a031916815260200191505b509250505060405180910390fd5b5084600001600182038154811061197b57fe5b9060005260206000209060020201600101549150509392505050565b6119a18383611dcd565b6119ae60008484846119e9565b61056c5760405162461bcd60e51b81526004018080602001828103825260328152602001806127f26032913960400191505060405180910390fd5b60006119fd846001600160a01b0316611efb565b611a095750600161124f565b6000611b17630a85bd0160e11b611a1e611129565b88878760405160240180856001600160a01b03168152602001846001600160a01b0316815260200183815260200180602001828103825283818151815260200191508051906020019080838360005b83811015611a85578181015183820152602001611a6d565b50505050905090810190601f168015611ab25780820380516001836020036101000a031916815260200191505b5095505050505050604051602081830303815290604052906001600160e01b0319166020820180516001600160e01b0383818316178352505050506040518060600160405280603281526020016127f2603291396001600160a01b0388169190611f01565b90506000818060200190516020811015611b3057600080fd5b50516001600160e01b031916630a85bd0160e11b1492505050949350505050565b60006105fb8383611f10565b6000611bb2826040518060400160405280602081526020017f5361666545524332303a206c6f772d6c6576656c2063616c6c206661696c6564815250856001600160a01b0316611f019092919063ffffffff16565b80519091501561056c57808060200190516020811015611bd157600080fd5b505161056c5760405162461bcd60e51b815260040180806020018281038252602a815260200180612a6c602a913960400191505060405180910390fd5b60009081526001919091016020526040902054151590565b60008181526001830160205260408120548015611ce25783546000198083019190810190600090879083908110611c5957fe5b9060005260206000200154905080876000018481548110611c7657fe5b600091825260208083209091019290925582815260018981019092526040902090840190558654879080611ca657fe5b600190038181906000526020600020016000905590558660010160008781526020019081526020016000206000905560019450505050506105fe565b60009150506105fe565b6000611cf88383611c0e565b611d2e575081546001818101845560008481526020808220909301849055845484825282860190935260409020919091556105fe565b5060006105fe565b600082815260018401602052604081205480611d9b57505060408051808201825283815260208082018481528654600181810189556000898152848120955160029093029095019182559151908201558654868452818801909252929091205561145f565b82856000016001830381548110611dae57fe5b906000526020600020906002020160010181905550600091505061145f565b6001600160a01b038216611e28576040805162461bcd60e51b815260206004820181905260248201527f4552433732313a206d696e7420746f20746865207a65726f2061646472657373604482015290519081900360640190fd5b611e318161111c565b15611e83576040805162461bcd60e51b815260206004820152601c60248201527f4552433732313a20746f6b656e20616c7265616479206d696e74656400000000604482015290519081900360640190fd5b611e8f6000838361173c565b6001600160a01b0382166000908152600260205260409020611eb190826117cc565b50611ebe600382846117d8565b5060405181906001600160a01b038416906000907fddf252ad1be2c89b69c2b068fc378daa952ba7f163c4a11628f55a4df523b3ef908290a45050565b3b151590565b606061145c8484600085611fe4565b60008181526001830160205260408120548015611ce25783546000198083019190810190600090879083908110611f4357fe5b9060005260206000209060020201905080876000018481548110611f6357fe5b600091825260208083208454600290930201918255600193840154918401919091558354825289830190526040902090840190558654879080611fa257fe5b60008281526020808220600260001990940193840201828155600190810183905592909355888152898201909252604082209190915594506105fe9350505050565b6060824710156120255760405162461bcd60e51b815260040180806020018281038252602681526020018061286e6026913960400191505060405180910390fd5b61202e85611efb565b61207f576040805162461bcd60e51b815260206004820152601d60248201527f416464726573733a2063616c6c20746f206e6f6e2d636f6e7472616374000000604482015290519081900360640190fd5b600080866001600160a01b031685876040518082805190602001908083835b602083106120bd5780518252601f19909201916020918201910161209e565b6001836020036101000a03801982511681845116808217855250505050505090500191505060006040518083038185875af1925050503d806000811461211f576040519150601f19603f3d011682016040523d82523d6000602084013e612124565b606091505b509150915061213482828661213f565b979650505050505050565b6060831561214e57508161145f565b82511561215e5782518084602001fd5b60405162461bcd60e51b815260206004820181815284516024840152845185939192839260440191908501908083836000831561192d578181015183820152602001611915565b828054600181600116156101000203166002900490600052602060002090601f0160209004810192826121db5760008555612221565b82601f106121f457805160ff1916838001178555612221565b82800160010185558215612221579182015b82811115612221578251825591602001919060010190612206565b5061222d929150612278565b5090565b50805460018160011615610100020316600290046000825580601f106122575750612275565b601f0160209004906000526020600020908101906122759190612278565b50565b5b8082111561222d5760008155600101612279565b600067ffffffffffffffff808411156122a257fe5b604051601f8501601f1916810160200182811182821017156122c057fe5b6040528481529150818385018610156122d857600080fd5b8484602083013760006020868301015250509392505050565b600082601f830112612301578081fd5b6105fb8383356020850161228d565b80516dffffffffffffffffffffffffffff8116811461039e57600080fd5b805161ffff8116811461039e57600080fd5b805163ffffffff8116811461039e57600080fd5b600060208284031215612365578081fd5b813561145f816127ba565b600060208284031215612381578081fd5b815161145f816127ba565b6000806040838503121561239e578081fd5b82356123a9816127ba565b915060208301356123b9816127ba565b809150509250929050565b6000806000606084860312156123d8578081fd5b83356123e3816127ba565b925060208401356123f3816127ba565b929592945050506040919091013590565b60008060008060808587031215612419578081fd5b8435612424816127ba565b93506020850135612434816127ba565b925060408501359150606085013567ffffffffffffffff811115612456578182fd5b8501601f81018713612466578182fd5b6124758782356020840161228d565b91505092959194509250565b60008060408385031215612493578182fd5b823561249e816127ba565b9150602083013580151581146123b9578182fd5b600080604083850312156124c4578182fd5b82356124cf816127ba565b946020939093013593505050565b6000602082840312156124ee578081fd5b81356001600160e01b03198116811461145f578182fd5b60008060408385031215612517578182fd5b823567ffffffffffffffff8082111561252e578384fd5b61253a868387016122f1565b9350602085013591508082111561254f578283fd5b5061255c858286016122f1565b9150509250929050565b600080600080600060a0868803121561257d578283fd5b853567ffffffffffffffff80821115612594578485fd5b6125a089838a016122f1565b965060208801359150808211156125b5578485fd5b6125c189838a016122f1565b955060408801359150808211156125d6578485fd5b506125e3888289016122f1565b93505060608601356125f4816127ba565b91506080860135612604816127ba565b809150509295509295909350565b6000610100808385031215612625578182fd5b6040519081019067ffffffffffffffff8211818310171561264257fe5b8160405261264f84612310565b815261265d6020850161232e565b602082015261266e60408501612340565b604082015261267f60608501612340565b606082015261269060808501612340565b60808201526126a160a08501612340565b60a08201526126b260c08501612310565b60c08201526126c360e0850161232e565b60e0820152949350505050565b6000602082840312156126e1578081fd5b5035919050565b600080604083850312156126fa578182fd5b8235915060208301356123b9816127ba565b6001600160a01b0391909116815260200190565b6001600160a01b039384168152919092166020820152604081019190915260600190565b901515815260200190565b6000602080835283518082850152825b8181101561277b5785810183015185820160400152820161275f565b8181111561278c5783604083870101525b50601f01601f1916929092016040019392505050565b61ffff91909116815260200190565b90815260200190565b6001600160a01b038116811461227557600080fdfe456e756d657261626c655365743a20696e646578206f7574206f6620626f756e64734552433732313a207472616e7366657220746f206e6f6e20455243373231526563656976657220696d706c656d656e7465724f776e61626c653a206e6577206f776e657220697320746865207a65726f20616464726573734552433732313a207472616e7366657220746f20746865207a65726f2061646472657373416464726573733a20696e73756666696369656e742062616c616e636520666f722063616c6c4552433732313a206f70657261746f7220717565727920666f72206e6f6e6578697374656e7420746f6b656e4552433732313a20617070726f76652063616c6c6572206973206e6f74206f776e6572206e6f7220617070726f76656420666f7220616c6c4552433732313a2062616c616e636520717565727920666f7220746865207a65726f20616464726573734552433732313a206f776e657220717565727920666f72206e6f6e6578697374656e7420746f6b656e456e756d657261626c654d61703a20696e646578206f7574206f6620626f756e64734552433732313a20617070726f76656420717565727920666f72206e6f6e6578697374656e7420746f6b656e496e697469616c697a61626c654f776e61626c653a20616c726561647920696e697469616c697a65644552433732313a207472616e73666572206f6620746f6b656e2074686174206973206e6f74206f776e4552433732314d657461646174613a2055524920717565727920666f72206e6f6e6578697374656e7420746f6b656e4552433732313a20617070726f76616c20746f2063757272656e74206f776e65724552433732313a207472616e736665722063616c6c6572206973206e6f74206f776e6572206e6f7220617070726f7665645361666545524332303a204552433230206f7065726174696f6e20646964206e6f742073756363656564a264697066735822122052662bdcb1ce84cd3cc1e7e12dda724953ec9a5e9d35ebc83c772b53cb1bbf1964736f6c63430007060033",
  "linkReferences": {},
  "deployedLinkReferences": {}
}