{
  "_format": "hh-sol-artifact-1",
  "contractName": "BorrowToken",
  "sourceName": "contracts/BorrowToken.sol",
  "abi": [
    {
      "anonymous": false,
      "inputs": [
        {
          "indexed": true,
          "internalType": "address",
          "name": "owner",
          "type": "address"
        },
        {
          "indexed": true,
          "internalType": "address",
          "name": "approved",
          "type": "address"
        },
        {
          "indexed": true,
          "internalType": "uint256",
          "name": "tokenId",
          "type": "uint256"
        }
      ],
      "name": "Approval",
      "type": "event"
    },
    {
      "anonymous": false,
      "inputs": [
        {
          "indexed": true,
          "internalType": "address",
          "name": "owner",
          "type": "address"
        },
        {
          "indexed": true,
          "internalType": "address",
          "name": "operator",
          "type": "address"
        },
        {
          "indexed": false,
          "internalType": "bool",
          "name": "approved",
          "type": "bool"
        }
      ],
      "name": "ApprovalForAll",
      "type": "event"
    },
    {
      "anonymous": false,
      "inputs": [
        {
          "indexed": true,
          "internalType": "address",
          "name": "from",
          "type": "address"
        },
        {
          "indexed": true,
          "internalType": "address",
          "name": "to",
          "type": "address"
        },
        {
          "indexed": true,
          "internalType": "uint256",
          "name": "tokenId",
          "type": "uint256"
        }
      ],
      "name": "Transfer",
      "type": "event"
    },
    {
      "inputs": [
        {
          "internalType": "address",
          "name": "to",
          "type": "address"
        },
        {
          "internalType": "uint256",
          "name": "tokenId",
          "type": "uint256"
        }
      ],
      "name": "approve",
      "outputs": [],
      "stateMutability": "nonpayable",
      "type": "function"
    },
    {
      "inputs": [
        {
          "internalType": "address",
          "name": "owner",
          "type": "address"
        }
      ],
      "name": "balanceOf",
      "outputs": [
        {
          "internalType": "uint256",
          "name": "",
          "type": "uint256"
        }
      ],
      "stateMutability": "view",
      "type": "function"
    },
    {
      "inputs": [
        {
          "internalType": "uint256",
          "name": "tokenId",
          "type": "uint256"
        },
        {
          "internalType": "address",
          "name": "burner",
          "type": "address"
        }
      ],
      "name": "burn",
      "outputs": [],
      "stateMutability": "nonpayable",
      "type": "function"
    },
    {
      "inputs": [
        {
          "internalType": "uint256",
          "name": "tokenId",
          "type": "uint256"
        }
      ],
      "name": "getApproved",
      "outputs": [
        {
          "internalType": "address",
          "name": "",
          "type": "address"
        }
      ],
      "stateMutability": "view",
      "type": "function"
    },
    {
      "inputs": [],
      "name": "getEnterprise",
      "outputs": [
        {
          "internalType": "contract Enterprise",
          "name": "",
          "type": "address"
        }
      ],
      "stateMutability": "view",
      "type": "function"
    },
    {
      "inputs": [],
      "name": "getNextTokenId",
      "outputs": [
        {
          "internalType": "uint256",
          "name": "",
          "type": "uint256"
        }
      ],
      "stateMutability": "view",
      "type": "function"
    },
    {
      "inputs": [
        {
          "internalType": "string",
          "name": "name",
          "type": "string"
        },
        {
          "internalType": "string",
          "name": "symbol",
          "type": "string"
        },
        {
          "internalType": "contract Enterprise",
          "name": "enterprise",
          "type": "address"
        }
      ],
      "name": "initialize",
      "outputs": [],
      "stateMutability": "nonpayable",
      "type": "function"
    },
    {
      "inputs": [
        {
          "internalType": "string",
          "name": "name_",
          "type": "string"
        },
        {
          "internalType": "string",
          "name": "symbol_",
          "type": "string"
        }
      ],
      "name": "initialize",
      "outputs": [],
      "stateMutability": "nonpayable",
      "type": "function"
    },
    {
      "inputs": [
        {
          "internalType": "contract Enterprise",
          "name": "enterprise",
          "type": "address"
        }
      ],
      "name": "initialize",
      "outputs": [],
      "stateMutability": "nonpayable",
      "type": "function"
    },
    {
      "inputs": [
        {
          "internalType": "address",
          "name": "owner",
          "type": "address"
        },
        {
          "internalType": "address",
          "name": "operator",
          "type": "address"
        }
      ],
      "name": "isApprovedForAll",
      "outputs": [
        {
          "internalType": "bool",
          "name": "",
          "type": "bool"
        }
      ],
      "stateMutability": "view",
      "type": "function"
    },
    {
      "inputs": [
        {
          "internalType": "address",
          "name": "to",
          "type": "address"
        }
      ],
      "name": "mint",
      "outputs": [
        {
          "internalType": "uint256",
          "name": "",
          "type": "uint256"
        }
      ],
      "stateMutability": "nonpayable",
      "type": "function"
    },
    {
      "inputs": [],
      "name": "name",
      "outputs": [
        {
          "internalType": "string",
          "name": "",
          "type": "string"
        }
      ],
      "stateMutability": "view",
      "type": "function"
    },
    {
      "inputs": [
        {
          "internalType": "uint256",
          "name": "tokenId",
          "type": "uint256"
        }
      ],
      "name": "ownerOf",
      "outputs": [
        {
          "internalType": "address",
          "name": "",
          "type": "address"
        }
      ],
      "stateMutability": "view",
      "type": "function"
    },
    {
      "inputs": [
        {
          "internalType": "address",
          "name": "from",
          "type": "address"
        },
        {
          "internalType": "address",
          "name": "to",
          "type": "address"
        },
        {
          "internalType": "uint256",
          "name": "tokenId",
          "type": "uint256"
        }
      ],
      "name": "safeTransferFrom",
      "outputs": [],
      "stateMutability": "nonpayable",
      "type": "function"
    },
    {
      "inputs": [
        {
          "internalType": "address",
          "name": "from",
          "type": "address"
        },
        {
          "internalType": "address",
          "name": "to",
          "type": "address"
        },
        {
          "internalType": "uint256",
          "name": "tokenId",
          "type": "uint256"
        },
        {
          "internalType": "bytes",
          "name": "_data",
          "type": "bytes"
        }
      ],
      "name": "safeTransferFrom",
      "outputs": [],
      "stateMutability": "nonpayable",
      "type": "function"
    },
    {
      "inputs": [
        {
          "internalType": "address",
          "name": "operator",
          "type": "address"
        },
        {
          "internalType": "bool",
          "name": "approved",
          "type": "bool"
        }
      ],
      "name": "setApprovalForAll",
      "outputs": [],
      "stateMutability": "nonpayable",
      "type": "function"
    },
    {
      "inputs": [
        {
          "internalType": "bytes4",
          "name": "interfaceId",
          "type": "bytes4"
        }
      ],
      "name": "supportsInterface",
      "outputs": [
        {
          "internalType": "bool",
          "name": "",
          "type": "bool"
        }
      ],
      "stateMutability": "view",
      "type": "function"
    },
    {
      "inputs": [],
      "name": "symbol",
      "outputs": [
        {
          "internalType": "string",
          "name": "",
          "type": "string"
        }
      ],
      "stateMutability": "view",
      "type": "function"
    },
    {
      "inputs": [
        {
          "internalType": "uint256",
          "name": "index",
          "type": "uint256"
        }
      ],
      "name": "tokenByIndex",
      "outputs": [
        {
          "internalType": "uint256",
          "name": "",
          "type": "uint256"
        }
      ],
      "stateMutability": "view",
      "type": "function"
    },
    {
      "inputs": [
        {
          "internalType": "address",
          "name": "owner",
          "type": "address"
        },
        {
          "internalType": "uint256",
          "name": "index",
          "type": "uint256"
        }
      ],
      "name": "tokenOfOwnerByIndex",
      "outputs": [
        {
          "internalType": "uint256",
          "name": "",
          "type": "uint256"
        }
      ],
      "stateMutability": "view",
      "type": "function"
    },
    {
      "inputs": [
        {
          "internalType": "uint256",
          "name": "tokenId",
          "type": "uint256"
        }
      ],
      "name": "tokenURI",
      "outputs": [
        {
          "internalType": "string",
          "name": "",
          "type": "string"
        }
      ],
      "stateMutability": "view",
      "type": "function"
    },
    {
      "inputs": [],
      "name": "totalSupply",
      "outputs": [
        {
          "internalType": "uint256",
          "name": "",
          "type": "uint256"
        }
      ],
      "stateMutability": "view",
      "type": "function"
    },
    {
      "inputs": [
        {
          "internalType": "address",
          "name": "from",
          "type": "address"
        },
        {
          "internalType": "address",
          "name": "to",
          "type": "address"
        },
        {
          "internalType": "uint256",
          "name": "tokenId",
          "type": "uint256"
        }
      ],
      "name": "transferFrom",
      "outputs": [],
      "stateMutability": "nonpayable",
      "type": "function"
    }
  ],
  "bytecode": "0x608060405234801561001057600080fd5b506121fb806100206000396000f3fe608060405234801561001057600080fd5b506004361061011d5760003560e01c806301ffc9a71461012257806306fdde031461014a578063077f224a1461015f578063081812fc14610174578063095ea7b31461019f57806318160ddd146101b257806323b872dd146101c45780632f745c59146101d757806342842e0e146101ea5780634cd88b76146101fd5780634f6ccce7146102105780636352211e146102235780636a6278421461023657806370a082311461024957806395d89b411461025c578063a22cb46514610264578063b88d4fde14610277578063c4d66de81461028a578063c87b56dd1461029d578063caa0f92a146102b0578063e298a2fd146102b8578063e985e9c5146102c0578063fcd3533c146102d3575b600080fd5b610135610130366004611c88565b6102e6565b60405190151581526020015b60405180910390f35b610152610311565b6040516101419190611fe4565b61017261016d366004611d92565b6103a3565b005b610187610182366004611ec9565b6103bb565b6040516001600160a01b039091168152602001610141565b6101726101ad366004611c41565b610425565b6009545b604051908152602001610141565b6101726101d2366004611b58565b6104e2565b6101b66101e5366004611c41565b610531565b6101726101f8366004611b58565b6105a1565b61017261020b366004611d32565b6105bc565b6101b661021e366004611ec9565b610629565b610187610231366004611ec9565b6106a3565b6101b6610244366004611ae8565b6106ff565b6101b6610257366004611ae8565b610770565b6101526107d0565b610172610272366004611c14565b6107df565b610172610285366004611b98565b61088f565b610172610298366004611ae8565b6108e5565b6101526102ab366004611ec9565b61098c565b600b546101b6565b610187610a2d565b6101356102ce366004611b20565b610a3c565b6101726102e1366004611ee1565b610a6a565b60006001600160e01b0319821663780e9d6360e01b148061030b575061030b82610bfb565b92915050565b606060018054610320906120bd565b80601f016020809104026020016040519081016040528092919081815260200182805461034c906120bd565b80156103995780601f1061036e57610100808354040283529160200191610399565b820191906000526020600020905b81548152906001019060200180831161037c57829003601f168201915b5050505050905090565b6103ac816108e5565b6103b683836105bc565b505050565b60006103c682610c4b565b604051806040016040528060028152602001610c8d60f21b815250906104085760405162461bcd60e51b81526004016103ff9190611fe4565b60405180910390fd5b50506000908152600560205260409020546001600160a01b031690565b6000610430826106a3565b9050806001600160a01b0316836001600160a01b0316141560405180604001604052806002815260200161191960f11b815250906104815760405162461bcd60e51b81526004016103ff9190611fe4565b50336001600160a01b038216148061049e575061049e8133610a3c565b60405180604001604052806002815260200161323360f01b815250906104d75760405162461bcd60e51b81526004016103ff9190611fe4565b506103b68383610c68565b6104ec3382610cd6565b60405180604001604052806002815260200161191b60f11b815250906105255760405162461bcd60e51b81526004016103ff9190611fe4565b506103b6838383610d79565b600061053c83610770565b8210604051806040016040528060028152602001610ccd60f21b815250906105775760405162461bcd60e51b81526004016103ff9190611fe4565b50506001600160a01b03919091166000908152600760209081526040808320938352929052205490565b6103b68383836040518060200160405280600081525061088f565b600180546105c9906120bd565b6040805180820190915260018152601960f91b60208201529150156106015760405162461bcd60e51b81526004016103ff9190611fe4565b5081516106159060019060208501906119b5565b5080516103b69060029060208401906119b5565b600061063460095490565b821060405180604001604052806002815260200161333560f01b8152509061066f5760405162461bcd60e51b81526004016103ff9190611fe4565b506009828154811061069157634e487b7160e01b600052603260045260246000fd5b90600052602060002001549050919050565b60008181526003602090815260408083205481518083019092526002825261323160f01b928201929092526001600160a01b0390911690816106f85760405162461bcd60e51b81526004016103ff9190611fe4565b5092915050565b600080546040805180820190915260018152600d60fa1b6020820152906001600160a01b031633146107445760405162461bcd60e51b81526004016103ff9190611fe4565b50600b546107528382610ecd565b600b8054906000610762836120f8565b90915550909150505b919050565b604080518082019091526002815261032360f41b60208201526000906001600160a01b0383166107b35760405162461bcd60e51b81526004016103ff9190611fe4565b50506001600160a01b031660009081526004602052604090205490565b606060028054610320906120bd565b604080518082019091526002815261323560f01b60208201526001600160a01b0383163314156108225760405162461bcd60e51b81526004016103ff9190611fe4565b503360008181526006602090815260408083206001600160a01b03871680855290835292819020805460ff191686151590811790915590519081529192917f17307eab39ab6107e8899845ad3d59bd9653f200f220920489ca2b5937696c31910160405180910390a35050565b6108993383610cd6565b60405180604001604052806002815260200161191b60f11b815250906108d25760405162461bcd60e51b81526004016103ff9190611fe4565b506108df84848484610eeb565b50505050565b6000546040805180820190915260018152601960f91b6020820152906001600160a01b0316156109285760405162461bcd60e51b81526004016103ff9190611fe4565b50604080518082019091526002815261353960f01b60208201526001600160a01b0382166109695760405162461bcd60e51b81526004016103ff9190611fe4565b50600080546001600160a01b0319166001600160a01b0392909216919091179055565b606061099782610c4b565b60405180604001604052806002815260200161333360f01b815250906109d05760405162461bcd60e51b81526004016103ff9190611fe4565b5060006109db610f3b565b905060008151116109fb5760405180602001604052806000815250610a26565b80610a0584611002565b604051602001610a16929190611f4d565b6040516020818303038152906040525b9392505050565b6000546001600160a01b031690565b6001600160a01b03918216600090815260066020908152604080832093909416825291909152205460ff1690565b6000546040805180820190915260018152600d60fa1b6020820152906001600160a01b03163314610aae5760405162461bcd60e51b81526004016103ff9190611fe4565b50610ab88261111b565b6000610ac2610a2d565b6040516301c5004b60e21b8152600481018590529091506000906001600160a01b03831690630714012c906024016101006040518083038186803b158015610b0957600080fd5b505afa158015610b1d573d6000803e3d6000fd5b505050506040513d601f19601f82011682018060405250810190610b419190611e06565b60e0810151604051627080db60e51b815261ffff90911660048201529091506000906001600160a01b03841690630e101b609060240160206040518083038186803b158015610b8f57600080fd5b505afa158015610ba3573d6000803e3d6000fd5b505050506040513d601f19601f82011682018060405250810190610bc79190611b04565b9050610bf4848360c001516001600160701b0316836001600160a01b03166111b09092919063ffffffff16565b5050505050565b60006001600160e01b031982166380ac58cd60e01b1480610c2c57506001600160e01b03198216635b5e139f60e01b145b8061030b57506301ffc9a760e01b6001600160e01b031983161461030b565b6000908152600360205260409020546001600160a01b0316151590565b600081815260056020526040902080546001600160a01b0319166001600160a01b0384169081179091558190610c9d826106a3565b6001600160a01b03167f8c5be1e5ebec7d5bd14f71427d1e84f3dd0314c0f7b2291e5b200ac8c7c3b92560405160405180910390a45050565b6000610ce182610c4b565b60405180604001604052806002815260200161064760f31b81525090610d1a5760405162461bcd60e51b81526004016103ff9190611fe4565b506000610d26836106a3565b9050806001600160a01b0316846001600160a01b03161480610d615750836001600160a01b0316610d56846103bb565b6001600160a01b0316145b80610d715750610d718185610a3c565b949350505050565b826001600160a01b0316610d8c826106a3565b6001600160a01b03161460405180604001604052806002815260200161333160f01b81525090610dcf5760405162461bcd60e51b81526004016103ff9190611fe4565b50604080518082019091526002815261199960f11b60208201526001600160a01b038316610e105760405162461bcd60e51b81526004016103ff9190611fe4565b50610e1c838383611202565b610e27600082610c68565b6001600160a01b0383166000908152600460205260408120805460019290610e5090849061207a565b90915550506001600160a01b0382166000908152600460205260408120805460019290610e7e90849061204e565b909155505060008181526003602052604080822080546001600160a01b0319166001600160a01b0386811691821790925591518493918716916000805160206121a683398151915291a4505050565b610ee7828260405180602001604052806000815250611286565b5050565b610ef6848484610d79565b610f02848484846112d6565b60405180604001604052806002815260200161323760f01b81525090610bf45760405162461bcd60e51b81526004016103ff9190611fe4565b60606000610f47610a2d565b6001600160a01b0316630cac36b26040518163ffffffff1660e01b815260040160006040518083038186803b158015610f7f57600080fd5b505afa158015610f93573d6000803e3d6000fd5b505050506040513d6000823e601f3d908101601f19168201604052610fbb9190810190611cc0565b90506000815111610fdb5760405180602001604052806000815250610ffc565b80604051602001610fec9190611f7c565b6040516020818303038152906040525b91505090565b6060816110265750506040805180820190915260018152600360fc1b602082015290565b8160005b8115611050578061103a816120f8565b91506110499050600a83612066565b915061102a565b6000816001600160401b0381111561107857634e487b7160e01b600052604160045260246000fd5b6040519080825280601f01601f1916602001820160405280156110a2576020820181803683370190505b5090505b8415610d71576110b760018361207a565b91506110c4600a86612113565b6110cf90603061204e565b60f81b8183815181106110f257634e487b7160e01b600052603260045260246000fd5b60200101906001600160f81b031916908160001a905350611114600a86612066565b94506110a6565b6000611126826106a3565b905061113481600084611202565b61113f600083610c68565b6001600160a01b038116600090815260046020526040812080546001929061116890849061207a565b909155505060008281526003602052604080822080546001600160a01b0319169055518391906001600160a01b038416906000805160206121a6833981519152908390a45050565b604080516001600160a01b038416602482015260448082018490528251808303909101815260649091019091526020810180516001600160e01b031663a9059cbb60e01b1790526103b69084906113fb565b61120d8383836114cd565b611215610a2d565b60405163144a94ef60e21b81526001600160a01b038581166004830152848116602483015260448201849052919091169063512a53bc90606401600060405180830381600087803b15801561126957600080fd5b505af115801561127d573d6000803e3d6000fd5b50505050505050565b6112908383611585565b61129d60008484846112d6565b60405180604001604052806002815260200161323760f01b815250906108df5760405162461bcd60e51b81526004016103ff9190611fe4565b60006001600160a01b0384163b156113f057604051630a85bd0160e11b81526001600160a01b0385169063150b7a029061131a903390899088908890600401611fa7565b602060405180830381600087803b15801561133457600080fd5b505af1925050508015611364575060408051601f3d908101601f1916820190925261136191810190611ca4565b60015b6113d6573d808015611392576040519150601f19603f3d011682016040523d82523d6000602084013e611397565b606091505b5080516113ce576040805180820182526002815261323760f01b6020820152905162461bcd60e51b81526103ff9190600401611fe4565b805181602001fd5b6001600160e01b031916630a85bd0160e11b149050610d71565b506001949350505050565b6000611450826040518060400160405280602081526020017f5361666545524332303a206c6f772d6c6576656c2063616c6c206661696c6564815250856001600160a01b031661168b9092919063ffffffff16565b8051909150156103b6578080602001905181019061146e9190611c6c565b6103b65760405162461bcd60e51b815260206004820152602a60248201527f5361666545524332303a204552433230206f7065726174696f6e20646964206e6044820152691bdd081cdd58d8d9595960b21b60648201526084016103ff565b6001600160a01b0383166115285761152381600980546000838152600a60205260408120829055600182018355919091527f6e1540171b6c0c960b71a7020d9f60077f6af931a8bbf590da0223dacf75c7af0155565b61154b565b816001600160a01b0316836001600160a01b03161461154b5761154b838261169a565b6001600160a01b038216611562576103b681611737565b826001600160a01b0316826001600160a01b0316146103b6576103b68282611810565b604080518082019091526002815261323960f01b60208201526001600160a01b0383166115c55760405162461bcd60e51b81526004016103ff9190611fe4565b506115cf81610c4b565b1560405180604001604052806002815260200161033360f41b815250906116095760405162461bcd60e51b81526004016103ff9190611fe4565b5061161660008383611202565b6001600160a01b038216600090815260046020526040812080546001929061163f90849061204e565b909155505060008181526003602052604080822080546001600160a01b0319166001600160a01b03861690811790915590518392906000805160206121a6833981519152908290a45050565b6060610d718484600085611854565b600060016116a784610770565b6116b1919061207a565b600083815260086020526040902054909150808214611704576001600160a01b03841660009081526007602090815260408083208584528252808320548484528184208190558352600890915290208190555b5060009182526008602090815260408084208490556001600160a01b039094168352600781528383209183525290812055565b6009546000906117499060019061207a565b6000838152600a60205260408120546009805493945090928490811061177f57634e487b7160e01b600052603260045260246000fd5b9060005260206000200154905080600983815481106117ae57634e487b7160e01b600052603260045260246000fd5b6000918252602080832090910192909255828152600a909152604080822084905585825281205560098054806117f457634e487b7160e01b600052603160045260246000fd5b6001900381819060005260206000200160009055905550505050565b600061181b83610770565b6001600160a01b039093166000908152600760209081526040808320868452825280832085905593825260089052919091209190915550565b6060824710156118b55760405162461bcd60e51b815260206004820152602660248201527f416464726573733a20696e73756666696369656e742062616c616e636520666f6044820152651c8818d85b1b60d21b60648201526084016103ff565b843b6119035760405162461bcd60e51b815260206004820152601d60248201527f416464726573733a2063616c6c20746f206e6f6e2d636f6e747261637400000060448201526064016103ff565b600080866001600160a01b0316858760405161191f9190611f31565b60006040518083038185875af1925050503d806000811461195c576040519150601f19603f3d011682016040523d82523d6000602084013e611961565b606091505b509150915061197182828661197c565b979650505050505050565b6060831561198b575081610a26565b82511561199b5782518084602001fd5b8160405162461bcd60e51b81526004016103ff9190611fe4565b8280546119c1906120bd565b90600052602060002090601f0160209004810192826119e35760008555611a29565b82601f106119fc57805160ff1916838001178555611a29565b82800160010185558215611a29579182015b82811115611a29578251825591602001919060010190611a0e565b50611a35929150611a39565b5090565b5b80821115611a355760008155600101611a3a565b6000611a61611a5c84612027565b611ff7565b9050828152838383011115611a7557600080fd5b828260208301376000602084830101529392505050565b600082601f830112611a9c578081fd5b610a2683833560208501611a4e565b80516001600160701b038116811461076b57600080fd5b805161ffff8116811461076b57600080fd5b805163ffffffff8116811461076b57600080fd5b600060208284031215611af9578081fd5b8135610a2681612169565b600060208284031215611b15578081fd5b8151610a2681612169565b60008060408385031215611b32578081fd5b8235611b3d81612169565b91506020830135611b4d81612169565b809150509250929050565b600080600060608486031215611b6c578081fd5b8335611b7781612169565b92506020840135611b8781612169565b929592945050506040919091013590565b60008060008060808587031215611bad578081fd5b8435611bb881612169565b93506020850135611bc881612169565b92506040850135915060608501356001600160401b03811115611be9578182fd5b8501601f81018713611bf9578182fd5b611c0887823560208401611a4e565b91505092959194509250565b60008060408385031215611c26578182fd5b8235611c3181612169565b91506020830135611b4d81612181565b60008060408385031215611c53578081fd5b8235611c5e81612169565b946020939093013593505050565b600060208284031215611c7d578081fd5b8151610a2681612181565b600060208284031215611c99578081fd5b8135610a268161218f565b600060208284031215611cb5578081fd5b8151610a268161218f565b600060208284031215611cd1578081fd5b81516001600160401b03811115611ce6578182fd5b8201601f81018413611cf6578182fd5b8051611d04611a5c82612027565b818152856020838501011115611d18578384fd5b611d29826020830160208601612091565b95945050505050565b60008060408385031215611d44578182fd5b82356001600160401b0380821115611d5a578384fd5b611d6686838701611a8c565b93506020850135915080821115611d7b578283fd5b50611d8885828601611a8c565b9150509250929050565b600080600060608486031215611da6578081fd5b83356001600160401b0380821115611dbc578283fd5b611dc887838801611a8c565b94506020860135915080821115611ddd578283fd5b50611dea86828701611a8c565b9250506040840135611dfb81612169565b809150509250925092565b6000610100808385031215611e19578182fd5b604051908101906001600160401b0382118183101715611e3b57611e3b612153565b81604052611e4884611aab565b8152611e5660208501611ac2565b6020820152611e6760408501611ad4565b6040820152611e7860608501611ad4565b6060820152611e8960808501611ad4565b6080820152611e9a60a08501611ad4565b60a0820152611eab60c08501611aab565b60c0820152611ebc60e08501611ac2565b60e0820152949350505050565b600060208284031215611eda578081fd5b5035919050565b60008060408385031215611ef3578182fd5b823591506020830135611b4d81612169565b60008151808452611f1d816020860160208601612091565b601f01601f19169290920160200192915050565b60008251611f43818460208701612091565b9190910192915050565b60008351611f5f818460208801612091565b835190830190611f73818360208801612091565b01949350505050565b60008251611f8e818460208701612091565b66626f72726f772f60c81b920191825250600701919050565b6001600160a01b0385811682528416602082015260408101839052608060608201819052600090611fda90830184611f05565b9695505050505050565b602081526000610a266020830184611f05565b604051601f8201601f191681016001600160401b038111828210171561201f5761201f612153565b604052919050565b60006001600160401b0382111561204057612040612153565b50601f01601f191660200190565b6000821982111561206157612061612127565b500190565b6000826120755761207561213d565b500490565b60008282101561208c5761208c612127565b500390565b60005b838110156120ac578181015183820152602001612094565b838111156108df5750506000910152565b600181811c908216806120d157607f821691505b602082108114156120f257634e487b7160e01b600052602260045260246000fd5b50919050565b600060001982141561210c5761210c612127565b5060010190565b6000826121225761212261213d565b500690565b634e487b7160e01b600052601160045260246000fd5b634e487b7160e01b600052601260045260246000fd5b634e487b7160e01b600052604160045260246000fd5b6001600160a01b038116811461217e57600080fd5b50565b801515811461217e57600080fd5b6001600160e01b03198116811461217e57600080fdfeddf252ad1be2c89b69c2b068fc378daa952ba7f163c4a11628f55a4df523b3efa2646970667358221220948a22a445bc7ce23092249c6757ff01f9672a9af015b4018da965ce631bbd2964736f6c63430008040033",
  "linkReferences": {},
  "deployedLinkReferences": {}
}