{
  "_format": "hh-sol-artifact-1",
  "contractName": "BorrowToken",
  "sourceName": "contracts/BorrowToken.sol",
  "abi": [
    {
      "anonymous": false,
      "inputs": [
        {
          "indexed": true,
          "internalType": "address",
          "name": "owner",
          "type": "address"
        },
        {
          "indexed": true,
          "internalType": "address",
          "name": "approved",
          "type": "address"
        },
        {
          "indexed": true,
          "internalType": "uint256",
          "name": "tokenId",
          "type": "uint256"
        }
      ],
      "name": "Approval",
      "type": "event"
    },
    {
      "anonymous": false,
      "inputs": [
        {
          "indexed": true,
          "internalType": "address",
          "name": "owner",
          "type": "address"
        },
        {
          "indexed": true,
          "internalType": "address",
          "name": "operator",
          "type": "address"
        },
        {
          "indexed": false,
          "internalType": "bool",
          "name": "approved",
          "type": "bool"
        }
      ],
      "name": "ApprovalForAll",
      "type": "event"
    },
    {
      "anonymous": false,
      "inputs": [
        {
          "indexed": true,
          "internalType": "address",
          "name": "previousOwner",
          "type": "address"
        },
        {
          "indexed": true,
          "internalType": "address",
          "name": "newOwner",
          "type": "address"
        }
      ],
      "name": "OwnershipTransferred",
      "type": "event"
    },
    {
      "anonymous": false,
      "inputs": [
        {
          "indexed": true,
          "internalType": "address",
          "name": "from",
          "type": "address"
        },
        {
          "indexed": true,
          "internalType": "address",
          "name": "to",
          "type": "address"
        },
        {
          "indexed": true,
          "internalType": "uint256",
          "name": "tokenId",
          "type": "uint256"
        }
      ],
      "name": "Transfer",
      "type": "event"
    },
    {
      "inputs": [
        {
          "internalType": "address",
          "name": "to",
          "type": "address"
        },
        {
          "internalType": "uint256",
          "name": "tokenId",
          "type": "uint256"
        }
      ],
      "name": "approve",
      "outputs": [],
      "stateMutability": "nonpayable",
      "type": "function"
    },
    {
      "inputs": [
        {
          "internalType": "address",
          "name": "owner",
          "type": "address"
        }
      ],
      "name": "balanceOf",
      "outputs": [
        {
          "internalType": "uint256",
          "name": "",
          "type": "uint256"
        }
      ],
      "stateMutability": "view",
      "type": "function"
    },
    {
      "inputs": [
        {
          "internalType": "uint256",
          "name": "tokenId",
          "type": "uint256"
        },
        {
          "internalType": "address",
          "name": "burner",
          "type": "address"
        }
      ],
      "name": "burn",
      "outputs": [],
      "stateMutability": "nonpayable",
      "type": "function"
    },
    {
      "inputs": [
        {
          "internalType": "uint256",
          "name": "tokenId",
          "type": "uint256"
        }
      ],
      "name": "getApproved",
      "outputs": [
        {
          "internalType": "address",
          "name": "",
          "type": "address"
        }
      ],
      "stateMutability": "view",
      "type": "function"
    },
    {
      "inputs": [],
      "name": "getCounter",
      "outputs": [
        {
          "internalType": "uint256",
          "name": "",
          "type": "uint256"
        }
      ],
      "stateMutability": "view",
      "type": "function"
    },
    {
      "inputs": [
        {
          "internalType": "string",
          "name": "name_",
          "type": "string"
        },
        {
          "internalType": "string",
          "name": "symbol_",
          "type": "string"
        }
      ],
      "name": "initialize",
      "outputs": [],
      "stateMutability": "nonpayable",
      "type": "function"
    },
    {
      "inputs": [
        {
          "internalType": "address",
          "name": "initialOwner",
          "type": "address"
        }
      ],
      "name": "initialize",
      "outputs": [],
      "stateMutability": "nonpayable",
      "type": "function"
    },
    {
      "inputs": [
        {
          "internalType": "string",
          "name": "name",
          "type": "string"
        },
        {
          "internalType": "string",
          "name": "symbol",
          "type": "string"
        },
        {
          "internalType": "string",
          "name": "baseUri",
          "type": "string"
        },
        {
          "internalType": "contract EnterpriseConfigurator",
          "name": "configurator",
          "type": "address"
        },
        {
          "internalType": "contract IEnterprise",
          "name": "enterprise",
          "type": "address"
        }
      ],
      "name": "initialize",
      "outputs": [],
      "stateMutability": "nonpayable",
      "type": "function"
    },
    {
      "inputs": [
        {
          "internalType": "address",
          "name": "owner",
          "type": "address"
        },
        {
          "internalType": "address",
          "name": "operator",
          "type": "address"
        }
      ],
      "name": "isApprovedForAll",
      "outputs": [
        {
          "internalType": "bool",
          "name": "",
          "type": "bool"
        }
      ],
      "stateMutability": "view",
      "type": "function"
    },
    {
      "inputs": [
        {
          "internalType": "address",
          "name": "to",
          "type": "address"
        }
      ],
      "name": "mint",
      "outputs": [
        {
          "internalType": "uint256",
          "name": "",
          "type": "uint256"
        }
      ],
      "stateMutability": "nonpayable",
      "type": "function"
    },
    {
      "inputs": [],
      "name": "name",
      "outputs": [
        {
          "internalType": "string",
          "name": "",
          "type": "string"
        }
      ],
      "stateMutability": "view",
      "type": "function"
    },
    {
      "inputs": [],
      "name": "owner",
      "outputs": [
        {
          "internalType": "address",
          "name": "",
          "type": "address"
        }
      ],
      "stateMutability": "view",
      "type": "function"
    },
    {
      "inputs": [
        {
          "internalType": "uint256",
          "name": "tokenId",
          "type": "uint256"
        }
      ],
      "name": "ownerOf",
      "outputs": [
        {
          "internalType": "address",
          "name": "",
          "type": "address"
        }
      ],
      "stateMutability": "view",
      "type": "function"
    },
    {
      "inputs": [
        {
          "internalType": "address",
          "name": "from",
          "type": "address"
        },
        {
          "internalType": "address",
          "name": "to",
          "type": "address"
        },
        {
          "internalType": "uint256",
          "name": "tokenId",
          "type": "uint256"
        }
      ],
      "name": "safeTransferFrom",
      "outputs": [],
      "stateMutability": "nonpayable",
      "type": "function"
    },
    {
      "inputs": [
        {
          "internalType": "address",
          "name": "from",
          "type": "address"
        },
        {
          "internalType": "address",
          "name": "to",
          "type": "address"
        },
        {
          "internalType": "uint256",
          "name": "tokenId",
          "type": "uint256"
        },
        {
          "internalType": "bytes",
          "name": "_data",
          "type": "bytes"
        }
      ],
      "name": "safeTransferFrom",
      "outputs": [],
      "stateMutability": "nonpayable",
      "type": "function"
    },
    {
      "inputs": [
        {
          "internalType": "address",
          "name": "operator",
          "type": "address"
        },
        {
          "internalType": "bool",
          "name": "approved",
          "type": "bool"
        }
      ],
      "name": "setApprovalForAll",
      "outputs": [],
      "stateMutability": "nonpayable",
      "type": "function"
    },
    {
      "inputs": [
        {
          "internalType": "bytes4",
          "name": "interfaceId",
          "type": "bytes4"
        }
      ],
      "name": "supportsInterface",
      "outputs": [
        {
          "internalType": "bool",
          "name": "",
          "type": "bool"
        }
      ],
      "stateMutability": "view",
      "type": "function"
    },
    {
      "inputs": [],
      "name": "symbol",
      "outputs": [
        {
          "internalType": "string",
          "name": "",
          "type": "string"
        }
      ],
      "stateMutability": "view",
      "type": "function"
    },
    {
      "inputs": [
        {
          "internalType": "uint256",
          "name": "tokenId",
          "type": "uint256"
        }
      ],
      "name": "tokenURI",
      "outputs": [
        {
          "internalType": "string",
          "name": "",
          "type": "string"
        }
      ],
      "stateMutability": "view",
      "type": "function"
    },
    {
      "inputs": [
        {
          "internalType": "address",
          "name": "from",
          "type": "address"
        },
        {
          "internalType": "address",
          "name": "to",
          "type": "address"
        },
        {
          "internalType": "uint256",
          "name": "tokenId",
          "type": "uint256"
        }
      ],
      "name": "transferFrom",
      "outputs": [],
      "stateMutability": "nonpayable",
      "type": "function"
    },
    {
      "inputs": [
        {
          "internalType": "address",
          "name": "newOwner",
          "type": "address"
        }
      ],
      "name": "transferOwnership",
      "outputs": [],
      "stateMutability": "nonpayable",
      "type": "function"
    }
  ],
  "bytecode": "0x6080604052600160095534801561001557600080fd5b5061233e806100256000396000f3fe608060405234801561001057600080fd5b50600436106101775760003560e01c80638ada066e116100d8578063c4d66de81161008c578063e985e9c511610066578063e985e9c5146102f9578063f2fde38b14610335578063fcd3533c1461034857600080fd5b8063c4d66de8146102c0578063c87b56dd146102d3578063d6d0faee146102e657600080fd5b806395d89b41116100bd57806395d89b4114610292578063a22cb4651461029a578063b88d4fde146102ad57600080fd5b80638ada066e146102795780638da5cb5b1461028157600080fd5b806342842e0e1161012f5780636352211e116101145780636352211e146102325780636a6278421461024557806370a082311461026657600080fd5b806342842e0e1461020c5780634cd88b761461021f57600080fd5b8063081812fc11610160578063081812fc146101b9578063095ea7b3146101e457806323b872dd146101f957600080fd5b806301ffc9a71461017c57806306fdde03146101a4575b600080fd5b61018f61018a366004611ea6565b61035b565b60405190151581526020015b60405180910390f35b6101ac6103f8565b60405161019b919061219e565b6101cc6101c73660046120af565b61048a565b6040516001600160a01b03909116815260200161019b565b6101f76101f2366004611e5f565b610524565b005b6101f7610207366004611d75565b610656565b6101f761021a366004611d75565b6106dd565b6101f761022d366004611ede565b6106f8565b6101cc6102403660046120af565b61077b565b610258610253366004611d05565b610806565b60405190815260200161019b565b610258610274366004611d05565b61088c565b600954610258565b6000546001600160a01b03166101cc565b6101ac610926565b6101f76102a8366004611e32565b610935565b6101f76102bb366004611db5565b6109fa565b6101f76102ce366004611d05565b610a88565b6101ac6102e13660046120af565b610b52565b6101f76102f4366004611f3f565b610c3b565b61018f610307366004611d3d565b6001600160a01b03918216600090815260066020908152604080832093909416825291909152205460ff1690565b6101f7610343366004611d05565b610c93565b6101f76103563660046120c7565b610dc4565b60006001600160e01b031982167f80ac58cd0000000000000000000000000000000000000000000000000000000014806103be57506001600160e01b031982167f5b5e139f00000000000000000000000000000000000000000000000000000000145b806103f257507f01ffc9a7000000000000000000000000000000000000000000000000000000006001600160e01b03198316145b92915050565b60606001805461040790612220565b80601f016020809104026020016040519081016040528092919081815260200182805461043390612220565b80156104805780601f1061045557610100808354040283529160200191610480565b820191906000526020600020905b81548152906001019060200180831161046357829003601f168201915b5050505050905090565b6000818152600360205260408120546001600160a01b03166105085760405162461bcd60e51b815260206004820152602c60248201527f4552433732313a20617070726f76656420717565727920666f72206e6f6e657860448201526b34b9ba32b73a103a37b5b2b760a11b60648201526084015b60405180910390fd5b506000908152600560205260409020546001600160a01b031690565b600061052f8261077b565b9050806001600160a01b0316836001600160a01b031614156105b95760405162461bcd60e51b815260206004820152602160248201527f4552433732313a20617070726f76616c20746f2063757272656e74206f776e6560448201527f720000000000000000000000000000000000000000000000000000000000000060648201526084016104ff565b336001600160a01b03821614806105d557506105d58133610307565b6106475760405162461bcd60e51b815260206004820152603860248201527f4552433732313a20617070726f76652063616c6c6572206973206e6f74206f7760448201527f6e6572206e6f7220617070726f76656420666f7220616c6c000000000000000060648201526084016104ff565b6106518383610f96565b505050565b6106603382611004565b6106d25760405162461bcd60e51b815260206004820152603160248201527f4552433732313a207472616e736665722063616c6c6572206973206e6f74206f60448201527f776e6572206e6f7220617070726f76656400000000000000000000000000000060648201526084016104ff565b6106518383836110fb565b610651838383604051806020016040528060008152506109fa565b6001805461070590612220565b1590506107545760405162461bcd60e51b815260206004820152601360248201527f416c726561647920696e697469616c697a65640000000000000000000000000060448201526064016104ff565b8151610767906001906020850190611b93565b508051610651906002906020840190611b93565b6000818152600360205260408120546001600160a01b0316806103f25760405162461bcd60e51b815260206004820152602960248201527f4552433732313a206f776e657220717565727920666f72206e6f6e657869737460448201527f656e7420746f6b656e000000000000000000000000000000000000000000000060648201526084016104ff565b600080546001600160a01b031633146108615760405162461bcd60e51b815260206004820181905260248201527f4f776e61626c653a2063616c6c6572206973206e6f7420746865206f776e657260448201526064016104ff565b60095461086e83826112d3565b6009805490600061087e8361225b565b90915550909150505b919050565b60006001600160a01b03821661090a5760405162461bcd60e51b815260206004820152602a60248201527f4552433732313a2062616c616e636520717565727920666f7220746865207a6560448201527f726f20616464726573730000000000000000000000000000000000000000000060648201526084016104ff565b506001600160a01b031660009081526004602052604090205490565b60606002805461040790612220565b6001600160a01b03821633141561098e5760405162461bcd60e51b815260206004820152601960248201527f4552433732313a20617070726f766520746f2063616c6c65720000000000000060448201526064016104ff565b3360008181526006602090815260408083206001600160a01b03871680855290835292819020805460ff191686151590811790915590519081529192917f17307eab39ab6107e8899845ad3d59bd9653f200f220920489ca2b5937696c31910160405180910390a35050565b610a043383611004565b610a765760405162461bcd60e51b815260206004820152603160248201527f4552433732313a207472616e736665722063616c6c6572206973206e6f74206f60448201527f776e6572206e6f7220617070726f76656400000000000000000000000000000060648201526084016104ff565b610a82848484846112f1565b50505050565b6000546001600160a01b031615610b075760405162461bcd60e51b815260206004820152602960248201527f496e697469616c697a61626c654f776e61626c653a20616c726561647920696e60448201527f697469616c697a6564000000000000000000000000000000000000000000000060648201526084016104ff565b600080546001600160a01b0319166001600160a01b03831690811782556040519091907f8be0079c531659141344cd1fd0a4f28419497f9722a3daafe3b4186f6b6457e0908290a350565b6000818152600360205260409020546060906001600160a01b0316610bdf5760405162461bcd60e51b815260206004820152602f60248201527f4552433732314d657461646174613a2055524920717565727920666f72206e6f60448201527f6e6578697374656e7420746f6b656e000000000000000000000000000000000060648201526084016104ff565b6000610be961136f565b90506000815111610c095760405180602001604052806000815250610c34565b80610c138461137e565b604051602001610c24929190612133565b6040516020818303038152906040525b9392505050565b610c4433610a88565b610c4e85856106f8565b8251610c6190600a906020860190611b93565b50600880546001600160a01b039384166001600160a01b03199182161790915560078054929093169116179055505050565b6000546001600160a01b03163314610ced5760405162461bcd60e51b815260206004820181905260248201527f4f776e61626c653a2063616c6c6572206973206e6f7420746865206f776e657260448201526064016104ff565b6001600160a01b038116610d695760405162461bcd60e51b815260206004820152602660248201527f4f776e61626c653a206e6577206f776e657220697320746865207a65726f206160448201527f646472657373000000000000000000000000000000000000000000000000000060648201526084016104ff565b600080546040516001600160a01b03808516939216917f8be0079c531659141344cd1fd0a4f28419497f9722a3daafe3b4186f6b6457e091a3600080546001600160a01b0319166001600160a01b0392909216919091179055565b6000546001600160a01b03163314610e1e5760405162461bcd60e51b815260206004820181905260248201527f4f776e61626c653a2063616c6c6572206973206e6f7420746865206f776e657260448201526064016104ff565b610e27826114cc565b6007546040517f0714012c000000000000000000000000000000000000000000000000000000008152600481018490526000916001600160a01b031690630714012c906024016101006040518083038186803b158015610e8657600080fd5b505afa158015610e9a573d6000803e3d6000fd5b505050506040513d601f19601f82011682018060405250810190610ebe9190611feb565b60085460e08201516040517f96ea297500000000000000000000000000000000000000000000000000000000815261ffff90911660048201529192506000916001600160a01b03909116906396ea29759060240160206040518083038186803b158015610f2a57600080fd5b505afa158015610f3e573d6000803e3d6000fd5b505050506040513d601f19601f82011682018060405250810190610f629190611d21565b9050610a82838360c001516dffffffffffffffffffffffffffff16836001600160a01b03166115739092919063ffffffff16565b600081815260056020526040902080546001600160a01b0319166001600160a01b0384169081179091558190610fcb8261077b565b6001600160a01b03167f8c5be1e5ebec7d5bd14f71427d1e84f3dd0314c0f7b2291e5b200ac8c7c3b92560405160405180910390a45050565b6000818152600360205260408120546001600160a01b031661107d5760405162461bcd60e51b815260206004820152602c60248201527f4552433732313a206f70657261746f7220717565727920666f72206e6f6e657860448201526b34b9ba32b73a103a37b5b2b760a11b60648201526084016104ff565b60006110888361077b565b9050806001600160a01b0316846001600160a01b031614806110c35750836001600160a01b03166110b88461048a565b6001600160a01b0316145b806110f357506001600160a01b0380821660009081526006602090815260408083209388168352929052205460ff165b949350505050565b826001600160a01b031661110e8261077b565b6001600160a01b03161461118a5760405162461bcd60e51b815260206004820152602960248201527f4552433732313a207472616e73666572206f6620746f6b656e2074686174206960448201527f73206e6f74206f776e000000000000000000000000000000000000000000000060648201526084016104ff565b6001600160a01b0382166112055760405162461bcd60e51b8152602060048201526024808201527f4552433732313a207472616e7366657220746f20746865207a65726f2061646460448201527f726573730000000000000000000000000000000000000000000000000000000060648201526084016104ff565b6112108383836115f3565b61121b600082610f96565b6001600160a01b03831660009081526004602052604081208054600192906112449084906121dd565b90915550506001600160a01b03821660009081526004602052604081208054600192906112729084906121b1565b909155505060008181526003602052604080822080546001600160a01b0319166001600160a01b0386811691821790925591518493918716917fddf252ad1be2c89b69c2b068fc378daa952ba7f163c4a11628f55a4df523b3ef91a4505050565b6112ed82826040518060200160405280600081525061167f565b5050565b6112fc8484846110fb565b611308848484846116fd565b610a825760405162461bcd60e51b815260206004820152603260248201527f4552433732313a207472616e7366657220746f206e6f6e20455243373231526560448201527131b2b4bb32b91034b6b83632b6b2b73a32b960711b60648201526084016104ff565b6060600a805461040790612220565b6060816113be57505060408051808201909152600181527f3000000000000000000000000000000000000000000000000000000000000000602082015290565b8160005b81156113e857806113d28161225b565b91506113e19050600a836121c9565b91506113c2565b60008167ffffffffffffffff81111561141157634e487b7160e01b600052604160045260246000fd5b6040519080825280601f01601f19166020018201604052801561143b576020820181803683370190505b5090505b84156110f3576114506001836121dd565b915061145d600a86612276565b6114689060306121b1565b60f81b81838151811061148b57634e487b7160e01b600052603260045260246000fd5b60200101907effffffffffffffffffffffffffffffffffffffffffffffffffffffffffffff1916908160001a9053506114c5600a866121c9565b945061143f565b60006114d78261077b565b90506114e5816000846115f3565b6114f0600083610f96565b6001600160a01b03811660009081526004602052604081208054600192906115199084906121dd565b909155505060008281526003602052604080822080546001600160a01b0319169055518391906001600160a01b038416907fddf252ad1be2c89b69c2b068fc378daa952ba7f163c4a11628f55a4df523b3ef908390a45050565b604080516001600160a01b038416602482015260448082018490528251808303909101815260649091019091526020810180517bffffffffffffffffffffffffffffffffffffffffffffffffffffffff167fa9059cbb00000000000000000000000000000000000000000000000000000000179052610651908490611855565b6007546040517f512a53bc0000000000000000000000000000000000000000000000000000000081526001600160a01b0385811660048301528481166024830152604482018490529091169063512a53bc90606401600060405180830381600087803b15801561166257600080fd5b505af1158015611676573d6000803e3d6000fd5b50505050505050565b611689838361193a565b61169660008484846116fd565b6106515760405162461bcd60e51b815260206004820152603260248201527f4552433732313a207472616e7366657220746f206e6f6e20455243373231526560448201527131b2b4bb32b91034b6b83632b6b2b73a32b960711b60648201526084016104ff565b60006001600160a01b0384163b1561184a57604051630a85bd0160e11b81526001600160a01b0385169063150b7a0290611741903390899088908890600401612162565b602060405180830381600087803b15801561175b57600080fd5b505af192505050801561178b575060408051601f3d908101601f1916820190925261178891810190611ec2565b60015b611830573d8080156117b9576040519150601f19603f3d011682016040523d82523d6000602084013e6117be565b606091505b5080516118285760405162461bcd60e51b815260206004820152603260248201527f4552433732313a207472616e7366657220746f206e6f6e20455243373231526560448201527131b2b4bb32b91034b6b83632b6b2b73a32b960711b60648201526084016104ff565b805181602001fd5b6001600160e01b031916630a85bd0160e11b1490506110f3565b506001949350505050565b60006118aa826040518060400160405280602081526020017f5361666545524332303a206c6f772d6c6576656c2063616c6c206661696c6564815250856001600160a01b0316611a889092919063ffffffff16565b80519091501561065157808060200190518101906118c89190611e8a565b6106515760405162461bcd60e51b815260206004820152602a60248201527f5361666545524332303a204552433230206f7065726174696f6e20646964206e60448201527f6f7420737563636565640000000000000000000000000000000000000000000060648201526084016104ff565b6001600160a01b0382166119905760405162461bcd60e51b815260206004820181905260248201527f4552433732313a206d696e7420746f20746865207a65726f206164647265737360448201526064016104ff565b6000818152600360205260409020546001600160a01b0316156119f55760405162461bcd60e51b815260206004820152601c60248201527f4552433732313a20746f6b656e20616c7265616479206d696e7465640000000060448201526064016104ff565b611a01600083836115f3565b6001600160a01b0382166000908152600460205260408120805460019290611a2a9084906121b1565b909155505060008181526003602052604080822080546001600160a01b0319166001600160a01b03861690811790915590518392907fddf252ad1be2c89b69c2b068fc378daa952ba7f163c4a11628f55a4df523b3ef908290a45050565b60606110f3848460008585843b611ae15760405162461bcd60e51b815260206004820152601d60248201527f416464726573733a2063616c6c20746f206e6f6e2d636f6e747261637400000060448201526064016104ff565b600080866001600160a01b03168587604051611afd9190612117565b60006040518083038185875af1925050503d8060008114611b3a576040519150601f19603f3d011682016040523d82523d6000602084013e611b3f565b606091505b5091509150611b4f828286611b5a565b979650505050505050565b60608315611b69575081610c34565b825115611b795782518084602001fd5b8160405162461bcd60e51b81526004016104ff919061219e565b828054611b9f90612220565b90600052602060002090601f016020900481019282611bc15760008555611c07565b82601f10611bda57805160ff1916838001178555611c07565b82800160010185558215611c07579182015b82811115611c07578251825591602001919060010190611bec565b50611c13929150611c17565b5090565b5b80821115611c135760008155600101611c18565b600067ffffffffffffffff80841115611c4757611c476122b6565b604051601f8501601f19908116603f01168101908282118183101715611c6f57611c6f6122b6565b81604052809350858152868686011115611c8857600080fd5b858560208301376000602087830101525050509392505050565b600082601f830112611cb2578081fd5b610c3483833560208501611c2c565b80516dffffffffffffffffffffffffffff8116811461088757600080fd5b805161ffff8116811461088757600080fd5b805163ffffffff8116811461088757600080fd5b600060208284031215611d16578081fd5b8135610c34816122cc565b600060208284031215611d32578081fd5b8151610c34816122cc565b60008060408385031215611d4f578081fd5b8235611d5a816122cc565b91506020830135611d6a816122cc565b809150509250929050565b600080600060608486031215611d89578081fd5b8335611d94816122cc565b92506020840135611da4816122cc565b929592945050506040919091013590565b60008060008060808587031215611dca578081fd5b8435611dd5816122cc565b93506020850135611de5816122cc565b925060408501359150606085013567ffffffffffffffff811115611e07578182fd5b8501601f81018713611e17578182fd5b611e2687823560208401611c2c565b91505092959194509250565b60008060408385031215611e44578182fd5b8235611e4f816122cc565b91506020830135611d6a816122e4565b60008060408385031215611e71578182fd5b8235611e7c816122cc565b946020939093013593505050565b600060208284031215611e9b578081fd5b8151610c34816122e4565b600060208284031215611eb7578081fd5b8135610c34816122f2565b600060208284031215611ed3578081fd5b8151610c34816122f2565b60008060408385031215611ef0578182fd5b823567ffffffffffffffff80821115611f07578384fd5b611f1386838701611ca2565b93506020850135915080821115611f28578283fd5b50611f3585828601611ca2565b9150509250929050565b600080600080600060a08688031215611f56578283fd5b853567ffffffffffffffff80821115611f6d578485fd5b611f7989838a01611ca2565b96506020880135915080821115611f8e578485fd5b611f9a89838a01611ca2565b95506040880135915080821115611faf578485fd5b50611fbc88828901611ca2565b9350506060860135611fcd816122cc565b91506080860135611fdd816122cc565b809150509295509295909350565b6000610100808385031215611ffe578182fd5b6040519081019067ffffffffffffffff82118183101715612021576120216122b6565b8160405261202e84611cc1565b815261203c60208501611cdf565b602082015261204d60408501611cf1565b604082015261205e60608501611cf1565b606082015261206f60808501611cf1565b608082015261208060a08501611cf1565b60a082015261209160c08501611cc1565b60c08201526120a260e08501611cdf565b60e0820152949350505050565b6000602082840312156120c0578081fd5b5035919050565b600080604083850312156120d9578182fd5b823591506020830135611d6a816122cc565b600081518084526121038160208601602086016121f4565b601f01601f19169290920160200192915050565b600082516121298184602087016121f4565b9190910192915050565b600083516121458184602088016121f4565b8351908301906121598183602088016121f4565b01949350505050565b60006001600160a01b0380871683528086166020840152508360408301526080606083015261219460808301846120eb565b9695505050505050565b602081526000610c3460208301846120eb565b600082198211156121c4576121c461228a565b500190565b6000826121d8576121d86122a0565b500490565b6000828210156121ef576121ef61228a565b500390565b60005b8381101561220f5781810151838201526020016121f7565b83811115610a825750506000910152565b600181811c9082168061223457607f821691505b6020821081141561225557634e487b7160e01b600052602260045260246000fd5b50919050565b600060001982141561226f5761226f61228a565b5060010190565b600082612285576122856122a0565b500690565b634e487b7160e01b600052601160045260246000fd5b634e487b7160e01b600052601260045260246000fd5b634e487b7160e01b600052604160045260246000fd5b6001600160a01b03811681146122e157600080fd5b50565b80151581146122e157600080fd5b6001600160e01b0319811681146122e157600080fdfea2646970667358221220e06f2c2448adc2107a0dad77ce90995cd3b0ccecc5fecb9756c02e17f8f4e54964736f6c63430008040033",
  "linkReferences": {},
  "deployedLinkReferences": {}
}