{
  "_format": "hh-sol-artifact-1",
  "contractName": "BorrowToken",
  "sourceName": "contracts/BorrowToken.sol",
  "abi": [
    {
      "anonymous": false,
      "inputs": [
        {
          "indexed": true,
          "internalType": "address",
          "name": "owner",
          "type": "address"
        },
        {
          "indexed": true,
          "internalType": "address",
          "name": "approved",
          "type": "address"
        },
        {
          "indexed": true,
          "internalType": "uint256",
          "name": "tokenId",
          "type": "uint256"
        }
      ],
      "name": "Approval",
      "type": "event"
    },
    {
      "anonymous": false,
      "inputs": [
        {
          "indexed": true,
          "internalType": "address",
          "name": "owner",
          "type": "address"
        },
        {
          "indexed": true,
          "internalType": "address",
          "name": "operator",
          "type": "address"
        },
        {
          "indexed": false,
          "internalType": "bool",
          "name": "approved",
          "type": "bool"
        }
      ],
      "name": "ApprovalForAll",
      "type": "event"
    },
    {
      "anonymous": false,
      "inputs": [
        {
          "indexed": true,
          "internalType": "address",
          "name": "from",
          "type": "address"
        },
        {
          "indexed": true,
          "internalType": "address",
          "name": "to",
          "type": "address"
        },
        {
          "indexed": true,
          "internalType": "uint256",
          "name": "tokenId",
          "type": "uint256"
        }
      ],
      "name": "Transfer",
      "type": "event"
    },
    {
      "anonymous": false,
      "inputs": [],
      "name": "TransfersAllowed",
      "type": "event"
    },
    {
      "inputs": [
        {
          "internalType": "address",
          "name": "to",
          "type": "address"
        },
        {
          "internalType": "uint256",
          "name": "tokenId",
          "type": "uint256"
        }
      ],
      "name": "approve",
      "outputs": [],
      "stateMutability": "nonpayable",
      "type": "function"
    },
    {
      "inputs": [
        {
          "internalType": "address",
          "name": "owner",
          "type": "address"
        }
      ],
      "name": "balanceOf",
      "outputs": [
        {
          "internalType": "uint256",
          "name": "",
          "type": "uint256"
        }
      ],
      "stateMutability": "view",
      "type": "function"
    },
    {
      "inputs": [
        {
          "internalType": "uint256",
          "name": "tokenId",
          "type": "uint256"
        },
        {
          "internalType": "address",
          "name": "burner",
          "type": "address"
        }
      ],
      "name": "burn",
      "outputs": [],
      "stateMutability": "nonpayable",
      "type": "function"
    },
    {
      "inputs": [],
      "name": "enableTransfersForever",
      "outputs": [],
      "stateMutability": "nonpayable",
      "type": "function"
    },
    {
      "inputs": [
        {
          "internalType": "uint256",
          "name": "tokenId",
          "type": "uint256"
        }
      ],
      "name": "getApproved",
      "outputs": [
        {
          "internalType": "address",
          "name": "",
          "type": "address"
        }
      ],
      "stateMutability": "view",
      "type": "function"
    },
    {
      "inputs": [],
      "name": "getEnterprise",
      "outputs": [
        {
          "internalType": "contract IEnterprise",
          "name": "",
          "type": "address"
        }
      ],
      "stateMutability": "view",
      "type": "function"
    },
    {
      "inputs": [],
      "name": "getNextTokenId",
      "outputs": [
        {
          "internalType": "uint256",
          "name": "",
          "type": "uint256"
        }
      ],
      "stateMutability": "view",
      "type": "function"
    },
    {
      "inputs": [
        {
          "internalType": "string",
          "name": "name",
          "type": "string"
        },
        {
          "internalType": "string",
          "name": "symbol",
          "type": "string"
        },
        {
          "internalType": "contract IEnterprise",
          "name": "enterprise",
          "type": "address"
        }
      ],
      "name": "initialize",
      "outputs": [],
      "stateMutability": "nonpayable",
      "type": "function"
    },
    {
      "inputs": [
        {
          "internalType": "string",
          "name": "name_",
          "type": "string"
        },
        {
          "internalType": "string",
          "name": "symbol_",
          "type": "string"
        }
      ],
      "name": "initialize",
      "outputs": [],
      "stateMutability": "nonpayable",
      "type": "function"
    },
    {
      "inputs": [
        {
          "internalType": "contract IEnterprise",
          "name": "enterprise",
          "type": "address"
        }
      ],
      "name": "initialize",
      "outputs": [],
      "stateMutability": "nonpayable",
      "type": "function"
    },
    {
      "inputs": [
        {
          "internalType": "address",
          "name": "owner",
          "type": "address"
        },
        {
          "internalType": "address",
          "name": "operator",
          "type": "address"
        }
      ],
      "name": "isApprovedForAll",
      "outputs": [
        {
          "internalType": "bool",
          "name": "",
          "type": "bool"
        }
      ],
      "stateMutability": "view",
      "type": "function"
    },
    {
      "inputs": [
        {
          "internalType": "address",
          "name": "to",
          "type": "address"
        }
      ],
      "name": "mint",
      "outputs": [
        {
          "internalType": "uint256",
          "name": "",
          "type": "uint256"
        }
      ],
      "stateMutability": "nonpayable",
      "type": "function"
    },
    {
      "inputs": [],
      "name": "name",
      "outputs": [
        {
          "internalType": "string",
          "name": "",
          "type": "string"
        }
      ],
      "stateMutability": "view",
      "type": "function"
    },
    {
      "inputs": [
        {
          "internalType": "uint256",
          "name": "tokenId",
          "type": "uint256"
        }
      ],
      "name": "ownerOf",
      "outputs": [
        {
          "internalType": "address",
          "name": "",
          "type": "address"
        }
      ],
      "stateMutability": "view",
      "type": "function"
    },
    {
      "inputs": [
        {
          "internalType": "address",
          "name": "from",
          "type": "address"
        },
        {
          "internalType": "address",
          "name": "to",
          "type": "address"
        },
        {
          "internalType": "uint256",
          "name": "tokenId",
          "type": "uint256"
        }
      ],
      "name": "safeTransferFrom",
      "outputs": [],
      "stateMutability": "nonpayable",
      "type": "function"
    },
    {
      "inputs": [
        {
          "internalType": "address",
          "name": "from",
          "type": "address"
        },
        {
          "internalType": "address",
          "name": "to",
          "type": "address"
        },
        {
          "internalType": "uint256",
          "name": "tokenId",
          "type": "uint256"
        },
        {
          "internalType": "bytes",
          "name": "_data",
          "type": "bytes"
        }
      ],
      "name": "safeTransferFrom",
      "outputs": [],
      "stateMutability": "nonpayable",
      "type": "function"
    },
    {
      "inputs": [
        {
          "internalType": "address",
          "name": "operator",
          "type": "address"
        },
        {
          "internalType": "bool",
          "name": "approved",
          "type": "bool"
        }
      ],
      "name": "setApprovalForAll",
      "outputs": [],
      "stateMutability": "nonpayable",
      "type": "function"
    },
    {
      "inputs": [
        {
          "internalType": "bytes4",
          "name": "interfaceId",
          "type": "bytes4"
        }
      ],
      "name": "supportsInterface",
      "outputs": [
        {
          "internalType": "bool",
          "name": "",
          "type": "bool"
        }
      ],
      "stateMutability": "view",
      "type": "function"
    },
    {
      "inputs": [],
      "name": "symbol",
      "outputs": [
        {
          "internalType": "string",
          "name": "",
          "type": "string"
        }
      ],
      "stateMutability": "view",
      "type": "function"
    },
    {
      "inputs": [
        {
          "internalType": "uint256",
          "name": "index",
          "type": "uint256"
        }
      ],
      "name": "tokenByIndex",
      "outputs": [
        {
          "internalType": "uint256",
          "name": "",
          "type": "uint256"
        }
      ],
      "stateMutability": "view",
      "type": "function"
    },
    {
      "inputs": [
        {
          "internalType": "address",
          "name": "owner",
          "type": "address"
        },
        {
          "internalType": "uint256",
          "name": "index",
          "type": "uint256"
        }
      ],
      "name": "tokenOfOwnerByIndex",
      "outputs": [
        {
          "internalType": "uint256",
          "name": "",
          "type": "uint256"
        }
      ],
      "stateMutability": "view",
      "type": "function"
    },
    {
      "inputs": [
        {
          "internalType": "uint256",
          "name": "tokenId",
          "type": "uint256"
        }
      ],
      "name": "tokenURI",
      "outputs": [
        {
          "internalType": "string",
          "name": "",
          "type": "string"
        }
      ],
      "stateMutability": "view",
      "type": "function"
    },
    {
      "inputs": [],
      "name": "totalSupply",
      "outputs": [
        {
          "internalType": "uint256",
          "name": "",
          "type": "uint256"
        }
      ],
      "stateMutability": "view",
      "type": "function"
    },
    {
      "inputs": [
        {
          "internalType": "address",
          "name": "from",
          "type": "address"
        },
        {
          "internalType": "address",
          "name": "to",
          "type": "address"
        },
        {
          "internalType": "uint256",
          "name": "tokenId",
          "type": "uint256"
        }
      ],
      "name": "transferFrom",
      "outputs": [],
      "stateMutability": "nonpayable",
      "type": "function"
    }
  ],
  "bytecode": "0x608060405234801561001057600080fd5b50612410806100206000396000f3fe608060405234801561001057600080fd5b50600436106101285760003560e01c806301ffc9a71461012d57806306fdde0314610155578063077f224a1461016a578063081812fc1461017f578063095ea7b3146101aa57806318160ddd146101bd57806323b872dd146101cf5780632f745c59146101e257806342842e0e146101f55780634c11045a146102085780634cd88b76146102105780634f6ccce7146102235780636352211e146102365780636a6278421461024957806370a082311461025c57806395d89b411461026f578063a22cb46514610277578063b88d4fde1461028a578063c4d66de81461029d578063c87b56dd146102b0578063caa0f92a146102c3578063e298a2fd146102cb578063e985e9c5146102d3578063fcd3533c146102e6575b600080fd5b61014061013b366004611e9d565b6102f9565b60405190151581526020015b60405180910390f35b61015d610324565b60405161014c91906121f9565b61017d610178366004611fa7565b6103b6565b005b61019261018d3660046120de565b6103d8565b6040516001600160a01b03909116815260200161014c565b61017d6101b8366004611e56565b610442565b6009545b60405190815260200161014c565b61017d6101dd366004611d6d565b610504565b6101c16101f0366004611e56565b610553565b61017d610203366004611d6d565b6105c3565b61017d6105de565b61017d61021e366004611f47565b610714565b6101c16102313660046120de565b610781565b6101926102443660046120de565b6107fb565b6101c1610257366004611cfd565b610857565b6101c161026a366004611cfd565b6108d1565b61015d610931565b61017d610285366004611e29565b610940565b61017d610298366004611dad565b6109f0565b61017d6102ab366004611cfd565b610a46565b61015d6102be3660046120de565b610aed565b6101c1610b8e565b610192610bdd565b6101406102e1366004611d35565b610bec565b61017d6102f43660046120f6565b610c1a565b60006001600160e01b0319821663780e9d6360e01b148061031e575061031e82610dac565b92915050565b606060018054610333906122d2565b80601f016020809104026020016040519081016040528092919081815260200182805461035f906122d2565b80156103ac5780601f10610381576101008083540402835291602001916103ac565b820191906000526020600020905b81548152906001019060200180831161038f57829003601f168201915b5050505050905090565b6103bf81610a46565b6103c98383610714565b5050600c805460ff1916905550565b60006103e382610dfc565b604051806040016040528060028152602001610c8d60f21b815250906104255760405162461bcd60e51b815260040161041c91906121f9565b60405180910390fd5b50506000908152600560205260409020546001600160a01b031690565b600061044d826107fb565b9050806001600160a01b0316836001600160a01b0316141560405180604001604052806002815260200161191960f11b8152509061049e5760405162461bcd60e51b815260040161041c91906121f9565b50336001600160a01b03821614806104bb57506104bb8133610bec565b60405180604001604052806002815260200161323360f01b815250906104f45760405162461bcd60e51b815260040161041c91906121f9565b506104ff8383610e19565b505050565b61050e3382610e87565b60405180604001604052806002815260200161191b60f11b815250906105475760405162461bcd60e51b815260040161041c91906121f9565b506104ff838383610f2a565b600061055e836108d1565b8210604051806040016040528060028152602001610ccd60f21b815250906105995760405162461bcd60e51b815260040161041c91906121f9565b50506001600160a01b03919091166000908152600760209081526040808320938352929052205490565b6104ff838383604051806020016040528060008152506109f0565b60005460408051638da5cb5b60e01b8152905133926001600160a01b031691638da5cb5b916004808301926020929190829003018186803b15801561062257600080fd5b505afa158015610636573d6000803e3d6000fd5b505050506040513d601f19601f8201168201806040525081019061065a9190611d19565b6001600160a01b031614604051806040016040528060018152602001603360f81b8152509061069c5760405162461bcd60e51b815260040161041c91906121f9565b50600c546040805180820190915260028152611c1960f11b60208201529060ff16156106db5760405162461bcd60e51b815260040161041c91906121f9565b50600c805460ff191660011790556040517f2db8a095b698dea1e350f87ea8a3715a27054d8804d208742273b0cf28ba075390600090a1565b60018054610721906122d2565b6040805180820190915260018152601960f91b60208201529150156107595760405162461bcd60e51b815260040161041c91906121f9565b50815161076d906001906020850190611bca565b5080516104ff906002906020840190611bca565b600061078c60095490565b821060405180604001604052806002815260200161333560f01b815250906107c75760405162461bcd60e51b815260040161041c91906121f9565b50600982815481106107e957634e487b7160e01b600052603260045260246000fd5b90600052602060002001549050919050565b60008181526003602090815260408083205481518083019092526002825261323160f01b928201929092526001600160a01b0390911690816108505760405162461bcd60e51b815260040161041c91906121f9565b5092915050565b600080546040805180820190915260018152600d60fa1b6020820152906001600160a01b0316331461089c5760405162461bcd60e51b815260040161041c91906121f9565b5060006108a7610b8e565b90506108b3838261107e565b600b80549060006108c38361230d565b90915550909150505b919050565b604080518082019091526002815261032360f41b60208201526000906001600160a01b0383166109145760405162461bcd60e51b815260040161041c91906121f9565b50506001600160a01b031660009081526004602052604090205490565b606060028054610333906122d2565b604080518082019091526002815261323560f01b60208201526001600160a01b0383163314156109835760405162461bcd60e51b815260040161041c91906121f9565b503360008181526006602090815260408083206001600160a01b03871680855290835292819020805460ff191686151590811790915590519081529192917f17307eab39ab6107e8899845ad3d59bd9653f200f220920489ca2b5937696c31910160405180910390a35050565b6109fa3383610e87565b60405180604001604052806002815260200161191b60f11b81525090610a335760405162461bcd60e51b815260040161041c91906121f9565b50610a408484848461109c565b50505050565b6000546040805180820190915260018152601960f91b6020820152906001600160a01b031615610a895760405162461bcd60e51b815260040161041c91906121f9565b50604080518082019091526002815261353960f01b60208201526001600160a01b038216610aca5760405162461bcd60e51b815260040161041c91906121f9565b50600080546001600160a01b0319166001600160a01b0392909216919091179055565b6060610af882610dfc565b60405180604001604052806002815260200161333360f01b81525090610b315760405162461bcd60e51b815260040161041c91906121f9565b506000610b3c6110ec565b90506000815111610b5c5760405180602001604052806000815250610b87565b80610b66846111b3565b604051602001610b77929190612162565b6040516020818303038152906040525b9392505050565b600b54604051603160f91b60208201526001600160601b03193060601b16602182015260358101919091526000906055016040516020818303038152906040528051906020012060001c905090565b6000546001600160a01b031690565b6001600160a01b03918216600090815260066020908152604080832093909416825291909152205460ff1690565b6000546040805180820190915260018152600d60fa1b6020820152906001600160a01b03163314610c5e5760405162461bcd60e51b815260040161041c91906121f9565b506000610c69610bdd565b6040516301c5004b60e21b8152600481018590529091506000906001600160a01b03831690630714012c906024016101006040518083038186803b158015610cb057600080fd5b505afa158015610cc4573d6000803e3d6000fd5b505050506040513d601f19601f82011682018060405250810190610ce8919061201b565b60e081015160405163cdc2aebf60e01b815261ffff90911660048201529091506000906001600160a01b0384169063cdc2aebf9060240160206040518083038186803b158015610d3757600080fd5b505afa158015610d4b573d6000803e3d6000fd5b505050506040513d601f19601f82011682018060405250810190610d6f9190611d19565b9050610d9c848360c001516001600160701b0316836001600160a01b03166112cc9092919063ffffffff16565b610da58561131e565b5050505050565b60006001600160e01b031982166380ac58cd60e01b1480610ddd57506001600160e01b03198216635b5e139f60e01b145b8061031e57506301ffc9a760e01b6001600160e01b031983161461031e565b6000908152600360205260409020546001600160a01b0316151590565b600081815260056020526040902080546001600160a01b0319166001600160a01b0384169081179091558190610e4e826107fb565b6001600160a01b03167f8c5be1e5ebec7d5bd14f71427d1e84f3dd0314c0f7b2291e5b200ac8c7c3b92560405160405180910390a45050565b6000610e9282610dfc565b60405180604001604052806002815260200161064760f31b81525090610ecb5760405162461bcd60e51b815260040161041c91906121f9565b506000610ed7836107fb565b9050806001600160a01b0316846001600160a01b03161480610f125750836001600160a01b0316610f07846103d8565b6001600160a01b0316145b80610f225750610f228185610bec565b949350505050565b826001600160a01b0316610f3d826107fb565b6001600160a01b03161460405180604001604052806002815260200161333160f01b81525090610f805760405162461bcd60e51b815260040161041c91906121f9565b50604080518082019091526002815261199960f11b60208201526001600160a01b038316610fc15760405162461bcd60e51b815260040161041c91906121f9565b50610fcd8383836113b3565b610fd8600082610e19565b6001600160a01b038316600090815260046020526040812080546001929061100190849061228f565b90915550506001600160a01b038216600090815260046020526040812080546001929061102f908490612263565b909155505060008181526003602052604080822080546001600160a01b0319166001600160a01b0386811691821790925591518493918716916000805160206123bb83398151915291a4505050565b61109882826040518060200160405280600081525061149b565b5050565b6110a7848484610f2a565b6110b3848484846114eb565b60405180604001604052806002815260200161323760f01b81525090610da55760405162461bcd60e51b815260040161041c91906121f9565b606060006110f8610bdd565b6001600160a01b0316630cac36b26040518163ffffffff1660e01b815260040160006040518083038186803b15801561113057600080fd5b505afa158015611144573d6000803e3d6000fd5b505050506040513d6000823e601f3d908101601f1916820160405261116c9190810190611ed5565b9050600081511161118c57604051806020016040528060008152506111ad565b8060405160200161119d9190612191565b6040516020818303038152906040525b91505090565b6060816111d75750506040805180820190915260018152600360fc1b602082015290565b8160005b811561120157806111eb8161230d565b91506111fa9050600a8361227b565b91506111db565b6000816001600160401b0381111561122957634e487b7160e01b600052604160045260246000fd5b6040519080825280601f01601f191660200182016040528015611253576020820181803683370190505b5090505b8415610f225761126860018361228f565b9150611275600a86612328565b611280906030612263565b60f81b8183815181106112a357634e487b7160e01b600052603260045260246000fd5b60200101906001600160f81b031916908160001a9053506112c5600a8661227b565b9450611257565b604080516001600160a01b038416602482015260448082018490528251808303909101815260649091019091526020810180516001600160e01b031663a9059cbb60e01b1790526104ff908490611610565b6000611329826107fb565b9050611337816000846113b3565b611342600083610e19565b6001600160a01b038116600090815260046020526040812080546001929061136b90849061228f565b909155505060008281526003602052604080822080546001600160a01b0319169055518391906001600160a01b038416906000805160206123bb833981519152908390a45050565b6001600160a01b03831615806113d057506001600160a01b038216155b806113dd5750600c5460ff165b60405180604001604052806002815260200161383160f01b815250906114165760405162461bcd60e51b815260040161041c91906121f9565b506114228383836116e2565b61142a610bdd565b60405163144a94ef60e21b81526001600160a01b038581166004830152848116602483015260448201849052919091169063512a53bc90606401600060405180830381600087803b15801561147e57600080fd5b505af1158015611492573d6000803e3d6000fd5b50505050505050565b6114a5838361179a565b6114b260008484846114eb565b60405180604001604052806002815260200161323760f01b81525090610a405760405162461bcd60e51b815260040161041c91906121f9565b60006001600160a01b0384163b1561160557604051630a85bd0160e11b81526001600160a01b0385169063150b7a029061152f9033908990889088906004016121bc565b602060405180830381600087803b15801561154957600080fd5b505af1925050508015611579575060408051601f3d908101601f1916820190925261157691810190611eb9565b60015b6115eb573d8080156115a7576040519150601f19603f3d011682016040523d82523d6000602084013e6115ac565b606091505b5080516115e3576040805180820182526002815261323760f01b6020820152905162461bcd60e51b815261041c91906004016121f9565b805181602001fd5b6001600160e01b031916630a85bd0160e11b149050610f22565b506001949350505050565b6000611665826040518060400160405280602081526020017f5361666545524332303a206c6f772d6c6576656c2063616c6c206661696c6564815250856001600160a01b03166118a09092919063ffffffff16565b8051909150156104ff57808060200190518101906116839190611e81565b6104ff5760405162461bcd60e51b815260206004820152602a60248201527f5361666545524332303a204552433230206f7065726174696f6e20646964206e6044820152691bdd081cdd58d8d9595960b21b606482015260840161041c565b6001600160a01b03831661173d5761173881600980546000838152600a60205260408120829055600182018355919091527f6e1540171b6c0c960b71a7020d9f60077f6af931a8bbf590da0223dacf75c7af0155565b611760565b816001600160a01b0316836001600160a01b0316146117605761176083826118af565b6001600160a01b038216611777576104ff8161194c565b826001600160a01b0316826001600160a01b0316146104ff576104ff8282611a25565b604080518082019091526002815261323960f01b60208201526001600160a01b0383166117da5760405162461bcd60e51b815260040161041c91906121f9565b506117e481610dfc565b1560405180604001604052806002815260200161033360f41b8152509061181e5760405162461bcd60e51b815260040161041c91906121f9565b5061182b600083836113b3565b6001600160a01b0382166000908152600460205260408120805460019290611854908490612263565b909155505060008181526003602052604080822080546001600160a01b0319166001600160a01b03861690811790915590518392906000805160206123bb833981519152908290a45050565b6060610f228484600085611a69565b600060016118bc846108d1565b6118c6919061228f565b600083815260086020526040902054909150808214611919576001600160a01b03841660009081526007602090815260408083208584528252808320548484528184208190558352600890915290208190555b5060009182526008602090815260408084208490556001600160a01b039094168352600781528383209183525290812055565b60095460009061195e9060019061228f565b6000838152600a60205260408120546009805493945090928490811061199457634e487b7160e01b600052603260045260246000fd5b9060005260206000200154905080600983815481106119c357634e487b7160e01b600052603260045260246000fd5b6000918252602080832090910192909255828152600a90915260408082208490558582528120556009805480611a0957634e487b7160e01b600052603160045260246000fd5b6001900381819060005260206000200160009055905550505050565b6000611a30836108d1565b6001600160a01b039093166000908152600760209081526040808320868452825280832085905593825260089052919091209190915550565b606082471015611aca5760405162461bcd60e51b815260206004820152602660248201527f416464726573733a20696e73756666696369656e742062616c616e636520666f6044820152651c8818d85b1b60d21b606482015260840161041c565b843b611b185760405162461bcd60e51b815260206004820152601d60248201527f416464726573733a2063616c6c20746f206e6f6e2d636f6e7472616374000000604482015260640161041c565b600080866001600160a01b03168587604051611b349190612146565b60006040518083038185875af1925050503d8060008114611b71576040519150601f19603f3d011682016040523d82523d6000602084013e611b76565b606091505b5091509150611b86828286611b91565b979650505050505050565b60608315611ba0575081610b87565b825115611bb05782518084602001fd5b8160405162461bcd60e51b815260040161041c91906121f9565b828054611bd6906122d2565b90600052602060002090601f016020900481019282611bf85760008555611c3e565b82601f10611c1157805160ff1916838001178555611c3e565b82800160010185558215611c3e579182015b82811115611c3e578251825591602001919060010190611c23565b50611c4a929150611c4e565b5090565b5b80821115611c4a5760008155600101611c4f565b6000611c76611c718461223c565b61220c565b9050828152838383011115611c8a57600080fd5b828260208301376000602084830101529392505050565b600082601f830112611cb1578081fd5b610b8783833560208501611c63565b80516001600160701b03811681146108cc57600080fd5b805161ffff811681146108cc57600080fd5b805163ffffffff811681146108cc57600080fd5b600060208284031215611d0e578081fd5b8135610b878161237e565b600060208284031215611d2a578081fd5b8151610b878161237e565b60008060408385031215611d47578081fd5b8235611d528161237e565b91506020830135611d628161237e565b809150509250929050565b600080600060608486031215611d81578081fd5b8335611d8c8161237e565b92506020840135611d9c8161237e565b929592945050506040919091013590565b60008060008060808587031215611dc2578081fd5b8435611dcd8161237e565b93506020850135611ddd8161237e565b92506040850135915060608501356001600160401b03811115611dfe578182fd5b8501601f81018713611e0e578182fd5b611e1d87823560208401611c63565b91505092959194509250565b60008060408385031215611e3b578182fd5b8235611e468161237e565b91506020830135611d6281612396565b60008060408385031215611e68578081fd5b8235611e738161237e565b946020939093013593505050565b600060208284031215611e92578081fd5b8151610b8781612396565b600060208284031215611eae578081fd5b8135610b87816123a4565b600060208284031215611eca578081fd5b8151610b87816123a4565b600060208284031215611ee6578081fd5b81516001600160401b03811115611efb578182fd5b8201601f81018413611f0b578182fd5b8051611f19611c718261223c565b818152856020838501011115611f2d578384fd5b611f3e8260208301602086016122a6565b95945050505050565b60008060408385031215611f59578182fd5b82356001600160401b0380821115611f6f578384fd5b611f7b86838701611ca1565b93506020850135915080821115611f90578283fd5b50611f9d85828601611ca1565b9150509250929050565b600080600060608486031215611fbb578081fd5b83356001600160401b0380821115611fd1578283fd5b611fdd87838801611ca1565b94506020860135915080821115611ff2578283fd5b50611fff86828701611ca1565b92505060408401356120108161237e565b809150509250925092565b600061010080838503121561202e578182fd5b604051908101906001600160401b038211818310171561205057612050612368565b8160405261205d84611cc0565b815261206b60208501611cd7565b602082015261207c60408501611ce9565b604082015261208d60608501611ce9565b606082015261209e60808501611ce9565b60808201526120af60a08501611ce9565b60a08201526120c060c08501611cc0565b60c08201526120d160e08501611cd7565b60e0820152949350505050565b6000602082840312156120ef578081fd5b5035919050565b60008060408385031215612108578182fd5b823591506020830135611d628161237e565b600081518084526121328160208601602086016122a6565b601f01601f19169290920160200192915050565b600082516121588184602087016122a6565b9190910192915050565b600083516121748184602088016122a6565b8351908301906121888183602088016122a6565b01949350505050565b600082516121a38184602087016122a6565b66626f72726f772f60c81b920191825250600701919050565b6001600160a01b03858116825284166020820152604081018390526080606082018190526000906121ef9083018461211a565b9695505050505050565b602081526000610b87602083018461211a565b604051601f8201601f191681016001600160401b038111828210171561223457612234612368565b604052919050565b60006001600160401b0382111561225557612255612368565b50601f01601f191660200190565b600082198211156122765761227661233c565b500190565b60008261228a5761228a612352565b500490565b6000828210156122a1576122a161233c565b500390565b60005b838110156122c15781810151838201526020016122a9565b83811115610a405750506000910152565b600181811c908216806122e657607f821691505b6020821081141561230757634e487b7160e01b600052602260045260246000fd5b50919050565b60006000198214156123215761232161233c565b5060010190565b60008261233757612337612352565b500690565b634e487b7160e01b600052601160045260246000fd5b634e487b7160e01b600052601260045260246000fd5b634e487b7160e01b600052604160045260246000fd5b6001600160a01b038116811461239357600080fd5b50565b801515811461239357600080fd5b6001600160e01b03198116811461239357600080fdfeddf252ad1be2c89b69c2b068fc378daa952ba7f163c4a11628f55a4df523b3efa2646970667358221220200b6f7cadad0eb3f80341d7f852e052b35ca99b94cb528eb22201630141cb3464736f6c63430008040033",
  "linkReferences": {},
  "deployedLinkReferences": {}
}