{
  "_format": "hh-sol-artifact-1",
  "contractName": "InterestToken",
  "sourceName": "contracts/iq/InterestToken.sol",
  "abi": [
    {
      "inputs": [
        {
          "internalType": "contract RentingPool",
          "name": "_rentingPool",
          "type": "address"
        },
        {
          "internalType": "string",
          "name": "_name",
          "type": "string"
        },
        {
          "internalType": "string",
          "name": "_symbol",
          "type": "string"
        },
        {
          "internalType": "string",
          "name": "_baseUri",
          "type": "string"
        }
      ],
      "stateMutability": "nonpayable",
      "type": "constructor"
    },
    {
      "anonymous": false,
      "inputs": [
        {
          "indexed": true,
          "internalType": "address",
          "name": "_owner",
          "type": "address"
        },
        {
          "indexed": true,
          "internalType": "address",
          "name": "_operator",
          "type": "address"
        },
        {
          "indexed": false,
          "internalType": "bool",
          "name": "_approved",
          "type": "bool"
        }
      ],
      "name": "ApprovalForAll",
      "type": "event"
    },
    {
      "anonymous": false,
      "inputs": [
        {
          "indexed": true,
          "internalType": "address",
          "name": "_operator",
          "type": "address"
        },
        {
          "indexed": true,
          "internalType": "address",
          "name": "_from",
          "type": "address"
        },
        {
          "indexed": true,
          "internalType": "address",
          "name": "_to",
          "type": "address"
        },
        {
          "indexed": false,
          "internalType": "uint256[]",
          "name": "_ids",
          "type": "uint256[]"
        },
        {
          "indexed": false,
          "internalType": "uint256[]",
          "name": "_values",
          "type": "uint256[]"
        }
      ],
      "name": "TransferBatch",
      "type": "event"
    },
    {
      "anonymous": false,
      "inputs": [
        {
          "indexed": true,
          "internalType": "address",
          "name": "_operator",
          "type": "address"
        },
        {
          "indexed": true,
          "internalType": "address",
          "name": "_from",
          "type": "address"
        },
        {
          "indexed": true,
          "internalType": "address",
          "name": "_to",
          "type": "address"
        },
        {
          "indexed": false,
          "internalType": "uint256",
          "name": "_id",
          "type": "uint256"
        },
        {
          "indexed": false,
          "internalType": "uint256",
          "name": "_value",
          "type": "uint256"
        }
      ],
      "name": "TransferSingle",
      "type": "event"
    },
    {
      "anonymous": false,
      "inputs": [
        {
          "indexed": false,
          "internalType": "string",
          "name": "_value",
          "type": "string"
        },
        {
          "indexed": true,
          "internalType": "uint256",
          "name": "_id",
          "type": "uint256"
        }
      ],
      "name": "URI",
      "type": "event"
    },
    {
      "inputs": [
        {
          "internalType": "address",
          "name": "account",
          "type": "address"
        },
        {
          "internalType": "uint256",
          "name": "id",
          "type": "uint256"
        }
      ],
      "name": "balanceOf",
      "outputs": [
        {
          "internalType": "uint256",
          "name": "",
          "type": "uint256"
        }
      ],
      "stateMutability": "view",
      "type": "function"
    },
    {
      "inputs": [
        {
          "internalType": "address[]",
          "name": "accounts",
          "type": "address[]"
        },
        {
          "internalType": "uint256[]",
          "name": "ids",
          "type": "uint256[]"
        }
      ],
      "name": "balanceOfBatch",
      "outputs": [
        {
          "internalType": "uint256[]",
          "name": "",
          "type": "uint256[]"
        }
      ],
      "stateMutability": "view",
      "type": "function"
    },
    {
      "inputs": [],
      "name": "getRate",
      "outputs": [
        {
          "internalType": "uint256",
          "name": "",
          "type": "uint256"
        }
      ],
      "stateMutability": "view",
      "type": "function"
    },
    {
      "inputs": [
        {
          "internalType": "address",
          "name": "account",
          "type": "address"
        },
        {
          "internalType": "address",
          "name": "operator",
          "type": "address"
        }
      ],
      "name": "isApprovedForAll",
      "outputs": [
        {
          "internalType": "bool",
          "name": "",
          "type": "bool"
        }
      ],
      "stateMutability": "view",
      "type": "function"
    },
    {
      "inputs": [
        {
          "internalType": "address",
          "name": "_to",
          "type": "address"
        },
        {
          "internalType": "uint256",
          "name": "_id",
          "type": "uint256"
        },
        {
          "internalType": "uint256",
          "name": "_amount",
          "type": "uint256"
        }
      ],
      "name": "lend",
      "outputs": [],
      "stateMutability": "nonpayable",
      "type": "function"
    },
    {
      "inputs": [
        {
          "internalType": "address",
          "name": "_to",
          "type": "address"
        },
        {
          "internalType": "uint256",
          "name": "_id",
          "type": "uint256"
        },
        {
          "internalType": "uint256",
          "name": "_amount",
          "type": "uint256"
        }
      ],
      "name": "mint",
      "outputs": [],
      "stateMutability": "nonpayable",
      "type": "function"
    },
    {
      "inputs": [],
      "name": "name",
      "outputs": [
        {
          "internalType": "string",
          "name": "",
          "type": "string"
        }
      ],
      "stateMutability": "view",
      "type": "function"
    },
    {
      "inputs": [],
      "name": "owner",
      "outputs": [
        {
          "internalType": "address",
          "name": "",
          "type": "address"
        }
      ],
      "stateMutability": "view",
      "type": "function"
    },
    {
      "inputs": [],
      "name": "rentingPool",
      "outputs": [
        {
          "internalType": "contract RentingPool",
          "name": "",
          "type": "address"
        }
      ],
      "stateMutability": "view",
      "type": "function"
    },
    {
      "inputs": [
        {
          "internalType": "address",
          "name": "_from",
          "type": "address"
        },
        {
          "internalType": "address",
          "name": "_to",
          "type": "address"
        },
        {
          "internalType": "uint256[]",
          "name": "_ids",
          "type": "uint256[]"
        },
        {
          "internalType": "uint256[]",
          "name": "_values",
          "type": "uint256[]"
        },
        {
          "internalType": "bytes",
          "name": "_data",
          "type": "bytes"
        }
      ],
      "name": "safeBatchTransferFrom",
      "outputs": [],
      "stateMutability": "nonpayable",
      "type": "function"
    },
    {
      "inputs": [
        {
          "internalType": "address",
          "name": "_from",
          "type": "address"
        },
        {
          "internalType": "address",
          "name": "_to",
          "type": "address"
        },
        {
          "internalType": "uint256",
          "name": "_id",
          "type": "uint256"
        },
        {
          "internalType": "uint256",
          "name": "_value",
          "type": "uint256"
        },
        {
          "internalType": "bytes",
          "name": "_data",
          "type": "bytes"
        }
      ],
      "name": "safeTransferFrom",
      "outputs": [],
      "stateMutability": "nonpayable",
      "type": "function"
    },
    {
      "inputs": [
        {
          "internalType": "address",
          "name": "operator",
          "type": "address"
        },
        {
          "internalType": "bool",
          "name": "approved",
          "type": "bool"
        }
      ],
      "name": "setApprovalForAll",
      "outputs": [],
      "stateMutability": "nonpayable",
      "type": "function"
    },
    {
      "inputs": [],
      "name": "symbol",
      "outputs": [
        {
          "internalType": "string",
          "name": "",
          "type": "string"
        }
      ],
      "stateMutability": "view",
      "type": "function"
    },
    {
      "inputs": [
        {
          "internalType": "uint256",
          "name": "",
          "type": "uint256"
        }
      ],
      "name": "uri",
      "outputs": [
        {
          "internalType": "string",
          "name": "",
          "type": "string"
        }
      ],
      "stateMutability": "view",
      "type": "function"
    }
  ],
  "bytecode": "0x60806040523480156200001157600080fd5b506040516200187f3803806200187f833981810160405260808110156200003757600080fd5b8151602083018051604051929492938301929190846401000000008211156200005f57600080fd5b9083019060208201858111156200007557600080fd5b82516401000000008111828201881017156200009057600080fd5b82525081516020918201929091019080838360005b83811015620000bf578181015183820152602001620000a5565b50505050905090810190601f168015620000ed5780820380516001836020036101000a031916815260200191505b50604052602001805160405193929190846401000000008211156200011157600080fd5b9083019060208201858111156200012757600080fd5b82516401000000008111828201881017156200014257600080fd5b82525081516020918201929091019080838360005b838110156200017157818101518382015260200162000157565b50505050905090810190601f1680156200019f5780820380516001836020036101000a031916815260200191505b5060405260200180516040519392919084640100000000821115620001c357600080fd5b908301906020820185811115620001d957600080fd5b8251640100000000811182820188101715620001f457600080fd5b82525081516020918201929091019080838360005b838110156200022357818101518382015260200162000209565b50505050905090810190601f168015620002515780820380516001836020036101000a031916815260200191505b50604052505050828282826000908051906020019062000273929190620002dc565b50815162000289906001906020850190620002dc565b5080516200029f906002906020840190620002dc565b505060038054336001600160a01b031991821617909155600680549091166001600160a01b03979097169690961790955550620003889350505050565b828054600181600116156101000203166002900490600052602060002090601f0160209004810192826200031457600085556200035f565b82601f106200032f57805160ff19168380011785556200035f565b828001600101855582156200035f579182015b828111156200035f57825182559160200191906001019062000342565b506200036d92915062000371565b5090565b5b808211156200036d576000815560010162000372565b6114e780620003986000396000f3fe608060405234801561001057600080fd5b50600436106100e95760003560e01c80637082d2031161008c578063a22cb46511610066578063a22cb46514610504578063e985e9c514610532578063ece6211214610574578063f242432a1461057c576100e9565b80637082d203146104a65780638da5cb5b146104d857806395d89b41146104fc576100e9565b8063156e29f6116100c8578063156e29f6146101c65780632eb2c2d6146101fa5780634e1273f414610327578063679aefce1461049e576100e9565b8062fdd58e146100ee57806306fdde031461012c5780630e89341c146101a9575b600080fd5b61011a6004803603604081101561010457600080fd5b506001600160a01b038135169060200135610611565b60408051918252519081900360200190f35b610134610680565b6040805160208082528351818301528351919283929083019185019080838360005b8381101561016e578181015183820152602001610156565b50505050905090810190601f16801561019b5780820380516001836020036101000a031916815260200191505b509250505060405180910390f35b610134600480360360208110156101bf57600080fd5b503561070e565b6101f8600480360360608110156101dc57600080fd5b506001600160a01b0381351690602081013590604001356107a3565b005b6101f8600480360360a081101561021057600080fd5b6001600160a01b03823581169260208101359091169181019060608101604082013564010000000081111561024457600080fd5b82018360208201111561025657600080fd5b8035906020019184602083028401116401000000008311171561027857600080fd5b91939092909160208101903564010000000081111561029657600080fd5b8201836020820111156102a857600080fd5b803590602001918460208302840111640100000000831117156102ca57600080fd5b9193909290916020810190356401000000008111156102e857600080fd5b8201836020820111156102fa57600080fd5b8035906020019184600183028401116401000000008311171561031c57600080fd5b5090925090506107d3565b61044e6004803603604081101561033d57600080fd5b81019060208101813564010000000081111561035857600080fd5b82018360208201111561036a57600080fd5b8035906020019184602083028401116401000000008311171561038c57600080fd5b91908080602002602001604051908101604052809392919081815260200183836020028082843760009201919091525092959493602081019350359150506401000000008111156103dc57600080fd5b8201836020820111156103ee57600080fd5b8035906020019184602083028401116401000000008311171561041057600080fd5b919080806020026020016040519081016040528093929190818152602001838360200280828437600092019190915250929550610a73945050505050565b60408051602080825283518183015283519192839290830191858101910280838360005b8381101561048a578181015183820152602001610472565b505050509050019250505060405180910390f35b61011a610b5f565b6101f8600480360360608110156104bc57600080fd5b506001600160a01b0381351690602081013590604001356107ce565b6104e0610b64565b604080516001600160a01b039092168252519081900360200190f35b610134610b73565b6101f86004803603604081101561051a57600080fd5b506001600160a01b0381351690602001351515610bcd565b6105606004803603604081101561054857600080fd5b506001600160a01b0381358116916020013516610c83565b604080519115158252519081900360200190f35b6104e0610cb1565b6101f8600480360360a081101561059257600080fd5b6001600160a01b03823581169260208101359091169160408201359160608101359181019060a0810160808201356401000000008111156105d257600080fd5b8201836020820111156105e457600080fd5b8035906020019184600183028401116401000000008311171561060657600080fd5b509092509050610cc0565b60006001600160a01b0383166106585760405162461bcd60e51b815260040180806020018281038252602b815260200180611341602b913960400191505060405180910390fd5b5060009081526004602090815260408083206001600160a01b03949094168352929052205490565b6000805460408051602060026001851615610100026000190190941693909304601f810184900484028201840190925281815292918301828280156107065780601f106106db57610100808354040283529160200191610706565b820191906000526020600020905b8154815290600101906020018083116106e957829003601f168201915b505050505081565b60028054604080516020601f60001961010060018716150201909416859004938401819004810282018101909252828152606093909290918301828280156107975780601f1061076c57610100808354040283529160200191610797565b820191906000526020600020905b81548152906001019060200180831161077a57829003601f168201915b50505050509050919050565b6107ce8383836dffffffffffffffffffffffffffff1660405180602001604052806000815250610eac565b505050565b6001600160a01b0387166108185760405162461bcd60e51b815260040180806020018281038252602581526020018061136c6025913960400191505060405180910390fd5b8483146108565760405162461bcd60e51b81526004018080602001828103825260298152602001806113fe6029913960400191505060405180910390fd5b6001600160a01b03881633148061089557506001600160a01b038816600090815260056020908152604080832033845290915290205460ff1615156001145b6108d05760405162461bcd60e51b815260040180806020018281038252602f815260200180611391602f913960400191505060405180910390fd5b60005b858110156109135761090b89898989858181106108ec57fe5b905060200201358888868181106108ff57fe5b90506020020135610f33565b6001016108d3565b50866001600160a01b0316886001600160a01b0316336001600160a01b03167f4a39dc06d4c0dbc64b70af90fd698a233a518aa5d07e595d983b8c0526c8f7fb898989896040518080602001806020018381038352878782818152602001925060200280828437600083820152601f01601f19169091018481038352858152602090810191508690860280828437600083820152604051601f909101601f19169092018290039850909650505050505050a4610a6933898989898080602002602001604051908101604052809392919081815260200183836020028082843760009201919091525050604080516020808d0282810182019093528c82529093508c92508b91829185019084908082843760009201919091525050604080516020601f8c018190048102820181019092528a815292508a9150899081908401838280828437600092019190915250610f7a92505050565b5050505050505050565b60608151835114610ab55760405162461bcd60e51b81526004018080602001828103825260298152602001806114506029913960400191505060405180910390fd5b6000835167ffffffffffffffff81118015610acf57600080fd5b50604051908082528060200260200182016040528015610af9578160200160208202803683370190505b50905060005b8451811015610b5757610b38858281518110610b1757fe5b6020026020010151858381518110610b2b57fe5b6020026020010151610611565b828281518110610b4457fe5b6020908102919091010152600101610aff565b509392505050565b600090565b6003546001600160a01b031681565b60018054604080516020600284861615610100026000190190941693909304601f810184900484028201840190925281815292918301828280156107065780601f106106db57610100808354040283529160200191610706565b336001600160a01b0383161415610c155760405162461bcd60e51b81526004018080602001828103825260298152602001806114276029913960400191505060405180910390fd5b3360008181526005602090815260408083206001600160a01b03871680855290835292819020805460ff1916861515908117909155815190815290519293927f17307eab39ab6107e8899845ad3d59bd9653f200f220920489ca2b5937696c31929181900390910190a35050565b6001600160a01b03918216600090815260056020908152604080832093909416825291909152205460ff1690565b6006546001600160a01b031681565b6dffffffffffffffffffffffffffff8310610d22576040805162461bcd60e51b815260206004820152601360248201527f56616c7565206f7574206f6620626f756e647300000000000000000000000000604482015290519081900360640190fd5b6001600160a01b038516610d7d576040805162461bcd60e51b815260206004820152601560248201527f5f746f206d757374206265206e6f6e2d7a65726f2e0000000000000000000000604482015290519081900360640190fd5b6001600160a01b038616331480610dbc57506001600160a01b038616600090815260056020908152604080832033845290915290205460ff1615156001145b610df75760405162461bcd60e51b815260040180806020018281038252602f815260200180611391602f913960400191505060405180910390fd5b610e0386868686610f33565b846001600160a01b0316866001600160a01b0316336001600160a01b03167fc3d58168c5ae7397731d063d5bbf3d657854427343f4c083240f7aacaa2d0f628787604051808381526020018281526020019250505060405180910390a4610ea4338787878787878080601f01602080910402602001604051908101604052809392919081815260200183838082843760009201919091525061119892505050565b505050505050565b610eb96000858585610f2d565b60008381526004602090815260408083206001600160a01b0388168085529083528184208054870190558151878152928301869052815190939233927fc3d58168c5ae7397731d063d5bbf3d657854427343f4c083240f7aacaa2d0f6292918290030190a4610f2d33600086868686611198565b50505050565b610f3f84848484610f2d565b60009182526004602090815260408084206001600160a01b039687168552909152808320805483900390559290931681522080549091019055565b610f8c846001600160a01b031661133a565b15610ea45763bc197c8160e01b7bffffffffffffffffffffffffffffffffffffffffffffffffffffffff1916846001600160a01b031663bc197c8188888787876040518663ffffffff1660e01b815260040180866001600160a01b03168152602001856001600160a01b03168152602001806020018060200180602001848103845287818151815260200191508051906020019060200280838360005b83811015611041578181015183820152602001611029565b50505050905001848103835286818151815260200191508051906020019060200280838360005b83811015611080578181015183820152602001611068565b50505050905001848103825285818151815260200191508051906020019080838360005b838110156110bc5781810151838201526020016110a4565b50505050905090810190601f1680156110e95780820380516001836020036101000a031916815260200191505b5098505050505050505050602060405180830381600087803b15801561110e57600080fd5b505af1158015611122573d6000803e3d6000fd5b505050506040513d602081101561113857600080fd5b50517fffffffff000000000000000000000000000000000000000000000000000000001614610ea45760405162461bcd60e51b815260040180806020018281038252603e8152602001806113c0603e913960400191505060405180910390fd5b6111aa846001600160a01b031661133a565b15610ea45763f23a6e6160e01b7bffffffffffffffffffffffffffffffffffffffffffffffffffffffff1916846001600160a01b031663f23a6e6188888787876040518663ffffffff1660e01b815260040180866001600160a01b03168152602001856001600160a01b0316815260200184815260200183815260200180602001828103825283818151815260200191508051906020019080838360005b83811015611260578181015183820152602001611248565b50505050905090810190601f16801561128d5780820380516001836020036101000a031916815260200191505b509650505050505050602060405180830381600087803b1580156112b057600080fd5b505af11580156112c4573d6000803e3d6000fd5b505050506040513d60208110156112da57600080fd5b50517fffffffff000000000000000000000000000000000000000000000000000000001614610ea45760405162461bcd60e51b81526004018080602001828103825260398152602001806114796039913960400191505060405180910390fd5b3b15159056fe455243313135353a2062616c616e636520717565727920666f7220746865207a65726f206164647265737364657374696e6174696f6e2061646472657373206d757374206265206e6f6e2d7a65726f2e4e656564206f70657261746f7220617070726f76616c20666f7220337264207061727479207472616e73666572732e636f6e74726163742072657475726e656420616e20756e6b6e6f776e2076616c75652066726f6d206f6e45524331313535426174636852656365697665645f69647320616e64205f76616c756573206172726179206c656e677468206d757374206d617463682e455243313135353a2073657474696e6720617070726f76616c2073746174757320666f722073656c66455243313135353a206163636f756e747320616e6420696473206c656e677468206d69736d61746368636f6e74726163742072657475726e656420616e20756e6b6e6f776e2076616c75652066726f6d206f6e455243313135355265636569766564a264697066735822122043d6155f08ba10bf713a6b47825981f803b8716ae7ff4966435e8c70088de8df64736f6c63430007060033",
  "linkReferences": {},
  "deployedLinkReferences": {}
}