{
  "_format": "hh-sol-artifact-1",
  "contractName": "InterestToken",
  "sourceName": "contracts/iq/InterestToken.sol",
  "abi": [
    {
      "anonymous": false,
      "inputs": [
        {
          "indexed": true,
          "internalType": "address",
          "name": "_owner",
          "type": "address"
        },
        {
          "indexed": true,
          "internalType": "address",
          "name": "_operator",
          "type": "address"
        },
        {
          "indexed": false,
          "internalType": "bool",
          "name": "_approved",
          "type": "bool"
        }
      ],
      "name": "ApprovalForAll",
      "type": "event"
    },
    {
      "anonymous": false,
      "inputs": [
        {
          "indexed": true,
          "internalType": "address",
          "name": "_operator",
          "type": "address"
        },
        {
          "indexed": true,
          "internalType": "address",
          "name": "_from",
          "type": "address"
        },
        {
          "indexed": true,
          "internalType": "address",
          "name": "_to",
          "type": "address"
        },
        {
          "indexed": false,
          "internalType": "uint256[]",
          "name": "_ids",
          "type": "uint256[]"
        },
        {
          "indexed": false,
          "internalType": "uint256[]",
          "name": "_values",
          "type": "uint256[]"
        }
      ],
      "name": "TransferBatch",
      "type": "event"
    },
    {
      "anonymous": false,
      "inputs": [
        {
          "indexed": true,
          "internalType": "address",
          "name": "_operator",
          "type": "address"
        },
        {
          "indexed": true,
          "internalType": "address",
          "name": "_from",
          "type": "address"
        },
        {
          "indexed": true,
          "internalType": "address",
          "name": "_to",
          "type": "address"
        },
        {
          "indexed": false,
          "internalType": "uint256",
          "name": "_id",
          "type": "uint256"
        },
        {
          "indexed": false,
          "internalType": "uint256",
          "name": "_value",
          "type": "uint256"
        }
      ],
      "name": "TransferSingle",
      "type": "event"
    },
    {
      "anonymous": false,
      "inputs": [
        {
          "indexed": false,
          "internalType": "string",
          "name": "_value",
          "type": "string"
        },
        {
          "indexed": true,
          "internalType": "uint256",
          "name": "_id",
          "type": "uint256"
        }
      ],
      "name": "URI",
      "type": "event"
    },
    {
      "inputs": [
        {
          "internalType": "address",
          "name": "account",
          "type": "address"
        },
        {
          "internalType": "uint256",
          "name": "id",
          "type": "uint256"
        }
      ],
      "name": "balanceOf",
      "outputs": [
        {
          "internalType": "uint256",
          "name": "",
          "type": "uint256"
        }
      ],
      "stateMutability": "view",
      "type": "function"
    },
    {
      "inputs": [
        {
          "internalType": "address[]",
          "name": "accounts",
          "type": "address[]"
        },
        {
          "internalType": "uint256[]",
          "name": "ids",
          "type": "uint256[]"
        }
      ],
      "name": "balanceOfBatch",
      "outputs": [
        {
          "internalType": "uint256[]",
          "name": "",
          "type": "uint256[]"
        }
      ],
      "stateMutability": "view",
      "type": "function"
    },
    {
      "inputs": [],
      "name": "enterprise",
      "outputs": [
        {
          "internalType": "contract IEnterprise",
          "name": "",
          "type": "address"
        }
      ],
      "stateMutability": "view",
      "type": "function"
    },
    {
      "inputs": [],
      "name": "getRate",
      "outputs": [
        {
          "internalType": "uint256",
          "name": "",
          "type": "uint256"
        }
      ],
      "stateMutability": "view",
      "type": "function"
    },
    {
      "inputs": [
        {
          "internalType": "address",
          "name": "_enterprise",
          "type": "address"
        },
        {
          "internalType": "string",
          "name": "_name",
          "type": "string"
        },
        {
          "internalType": "string",
          "name": "_symbol",
          "type": "string"
        },
        {
          "internalType": "string",
          "name": "_baseUri",
          "type": "string"
        }
      ],
      "name": "initialize",
      "outputs": [],
      "stateMutability": "nonpayable",
      "type": "function"
    },
    {
      "inputs": [
        {
          "internalType": "address",
          "name": "account",
          "type": "address"
        },
        {
          "internalType": "address",
          "name": "operator",
          "type": "address"
        }
      ],
      "name": "isApprovedForAll",
      "outputs": [
        {
          "internalType": "bool",
          "name": "",
          "type": "bool"
        }
      ],
      "stateMutability": "view",
      "type": "function"
    },
    {
      "inputs": [
        {
          "internalType": "address",
          "name": "_to",
          "type": "address"
        },
        {
          "internalType": "uint256",
          "name": "_id",
          "type": "uint256"
        },
        {
          "internalType": "uint256",
          "name": "_amount",
          "type": "uint256"
        }
      ],
      "name": "lend",
      "outputs": [],
      "stateMutability": "nonpayable",
      "type": "function"
    },
    {
      "inputs": [
        {
          "internalType": "address",
          "name": "_to",
          "type": "address"
        },
        {
          "internalType": "uint256",
          "name": "_id",
          "type": "uint256"
        },
        {
          "internalType": "uint256",
          "name": "_amount",
          "type": "uint256"
        }
      ],
      "name": "mint",
      "outputs": [],
      "stateMutability": "nonpayable",
      "type": "function"
    },
    {
      "inputs": [],
      "name": "name",
      "outputs": [
        {
          "internalType": "string",
          "name": "",
          "type": "string"
        }
      ],
      "stateMutability": "view",
      "type": "function"
    },
    {
      "inputs": [],
      "name": "owner",
      "outputs": [
        {
          "internalType": "address",
          "name": "",
          "type": "address"
        }
      ],
      "stateMutability": "view",
      "type": "function"
    },
    {
      "inputs": [
        {
          "internalType": "address",
          "name": "_from",
          "type": "address"
        },
        {
          "internalType": "address",
          "name": "_to",
          "type": "address"
        },
        {
          "internalType": "uint256[]",
          "name": "_ids",
          "type": "uint256[]"
        },
        {
          "internalType": "uint256[]",
          "name": "_values",
          "type": "uint256[]"
        },
        {
          "internalType": "bytes",
          "name": "_data",
          "type": "bytes"
        }
      ],
      "name": "safeBatchTransferFrom",
      "outputs": [],
      "stateMutability": "nonpayable",
      "type": "function"
    },
    {
      "inputs": [
        {
          "internalType": "address",
          "name": "_from",
          "type": "address"
        },
        {
          "internalType": "address",
          "name": "_to",
          "type": "address"
        },
        {
          "internalType": "uint256",
          "name": "_id",
          "type": "uint256"
        },
        {
          "internalType": "uint256",
          "name": "_value",
          "type": "uint256"
        },
        {
          "internalType": "bytes",
          "name": "_data",
          "type": "bytes"
        }
      ],
      "name": "safeTransferFrom",
      "outputs": [],
      "stateMutability": "nonpayable",
      "type": "function"
    },
    {
      "inputs": [
        {
          "internalType": "address",
          "name": "operator",
          "type": "address"
        },
        {
          "internalType": "bool",
          "name": "approved",
          "type": "bool"
        }
      ],
      "name": "setApprovalForAll",
      "outputs": [],
      "stateMutability": "nonpayable",
      "type": "function"
    },
    {
      "inputs": [],
      "name": "symbol",
      "outputs": [
        {
          "internalType": "string",
          "name": "",
          "type": "string"
        }
      ],
      "stateMutability": "view",
      "type": "function"
    },
    {
      "inputs": [
        {
          "internalType": "uint256",
          "name": "",
          "type": "uint256"
        }
      ],
      "name": "uri",
      "outputs": [
        {
          "internalType": "string",
          "name": "",
          "type": "string"
        }
      ],
      "stateMutability": "view",
      "type": "function"
    }
  ],
  "bytecode": "0x608060405234801561001057600080fd5b50611852806100206000396000f3fe608060405234801561001057600080fd5b50600436106100f45760003560e01c8063679aefce1161009757806395d89b411161006657806395d89b41146106d3578063a22cb465146106db578063e985e9c514610709578063f242432a1461074b576100f4565b8063679aefce1461066d5780637082d203146106755780638da5cb5b146106a75780639478a8c0146106cb576100f4565b8063156e29f6116100d3578063156e29f6146101d15780632eb2c2d6146102055780634e1273f4146103325780635f1e6f6d146104a9576100f4565b8062fdd58e146100f957806306fdde03146101375780630e89341c146101b4575b600080fd5b6101256004803603604081101561010f57600080fd5b506001600160a01b0381351690602001356107e0565b60408051918252519081900360200190f35b61013f61084f565b6040805160208082528351818301528351919283929083019185019080838360005b83811015610179578181015183820152602001610161565b50505050905090810190601f1680156101a65780820380516001836020036101000a031916815260200191505b509250505060405180910390f35b61013f600480360360208110156101ca57600080fd5b50356108dd565b610203600480360360608110156101e757600080fd5b506001600160a01b038135169060208101359060400135610972565b005b610203600480360360a081101561021b57600080fd5b6001600160a01b03823581169260208101359091169181019060608101604082013564010000000081111561024f57600080fd5b82018360208201111561026157600080fd5b8035906020019184602083028401116401000000008311171561028357600080fd5b9193909290916020810190356401000000008111156102a157600080fd5b8201836020820111156102b357600080fd5b803590602001918460208302840111640100000000831117156102d557600080fd5b9193909290916020810190356401000000008111156102f357600080fd5b82018360208201111561030557600080fd5b8035906020019184600183028401116401000000008311171561032757600080fd5b5090925090506109a2565b6104596004803603604081101561034857600080fd5b81019060208101813564010000000081111561036357600080fd5b82018360208201111561037557600080fd5b8035906020019184602083028401116401000000008311171561039757600080fd5b91908080602002602001604051908101604052809392919081815260200183836020028082843760009201919091525092959493602081019350359150506401000000008111156103e757600080fd5b8201836020820111156103f957600080fd5b8035906020019184602083028401116401000000008311171561041b57600080fd5b919080806020026020016040519081016040528093929190818152602001838360200280828437600092019190915250929550610c42945050505050565b60408051602080825283518183015283519192839290830191858101910280838360005b8381101561049557818101518382015260200161047d565b505050509050019250505060405180910390f35b610203600480360360808110156104bf57600080fd5b6001600160a01b0382351691908101906040810160208201356401000000008111156104ea57600080fd5b8201836020820111156104fc57600080fd5b8035906020019184600183028401116401000000008311171561051e57600080fd5b91908080601f016020809104026020016040519081016040528093929190818152602001838380828437600092019190915250929594936020810193503591505064010000000081111561057157600080fd5b82018360208201111561058357600080fd5b803590602001918460018302840111640100000000831117156105a557600080fd5b91908080601f01602080910402602001604051908101604052809392919081815260200183838082843760009201919091525092959493602081019350359150506401000000008111156105f857600080fd5b82018360208201111561060a57600080fd5b8035906020019184600183028401116401000000008311171561062c57600080fd5b91908080601f016020809104026020016040519081016040528093929190818152602001838380828437600092019190915250929550610d2e945050505050565b610125610d67565b6102036004803603606081101561068b57600080fd5b506001600160a01b03813516906020810135906040013561099d565b6106af610d6c565b604080516001600160a01b039092168252519081900360200190f35b6106af610d7b565b61013f610d8a565b610203600480360360408110156106f157600080fd5b506001600160a01b0381351690602001351515610de4565b6107376004803603604081101561071f57600080fd5b506001600160a01b0381358116916020013516610e9a565b604080519115158252519081900360200190f35b610203600480360360a081101561076157600080fd5b6001600160a01b03823581169260208101359091169160408201359160608101359181019060a0810160808201356401000000008111156107a157600080fd5b8201836020820111156107b357600080fd5b803590602001918460018302840111640100000000831117156107d557600080fd5b509092509050610ec8565b60006001600160a01b0383166108275760405162461bcd60e51b815260040180806020018281038252602b8152602001806116ac602b913960400191505060405180910390fd5b5060009081526004602090815260408083206001600160a01b03949094168352929052205490565b6000805460408051602060026001851615610100026000190190941693909304601f810184900484028201840190925281815292918301828280156108d55780601f106108aa576101008083540402835291602001916108d5565b820191906000526020600020905b8154815290600101906020018083116108b857829003601f168201915b505050505081565b60028054604080516020601f60001961010060018716150201909416859004938401819004810282018101909252828152606093909290918301828280156109665780601f1061093b57610100808354040283529160200191610966565b820191906000526020600020905b81548152906001019060200180831161094957829003601f168201915b50505050509050919050565b61099d8383836dffffffffffffffffffffffffffff16604051806020016040528060008152506110b4565b505050565b6001600160a01b0387166109e75760405162461bcd60e51b81526004018080602001828103825260258152602001806116d76025913960400191505060405180910390fd5b848314610a255760405162461bcd60e51b81526004018080602001828103825260298152602001806117696029913960400191505060405180910390fd5b6001600160a01b038816331480610a6457506001600160a01b038816600090815260056020908152604080832033845290915290205460ff1615156001145b610a9f5760405162461bcd60e51b815260040180806020018281038252602f8152602001806116fc602f913960400191505060405180910390fd5b60005b85811015610ae257610ada8989898985818110610abb57fe5b90506020020135888886818110610ace57fe5b90506020020135611135565b600101610aa2565b50866001600160a01b0316886001600160a01b0316336001600160a01b03167f4a39dc06d4c0dbc64b70af90fd698a233a518aa5d07e595d983b8c0526c8f7fb898989896040518080602001806020018381038352878782818152602001925060200280828437600083820152601f01601f19169091018481038352858152602090810191508690860280828437600083820152604051601f909101601f19169092018290039850909650505050505050a4610c3833898989898080602002602001604051908101604052809392919081815260200183836020028082843760009201919091525050604080516020808d0282810182019093528c82529093508c92508b91829185019084908082843760009201919091525050604080516020601f8c018190048102820181019092528a815292508a915089908190840183828082843760009201919091525061117c92505050565b5050505050505050565b60608151835114610c845760405162461bcd60e51b81526004018080602001828103825260298152602001806117bb6029913960400191505060405180910390fd5b6000835167ffffffffffffffff81118015610c9e57600080fd5b50604051908082528060200260200182016040528015610cc8578160200160208202803683370190505b50905060005b8451811015610d2657610d07858281518110610ce657fe5b6020026020010151858381518110610cfa57fe5b60200260200101516107e0565b828281518110610d1357fe5b6020908102919091010152600101610cce565b509392505050565b6006805473ffffffffffffffffffffffffffffffffffffffff19166001600160a01b038616179055610d6183838361139a565b50505050565b600090565b6003546001600160a01b031681565b6006546001600160a01b031681565b60018054604080516020600284861615610100026000190190941693909304601f810184900484028201840190925281815292918301828280156108d55780601f106108aa576101008083540402835291602001916108d5565b336001600160a01b0383161415610e2c5760405162461bcd60e51b81526004018080602001828103825260298152602001806117926029913960400191505060405180910390fd5b3360008181526005602090815260408083206001600160a01b03871680855290835292819020805460ff1916861515908117909155815190815290519293927f17307eab39ab6107e8899845ad3d59bd9653f200f220920489ca2b5937696c31929181900390910190a35050565b6001600160a01b03918216600090815260056020908152604080832093909416825291909152205460ff1690565b6dffffffffffffffffffffffffffff8310610f2a576040805162461bcd60e51b815260206004820152601360248201527f56616c7565206f7574206f6620626f756e647300000000000000000000000000604482015290519081900360640190fd5b6001600160a01b038516610f85576040805162461bcd60e51b815260206004820152601560248201527f5f746f206d757374206265206e6f6e2d7a65726f2e0000000000000000000000604482015290519081900360640190fd5b6001600160a01b038616331480610fc457506001600160a01b038616600090815260056020908152604080832033845290915290205460ff1615156001145b610fff5760405162461bcd60e51b815260040180806020018281038252602f8152602001806116fc602f913960400191505060405180910390fd5b61100b86868686611135565b846001600160a01b0316866001600160a01b0316336001600160a01b03167fc3d58168c5ae7397731d063d5bbf3d657854427343f4c083240f7aacaa2d0f628787604051808381526020018281526020019250505060405180910390a46110ac338787878787878080601f01602080910402602001604051908101604052809392919081815260200183838082843760009201919091525061146292505050565b505050505050565b6110c16000858585610d61565b60008381526004602090815260408083206001600160a01b0388168085529083528184208054870190558151878152928301869052815190939233927fc3d58168c5ae7397731d063d5bbf3d657854427343f4c083240f7aacaa2d0f6292918290030190a4610d6133600086868686611462565b61114184848484610d61565b60009182526004602090815260408084206001600160a01b039687168552909152808320805483900390559290931681522080549091019055565b61118e846001600160a01b0316611604565b156110ac5763bc197c8160e01b7bffffffffffffffffffffffffffffffffffffffffffffffffffffffff1916846001600160a01b031663bc197c8188888787876040518663ffffffff1660e01b815260040180866001600160a01b03168152602001856001600160a01b03168152602001806020018060200180602001848103845287818151815260200191508051906020019060200280838360005b8381101561124357818101518382015260200161122b565b50505050905001848103835286818151815260200191508051906020019060200280838360005b8381101561128257818101518382015260200161126a565b50505050905001848103825285818151815260200191508051906020019080838360005b838110156112be5781810151838201526020016112a6565b50505050905090810190601f1680156112eb5780820380516001836020036101000a031916815260200191505b5098505050505050505050602060405180830381600087803b15801561131057600080fd5b505af1158015611324573d6000803e3d6000fd5b505050506040513d602081101561133a57600080fd5b50517fffffffff0000000000000000000000000000000000000000000000000000000016146110ac5760405162461bcd60e51b815260040180806020018281038252603e81526020018061172b603e913960400191505060405180910390fd5b6000546002600019610100600184161502019091160415611402576040805162461bcd60e51b815260206004820152601c60248201527f436f6e747261637420616c726561647920696e697469616c697a656400000000604482015290519081900360640190fd5b825161141590600090602086019061160a565b50815161142990600190602085019061160a565b50805161143d90600290602084019061160a565b50506003805473ffffffffffffffffffffffffffffffffffffffff1916331790555050565b611474846001600160a01b0316611604565b156110ac5763f23a6e6160e01b7bffffffffffffffffffffffffffffffffffffffffffffffffffffffff1916846001600160a01b031663f23a6e6188888787876040518663ffffffff1660e01b815260040180866001600160a01b03168152602001856001600160a01b0316815260200184815260200183815260200180602001828103825283818151815260200191508051906020019080838360005b8381101561152a578181015183820152602001611512565b50505050905090810190601f1680156115575780820380516001836020036101000a031916815260200191505b509650505050505050602060405180830381600087803b15801561157a57600080fd5b505af115801561158e573d6000803e3d6000fd5b505050506040513d60208110156115a457600080fd5b50517fffffffff0000000000000000000000000000000000000000000000000000000016146110ac5760405162461bcd60e51b81526004018080602001828103825260398152602001806117e46039913960400191505060405180910390fd5b3b151590565b828054600181600116156101000203166002900490600052602060002090601f0160209004810192826116405760008555611686565b82601f1061165957805160ff1916838001178555611686565b82800160010185558215611686579182015b8281111561168657825182559160200191906001019061166b565b50611692929150611696565b5090565b5b80821115611692576000815560010161169756fe455243313135353a2062616c616e636520717565727920666f7220746865207a65726f206164647265737364657374696e6174696f6e2061646472657373206d757374206265206e6f6e2d7a65726f2e4e656564206f70657261746f7220617070726f76616c20666f7220337264207061727479207472616e73666572732e636f6e74726163742072657475726e656420616e20756e6b6e6f776e2076616c75652066726f6d206f6e45524331313535426174636852656365697665645f69647320616e64205f76616c756573206172726179206c656e677468206d757374206d617463682e455243313135353a2073657474696e6720617070726f76616c2073746174757320666f722073656c66455243313135353a206163636f756e747320616e6420696473206c656e677468206d69736d61746368636f6e74726163742072657475726e656420616e20756e6b6e6f776e2076616c75652066726f6d206f6e455243313135355265636569766564a26469706673582212204e8bd741c1092219b518f12c5e23727881d8279380c1a448f475e54887e2eca664736f6c63430007060033",
  "linkReferences": {},
  "deployedLinkReferences": {}
}