{
  "_format": "hh-sol-artifact-1",
  "contractName": "Enterprise",
  "sourceName": "contracts/iq/Enterprise.sol",
  "abi": [
    {
      "anonymous": false,
      "inputs": [
        {
          "indexed": true,
          "internalType": "address",
          "name": "powerToken",
          "type": "address"
        },
        {
          "indexed": false,
          "internalType": "uint256",
          "name": "tokenId",
          "type": "uint256"
        }
      ],
      "name": "Borrowed",
      "type": "event"
    },
    {
      "anonymous": false,
      "inputs": [
        {
          "indexed": true,
          "internalType": "address",
          "name": "lender",
          "type": "address"
        },
        {
          "indexed": false,
          "internalType": "uint256",
          "name": "liquidityAmount",
          "type": "uint256"
        },
        {
          "indexed": false,
          "internalType": "uint256",
          "name": "shares",
          "type": "uint256"
        },
        {
          "indexed": false,
          "internalType": "uint256",
          "name": "tokenId",
          "type": "uint256"
        }
      ],
      "name": "Lended",
      "type": "event"
    },
    {
      "anonymous": false,
      "inputs": [
        {
          "indexed": true,
          "internalType": "address",
          "name": "previousOwner",
          "type": "address"
        },
        {
          "indexed": true,
          "internalType": "address",
          "name": "newOwner",
          "type": "address"
        }
      ],
      "name": "OwnershipTransferred",
      "type": "event"
    },
    {
      "anonymous": false,
      "inputs": [
        {
          "indexed": true,
          "internalType": "address",
          "name": "powerToken",
          "type": "address"
        },
        {
          "indexed": false,
          "internalType": "uint32",
          "name": "halfLife",
          "type": "uint32"
        },
        {
          "indexed": false,
          "internalType": "uint112",
          "name": "factor",
          "type": "uint112"
        },
        {
          "indexed": false,
          "internalType": "uint32",
          "name": "interestRateHalvingPeriod",
          "type": "uint32"
        }
      ],
      "name": "ServiceRegistered",
      "type": "event"
    },
    {
      "anonymous": false,
      "inputs": [
        {
          "indexed": true,
          "internalType": "address",
          "name": "lender",
          "type": "address"
        },
        {
          "indexed": false,
          "internalType": "uint256",
          "name": "liquidityAmount",
          "type": "uint256"
        },
        {
          "indexed": false,
          "internalType": "uint256",
          "name": "shares",
          "type": "uint256"
        },
        {
          "indexed": false,
          "internalType": "uint256",
          "name": "tokenId",
          "type": "uint256"
        }
      ],
      "name": "Withdraw",
      "type": "event"
    },
    {
      "inputs": [
        {
          "internalType": "address",
          "name": "newOwner",
          "type": "address"
        }
      ],
      "name": "addOwner",
      "outputs": [],
      "stateMutability": "nonpayable",
      "type": "function"
    },
    {
      "inputs": [
        {
          "internalType": "contract IPowerToken",
          "name": "powerToken",
          "type": "address"
        },
        {
          "internalType": "contract IERC20",
          "name": "interestPaymentToken",
          "type": "address"
        },
        {
          "internalType": "uint112",
          "name": "amount",
          "type": "uint112"
        },
        {
          "internalType": "uint256",
          "name": "maximumInterest",
          "type": "uint256"
        },
        {
          "internalType": "uint32",
          "name": "duration",
          "type": "uint32"
        }
      ],
      "name": "borrow",
      "outputs": [],
      "stateMutability": "nonpayable",
      "type": "function"
    },
    {
      "inputs": [
        {
          "internalType": "address",
          "name": "account",
          "type": "address"
        }
      ],
      "name": "collectedInterest",
      "outputs": [
        {
          "internalType": "uint112",
          "name": "",
          "type": "uint112"
        }
      ],
      "stateMutability": "view",
      "type": "function"
    },
    {
      "inputs": [
        {
          "internalType": "contract IPowerToken",
          "name": "powerToken",
          "type": "address"
        },
        {
          "internalType": "contract IERC20",
          "name": "interestPaymentToken",
          "type": "address"
        },
        {
          "internalType": "uint112",
          "name": "amount",
          "type": "uint112"
        },
        {
          "internalType": "uint32",
          "name": "duration",
          "type": "uint32"
        },
        {
          "internalType": "uint32",
          "name": "estimateAtTimestamp",
          "type": "uint32"
        }
      ],
      "name": "estimateBorrow",
      "outputs": [
        {
          "internalType": "uint112",
          "name": "result",
          "type": "uint112"
        }
      ],
      "stateMutability": "view",
      "type": "function"
    },
    {
      "inputs": [
        {
          "internalType": "uint256",
          "name": "tokenId",
          "type": "uint256"
        }
      ],
      "name": "getBorrowInfo",
      "outputs": [
        {
          "components": [
            {
              "internalType": "contract IPowerToken",
              "name": "powerToken",
              "type": "address"
            },
            {
              "internalType": "uint32",
              "name": "from",
              "type": "uint32"
            },
            {
              "internalType": "uint32",
              "name": "to",
              "type": "uint32"
            },
            {
              "internalType": "uint112",
              "name": "amount",
              "type": "uint112"
            }
          ],
          "internalType": "struct IEnterprise.BorrowInfo",
          "name": "",
          "type": "tuple"
        }
      ],
      "stateMutability": "view",
      "type": "function"
    },
    {
      "inputs": [],
      "name": "getInfo",
      "outputs": [
        {
          "internalType": "uint256",
          "name": "reserve",
          "type": "uint256"
        },
        {
          "internalType": "uint256",
          "name": "availableReserve",
          "type": "uint256"
        },
        {
          "internalType": "uint256",
          "name": "totalShares",
          "type": "uint256"
        },
        {
          "internalType": "string",
          "name": "name",
          "type": "string"
        }
      ],
      "stateMutability": "view",
      "type": "function"
    },
    {
      "inputs": [],
      "name": "getLiquidityToken",
      "outputs": [
        {
          "internalType": "contract IERC20Detailed",
          "name": "",
          "type": "address"
        }
      ],
      "stateMutability": "view",
      "type": "function"
    },
    {
      "inputs": [
        {
          "internalType": "uint256",
          "name": "index",
          "type": "uint256"
        }
      ],
      "name": "getPowerToken",
      "outputs": [
        {
          "internalType": "contract IPowerToken",
          "name": "",
          "type": "address"
        }
      ],
      "stateMutability": "view",
      "type": "function"
    },
    {
      "inputs": [],
      "name": "getPowerTokens",
      "outputs": [
        {
          "internalType": "contract IPowerToken[]",
          "name": "",
          "type": "address[]"
        }
      ],
      "stateMutability": "view",
      "type": "function"
    },
    {
      "inputs": [],
      "name": "getPowerTokensInfo",
      "outputs": [
        {
          "internalType": "address[]",
          "name": "addresses",
          "type": "address[]"
        },
        {
          "internalType": "string[]",
          "name": "names",
          "type": "string[]"
        },
        {
          "internalType": "string[]",
          "name": "symbols",
          "type": "string[]"
        },
        {
          "internalType": "uint32[]",
          "name": "halfLifes",
          "type": "uint32[]"
        }
      ],
      "stateMutability": "view",
      "type": "function"
    },
    {
      "inputs": [],
      "name": "iToken",
      "outputs": [
        {
          "internalType": "contract IInterestToken",
          "name": "",
          "type": "address"
        }
      ],
      "stateMutability": "view",
      "type": "function"
    },
    {
      "inputs": [
        {
          "internalType": "string",
          "name": "enterpriseName",
          "type": "string"
        },
        {
          "internalType": "address",
          "name": "liquidityToken",
          "type": "address"
        },
        {
          "internalType": "string",
          "name": "baseUri",
          "type": "string"
        },
        {
          "internalType": "address",
          "name": "interestTokenImpl",
          "type": "address"
        },
        {
          "internalType": "address",
          "name": "borrowTokenImpl",
          "type": "address"
        },
        {
          "internalType": "address",
          "name": "powerTokenImpl",
          "type": "address"
        },
        {
          "internalType": "address",
          "name": "owner",
          "type": "address"
        }
      ],
      "name": "initialize",
      "outputs": [],
      "stateMutability": "nonpayable",
      "type": "function"
    },
    {
      "inputs": [
        {
          "internalType": "address",
          "name": "initialOwner",
          "type": "address"
        }
      ],
      "name": "initialize",
      "outputs": [],
      "stateMutability": "nonpayable",
      "type": "function"
    },
    {
      "inputs": [
        {
          "internalType": "address",
          "name": "account",
          "type": "address"
        }
      ],
      "name": "isOwner",
      "outputs": [
        {
          "internalType": "bool",
          "name": "",
          "type": "bool"
        }
      ],
      "stateMutability": "view",
      "type": "function"
    },
    {
      "inputs": [
        {
          "internalType": "uint256",
          "name": "liquidityAmount",
          "type": "uint256"
        },
        {
          "internalType": "uint32",
          "name": "halfWithdrawPeriod",
          "type": "uint32"
        }
      ],
      "name": "lend",
      "outputs": [],
      "stateMutability": "nonpayable",
      "type": "function"
    },
    {
      "inputs": [
        {
          "internalType": "string",
          "name": "serviceName",
          "type": "string"
        },
        {
          "internalType": "string",
          "name": "symbol",
          "type": "string"
        },
        {
          "internalType": "uint32",
          "name": "halfLife",
          "type": "uint32"
        },
        {
          "internalType": "uint112",
          "name": "factor",
          "type": "uint112"
        },
        {
          "internalType": "uint32",
          "name": "interestRateHalvingPeriod",
          "type": "uint32"
        },
        {
          "internalType": "uint32[]",
          "name": "allowedLoanDurations",
          "type": "uint32[]"
        }
      ],
      "name": "registerService",
      "outputs": [],
      "stateMutability": "nonpayable",
      "type": "function"
    },
    {
      "inputs": [],
      "name": "renounceOwnership",
      "outputs": [],
      "stateMutability": "nonpayable",
      "type": "function"
    },
    {
      "inputs": [
        {
          "internalType": "uint256",
          "name": "tokenId",
          "type": "uint256"
        }
      ],
      "name": "returnBorrowed",
      "outputs": [],
      "stateMutability": "nonpayable",
      "type": "function"
    },
    {
      "inputs": [
        {
          "internalType": "address",
          "name": "token",
          "type": "address"
        },
        {
          "internalType": "uint32",
          "name": "duration",
          "type": "uint32"
        }
      ],
      "name": "states",
      "outputs": [
        {
          "components": [
            {
              "internalType": "uint112",
              "name": "plannedBalance",
              "type": "uint112"
            },
            {
              "internalType": "uint32",
              "name": "timestamp",
              "type": "uint32"
            }
          ],
          "internalType": "struct Enterprise.State",
          "name": "",
          "type": "tuple"
        }
      ],
      "stateMutability": "view",
      "type": "function"
    },
    {
      "inputs": [
        {
          "internalType": "uint256",
          "name": "index",
          "type": "uint256"
        }
      ],
      "name": "supportedInterestTokens",
      "outputs": [
        {
          "internalType": "address",
          "name": "",
          "type": "address"
        }
      ],
      "stateMutability": "view",
      "type": "function"
    },
    {
      "inputs": [
        {
          "internalType": "address",
          "name": "token",
          "type": "address"
        }
      ],
      "name": "supportedInterestTokensIndex",
      "outputs": [
        {
          "internalType": "int16",
          "name": "",
          "type": "int16"
        }
      ],
      "stateMutability": "view",
      "type": "function"
    },
    {
      "inputs": [
        {
          "internalType": "address",
          "name": "currentOwner",
          "type": "address"
        },
        {
          "internalType": "address",
          "name": "newOwner",
          "type": "address"
        }
      ],
      "name": "transferOwnership",
      "outputs": [],
      "stateMutability": "nonpayable",
      "type": "function"
    },
    {
      "inputs": [
        {
          "internalType": "contract IPowerToken",
          "name": "token",
          "type": "address"
        },
        {
          "internalType": "uint256",
          "name": "amount",
          "type": "uint256"
        }
      ],
      "name": "unwrap",
      "outputs": [
        {
          "internalType": "bool",
          "name": "",
          "type": "bool"
        }
      ],
      "stateMutability": "nonpayable",
      "type": "function"
    },
    {
      "inputs": [
        {
          "internalType": "uint256",
          "name": "sharesAmount",
          "type": "uint256"
        },
        {
          "internalType": "uint256",
          "name": "tokenId",
          "type": "uint256"
        },
        {
          "internalType": "address",
          "name": "interestToken",
          "type": "address"
        }
      ],
      "name": "withdrawLiquidity",
      "outputs": [],
      "stateMutability": "nonpayable",
      "type": "function"
    },
    {
      "inputs": [
        {
          "internalType": "contract IPowerToken",
          "name": "token",
          "type": "address"
        },
        {
          "internalType": "uint256",
          "name": "amount",
          "type": "uint256"
        }
      ],
      "name": "wrap",
      "outputs": [
        {
          "internalType": "bool",
          "name": "",
          "type": "bool"
        }
      ],
      "stateMutability": "nonpayable",
      "type": "function"
    },
    {
      "inputs": [
        {
          "internalType": "contract IPowerToken",
          "name": "token",
          "type": "address"
        },
        {
          "internalType": "address",
          "name": "to",
          "type": "address"
        },
        {
          "internalType": "uint256",
          "name": "amount",
          "type": "uint256"
        }
      ],
      "name": "wrapTo",
      "outputs": [
        {
          "internalType": "bool",
          "name": "",
          "type": "bool"
        }
      ],
      "stateMutability": "nonpayable",
      "type": "function"
    }
  ],
  "bytecode": "0x608060405234801561001057600080fd5b50613a0f806100206000396000f3fe608060405234801561001057600080fd5b50600436106101ae5760003560e01c8063715018a6116100ee578063b96266fa11610097578063c4d66de811610071578063c4d66de814610399578063d3ee5e8b146103ac578063e2b17a16146103bf578063faaed4ad146103d2576101ae565b8063b96266fa1461035e578063bb5c0ba614610373578063bf376c7a14610386576101ae565b806395e17d84116100c857806395e17d841461031857806399e2946b1461032b578063a25587c21461034b576101ae565b8063715018a6146102ea5780637cf59c5d146102f25780638619344b14610305576101ae565b806339f476931161015b5780635a9b0b89116101355780635a9b0b89146102a4578063644e44df146102bc5780636d435421146102c45780637065cb48146102d7576101ae565b806339f47693146102715780633d4df89714610284578063408cfe241461029c576101ae565b806320e602131161018c57806320e602131461021c5780632f54bf6e14610231578063347297cf14610251576101ae565b806304196058146101b35780630e137368146101dc5780630e619aeb146101fc575b600080fd5b6101c66101c1366004612f1e565b6103e5565b6040516101d391906131e4565b60405180910390f35b6101ef6101ea366004612f1e565b610411565b6040516101d391906137a2565b61020f61020a366004612ab3565b61047f565b6040516101d39190613816565b61022f61022a366004612d17565b6104a3565b005b61024461023f366004612ab3565b6107ce565b6040516101d3919061332c565b61026461025f366004612b23565b6107ec565b6040516101d391906137f0565b61024461027f366004612c79565b61084a565b61028c6108e9565b6040516101d39493929190613260565b6101c6610c3b565b6102ac610c4a565b6040516101d39493929190613849565b6101c6610d06565b61022f6102d2366004612aeb565b610d15565b61022f6102e5366004612ab3565b610e98565b61022f610fa9565b61022f610300366004612dd9565b61105f565b6101c6610313366004612f1e565b611322565b61022f610326366004612f4e565b611331565b61033e610339366004612ab3565b6114c5565b6040516101d3919061337f565b61022f610359366004612f86565b6114e3565b6103666115fd565b6040516101d391906132df565b61020f610381366004612c17565b61165f565b610244610394366004612c79565b61190b565b61022f6103a7366004612ab3565b611992565b61022f6103ba366004612f1e565b611a23565b61022f6103cd366004612bb0565b611c27565b6102446103e0366004612b70565b612009565b6000600e82815481106103f457fe5b6000918252602090912001546001600160a01b031690505b919050565b610419612983565b506000908152600d6020908152604091829020825160808101845281546001600160a01b038116825263ffffffff600160a01b8204811694830194909452600160c01b9004909216928201929092526001909101546001600160701b0316606082015290565b6001600160a01b03166000908152600f60205260409020546001600160701b031690565b6002546001600160a01b0316156104d55760405162461bcd60e51b81526004016104cc906136fd565b60405180910390fd5b6001600160a01b0386166104fb5760405162461bcd60e51b81526004016104cc9061368f565b61050481611992565b600280546001600160a01b0319166001600160a01b03881617905586516105329060099060208a01906129aa565b5061053c86612093565b600254604080516395d89b4160e01b815290516000926001600160a01b0316916395d89b419160048083019286929190829003018186803b15801561058057600080fd5b505afa158015610594573d6000803e3d6000fd5b505050506040513d6000823e601f3d908101601f191682016040526105bc9190810190612ca4565b90506000816040516020016105d191906130dd565b60405160208183030381529060405290506000826040516020016105f591906131ac565b6040516020818303038152906040529050610618876001600160a01b031661218d565b600380546001600160a01b0319166001600160a01b0392831617908190556040517f4cd88b76000000000000000000000000000000000000000000000000000000008152911690634cd88b7690610675908590859060040161338d565b600060405180830381600087803b15801561068f57600080fd5b505af11580156106a3573d6000803e3d6000fd5b505050506000836040516020016106ba9190613122565b60405160208183030381529060405290506000846040516020016106de9190613167565b6040516020818303038152906040529050610701886001600160a01b031661218d565b600460006101000a8154816001600160a01b0302191690836001600160a01b03160217905550600460009054906101000a90046001600160a01b03166001600160a01b0316635f1e6f6d3084848e6040518563ffffffff1660e01b815260040161076e9493929190613337565b600060405180830381600087803b15801561078857600080fd5b505af115801561079c573d6000803e3d6000fd5b5050600580546001600160a01b0319166001600160a01b039a909a169990991790985550505050505050505050505050565b6001600160a01b031660009081526020819052604090205460ff1690565b6107f4612a36565b506001600160a01b0382166000908152600a6020908152604080832063ffffffff8086168552908352928190208151808301909252546001600160701b0381168252600160701b90049092169082015292915050565b6040517f404d61110000000000000000000000000000000000000000000000000000000081526000906001600160a01b0384169063404d6111906108969033908690869060040161323d565b600060405180830381600087803b1580156108b057600080fd5b505af11580156108c4573d6000803e3d6000fd5b50506002546108e092506001600160a01b031690503384612248565b50600192915050565b600e546060908190819081908067ffffffffffffffff8111801561090c57600080fd5b50604051908082528060200260200182016040528015610936578160200160208202803683370190505b5094508067ffffffffffffffff8111801561095057600080fd5b5060405190808252806020026020018201604052801561098457816020015b606081526020019060019003908161096f5790505b5093508067ffffffffffffffff8111801561099e57600080fd5b506040519080825280602002602001820160405280156109d257816020015b60608152602001906001900390816109bd5790505b5092508067ffffffffffffffff811180156109ec57600080fd5b50604051908082528060200260200182016040528015610a16578160200160208202803683370190505b50915060005b81811015610c33576000600e8281548110610a3357fe5b9060005260206000200160009054906101000a90046001600160a01b0316905080878381518110610a6057fe5b60200260200101906001600160a01b031690816001600160a01b031681525050806001600160a01b03166306fdde036040518163ffffffff1660e01b815260040160006040518083038186803b158015610ab957600080fd5b505afa158015610acd573d6000803e3d6000fd5b505050506040513d6000823e601f3d908101601f19168201604052610af59190810190612ca4565b868381518110610b0157fe5b6020026020010181905250806001600160a01b03166395d89b416040518163ffffffff1660e01b815260040160006040518083038186803b158015610b4557600080fd5b505afa158015610b59573d6000803e3d6000fd5b505050506040513d6000823e601f3d908101601f19168201604052610b819190810190612ca4565b858381518110610b8d57fe5b6020026020010181905250806001600160a01b0316637983a29d6040518163ffffffff1660e01b815260040160206040518083038186803b158015610bd157600080fd5b505afa158015610be5573d6000803e3d6000fd5b505050506040513d601f19601f82011682018060405250810190610c099190612faa565b848381518110610c1557fe5b63ffffffff9092166020928302919091019091015250600101610a1c565b505090919293565b6003546001600160a01b031690565b600080600060606006546007546008546009808054600181600116156101000203166002900480601f016020809104026020016040519081016040528092919081815260200182805460018160011615610100020316600290048015610cf15780601f10610cc657610100808354040283529160200191610cf1565b820191906000526020600020905b815481529060010190602001808311610cd457829003601f168201915b50505050509050935093509350935090919293565b6002546001600160a01b031690565b3360009081526020819052604090205460ff161515600114610d7e576040805162461bcd60e51b815260206004820181905260248201527f4f776e61626c653a2063616c6c6572206973206e6f7420746865206f776e6572604482015290519081900360640190fd5b6001600160a01b038116610dc35760405162461bcd60e51b81526004018080602001828103825260268152602001806139616026913960400191505060405180910390fd5b610dcc826107ce565b610e1d576040805162461bcd60e51b815260206004820152600c60248201527f4e6f7420616e206f776e65720000000000000000000000000000000000000000604482015290519081900360640190fd5b806001600160a01b0316826001600160a01b03167f8be0079c531659141344cd1fd0a4f28419497f9722a3daafe3b4186f6b6457e060405160405180910390a36001600160a01b03918216600090815260208190526040808220805460ff199081169091559290931681529190912080549091166001179055565b3360009081526020819052604090205460ff161515600114610f01576040805162461bcd60e51b815260206004820181905260248201527f4f776e61626c653a2063616c6c6572206973206e6f7420746865206f776e6572604482015290519081900360640190fd5b6001600160a01b038116610f465760405162461bcd60e51b81526004018080602001828103825260268152602001806139616026913960400191505060405180910390fd5b6040516001600160a01b038216906000907f8be0079c531659141344cd1fd0a4f28419497f9722a3daafe3b4186f6b6457e0908290a36001600160a01b03166000908152602081905260409020805460ff19166001908117909155805481019055565b3360009081526020819052604090205460ff161515600114611012576040805162461bcd60e51b815260206004820181905260248201527f4f776e61626c653a2063616c6c6572206973206e6f7420746865206f776e6572604482015290519081900360640190fd5b6001805460001901905533600081815260208190526040808220805460ff19169055519091907f8be0079c531659141344cd1fd0a4f28419497f9722a3daafe3b4186f6b6457e0908390a3565b3360009081526020819052604090205460ff1615156001146110c8576040805162461bcd60e51b815260206004820181905260248201527f4f776e61626c653a2063616c6c6572206973206e6f7420746865206f776e6572604482015290519081900360640190fd5b600254604080516395d89b4160e01b815290516000926001600160a01b0316916395d89b419160048083019286929190829003018186803b15801561110c57600080fd5b505afa158015611120573d6000803e3d6000fd5b505050506040513d6000823e601f3d908101601f191682016040526111489190810190612ca4565b90506000818760405160200161115f929190613085565b60408051601f1981840301815291905260055490915060009061118a906001600160a01b031661218d565b6040517ff69449e20000000000000000000000000000000000000000000000000000000081529091506001600160a01b0382169063f69449e2906111de908c9086908c908a908d908d9030906004016133b2565b600060405180830381600087803b1580156111f857600080fd5b505af115801561120c573d6000803e3d6000fd5b5050600480546040517f7065cb480000000000000000000000000000000000000000000000000000000081526001600160a01b038087169550637065cb48945061125993921691016131e4565b600060405180830381600087803b15801561127357600080fd5b505af1158015611287573d6000803e3d6000fd5b5050600e80546001810182556000919091527fbb7b4a454dc3493923482f07822329ed19e8244eff582cc204f8554c3620c3fd0180546001600160a01b0319166001600160a01b0385169081179091556040519092507f9a57b384ed8b33098a5a53cb7b380bc8d9aebeecdabb44f362a2d91d8ce7aed7915061130f908a908a908a90613889565b60405180910390a2505050505050505050565b6000600c82815481106103f457fe5b6003546040517f70a082310000000000000000000000000000000000000000000000000000000081526000916001600160a01b0316906370a082319061137b9033906004016131e4565b60206040518083038186803b15801561139357600080fd5b505afa1580156113a7573d6000803e3d6000fd5b505050506040513d601f19601f820116820180604052508101906113cb9190612f36565b9050838110156113ed5760405162461bcd60e51b81526004016104cc9061350a565b6000600854856113fb6122cd565b028161140357fe5b60025491900491506001600160a01b038481169116146114355760405162461bcd60e51b81526004016104cc9061349c565b6007548111156114575760405162461bcd60e51b81526004016104cc906134d3565b60025461146e906001600160a01b03163383612248565b60068054829003905560078054829003905560405133907f02f25270a4d87bea75db541cdfe559334a275b4a233520ed6c0a2429667cca94906114b690849089908990613833565b60405180910390a25050505050565b6001600160a01b03166000908152600b602052604090205460010b90565b6002546114fb906001600160a01b0316333085612344565b6006805483019055600780548301905560006115156122cd565b905060006008546000141561152b57508261153c565b8184600854028161153857fe5b0490505b6003546040517f40c10f1900000000000000000000000000000000000000000000000000000000815263ffffffff8516916001600160a01b0316906340c10f199061158d9033908690600401613224565b600060405180830381600087803b1580156115a757600080fd5b505af11580156115bb573d6000803e3d6000fd5b50506008805485019055505060405133907f560c6ea1ac218037d9e5136609be27ce891f0cca27a074c47e4304f809f62f5e906114b690889086908690613833565b6060600e80548060200260200160405190810160405280929190818152602001828054801561165557602002820191906000526020600020905b81546001600160a01b03168152600190910190602001808311611637575b5050505050905090565b604051636e4d898360e01b81526000906001600160a01b03871690636e4d89839061168e908690600401613878565b60206040518083038186803b1580156116a657600080fd5b505afa1580156116ba573d6000803e3d6000fd5b505050506040513d601f19601f820116820180604052508101906116de9190612b50565b6116fa5760405162461bcd60e51b81526004016104cc9061342e565b600754846001600160701b031611156117255760405162461bcd60e51b81526004016104cc90613465565b6000606f876001600160a01b0316635184cc436040518163ffffffff1660e01b815260040160206040518083038186803b15801561176257600080fd5b505afa158015611776573d6000803e3d6000fd5b505050506040513d601f19601f8201168201806040525081019061179a9190612f02565b6001600160701b03168563ffffffff16876001600160701b03160202901c905060006118a8886001600160a01b0316633e42db136040518163ffffffff1660e01b815260040160206040518083038186803b1580156117f857600080fd5b505afa15801561180c573d6000803e3d6000fd5b505050506040513d601f19601f820116820180604052508101906118309190612faa565b838a6001600160a01b0316636d44ddab6040518163ffffffff1660e01b815260040160206040518083038186803b15801561186a57600080fd5b505afa15801561187e573d6000803e3d6000fd5b505050506040513d601f19601f820116820180604052508101906118a29190612faa565b876123d2565b90506000866001600160701b031660075403600654836001600160701b031602816118cf57fe5b04905060006001600160701b0382116118e857816118f1565b6001600160701b035b90506118fd818a612529565b9a9950505050505050505050565b600254600090611926906001600160a01b0316333085612344565b6040516334686fad60e21b81526001600160a01b0384169063d1a1beb490611957903390869060009060040161323d565b600060405180830381600087803b15801561197157600080fd5b505af1158015611985573d6000803e3d6000fd5b5060019695505050505050565b600154156119d15760405162461bcd60e51b81526004018080602001828103825260298152602001806139876029913960400191505060405180910390fd5b6001600160a01b038116600081815260208190526040808220805460ff191660019081179091558055517f8be0079c531659141344cd1fd0a4f28419497f9722a3daafe3b4186f6b6457e0908290a350565b6000818152600d6020526040902080546001600160a01b0316611a585760405162461bcd60e51b81526004016104cc90613541565b600480546040517f6352211e0000000000000000000000000000000000000000000000000000000081526000926001600160a01b0390921691636352211e91611aa39187910161382a565b60206040518083038186803b158015611abb57600080fd5b505afa158015611acf573d6000803e3d6000fd5b505050506040513d601f19601f82011682018060405250810190611af39190612acf565b825490915063ffffffff428116600160c01b90920416111580611b1e57506001600160a01b03811633145b611b3a5760405162461bcd60e51b81526004016104cc90613578565b611b4383612560565b506001820154600780546001600160701b039092169091019055600480546040517f42966c680000000000000000000000000000000000000000000000000000000081526001600160a01b03909116916342966c6891611ba59187910161382a565b600060405180830381600087803b158015611bbf57600080fd5b505af1158015611bd3573d6000803e3d6000fd5b50505060009384525050600d602052506040902080547fffffffff0000000000000000000000000000000000000000000000000000000016815560010180546dffffffffffffffffffffffffffff19169055565b6001600160a01b0384166000908152600b6020526040812054600190810b900b13611c645760405162461bcd60e51b81526004016104cc906135d5565b604051636e4d898360e01b81526001600160a01b03861690636e4d898390611c90908490600401613878565b60206040518083038186803b158015611ca857600080fd5b505afa158015611cbc573d6000803e3d6000fd5b505050506040513d601f19601f82011682018060405250810190611ce09190612b50565b611cfc5760405162461bcd60e51b81526004016104cc9061376b565b600754836001600160701b03161115611d275760405162461bcd60e51b81526004016104cc906136c6565b6000611d36868686854261165f565b905082816001600160701b03161115611d615760405162461bcd60e51b81526004016104cc90613734565b611d7f6001600160a01b03861633306001600160701b038516612344565b600780546001600160701b03868116909103908316019055600480546040517f6a6278420000000000000000000000000000000000000000000000000000000081526000926001600160a01b0390921691636a62784291611de2913391016131e4565b602060405180830381600087803b158015611dfc57600080fd5b505af1158015611e10573d6000803e3d6000fd5b505050506040513d601f19601f82011682018060405250810190611e349190612f36565b6040516334686fad60e21b81529091506001600160a01b0388169063d1a1beb490611e6890339089906001906004016131f8565b600060405180830381600087803b158015611e8257600080fd5b505af1158015611e96573d6000803e3d6000fd5b5050604080516080810182526001600160a01b038b811682524263ffffffff8181166020808601918252928b0182168587019081526001600160701b038e81166060880190815260008c8152600d90965297852096518754935192516001600160a01b03199094169616959095177fffffffffffffffff00000000ffffffffffffffffffffffffffffffffffffffff16600160a01b91841691909102177fffffffff00000000ffffffffffffffffffffffffffffffffffffffffffffffff16600160c01b91909216021783559251600190920180546dffffffffffffffffffffffffffff1916929091169190911790559150611f93905082612560565b80546001600160701b038082168601166dffffffffffffffffffffffffffff199091161781556040519091506001600160a01b038916907fac59582e5396aca512fa873a2047e7f4c80f8f55d4a06cb34a78a0187f62719f90611ff790859061382a565b60405180910390a25050505050505050565b600254600090612024906001600160a01b0316333085612344565b6040516334686fad60e21b81526001600160a01b0385169063d1a1beb490612055908690869060009060040161323d565b600060405180830381600087803b15801561206f57600080fd5b505af1158015612083573d6000803e3d6000fd5b50505050600190505b9392505050565b6001600160a01b0381166000908152600b6020526040902054600190810b900b61212d57600c8054600180820183557fdf6966c971051c3d54ec59162606531493a51404a002842f56009d7e5cf4a8c790910180546001600160a01b0319166001600160a01b03851690811790915591546000928352600b6020526040909220805461ffff191661ffff9390920b9290921617905561218a565b6001600160a01b0381166000908152600b6020526040812054600190810b900b121561218a576001600160a01b0381166000908152600b602052604081208054600181810b90930390920b61ffff1661ffff199092169190911790555b50565b60006040517f3d602d80600a3d3981f3363d3d373d3d3d363d7300000000000000000000000081528260601b60148201527f5af43d82803e903d91602b57fd5bf3000000000000000000000000000000000060288201526037816000f09150506001600160a01b03811661040c576040805162461bcd60e51b815260206004820152601660248201527f455243313136373a20637265617465206661696c656400000000000000000000604482015290519081900360640190fd5b604080516001600160a01b038416602482015260448082018490528251808303909101815260649091019091526020810180517bffffffffffffffffffffffffffffffffffffffffffffffffffffffff167fa9059cbb000000000000000000000000000000000000000000000000000000001790526122c8908490612703565b505050565b600654600c5460005b8181101561233f576000600c82815481106122ed57fe5b60009182526020808320909101546001600160a01b0316808352600f909152604090912054909150612328906001600160701b031682612529565b6001600160701b03169390930192506001016122d6565b505090565b604080516001600160a01b0380861660248301528416604482015260648082018490528251808303909101815260849091019091526020810180517bffffffffffffffffffffffffffffffffffffffffffffffffffffffff167f23b872dd000000000000000000000000000000000000000000000000000000001790526123cc908590612703565b50505050565b60008463ffffffff168263ffffffff161015612435576040805162461bcd60e51b815260206004820152600e60248201527f496e76616c696420706572696f64000000000000000000000000000000000000604482015290519081900360640190fd5b84820391508263ffffffff168263ffffffff168161244f57fe5b0463ffffffff16846001600160701b0316901c93508263ffffffff168263ffffffff168161247957fe5b06915063ffffffff8216158061249657506001600160701b038416155b156124a2575082612521565b60006001600160701b0385168163ffffffff86811690861671b17217f7d1cf79abc9e3b39803f2f6af40f302816124d557fe5b049050600160901b5b821561251a579282019280828402816124f357fe5b0493849003939250600160901b01808284028161250c57fe5b049250600160901b016124de565b5091925050505b949350505050565b6002546000906001600160a01b038381169116146125595760405162461bcd60e51b81526004016104cc90613632565b5090919050565b6000818152600d6020526040812080546001600160a01b03166125955760405162461bcd60e51b81526004016104cc90613541565b6000600c6000815481106125a557fe5b600091825260208083209091015484546001600160a01b03909116808452600a8352604080852063ffffffff600160a01b85048116600160c01b909504811694909403808516875294528420805490975090945091929161261991600160701b820416906001600160701b031684426123d2565b85546002546001600160701b039091169190910391506001600160a01b038481169116141561266457600680546001600160701b0383169081019091556007805490910190556126a3565b6001600160a01b0383166000908152600f6020526040902080546001600160701b038082168401166dffffffffffffffffffffffffffff199091161790555b84546dffffffffffffffffffffffffffff1981166001600160701b039182169290920316177fffffffffffffffffffffffffffff00000000ffffffffffffffffffffffffffff16600160701b4263ffffffff160217845550919392505050565b6000612758826040518060400160405280602081526020017f5361666545524332303a206c6f772d6c6576656c2063616c6c206661696c6564815250856001600160a01b03166127b49092919063ffffffff16565b8051909150156122c85780806020019051602081101561277757600080fd5b50516122c85760405162461bcd60e51b815260040180806020018281038252602a8152602001806139b0602a913960400191505060405180910390fd5b60606125218484600085856127c8856128d9565b612819576040805162461bcd60e51b815260206004820152601d60248201527f416464726573733a2063616c6c20746f206e6f6e2d636f6e7472616374000000604482015290519081900360640190fd5b600080866001600160a01b031685876040518082805190602001908083835b602083106128575780518252601f199092019160209182019101612838565b6001836020036101000a03801982511681845116808217855250505050505090500191505060006040518083038185875af1925050503d80600081146128b9576040519150601f19603f3d011682016040523d82523d6000602084013e6128be565b606091505b50915091506128ce8282866128df565b979650505050505050565b3b151590565b606083156128ee57508161208c565b8251156128fe5782518084602001fd5b8160405162461bcd60e51b81526004018080602001828103825283818151815260200191508051906020019080838360005b83811015612948578181015183820152602001612930565b50505050905090810190601f1680156129755780820380516001836020036101000a031916815260200191505b509250505060405180910390fd5b60408051608081018252600080825260208201819052918101829052606081019190915290565b828054600181600116156101000203166002900490600052602060002090601f0160209004810192826129e05760008555612a26565b82601f106129f957805160ff1916838001178555612a26565b82800160010185558215612a26579182015b82811115612a26578251825591602001919060010190612a0b565b50612a32929150612a4d565b5090565b604080518082019091526000808252602082015290565b5b80821115612a325760008155600101612a4e565b600082601f830112612a72578081fd5b8135612a85612a80826138d6565b6138b2565b818152846020838601011115612a99578283fd5b816020850160208301379081016020019190915292915050565b600060208284031215612ac4578081fd5b813561208c81613924565b600060208284031215612ae0578081fd5b815161208c81613924565b60008060408385031215612afd578081fd5b8235612b0881613924565b91506020830135612b1881613924565b809150509250929050565b60008060408385031215612b35578182fd5b8235612b4081613924565b91506020830135612b188161394e565b600060208284031215612b61578081fd5b8151801515811461208c578182fd5b600080600060608486031215612b84578081fd5b8335612b8f81613924565b92506020840135612b9f81613924565b929592945050506040919091013590565b600080600080600060a08688031215612bc7578081fd5b8535612bd281613924565b94506020860135612be281613924565b93506040860135612bf281613939565b9250606086013591506080860135612c098161394e565b809150509295509295909350565b600080600080600060a08688031215612c2e578081fd5b8535612c3981613924565b94506020860135612c4981613924565b93506040860135612c5981613939565b92506060860135612c698161394e565b91506080860135612c098161394e565b60008060408385031215612c8b578182fd5b8235612c9681613924565b946020939093013593505050565b600060208284031215612cb5578081fd5b815167ffffffffffffffff811115612ccb578182fd5b8201601f81018413612cdb578182fd5b8051612ce9612a80826138d6565b818152856020838501011115612cfd578384fd5b612d0e8260208301602086016138f8565b95945050505050565b600080600080600080600060e0888a031215612d31578485fd5b873567ffffffffffffffff80821115612d48578687fd5b612d548b838c01612a62565b985060208a01359150612d6682613924565b90965060408901359080821115612d7b578687fd5b50612d888a828b01612a62565b9550506060880135612d9981613924565b93506080880135612da981613924565b925060a0880135612db981613924565b915060c0880135612dc981613924565b8091505092959891949750929550565b60008060008060008060c08789031215612df1578384fd5b863567ffffffffffffffff80821115612e08578586fd5b612e148a838b01612a62565b9750602091508189013581811115612e2a578687fd5b612e368b828c01612a62565b9750506040890135612e478161394e565b95506060890135612e5781613939565b94506080890135612e678161394e565b935060a089013581811115612e7a578384fd5b8901601f81018b13612e8a578384fd5b803582811115612e9657fe5b8381029250612ea68484016138b2565b8181528481019083860185850187018f1015612ec0578788fd5b8795505b83861015612eee5780359450612ed98561394e565b84835260019590950194918601918601612ec4565b508096505050505050509295509295509295565b600060208284031215612f13578081fd5b815161208c81613939565b600060208284031215612f2f578081fd5b5035919050565b600060208284031215612f47578081fd5b5051919050565b600080600060608486031215612f62578081fd5b83359250602084013591506040840135612f7b81613924565b809150509250925092565b60008060408385031215612f98578182fd5b823591506020830135612b188161394e565b600060208284031215612fbb578081fd5b815161208c8161394e565b6000815180845260208085018081965082840281019150828601855b8581101561300c578284038952612ffa848351613059565b98850198935090840190600101612fe2565b5091979650505050505050565b6000815180845260208085019450808401835b8381101561304e57815163ffffffff168752958201959082019060010161302c565b509495945050505050565b600081518084526130718160208601602086016138f8565b601f01601f19169290920160200192915050565b600083516130978184602088016138f8565b7f200000000000000000000000000000000000000000000000000000000000000090830190815283516130d18160018401602088016138f8565b01600101949350505050565b60007f496e7465726573742042656172696e6720000000000000000000000000000000825282516131158160118501602087016138f8565b9190910160110192915050565b60007f426f72726f7720000000000000000000000000000000000000000000000000008252825161315a8160078501602087016138f8565b9190910160070192915050565b60007f62000000000000000000000000000000000000000000000000000000000000008252825161319f8160018501602087016138f8565b9190910160010192915050565b60007f69000000000000000000000000000000000000000000000000000000000000008252825161319f8160018501602087016138f8565b6001600160a01b0391909116815260200190565b6001600160a01b039390931683526001600160701b039190911660208301521515604082015260600190565b6001600160a01b03929092168252602082015260400190565b6001600160a01b0393909316835260208301919091521515604082015260600190565b6080808252855190820181905260009060209060a0840190828901845b828110156132a25781516001600160a01b03168452928401929084019060010161327d565b505050838103828501526132b68188612fc6565b91505082810360408401526132cb8186612fc6565b905082810360608401526128ce8185613019565b6020808252825182820181905260009190848201906040850190845b818110156133205783516001600160a01b0316835292840192918401916001016132fb565b50909695505050505050565b901515815260200190565b60006001600160a01b0386168252608060208301526133596080830186613059565b828103604084015261336b8186613059565b905082810360608401526128ce8185613059565b60019190910b815260200190565b6000604082526133a06040830185613059565b8281036020840152612d0e8185613059565b600060e082526133c560e083018a613059565b82810360208401526133d7818a613059565b905063ffffffff808916604085015283820360608501526133f88289613019565b92506001600160701b038716608085015280861660a085015250506001600160a01b03831660c083015298975050505050505050565b60208082526014908201527f4475726174696f6e206e6f7420616c6c6f776564000000000000000000000000604082015260600190565b6020808252601a908201527f546f6f206c6f7720617661696c61626c65207265736572766573000000000000604082015260600190565b60208082526011908201527f4e6f7420737570706f7274656420796574000000000000000000000000000000604082015260600190565b60208082526016908201527f496e73756666696369656e74206c697175696469747900000000000000000000604082015260600190565b60208082526014908201527f496e73756666696369656e742062616c616e6365000000000000000000000000604082015260600190565b6020808252600f908201527f496e76616c696420746f6b656e49640000000000000000000000000000000000604082015260600190565b60208082526028908201527f4f6e6c7920686f6c6465722063616e2072657475726e206265666f726520657860408201527f7069726174696f6e000000000000000000000000000000000000000000000000606082015260800190565b60208082526033908201527f496e746572657374207061796d656e7420746f6b656e2069732064697361626c60408201527f6564206f72206e6f7420737570706f7274656400000000000000000000000000606082015260800190565b6020808252602b908201527f4f74686572207061796d656e74206f7074696f6e7320617265206e6f7420737560408201527f70706f7274656420796574000000000000000000000000000000000000000000606082015260800190565b6020808252601f908201527f496e76616c6964206c697175696469747920746f6b656e206164647265737300604082015260600190565b60208082526015908201527f496e73756666696369656e742072657365727665730000000000000000000000604082015260600190565b6020808252601c908201527f436f6e747261637420616c726561647920696e697469616c697a656400000000604082015260600190565b60208082526013908201527f536c69707061676520697320746f6f2062696700000000000000000000000000604082015260600190565b60208082526017908201527f4475726174696f6e206973206e6f7420616c6c6f776564000000000000000000604082015260600190565b60006080820190506001600160a01b038351168252602083015163ffffffff808216602085015280604086015116604085015250506001600160701b03606084015116606083015292915050565b81516001600160701b0316815260209182015163ffffffff169181019190915260400190565b6001600160701b0391909116815260200190565b90815260200190565b9283526020830191909152604082015260600190565b60008582528460208301528360408301526080606083015261386e6080830184613059565b9695505050505050565b63ffffffff91909116815260200190565b63ffffffff93841681526001600160701b03929092166020830152909116604082015260600190565b60405181810167ffffffffffffffff811182821017156138ce57fe5b604052919050565b600067ffffffffffffffff8211156138ea57fe5b50601f01601f191660200190565b60005b838110156139135781810151838201526020016138fb565b838111156123cc5750506000910152565b6001600160a01b038116811461218a57600080fd5b6001600160701b038116811461218a57600080fd5b63ffffffff8116811461218a57600080fdfe4f776e61626c653a206e6577206f776e657220697320746865207a65726f2061646472657373496e697469616c697a61626c654f776e61626c653a20616c726561647920696e697469616c697a65645361666545524332303a204552433230206f7065726174696f6e20646964206e6f742073756363656564a26469706673582212208fc8adc4d2a7f942b11db66110e5d17e0b0a35e174d4716877feebe4d85a86e564736f6c63430007060033",
  "linkReferences": {},
  "deployedLinkReferences": {}
}