{
  "_format": "hh-sol-artifact-1",
  "contractName": "Enterprise",
  "sourceName": "contracts/iq/Enterprise.sol",
  "abi": [
    {
      "anonymous": false,
      "inputs": [
        {
          "indexed": true,
          "internalType": "address",
          "name": "powerToken",
          "type": "address"
        },
        {
          "indexed": false,
          "internalType": "uint256",
          "name": "tokenId",
          "type": "uint256"
        }
      ],
      "name": "Borrowed",
      "type": "event"
    },
    {
      "anonymous": false,
      "inputs": [
        {
          "indexed": true,
          "internalType": "address",
          "name": "previousOwner",
          "type": "address"
        },
        {
          "indexed": true,
          "internalType": "address",
          "name": "newOwner",
          "type": "address"
        }
      ],
      "name": "OwnershipTransferred",
      "type": "event"
    },
    {
      "anonymous": false,
      "inputs": [
        {
          "indexed": true,
          "internalType": "address",
          "name": "powerToken",
          "type": "address"
        },
        {
          "indexed": false,
          "internalType": "uint32",
          "name": "halfLife",
          "type": "uint32"
        },
        {
          "indexed": false,
          "internalType": "uint112",
          "name": "factor",
          "type": "uint112"
        },
        {
          "indexed": false,
          "internalType": "uint32",
          "name": "interestRateHalvingPeriod",
          "type": "uint32"
        }
      ],
      "name": "ServiceRegistered",
      "type": "event"
    },
    {
      "inputs": [],
      "name": "availableReserve",
      "outputs": [
        {
          "internalType": "uint256",
          "name": "",
          "type": "uint256"
        }
      ],
      "stateMutability": "view",
      "type": "function"
    },
    {
      "inputs": [],
      "name": "baseUri",
      "outputs": [
        {
          "internalType": "string",
          "name": "",
          "type": "string"
        }
      ],
      "stateMutability": "view",
      "type": "function"
    },
    {
      "inputs": [
        {
          "internalType": "contract IPowerToken",
          "name": "_powerToken",
          "type": "address"
        },
        {
          "internalType": "contract IERC20",
          "name": "_interestPaymentToken",
          "type": "address"
        },
        {
          "internalType": "uint112",
          "name": "_amount",
          "type": "uint112"
        },
        {
          "internalType": "uint256",
          "name": "_maximumInterest",
          "type": "uint256"
        },
        {
          "internalType": "uint32",
          "name": "_duration",
          "type": "uint32"
        },
        {
          "internalType": "uint8",
          "name": "_refundCurvature",
          "type": "uint8"
        }
      ],
      "name": "borrow",
      "outputs": [],
      "stateMutability": "nonpayable",
      "type": "function"
    },
    {
      "inputs": [
        {
          "internalType": "contract IPowerToken",
          "name": "_powerToken",
          "type": "address"
        },
        {
          "internalType": "uint256",
          "name": "_tokenId",
          "type": "uint256"
        },
        {
          "internalType": "uint112",
          "name": "_amount",
          "type": "uint112"
        }
      ],
      "name": "burn",
      "outputs": [],
      "stateMutability": "nonpayable",
      "type": "function"
    },
    {
      "inputs": [
        {
          "internalType": "address",
          "name": "",
          "type": "address"
        }
      ],
      "name": "collectedInterest",
      "outputs": [
        {
          "internalType": "uint112",
          "name": "",
          "type": "uint112"
        }
      ],
      "stateMutability": "view",
      "type": "function"
    },
    {
      "inputs": [
        {
          "internalType": "contract IPowerToken",
          "name": "_powerToken",
          "type": "address"
        },
        {
          "internalType": "contract IERC20",
          "name": "_interestPaymentToken",
          "type": "address"
        },
        {
          "internalType": "uint112",
          "name": "_amount",
          "type": "uint112"
        },
        {
          "internalType": "uint32",
          "name": "_duration",
          "type": "uint32"
        },
        {
          "internalType": "uint8",
          "name": "_refundCurvature",
          "type": "uint8"
        },
        {
          "internalType": "uint32",
          "name": "_estimateAtTimestamp",
          "type": "uint32"
        }
      ],
      "name": "estimateBorrow",
      "outputs": [
        {
          "internalType": "uint112",
          "name": "",
          "type": "uint112"
        }
      ],
      "stateMutability": "view",
      "type": "function"
    },
    {
      "inputs": [
        {
          "internalType": "contract IPowerToken",
          "name": "_powerToken",
          "type": "address"
        },
        {
          "internalType": "address",
          "name": "_tokenHolder",
          "type": "address"
        },
        {
          "internalType": "uint256",
          "name": "_tokenId",
          "type": "uint256"
        },
        {
          "internalType": "uint112",
          "name": "_amountToBurn",
          "type": "uint112"
        },
        {
          "internalType": "uint32",
          "name": "_estimateAt",
          "type": "uint32"
        }
      ],
      "name": "estimateRefund",
      "outputs": [
        {
          "internalType": "address",
          "name": "paymentToken",
          "type": "address"
        },
        {
          "internalType": "uint112",
          "name": "amount",
          "type": "uint112"
        }
      ],
      "stateMutability": "view",
      "type": "function"
    },
    {
      "inputs": [
        {
          "internalType": "uint256",
          "name": "_sharesAmount",
          "type": "uint256"
        },
        {
          "internalType": "uint256",
          "name": "_tokenId",
          "type": "uint256"
        },
        {
          "internalType": "address",
          "name": "_interestToken",
          "type": "address"
        }
      ],
      "name": "estimateWithdrawLiquidity",
      "outputs": [
        {
          "internalType": "uint256",
          "name": "",
          "type": "uint256"
        }
      ],
      "stateMutability": "view",
      "type": "function"
    },
    {
      "inputs": [],
      "name": "getInfo",
      "outputs": [
        {
          "internalType": "uint256",
          "name": "",
          "type": "uint256"
        },
        {
          "internalType": "uint256",
          "name": "",
          "type": "uint256"
        },
        {
          "internalType": "uint256",
          "name": "",
          "type": "uint256"
        },
        {
          "internalType": "string",
          "name": "",
          "type": "string"
        },
        {
          "internalType": "string",
          "name": "",
          "type": "string"
        },
        {
          "internalType": "address",
          "name": "",
          "type": "address"
        }
      ],
      "stateMutability": "view",
      "type": "function"
    },
    {
      "inputs": [],
      "name": "getServices",
      "outputs": [
        {
          "components": [
            {
              "internalType": "uint32[]",
              "name": "allowedLoanDurations",
              "type": "uint32[]"
            },
            {
              "internalType": "uint8[]",
              "name": "allowedRefundCurvatures",
              "type": "uint8[]"
            },
            {
              "internalType": "uint256",
              "name": "borrowed",
              "type": "uint256"
            },
            {
              "internalType": "uint112",
              "name": "factor",
              "type": "uint112"
            },
            {
              "internalType": "uint32",
              "name": "lastDeal",
              "type": "uint32"
            },
            {
              "internalType": "uint32",
              "name": "interestRateHalvingPeriod",
              "type": "uint32"
            }
          ],
          "internalType": "struct Enterprise.Service[]",
          "name": "",
          "type": "tuple[]"
        }
      ],
      "stateMutability": "view",
      "type": "function"
    },
    {
      "inputs": [],
      "name": "iToken",
      "outputs": [
        {
          "internalType": "contract IInterestToken",
          "name": "",
          "type": "address"
        }
      ],
      "stateMutability": "view",
      "type": "function"
    },
    {
      "inputs": [
        {
          "internalType": "string",
          "name": "_name",
          "type": "string"
        },
        {
          "internalType": "address",
          "name": "_liquidityToken",
          "type": "address"
        },
        {
          "internalType": "string",
          "name": "_baseUri",
          "type": "string"
        },
        {
          "internalType": "address",
          "name": "_interestTokenImpl",
          "type": "address"
        },
        {
          "internalType": "address",
          "name": "_powerTokenImpl",
          "type": "address"
        },
        {
          "internalType": "address",
          "name": "_owner",
          "type": "address"
        }
      ],
      "name": "initialize",
      "outputs": [],
      "stateMutability": "nonpayable",
      "type": "function"
    },
    {
      "inputs": [
        {
          "internalType": "address",
          "name": "initialOwner",
          "type": "address"
        }
      ],
      "name": "initialize",
      "outputs": [],
      "stateMutability": "nonpayable",
      "type": "function"
    },
    {
      "inputs": [
        {
          "internalType": "contract IPowerToken",
          "name": "_token",
          "type": "address"
        },
        {
          "internalType": "uint32",
          "name": "_duration",
          "type": "uint32"
        }
      ],
      "name": "isAllowedLoanDuration",
      "outputs": [
        {
          "internalType": "bool",
          "name": "",
          "type": "bool"
        }
      ],
      "stateMutability": "view",
      "type": "function"
    },
    {
      "inputs": [
        {
          "internalType": "contract IPowerToken",
          "name": "_token",
          "type": "address"
        },
        {
          "internalType": "uint8",
          "name": "curvature",
          "type": "uint8"
        }
      ],
      "name": "isAllowedRefundCurvatures",
      "outputs": [
        {
          "internalType": "bool",
          "name": "",
          "type": "bool"
        }
      ],
      "stateMutability": "view",
      "type": "function"
    },
    {
      "inputs": [
        {
          "internalType": "uint256",
          "name": "_liquidityAmount",
          "type": "uint256"
        },
        {
          "internalType": "uint32",
          "name": "_halfWithdrawPeriod",
          "type": "uint32"
        }
      ],
      "name": "lend",
      "outputs": [],
      "stateMutability": "nonpayable",
      "type": "function"
    },
    {
      "inputs": [],
      "name": "liquidityToken",
      "outputs": [
        {
          "internalType": "contract IERC20Detailed",
          "name": "",
          "type": "address"
        }
      ],
      "stateMutability": "view",
      "type": "function"
    },
    {
      "inputs": [],
      "name": "name",
      "outputs": [
        {
          "internalType": "string",
          "name": "",
          "type": "string"
        }
      ],
      "stateMutability": "view",
      "type": "function"
    },
    {
      "inputs": [],
      "name": "owner",
      "outputs": [
        {
          "internalType": "address",
          "name": "",
          "type": "address"
        }
      ],
      "stateMutability": "view",
      "type": "function"
    },
    {
      "inputs": [
        {
          "internalType": "uint256",
          "name": "",
          "type": "uint256"
        }
      ],
      "name": "powerTokens",
      "outputs": [
        {
          "internalType": "contract IPowerToken",
          "name": "",
          "type": "address"
        }
      ],
      "stateMutability": "view",
      "type": "function"
    },
    {
      "inputs": [
        {
          "internalType": "string",
          "name": "_name",
          "type": "string"
        },
        {
          "internalType": "string",
          "name": "_symbol",
          "type": "string"
        },
        {
          "internalType": "uint32",
          "name": "_halfLife",
          "type": "uint32"
        },
        {
          "internalType": "uint112",
          "name": "_factor",
          "type": "uint112"
        },
        {
          "internalType": "uint32",
          "name": "_interestRateHalvingPeriod",
          "type": "uint32"
        },
        {
          "internalType": "uint32[]",
          "name": "_allowedLoanDurations",
          "type": "uint32[]"
        },
        {
          "internalType": "uint8[]",
          "name": "_allowedRefundCurvatures",
          "type": "uint8[]"
        }
      ],
      "name": "registerService",
      "outputs": [],
      "stateMutability": "nonpayable",
      "type": "function"
    },
    {
      "inputs": [],
      "name": "reserve",
      "outputs": [
        {
          "internalType": "uint256",
          "name": "",
          "type": "uint256"
        }
      ],
      "stateMutability": "view",
      "type": "function"
    },
    {
      "inputs": [
        {
          "internalType": "contract IPowerToken",
          "name": "",
          "type": "address"
        }
      ],
      "name": "services",
      "outputs": [
        {
          "internalType": "uint256",
          "name": "borrowed",
          "type": "uint256"
        },
        {
          "internalType": "uint112",
          "name": "factor",
          "type": "uint112"
        },
        {
          "internalType": "uint32",
          "name": "lastDeal",
          "type": "uint32"
        },
        {
          "internalType": "uint32",
          "name": "interestRateHalvingPeriod",
          "type": "uint32"
        }
      ],
      "stateMutability": "view",
      "type": "function"
    },
    {
      "inputs": [
        {
          "internalType": "address",
          "name": "",
          "type": "address"
        },
        {
          "internalType": "uint32",
          "name": "",
          "type": "uint32"
        },
        {
          "internalType": "uint8",
          "name": "",
          "type": "uint8"
        }
      ],
      "name": "states",
      "outputs": [
        {
          "internalType": "uint112",
          "name": "plannedBalance",
          "type": "uint112"
        },
        {
          "internalType": "uint32",
          "name": "timestamp",
          "type": "uint32"
        }
      ],
      "stateMutability": "view",
      "type": "function"
    },
    {
      "inputs": [
        {
          "internalType": "uint256",
          "name": "",
          "type": "uint256"
        }
      ],
      "name": "supportedInterestTokens",
      "outputs": [
        {
          "internalType": "address",
          "name": "",
          "type": "address"
        }
      ],
      "stateMutability": "view",
      "type": "function"
    },
    {
      "inputs": [
        {
          "internalType": "address",
          "name": "",
          "type": "address"
        }
      ],
      "name": "supportedInterestTokensIndex",
      "outputs": [
        {
          "internalType": "int16",
          "name": "",
          "type": "int16"
        }
      ],
      "stateMutability": "view",
      "type": "function"
    },
    {
      "inputs": [],
      "name": "totalShares",
      "outputs": [
        {
          "internalType": "uint256",
          "name": "",
          "type": "uint256"
        }
      ],
      "stateMutability": "view",
      "type": "function"
    },
    {
      "inputs": [
        {
          "internalType": "address",
          "name": "newOwner",
          "type": "address"
        }
      ],
      "name": "transferOwnership",
      "outputs": [],
      "stateMutability": "nonpayable",
      "type": "function"
    },
    {
      "inputs": [
        {
          "internalType": "uint256",
          "name": "_sharesAmount",
          "type": "uint256"
        },
        {
          "internalType": "uint256",
          "name": "_tokenId",
          "type": "uint256"
        },
        {
          "internalType": "address",
          "name": "_interestToken",
          "type": "address"
        }
      ],
      "name": "withdrawLiquidity",
      "outputs": [],
      "stateMutability": "nonpayable",
      "type": "function"
    }
  ],
  "bytecode": "0x608060405234801561001057600080fd5b50613950806100206000396000f3fe608060405234801561001057600080fd5b50600436106101cf5760003560e01c80638527499e11610104578063a0cffa59116100a2578063c4d66de811610071578063c4d66de8146103e2578063cd3293de146103f5578063ec46bd7d146103fd578063f2fde38b1461041e576101cf565b8063a0cffa5914610389578063a25587c2146103a9578063a64b90d3146103bc578063b424df80146103cf576101cf565b806395e17d84116100de57806395e17d841461033b57806396082ac21461034e57806399e2946b146103615780639abc832014610381576101cf565b80638527499e1461030d5780638619344b146103205780638da5cb5b14610333576101cf565b806343cd8f7e116101715780635fa1e1181161014b5780635fa1e118146102ad5780636d966d01146102c257806375417851146102e557806382e0d637146102fa576101cf565b806343cd8f7e146102835780635a9b0b891461028b5780635e9f9613146102a5576101cf565b806326399b68116101ad57806326399b681461023257806330bb0637146102535780633a98ef3914610266578063408cfe241461027b576101cf565b806304db7a31146101d457806306fdde03146101fd5780630e619aeb14610212575b600080fd5b6101e76101e2366004612e11565b610431565b6040516101f49190612ffd565b60405180910390f35b61020561045b565b6040516101f49190613228565b6102256102203660046129e7565b6104e9565b6040516101f491906136e4565b610245610240366004612a47565b610504565b6040516101f49291906130f6565b610225610261366004612b18565b610621565b61026e610898565b6040516101f49190613717565b6101e761089e565b6101e76108ad565b6102936108bc565b6040516101f49695949392919061374d565b61026e610a0a565b6102c06102bb366004612b83565b610a10565b005b6102d56102d03660046129e7565b610bc9565b6040516101f49493929190613720565b6102ed610c07565b6040516101f49190613118565b6102c0610308366004612aa8565b610e0a565b61026e61031b366004612e41565b611076565b6101e761032e366004612e11565b61107f565b6101e761108f565b6102c0610349366004612e41565b61109e565b6102c061035c366004612d37565b6111db565b61037461036f3660046129e7565b61156a565b6040516101f4919061321a565b61020561157f565b61039c610397366004612bb7565b6115da565b6040516101f4919061320f565b6102c06103b7366004612e79565b611660565b6102c06103ca366004612c89565b61174e565b61039c6103dd366004612beb565b6119e8565b6102c06103f03660046129e7565b611a5c565b61026e611aef565b61041061040b366004612a03565b611af5565b6040516101f49291906136f8565b6102c061042c3660046129e7565b611b30565b600c818154811061044157600080fd5b6000918252602090912001546001600160a01b0316905081565b6008805460408051602060026001851615610100026000190190941693909304601f810184900484028201840190925281815292918301828280156104e15780601f106104b6576101008083540402835291602001916104e1565b820191906000526020600020905b8154815290600101906020018083116104c457829003601f168201915b505050505081565b600e602052600090815260409020546001600160701b031681565b60008060008060008060006105188a611c34565b94509450945094509450600d6001830361ffff168154811061053657fe5b6000918252602082200154604051627eeac760e11b81526001600160a01b039182169950908e169062fdd58e90610573908f908f90600401613011565b60206040518083038186803b15801561058b57600080fd5b505afa15801561059f573d6000803e3d6000fd5b505050506040513d601f19601f820116820180604052508101906105c39190612e29565b9050806105da575060009550610617945050505050565b808a6105fc88858860ff168b8b0363ffffffff16816105f557fe5b048e611cf7565b026001600160701b03168161060d57fe5b0496505050505050505b9550959350505050565b600061062d87856115da565b6106525760405162461bcd60e51b8152600401610649906132f1565b60405180910390fd5b61065c87846119e8565b6106785760405162461bcd60e51b8152600401610649906134a9565b600554856001600160701b031611156106a35760405162461bcd60e51b81526004016106499061335f565b6001600160a01b03871660009081526009602090815260408083208151815460e09481028201850190935260c0810183815290939192849284919084018282801561073957602002820191906000526020600020906000905b82829054906101000a900463ffffffff1663ffffffff16815260200190600401906020826003010492830192600103820291508084116106fc5790505b50505050508152602001600182018054806020026020016040519081016040528092919081815260200182805480156107af57602002820191906000526020600020906000905b825461010083900a900460ff168152602060019283018181049485019490930390920291018084116107805790505b5050509183525050600282015460208201526003909101546001600160701b038082166040840152600160701b820463ffffffff908116606080860191909152600160901b9093048116608094850152918401519284015160a0850151949550928116918916908a160202607087900360ff161c9160009161083391849088611cf7565b90506000886001600160701b031660055403600454836001600160701b0316028161085a57fe5b04905060006001600160701b038211610873578161087c565b6001600160701b035b9050610888818c611e4e565b9c9b505050505050505050505050565b60065481565b6002546001600160a01b031681565b6001546001600160a01b031681565b60008060006060806000600454600554600654600760086108db61108f565b8254604080516020601f600260001961010060018816150201909516949094049384018190048102820181019092528281529185918301828280156109615780601f1061093657610100808354040283529160200191610961565b820191906000526020600020905b81548152906001019060200180831161094457829003601f168201915b5050855460408051602060026001851615610100026000190190941693909304601f8101849004840282018401909252818152959850879450925084019050828280156109ef5780601f106109c4576101008083540402835291602001916109ef565b820191906000526020600020905b8154815290600101906020018083116109d257829003601f168201915b50505050509150955095509550955095509550909192939495565b60055481565b604051627eeac760e11b81526000906001600160a01b0385169062fdd58e90610a3f9033908790600401613011565b60206040518083038186803b158015610a5757600080fd5b505afa158015610a6b573d6000803e3d6000fd5b505050506040513d601f19601f82011682018060405250810190610a8f9190612e29565b905080826001600160701b03161115610aba5760405162461bcd60e51b8152600401610649906136ad565b600080610aca8633878742610504565b915091506000610ad986611e85565b80546dffffffffffffffffffffffffffff1981166001600160701b039182168590038216178255600580548883169081019091556001600160a01b038a81166000908152600960205260409020600201805492909203909155919250610b459185169033908516612017565b6040517ff5298aca0000000000000000000000000000000000000000000000000000000081526001600160a01b0388169063f5298aca90610b8e9033908a90879060040161302a565b600060405180830381600087803b158015610ba857600080fd5b505af1158015610bbc573d6000803e3d6000fd5b5050505050505050505050565b600960205260009081526040902060028101546003909101546001600160701b0381169063ffffffff600160701b8204811691600160901b90041684565b600c5460609060008167ffffffffffffffff81118015610c2657600080fd5b50604051908082528060200260200182016040528015610c6057816020015b610c4d61266c565b815260200190600190039081610c455790505b50905060005b600c54811015610e035760096000600c8381548110610c8157fe5b60009182526020808320909101546001600160a01b0316835282810193909352604091820190208151815460e09481028201850190935260c08101838152909391928492849190840182828015610d2357602002820191906000526020600020906000905b82829054906101000a900463ffffffff1663ffffffff1681526020019060040190602082600301049283019260010382029150808411610ce65790505b5050505050815260200160018201805480602002602001604051908101604052809291908181526020018280548015610d9957602002820191906000526020600020906000905b825461010083900a900460ff16815260206001928301818104948501949093039092029101808411610d6a5790505b5050509183525050600282015460208201526003909101546001600160701b038116604083015263ffffffff600160701b820481166060840152600160901b909104166080909101528251839083908110610df057fe5b6020908102919091010152600101610c66565b5091505090565b6001600160a01b0385166000908152600b6020526040812054600190810b900b13610e475760405162461bcd60e51b8152600401610649906134e0565b610e5186836115da565b610e6d5760405162461bcd60e51b8152600401610649906132f1565b610e7786826119e8565b610e935760405162461bcd60e51b8152600401610649906134a9565b600554846001600160701b03161115610ebe5760405162461bcd60e51b8152600401610649906135d1565b6000610ece878787868642610621565b905083816001600160701b03161115610ef95760405162461bcd60e51b815260040161064990613404565b610f176001600160a01b03871633306001600160701b03851661209c565b600580546001600160701b038716908190039091556001600160a01b03808916600090815260096020908152604080832060020180549095019094559189168152600b90915290812054610f7690429086820190869060010b8661212a565b6040517f731133e90000000000000000000000000000000000000000000000000000000081529091506001600160a01b0389169063731133e990610fc290339085908b90600401613054565b600060405180830381600087803b158015610fdc57600080fd5b505af1158015610ff0573d6000803e3d6000fd5b505050506000610fff82611e85565b80546001600160701b038082168601166dffffffffffffffffffffffffffff199091161781556040519091506001600160a01b038a16907fac59582e5396aca512fa873a2047e7f4c80f8f55d4a06cb34a78a0187f62719f90611063908590613717565b60405180910390a2505050505050505050565b60009392505050565b600d818154811061044157600080fd5b6000546001600160a01b031690565b600254604051627eeac760e11b81526000916001600160a01b03169062fdd58e906110cf9033908790600401613011565b60206040518083038186803b1580156110e757600080fd5b505afa1580156110fb573d6000803e3d6000fd5b505050506040513d601f19601f8201168201806040525081019061111f9190612e29565b9050838110156111415760405162461bcd60e51b81526004016106499061343b565b60006006548561114f61216c565b028161115757fe5b60015491900491506001600160a01b038481169116146111895760405162461bcd60e51b815260040161064990613396565b6005548111156111ab5760405162461bcd60e51b8152600401610649906133cd565b6001546111c2906001600160a01b03163383612017565b6004805482900390556005805491909103905550505050565b336111e461108f565b6001600160a01b03161461123f576040805162461bcd60e51b815260206004820181905260248201527f4f776e61626c653a2063616c6c6572206973206e6f7420746865206f776e6572604482015290519081900360640190fd5b600154604080517f95d89b4100000000000000000000000000000000000000000000000000000000815290516000926001600160a01b0316916395d89b419160048083019286929190829003018186803b15801561129c57600080fd5b505afa1580156112b0573d6000803e3d6000fd5b505050506040513d6000823e601f3d908101601f191682016040526112d89190810190612c16565b9050600081886040516020016112ef929190612f1b565b60408051601f1981840301815291905260035490915060009061131a906001600160a01b03166121e3565b6040517f59f0bee90000000000000000000000000000000000000000000000000000000081529091506001600160a01b038216906359f0bee990611369908d9086906007908e9060040161323b565b600060405180830381600087803b15801561138357600080fd5b505af1158015611397573d6000803e3d6000fd5b505050506001600160a01b038116600090815260096020908152604090912086516113c4928801906126b7565b506001600160a01b038116600090815260096020908152604090912085516113f492600190920191870190612766565b508660096000836001600160a01b03166001600160a01b0316815260200190815260200160002060030160006101000a8154816001600160701b0302191690836001600160701b031602179055508560096000836001600160a01b03166001600160a01b0316815260200190815260200160002060030160126101000a81548163ffffffff021916908363ffffffff1602179055504260096000836001600160a01b03166001600160a01b03168152602001908152602001600020600301600e6101000a81548163ffffffff021916908363ffffffff160217905550600c819080600181540180825580915050600190039060005260206000200160009091909190916101000a8154816001600160a01b0302191690836001600160a01b03160217905550806001600160a01b03167f9a57b384ed8b33098a5a53cb7b380bc8d9aebeecdabb44f362a2d91d8ce7aed7898989604051611556939291906137a1565b60405180910390a250505050505050505050565b600b6020526000908152604090205460010b81565b6007805460408051602060026001851615610100026000190190941693909304601f810184900484028201840190925281815292918301828280156104e15780601f106104b6576101008083540402835291602001916104e1565b6001600160a01b03821660009081526009602052604081208054825b81811015611652578463ffffffff1683600001828154811061161457fe5b6000918252602090912060088204015460079091166004026101000a900463ffffffff16141561164a576001935050505061165a565b6001016115f6565b506000925050505b92915050565b600154611678906001600160a01b031633308561209c565b60048054830190556005805483019055600061169261216c565b90506000600654600014156116a85750826116b9565b818460065402816116b557fe5b0490505b6002546040517f156e29f600000000000000000000000000000000000000000000000000000000815263ffffffff8516916001600160a01b03169063156e29f69061170c9033908590879060040161308d565b600060405180830381600087803b15801561172657600080fd5b505af115801561173a573d6000803e3d6000fd5b505060068054909401909355505050505050565b6001546001600160a01b0316156117775760405162461bcd60e51b81526004016106499061363f565b6001600160a01b03851661179d5760405162461bcd60e51b81526004016106499061359a565b6040517fc4d66de8000000000000000000000000000000000000000000000000000000008152309063c4d66de8906117d9908490600401612ffd565b600060405180830381600087803b1580156117f357600080fd5b505af1158015611807573d6000803e3d6000fd5b5050600180546001600160a01b0319166001600160a01b038916179055505083516118399060079060208701906127fa565b50855161184d9060089060208901906127fa565b50611857856122a3565b6000856001600160a01b03166395d89b416040518163ffffffff1660e01b815260040160006040518083038186803b15801561189257600080fd5b505afa1580156118a6573d6000803e3d6000fd5b505050506040513d6000823e601f3d908101601f191682016040526118ce9190810190612c16565b90506000816040516020016118e39190612f73565b60405160208183030381529060405290506000826040516020016119079190612fb8565b604051602081830303815290604052905061192a866001600160a01b03166121e3565b600280546001600160a01b0319166001600160a01b0392831617908190556040517f5f1e6f6d000000000000000000000000000000000000000000000000000000008152911690635f1e6f6d9061198b903090869086908d906004016130ae565b600060405180830381600087803b1580156119a557600080fd5b505af11580156119b9573d6000803e3d6000fd5b5050600380546001600160a01b0319166001600160a01b03989098169790971790965550505050505050505050565b6001600160a01b03821660009081526009602052604081206001810154825b81811015611652578460ff16836001018281548110611a2257fe5b60009182526020918290209181049091015460ff601f9092166101000a9004161415611a54576001935050505061165a565b600101611a07565b6000546001600160a01b031615611aa45760405162461bcd60e51b81526004018080602001828103825260298152602001806138c86029913960400191505060405180910390fd5b600080546001600160a01b0319166001600160a01b03831690811782556040519091907f8be0079c531659141344cd1fd0a4f28419497f9722a3daafe3b4186f6b6457e0908290a350565b60045481565b600a6020908152600093845260408085208252928452828420905282529020546001600160701b03811690600160701b900463ffffffff1682565b33611b3961108f565b6001600160a01b031614611b94576040805162461bcd60e51b815260206004820181905260248201527f4f776e61626c653a2063616c6c6572206973206e6f7420746865206f776e6572604482015290519081900360640190fd5b6001600160a01b038116611bd95760405162461bcd60e51b815260040180806020018281038252602681526020018061387c6026913960400191505060405180910390fd5b600080546040516001600160a01b03808516939216917f8be0079c531659141344cd1fd0a4f28419497f9722a3daafe3b4186f6b6457e091a3600080546001600160a01b0319166001600160a01b0392909216919091179055565b60e081901c60c082901c63ffffffff1660b883901c60ff1660a884901c61ffff166001600160701b03851684611c7c5760405162461bcd60e51b815260040161064990613608565b60008463ffffffff1611611ca25760405162461bcd60e51b815260040161064990613328565b60008360ff1611611cc55760405162461bcd60e51b815260040161064990613676565b6000816001600160701b031611611cee5760405162461bcd60e51b815260040161064990613472565b91939590929450565b60008463ffffffff168263ffffffff161015611d5a576040805162461bcd60e51b815260206004820152600e60248201527f496e76616c696420706572696f64000000000000000000000000000000000000604482015290519081900360640190fd5b84820391508263ffffffff168263ffffffff1681611d7457fe5b0463ffffffff16846001600160701b0316901c93508263ffffffff168263ffffffff1681611d9e57fe5b06915063ffffffff82161580611dbb57506001600160701b038416155b15611dc7575082611e46565b60006001600160701b0385168163ffffffff86811690861671b17217f7d1cf79abc9e3b39803f2f6af40f30281611dfa57fe5b049050600160901b5b8215611e3f57928201928082840281611e1857fe5b0493849003939250600160901b018082840281611e3157fe5b049250600160901b01611e03565b5091925050505b949350505050565b6001546000906001600160a01b03838116911614611e7e5760405162461bcd60e51b81526004016106499061353d565b5090919050565b6000806000806000611e9686611c34565b5093509350935093506000600d6001830361ffff1681548110611eb557fe5b60009182526020808320909101546001600160a01b0316808352600a8252604080842063ffffffff8a8a0381811680885292865283872060ff8b1680895296529286208054909c50939650919493611f2a93600160701b8104909316926001600160701b03169181611f2357fe5b0442611cf7565b88546001546001600160701b039091169190910391506001600160a01b0384811691161415611f7557600480546001600160701b038316908101909155600580549091019055611fb4565b6001600160a01b0383166000908152600e6020526040902080546001600160701b038082168401166dffffffffffffffffffffffffffff199091161790555b87546dffffffffffffffffffffffffffff1981166001600160701b039182169290920316177fffffffffffffffffffffffffffff00000000ffffffffffffffffffffffffffff16600160701b4263ffffffff160217875550949695505050505050565b604080516001600160a01b038416602482015260448082018490528251808303909101815260649091019091526020810180517bffffffffffffffffffffffffffffffffffffffffffffffffffffffff167fa9059cbb0000000000000000000000000000000000000000000000000000000017905261209790849061239d565b505050565b604080516001600160a01b0380861660248301528416604482015260648082018490528251808303909101815260849091019091526020810180517bffffffffffffffffffffffffffffffffffffffffffffffffffffffff167f23b872dd0000000000000000000000000000000000000000000000000000000017905261212490859061239d565b50505050565b6000816001600160701b031660a88461ffff16901b60b88660ff16901b60c08863ffffffff16901b60e08a63ffffffff16901b17171717905095945050505050565b600454600d5460005b818110156121de576000600d828154811061218c57fe5b60009182526020808320909101546001600160a01b0316808352600e9091526040909120549091506121c7906001600160701b031682611e4e565b6001600160701b0316939093019250600101612175565b505090565b60006040517f3d602d80600a3d3981f3363d3d373d3d3d363d7300000000000000000000000081528260601b60148201527f5af43d82803e903d91602b57fd5bf3000000000000000000000000000000000060288201526037816000f09150506001600160a01b03811661229e576040805162461bcd60e51b815260206004820152601660248201527f455243313136373a20637265617465206661696c656400000000000000000000604482015290519081900360640190fd5b919050565b6001600160a01b0381166000908152600b6020526040902054600190810b900b61233d57600d8054600180820183557fd7b6990105719101dabeb77144f2a3385c8033acd3af97e9423a695e81ad1eb590910180546001600160a01b0319166001600160a01b03851690811790915591546000928352600b6020526040909220805461ffff191661ffff9390920b9290921617905561239a565b6001600160a01b0381166000908152600b6020526040812054600190810b900b121561239a576001600160a01b0381166000908152600b602052604081208054600181810b90930390920b61ffff1661ffff199092169190911790555b50565b60006123f2826040518060400160405280602081526020017f5361666545524332303a206c6f772d6c6576656c2063616c6c206661696c6564815250856001600160a01b031661244e9092919063ffffffff16565b8051909150156120975780806020019051602081101561241157600080fd5b50516120975760405162461bcd60e51b815260040180806020018281038252602a8152602001806138f1602a913960400191505060405180910390fd5b606061245d8484600085612467565b90505b9392505050565b6060824710156124a85760405162461bcd60e51b81526004018080602001828103825260268152602001806138a26026913960400191505060405180910390fd5b6124b1856125c2565b612502576040805162461bcd60e51b815260206004820152601d60248201527f416464726573733a2063616c6c20746f206e6f6e2d636f6e7472616374000000604482015290519081900360640190fd5b600080866001600160a01b031685876040518082805190602001908083835b602083106125405780518252601f199092019160209182019101612521565b6001836020036101000a03801982511681845116808217855250505050505090500191505060006040518083038185875af1925050503d80600081146125a2576040519150601f19603f3d011682016040523d82523d6000602084013e6125a7565b606091505b50915091506125b78282866125c8565b979650505050505050565b3b151590565b606083156125d7575081612460565b8251156125e75782518084602001fd5b8160405162461bcd60e51b81526004018080602001828103825283818151815260200191508051906020019080838360005b83811015612631578181015183820152602001612619565b50505050905090810190601f16801561265e5780820380516001836020036101000a031916815260200191505b509250505060405180910390fd5b6040518060c0016040528060608152602001606081526020016000815260200160006001600160701b03168152602001600063ffffffff168152602001600063ffffffff1681525090565b828054828255906000526020600020906007016008900481019282156127565791602002820160005b8382111561272457835183826101000a81548163ffffffff021916908363ffffffff16021790555092602001926004016020816003010492830192600103026126e0565b80156127545782816101000a81549063ffffffff0219169055600401602081600301049283019260010302612724565b505b50612762929150612876565b5090565b82805482825590600052602060002090601f016020900481019282156127565791602002820160005b838211156127cd57835183826101000a81548160ff021916908360ff160217905550926020019260010160208160000104928301926001030261278f565b80156127545782816101000a81549060ff02191690556001016020816000010492830192600103026127cd565b828054600181600116156101000203166002900490600052602060002090601f0160209004810192826128305760008555612756565b82601f1061284957805160ff1916838001178555612756565b82800160010185558215612756579182015b8281111561275657825182559160200191906001019061285b565b5b808211156127625760008155600101612877565b600082601f83011261289b578081fd5b813560206128b06128ab836137ee565b6137ca565b82815281810190858301838502870184018810156128cc578586fd5b855b858110156128f1576128df826129c2565b845292840192908401906001016128ce565b5090979650505050505050565b600082601f83011261290e578081fd5b8135602061291e6128ab836137ee565b828152818101908583018385028701840188101561293a578586fd5b855b858110156128f15761294d826129d6565b8452928401929084019060010161293c565b600082601f83011261296f578081fd5b813561297d6128ab8261380c565b818152846020838601011115612991578283fd5b816020850160208301379081016020019190915292915050565b80356001600160701b038116811461229e57600080fd5b803563ffffffff8116811461229e57600080fd5b803560ff8116811461229e57600080fd5b6000602082840312156129f8578081fd5b813561246081613866565b600080600060608486031215612a17578182fd5b8335612a2281613866565b9250612a30602085016129c2565b9150612a3e604085016129d6565b90509250925092565b600080600080600060a08688031215612a5e578081fd5b8535612a6981613866565b94506020860135612a7981613866565b935060408601359250612a8e606087016129ab565b9150612a9c608087016129c2565b90509295509295909350565b60008060008060008060c08789031215612ac0578081fd5b8635612acb81613866565b95506020870135612adb81613866565b9450612ae9604088016129ab565b935060608701359250612afe608088016129c2565b9150612b0c60a088016129d6565b90509295509295509295565b60008060008060008060c08789031215612b30578182fd5b8635612b3b81613866565b95506020870135612b4b81613866565b9450612b59604088016129ab565b9350612b67606088016129c2565b9250612b75608088016129d6565b9150612b0c60a088016129c2565b600080600060608486031215612b97578081fd5b8335612ba281613866565b925060208401359150612a3e604085016129ab565b60008060408385031215612bc9578182fd5b8235612bd481613866565b9150612be2602084016129c2565b90509250929050565b60008060408385031215612bfd578182fd5b8235612c0881613866565b9150612be2602084016129d6565b600060208284031215612c27578081fd5b815167ffffffffffffffff811115612c3d578182fd5b8201601f81018413612c4d578182fd5b8051612c5b6128ab8261380c565b818152856020838501011115612c6f578384fd5b612c8082602083016020860161383a565b95945050505050565b60008060008060008060c08789031215612ca1578384fd5b863567ffffffffffffffff80821115612cb8578586fd5b612cc48a838b0161295f565b975060208901359150612cd682613866565b90955060408801359080821115612ceb578586fd5b50612cf889828a0161295f565b9450506060870135612d0981613866565b92506080870135612d1981613866565b915060a0870135612d2981613866565b809150509295509295509295565b600080600080600080600060e0888a031215612d51578485fd5b873567ffffffffffffffff80821115612d68578687fd5b612d748b838c0161295f565b985060208a0135915080821115612d89578687fd5b612d958b838c0161295f565b9750612da360408b016129c2565b9650612db160608b016129ab565b9550612dbf60808b016129c2565b945060a08a0135915080821115612dd4578283fd5b612de08b838c0161288b565b935060c08a0135915080821115612df5578283fd5b50612e028a828b016128fe565b91505092959891949750929550565b600060208284031215612e22578081fd5b5035919050565b600060208284031215612e3a578081fd5b5051919050565b600080600060608486031215612e55578081fd5b83359250602084013591506040840135612e6e81613866565b809150509250925092565b60008060408385031215612e8b578182fd5b82359150612be2602084016129c2565b6000815180845260208085019450808401835b83811015612ecd57815160ff1687529582019590820190600101612eae565b509495945050505050565b60008151808452612ef081602086016020860161383a565b601f01601f19169290920160200192915050565b6001600160701b03169052565b63ffffffff169052565b60008351612f2d81846020880161383a565b7f20000000000000000000000000000000000000000000000000000000000000009083019081528351612f6781600184016020880161383a565b01600101949350505050565b60007f496e7465726573742042656172696e672000000000000000000000000000000082528251612fab81601185016020870161383a565b9190910160110192915050565b60007f690000000000000000000000000000000000000000000000000000000000000082528251612ff081600185016020870161383a565b9190910160010192915050565b6001600160a01b0391909116815260200190565b6001600160a01b03929092168252602082015260400190565b6001600160a01b0393909316835260208301919091526001600160701b0316604082015260600190565b6001600160a01b0393909316835260208301919091526001600160701b0316604082015260806060820181905260009082015260a00190565b6001600160a01b039390931683526020830191909152604082015260600190565b60006001600160a01b0386168252608060208301526130d06080830186612ed8565b82810360408401526130e28186612ed8565b905082810360608401526125b78185612ed8565b6001600160a01b039290921682526001600160701b0316602082015260400190565b60208082528251828201819052600091906040908185019080840286018301878501865b8381101561320157888303603f190185528151805160c0808652815190860181905260e08601918a01908b905b8082101561318f57825163ffffffff168452928b0192918b019160019190910190613169565b505050888201518582038a8701526131a78282612e9b565b91505087820151888601526060808301516131c482880182612f04565b50506080808301516131d882880182612f11565b505060a091820151916131ed86820184612f11565b50958801959350509086019060010161313c565b509098975050505050505050565b901515815260200190565b60019190910b815260200190565b6000602082526124606020830184612ed8565b60006080825261324e6080830187612ed8565b6020838203818501526132618288612ed8565b9150838203604085015282865460018082166000811461328857600181146132a5576132db565b60028304607f16865260ff198316858701526040860193506132db565b600283048087526132b58b61382e565b885b828110156132d25781548982018901529084019087016132b7565b88018701955050505b505050809350505050612c806060830184612f11565b60208082526014908201527f4475726174696f6e206e6f7420616c6c6f776564000000000000000000000000604082015260600190565b6020808252600a908201527f496e76616c696420746f00000000000000000000000000000000000000000000604082015260600190565b6020808252601a908201527f546f6f206c6f7720617661696c61626c65207265736572766573000000000000604082015260600190565b60208082526011908201527f4e6f7420737570706f7274656420796574000000000000000000000000000000604082015260600190565b60208082526016908201527f496e73756666696369656e74206c697175696469747900000000000000000000604082015260600190565b60208082526010908201527f536c69707061676520746f6f2062696700000000000000000000000000000000604082015260600190565b60208082526014908201527f496e73756666696369656e742062616c616e6365000000000000000000000000604082015260600190565b60208082526010908201527f496e76616c696420696e74657265737400000000000000000000000000000000604082015260600190565b60208082526015908201527f437572766174757265206e6f7420616c6c6f7765640000000000000000000000604082015260600190565b60208082526033908201527f496e746572657374207061796d656e7420746f6b656e2069732064697361626c60408201527f6564206f72206e6f7420737570706f7274656400000000000000000000000000606082015260800190565b6020808252602b908201527f4f74686572207061796d656e74206f7074696f6e7320617265206e6f7420737560408201527f70706f7274656420796574000000000000000000000000000000000000000000606082015260800190565b6020808252601f908201527f496e76616c6964206c697175696469747920746f6b656e206164647265737300604082015260600190565b60208082526015908201527f496e73756666696369656e742072657365727665730000000000000000000000604082015260600190565b6020808252600c908201527f496e76616c69642066726f6d0000000000000000000000000000000000000000604082015260600190565b6020808252601c908201527f436f6e747261637420616c726561647920696e697469616c697a656400000000604082015260600190565b60208082526011908201527f496e76616c696420637572766174757265000000000000000000000000000000604082015260600190565b6020808252601c908201527f43616e2774206275726e206d6f726520746861742062616c616e636500000000604082015260600190565b6001600160701b0391909116815260200190565b6001600160701b0392909216825263ffffffff16602082015260400190565b90815260200190565b9384526001600160701b0392909216602084015263ffffffff908116604084015216606082015260800190565b600087825286602083015285604083015260c0606083015261377260c0830186612ed8565b82810360808401526137848186612ed8565b9150506001600160a01b03831660a0830152979650505050505050565b63ffffffff93841681526001600160701b03929092166020830152909116604082015260600190565b60405181810167ffffffffffffffff811182821017156137e657fe5b604052919050565b600067ffffffffffffffff82111561380257fe5b5060209081020190565b600067ffffffffffffffff82111561382057fe5b50601f01601f191660200190565b60009081526020902090565b60005b8381101561385557818101518382015260200161383d565b838111156121245750506000910152565b6001600160a01b038116811461239a57600080fdfe4f776e61626c653a206e6577206f776e657220697320746865207a65726f2061646472657373416464726573733a20696e73756666696369656e742062616c616e636520666f722063616c6c496e697469616c697a61626c654f776e61626c653a20616c726561647920696e697469616c697a65645361666545524332303a204552433230206f7065726174696f6e20646964206e6f742073756363656564a2646970667358221220806a48b840948f02862267293e2dc2f6c2446078728cb9b0c5959e6e518aa25c64736f6c63430007060033",
  "linkReferences": {},
  "deployedLinkReferences": {}
}