{
  "_format": "hh-sol-artifact-1",
  "contractName": "Enterprise",
  "sourceName": "contracts/iq/Enterprise.sol",
  "abi": [
    {
      "anonymous": false,
      "inputs": [
        {
          "indexed": true,
          "internalType": "address",
          "name": "powerToken",
          "type": "address"
        },
        {
          "indexed": false,
          "internalType": "uint256",
          "name": "tokenId",
          "type": "uint256"
        }
      ],
      "name": "Borrowed",
      "type": "event"
    },
    {
      "anonymous": false,
      "inputs": [
        {
          "indexed": true,
          "internalType": "address",
          "name": "previousOwner",
          "type": "address"
        },
        {
          "indexed": true,
          "internalType": "address",
          "name": "newOwner",
          "type": "address"
        }
      ],
      "name": "OwnershipTransferred",
      "type": "event"
    },
    {
      "anonymous": false,
      "inputs": [
        {
          "indexed": true,
          "internalType": "address",
          "name": "powerToken",
          "type": "address"
        },
        {
          "indexed": false,
          "internalType": "uint32",
          "name": "halfLife",
          "type": "uint32"
        },
        {
          "indexed": false,
          "internalType": "uint112",
          "name": "factor",
          "type": "uint112"
        },
        {
          "indexed": false,
          "internalType": "uint32",
          "name": "interestRateHalvingPeriod",
          "type": "uint32"
        }
      ],
      "name": "ServiceRegistered",
      "type": "event"
    },
    {
      "inputs": [],
      "name": "availableReserve",
      "outputs": [
        {
          "internalType": "uint256",
          "name": "",
          "type": "uint256"
        }
      ],
      "stateMutability": "view",
      "type": "function"
    },
    {
      "inputs": [],
      "name": "baseUri",
      "outputs": [
        {
          "internalType": "string",
          "name": "",
          "type": "string"
        }
      ],
      "stateMutability": "view",
      "type": "function"
    },
    {
      "inputs": [
        {
          "internalType": "contract IPowerToken",
          "name": "_powerToken",
          "type": "address"
        },
        {
          "internalType": "contract IERC20",
          "name": "_interestPaymentToken",
          "type": "address"
        },
        {
          "internalType": "uint112",
          "name": "_amount",
          "type": "uint112"
        },
        {
          "internalType": "uint256",
          "name": "_maximumInterest",
          "type": "uint256"
        },
        {
          "internalType": "uint32",
          "name": "_duration",
          "type": "uint32"
        },
        {
          "internalType": "uint8",
          "name": "_refundCurvature",
          "type": "uint8"
        }
      ],
      "name": "borrow",
      "outputs": [],
      "stateMutability": "nonpayable",
      "type": "function"
    },
    {
      "inputs": [
        {
          "internalType": "contract IPowerToken",
          "name": "_powerToken",
          "type": "address"
        },
        {
          "internalType": "uint256",
          "name": "_tokenId",
          "type": "uint256"
        },
        {
          "internalType": "uint112",
          "name": "_amount",
          "type": "uint112"
        }
      ],
      "name": "burn",
      "outputs": [],
      "stateMutability": "nonpayable",
      "type": "function"
    },
    {
      "inputs": [
        {
          "internalType": "address",
          "name": "",
          "type": "address"
        }
      ],
      "name": "collectedInterest",
      "outputs": [
        {
          "internalType": "uint112",
          "name": "",
          "type": "uint112"
        }
      ],
      "stateMutability": "view",
      "type": "function"
    },
    {
      "inputs": [
        {
          "internalType": "contract IPowerToken",
          "name": "_powerToken",
          "type": "address"
        },
        {
          "internalType": "contract IERC20",
          "name": "_interestPaymentToken",
          "type": "address"
        },
        {
          "internalType": "uint112",
          "name": "_amount",
          "type": "uint112"
        },
        {
          "internalType": "uint32",
          "name": "_duration",
          "type": "uint32"
        },
        {
          "internalType": "uint8",
          "name": "_refundCurvature",
          "type": "uint8"
        },
        {
          "internalType": "uint32",
          "name": "_estimateAtTimestamp",
          "type": "uint32"
        }
      ],
      "name": "estimateBorrow",
      "outputs": [
        {
          "internalType": "uint112",
          "name": "",
          "type": "uint112"
        }
      ],
      "stateMutability": "view",
      "type": "function"
    },
    {
      "inputs": [
        {
          "internalType": "contract IPowerToken",
          "name": "_powerToken",
          "type": "address"
        },
        {
          "internalType": "address",
          "name": "_tokenHolder",
          "type": "address"
        },
        {
          "internalType": "uint256",
          "name": "_tokenId",
          "type": "uint256"
        },
        {
          "internalType": "uint112",
          "name": "_amountToBurn",
          "type": "uint112"
        },
        {
          "internalType": "uint32",
          "name": "_estimateAt",
          "type": "uint32"
        }
      ],
      "name": "estimateRefund",
      "outputs": [
        {
          "internalType": "address",
          "name": "paymentToken",
          "type": "address"
        },
        {
          "internalType": "uint112",
          "name": "amount",
          "type": "uint112"
        }
      ],
      "stateMutability": "view",
      "type": "function"
    },
    {
      "inputs": [],
      "name": "iToken",
      "outputs": [
        {
          "internalType": "contract IInterestToken",
          "name": "",
          "type": "address"
        }
      ],
      "stateMutability": "view",
      "type": "function"
    },
    {
      "inputs": [
        {
          "internalType": "string",
          "name": "_name",
          "type": "string"
        },
        {
          "internalType": "address",
          "name": "_liquidityToken",
          "type": "address"
        },
        {
          "internalType": "string",
          "name": "_baseUri",
          "type": "string"
        },
        {
          "internalType": "address",
          "name": "_interestTokenImpl",
          "type": "address"
        },
        {
          "internalType": "address",
          "name": "_powerTokenImpl",
          "type": "address"
        }
      ],
      "name": "initialize",
      "outputs": [],
      "stateMutability": "nonpayable",
      "type": "function"
    },
    {
      "inputs": [
        {
          "internalType": "contract IPowerToken",
          "name": "_token",
          "type": "address"
        },
        {
          "internalType": "uint32",
          "name": "_duration",
          "type": "uint32"
        }
      ],
      "name": "isAllowedLoanDuration",
      "outputs": [
        {
          "internalType": "bool",
          "name": "",
          "type": "bool"
        }
      ],
      "stateMutability": "view",
      "type": "function"
    },
    {
      "inputs": [
        {
          "internalType": "contract IPowerToken",
          "name": "_token",
          "type": "address"
        },
        {
          "internalType": "uint8",
          "name": "curvature",
          "type": "uint8"
        }
      ],
      "name": "isAllowedRefundCurvatures",
      "outputs": [
        {
          "internalType": "bool",
          "name": "",
          "type": "bool"
        }
      ],
      "stateMutability": "view",
      "type": "function"
    },
    {
      "inputs": [
        {
          "internalType": "uint256",
          "name": "_liquidityAmount",
          "type": "uint256"
        },
        {
          "internalType": "uint32",
          "name": "_halfWithdrawPeriod",
          "type": "uint32"
        }
      ],
      "name": "lend",
      "outputs": [],
      "stateMutability": "nonpayable",
      "type": "function"
    },
    {
      "inputs": [],
      "name": "liquidityToken",
      "outputs": [
        {
          "internalType": "contract IERC20Detailed",
          "name": "",
          "type": "address"
        }
      ],
      "stateMutability": "view",
      "type": "function"
    },
    {
      "inputs": [],
      "name": "name",
      "outputs": [
        {
          "internalType": "string",
          "name": "",
          "type": "string"
        }
      ],
      "stateMutability": "view",
      "type": "function"
    },
    {
      "inputs": [],
      "name": "owner",
      "outputs": [
        {
          "internalType": "address",
          "name": "",
          "type": "address"
        }
      ],
      "stateMutability": "view",
      "type": "function"
    },
    {
      "inputs": [
        {
          "internalType": "string",
          "name": "_name",
          "type": "string"
        },
        {
          "internalType": "string",
          "name": "_symbol",
          "type": "string"
        },
        {
          "internalType": "uint32",
          "name": "_halfLife",
          "type": "uint32"
        },
        {
          "internalType": "uint112",
          "name": "_factor",
          "type": "uint112"
        },
        {
          "internalType": "uint32",
          "name": "_interestRateHalvingPeriod",
          "type": "uint32"
        },
        {
          "internalType": "uint32[]",
          "name": "_allowedLoanDurations",
          "type": "uint32[]"
        },
        {
          "internalType": "uint8[]",
          "name": "_allowedRefundCurvatures",
          "type": "uint8[]"
        }
      ],
      "name": "registerService",
      "outputs": [],
      "stateMutability": "nonpayable",
      "type": "function"
    },
    {
      "inputs": [],
      "name": "renounceOwnership",
      "outputs": [],
      "stateMutability": "nonpayable",
      "type": "function"
    },
    {
      "inputs": [],
      "name": "reserve",
      "outputs": [
        {
          "internalType": "uint256",
          "name": "",
          "type": "uint256"
        }
      ],
      "stateMutability": "view",
      "type": "function"
    },
    {
      "inputs": [
        {
          "internalType": "contract IPowerToken",
          "name": "",
          "type": "address"
        }
      ],
      "name": "services",
      "outputs": [
        {
          "internalType": "uint256",
          "name": "borrowed",
          "type": "uint256"
        },
        {
          "internalType": "uint112",
          "name": "factor",
          "type": "uint112"
        },
        {
          "internalType": "uint32",
          "name": "lastDeal",
          "type": "uint32"
        },
        {
          "internalType": "uint32",
          "name": "interestRateHalvingPeriod",
          "type": "uint32"
        }
      ],
      "stateMutability": "view",
      "type": "function"
    },
    {
      "inputs": [
        {
          "internalType": "address",
          "name": "",
          "type": "address"
        },
        {
          "internalType": "uint32",
          "name": "",
          "type": "uint32"
        },
        {
          "internalType": "uint8",
          "name": "",
          "type": "uint8"
        }
      ],
      "name": "states",
      "outputs": [
        {
          "internalType": "uint112",
          "name": "plannedBalance",
          "type": "uint112"
        },
        {
          "internalType": "uint32",
          "name": "timestamp",
          "type": "uint32"
        }
      ],
      "stateMutability": "view",
      "type": "function"
    },
    {
      "inputs": [
        {
          "internalType": "uint256",
          "name": "",
          "type": "uint256"
        }
      ],
      "name": "supportedInterestTokens",
      "outputs": [
        {
          "internalType": "address",
          "name": "",
          "type": "address"
        }
      ],
      "stateMutability": "view",
      "type": "function"
    },
    {
      "inputs": [
        {
          "internalType": "address",
          "name": "",
          "type": "address"
        }
      ],
      "name": "supportedInterestTokensIndex",
      "outputs": [
        {
          "internalType": "int16",
          "name": "",
          "type": "int16"
        }
      ],
      "stateMutability": "view",
      "type": "function"
    },
    {
      "inputs": [],
      "name": "totalShares",
      "outputs": [
        {
          "internalType": "uint256",
          "name": "",
          "type": "uint256"
        }
      ],
      "stateMutability": "view",
      "type": "function"
    },
    {
      "inputs": [
        {
          "internalType": "address",
          "name": "newOwner",
          "type": "address"
        }
      ],
      "name": "transferOwnership",
      "outputs": [],
      "stateMutability": "nonpayable",
      "type": "function"
    },
    {
      "inputs": [
        {
          "internalType": "uint256",
          "name": "_sharesAmount",
          "type": "uint256"
        },
        {
          "internalType": "uint256",
          "name": "_tokenId",
          "type": "uint256"
        },
        {
          "internalType": "address",
          "name": "_interestToken",
          "type": "address"
        }
      ],
      "name": "withdrawLiquidity",
      "outputs": [],
      "stateMutability": "nonpayable",
      "type": "function"
    }
  ],
  "bytecode": "0x60806040523480156200001157600080fd5b5060006200001e6200006e565b600080546001600160a01b0319166001600160a01b0383169081178255604051929350917f8be0079c531659141344cd1fd0a4f28419497f9722a3daafe3b4186f6b6457e0908290a35062000072565b3390565b61349480620000826000396000f3fe608060405234801561001057600080fd5b50600436106101a35760003560e01c80638619344b116100ee578063a0cffa5911610097578063cd3293de11610071578063cd3293de1461081f578063dc3ff57514610827578063ec46bd7d1461097b578063f2fde38b146109de576101a3565b8063a0cffa5914610781578063a25587c2146107c7578063b424df80146107f0576101a3565b806396082ac2116100c857806396082ac2146104e157806399e2946b1461073c5780639abc832014610779576101a3565b80638619344b1461048a5780638da5cb5b146104a757806395e17d84146104af576101a3565b806343cd8f7e116101505780636d966d011161012a5780636d966d01146103cd578063715018a61461042757806382e0d6371461042f576101a3565b806343cd8f7e146103805780635e9f9613146103885780635fa1e11814610390576101a3565b806330bb06371161018157806330bb0637146102e45780633a98ef3914610342578063408cfe241461035c576101a3565b806306fdde03146101a85780630e619aeb1461022557806326399b6814610267575b600080fd5b6101b0610a04565b6040805160208082528351818301528351919283929083019185019080838360005b838110156101ea5781810151838201526020016101d2565b50505050905090810190601f1680156102175780820380516001836020036101000a031916815260200191505b509250505060405180910390f35b61024b6004803603602081101561023b57600080fd5b50356001600160a01b0316610a92565b604080516001600160701b039092168252519081900360200190f35b6102b9600480360360a081101561027d57600080fd5b5080356001600160a01b039081169160208101359091169060408101359060608101356001600160701b0316906080013563ffffffff16610aad565b604080516001600160a01b0390931683526001600160701b0390911660208301528051918290030190f35b61024b600480360360c08110156102fa57600080fd5b506001600160a01b0381358116916020810135909116906001600160701b036040820135169063ffffffff606082013581169160ff6080820135169160a09091013516610bdf565b61034a610eec565b60408051918252519081900360200190f35b610364610ef2565b604080516001600160a01b039092168252519081900360200190f35b610364610f01565b61034a610f10565b6103cb600480360360608110156103a657600080fd5b5080356001600160a01b031690602081013590604001356001600160701b0316610f16565b005b6103f3600480360360208110156103e357600080fd5b50356001600160a01b031661111a565b604080519485526001600160701b03909316602085015263ffffffff91821684840152166060830152519081900360800190f35b6103cb611158565b6103cb600480360360c081101561044557600080fd5b5080356001600160a01b039081169160208101359091169060408101356001600160701b031690606081013590608081013563ffffffff169060a0013560ff16611216565b610364600480360360208110156104a057600080fd5b5035611591565b6103646115bb565b6103cb600480360360608110156104c557600080fd5b50803590602081013590604001356001600160a01b03166115ca565b6103cb600480360360e08110156104f757600080fd5b81019060208101813564010000000081111561051257600080fd5b82018360208201111561052457600080fd5b8035906020019184600183028401116401000000008311171561054657600080fd5b91908080601f016020809104026020016040519081016040528093929190818152602001838380828437600092019190915250929594936020810193503591505064010000000081111561059957600080fd5b8201836020820111156105ab57600080fd5b803590602001918460018302840111640100000000831117156105cd57600080fd5b91908080601f016020809104026020016040519081016040528093929190818152602001838380828437600092019190915250929563ffffffff85358116966001600160701b03602088013516966040810135909216955091935090915060808101906060013564010000000081111561064657600080fd5b82018360208201111561065857600080fd5b8035906020019184602083028401116401000000008311171561067a57600080fd5b91908080602002602001604051908101604052809392919081815260200183836020028082843760009201919091525092959493602081019350359150506401000000008111156106ca57600080fd5b8201836020820111156106dc57600080fd5b803590602001918460208302840111640100000000831117156106fe57600080fd5b9190808060200260200160405190810160405280939291908181526020018383602002808284376000920191909152509295506117ba945050505050565b6107626004803603602081101561075257600080fd5b50356001600160a01b0316611d6b565b6040805160019290920b8252519081900360200190f35b6101b0611d80565b6107b36004803603604081101561079757600080fd5b5080356001600160a01b0316906020013563ffffffff16611ddb565b604080519115158252519081900360200190f35b6103cb600480360360408110156107dd57600080fd5b508035906020013563ffffffff16611e61565b6107b36004803603604081101561080657600080fd5b5080356001600160a01b0316906020013560ff16611f5c565b61034a611fd0565b6103cb600480360360a081101561083d57600080fd5b81019060208101813564010000000081111561085857600080fd5b82018360208201111561086a57600080fd5b8035906020019184600183028401116401000000008311171561088c57600080fd5b91908080601f01602080910402602001604051908101604052809392919081815260200183838082843760009201919091525092956001600160a01b038535169590949093506040810192506020013590506401000000008111156108f057600080fd5b82018360208201111561090257600080fd5b8035906020019184600183028401116401000000008311171561092457600080fd5b91908080601f016020809104026020016040519081016040528093929190818152602001838380828437600092019190915250929550506001600160a01b038335811694506020909301359092169150611fd69050565b6109b66004803603606081101561099157600080fd5b5080356001600160a01b031690602081013563ffffffff16906040013560ff16612538565b604080516001600160701b03909316835263ffffffff90911660208301528051918290030190f35b6103cb600480360360208110156109f457600080fd5b50356001600160a01b0316612573565b6008805460408051602060026001851615610100026000190190941693909304601f81018490048402820184019092528181529291830182828015610a8a5780601f10610a5f57610100808354040283529160200191610a8a565b820191906000526020600020905b815481529060010190602001808311610a6d57829003601f168201915b505050505081565b600d602052600090815260409020546001600160701b031681565b6000806000806000806000610ac18a612687565b94509450945094509450600c6001830361ffff1681548110610adf57fe5b9060005260206000200160009054906101000a90046001600160a01b0316965060008c6001600160a01b031662fdd58e8d8d6040518363ffffffff1660e01b815260040180836001600160a01b031681526020018281526020019250505060206040518083038186803b158015610b5557600080fd5b505afa158015610b69573d6000803e3d6000fd5b505050506040513d6020811015610b7f57600080fd5b5051905080610b98575060009550610bd5945050505050565b808a610bba88858860ff168b8b0363ffffffff1681610bb357fe5b048e61281e565b026001600160701b031681610bcb57fe5b0496505050505050505b9550959350505050565b6000610beb8785611ddb565b610c3c576040805162461bcd60e51b815260206004820152601460248201527f4475726174696f6e206e6f7420616c6c6f776564000000000000000000000000604482015290519081900360640190fd5b610c468784611f5c565b610c97576040805162461bcd60e51b815260206004820152601560248201527f437572766174757265206e6f7420616c6c6f7765640000000000000000000000604482015290519081900360640190fd5b600554856001600160701b03161115610cf7576040805162461bcd60e51b815260206004820152601a60248201527f546f6f206c6f7720617661696c61626c65207265736572766573000000000000604482015290519081900360640190fd5b6001600160a01b03871660009081526009602090815260408083208151815460e09481028201850190935260c08101838152909391928492849190840182828015610d8d57602002820191906000526020600020906000905b82829054906101000a900463ffffffff1663ffffffff1681526020019060040190602082600301049283019260010382029150808411610d505790505b5050505050815260200160018201805480602002602001604051908101604052809291908181526020018280548015610e0357602002820191906000526020600020906000905b825461010083900a900460ff16815260206001928301818104948501949093039092029101808411610dd45790505b5050509183525050600282015460208201526003909101546001600160701b038082166040840152600160701b820463ffffffff908116606080860191909152600160901b9093048116608094850152918401519284015160a0850151949550928116918916908a160202607087900360ff161c91600091610e879184908861281e565b90506000886001600160701b031660055403600454836001600160701b03160281610eae57fe5b04905060006001600160701b038211610ec75781610ed0565b6001600160701b035b9050610edc818c612975565b9c9b505050505050505050505050565b60065481565b6002546001600160a01b031681565b6001546001600160a01b031681565b60055481565b6000836001600160a01b031662fdd58e33856040518363ffffffff1660e01b815260040180836001600160a01b031681526020018281526020019250505060206040518083038186803b158015610f6c57600080fd5b505afa158015610f80573d6000803e3d6000fd5b505050506040513d6020811015610f9657600080fd5b505190506001600160701b038216811015610ff8576040805162461bcd60e51b815260206004820152601c60248201527f43616e2774206275726e206d6f726520746861742062616c616e636500000000604482015290519081900360640190fd5b6000806110088633878742610aad565b915091506000611017866129cb565b80546dffffffffffffffffffffffffffff1981166001600160701b039182168590038216178255600580548883169081019091556001600160a01b038a811660009081526009602052604090206002018054929092039091559192506110839185169033908516612b5d565b604080517ff5298aca000000000000000000000000000000000000000000000000000000008152336004820152602481018890526001600160701b038416604482015290516001600160a01b0389169163f5298aca91606480830192600092919082900301818387803b1580156110f957600080fd5b505af115801561110d573d6000803e3d6000fd5b5050505050505050505050565b600960205260009081526040902060028101546003909101546001600160701b0381169063ffffffff600160701b8204811691600160901b90041684565b611160612be2565b6001600160a01b03166111716115bb565b6001600160a01b0316146111cc576040805162461bcd60e51b815260206004820181905260248201527f4f776e61626c653a2063616c6c6572206973206e6f7420746865206f776e6572604482015290519081900360640190fd5b600080546040516001600160a01b03909116907f8be0079c531659141344cd1fd0a4f28419497f9722a3daafe3b4186f6b6457e0908390a3600080546001600160a01b0319169055565b6001600160a01b0385166000908152600b6020526040812054600190810b900b136112725760405162461bcd60e51b81526004018080602001828103825260338152602001806133d76033913960400191505060405180910390fd5b61127c8683611ddb565b6112cd576040805162461bcd60e51b815260206004820152601460248201527f4475726174696f6e206e6f7420616c6c6f776564000000000000000000000000604482015290519081900360640190fd5b6112d78682611f5c565b611328576040805162461bcd60e51b815260206004820152601560248201527f437572766174757265206e6f7420616c6c6f7765640000000000000000000000604482015290519081900360640190fd5b600554846001600160701b03161115611388576040805162461bcd60e51b815260206004820152601560248201527f496e73756666696369656e742072657365727665730000000000000000000000604482015290519081900360640190fd5b6000611398878787868642610bdf565b905083816001600160701b031611156113f8576040805162461bcd60e51b815260206004820152601060248201527f536c69707061676520746f6f2062696700000000000000000000000000000000604482015290519081900360640190fd5b6114166001600160a01b03871633306001600160701b038516612be6565b600580546001600160701b038716908190039091556001600160a01b03808916600090815260096020908152604080832060020180549095019094559189168152600b9091529081205461147590429086820190869060010b86612c74565b604080517f731133e9000000000000000000000000000000000000000000000000000000008152336004820152602481018390526001600160701b03891660448201526080606482015260006084820181905291519293506001600160a01b038b169263731133e99260a48084019391929182900301818387803b1580156114fc57600080fd5b505af1158015611510573d6000803e3d6000fd5b50505050600061151f826129cb565b80546001600160701b038082168601166dffffffffffffffffffffffffffff199091161781556040805184815290519192506001600160a01b038b16917fac59582e5396aca512fa873a2047e7f4c80f8f55d4a06cb34a78a0187f62719f9181900360200190a2505050505050505050565b600c81815481106115a157600080fd5b6000918252602090912001546001600160a01b0316905081565b6000546001600160a01b031690565b600254604080517efdd58e0000000000000000000000000000000000000000000000000000000081523360048201526024810185905290516000926001600160a01b03169162fdd58e916044808301926020929190829003018186803b15801561163357600080fd5b505afa158015611647573d6000803e3d6000fd5b505050506040513d602081101561165d57600080fd5b50519050838110156116b6576040805162461bcd60e51b815260206004820152601460248201527f496e73756666696369656e742062616c616e6365000000000000000000000000604482015290519081900360640190fd5b6000600654856116c4612cb6565b02816116cc57fe5b60015491900491506001600160a01b03848116911614611733576040805162461bcd60e51b815260206004820152601160248201527f4e6f7420737570706f7274656420796574000000000000000000000000000000604482015290519081900360640190fd5b60055481111561178a576040805162461bcd60e51b815260206004820152601660248201527f496e73756666696369656e74206c697175696469747900000000000000000000604482015290519081900360640190fd5b6001546117a1906001600160a01b03163383612b5d565b6004805482900390556005805491909103905550505050565b600154604080517f95d89b4100000000000000000000000000000000000000000000000000000000815290516000926001600160a01b0316916395d89b419160048083019286929190829003018186803b15801561181757600080fd5b505afa15801561182b573d6000803e3d6000fd5b505050506040513d6000823e601f3d908101601f19168201604052602081101561185457600080fd5b810190808051604051939291908464010000000082111561187457600080fd5b90830190602082018581111561188957600080fd5b82516401000000008111828201881017156118a357600080fd5b82525081516020918201929091019080838360005b838110156118d05781810151838201526020016118b8565b50505050905090810190601f1680156118fd5780820380516001836020036101000a031916815260200191505b506040525050509050600081886040516020018083805190602001908083835b6020831061193c5780518252601f19909201916020918201910161191d565b6001836020036101000a038019825116818451168082178552505050505050905001807f200000000000000000000000000000000000000000000000000000000000000081525060010182805190602001908083835b602083106119b15780518252601f199092019160209182019101611992565b6001836020036101000a0380198251168184511680821785525050505050509050019250505060405160208183030381529060405290506000611a11600360009054906101000a90046001600160a01b03166001600160a01b0316612d2d565b9050806001600160a01b03166359f0bee98b8460078c6040518563ffffffff1660e01b8152600401808060200180602001806020018563ffffffff168152602001848103845288818151815260200191508051906020019080838360005b83811015611a87578181015183820152602001611a6f565b50505050905090810190601f168015611ab45780820380516001836020036101000a031916815260200191505b50848103835287518152875160209182019189019080838360005b83811015611ae7578181015183820152602001611acf565b50505050905090810190601f168015611b145780820380516001836020036101000a031916815260200191505b50848103825286546002600019610100600184161502019091160480825260209091019087908015611b875780601f10611b5c57610100808354040283529160200191611b87565b820191906000526020600020905b815481529060010190602001808311611b6a57829003601f168201915b5050975050505050505050600060405180830381600087803b158015611bac57600080fd5b505af1158015611bc0573d6000803e3d6000fd5b505050506001600160a01b03811660009081526009602090815260409091208651611bed928801906131b6565b506001600160a01b03811660009081526009602090815260409091208551611c1d92600190920191870190613265565b508660096000836001600160a01b03166001600160a01b0316815260200190815260200160002060030160006101000a8154816001600160701b0302191690836001600160701b031602179055508560096000836001600160a01b03166001600160a01b0316815260200190815260200160002060030160126101000a81548163ffffffff021916908363ffffffff1602179055504260096000836001600160a01b03166001600160a01b03168152602001908152602001600020600301600e6101000a81548163ffffffff021916908363ffffffff160217905550806001600160a01b03167f9a57b384ed8b33098a5a53cb7b380bc8d9aebeecdabb44f362a2d91d8ce7aed7898989604051808463ffffffff168152602001836001600160701b031681526020018263ffffffff168152602001935050505060405180910390a250505050505050505050565b600b6020526000908152604090205460010b81565b6007805460408051602060026001851615610100026000190190941693909304601f81018490048402820184019092528181529291830182828015610a8a5780601f10610a5f57610100808354040283529160200191610a8a565b6001600160a01b03821660009081526009602052604081208054825b81811015611e53578463ffffffff16836000018281548110611e1557fe5b6000918252602090912060088204015460079091166004026101000a900463ffffffff161415611e4b5760019350505050611e5b565b600101611df7565b506000925050505b92915050565b600154611e79906001600160a01b0316333085612be6565b600480548301905560058054830190556000611e93612cb6565b9050600060065460001415611ea9575082611eba565b81846006540281611eb657fe5b0490505b600254604080517f156e29f600000000000000000000000000000000000000000000000000000000815233600482015263ffffffff86166024820181905260448201859052915191926001600160a01b03169163156e29f69160648082019260009290919082900301818387803b158015611f3457600080fd5b505af1158015611f48573d6000803e3d6000fd5b505060068054909401909355505050505050565b6001600160a01b03821660009081526009602052604081206001810154825b81811015611e53578460ff16836001018281548110611f9657fe5b60009182526020918290209181049091015460ff601f9092166101000a9004161415611fc85760019350505050611e5b565b600101611f7b565b60045481565b6001546001600160a01b031615612034576040805162461bcd60e51b815260206004820152601c60248201527f436f6e747261637420616c726561647920696e697469616c697a656400000000604482015290519081900360640190fd5b6001600160a01b03841661208f576040805162461bcd60e51b815260206004820152601f60248201527f496e76616c6964206c697175696469747920746f6b656e206164647265737300604482015290519081900360640190fd5b600180546001600160a01b0319166001600160a01b03861617905582516120bd9060079060208601906132f9565b5084516120d19060089060208801906132f9565b506120db84612ded565b6000846001600160a01b03166395d89b416040518163ffffffff1660e01b815260040160006040518083038186803b15801561211657600080fd5b505afa15801561212a573d6000803e3d6000fd5b505050506040513d6000823e601f3d908101601f19168201604052602081101561215357600080fd5b810190808051604051939291908464010000000082111561217357600080fd5b90830190602082018581111561218857600080fd5b82516401000000008111828201881017156121a257600080fd5b82525081516020918201929091019080838360005b838110156121cf5781810151838201526020016121b7565b50505050905090810190601f1680156121fc5780820380516001836020036101000a031916815260200191505b50604052505050905060008160405160200180807f496e7465726573742042656172696e672000000000000000000000000000000081525060110182805190602001908083835b602083106122625780518252601f199092019160209182019101612243565b6001836020036101000a038019825116818451168082178552505050505050905001915050604051602081830303815290604052905060008260405160200180807f690000000000000000000000000000000000000000000000000000000000000081525060010182805190602001908083835b602083106122f55780518252601f1990920191602091820191016122d6565b6001836020036101000a038019825116818451168082178552505050505050905001915050604051602081830303815290604052905061233d856001600160a01b0316612d2d565b600280546001600160a01b0319166001600160a01b0392831617908190556040517f5f1e6f6d00000000000000000000000000000000000000000000000000000000815230600482018181526080602484019081528751608485015287519490951694635f1e6f6d949293889388938e93909290916044820191606481019160a490910190602089019080838360005b838110156123e55781810151838201526020016123cd565b50505050905090810190601f1680156124125780820380516001836020036101000a031916815260200191505b50848103835286518152865160209182019188019080838360005b8381101561244557818101518382015260200161242d565b50505050905090810190601f1680156124725780820380516001836020036101000a031916815260200191505b50848103825285518152855160209182019187019080838360005b838110156124a557818101518382015260200161248d565b50505050905090810190601f1680156124d25780820380516001836020036101000a031916815260200191505b50975050505050505050600060405180830381600087803b1580156124f657600080fd5b505af115801561250a573d6000803e3d6000fd5b5050600380546001600160a01b0319166001600160a01b039790971696909617909555505050505050505050565b600a6020908152600093845260408085208252928452828420905282529020546001600160701b03811690600160701b900463ffffffff1682565b61257b612be2565b6001600160a01b031661258c6115bb565b6001600160a01b0316146125e7576040805162461bcd60e51b815260206004820181905260248201527f4f776e61626c653a2063616c6c6572206973206e6f7420746865206f776e6572604482015290519081900360640190fd5b6001600160a01b03811661262c5760405162461bcd60e51b815260040180806020018281038252602681526020018061338b6026913960400191505060405180910390fd5b600080546040516001600160a01b03808516939216917f8be0079c531659141344cd1fd0a4f28419497f9722a3daafe3b4186f6b6457e091a3600080546001600160a01b0319166001600160a01b0392909216919091179055565b60e081901c60c082901c63ffffffff1660b883901c60ff1660a884901c61ffff166001600160701b03851684612704576040805162461bcd60e51b815260206004820152600c60248201527f496e76616c69642066726f6d0000000000000000000000000000000000000000604482015290519081900360640190fd5b60008463ffffffff161161275f576040805162461bcd60e51b815260206004820152600a60248201527f496e76616c696420746f00000000000000000000000000000000000000000000604482015290519081900360640190fd5b60008360ff16116127b7576040805162461bcd60e51b815260206004820152601160248201527f496e76616c696420637572766174757265000000000000000000000000000000604482015290519081900360640190fd5b6000816001600160701b031611612815576040805162461bcd60e51b815260206004820152601060248201527f496e76616c696420696e74657265737400000000000000000000000000000000604482015290519081900360640190fd5b91939590929450565b60008463ffffffff168263ffffffff161015612881576040805162461bcd60e51b815260206004820152600e60248201527f496e76616c696420706572696f64000000000000000000000000000000000000604482015290519081900360640190fd5b84820391508263ffffffff168263ffffffff168161289b57fe5b0463ffffffff16846001600160701b0316901c93508263ffffffff168263ffffffff16816128c557fe5b06915063ffffffff821615806128e257506001600160701b038416155b156128ee57508261296d565b60006001600160701b0385168163ffffffff86811690861671b17217f7d1cf79abc9e3b39803f2f6af40f3028161292157fe5b049050600160901b5b82156129665792820192808284028161293f57fe5b0493849003939250600160901b01808284028161295857fe5b049250600160901b0161292a565b5091925050505b949350505050565b6001546000906001600160a01b038381169116146129c45760405162461bcd60e51b815260040180806020018281038252602b81526020018061340a602b913960400191505060405180910390fd5b5090919050565b60008060008060006129dc86612687565b5093509350935093506000600c6001830361ffff16815481106129fb57fe5b60009182526020808320909101546001600160a01b0316808352600a8252604080842063ffffffff8a8a0381811680885292865283872060ff8b1680895296529286208054909c50939650919493612a7093600160701b8104909316926001600160701b03169181612a6957fe5b044261281e565b88546001546001600160701b039091169190910391506001600160a01b0384811691161415612abb57600480546001600160701b038316908101909155600580549091019055612afa565b6001600160a01b0383166000908152600d6020526040902080546001600160701b038082168401166dffffffffffffffffffffffffffff199091161790555b87546dffffffffffffffffffffffffffff1981166001600160701b039182169290920316177fffffffffffffffffffffffffffff00000000ffffffffffffffffffffffffffff16600160701b4263ffffffff160217875550949695505050505050565b604080516001600160a01b038416602482015260448082018490528251808303909101815260649091019091526020810180517bffffffffffffffffffffffffffffffffffffffffffffffffffffffff167fa9059cbb00000000000000000000000000000000000000000000000000000000179052612bdd908490612ee7565b505050565b3390565b604080516001600160a01b0380861660248301528416604482015260648082018490528251808303909101815260849091019091526020810180517bffffffffffffffffffffffffffffffffffffffffffffffffffffffff167f23b872dd00000000000000000000000000000000000000000000000000000000179052612c6e908590612ee7565b50505050565b6000816001600160701b031660a88461ffff16901b60b88660ff16901b60c08863ffffffff16901b60e08a63ffffffff16901b17171717905095945050505050565b600454600c5460005b81811015612d28576000600c8281548110612cd657fe5b60009182526020808320909101546001600160a01b0316808352600d909152604090912054909150612d11906001600160701b031682612975565b6001600160701b0316939093019250600101612cbf565b505090565b60006040517f3d602d80600a3d3981f3363d3d373d3d3d363d7300000000000000000000000081528260601b60148201527f5af43d82803e903d91602b57fd5bf3000000000000000000000000000000000060288201526037816000f09150506001600160a01b038116612de8576040805162461bcd60e51b815260206004820152601660248201527f455243313136373a20637265617465206661696c656400000000000000000000604482015290519081900360640190fd5b919050565b6001600160a01b0381166000908152600b6020526040902054600190810b900b612e8757600c8054600180820183557fdf6966c971051c3d54ec59162606531493a51404a002842f56009d7e5cf4a8c790910180546001600160a01b0319166001600160a01b03851690811790915591546000928352600b6020526040909220805461ffff191661ffff9390920b92909216179055612ee4565b6001600160a01b0381166000908152600b6020526040812054600190810b900b1215612ee4576001600160a01b0381166000908152600b602052604081208054600181810b90930390920b61ffff1661ffff199092169190911790555b50565b6000612f3c826040518060400160405280602081526020017f5361666545524332303a206c6f772d6c6576656c2063616c6c206661696c6564815250856001600160a01b0316612f989092919063ffffffff16565b805190915015612bdd57808060200190516020811015612f5b57600080fd5b5051612bdd5760405162461bcd60e51b815260040180806020018281038252602a815260200180613435602a913960400191505060405180910390fd5b6060612fa78484600085612fb1565b90505b9392505050565b606082471015612ff25760405162461bcd60e51b81526004018080602001828103825260268152602001806133b16026913960400191505060405180910390fd5b612ffb8561310c565b61304c576040805162461bcd60e51b815260206004820152601d60248201527f416464726573733a2063616c6c20746f206e6f6e2d636f6e7472616374000000604482015290519081900360640190fd5b600080866001600160a01b031685876040518082805190602001908083835b6020831061308a5780518252601f19909201916020918201910161306b565b6001836020036101000a03801982511681845116808217855250505050505090500191505060006040518083038185875af1925050503d80600081146130ec576040519150601f19603f3d011682016040523d82523d6000602084013e6130f1565b606091505b5091509150613101828286613112565b979650505050505050565b3b151590565b60608315613121575081612faa565b8251156131315782518084602001fd5b8160405162461bcd60e51b81526004018080602001828103825283818151815260200191508051906020019080838360005b8381101561317b578181015183820152602001613163565b50505050905090810190601f1680156131a85780820380516001836020036101000a031916815260200191505b509250505060405180910390fd5b828054828255906000526020600020906007016008900481019282156132555791602002820160005b8382111561322357835183826101000a81548163ffffffff021916908363ffffffff16021790555092602001926004016020816003010492830192600103026131df565b80156132535782816101000a81549063ffffffff0219169055600401602081600301049283019260010302613223565b505b50613261929150613375565b5090565b82805482825590600052602060002090601f016020900481019282156132555791602002820160005b838211156132cc57835183826101000a81548160ff021916908360ff160217905550926020019260010160208160000104928301926001030261328e565b80156132535782816101000a81549060ff02191690556001016020816000010492830192600103026132cc565b828054600181600116156101000203166002900490600052602060002090601f01602090048101928261332f5760008555613255565b82601f1061334857805160ff1916838001178555613255565b82800160010185558215613255579182015b8281111561325557825182559160200191906001019061335a565b5b80821115613261576000815560010161337656fe4f776e61626c653a206e6577206f776e657220697320746865207a65726f2061646472657373416464726573733a20696e73756666696369656e742062616c616e636520666f722063616c6c496e746572657374207061796d656e7420746f6b656e2069732064697361626c6564206f72206e6f7420737570706f727465644f74686572207061796d656e74206f7074696f6e7320617265206e6f7420737570706f72746564207965745361666545524332303a204552433230206f7065726174696f6e20646964206e6f742073756363656564a26469706673582212201bc2a483dc986fb6e05f8eaa444ddbe53df810aceb4ed0f817d6f2634f5a286f64736f6c63430007060033",
  "linkReferences": {},
  "deployedLinkReferences": {}
}