{
  "_format": "hh-sol-artifact-1",
  "contractName": "Enterprise",
  "sourceName": "contracts/iq/Enterprise.sol",
  "abi": [
    {
      "anonymous": false,
      "inputs": [
        {
          "indexed": true,
          "internalType": "address",
          "name": "powerToken",
          "type": "address"
        },
        {
          "indexed": false,
          "internalType": "uint256",
          "name": "tokenId",
          "type": "uint256"
        }
      ],
      "name": "Borrowed",
      "type": "event"
    },
    {
      "anonymous": false,
      "inputs": [
        {
          "indexed": true,
          "internalType": "address",
          "name": "lender",
          "type": "address"
        },
        {
          "indexed": false,
          "internalType": "uint256",
          "name": "liquidityAmount",
          "type": "uint256"
        },
        {
          "indexed": false,
          "internalType": "uint256",
          "name": "shares",
          "type": "uint256"
        },
        {
          "indexed": false,
          "internalType": "uint256",
          "name": "tokenId",
          "type": "uint256"
        }
      ],
      "name": "Lended",
      "type": "event"
    },
    {
      "anonymous": false,
      "inputs": [
        {
          "indexed": true,
          "internalType": "address",
          "name": "previousOwner",
          "type": "address"
        },
        {
          "indexed": true,
          "internalType": "address",
          "name": "newOwner",
          "type": "address"
        }
      ],
      "name": "OwnershipTransferred",
      "type": "event"
    },
    {
      "anonymous": false,
      "inputs": [
        {
          "indexed": true,
          "internalType": "address",
          "name": "powerToken",
          "type": "address"
        },
        {
          "indexed": false,
          "internalType": "uint32",
          "name": "halfLife",
          "type": "uint32"
        },
        {
          "indexed": false,
          "internalType": "uint112",
          "name": "factor",
          "type": "uint112"
        },
        {
          "indexed": false,
          "internalType": "uint32",
          "name": "interestRateHalvingPeriod",
          "type": "uint32"
        }
      ],
      "name": "ServiceRegistered",
      "type": "event"
    },
    {
      "anonymous": false,
      "inputs": [
        {
          "indexed": true,
          "internalType": "address",
          "name": "lender",
          "type": "address"
        },
        {
          "indexed": false,
          "internalType": "uint256",
          "name": "liquidityAmount",
          "type": "uint256"
        },
        {
          "indexed": false,
          "internalType": "uint256",
          "name": "shares",
          "type": "uint256"
        },
        {
          "indexed": false,
          "internalType": "uint256",
          "name": "tokenId",
          "type": "uint256"
        }
      ],
      "name": "Withdraw",
      "type": "event"
    },
    {
      "inputs": [
        {
          "internalType": "address",
          "name": "newOwner",
          "type": "address"
        }
      ],
      "name": "addOwner",
      "outputs": [],
      "stateMutability": "nonpayable",
      "type": "function"
    },
    {
      "inputs": [
        {
          "internalType": "contract IPowerToken",
          "name": "powerToken",
          "type": "address"
        },
        {
          "internalType": "contract IERC20",
          "name": "interestPaymentToken",
          "type": "address"
        },
        {
          "internalType": "uint112",
          "name": "amount",
          "type": "uint112"
        },
        {
          "internalType": "uint256",
          "name": "maximumInterest",
          "type": "uint256"
        },
        {
          "internalType": "uint32",
          "name": "duration",
          "type": "uint32"
        }
      ],
      "name": "borrow",
      "outputs": [],
      "stateMutability": "nonpayable",
      "type": "function"
    },
    {
      "inputs": [
        {
          "internalType": "address",
          "name": "account",
          "type": "address"
        }
      ],
      "name": "collectedInterest",
      "outputs": [
        {
          "internalType": "uint112",
          "name": "",
          "type": "uint112"
        }
      ],
      "stateMutability": "view",
      "type": "function"
    },
    {
      "inputs": [
        {
          "internalType": "contract IPowerToken",
          "name": "powerToken",
          "type": "address"
        },
        {
          "internalType": "contract IERC20",
          "name": "interestPaymentToken",
          "type": "address"
        },
        {
          "internalType": "uint112",
          "name": "amount",
          "type": "uint112"
        },
        {
          "internalType": "uint32",
          "name": "duration",
          "type": "uint32"
        },
        {
          "internalType": "uint32",
          "name": "estimateAtTimestamp",
          "type": "uint32"
        }
      ],
      "name": "estimateBorrow",
      "outputs": [
        {
          "internalType": "uint112",
          "name": "result",
          "type": "uint112"
        }
      ],
      "stateMutability": "view",
      "type": "function"
    },
    {
      "inputs": [
        {
          "internalType": "uint256",
          "name": "tokenId",
          "type": "uint256"
        }
      ],
      "name": "getBorrowInfo",
      "outputs": [
        {
          "components": [
            {
              "internalType": "contract IPowerToken",
              "name": "powerToken",
              "type": "address"
            },
            {
              "internalType": "uint32",
              "name": "from",
              "type": "uint32"
            },
            {
              "internalType": "uint32",
              "name": "to",
              "type": "uint32"
            },
            {
              "internalType": "uint112",
              "name": "amount",
              "type": "uint112"
            }
          ],
          "internalType": "struct IEnterprise.BorrowInfo",
          "name": "",
          "type": "tuple"
        }
      ],
      "stateMutability": "view",
      "type": "function"
    },
    {
      "inputs": [],
      "name": "getInfo",
      "outputs": [
        {
          "internalType": "uint256",
          "name": "reserve",
          "type": "uint256"
        },
        {
          "internalType": "uint256",
          "name": "availableReserve",
          "type": "uint256"
        },
        {
          "internalType": "uint256",
          "name": "totalShares",
          "type": "uint256"
        },
        {
          "internalType": "string",
          "name": "name",
          "type": "string"
        }
      ],
      "stateMutability": "view",
      "type": "function"
    },
    {
      "inputs": [],
      "name": "getLiquidityToken",
      "outputs": [
        {
          "internalType": "contract IERC20Detailed",
          "name": "",
          "type": "address"
        }
      ],
      "stateMutability": "view",
      "type": "function"
    },
    {
      "inputs": [
        {
          "internalType": "uint256",
          "name": "index",
          "type": "uint256"
        }
      ],
      "name": "getPowerToken",
      "outputs": [
        {
          "internalType": "contract IPowerToken",
          "name": "",
          "type": "address"
        }
      ],
      "stateMutability": "view",
      "type": "function"
    },
    {
      "inputs": [],
      "name": "getPowerTokens",
      "outputs": [
        {
          "internalType": "contract IPowerToken[]",
          "name": "",
          "type": "address[]"
        }
      ],
      "stateMutability": "view",
      "type": "function"
    },
    {
      "inputs": [],
      "name": "getPowerTokensInfo",
      "outputs": [
        {
          "internalType": "address[]",
          "name": "addresses",
          "type": "address[]"
        },
        {
          "internalType": "string[]",
          "name": "names",
          "type": "string[]"
        },
        {
          "internalType": "string[]",
          "name": "symbols",
          "type": "string[]"
        },
        {
          "internalType": "uint32[]",
          "name": "halfLifes",
          "type": "uint32[]"
        }
      ],
      "stateMutability": "view",
      "type": "function"
    },
    {
      "inputs": [],
      "name": "iToken",
      "outputs": [
        {
          "internalType": "contract IInterestToken",
          "name": "",
          "type": "address"
        }
      ],
      "stateMutability": "view",
      "type": "function"
    },
    {
      "inputs": [
        {
          "internalType": "string",
          "name": "enterpriseName",
          "type": "string"
        },
        {
          "internalType": "address",
          "name": "liquidityToken",
          "type": "address"
        },
        {
          "internalType": "string",
          "name": "baseUri",
          "type": "string"
        },
        {
          "internalType": "address",
          "name": "interestTokenImpl",
          "type": "address"
        },
        {
          "internalType": "address",
          "name": "borrowTokenImpl",
          "type": "address"
        },
        {
          "internalType": "address",
          "name": "powerTokenImpl",
          "type": "address"
        },
        {
          "internalType": "address",
          "name": "owner",
          "type": "address"
        }
      ],
      "name": "initialize",
      "outputs": [],
      "stateMutability": "nonpayable",
      "type": "function"
    },
    {
      "inputs": [
        {
          "internalType": "address",
          "name": "initialOwner",
          "type": "address"
        }
      ],
      "name": "initialize",
      "outputs": [],
      "stateMutability": "nonpayable",
      "type": "function"
    },
    {
      "inputs": [
        {
          "internalType": "address",
          "name": "account",
          "type": "address"
        }
      ],
      "name": "isOwner",
      "outputs": [
        {
          "internalType": "bool",
          "name": "",
          "type": "bool"
        }
      ],
      "stateMutability": "view",
      "type": "function"
    },
    {
      "inputs": [
        {
          "internalType": "uint256",
          "name": "liquidityAmount",
          "type": "uint256"
        },
        {
          "internalType": "uint32",
          "name": "halfWithdrawPeriod",
          "type": "uint32"
        }
      ],
      "name": "lend",
      "outputs": [],
      "stateMutability": "nonpayable",
      "type": "function"
    },
    {
      "inputs": [
        {
          "internalType": "string",
          "name": "serviceName",
          "type": "string"
        },
        {
          "internalType": "string",
          "name": "symbol",
          "type": "string"
        },
        {
          "internalType": "uint32",
          "name": "halfLife",
          "type": "uint32"
        },
        {
          "internalType": "uint112",
          "name": "factor",
          "type": "uint112"
        },
        {
          "internalType": "uint32",
          "name": "interestRateHalvingPeriod",
          "type": "uint32"
        },
        {
          "internalType": "uint32[]",
          "name": "allowedLoanDurations",
          "type": "uint32[]"
        }
      ],
      "name": "registerService",
      "outputs": [],
      "stateMutability": "nonpayable",
      "type": "function"
    },
    {
      "inputs": [],
      "name": "renounceOwnership",
      "outputs": [],
      "stateMutability": "nonpayable",
      "type": "function"
    },
    {
      "inputs": [
        {
          "internalType": "uint256",
          "name": "tokenId",
          "type": "uint256"
        }
      ],
      "name": "returnBorrowed",
      "outputs": [],
      "stateMutability": "nonpayable",
      "type": "function"
    },
    {
      "inputs": [
        {
          "internalType": "address",
          "name": "token",
          "type": "address"
        },
        {
          "internalType": "uint32",
          "name": "duration",
          "type": "uint32"
        }
      ],
      "name": "states",
      "outputs": [
        {
          "components": [
            {
              "internalType": "uint112",
              "name": "plannedBalance",
              "type": "uint112"
            },
            {
              "internalType": "uint32",
              "name": "timestamp",
              "type": "uint32"
            }
          ],
          "internalType": "struct Enterprise.State",
          "name": "",
          "type": "tuple"
        }
      ],
      "stateMutability": "view",
      "type": "function"
    },
    {
      "inputs": [
        {
          "internalType": "uint256",
          "name": "index",
          "type": "uint256"
        }
      ],
      "name": "supportedInterestTokens",
      "outputs": [
        {
          "internalType": "address",
          "name": "",
          "type": "address"
        }
      ],
      "stateMutability": "view",
      "type": "function"
    },
    {
      "inputs": [
        {
          "internalType": "address",
          "name": "token",
          "type": "address"
        }
      ],
      "name": "supportedInterestTokensIndex",
      "outputs": [
        {
          "internalType": "int16",
          "name": "",
          "type": "int16"
        }
      ],
      "stateMutability": "view",
      "type": "function"
    },
    {
      "inputs": [
        {
          "internalType": "address",
          "name": "currentOwner",
          "type": "address"
        },
        {
          "internalType": "address",
          "name": "newOwner",
          "type": "address"
        }
      ],
      "name": "transferOwnership",
      "outputs": [],
      "stateMutability": "nonpayable",
      "type": "function"
    },
    {
      "inputs": [
        {
          "internalType": "contract IPowerToken",
          "name": "token",
          "type": "address"
        },
        {
          "internalType": "uint256",
          "name": "amount",
          "type": "uint256"
        }
      ],
      "name": "unwrap",
      "outputs": [
        {
          "internalType": "bool",
          "name": "",
          "type": "bool"
        }
      ],
      "stateMutability": "nonpayable",
      "type": "function"
    },
    {
      "inputs": [
        {
          "internalType": "uint256",
          "name": "sharesAmount",
          "type": "uint256"
        },
        {
          "internalType": "uint256",
          "name": "tokenId",
          "type": "uint256"
        },
        {
          "internalType": "address",
          "name": "interestToken",
          "type": "address"
        }
      ],
      "name": "withdrawLiquidity",
      "outputs": [],
      "stateMutability": "nonpayable",
      "type": "function"
    },
    {
      "inputs": [
        {
          "internalType": "contract IPowerToken",
          "name": "token",
          "type": "address"
        },
        {
          "internalType": "uint256",
          "name": "amount",
          "type": "uint256"
        }
      ],
      "name": "wrap",
      "outputs": [
        {
          "internalType": "bool",
          "name": "",
          "type": "bool"
        }
      ],
      "stateMutability": "nonpayable",
      "type": "function"
    },
    {
      "inputs": [
        {
          "internalType": "contract IPowerToken",
          "name": "token",
          "type": "address"
        },
        {
          "internalType": "address",
          "name": "to",
          "type": "address"
        },
        {
          "internalType": "uint256",
          "name": "amount",
          "type": "uint256"
        }
      ],
      "name": "wrapTo",
      "outputs": [
        {
          "internalType": "bool",
          "name": "",
          "type": "bool"
        }
      ],
      "stateMutability": "nonpayable",
      "type": "function"
    }
  ],
  "bytecode": "0x608060405234801561001057600080fd5b50613a8d806100206000396000f3fe608060405234801561001057600080fd5b50600436106101ae5760003560e01c8063715018a6116100ee578063b96266fa11610097578063c4d66de811610071578063c4d66de814610399578063d3ee5e8b146103ac578063e2b17a16146103bf578063faaed4ad146103d2576101ae565b8063b96266fa1461035e578063bb5c0ba614610373578063bf376c7a14610386576101ae565b806395e17d84116100c857806395e17d841461031857806399e2946b1461032b578063a25587c21461034b576101ae565b8063715018a6146102ea5780637cf59c5d146102f25780638619344b14610305576101ae565b806339f476931161015b5780635a9b0b89116101355780635a9b0b89146102a4578063644e44df146102bc5780636d435421146102c45780637065cb48146102d7576101ae565b806339f47693146102715780633d4df89714610284578063408cfe241461029c576101ae565b806320e602131161018c57806320e602131461021c5780632f54bf6e14610231578063347297cf14610251576101ae565b806304196058146101b35780630e137368146101dc5780630e619aeb146101fc575b600080fd5b6101c66101c1366004612f85565b6103e5565b6040516101d3919061324b565b60405180910390f35b6101ef6101ea366004612f85565b610411565b6040516101d39190613820565b61020f61020a366004612b1a565b61047f565b6040516101d39190613894565b61022f61022a366004612d7e565b6104a3565b005b61024461023f366004612b1a565b610835565b6040516101d39190613393565b61026461025f366004612b8a565b610853565b6040516101d3919061386e565b61024461027f366004612ce0565b6108b1565b61028c610950565b6040516101d394939291906132c7565b6101c6610ca2565b6102ac610cb1565b6040516101d394939291906138c7565b6101c6610d6d565b61022f6102d2366004612b52565b610d7c565b61022f6102e5366004612b1a565b610eff565b61022f611010565b61022f610300366004612e40565b6110c6565b6101c6610313366004612f85565b611389565b61022f610326366004612fb5565b611398565b61033e610339366004612b1a565b61152c565b6040516101d391906133fd565b61022f610359366004612fed565b61154a565b610366611664565b6040516101d39190613346565b61020f610381366004612c7e565b6116c6565b610244610394366004612ce0565b611972565b61022f6103a7366004612b1a565b6119f9565b61022f6103ba366004612f85565b611a8a565b61022f6103cd366004612c17565b611c8e565b6102446103e0366004612bd7565b612070565b6000600e82815481106103f457fe5b6000918252602090912001546001600160a01b031690505b919050565b6104196129ea565b506000908152600d6020908152604091829020825160808101845281546001600160a01b038116825263ffffffff600160a01b8204811694830194909452600160c01b9004909216928201929092526001909101546001600160701b0316606082015290565b6001600160a01b03166000908152600f60205260409020546001600160701b031690565b6002546001600160a01b0316156104d55760405162461bcd60e51b81526004016104cc9061377b565b60405180910390fd5b6001600160a01b0386166104fb5760405162461bcd60e51b81526004016104cc9061370d565b6040517fc4d66de8000000000000000000000000000000000000000000000000000000008152309063c4d66de89061053790849060040161324b565b600060405180830381600087803b15801561055157600080fd5b505af1158015610565573d6000803e3d6000fd5b5050600280546001600160a01b0319166001600160a01b038a16179055505086516105979060099060208a0190612a11565b506105a1866120fa565b600254604080516395d89b4160e01b815290516000926001600160a01b0316916395d89b419160048083019286929190829003018186803b1580156105e557600080fd5b505afa1580156105f9573d6000803e3d6000fd5b505050506040513d6000823e601f3d908101601f191682016040526106219190810190612d0b565b90506000816040516020016106369190613144565b604051602081830303815290604052905060008260405160200161065a9190613213565b604051602081830303815290604052905061067d876001600160a01b03166121f4565b600380546001600160a01b0319166001600160a01b0392831617908190556040517f4cd88b76000000000000000000000000000000000000000000000000000000008152911690634cd88b76906106da908590859060040161340b565b600060405180830381600087803b1580156106f457600080fd5b505af1158015610708573d6000803e3d6000fd5b5050505060008360405160200161071f9190613189565b604051602081830303815290604052905060008460405160200161074391906131ce565b6040516020818303038152906040529050610766886001600160a01b03166121f4565b600460006101000a8154816001600160a01b0302191690836001600160a01b03160217905550600460009054906101000a90046001600160a01b03166001600160a01b03166308277dda3084848e306040518663ffffffff1660e01b81526004016107d595949392919061339e565b600060405180830381600087803b1580156107ef57600080fd5b505af1158015610803573d6000803e3d6000fd5b5050600580546001600160a01b0319166001600160a01b039a909a169990991790985550505050505050505050505050565b6001600160a01b031660009081526020819052604090205460ff1690565b61085b612a9d565b506001600160a01b0382166000908152600a6020908152604080832063ffffffff8086168552908352928190208151808301909252546001600160701b0381168252600160701b90049092169082015292915050565b6040517f404d61110000000000000000000000000000000000000000000000000000000081526000906001600160a01b0384169063404d6111906108fd903390869086906004016132a4565b600060405180830381600087803b15801561091757600080fd5b505af115801561092b573d6000803e3d6000fd5b505060025461094792506001600160a01b0316905033846122af565b50600192915050565b600e546060908190819081908067ffffffffffffffff8111801561097357600080fd5b5060405190808252806020026020018201604052801561099d578160200160208202803683370190505b5094508067ffffffffffffffff811180156109b757600080fd5b506040519080825280602002602001820160405280156109eb57816020015b60608152602001906001900390816109d65790505b5093508067ffffffffffffffff81118015610a0557600080fd5b50604051908082528060200260200182016040528015610a3957816020015b6060815260200190600190039081610a245790505b5092508067ffffffffffffffff81118015610a5357600080fd5b50604051908082528060200260200182016040528015610a7d578160200160208202803683370190505b50915060005b81811015610c9a576000600e8281548110610a9a57fe5b9060005260206000200160009054906101000a90046001600160a01b0316905080878381518110610ac757fe5b60200260200101906001600160a01b031690816001600160a01b031681525050806001600160a01b03166306fdde036040518163ffffffff1660e01b815260040160006040518083038186803b158015610b2057600080fd5b505afa158015610b34573d6000803e3d6000fd5b505050506040513d6000823e601f3d908101601f19168201604052610b5c9190810190612d0b565b868381518110610b6857fe5b6020026020010181905250806001600160a01b03166395d89b416040518163ffffffff1660e01b815260040160006040518083038186803b158015610bac57600080fd5b505afa158015610bc0573d6000803e3d6000fd5b505050506040513d6000823e601f3d908101601f19168201604052610be89190810190612d0b565b858381518110610bf457fe5b6020026020010181905250806001600160a01b0316637983a29d6040518163ffffffff1660e01b815260040160206040518083038186803b158015610c3857600080fd5b505afa158015610c4c573d6000803e3d6000fd5b505050506040513d601f19601f82011682018060405250810190610c709190613011565b848381518110610c7c57fe5b63ffffffff9092166020928302919091019091015250600101610a83565b505090919293565b6003546001600160a01b031690565b600080600060606006546007546008546009808054600181600116156101000203166002900480601f016020809104026020016040519081016040528092919081815260200182805460018160011615610100020316600290048015610d585780601f10610d2d57610100808354040283529160200191610d58565b820191906000526020600020905b815481529060010190602001808311610d3b57829003601f168201915b50505050509050935093509350935090919293565b6002546001600160a01b031690565b3360009081526020819052604090205460ff161515600114610de5576040805162461bcd60e51b815260206004820181905260248201527f4f776e61626c653a2063616c6c6572206973206e6f7420746865206f776e6572604482015290519081900360640190fd5b6001600160a01b038116610e2a5760405162461bcd60e51b81526004018080602001828103825260268152602001806139df6026913960400191505060405180910390fd5b610e3382610835565b610e84576040805162461bcd60e51b815260206004820152600c60248201527f4e6f7420616e206f776e65720000000000000000000000000000000000000000604482015290519081900360640190fd5b806001600160a01b0316826001600160a01b03167f8be0079c531659141344cd1fd0a4f28419497f9722a3daafe3b4186f6b6457e060405160405180910390a36001600160a01b03918216600090815260208190526040808220805460ff199081169091559290931681529190912080549091166001179055565b3360009081526020819052604090205460ff161515600114610f68576040805162461bcd60e51b815260206004820181905260248201527f4f776e61626c653a2063616c6c6572206973206e6f7420746865206f776e6572604482015290519081900360640190fd5b6001600160a01b038116610fad5760405162461bcd60e51b81526004018080602001828103825260268152602001806139df6026913960400191505060405180910390fd5b6040516001600160a01b038216906000907f8be0079c531659141344cd1fd0a4f28419497f9722a3daafe3b4186f6b6457e0908290a36001600160a01b03166000908152602081905260409020805460ff19166001908117909155805481019055565b3360009081526020819052604090205460ff161515600114611079576040805162461bcd60e51b815260206004820181905260248201527f4f776e61626c653a2063616c6c6572206973206e6f7420746865206f776e6572604482015290519081900360640190fd5b6001805460001901905533600081815260208190526040808220805460ff19169055519091907f8be0079c531659141344cd1fd0a4f28419497f9722a3daafe3b4186f6b6457e0908390a3565b3360009081526020819052604090205460ff16151560011461112f576040805162461bcd60e51b815260206004820181905260248201527f4f776e61626c653a2063616c6c6572206973206e6f7420746865206f776e6572604482015290519081900360640190fd5b600254604080516395d89b4160e01b815290516000926001600160a01b0316916395d89b419160048083019286929190829003018186803b15801561117357600080fd5b505afa158015611187573d6000803e3d6000fd5b505050506040513d6000823e601f3d908101601f191682016040526111af9190810190612d0b565b9050600081876040516020016111c69291906130ec565b60408051601f198184030181529190526005549091506000906111f1906001600160a01b03166121f4565b6040517ff69449e20000000000000000000000000000000000000000000000000000000081529091506001600160a01b0382169063f69449e290611245908c9086908c908a908d908d903090600401613430565b600060405180830381600087803b15801561125f57600080fd5b505af1158015611273573d6000803e3d6000fd5b5050600480546040517f7065cb480000000000000000000000000000000000000000000000000000000081526001600160a01b038087169550637065cb4894506112c0939216910161324b565b600060405180830381600087803b1580156112da57600080fd5b505af11580156112ee573d6000803e3d6000fd5b5050600e80546001810182556000919091527fbb7b4a454dc3493923482f07822329ed19e8244eff582cc204f8554c3620c3fd0180546001600160a01b0319166001600160a01b0385169081179091556040519092507f9a57b384ed8b33098a5a53cb7b380bc8d9aebeecdabb44f362a2d91d8ce7aed79150611376908a908a908a90613907565b60405180910390a2505050505050505050565b6000600c82815481106103f457fe5b6003546040517f70a082310000000000000000000000000000000000000000000000000000000081526000916001600160a01b0316906370a08231906113e290339060040161324b565b60206040518083038186803b1580156113fa57600080fd5b505afa15801561140e573d6000803e3d6000fd5b505050506040513d601f19601f820116820180604052508101906114329190612f9d565b9050838110156114545760405162461bcd60e51b81526004016104cc90613588565b600060085485611462612334565b028161146a57fe5b60025491900491506001600160a01b0384811691161461149c5760405162461bcd60e51b81526004016104cc9061351a565b6007548111156114be5760405162461bcd60e51b81526004016104cc90613551565b6002546114d5906001600160a01b031633836122af565b60068054829003905560078054829003905560405133907f02f25270a4d87bea75db541cdfe559334a275b4a233520ed6c0a2429667cca949061151d908490899089906138b1565b60405180910390a25050505050565b6001600160a01b03166000908152600b602052604090205460010b90565b600254611562906001600160a01b03163330856123ab565b60068054830190556007805483019055600061157c612334565b90506000600854600014156115925750826115a3565b8184600854028161159f57fe5b0490505b6003546040517f40c10f1900000000000000000000000000000000000000000000000000000000815263ffffffff8516916001600160a01b0316906340c10f19906115f4903390869060040161328b565b600060405180830381600087803b15801561160e57600080fd5b505af1158015611622573d6000803e3d6000fd5b50506008805485019055505060405133907f560c6ea1ac218037d9e5136609be27ce891f0cca27a074c47e4304f809f62f5e9061151d908890869086906138b1565b6060600e8054806020026020016040519081016040528092919081815260200182805480156116bc57602002820191906000526020600020905b81546001600160a01b0316815260019091019060200180831161169e575b5050505050905090565b604051636e4d898360e01b81526000906001600160a01b03871690636e4d8983906116f59086906004016138f6565b60206040518083038186803b15801561170d57600080fd5b505afa158015611721573d6000803e3d6000fd5b505050506040513d601f19601f820116820180604052508101906117459190612bb7565b6117615760405162461bcd60e51b81526004016104cc906134ac565b600754846001600160701b0316111561178c5760405162461bcd60e51b81526004016104cc906134e3565b6000606f876001600160a01b0316635184cc436040518163ffffffff1660e01b815260040160206040518083038186803b1580156117c957600080fd5b505afa1580156117dd573d6000803e3d6000fd5b505050506040513d601f19601f820116820180604052508101906118019190612f69565b6001600160701b03168563ffffffff16876001600160701b03160202901c9050600061190f886001600160a01b0316633e42db136040518163ffffffff1660e01b815260040160206040518083038186803b15801561185f57600080fd5b505afa158015611873573d6000803e3d6000fd5b505050506040513d601f19601f820116820180604052508101906118979190613011565b838a6001600160a01b0316636d44ddab6040518163ffffffff1660e01b815260040160206040518083038186803b1580156118d157600080fd5b505afa1580156118e5573d6000803e3d6000fd5b505050506040513d601f19601f820116820180604052508101906119099190613011565b87612439565b90506000866001600160701b031660075403600654836001600160701b0316028161193657fe5b04905060006001600160701b03821161194f5781611958565b6001600160701b035b9050611964818a612590565b9a9950505050505050505050565b60025460009061198d906001600160a01b03163330856123ab565b6040516334686fad60e21b81526001600160a01b0384169063d1a1beb4906119be90339086906000906004016132a4565b600060405180830381600087803b1580156119d857600080fd5b505af11580156119ec573d6000803e3d6000fd5b5060019695505050505050565b60015415611a385760405162461bcd60e51b8152600401808060200182810382526029815260200180613a056029913960400191505060405180910390fd5b6001600160a01b038116600081815260208190526040808220805460ff191660019081179091558055517f8be0079c531659141344cd1fd0a4f28419497f9722a3daafe3b4186f6b6457e0908290a350565b6000818152600d6020526040902080546001600160a01b0316611abf5760405162461bcd60e51b81526004016104cc906135bf565b600480546040517f6352211e0000000000000000000000000000000000000000000000000000000081526000926001600160a01b0390921691636352211e91611b0a918791016138a8565b60206040518083038186803b158015611b2257600080fd5b505afa158015611b36573d6000803e3d6000fd5b505050506040513d601f19601f82011682018060405250810190611b5a9190612b36565b825490915063ffffffff428116600160c01b90920416111580611b8557506001600160a01b03811633145b611ba15760405162461bcd60e51b81526004016104cc906135f6565b611baa836125c7565b506001820154600780546001600160701b039092169091019055600480546040517f42966c680000000000000000000000000000000000000000000000000000000081526001600160a01b03909116916342966c6891611c0c918791016138a8565b600060405180830381600087803b158015611c2657600080fd5b505af1158015611c3a573d6000803e3d6000fd5b50505060009384525050600d602052506040902080547fffffffff0000000000000000000000000000000000000000000000000000000016815560010180546dffffffffffffffffffffffffffff19169055565b6001600160a01b0384166000908152600b6020526040812054600190810b900b13611ccb5760405162461bcd60e51b81526004016104cc90613653565b604051636e4d898360e01b81526001600160a01b03861690636e4d898390611cf79084906004016138f6565b60206040518083038186803b158015611d0f57600080fd5b505afa158015611d23573d6000803e3d6000fd5b505050506040513d601f19601f82011682018060405250810190611d479190612bb7565b611d635760405162461bcd60e51b81526004016104cc906137e9565b600754836001600160701b03161115611d8e5760405162461bcd60e51b81526004016104cc90613744565b6000611d9d86868685426116c6565b905082816001600160701b03161115611dc85760405162461bcd60e51b81526004016104cc906137b2565b611de66001600160a01b03861633306001600160701b0385166123ab565b600780546001600160701b03868116909103908316019055600480546040517f6a6278420000000000000000000000000000000000000000000000000000000081526000926001600160a01b0390921691636a62784291611e499133910161324b565b602060405180830381600087803b158015611e6357600080fd5b505af1158015611e77573d6000803e3d6000fd5b505050506040513d601f19601f82011682018060405250810190611e9b9190612f9d565b6040516334686fad60e21b81529091506001600160a01b0388169063d1a1beb490611ecf903390899060019060040161325f565b600060405180830381600087803b158015611ee957600080fd5b505af1158015611efd573d6000803e3d6000fd5b5050604080516080810182526001600160a01b038b811682524263ffffffff8181166020808601918252928b0182168587019081526001600160701b038e81166060880190815260008c8152600d90965297852096518754935192516001600160a01b03199094169616959095177fffffffffffffffff00000000ffffffffffffffffffffffffffffffffffffffff16600160a01b91841691909102177fffffffff00000000ffffffffffffffffffffffffffffffffffffffffffffffff16600160c01b91909216021783559251600190920180546dffffffffffffffffffffffffffff1916929091169190911790559150611ffa9050826125c7565b80546001600160701b038082168601166dffffffffffffffffffffffffffff199091161781556040519091506001600160a01b038916907fac59582e5396aca512fa873a2047e7f4c80f8f55d4a06cb34a78a0187f62719f9061205e9085906138a8565b60405180910390a25050505050505050565b60025460009061208b906001600160a01b03163330856123ab565b6040516334686fad60e21b81526001600160a01b0385169063d1a1beb4906120bc90869086906000906004016132a4565b600060405180830381600087803b1580156120d657600080fd5b505af11580156120ea573d6000803e3d6000fd5b50505050600190505b9392505050565b6001600160a01b0381166000908152600b6020526040902054600190810b900b61219457600c8054600180820183557fdf6966c971051c3d54ec59162606531493a51404a002842f56009d7e5cf4a8c790910180546001600160a01b0319166001600160a01b03851690811790915591546000928352600b6020526040909220805461ffff191661ffff9390920b929092161790556121f1565b6001600160a01b0381166000908152600b6020526040812054600190810b900b12156121f1576001600160a01b0381166000908152600b602052604081208054600181810b90930390920b61ffff1661ffff199092169190911790555b50565b60006040517f3d602d80600a3d3981f3363d3d373d3d3d363d7300000000000000000000000081528260601b60148201527f5af43d82803e903d91602b57fd5bf3000000000000000000000000000000000060288201526037816000f09150506001600160a01b03811661040c576040805162461bcd60e51b815260206004820152601660248201527f455243313136373a20637265617465206661696c656400000000000000000000604482015290519081900360640190fd5b604080516001600160a01b038416602482015260448082018490528251808303909101815260649091019091526020810180517bffffffffffffffffffffffffffffffffffffffffffffffffffffffff167fa9059cbb0000000000000000000000000000000000000000000000000000000017905261232f90849061276a565b505050565b600654600c5460005b818110156123a6576000600c828154811061235457fe5b60009182526020808320909101546001600160a01b0316808352600f90915260409091205490915061238f906001600160701b031682612590565b6001600160701b031693909301925060010161233d565b505090565b604080516001600160a01b0380861660248301528416604482015260648082018490528251808303909101815260849091019091526020810180517bffffffffffffffffffffffffffffffffffffffffffffffffffffffff167f23b872dd0000000000000000000000000000000000000000000000000000000017905261243390859061276a565b50505050565b60008463ffffffff168263ffffffff16101561249c576040805162461bcd60e51b815260206004820152600e60248201527f496e76616c696420706572696f64000000000000000000000000000000000000604482015290519081900360640190fd5b84820391508263ffffffff168263ffffffff16816124b657fe5b0463ffffffff16846001600160701b0316901c93508263ffffffff168263ffffffff16816124e057fe5b06915063ffffffff821615806124fd57506001600160701b038416155b15612509575082612588565b60006001600160701b0385168163ffffffff86811690861671b17217f7d1cf79abc9e3b39803f2f6af40f3028161253c57fe5b049050600160901b5b82156125815792820192808284028161255a57fe5b0493849003939250600160901b01808284028161257357fe5b049250600160901b01612545565b5091925050505b949350505050565b6002546000906001600160a01b038381169116146125c05760405162461bcd60e51b81526004016104cc906136b0565b5090919050565b6000818152600d6020526040812080546001600160a01b03166125fc5760405162461bcd60e51b81526004016104cc906135bf565b6000600c60008154811061260c57fe5b600091825260208083209091015484546001600160a01b03909116808452600a8352604080852063ffffffff600160a01b85048116600160c01b909504811694909403808516875294528420805490975090945091929161268091600160701b820416906001600160701b03168442612439565b85546002546001600160701b039091169190910391506001600160a01b03848116911614156126cb57600680546001600160701b03831690810190915560078054909101905561270a565b6001600160a01b0383166000908152600f6020526040902080546001600160701b038082168401166dffffffffffffffffffffffffffff199091161790555b84546dffffffffffffffffffffffffffff1981166001600160701b039182169290920316177fffffffffffffffffffffffffffff00000000ffffffffffffffffffffffffffff16600160701b4263ffffffff160217845550919392505050565b60006127bf826040518060400160405280602081526020017f5361666545524332303a206c6f772d6c6576656c2063616c6c206661696c6564815250856001600160a01b031661281b9092919063ffffffff16565b80519091501561232f578080602001905160208110156127de57600080fd5b505161232f5760405162461bcd60e51b815260040180806020018281038252602a815260200180613a2e602a913960400191505060405180910390fd5b606061258884846000858561282f85612940565b612880576040805162461bcd60e51b815260206004820152601d60248201527f416464726573733a2063616c6c20746f206e6f6e2d636f6e7472616374000000604482015290519081900360640190fd5b600080866001600160a01b031685876040518082805190602001908083835b602083106128be5780518252601f19909201916020918201910161289f565b6001836020036101000a03801982511681845116808217855250505050505090500191505060006040518083038185875af1925050503d8060008114612920576040519150601f19603f3d011682016040523d82523d6000602084013e612925565b606091505b5091509150612935828286612946565b979650505050505050565b3b151590565b606083156129555750816120f3565b8251156129655782518084602001fd5b8160405162461bcd60e51b81526004018080602001828103825283818151815260200191508051906020019080838360005b838110156129af578181015183820152602001612997565b50505050905090810190601f1680156129dc5780820380516001836020036101000a031916815260200191505b509250505060405180910390fd5b60408051608081018252600080825260208201819052918101829052606081019190915290565b828054600181600116156101000203166002900490600052602060002090601f016020900481019282612a475760008555612a8d565b82601f10612a6057805160ff1916838001178555612a8d565b82800160010185558215612a8d579182015b82811115612a8d578251825591602001919060010190612a72565b50612a99929150612ab4565b5090565b604080518082019091526000808252602082015290565b5b80821115612a995760008155600101612ab5565b600082601f830112612ad9578081fd5b8135612aec612ae782613954565b613930565b818152846020838601011115612b00578283fd5b816020850160208301379081016020019190915292915050565b600060208284031215612b2b578081fd5b81356120f3816139a2565b600060208284031215612b47578081fd5b81516120f3816139a2565b60008060408385031215612b64578081fd5b8235612b6f816139a2565b91506020830135612b7f816139a2565b809150509250929050565b60008060408385031215612b9c578182fd5b8235612ba7816139a2565b91506020830135612b7f816139cc565b600060208284031215612bc8578081fd5b815180151581146120f3578182fd5b600080600060608486031215612beb578081fd5b8335612bf6816139a2565b92506020840135612c06816139a2565b929592945050506040919091013590565b600080600080600060a08688031215612c2e578081fd5b8535612c39816139a2565b94506020860135612c49816139a2565b93506040860135612c59816139b7565b9250606086013591506080860135612c70816139cc565b809150509295509295909350565b600080600080600060a08688031215612c95578081fd5b8535612ca0816139a2565b94506020860135612cb0816139a2565b93506040860135612cc0816139b7565b92506060860135612cd0816139cc565b91506080860135612c70816139cc565b60008060408385031215612cf2578182fd5b8235612cfd816139a2565b946020939093013593505050565b600060208284031215612d1c578081fd5b815167ffffffffffffffff811115612d32578182fd5b8201601f81018413612d42578182fd5b8051612d50612ae782613954565b818152856020838501011115612d64578384fd5b612d75826020830160208601613976565b95945050505050565b600080600080600080600060e0888a031215612d98578485fd5b873567ffffffffffffffff80821115612daf578687fd5b612dbb8b838c01612ac9565b985060208a01359150612dcd826139a2565b90965060408901359080821115612de2578687fd5b50612def8a828b01612ac9565b9550506060880135612e00816139a2565b93506080880135612e10816139a2565b925060a0880135612e20816139a2565b915060c0880135612e30816139a2565b8091505092959891949750929550565b60008060008060008060c08789031215612e58578384fd5b863567ffffffffffffffff80821115612e6f578586fd5b612e7b8a838b01612ac9565b9750602091508189013581811115612e91578687fd5b612e9d8b828c01612ac9565b9750506040890135612eae816139cc565b95506060890135612ebe816139b7565b94506080890135612ece816139cc565b935060a089013581811115612ee1578384fd5b8901601f81018b13612ef1578384fd5b803582811115612efd57fe5b8381029250612f0d848401613930565b8181528481019083860185850187018f1015612f27578788fd5b8795505b83861015612f555780359450612f40856139cc565b84835260019590950194918601918601612f2b565b508096505050505050509295509295509295565b600060208284031215612f7a578081fd5b81516120f3816139b7565b600060208284031215612f96578081fd5b5035919050565b600060208284031215612fae578081fd5b5051919050565b600080600060608486031215612fc9578081fd5b83359250602084013591506040840135612fe2816139a2565b809150509250925092565b60008060408385031215612fff578182fd5b823591506020830135612b7f816139cc565b600060208284031215613022578081fd5b81516120f3816139cc565b6000815180845260208085018081965082840281019150828601855b858110156130735782840389526130618483516130c0565b98850198935090840190600101613049565b5091979650505050505050565b6000815180845260208085019450808401835b838110156130b557815163ffffffff1687529582019590820190600101613093565b509495945050505050565b600081518084526130d8816020860160208601613976565b601f01601f19169290920160200192915050565b600083516130fe818460208801613976565b7f20000000000000000000000000000000000000000000000000000000000000009083019081528351613138816001840160208801613976565b01600101949350505050565b60007f496e7465726573742042656172696e67200000000000000000000000000000008252825161317c816011850160208701613976565b9190910160110192915050565b60007f426f72726f772000000000000000000000000000000000000000000000000000825282516131c1816007850160208701613976565b9190910160070192915050565b60007f620000000000000000000000000000000000000000000000000000000000000082528251613206816001850160208701613976565b9190910160010192915050565b60007f690000000000000000000000000000000000000000000000000000000000000082528251613206816001850160208701613976565b6001600160a01b0391909116815260200190565b6001600160a01b039390931683526001600160701b039190911660208301521515604082015260600190565b6001600160a01b03929092168252602082015260400190565b6001600160a01b0393909316835260208301919091521515604082015260600190565b6080808252855190820181905260009060209060a0840190828901845b828110156133095781516001600160a01b0316845292840192908401906001016132e4565b5050508381038285015261331d818861302d565b9150508281036040840152613332818661302d565b905082810360608401526129358185613080565b6020808252825182820181905260009190848201906040850190845b818110156133875783516001600160a01b031683529284019291840191600101613362565b50909695505050505050565b901515815260200190565b60006001600160a01b03808816835260a060208401526133c160a08401886130c0565b83810360408501526133d381886130c0565b905083810360608501526133e781876130c0565b9250508084166080840152509695505050505050565b60019190910b815260200190565b60006040825261341e60408301856130c0565b8281036020840152612d7581856130c0565b600060e0825261344360e083018a6130c0565b8281036020840152613455818a6130c0565b905063ffffffff808916604085015283820360608501526134768289613080565b92506001600160701b038716608085015280861660a085015250506001600160a01b03831660c083015298975050505050505050565b60208082526014908201527f4475726174696f6e206e6f7420616c6c6f776564000000000000000000000000604082015260600190565b6020808252601a908201527f546f6f206c6f7720617661696c61626c65207265736572766573000000000000604082015260600190565b60208082526011908201527f4e6f7420737570706f7274656420796574000000000000000000000000000000604082015260600190565b60208082526016908201527f496e73756666696369656e74206c697175696469747900000000000000000000604082015260600190565b60208082526014908201527f496e73756666696369656e742062616c616e6365000000000000000000000000604082015260600190565b6020808252600f908201527f496e76616c696420746f6b656e49640000000000000000000000000000000000604082015260600190565b60208082526028908201527f4f6e6c7920686f6c6465722063616e2072657475726e206265666f726520657860408201527f7069726174696f6e000000000000000000000000000000000000000000000000606082015260800190565b60208082526033908201527f496e746572657374207061796d656e7420746f6b656e2069732064697361626c60408201527f6564206f72206e6f7420737570706f7274656400000000000000000000000000606082015260800190565b6020808252602b908201527f4f74686572207061796d656e74206f7074696f6e7320617265206e6f7420737560408201527f70706f7274656420796574000000000000000000000000000000000000000000606082015260800190565b6020808252601f908201527f496e76616c6964206c697175696469747920746f6b656e206164647265737300604082015260600190565b60208082526015908201527f496e73756666696369656e742072657365727665730000000000000000000000604082015260600190565b6020808252601c908201527f436f6e747261637420616c726561647920696e697469616c697a656400000000604082015260600190565b60208082526013908201527f536c69707061676520697320746f6f2062696700000000000000000000000000604082015260600190565b60208082526017908201527f4475726174696f6e206973206e6f7420616c6c6f776564000000000000000000604082015260600190565b60006080820190506001600160a01b038351168252602083015163ffffffff808216602085015280604086015116604085015250506001600160701b03606084015116606083015292915050565b81516001600160701b0316815260209182015163ffffffff169181019190915260400190565b6001600160701b0391909116815260200190565b90815260200190565b9283526020830191909152604082015260600190565b6000858252846020830152836040830152608060608301526138ec60808301846130c0565b9695505050505050565b63ffffffff91909116815260200190565b63ffffffff93841681526001600160701b03929092166020830152909116604082015260600190565b60405181810167ffffffffffffffff8111828210171561394c57fe5b604052919050565b600067ffffffffffffffff82111561396857fe5b50601f01601f191660200190565b60005b83811015613991578181015183820152602001613979565b838111156124335750506000910152565b6001600160a01b03811681146121f157600080fd5b6001600160701b03811681146121f157600080fd5b63ffffffff811681146121f157600080fdfe4f776e61626c653a206e6577206f776e657220697320746865207a65726f2061646472657373496e697469616c697a61626c654f776e61626c653a20616c726561647920696e697469616c697a65645361666545524332303a204552433230206f7065726174696f6e20646964206e6f742073756363656564a26469706673582212204bd7539ffc87e31e8a47202b1b2de2a70ec3e791756f8e0d4db5612aaeb4634264736f6c63430007060033",
  "linkReferences": {},
  "deployedLinkReferences": {}
}