{
  "_format": "hh-sol-artifact-1",
  "contractName": "Enterprise",
  "sourceName": "contracts/iq/Enterprise.sol",
  "abi": [
    {
      "anonymous": false,
      "inputs": [
        {
          "indexed": true,
          "internalType": "address",
          "name": "powerToken",
          "type": "address"
        },
        {
          "indexed": false,
          "internalType": "uint256",
          "name": "tokenId",
          "type": "uint256"
        }
      ],
      "name": "Borrowed",
      "type": "event"
    },
    {
      "anonymous": false,
      "inputs": [
        {
          "indexed": true,
          "internalType": "address",
          "name": "lender",
          "type": "address"
        },
        {
          "indexed": false,
          "internalType": "uint256",
          "name": "liquidityAmount",
          "type": "uint256"
        },
        {
          "indexed": false,
          "internalType": "uint256",
          "name": "shares",
          "type": "uint256"
        },
        {
          "indexed": false,
          "internalType": "uint256",
          "name": "tokenId",
          "type": "uint256"
        }
      ],
      "name": "Lended",
      "type": "event"
    },
    {
      "anonymous": false,
      "inputs": [
        {
          "indexed": true,
          "internalType": "address",
          "name": "previousOwner",
          "type": "address"
        },
        {
          "indexed": true,
          "internalType": "address",
          "name": "newOwner",
          "type": "address"
        }
      ],
      "name": "OwnershipTransferred",
      "type": "event"
    },
    {
      "anonymous": false,
      "inputs": [
        {
          "indexed": true,
          "internalType": "address",
          "name": "powerToken",
          "type": "address"
        },
        {
          "indexed": false,
          "internalType": "uint32",
          "name": "halfLife",
          "type": "uint32"
        },
        {
          "indexed": false,
          "internalType": "uint112",
          "name": "factor",
          "type": "uint112"
        },
        {
          "indexed": false,
          "internalType": "uint32",
          "name": "interestRateHalvingPeriod",
          "type": "uint32"
        }
      ],
      "name": "ServiceRegistered",
      "type": "event"
    },
    {
      "anonymous": false,
      "inputs": [
        {
          "indexed": true,
          "internalType": "address",
          "name": "lender",
          "type": "address"
        },
        {
          "indexed": false,
          "internalType": "uint256",
          "name": "liquidityAmount",
          "type": "uint256"
        },
        {
          "indexed": false,
          "internalType": "uint256",
          "name": "shares",
          "type": "uint256"
        },
        {
          "indexed": false,
          "internalType": "uint256",
          "name": "tokenId",
          "type": "uint256"
        }
      ],
      "name": "Withdraw",
      "type": "event"
    },
    {
      "inputs": [
        {
          "internalType": "contract IPowerToken",
          "name": "powerToken",
          "type": "address"
        },
        {
          "internalType": "contract IERC20",
          "name": "interestPaymentToken",
          "type": "address"
        },
        {
          "internalType": "uint112",
          "name": "amount",
          "type": "uint112"
        },
        {
          "internalType": "uint256",
          "name": "maximumInterest",
          "type": "uint256"
        },
        {
          "internalType": "uint32",
          "name": "duration",
          "type": "uint32"
        }
      ],
      "name": "borrow",
      "outputs": [],
      "stateMutability": "nonpayable",
      "type": "function"
    },
    {
      "inputs": [
        {
          "internalType": "contract IPowerToken",
          "name": "powerToken",
          "type": "address"
        },
        {
          "internalType": "uint256",
          "name": "tokenId",
          "type": "uint256"
        },
        {
          "internalType": "uint112",
          "name": "amount",
          "type": "uint112"
        }
      ],
      "name": "burn",
      "outputs": [],
      "stateMutability": "nonpayable",
      "type": "function"
    },
    {
      "inputs": [
        {
          "internalType": "address",
          "name": "account",
          "type": "address"
        }
      ],
      "name": "collectedInterest",
      "outputs": [
        {
          "internalType": "uint112",
          "name": "",
          "type": "uint112"
        }
      ],
      "stateMutability": "view",
      "type": "function"
    },
    {
      "inputs": [
        {
          "internalType": "contract IPowerToken",
          "name": "powerToken",
          "type": "address"
        },
        {
          "internalType": "contract IERC20",
          "name": "interestPaymentToken",
          "type": "address"
        },
        {
          "internalType": "uint112",
          "name": "amount",
          "type": "uint112"
        },
        {
          "internalType": "uint32",
          "name": "duration",
          "type": "uint32"
        },
        {
          "internalType": "uint32",
          "name": "estimateAtTimestamp",
          "type": "uint32"
        }
      ],
      "name": "estimateBorrow",
      "outputs": [
        {
          "internalType": "uint112",
          "name": "result",
          "type": "uint112"
        }
      ],
      "stateMutability": "view",
      "type": "function"
    },
    {
      "inputs": [
        {
          "internalType": "contract IPowerToken",
          "name": "powerToken",
          "type": "address"
        },
        {
          "internalType": "address",
          "name": "tokenHolder",
          "type": "address"
        },
        {
          "internalType": "uint256",
          "name": "tokenId",
          "type": "uint256"
        },
        {
          "internalType": "uint112",
          "name": "amountToBurn",
          "type": "uint112"
        },
        {
          "internalType": "uint32",
          "name": "estimateAt",
          "type": "uint32"
        }
      ],
      "name": "estimateRefund",
      "outputs": [
        {
          "internalType": "address",
          "name": "paymentToken",
          "type": "address"
        },
        {
          "internalType": "uint112",
          "name": "amount",
          "type": "uint112"
        }
      ],
      "stateMutability": "view",
      "type": "function"
    },
    {
      "inputs": [],
      "name": "getInfo",
      "outputs": [
        {
          "internalType": "uint256",
          "name": "reserve",
          "type": "uint256"
        },
        {
          "internalType": "uint256",
          "name": "availableReserve",
          "type": "uint256"
        },
        {
          "internalType": "uint256",
          "name": "totalShares",
          "type": "uint256"
        },
        {
          "internalType": "string",
          "name": "baseUri",
          "type": "string"
        },
        {
          "internalType": "string",
          "name": "name",
          "type": "string"
        },
        {
          "internalType": "address",
          "name": "owner",
          "type": "address"
        }
      ],
      "stateMutability": "view",
      "type": "function"
    },
    {
      "inputs": [],
      "name": "getServices",
      "outputs": [
        {
          "components": [
            {
              "internalType": "uint32[]",
              "name": "allowedLoanDurations",
              "type": "uint32[]"
            },
            {
              "internalType": "uint256",
              "name": "borrowed",
              "type": "uint256"
            },
            {
              "internalType": "uint112",
              "name": "factor",
              "type": "uint112"
            },
            {
              "internalType": "uint32",
              "name": "lastDeal",
              "type": "uint32"
            },
            {
              "internalType": "uint32",
              "name": "interestRateHalvingPeriod",
              "type": "uint32"
            }
          ],
          "internalType": "struct Enterprise.Service[]",
          "name": "",
          "type": "tuple[]"
        }
      ],
      "stateMutability": "view",
      "type": "function"
    },
    {
      "inputs": [],
      "name": "iToken",
      "outputs": [
        {
          "internalType": "contract IInterestToken",
          "name": "",
          "type": "address"
        }
      ],
      "stateMutability": "view",
      "type": "function"
    },
    {
      "inputs": [
        {
          "internalType": "string",
          "name": "enterpriseName",
          "type": "string"
        },
        {
          "internalType": "address",
          "name": "liquidityToken_",
          "type": "address"
        },
        {
          "internalType": "string",
          "name": "baseUri_",
          "type": "string"
        },
        {
          "internalType": "address",
          "name": "interestTokenImpl",
          "type": "address"
        },
        {
          "internalType": "address",
          "name": "powerTokenImpl",
          "type": "address"
        },
        {
          "internalType": "address",
          "name": "owner",
          "type": "address"
        }
      ],
      "name": "initialize",
      "outputs": [],
      "stateMutability": "nonpayable",
      "type": "function"
    },
    {
      "inputs": [
        {
          "internalType": "address",
          "name": "initialOwner",
          "type": "address"
        }
      ],
      "name": "initialize",
      "outputs": [],
      "stateMutability": "nonpayable",
      "type": "function"
    },
    {
      "inputs": [
        {
          "internalType": "contract IPowerToken",
          "name": "token",
          "type": "address"
        },
        {
          "internalType": "uint32",
          "name": "duration",
          "type": "uint32"
        }
      ],
      "name": "isAllowedLoanDuration",
      "outputs": [
        {
          "internalType": "bool",
          "name": "allowed",
          "type": "bool"
        }
      ],
      "stateMutability": "view",
      "type": "function"
    },
    {
      "inputs": [
        {
          "internalType": "uint256",
          "name": "liquidityAmount",
          "type": "uint256"
        },
        {
          "internalType": "uint32",
          "name": "halfWithdrawPeriod",
          "type": "uint32"
        }
      ],
      "name": "lend",
      "outputs": [],
      "stateMutability": "nonpayable",
      "type": "function"
    },
    {
      "inputs": [],
      "name": "liquidityToken",
      "outputs": [
        {
          "internalType": "contract IERC20Detailed",
          "name": "",
          "type": "address"
        }
      ],
      "stateMutability": "view",
      "type": "function"
    },
    {
      "inputs": [],
      "name": "owner",
      "outputs": [
        {
          "internalType": "address",
          "name": "",
          "type": "address"
        }
      ],
      "stateMutability": "view",
      "type": "function"
    },
    {
      "inputs": [
        {
          "internalType": "uint256",
          "name": "index",
          "type": "uint256"
        }
      ],
      "name": "powerTokens",
      "outputs": [
        {
          "internalType": "contract IPowerToken",
          "name": "",
          "type": "address"
        }
      ],
      "stateMutability": "view",
      "type": "function"
    },
    {
      "inputs": [
        {
          "internalType": "string",
          "name": "serviceName",
          "type": "string"
        },
        {
          "internalType": "string",
          "name": "symbol",
          "type": "string"
        },
        {
          "internalType": "uint32",
          "name": "halfLife",
          "type": "uint32"
        },
        {
          "internalType": "uint112",
          "name": "factor",
          "type": "uint112"
        },
        {
          "internalType": "uint32",
          "name": "interestRateHalvingPeriod",
          "type": "uint32"
        },
        {
          "internalType": "uint32[]",
          "name": "_allowedLoanDurations",
          "type": "uint32[]"
        }
      ],
      "name": "registerService",
      "outputs": [],
      "stateMutability": "nonpayable",
      "type": "function"
    },
    {
      "inputs": [
        {
          "internalType": "contract IPowerToken",
          "name": "powerToken",
          "type": "address"
        }
      ],
      "name": "services",
      "outputs": [
        {
          "components": [
            {
              "internalType": "uint32[]",
              "name": "allowedLoanDurations",
              "type": "uint32[]"
            },
            {
              "internalType": "uint256",
              "name": "borrowed",
              "type": "uint256"
            },
            {
              "internalType": "uint112",
              "name": "factor",
              "type": "uint112"
            },
            {
              "internalType": "uint32",
              "name": "lastDeal",
              "type": "uint32"
            },
            {
              "internalType": "uint32",
              "name": "interestRateHalvingPeriod",
              "type": "uint32"
            }
          ],
          "internalType": "struct Enterprise.Service",
          "name": "",
          "type": "tuple"
        }
      ],
      "stateMutability": "view",
      "type": "function"
    },
    {
      "inputs": [
        {
          "internalType": "address",
          "name": "token",
          "type": "address"
        },
        {
          "internalType": "uint32",
          "name": "duration",
          "type": "uint32"
        },
        {
          "internalType": "uint8",
          "name": "curvature",
          "type": "uint8"
        }
      ],
      "name": "states",
      "outputs": [
        {
          "components": [
            {
              "internalType": "uint112",
              "name": "plannedBalance",
              "type": "uint112"
            },
            {
              "internalType": "uint32",
              "name": "timestamp",
              "type": "uint32"
            }
          ],
          "internalType": "struct Enterprise.State",
          "name": "",
          "type": "tuple"
        }
      ],
      "stateMutability": "view",
      "type": "function"
    },
    {
      "inputs": [
        {
          "internalType": "uint256",
          "name": "index",
          "type": "uint256"
        }
      ],
      "name": "supportedInterestTokens",
      "outputs": [
        {
          "internalType": "address",
          "name": "",
          "type": "address"
        }
      ],
      "stateMutability": "view",
      "type": "function"
    },
    {
      "inputs": [
        {
          "internalType": "address",
          "name": "token",
          "type": "address"
        }
      ],
      "name": "supportedInterestTokensIndex",
      "outputs": [
        {
          "internalType": "int16",
          "name": "",
          "type": "int16"
        }
      ],
      "stateMutability": "view",
      "type": "function"
    },
    {
      "inputs": [
        {
          "internalType": "address",
          "name": "newOwner",
          "type": "address"
        }
      ],
      "name": "transferOwnership",
      "outputs": [],
      "stateMutability": "nonpayable",
      "type": "function"
    },
    {
      "inputs": [
        {
          "internalType": "uint256",
          "name": "sharesAmount",
          "type": "uint256"
        },
        {
          "internalType": "uint256",
          "name": "tokenId",
          "type": "uint256"
        },
        {
          "internalType": "address",
          "name": "interestToken",
          "type": "address"
        }
      ],
      "name": "withdrawLiquidity",
      "outputs": [],
      "stateMutability": "nonpayable",
      "type": "function"
    }
  ],
  "bytecode": "0x608060405234801561001057600080fd5b5061347d806100206000396000f3fe608060405234801561001057600080fd5b50600436106101825760003560e01c80638da5cb5b116100d8578063a64b90d31161008c578063e2b17a1611610066578063e2b17a1614610332578063ec46bd7d14610345578063f2fde38b1461036557610182565b8063a64b90d3146102f9578063bb5c0ba61461030c578063c4d66de81461031f57610182565b806399e2946b116100bd57806399e2946b146102a6578063a0cffa59146102c6578063a25587c2146102e657610182565b80638da5cb5b1461028b57806395e17d841461029357610182565b80635a9b0b891161013a578063754178511161011457806375417851146102505780637cf59c5d146102655780638619344b1461027857610182565b80635a9b0b89146102015780635fa1e1181461021b5780636d966d011461023057610182565b806326399b681161016b57806326399b68146101d0578063408cfe24146101f157806343cd8f7e146101f957610182565b806304db7a31146101875780630e619aeb146101b0575b600080fd5b61019a610195366004612a02565b610378565b6040516101a79190612cb1565b60405180910390f35b6101c36101be3660046125c9565b6103a4565b6040516101a7919061328b565b6101e36101de36600461264e565b6103c8565b6040516101a7929190612daa565b61019a6104e5565b61019a6104f4565b610209610503565b6040516101a7969594939291906132be565b61022e610229366004612752565b6106ba565b005b61024361023e3660046125c9565b61087c565b6040516101a79190613252565b61025861096a565b6040516101a79190612dcc565b61022e6102733660046128e4565b610af5565b61019a610286366004612a02565b610de2565b61019a610df1565b61022e6102a1366004612a32565b610e00565b6102b96102b43660046125c9565b610f7b565b6040516101a79190612e37565b6102d96102d436600461278f565b610f99565b6040516101a79190612e2c565b61022e6102f4366004612a5f565b61101f565b61022e610307366004612836565b61113b565b6101c361031a366004612704565b6113df565b61022e61032d3660046125c9565b6115ab565b61022e6103403660046126af565b61163e565b610358610353366004612601565b611882565b6040516101a79190613265565b61022e6103733660046125c9565b6118ed565b6000600d828154811061038757fe5b6000918252602090912001546001600160a01b031690505b919050565b6001600160a01b03166000908152600e60205260409020546001600160701b031690565b60008060008060008060006103dc8a6119f1565b94509450945094509450600c6001830361ffff16815481106103fa57fe5b6000918252602082200154604051627eeac760e11b81526001600160a01b039182169950908e169062fdd58e90610437908f908f90600401612cc5565b60206040518083038186803b15801561044f57600080fd5b505afa158015610463573d6000803e3d6000fd5b505050506040513d601f19601f820116820180604052508101906104879190612a1a565b90508061049e5750600095506104db945050505050565b808a6104c088858860ff168b8b0363ffffffff16816104b957fe5b048e611ab4565b026001600160701b0316816104d157fe5b0496505050505050505b9550959350505050565b6002546001600160a01b031690565b6001546001600160a01b031690565b6000806000606080600060045460055460065460076008306001600160a01b0316638da5cb5b6040518163ffffffff1660e01b815260040160206040518083038186803b15801561055357600080fd5b505afa158015610567573d6000803e3d6000fd5b505050506040513d601f19601f8201168201806040525081019061058b91906125e5565b8254604080516020601f600260001961010060018816150201909516949094049384018190048102820181019092528281529185918301828280156106115780601f106105e657610100808354040283529160200191610611565b820191906000526020600020905b8154815290600101906020018083116105f457829003601f168201915b5050855460408051602060026001851615610100026000190190941693909304601f81018490048402820184019092528181529598508794509250840190508282801561069f5780601f106106745761010080835404028352916020019161069f565b820191906000526020600020905b81548152906001019060200180831161068257829003601f168201915b50505050509150955095509550955095509550909192939495565b604051627eeac760e11b81526000906001600160a01b0385169062fdd58e906106e99033908790600401612cc5565b60206040518083038186803b15801561070157600080fd5b505afa158015610715573d6000803e3d6000fd5b505050506040513d601f19601f820116820180604052508101906107399190612a1a565b905080826001600160701b0316111561076d5760405162461bcd60e51b81526004016107649061321b565b60405180910390fd5b60008061077d86338787426103c8565b91509150600061078c86611c0b565b80546dffffffffffffffffffffffffffff1981166001600160701b039182168590038216178255600580548883169081019091556001600160a01b038a811660009081526009602052604090206001018054929092039091559192506107f89185169033908516611d90565b6040517ff5298aca0000000000000000000000000000000000000000000000000000000081526001600160a01b0388169063f5298aca906108419033908a908790600401612cde565b600060405180830381600087803b15801561085b57600080fd5b505af115801561086f573d6000803e3d6000fd5b5050505050505050505050565b6108846123c8565b6001600160a01b0382166000908152600960209081526040918290208251815460c09381028201840190945260a08101848152909391928492849184018282801561091a57602002820191906000526020600020906000905b82829054906101000a900463ffffffff1663ffffffff16815260200190600401906020826003010492830192600103820291508084116108dd5790505b5050509183525050600182015460208201526002909101546001600160701b038116604083015263ffffffff600160701b820481166060840152600160901b909104166080909101529050919050565b600d5460609060008167ffffffffffffffff8111801561098957600080fd5b506040519080825280602002602001820160405280156109c357816020015b6109b06123c8565b8152602001906001900390816109a85790505b50905060005b82811015610aee5760096000600d83815481106109e257fe5b60009182526020808320909101546001600160a01b0316835282810193909352604091820190208151815460c09481028201850190935260a08101838152909391928492849190840182828015610a8457602002820191906000526020600020906000905b82829054906101000a900463ffffffff1663ffffffff1681526020019060040190602082600301049283019260010382029150808411610a475790505b5050509183525050600182015460208201526002909101546001600160701b038116604083015263ffffffff600160701b820481166060840152600160901b909104166080909101528251839083908110610adb57fe5b60209081029190910101526001016109c9565b5091505090565b33610afe610df1565b6001600160a01b031614610b59576040805162461bcd60e51b815260206004820181905260248201527f4f776e61626c653a2063616c6c6572206973206e6f7420746865206f776e6572604482015290519081900360640190fd5b600154604080516395d89b4160e01b815290516000926001600160a01b0316916395d89b419160048083019286929190829003018186803b158015610b9d57600080fd5b505afa158015610bb1573d6000803e3d6000fd5b505050506040513d6000823e601f3d908101601f19168201604052610bd991908101906127c3565b905060008187604051602001610bf0929190612bcf565b60408051601f19818403018152919052600354909150600090610c1b906001600160a01b0316611e15565b6040517f59f0bee90000000000000000000000000000000000000000000000000000000081529091506001600160a01b038216906359f0bee990610c6a908c9086906007908d90600401612e45565b600060405180830381600087803b158015610c8457600080fd5b505af1158015610c98573d6000803e3d6000fd5b505050506001600160a01b03811660009081526009602090815260409091208551610cc5928701906123f6565b506001600160a01b03811660008181526009602052604080822060020180546dffffffffffffffffffffffffffff19166001600160701b038b16177fffffffffffffffffffff00000000ffffffffffffffffffffffffffffffffffff16600160901b63ffffffff8b8116919091029190911771ffffffff00000000000000000000000000001916600160701b429290921691909102179055600d805460018101825592527fd7b6990105719101dabeb77144f2a3385c8033acd3af97e9423a695e81ad1eb590910180546001600160a01b03191683179055517f9a57b384ed8b33098a5a53cb7b380bc8d9aebeecdabb44f362a2d91d8ce7aed790610dcf908a908a908a90613312565b60405180910390a2505050505050505050565b6000600c828154811061038757fe5b6000546001600160a01b031690565b600254604051627eeac760e11b81526000916001600160a01b03169062fdd58e90610e319033908790600401612cc5565b60206040518083038186803b158015610e4957600080fd5b505afa158015610e5d573d6000803e3d6000fd5b505050506040513d601f19601f82011682018060405250810190610e819190612a1a565b905083811015610ea35760405162461bcd60e51b815260040161076490612fe0565b600060065485610eb1611ed0565b0281610eb957fe5b60015491900491506001600160a01b03848116911614610eeb5760405162461bcd60e51b815260040161076490612f3b565b600554811115610f0d5760405162461bcd60e51b815260040161076490612f72565b600154610f24906001600160a01b03163383611d90565b60048054829003905560058054829003905560405133907f02f25270a4d87bea75db541cdfe559334a275b4a233520ed6c0a2429667cca9490610f6c908490899089906132a8565b60405180910390a25050505050565b6001600160a01b03166000908152600b602052604090205460010b90565b6001600160a01b03821660009081526009602052604081208054825b81811015611011578463ffffffff16836000018281548110610fd357fe5b6000918252602090912060088204015460079091166004026101000a900463ffffffff1614156110095760019350505050611019565b600101610fb5565b506000925050505b92915050565b600154611037906001600160a01b0316333085611f47565b600480548301905560058054830190556000611051611ed0565b9050600060065460001415611067575082611078565b8184600654028161107457fe5b0490505b6002546040517f156e29f600000000000000000000000000000000000000000000000000000000815263ffffffff8516916001600160a01b03169063156e29f6906110cb90339085908790600401612d41565b600060405180830381600087803b1580156110e557600080fd5b505af11580156110f9573d6000803e3d6000fd5b50506006805485019055505060405133907f560c6ea1ac218037d9e5136609be27ce891f0cca27a074c47e4304f809f62f5e90610f6c908890869086906132a8565b6001546001600160a01b0316156111645760405162461bcd60e51b8152600401610764906131ad565b6001600160a01b03851661118a5760405162461bcd60e51b815260040161076490613108565b6040517fc4d66de8000000000000000000000000000000000000000000000000000000008152309063c4d66de8906111c6908490600401612cb1565b600060405180830381600087803b1580156111e057600080fd5b505af11580156111f4573d6000803e3d6000fd5b5050600180546001600160a01b0319166001600160a01b038916179055505083516112269060079060208701906124a5565b50855161123a9060089060208901906124a5565b5061124485611fd5565b600154604080516395d89b4160e01b815290516000926001600160a01b0316916395d89b419160048083019286929190829003018186803b15801561128857600080fd5b505afa15801561129c573d6000803e3d6000fd5b505050506040513d6000823e601f3d908101601f191682016040526112c491908101906127c3565b90506000816040516020016112d99190612c27565b60405160208183030381529060405290506000826040516020016112fd9190612c6c565b6040516020818303038152906040529050611320866001600160a01b0316611e15565b600280546001600160a01b0319166001600160a01b0392831617908190556040517f5f1e6f6d000000000000000000000000000000000000000000000000000000008152911690635f1e6f6d9061138290309086908690600790600401612d62565b600060405180830381600087803b15801561139c57600080fd5b505af11580156113b0573d6000803e3d6000fd5b5050600380546001600160a01b0319166001600160a01b03989098169790971790965550505050505050505050565b60006113eb8684610f99565b6114075760405162461bcd60e51b815260040161076490612e96565b600554846001600160701b031611156114325760405162461bcd60e51b815260040161076490612f04565b6001600160a01b03861660009081526009602090815260408083208151815460c09481028201850190935260a081018381529093919284928491908401828280156114c857602002820191906000526020600020906000905b82829054906101000a900463ffffffff1663ffffffff168152602001906004019060208260030104928301926001038202915080841161148b5790505b5050509183525050600182015460208201526002909101546001600160701b0380821660408085019190915263ffffffff600160701b84048116606080870191909152600160901b909404811660809586015290850151928501519385015194955089821690891602911602606f1c9160009161154791849088611ab4565b90506000876001600160701b031660055403600454836001600160701b0316028161156e57fe5b04905060006001600160701b0382116115875781611590565b6001600160701b035b905061159c818b6120cf565b9b9a5050505050505050505050565b6000546001600160a01b0316156115f35760405162461bcd60e51b81526004018080602001828103825260298152602001806133f56029913960400191505060405180910390fd5b600080546001600160a01b0319166001600160a01b03831690811782556040519091907f8be0079c531659141344cd1fd0a4f28419497f9722a3daafe3b4186f6b6457e0908290a350565b6001600160a01b0384166000908152600b6020526040812054600190810b900b1361167b5760405162461bcd60e51b81526004016107649061304e565b6116858582610f99565b6116a15760405162461bcd60e51b815260040161076490612e96565b600554836001600160701b031611156116cc5760405162461bcd60e51b81526004016107649061313f565b60006116db86868685426113df565b905082816001600160701b031611156117065760405162461bcd60e51b815260040161076490612fa9565b6117246001600160a01b03861633306001600160701b038516611f47565b600580546001600160701b038616908190039091556001600160a01b038088166000908152600960209081526040808320600190810180549096019095559289168252600b905290812054909161178391429186830191810b86612106565b6040517f731133e90000000000000000000000000000000000000000000000000000000081529091506001600160a01b0388169063731133e9906117cf90339085908a90600401612d08565b600060405180830381600087803b1580156117e957600080fd5b505af11580156117fd573d6000803e3d6000fd5b50505050600061180c82611c0b565b80546001600160701b038082168601166dffffffffffffffffffffffffffff199091161781556040519091506001600160a01b038916907fac59582e5396aca512fa873a2047e7f4c80f8f55d4a06cb34a78a0187f62719f9061187090859061329f565b60405180910390a25050505050505050565b61188a612521565b506001600160a01b0383166000908152600a6020908152604080832063ffffffff808716855290835281842060ff861685528352928190208151808301909252546001600160701b0381168252600160701b9004909216908201525b9392505050565b336118f6610df1565b6001600160a01b031614611951576040805162461bcd60e51b815260206004820181905260248201527f4f776e61626c653a2063616c6c6572206973206e6f7420746865206f776e6572604482015290519081900360640190fd5b6001600160a01b0381166119965760405162461bcd60e51b81526004018080602001828103825260268152602001806133cf6026913960400191505060405180910390fd5b600080546040516001600160a01b03808516939216917f8be0079c531659141344cd1fd0a4f28419497f9722a3daafe3b4186f6b6457e091a3600080546001600160a01b0319166001600160a01b0392909216919091179055565b60e081901c60c082901c63ffffffff1660b883901c60ff1660a884901c61ffff166001600160701b03851684611a395760405162461bcd60e51b815260040161076490613176565b60008463ffffffff1611611a5f5760405162461bcd60e51b815260040161076490612ecd565b60008360ff1611611a825760405162461bcd60e51b8152600401610764906131e4565b6000816001600160701b031611611aab5760405162461bcd60e51b815260040161076490613017565b91939590929450565b60008463ffffffff168263ffffffff161015611b17576040805162461bcd60e51b815260206004820152600e60248201527f496e76616c696420706572696f64000000000000000000000000000000000000604482015290519081900360640190fd5b84820391508263ffffffff168263ffffffff1681611b3157fe5b0463ffffffff16846001600160701b0316901c93508263ffffffff168263ffffffff1681611b5b57fe5b06915063ffffffff82161580611b7857506001600160701b038416155b15611b84575082611c03565b60006001600160701b0385168163ffffffff86811690861671b17217f7d1cf79abc9e3b39803f2f6af40f30281611bb757fe5b049050600160901b5b8215611bfc57928201928082840281611bd557fe5b0493849003939250600160901b018082840281611bee57fe5b049250600160901b01611bc0565b5091925050505b949350505050565b6000806000806000611c1c866119f1565b5093509350935093506000600c6001830361ffff1681548110611c3b57fe5b60009182526020808320909101546001600160a01b0316808352600a8252604080842063ffffffff8a8a0381811680885292865283872060ff8b1680895296529286208054909c50939650919493611cb093600160701b8104909316926001600160701b03169181611ca957fe5b0442611ab4565b88546001546001600160701b039091169190910391506001600160a01b0384811691161415611cfb57600480546001600160701b038316908101909155600580549091019055611d3a565b6001600160a01b0383166000908152600e6020526040902080546001600160701b038082168401166dffffffffffffffffffffffffffff199091161790555b87546dffffffffffffffffffffffffffff1981166001600160701b0391821692909203161771ffffffff00000000000000000000000000001916600160701b4263ffffffff160217875550949695505050505050565b604080516001600160a01b038416602482015260448082018490528251808303909101815260649091019091526020810180517bffffffffffffffffffffffffffffffffffffffffffffffffffffffff167fa9059cbb00000000000000000000000000000000000000000000000000000000179052611e10908490612148565b505050565b60006040517f3d602d80600a3d3981f3363d3d373d3d3d363d7300000000000000000000000081528260601b60148201527f5af43d82803e903d91602b57fd5bf3000000000000000000000000000000000060288201526037816000f09150506001600160a01b03811661039f576040805162461bcd60e51b815260206004820152601660248201527f455243313136373a20637265617465206661696c656400000000000000000000604482015290519081900360640190fd5b600454600c5460005b81811015611f42576000600c8281548110611ef057fe5b60009182526020808320909101546001600160a01b0316808352600e909152604090912054909150611f2b906001600160701b0316826120cf565b6001600160701b0316939093019250600101611ed9565b505090565b604080516001600160a01b0380861660248301528416604482015260648082018490528251808303909101815260849091019091526020810180517bffffffffffffffffffffffffffffffffffffffffffffffffffffffff167f23b872dd00000000000000000000000000000000000000000000000000000000179052611fcf908590612148565b50505050565b6001600160a01b0381166000908152600b6020526040902054600190810b900b61206f57600c8054600180820183557fdf6966c971051c3d54ec59162606531493a51404a002842f56009d7e5cf4a8c790910180546001600160a01b0319166001600160a01b03851690811790915591546000928352600b6020526040909220805461ffff191661ffff9390920b929092161790556120cc565b6001600160a01b0381166000908152600b6020526040812054600190810b900b12156120cc576001600160a01b0381166000908152600b602052604081208054600181810b90930390920b61ffff1661ffff199092169190911790555b50565b6001546000906001600160a01b038381169116146120ff5760405162461bcd60e51b8152600401610764906130ab565b5090919050565b6000816001600160701b031660a88461ffff16901b60b88660ff16901b60c08863ffffffff16901b60e08a63ffffffff16901b17171717905095945050505050565b600061219d826040518060400160405280602081526020017f5361666545524332303a206c6f772d6c6576656c2063616c6c206661696c6564815250856001600160a01b03166121f99092919063ffffffff16565b805190915015611e10578080602001905160208110156121bc57600080fd5b5051611e105760405162461bcd60e51b815260040180806020018281038252602a81526020018061341e602a913960400191505060405180910390fd5b6060611c0384846000858561220d8561231e565b61225e576040805162461bcd60e51b815260206004820152601d60248201527f416464726573733a2063616c6c20746f206e6f6e2d636f6e7472616374000000604482015290519081900360640190fd5b600080866001600160a01b031685876040518082805190602001908083835b6020831061229c5780518252601f19909201916020918201910161227d565b6001836020036101000a03801982511681845116808217855250505050505090500191505060006040518083038185875af1925050503d80600081146122fe576040519150601f19603f3d011682016040523d82523d6000602084013e612303565b606091505b5091509150612313828286612324565b979650505050505050565b3b151590565b606083156123335750816118e6565b8251156123435782518084602001fd5b8160405162461bcd60e51b81526004018080602001828103825283818151815260200191508051906020019080838360005b8381101561238d578181015183820152602001612375565b50505050905090810190601f1680156123ba5780820380516001836020036101000a031916815260200191505b509250505060405180910390fd5b6040805160a08101825260608082526000602083018190529282018390528101829052608081019190915290565b828054828255906000526020600020906007016008900481019282156124955791602002820160005b8382111561246357835183826101000a81548163ffffffff021916908363ffffffff160217905550926020019260040160208160030104928301926001030261241f565b80156124935782816101000a81549063ffffffff0219169055600401602081600301049283019260010302612463565b505b506124a1929150612538565b5090565b828054600181600116156101000203166002900490600052602060002090601f0160209004810192826124db5760008555612495565b82601f106124f457805160ff1916838001178555612495565b82800160010185558215612495579182015b82811115612495578251825591602001919060010190612506565b604080518082019091526000808252602082015290565b5b808211156124a15760008155600101612539565b600082601f83011261255d578081fd5b813561257061256b8261335f565b61333b565b818152846020838601011115612584578283fd5b816020850160208301379081016020019190915292915050565b80356001600160701b038116811461039f57600080fd5b803563ffffffff8116811461039f57600080fd5b6000602082840312156125da578081fd5b81356118e6816133b9565b6000602082840312156125f6578081fd5b81516118e6816133b9565b600080600060608486031215612615578182fd5b8335612620816133b9565b925061262e602085016125b5565b9150604084013560ff81168114612643578182fd5b809150509250925092565b600080600080600060a08688031215612665578081fd5b8535612670816133b9565b94506020860135612680816133b9565b9350604086013592506126956060870161259e565b91506126a3608087016125b5565b90509295509295909350565b600080600080600060a086880312156126c6578081fd5b85356126d1816133b9565b945060208601356126e1816133b9565b93506126ef6040870161259e565b9250606086013591506126a3608087016125b5565b600080600080600060a0868803121561271b578081fd5b8535612726816133b9565b94506020860135612736816133b9565b93506127446040870161259e565b9250612695606087016125b5565b600080600060608486031215612766578081fd5b8335612771816133b9565b9250602084013591506127866040850161259e565b90509250925092565b600080604083850312156127a1578182fd5b82356127ac816133b9565b91506127ba602084016125b5565b90509250929050565b6000602082840312156127d4578081fd5b815167ffffffffffffffff8111156127ea578182fd5b8201601f810184136127fa578182fd5b805161280861256b8261335f565b81815285602083850101111561281c578384fd5b61282d82602083016020860161338d565b95945050505050565b60008060008060008060c0878903121561284e578384fd5b863567ffffffffffffffff80821115612865578586fd5b6128718a838b0161254d565b975060208901359150612883826133b9565b90955060408801359080821115612898578586fd5b506128a589828a0161254d565b94505060608701356128b6816133b9565b925060808701356128c6816133b9565b915060a08701356128d6816133b9565b809150509295509295509295565b60008060008060008060c087890312156128fc578384fd5b863567ffffffffffffffff80821115612913578586fd5b61291f8a838b0161254d565b9750602091508189013581811115612935578687fd5b6129418b828c0161254d565b97505061295060408a016125b5565b955061295e60608a0161259e565b945061296c60808a016125b5565b935060a08901358181111561297f578384fd5b8901601f81018b1361298f578384fd5b80358281111561299b57fe5b83810292506129ab84840161333b565b8181528481019083860185850187018f10156129c5578788fd5b8795505b838610156129ee576129da816125b5565b8352600195909501949186019186016129c9565b508096505050505050509295509295509295565b600060208284031215612a13578081fd5b5035919050565b600060208284031215612a2b578081fd5b5051919050565b600080600060608486031215612a46578081fd5b83359250602084013591506040840135612643816133b9565b60008060408385031215612a71578182fd5b823591506127ba602084016125b5565b60008151808452612a9981602086016020860161338d565b601f01601f19169290920160200192915050565b60008154600180821660008114612acb5760018114612ae957612b27565b60028304607f16865260ff1983166020870152604086019350612b27565b60028304808752612af986613381565b60005b82811015612b1d5781546020828b0101528482019150602081019050612afc565b8801602001955050505b50505092915050565b805160a080845281519084018190526000916020919082019060c0860190845b81811015612b7257835163ffffffff1683529284019291840191600101612b50565b5050828501518387015260408501519250612b906040870184612bb8565b60608501519250612ba46060870184612bc5565b6080850151925061282d6080870184612bc5565b6001600160701b03169052565b63ffffffff169052565b60008351612be181846020880161338d565b7f20000000000000000000000000000000000000000000000000000000000000009083019081528351612c1b81600184016020880161338d565b01600101949350505050565b60007f496e7465726573742042656172696e672000000000000000000000000000000082528251612c5f81601185016020870161338d565b9190910160110192915050565b60007f690000000000000000000000000000000000000000000000000000000000000082528251612ca481600185016020870161338d565b9190910160010192915050565b6001600160a01b0391909116815260200190565b6001600160a01b03929092168252602082015260400190565b6001600160a01b0393909316835260208301919091526001600160701b0316604082015260600190565b6001600160a01b0393909316835260208301919091526001600160701b0316604082015260806060820181905260009082015260a00190565b6001600160a01b039390931683526020830191909152604082015260600190565b60006001600160a01b038616825260806020830152612d846080830186612a81565b8281036040840152612d968186612a81565b905082810360608401526123138185612aad565b6001600160a01b039290921682526001600160701b0316602082015260400190565b6000602080830181845280855180835260408601915060408482028701019250838701855b82811015612e1f57603f19888603018452612e0d858351612b30565b94509285019290850190600101612df1565b5092979650505050505050565b901515815260200190565b60019190910b815260200190565b600060808252612e586080830187612a81565b8281036020840152612e6a8187612a81565b90508281036040840152612e7e8186612aad565b91505063ffffffff8316606083015295945050505050565b60208082526014908201527f4475726174696f6e206e6f7420616c6c6f776564000000000000000000000000604082015260600190565b6020808252600a908201527f496e76616c696420746f00000000000000000000000000000000000000000000604082015260600190565b6020808252601a908201527f546f6f206c6f7720617661696c61626c65207265736572766573000000000000604082015260600190565b60208082526011908201527f4e6f7420737570706f7274656420796574000000000000000000000000000000604082015260600190565b60208082526016908201527f496e73756666696369656e74206c697175696469747900000000000000000000604082015260600190565b60208082526010908201527f536c69707061676520746f6f2062696700000000000000000000000000000000604082015260600190565b60208082526014908201527f496e73756666696369656e742062616c616e6365000000000000000000000000604082015260600190565b60208082526010908201527f496e76616c696420696e74657265737400000000000000000000000000000000604082015260600190565b60208082526033908201527f496e746572657374207061796d656e7420746f6b656e2069732064697361626c60408201527f6564206f72206e6f7420737570706f7274656400000000000000000000000000606082015260800190565b6020808252602b908201527f4f74686572207061796d656e74206f7074696f6e7320617265206e6f7420737560408201527f70706f7274656420796574000000000000000000000000000000000000000000606082015260800190565b6020808252601f908201527f496e76616c6964206c697175696469747920746f6b656e206164647265737300604082015260600190565b60208082526015908201527f496e73756666696369656e742072657365727665730000000000000000000000604082015260600190565b6020808252600c908201527f496e76616c69642066726f6d0000000000000000000000000000000000000000604082015260600190565b6020808252601c908201527f436f6e747261637420616c726561647920696e697469616c697a656400000000604082015260600190565b60208082526011908201527f496e76616c696420637572766174757265000000000000000000000000000000604082015260600190565b6020808252601c908201527f43616e2774206275726e206d6f726520746861742062616c616e636500000000604082015260600190565b6000602082526118e66020830184612b30565b81516001600160701b0316815260209182015163ffffffff169181019190915260400190565b6001600160701b0391909116815260200190565b90815260200190565b9283526020830191909152604082015260600190565b600087825286602083015285604083015260c060608301526132e360c0830186612a81565b82810360808401526132f58186612a81565b9150506001600160a01b03831660a0830152979650505050505050565b63ffffffff93841681526001600160701b03929092166020830152909116604082015260600190565b60405181810167ffffffffffffffff8111828210171561335757fe5b604052919050565b600067ffffffffffffffff82111561337357fe5b50601f01601f191660200190565b60009081526020902090565b60005b838110156133a8578181015183820152602001613390565b83811115611fcf5750506000910152565b6001600160a01b03811681146120cc57600080fdfe4f776e61626c653a206e6577206f776e657220697320746865207a65726f2061646472657373496e697469616c697a61626c654f776e61626c653a20616c726561647920696e697469616c697a65645361666545524332303a204552433230206f7065726174696f6e20646964206e6f742073756363656564a2646970667358221220ccc87460f1a3aad03fbe0e3851e354825718901c9f0c4be5f10af65e107cb51064736f6c63430007060033",
  "linkReferences": {},
  "deployedLinkReferences": {}
}