{
  "address": "0x4ba78695845eb5e0a02cee3b51ffa214996032ce",
  "abi": [
    {
      "anonymous": false,
      "inputs": [
        {
          "indexed": false,
          "internalType": "string",
          "name": "baseUri",
          "type": "string"
        }
      ],
      "name": "BaseUriChanged",
      "type": "event"
    },
    {
      "anonymous": false,
      "inputs": [
        {
          "indexed": false,
          "internalType": "uint256",
          "name": "pole",
          "type": "uint256"
        },
        {
          "indexed": false,
          "internalType": "uint256",
          "name": "slope",
          "type": "uint256"
        }
      ],
      "name": "BondingChanged",
      "type": "event"
    },
    {
      "anonymous": false,
      "inputs": [
        {
          "indexed": false,
          "internalType": "address",
          "name": "converter",
          "type": "address"
        }
      ],
      "name": "ConverterChanged",
      "type": "event"
    },
    {
      "anonymous": false,
      "inputs": [
        {
          "indexed": false,
          "internalType": "address",
          "name": "collector",
          "type": "address"
        }
      ],
      "name": "EnterpriseCollectorChanged",
      "type": "event"
    },
    {
      "anonymous": false,
      "inputs": [
        {
          "indexed": false,
          "internalType": "uint32",
          "name": "period",
          "type": "uint32"
        }
      ],
      "name": "EnterpriseOnlyCollectionPeriodChanged",
      "type": "event"
    },
    {
      "anonymous": false,
      "inputs": [],
      "name": "EnterpriseShutdown",
      "type": "event"
    },
    {
      "anonymous": false,
      "inputs": [
        {
          "indexed": false,
          "internalType": "address",
          "name": "wallet",
          "type": "address"
        }
      ],
      "name": "EnterpriseWalletChanged",
      "type": "event"
    },
    {
      "anonymous": false,
      "inputs": [
        {
          "indexed": false,
          "internalType": "uint256",
          "name": "fixedReserve",
          "type": "uint256"
        }
      ],
      "name": "FixedReserveChanged",
      "type": "event"
    },
    {
      "anonymous": false,
      "inputs": [
        {
          "indexed": false,
          "internalType": "uint16",
          "name": "percent",
          "type": "uint16"
        }
      ],
      "name": "GcFeePercentChanged",
      "type": "event"
    },
    {
      "anonymous": false,
      "inputs": [
        {
          "indexed": true,
          "internalType": "address",
          "name": "previousOwner",
          "type": "address"
        },
        {
          "indexed": true,
          "internalType": "address",
          "name": "newOwner",
          "type": "address"
        }
      ],
      "name": "OwnershipTransferred",
      "type": "event"
    },
    {
      "anonymous": false,
      "inputs": [
        {
          "indexed": false,
          "internalType": "address",
          "name": "paymentToken",
          "type": "address"
        },
        {
          "indexed": false,
          "internalType": "bool",
          "name": "enabled",
          "type": "bool"
        }
      ],
      "name": "PaymentTokenChange",
      "type": "event"
    },
    {
      "anonymous": false,
      "inputs": [
        {
          "indexed": true,
          "internalType": "uint256",
          "name": "rentalTokenId",
          "type": "uint256"
        },
        {
          "indexed": true,
          "internalType": "address",
          "name": "renter",
          "type": "address"
        },
        {
          "indexed": false,
          "internalType": "address",
          "name": "paymentToken",
          "type": "address"
        },
        {
          "indexed": false,
          "internalType": "uint112",
          "name": "poolFee",
          "type": "uint112"
        },
        {
          "indexed": false,
          "internalType": "uint112",
          "name": "serviceFee",
          "type": "uint112"
        },
        {
          "indexed": false,
          "internalType": "uint32",
          "name": "endTime",
          "type": "uint32"
        },
        {
          "indexed": false,
          "internalType": "uint32",
          "name": "renterOnlyReturnTime",
          "type": "uint32"
        },
        {
          "indexed": false,
          "internalType": "uint32",
          "name": "enterpriseOnlyCollectionTime",
          "type": "uint32"
        }
      ],
      "name": "RentalPeriodExtended",
      "type": "event"
    },
    {
      "anonymous": false,
      "inputs": [
        {
          "indexed": true,
          "internalType": "uint256",
          "name": "rentalTokenId",
          "type": "uint256"
        },
        {
          "indexed": true,
          "internalType": "address",
          "name": "returner",
          "type": "address"
        },
        {
          "indexed": true,
          "internalType": "address",
          "name": "powerToken",
          "type": "address"
        },
        {
          "indexed": false,
          "internalType": "uint112",
          "name": "rentalAmount",
          "type": "uint112"
        },
        {
          "indexed": false,
          "internalType": "uint112",
          "name": "gcRewardAmount",
          "type": "uint112"
        },
        {
          "indexed": false,
          "internalType": "address",
          "name": "gcRewardToken",
          "type": "address"
        },
        {
          "indexed": false,
          "internalType": "uint256",
          "name": "totalReserve",
          "type": "uint256"
        },
        {
          "indexed": false,
          "internalType": "uint256",
          "name": "totalUsedReserve",
          "type": "uint256"
        }
      ],
      "name": "RentalReturned",
      "type": "event"
    },
    {
      "anonymous": false,
      "inputs": [
        {
          "indexed": true,
          "internalType": "uint256",
          "name": "rentalTokenId",
          "type": "uint256"
        },
        {
          "indexed": true,
          "internalType": "address",
          "name": "renter",
          "type": "address"
        },
        {
          "indexed": true,
          "internalType": "address",
          "name": "powerToken",
          "type": "address"
        },
        {
          "indexed": false,
          "internalType": "address",
          "name": "paymentToken",
          "type": "address"
        },
        {
          "indexed": false,
          "internalType": "uint112",
          "name": "rentalAmount",
          "type": "uint112"
        },
        {
          "indexed": false,
          "internalType": "uint112",
          "name": "poolFee",
          "type": "uint112"
        },
        {
          "indexed": false,
          "internalType": "uint112",
          "name": "serviceFee",
          "type": "uint112"
        },
        {
          "indexed": false,
          "internalType": "uint112",
          "name": "gcFee",
          "type": "uint112"
        },
        {
          "indexed": false,
          "internalType": "uint32",
          "name": "startTime",
          "type": "uint32"
        },
        {
          "indexed": false,
          "internalType": "uint32",
          "name": "endTime",
          "type": "uint32"
        },
        {
          "indexed": false,
          "internalType": "uint32",
          "name": "renterOnlyReturnTime",
          "type": "uint32"
        },
        {
          "indexed": false,
          "internalType": "uint32",
          "name": "enterpriseOnlyCollectionTime",
          "type": "uint32"
        },
        {
          "indexed": false,
          "internalType": "uint256",
          "name": "totalReserve",
          "type": "uint256"
        },
        {
          "indexed": false,
          "internalType": "uint256",
          "name": "totalUsedReserve",
          "type": "uint256"
        }
      ],
      "name": "Rented",
      "type": "event"
    },
    {
      "anonymous": false,
      "inputs": [
        {
          "indexed": false,
          "internalType": "uint32",
          "name": "period",
          "type": "uint32"
        }
      ],
      "name": "RenterOnlyReturnPeriodChanged",
      "type": "event"
    },
    {
      "anonymous": false,
      "inputs": [
        {
          "indexed": true,
          "internalType": "address",
          "name": "powerToken",
          "type": "address"
        }
      ],
      "name": "ServiceRegistered",
      "type": "event"
    },
    {
      "anonymous": false,
      "inputs": [
        {
          "indexed": true,
          "internalType": "uint256",
          "name": "stakeTokenId",
          "type": "uint256"
        },
        {
          "indexed": true,
          "internalType": "address",
          "name": "staker",
          "type": "address"
        },
        {
          "indexed": true,
          "internalType": "enum Enterprise.StakeOperation",
          "name": "operation",
          "type": "uint8"
        },
        {
          "indexed": false,
          "internalType": "uint256",
          "name": "amountDelta",
          "type": "uint256"
        },
        {
          "indexed": false,
          "internalType": "uint256",
          "name": "amount",
          "type": "uint256"
        },
        {
          "indexed": false,
          "internalType": "uint256",
          "name": "sharesDelta",
          "type": "uint256"
        },
        {
          "indexed": false,
          "internalType": "uint256",
          "name": "shares",
          "type": "uint256"
        },
        {
          "indexed": false,
          "internalType": "uint256",
          "name": "totalShares",
          "type": "uint256"
        },
        {
          "indexed": false,
          "internalType": "uint256",
          "name": "totalReserve",
          "type": "uint256"
        },
        {
          "indexed": false,
          "internalType": "uint256",
          "name": "totalUsedReserve",
          "type": "uint256"
        }
      ],
      "name": "StakeChanged",
      "type": "event"
    },
    {
      "anonymous": false,
      "inputs": [
        {
          "indexed": false,
          "internalType": "uint112",
          "name": "streamingReserve",
          "type": "uint112"
        },
        {
          "indexed": false,
          "internalType": "uint112",
          "name": "streamingReserveTarget",
          "type": "uint112"
        }
      ],
      "name": "StreamingReserveChanged",
      "type": "event"
    },
    {
      "anonymous": false,
      "inputs": [
        {
          "indexed": false,
          "internalType": "uint32",
          "name": "period",
          "type": "uint32"
        }
      ],
      "name": "StreamingReserveHalvingPeriodChanged",
      "type": "event"
    },
    {
      "inputs": [
        {
          "internalType": "uint256",
          "name": "stakeTokenId",
          "type": "uint256"
        }
      ],
      "name": "claimStakingReward",
      "outputs": [],
      "stateMutability": "nonpayable",
      "type": "function"
    },
    {
      "inputs": [
        {
          "internalType": "uint256",
          "name": "stakeTokenId",
          "type": "uint256"
        },
        {
          "internalType": "uint256",
          "name": "stakeAmountDelta",
          "type": "uint256"
        }
      ],
      "name": "decreaseStake",
      "outputs": [],
      "stateMutability": "nonpayable",
      "type": "function"
    },
    {
      "inputs": [
        {
          "internalType": "address",
          "name": "token",
          "type": "address"
        }
      ],
      "name": "disablePaymentToken",
      "outputs": [],
      "stateMutability": "nonpayable",
      "type": "function"
    },
    {
      "inputs": [
        {
          "internalType": "address",
          "name": "token",
          "type": "address"
        }
      ],
      "name": "enablePaymentToken",
      "outputs": [],
      "stateMutability": "nonpayable",
      "type": "function"
    },
    {
      "inputs": [
        {
          "internalType": "address",
          "name": "powerToken",
          "type": "address"
        },
        {
          "internalType": "address",
          "name": "paymentToken",
          "type": "address"
        },
        {
          "internalType": "uint112",
          "name": "rentalAmount",
          "type": "uint112"
        },
        {
          "internalType": "uint32",
          "name": "rentalPeriod",
          "type": "uint32"
        }
      ],
      "name": "estimateRentalFee",
      "outputs": [
        {
          "internalType": "uint256",
          "name": "",
          "type": "uint256"
        }
      ],
      "stateMutability": "view",
      "type": "function"
    },
    {
      "inputs": [
        {
          "internalType": "uint256",
          "name": "rentalTokenId",
          "type": "uint256"
        },
        {
          "internalType": "address",
          "name": "paymentToken",
          "type": "address"
        },
        {
          "internalType": "uint32",
          "name": "rentalPeriod",
          "type": "uint32"
        },
        {
          "internalType": "uint256",
          "name": "maxPayment",
          "type": "uint256"
        }
      ],
      "name": "extendRentalPeriod",
      "outputs": [],
      "stateMutability": "nonpayable",
      "type": "function"
    },
    {
      "inputs": [],
      "name": "getAvailableReserve",
      "outputs": [
        {
          "internalType": "uint256",
          "name": "",
          "type": "uint256"
        }
      ],
      "stateMutability": "view",
      "type": "function"
    },
    {
      "inputs": [],
      "name": "getBaseUri",
      "outputs": [
        {
          "internalType": "string",
          "name": "",
          "type": "string"
        }
      ],
      "stateMutability": "view",
      "type": "function"
    },
    {
      "inputs": [],
      "name": "getBondingCurve",
      "outputs": [
        {
          "internalType": "uint256",
          "name": "pole",
          "type": "uint256"
        },
        {
          "internalType": "uint256",
          "name": "slope",
          "type": "uint256"
        }
      ],
      "stateMutability": "view",
      "type": "function"
    },
    {
      "inputs": [],
      "name": "getConverter",
      "outputs": [
        {
          "internalType": "contract IConverter",
          "name": "",
          "type": "address"
        }
      ],
      "stateMutability": "view",
      "type": "function"
    },
    {
      "inputs": [],
      "name": "getEnterpriseCollector",
      "outputs": [
        {
          "internalType": "address",
          "name": "",
          "type": "address"
        }
      ],
      "stateMutability": "view",
      "type": "function"
    },
    {
      "inputs": [],
      "name": "getEnterpriseOnlyCollectionPeriod",
      "outputs": [
        {
          "internalType": "uint32",
          "name": "",
          "type": "uint32"
        }
      ],
      "stateMutability": "view",
      "type": "function"
    },
    {
      "inputs": [],
      "name": "getEnterpriseToken",
      "outputs": [
        {
          "internalType": "contract IERC20Metadata",
          "name": "",
          "type": "address"
        }
      ],
      "stateMutability": "view",
      "type": "function"
    },
    {
      "inputs": [],
      "name": "getEnterpriseWallet",
      "outputs": [
        {
          "internalType": "address",
          "name": "",
          "type": "address"
        }
      ],
      "stateMutability": "view",
      "type": "function"
    },
    {
      "inputs": [],
      "name": "getFactory",
      "outputs": [
        {
          "internalType": "address",
          "name": "",
          "type": "address"
        }
      ],
      "stateMutability": "view",
      "type": "function"
    },
    {
      "inputs": [],
      "name": "getGCFeePercent",
      "outputs": [
        {
          "internalType": "uint16",
          "name": "",
          "type": "uint16"
        }
      ],
      "stateMutability": "view",
      "type": "function"
    },
    {
      "inputs": [],
      "name": "getInfo",
      "outputs": [
        {
          "internalType": "string",
          "name": "name",
          "type": "string"
        },
        {
          "internalType": "string",
          "name": "baseUri",
          "type": "string"
        },
        {
          "internalType": "uint32",
          "name": "streamingReserveHalvingPeriod",
          "type": "uint32"
        },
        {
          "internalType": "uint32",
          "name": "renterOnlyReturnPeriod",
          "type": "uint32"
        },
        {
          "internalType": "uint32",
          "name": "enterpriseOnlyCollectionPeriod",
          "type": "uint32"
        },
        {
          "internalType": "uint16",
          "name": "gcFeePercent",
          "type": "uint16"
        },
        {
          "internalType": "uint256",
          "name": "totalShares",
          "type": "uint256"
        },
        {
          "internalType": "uint256",
          "name": "fixedReserve",
          "type": "uint256"
        },
        {
          "internalType": "uint256",
          "name": "usedReserve",
          "type": "uint256"
        },
        {
          "internalType": "uint112",
          "name": "streamingReserve",
          "type": "uint112"
        },
        {
          "internalType": "uint112",
          "name": "streamingReserveTarget",
          "type": "uint112"
        },
        {
          "internalType": "uint32",
          "name": "streamingReserveUpdated",
          "type": "uint32"
        }
      ],
      "stateMutability": "view",
      "type": "function"
    },
    {
      "inputs": [
        {
          "internalType": "uint256",
          "name": "index",
          "type": "uint256"
        }
      ],
      "name": "getPaymentToken",
      "outputs": [
        {
          "internalType": "address",
          "name": "",
          "type": "address"
        }
      ],
      "stateMutability": "view",
      "type": "function"
    },
    {
      "inputs": [
        {
          "internalType": "address",
          "name": "token",
          "type": "address"
        }
      ],
      "name": "getPaymentTokenIndex",
      "outputs": [
        {
          "internalType": "int16",
          "name": "",
          "type": "int16"
        }
      ],
      "stateMutability": "view",
      "type": "function"
    },
    {
      "inputs": [],
      "name": "getPaymentTokens",
      "outputs": [
        {
          "components": [
            {
              "internalType": "address",
              "name": "paymentToken",
              "type": "address"
            },
            {
              "internalType": "bool",
              "name": "enabled",
              "type": "bool"
            }
          ],
          "internalType": "struct EnterpriseStorage.PaymentTokenInfo[]",
          "name": "",
          "type": "tuple[]"
        }
      ],
      "stateMutability": "view",
      "type": "function"
    },
    {
      "inputs": [],
      "name": "getPowerTokens",
      "outputs": [
        {
          "internalType": "contract IPowerToken[]",
          "name": "",
          "type": "address[]"
        }
      ],
      "stateMutability": "view",
      "type": "function"
    },
    {
      "inputs": [],
      "name": "getProxyAdmin",
      "outputs": [
        {
          "internalType": "contract ProxyAdmin",
          "name": "",
          "type": "address"
        }
      ],
      "stateMutability": "view",
      "type": "function"
    },
    {
      "inputs": [
        {
          "internalType": "uint256",
          "name": "rentalTokenId",
          "type": "uint256"
        }
      ],
      "name": "getRentalAgreement",
      "outputs": [
        {
          "components": [
            {
              "internalType": "uint112",
              "name": "rentalAmount",
              "type": "uint112"
            },
            {
              "internalType": "uint16",
              "name": "powerTokenIndex",
              "type": "uint16"
            },
            {
              "internalType": "uint32",
              "name": "startTime",
              "type": "uint32"
            },
            {
              "internalType": "uint32",
              "name": "endTime",
              "type": "uint32"
            },
            {
              "internalType": "uint32",
              "name": "renterOnlyReturnTime",
              "type": "uint32"
            },
            {
              "internalType": "uint32",
              "name": "enterpriseOnlyCollectionTime",
              "type": "uint32"
            },
            {
              "internalType": "uint112",
              "name": "gcRewardAmount",
              "type": "uint112"
            },
            {
              "internalType": "uint16",
              "name": "gcRewardTokenIndex",
              "type": "uint16"
            }
          ],
          "internalType": "struct IEnterpriseStorage.RentalAgreement",
          "name": "",
          "type": "tuple"
        }
      ],
      "stateMutability": "view",
      "type": "function"
    },
    {
      "inputs": [],
      "name": "getRentalToken",
      "outputs": [
        {
          "internalType": "contract IRentalToken",
          "name": "",
          "type": "address"
        }
      ],
      "stateMutability": "view",
      "type": "function"
    },
    {
      "inputs": [],
      "name": "getRenterOnlyReturnPeriod",
      "outputs": [
        {
          "internalType": "uint32",
          "name": "",
          "type": "uint32"
        }
      ],
      "stateMutability": "view",
      "type": "function"
    },
    {
      "inputs": [],
      "name": "getReserve",
      "outputs": [
        {
          "internalType": "uint256",
          "name": "",
          "type": "uint256"
        }
      ],
      "stateMutability": "view",
      "type": "function"
    },
    {
      "inputs": [
        {
          "internalType": "uint256",
          "name": "stakeTokenId",
          "type": "uint256"
        }
      ],
      "name": "getStake",
      "outputs": [
        {
          "components": [
            {
              "internalType": "uint256",
              "name": "amount",
              "type": "uint256"
            },
            {
              "internalType": "uint256",
              "name": "shares",
              "type": "uint256"
            },
            {
              "internalType": "uint256",
              "name": "block",
              "type": "uint256"
            }
          ],
          "internalType": "struct EnterpriseStorage.Stake",
          "name": "",
          "type": "tuple"
        }
      ],
      "stateMutability": "view",
      "type": "function"
    },
    {
      "inputs": [],
      "name": "getStakeToken",
      "outputs": [
        {
          "internalType": "contract IStakeToken",
          "name": "",
          "type": "address"
        }
      ],
      "stateMutability": "view",
      "type": "function"
    },
    {
      "inputs": [
        {
          "internalType": "uint256",
          "name": "stakeTokenId",
          "type": "uint256"
        }
      ],
      "name": "getStakingReward",
      "outputs": [
        {
          "internalType": "uint256",
          "name": "",
          "type": "uint256"
        }
      ],
      "stateMutability": "view",
      "type": "function"
    },
    {
      "inputs": [],
      "name": "getStreamingReserveHalvingPeriod",
      "outputs": [
        {
          "internalType": "uint32",
          "name": "",
          "type": "uint32"
        }
      ],
      "stateMutability": "view",
      "type": "function"
    },
    {
      "inputs": [],
      "name": "getUsedReserve",
      "outputs": [
        {
          "internalType": "uint256",
          "name": "",
          "type": "uint256"
        }
      ],
      "stateMutability": "view",
      "type": "function"
    },
    {
      "inputs": [
        {
          "internalType": "uint256",
          "name": "stakeTokenId",
          "type": "uint256"
        },
        {
          "internalType": "uint256",
          "name": "stakeAmountDelta",
          "type": "uint256"
        }
      ],
      "name": "increaseStake",
      "outputs": [],
      "stateMutability": "nonpayable",
      "type": "function"
    },
    {
      "inputs": [
        {
          "internalType": "string",
          "name": "enterpriseName",
          "type": "string"
        },
        {
          "internalType": "string",
          "name": "baseUri",
          "type": "string"
        },
        {
          "internalType": "uint16",
          "name": "gcFeePercent",
          "type": "uint16"
        },
        {
          "internalType": "contract IConverter",
          "name": "converter",
          "type": "address"
        },
        {
          "internalType": "contract ProxyAdmin",
          "name": "proxyAdmin",
          "type": "address"
        },
        {
          "internalType": "address",
          "name": "owner",
          "type": "address"
        }
      ],
      "name": "initialize",
      "outputs": [],
      "stateMutability": "nonpayable",
      "type": "function"
    },
    {
      "inputs": [
        {
          "internalType": "address",
          "name": "initialOwner",
          "type": "address"
        }
      ],
      "name": "initialize",
      "outputs": [],
      "stateMutability": "nonpayable",
      "type": "function"
    },
    {
      "inputs": [
        {
          "internalType": "contract IERC20Metadata",
          "name": "enterpriseToken",
          "type": "address"
        },
        {
          "internalType": "contract IStakeToken",
          "name": "stakeToken",
          "type": "address"
        },
        {
          "internalType": "contract IRentalToken",
          "name": "rentalToken",
          "type": "address"
        }
      ],
      "name": "initializeTokens",
      "outputs": [],
      "stateMutability": "nonpayable",
      "type": "function"
    },
    {
      "inputs": [
        {
          "internalType": "address",
          "name": "powerToken",
          "type": "address"
        }
      ],
      "name": "isRegisteredPowerToken",
      "outputs": [
        {
          "internalType": "bool",
          "name": "",
          "type": "bool"
        }
      ],
      "stateMutability": "view",
      "type": "function"
    },
    {
      "inputs": [
        {
          "internalType": "address",
          "name": "token",
          "type": "address"
        }
      ],
      "name": "isSupportedPaymentToken",
      "outputs": [
        {
          "internalType": "bool",
          "name": "",
          "type": "bool"
        }
      ],
      "stateMutability": "view",
      "type": "function"
    },
    {
      "inputs": [],
      "name": "owner",
      "outputs": [
        {
          "internalType": "address",
          "name": "",
          "type": "address"
        }
      ],
      "stateMutability": "view",
      "type": "function"
    },
    {
      "inputs": [
        {
          "internalType": "string",
          "name": "serviceName",
          "type": "string"
        },
        {
          "internalType": "string",
          "name": "serviceSymbol",
          "type": "string"
        },
        {
          "internalType": "uint32",
          "name": "energyGapHalvingPeriod",
          "type": "uint32"
        },
        {
          "internalType": "uint112",
          "name": "baseRate",
          "type": "uint112"
        },
        {
          "internalType": "address",
          "name": "baseToken",
          "type": "address"
        },
        {
          "internalType": "uint16",
          "name": "serviceFeePercent",
          "type": "uint16"
        },
        {
          "internalType": "uint32",
          "name": "minRentalPeriod",
          "type": "uint32"
        },
        {
          "internalType": "uint32",
          "name": "maxRentalPeriod",
          "type": "uint32"
        },
        {
          "internalType": "uint96",
          "name": "minGCFee",
          "type": "uint96"
        },
        {
          "internalType": "bool",
          "name": "swappingEnabledForever",
          "type": "bool"
        }
      ],
      "name": "registerService",
      "outputs": [],
      "stateMutability": "nonpayable",
      "type": "function"
    },
    {
      "inputs": [
        {
          "internalType": "address",
          "name": "powerToken",
          "type": "address"
        },
        {
          "internalType": "address",
          "name": "paymentToken",
          "type": "address"
        },
        {
          "internalType": "uint112",
          "name": "rentalAmount",
          "type": "uint112"
        },
        {
          "internalType": "uint32",
          "name": "rentalPeriod",
          "type": "uint32"
        },
        {
          "internalType": "uint256",
          "name": "maxPayment",
          "type": "uint256"
        }
      ],
      "name": "rent",
      "outputs": [],
      "stateMutability": "nonpayable",
      "type": "function"
    },
    {
      "inputs": [
        {
          "internalType": "uint256",
          "name": "rentalTokenId",
          "type": "uint256"
        }
      ],
      "name": "returnRental",
      "outputs": [],
      "stateMutability": "nonpayable",
      "type": "function"
    },
    {
      "inputs": [
        {
          "internalType": "string",
          "name": "baseUri",
          "type": "string"
        }
      ],
      "name": "setBaseUri",
      "outputs": [],
      "stateMutability": "nonpayable",
      "type": "function"
    },
    {
      "inputs": [
        {
          "internalType": "uint256",
          "name": "pole",
          "type": "uint256"
        },
        {
          "internalType": "uint256",
          "name": "slope",
          "type": "uint256"
        }
      ],
      "name": "setBondingCurve",
      "outputs": [],
      "stateMutability": "nonpayable",
      "type": "function"
    },
    {
      "inputs": [
        {
          "internalType": "contract IConverter",
          "name": "newConverter",
          "type": "address"
        }
      ],
      "name": "setConverter",
      "outputs": [],
      "stateMutability": "nonpayable",
      "type": "function"
    },
    {
      "inputs": [
        {
          "internalType": "address",
          "name": "newCollector",
          "type": "address"
        }
      ],
      "name": "setEnterpriseCollector",
      "outputs": [],
      "stateMutability": "nonpayable",
      "type": "function"
    },
    {
      "inputs": [
        {
          "internalType": "uint32",
          "name": "newPeriod",
          "type": "uint32"
        }
      ],
      "name": "setEnterpriseOnlyCollectionPeriod",
      "outputs": [],
      "stateMutability": "nonpayable",
      "type": "function"
    },
    {
      "inputs": [
        {
          "internalType": "address",
          "name": "newWallet",
          "type": "address"
        }
      ],
      "name": "setEnterpriseWallet",
      "outputs": [],
      "stateMutability": "nonpayable",
      "type": "function"
    },
    {
      "inputs": [
        {
          "internalType": "uint16",
          "name": "newGcFeePercent",
          "type": "uint16"
        }
      ],
      "name": "setGcFeePercent",
      "outputs": [],
      "stateMutability": "nonpayable",
      "type": "function"
    },
    {
      "inputs": [
        {
          "internalType": "uint32",
          "name": "newPeriod",
          "type": "uint32"
        }
      ],
      "name": "setRenterOnlyReturnPeriod",
      "outputs": [],
      "stateMutability": "nonpayable",
      "type": "function"
    },
    {
      "inputs": [
        {
          "internalType": "uint32",
          "name": "streamingReserveHalvingPeriod",
          "type": "uint32"
        }
      ],
      "name": "setStreamingReserveHalvingPeriod",
      "outputs": [],
      "stateMutability": "nonpayable",
      "type": "function"
    },
    {
      "inputs": [],
      "name": "shutdownEnterpriseForever",
      "outputs": [],
      "stateMutability": "nonpayable",
      "type": "function"
    },
    {
      "inputs": [
        {
          "internalType": "uint256",
          "name": "stakeAmount",
          "type": "uint256"
        }
      ],
      "name": "stake",
      "outputs": [],
      "stateMutability": "nonpayable",
      "type": "function"
    },
    {
      "inputs": [
        {
          "internalType": "address",
          "name": "newOwner",
          "type": "address"
        }
      ],
      "name": "transferOwnership",
      "outputs": [],
      "stateMutability": "nonpayable",
      "type": "function"
    },
    {
      "inputs": [
        {
          "internalType": "address",
          "name": "from",
          "type": "address"
        },
        {
          "internalType": "address",
          "name": "to",
          "type": "address"
        },
        {
          "internalType": "uint256",
          "name": "rentalTokenId",
          "type": "uint256"
        }
      ],
      "name": "transferRental",
      "outputs": [],
      "stateMutability": "nonpayable",
      "type": "function"
    },
    {
      "inputs": [
        {
          "internalType": "uint256",
          "name": "stakeTokenId",
          "type": "uint256"
        }
      ],
      "name": "unstake",
      "outputs": [],
      "stateMutability": "nonpayable",
      "type": "function"
    },
    {
      "inputs": [
        {
          "internalType": "address",
          "name": "enterpriseFactory",
          "type": "address"
        },
        {
          "internalType": "address",
          "name": "enterpriseImplementation",
          "type": "address"
        },
        {
          "internalType": "address",
          "name": "rentalTokenImplementation",
          "type": "address"
        },
        {
          "internalType": "address",
          "name": "stakeTokenImplementation",
          "type": "address"
        },
        {
          "internalType": "address",
          "name": "powerTokenImplementation",
          "type": "address"
        },
        {
          "internalType": "address[]",
          "name": "powerTokens",
          "type": "address[]"
        }
      ],
      "name": "upgrade",
      "outputs": [],
      "stateMutability": "nonpayable",
      "type": "function"
    }
  ],
  "transactionHash": "0xc17269c75842a15bbece938b7a9819130669c342db2079e7b54802e9849cf3f4",
  "args": [],
  "solcInputHash": "5e018f48b123dc45d051a4423ead5851",
  "bytecode": "0x608060405234801561001057600080fd5b50615e2d80620000216000396000f3fe608060405234801561001057600080fd5b50600436106102885760003560e01c80630103f3131461028d5780630cac36b2146102b857806318a8a6cf146102cd5780632107730c146102ed5780632261b07f14610302578063239cd4a41461031c57806324d86f001461032f5780632e17de78146103425780632fb2067f146103555780633310df9e146103965780633513e0dc146103a9578063449497ec146103bc5780634741efb3146103cf578063500a1564146103d757806359bf5d39146103e85780635a9b0b89146103fe57806360f870871461041e57806362c1f3881461042f5780636815f337146104425780636df0bb14146104555780637c14d991146104685780637e6a7cbb1461047b5780638245ca1e1461049957806388cc58e4146104ac57806389035b61146104bd5780638b3240a0146104e95780638da5cb5b146104f15780638fc49ad2146104f9578063960970c71461050c5780639ab711931461051f5780639c7aa7f8146105325780639f52673c14610545578063a0bcfc7f1461055a578063a554b26d1461056d578063a694fc3a1461057e578063abfe35ad14610591578063aebb5041146105a4578063b19337a4146105ac578063b406bf6d146105bf578063b714ff53146105e0578063b96266fa146105f1578063bec10cde14610606578063bfd84fb414610619578063c4d66de81461062c578063c852d2001461063f578063c9a304cb14610652578063ca5e553e14610665578063cdc2aebf1461067a578063ce325bf81461068d578063dccdc7d9146106c2578063dd9919e7146106d3578063ef1f9f39146106e8578063f2fde38b146106fb578063f87c42611461070e578063faac38ef14610721578063fcb2884e1461073c575b600080fd5b6102a061029b366004614f9e565b610744565b60405160019190910b81526020015b60405180910390f35b6102c0610771565b6040516102af919061578f565b6102e06102db3660046154bd565b610803565b6040516102af919061587e565b6103006102fb366004614f9e565b610958565b005b6004546001600160a01b03165b6040516102af9190615612565b61030061032a3660046154bd565b610a32565b61030061033d366004615532565b610c0a565b6103006103503660046154bd565b610e8f565b610386610363366004614f9e565b6001600160a01b0316600090815260076020526040812054600190810b900b1390565b60405190151581526020016102af565b6103006103a43660046154bd565b6110df565b6103006103b7366004615532565b6114d4565b6103006103ca366004615485565b6115e1565b61030061166b565b6001546001600160a01b031661030f565b6103f0611765565b6040519081526020016102af565b61040661178a565b6040516102af9c9b9a999897969594939291906157a2565b6000546001600160a01b031661030f565b61030061043d366004614f9e565b61194b565b6103006104503660046152ab565b611a11565b610300610463366004614fd6565b611d7c565b610300610476366004615553565b6120e9565b600654600160a01b900463ffffffff165b6040516102af9190615954565b6103f06104a73660046150a3565b6121c0565b6003546001600160a01b031661030f565b6103866104cb366004614f9e565b6001600160a01b031660009081526013602052604090205460ff1690565b61030f612316565b61030f612337565b6103006105073660046150fc565b61234d565b61030061051a36600461515d565b612a20565b61030061052d36600461535d565b612d0a565b610300610540366004614f9e565b6131c2565b600654600160c01b900463ffffffff1661048c565b610300610568366004615203565b613308565b6005546001600160a01b031661030f565b61030061058c3660046154bd565b613380565b6103f061059f3660046154bd565b61352a565b6103f0613558565b6103006105ba366004614f9e565b61356a565b600654600160e01b900461ffff1660405161ffff90911681526020016102af565b6002546001600160a01b031661030f565b6105f9613630565b6040516102af91906156ac565b610300610614366004615532565b613691565b610300610627366004614f9e565b613882565b61030061063a366004614f9e565b613918565b61030061064d3660046154ed565b6139ed565b610300610660366004615553565b613dd9565b61066d613eaf565b6040516102af91906156f9565b61030f6106883660046154bd565b613fe1565b6106a061069b3660046154bd565b61401f565b60408051825181526020808401519082015291810151908201526060016102af565b6006546001600160a01b031661030f565b600354600160a01b900463ffffffff1661048c565b6103006106f63660046151b9565b6140f9565b610300610709366004614f9e565b6141c8565b61030061071c366004615553565b6142b9565b600e54600d54604080519283526020830191909152016102af565b600a546103f0565b6001600160a01b03811660009081526007602052604081205461076b90600190810b615a5d565b92915050565b60606010805461078090615b0d565b80601f01602080910402602001604051908101604052809291908181526020018280546107ac90615b0d565b80156107f95780601f106107ce576101008083540402835291602001916107f9565b820191906000526020600020905b8154815290600101906020018083116107dc57829003601f168201915b5050505050905090565b6040805161010081018252600080825260208201819052818301819052606082018190526080820181905260a0820181905260c0820181905260e082015260025491516331a9108f60e11b81526004810184905290916001600160a01b031690636352211e9060240160206040518083038186803b15801561088457600080fd5b505afa158015610898573d6000803e3d6000fd5b505050506040513d601f19601f820116820180604052508101906108bc9190614fba565b505060009081526011602090815260409182902082516101008101845281546001600160701b038082168352600160701b80830461ffff90811696850196909652600160801b830463ffffffff90811697850197909752600160a01b830487166060850152600160c01b830487166080850152600160e01b90920490951660a083015260019092015493841660c082015292041660e082015290565b33610961612337565b6001600160a01b031614604051806040016040528060018152602001603360f81b815250906109ac5760405162461bcd60e51b81526004016109a3919061578f565b60405180910390fd5b506040805180820190915260028152611b1960f11b60208201526001600160a01b0382166109ed5760405162461bcd60e51b81526004016109a3919061578f565b50600680546001600160a01b0319166001600160a01b038316179055604051600080516020615dd883398151915290610a27908390615612565b60405180910390a150565b6001546040516331a9108f60e11b815260048101839052829133916001600160a01b0390911690636352211e9060240160206040518083038186803b158015610a7a57600080fd5b505afa158015610a8e573d6000803e3d6000fd5b505050506040513d601f19601f82011682018060405250810190610ab29190614fba565b6001600160a01b031614604051806040016040528060018152602001603360f81b81525090610af45760405162461bcd60e51b81526004016109a3919061578f565b506000828152601260205260408120805460018201549192909190610b17611765565b90506000610b2683858461437f565b9050610b31826143b1565b811115604051806040016040528060028152602001611a1b60f11b81525090610b6d5760405162461bcd60e51b81526004016109a3919061578f565b50600054610b85906001600160a01b031633836143c1565b6000610b918584614417565b90506000610b9f8286615aca565b9050610bab8382614432565b600187018290556000336001600160a01b03168a600080516020615c18833981519152868a8688600c548b8d610be19190615aca565b600a54604051610bf79796959493929190615924565b60405180910390a4505050505050505050565b6001546040516331a9108f60e11b815260048101849052839133916001600160a01b0390911690636352211e9060240160206040518083038186803b158015610c5257600080fd5b505afa158015610c66573d6000803e3d6000fd5b505050506040513d601f19601f82011682018060405250810190610c8a9190614fba565b6001600160a01b031614604051806040016040528060018152602001603360f81b81525090610ccc5760405162461bcd60e51b81526004016109a3919061578f565b50600083815260126020908152604091829020825160608101845281548152600182015481840152600291820154818501819052845180860190955291845261035360f41b928401929092529091904311610d3a5760405162461bcd60e51b81526004016109a3919061578f565b5080516040805180820190915260028152611a1b60f11b602082015290841115610d775760405162461bcd60e51b81526004016109a3919061578f565b506000610d82611765565b9050610d8d816143b1565b841115604051806040016040528060028152602001611a1b60f11b81525090610dc95760405162461bcd60e51b81526004016109a3919061578f565b50600054610de1906001600160a01b031633866143c1565b6000610ded8583614417565b90508260200151811115610e02575060208201515b610e0c8582614432565b6020838101805183900380825285518890038652600089815260129093526040909220600181019290925584519182905551600c5460049233928a92600080516020615c18833981519152928b929091889190610e69858c615aca565b600a54604051610e7f9796959493929190615924565b60405180910390a4505050505050565b6001546040516331a9108f60e11b815260048101839052829133916001600160a01b0390911690636352211e9060240160206040518083038186803b158015610ed757600080fd5b505afa158015610eeb573d6000803e3d6000fd5b505050506040513d601f19601f82011682018060405250810190610f0f9190614fba565b6001600160a01b031614604051806040016040528060018152602001603360f81b81525090610f515760405162461bcd60e51b81526004016109a3919061578f565b5060006012600084815260200190815260200160002090504381600201541060405180604001604052806002815260200161035360f41b81525090610fa95760405162461bcd60e51b81526004016109a3919061578f565b5060018101546000610fb9611765565b90506000610fc783836144b9565b9050610fd2826143b1565b811115604051806040016040528060028152602001611a1b60f11b8152509061100e5760405162461bcd60e51b81526004016109a3919061578f565b50600054611026906001600160a01b031633836143c1565b6110308184614432565b600154604051630852cd8d60e31b8152600481018890526001600160a01b03909116906342966c6890602401600060405180830381600087803b15801561107657600080fd5b505af115801561108a573d6000803e3d6000fd5b5050506000878152601260205260408120818155600181018290556002908101919091559050336001600160a01b031687600080516020615c18833981519152846000886000600c54898b610e699190615aca565b60008181526011602090815260409182902082516101008101845281546001600160701b0380821680845261ffff600160701b80850482168689015263ffffffff600160801b86048116878b0152600160a01b860481166060880152600160c01b860481166080880152600160e01b90950490941660a086015260019095015491821660c085015291900490921660e082015283518085019094526002845261068760f31b928401929092529091906111ab5760405162461bcd60e51b81526004016109a3919061578f565b506002546040516331a9108f60e11b8152600481018490526000916001600160a01b031690636352211e9060240160206040518083038186803b1580156111f157600080fd5b505afa158015611205573d6000803e3d6000fd5b505050506040513d601f19601f820116820180604052508101906112299190614fba565b905060004290508063ffffffff16836080015163ffffffff1610806112565750336001600160a01b038316145b60405180604001604052806002815260200161353360f01b8152509061128f5760405162461bcd60e51b81526004016109a3919061578f565b508063ffffffff168360a0015163ffffffff1610806112b65750336001600160a01b038316145b806112cb57506005546001600160a01b031633145b604051806040016040528060028152602001610d4d60f21b815250906113045760405162461bcd60e51b81526004016109a3919061578f565b50600354600160c01b900460ff1661133b5782600001516001600160701b0316600a60008282546113359190615aca565b90915550505b6014836020015161ffff168154811061136457634e487b7160e01b600052603260045260246000fd5b9060005260206000200160009054906101000a90046001600160a01b03166001600160a01b0316336001600160a01b0316857fe8c3d212180d23288b990f9938fef98c64caec34bc128fccea9f7eea006ba73886600001518760c0015160088960e0015161ffff16815481106113ea57634e487b7160e01b600052603260045260246000fd5b6000918252602090912001546001600160a01b0316611407611765565b600a54604080516001600160701b0396871681529490951660208501526001600160a01b0392909216838501526060830152608082015290519081900360a00190a4600254604051633f34d4cf60e21b8152600481018690523360248201526001600160a01b039091169063fcd3533c90604401600060405180830381600087803b15801561149557600080fd5b505af11580156114a9573d6000803e3d6000fd5b50505060009485525050601160205250506040812090815560010180546001600160801b0319169055565b336114dd612337565b6001600160a01b031614604051806040016040528060018152602001603360f81b8152509061151f5760405162461bcd60e51b81526004016109a3919061578f565b5061152f600a600360401b615a1e565b82111560405180604001604052806002815260200161373760f01b8152509061156b5760405162461bcd60e51b81526004016109a3919061578f565b5060408051808201909152600281526106e760f31b6020820152600160401b8211156115aa5760405162461bcd60e51b81526004016109a3919061578f565b50600e829055600d8190556040805183815260208101839052600080516020615c7883398151915291015b60405180910390a15050565b336115ea612337565b6001600160a01b031614604051806040016040528060018152602001603360f81b8152509061162c5760405162461bcd60e51b81526004016109a3919061578f565b506006805461ffff60e01b1916600160e01b61ffff841690810291909117909155604051908152600080516020615cb883398151915290602001610a27565b600354604080518082019091526002815261373560f01b602082015290600160c01b900460ff16156116b05760405162461bcd60e51b81526004016109a3919061578f565b50336116ba612337565b6001600160a01b031614604051806040016040528060018152602001603360f81b815250906116fc5760405162461bcd60e51b81526004016109a3919061578f565b5060038054600160c01b60ff60c01b199091161790556000600a819055600b8054600160701b81046001600160701b03166001600160701b03199091161790556040517f6f6348718c9a361558c634b516777b2b06bb2bf4140ad3d3bfaa44270fc2c0729190a1565b600061176f6144c9565b6001600160701b031660095461178591906159e7565b905090565b600354600654600c54600954600a54600b54600f80546060978897600097889788978897889788978897889788978897949660109663ffffffff600160a01b95869004811697958504811696600160c01b860482169661ffff600160e01b9788900416969094936001600160701b0380821694600160701b8304909116939290910416908c9061181990615b0d565b80601f016020809104026020016040519081016040528092919081815260200182805461184590615b0d565b80156118925780601f1061186757610100808354040283529160200191611892565b820191906000526020600020905b81548152906001019060200180831161187557829003601f168201915b50505050509b508a80546118a590615b0d565b80601f01602080910402602001604051908101604052809291908181526020018280546118d190615b0d565b801561191e5780601f106118f35761010080835404028352916020019161191e565b820191906000526020600020905b81548152906001019060200180831161190157829003601f168201915b50505050509a509b509b509b509b509b509b509b509b509b509b509b509b50909192939495969798999a9b565b33611954612337565b6001600160a01b031614604051806040016040528060018152602001603360f81b815250906119965760405162461bcd60e51b81526004016109a3919061578f565b50604080518082019091526002815261363160f01b60208201526001600160a01b0382166119d75760405162461bcd60e51b81526004016109a3919061578f565b50600580546001600160a01b0319166001600160a01b038316179055604051600080516020615d5883398151915290610a27908390615612565b600f8054611a1e90615b0d565b6040805180820190915260018152601960f91b6020820152915015611a565760405162461bcd60e51b81526004016109a3919061578f565b50600087511160405180604001604052806002815260200161383160f01b81525090611a955760405162461bcd60e51b81526004016109a3919061578f565b50611a9f81613918565b81600080516020615c9883398151915280546001600160a01b03929092166001600160a01b031992831617905560038054909116331790558651611aea90600f9060208a0190614d9e565b50611af760108787614e22565b5060068054600480546001600160a01b03199081166001600160a01b03888116919091179092556005805492861692909116821790556003805463ffffffff60a01b191661127560a71b179055600165ffff0000000160c01b0319909116600160e01b61ffff8816026001600160c01b03191617176102a360a61b1763ffffffff60c01b19166102a360c71b179055611b956064600560401b615a1e565b600e55611ba7600a600360401b615a1e565b600d55604051600080516020615bf883398151915290611bca9088908890615760565b60405180910390a1600654604051600160e01b90910461ffff168152600080516020615cb88339815191529060200160405180910390a1600454604051600080516020615cf883398151915291611c2c916001600160a01b0390911690615612565b60405180910390a1600654604051600080516020615dd883398151915291611c5f916001600160a01b0390911690615612565b60405180910390a1600554604051600080516020615d5883398151915291611c92916001600160a01b0390911690615612565b60405180910390a1600080516020615cd8833981519152600360149054906101000a900463ffffffff16604051611cc99190615954565b60405180910390a1600080516020615c58833981519152600660149054906101000a900463ffffffff16604051611d009190615954565b60405180910390a1600080516020615d78833981519152600660189054906101000a900463ffffffff16604051611d379190615954565b60405180910390a1600080516020615c78833981519152600e54600d54604051611d6b929190918252602082015260400190565b60405180910390a150505050505050565b33611d85612337565b6001600160a01b031614604051806040016040528060018152602001603360f81b81525090611dc75760405162461bcd60e51b81526004016109a3919061578f565b50604080518082019091526002815261383360f01b60208201526001600160a01b038816611e085760405162461bcd60e51b81526004016109a3919061578f565b50600380546001600160a01b0319166001600160a01b0389161790556000611e2e612316565b90506001600160a01b03871615611ea05760405163266a23b160e21b81526001600160a01b038216906399a88ec490611e6d9030908b90600401615746565b600060405180830381600087803b158015611e8757600080fd5b505af1158015611e9b573d6000803e3d6000fd5b505050505b6001600160a01b03861615611f165760025460405163266a23b160e21b81526001600160a01b03838116926399a88ec492611ee392909116908a90600401615746565b600060405180830381600087803b158015611efd57600080fd5b505af1158015611f11573d6000803e3d6000fd5b505050505b6001600160a01b03851615611f8c5760015460405163266a23b160e21b81526001600160a01b03838116926399a88ec492611f5992909116908990600401615746565b600060405180830381600087803b158015611f7357600080fd5b505af1158015611f87573d6000803e3d6000fd5b505050505b6001600160a01b038416156120df5760005b828110156120dd5760136000858584818110611fca57634e487b7160e01b600052603260045260246000fd5b9050602002016020810190611fdf9190614f9e565b6001600160a01b03168152602080820192909252604090810160002054815180830190925260018252601b60f91b928201929092529060ff166120355760405162461bcd60e51b81526004016109a3919061578f565b50816001600160a01b03166399a88ec485858481811061206557634e487b7160e01b600052603260045260246000fd5b905060200201602081019061207a9190614f9e565b876040518363ffffffff1660e01b8152600401612098929190615746565b600060405180830381600087803b1580156120b257600080fd5b505af11580156120c6573d6000803e3d6000fd5b5050505080806120d590615b48565b915050611f9e565b505b5050505050505050565b336120f2612337565b6001600160a01b031614604051806040016040528060018152602001603360f81b815250906121345760405162461bcd60e51b81526004016109a3919061578f565b506006546040805180820190915260028152610d8d60f21b60208201529063ffffffff600160c01b909104811690831611156121835760405162461bcd60e51b81526004016109a3919061578f565b506006805463ffffffff60a01b1916600160a01b63ffffffff841602179055604051600080516020615c5883398151915290610a27908390615954565b600354604080518082019091526002815261373560f01b6020820152600091600160c01b900460ff16156122075760405162461bcd60e51b81526004016109a3919061578f565b506001600160a01b03851660009081526013602090815260409182902054825180840190935260018352601b60f91b9183019190915260ff1661225d5760405162461bcd60e51b81526004016109a3919061578f565b506000806000876001600160a01b031663ff1fb8868888886040518463ffffffff1660e01b815260040161229393929190615663565b60606040518083038186803b1580156122ab57600080fd5b505afa1580156122bf573d6000803e3d6000fd5b505050506040513d601f19601f820116820180604052508101906122e39190615444565b91945092509050806122f583856159bc565b6122ff91906159bc565b6001600160701b031693505050505b949350505050565b6000600080516020615c988339815191525b546001600160a01b0316919050565b6000600080516020615c38833981519152612328565b600354604080518082019091526002815261373560f01b602082015290600160c01b900460ff16156123925760405162461bcd60e51b81526004016109a3919061578f565b506040805180820190915260028152611b9b60f11b60208201526001600160701b0384166123d35760405162461bcd60e51b81526004016109a3919061578f565b506001600160a01b03851660009081526013602090815260409182902054825180840190935260018352601b60f91b9183019190915260ff166124295760405162461bcd60e51b81526004016109a3919061578f565b50612432613558565b836001600160701b03161115604051806040016040528060028152602001611a1b60f11b815250906124775760405162461bcd60e51b81526004016109a3919061578f565b506000806000876001600160a01b031663ff1fb8868888886040518463ffffffff1660e01b81526004016124ad93929190615663565b60606040518083038186803b1580156124c557600080fd5b505afa1580156124d9573d6000803e3d6000fd5b505050506040513d601f19601f820116820180604052508101906124fd9190615444565b91945092509050838161251084866159bc565b61251a91906159bc565b6001600160701b0316111560405180604001604052806002815260200161343760f01b8152509061255e5760405162461bcd60e51b81526004016109a3919061578f565b5061257387836001600160701b031685614531565b600254612598906001600160a01b03898116913391166001600160701b0385166146d9565b856001600160701b0316600a60008282546125b391906159e7565b90915550600090506125c586426159ff565b6006549091506000906125e590600160a01b900463ffffffff16836159ff565b60065490915060009061260590600160c01b900463ffffffff16846159ff565b90506000600260009054906101000a90046001600160a01b03166001600160a01b031663caa0f92a6040518163ffffffff1660e01b8152600401602060405180830381600087803b15801561265957600080fd5b505af115801561266d573d6000803e3d6000fd5b505050506040513d601f19601f8201168201806040525081019061269191906154d5565b90506040518061010001604052808b6001600160701b031681526020018d6001600160a01b03166381045ead6040518163ffffffff1660e01b815260040160206040518083038186803b1580156126e757600080fd5b505afa1580156126fb573d6000803e3d6000fd5b505050506040513d601f19601f8201168201806040525081019061271f91906154a1565b61ffff1681526020014263ffffffff1681526020018563ffffffff1681526020018463ffffffff1681526020018363ffffffff168152602001866001600160701b031681526020016127708d610744565b61ffff9081169091526000838152601160209081526040918290208451815492860151868501516060880151608089015160a08a01516001600160701b039586166001600160801b031998891617600160701b958b16860217600160801b600160c01b031916600160801b63ffffffff9586160263ffffffff60a01b191617600160a01b93851693909302929092176001600160c01b0316600160c01b918416919091026001600160e01b031617600160e01b929091169190910217835560c08701516001909301805460e0909801519390921696909316959095179316029190911790915560025490516335313c2160e11b815282916001600160a01b031690636a62784290612885903390600401615612565b602060405180830381600087803b15801561289f57600080fd5b505af11580156128b3573d6000803e3d6000fd5b505050506040513d601f19601f820116820180604052508101906128d791906154d5565b146128f257634e487b7160e01b600052600160045260246000fd5b604051635a85946560e01b8152600481018290526001600160a01b038d1690635a85946590602401600060405180830381600087803b15801561293457600080fd5b505af1158015612948573d6000803e3d6000fd5b505050508b6001600160a01b0316336001600160a01b0316827f59dee24cee42a5fd3c1be706cc8906676ac6950d523c17fa522275c74e7b9c758e8e8c8c8c428d8d8d612993611765565b600a54604080516001600160a01b03909c168c526001600160701b039a8b1660208d0152988a16988b019890985295881660608a015296909316608088015263ffffffff91821660a0880152811660c087015290811660e08601529092166101008401526101208301919091526101408201526101600160405180910390a4505050505050505050505050565b600280546040805180820190915291825261333960f01b60208301526001600160a01b03163314612a645760405162461bcd60e51b81526004016109a3919061578f565b5060008181526011602090815260409182902082516101008101845281546001600160701b0380821680845261ffff600160701b80850482168689015263ffffffff600160801b86048116878b0152600160a01b860481166060880152600160c01b860481166080880152600160e01b90950490941660a086015260019095015491821660c085015291900490921660e082015283518085019094526002845261068760f31b92840192909252909190612b315760405162461bcd60e51b81526004016109a3919061578f565b50606081015160208201516014805463ffffffff9093164211926001600160a01b0388811615939088161592600092909161ffff16908110612b8357634e487b7160e01b600052603260045260246000fd5b6000918252602090912001546001600160a01b031690508115612c0557845160405163079cc67960e41b81526001600160a01b038316916379cc679091612bce918c91600401615641565b600060405180830381600087803b158015612be857600080fd5b505af1158015612bfc573d6000803e3d6000fd5b505050506120df565b8215612c395784516040516340c10f1960e01b81526001600160a01b038316916340c10f1991612bce918b91600401615641565b83612cda5784516040516333bebb7760e01b81526001600160a01b038a8116600483015289811660248301526001600160701b039092166044820152908216906333bebb7790606401602060405180830381600087803b158015612c9c57600080fd5b505af1158015612cb0573d6000803e3d6000fd5b505050506040513d601f19601f82011682018060405250810190612cd4919061519d565b506120df565b60408051808201825260028152611a9960f11b6020820152905162461bcd60e51b81526109a3919060040161578f565b33612d13612337565b6001600160a01b031614604051806040016040528060018152602001603360f81b81525090612d555760405162461bcd60e51b81526004016109a3919061578f565b50600354604080518082019091526002815261373560f01b602082015290600160c01b900460ff1615612d9b5760405162461bcd60e51b81526004016109a3919061578f565b50604080518082019091526002815261034360f41b60208201526001600160a01b038716612ddc5760405162461bcd60e51b81526004016109a3919061578f565b50601454604080518082019091526002815261343160f01b60208201529061ffff11612e1b5760405162461bcd60e51b81526004016109a3919061578f565b506003546000906001600160a01b031663c31011cc612e38612316565b6040518263ffffffff1660e01b8152600401612e549190615612565b602060405180830381600087803b158015612e6e57600080fd5b505af1158015612e82573d6000803e3d6000fd5b505050506040513d601f19601f82011682018060405250810190612ea69190614fba565b905060008060009054906101000a90046001600160a01b03166001600160a01b03166395d89b416040518163ffffffff1660e01b815260040160006040518083038186803b158015612ef757600080fd5b505afa158015612f0b573d6000803e3d6000fd5b505050506040513d6000823e601f3d908101601f19168201604052612f339190810190615242565b90506000818c604051602001612f4a9291906155d6565b6040516020818303038152906040529050826001600160a01b0316631624f6c68e8360008054906101000a90046001600160a01b03166001600160a01b031663313ce5676040518163ffffffff1660e01b815260040160206040518083038186803b158015612fb857600080fd5b505afa158015612fcc573d6000803e3d6000fd5b505050506040513d601f19601f82011682018060405250810190612ff0919061556d565b6040518463ffffffff1660e01b815260040161300e93929190615845565b600060405180830381600087803b15801561302857600080fd5b505af115801561303c573d6000803e3d6000fd5b505050505050806001600160a01b031663b29c98ad30898b878b8f6014805490508d8d8c6040518b63ffffffff1660e01b81526004016130f79a999897969594939291906001600160a01b039a8b1681529890991660208901526001600160701b039690961660408801526001600160601b0394909416606087015261ffff928316608087015263ffffffff91821660a087015290911660c085015290811660e0840152166101008201529015156101208201526101400190565b600060405180830381600087803b15801561311157600080fd5b505af1158015613125573d6000803e3d6000fd5b50506014805460018082019092557fce6d7b5282bd9a3661ae061feed1dbda4e52ab073b1f9285be6e155d9c38d4ec0180546001600160a01b0319166001600160a01b038616908117909155600081815260136020526040808220805460ff191690941790935591519093507f2fa31fbaacf5eaf61d648ea7528ada6efb69bfb06d2c3bd35ce511a820fce53e9250a25050505050505050505050565b336131cb612337565b6001600160a01b031614604051806040016040528060018152602001603360f81b8152509061320d5760405162461bcd60e51b81526004016109a3919061578f565b506001600160a01b03811660009081526007602090815260409182902054825180840190935260028352611b9960f11b91830191909152600190810b900b6132685760405162461bcd60e51b81526004016109a3919061578f565b506001600160a01b038116600090815260076020526040812054600190810b900b1315613305576001600160a01b0381166000908152600760205260409020546132b49060010b615b63565b6001600160a01b038216600090815260076020526040808220805460019490940b61ffff1661ffff19909416939093179092559051600080516020615d9883398151915291610a2791849190615626565b50565b33613311612337565b6001600160a01b031614604051806040016040528060018152602001603360f81b815250906133535760405162461bcd60e51b81526004016109a3919061578f565b5061336060108383614e22565b50600080516020615bf883398151915282826040516115d5929190615760565b600354604080518082019091526002815261373560f01b602082015290600160c01b900460ff16156133c55760405162461bcd60e51b81526004016109a3919061578f565b506000546133de906001600160a01b03163330846146d9565b60006133e8611765565b90506000600c54600014613405576134008383614417565b613407565b825b90506134138382614717565b6001546040516335313c2160e11b81526000916001600160a01b031690636a62784290613444903390600401615612565b602060405180830381600087803b15801561345e57600080fd5b505af1158015613472573d6000803e3d6000fd5b505050506040513d601f19601f8201168201806040525081019061349691906154d5565b60408051606081018252868152602080820186815243838501908152600086815260129093529390912091518255516001808301919091559151600290910155909150336001600160a01b031682600080516020615c1883398151915287888788600c548c8c61350691906159e7565b600a5460405161351c9796959493929190615924565b60405180910390a450505050565b600081815260126020526040812060018101548154613551919061354c611765565b61437f565b9392505050565b6000611785613565611765565b6143b1565b33613573612337565b6001600160a01b031614604051806040016040528060018152602001603360f81b815250906135b55760405162461bcd60e51b81526004016109a3919061578f565b50604080518082019091526002815261363360f01b60208201526001600160a01b0382166135f65760405162461bcd60e51b81526004016109a3919061578f565b50600480546001600160a01b0319166001600160a01b038316179055604051600080516020615cf883398151915290610a27908390615612565b606060148054806020026020016040519081016040528092919081815260200182805480156107f957602002820191906000526020600020905b81546001600160a01b0316815260019091019060200180831161366a575050505050905090565b600354604080518082019091526002815261373560f01b602082015290600160c01b900460ff16156136d65760405162461bcd60e51b81526004016109a3919061578f565b506001546040516331a9108f60e11b815260048101849052839133916001600160a01b0390911690636352211e9060240160206040518083038186803b15801561371f57600080fd5b505afa158015613733573d6000803e3d6000fd5b505050506040513d601f19601f820116820180604052508101906137579190614fba565b6001600160a01b031614604051806040016040528060018152602001603360f81b815250906137995760405162461bcd60e51b81526004016109a3919061578f565b506000546137b2906001600160a01b03163330856146d9565b60006137bc611765565b90506000600c546000146137d9576137d48483614417565b6137db565b835b90506137e78482614717565b600085815260126020526040812080549091906138059087906159e7565b9050600083836001015461381991906159e7565b8284556001840181905543600285015590506003336001600160a01b031689600080516020615c188339815191528a868987600c548f8e61385a91906159e7565b600a546040516138709796959493929190615924565b60405180910390a45050505050505050565b3361388b612337565b6001600160a01b031614604051806040016040528060018152602001603360f81b815250906138cd5760405162461bcd60e51b81526004016109a3919061578f565b50604080518082019091526002815261373160f01b60208201526001600160a01b03821661390e5760405162461bcd60e51b81526004016109a3919061578f565b5061330581614765565b6000613922612337565b6001600160a01b031614604051806040016040528060018152602001601960f91b815250906139645760405162461bcd60e51b81526004016109a3919061578f565b50604080518082019091526002815261373360f01b60208201526001600160a01b0382166139a55760405162461bcd60e51b81526004016109a3919061578f565b50600080516020615c3883398151915280546001600160a01b0319166001600160a01b038316908117909155604051600090600080516020615d38833981519152908290a350565b600354604080518082019091526002815261373560f01b602082015290600160c01b900460ff1615613a325760405162461bcd60e51b81526004016109a3919061578f565b50600084815260116020908152604091829020805483518085019094526002845261068760f31b9284019290925291906001600160701b0316613a885760405162461bcd60e51b81526004016109a3919061578f565b50805460148054600092600160701b900461ffff16908110613aba57634e487b7160e01b600052603260045260246000fd5b60009182526020909120015482546001600160a01b0390911691504290613aef908690600160a01b900463ffffffff166159ff565b63ffffffff16101560405180604001604052806002815260200161343960f01b81525090613b305760405162461bcd60e51b81526004016109a3919061578f565b50600a548254613b49906001600160701b031682615aca565b600a5582546040516001627023bd60e11b0319815260009182916001600160a01b0386169163ff1fb88691613b90918c916001600160701b03909116908c90600401615663565b60606040518083038186803b158015613ba857600080fd5b505afa158015613bbc573d6000803e3d6000fd5b505050506040513d601f19601f82011682018060405250810190613be09190615444565b50600a859055909250905085613bf682846159bc565b6001600160701b0316111560405180604001604052806002815260200161343760f01b81525090613c3a5760405162461bcd60e51b81526004016109a3919061578f565b50613c4f88826001600160701b031684614531565b8454600090613c6c908990600160a01b900463ffffffff166159ff565b600654909150600090613c8c90600160a01b900463ffffffff16836159ff565b600654909150600090613cac90600160c01b900463ffffffff16846159ff565b8854600160a01b600160e01b031916600160a01b63ffffffff8681169190910263ffffffff60c01b191691909117600160c01b85831602176001600160e01b0316600160e01b91831691909102178955604051635a85946560e01b8152600481018e90529091506001600160a01b03881690635a85946590602401600060405180830381600087803b158015613d4157600080fd5b505af1158015613d55573d6000803e3d6000fd5b5050604080516001600160a01b038f1681526001600160701b03898116602083015288168183015263ffffffff87811660608301528681166080830152851660a082015290513393508f92507f012ee01e680dee236f33567d88889822f7521f77a65adc92142abf5a2005d3ef9181900360c00190a3505050505050505050505050565b33613de2612337565b6001600160a01b031614604051806040016040528060018152602001603360f81b81525090613e245760405162461bcd60e51b81526004016109a3919061578f565b50600654604080518082019091526002815261363560f01b60208201529063ffffffff808416600160a01b909204161115613e725760405162461bcd60e51b81526004016109a3919061578f565b506006805463ffffffff60c01b1916600160c01b63ffffffff841602179055604051600080516020615d7883398151915290610a27908390615954565b6008546060906000816001600160401b03811115613edd57634e487b7160e01b600052604160045260246000fd5b604051908082528060200260200182016040528015613f2257816020015b6040805180820190915260008082526020820152815260200190600190039081613efb5790505b50905060005b82811015613fda57600060088281548110613f5357634e487b7160e01b600052603260045260246000fd5b60009182526020808320909101546040805180820182526001600160a01b039092168083528085526007845290842054600190810b900b9390931391810191909152845191925090849084908110613fbb57634e487b7160e01b600052603260045260246000fd5b6020026020010181905250508080613fd290615b48565b915050613f28565b5092915050565b60006008828154811061400457634e487b7160e01b600052603260045260246000fd5b6000918252602090912001546001600160a01b031692915050565b61404360405180606001604052806000815260200160008152602001600081525090565b6001546040516331a9108f60e11b8152600481018490526001600160a01b0390911690636352211e9060240160206040518083038186803b15801561408757600080fd5b505afa15801561409b573d6000803e3d6000fd5b505050506040513d601f19601f820116820180604052508101906140bf9190614fba565b5050600090815260126020908152604091829020825160608101845281548152600182015492810192909252600201549181019190915290565b6000546040805180820190915260018152601960f91b6020820152906001600160a01b03161561413c5760405162461bcd60e51b81526004016109a3919061578f565b506040805180820190915260018152603560f81b60208201526001600160a01b03841661417c5760405162461bcd60e51b81526004016109a3919061578f565b50600080546001600160a01b038086166001600160a01b0319928316179092556001805485841690831617905560028054928416929091169190911790556141c383614765565b505050565b336141d1612337565b6001600160a01b031614604051806040016040528060018152602001603360f81b815250906142135760405162461bcd60e51b81526004016109a3919061578f565b50604080518082019091526002815261373360f01b60208201526001600160a01b0382166142545760405162461bcd60e51b81526004016109a3919061578f565b50806001600160a01b0316614267612337565b6001600160a01b0316600080516020615d3883398151915260405160405180910390a3600080516020615c3883398151915280546001600160a01b0319166001600160a01b0392909216919091179055565b336142c2612337565b6001600160a01b031614604051806040016040528060018152602001603360f81b815250906143045760405162461bcd60e51b81526004016109a3919061578f565b506040805180820190915260028152611b1b60f11b602082015263ffffffff82166143425760405162461bcd60e51b81526004016109a3919061578f565b506003805463ffffffff60a01b1916600160a01b63ffffffff841602179055604051600080516020615cd883398151915290610a27908390615954565b60008061438c85846144b9565b9050838111156143a5576143a08482615aca565b6143a8565b60005b95945050505050565b6000600a548261076b9190615aca565b6141c38363a9059cbb60e01b84846040516024016143e0929190615693565b60408051601f198184030181529190526020810180516001600160e01b03166001600160e01b0319909316929092179091526148b0565b60008183600c546144289190615a3e565b6135519190615a1e565b6000600954905081600c600082825461444b9190615aca565b909155505082811061445f5782900361448d565b6000614469614982565b6001600160701b031690508361447f82846159e7565b6144899190615aca565b9150505b6009819055604051818152600080516020615db8833981519152906020015b60405180910390a1505050565b600c546000906144288484615a3e565b600b546000906145149063ffffffff600160e01b820416906144fe906001600160701b0380821691600160701b900416615aa2565b600354600160a01b900463ffffffff1642614a40565b600b546117859190600160701b90046001600160701b0316615aa2565b6001600160701b03811682016145526001600160a01b0385163330846146d9565b6000546001600160a01b039081169084908490871683146146ad576004805460405163095ea7b360e01b81526001600160a01b03808b169363095ea7b39361459f93921691899101615693565b602060405180830381600087803b1580156145b957600080fd5b505af11580156145cd573d6000803e3d6000fd5b505050506040513d601f19601f820116820180604052508101906145f1919061519d565b506004805460405163029b465d60e01b81526001600160a01b038a8116938201939093526024810187905285831660448201526000929091169063029b465d90606401602060405180830381600087803b15801561464e57600080fd5b505af1158015614662573d6000803e3d6000fd5b505050506040513d601f19601f8201168201806040525081019061468691906154d5565b9050846146938289615a3e565b61469d9190615a1e565b92506146a98382615aca565b9150505b6006546146c7906001600160a01b038581169116846143c1565b6146d081614be1565b50505050505050565b6040516001600160a01b03808516602483015283166044820152606481018290526147119085906323b872dd60e01b906084016143e0565b50505050565b80600c600082825461472991906159e7565b909155505060095460009061473f9084906159e7565b6009819055604051818152909150600080516020615db8833981519152906020016144ac565b6001600160a01b038116600090815260076020526040902054600190810b900b61481b5760088054600181810183557ff3f7a9fe364faab93b216da50a3214154f22a0a2b415b23a84c8169e8b636ee390910180546001600160a01b0385166001600160a01b03199091168117909155915460009283526007602052604092839020805491830b61ffff1661ffff199092169190911790559051600080516020615d9883398151915291610a2791849190615626565b6001600160a01b038116600090815260076020526040812054600190810b900b1215613305576001600160a01b0381166000908152600760205260409020546148669060010b615b63565b6001600160a01b03821660009081526007602052604090819020805461ffff191661ffff600194850b1617905551600080516020615d9883398151915291610a2791849190615626565b6000614905826040518060400160405280602081526020017f5361666545524332303a206c6f772d6c6576656c2063616c6c206661696c6564815250856001600160a01b0316614c939092919063ffffffff16565b8051909150156141c35780806020019051810190614923919061519d565b6141c35760405162461bcd60e51b815260206004820152602a60248201527f5361666545524332303a204552433230206f7065726174696f6e20646964206e6044820152691bdd081cdd58d8d9595960b21b60648201526084016109a3565b600061498c6144c9565b600b80546001600160701b0319168082559192508291600e906149c0908490600160701b90046001600160701b0316615aa2565b82546001600160701b039182166101009390930a928302928202191691909117909155600b805463ffffffff4216600160e01b026001600160e01b038216811792839055604051600080516020615d188339815191529550614a35949182169282169290921792600160701b9004169061590a565b60405180910390a190565b60008463ffffffff168263ffffffff161015604051806040016040528060018152602001600760fb1b81525090614a8a5760405162461bcd60e51b81526004016109a3919061578f565b5084820391508263ffffffff168263ffffffff1681614ab957634e487b7160e01b600052601260045260246000fd5b0463ffffffff16846001600160701b0316901c93508263ffffffff168263ffffffff1681614af757634e487b7160e01b600052601260045260246000fd5b06915063ffffffff82161580614b1457506001600160701b038416155b15614b2057508261230e565b60006001600160701b0385168163ffffffff86811690861671b17217f7d1cf79abc9e3b39803f2f6af40f30281614b6757634e487b7160e01b600052601260045260246000fd5b049050600160901b5b8215614bd457928201928082840281614b9957634e487b7160e01b600052601260045260246000fd5b0493849003939250600160901b018082840281614bc657634e487b7160e01b600052601260045260246000fd5b049250600160901b01614b70565b5091979650505050505050565b614be96144c9565b600b80546001600160701b0319166001600160701b03928316178082558392600e91614c1e918591600160701b9004166159bc565b82546001600160701b039182166101009390930a928302928202191691909117909155600b805463ffffffff4216600160e01b026001600160e01b038216811792839055604051600080516020615d188339815191529550610a27949182169282169290921792600160701b9004169061590a565b606061230e848460008585843b614cec5760405162461bcd60e51b815260206004820152601d60248201527f416464726573733a2063616c6c20746f206e6f6e2d636f6e747261637400000060448201526064016109a3565b600080866001600160a01b03168587604051614d0891906155ba565b60006040518083038185875af1925050503d8060008114614d45576040519150601f19603f3d011682016040523d82523d6000602084013e614d4a565b606091505b5091509150614d5a828286614d65565b979650505050505050565b60608315614d74575081613551565b825115614d845782518084602001fd5b8160405162461bcd60e51b81526004016109a3919061578f565b828054614daa90615b0d565b90600052602060002090601f016020900481019282614dcc5760008555614e12565b82601f10614de557805160ff1916838001178555614e12565b82800160010185558215614e12579182015b82811115614e12578251825591602001919060010190614df7565b50614e1e929150614e96565b5090565b828054614e2e90615b0d565b90600052602060002090601f016020900481019282614e505760008555614e12565b82601f10614e695782800160ff19823516178555614e12565b82800160010185558215614e12579182015b82811115614e12578235825591602001919060010190614e7b565b5b80821115614e1e5760008155600101614e97565b8035614eb681615baf565b919050565b8035614eb681615bc4565b60008083601f840112614ed7578182fd5b5081356001600160401b03811115614eed578182fd5b602083019150836020828501011115614f0557600080fd5b9250929050565b600082601f830112614f1c578081fd5b8135614f2f614f2a82615995565b615965565b818152846020838601011115614f43578283fd5b816020850160208301379081016020019190915292915050565b8035614eb681615bd2565b8035614eb681615be7565b803563ffffffff81168114614eb657600080fd5b80356001600160601b0381168114614eb657600080fd5b600060208284031215614faf578081fd5b813561355181615baf565b600060208284031215614fcb578081fd5b815161355181615baf565b600080600080600080600060c0888a031215614ff0578283fd5b8735614ffb81615baf565b9650602088013561500b81615baf565b9550604088013561501b81615baf565b9450606088013561502b81615baf565b9350608088013561503b81615baf565b925060a08801356001600160401b0380821115615056578384fd5b818a0191508a601f830112615069578384fd5b813581811115615077578485fd5b8b60208260051b850101111561508b578485fd5b60208301945080935050505092959891949750929550565b600080600080608085870312156150b8578384fd5b84356150c381615baf565b935060208501356150d381615baf565b925060408501356150e381615bd2565b91506150f160608601614f73565b905092959194509250565b600080600080600060a08688031215615113578283fd5b853561511e81615baf565b9450602086013561512e81615baf565b9350604086013561513e81615bd2565b925061514c60608701614f73565b949793965091946080013592915050565b600080600060608486031215615171578081fd5b833561517c81615baf565b9250602084013561518c81615baf565b929592945050506040919091013590565b6000602082840312156151ae578081fd5b815161355181615bc4565b6000806000606084860312156151cd578081fd5b83356151d881615baf565b925060208401356151e881615baf565b915060408401356151f881615baf565b809150509250925092565b60008060208385031215615215578182fd5b82356001600160401b0381111561522a578283fd5b61523685828601614ec6565b90969095509350505050565b600060208284031215615253578081fd5b81516001600160401b03811115615268578182fd5b8201601f81018413615278578182fd5b8051615286614f2a82615995565b81815285602083850101111561529a578384fd5b6143a8826020830160208601615ae1565b600080600080600080600060c0888a0312156152c5578081fd5b87356001600160401b03808211156152db578283fd5b6152e78b838c01614f0c565b985060208a01359150808211156152fc578283fd5b506153098a828b01614ec6565b909750955050604088013561531d81615be7565b9350606088013561532d81615baf565b9250608088013561533d81615baf565b915060a088013561534d81615baf565b8091505092959891949750929550565b6000806000806000806000806000806101408b8d03121561537c578384fd5b8a356001600160401b0380821115615392578586fd5b61539e8e838f01614f0c565b9b5060208d01359150808211156153b3578586fd5b506153c08d828e01614f0c565b9950506153cf60408c01614f73565b97506153dd60608c01614f5d565b96506153eb60808c01614eab565b95506153f960a08c01614f68565b945061540760c08c01614f73565b935061541560e08c01614f73565b92506154246101008c01614f87565b91506154336101208c01614ebb565b90509295989b9194979a5092959850565b600080600060608486031215615458578081fd5b835161546381615bd2565b602085015190935061547481615bd2565b60408501519092506151f881615bd2565b600060208284031215615496578081fd5b813561355181615be7565b6000602082840312156154b2578081fd5b815161355181615be7565b6000602082840312156154ce578081fd5b5035919050565b6000602082840312156154e6578081fd5b5051919050565b60008060008060808587031215615502578182fd5b84359350602085013561551481615baf565b925061552260408601614f73565b9396929550929360600135925050565b60008060408385031215615544578182fd5b50508035926020909101359150565b600060208284031215615564578081fd5b61355182614f73565b60006020828403121561557e578081fd5b815160ff81168114613551578182fd5b600081518084526155a6816020860160208601615ae1565b601f01601f19169290920160200192915050565b600082516155cc818460208701615ae1565b9190910192915050565b600083516155e8818460208801615ae1565b600160fd1b9083019081528351615606816001840160208801615ae1565b01600101949350505050565b6001600160a01b0391909116815260200190565b6001600160a01b039290921682521515602082015260400190565b6001600160a01b039290921682526001600160701b0316602082015260400190565b6001600160a01b039390931683526001600160701b0391909116602083015263ffffffff16604082015260600190565b6001600160a01b03929092168252602082015260400190565b6020808252825182820181905260009190848201906040850190845b818110156156ed5783516001600160a01b0316835292840192918401916001016156c8565b50909695505050505050565b602080825282518282018190526000919060409081850190868401855b82811015614bd457815180516001600160a01b031685528601511515868501529284019290850190600101615716565b6001600160a01b0392831681529116602082015260400190565b60208152816020820152818360408301376000818301604090810191909152601f909201601f19160101919050565b602081526000613551602083018461558e565b610180815260006157b761018083018f61558e565b82810360208401526157c9818f61558e565b63ffffffff8e811660408601528d811660608601528c16608085015261ffff8b1660a085015260c084018a905260e0840189905261010084018890526001600160701b03878116610120860152861661014085015291506158279050565b63ffffffff83166101608301529d9c50505050505050505050505050565b606081526000615858606083018661558e565b828103602084015261586a818661558e565b91505060ff83166040830152949350505050565b81516001600160701b0316815260208083015161ffff169082015260408083015163ffffffff9081169183019190915260608084015182169083015260808084015182169083015260a080840151918216908301526101008201905060c08301516158f460c08401826001600160701b03169052565b5060e0830151613fda60e084018261ffff169052565b6001600160701b0392831681529116602082015260400190565b968752602087019590955260408601939093526060850191909152608084015260a083015260c082015260e00190565b63ffffffff91909116815260200190565b604051601f8201601f191681016001600160401b038111828210171561598d5761598d615b99565b604052919050565b60006001600160401b038211156159ae576159ae615b99565b50601f01601f191660200190565b60006001600160701b038281168482168083038211156159de576159de615b83565b01949350505050565b600082198211156159fa576159fa615b83565b500190565b600063ffffffff8083168185168083038211156159de576159de615b83565b600082615a3957634e487b7160e01b81526012600452602481fd5b500490565b6000816000190483118215151615615a5857615a58615b83565b500290565b60008160010b8360010b82811281617fff1901831281151615615a8257615a82615b83565b81617fff018313811615615a9857615a98615b83565b5090039392505050565b60006001600160701b0383811690831681811015615ac257615ac2615b83565b039392505050565b600082821015615adc57615adc615b83565b500390565b60005b83811015615afc578181015183820152602001615ae4565b838111156147115750506000910152565b600181811c90821680615b2157607f821691505b60208210811415615b4257634e487b7160e01b600052602260045260246000fd5b50919050565b6000600019821415615b5c57615b5c615b83565b5060010190565b60008160010b617fff19811415615b7c57615b7c615b83565b9003919050565b634e487b7160e01b600052601160045260246000fd5b634e487b7160e01b600052604160045260246000fd5b6001600160a01b038116811461330557600080fd5b801515811461330557600080fd5b6001600160701b038116811461330557600080fd5b61ffff8116811461330557600080fdfe87cdeaffd8e70903d6ce7cc983fac3b09ca79e83818124c98e47a1d70f8027d603429b4bf882467b990034c9cdcf7d1c4c3f189e62ce27af5e9bd563659fa2864f471908b72bb76dae5bd24599026e7bf3ddb256497722888ffa422f83729ede745abdabfd9615abf44cc5ea5223a16cd377282452510a2de5121d44b8c097f1926b69b9f7735227079a308fce165b111b96e2983e70a86a381ee047675ff39fd1248cccb5fef9131c731321e43e9a924840ffee7dc68c7d1d3e5cb7dedcae0327894f6b9c469a3eddbe98dd0df54563b6437b20982876e0c2cd60c211a156469b2baf1f9580f11e84f351d1ac9c543726f7023ba5d6d278fc487898fac055b6befcd50991bb64333037879282220d78a901bb4809351643f56628af8a4656dfc8dfab451067f726e1077626e126c7f77149630cc1b0056cf60307a289a118298be0079c531659141344cd1fd0a4f28419497f9722a3daafe3b4186f6b6457e07aa9698a01d2094fb8a580e2c72a6fc3f3bfecfd4cbdc457461118c59a6fefe4d076b5bc77c447b04d82e76a12ec958bfe6d48418cce446aaf9ebeb3136638eb92a4dc1fa715a8cafb0cdc060f729eb1dfdddcbc9effbdc8d822cdf5ebcf4907a70de76be90dc9c5d9243b0bc73c3d963ba703a0a396f29134bf5b4e6197c180471e342623158b92281274ef7263e4f9a0e0b748c1c328113afbb58742c1789fa264697066735822122058d590c0a5aeeaa5e3912a1934ddbffa4d7f5f5b024b641723de5b6f986a591364736f6c63430008040033",
  "devdoc": {
    "kind": "dev",
    "methods": {
      "initialize(address)": {
        "details": "Initializes the owner of the contract. The inheritor of this contract *MUST* ensure this method is not called twice."
      },
      "owner()": {
        "details": "Returns the address of the current owner."
      },
      "shutdownEnterpriseForever()": {
        "details": "Shuts down Enterprise.  * Unlocks all reserves, stakers can withdraw their tokens  * Disables staking  * Disables renting  * Disables swapping !!! Cannot be undone !!!"
      },
      "transferOwnership(address)": {
        "details": "Transfers ownership of the contract to a new account (`newOwner`). Can only be called by the current owner."
      }
    },
    "version": 1
  },
  "userdoc": {
    "kind": "user",
    "methods": {
      "stake(uint256)": {
        "notice": "One must approve sufficient amount of enterprise tokens to Enterprise address before calling this function"
      }
    },
    "version": 1
  },
  "storageLayout": {
    "storage": [
      {
        "astId": 5900,
        "contract": "contracts/Enterprise.sol:Enterprise",
        "label": "_enterpriseToken",
        "offset": 0,
        "slot": "0",
        "type": "t_contract(IERC20Metadata)1516"
      },
      {
        "astId": 5904,
        "contract": "contracts/Enterprise.sol:Enterprise",
        "label": "_stakeToken",
        "offset": 0,
        "slot": "1",
        "type": "t_contract(IStakeToken)9428"
      },
      {
        "astId": 5908,
        "contract": "contracts/Enterprise.sol:Enterprise",
        "label": "_rentalToken",
        "offset": 0,
        "slot": "2",
        "type": "t_contract(IRentalToken)9388"
      },
      {
        "astId": 5912,
        "contract": "contracts/Enterprise.sol:Enterprise",
        "label": "_factory",
        "offset": 0,
        "slot": "3",
        "type": "t_contract(EnterpriseFactory)5768"
      },
      {
        "astId": 5915,
        "contract": "contracts/Enterprise.sol:Enterprise",
        "label": "_streamingReserveHalvingPeriod",
        "offset": 20,
        "slot": "3",
        "type": "t_uint32"
      },
      {
        "astId": 5917,
        "contract": "contracts/Enterprise.sol:Enterprise",
        "label": "_enterpriseShutdown",
        "offset": 24,
        "slot": "3",
        "type": "t_bool"
      },
      {
        "astId": 5921,
        "contract": "contracts/Enterprise.sol:Enterprise",
        "label": "_converter",
        "offset": 0,
        "slot": "4",
        "type": "t_contract(IConverter)9108"
      },
      {
        "astId": 5924,
        "contract": "contracts/Enterprise.sol:Enterprise",
        "label": "_enterpriseCollector",
        "offset": 0,
        "slot": "5",
        "type": "t_address"
      },
      {
        "astId": 5927,
        "contract": "contracts/Enterprise.sol:Enterprise",
        "label": "_enterpriseWallet",
        "offset": 0,
        "slot": "6",
        "type": "t_address"
      },
      {
        "astId": 5929,
        "contract": "contracts/Enterprise.sol:Enterprise",
        "label": "_renterOnlyReturnPeriod",
        "offset": 20,
        "slot": "6",
        "type": "t_uint32"
      },
      {
        "astId": 5931,
        "contract": "contracts/Enterprise.sol:Enterprise",
        "label": "_enterpriseOnlyCollectionPeriod",
        "offset": 24,
        "slot": "6",
        "type": "t_uint32"
      },
      {
        "astId": 5933,
        "contract": "contracts/Enterprise.sol:Enterprise",
        "label": "_gcFeePercent",
        "offset": 28,
        "slot": "6",
        "type": "t_uint16"
      },
      {
        "astId": 5937,
        "contract": "contracts/Enterprise.sol:Enterprise",
        "label": "_paymentTokensIndex",
        "offset": 0,
        "slot": "7",
        "type": "t_mapping(t_address,t_int16)"
      },
      {
        "astId": 5940,
        "contract": "contracts/Enterprise.sol:Enterprise",
        "label": "_paymentTokens",
        "offset": 0,
        "slot": "8",
        "type": "t_array(t_address)dyn_storage"
      },
      {
        "astId": 5943,
        "contract": "contracts/Enterprise.sol:Enterprise",
        "label": "_fixedReserve",
        "offset": 0,
        "slot": "9",
        "type": "t_uint256"
      },
      {
        "astId": 5946,
        "contract": "contracts/Enterprise.sol:Enterprise",
        "label": "_usedReserve",
        "offset": 0,
        "slot": "10",
        "type": "t_uint256"
      },
      {
        "astId": 5949,
        "contract": "contracts/Enterprise.sol:Enterprise",
        "label": "_streamingReserve",
        "offset": 0,
        "slot": "11",
        "type": "t_uint112"
      },
      {
        "astId": 5951,
        "contract": "contracts/Enterprise.sol:Enterprise",
        "label": "_streamingReserveTarget",
        "offset": 14,
        "slot": "11",
        "type": "t_uint112"
      },
      {
        "astId": 5953,
        "contract": "contracts/Enterprise.sol:Enterprise",
        "label": "_streamingReserveUpdated",
        "offset": 28,
        "slot": "11",
        "type": "t_uint32"
      },
      {
        "astId": 5956,
        "contract": "contracts/Enterprise.sol:Enterprise",
        "label": "_totalShares",
        "offset": 0,
        "slot": "12",
        "type": "t_uint256"
      },
      {
        "astId": 5959,
        "contract": "contracts/Enterprise.sol:Enterprise",
        "label": "_bondingSlope",
        "offset": 0,
        "slot": "13",
        "type": "t_uint256"
      },
      {
        "astId": 5961,
        "contract": "contracts/Enterprise.sol:Enterprise",
        "label": "_bondingPole",
        "offset": 0,
        "slot": "14",
        "type": "t_uint256"
      },
      {
        "astId": 5963,
        "contract": "contracts/Enterprise.sol:Enterprise",
        "label": "_name",
        "offset": 0,
        "slot": "15",
        "type": "t_string_storage"
      },
      {
        "astId": 5965,
        "contract": "contracts/Enterprise.sol:Enterprise",
        "label": "_baseUri",
        "offset": 0,
        "slot": "16",
        "type": "t_string_storage"
      },
      {
        "astId": 5970,
        "contract": "contracts/Enterprise.sol:Enterprise",
        "label": "_rentalAgreements",
        "offset": 0,
        "slot": "17",
        "type": "t_mapping(t_uint256,t_struct(RentalAgreement)9150_storage)"
      },
      {
        "astId": 5975,
        "contract": "contracts/Enterprise.sol:Enterprise",
        "label": "_stakes",
        "offset": 0,
        "slot": "18",
        "type": "t_mapping(t_uint256,t_struct(Stake)5888_storage)"
      },
      {
        "astId": 5979,
        "contract": "contracts/Enterprise.sol:Enterprise",
        "label": "_registeredPowerTokens",
        "offset": 0,
        "slot": "19",
        "type": "t_mapping(t_address,t_bool)"
      },
      {
        "astId": 5983,
        "contract": "contracts/Enterprise.sol:Enterprise",
        "label": "_powerTokens",
        "offset": 0,
        "slot": "20",
        "type": "t_array(t_contract(IPowerToken)9308)dyn_storage"
      }
    ],
    "types": {
      "t_address": {
        "encoding": "inplace",
        "label": "address",
        "numberOfBytes": "20"
      },
      "t_array(t_address)dyn_storage": {
        "base": "t_address",
        "encoding": "dynamic_array",
        "label": "address[]",
        "numberOfBytes": "32"
      },
      "t_array(t_contract(IPowerToken)9308)dyn_storage": {
        "base": "t_contract(IPowerToken)9308",
        "encoding": "dynamic_array",
        "label": "contract IPowerToken[]",
        "numberOfBytes": "32"
      },
      "t_bool": {
        "encoding": "inplace",
        "label": "bool",
        "numberOfBytes": "1"
      },
      "t_contract(EnterpriseFactory)5768": {
        "encoding": "inplace",
        "label": "contract EnterpriseFactory",
        "numberOfBytes": "20"
      },
      "t_contract(IConverter)9108": {
        "encoding": "inplace",
        "label": "contract IConverter",
        "numberOfBytes": "20"
      },
      "t_contract(IERC20Metadata)1516": {
        "encoding": "inplace",
        "label": "contract IERC20Metadata",
        "numberOfBytes": "20"
      },
      "t_contract(IPowerToken)9308": {
        "encoding": "inplace",
        "label": "contract IPowerToken",
        "numberOfBytes": "20"
      },
      "t_contract(IRentalToken)9388": {
        "encoding": "inplace",
        "label": "contract IRentalToken",
        "numberOfBytes": "20"
      },
      "t_contract(IStakeToken)9428": {
        "encoding": "inplace",
        "label": "contract IStakeToken",
        "numberOfBytes": "20"
      },
      "t_int16": {
        "encoding": "inplace",
        "label": "int16",
        "numberOfBytes": "2"
      },
      "t_mapping(t_address,t_bool)": {
        "encoding": "mapping",
        "key": "t_address",
        "label": "mapping(address => bool)",
        "numberOfBytes": "32",
        "value": "t_bool"
      },
      "t_mapping(t_address,t_int16)": {
        "encoding": "mapping",
        "key": "t_address",
        "label": "mapping(address => int16)",
        "numberOfBytes": "32",
        "value": "t_int16"
      },
      "t_mapping(t_uint256,t_struct(RentalAgreement)9150_storage)": {
        "encoding": "mapping",
        "key": "t_uint256",
        "label": "mapping(uint256 => struct IEnterpriseStorage.RentalAgreement)",
        "numberOfBytes": "32",
        "value": "t_struct(RentalAgreement)9150_storage"
      },
      "t_mapping(t_uint256,t_struct(Stake)5888_storage)": {
        "encoding": "mapping",
        "key": "t_uint256",
        "label": "mapping(uint256 => struct EnterpriseStorage.Stake)",
        "numberOfBytes": "32",
        "value": "t_struct(Stake)5888_storage"
      },
      "t_string_storage": {
        "encoding": "bytes",
        "label": "string",
        "numberOfBytes": "32"
      },
      "t_struct(RentalAgreement)9150_storage": {
        "encoding": "inplace",
        "label": "struct IEnterpriseStorage.RentalAgreement",
        "members": [
          {
            "astId": 9135,
            "contract": "contracts/Enterprise.sol:Enterprise",
            "label": "rentalAmount",
            "offset": 0,
            "slot": "0",
            "type": "t_uint112"
          },
          {
            "astId": 9137,
            "contract": "contracts/Enterprise.sol:Enterprise",
            "label": "powerTokenIndex",
            "offset": 14,
            "slot": "0",
            "type": "t_uint16"
          },
          {
            "astId": 9139,
            "contract": "contracts/Enterprise.sol:Enterprise",
            "label": "startTime",
            "offset": 16,
            "slot": "0",
            "type": "t_uint32"
          },
          {
            "astId": 9141,
            "contract": "contracts/Enterprise.sol:Enterprise",
            "label": "endTime",
            "offset": 20,
            "slot": "0",
            "type": "t_uint32"
          },
          {
            "astId": 9143,
            "contract": "contracts/Enterprise.sol:Enterprise",
            "label": "renterOnlyReturnTime",
            "offset": 24,
            "slot": "0",
            "type": "t_uint32"
          },
          {
            "astId": 9145,
            "contract": "contracts/Enterprise.sol:Enterprise",
            "label": "enterpriseOnlyCollectionTime",
            "offset": 28,
            "slot": "0",
            "type": "t_uint32"
          },
          {
            "astId": 9147,
            "contract": "contracts/Enterprise.sol:Enterprise",
            "label": "gcRewardAmount",
            "offset": 0,
            "slot": "1",
            "type": "t_uint112"
          },
          {
            "astId": 9149,
            "contract": "contracts/Enterprise.sol:Enterprise",
            "label": "gcRewardTokenIndex",
            "offset": 14,
            "slot": "1",
            "type": "t_uint16"
          }
        ],
        "numberOfBytes": "64"
      },
      "t_struct(Stake)5888_storage": {
        "encoding": "inplace",
        "label": "struct EnterpriseStorage.Stake",
        "members": [
          {
            "astId": 5883,
            "contract": "contracts/Enterprise.sol:Enterprise",
            "label": "amount",
            "offset": 0,
            "slot": "0",
            "type": "t_uint256"
          },
          {
            "astId": 5885,
            "contract": "contracts/Enterprise.sol:Enterprise",
            "label": "shares",
            "offset": 0,
            "slot": "1",
            "type": "t_uint256"
          },
          {
            "astId": 5887,
            "contract": "contracts/Enterprise.sol:Enterprise",
            "label": "block",
            "offset": 0,
            "slot": "2",
            "type": "t_uint256"
          }
        ],
        "numberOfBytes": "96"
      },
      "t_uint112": {
        "encoding": "inplace",
        "label": "uint112",
        "numberOfBytes": "14"
      },
      "t_uint16": {
        "encoding": "inplace",
        "label": "uint16",
        "numberOfBytes": "2"
      },
      "t_uint256": {
        "encoding": "inplace",
        "label": "uint256",
        "numberOfBytes": "32"
      },
      "t_uint32": {
        "encoding": "inplace",
        "label": "uint32",
        "numberOfBytes": "4"
      }
    }
  }
}