{
  "_format": "hh-sol-artifact-1",
  "contractName": "BorrowTokenStorage",
  "sourceName": "contracts/BorrowTokenStorage.sol",
  "abi": [
    {
      "anonymous": false,
      "inputs": [
        {
          "indexed": true,
          "internalType": "address",
          "name": "owner",
          "type": "address"
        },
        {
          "indexed": true,
          "internalType": "address",
          "name": "approved",
          "type": "address"
        },
        {
          "indexed": true,
          "internalType": "uint256",
          "name": "tokenId",
          "type": "uint256"
        }
      ],
      "name": "Approval",
      "type": "event"
    },
    {
      "anonymous": false,
      "inputs": [
        {
          "indexed": true,
          "internalType": "address",
          "name": "owner",
          "type": "address"
        },
        {
          "indexed": true,
          "internalType": "address",
          "name": "operator",
          "type": "address"
        },
        {
          "indexed": false,
          "internalType": "bool",
          "name": "approved",
          "type": "bool"
        }
      ],
      "name": "ApprovalForAll",
      "type": "event"
    },
    {
      "anonymous": false,
      "inputs": [
        {
          "indexed": true,
          "internalType": "address",
          "name": "from",
          "type": "address"
        },
        {
          "indexed": true,
          "internalType": "address",
          "name": "to",
          "type": "address"
        },
        {
          "indexed": true,
          "internalType": "uint256",
          "name": "tokenId",
          "type": "uint256"
        }
      ],
      "name": "Transfer",
      "type": "event"
    },
    {
      "inputs": [
        {
          "internalType": "address",
          "name": "to",
          "type": "address"
        },
        {
          "internalType": "uint256",
          "name": "tokenId",
          "type": "uint256"
        }
      ],
      "name": "approve",
      "outputs": [],
      "stateMutability": "nonpayable",
      "type": "function"
    },
    {
      "inputs": [
        {
          "internalType": "address",
          "name": "owner",
          "type": "address"
        }
      ],
      "name": "balanceOf",
      "outputs": [
        {
          "internalType": "uint256",
          "name": "",
          "type": "uint256"
        }
      ],
      "stateMutability": "view",
      "type": "function"
    },
    {
      "inputs": [
        {
          "internalType": "uint256",
          "name": "tokenId",
          "type": "uint256"
        }
      ],
      "name": "getApproved",
      "outputs": [
        {
          "internalType": "address",
          "name": "",
          "type": "address"
        }
      ],
      "stateMutability": "view",
      "type": "function"
    },
    {
      "inputs": [],
      "name": "getEnterprise",
      "outputs": [
        {
          "internalType": "contract Enterprise",
          "name": "",
          "type": "address"
        }
      ],
      "stateMutability": "view",
      "type": "function"
    },
    {
      "inputs": [
        {
          "internalType": "string",
          "name": "name_",
          "type": "string"
        },
        {
          "internalType": "string",
          "name": "symbol_",
          "type": "string"
        }
      ],
      "name": "initialize",
      "outputs": [],
      "stateMutability": "nonpayable",
      "type": "function"
    },
    {
      "inputs": [
        {
          "internalType": "contract Enterprise",
          "name": "enterprise",
          "type": "address"
        }
      ],
      "name": "initialize",
      "outputs": [],
      "stateMutability": "nonpayable",
      "type": "function"
    },
    {
      "inputs": [
        {
          "internalType": "address",
          "name": "owner",
          "type": "address"
        },
        {
          "internalType": "address",
          "name": "operator",
          "type": "address"
        }
      ],
      "name": "isApprovedForAll",
      "outputs": [
        {
          "internalType": "bool",
          "name": "",
          "type": "bool"
        }
      ],
      "stateMutability": "view",
      "type": "function"
    },
    {
      "inputs": [],
      "name": "name",
      "outputs": [
        {
          "internalType": "string",
          "name": "",
          "type": "string"
        }
      ],
      "stateMutability": "view",
      "type": "function"
    },
    {
      "inputs": [
        {
          "internalType": "uint256",
          "name": "tokenId",
          "type": "uint256"
        }
      ],
      "name": "ownerOf",
      "outputs": [
        {
          "internalType": "address",
          "name": "",
          "type": "address"
        }
      ],
      "stateMutability": "view",
      "type": "function"
    },
    {
      "inputs": [
        {
          "internalType": "address",
          "name": "from",
          "type": "address"
        },
        {
          "internalType": "address",
          "name": "to",
          "type": "address"
        },
        {
          "internalType": "uint256",
          "name": "tokenId",
          "type": "uint256"
        }
      ],
      "name": "safeTransferFrom",
      "outputs": [],
      "stateMutability": "nonpayable",
      "type": "function"
    },
    {
      "inputs": [
        {
          "internalType": "address",
          "name": "from",
          "type": "address"
        },
        {
          "internalType": "address",
          "name": "to",
          "type": "address"
        },
        {
          "internalType": "uint256",
          "name": "tokenId",
          "type": "uint256"
        },
        {
          "internalType": "bytes",
          "name": "_data",
          "type": "bytes"
        }
      ],
      "name": "safeTransferFrom",
      "outputs": [],
      "stateMutability": "nonpayable",
      "type": "function"
    },
    {
      "inputs": [
        {
          "internalType": "address",
          "name": "operator",
          "type": "address"
        },
        {
          "internalType": "bool",
          "name": "approved",
          "type": "bool"
        }
      ],
      "name": "setApprovalForAll",
      "outputs": [],
      "stateMutability": "nonpayable",
      "type": "function"
    },
    {
      "inputs": [
        {
          "internalType": "bytes4",
          "name": "interfaceId",
          "type": "bytes4"
        }
      ],
      "name": "supportsInterface",
      "outputs": [
        {
          "internalType": "bool",
          "name": "",
          "type": "bool"
        }
      ],
      "stateMutability": "view",
      "type": "function"
    },
    {
      "inputs": [],
      "name": "symbol",
      "outputs": [
        {
          "internalType": "string",
          "name": "",
          "type": "string"
        }
      ],
      "stateMutability": "view",
      "type": "function"
    },
    {
      "inputs": [
        {
          "internalType": "uint256",
          "name": "index",
          "type": "uint256"
        }
      ],
      "name": "tokenByIndex",
      "outputs": [
        {
          "internalType": "uint256",
          "name": "",
          "type": "uint256"
        }
      ],
      "stateMutability": "view",
      "type": "function"
    },
    {
      "inputs": [
        {
          "internalType": "address",
          "name": "owner",
          "type": "address"
        },
        {
          "internalType": "uint256",
          "name": "index",
          "type": "uint256"
        }
      ],
      "name": "tokenOfOwnerByIndex",
      "outputs": [
        {
          "internalType": "uint256",
          "name": "",
          "type": "uint256"
        }
      ],
      "stateMutability": "view",
      "type": "function"
    },
    {
      "inputs": [
        {
          "internalType": "uint256",
          "name": "tokenId",
          "type": "uint256"
        }
      ],
      "name": "tokenURI",
      "outputs": [
        {
          "internalType": "string",
          "name": "",
          "type": "string"
        }
      ],
      "stateMutability": "view",
      "type": "function"
    },
    {
      "inputs": [],
      "name": "totalSupply",
      "outputs": [
        {
          "internalType": "uint256",
          "name": "",
          "type": "uint256"
        }
      ],
      "stateMutability": "view",
      "type": "function"
    },
    {
      "inputs": [
        {
          "internalType": "address",
          "name": "from",
          "type": "address"
        },
        {
          "internalType": "address",
          "name": "to",
          "type": "address"
        },
        {
          "internalType": "uint256",
          "name": "tokenId",
          "type": "uint256"
        }
      ],
      "name": "transferFrom",
      "outputs": [],
      "stateMutability": "nonpayable",
      "type": "function"
    }
  ],
  "bytecode": "0x608060405234801561001057600080fd5b506116de806100206000396000f3fe608060405234801561001057600080fd5b50600436106100f15760003560e01c806301ffc9a7146100f657806306fdde031461011e578063081812fc14610133578063095ea7b31461015e57806318160ddd1461017357806323b872dd146101855780632f745c591461019857806342842e0e146101ab5780634cd88b76146101be5780634f6ccce7146101d15780636352211e146101e457806370a08231146101f757806395d89b411461020a578063a22cb46514610212578063b88d4fde14610225578063c4d66de814610238578063c87b56dd1461024b578063e298a2fd1461025e578063e985e9c51461026f575b600080fd5b610109610104366004611404565b610282565b60405190151581526020015b60405180910390f35b6101266102ad565b604051610115919061154c565b61014661014136600461149c565b61033f565b6040516001600160a01b039091168152602001610115565b61017161016c3660046113d9565b6103a9565b005b6009545b604051908152602001610115565b6101716101933660046112ec565b61046b565b6101776101a63660046113d9565b6104ba565b6101716101b93660046112ec565b61052a565b6101716101cc36600461143c565b610545565b6101776101df36600461149c565b6105b2565b6101466101f236600461149c565b61062c565b610177610205366004611298565b610688565b6101266106e8565b6101716102203660046113a8565b6106f7565b61017161023336600461132c565b6107a7565b610171610246366004611298565b6107fd565b61012661025936600461149c565b6108a4565b6000546001600160a01b0316610146565b61010961027d3660046112b4565b610952565b60006001600160e01b0319821663780e9d6360e01b14806102a757506102a782610980565b92915050565b6060600180546102bc906115ce565b80601f01602080910402602001604051908101604052809291908181526020018280546102e8906115ce565b80156103355780601f1061030a57610100808354040283529160200191610335565b820191906000526020600020905b81548152906001019060200180831161031857829003601f168201915b5050505050905090565b600061034a826109d0565b604051806040016040528060028152602001610c8d60f21b8152509061038c5760405162461bcd60e51b8152600401610383919061154c565b60405180910390fd5b50506000908152600560205260409020546001600160a01b031690565b60006103b48261062c565b9050806001600160a01b0316836001600160a01b0316141560405180604001604052806002815260200161191960f11b815250906104055760405162461bcd60e51b8152600401610383919061154c565b50336001600160a01b038216148061042257506104228133610952565b60405180604001604052806002815260200161323360f01b8152509061045b5760405162461bcd60e51b8152600401610383919061154c565b5061046683836109ed565b505050565b6104753382610a5b565b60405180604001604052806002815260200161191b60f11b815250906104ae5760405162461bcd60e51b8152600401610383919061154c565b50610466838383610afe565b60006104c583610688565b8210604051806040016040528060028152602001610ccd60f21b815250906105005760405162461bcd60e51b8152600401610383919061154c565b50506001600160a01b03919091166000908152600760209081526040808320938352929052205490565b610466838383604051806020016040528060008152506107a7565b60018054610552906115ce565b6040805180820190915260018152601960f91b602082015291501561058a5760405162461bcd60e51b8152600401610383919061154c565b50815161059e90600190602085019061116b565b50805161046690600290602084019061116b565b60006105bd60095490565b821060405180604001604052806002815260200161333560f01b815250906105f85760405162461bcd60e51b8152600401610383919061154c565b506009828154811061061a57634e487b7160e01b600052603260045260246000fd5b90600052602060002001549050919050565b60008181526003602090815260408083205481518083019092526002825261323160f01b928201929092526001600160a01b0390911690816106815760405162461bcd60e51b8152600401610383919061154c565b5092915050565b604080518082019091526002815261032360f41b60208201526000906001600160a01b0383166106cb5760405162461bcd60e51b8152600401610383919061154c565b50506001600160a01b031660009081526004602052604090205490565b6060600280546102bc906115ce565b604080518082019091526002815261323560f01b60208201526001600160a01b03831633141561073a5760405162461bcd60e51b8152600401610383919061154c565b503360008181526006602090815260408083206001600160a01b03871680855290835292819020805460ff191686151590811790915590519081529192917f17307eab39ab6107e8899845ad3d59bd9653f200f220920489ca2b5937696c31910160405180910390a35050565b6107b13383610a5b565b60405180604001604052806002815260200161191b60f11b815250906107ea5760405162461bcd60e51b8152600401610383919061154c565b506107f784848484610c64565b50505050565b6000546040805180820190915260018152601960f91b6020820152906001600160a01b0316156108405760405162461bcd60e51b8152600401610383919061154c565b50604080518082019091526002815261353960f01b60208201526001600160a01b0382166108815760405162461bcd60e51b8152600401610383919061154c565b50600080546001600160a01b0319166001600160a01b0392909216919091179055565b60606108af826109d0565b60405180604001604052806002815260200161333360f01b815250906108e85760405162461bcd60e51b8152600401610383919061154c565b50600061090060408051602081019091526000815290565b90506000815111610920576040518060200160405280600081525061094b565b8061092a84610cbb565b60405160200161093b9291906114e0565b6040516020818303038152906040525b9392505050565b6001600160a01b03918216600090815260066020908152604080832093909416825291909152205460ff1690565b60006001600160e01b031982166380ac58cd60e01b14806109b157506001600160e01b03198216635b5e139f60e01b145b806102a757506301ffc9a760e01b6001600160e01b03198316146102a7565b6000908152600360205260409020546001600160a01b0316151590565b600081815260056020526040902080546001600160a01b0319166001600160a01b0384169081179091558190610a228261062c565b6001600160a01b03167f8c5be1e5ebec7d5bd14f71427d1e84f3dd0314c0f7b2291e5b200ac8c7c3b92560405160405180910390a45050565b6000610a66826109d0565b60405180604001604052806002815260200161064760f31b81525090610a9f5760405162461bcd60e51b8152600401610383919061154c565b506000610aab8361062c565b9050806001600160a01b0316846001600160a01b03161480610ae65750836001600160a01b0316610adb8461033f565b6001600160a01b0316145b80610af65750610af68185610952565b949350505050565b826001600160a01b0316610b118261062c565b6001600160a01b03161460405180604001604052806002815260200161333160f01b81525090610b545760405162461bcd60e51b8152600401610383919061154c565b50604080518082019091526002815261199960f11b60208201526001600160a01b038316610b955760405162461bcd60e51b8152600401610383919061154c565b50610ba1838383610dd4565b610bac6000826109ed565b6001600160a01b0383166000908152600460205260408120805460019290610bd590849061158b565b90915550506001600160a01b0382166000908152600460205260408120805460019290610c0390849061155f565b909155505060008181526003602052604080822080546001600160a01b0319166001600160a01b0386811691821790925591518493918716917fddf252ad1be2c89b69c2b068fc378daa952ba7f163c4a11628f55a4df523b3ef91a4505050565b610c6f848484610afe565b610c7b84848484610e8c565b60405180604001604052806002815260200161323760f01b81525090610cb45760405162461bcd60e51b8152600401610383919061154c565b5050505050565b606081610cdf5750506040805180820190915260018152600360fc1b602082015290565b8160005b8115610d095780610cf381611609565b9150610d029050600a83611577565b9150610ce3565b6000816001600160401b03811115610d3157634e487b7160e01b600052604160045260246000fd5b6040519080825280601f01601f191660200182016040528015610d5b576020820181803683370190505b5090505b8415610af657610d7060018361158b565b9150610d7d600a86611624565b610d8890603061155f565b60f81b818381518110610dab57634e487b7160e01b600052603260045260246000fd5b60200101906001600160f81b031916908160001a905350610dcd600a86611577565b9450610d5f565b6001600160a01b038316610e2f57610e2a81600980546000838152600a60205260408120829055600182018355919091527f6e1540171b6c0c960b71a7020d9f60077f6af931a8bbf590da0223dacf75c7af0155565b610e52565b816001600160a01b0316836001600160a01b031614610e5257610e528382610fb1565b6001600160a01b038216610e69576104668161104e565b826001600160a01b0316826001600160a01b031614610466576104668282611127565b60006001600160a01b0384163b15610fa657604051630a85bd0160e11b81526001600160a01b0385169063150b7a0290610ed090339089908890889060040161150f565b602060405180830381600087803b158015610eea57600080fd5b505af1925050508015610f1a575060408051601f3d908101601f19168201909252610f1791810190611420565b60015b610f8c573d808015610f48576040519150601f19603f3d011682016040523d82523d6000602084013e610f4d565b606091505b508051610f84576040805180820182526002815261323760f01b6020820152905162461bcd60e51b8152610383919060040161154c565b805181602001fd5b6001600160e01b031916630a85bd0160e11b149050610af6565b506001949350505050565b60006001610fbe84610688565b610fc8919061158b565b60008381526008602052604090205490915080821461101b576001600160a01b03841660009081526007602090815260408083208584528252808320548484528184208190558352600890915290208190555b5060009182526008602090815260408084208490556001600160a01b039094168352600781528383209183525290812055565b6009546000906110609060019061158b565b6000838152600a60205260408120546009805493945090928490811061109657634e487b7160e01b600052603260045260246000fd5b9060005260206000200154905080600983815481106110c557634e487b7160e01b600052603260045260246000fd5b6000918252602080832090910192909255828152600a9091526040808220849055858252812055600980548061110b57634e487b7160e01b600052603160045260246000fd5b6001900381819060005260206000200160009055905550505050565b600061113283610688565b6001600160a01b039093166000908152600760209081526040808320868452825280832085905593825260089052919091209190915550565b828054611177906115ce565b90600052602060002090601f01602090048101928261119957600085556111df565b82601f106111b257805160ff19168380011785556111df565b828001600101855582156111df579182015b828111156111df5782518255916020019190600101906111c4565b506111eb9291506111ef565b5090565b5b808211156111eb57600081556001016111f0565b60006001600160401b038084111561121e5761121e611664565b604051601f8501601f19908116603f0116810190828211818310171561124657611246611664565b8160405280935085815286868601111561125f57600080fd5b858560208301376000602087830101525050509392505050565b600082601f830112611289578081fd5b61094b83833560208501611204565b6000602082840312156112a9578081fd5b813561094b8161167a565b600080604083850312156112c6578081fd5b82356112d18161167a565b915060208301356112e18161167a565b809150509250929050565b600080600060608486031215611300578081fd5b833561130b8161167a565b9250602084013561131b8161167a565b929592945050506040919091013590565b60008060008060808587031215611341578081fd5b843561134c8161167a565b9350602085013561135c8161167a565b92506040850135915060608501356001600160401b0381111561137d578182fd5b8501601f8101871361138d578182fd5b61139c87823560208401611204565b91505092959194509250565b600080604083850312156113ba578182fd5b82356113c58161167a565b9150602083013580151581146112e1578182fd5b600080604083850312156113eb578182fd5b82356113f68161167a565b946020939093013593505050565b600060208284031215611415578081fd5b813561094b81611692565b600060208284031215611431578081fd5b815161094b81611692565b6000806040838503121561144e578182fd5b82356001600160401b0380821115611464578384fd5b61147086838701611279565b93506020850135915080821115611485578283fd5b5061149285828601611279565b9150509250929050565b6000602082840312156114ad578081fd5b5035919050565b600081518084526114cc8160208601602086016115a2565b601f01601f19169290920160200192915050565b600083516114f28184602088016115a2565b8351908301906115068183602088016115a2565b01949350505050565b6001600160a01b0385811682528416602082015260408101839052608060608201819052600090611542908301846114b4565b9695505050505050565b60208152600061094b60208301846114b4565b6000821982111561157257611572611638565b500190565b6000826115865761158661164e565b500490565b60008282101561159d5761159d611638565b500390565b60005b838110156115bd5781810151838201526020016115a5565b838111156107f75750506000910152565b600181811c908216806115e257607f821691505b6020821081141561160357634e487b7160e01b600052602260045260246000fd5b50919050565b600060001982141561161d5761161d611638565b5060010190565b6000826116335761163361164e565b500690565b634e487b7160e01b600052601160045260246000fd5b634e487b7160e01b600052601260045260246000fd5b634e487b7160e01b600052604160045260246000fd5b6001600160a01b038116811461168f57600080fd5b50565b6001600160e01b03198116811461168f57600080fdfea264697066735822122095913fc33a75af62ddf256f8be0d5e021a5230afd21c3b84ef22c8f321e75cac64736f6c63430008040033",
  "linkReferences": {},
  "deployedLinkReferences": {}
}