{
  "_format": "hh-sol-artifact-1",
  "contractName": "ParsiqPancakeConverter",
  "sourceName": "contracts/ParsiqPancakeConverter.sol",
  "abi": [
    {
      "inputs": [
        {
          "internalType": "contract IUniswapV2Router02",
          "name": "uniswapRouter",
          "type": "address"
        },
        {
          "internalType": "contract IERC20",
          "name": "allowedTokenOne",
          "type": "address"
        },
        {
          "internalType": "contract IERC20",
          "name": "allowedTargetTwo",
          "type": "address"
        }
      ],
      "stateMutability": "nonpayable",
      "type": "constructor"
    },
    {
      "inputs": [
        {
          "internalType": "contract IERC20",
          "name": "source",
          "type": "address"
        },
        {
          "internalType": "uint256",
          "name": "amountInSourceTokens",
          "type": "uint256"
        },
        {
          "internalType": "contract IERC20",
          "name": "target",
          "type": "address"
        }
      ],
      "name": "convert",
      "outputs": [
        {
          "internalType": "uint256",
          "name": "",
          "type": "uint256"
        }
      ],
      "stateMutability": "pure",
      "type": "function"
    },
    {
      "inputs": [
        {
          "internalType": "contract IERC20",
          "name": "source",
          "type": "address"
        },
        {
          "internalType": "uint256",
          "name": "amountInSourceTokens",
          "type": "uint256"
        },
        {
          "internalType": "contract IERC20",
          "name": "target",
          "type": "address"
        }
      ],
      "name": "estimateConvert",
      "outputs": [
        {
          "internalType": "uint256",
          "name": "",
          "type": "uint256"
        }
      ],
      "stateMutability": "view",
      "type": "function"
    },
    {
      "inputs": [],
      "name": "swapPair",
      "outputs": [
        {
          "internalType": "contract IUniswapV2Pair",
          "name": "",
          "type": "address"
        }
      ],
      "stateMutability": "view",
      "type": "function"
    }
  ],
  "bytecode": "0x608060405234801561001057600080fd5b5060405161076a38038061076a83398101604081905261002f91610190565b600180546001600160a01b0319166001600160a01b0385169081179091556040805163c45a015560e01b815290516000929163c45a0155916004808301926020929190829003018186803b15801561008657600080fd5b505afa15801561009a573d6000803e3d6000fd5b505050506040513d601f19601f820116820180604052508101906100be919061016d565b60405163e6a4390560e01b81526001600160a01b03858116600483015284811660248301529192509082169063e6a439059060440160206040518083038186803b15801561010b57600080fd5b505afa15801561011f573d6000803e3d6000fd5b505050506040513d601f19601f82011682018060405250810190610143919061016d565b600080546001600160a01b0319166001600160a01b0392909216919091179055506101f492505050565b60006020828403121561017e578081fd5b8151610189816101dc565b9392505050565b6000806000606084860312156101a4578182fd5b83516101af816101dc565b60208501519093506101c0816101dc565b60408501519092506101d1816101dc565b809150509250925092565b6001600160a01b03811681146101f157600080fd5b50565b610567806102036000396000f3fe608060405234801561001057600080fd5b50600436106100415760003560e01c8063029b465d1461004657806326991cc81461006c57806329fb92ce14610097575b600080fd5b6100596100543660046103d5565b6100aa565b6040519081526020015b60405180910390f35b60005461007f906001600160a01b031681565b6040516001600160a01b039091168152602001610063565b6100596100a53660046103d5565b61010c565b6000816001600160a01b0316846001600160a01b03161460405180604001604052806002815260200161199b60f11b815250906101035760405162461bcd60e51b81526004016100fa9190610459565b60405180910390fd5b50919392505050565b6000805460408051630dfe168160e01b8152905183926001600160a01b031691630dfe1681916004808301926020929190829003018186803b15801561015157600080fd5b505afa158015610165573d6000803e3d6000fd5b505050506040513d601f19601f8201168201806040525081019061018991906103b2565b905060008060009054906101000a90046001600160a01b03166001600160a01b031663d21220a76040518163ffffffff1660e01b815260040160206040518083038186803b1580156101da57600080fd5b505afa1580156101ee573d6000803e3d6000fd5b505050506040513d601f19601f8201168201806040525081019061021291906103b2565b905060008060008054906101000a90046001600160a01b03166001600160a01b0316630902f1ac6040518163ffffffff1660e01b815260040160606040518083038186803b15801561026357600080fd5b505afa158015610277573d6000803e3d6000fd5b505050506040513d601f19601f8201168201806040525081019061029b9190610416565b5091509150876001600160a01b0316846001600160a01b03161480156102d25750856001600160a01b0316836001600160a01b0316145b156102dd5790610345565b856001600160a01b0316846001600160a01b03161415806103105750876001600160a01b0316836001600160a01b031614155b15610345576040805180820182526002815261199b60f11b6020820152905162461bcd60e51b81526100fa9190600401610459565b610362816001600160701b031688846001600160701b031661036e565b98975050505050505050565b600061037a83856104ac565b61038484846104e4565b61038e91906104c4565b949350505050565b80516001600160701b03811681146103ad57600080fd5b919050565b6000602082840312156103c3578081fd5b81516103ce81610519565b9392505050565b6000806000606084860312156103e9578182fd5b83356103f481610519565b925060208401359150604084013561040b81610519565b809150509250925092565b60008060006060848603121561042a578283fd5b61043384610396565b925061044160208501610396565b9150604084015163ffffffff8116811461040b578182fd5b6000602080835283518082850152825b8181101561048557858101830151858201604001528201610469565b818111156104965783604083870101525b50601f01601f1916929092016040019392505050565b600082198211156104bf576104bf610503565b500190565b6000826104df57634e487b7160e01b81526012600452602481fd5b500490565b60008160001904831182151516156104fe576104fe610503565b500290565b634e487b7160e01b600052601160045260246000fd5b6001600160a01b038116811461052e57600080fd5b5056fea2646970667358221220f29cf8c90fb2ffe3b40f86aad64c4eb0643aebad9ba3c54723cfce216ffdd09e64736f6c63430008040033",
  "linkReferences": {},
  "deployedLinkReferences": {}
}