{
  "_format": "hh-sol-artifact-1",
  "contractName": "ParsiqPancakeConverter",
  "sourceName": "contracts/ParsiqPancakeConverter.sol",
  "abi": [
    {
      "inputs": [
        {
          "internalType": "contract IUniswapV2Router02",
          "name": "uniswapRouter",
          "type": "address"
        },
        {
          "internalType": "contract IERC20",
          "name": "allowedSourceCoin",
          "type": "address"
        },
        {
          "internalType": "contract IERC20",
          "name": "allowedTargetCoin",
          "type": "address"
        }
      ],
      "stateMutability": "nonpayable",
      "type": "constructor"
    },
    {
      "inputs": [
        {
          "internalType": "contract IERC20",
          "name": "source",
          "type": "address"
        },
        {
          "internalType": "uint256",
          "name": "amount",
          "type": "uint256"
        },
        {
          "internalType": "contract IERC20",
          "name": "target",
          "type": "address"
        }
      ],
      "name": "convert",
      "outputs": [
        {
          "internalType": "uint256",
          "name": "",
          "type": "uint256"
        }
      ],
      "stateMutability": "nonpayable",
      "type": "function"
    },
    {
      "inputs": [
        {
          "internalType": "contract IERC20",
          "name": "source",
          "type": "address"
        },
        {
          "internalType": "uint256",
          "name": "amount",
          "type": "uint256"
        },
        {
          "internalType": "contract IERC20",
          "name": "target",
          "type": "address"
        }
      ],
      "name": "estimateConvert",
      "outputs": [
        {
          "internalType": "uint256",
          "name": "",
          "type": "uint256"
        }
      ],
      "stateMutability": "view",
      "type": "function"
    },
    {
      "inputs": [],
      "name": "swapPair",
      "outputs": [
        {
          "internalType": "contract IUniswapV2Pair",
          "name": "",
          "type": "address"
        }
      ],
      "stateMutability": "view",
      "type": "function"
    }
  ],
  "bytecode": "0x60a060405234801561001057600080fd5b506040516106de3803806106de83398101604081905261002f9161017c565b600080546001600160a01b0319166001600160a01b03851690811782556040805163c45a015560e01b8152905163c45a015591600480820192602092909190829003018186803b15801561008257600080fd5b505afa158015610096573d6000803e3d6000fd5b505050506040513d601f19601f820116820180604052508101906100ba9190610159565b60405163e6a4390560e01b81526001600160a01b03858116600483015284811660248301529192509082169063e6a439059060440160206040518083038186803b15801561010757600080fd5b505afa15801561011b573d6000803e3d6000fd5b505050506040513d601f19601f8201168201806040525081019061013f9190610159565b60601b6001600160601b031916608052506101e092505050565b60006020828403121561016a578081fd5b8151610175816101c8565b9392505050565b600080600060608486031215610190578182fd5b835161019b816101c8565b60208501519093506101ac816101c8565b60408501519092506101bd816101c8565b809150509250925092565b6001600160a01b03811681146101dd57600080fd5b50565b60805160601c6104cc610212600039600081816071015281816101240152818161020301526102e301526104cc6000f3fe608060405234801561001057600080fd5b50600436106100415760003560e01c8063029b465d1461004657806326991cc81461006c57806329fb92ce146100ab575b600080fd5b6100596100543660046103a7565b6100be565b6040519081526020015b60405180910390f35b6100937f000000000000000000000000000000000000000000000000000000000000000081565b6040516001600160a01b039091168152602001610063565b6100596100b93660046103a7565b610120565b6000816001600160a01b0316846001600160a01b03161460405180604001604052806002815260200161199b60f11b815250906101175760405162461bcd60e51b815260040161010e9190610400565b60405180910390fd5b50919392505050565b60007f00000000000000000000000000000000000000000000000000000000000000006001600160a01b0316630dfe16816040518163ffffffff1660e01b815260040160206040518083038186803b15801561017b57600080fd5b505afa15801561018f573d6000803e3d6000fd5b505050506040513d601f19601f820116820180604052508101906101b39190610384565b6001600160a01b0316846001600160a01b03161460405180604001604052806002815260200161199b60f11b815250906102005760405162461bcd60e51b815260040161010e9190610400565b507f00000000000000000000000000000000000000000000000000000000000000006001600160a01b031663d21220a76040518163ffffffff1660e01b815260040160206040518083038186803b15801561025a57600080fd5b505afa15801561026e573d6000803e3d6000fd5b505050506040513d601f19601f820116820180604052508101906102929190610384565b6001600160a01b0316826001600160a01b03161460405180604001604052806002815260200161199b60f11b815250906102df5760405162461bcd60e51b815260040161010e9190610400565b50827f00000000000000000000000000000000000000000000000000000000000000006001600160a01b0316635909c0d56040518163ffffffff1660e01b815260040160206040518083038186803b15801561033a57600080fd5b505afa15801561034e573d6000803e3d6000fd5b505050506040513d601f19601f8201168201806040525081019061037291906103e8565b61037c9190610453565b949350505050565b600060208284031215610395578081fd5b81516103a08161047e565b9392505050565b6000806000606084860312156103bb578182fd5b83356103c68161047e565b92506020840135915060408401356103dd8161047e565b809150509250925092565b6000602082840312156103f9578081fd5b5051919050565b6000602080835283518082850152825b8181101561042c57858101830151858201604001528201610410565b8181111561043d5783604083870101525b50601f01601f1916929092016040019392505050565b600081600019048311821515161561047957634e487b7160e01b81526011600452602481fd5b500290565b6001600160a01b038116811461049357600080fd5b5056fea2646970667358221220c8b3a8654cef1df744a7596d9eb600ea813b4fced1666eb345eba5ab728e56fe64736f6c63430008040033",
  "linkReferences": {},
  "deployedLinkReferences": {}
}