{
  "_format": "hh-sol-artifact-1",
  "contractName": "Enterprise",
  "sourceName": "contracts/Enterprise.sol",
  "abi": [
    {
      "anonymous": false,
      "inputs": [
        {
          "indexed": true,
          "internalType": "address",
          "name": "powerToken",
          "type": "address"
        },
        {
          "indexed": false,
          "internalType": "uint256",
          "name": "tokenId",
          "type": "uint256"
        },
        {
          "indexed": false,
          "internalType": "uint32",
          "name": "from",
          "type": "uint32"
        },
        {
          "indexed": false,
          "internalType": "uint32",
          "name": "to",
          "type": "uint32"
        }
      ],
      "name": "Borrowed",
      "type": "event"
    },
    {
      "anonymous": false,
      "inputs": [
        {
          "indexed": true,
          "internalType": "address",
          "name": "powerToken",
          "type": "address"
        },
        {
          "indexed": false,
          "internalType": "uint32",
          "name": "halfLife",
          "type": "uint32"
        },
        {
          "indexed": false,
          "internalType": "uint112",
          "name": "factor",
          "type": "uint112"
        }
      ],
      "name": "ServiceRegistered",
      "type": "event"
    },
    {
      "inputs": [
        {
          "internalType": "uint256",
          "name": "liquidityAmount",
          "type": "uint256"
        }
      ],
      "name": "addLiquidity",
      "outputs": [],
      "stateMutability": "nonpayable",
      "type": "function"
    },
    {
      "inputs": [
        {
          "internalType": "contract IPowerToken",
          "name": "powerToken",
          "type": "address"
        },
        {
          "internalType": "contract IERC20",
          "name": "paymentToken",
          "type": "address"
        },
        {
          "internalType": "uint112",
          "name": "amount",
          "type": "uint112"
        },
        {
          "internalType": "uint256",
          "name": "maximumPayment",
          "type": "uint256"
        },
        {
          "internalType": "uint32",
          "name": "duration",
          "type": "uint32"
        }
      ],
      "name": "borrow",
      "outputs": [],
      "stateMutability": "nonpayable",
      "type": "function"
    },
    {
      "inputs": [
        {
          "internalType": "contract IPowerToken",
          "name": "powerToken",
          "type": "address"
        },
        {
          "internalType": "contract IERC20",
          "name": "paymentToken",
          "type": "address"
        },
        {
          "internalType": "uint112",
          "name": "amount",
          "type": "uint112"
        },
        {
          "internalType": "uint32",
          "name": "duration",
          "type": "uint32"
        }
      ],
      "name": "estimateLoan",
      "outputs": [
        {
          "internalType": "uint112",
          "name": "interest",
          "type": "uint112"
        },
        {
          "internalType": "uint112",
          "name": "serviceFee",
          "type": "uint112"
        },
        {
          "internalType": "uint112",
          "name": "lien",
          "type": "uint112"
        }
      ],
      "stateMutability": "view",
      "type": "function"
    },
    {
      "inputs": [],
      "name": "getAvailableReserve",
      "outputs": [
        {
          "internalType": "uint256",
          "name": "",
          "type": "uint256"
        }
      ],
      "stateMutability": "view",
      "type": "function"
    },
    {
      "inputs": [],
      "name": "getConfigurator",
      "outputs": [
        {
          "internalType": "contract EnterpriseConfigurator",
          "name": "",
          "type": "address"
        }
      ],
      "stateMutability": "view",
      "type": "function"
    },
    {
      "inputs": [],
      "name": "getInfo",
      "outputs": [
        {
          "internalType": "uint256",
          "name": "reserve",
          "type": "uint256"
        },
        {
          "internalType": "uint256",
          "name": "availableReserve",
          "type": "uint256"
        },
        {
          "internalType": "uint256",
          "name": "totalShares",
          "type": "uint256"
        },
        {
          "internalType": "string",
          "name": "name",
          "type": "string"
        }
      ],
      "stateMutability": "view",
      "type": "function"
    },
    {
      "inputs": [
        {
          "internalType": "uint256",
          "name": "tokenId",
          "type": "uint256"
        }
      ],
      "name": "getLoanInfo",
      "outputs": [
        {
          "components": [
            {
              "internalType": "uint112",
              "name": "amount",
              "type": "uint112"
            },
            {
              "internalType": "uint16",
              "name": "powerTokenIndex",
              "type": "uint16"
            },
            {
              "internalType": "uint32",
              "name": "borrowingTime",
              "type": "uint32"
            },
            {
              "internalType": "uint32",
              "name": "maturityTime",
              "type": "uint32"
            },
            {
              "internalType": "uint32",
              "name": "borrowerReturnGraceTime",
              "type": "uint32"
            },
            {
              "internalType": "uint32",
              "name": "enterpriseCollectGraceTime",
              "type": "uint32"
            },
            {
              "internalType": "uint112",
              "name": "lien",
              "type": "uint112"
            },
            {
              "internalType": "uint16",
              "name": "lienTokenIndex",
              "type": "uint16"
            }
          ],
          "internalType": "struct IEnterprise.LoanInfo",
          "name": "",
          "type": "tuple"
        }
      ],
      "stateMutability": "view",
      "type": "function"
    },
    {
      "inputs": [
        {
          "internalType": "uint256",
          "name": "index",
          "type": "uint256"
        }
      ],
      "name": "getPowerToken",
      "outputs": [
        {
          "internalType": "contract IPowerToken",
          "name": "",
          "type": "address"
        }
      ],
      "stateMutability": "view",
      "type": "function"
    },
    {
      "inputs": [
        {
          "internalType": "contract IPowerToken",
          "name": "powerToken",
          "type": "address"
        }
      ],
      "name": "getPowerTokenIndex",
      "outputs": [
        {
          "internalType": "int256",
          "name": "",
          "type": "int256"
        }
      ],
      "stateMutability": "view",
      "type": "function"
    },
    {
      "inputs": [],
      "name": "getPowerTokens",
      "outputs": [
        {
          "internalType": "contract IPowerToken[]",
          "name": "",
          "type": "address[]"
        }
      ],
      "stateMutability": "view",
      "type": "function"
    },
    {
      "inputs": [],
      "name": "getPowerTokensInfo",
      "outputs": [
        {
          "internalType": "address[]",
          "name": "addresses",
          "type": "address[]"
        },
        {
          "internalType": "string[]",
          "name": "names",
          "type": "string[]"
        },
        {
          "internalType": "string[]",
          "name": "symbols",
          "type": "string[]"
        },
        {
          "internalType": "uint32[]",
          "name": "halfLifes",
          "type": "uint32[]"
        }
      ],
      "stateMutability": "view",
      "type": "function"
    },
    {
      "inputs": [],
      "name": "getReserve",
      "outputs": [
        {
          "internalType": "uint256",
          "name": "",
          "type": "uint256"
        }
      ],
      "stateMutability": "view",
      "type": "function"
    },
    {
      "inputs": [
        {
          "internalType": "string",
          "name": "enterpriseName",
          "type": "string"
        },
        {
          "internalType": "contract EnterpriseConfigurator",
          "name": "configurator",
          "type": "address"
        }
      ],
      "name": "initialize",
      "outputs": [],
      "stateMutability": "nonpayable",
      "type": "function"
    },
    {
      "inputs": [
        {
          "internalType": "address",
          "name": "from",
          "type": "address"
        },
        {
          "internalType": "address",
          "name": "to",
          "type": "address"
        },
        {
          "internalType": "uint256",
          "name": "tokenId",
          "type": "uint256"
        }
      ],
      "name": "loanTransfer",
      "outputs": [],
      "stateMutability": "nonpayable",
      "type": "function"
    },
    {
      "inputs": [
        {
          "internalType": "uint256",
          "name": "tokenId",
          "type": "uint256"
        },
        {
          "internalType": "contract IERC20",
          "name": "paymentToken",
          "type": "address"
        },
        {
          "internalType": "uint256",
          "name": "maximumPayment",
          "type": "uint256"
        },
        {
          "internalType": "uint32",
          "name": "duration",
          "type": "uint32"
        }
      ],
      "name": "reborrow",
      "outputs": [],
      "stateMutability": "nonpayable",
      "type": "function"
    },
    {
      "inputs": [
        {
          "internalType": "string",
          "name": "serviceName",
          "type": "string"
        },
        {
          "internalType": "string",
          "name": "symbol",
          "type": "string"
        },
        {
          "internalType": "uint32",
          "name": "halfLife",
          "type": "uint32"
        },
        {
          "internalType": "uint112",
          "name": "factor",
          "type": "uint112"
        },
        {
          "internalType": "contract IERC20Metadata",
          "name": "factorToken",
          "type": "address"
        },
        {
          "internalType": "uint16",
          "name": "serviceFee",
          "type": "uint16"
        },
        {
          "internalType": "uint32",
          "name": "minLoanDuration",
          "type": "uint32"
        },
        {
          "internalType": "uint32",
          "name": "maxLoanDuration",
          "type": "uint32"
        }
      ],
      "name": "registerService",
      "outputs": [],
      "stateMutability": "nonpayable",
      "type": "function"
    },
    {
      "inputs": [
        {
          "internalType": "uint256",
          "name": "sharesAmount",
          "type": "uint256"
        }
      ],
      "name": "removeLiquidity",
      "outputs": [],
      "stateMutability": "nonpayable",
      "type": "function"
    },
    {
      "inputs": [
        {
          "internalType": "uint256",
          "name": "tokenId",
          "type": "uint256"
        }
      ],
      "name": "returnLoan",
      "outputs": [],
      "stateMutability": "nonpayable",
      "type": "function"
    },
    {
      "inputs": [
        {
          "internalType": "contract IPowerToken",
          "name": "powerToken",
          "type": "address"
        },
        {
          "internalType": "uint256",
          "name": "amount",
          "type": "uint256"
        }
      ],
      "name": "unwrap",
      "outputs": [
        {
          "internalType": "bool",
          "name": "",
          "type": "bool"
        }
      ],
      "stateMutability": "nonpayable",
      "type": "function"
    },
    {
      "inputs": [
        {
          "internalType": "contract IPowerToken",
          "name": "powerToken",
          "type": "address"
        },
        {
          "internalType": "uint256",
          "name": "amount",
          "type": "uint256"
        }
      ],
      "name": "wrap",
      "outputs": [
        {
          "internalType": "bool",
          "name": "",
          "type": "bool"
        }
      ],
      "stateMutability": "nonpayable",
      "type": "function"
    },
    {
      "inputs": [
        {
          "internalType": "contract IPowerToken",
          "name": "powerToken",
          "type": "address"
        },
        {
          "internalType": "address",
          "name": "to",
          "type": "address"
        },
        {
          "internalType": "uint256",
          "name": "amount",
          "type": "uint256"
        }
      ],
      "name": "wrapTo",
      "outputs": [
        {
          "internalType": "bool",
          "name": "",
          "type": "bool"
        }
      ],
      "stateMutability": "nonpayable",
      "type": "function"
    }
  ],
  "bytecode": "0x608060405234801561001057600080fd5b50614173806100206000396000f3fe608060405234801561001057600080fd5b50600436106101775760003560e01c80639b7ae5ec116100d8578063bf376c7a1161008c578063e36eca0c11610066578063e36eca0c1461040d578063e912615414610420578063faaed4ad1461043357600080fd5b8063bf376c7a146103d4578063c2fe50dd146103e7578063e2b17a16146103fa57600080fd5b8063ac44ea69116100bd578063ac44ea69146103a4578063aebb5041146103b7578063b96266fa146103bf57600080fd5b80639b7ae5ec146103805780639c8f9f231461039157600080fd5b8063512a53bc1161012f57806359bf5d391161011457806359bf5d39146103435780635a9b0b89146103555780637ab4339d1461036d57600080fd5b8063512a53bc1461031b57806351c6590a1461033057600080fd5b8063229304dc11610160578063229304dc146102a357806339f47693146102e05780633d4df8971461030357600080fd5b8063041960581461017c5780630714012c146101ac575b600080fd5b61018f61018a366004613af3565b610446565b6040516001600160a01b0390911681526020015b60405180910390f35b6102966101ba366004613af3565b6040805161010081018252600080825260208201819052918101829052606081018290526080810182905260a0810182905260c0810182905260e08101919091525060009081526005602090815260409182902082516101008101845281546001600160701b038082168352600160701b80830461ffff90811696850196909652600160801b830463ffffffff90811697850197909752600160a01b830487166060850152600160c01b830487166080850152600160e01b90920490951660a083015260019092015493841660c082015292041660e082015290565b6040516101a39190613e6c565b6102b66102b136600461389a565b610484565b604080516001600160701b03948516815292841660208401529216918101919091526060016101a3565b6102f36102ee3660046138f5565b6107c5565b60405190151581526020016101a3565b61030b61093e565b6040516101a39493929190613c71565b61032e6103293660046137a3565b610d5f565b005b61032e61033e366004613af3565b611157565b6001545b6040519081526020016101a3565b61035d611352565b6040516101a39493929190613f10565b61032e61037b3660046139b4565b6113fe565b6000546001600160a01b031661018f565b61032e61039f366004613af3565b6114f1565b61032e6103b2366004613a04565b61170c565b600254610347565b6103c7611cc6565b6040516101a39190613d24565b6102f36103e23660046138f5565b611d28565b61032e6103f5366004613b23565b611d97565b61032e610408366004613833565b612350565b61034761041b366004613803565b612c1c565b61032e61042e366004613af3565b612c6e565b6102f361044136600461381f565b6130ef565b60006007828154811061046957634e487b7160e01b600052603260045260246000fd5b6000918252602090912001546001600160a01b031692915050565b6001600160a01b0384166000908152600660205260408120548190819087906104e95760405162461bcd60e51b81526020600482015260126024820152712ab735b737bbb7102837bbb2b92a37b5b2b760711b60448201526064015b60405180910390fd5b60008060009054906101000a90046001600160a01b03166001600160a01b031663fec0dea06040518163ffffffff1660e01b815260040160206040518083038186803b15801561053857600080fd5b505afa15801561054c573d6000803e3d6000fd5b505050506040513d601f19601f820116820180604052508101906105709190613787565b6040517f19065df40000000000000000000000000000000000000000000000000000000081526001600160a01b038b811660048301526001600160701b038a16602483015263ffffffff891660448301529192506000918316906319065df49060640160206040518083038186803b1580156105eb57600080fd5b505afa1580156105ff573d6000803e3d6000fd5b505050506040513d601f19601f820116820180604052508101906106239190613ad7565b6000546040517f2b39a0ac0000000000000000000000000000000000000000000000000000000081526001600160a01b038d811660048301526001600160701b039390931693506127109290911690632b39a0ac9060240160206040518083038186803b15801561069357600080fd5b505afa1580156106a7573d6000803e3d6000fd5b505050506040513d601f19601f820116820180604052508101906106cb9190613ad7565b6106de906001600160701b03168361401a565b6106e89190613ffa565b94506106fd6001600160701b03861682614039565b6040517f465603a10000000000000000000000000000000000000000000000000000000081526001600160a01b038c811660048301528b811660248301526001600160701b038b16604483015263ffffffff8a1660648301529197509083169063465603a19060840160206040518083038186803b15801561077e57600080fd5b505afa158015610792573d6000803e3d6000fd5b505050506040513d601f19601f820116820180604052508101906107b69190613ad7565b93505050509450945094915050565b6001600160a01b03821660009081526006602052604081205483906108215760405162461bcd60e51b81526020600482015260126024820152712ab735b737bbb7102837bbb2b92a37b5b2b760711b60448201526064016104e0565b836001600160a01b0316638cc7104f60008054906101000a90046001600160a01b03166001600160a01b031663644e44df6040518163ffffffff1660e01b815260040160206040518083038186803b15801561087c57600080fd5b505afa158015610890573d6000803e3d6000fd5b505050506040513d601f19601f820116820180604052508101906108b49190613787565b6040517fffffffff0000000000000000000000000000000000000000000000000000000060e084901b1681526001600160a01b03909116600482015233602482015260448101869052606401600060405180830381600087803b15801561091a57600080fd5b505af115801561092e573d6000803e3d6000fd5b50505050600191505b5092915050565b6007546060908190819081908067ffffffffffffffff81111561097157634e487b7160e01b600052604160045260246000fd5b60405190808252806020026020018201604052801561099a578160200160208202803683370190505b5094508067ffffffffffffffff8111156109c457634e487b7160e01b600052604160045260246000fd5b6040519080825280602002602001820160405280156109f757816020015b60608152602001906001900390816109e25790505b5093508067ffffffffffffffff811115610a2157634e487b7160e01b600052604160045260246000fd5b604051908082528060200260200182016040528015610a5457816020015b6060815260200190600190039081610a3f5790505b5092508067ffffffffffffffff811115610a7e57634e487b7160e01b600052604160045260246000fd5b604051908082528060200260200182016040528015610aa7578160200160208202803683370190505b50915060005b81811015610d5757600060078281548110610ad857634e487b7160e01b600052603260045260246000fd5b9060005260206000200160009054906101000a90046001600160a01b0316905080878381518110610b1957634e487b7160e01b600052603260045260246000fd5b60200260200101906001600160a01b031690816001600160a01b031681525050806001600160a01b03166306fdde036040518163ffffffff1660e01b815260040160006040518083038186803b158015610b7257600080fd5b505afa158015610b86573d6000803e3d6000fd5b505050506040513d6000823e601f3d908101601f19168201604052610bae9190810190613941565b868381518110610bce57634e487b7160e01b600052603260045260246000fd5b6020026020010181905250806001600160a01b03166395d89b416040518163ffffffff1660e01b815260040160006040518083038186803b158015610c1257600080fd5b505afa158015610c26573d6000803e3d6000fd5b505050506040513d6000823e601f3d908101601f19168201604052610c4e9190810190613941565b858381518110610c6e57634e487b7160e01b600052603260045260246000fd5b60209081029190910101526000546040517f8fcfd8b30000000000000000000000000000000000000000000000000000000081526001600160a01b03838116600483015290911690638fcfd8b39060240160206040518083038186803b158015610cd757600080fd5b505afa158015610ceb573d6000803e3d6000fd5b505050506040513d601f19601f82011682018060405250810190610d0f9190613b61565b848381518110610d2f57634e487b7160e01b600052603260045260246000fd5b63ffffffff909216602092830291909101909101525080610d4f816140b7565b915050610aad565b505090919293565b60008054906101000a90046001600160a01b03166001600160a01b031663c93d0b926040518163ffffffff1660e01b815260040160206040518083038186803b158015610dab57600080fd5b505afa158015610dbf573d6000803e3d6000fd5b505050506040513d601f19601f82011682018060405250810190610de39190613787565b6001600160a01b0316336001600160a01b031614610e435760405162461bcd60e51b815260206004820152600f60248201527f4e6f7420426f72726f77546f6b656e000000000000000000000000000000000060448201526064016104e0565b600081815260056020908152604080832081516101008101835281546001600160701b03808216835261ffff600160701b808404821697850188905263ffffffff600160801b8504811697860197909752600160a01b840487166060860152600160c01b840487166080860152600160e01b90930490951660a084015260019093015492831660c083015290910490911660e08201526007805491939290918110610efe57634e487b7160e01b600052603260045260246000fd5b6000918252602090912001546001600160a01b0316905080610f545760405162461bcd60e51b815260206004820152600f60248201526e125b9d985b1a59081d1bdad95b9259608a1b60448201526064016104e0565b606082015163ffffffff1642116001600160a01b038681161590861680159030148015610f8957610f8487612c6e565b61114c565b811561100357855160405163079cc67960e41b81526001600160a01b038b811660048301526001600160701b039092166024820152908616906379cc6790906044015b600060405180830381600087803b158015610fe657600080fd5b505af1158015610ffa573d6000803e3d6000fd5b5050505061114c565b821561104a5785516040516340c10f1960e01b81526001600160a01b038b811660048301526001600160701b039092166024820152908616906340c10f1990604401610fcc565b836111045785516040517f33bebb770000000000000000000000000000000000000000000000000000000081526001600160a01b038b811660048301528a811660248301526001600160701b039092166044820152908616906333bebb7790606401602060405180830381600087803b1580156110c657600080fd5b505af11580156110da573d6000803e3d6000fd5b505050506040513d601f19601f820116820180604052508101906110fe91906137e3565b5061114c565b60405162461bcd60e51b815260206004820152601460248201527f4e6f7420616c6c6f776564207472616e7366657200000000000000000000000060448201526064016104e0565b505050505050505050565b6111f233308360008054906101000a90046001600160a01b03166001600160a01b031663644e44df6040518163ffffffff1660e01b815260040160206040518083038186803b1580156111a957600080fd5b505afa1580156111bd573d6000803e3d6000fd5b505050506040513d601f19601f820116820180604052508101906111e19190613787565b6001600160a01b0316929190613271565b80600160008282546112049190613fc3565b92505081905550806002600082825461121d9190613fc3565b9091555050600354600090611233575080611251565b60015482600354611244919061401a565b61124e9190613ffa565b90505b60008054906101000a90046001600160a01b03166001600160a01b0316630ea1dc9e6040518163ffffffff1660e01b815260040160206040518083038186803b15801561129d57600080fd5b505afa1580156112b1573d6000803e3d6000fd5b505050506040513d601f19601f820116820180604052508101906112d59190613787565b6040516340c10f1960e01b8152336004820152602481018390526001600160a01b0391909116906340c10f1990604401600060405180830381600087803b15801561131f57600080fd5b505af1158015611333573d6000803e3d6000fd5b5050505080600360008282546113499190613fc3565b90915550505050565b6000806000606060015460025460035460048080546113709061407c565b80601f016020809104026020016040519081016040528092919081815260200182805461139c9061407c565b80156113e95780601f106113be576101008083540402835291602001916113e9565b820191906000526020600020905b8154815290600101906020018083116113cc57829003601f168201915b50505050509050935093509350935090919293565b6000546001600160a01b0316156114575760405162461bcd60e51b815260206004820152601360248201527f416c726561647920696e697469616c697a65640000000000000000000000000060448201526064016104e0565b6001600160a01b0381166114ad5760405162461bcd60e51b815260206004820152601460248201527f496e76616c696420636f6e666967757261746f7200000000000000000000000060448201526064016104e0565b81516114c0906004906020850190613692565b506000805473ffffffffffffffffffffffffffffffffffffffff19166001600160a01b039290921691909117905550565b600060035482600154611504919061401a565b61150e9190613ffa565b90506002548111156115625760405162461bcd60e51b815260206004820152601660248201527f496e73756666696369656e74206c69717569646974790000000000000000000060448201526064016104e0565b60008054906101000a90046001600160a01b03166001600160a01b0316630ea1dc9e6040518163ffffffff1660e01b815260040160206040518083038186803b1580156115ae57600080fd5b505afa1580156115c2573d6000803e3d6000fd5b505050506040513d601f19601f820116820180604052508101906115e69190613787565b60405163079cc67960e41b8152336004820152602481018490526001600160a01b0391909116906379cc679090604401600060405180830381600087803b15801561163057600080fd5b505af1158015611644573d6000803e3d6000fd5b505050506116e1338260008054906101000a90046001600160a01b03166001600160a01b031663644e44df6040518163ffffffff1660e01b815260040160206040518083038186803b15801561169957600080fd5b505afa1580156116ad573d6000803e3d6000fd5b505050506040513d601f19601f820116820180604052508101906116d19190613787565b6001600160a01b03169190613313565b80600160008282546116f39190614039565b9250508190555080600260008282546113499190614039565b60008054906101000a90046001600160a01b03166001600160a01b0316638da5cb5b6040518163ffffffff1660e01b815260040160206040518083038186803b15801561175857600080fd5b505afa15801561176c573d6000803e3d6000fd5b505050506040513d601f19601f820116820180604052508101906117909190613787565b6001600160a01b0316336001600160a01b0316146117f05760405162461bcd60e51b815260206004820181905260248201527f4f776e61626c653a2063616c6c6572206973206e6f7420746865206f776e657260448201526064016104e0565b60075461ffff116118435760405162461bcd60e51b815260206004820152601d60248201527f43616e6e6f74207265676973746572206d6f726520736572766963657300000060448201526064016104e0565b8063ffffffff168263ffffffff16111561189f5760405162461bcd60e51b815260206004820152601b60248201527f496e76616c6964206d696e20616e64206d617820706572696f6473000000000060448201526064016104e0565b60008663ffffffff16116118f55760405162461bcd60e51b815260206004820152601160248201527f496e76616c69642068616c66206c69666500000000000000000000000000000060448201526064016104e0565b60008060009054906101000a90046001600160a01b03166001600160a01b031663644e44df6040518163ffffffff1660e01b815260040160206040518083038186803b15801561194457600080fd5b505afa158015611958573d6000803e3d6000fd5b505050506040513d601f19601f8201168201806040525081019061197c9190613787565b6001600160a01b03166395d89b416040518163ffffffff1660e01b815260040160006040518083038186803b1580156119b457600080fd5b505afa1580156119c8573d6000803e3d6000fd5b505050506040513d6000823e601f3d908101601f191682016040526119f09190810190613941565b905060008189604051602001611a07929190613c19565b60405160208183030381529060405290506000611aaf60008054906101000a90046001600160a01b03166001600160a01b03166383b9a0096040518163ffffffff1660e01b815260040160206040518083038186803b158015611a6957600080fd5b505afa158015611a7d573d6000803e3d6000fd5b505050506040513d601f19601f82011682018060405250810190611aa19190613787565b6001600160a01b0316613361565b60408051610100810182526001600160701b038b16815263ffffffff808d16602083015261ffff8a1682840181905260608301526001600160a01b03808c16608084015242821660a084015289821660c084015290881660e083015260005492517ff8dd5c83000000000000000000000000000000000000000000000000000000008152939450909291169063f8dd5c8390611b519085908590600401613d71565b600060405180830381600087803b158015611b6b57600080fd5b505af1158015611b7f573d6000803e3d6000fd5b50505050816001600160a01b031663077f224a8d8560008054906101000a90046001600160a01b03166040518463ffffffff1660e01b8152600401611bc693929190613e2d565b600060405180830381600087803b158015611be057600080fd5b505af1158015611bf4573d6000803e3d6000fd5b5050600780546001810182557fa66cc928b5edb82af9bd49922954155ab7b0942694bea4ce44661d9a8736c6880180546001600160a01b03871673ffffffffffffffffffffffffffffffffffffffff19909116811790915590546000828152600660205260409081902091909155519092507f18706585e986f622c9d914abfb256d563b9ea274cd5d49124e0518aa314b8c129150611cb0908d908d9063ffffffff9290921682526001600160701b0316602082015260400190565b60405180910390a2505050505050505050505050565b60606007805480602002602001604051908101604052809291908181526020018280548015611d1e57602002820191906000526020600020905b81546001600160a01b03168152600190910190602001808311611d00575b5050505050905090565b6001600160a01b0382166000908152600660205260408120548390611d845760405162461bcd60e51b81526020600482015260126024820152712ab735b737bbb7102837bbb2b92a37b5b2b760711b60448201526064016104e0565b611d8f8433856130ef565b949350505050565b600054604051632fb2067f60e01b81526001600160a01b03858116600483015290911690632fb2067f9060240160206040518083038186803b158015611ddc57600080fd5b505afa158015611df0573d6000803e3d6000fd5b505050506040513d601f19601f82011682018060405250810190611e1491906137e3565b611e865760405162461bcd60e51b815260206004820152603360248201527f496e746572657374207061796d656e7420746f6b656e2069732064697361626c60448201527f6564206f72206e6f7420737570706f727465640000000000000000000000000060648201526084016104e0565b60008481526005602052604081208054600780549293929091600160701b900461ffff16908110611ec757634e487b7160e01b600052603260045260246000fd5b6000918252602090912001546001600160a01b0316905080611f1d5760405162461bcd60e51b815260206004820152600f60248201526e125b9d985b1a59081d1bdad95b9259608a1b60448201526064016104e0565b60005460405163a0cffa5960e01b81526001600160a01b03838116600483015263ffffffff861660248301529091169063a0cffa599060440160206040518083038186803b158015611f6e57600080fd5b505afa158015611f82573d6000803e3d6000fd5b505050506040513d601f19601f82011682018060405250810190611fa691906137e3565b611ff25760405162461bcd60e51b815260206004820152601760248201527f4475726174696f6e206973206e6f7420616c6c6f77656400000000000000000060448201526064016104e0565b8154429061200e908590600160a01b900463ffffffff16613fdb565b63ffffffff1610156120625760405162461bcd60e51b815260206004820152601060248201527f496e76616c6964206475726174696f6e0000000000000000000000000000000060448201526064016104e0565b8154600090819081906120829085908a906001600160701b031689610484565b92509250925086836001600160701b031611156120e15760405162461bcd60e51b815260206004820152601360248201527f536c69707061676520697320746f6f206269670000000000000000000000000060448201526064016104e0565b6120ff6001600160a01b03891633306001600160701b038716613271565b8454600160a01b900463ffffffff166121188782613fdb565b865463ffffffff91909116600160a01b0263ffffffff60a01b19909116178655600054604080517f8188d50d00000000000000000000000000000000000000000000000000000000815290516001600160a01b0390921691638188d50d91600480820192602092909190829003018186803b15801561219657600080fd5b505afa1580156121aa573d6000803e3d6000fd5b505050506040513d601f19601f820116820180604052508101906121ce9190613b61565b86546121e79190600160a01b900463ffffffff16613fdb565b865463ffffffff91909116600160c01b027fffffffff00000000ffffffffffffffffffffffffffffffffffffffffffffffff909116178655600054604080517fa0efd11800000000000000000000000000000000000000000000000000000000815290516001600160a01b039092169163a0efd11891600480820192602092909190829003018186803b15801561227d57600080fd5b505afa158015612291573d6000803e3d6000fd5b505050506040513d601f19601f820116820180604052508101906122b59190613b61565b86546122ce9190600160a01b900463ffffffff16613fdb565b86546001600160e01b0316600160e01b63ffffffff9283160217808855604080518d81528484166020820152600160a01b909204909216918101919091526001600160a01b038616907f9853650269815e203c5c9e228db9ca05cc6037f2c2723c94ed3260cf98324c999060600160405180910390a250505050505050505050565b6001600160a01b03851660009081526006602052604090205485906123ac5760405162461bcd60e51b81526020600482015260126024820152712ab735b737bbb7102837bbb2b92a37b5b2b760711b60448201526064016104e0565b600054604051632fb2067f60e01b81526001600160a01b03878116600483015290911690632fb2067f9060240160206040518083038186803b1580156123f157600080fd5b505afa158015612405573d6000803e3d6000fd5b505050506040513d601f19601f8201168201806040525081019061242991906137e3565b61249b5760405162461bcd60e51b815260206004820152603360248201527f496e746572657374207061796d656e7420746f6b656e2069732064697361626c60448201527f6564206f72206e6f7420737570706f727465640000000000000000000000000060648201526084016104e0565b60005460405163a0cffa5960e01b81526001600160a01b03888116600483015263ffffffff851660248301529091169063a0cffa599060440160206040518083038186803b1580156124ec57600080fd5b505afa158015612500573d6000803e3d6000fd5b505050506040513d601f19601f8201168201806040525081019061252491906137e3565b6125705760405162461bcd60e51b815260206004820152601760248201527f4475726174696f6e206973206e6f7420616c6c6f77656400000000000000000060448201526064016104e0565b600254846001600160701b031611156125cb5760405162461bcd60e51b815260206004820152601560248201527f496e73756666696369656e74207265736572766573000000000000000000000060448201526064016104e0565b60008060009054906101000a90046001600160a01b03166001600160a01b031663c93d0b926040518163ffffffff1660e01b815260040160206040518083038186803b15801561261a57600080fd5b505afa15801561262e573d6000803e3d6000fd5b505050506040513d601f19601f820116820180604052508101906126529190613787565b90506000806000806126668b8b8b8a610484565b95509093509150839050878161267c8486613f98565b6126869190613f98565b6001600160701b031611156126dd5760405162461bcd60e51b815260206004820152601360248201527f536c69707061676520697320746f6f206269670000000000000000000000000060448201526064016104e0565b6126fb6001600160a01b038b1633306001600160701b038716613271565b6127186001600160a01b038b16866001600160701b038416613313565b826001600160701b0316896001600160701b03166002546127399190614039565b6127439190613fc3565b60025550429150600090506127588683613fdb565b90506000846001600160a01b0316638ada066e6040518163ffffffff1660e01b8152600401602060405180830381600087803b15801561279757600080fd5b505af11580156127ab573d6000803e3d6000fd5b505050506040513d601f19601f820116820180604052508101906127cf9190613b0b565b90506040518061010001604052808a6001600160701b031681526020016001600660008f6001600160a01b03166001600160a01b031681526020019081526020016000205461281e9190614039565b61ffff1681526020018463ffffffff1681526020018363ffffffff16815260200160008054906101000a90046001600160a01b03166001600160a01b0316638188d50d6040518163ffffffff1660e01b815260040160206040518083038186803b15801561288b57600080fd5b505afa15801561289f573d6000803e3d6000fd5b505050506040513d601f19601f820116820180604052508101906128c39190613b61565b6128cd9085613fdb565b63ffffffff16815260200160008054906101000a90046001600160a01b03166001600160a01b031663a0efd1186040518163ffffffff1660e01b815260040160206040518083038186803b15801561292457600080fd5b505afa158015612938573d6000803e3d6000fd5b505050506040513d601f19601f8201168201806040525081019061295c9190613b61565b6129669085613fdb565b63ffffffff1681526001600160701b0386166020820152600054604080517f27623ddd0000000000000000000000000000000000000000000000000000000081526001600160a01b038f8116600483015291909301929116906327623ddd9060240160206040518083038186803b1580156129e057600080fd5b505afa1580156129f4573d6000803e3d6000fd5b505050506040513d601f19601f82011682018060405250810190612a189190613920565b61ffff9081169091526000838152600560209081526040918290208451815486840151878601516060808a015160808b015160a08c01516001600160701b039788166fffffffffffffffffffffffffffffffff1997881617600160701b968d168702177fffffffffffffffff0000000000000000ffffffffffffffffffffffffffffffff16600160801b63ffffffff9687160263ffffffff60a01b191617600160a01b938616939093029290921777ffffffffffffffffffffffffffffffffffffffffffffffff16600160c01b918516919091026001600160e01b031617600160e01b9184169190910217865560c08a01516001909601805460e0909b015196909516999093169890981793909616909502919091179055815185815287851691810191909152928516908301526001600160a01b038d16917f9853650269815e203c5c9e228db9ca05cc6037f2c2723c94ed3260cf98324c99910160405180910390a26040517f6a6278420000000000000000000000000000000000000000000000000000000081523360048201526001600160a01b03861690636a62784290602401602060405180830381600087803b158015612bd657600080fd5b505af1158015612bea573d6000803e3d6000fd5b505050506040513d601f19601f82011682018060405250810190612c0e9190613b0b565b505050505050505050505050565b6001600160a01b03811660009081526006602052604081205415612c64576001600160a01b038216600090815260066020526040902054612c5f90600190614039565b612c68565b6000195b92915050565b60008181526005602052604081208054600780549293929091600160701b900461ffff16908110612caf57634e487b7160e01b600052603260045260246000fd5b6000918252602090912001546001600160a01b0316905080612d055760405162461bcd60e51b815260206004820152600f60248201526e125b9d985b1a59081d1bdad95b9259608a1b60448201526064016104e0565b60008060009054906101000a90046001600160a01b03166001600160a01b031663c93d0b926040518163ffffffff1660e01b815260040160206040518083038186803b158015612d5457600080fd5b505afa158015612d68573d6000803e3d6000fd5b505050506040513d601f19601f82011682018060405250810190612d8c9190613787565b6040517f6352211e000000000000000000000000000000000000000000000000000000008152600481018690529091506000906001600160a01b03831690636352211e9060240160206040518083038186803b158015612deb57600080fd5b505afa158015612dff573d6000803e3d6000fd5b505050506040513d601f19601f82011682018060405250810190612e239190613787565b8454909150429063ffffffff808316600160c01b909204161080612e4f5750336001600160a01b038316145b612ec15760405162461bcd60e51b815260206004820152603560248201527f4f6e6c7920626f72726f7765722063616e2072657475726e2077697468696e2060448201527f626f72726f77657220677261636520706572696f64000000000000000000000060648201526084016104e0565b845463ffffffff808316600160e01b909204161080612ee85750336001600160a01b038316145b80612f87575060008054906101000a90046001600160a01b03166001600160a01b031663a554b26d6040518163ffffffff1660e01b815260040160206040518083038186803b158015612f3a57600080fd5b505afa158015612f4e573d6000803e3d6000fd5b505050506040513d601f19601f82011682018060405250810190612f729190613787565b6001600160a01b0316336001600160a01b0316145b61301f5760405162461bcd60e51b815260206004820152604560248201527f4f6e6c7920626f72726f776572206f7220656e74657270726973652063616e2060448201527f72657475726e2077697468696e20656e7465727072697365206772616365207060648201527f6572696f64000000000000000000000000000000000000000000000000000000608482015260a4016104e0565b8454600280546001600160701b039092169160009061303f908490613fc3565b90915550506040517ffcd3533c000000000000000000000000000000000000000000000000000000008152600481018790523360248201526001600160a01b0384169063fcd3533c90604401600060405180830381600087803b1580156130a557600080fd5b505af11580156130b9573d6000803e3d6000fd5b505050600096875250506005602052505060408320928355505060010180546fffffffffffffffffffffffffffffffff19169055565b6001600160a01b038316600090815260066020526040812054849061314b5760405162461bcd60e51b81526020600482015260126024820152712ab735b737bbb7102837bbb2b92a37b5b2b760711b60448201526064016104e0565b846001600160a01b031663a1571a5760008054906101000a90046001600160a01b03166001600160a01b031663644e44df6040518163ffffffff1660e01b815260040160206040518083038186803b1580156131a657600080fd5b505afa1580156131ba573d6000803e3d6000fd5b505050506040513d601f19601f820116820180604052508101906131de9190613787565b6040517fffffffff0000000000000000000000000000000000000000000000000000000060e084901b1681526001600160a01b039182166004820152336024820152908716604482015260648101869052608401600060405180830381600087803b15801561324c57600080fd5b505af1158015613260573d6000803e3d6000fd5b50505050600191505b509392505050565b6040516001600160a01b038085166024830152831660448201526064810182905261330d9085907f23b872dd00000000000000000000000000000000000000000000000000000000906084015b60408051601f198184030181529190526020810180516001600160e01b03167fffffffff000000000000000000000000000000000000000000000000000000009093169290921790915261341c565b50505050565b6040516001600160a01b03831660248201526044810182905261335c9084907fa9059cbb00000000000000000000000000000000000000000000000000000000906064016132be565b505050565b60006040517f3d602d80600a3d3981f3363d3d373d3d3d363d7300000000000000000000000081528260601b60148201527f5af43d82803e903d91602b57fd5bf3000000000000000000000000000000000060288201526037816000f09150506001600160a01b0381166134175760405162461bcd60e51b815260206004820152601660248201527f455243313136373a20637265617465206661696c65640000000000000000000060448201526064016104e0565b919050565b6000613471826040518060400160405280602081526020017f5361666545524332303a206c6f772d6c6576656c2063616c6c206661696c6564815250856001600160a01b03166135019092919063ffffffff16565b80519091501561335c578080602001905181019061348f91906137e3565b61335c5760405162461bcd60e51b815260206004820152602a60248201527f5361666545524332303a204552433230206f7065726174696f6e20646964206e60448201527f6f7420737563636565640000000000000000000000000000000000000000000060648201526084016104e0565b6060613510848460008561351a565b90505b9392505050565b6060824710156135925760405162461bcd60e51b815260206004820152602660248201527f416464726573733a20696e73756666696369656e742062616c616e636520666f60448201527f722063616c6c000000000000000000000000000000000000000000000000000060648201526084016104e0565b843b6135e05760405162461bcd60e51b815260206004820152601d60248201527f416464726573733a2063616c6c20746f206e6f6e2d636f6e747261637400000060448201526064016104e0565b600080866001600160a01b031685876040516135fc9190613bfd565b60006040518083038185875af1925050503d8060008114613639576040519150601f19603f3d011682016040523d82523d6000602084013e61363e565b606091505b509150915061364e828286613659565b979650505050505050565b60608315613668575081613513565b8251156136785782518084602001fd5b8160405162461bcd60e51b81526004016104e09190613e1a565b82805461369e9061407c565b90600052602060002090601f0160209004810192826136c05760008555613706565b82601f106136d957805160ff1916838001178555613706565b82800160010185558215613706579182015b828111156137065782518255916020019190600101906136eb565b50613712929150613716565b5090565b5b808211156137125760008155600101613717565b600082601f83011261373b578081fd5b813561374e61374982613f70565b613f3f565b818152846020838601011115613762578283fd5b816020850160208301379081016020019190915292915050565b80356134178161412b565b600060208284031215613798578081fd5b8151613513816140fe565b6000806000606084860312156137b7578182fd5b83356137c2816140fe565b925060208401356137d2816140fe565b929592945050506040919091013590565b6000602082840312156137f4578081fd5b81518015158114613513578182fd5b600060208284031215613814578081fd5b8135613513816140fe565b6000806000606084860312156137b7578081fd5b600080600080600060a0868803121561384a578283fd5b8535613855816140fe565b94506020860135613865816140fe565b9350604086013561387581614116565b925060608601359150608086013561388c8161412b565b809150509295509295909350565b600080600080608085870312156138af578182fd5b84356138ba816140fe565b935060208501356138ca816140fe565b925060408501356138da81614116565b915060608501356138ea8161412b565b939692955090935050565b60008060408385031215613907578182fd5b8235613912816140fe565b946020939093013593505050565b600060208284031215613931578081fd5b81518060010b8114613513578182fd5b600060208284031215613952578081fd5b815167ffffffffffffffff811115613968578182fd5b8201601f81018413613978578182fd5b805161398661374982613f70565b81815285602083850101111561399a578384fd5b6139ab826020830160208601614050565b95945050505050565b600080604083850312156139c6578182fd5b823567ffffffffffffffff8111156139dc578283fd5b6139e88582860161372b565b92505060208301356139f9816140fe565b809150509250929050565b600080600080600080600080610100898b031215613a20578586fd5b883567ffffffffffffffff80821115613a37578788fd5b613a438c838d0161372b565b995060208b0135915080821115613a58578788fd5b50613a658b828c0161372b565b9750506040890135613a768161412b565b95506060890135613a8681614116565b94506080890135613a96816140fe565b935060a089013561ffff81168114613aac578384fd5b9250613aba60c08a0161377c565b9150613ac860e08a0161377c565b90509295985092959890939650565b600060208284031215613ae8578081fd5b815161351381614116565b600060208284031215613b04578081fd5b5035919050565b600060208284031215613b1c578081fd5b5051919050565b60008060008060808587031215613b38578182fd5b843593506020850135613b4a816140fe565b92506040850135915060608501356138ea8161412b565b600060208284031215613b72578081fd5b81516135138161412b565b600081518084526020808501808196508360051b81019150828601855b85811015613bc4578284038952613bb2848351613bd1565b98850198935090840190600101613b9a565b5091979650505050505050565b60008151808452613be9816020860160208601614050565b601f01601f19169290920160200192915050565b60008251613c0f818460208701614050565b9190910192915050565b60008351613c2b818460208801614050565b7f20000000000000000000000000000000000000000000000000000000000000009083019081528351613c65816001840160208801614050565b01600101949350505050565b6080808252855190820181905260009060209060a0840190828901845b82811015613cb35781516001600160a01b031684529284019290840190600101613c8e565b50505083810382850152613cc78188613b7d565b90508381036040850152613cdb8187613b7d565b84810360608601528551808252838701925090830190845b81811015613d1557835163ffffffff1683529284019291840191600101613cf3565b50909998505050505050505050565b6020808252825182820181905260009190848201906040850190845b81811015613d655783516001600160a01b031683529284019291840191600101613d40565b50909695505050505050565b6000610120820190506001600160a01b03841682526001600160701b03835116602083015263ffffffff602084015116604083015261ffff60408401511660608301526060830151613dc9608084018261ffff169052565b5060808301516001600160a01b03811660a08401525060a083015163ffffffff811660c08401525060c083015163ffffffff811660e08401525060e083015163ffffffff8116610100840152613269565b6020815260006135136020830184613bd1565b606081526000613e406060830186613bd1565b8281036020840152613e528186613bd1565b9150506001600160a01b0383166040830152949350505050565b6000610100820190506001600160701b03835116825261ffff6020840151166020830152604083015163ffffffff808216604085015280606086015116606085015250506080830151613ec7608084018263ffffffff169052565b5060a0830151613edf60a084018263ffffffff169052565b5060c0830151613efa60c08401826001600160701b03169052565b5060e083015161093760e084018261ffff169052565b848152836020820152826040820152608060608201526000613f356080830184613bd1565b9695505050505050565b604051601f8201601f1916810167ffffffffffffffff81118282101715613f6857613f686140e8565b604052919050565b600067ffffffffffffffff821115613f8a57613f8a6140e8565b50601f01601f191660200190565b60006001600160701b03808316818516808303821115613fba57613fba6140d2565b01949350505050565b60008219821115613fd657613fd66140d2565b500190565b600063ffffffff808316818516808303821115613fba57613fba6140d2565b60008261401557634e487b7160e01b81526012600452602481fd5b500490565b6000816000190483118215151615614034576140346140d2565b500290565b60008282101561404b5761404b6140d2565b500390565b60005b8381101561406b578181015183820152602001614053565b8381111561330d5750506000910152565b600181811c9082168061409057607f821691505b602082108114156140b157634e487b7160e01b600052602260045260246000fd5b50919050565b60006000198214156140cb576140cb6140d2565b5060010190565b634e487b7160e01b600052601160045260246000fd5b634e487b7160e01b600052604160045260246000fd5b6001600160a01b038116811461411357600080fd5b50565b6001600160701b038116811461411357600080fd5b63ffffffff8116811461411357600080fdfea2646970667358221220656a9b041b3cdf91a881be6e0be0ede0b28ab95bb6a94f3c74af1cc576ea128764736f6c63430008040033",
  "linkReferences": {},
  "deployedLinkReferences": {}
}