{
  "_format": "hh-sol-artifact-1",
  "contractName": "Enterprise",
  "sourceName": "contracts/Enterprise.sol",
  "abi": [
    {
      "anonymous": false,
      "inputs": [
        {
          "indexed": true,
          "internalType": "address",
          "name": "powerToken",
          "type": "address"
        },
        {
          "indexed": false,
          "internalType": "uint256",
          "name": "tokenId",
          "type": "uint256"
        },
        {
          "indexed": false,
          "internalType": "uint32",
          "name": "from",
          "type": "uint32"
        },
        {
          "indexed": false,
          "internalType": "uint32",
          "name": "to",
          "type": "uint32"
        }
      ],
      "name": "Borrowed",
      "type": "event"
    },
    {
      "anonymous": false,
      "inputs": [
        {
          "indexed": true,
          "internalType": "address",
          "name": "powerToken",
          "type": "address"
        },
        {
          "indexed": false,
          "internalType": "uint32",
          "name": "halfLife",
          "type": "uint32"
        },
        {
          "indexed": false,
          "internalType": "uint112",
          "name": "factor",
          "type": "uint112"
        }
      ],
      "name": "ServiceRegistered",
      "type": "event"
    },
    {
      "inputs": [
        {
          "internalType": "uint256",
          "name": "liquidityAmount",
          "type": "uint256"
        }
      ],
      "name": "addLiquidity",
      "outputs": [],
      "stateMutability": "nonpayable",
      "type": "function"
    },
    {
      "inputs": [
        {
          "internalType": "contract IPowerToken",
          "name": "powerToken",
          "type": "address"
        },
        {
          "internalType": "contract IERC20",
          "name": "paymentToken",
          "type": "address"
        },
        {
          "internalType": "uint112",
          "name": "amount",
          "type": "uint112"
        },
        {
          "internalType": "uint256",
          "name": "maximumPayment",
          "type": "uint256"
        },
        {
          "internalType": "uint32",
          "name": "duration",
          "type": "uint32"
        }
      ],
      "name": "borrow",
      "outputs": [],
      "stateMutability": "nonpayable",
      "type": "function"
    },
    {
      "inputs": [
        {
          "internalType": "contract IPowerToken",
          "name": "powerToken",
          "type": "address"
        },
        {
          "internalType": "contract IERC20",
          "name": "paymentToken",
          "type": "address"
        },
        {
          "internalType": "uint112",
          "name": "amount",
          "type": "uint112"
        },
        {
          "internalType": "uint32",
          "name": "duration",
          "type": "uint32"
        }
      ],
      "name": "estimateLoan",
      "outputs": [
        {
          "internalType": "uint256",
          "name": "",
          "type": "uint256"
        }
      ],
      "stateMutability": "view",
      "type": "function"
    },
    {
      "inputs": [],
      "name": "getAvailableReserve",
      "outputs": [
        {
          "internalType": "uint256",
          "name": "",
          "type": "uint256"
        }
      ],
      "stateMutability": "view",
      "type": "function"
    },
    {
      "inputs": [],
      "name": "getConfigurator",
      "outputs": [
        {
          "internalType": "contract EnterpriseConfigurator",
          "name": "",
          "type": "address"
        }
      ],
      "stateMutability": "view",
      "type": "function"
    },
    {
      "inputs": [],
      "name": "getInfo",
      "outputs": [
        {
          "internalType": "uint256",
          "name": "reserve",
          "type": "uint256"
        },
        {
          "internalType": "uint256",
          "name": "availableReserve",
          "type": "uint256"
        },
        {
          "internalType": "uint256",
          "name": "totalShares",
          "type": "uint256"
        },
        {
          "internalType": "string",
          "name": "name",
          "type": "string"
        }
      ],
      "stateMutability": "view",
      "type": "function"
    },
    {
      "inputs": [
        {
          "internalType": "uint256",
          "name": "tokenId",
          "type": "uint256"
        }
      ],
      "name": "getLoanInfo",
      "outputs": [
        {
          "components": [
            {
              "internalType": "uint112",
              "name": "amount",
              "type": "uint112"
            },
            {
              "internalType": "uint16",
              "name": "powerTokenIndex",
              "type": "uint16"
            },
            {
              "internalType": "uint32",
              "name": "borrowingTime",
              "type": "uint32"
            },
            {
              "internalType": "uint32",
              "name": "maturityTime",
              "type": "uint32"
            },
            {
              "internalType": "uint32",
              "name": "borrowerReturnGraceTime",
              "type": "uint32"
            },
            {
              "internalType": "uint32",
              "name": "enterpriseCollectGraceTime",
              "type": "uint32"
            },
            {
              "internalType": "uint112",
              "name": "lien",
              "type": "uint112"
            },
            {
              "internalType": "uint16",
              "name": "lienTokenIndex",
              "type": "uint16"
            }
          ],
          "internalType": "struct IEnterprise.LoanInfo",
          "name": "",
          "type": "tuple"
        }
      ],
      "stateMutability": "view",
      "type": "function"
    },
    {
      "inputs": [
        {
          "internalType": "uint256",
          "name": "index",
          "type": "uint256"
        }
      ],
      "name": "getPowerToken",
      "outputs": [
        {
          "internalType": "contract IPowerToken",
          "name": "",
          "type": "address"
        }
      ],
      "stateMutability": "view",
      "type": "function"
    },
    {
      "inputs": [
        {
          "internalType": "contract IPowerToken",
          "name": "powerToken",
          "type": "address"
        }
      ],
      "name": "getPowerTokenIndex",
      "outputs": [
        {
          "internalType": "int256",
          "name": "",
          "type": "int256"
        }
      ],
      "stateMutability": "view",
      "type": "function"
    },
    {
      "inputs": [],
      "name": "getPowerTokens",
      "outputs": [
        {
          "internalType": "contract IPowerToken[]",
          "name": "",
          "type": "address[]"
        }
      ],
      "stateMutability": "view",
      "type": "function"
    },
    {
      "inputs": [],
      "name": "getPowerTokensInfo",
      "outputs": [
        {
          "internalType": "address[]",
          "name": "addresses",
          "type": "address[]"
        },
        {
          "internalType": "string[]",
          "name": "names",
          "type": "string[]"
        },
        {
          "internalType": "string[]",
          "name": "symbols",
          "type": "string[]"
        },
        {
          "internalType": "uint32[]",
          "name": "halfLifes",
          "type": "uint32[]"
        }
      ],
      "stateMutability": "view",
      "type": "function"
    },
    {
      "inputs": [],
      "name": "getReserve",
      "outputs": [
        {
          "internalType": "uint256",
          "name": "",
          "type": "uint256"
        }
      ],
      "stateMutability": "view",
      "type": "function"
    },
    {
      "inputs": [
        {
          "internalType": "string",
          "name": "enterpriseName",
          "type": "string"
        },
        {
          "internalType": "contract EnterpriseConfigurator",
          "name": "configurator",
          "type": "address"
        }
      ],
      "name": "initialize",
      "outputs": [],
      "stateMutability": "nonpayable",
      "type": "function"
    },
    {
      "inputs": [
        {
          "internalType": "address",
          "name": "from",
          "type": "address"
        },
        {
          "internalType": "address",
          "name": "to",
          "type": "address"
        },
        {
          "internalType": "uint256",
          "name": "tokenId",
          "type": "uint256"
        }
      ],
      "name": "loanTransfer",
      "outputs": [],
      "stateMutability": "nonpayable",
      "type": "function"
    },
    {
      "inputs": [
        {
          "internalType": "uint256",
          "name": "tokenId",
          "type": "uint256"
        },
        {
          "internalType": "contract IERC20",
          "name": "paymentToken",
          "type": "address"
        },
        {
          "internalType": "uint256",
          "name": "maximumPayment",
          "type": "uint256"
        },
        {
          "internalType": "uint32",
          "name": "duration",
          "type": "uint32"
        }
      ],
      "name": "reborrow",
      "outputs": [],
      "stateMutability": "nonpayable",
      "type": "function"
    },
    {
      "inputs": [
        {
          "internalType": "string",
          "name": "serviceName",
          "type": "string"
        },
        {
          "internalType": "string",
          "name": "symbol",
          "type": "string"
        },
        {
          "internalType": "uint32",
          "name": "halfLife",
          "type": "uint32"
        },
        {
          "internalType": "uint112",
          "name": "baseRate",
          "type": "uint112"
        },
        {
          "internalType": "contract IERC20Metadata",
          "name": "baseToken",
          "type": "address"
        },
        {
          "internalType": "uint16",
          "name": "serviceFee",
          "type": "uint16"
        },
        {
          "internalType": "uint32",
          "name": "minLoanDuration",
          "type": "uint32"
        },
        {
          "internalType": "uint32",
          "name": "maxLoanDuration",
          "type": "uint32"
        },
        {
          "internalType": "uint112",
          "name": "minGCFee",
          "type": "uint112"
        }
      ],
      "name": "registerService",
      "outputs": [],
      "stateMutability": "nonpayable",
      "type": "function"
    },
    {
      "inputs": [
        {
          "internalType": "uint256",
          "name": "sharesAmount",
          "type": "uint256"
        }
      ],
      "name": "removeLiquidity",
      "outputs": [],
      "stateMutability": "nonpayable",
      "type": "function"
    },
    {
      "inputs": [
        {
          "internalType": "uint256",
          "name": "tokenId",
          "type": "uint256"
        }
      ],
      "name": "returnLoan",
      "outputs": [],
      "stateMutability": "nonpayable",
      "type": "function"
    },
    {
      "inputs": [
        {
          "internalType": "contract IPowerToken",
          "name": "powerToken",
          "type": "address"
        },
        {
          "internalType": "uint256",
          "name": "amount",
          "type": "uint256"
        }
      ],
      "name": "unwrap",
      "outputs": [
        {
          "internalType": "bool",
          "name": "",
          "type": "bool"
        }
      ],
      "stateMutability": "nonpayable",
      "type": "function"
    },
    {
      "inputs": [
        {
          "internalType": "contract IPowerToken",
          "name": "powerToken",
          "type": "address"
        },
        {
          "internalType": "uint256",
          "name": "amount",
          "type": "uint256"
        }
      ],
      "name": "wrap",
      "outputs": [
        {
          "internalType": "bool",
          "name": "",
          "type": "bool"
        }
      ],
      "stateMutability": "nonpayable",
      "type": "function"
    },
    {
      "inputs": [
        {
          "internalType": "contract IPowerToken",
          "name": "powerToken",
          "type": "address"
        },
        {
          "internalType": "address",
          "name": "to",
          "type": "address"
        },
        {
          "internalType": "uint256",
          "name": "amount",
          "type": "uint256"
        }
      ],
      "name": "wrapTo",
      "outputs": [
        {
          "internalType": "bool",
          "name": "",
          "type": "bool"
        }
      ],
      "stateMutability": "nonpayable",
      "type": "function"
    }
  ],
  "bytecode": "0x608060405234801561001057600080fd5b50614c09806100206000396000f3fe608060405234801561001057600080fd5b50600436106101775760003560e01c80637ab4339d116100d8578063bf376c7a1161008c578063e36eca0c11610066578063e36eca0c146103e7578063e9126154146103fa578063faaed4ad1461040d57600080fd5b8063bf376c7a146103ae578063c2fe50dd146103c1578063e2b17a16146103d457600080fd5b80639c8f9f23116100bd5780639c8f9f231461037e578063aebb504114610391578063b96266fa1461039957600080fd5b80637ab4339d1461035a5780639b7ae5ec1461036d57600080fd5b80633d4df8971161012f57806351c6590a1161011457806351c6590a1461032757806359bf5d391461033a5780635a9b0b891461034257600080fd5b80633d4df897146102fc578063512a53bc1461031457600080fd5b8063158bf45111610160578063158bf451146102a3578063229304dc146102b857806339f47693146102d957600080fd5b8063041960581461017c5780630714012c146101ac575b600080fd5b61018f61018a366004614595565b610420565b6040516001600160a01b0390911681526020015b60405180910390f35b6102966101ba366004614595565b6040805161010081018252600080825260208201819052918101829052606081018290526080810182905260a0810182905260c0810182905260e08101919091525060009081526005602090815260409182902082516101008101845281546001600160701b038082168352600160701b80830461ffff90811696850196909652600160801b830463ffffffff90811697850197909752600160a01b830487166060850152600160c01b830487166080850152600160e01b90920490951660a083015260019092015493841660c082015292041660e082015290565b6040516101a391906148f2565b6102b66102b1366004614483565b61045e565b005b6102cb6102c6366004614319565b610a16565b6040519081526020016101a3565b6102ec6102e7366004614374565b610ab5565b60405190151581526020016101a3565b610304610c16565b6040516101a39493929190614713565b6102b6610322366004614222565b611037565b6102b6610335366004614595565b61142f565b6001546102cb565b61034a61162a565b6040516101a39493929190614996565b6102b6610368366004614433565b6116d6565b6000546001600160a01b031661018f565b6102b661038c366004614595565b6117c9565b6002546102cb565b6103a16119e4565b6040516101a391906147c6565b6102ec6103bc366004614374565b611a46565b6102b66103cf3660046145c5565b611ab5565b6102b66103e23660046142b2565b612419565b6102cb6103f5366004614282565b613001565b6102b6610408366004614595565b613053565b6102ec61041b36600461429e565b6134d4565b60006007828154811061044357634e487b7160e01b600052603260045260246000fd5b6000918252602090912001546001600160a01b031692915050565b60008054906101000a90046001600160a01b03166001600160a01b0316638da5cb5b6040518163ffffffff1660e01b815260040160206040518083038186803b1580156104aa57600080fd5b505afa1580156104be573d6000803e3d6000fd5b505050506040513d601f19601f820116820180604052508101906104e29190614206565b6001600160a01b0316336001600160a01b0316146105475760405162461bcd60e51b815260206004820181905260248201527f4f776e61626c653a2063616c6c6572206973206e6f7420746865206f776e657260448201526064015b60405180910390fd5b60075461ffff1161059a5760405162461bcd60e51b815260206004820152601d60248201527f43616e6e6f74207265676973746572206d6f7265207365727669636573000000604482015260640161053e565b8163ffffffff168363ffffffff1611156105f65760405162461bcd60e51b815260206004820152601b60248201527f496e76616c6964206d696e20616e64206d617820706572696f64730000000000604482015260640161053e565b60008763ffffffff161161064c5760405162461bcd60e51b815260206004820152601160248201527f496e76616c69642068616c66206c696665000000000000000000000000000000604482015260640161053e565b60008060009054906101000a90046001600160a01b03166001600160a01b031663644e44df6040518163ffffffff1660e01b815260040160206040518083038186803b15801561069b57600080fd5b505afa1580156106af573d6000803e3d6000fd5b505050506040513d601f19601f820116820180604052508101906106d39190614206565b6001600160a01b03166395d89b416040518163ffffffff1660e01b815260040160006040518083038186803b15801561070b57600080fd5b505afa15801561071f573d6000803e3d6000fd5b505050506040513d6000823e601f3d908101601f1916820160405261074791908101906143c0565b90506000818a60405160200161075e9291906146bb565b6040516020818303038152906040529050600061080660008054906101000a90046001600160a01b03166001600160a01b03166383b9a0096040518163ffffffff1660e01b815260040160206040518083038186803b1580156107c057600080fd5b505afa1580156107d4573d6000803e3d6000fd5b505050506040513d601f19601f820116820180604052508101906107f89190614206565b6001600160a01b031661363e565b6040805160e0810182526001600160701b03808d1682528716602082015263ffffffff808e16828401526001600160a01b03808d1660608401528a8216608084015290891660a083015261ffff8b1660c083015260005492517f38ad790100000000000000000000000000000000000000000000000000000000815293945090929116906338ad7901906108a09085908590600401614813565b600060405180830381600087803b1580156108ba57600080fd5b505af11580156108ce573d6000803e3d6000fd5b50505050816001600160a01b031663077f224a8e8560008054906101000a90046001600160a01b03166040518463ffffffff1660e01b8152600401610915939291906148b3565b600060405180830381600087803b15801561092f57600080fd5b505af1158015610943573d6000803e3d6000fd5b5050600780546001810182557fa66cc928b5edb82af9bd49922954155ab7b0942694bea4ce44661d9a8736c6880180546001600160a01b03871673ffffffffffffffffffffffffffffffffffffffff19909116811790915590546000828152600660205260409081902091909155519092507f18706585e986f622c9d914abfb256d563b9ea274cd5d49124e0518aa314b8c1291506109ff908e908e9063ffffffff9290921682526001600160701b0316602082015260400190565b60405180910390a250505050505050505050505050565b6001600160a01b0384166000908152600660205260408120548590610a725760405162461bcd60e51b81526020600482015260126024820152712ab735b737bbb7102837bbb2b92a37b5b2b760711b604482015260640161053e565b6000806000610a83898989896136f9565b9194509250905080610a958385614a1e565b610a9f9190614a1e565b6001600160701b03169998505050505050505050565b6001600160a01b0382166000908152600660205260408120548390610b115760405162461bcd60e51b81526020600482015260126024820152712ab735b737bbb7102837bbb2b92a37b5b2b760711b604482015260640161053e565b836001600160a01b0316638cc7104f60008054906101000a90046001600160a01b03166001600160a01b031663644e44df6040518163ffffffff1660e01b815260040160206040518083038186803b158015610b6c57600080fd5b505afa158015610b80573d6000803e3d6000fd5b505050506040513d601f19601f82011682018060405250810190610ba49190614206565b6040516001600160e01b031960e084901b1681526001600160a01b03909116600482015233602482015260448101869052606401600060405180830381600087803b158015610bf257600080fd5b505af1158015610c06573d6000803e3d6000fd5b50505050600191505b5092915050565b6007546060908190819081908067ffffffffffffffff811115610c4957634e487b7160e01b600052604160045260246000fd5b604051908082528060200260200182016040528015610c72578160200160208202803683370190505b5094508067ffffffffffffffff811115610c9c57634e487b7160e01b600052604160045260246000fd5b604051908082528060200260200182016040528015610ccf57816020015b6060815260200190600190039081610cba5790505b5093508067ffffffffffffffff811115610cf957634e487b7160e01b600052604160045260246000fd5b604051908082528060200260200182016040528015610d2c57816020015b6060815260200190600190039081610d175790505b5092508067ffffffffffffffff811115610d5657634e487b7160e01b600052604160045260246000fd5b604051908082528060200260200182016040528015610d7f578160200160208202803683370190505b50915060005b8181101561102f57600060078281548110610db057634e487b7160e01b600052603260045260246000fd5b9060005260206000200160009054906101000a90046001600160a01b0316905080878381518110610df157634e487b7160e01b600052603260045260246000fd5b60200260200101906001600160a01b031690816001600160a01b031681525050806001600160a01b03166306fdde036040518163ffffffff1660e01b815260040160006040518083038186803b158015610e4a57600080fd5b505afa158015610e5e573d6000803e3d6000fd5b505050506040513d6000823e601f3d908101601f19168201604052610e8691908101906143c0565b868381518110610ea657634e487b7160e01b600052603260045260246000fd5b6020026020010181905250806001600160a01b03166395d89b416040518163ffffffff1660e01b815260040160006040518083038186803b158015610eea57600080fd5b505afa158015610efe573d6000803e3d6000fd5b505050506040513d6000823e601f3d908101601f19168201604052610f2691908101906143c0565b858381518110610f4657634e487b7160e01b600052603260045260246000fd5b60209081029190910101526000546040517f8fcfd8b30000000000000000000000000000000000000000000000000000000081526001600160a01b03838116600483015290911690638fcfd8b39060240160206040518083038186803b158015610faf57600080fd5b505afa158015610fc3573d6000803e3d6000fd5b505050506040513d601f19601f82011682018060405250810190610fe79190614603565b84838151811061100757634e487b7160e01b600052603260045260246000fd5b63ffffffff90921660209283029190910190910152508061102781614b3d565b915050610d85565b505090919293565b60008054906101000a90046001600160a01b03166001600160a01b031663c93d0b926040518163ffffffff1660e01b815260040160206040518083038186803b15801561108357600080fd5b505afa158015611097573d6000803e3d6000fd5b505050506040513d601f19601f820116820180604052508101906110bb9190614206565b6001600160a01b0316336001600160a01b03161461111b5760405162461bcd60e51b815260206004820152600f60248201527f4e6f7420426f72726f77546f6b656e0000000000000000000000000000000000604482015260640161053e565b600081815260056020908152604080832081516101008101835281546001600160701b03808216835261ffff600160701b808404821697850188905263ffffffff600160801b8504811697860197909752600160a01b840487166060860152600160c01b840487166080860152600160e01b90930490951660a084015260019093015492831660c083015290910490911660e082015260078054919392909181106111d657634e487b7160e01b600052603260045260246000fd5b6000918252602090912001546001600160a01b031690508061122c5760405162461bcd60e51b815260206004820152600f60248201526e125b9d985b1a59081d1bdad95b9259608a1b604482015260640161053e565b606082015163ffffffff1642116001600160a01b0386811615908616801590301480156112615761125c87613053565b611424565b81156112db57855160405163079cc67960e41b81526001600160a01b038b811660048301526001600160701b039092166024820152908616906379cc6790906044015b600060405180830381600087803b1580156112be57600080fd5b505af11580156112d2573d6000803e3d6000fd5b50505050611424565b82156113225785516040516340c10f1960e01b81526001600160a01b038a811660048301526001600160701b039092166024820152908616906340c10f19906044016112a4565b836113dc5785516040517f33bebb770000000000000000000000000000000000000000000000000000000081526001600160a01b038b811660048301528a811660248301526001600160701b039092166044820152908616906333bebb7790606401602060405180830381600087803b15801561139e57600080fd5b505af11580156113b2573d6000803e3d6000fd5b505050506040513d601f19601f820116820180604052508101906113d69190614262565b50611424565b60405162461bcd60e51b815260206004820152601460248201527f4e6f7420616c6c6f776564207472616e73666572000000000000000000000000604482015260640161053e565b505050505050505050565b6114ca33308360008054906101000a90046001600160a01b03166001600160a01b031663644e44df6040518163ffffffff1660e01b815260040160206040518083038186803b15801561148157600080fd5b505afa158015611495573d6000803e3d6000fd5b505050506040513d601f19601f820116820180604052508101906114b99190614206565b6001600160a01b0316929190613a38565b80600160008282546114dc9190614a49565b9250508190555080600260008282546114f59190614a49565b909155505060035460009061150b575080611529565b6001548260035461151c9190614aa0565b6115269190614a80565b90505b60008054906101000a90046001600160a01b03166001600160a01b0316630ea1dc9e6040518163ffffffff1660e01b815260040160206040518083038186803b15801561157557600080fd5b505afa158015611589573d6000803e3d6000fd5b505050506040513d601f19601f820116820180604052508101906115ad9190614206565b6040516340c10f1960e01b8152336004820152602481018390526001600160a01b0391909116906340c10f1990604401600060405180830381600087803b1580156115f757600080fd5b505af115801561160b573d6000803e3d6000fd5b5050505080600360008282546116219190614a49565b90915550505050565b60008060006060600154600254600354600480805461164890614b02565b80601f016020809104026020016040519081016040528092919081815260200182805461167490614b02565b80156116c15780601f10611696576101008083540402835291602001916116c1565b820191906000526020600020905b8154815290600101906020018083116116a457829003601f168201915b50505050509050935093509350935090919293565b6000546001600160a01b03161561172f5760405162461bcd60e51b815260206004820152601360248201527f416c726561647920696e697469616c697a656400000000000000000000000000604482015260640161053e565b6001600160a01b0381166117855760405162461bcd60e51b815260206004820152601460248201527f496e76616c696420636f6e666967757261746f72000000000000000000000000604482015260640161053e565b81516117989060049060208501906140f0565b506000805473ffffffffffffffffffffffffffffffffffffffff19166001600160a01b039290921691909117905550565b6000600354826001546117dc9190614aa0565b6117e69190614a80565b905060025481111561183a5760405162461bcd60e51b815260206004820152601660248201527f496e73756666696369656e74206c697175696469747900000000000000000000604482015260640161053e565b60008054906101000a90046001600160a01b03166001600160a01b0316630ea1dc9e6040518163ffffffff1660e01b815260040160206040518083038186803b15801561188657600080fd5b505afa15801561189a573d6000803e3d6000fd5b505050506040513d601f19601f820116820180604052508101906118be9190614206565b60405163079cc67960e41b8152336004820152602481018490526001600160a01b0391909116906379cc679090604401600060405180830381600087803b15801561190857600080fd5b505af115801561191c573d6000803e3d6000fd5b505050506119b9338260008054906101000a90046001600160a01b03166001600160a01b031663644e44df6040518163ffffffff1660e01b815260040160206040518083038186803b15801561197157600080fd5b505afa158015611985573d6000803e3d6000fd5b505050506040513d601f19601f820116820180604052508101906119a99190614206565b6001600160a01b03169190613ac2565b80600160008282546119cb9190614abf565b9250508190555080600260008282546116219190614abf565b60606007805480602002602001604051908101604052809291908181526020018280548015611a3c57602002820191906000526020600020905b81546001600160a01b03168152600190910190602001808311611a1e575b5050505050905090565b6001600160a01b0382166000908152600660205260408120548390611aa25760405162461bcd60e51b81526020600482015260126024820152712ab735b737bbb7102837bbb2b92a37b5b2b760711b604482015260640161053e565b611aad8433856134d4565b949350505050565b600054604051632fb2067f60e01b81526001600160a01b03858116600483015290911690632fb2067f9060240160206040518083038186803b158015611afa57600080fd5b505afa158015611b0e573d6000803e3d6000fd5b505050506040513d601f19601f82011682018060405250810190611b329190614262565b611ba45760405162461bcd60e51b815260206004820152603360248201527f496e746572657374207061796d656e7420746f6b656e2069732064697361626c60448201527f6564206f72206e6f7420737570706f7274656400000000000000000000000000606482015260840161053e565b60008481526005602052604081208054600780549293929091600160701b900461ffff16908110611be557634e487b7160e01b600052603260045260246000fd5b6000918252602090912001546001600160a01b0316905080611c3b5760405162461bcd60e51b815260206004820152600f60248201526e125b9d985b1a59081d1bdad95b9259608a1b604482015260640161053e565b60005460405163a0cffa5960e01b81526001600160a01b03838116600483015263ffffffff861660248301529091169063a0cffa599060440160206040518083038186803b158015611c8c57600080fd5b505afa158015611ca0573d6000803e3d6000fd5b505050506040513d601f19601f82011682018060405250810190611cc49190614262565b611d105760405162461bcd60e51b815260206004820152601760248201527f4475726174696f6e206973206e6f7420616c6c6f776564000000000000000000604482015260640161053e565b81544290611d2c908590600160a01b900463ffffffff16614a61565b63ffffffff161015611d805760405162461bcd60e51b815260206004820152601060248201527f496e76616c6964206475726174696f6e00000000000000000000000000000000604482015260640161053e565b81546000908190611d9e90849089906001600160701b0316886136f9565b5090925090506000611db08284614a1e565b6001600160701b0316905086811115611e0b5760405162461bcd60e51b815260206004820152601360248201527f536c69707061676520697320746f6f2062696700000000000000000000000000604482015260640161053e565b611e206001600160a01b038916333084613a38565b60008060009054906101000a90046001600160a01b03166001600160a01b031663644e44df6040518163ffffffff1660e01b815260040160206040518083038186803b158015611e6f57600080fd5b505afa158015611e83573d6000803e3d6000fd5b505050506040513d601f19601f82011682018060405250810190611ea79190614206565b905060008060009054906101000a90046001600160a01b03166001600160a01b0316632261b07f6040518163ffffffff1660e01b815260040160206040518083038186803b158015611ef857600080fd5b505afa158015611f0c573d6000803e3d6000fd5b505050506040513d601f19601f82011682018060405250810190611f309190614206565b60405163029b465d60e01b81526001600160a01b038c81166004830152602482018690528481166044830152919091169063029b465d90606401602060405180830381600087803b158015611f8457600080fd5b505af1158015611f98573d6000803e3d6000fd5b505050506040513d601f19601f82011682018060405250810190611fbc91906145ad565b9050600083611fd4836001600160701b038816614aa0565b611fde9190614a80565b905061207860008054906101000a90046001600160a01b03166001600160a01b0316637791c42d6040518163ffffffff1660e01b815260040160206040518083038186803b15801561202f57600080fd5b505afa158015612043573d6000803e3d6000fd5b505050506040513d601f19601f820116820180604052508101906120679190614206565b6001600160a01b0385169083613ac2565b60006120848284614abf565b905080600260008282546120989190614a49565b9250508190555080600160008282546120b19190614a49565b90915550508854600160a01b900463ffffffff166120cf8b82614a61565b8a5463ffffffff91909116600160a01b0263ffffffff60a01b19909116178a55600054604080517f8188d50d00000000000000000000000000000000000000000000000000000000815290516001600160a01b0390921691638188d50d91600480820192602092909190829003018186803b15801561214d57600080fd5b505afa158015612161573d6000803e3d6000fd5b505050506040513d601f19601f820116820180604052508101906121859190614603565b8a5461219e9190600160a01b900463ffffffff16614a61565b8a5463ffffffff91909116600160c01b027fffffffff00000000ffffffffffffffffffffffffffffffffffffffffffffffff909116178a55600054604080517fa0efd11800000000000000000000000000000000000000000000000000000000815290516001600160a01b039092169163a0efd11891600480820192602092909190829003018186803b15801561223457600080fd5b505afa158015612248573d6000803e3d6000fd5b505050506040513d601f19601f8201168201806040525081019061226c9190614603565b8a546122859190600160a01b900463ffffffff16614a61565b8a5463ffffffff91909116600160e01b026001600160e01b03909116178a55600054604080517ffec0dea000000000000000000000000000000000000000000000000000000000815290516001600160a01b039092169163fec0dea091600480820192602092909190829003018186803b15801561230257600080fd5b505afa158015612316573d6000803e3d6000fd5b505050506040513d601f19601f8201168201806040525081019061233a9190614206565b6001600160a01b031663f8642f298f6040518263ffffffff1660e01b815260040161236791815260200190565b600060405180830381600087803b15801561238157600080fd5b505af1158015612395573d6000803e3d6000fd5b50505050886001600160a01b03167f9853650269815e203c5c9e228db9ca05cc6037f2c2723c94ed3260cf98324c998f838d60000160149054906101000a900463ffffffff166040516124019392919092835263ffffffff918216602084015216604082015260600190565b60405180910390a25050505050505050505050505050565b6001600160a01b03851660009081526006602052604090205485906124755760405162461bcd60e51b81526020600482015260126024820152712ab735b737bbb7102837bbb2b92a37b5b2b760711b604482015260640161053e565b600054604051632fb2067f60e01b81526001600160a01b03878116600483015290911690632fb2067f9060240160206040518083038186803b1580156124ba57600080fd5b505afa1580156124ce573d6000803e3d6000fd5b505050506040513d601f19601f820116820180604052508101906124f29190614262565b6125645760405162461bcd60e51b815260206004820152603360248201527f496e746572657374207061796d656e7420746f6b656e2069732064697361626c60448201527f6564206f72206e6f7420737570706f7274656400000000000000000000000000606482015260840161053e565b60005460405163a0cffa5960e01b81526001600160a01b03888116600483015263ffffffff851660248301529091169063a0cffa599060440160206040518083038186803b1580156125b557600080fd5b505afa1580156125c9573d6000803e3d6000fd5b505050506040513d601f19601f820116820180604052508101906125ed9190614262565b6126395760405162461bcd60e51b815260206004820152601760248201527f4475726174696f6e206973206e6f7420616c6c6f776564000000000000000000604482015260640161053e565b600254846001600160701b031611156126945760405162461bcd60e51b815260206004820152601560248201527f496e73756666696369656e742072657365727665730000000000000000000000604482015260640161053e565b6000806000806126a68a8a8a896136f9565b9550909350915083905060006126bc8385614a1e565b6001600160701b0316905087856001600160701b0316826126dd9190614a49565b111561272b5760405162461bcd60e51b815260206004820152601360248201527f536c69707061676520697320746f6f2062696700000000000000000000000000604482015260640161053e565b6127406001600160a01b038b16333084613a38565b60008060009054906101000a90046001600160a01b03166001600160a01b031663644e44df6040518163ffffffff1660e01b815260040160206040518083038186803b15801561278f57600080fd5b505afa1580156127a3573d6000803e3d6000fd5b505050506040513d601f19601f820116820180604052508101906127c79190614206565b905060008060009054906101000a90046001600160a01b03166001600160a01b0316632261b07f6040518163ffffffff1660e01b815260040160206040518083038186803b15801561281857600080fd5b505afa15801561282c573d6000803e3d6000fd5b505050506040513d601f19601f820116820180604052508101906128509190614206565b60405163029b465d60e01b81526001600160a01b038e81166004830152602482018690528481166044830152919091169063029b465d90606401602060405180830381600087803b1580156128a457600080fd5b505af11580156128b8573d6000803e3d6000fd5b505050506040513d601f19601f820116820180604052508101906128dc91906145ad565b90506000836128f4836001600160701b038916614aa0565b6128fe9190614a80565b905061294f60008054906101000a90046001600160a01b03166001600160a01b0316637791c42d6040518163ffffffff1660e01b815260040160206040518083038186803b15801561202f57600080fd5b600061295b8284614abf565b9050808d6001600160701b03166002546129759190614abf565b61297f9190614a49565b60028190555080600160008282546129979190614a49565b92505081905550505050505050505060008060009054906101000a90046001600160a01b03166001600160a01b031663c93d0b926040518163ffffffff1660e01b815260040160206040518083038186803b1580156129f557600080fd5b505afa158015612a09573d6000803e3d6000fd5b505050506040513d601f19601f82011682018060405250810190612a2d9190614206565b9050612a4d6001600160a01b03881633836001600160701b038616613a38565b426000612a5a8683614a61565b90506000836001600160a01b0316638ada066e6040518163ffffffff1660e01b8152600401602060405180830381600087803b158015612a9957600080fd5b505af1158015612aad573d6000803e3d6000fd5b505050506040513d601f19601f82011682018060405250810190612ad191906145ad565b90506040518061010001604052808a6001600160701b031681526020016001600660008f6001600160a01b03166001600160a01b0316815260200190815260200160002054612b209190614abf565b61ffff1681526020018463ffffffff1681526020018363ffffffff16815260200160008054906101000a90046001600160a01b03166001600160a01b0316638188d50d6040518163ffffffff1660e01b815260040160206040518083038186803b158015612b8d57600080fd5b505afa158015612ba1573d6000803e3d6000fd5b505050506040513d601f19601f82011682018060405250810190612bc59190614603565b612bcf9085614a61565b63ffffffff16815260200160008054906101000a90046001600160a01b03166001600160a01b031663a0efd1186040518163ffffffff1660e01b815260040160206040518083038186803b158015612c2657600080fd5b505afa158015612c3a573d6000803e3d6000fd5b505050506040513d601f19601f82011682018060405250810190612c5e9190614603565b612c689085614a61565b63ffffffff1681526001600160701b0387166020820152600054604080517f27623ddd0000000000000000000000000000000000000000000000000000000081526001600160a01b038f8116600483015291909301929116906327623ddd9060240160206040518083038186803b158015612ce257600080fd5b505afa158015612cf6573d6000803e3d6000fd5b505050506040513d601f19601f82011682018060405250810190612d1a919061439f565b61ffff9081169091526000838152600560209081526040918290208451815486840151878601516060808a015160808b015160a08c01516001600160701b039788166fffffffffffffffffffffffffffffffff1997881617600160701b968d168702177fffffffffffffffff0000000000000000ffffffffffffffffffffffffffffffff16600160801b63ffffffff9687160263ffffffff60a01b191617600160a01b938616939093029290921777ffffffffffffffffffffffffffffffffffffffffffffffff16600160c01b918516919091026001600160e01b031617600160e01b9184169190910217865560c08a01516001909601805460e0909b015196909516999093169890981793909616909502919091179055815185815287851691810191909152928516908301526001600160a01b038d16917f9853650269815e203c5c9e228db9ca05cc6037f2c2723c94ed3260cf98324c99910160405180910390a260008054906101000a90046001600160a01b03166001600160a01b031663fec0dea06040518163ffffffff1660e01b815260040160206040518083038186803b158015612eca57600080fd5b505afa158015612ede573d6000803e3d6000fd5b505050506040513d601f19601f82011682018060405250810190612f029190614206565b6001600160a01b031663f8642f29826040518263ffffffff1660e01b8152600401612f2f91815260200190565b600060405180830381600087803b158015612f4957600080fd5b505af1158015612f5d573d6000803e3d6000fd5b50506040517f6a6278420000000000000000000000000000000000000000000000000000000081523360048201526001600160a01b0387169250636a6278429150602401602060405180830381600087803b158015612fbb57600080fd5b505af1158015612fcf573d6000803e3d6000fd5b505050506040513d601f19601f82011682018060405250810190612ff391906145ad565b505050505050505050505050565b6001600160a01b03811660009081526006602052604081205415613049576001600160a01b03821660009081526006602052604090205461304490600190614abf565b61304d565b6000195b92915050565b60008181526005602052604081208054600780549293929091600160701b900461ffff1690811061309457634e487b7160e01b600052603260045260246000fd5b6000918252602090912001546001600160a01b03169050806130ea5760405162461bcd60e51b815260206004820152600f60248201526e125b9d985b1a59081d1bdad95b9259608a1b604482015260640161053e565b60008060009054906101000a90046001600160a01b03166001600160a01b031663c93d0b926040518163ffffffff1660e01b815260040160206040518083038186803b15801561313957600080fd5b505afa15801561314d573d6000803e3d6000fd5b505050506040513d601f19601f820116820180604052508101906131719190614206565b6040517f6352211e000000000000000000000000000000000000000000000000000000008152600481018690529091506000906001600160a01b03831690636352211e9060240160206040518083038186803b1580156131d057600080fd5b505afa1580156131e4573d6000803e3d6000fd5b505050506040513d601f19601f820116820180604052508101906132089190614206565b8454909150429063ffffffff808316600160c01b9092041610806132345750336001600160a01b038316145b6132a65760405162461bcd60e51b815260206004820152603560248201527f4f6e6c7920626f72726f7765722063616e2072657475726e2077697468696e2060448201527f626f72726f77657220677261636520706572696f640000000000000000000000606482015260840161053e565b845463ffffffff808316600160e01b9092041610806132cd5750336001600160a01b038316145b8061336c575060008054906101000a90046001600160a01b03166001600160a01b031663a554b26d6040518163ffffffff1660e01b815260040160206040518083038186803b15801561331f57600080fd5b505afa158015613333573d6000803e3d6000fd5b505050506040513d601f19601f820116820180604052508101906133579190614206565b6001600160a01b0316336001600160a01b0316145b6134045760405162461bcd60e51b815260206004820152604560248201527f4f6e6c7920626f72726f776572206f7220656e74657270726973652063616e2060448201527f72657475726e2077697468696e20656e7465727072697365206772616365207060648201527f6572696f64000000000000000000000000000000000000000000000000000000608482015260a40161053e565b8454600280546001600160701b0390921691600090613424908490614a49565b90915550506040517ffcd3533c000000000000000000000000000000000000000000000000000000008152600481018790523360248201526001600160a01b0384169063fcd3533c90604401600060405180830381600087803b15801561348a57600080fd5b505af115801561349e573d6000803e3d6000fd5b505050600096875250506005602052505060408320928355505060010180546fffffffffffffffffffffffffffffffff19169055565b6001600160a01b03831660009081526006602052604081205484906135305760405162461bcd60e51b81526020600482015260126024820152712ab735b737bbb7102837bbb2b92a37b5b2b760711b604482015260640161053e565b846001600160a01b031663a1571a5760008054906101000a90046001600160a01b03166001600160a01b031663644e44df6040518163ffffffff1660e01b815260040160206040518083038186803b15801561358b57600080fd5b505afa15801561359f573d6000803e3d6000fd5b505050506040513d601f19601f820116820180604052508101906135c39190614206565b6040516001600160e01b031960e084901b1681526001600160a01b039182166004820152336024820152908716604482015260648101869052608401600060405180830381600087803b15801561361957600080fd5b505af115801561362d573d6000803e3d6000fd5b50505050600191505b509392505050565b60006040517f3d602d80600a3d3981f3363d3d373d3d3d363d7300000000000000000000000081528260601b60148201527f5af43d82803e903d91602b57fd5bf3000000000000000000000000000000000060288201526037816000f09150506001600160a01b0381166136f45760405162461bcd60e51b815260206004820152601660248201527f455243313136373a20637265617465206661696c656400000000000000000000604482015260640161053e565b919050565b60008060008060008054906101000a90046001600160a01b03166001600160a01b031663fec0dea06040518163ffffffff1660e01b815260040160206040518083038186803b15801561374b57600080fd5b505afa15801561375f573d6000803e3d6000fd5b505050506040513d601f19601f820116820180604052508101906137839190614206565b6040517f19065df40000000000000000000000000000000000000000000000000000000081526001600160a01b038a811660048301526001600160701b038916602483015263ffffffff8816604483015291909116906319065df49060640160206040518083038186803b1580156137fa57600080fd5b505afa15801561380e573d6000803e3d6000fd5b505050506040513d601f19601f82011682018060405250810190613832919061455d565b905060006138408983613b10565b905060008060009054906101000a90046001600160a01b03166001600160a01b0316632261b07f6040518163ffffffff1660e01b815260040160206040518083038186803b15801561389157600080fd5b505afa1580156138a5573d6000803e3d6000fd5b505050506040513d601f19601f820116820180604052508101906138c99190614206565b600054604051630c10fd0f60e01b81526001600160a01b038d81166004830152928316926329fb92ce921690630c10fd0f9060240160206040518083038186803b15801561391657600080fd5b505afa15801561392a573d6000803e3d6000fd5b505050506040513d601f19601f8201168201806040525081019061394e9190614206565b6040516001600160e01b031960e084901b1681526001600160a01b0391821660048201526001600160701b0387166024820152908c16604482015260640160206040518083038186803b1580156139a457600080fd5b505afa1580156139b8573d6000803e3d6000fd5b505050506040513d601f19601f820116820180604052508101906139dc91906145ad565b9050826001600160701b031681836001600160701b03166139fd9190614aa0565b613a079190614a80565b9450613a1c6001600160701b03861682614abf565b9550613a298a8a8a613bd7565b93505050509450945094915050565b6040516001600160a01b0380851660248301528316604482015260648101829052613abc9085907f23b872dd00000000000000000000000000000000000000000000000000000000906084015b60408051601f198184030181529190526020810180516001600160e01b03166001600160e01b031990931692909217909152613f00565b50505050565b6040516001600160a01b038316602482015260448101829052613b0b9084907fa9059cbb0000000000000000000000000000000000000000000000000000000090606401613a85565b505050565b600080546040517f2b39a0ac0000000000000000000000000000000000000000000000000000000081526001600160a01b038581166004830152612710921690632b39a0ac9060240160206040518083038186803b158015613b7157600080fd5b505afa158015613b85573d6000803e3d6000fd5b505050506040513d601f19601f82011682018060405250810190613ba9919061455d565b6001600160701b0316836001600160701b0316613bc69190614aa0565b613bd09190614a80565b9392505050565b60008054604080517fb406bf6d000000000000000000000000000000000000000000000000000000008152905183926001600160a01b03169163b406bf6d916004808301926020929190829003018186803b158015613c3557600080fd5b505afa158015613c49573d6000803e3d6000fd5b505050506040513d601f19601f82011682018060405250810190613c6d9190614579565b90506000612710613c8b61ffff84166001600160701b038716614aa0565b613c959190614a80565b905060008060009054906101000a90046001600160a01b03166001600160a01b0316632261b07f6040518163ffffffff1660e01b815260040160206040518083038186803b158015613ce657600080fd5b505afa158015613cfa573d6000803e3d6000fd5b505050506040513d601f19601f82011682018060405250810190613d1e9190614206565b60008054604051630c10fd0f60e01b81526001600160a01b038b811660048301529394509192808516926329fb92ce929190911690630c10fd0f9060240160206040518083038186803b158015613d7457600080fd5b505afa158015613d88573d6000803e3d6000fd5b505050506040513d601f19601f82011682018060405250810190613dac9190614206565b6000546040517f854bb4a20000000000000000000000000000000000000000000000000000000081526001600160a01b038d811660048301529091169063854bb4a29060240160206040518083038186803b158015613e0a57600080fd5b505afa158015613e1e573d6000803e3d6000fd5b505050506040513d601f19601f82011682018060405250810190613e42919061455d565b6040516001600160e01b031960e085901b1681526001600160a01b0392831660048201526001600160701b039091166024820152908a16604482015260640160206040518083038186803b158015613e9957600080fd5b505afa158015613ead573d6000803e3d6000fd5b505050506040513d601f19601f82011682018060405250810190613ed191906145ad565b9050806001600160701b0316836001600160701b031610613ef25782613ef4565b805b98975050505050505050565b6000613f55826040518060400160405280602081526020017f5361666545524332303a206c6f772d6c6576656c2063616c6c206661696c6564815250856001600160a01b0316613fe59092919063ffffffff16565b805190915015613b0b5780806020019051810190613f739190614262565b613b0b5760405162461bcd60e51b815260206004820152602a60248201527f5361666545524332303a204552433230206f7065726174696f6e20646964206e60448201527f6f74207375636365656400000000000000000000000000000000000000000000606482015260840161053e565b6060611aad848460008585843b61403e5760405162461bcd60e51b815260206004820152601d60248201527f416464726573733a2063616c6c20746f206e6f6e2d636f6e7472616374000000604482015260640161053e565b600080866001600160a01b0316858760405161405a919061469f565b60006040518083038185875af1925050503d8060008114614097576040519150601f19603f3d011682016040523d82523d6000602084013e61409c565b606091505b50915091506140ac8282866140b7565b979650505050505050565b606083156140c6575081613bd0565b8251156140d65782518084602001fd5b8160405162461bcd60e51b815260040161053e91906148a0565b8280546140fc90614b02565b90600052602060002090601f01602090048101928261411e5760008555614164565b82601f1061413757805160ff1916838001178555614164565b82800160010185558215614164579182015b82811115614164578251825591602001919060010190614149565b50614170929150614174565b5090565b5b808211156141705760008155600101614175565b80356136f481614b84565b600082601f8301126141a4578081fd5b81356141b76141b2826149f6565b6149c5565b8181528460208386010111156141cb578283fd5b816020850160208301379081016020019190915292915050565b80356136f481614b9c565b80356136f481614bb1565b80356136f481614bc1565b600060208284031215614217578081fd5b8151613bd081614b84565b600080600060608486031215614236578182fd5b833561424181614b84565b9250602084013561425181614b84565b929592945050506040919091013590565b600060208284031215614273578081fd5b81518015158114613bd0578182fd5b600060208284031215614293578081fd5b8135613bd081614b84565b600080600060608486031215614236578081fd5b600080600080600060a086880312156142c9578283fd5b85356142d481614b84565b945060208601356142e481614b84565b935060408601356142f481614b9c565b925060608601359150608086013561430b81614bc1565b809150509295509295909350565b6000806000806080858703121561432e578182fd5b843561433981614b84565b9350602085013561434981614b84565b9250604085013561435981614b9c565b9150606085013561436981614bc1565b939692955090935050565b60008060408385031215614386578182fd5b823561439181614b84565b946020939093013593505050565b6000602082840312156143b0578081fd5b81518060010b8114613bd0578182fd5b6000602082840312156143d1578081fd5b815167ffffffffffffffff8111156143e7578182fd5b8201601f810184136143f7578182fd5b80516144056141b2826149f6565b818152856020838501011115614419578384fd5b61442a826020830160208601614ad6565b95945050505050565b60008060408385031215614445578182fd5b823567ffffffffffffffff81111561445b578283fd5b61446785828601614194565b925050602083013561447881614b84565b809150509250929050565b60008060008060008060008060006101208a8c0312156144a1578687fd5b893567ffffffffffffffff808211156144b8578889fd5b6144c48d838e01614194565b9a5060208c01359150808211156144d9578889fd5b506144e68c828d01614194565b98505060408a01356144f781614bc1565b965060608a013561450781614b9c565b955061451560808b01614189565b945061452360a08b016141f0565b935061453160c08b016141fb565b925061453f60e08b016141fb565b915061454e6101008b016141e5565b90509295985092959850929598565b60006020828403121561456e578081fd5b8151613bd081614b9c565b60006020828403121561458a578081fd5b8151613bd081614bb1565b6000602082840312156145a6578081fd5b5035919050565b6000602082840312156145be578081fd5b5051919050565b600080600080608085870312156145da578182fd5b8435935060208501356145ec81614b84565b925060408501359150606085013561436981614bc1565b600060208284031215614614578081fd5b8151613bd081614bc1565b600081518084526020808501808196508360051b81019150828601855b85811015614666578284038952614654848351614673565b9885019893509084019060010161463c565b5091979650505050505050565b6000815180845261468b816020860160208601614ad6565b601f01601f19169290920160200192915050565b600082516146b1818460208701614ad6565b9190910192915050565b600083516146cd818460208801614ad6565b7f20000000000000000000000000000000000000000000000000000000000000009083019081528351614707816001840160208801614ad6565b01600101949350505050565b6080808252855190820181905260009060209060a0840190828901845b828110156147555781516001600160a01b031684529284019290840190600101614730565b50505083810382850152614769818861461f565b9050838103604085015261477d818761461f565b84810360608601528551808252838701925090830190845b818110156147b757835163ffffffff1683529284019291840191600101614795565b50909998505050505050505050565b6020808252825182820181905260009190848201906040850190845b818110156148075783516001600160a01b0316835292840192918401916001016147e2565b50909695505050505050565b6000610100820190506001600160a01b0380851683526001600160701b0380855116602085015280602086015116604085015250604084015163ffffffff80821660608601528260608701511660808601528060808701511660a086015250505060a083015161488b60c084018263ffffffff169052565b5060c083015161ffff811660e0840152613636565b602081526000613bd06020830184614673565b6060815260006148c66060830186614673565b82810360208401526148d88186614673565b9150506001600160a01b0383166040830152949350505050565b6000610100820190506001600160701b03835116825261ffff6020840151166020830152604083015163ffffffff80821660408501528060608601511660608501525050608083015161494d608084018263ffffffff169052565b5060a083015161496560a084018263ffffffff169052565b5060c083015161498060c08401826001600160701b03169052565b5060e0830151610c0f60e084018261ffff169052565b8481528360208201528260408201526080606082015260006149bb6080830184614673565b9695505050505050565b604051601f8201601f1916810167ffffffffffffffff811182821017156149ee576149ee614b6e565b604052919050565b600067ffffffffffffffff821115614a1057614a10614b6e565b50601f01601f191660200190565b60006001600160701b03808316818516808303821115614a4057614a40614b58565b01949350505050565b60008219821115614a5c57614a5c614b58565b500190565b600063ffffffff808316818516808303821115614a4057614a40614b58565b600082614a9b57634e487b7160e01b81526012600452602481fd5b500490565b6000816000190483118215151615614aba57614aba614b58565b500290565b600082821015614ad157614ad1614b58565b500390565b60005b83811015614af1578181015183820152602001614ad9565b83811115613abc5750506000910152565b600181811c90821680614b1657607f821691505b60208210811415614b3757634e487b7160e01b600052602260045260246000fd5b50919050565b6000600019821415614b5157614b51614b58565b5060010190565b634e487b7160e01b600052601160045260246000fd5b634e487b7160e01b600052604160045260246000fd5b6001600160a01b0381168114614b9957600080fd5b50565b6001600160701b0381168114614b9957600080fd5b61ffff81168114614b9957600080fd5b63ffffffff81168114614b9957600080fdfea264697066735822122065a3c034c6341a5e342d82365d1f40efc9c96f6cb7f21f98e378c620ae3c318c64736f6c63430008040033",
  "linkReferences": {},
  "deployedLinkReferences": {}
}