{
  "_format": "hh-sol-artifact-1",
  "contractName": "Enterprise",
  "sourceName": "contracts/Enterprise.sol",
  "abi": [
    {
      "anonymous": false,
      "inputs": [
        {
          "indexed": true,
          "internalType": "address",
          "name": "powerToken",
          "type": "address"
        },
        {
          "indexed": false,
          "internalType": "uint256",
          "name": "tokenId",
          "type": "uint256"
        },
        {
          "indexed": false,
          "internalType": "uint32",
          "name": "from",
          "type": "uint32"
        },
        {
          "indexed": false,
          "internalType": "uint32",
          "name": "to",
          "type": "uint32"
        }
      ],
      "name": "Borrowed",
      "type": "event"
    },
    {
      "anonymous": false,
      "inputs": [
        {
          "indexed": true,
          "internalType": "address",
          "name": "powerToken",
          "type": "address"
        },
        {
          "indexed": false,
          "internalType": "uint32",
          "name": "halfLife",
          "type": "uint32"
        },
        {
          "indexed": false,
          "internalType": "uint112",
          "name": "factor",
          "type": "uint112"
        }
      ],
      "name": "ServiceRegistered",
      "type": "event"
    },
    {
      "inputs": [
        {
          "internalType": "uint256",
          "name": "liquidityAmount",
          "type": "uint256"
        }
      ],
      "name": "addLiquidity",
      "outputs": [],
      "stateMutability": "nonpayable",
      "type": "function"
    },
    {
      "inputs": [
        {
          "internalType": "contract IPowerToken",
          "name": "powerToken",
          "type": "address"
        },
        {
          "internalType": "contract IERC20",
          "name": "paymentToken",
          "type": "address"
        },
        {
          "internalType": "uint112",
          "name": "amount",
          "type": "uint112"
        },
        {
          "internalType": "uint256",
          "name": "maximumPayment",
          "type": "uint256"
        },
        {
          "internalType": "uint32",
          "name": "duration",
          "type": "uint32"
        }
      ],
      "name": "borrow",
      "outputs": [],
      "stateMutability": "nonpayable",
      "type": "function"
    },
    {
      "inputs": [
        {
          "internalType": "contract IPowerToken",
          "name": "powerToken",
          "type": "address"
        },
        {
          "internalType": "contract IERC20",
          "name": "paymentToken",
          "type": "address"
        },
        {
          "internalType": "uint112",
          "name": "amount",
          "type": "uint112"
        },
        {
          "internalType": "uint32",
          "name": "duration",
          "type": "uint32"
        }
      ],
      "name": "estimateLoan",
      "outputs": [
        {
          "internalType": "uint112",
          "name": "interest",
          "type": "uint112"
        },
        {
          "internalType": "uint112",
          "name": "lien",
          "type": "uint112"
        },
        {
          "internalType": "uint112",
          "name": "enterpriseFee",
          "type": "uint112"
        }
      ],
      "stateMutability": "view",
      "type": "function"
    },
    {
      "inputs": [],
      "name": "getAvailableReserve",
      "outputs": [
        {
          "internalType": "uint256",
          "name": "",
          "type": "uint256"
        }
      ],
      "stateMutability": "view",
      "type": "function"
    },
    {
      "inputs": [],
      "name": "getConfigurator",
      "outputs": [
        {
          "internalType": "contract EnterpriseConfigurator",
          "name": "",
          "type": "address"
        }
      ],
      "stateMutability": "view",
      "type": "function"
    },
    {
      "inputs": [],
      "name": "getInfo",
      "outputs": [
        {
          "internalType": "uint256",
          "name": "reserve",
          "type": "uint256"
        },
        {
          "internalType": "uint256",
          "name": "availableReserve",
          "type": "uint256"
        },
        {
          "internalType": "uint256",
          "name": "totalShares",
          "type": "uint256"
        },
        {
          "internalType": "string",
          "name": "name",
          "type": "string"
        }
      ],
      "stateMutability": "view",
      "type": "function"
    },
    {
      "inputs": [
        {
          "internalType": "uint256",
          "name": "tokenId",
          "type": "uint256"
        }
      ],
      "name": "getLoanInfo",
      "outputs": [
        {
          "components": [
            {
              "internalType": "uint112",
              "name": "amount",
              "type": "uint112"
            },
            {
              "internalType": "uint16",
              "name": "powerTokenIndex",
              "type": "uint16"
            },
            {
              "internalType": "uint32",
              "name": "borrowingTime",
              "type": "uint32"
            },
            {
              "internalType": "uint32",
              "name": "maturityTime",
              "type": "uint32"
            },
            {
              "internalType": "uint32",
              "name": "borrowerReturnGraceTime",
              "type": "uint32"
            },
            {
              "internalType": "uint32",
              "name": "enterpriseCollectGraceTime",
              "type": "uint32"
            },
            {
              "internalType": "uint112",
              "name": "lien",
              "type": "uint112"
            },
            {
              "internalType": "uint16",
              "name": "lienTokenIndex",
              "type": "uint16"
            }
          ],
          "internalType": "struct IEnterprise.LoanInfo",
          "name": "",
          "type": "tuple"
        }
      ],
      "stateMutability": "view",
      "type": "function"
    },
    {
      "inputs": [
        {
          "internalType": "uint256",
          "name": "index",
          "type": "uint256"
        }
      ],
      "name": "getPowerToken",
      "outputs": [
        {
          "internalType": "contract IPowerToken",
          "name": "",
          "type": "address"
        }
      ],
      "stateMutability": "view",
      "type": "function"
    },
    {
      "inputs": [
        {
          "internalType": "contract IPowerToken",
          "name": "powerToken",
          "type": "address"
        }
      ],
      "name": "getPowerTokenIndex",
      "outputs": [
        {
          "internalType": "int256",
          "name": "",
          "type": "int256"
        }
      ],
      "stateMutability": "view",
      "type": "function"
    },
    {
      "inputs": [],
      "name": "getPowerTokens",
      "outputs": [
        {
          "internalType": "contract IPowerToken[]",
          "name": "",
          "type": "address[]"
        }
      ],
      "stateMutability": "view",
      "type": "function"
    },
    {
      "inputs": [],
      "name": "getPowerTokensInfo",
      "outputs": [
        {
          "internalType": "address[]",
          "name": "addresses",
          "type": "address[]"
        },
        {
          "internalType": "string[]",
          "name": "names",
          "type": "string[]"
        },
        {
          "internalType": "string[]",
          "name": "symbols",
          "type": "string[]"
        },
        {
          "internalType": "uint32[]",
          "name": "halfLifes",
          "type": "uint32[]"
        }
      ],
      "stateMutability": "view",
      "type": "function"
    },
    {
      "inputs": [],
      "name": "getReserve",
      "outputs": [
        {
          "internalType": "uint256",
          "name": "",
          "type": "uint256"
        }
      ],
      "stateMutability": "view",
      "type": "function"
    },
    {
      "inputs": [
        {
          "internalType": "string",
          "name": "enterpriseName",
          "type": "string"
        },
        {
          "internalType": "contract EnterpriseConfigurator",
          "name": "configurator",
          "type": "address"
        }
      ],
      "name": "initialize",
      "outputs": [],
      "stateMutability": "nonpayable",
      "type": "function"
    },
    {
      "inputs": [
        {
          "internalType": "address",
          "name": "from",
          "type": "address"
        },
        {
          "internalType": "address",
          "name": "to",
          "type": "address"
        },
        {
          "internalType": "uint256",
          "name": "tokenId",
          "type": "uint256"
        }
      ],
      "name": "loanTransfer",
      "outputs": [],
      "stateMutability": "nonpayable",
      "type": "function"
    },
    {
      "inputs": [
        {
          "internalType": "uint256",
          "name": "tokenId",
          "type": "uint256"
        },
        {
          "internalType": "contract IERC20",
          "name": "paymentToken",
          "type": "address"
        },
        {
          "internalType": "uint256",
          "name": "maximumPayment",
          "type": "uint256"
        },
        {
          "internalType": "uint32",
          "name": "duration",
          "type": "uint32"
        }
      ],
      "name": "reborrow",
      "outputs": [],
      "stateMutability": "nonpayable",
      "type": "function"
    },
    {
      "inputs": [
        {
          "internalType": "string",
          "name": "serviceName",
          "type": "string"
        },
        {
          "internalType": "string",
          "name": "symbol",
          "type": "string"
        },
        {
          "internalType": "uint32",
          "name": "halfLife",
          "type": "uint32"
        },
        {
          "internalType": "uint112",
          "name": "factor",
          "type": "uint112"
        },
        {
          "internalType": "contract IERC20",
          "name": "factorToken",
          "type": "address"
        },
        {
          "internalType": "uint16",
          "name": "serviceFee",
          "type": "uint16"
        },
        {
          "internalType": "uint32",
          "name": "minLoanDuration",
          "type": "uint32"
        },
        {
          "internalType": "uint32",
          "name": "maxLoanDuration",
          "type": "uint32"
        }
      ],
      "name": "registerService",
      "outputs": [],
      "stateMutability": "nonpayable",
      "type": "function"
    },
    {
      "inputs": [
        {
          "internalType": "uint256",
          "name": "sharesAmount",
          "type": "uint256"
        }
      ],
      "name": "removeLiquidity",
      "outputs": [],
      "stateMutability": "nonpayable",
      "type": "function"
    },
    {
      "inputs": [
        {
          "internalType": "uint256",
          "name": "tokenId",
          "type": "uint256"
        }
      ],
      "name": "returnLoan",
      "outputs": [],
      "stateMutability": "nonpayable",
      "type": "function"
    },
    {
      "inputs": [
        {
          "internalType": "contract IPowerToken",
          "name": "powerToken",
          "type": "address"
        },
        {
          "internalType": "uint256",
          "name": "amount",
          "type": "uint256"
        }
      ],
      "name": "unwrap",
      "outputs": [
        {
          "internalType": "bool",
          "name": "",
          "type": "bool"
        }
      ],
      "stateMutability": "nonpayable",
      "type": "function"
    },
    {
      "inputs": [
        {
          "internalType": "contract IPowerToken",
          "name": "powerToken",
          "type": "address"
        },
        {
          "internalType": "uint256",
          "name": "amount",
          "type": "uint256"
        }
      ],
      "name": "wrap",
      "outputs": [
        {
          "internalType": "bool",
          "name": "",
          "type": "bool"
        }
      ],
      "stateMutability": "nonpayable",
      "type": "function"
    },
    {
      "inputs": [
        {
          "internalType": "contract IPowerToken",
          "name": "powerToken",
          "type": "address"
        },
        {
          "internalType": "address",
          "name": "to",
          "type": "address"
        },
        {
          "internalType": "uint256",
          "name": "amount",
          "type": "uint256"
        }
      ],
      "name": "wrapTo",
      "outputs": [
        {
          "internalType": "bool",
          "name": "",
          "type": "bool"
        }
      ],
      "stateMutability": "nonpayable",
      "type": "function"
    }
  ],
  "bytecode": "0x608060405234801561001057600080fd5b50613fde806100206000396000f3fe608060405234801561001057600080fd5b50600436106101775760003560e01c80639b7ae5ec116100d8578063bf376c7a1161008c578063e36eca0c11610066578063e36eca0c1461030b578063e91261541461031e578063faaed4ad1461033157610177565b8063bf376c7a146102d2578063c2fe50dd146102e5578063e2b17a16146102f857610177565b8063ac44ea69116100bd578063ac44ea69146102a2578063aebb5041146102b5578063b96266fa146102bd57610177565b80639b7ae5ec146102875780639c8f9f231461028f57610177565b8063512a53bc1161012f57806359bf5d391161011457806359bf5d39146102475780635a9b0b891461025c5780637ab4339d1461027457610177565b8063512a53bc1461021f57806351c6590a1461023457610177565b8063229304dc11610160578063229304dc146101c557806339f47693146101e75780633d4df8971461020757610177565b8063041960581461017c5780630714012c146101a5575b600080fd5b61018f61018a36600461342f565b610344565b60405161019c91906135bc565b60405180910390f35b6101b86101b336600461342f565b610370565b60405161019c9190613d74565b6101d86101d33660046131d6565b610413565b60405161019c93929190613e03565b6101fa6101f5366004613231565b6106c2565b60405161019c9190613737565b61020f6107ea565b60405161019c9493929190613637565b61023261022d3660046130df565b610b64565b005b61023261024236600461342f565b610ec3565b61024f611082565b60405161019c91906138b8565b610264611088565b60405161019c9493929190613e3d565b6102326102823660046132f0565b611144565b61018f6111d7565b61023261029d36600461342f565b6111e6565b6102326102b0366004613340565b6113ae565b61024f61188d565b6102c5611893565b60405161019c91906136ea565b6101fa6102e0366004613231565b6118f5565b6102326102f336600461345f565b61193f565b61023261030636600461316f565b611d9a565b61024f61031936600461313f565b612638565b61023261032c36600461342f565b612682565b6101fa61033f36600461315b565b6129e4565b60006007828154811061035357fe5b6000918252602090912001546001600160a01b031690505b919050565b610378612f82565b5060009081526005602090815260409182902082516101008101845281546001600160701b038082168352600160701b80830461ffff90811696850196909652600160801b830463ffffffff90811697850197909752600160a01b830487166060850152600160c01b830487166080850152600160e01b90920490951660a083015260019092015493841660c082015292041660e082015290565b6001600160a01b0384166000908152600660205260408120548190819087906104575760405162461bcd60e51b815260040161044e90613c61565b60405180910390fd5b60008060009054906101000a90046001600160a01b03166001600160a01b031663fec0dea06040518163ffffffff1660e01b815260040160206040518083038186803b1580156104a657600080fd5b505afa1580156104ba573d6000803e3d6000fd5b505050506040513d601f19601f820116820180604052508101906104de91906130c3565b6040517f19065df40000000000000000000000000000000000000000000000000000000081529091506001600160a01b038216906319065df49061052a908c908b908b90600401613869565b60206040518083038186803b15801561054257600080fd5b505afa158015610556573d6000803e3d6000fd5b505050506040513d601f19601f8201168201806040525081019061057a9190613413565b6000546040517f4b4703ec0000000000000000000000000000000000000000000000000000000081529196506001600160a01b031690634b4703ec906105c4908c906004016135bc565b60206040518083038186803b1580156105dc57600080fd5b505afa1580156105f0573d6000803e3d6000fd5b505050506040513d601f19601f820116820180604052508101906106149190613413565b6040517f465603a100000000000000000000000000000000000000000000000000000000815290860293506001600160a01b0382169063465603a190610664908c908c908c908c90600401613790565b60206040518083038186803b15801561067c57600080fd5b505afa158015610690573d6000803e3d6000fd5b505050506040513d601f19601f820116820180604052508101906106b49190613413565b935050509450945094915050565b6001600160a01b03821660009081526006602052604081205483906106f95760405162461bcd60e51b815260040161044e90613c61565b836001600160a01b0316638cc7104f60008054906101000a90046001600160a01b03166001600160a01b031663644e44df6040518163ffffffff1660e01b815260040160206040518083038186803b15801561075457600080fd5b505afa158015610768573d6000803e3d6000fd5b505050506040513d601f19601f8201168201806040525081019061078c91906130c3565b33866040518463ffffffff1660e01b81526004016107ac9392919061376c565b600060405180830381600087803b1580156107c657600080fd5b505af11580156107da573d6000803e3d6000fd5b50505050600191505b5092915050565b6007546060908190819081908067ffffffffffffffff8111801561080d57600080fd5b50604051908082528060200260200182016040528015610837578160200160208202803683370190505b5094508067ffffffffffffffff8111801561085157600080fd5b5060405190808252806020026020018201604052801561088557816020015b60608152602001906001900390816108705790505b5093508067ffffffffffffffff8111801561089f57600080fd5b506040519080825280602002602001820160405280156108d357816020015b60608152602001906001900390816108be5790505b5092508067ffffffffffffffff811180156108ed57600080fd5b50604051908082528060200260200182016040528015610917578160200160208202803683370190505b50915060005b81811015610b5c5760006007828154811061093457fe5b9060005260206000200160009054906101000a90046001600160a01b031690508087838151811061096157fe5b60200260200101906001600160a01b031690816001600160a01b031681525050806001600160a01b03166306fdde036040518163ffffffff1660e01b815260040160006040518083038186803b1580156109ba57600080fd5b505afa1580156109ce573d6000803e3d6000fd5b505050506040513d6000823e601f3d908101601f191682016040526109f6919081019061327d565b868381518110610a0257fe5b6020026020010181905250806001600160a01b03166395d89b416040518163ffffffff1660e01b815260040160006040518083038186803b158015610a4657600080fd5b505afa158015610a5a573d6000803e3d6000fd5b505050506040513d6000823e601f3d908101601f19168201604052610a82919081019061327d565b858381518110610a8e57fe5b60209081029190910101526000546040517f8fcfd8b30000000000000000000000000000000000000000000000000000000081526001600160a01b0390911690638fcfd8b390610ae29084906004016135bc565b60206040518083038186803b158015610afa57600080fd5b505afa158015610b0e573d6000803e3d6000fd5b505050506040513d601f19601f82011682018060405250810190610b32919061349d565b848381518110610b3e57fe5b63ffffffff909216602092830291909101909101525060010161091d565b505090919293565b60008054906101000a90046001600160a01b03166001600160a01b031663c93d0b926040518163ffffffff1660e01b815260040160206040518083038186803b158015610bb057600080fd5b505afa158015610bc4573d6000803e3d6000fd5b505050506040513d601f19601f82011682018060405250810190610be891906130c3565b6001600160a01b0316336001600160a01b031614610c185760405162461bcd60e51b815260040161044e9061396e565b600081815260056020908152604080832081516101008101835281546001600160701b03808216835261ffff600160701b808404821697850188905263ffffffff600160801b8504811697860197909752600160a01b840487166060860152600160c01b840487166080860152600160e01b90930490951660a084015260019093015492831660c083015290910490911660e08201526007805491939290918110610cbf57fe5b6000918252602090912001546001600160a01b0316905080610cf35760405162461bcd60e51b815260040161044e906139a5565b606082015163ffffffff1642116001600160a01b038681161590861680159030148015610d2857610d2387612682565b610eb8565b8115610dac5785516040517f79cc67900000000000000000000000000000000000000000000000000000000081526001600160a01b038716916379cc679091610d75918d91600401613615565b600060405180830381600087803b158015610d8f57600080fd5b505af1158015610da3573d6000803e3d6000fd5b50505050610eb8565b8215610df95785516040517f40c10f190000000000000000000000000000000000000000000000000000000081526001600160a01b038716916340c10f1991610d75918d91600401613615565b83610ea05785516040517f33bebb770000000000000000000000000000000000000000000000000000000081526001600160a01b038716916333bebb7791610e48918d918d91906004016135e9565b602060405180830381600087803b158015610e6257600080fd5b505af1158015610e76573d6000803e3d6000fd5b505050506040513d601f19601f82011682018060405250810190610e9a919061311f565b50610eb8565b60405162461bcd60e51b815260040161044e90613a13565b505050505050505050565b610f5e33308360008054906101000a90046001600160a01b03166001600160a01b031663644e44df6040518163ffffffff1660e01b815260040160206040518083038186803b158015610f1557600080fd5b505afa158015610f29573d6000803e3d6000fd5b505050506040513d601f19601f82011682018060405250810190610f4d91906130c3565b6001600160a01b0316929190612b0f565b60018054820190556002805482019055600354600090610f7f575080610f92565b600154826003540281610f8e57fe5b0490505b60008054906101000a90046001600160a01b03166001600160a01b0316630ea1dc9e6040518163ffffffff1660e01b815260040160206040518083038186803b158015610fde57600080fd5b505afa158015610ff2573d6000803e3d6000fd5b505050506040513d601f19601f8201168201806040525081019061101691906130c3565b6001600160a01b03166340c10f1933836040518363ffffffff1660e01b81526004016110439291906135d0565b600060405180830381600087803b15801561105d57600080fd5b505af1158015611071573d6000803e3d6000fd5b505060038054909301909255505050565b60015490565b600080600060606001546002546003546004808054600181600116156101000203166002900480601f01602080910402602001604051908101604052809291908181526020018280546001816001161561010002031660029004801561112f5780601f106111045761010080835404028352916020019161112f565b820191906000526020600020905b81548152906001019060200180831161111257829003601f168201915b50505050509050935093509350935090919293565b6000546001600160a01b03161561116d5760405162461bcd60e51b815260040161044e90613c98565b6001600160a01b0381166111935760405162461bcd60e51b815260040161044e90613ade565b81516111a6906004906020850190612fc6565b506000805473ffffffffffffffffffffffffffffffffffffffff19166001600160a01b039290921691909117905550565b6000546001600160a01b031690565b60006003548260015402816111f757fe5b04905060025481111561121c5760405162461bcd60e51b815260040161044e90613937565b60008054906101000a90046001600160a01b03166001600160a01b0316630ea1dc9e6040518163ffffffff1660e01b815260040160206040518083038186803b15801561126857600080fd5b505afa15801561127c573d6000803e3d6000fd5b505050506040513d601f19601f820116820180604052508101906112a091906130c3565b6001600160a01b03166379cc679033846040518363ffffffff1660e01b81526004016112cd9291906135d0565b600060405180830381600087803b1580156112e757600080fd5b505af11580156112fb573d6000803e3d6000fd5b50505050611398338260008054906101000a90046001600160a01b03166001600160a01b031663644e44df6040518163ffffffff1660e01b815260040160206040518083038186803b15801561135057600080fd5b505afa158015611364573d6000803e3d6000fd5b505050506040513d601f19601f8201168201806040525081019061138891906130c3565b6001600160a01b03169190612b88565b6001805482900390556002805491909103905550565b60008054906101000a90046001600160a01b03166001600160a01b0316638da5cb5b6040518163ffffffff1660e01b815260040160206040518083038186803b1580156113fa57600080fd5b505afa15801561140e573d6000803e3d6000fd5b505050506040513d601f19601f8201168201806040525081019061143291906130c3565b6001600160a01b0316336001600160a01b0316146114625760405162461bcd60e51b815260040161044e90613b15565b60075461ffff116114855760405162461bcd60e51b815260040161044e90613bcd565b8063ffffffff168263ffffffff1611156114b15760405162461bcd60e51b815260040161044e906139dc565b60008663ffffffff16116114d75760405162461bcd60e51b815260040161044e90613d06565b60008060009054906101000a90046001600160a01b03166001600160a01b031663644e44df6040518163ffffffff1660e01b815260040160206040518083038186803b15801561152657600080fd5b505afa15801561153a573d6000803e3d6000fd5b505050506040513d601f19601f8201168201806040525081019061155e91906130c3565b6001600160a01b03166395d89b416040518163ffffffff1660e01b815260040160006040518083038186803b15801561159657600080fd5b505afa1580156115aa573d6000803e3d6000fd5b505050506040513d6000823e601f3d908101601f191682016040526115d2919081019061327d565b9050600081896040516020016115e9929190613564565b6040516020818303038152906040529050600061169160008054906101000a90046001600160a01b03166001600160a01b03166383b9a0096040518163ffffffff1660e01b815260040160206040518083038186803b15801561164b57600080fd5b505afa15801561165f573d6000803e3d6000fd5b505050506040513d601f19601f8201168201806040525081019061168391906130c3565b6001600160a01b0316612bf8565b60408051610100810182526001600160701b038b16815263ffffffff808d16602083015261ffff8a1682840181905260608301526001600160a01b03808c16608084015242821660a084015289821660c084015290881660e083015260005492517ff8dd5c83000000000000000000000000000000000000000000000000000000008152939450909291169063f8dd5c839061173390859085906004016137c7565b600060405180830381600087803b15801561174d57600080fd5b505af1158015611761573d6000803e3d6000fd5b50505050816001600160a01b031663077f224a8d8560008054906101000a90046001600160a01b03166040518463ffffffff1660e01b81526004016117a8939291906138c1565b600060405180830381600087803b1580156117c257600080fd5b505af11580156117d6573d6000803e3d6000fd5b5050600780546001810182557fa66cc928b5edb82af9bd49922954155ab7b0942694bea4ce44661d9a8736c68801805473ffffffffffffffffffffffffffffffffffffffff19166001600160a01b03871690811790915590546000828152600660205260409081902091909155519092507f18706585e986f622c9d914abfb256d563b9ea274cd5d49124e0518aa314b8c129150611877908d908d90613e88565b60405180910390a2505050505050505050505050565b60025490565b606060078054806020026020016040519081016040528092919081815260200182805480156118eb57602002820191906000526020600020905b81546001600160a01b031681526001909101906020018083116118cd575b5050505050905090565b6001600160a01b038216600090815260066020526040812054839061192c5760405162461bcd60e51b815260040161044e90613c61565b6119378433856129e4565b949350505050565b600054604051632fb2067f60e01b81526001600160a01b0390911690632fb2067f9061196f9086906004016135bc565b60206040518083038186803b15801561198757600080fd5b505afa15801561199b573d6000803e3d6000fd5b505050506040513d601f19601f820116820180604052508101906119bf919061311f565b6119db5760405162461bcd60e51b815260040161044e90613a4a565b60008481526005602052604081208054600780549293929091600160701b900461ffff16908110611a0857fe5b6000918252602090912001546001600160a01b0316905080611a3c5760405162461bcd60e51b815260040161044e906139a5565b60005460405163a0cffa5960e01b81526001600160a01b039091169063a0cffa5990611a6e9084908790600401613899565b60206040518083038186803b158015611a8657600080fd5b505afa158015611a9a573d6000803e3d6000fd5b505050506040513d601f19601f82011682018060405250810190611abe919061311f565b611ada5760405162461bcd60e51b815260040161044e90613d3d565b815442600160a01b90910463ffffffff9081168501161015611b0e5760405162461bcd60e51b815260040161044e90613900565b815460009081908190611b2e9085908a906001600160701b031689610413565b92509250925086836001600160701b03161115611b5d5760405162461bcd60e51b815260040161044e90613ccf565b611b7b6001600160a01b03891633306001600160701b038716612b0f565b845463ffffffff600160a01b80830482168981019092160263ffffffff60a01b19909216919091178655600054604080517f8188d50d00000000000000000000000000000000000000000000000000000000815290516001600160a01b0390921691638188d50d91600480820192602092909190829003018186803b158015611c0357600080fd5b505afa158015611c17573d6000803e3d6000fd5b505050506040513d601f19601f82011682018060405250810190611c3b919061349d565b865463ffffffff600160a01b8204811692909201909116600160c01b0263ffffffff60c01b19909116178655600054604080517fa0efd11800000000000000000000000000000000000000000000000000000000815290516001600160a01b039092169163a0efd11891600480820192602092909190829003018186803b158015611cc557600080fd5b505afa158015611cd9573d6000803e3d6000fd5b505050506040513d601f19601f82011682018060405250810190611cfd919061349d565b8660000160149054906101000a900463ffffffff160186600001601c6101000a81548163ffffffff021916908363ffffffff160217905550846001600160a01b03167f9853650269815e203c5c9e228db9ca05cc6037f2c2723c94ed3260cf98324c998b838960000160149054906101000a900463ffffffff16604051611d8693929190613e6c565b60405180910390a250505050505050505050565b6001600160a01b0385166000908152600660205260409020548590611dd15760405162461bcd60e51b815260040161044e90613c61565b600054604051632fb2067f60e01b81526001600160a01b0390911690632fb2067f90611e019088906004016135bc565b60206040518083038186803b158015611e1957600080fd5b505afa158015611e2d573d6000803e3d6000fd5b505050506040513d601f19601f82011682018060405250810190611e51919061311f565b611e6d5760405162461bcd60e51b815260040161044e90613a4a565b60005460405163a0cffa5960e01b81526001600160a01b039091169063a0cffa5990611e9f9089908690600401613899565b60206040518083038186803b158015611eb757600080fd5b505afa158015611ecb573d6000803e3d6000fd5b505050506040513d601f19601f82011682018060405250810190611eef919061311f565b611f0b5760405162461bcd60e51b815260040161044e90613d3d565b600254846001600160701b03161115611f365760405162461bcd60e51b815260040161044e90613aa7565b60008060009054906101000a90046001600160a01b03166001600160a01b031663c93d0b926040518163ffffffff1660e01b815260040160206040518083038186803b158015611f8557600080fd5b505afa158015611f99573d6000803e3d6000fd5b505050506040513d601f19601f82011682018060405250810190611fbd91906130c3565b905060008060009054906101000a90046001600160a01b03166001600160a01b031663fec0dea06040518163ffffffff1660e01b815260040160206040518083038186803b15801561200e57600080fd5b505afa158015612022573d6000803e3d6000fd5b505050506040513d601f19601f8201168201806040525081019061204691906130c3565b6001600160a01b03166319065df48988876040518463ffffffff1660e01b815260040161207593929190613869565b60206040518083038186803b15801561208d57600080fd5b505afa1580156120a1573d6000803e3d6000fd5b505050506040513d601f19601f820116820180604052508101906120c59190613413565b5060008060006120d78b8b8b8a610413565b9250925092508193508781838501016001600160701b0316111561210d5760405162461bcd60e51b815260040161044e90613ccf565b61212b6001600160a01b038b1633306001600160701b038716612b0f565b6121486001600160a01b038b16866001600160701b038516612b88565b826001600160701b0316896001600160701b031660025403016002819055505050506000429050600085820190506000846001600160a01b0316638ada066e6040518163ffffffff1660e01b8152600401602060405180830381600087803b1580156121b357600080fd5b505af11580156121c7573d6000803e3d6000fd5b505050506040513d601f19601f820116820180604052508101906121eb9190613447565b90506040518061010001604052808a6001600160701b031681526020016001600660008f6001600160a01b03166001600160a01b03168152602001908152602001600020540361ffff1681526020018463ffffffff1681526020018363ffffffff16815260200160008054906101000a90046001600160a01b03166001600160a01b0316638188d50d6040518163ffffffff1660e01b815260040160206040518083038186803b15801561229e57600080fd5b505afa1580156122b2573d6000803e3d6000fd5b505050506040513d601f19601f820116820180604052508101906122d6919061349d565b840163ffffffff16815260200160008054906101000a90046001600160a01b03166001600160a01b031663a0efd1186040518163ffffffff1660e01b815260040160206040518083038186803b15801561232f57600080fd5b505afa158015612343573d6000803e3d6000fd5b505050506040513d601f19601f82011682018060405250810190612367919061349d565b840163ffffffff1681526001600160701b0386166020820152600054604080517f27623ddd0000000000000000000000000000000000000000000000000000000081529201916001600160a01b03909116906327623ddd906123cd908f906004016135bc565b60206040518083038186803b1580156123e557600080fd5b505afa1580156123f9573d6000803e3d6000fd5b505050506040513d601f19601f8201168201806040525081019061241d919061325c565b61ffff9081169091526000838152600560209081526040918290208451815492860151868501516060880151608089015160a08a015163ffffffff908116600160e01b026001600160e01b03928216600160c01b0263ffffffff60c01b19948316600160a01b0263ffffffff60a01b1993909616600160801b027fffffffffffffffffffffffff00000000ffffffffffffffffffffffffffffffff978d16600160701b9081027fffffffffffffffffffffffffffffffff0000ffffffffffffffffffffffffffff6001600160701b039b8c166dffffffffffffffffffffffffffff199e8f16178116919091179990991691909117939093169590951793909316939093171617845560c08801516001909401805460e0909901519097160292909116959092169490941716929092179055516001600160a01b038c16907f9853650269815e203c5c9e228db9ca05cc6037f2c2723c94ed3260cf98324c999061258b90849087908790613e6c565b60405180910390a26040517f6a6278420000000000000000000000000000000000000000000000000000000081526001600160a01b03861690636a627842906125d89033906004016135bc565b602060405180830381600087803b1580156125f257600080fd5b505af1158015612606573d6000803e3d6000fd5b505050506040513d601f19601f8201168201806040525081019061262a9190613447565b505050505050505050505050565b6001600160a01b03811660009081526006602052604081205415612678576001600160a01b0382166000908152600660205260409020546000190161267c565b6000195b92915050565b60008181526005602052604081208054600780549293929091600160701b900461ffff169081106126af57fe5b6000918252602090912001546001600160a01b03169050806126e35760405162461bcd60e51b815260040161044e906139a5565b60008060009054906101000a90046001600160a01b03166001600160a01b031663c93d0b926040518163ffffffff1660e01b815260040160206040518083038186803b15801561273257600080fd5b505afa158015612746573d6000803e3d6000fd5b505050506040513d601f19601f8201168201806040525081019061276a91906130c3565b90506000816001600160a01b0316636352211e866040518263ffffffff1660e01b815260040161279a91906138b8565b60206040518083038186803b1580156127b257600080fd5b505afa1580156127c6573d6000803e3d6000fd5b505050506040513d601f19601f820116820180604052508101906127ea91906130c3565b8454909150429063ffffffff808316600160c01b9092041610806128165750336001600160a01b038316145b6128325760405162461bcd60e51b815260040161044e90613c04565b845463ffffffff808316600160e01b9092041610806128595750336001600160a01b038316145b806128f8575060008054906101000a90046001600160a01b03166001600160a01b031663a554b26d6040518163ffffffff1660e01b815260040160206040518083038186803b1580156128ab57600080fd5b505afa1580156128bf573d6000803e3d6000fd5b505050506040513d601f19601f820116820180604052508101906128e391906130c3565b6001600160a01b0316336001600160a01b0316145b6129145760405162461bcd60e51b815260040161044e90613b4a565b8454600280546001600160701b0390921690910190556040517ffcd3533c0000000000000000000000000000000000000000000000000000000081526001600160a01b0384169063fcd3533c906129719089903390600401613e26565b600060405180830381600087803b15801561298b57600080fd5b505af115801561299f573d6000803e3d6000fd5b505050600096875250506005602052505060408320928355505060010180547fffffffffffffffffffffffffffffffff00000000000000000000000000000000169055565b6001600160a01b0383166000908152600660205260408120548490612a1b5760405162461bcd60e51b815260040161044e90613c61565b846001600160a01b031663a1571a5760008054906101000a90046001600160a01b03166001600160a01b031663644e44df6040518163ffffffff1660e01b815260040160206040518083038186803b158015612a7657600080fd5b505afa158015612a8a573d6000803e3d6000fd5b505050506040513d601f19601f82011682018060405250810190612aae91906130c3565b3387876040518563ffffffff1660e01b8152600401612ad09493929190613742565b600060405180830381600087803b158015612aea57600080fd5b505af1158015612afe573d6000803e3d6000fd5b50505050600191505b509392505050565b604080516001600160a01b0380861660248301528416604482015260648082018490528251808303909101815260849091019091526020810180516001600160e01b03167f23b872dd00000000000000000000000000000000000000000000000000000000179052612b82908590612cb3565b50505050565b604080516001600160a01b038416602482015260448082018490528251808303909101815260649091019091526020810180516001600160e01b03167fa9059cbb00000000000000000000000000000000000000000000000000000000179052612bf3908490612cb3565b505050565b60006040517f3d602d80600a3d3981f3363d3d373d3d3d363d7300000000000000000000000081528260601b60148201527f5af43d82803e903d91602b57fd5bf3000000000000000000000000000000000060288201526037816000f09150506001600160a01b03811661036b576040805162461bcd60e51b815260206004820152601660248201527f455243313136373a20637265617465206661696c656400000000000000000000604482015290519081900360640190fd5b6000612d08826040518060400160405280602081526020017f5361666545524332303a206c6f772d6c6576656c2063616c6c206661696c6564815250856001600160a01b0316612d649092919063ffffffff16565b805190915015612bf357808060200190516020811015612d2757600080fd5b5051612bf35760405162461bcd60e51b815260040180806020018281038252602a815260200180613f7f602a913960400191505060405180910390fd5b6060612d738484600085612d7d565b90505b9392505050565b606082471015612dbe5760405162461bcd60e51b8152600401808060200182810382526026815260200180613f596026913960400191505060405180910390fd5b612dc785612ed8565b612e18576040805162461bcd60e51b815260206004820152601d60248201527f416464726573733a2063616c6c20746f206e6f6e2d636f6e7472616374000000604482015290519081900360640190fd5b600080866001600160a01b031685876040518082805190602001908083835b60208310612e565780518252601f199092019160209182019101612e37565b6001836020036101000a03801982511681845116808217855250505050505090500191505060006040518083038185875af1925050503d8060008114612eb8576040519150601f19603f3d011682016040523d82523d6000602084013e612ebd565b606091505b5091509150612ecd828286612ede565b979650505050505050565b3b151590565b60608315612eed575081612d76565b825115612efd5782518084602001fd5b8160405162461bcd60e51b81526004018080602001828103825283818151815260200191508051906020019080838360005b83811015612f47578181015183820152602001612f2f565b50505050905090810190601f168015612f745780820380516001836020036101000a031916815260200191505b509250505060405180910390fd5b6040805161010081018252600080825260208201819052918101829052606081018290526080810182905260a0810182905260c0810182905260e081019190915290565b828054600181600116156101000203166002900490600052602060002090601f016020900481019282612ffc5760008555613042565b82601f1061301557805160ff1916838001178555613042565b82800160010185558215613042579182015b82811115613042578251825591602001919060010190613027565b5061304e929150613052565b5090565b5b8082111561304e5760008155600101613053565b600082601f830112613077578081fd5b813561308a61308582613ecb565b613ea7565b81815284602083860101111561309e578283fd5b816020850160208301379081016020019190915292915050565b803561036b81613f46565b6000602082840312156130d4578081fd5b8151612d7681613f19565b6000806000606084860312156130f3578182fd5b83356130fe81613f19565b9250602084013561310e81613f19565b929592945050506040919091013590565b600060208284031215613130578081fd5b81518015158114612d76578182fd5b600060208284031215613150578081fd5b8135612d7681613f19565b6000806000606084860312156130f3578081fd5b600080600080600060a08688031215613186578283fd5b853561319181613f19565b945060208601356131a181613f19565b935060408601356131b181613f31565b92506060860135915060808601356131c881613f46565b809150509295509295909350565b600080600080608085870312156131eb578182fd5b84356131f681613f19565b9350602085013561320681613f19565b9250604085013561321681613f31565b9150606085013561322681613f46565b939692955090935050565b60008060408385031215613243578182fd5b823561324e81613f19565b946020939093013593505050565b60006020828403121561326d578081fd5b81518060010b8114612d76578182fd5b60006020828403121561328e578081fd5b815167ffffffffffffffff8111156132a4578182fd5b8201601f810184136132b4578182fd5b80516132c261308582613ecb565b8181528560208385010111156132d6578384fd5b6132e7826020830160208601613eed565b95945050505050565b60008060408385031215613302578182fd5b823567ffffffffffffffff811115613318578283fd5b61332485828601613067565b925050602083013561333581613f19565b809150509250929050565b600080600080600080600080610100898b03121561335c578586fd5b883567ffffffffffffffff80821115613373578788fd5b61337f8c838d01613067565b995060208b0135915080821115613394578788fd5b506133a18b828c01613067565b97505060408901356133b281613f46565b955060608901356133c281613f31565b945060808901356133d281613f19565b935060a089013561ffff811681146133e8578384fd5b92506133f660c08a016130b8565b915061340460e08a016130b8565b90509295985092959890939650565b600060208284031215613424578081fd5b8151612d7681613f31565b600060208284031215613440578081fd5b5035919050565b600060208284031215613458578081fd5b5051919050565b60008060008060808587031215613474578182fd5b84359350602085013561348681613f19565b925060408501359150606085013561322681613f46565b6000602082840312156134ae578081fd5b8151612d7681613f46565b6000815180845260208085018081965082840281019150828601855b858110156134ff5782840389526134ed848351613519565b988501989350908401906001016134d5565b5091979650505050505050565b6001600160a01b03169052565b60008151808452613531816020860160208601613eed565b601f01601f19169290920160200192915050565b6001600160701b03169052565b61ffff169052565b63ffffffff169052565b60008351613576818460208801613eed565b7f200000000000000000000000000000000000000000000000000000000000000090830190815283516135b0816001840160208801613eed565b01600101949350505050565b6001600160a01b0391909116815260200190565b6001600160a01b03929092168252602082015260400190565b6001600160a01b0393841681529190921660208201526001600160701b03909116604082015260600190565b6001600160a01b039290921682526001600160701b0316602082015260400190565b6080808252855190820181905260009060209060a0840190828901845b828110156136795781516001600160a01b031684529284019290840190600101613654565b5050508381038285015261368d81886134b9565b905083810360408501526136a181876134b9565b84810360608601528551808252838701925090830190845b818110156136db57835163ffffffff16835292840192918401916001016136b9565b50909998505050505050505050565b6020808252825182820181905260009190848201906040850190845b8181101561372b5783516001600160a01b031683529284019291840191600101613706565b50909695505050505050565b901515815260200190565b6001600160a01b039485168152928416602084015292166040820152606081019190915260800190565b6001600160a01b039384168152919092166020820152604081019190915260600190565b6001600160a01b0394851681529290931660208301526001600160701b0316604082015263ffffffff909116606082015260800190565b6000610120820190506001600160a01b03841682526001600160701b03835116602083015263ffffffff602084015116604083015261ffff6040840151166060830152606083015161381c6080840182613552565b50608083015161382f60a084018261350c565b5060a083015161384260c084018261355a565b5060c083015161385560e084018261355a565b5060e0830151612b0761010084018261355a565b6001600160a01b039390931683526001600160701b0391909116602083015263ffffffff16604082015260600190565b6001600160a01b0392909216825263ffffffff16602082015260400190565b90815260200190565b6000606082526138d46060830186613519565b82810360208401526138e68186613519565b9150506001600160a01b0383166040830152949350505050565b60208082526010908201527f496e76616c6964206475726174696f6e00000000000000000000000000000000604082015260600190565b60208082526016908201527f496e73756666696369656e74206c697175696469747900000000000000000000604082015260600190565b6020808252600f908201527f4e6f7420426f72726f77546f6b656e0000000000000000000000000000000000604082015260600190565b6020808252600f908201527f496e76616c696420746f6b656e49640000000000000000000000000000000000604082015260600190565b6020808252601b908201527f496e76616c6964206d696e20616e64206d617820706572696f64730000000000604082015260600190565b60208082526014908201527f4e6f7420616c6c6f776564207472616e73666572000000000000000000000000604082015260600190565b60208082526033908201527f496e746572657374207061796d656e7420746f6b656e2069732064697361626c60408201527f6564206f72206e6f7420737570706f7274656400000000000000000000000000606082015260800190565b60208082526015908201527f496e73756666696369656e742072657365727665730000000000000000000000604082015260600190565b60208082526014908201527f496e76616c696420636f6e666967757261746f72000000000000000000000000604082015260600190565b6020808252818101527f4f776e61626c653a2063616c6c6572206973206e6f7420746865206f776e6572604082015260600190565b60208082526045908201527f4f6e6c7920626f72726f776572206f7220656e74657270726973652063616e2060408201527f72657475726e2077697468696e20656e7465727072697365206772616365207060608201527f6572696f64000000000000000000000000000000000000000000000000000000608082015260a00190565b6020808252601d908201527f43616e6e6f74207265676973746572206d6f7265207365727669636573000000604082015260600190565b60208082526035908201527f4f6e6c7920626f72726f7765722063616e2072657475726e2077697468696e2060408201527f626f72726f77657220677261636520706572696f640000000000000000000000606082015260800190565b60208082526012908201527f556e6b6e6f776e20506f776572546f6b656e0000000000000000000000000000604082015260600190565b60208082526013908201527f416c726561647920696e697469616c697a656400000000000000000000000000604082015260600190565b60208082526013908201527f536c69707061676520697320746f6f2062696700000000000000000000000000604082015260600190565b60208082526011908201527f496e76616c69642068616c66206c696665000000000000000000000000000000604082015260600190565b60208082526017908201527f4475726174696f6e206973206e6f7420616c6c6f776564000000000000000000604082015260600190565b6000610100820190506001600160701b03835116825261ffff6020840151166020830152604083015163ffffffff808216604085015280606086015116606085015250506080830151613dca608084018261355a565b5060a0830151613ddd60a084018261355a565b5060c0830151613df060c0840182613545565b5060e08301516107e360e0840182613552565b6001600160701b0393841681529183166020830152909116604082015260600190565b9182526001600160a01b0316602082015260400190565b600085825284602083015283604083015260806060830152613e626080830184613519565b9695505050505050565b92835263ffffffff918216602084015216604082015260600190565b63ffffffff9290921682526001600160701b0316602082015260400190565b60405181810167ffffffffffffffff81118282101715613ec357fe5b604052919050565b600067ffffffffffffffff821115613edf57fe5b50601f01601f191660200190565b60005b83811015613f08578181015183820152602001613ef0565b83811115612b825750506000910152565b6001600160a01b0381168114613f2e57600080fd5b50565b6001600160701b0381168114613f2e57600080fd5b63ffffffff81168114613f2e57600080fdfe416464726573733a20696e73756666696369656e742062616c616e636520666f722063616c6c5361666545524332303a204552433230206f7065726174696f6e20646964206e6f742073756363656564a26469706673582212200e4080fa7baa459604ada1483067c4c44898cb8bab70c078185bd5943eac268164736f6c63430007060033",
  "linkReferences": {},
  "deployedLinkReferences": {}
}