{
  "_format": "hh-sol-artifact-1",
  "contractName": "Enterprise",
  "sourceName": "contracts/Enterprise.sol",
  "abi": [
    {
      "anonymous": false,
      "inputs": [
        {
          "indexed": true,
          "internalType": "address",
          "name": "powerToken",
          "type": "address"
        },
        {
          "indexed": false,
          "internalType": "uint256",
          "name": "tokenId",
          "type": "uint256"
        },
        {
          "indexed": false,
          "internalType": "uint32",
          "name": "from",
          "type": "uint32"
        },
        {
          "indexed": false,
          "internalType": "uint32",
          "name": "to",
          "type": "uint32"
        }
      ],
      "name": "Borrowed",
      "type": "event"
    },
    {
      "anonymous": false,
      "inputs": [
        {
          "indexed": true,
          "internalType": "address",
          "name": "previousOwner",
          "type": "address"
        },
        {
          "indexed": true,
          "internalType": "address",
          "name": "newOwner",
          "type": "address"
        }
      ],
      "name": "OwnershipTransferred",
      "type": "event"
    },
    {
      "anonymous": false,
      "inputs": [
        {
          "indexed": true,
          "internalType": "address",
          "name": "powerToken",
          "type": "address"
        },
        {
          "indexed": false,
          "internalType": "uint32",
          "name": "halfLife",
          "type": "uint32"
        },
        {
          "indexed": false,
          "internalType": "uint112",
          "name": "factor",
          "type": "uint112"
        }
      ],
      "name": "ServiceRegistered",
      "type": "event"
    },
    {
      "inputs": [
        {
          "internalType": "uint256",
          "name": "liquidityAmount",
          "type": "uint256"
        }
      ],
      "name": "addLiquidity",
      "outputs": [],
      "stateMutability": "nonpayable",
      "type": "function"
    },
    {
      "inputs": [
        {
          "internalType": "contract IPowerToken",
          "name": "powerToken",
          "type": "address"
        }
      ],
      "name": "allowPerpetualPowerTokenForever",
      "outputs": [],
      "stateMutability": "nonpayable",
      "type": "function"
    },
    {
      "inputs": [
        {
          "internalType": "contract IPowerToken",
          "name": "powerToken",
          "type": "address"
        },
        {
          "internalType": "contract IERC20",
          "name": "paymentToken",
          "type": "address"
        },
        {
          "internalType": "uint112",
          "name": "amount",
          "type": "uint112"
        },
        {
          "internalType": "uint32",
          "name": "duration",
          "type": "uint32"
        },
        {
          "internalType": "uint256",
          "name": "maxPayment",
          "type": "uint256"
        }
      ],
      "name": "borrow",
      "outputs": [],
      "stateMutability": "nonpayable",
      "type": "function"
    },
    {
      "inputs": [
        {
          "internalType": "address",
          "name": "token",
          "type": "address"
        }
      ],
      "name": "disablePaymentToken",
      "outputs": [],
      "stateMutability": "nonpayable",
      "type": "function"
    },
    {
      "inputs": [
        {
          "internalType": "address",
          "name": "token",
          "type": "address"
        }
      ],
      "name": "enablePaymentToken",
      "outputs": [],
      "stateMutability": "nonpayable",
      "type": "function"
    },
    {
      "inputs": [
        {
          "internalType": "contract IPowerToken",
          "name": "powerToken",
          "type": "address"
        },
        {
          "internalType": "contract IERC20",
          "name": "paymentToken",
          "type": "address"
        },
        {
          "internalType": "uint112",
          "name": "amount",
          "type": "uint112"
        },
        {
          "internalType": "uint32",
          "name": "duration",
          "type": "uint32"
        }
      ],
      "name": "estimateLoan",
      "outputs": [
        {
          "internalType": "uint256",
          "name": "",
          "type": "uint256"
        }
      ],
      "stateMutability": "view",
      "type": "function"
    },
    {
      "inputs": [],
      "name": "getAvailableReserve",
      "outputs": [
        {
          "internalType": "uint256",
          "name": "",
          "type": "uint256"
        }
      ],
      "stateMutability": "view",
      "type": "function"
    },
    {
      "inputs": [],
      "name": "getBaseUri",
      "outputs": [
        {
          "internalType": "string",
          "name": "",
          "type": "string"
        }
      ],
      "stateMutability": "view",
      "type": "function"
    },
    {
      "inputs": [],
      "name": "getBorrowToken",
      "outputs": [
        {
          "internalType": "contract IBorrowToken",
          "name": "",
          "type": "address"
        }
      ],
      "stateMutability": "view",
      "type": "function"
    },
    {
      "inputs": [],
      "name": "getBorrowerLoanReturnGracePeriod",
      "outputs": [
        {
          "internalType": "uint32",
          "name": "",
          "type": "uint32"
        }
      ],
      "stateMutability": "view",
      "type": "function"
    },
    {
      "inputs": [],
      "name": "getConverter",
      "outputs": [
        {
          "internalType": "contract IConverter",
          "name": "",
          "type": "address"
        }
      ],
      "stateMutability": "view",
      "type": "function"
    },
    {
      "inputs": [],
      "name": "getEnterpriseCollector",
      "outputs": [
        {
          "internalType": "address",
          "name": "",
          "type": "address"
        }
      ],
      "stateMutability": "view",
      "type": "function"
    },
    {
      "inputs": [],
      "name": "getEnterpriseLoanCollectGracePeriod",
      "outputs": [
        {
          "internalType": "uint32",
          "name": "",
          "type": "uint32"
        }
      ],
      "stateMutability": "view",
      "type": "function"
    },
    {
      "inputs": [],
      "name": "getEnterpriseVault",
      "outputs": [
        {
          "internalType": "address",
          "name": "",
          "type": "address"
        }
      ],
      "stateMutability": "view",
      "type": "function"
    },
    {
      "inputs": [],
      "name": "getEstimator",
      "outputs": [
        {
          "internalType": "contract IEstimator",
          "name": "",
          "type": "address"
        }
      ],
      "stateMutability": "view",
      "type": "function"
    },
    {
      "inputs": [],
      "name": "getGCFeePercent",
      "outputs": [
        {
          "internalType": "uint16",
          "name": "",
          "type": "uint16"
        }
      ],
      "stateMutability": "view",
      "type": "function"
    },
    {
      "inputs": [],
      "name": "getInfo",
      "outputs": [
        {
          "internalType": "string",
          "name": "name",
          "type": "string"
        },
        {
          "internalType": "string",
          "name": "baseUri",
          "type": "string"
        },
        {
          "internalType": "uint256",
          "name": "totalShares",
          "type": "uint256"
        },
        {
          "internalType": "uint32",
          "name": "interestHalfLife",
          "type": "uint32"
        },
        {
          "internalType": "uint32",
          "name": "borrowerLoanReturnGracePeriod",
          "type": "uint32"
        },
        {
          "internalType": "uint32",
          "name": "enterpriseLoanCollectGracePeriod",
          "type": "uint32"
        },
        {
          "internalType": "uint16",
          "name": "gcFeePercent",
          "type": "uint16"
        },
        {
          "internalType": "uint256",
          "name": "fixedReserve",
          "type": "uint256"
        },
        {
          "internalType": "uint256",
          "name": "usedReserve",
          "type": "uint256"
        },
        {
          "internalType": "uint112",
          "name": "streamingReserve",
          "type": "uint112"
        },
        {
          "internalType": "uint112",
          "name": "streamingReserveTarget",
          "type": "uint112"
        },
        {
          "internalType": "uint32",
          "name": "streamingReserveUpdated",
          "type": "uint32"
        }
      ],
      "stateMutability": "view",
      "type": "function"
    },
    {
      "inputs": [],
      "name": "getInterestHalfLife",
      "outputs": [
        {
          "internalType": "uint32",
          "name": "",
          "type": "uint32"
        }
      ],
      "stateMutability": "view",
      "type": "function"
    },
    {
      "inputs": [],
      "name": "getInterestToken",
      "outputs": [
        {
          "internalType": "contract IInterestToken",
          "name": "",
          "type": "address"
        }
      ],
      "stateMutability": "view",
      "type": "function"
    },
    {
      "inputs": [
        {
          "internalType": "uint256",
          "name": "tokenId",
          "type": "uint256"
        }
      ],
      "name": "getLiquidityInfo",
      "outputs": [
        {
          "components": [
            {
              "internalType": "uint256",
              "name": "amount",
              "type": "uint256"
            },
            {
              "internalType": "uint256",
              "name": "shares",
              "type": "uint256"
            },
            {
              "internalType": "uint256",
              "name": "block",
              "type": "uint256"
            }
          ],
          "internalType": "struct EnterpriseStorage.LiquidityInfo",
          "name": "",
          "type": "tuple"
        }
      ],
      "stateMutability": "view",
      "type": "function"
    },
    {
      "inputs": [],
      "name": "getLiquidityToken",
      "outputs": [
        {
          "internalType": "contract IERC20Metadata",
          "name": "",
          "type": "address"
        }
      ],
      "stateMutability": "view",
      "type": "function"
    },
    {
      "inputs": [
        {
          "internalType": "uint256",
          "name": "tokenId",
          "type": "uint256"
        }
      ],
      "name": "getLoanInfo",
      "outputs": [
        {
          "components": [
            {
              "internalType": "uint112",
              "name": "amount",
              "type": "uint112"
            },
            {
              "internalType": "uint16",
              "name": "powerTokenIndex",
              "type": "uint16"
            },
            {
              "internalType": "uint32",
              "name": "borrowingTime",
              "type": "uint32"
            },
            {
              "internalType": "uint32",
              "name": "maturityTime",
              "type": "uint32"
            },
            {
              "internalType": "uint32",
              "name": "borrowerReturnGraceTime",
              "type": "uint32"
            },
            {
              "internalType": "uint32",
              "name": "enterpriseCollectGraceTime",
              "type": "uint32"
            },
            {
              "internalType": "uint112",
              "name": "gcFee",
              "type": "uint112"
            },
            {
              "internalType": "uint16",
              "name": "gcFeeTokenIndex",
              "type": "uint16"
            }
          ],
          "internalType": "struct EnterpriseStorage.LoanInfo",
          "name": "",
          "type": "tuple"
        }
      ],
      "stateMutability": "view",
      "type": "function"
    },
    {
      "inputs": [
        {
          "internalType": "uint256",
          "name": "tokenId",
          "type": "uint256"
        }
      ],
      "name": "getOwedInterest",
      "outputs": [
        {
          "internalType": "uint256",
          "name": "",
          "type": "uint256"
        }
      ],
      "stateMutability": "view",
      "type": "function"
    },
    {
      "inputs": [],
      "name": "getPowerTokens",
      "outputs": [
        {
          "internalType": "contract IPowerToken[]",
          "name": "",
          "type": "address[]"
        }
      ],
      "stateMutability": "view",
      "type": "function"
    },
    {
      "inputs": [],
      "name": "getProxyAdmin",
      "outputs": [
        {
          "internalType": "contract ProxyAdmin",
          "name": "",
          "type": "address"
        }
      ],
      "stateMutability": "view",
      "type": "function"
    },
    {
      "inputs": [],
      "name": "getReserve",
      "outputs": [
        {
          "internalType": "uint256",
          "name": "",
          "type": "uint256"
        }
      ],
      "stateMutability": "view",
      "type": "function"
    },
    {
      "inputs": [
        {
          "internalType": "contract IPowerToken",
          "name": "powerToken",
          "type": "address"
        }
      ],
      "name": "getService",
      "outputs": [
        {
          "internalType": "string",
          "name": "name",
          "type": "string"
        },
        {
          "internalType": "string",
          "name": "symbol",
          "type": "string"
        },
        {
          "components": [
            {
              "internalType": "uint112",
              "name": "baseRate",
              "type": "uint112"
            },
            {
              "internalType": "uint96",
              "name": "minGCFee",
              "type": "uint96"
            },
            {
              "internalType": "uint32",
              "name": "halfLife",
              "type": "uint32"
            },
            {
              "internalType": "uint16",
              "name": "index",
              "type": "uint16"
            },
            {
              "internalType": "contract IERC20Metadata",
              "name": "baseToken",
              "type": "address"
            },
            {
              "internalType": "uint32",
              "name": "minLoanDuration",
              "type": "uint32"
            },
            {
              "internalType": "uint32",
              "name": "maxLoanDuration",
              "type": "uint32"
            },
            {
              "internalType": "uint16",
              "name": "serviceFeePercent",
              "type": "uint16"
            },
            {
              "internalType": "bool",
              "name": "allowsPerpetual",
              "type": "bool"
            }
          ],
          "internalType": "struct EnterpriseStorage.ServiceConfig",
          "name": "config",
          "type": "tuple"
        }
      ],
      "stateMutability": "view",
      "type": "function"
    },
    {
      "inputs": [],
      "name": "getUsedReserve",
      "outputs": [
        {
          "internalType": "uint256",
          "name": "",
          "type": "uint256"
        }
      ],
      "stateMutability": "view",
      "type": "function"
    },
    {
      "inputs": [
        {
          "internalType": "string",
          "name": "enterpriseName",
          "type": "string"
        },
        {
          "internalType": "string",
          "name": "baseUri",
          "type": "string"
        },
        {
          "internalType": "uint16",
          "name": "gcFeePercent",
          "type": "uint16"
        },
        {
          "internalType": "contract IEstimator",
          "name": "estimator",
          "type": "address"
        },
        {
          "internalType": "contract IConverter",
          "name": "converter",
          "type": "address"
        },
        {
          "internalType": "contract ProxyAdmin",
          "name": "proxyAdmin",
          "type": "address"
        },
        {
          "internalType": "address",
          "name": "owner",
          "type": "address"
        }
      ],
      "name": "initialize",
      "outputs": [],
      "stateMutability": "nonpayable",
      "type": "function"
    },
    {
      "inputs": [
        {
          "internalType": "address",
          "name": "initialOwner",
          "type": "address"
        }
      ],
      "name": "initialize",
      "outputs": [],
      "stateMutability": "nonpayable",
      "type": "function"
    },
    {
      "inputs": [
        {
          "internalType": "contract IERC20Metadata",
          "name": "liquidityToken",
          "type": "address"
        },
        {
          "internalType": "contract IInterestToken",
          "name": "interestToken",
          "type": "address"
        },
        {
          "internalType": "contract IBorrowToken",
          "name": "borrowToken",
          "type": "address"
        }
      ],
      "name": "initializeTokens",
      "outputs": [],
      "stateMutability": "nonpayable",
      "type": "function"
    },
    {
      "inputs": [
        {
          "internalType": "contract IPowerToken",
          "name": "powerToken",
          "type": "address"
        }
      ],
      "name": "isRegisteredPowerToken",
      "outputs": [
        {
          "internalType": "bool",
          "name": "",
          "type": "bool"
        }
      ],
      "stateMutability": "view",
      "type": "function"
    },
    {
      "inputs": [
        {
          "internalType": "contract IPowerToken",
          "name": "powerToken",
          "type": "address"
        },
        {
          "internalType": "uint32",
          "name": "duration",
          "type": "uint32"
        }
      ],
      "name": "isServiceAllowedLoanDuration",
      "outputs": [
        {
          "internalType": "bool",
          "name": "",
          "type": "bool"
        }
      ],
      "stateMutability": "view",
      "type": "function"
    },
    {
      "inputs": [
        {
          "internalType": "contract IERC20",
          "name": "token",
          "type": "address"
        }
      ],
      "name": "isSupportedPaymentToken",
      "outputs": [
        {
          "internalType": "bool",
          "name": "",
          "type": "bool"
        }
      ],
      "stateMutability": "view",
      "type": "function"
    },
    {
      "inputs": [
        {
          "internalType": "address",
          "name": "from",
          "type": "address"
        },
        {
          "internalType": "address",
          "name": "to",
          "type": "address"
        },
        {
          "internalType": "uint256",
          "name": "tokenId",
          "type": "uint256"
        }
      ],
      "name": "loanTransfer",
      "outputs": [],
      "stateMutability": "nonpayable",
      "type": "function"
    },
    {
      "inputs": [],
      "name": "owner",
      "outputs": [
        {
          "internalType": "address",
          "name": "",
          "type": "address"
        }
      ],
      "stateMutability": "view",
      "type": "function"
    },
    {
      "inputs": [
        {
          "internalType": "uint256",
          "name": "index",
          "type": "uint256"
        }
      ],
      "name": "paymentToken",
      "outputs": [
        {
          "internalType": "address",
          "name": "",
          "type": "address"
        }
      ],
      "stateMutability": "view",
      "type": "function"
    },
    {
      "inputs": [
        {
          "internalType": "contract IERC20",
          "name": "token",
          "type": "address"
        }
      ],
      "name": "paymentTokenIndex",
      "outputs": [
        {
          "internalType": "int16",
          "name": "",
          "type": "int16"
        }
      ],
      "stateMutability": "view",
      "type": "function"
    },
    {
      "inputs": [
        {
          "internalType": "uint256",
          "name": "tokenId",
          "type": "uint256"
        },
        {
          "internalType": "contract IERC20",
          "name": "paymentToken",
          "type": "address"
        },
        {
          "internalType": "uint32",
          "name": "duration",
          "type": "uint32"
        },
        {
          "internalType": "uint256",
          "name": "maxPayment",
          "type": "uint256"
        }
      ],
      "name": "reborrow",
      "outputs": [],
      "stateMutability": "nonpayable",
      "type": "function"
    },
    {
      "inputs": [
        {
          "internalType": "string",
          "name": "serviceName",
          "type": "string"
        },
        {
          "internalType": "string",
          "name": "symbol",
          "type": "string"
        },
        {
          "internalType": "uint32",
          "name": "halfLife",
          "type": "uint32"
        },
        {
          "internalType": "uint112",
          "name": "baseRate",
          "type": "uint112"
        },
        {
          "internalType": "contract IERC20Metadata",
          "name": "baseToken",
          "type": "address"
        },
        {
          "internalType": "uint16",
          "name": "serviceFeePercent",
          "type": "uint16"
        },
        {
          "internalType": "uint32",
          "name": "minLoanDuration",
          "type": "uint32"
        },
        {
          "internalType": "uint32",
          "name": "maxLoanDuration",
          "type": "uint32"
        },
        {
          "internalType": "uint96",
          "name": "minGCFee",
          "type": "uint96"
        },
        {
          "internalType": "bool",
          "name": "allowsPerpetualTokensForever",
          "type": "bool"
        }
      ],
      "name": "registerService",
      "outputs": [],
      "stateMutability": "nonpayable",
      "type": "function"
    },
    {
      "inputs": [
        {
          "internalType": "uint256",
          "name": "tokenId",
          "type": "uint256"
        }
      ],
      "name": "removeLiquidity",
      "outputs": [],
      "stateMutability": "nonpayable",
      "type": "function"
    },
    {
      "inputs": [
        {
          "internalType": "uint256",
          "name": "tokenId",
          "type": "uint256"
        }
      ],
      "name": "returnLoan",
      "outputs": [],
      "stateMutability": "nonpayable",
      "type": "function"
    },
    {
      "inputs": [
        {
          "internalType": "string",
          "name": "baseUri",
          "type": "string"
        }
      ],
      "name": "setBaseUri",
      "outputs": [],
      "stateMutability": "nonpayable",
      "type": "function"
    },
    {
      "inputs": [
        {
          "internalType": "uint32",
          "name": "newPeriod",
          "type": "uint32"
        }
      ],
      "name": "setBorrowerLoanReturnGracePeriod",
      "outputs": [],
      "stateMutability": "nonpayable",
      "type": "function"
    },
    {
      "inputs": [
        {
          "internalType": "contract IConverter",
          "name": "newConverter",
          "type": "address"
        }
      ],
      "name": "setConverter",
      "outputs": [],
      "stateMutability": "nonpayable",
      "type": "function"
    },
    {
      "inputs": [
        {
          "internalType": "address",
          "name": "newCollector",
          "type": "address"
        }
      ],
      "name": "setEnterpriseCollector",
      "outputs": [],
      "stateMutability": "nonpayable",
      "type": "function"
    },
    {
      "inputs": [
        {
          "internalType": "uint32",
          "name": "newPeriod",
          "type": "uint32"
        }
      ],
      "name": "setEnterpriseLoanCollectGracePeriod",
      "outputs": [],
      "stateMutability": "nonpayable",
      "type": "function"
    },
    {
      "inputs": [
        {
          "internalType": "address",
          "name": "newVault",
          "type": "address"
        }
      ],
      "name": "setEnterpriseVault",
      "outputs": [],
      "stateMutability": "nonpayable",
      "type": "function"
    },
    {
      "inputs": [
        {
          "internalType": "contract IEstimator",
          "name": "newEstimator",
          "type": "address"
        }
      ],
      "name": "setEstimator",
      "outputs": [],
      "stateMutability": "nonpayable",
      "type": "function"
    },
    {
      "inputs": [
        {
          "internalType": "uint16",
          "name": "newGcFeePercent",
          "type": "uint16"
        }
      ],
      "name": "setGcFeePercent",
      "outputs": [],
      "stateMutability": "nonpayable",
      "type": "function"
    },
    {
      "inputs": [
        {
          "internalType": "uint32",
          "name": "interestHalfLife",
          "type": "uint32"
        }
      ],
      "name": "setInterestHalfLife",
      "outputs": [],
      "stateMutability": "nonpayable",
      "type": "function"
    },
    {
      "inputs": [
        {
          "internalType": "contract IPowerToken",
          "name": "powerToken",
          "type": "address"
        },
        {
          "internalType": "uint112",
          "name": "baseRate",
          "type": "uint112"
        },
        {
          "internalType": "contract IERC20Metadata",
          "name": "baseToken",
          "type": "address"
        },
        {
          "internalType": "uint96",
          "name": "minGCFee",
          "type": "uint96"
        }
      ],
      "name": "setServiceBaseRate",
      "outputs": [],
      "stateMutability": "nonpayable",
      "type": "function"
    },
    {
      "inputs": [
        {
          "internalType": "contract IPowerToken",
          "name": "powerToken",
          "type": "address"
        },
        {
          "internalType": "uint16",
          "name": "newServiceFeePercent",
          "type": "uint16"
        }
      ],
      "name": "setServiceFeePercent",
      "outputs": [],
      "stateMutability": "nonpayable",
      "type": "function"
    },
    {
      "inputs": [
        {
          "internalType": "contract IPowerToken",
          "name": "powerToken",
          "type": "address"
        },
        {
          "internalType": "uint32",
          "name": "minLoanDuration",
          "type": "uint32"
        },
        {
          "internalType": "uint32",
          "name": "maxLoanDuration",
          "type": "uint32"
        }
      ],
      "name": "setServiceLoanDurationLimits",
      "outputs": [],
      "stateMutability": "nonpayable",
      "type": "function"
    },
    {
      "inputs": [],
      "name": "shutdownEnterpriseForever",
      "outputs": [],
      "stateMutability": "nonpayable",
      "type": "function"
    },
    {
      "inputs": [
        {
          "internalType": "address",
          "name": "newOwner",
          "type": "address"
        }
      ],
      "name": "transferOwnership",
      "outputs": [],
      "stateMutability": "nonpayable",
      "type": "function"
    },
    {
      "inputs": [
        {
          "internalType": "contract IPowerToken",
          "name": "powerToken",
          "type": "address"
        },
        {
          "internalType": "uint256",
          "name": "amount",
          "type": "uint256"
        }
      ],
      "name": "unwrap",
      "outputs": [
        {
          "internalType": "bool",
          "name": "",
          "type": "bool"
        }
      ],
      "stateMutability": "nonpayable",
      "type": "function"
    },
    {
      "inputs": [
        {
          "internalType": "address",
          "name": "implementation",
          "type": "address"
        }
      ],
      "name": "upgradeBorrowToken",
      "outputs": [],
      "stateMutability": "nonpayable",
      "type": "function"
    },
    {
      "inputs": [
        {
          "internalType": "address",
          "name": "implementation",
          "type": "address"
        }
      ],
      "name": "upgradeEnterprise",
      "outputs": [],
      "stateMutability": "nonpayable",
      "type": "function"
    },
    {
      "inputs": [
        {
          "internalType": "address",
          "name": "implementation",
          "type": "address"
        }
      ],
      "name": "upgradeEstimator",
      "outputs": [],
      "stateMutability": "nonpayable",
      "type": "function"
    },
    {
      "inputs": [
        {
          "internalType": "address",
          "name": "implementation",
          "type": "address"
        }
      ],
      "name": "upgradeInterestToken",
      "outputs": [],
      "stateMutability": "nonpayable",
      "type": "function"
    },
    {
      "inputs": [
        {
          "internalType": "contract IPowerToken",
          "name": "powerToken",
          "type": "address"
        },
        {
          "internalType": "address",
          "name": "implementation",
          "type": "address"
        }
      ],
      "name": "upgradePowerToken",
      "outputs": [],
      "stateMutability": "nonpayable",
      "type": "function"
    },
    {
      "inputs": [
        {
          "internalType": "uint256",
          "name": "tokenId",
          "type": "uint256"
        }
      ],
      "name": "withdrawInterest",
      "outputs": [],
      "stateMutability": "nonpayable",
      "type": "function"
    },
    {
      "inputs": [
        {
          "internalType": "contract IPowerToken",
          "name": "powerToken",
          "type": "address"
        },
        {
          "internalType": "uint256",
          "name": "amount",
          "type": "uint256"
        }
      ],
      "name": "wrap",
      "outputs": [
        {
          "internalType": "bool",
          "name": "",
          "type": "bool"
        }
      ],
      "stateMutability": "nonpayable",
      "type": "function"
    },
    {
      "inputs": [
        {
          "internalType": "contract IPowerToken",
          "name": "powerToken",
          "type": "address"
        },
        {
          "internalType": "address",
          "name": "to",
          "type": "address"
        },
        {
          "internalType": "uint256",
          "name": "amount",
          "type": "uint256"
        }
      ],
      "name": "wrapTo",
      "outputs": [
        {
          "internalType": "bool",
          "name": "",
          "type": "bool"
        }
      ],
      "stateMutability": "nonpayable",
      "type": "function"
    }
  ],
  "bytecode": "0x608060405234801561001057600080fd5b50615e5080620000216000396000f3fe608060405234801561001057600080fd5b50600436106102ea5760003560e01c8062ca339b146102ef5780630714012c1461030457806308669aab146104045780630cac36b2146104175780630e101b601461042c5780630ea1dc9e1461044c57806315a523021461045d5780631b9123841461047f5780631ee5be61146104925780632261b07f146104a5578063229304dc146104b65780632b2f6095146104d75780632e365ade146104ea5780632fb2067f146104fd578063375921481461052057806339f4769314610546578063449497ec146105595780634741efb31461056c578063512a53bc1461057457806351c6590a1461058757806359bf5d391461059a5780635a9b0b89146105a257806362c1f388146105c2578063644e44df146105d55780637791c42d146105e65780637b024363146105f75780637dcfeb731461060a5780637eda9ff81461061d5780638188d50d1461063057806389035b61146106455780638b3240a0146106585780638c0114b0146106605780638da5cb5b146106735780638e9fcf811461067b57806390f55edd1461068e5780639ab71193146106a15780639c7aa7f8146106b45780639c8f9f23146106c7578063a0bcfc7f146106da578063a0efd118146106ed578063a358426f14610702578063a554b26d14610715578063aebb504114610726578063b19337a41461072e578063b406bf6d14610741578063b56de97e14610762578063b96266fa14610775578063bf1708801461078a578063bf376c7a1461079b578063bf3bb1a5146107ae578063bfd84fb4146107c1578063c1fc16d8146107d4578063c20aa9bc146107e7578063c2294784146107fa578063c4d66de81461080d578063c93d0b9214610820578063df57f2fa14610831578063e912615414610866578063edc1a62814610879578063ef1f9f391461088c578063f2fde38b1461089f578063f54133bb146108b2578063faaed4ad146108c5578063fbac9a55146108d8578063fcb2884e146108fe575b600080fd5b6103026102fd3660046152a3565b610906565b005b6103ee6103123660046156b1565b6040805161010081018252600080825260208201819052918101829052606081018290526080810182905260a0810182905260c0810182905260e08101919091525060009081526010602090815260409182902082516101008101845281546001600160701b038082168352600160701b80830461ffff90811696850196909652600160801b830463ffffffff90811697850197909752600160a01b830487166060850152600160c01b830487166080850152600160e01b90920490951660a083015260019092015493841660c082015292041660e082015290565b6040516103fb9190615a8b565b60405180910390f35b6103026104123660046156b1565b6110c2565b61041f611291565b6040516103fb91906158c1565b61043f61043a3660046156b1565b611323565b6040516103fb91906157c4565b6001546001600160a01b031661043f565b61047061046b366004615120565b611361565b6040516103fb93929190615912565b61030261048d366004615120565b61155d565b6103026104a03660046154d1565b611619565b6005546001600160a01b031661043f565b6104c96104c436600461524a565b61176b565b6040519081526020016103fb565b6103026104e5366004615120565b6118c2565b6103026104f8366004615726565b611949565b61051061050b366004615120565b611a0a565b60405190151581526020016103fb565b600354600160a01b900463ffffffff165b60405163ffffffff90911681526020016103fb565b610510610554366004615386565b611a2d565b610302610567366004615697565b611ae6565b610302611b54565b610302610582366004615158565b611c25565b6103026105953660046156b1565b611eac565b6104c961201e565b6105aa612043565b6040516103fb9c9b9a999897969594939291906159e8565b6103026105d0366004615120565b612206565b6000546001600160a01b031661043f565b6007546001600160a01b031661043f565b610302610605366004615120565b6122b5565b610302610618366004615304565b61233c565b61030261062b366004615120565b612474565b600754600160a01b900463ffffffff16610531565b610510610653366004615120565b612523565b61043f61254d565b61030261066e3660046156e1565b61256e565b61043f612af3565b6103026106893660046153dc565b612b09565b61030261069c366004615120565b612c3d565b6103026106af366004615594565b612cec565b6103026106c2366004615120565b61337a565b6103026106d53660046156b1565b6134a1565b6103026106e8366004615420565b6136cc565b600754600160c01b900463ffffffff16610531565b6105106107103660046153b1565b613729565b6006546001600160a01b031661043f565b6104c9613782565b61030261073c366004615120565b613799565b600754600160e01b900461ffff1660405161ffff90911681526020016103fb565b610302610770366004615726565b613848565b61077d613908565b6040516103fb9190615837565b6004546001600160a01b031661043f565b6105106107a9366004615386565b613969565b6104c96107bc3660046156b1565b61397d565b6103026107cf366004615120565b6139c2565b6103026107e2366004615120565b613a58565b6103026107f5366004615352565b613ad9565b6103026108083660046151fe565b613be6565b61030261081b366004615120565b613ce1565b6002546001600160a01b031661043f565b61084461083f3660046156b1565b613db6565b60408051825181526020808401519082015291810151908201526060016103fb565b6103026108743660046156b1565b613e13565b610302610887366004615726565b614084565b61030261089a3660046151b4565b614134565b6103026108ad366004615120565b6141be565b6103026108c0366004615120565b6142af565b6105106108d3366004615236565b6143ce565b6108eb6108e6366004615120565b6143db565b60405160019190910b81526020016103fb565b600b546104c9565b600354604080518082019091526002815261373560f01b602082015290600160c01b900460ff16156109545760405162461bcd60e51b815260040161094b91906158c1565b60405180910390fd5b508461095f81612523565b604051806040016040528060018152602001601b60f91b815250906109975760405162461bcd60e51b815260040161094b91906158c1565b506109a185611a0a565b604051806040016040528060028152602001610d0d60f21b815250906109da5760405162461bcd60e51b815260040161094b91906158c1565b506109e58684613729565b60405180604001604052806002815260200161343560f01b81525090610a1e5760405162461bcd60e51b815260040161094b91906158c1565b506040805180820190915260028152611b9b60f11b60208201526001600160701b038516610a5f5760405162461bcd60e51b815260040161094b91906158c1565b50610a68613782565b846001600160701b03161115604051806040016040528060028152602001611a1b60f11b81525090610aad5760405162461bcd60e51b815260040161094b91906158c1565b50600080600080610ac08a8a8a8a614408565b955090935091508390506000610ad68385615b8a565b6001600160701b0316905086856001600160701b031682610af79190615bb5565b111560405180604001604052806002815260200161343760f01b81525090610b325760405162461bcd60e51b815260040161094b91906158c1565b50610b486001600160a01b038b16333084614600565b6001600160a01b03808c1660009081526012602052604090206001015482918c8116911614610ca55760055460405163095ea7b360e01b81526001600160a01b038d81169263095ea7b392610ba59290911690869060040161581e565b602060405180830381600087803b158015610bbf57600080fd5b505af1158015610bd3573d6000803e3d6000fd5b505050506040513d601f19601f82011682018060405250810190610bf79190615198565b50600560009054906101000a90046001600160a01b03166001600160a01b031663029b465d8c8460008054906101000a90046001600160a01b03166040518463ffffffff1660e01b8152600401610c5093929190615884565b602060405180830381600087803b158015610c6a57600080fd5b505af1158015610c7e573d6000803e3d6000fd5b505050506040513d601f19601f82011682018060405250810190610ca291906156c9565b90505b600082610cbb836001600160701b038816615c0c565b610cc59190615bec565b600754600054919250610ce5916001600160a01b0390811691168361465e565b8a6001600160701b0316600b6000828254610d009190615bb5565b9091555060009050610d128284615c98565b9050610d1d8161467d565b5050600254610d4a95506001600160a01b038c81169550339450169150506001600160701b038516614600565b426000610d578683615bcd565b90506000600260009054906101000a90046001600160a01b03166001600160a01b031663caa0f92a6040518163ffffffff1660e01b8152600401602060405180830381600087803b158015610dab57600080fd5b505af1158015610dbf573d6000803e3d6000fd5b505050506040513d601f19601f82011682018060405250810190610de391906156c9565b60408051610100810182526001600160701b038b1681526001600160a01b038d166000908152601260209081529083902054600160f01b900461ffff169082015263ffffffff868116928201929092528482166060820152600754929350916080830191610e5991600160a01b90041685615bcd565b63ffffffff168152602001600760189054906101000a900463ffffffff1684610e829190615bcd565b63ffffffff168152602001856001600160701b03168152602001610ea58b6143db565b61ffff9081169091526000838152601060209081526040918290208451815492860151868501516060880151608089015160a08a01516001600160701b039586166001600160801b031998891617600160701b958b16860217600160801b600160c01b031916600160801b63ffffffff9586160263ffffffff60a01b191617600160a01b93851693909302929092176001600160c01b0316600160c01b918416919091026001600160e01b031617600160e01b929091169190910217835560c08701516001909301805460e0909801519390921696909316959095179316029190911790915560025490516335313c2160e11b815282916001600160a01b031690636a62784290610fba9033906004016157c4565b602060405180830381600087803b158015610fd457600080fd5b505af1158015610fe8573d6000803e3d6000fd5b505050506040513d601f19601f8201168201806040525081019061100c91906156c9565b1461102757634e487b7160e01b600052600160045260246000fd5b6004805460405163f8642f2960e01b81529182018390526001600160a01b03169063f8642f2990602401600060405180830381600087803b15801561106b57600080fd5b505af115801561107f573d6000803e3d6000fd5b50505050896001600160a01b0316600080516020615dfb8339815191528285856040516110ae93929190615b17565b60405180910390a250505050505050505050565b600354604080518082019091526002815261373560f01b602082015290600160c01b900460ff16156111075760405162461bcd60e51b815260040161094b91906158c1565b506001546040516331a9108f60e11b815260048101839052829133916001600160a01b0390911690636352211e9060240160206040518083038186803b15801561115057600080fd5b505afa158015611164573d6000803e3d6000fd5b505050506040513d601f19601f82011682018060405250810190611188919061513c565b6001600160a01b031614604051806040016040528060018152602001603360f81b815250906111ca5760405162461bcd60e51b815260040161094b91906158c1565b506000828152601160205260408120600181015490916111e98561397d565b90506111f3613782565b811115604051806040016040528060028152602001611a1b60f11b8152509061122f5760405162461bcd60e51b815260040161094b91906158c1565b50600054611247906001600160a01b0316338361465e565b60006112568460000154614702565b6001850181905590506112698184615c98565b600d600082825461127a9190615c98565b90915550611289905082614724565b505050505050565b6060600f80546112a090615cdb565b80601f01602080910402602001604051908101604052809291908181526020018280546112cc90615cdb565b80156113195780601f106112ee57610100808354040283529160200191611319565b820191906000526020600020905b8154815290600101906020018083116112fc57829003601f168201915b5050505050905090565b60006009828154811061134657634e487b7160e01b600052603260045260246000fd5b6000918252602090912001546001600160a01b031692915050565b604080516101208101825260008082526020820181905291810182905260608181018390526080820183905260a0820183905260c0820183905260e082018390526101008201929092528190836001600160a01b03166306fdde036040518163ffffffff1660e01b815260040160006040518083038186803b1580156113e657600080fd5b505afa1580156113fa573d6000803e3d6000fd5b505050506040513d6000823e601f3d908101601f19168201604052611422919081019061545f565b846001600160a01b03166395d89b416040518163ffffffff1660e01b815260040160006040518083038186803b15801561145b57600080fd5b505afa15801561146f573d6000803e3d6000fd5b505050506040513d6000823e601f3d908101601f19168201604052611497919081019061545f565b6001600160a01b0395861660009081526012602090815260409182902082516101208101845281546001600160701b0381168252600160701b81046001600160601b031693820193909352600160d01b830463ffffffff90811694820194909452600160f01b9283900461ffff9081166060830152600190920154998a166080820152600160a01b8a04841660a0820152600160c01b8a0490931660c0840152600160e01b89041660e083015290960460ff161515610100870152909590949350915050565b33611566612af3565b6001600160a01b031614604051806040016040528060018152602001603360f81b815250906115a85760405162461bcd60e51b815260040161094b91906158c1565b506115b161254d565b6004805460405163266a23b160e21b81526001600160a01b03938416936399a88ec4936115e493909116918691016158a7565b600060405180830381600087803b1580156115fe57600080fd5b505af1158015611612573d6000803e3d6000fd5b5050505050565b600e805461162690615cdb565b6040805180820190915260018152601960f91b602082015291501561165e5760405162461bcd60e51b815260040161094b91906158c1565b5061166881613ce1565b81600080516020615dbb83398151915280546001600160a01b03929092166001600160a01b0319928316179055600380549091163317905587516116b390600e9060208b0190614f19565b506116c0600f8888614f9d565b5060078054600480546001600160a01b03199081166001600160a01b03988916179091556005805482169688169690961790955560068054939096169290941682179094556003805463ffffffff60a01b191660e160a61b179055600165ffff0000000160c01b0319909216600160e01b61ffff95909516949094026001600160c01b03191693909317176102a360a61b1763ffffffff60c01b19166102a360c71b17905550505050565b600354604080518082019091526002815261373560f01b6020820152600091600160c01b900460ff16156117b25760405162461bcd60e51b815260040161094b91906158c1565b50846117bd81612523565b604051806040016040528060018152602001601b60f91b815250906117f55760405162461bcd60e51b815260040161094b91906158c1565b506117ff85611a0a565b604051806040016040528060028152602001610d0d60f21b815250906118385760405162461bcd60e51b815260040161094b91906158c1565b506118438684613729565b60405180604001604052806002815260200161343560f01b8152509061187c5760405162461bcd60e51b815260040161094b91906158c1565b50600080600061188e89898989614408565b91945092509050806118a08385615b8a565b6118aa9190615b8a565b6001600160701b031694505050505b50949350505050565b336118cb612af3565b6001600160a01b031614604051806040016040528060018152602001603360f81b8152509061190d5760405162461bcd60e51b815260040161094b91906158c1565b5061191661254d565b60015460405163266a23b160e21b81526001600160a01b03928316926399a88ec4926115e49291169085906004016158a7565b33611952612af3565b6001600160a01b031614604051806040016040528060018152602001603360f81b815250906119945760405162461bcd60e51b815260040161094b91906158c1565b506007546040805180820190915260028152610d8d60f21b60208201529063ffffffff600160c01b909104811690831611156119e35760405162461bcd60e51b815260040161094b91906158c1565b506007805463ffffffff909216600160a01b0263ffffffff60a01b19909216919091179055565b6001600160a01b0316600090815260086020526040812054600190810b900b1390565b600082611a3981612523565b604051806040016040528060018152602001601b60f91b81525090611a715760405162461bcd60e51b815260040161094b91906158c1565b50600054604051638cc7104f60e01b81526001600160a01b0386811692638cc7104f92611aa89290911690339088906004016157d8565b600060405180830381600087803b158015611ac257600080fd5b505af1158015611ad6573d6000803e3d6000fd5b50505050600191505b5092915050565b33611aef612af3565b6001600160a01b031614604051806040016040528060018152602001603360f81b81525090611b315760405162461bcd60e51b815260040161094b91906158c1565b506007805461ffff909216600160e01b0261ffff60e01b19909216919091179055565b600354604080518082019091526002815261373560f01b602082015290600160c01b900460ff1615611b995760405162461bcd60e51b815260040161094b91906158c1565b5033611ba3612af3565b6001600160a01b031614604051806040016040528060018152602001603360f81b81525090611be55760405162461bcd60e51b815260040161094b91906158c1565b5060038054600160c01b60ff60c01b199091161790556000600b55600c8054600160701b81046001600160701b03166001600160701b0319909116179055565b600280546040805180820190915291825261333960f01b60208301526001600160a01b03163314611c695760405162461bcd60e51b815260040161094b91906158c1565b506000818152601060209081526040918290205482518084019093526002835261068760f31b918301919091526001600160701b03169081611cbe5760405162461bcd60e51b815260040161094b91906158c1565b5060008281526010602052604081205460138054600160a01b830463ffffffff164211936001600160a01b03898116159490891615939192600160701b90910461ffff16908110611d1f57634e487b7160e01b600052603260045260246000fd5b6000918252602090912001546001600160a01b031690508115611da15760405163079cc67960e41b81526001600160a01b038216906379cc679090611d6a908b9089906004016157fc565b600060405180830381600087803b158015611d8457600080fd5b505af1158015611d98573d6000803e3d6000fd5b50505050611ea2565b8215611dd5576040516340c10f1960e01b81526001600160a01b038216906340c10f1990611d6a908a9089906004016157fc565b83611e72576040516333bebb7760e01b81526001600160a01b03898116600483015288811660248301526001600160701b03871660448301528216906333bebb7790606401602060405180830381600087803b158015611e3457600080fd5b505af1158015611e48573d6000803e3d6000fd5b505050506040513d601f19601f82011682018060405250810190611e6c9190615198565b50611ea2565b60408051808201825260028152611a9960f11b6020820152905162461bcd60e51b815261094b91906004016158c1565b5050505050505050565b600354604080518082019091526002815261373560f01b602082015290600160c01b900460ff1615611ef15760405162461bcd60e51b815260040161094b91906158c1565b50600054611f0a906001600160a01b0316333084614600565b6000600d54600014611f2457611f1f82614702565b611f26565b815b905081600a6000828254611f3a9190615bb5565b90915550506001546040516335313c2160e11b81526000916001600160a01b031690636a62784290611f709033906004016157c4565b602060405180830381600087803b158015611f8a57600080fd5b505af1158015611f9e573d6000803e3d6000fd5b505050506040513d601f19601f82011682018060405250810190611fc291906156c9565b6040805160608101825285815260208082018681524383850190815260008681526011909352938220925183555160018301559151600290910155600d80549293508492909190612014908490615bb5565b9091555050505050565b600061202861476e565b6001600160701b0316600a5461203e9190615bb5565b905090565b600d54600354600754600a54600b54600c54600e805460609788976000978897889788978897889788978897889788979496600f96939563ffffffff600160a01b94859004811696948404811695600160c01b850482169561ffff600160e01b9687900416959394936001600160701b0380841694600160701b8504909116939190910416908c906120d490615cdb565b80601f016020809104026020016040519081016040528092919081815260200182805461210090615cdb565b801561214d5780601f106121225761010080835404028352916020019161214d565b820191906000526020600020905b81548152906001019060200180831161213057829003601f168201915b50505050509b508a805461216090615cdb565b80601f016020809104026020016040519081016040528092919081815260200182805461218c90615cdb565b80156121d95780601f106121ae576101008083540402835291602001916121d9565b820191906000526020600020905b8154815290600101906020018083116121bc57829003601f168201915b50505050509a509b509b509b509b509b509b509b509b509b509b509b509b50909192939495969798999a9b565b3361220f612af3565b6001600160a01b031614604051806040016040528060018152602001603360f81b815250906122515760405162461bcd60e51b815260040161094b91906158c1565b50604080518082019091526002815261363160f01b60208201526001600160a01b0382166122925760405162461bcd60e51b815260040161094b91906158c1565b50600680546001600160a01b0319166001600160a01b0392909216919091179055565b336122be612af3565b6001600160a01b031614604051806040016040528060018152602001603360f81b815250906123005760405162461bcd60e51b815260040161094b91906158c1565b5061230961254d565b60025460405163266a23b160e21b81526001600160a01b03928316926399a88ec4926115e49291169085906004016158a7565b33612345612af3565b6001600160a01b031614604051806040016040528060018152602001603360f81b815250906123875760405162461bcd60e51b815260040161094b91906158c1565b508361239281612523565b604051806040016040528060018152602001601b60f91b815250906123ca5760405162461bcd60e51b815260040161094b91906158c1565b5060408051808201909152600281526106c760f31b60208201526001600160a01b03841661240b5760405162461bcd60e51b815260040161094b91906158c1565b50506001600160a01b0393841660009081526012602052604090208054600182018054949096166001600160a01b0319909416939093179094556001600160601b0316600160701b026001600160d01b03199091166001600160701b0390921691909117179055565b3361247d612af3565b6001600160a01b031614604051806040016040528060018152602001603360f81b815250906124bf5760405162461bcd60e51b815260040161094b91906158c1565b50604080518082019091526002815261036360f41b60208201526001600160a01b0382166125005760405162461bcd60e51b815260040161094b91906158c1565b50600480546001600160a01b0319166001600160a01b0392909216919091179055565b6001600160a01b0316600090815260126020526040902054600160d01b900463ffffffff16151590565b6000600080516020615dbb8339815191525b546001600160a01b0316919050565b600354604080518082019091526002815261373560f01b602082015290600160c01b900460ff16156125b35760405162461bcd60e51b815260040161094b91906158c1565b506125bd83611a0a565b604051806040016040528060028152602001610d0d60f21b815250906125f65760405162461bcd60e51b815260040161094b91906158c1565b50600084815260106020908152604091829020805483518085019094526002845261068760f31b9284019290925291906001600160701b031661264c5760405162461bcd60e51b815260040161094b91906158c1565b50805460138054600092600160701b900461ffff1690811061267e57634e487b7160e01b600052603260045260246000fd5b6000918252602090912001546001600160a01b0316905061269f8185613729565b60405180604001604052806002815260200161343560f01b815250906126d85760405162461bcd60e51b815260040161094b91906158c1565b50815442906126f5908690600160a01b900463ffffffff16615bcd565b63ffffffff16101560405180604001604052806002815260200161343960f01b815250906127365760405162461bcd60e51b815260040161094b91906158c1565b508154600b80546001600160701b0390921691600090612757908490615c98565b90915550508154600090819061277a90849089906001600160701b031689614408565b508554600b80546001600160701b039092169091019055909250905060006127a28284615b8a565b6001600160701b031690508581111560405180604001604052806002815260200161343760f01b815250906127ea5760405162461bcd60e51b815260040161094b91906158c1565b506128006001600160a01b038916333084614600565b6001600160a01b0380851660009081526012602052604090206001015482918a811691161461293c5760055460405163095ea7b360e01b81526001600160a01b038b81169263095ea7b39261285d9290911690869060040161581e565b602060405180830381600087803b15801561287757600080fd5b505af115801561288b573d6000803e3d6000fd5b505050506040513d601f19601f820116820180604052508101906128af9190615198565b5060055460005460405163029b465d60e01b81526001600160a01b039283169263029b465d926128e7928e9288921690600401615884565b602060405180830381600087803b15801561290157600080fd5b505af1158015612915573d6000803e3d6000fd5b505050506040513d601f19601f8201168201806040525081019061293991906156c9565b90505b600082612952836001600160701b038716615c0c565b61295c9190615bec565b60075460005491925061297c916001600160a01b0390811691168361465e565b60006129888284615c98565b90506129938161467d565b8754600160a01b900463ffffffff166129ac8b82615bcd565b895463ffffffff60a01b1916600160a01b63ffffffff928316810291909117808c556007546129e5939083900481169290910416615bcd565b895463ffffffff60c01b1916600160c01b63ffffffff928316810291909117808c55600754612a2293929004821691600160a01b90910416615bcd565b895463ffffffff91909116600160e01b026001600160e01b039091161789556004805460405163f8642f2960e01b81529182018f90526001600160a01b03169063f8642f2990602401600060405180830381600087803b158015612a8557600080fd5b505af1158015612a99573d6000803e3d6000fd5b50505050876001600160a01b0316600080516020615dfb8339815191528e838c60000160149054906101000a900463ffffffff16604051612adc93929190615b17565b60405180910390a250505050505050505050505050565b6000600080516020615d9b83398151915261255f565b33612b12612af3565b6001600160a01b031614604051806040016040528060018152602001603360f81b81525090612b545760405162461bcd60e51b815260040161094b91906158c1565b5082612b5f81612523565b604051806040016040528060018152602001601b60f91b81525090612b975760405162461bcd60e51b815260040161094b91906158c1565b508163ffffffff168363ffffffff16111560405180604001604052806002815260200161363960f01b81525090612be15760405162461bcd60e51b815260040161094b91906158c1565b50506001600160a01b039290921660009081526012602052604090206001018054600160a01b600160e01b031916600160a01b63ffffffff9384160263ffffffff60c01b191617600160c01b9290931691909102919091179055565b33612c46612af3565b6001600160a01b031614604051806040016040528060018152602001603360f81b81525090612c885760405162461bcd60e51b815260040161094b91906158c1565b506040805180820190915260028152611b1960f11b60208201526001600160a01b038216612cc95760405162461bcd60e51b815260040161094b91906158c1565b50600780546001600160a01b0319166001600160a01b0392909216919091179055565b33612cf5612af3565b6001600160a01b031614604051806040016040528060018152602001603360f81b81525090612d375760405162461bcd60e51b815260040161094b91906158c1565b50600354604080518082019091526002815261373560f01b602082015290600160c01b900460ff1615612d7d5760405162461bcd60e51b815260040161094b91906158c1565b50604080518082019091526002815261034360f41b60208201526001600160a01b038716612dbe5760405162461bcd60e51b815260040161094b91906158c1565b50601354604080518082019091526002815261343160f01b60208201529061ffff11612dfd5760405162461bcd60e51b815260040161094b91906158c1565b508263ffffffff168463ffffffff161115604051806040016040528060028152602001611a1960f11b81525090612e475760405162461bcd60e51b815260040161094b91906158c1565b50604080518082019091526002815261343360f01b602082015263ffffffff8916612e855760405162461bcd60e51b815260040161094b91906158c1565b50604080518082019091526002815261363760f01b602082015261138861ffff87161115612ec65760405162461bcd60e51b815260040161094b91906158c1565b506003546000906001600160a01b031663c31011cc612ee361254d565b6040518263ffffffff1660e01b8152600401612eff91906157c4565b602060405180830381600087803b158015612f1957600080fd5b505af1158015612f2d573d6000803e3d6000fd5b505050506040513d601f19601f82011682018060405250810190612f51919061513c565b905060008060009054906101000a90046001600160a01b03166001600160a01b03166395d89b416040518163ffffffff1660e01b815260040160006040518083038186803b158015612fa257600080fd5b505afa158015612fb6573d6000803e3d6000fd5b505050506040513d6000823e601f3d908101601f19168201604052612fde919081019061545f565b90506000818c604051602001612ff5929190615788565b6040516020818303038152906040529050826001600160a01b031663077f224a8e83306040518463ffffffff1660e01b8152600401613036939291906158d4565b600060405180830381600087803b15801561305057600080fd5b505af1158015613064573d6000803e3d6000fd5b505050506040518061012001604052808b6001600160701b03168152602001866001600160601b031681526020018c63ffffffff16815260200160138054905061ffff1681526020018a6001600160a01b031681526020018863ffffffff1681526020018763ffffffff1681526020018961ffff16815260200185151581525060126000856001600160a01b03166001600160a01b0316815260200190815260200160002060008201518160000160006101000a8154816001600160701b0302191690836001600160701b03160217905550602082015181600001600e6101000a8154816001600160601b0302191690836001600160601b03160217905550604082015181600001601a6101000a81548163ffffffff021916908363ffffffff160217905550606082015181600001601e6101000a81548161ffff021916908361ffff16021790555060808201518160010160006101000a8154816001600160a01b0302191690836001600160a01b0316021790555060a08201518160010160146101000a81548163ffffffff021916908363ffffffff16021790555060c08201518160010160186101000a81548163ffffffff021916908363ffffffff16021790555060e082015181600101601c6101000a81548161ffff021916908361ffff16021790555061010082015181600101601e6101000a81548160ff0219169083151502179055509050506013839080600181540180825580915050600190039060005260206000200160009091909190916101000a8154816001600160a01b0302191690836001600160a01b03160217905550600460009054906101000a90046001600160a01b03166001600160a01b031663508ee32c846040518263ffffffff1660e01b81526004016132f991906157c4565b600060405180830381600087803b15801561331357600080fd5b505af1158015613327573d6000803e3d6000fd5b50506040805163ffffffff8f1681526001600160701b038e1660208201526001600160a01b03871693507f18706585e986f622c9d914abfb256d563b9ea274cd5d49124e0518aa314b8c12925001612adc565b33613383612af3565b6001600160a01b031614604051806040016040528060018152602001603360f81b815250906133c55760405162461bcd60e51b815260040161094b91906158c1565b506001600160a01b03811660009081526008602090815260409182902054825180840190935260028352611b9960f11b91830191909152600190810b900b6134205760405162461bcd60e51b815260040161094b91906158c1565b506001600160a01b038116600090815260086020526040812054600190810b900b131561349e576001600160a01b03811660009081526008602052604090205461346c9060010b615d16565b6001600160a01b0382166000908152600860205260409020805460019290920b61ffff1661ffff199092169190911790555b50565b6001546040516331a9108f60e11b815260048101839052829133916001600160a01b0390911690636352211e9060240160206040518083038186803b1580156134e957600080fd5b505afa1580156134fd573d6000803e3d6000fd5b505050506040513d601f19601f82011682018060405250810190613521919061513c565b6001600160a01b031614604051806040016040528060018152602001603360f81b815250906135635760405162461bcd60e51b815260040161094b91906158c1565b5060006011600084815260200190815260200160002090504381600201541060405180604001604052806002815260200161035360f41b815250906135bb5760405162461bcd60e51b815260040161094b91906158c1565b50600181015460006135cc826147d6565b90506135d6613782565b811115604051806040016040528060028152602001611a1b60f11b815250906136125760405162461bcd60e51b815260040161094b91906158c1565b50600154604051630852cd8d60e31b8152600481018790526001600160a01b03909116906342966c6890602401600060405180830381600087803b15801561365957600080fd5b505af115801561366d573d6000803e3d6000fd5b505060005461368992506001600160a01b03169050338361465e565b81600d600082825461369b9190615c98565b909155506136aa905081614724565b5050506000918252506011602052604081208181556001810182905560020155565b336136d5612af3565b6001600160a01b031614604051806040016040528060018152602001603360f81b815250906137175760405162461bcd60e51b815260040161094b91906158c1565b50613724600f8383614f9d565b505050565b6001600160a01b0382166000908152601260205260408120600181015463ffffffff808516600160a01b909204161180159061377a5750600181015463ffffffff600160c01b909104811690841611155b949350505050565b6000600b5461378f61201e565b61203e9190615c98565b336137a2612af3565b6001600160a01b031614604051806040016040528060018152602001603360f81b815250906137e45760405162461bcd60e51b815260040161094b91906158c1565b50604080518082019091526002815261363360f01b60208201526001600160a01b0382166138255760405162461bcd60e51b815260040161094b91906158c1565b50600580546001600160a01b0319166001600160a01b0392909216919091179055565b33613851612af3565b6001600160a01b031614604051806040016040528060018152602001603360f81b815250906138935760405162461bcd60e51b815260040161094b91906158c1565b50600754604080518082019091526002815261363560f01b60208201529063ffffffff808416600160a01b9092041611156138e15760405162461bcd60e51b815260040161094b91906158c1565b506007805463ffffffff909216600160c01b0263ffffffff60c01b19909216919091179055565b6060601380548060200260200160405190810160405280929190818152602001828054801561131957602002820191906000526020600020905b81546001600160a01b03168152600190910190602001808311613942575050505050905090565b60006139768333846147ee565b9392505050565b60008181526011602052604081206001810154829061399b906147d6565b82549091508111156139b85781546139b39082615c98565b61377a565b6000949350505050565b336139cb612af3565b6001600160a01b031614604051806040016040528060018152602001603360f81b81525090613a0d5760405162461bcd60e51b815260040161094b91906158c1565b50604080518082019091526002815261373160f01b60208201526001600160a01b038216613a4e5760405162461bcd60e51b815260040161094b91906158c1565b5061349e8161491b565b33613a61612af3565b6001600160a01b031614604051806040016040528060018152602001603360f81b81525090613aa35760405162461bcd60e51b815260040161094b91906158c1565b50613aac61254d565b6001600160a01b03166399a88ec430836040518363ffffffff1660e01b81526004016115e49291906158a7565b33613ae2612af3565b6001600160a01b031614604051806040016040528060018152602001603360f81b81525090613b245760405162461bcd60e51b815260040161094b91906158c1565b5081613b2f81612523565b604051806040016040528060018152602001601b60f91b81525090613b675760405162461bcd60e51b815260040161094b91906158c1565b50604080518082019091526002815261363760f01b602082015261138861ffff84161115613ba85760405162461bcd60e51b815260040161094b91906158c1565b50506001600160a01b039091166000908152601260205260409020600101805461ffff909216600160e01b0261ffff60e01b19909216919091179055565b33613bef612af3565b6001600160a01b031614604051806040016040528060018152602001603360f81b81525090613c315760405162461bcd60e51b815260040161094b91906158c1565b5081613c3c81612523565b604051806040016040528060018152602001601b60f91b81525090613c745760405162461bcd60e51b815260040161094b91906158c1565b50613c7d61254d565b6001600160a01b03166399a88ec484846040518363ffffffff1660e01b8152600401613caa9291906158a7565b600060405180830381600087803b158015613cc457600080fd5b505af1158015613cd8573d6000803e3d6000fd5b50505050505050565b6000613ceb612af3565b6001600160a01b031614604051806040016040528060018152602001601960f91b81525090613d2d5760405162461bcd60e51b815260040161094b91906158c1565b50604080518082019091526002815261373360f01b60208201526001600160a01b038216613d6e5760405162461bcd60e51b815260040161094b91906158c1565b50600080516020615d9b83398151915280546001600160a01b0319166001600160a01b038316908117909155604051600090600080516020615ddb833981519152908290a350565b613dda60405180606001604052806000815260200160008152602001600081525090565b50600090815260116020908152604091829020825160608101845281548152600182015492810192909252600201549181019190915290565b600081815260106020908152604091829020805483518085019094526002845261068760f31b9284019290925291906001600160701b0316613e685760405162461bcd60e51b815260040161094b91906158c1565b506002546040516331a9108f60e11b8152600481018490526000916001600160a01b031690636352211e9060240160206040518083038186803b158015613eae57600080fd5b505afa158015613ec2573d6000803e3d6000fd5b505050506040513d601f19601f82011682018060405250810190613ee6919061513c565b8254909150429063ffffffff808316600160c01b909204161080613f125750336001600160a01b038316145b60405180604001604052806002815260200161353360f01b81525090613f4b5760405162461bcd60e51b815260040161094b91906158c1565b50825463ffffffff808316600160e01b909204161080613f735750336001600160a01b038316145b80613f8857506006546001600160a01b031633145b604051806040016040528060028152602001610d4d60f21b81525090613fc15760405162461bcd60e51b815260040161094b91906158c1565b50600354600160c01b900460ff16613ff9578254600b80546001600160701b0390921691600090613ff3908490615c98565b90915550505b600254604051633f34d4cf60e21b8152600481018690523360248201526001600160a01b039091169063fcd3533c90604401600060405180830381600087803b15801561404557600080fd5b505af1158015614059573d6000803e3d6000fd5b50505060009485525050601060205250506040812090815560010180546001600160801b0319169055565b3361408d612af3565b6001600160a01b031614604051806040016040528060018152602001603360f81b815250906140cf5760405162461bcd60e51b815260040161094b91906158c1565b506040805180820190915260028152611b1b60f11b602082015263ffffffff821661410d5760405162461bcd60e51b815260040161094b91906158c1565b506003805463ffffffff909216600160a01b0263ffffffff60a01b19909216919091179055565b6000546040805180820190915260018152601960f91b6020820152906001600160a01b0316156141775760405162461bcd60e51b815260040161094b91906158c1565b50600080546001600160a01b038086166001600160a01b0319928316179092556001805485841690831617905560028054928416929091169190911790556137248361491b565b336141c7612af3565b6001600160a01b031614604051806040016040528060018152602001603360f81b815250906142095760405162461bcd60e51b815260040161094b91906158c1565b50604080518082019091526002815261373360f01b60208201526001600160a01b03821661424a5760405162461bcd60e51b815260040161094b91906158c1565b50806001600160a01b031661425d612af3565b6001600160a01b0316600080516020615ddb83398151915260405160405180910390a3600080516020615d9b83398151915280546001600160a01b0319166001600160a01b0392909216919091179055565b336142b8612af3565b6001600160a01b031614604051806040016040528060018152602001603360f81b815250906142fa5760405162461bcd60e51b815260040161094b91906158c1565b508061430581612523565b604051806040016040528060018152602001601b60f91b8152509061433d5760405162461bcd60e51b815260040161094b91906158c1565b506001600160a01b0382166000908152601260209081526040918290206001015482518084019093526002835261037360f41b91830191909152600160f01b900460ff161561439f5760405162461bcd60e51b815260040161094b91906158c1565b50506001600160a01b03166000908152601260205260409020600101805460ff60f01b1916600160f01b179055565b600061377a8484846147ee565b6001600160a01b03811660009081526008602052604081205461440290600190810b615c2b565b92915050565b60048054604051630641977d60e21b81526001600160a01b03878116938201939093526001600160701b038516602482015263ffffffff84166044820152600092839283928392909116906319065df49060640160206040518083038186803b15801561447457600080fd5b505afa158015614488573d6000803e3d6000fd5b505050506040513d601f19601f820116820180604052508101906144ac919061567b565b6001600160a01b03891660009081526012602052604081206001015491925090612710906144ee90600160e01b900461ffff166001600160701b038516615c0c565b6144f89190615bec565b6005546001600160a01b038b81166000908152601260205260408082206001015490516314fdc96760e11b815290831660048201526001600160701b03871660248201528c83166044820152939450929116906329fb92ce9060640160206040518083038186803b15801561456c57600080fd5b505afa158015614580573d6000803e3d6000fd5b505050506040513d601f19601f820116820180604052508101906145a491906156c9565b9050826001600160701b031681836001600160701b03166145c59190615c0c565b6145cf9190615bec565b94506145e46001600160701b03861682615c98565b95506145f18a8a8a6149fe565b93505050509450945094915050565b614658846323b872dd60e01b858585604051602401614621939291906157d8565b60408051601f198184030181529190526020810180516001600160e01b03166001600160e01b031990931692909217909152614b15565b50505050565b6137248363a9059cbb60e01b848460405160240161462192919061581e565b61468561476e565b600c80546001600160701b0319166001600160701b03928316178082558392600e916146ba918591600160701b900416615b8a565b92506101000a8154816001600160701b0302191690836001600160701b0316021790555042600c601c6101000a81548163ffffffff021916908363ffffffff16021790555050565b600061470c61201e565b82600d5461471a9190615c0c565b6144029190615bec565b80600a541061473957600a8054829003905550565b6000614743614be7565b6001600160701b031690508181600a5461475d9190615bb5565b6147679190615c98565b600a555050565b600c546000906147b99063ffffffff600160e01b820416906147a3906001600160701b0380821691600160701b900416615c70565b600354600160a01b900463ffffffff1642614c6d565b600c5461203e9190600160701b90046001600160701b0316615c70565b6000600d54826147e461201e565b61471a9190615c0c565b600354604080518082019091526002815261373560f01b6020820152600091600160c01b900460ff16156148355760405162461bcd60e51b815260040161094b91906158c1565b506001600160a01b03841660009081526012602090815260409182902060019081015483518085019094526002845261353160f01b92840192909252600160f01b90910460ff1615151461489c5760405162461bcd60e51b815260040161094b91906158c1565b5060005460405163a1571a5760e01b81526001600160a01b0391821660048201523360248201528482166044820152606481018490529085169063a1571a5790608401600060405180830381600087803b1580156148f957600080fd5b505af115801561490d573d6000803e3d6000fd5b506001979650505050505050565b6001600160a01b038116600090815260086020526040902054600190810b900b6149b35760098054600180820183557f6e1540171b6c0c960b71a7020d9f60077f6af931a8bbf590da0223dacf75c7af90910180546001600160a01b0319166001600160a01b039490941693841790559054600092835260086020526040909220805461ffff191661ffff9390920b92909216179055565b6001600160a01b038116600090815260086020526040812054600190810b900b121561349e576001600160a01b03811660009081526008602052604090205461346c9060010b615d16565b600754600090819061271090614a2890600160e01b900461ffff166001600160701b038616615c0c565b614a329190615bec565b6005546001600160a01b038781166000908152601260205260408082206001810154905491516314fdc96760e11b81529084166004820152600160701b9091046001600160601b031660248201528883166044820152939450929116906329fb92ce9060640160206040518083038186803b158015614ab057600080fd5b505afa158015614ac4573d6000803e3d6000fd5b505050506040513d601f19601f82011682018060405250810190614ae891906156c9565b9050806001600160701b0316826001600160701b031610614b095781614b0b565b805b9695505050505050565b6000614b6a826040518060400160405280602081526020017f5361666545524332303a206c6f772d6c6576656c2063616c6c206661696c6564815250856001600160a01b0316614e0e9092919063ffffffff16565b8051909150156137245780806020019051810190614b889190615198565b6137245760405162461bcd60e51b815260206004820152602a60248201527f5361666545524332303a204552433230206f7065726174696f6e20646964206e6044820152691bdd081cdd58d8d9595960b21b606482015260840161094b565b6000614bf161476e565b600c80546001600160701b0319168082559192508291600e90614c25908490600160701b90046001600160701b0316615c70565b92506101000a8154816001600160701b0302191690836001600160701b0316021790555042600c601c6101000a81548163ffffffff021916908363ffffffff16021790555090565b60008463ffffffff168263ffffffff161015604051806040016040528060018152602001600760fb1b81525090614cb75760405162461bcd60e51b815260040161094b91906158c1565b5084820391508263ffffffff168263ffffffff1681614ce657634e487b7160e01b600052601260045260246000fd5b0463ffffffff16846001600160701b0316901c93508263ffffffff168263ffffffff1681614d2457634e487b7160e01b600052601260045260246000fd5b06915063ffffffff82161580614d4157506001600160701b038416155b15614d4d57508261377a565b60006001600160701b0385168163ffffffff86811690861671b17217f7d1cf79abc9e3b39803f2f6af40f30281614d9457634e487b7160e01b600052601260045260246000fd5b049050600160901b5b8215614e0157928201928082840281614dc657634e487b7160e01b600052601260045260246000fd5b0493849003939250600160901b018082840281614df357634e487b7160e01b600052601260045260246000fd5b049250600160901b01614d9d565b5091979650505050505050565b606061377a848460008585843b614e675760405162461bcd60e51b815260206004820152601d60248201527f416464726573733a2063616c6c20746f206e6f6e2d636f6e7472616374000000604482015260640161094b565b600080866001600160a01b03168587604051614e83919061576c565b60006040518083038185875af1925050503d8060008114614ec0576040519150601f19603f3d011682016040523d82523d6000602084013e614ec5565b606091505b5091509150614ed5828286614ee0565b979650505050505050565b60608315614eef575081613976565b825115614eff5782518084602001fd5b8160405162461bcd60e51b815260040161094b91906158c1565b828054614f2590615cdb565b90600052602060002090601f016020900481019282614f475760008555614f8d565b82601f10614f6057805160ff1916838001178555614f8d565b82800160010185558215614f8d579182015b82811115614f8d578251825591602001919060010190614f72565b50614f99929150615011565b5090565b828054614fa990615cdb565b90600052602060002090601f016020900481019282614fcb5760008555614f8d565b82601f10614fe45782800160ff19823516178555614f8d565b82800160010185558215614f8d579182015b82811115614f8d578235825591602001919060010190614ff6565b5b80821115614f995760008155600101615012565b803561503181615d77565b919050565b803561503181615d62565b60008083601f840112615052578182fd5b5081356001600160401b03811115615068578182fd5b60208301915083602082850101111561508057600080fd5b9250929050565b600082601f830112615097578081fd5b81356150aa6150a582615b63565b615b33565b8181528460208386010111156150be578283fd5b816020850160208301379081016020019190915292915050565b803561503181615d85565b803561ffff8116811461503157600080fd5b803563ffffffff8116811461503157600080fd5b80356001600160601b038116811461503157600080fd5b600060208284031215615131578081fd5b813561397681615d62565b60006020828403121561514d578081fd5b815161397681615d62565b60008060006060848603121561516c578182fd5b833561517781615d62565b9250602084013561518781615d62565b929592945050506040919091013590565b6000602082840312156151a9578081fd5b815161397681615d77565b6000806000606084860312156151c8578283fd5b83356151d381615d62565b925060208401356151e381615d62565b915060408401356151f381615d62565b809150509250925092565b60008060408385031215615210578182fd5b823561521b81615d62565b9150602083013561522b81615d62565b809150509250929050565b60008060006060848603121561516c578081fd5b6000806000806080858703121561525f578182fd5b843561526a81615d62565b9350602085013561527a81615d62565b9250604085013561528a81615d85565b9150615298606086016150f5565b905092959194509250565b600080600080600060a086880312156152ba578283fd5b85356152c581615d62565b945060208601356152d581615d62565b935060408601356152e581615d85565b92506152f3606087016150f5565b949793965091946080013592915050565b60008060008060808587031215615319578182fd5b843561532481615d62565b9350602085013561533481615d85565b9250604085013561534481615d62565b915061529860608601615109565b60008060408385031215615364578182fd5b823561536f81615d62565b915061537d602084016150e3565b90509250929050565b60008060408385031215615398578182fd5b82356153a381615d62565b946020939093013593505050565b600080604083850312156153c3578182fd5b82356153ce81615d62565b915061537d602084016150f5565b6000806000606084860312156153f0578081fd5b83356153fb81615d62565b9250615409602085016150f5565b9150615417604085016150f5565b90509250925092565b60008060208385031215615432578182fd5b82356001600160401b03811115615447578283fd5b61545385828601615041565b90969095509350505050565b600060208284031215615470578081fd5b81516001600160401b03811115615485578182fd5b8201601f81018413615495578182fd5b80516154a36150a582615b63565b8181528560208385010111156154b7578384fd5b6154c8826020830160208601615caf565b95945050505050565b60008060008060008060008060e0898b0312156154ec578586fd5b88356001600160401b0380821115615502578788fd5b61550e8c838d01615087565b995060208b0135915080821115615523578788fd5b506155308b828c01615041565b9098509650615543905060408a016150e3565b9450606089013561555381615d62565b9350608089013561556381615d62565b925060a089013561557381615d62565b915060c089013561558381615d62565b809150509295985092959890939650565b6000806000806000806000806000806101408b8d0312156155b3578384fd5b8a356001600160401b03808211156155c9578586fd5b6155d58e838f01615087565b9b5060208d01359150808211156155ea578586fd5b506155f78d828e01615087565b99505061560660408c016150f5565b975061561460608c016150d8565b965061562260808c01615036565b955061563060a08c016150e3565b945061563e60c08c016150f5565b935061564c60e08c016150f5565b925061565b6101008c01615109565b915061566a6101208c01615026565b90509295989b9194979a5092959850565b60006020828403121561568c578081fd5b815161397681615d85565b6000602082840312156156a8578081fd5b613976826150e3565b6000602082840312156156c2578081fd5b5035919050565b6000602082840312156156da578081fd5b5051919050565b600080600080608085870312156156f6578182fd5b84359350602085013561570881615d62565b9250615716604086016150f5565b9396929550929360600135925050565b600060208284031215615737578081fd5b613976826150f5565b60008151808452615758816020860160208601615caf565b601f01601f19169290920160200192915050565b6000825161577e818460208701615caf565b9190910192915050565b6000835161579a818460208801615caf565b600160fd1b90830190815283516157b8816001840160208801615caf565b01600101949350505050565b6001600160a01b0391909116815260200190565b6001600160a01b039384168152919092166020820152604081019190915260600190565b6001600160a01b039290921682526001600160701b0316602082015260400190565b6001600160a01b03929092168252602082015260400190565b6020808252825182820181905260009190848201906040850190845b818110156158785783516001600160a01b031683529284019291840191600101615853565b50909695505050505050565b6001600160a01b0393841681526020810192909252909116604082015260600190565b6001600160a01b0392831681529116602082015260400190565b6020815260006139766020830184615740565b6060815260006158e76060830186615740565b82810360208401526158f98186615740565b91505060018060a01b0383166040830152949350505050565b600061016080835261592681840187615740565b9050828103602084015261593a8186615740565b84516001600160701b031660408581019190915260208601516001600160601b0316606086015285015163ffffffff81166080860152909250905050606083015161ffff811660a08401525060808301516001600160a01b03811660c08401525060a083015163ffffffff811660e08401525060c08301516101006159c68185018363ffffffff169052565b60e085015161ffff1661012085015284015180151561014085015290506118b9565b610180815260006159fd61018083018f615740565b8281036020840152615a0f818f615740565b604084018e905263ffffffff8d811660608601528c811660808601528b1660a085015261ffff8a1660c085015260e0840189905261010084018890526001600160701b0387811661012086015286166101408501529150615a6d9050565b63ffffffff83166101608301529d9c50505050505050505050505050565b81516001600160701b0316815260208083015161ffff169082015260408083015163ffffffff9081169183019190915260608084015182169083015260808084015182169083015260a080840151918216908301526101008201905060c0830151615b0160c08401826001600160701b03169052565b5060e0830151611adf60e084018261ffff169052565b92835263ffffffff918216602084015216604082015260600190565b604051601f8201601f191681016001600160401b0381118282101715615b5b57615b5b615d4c565b604052919050565b60006001600160401b03821115615b7c57615b7c615d4c565b50601f01601f191660200190565b60006001600160701b03828116848216808303821115615bac57615bac615d36565b01949350505050565b60008219821115615bc857615bc8615d36565b500190565b600063ffffffff808316818516808303821115615bac57615bac615d36565b600082615c0757634e487b7160e01b81526012600452602481fd5b500490565b6000816000190483118215151615615c2657615c26615d36565b500290565b60008160010b8360010b82811281617fff1901831281151615615c5057615c50615d36565b81617fff018313811615615c6657615c66615d36565b5090039392505050565b60006001600160701b0383811690831681811015615c9057615c90615d36565b039392505050565b600082821015615caa57615caa615d36565b500390565b60005b83811015615cca578181015183820152602001615cb2565b838111156146585750506000910152565b600181811c90821680615cef57607f821691505b60208210811415615d1057634e487b7160e01b600052602260045260246000fd5b50919050565b60008160010b617fff19811415615d2f57615d2f615d36565b9003919050565b634e487b7160e01b600052601160045260246000fd5b634e487b7160e01b600052604160045260246000fd5b6001600160a01b038116811461349e57600080fd5b801515811461349e57600080fd5b6001600160701b038116811461349e57600080fdfe4f471908b72bb76dae5bd24599026e7bf3ddb256497722888ffa422f83729eded1248cccb5fef9131c731321e43e9a924840ffee7dc68c7d1d3e5cb7dedcae038be0079c531659141344cd1fd0a4f28419497f9722a3daafe3b4186f6b6457e09853650269815e203c5c9e228db9ca05cc6037f2c2723c94ed3260cf98324c99a2646970667358221220b87ce987ba67bceb2116251c3895e4e269d3d8f6c3f096ad1e0737d12554343d64736f6c63430008040033",
  "linkReferences": {},
  "deployedLinkReferences": {}
}