{
  "_format": "hh-sol-artifact-1",
  "contractName": "Enterprise",
  "sourceName": "contracts/Enterprise.sol",
  "abi": [
    {
      "anonymous": false,
      "inputs": [
        {
          "indexed": false,
          "internalType": "string",
          "name": "baseUri",
          "type": "string"
        }
      ],
      "name": "BaseUriChanged",
      "type": "event"
    },
    {
      "anonymous": false,
      "inputs": [
        {
          "indexed": false,
          "internalType": "uint256",
          "name": "pole",
          "type": "uint256"
        },
        {
          "indexed": false,
          "internalType": "uint256",
          "name": "slope",
          "type": "uint256"
        }
      ],
      "name": "BondingChanged",
      "type": "event"
    },
    {
      "anonymous": false,
      "inputs": [
        {
          "indexed": true,
          "internalType": "uint256",
          "name": "borrowTokenId",
          "type": "uint256"
        },
        {
          "indexed": true,
          "internalType": "address",
          "name": "borrower",
          "type": "address"
        },
        {
          "indexed": true,
          "internalType": "address",
          "name": "powerToken",
          "type": "address"
        },
        {
          "indexed": false,
          "internalType": "address",
          "name": "paymentToken",
          "type": "address"
        },
        {
          "indexed": false,
          "internalType": "uint112",
          "name": "amount",
          "type": "uint112"
        },
        {
          "indexed": false,
          "internalType": "uint112",
          "name": "interest",
          "type": "uint112"
        },
        {
          "indexed": false,
          "internalType": "uint112",
          "name": "serviceFee",
          "type": "uint112"
        },
        {
          "indexed": false,
          "internalType": "uint112",
          "name": "gcFee",
          "type": "uint112"
        },
        {
          "indexed": false,
          "internalType": "uint32",
          "name": "borrowingTime",
          "type": "uint32"
        },
        {
          "indexed": false,
          "internalType": "uint32",
          "name": "maturityTime",
          "type": "uint32"
        },
        {
          "indexed": false,
          "internalType": "uint32",
          "name": "borrowerReturnGraceTime",
          "type": "uint32"
        },
        {
          "indexed": false,
          "internalType": "uint32",
          "name": "enterpriseCollectGraceTime",
          "type": "uint32"
        },
        {
          "indexed": false,
          "internalType": "uint256",
          "name": "reserve",
          "type": "uint256"
        },
        {
          "indexed": false,
          "internalType": "uint256",
          "name": "usedReserve",
          "type": "uint256"
        }
      ],
      "name": "Borrowed",
      "type": "event"
    },
    {
      "anonymous": false,
      "inputs": [
        {
          "indexed": false,
          "internalType": "uint32",
          "name": "period",
          "type": "uint32"
        }
      ],
      "name": "BorrowerLoanReturnGracePeriodChanged",
      "type": "event"
    },
    {
      "anonymous": false,
      "inputs": [
        {
          "indexed": false,
          "internalType": "address",
          "name": "converter",
          "type": "address"
        }
      ],
      "name": "ConverterChanged",
      "type": "event"
    },
    {
      "anonymous": false,
      "inputs": [
        {
          "indexed": false,
          "internalType": "address",
          "name": "collector",
          "type": "address"
        }
      ],
      "name": "EnterpriseCollectorChanged",
      "type": "event"
    },
    {
      "anonymous": false,
      "inputs": [
        {
          "indexed": false,
          "internalType": "uint32",
          "name": "period",
          "type": "uint32"
        }
      ],
      "name": "EnterpriseLoanCollectGracePeriodChanged",
      "type": "event"
    },
    {
      "anonymous": false,
      "inputs": [],
      "name": "EnterpriseShutdown",
      "type": "event"
    },
    {
      "anonymous": false,
      "inputs": [
        {
          "indexed": false,
          "internalType": "address",
          "name": "vault",
          "type": "address"
        }
      ],
      "name": "EnterpriseVaultChanged",
      "type": "event"
    },
    {
      "anonymous": false,
      "inputs": [
        {
          "indexed": false,
          "internalType": "uint256",
          "name": "fixedReserve",
          "type": "uint256"
        }
      ],
      "name": "FixedReserveChanged",
      "type": "event"
    },
    {
      "anonymous": false,
      "inputs": [
        {
          "indexed": false,
          "internalType": "uint16",
          "name": "percent",
          "type": "uint16"
        }
      ],
      "name": "GcFeePercentChanged",
      "type": "event"
    },
    {
      "anonymous": false,
      "inputs": [
        {
          "indexed": false,
          "internalType": "uint32",
          "name": "period",
          "type": "uint32"
        }
      ],
      "name": "InterestGapHalvingPeriodChanged",
      "type": "event"
    },
    {
      "anonymous": false,
      "inputs": [
        {
          "indexed": true,
          "internalType": "uint256",
          "name": "interestTokenId",
          "type": "uint256"
        },
        {
          "indexed": true,
          "internalType": "address",
          "name": "liquidityProvider",
          "type": "address"
        },
        {
          "indexed": true,
          "internalType": "enum Enterprise.LiquidityChangeType",
          "name": "changeType",
          "type": "uint8"
        },
        {
          "indexed": false,
          "internalType": "uint256",
          "name": "amountDelta",
          "type": "uint256"
        },
        {
          "indexed": false,
          "internalType": "uint256",
          "name": "amount",
          "type": "uint256"
        },
        {
          "indexed": false,
          "internalType": "uint256",
          "name": "shares",
          "type": "uint256"
        },
        {
          "indexed": false,
          "internalType": "uint256",
          "name": "totalShares",
          "type": "uint256"
        },
        {
          "indexed": false,
          "internalType": "uint256",
          "name": "reserve",
          "type": "uint256"
        },
        {
          "indexed": false,
          "internalType": "uint256",
          "name": "usedReserve",
          "type": "uint256"
        }
      ],
      "name": "LiquidityChanged",
      "type": "event"
    },
    {
      "anonymous": false,
      "inputs": [
        {
          "indexed": true,
          "internalType": "uint256",
          "name": "borrowTokenId",
          "type": "uint256"
        },
        {
          "indexed": true,
          "internalType": "address",
          "name": "borrower",
          "type": "address"
        },
        {
          "indexed": false,
          "internalType": "address",
          "name": "paymentToken",
          "type": "address"
        },
        {
          "indexed": false,
          "internalType": "uint112",
          "name": "interest",
          "type": "uint112"
        },
        {
          "indexed": false,
          "internalType": "uint112",
          "name": "serviceFee",
          "type": "uint112"
        },
        {
          "indexed": false,
          "internalType": "uint32",
          "name": "maturityTime",
          "type": "uint32"
        },
        {
          "indexed": false,
          "internalType": "uint32",
          "name": "borrowerReturnGraceTime",
          "type": "uint32"
        },
        {
          "indexed": false,
          "internalType": "uint32",
          "name": "enterpriseCollectGraceTime",
          "type": "uint32"
        }
      ],
      "name": "LoanExtended",
      "type": "event"
    },
    {
      "anonymous": false,
      "inputs": [
        {
          "indexed": true,
          "internalType": "uint256",
          "name": "borrowTokenId",
          "type": "uint256"
        },
        {
          "indexed": true,
          "internalType": "address",
          "name": "returner",
          "type": "address"
        },
        {
          "indexed": true,
          "internalType": "address",
          "name": "powerToken",
          "type": "address"
        },
        {
          "indexed": false,
          "internalType": "uint112",
          "name": "amount",
          "type": "uint112"
        },
        {
          "indexed": false,
          "internalType": "uint112",
          "name": "gcFee",
          "type": "uint112"
        },
        {
          "indexed": false,
          "internalType": "address",
          "name": "gcFeeToken",
          "type": "address"
        },
        {
          "indexed": false,
          "internalType": "uint256",
          "name": "reserve",
          "type": "uint256"
        },
        {
          "indexed": false,
          "internalType": "uint256",
          "name": "usedReserve",
          "type": "uint256"
        }
      ],
      "name": "LoanReturned",
      "type": "event"
    },
    {
      "anonymous": false,
      "inputs": [
        {
          "indexed": true,
          "internalType": "address",
          "name": "previousOwner",
          "type": "address"
        },
        {
          "indexed": true,
          "internalType": "address",
          "name": "newOwner",
          "type": "address"
        }
      ],
      "name": "OwnershipTransferred",
      "type": "event"
    },
    {
      "anonymous": false,
      "inputs": [
        {
          "indexed": false,
          "internalType": "address",
          "name": "paymentToken",
          "type": "address"
        },
        {
          "indexed": false,
          "internalType": "bool",
          "name": "enabled",
          "type": "bool"
        }
      ],
      "name": "PaymentTokenChange",
      "type": "event"
    },
    {
      "anonymous": false,
      "inputs": [
        {
          "indexed": true,
          "internalType": "address",
          "name": "powerToken",
          "type": "address"
        }
      ],
      "name": "ServiceRegistered",
      "type": "event"
    },
    {
      "anonymous": false,
      "inputs": [
        {
          "indexed": false,
          "internalType": "uint112",
          "name": "streamingReserve",
          "type": "uint112"
        },
        {
          "indexed": false,
          "internalType": "uint112",
          "name": "streamingReserveTarget",
          "type": "uint112"
        }
      ],
      "name": "StreamingReserveChanged",
      "type": "event"
    },
    {
      "inputs": [
        {
          "internalType": "uint256",
          "name": "liquidityAmount",
          "type": "uint256"
        }
      ],
      "name": "addLiquidity",
      "outputs": [],
      "stateMutability": "nonpayable",
      "type": "function"
    },
    {
      "inputs": [
        {
          "internalType": "contract PowerToken",
          "name": "powerToken",
          "type": "address"
        },
        {
          "internalType": "contract IERC20",
          "name": "paymentToken",
          "type": "address"
        },
        {
          "internalType": "uint112",
          "name": "loanAmount",
          "type": "uint112"
        },
        {
          "internalType": "uint32",
          "name": "duration",
          "type": "uint32"
        },
        {
          "internalType": "uint256",
          "name": "maxPayment",
          "type": "uint256"
        }
      ],
      "name": "borrow",
      "outputs": [],
      "stateMutability": "nonpayable",
      "type": "function"
    },
    {
      "inputs": [
        {
          "internalType": "uint256",
          "name": "interestTokenId",
          "type": "uint256"
        },
        {
          "internalType": "uint256",
          "name": "liquidityAmount",
          "type": "uint256"
        }
      ],
      "name": "decreaseLiquidity",
      "outputs": [],
      "stateMutability": "nonpayable",
      "type": "function"
    },
    {
      "inputs": [
        {
          "internalType": "address",
          "name": "token",
          "type": "address"
        }
      ],
      "name": "disablePaymentToken",
      "outputs": [],
      "stateMutability": "nonpayable",
      "type": "function"
    },
    {
      "inputs": [
        {
          "internalType": "address",
          "name": "token",
          "type": "address"
        }
      ],
      "name": "enablePaymentToken",
      "outputs": [],
      "stateMutability": "nonpayable",
      "type": "function"
    },
    {
      "inputs": [
        {
          "internalType": "contract PowerToken",
          "name": "powerToken",
          "type": "address"
        },
        {
          "internalType": "contract IERC20",
          "name": "paymentToken",
          "type": "address"
        },
        {
          "internalType": "uint112",
          "name": "amount",
          "type": "uint112"
        },
        {
          "internalType": "uint32",
          "name": "duration",
          "type": "uint32"
        }
      ],
      "name": "estimateLoan",
      "outputs": [
        {
          "internalType": "uint256",
          "name": "",
          "type": "uint256"
        }
      ],
      "stateMutability": "view",
      "type": "function"
    },
    {
      "inputs": [
        {
          "internalType": "uint256",
          "name": "interestTokenId",
          "type": "uint256"
        }
      ],
      "name": "getAccruedInterest",
      "outputs": [
        {
          "internalType": "uint256",
          "name": "",
          "type": "uint256"
        }
      ],
      "stateMutability": "view",
      "type": "function"
    },
    {
      "inputs": [],
      "name": "getAvailableReserve",
      "outputs": [
        {
          "internalType": "uint256",
          "name": "",
          "type": "uint256"
        }
      ],
      "stateMutability": "view",
      "type": "function"
    },
    {
      "inputs": [],
      "name": "getBaseUri",
      "outputs": [
        {
          "internalType": "string",
          "name": "",
          "type": "string"
        }
      ],
      "stateMutability": "view",
      "type": "function"
    },
    {
      "inputs": [],
      "name": "getBondingCurve",
      "outputs": [
        {
          "internalType": "uint256",
          "name": "pole",
          "type": "uint256"
        },
        {
          "internalType": "uint256",
          "name": "slope",
          "type": "uint256"
        }
      ],
      "stateMutability": "view",
      "type": "function"
    },
    {
      "inputs": [],
      "name": "getBorrowToken",
      "outputs": [
        {
          "internalType": "contract IBorrowToken",
          "name": "",
          "type": "address"
        }
      ],
      "stateMutability": "view",
      "type": "function"
    },
    {
      "inputs": [],
      "name": "getBorrowerLoanReturnGracePeriod",
      "outputs": [
        {
          "internalType": "uint32",
          "name": "",
          "type": "uint32"
        }
      ],
      "stateMutability": "view",
      "type": "function"
    },
    {
      "inputs": [],
      "name": "getConverter",
      "outputs": [
        {
          "internalType": "contract IConverter",
          "name": "",
          "type": "address"
        }
      ],
      "stateMutability": "view",
      "type": "function"
    },
    {
      "inputs": [],
      "name": "getEnterpriseCollector",
      "outputs": [
        {
          "internalType": "address",
          "name": "",
          "type": "address"
        }
      ],
      "stateMutability": "view",
      "type": "function"
    },
    {
      "inputs": [],
      "name": "getEnterpriseLoanCollectGracePeriod",
      "outputs": [
        {
          "internalType": "uint32",
          "name": "",
          "type": "uint32"
        }
      ],
      "stateMutability": "view",
      "type": "function"
    },
    {
      "inputs": [],
      "name": "getEnterpriseVault",
      "outputs": [
        {
          "internalType": "address",
          "name": "",
          "type": "address"
        }
      ],
      "stateMutability": "view",
      "type": "function"
    },
    {
      "inputs": [],
      "name": "getGCFeePercent",
      "outputs": [
        {
          "internalType": "uint16",
          "name": "",
          "type": "uint16"
        }
      ],
      "stateMutability": "view",
      "type": "function"
    },
    {
      "inputs": [],
      "name": "getInfo",
      "outputs": [
        {
          "internalType": "string",
          "name": "name",
          "type": "string"
        },
        {
          "internalType": "string",
          "name": "baseUri",
          "type": "string"
        },
        {
          "internalType": "uint256",
          "name": "totalShares",
          "type": "uint256"
        },
        {
          "internalType": "uint32",
          "name": "interestGapHalvingPeriod",
          "type": "uint32"
        },
        {
          "internalType": "uint32",
          "name": "borrowerLoanReturnGracePeriod",
          "type": "uint32"
        },
        {
          "internalType": "uint32",
          "name": "enterpriseLoanCollectGracePeriod",
          "type": "uint32"
        },
        {
          "internalType": "uint16",
          "name": "gcFeePercent",
          "type": "uint16"
        },
        {
          "internalType": "uint256",
          "name": "fixedReserve",
          "type": "uint256"
        },
        {
          "internalType": "uint256",
          "name": "usedReserve",
          "type": "uint256"
        },
        {
          "internalType": "uint112",
          "name": "streamingReserve",
          "type": "uint112"
        },
        {
          "internalType": "uint112",
          "name": "streamingReserveTarget",
          "type": "uint112"
        },
        {
          "internalType": "uint32",
          "name": "streamingReserveUpdated",
          "type": "uint32"
        }
      ],
      "stateMutability": "view",
      "type": "function"
    },
    {
      "inputs": [],
      "name": "getInterestGapHalvingPeriod",
      "outputs": [
        {
          "internalType": "uint32",
          "name": "",
          "type": "uint32"
        }
      ],
      "stateMutability": "view",
      "type": "function"
    },
    {
      "inputs": [],
      "name": "getInterestToken",
      "outputs": [
        {
          "internalType": "contract IInterestToken",
          "name": "",
          "type": "address"
        }
      ],
      "stateMutability": "view",
      "type": "function"
    },
    {
      "inputs": [
        {
          "internalType": "uint256",
          "name": "interestTokenId",
          "type": "uint256"
        }
      ],
      "name": "getLiquidityInfo",
      "outputs": [
        {
          "components": [
            {
              "internalType": "uint256",
              "name": "amount",
              "type": "uint256"
            },
            {
              "internalType": "uint256",
              "name": "shares",
              "type": "uint256"
            },
            {
              "internalType": "uint256",
              "name": "block",
              "type": "uint256"
            }
          ],
          "internalType": "struct EnterpriseStorage.LiquidityInfo",
          "name": "",
          "type": "tuple"
        }
      ],
      "stateMutability": "view",
      "type": "function"
    },
    {
      "inputs": [],
      "name": "getLiquidityToken",
      "outputs": [
        {
          "internalType": "contract IERC20Metadata",
          "name": "",
          "type": "address"
        }
      ],
      "stateMutability": "view",
      "type": "function"
    },
    {
      "inputs": [
        {
          "internalType": "uint256",
          "name": "borrowTokenId",
          "type": "uint256"
        }
      ],
      "name": "getLoanInfo",
      "outputs": [
        {
          "components": [
            {
              "internalType": "uint112",
              "name": "amount",
              "type": "uint112"
            },
            {
              "internalType": "uint16",
              "name": "powerTokenIndex",
              "type": "uint16"
            },
            {
              "internalType": "uint32",
              "name": "borrowingTime",
              "type": "uint32"
            },
            {
              "internalType": "uint32",
              "name": "maturityTime",
              "type": "uint32"
            },
            {
              "internalType": "uint32",
              "name": "borrowerReturnGraceTime",
              "type": "uint32"
            },
            {
              "internalType": "uint32",
              "name": "enterpriseCollectGraceTime",
              "type": "uint32"
            },
            {
              "internalType": "uint112",
              "name": "gcFee",
              "type": "uint112"
            },
            {
              "internalType": "uint16",
              "name": "gcFeeTokenIndex",
              "type": "uint16"
            }
          ],
          "internalType": "struct EnterpriseStorage.LoanInfo",
          "name": "",
          "type": "tuple"
        }
      ],
      "stateMutability": "view",
      "type": "function"
    },
    {
      "inputs": [
        {
          "internalType": "uint256",
          "name": "index",
          "type": "uint256"
        }
      ],
      "name": "getPaymentToken",
      "outputs": [
        {
          "internalType": "address",
          "name": "",
          "type": "address"
        }
      ],
      "stateMutability": "view",
      "type": "function"
    },
    {
      "inputs": [
        {
          "internalType": "contract IERC20",
          "name": "token",
          "type": "address"
        }
      ],
      "name": "getPaymentTokenIndex",
      "outputs": [
        {
          "internalType": "int16",
          "name": "",
          "type": "int16"
        }
      ],
      "stateMutability": "view",
      "type": "function"
    },
    {
      "inputs": [],
      "name": "getPowerTokens",
      "outputs": [
        {
          "internalType": "contract PowerToken[]",
          "name": "",
          "type": "address[]"
        }
      ],
      "stateMutability": "view",
      "type": "function"
    },
    {
      "inputs": [],
      "name": "getProxyAdmin",
      "outputs": [
        {
          "internalType": "contract ProxyAdmin",
          "name": "",
          "type": "address"
        }
      ],
      "stateMutability": "view",
      "type": "function"
    },
    {
      "inputs": [],
      "name": "getReserve",
      "outputs": [
        {
          "internalType": "uint256",
          "name": "",
          "type": "uint256"
        }
      ],
      "stateMutability": "view",
      "type": "function"
    },
    {
      "inputs": [],
      "name": "getUsedReserve",
      "outputs": [
        {
          "internalType": "uint256",
          "name": "",
          "type": "uint256"
        }
      ],
      "stateMutability": "view",
      "type": "function"
    },
    {
      "inputs": [
        {
          "internalType": "uint256",
          "name": "interestTokenId",
          "type": "uint256"
        },
        {
          "internalType": "uint256",
          "name": "liquidityAmount",
          "type": "uint256"
        }
      ],
      "name": "increaseLiquidity",
      "outputs": [],
      "stateMutability": "nonpayable",
      "type": "function"
    },
    {
      "inputs": [
        {
          "internalType": "string",
          "name": "enterpriseName",
          "type": "string"
        },
        {
          "internalType": "string",
          "name": "baseUri",
          "type": "string"
        },
        {
          "internalType": "uint16",
          "name": "gcFeePercent",
          "type": "uint16"
        },
        {
          "internalType": "contract IConverter",
          "name": "converter",
          "type": "address"
        },
        {
          "internalType": "contract ProxyAdmin",
          "name": "proxyAdmin",
          "type": "address"
        },
        {
          "internalType": "address",
          "name": "owner",
          "type": "address"
        }
      ],
      "name": "initialize",
      "outputs": [],
      "stateMutability": "nonpayable",
      "type": "function"
    },
    {
      "inputs": [
        {
          "internalType": "address",
          "name": "initialOwner",
          "type": "address"
        }
      ],
      "name": "initialize",
      "outputs": [],
      "stateMutability": "nonpayable",
      "type": "function"
    },
    {
      "inputs": [
        {
          "internalType": "contract IERC20Metadata",
          "name": "liquidityToken",
          "type": "address"
        },
        {
          "internalType": "contract IInterestToken",
          "name": "interestToken",
          "type": "address"
        },
        {
          "internalType": "contract IBorrowToken",
          "name": "borrowToken",
          "type": "address"
        }
      ],
      "name": "initializeTokens",
      "outputs": [],
      "stateMutability": "nonpayable",
      "type": "function"
    },
    {
      "inputs": [
        {
          "internalType": "contract PowerToken",
          "name": "powerToken",
          "type": "address"
        }
      ],
      "name": "isRegisteredPowerToken",
      "outputs": [
        {
          "internalType": "bool",
          "name": "",
          "type": "bool"
        }
      ],
      "stateMutability": "view",
      "type": "function"
    },
    {
      "inputs": [
        {
          "internalType": "contract IERC20",
          "name": "token",
          "type": "address"
        }
      ],
      "name": "isSupportedPaymentToken",
      "outputs": [
        {
          "internalType": "bool",
          "name": "",
          "type": "bool"
        }
      ],
      "stateMutability": "view",
      "type": "function"
    },
    {
      "inputs": [
        {
          "internalType": "address",
          "name": "from",
          "type": "address"
        },
        {
          "internalType": "address",
          "name": "to",
          "type": "address"
        },
        {
          "internalType": "uint256",
          "name": "borrowTokenId",
          "type": "uint256"
        }
      ],
      "name": "loanTransfer",
      "outputs": [],
      "stateMutability": "nonpayable",
      "type": "function"
    },
    {
      "inputs": [],
      "name": "owner",
      "outputs": [
        {
          "internalType": "address",
          "name": "",
          "type": "address"
        }
      ],
      "stateMutability": "view",
      "type": "function"
    },
    {
      "inputs": [
        {
          "internalType": "uint256",
          "name": "borrowTokenId",
          "type": "uint256"
        },
        {
          "internalType": "contract IERC20",
          "name": "paymentToken",
          "type": "address"
        },
        {
          "internalType": "uint32",
          "name": "duration",
          "type": "uint32"
        },
        {
          "internalType": "uint256",
          "name": "maxPayment",
          "type": "uint256"
        }
      ],
      "name": "reborrow",
      "outputs": [],
      "stateMutability": "nonpayable",
      "type": "function"
    },
    {
      "inputs": [
        {
          "internalType": "string",
          "name": "serviceName",
          "type": "string"
        },
        {
          "internalType": "string",
          "name": "symbol",
          "type": "string"
        },
        {
          "internalType": "uint32",
          "name": "gapHalvingPeriod",
          "type": "uint32"
        },
        {
          "internalType": "uint112",
          "name": "baseRate",
          "type": "uint112"
        },
        {
          "internalType": "contract IERC20Metadata",
          "name": "baseToken",
          "type": "address"
        },
        {
          "internalType": "uint16",
          "name": "serviceFeePercent",
          "type": "uint16"
        },
        {
          "internalType": "uint32",
          "name": "minLoanDuration",
          "type": "uint32"
        },
        {
          "internalType": "uint32",
          "name": "maxLoanDuration",
          "type": "uint32"
        },
        {
          "internalType": "uint96",
          "name": "minGCFee",
          "type": "uint96"
        },
        {
          "internalType": "bool",
          "name": "allowsPerpetualTokensForever",
          "type": "bool"
        },
        {
          "internalType": "bool",
          "name": "allowsTransfersForever",
          "type": "bool"
        }
      ],
      "name": "registerService",
      "outputs": [],
      "stateMutability": "nonpayable",
      "type": "function"
    },
    {
      "inputs": [
        {
          "internalType": "uint256",
          "name": "interestTokenId",
          "type": "uint256"
        }
      ],
      "name": "removeLiquidity",
      "outputs": [],
      "stateMutability": "nonpayable",
      "type": "function"
    },
    {
      "inputs": [
        {
          "internalType": "uint256",
          "name": "borrowTokenId",
          "type": "uint256"
        }
      ],
      "name": "returnLoan",
      "outputs": [],
      "stateMutability": "nonpayable",
      "type": "function"
    },
    {
      "inputs": [
        {
          "internalType": "string",
          "name": "baseUri",
          "type": "string"
        }
      ],
      "name": "setBaseUri",
      "outputs": [],
      "stateMutability": "nonpayable",
      "type": "function"
    },
    {
      "inputs": [
        {
          "internalType": "uint256",
          "name": "pole",
          "type": "uint256"
        },
        {
          "internalType": "uint256",
          "name": "slope",
          "type": "uint256"
        }
      ],
      "name": "setBondingCurve",
      "outputs": [],
      "stateMutability": "nonpayable",
      "type": "function"
    },
    {
      "inputs": [
        {
          "internalType": "uint32",
          "name": "newPeriod",
          "type": "uint32"
        }
      ],
      "name": "setBorrowerLoanReturnGracePeriod",
      "outputs": [],
      "stateMutability": "nonpayable",
      "type": "function"
    },
    {
      "inputs": [
        {
          "internalType": "contract IConverter",
          "name": "newConverter",
          "type": "address"
        }
      ],
      "name": "setConverter",
      "outputs": [],
      "stateMutability": "nonpayable",
      "type": "function"
    },
    {
      "inputs": [
        {
          "internalType": "address",
          "name": "newCollector",
          "type": "address"
        }
      ],
      "name": "setEnterpriseCollector",
      "outputs": [],
      "stateMutability": "nonpayable",
      "type": "function"
    },
    {
      "inputs": [
        {
          "internalType": "uint32",
          "name": "newPeriod",
          "type": "uint32"
        }
      ],
      "name": "setEnterpriseLoanCollectGracePeriod",
      "outputs": [],
      "stateMutability": "nonpayable",
      "type": "function"
    },
    {
      "inputs": [
        {
          "internalType": "address",
          "name": "newVault",
          "type": "address"
        }
      ],
      "name": "setEnterpriseVault",
      "outputs": [],
      "stateMutability": "nonpayable",
      "type": "function"
    },
    {
      "inputs": [
        {
          "internalType": "uint16",
          "name": "newGcFeePercent",
          "type": "uint16"
        }
      ],
      "name": "setGcFeePercent",
      "outputs": [],
      "stateMutability": "nonpayable",
      "type": "function"
    },
    {
      "inputs": [
        {
          "internalType": "uint32",
          "name": "interestGapHalvingPeriod",
          "type": "uint32"
        }
      ],
      "name": "setInterestGapHalvingPeriod",
      "outputs": [],
      "stateMutability": "nonpayable",
      "type": "function"
    },
    {
      "inputs": [],
      "name": "shutdownEnterpriseForever",
      "outputs": [],
      "stateMutability": "nonpayable",
      "type": "function"
    },
    {
      "inputs": [
        {
          "internalType": "address",
          "name": "newOwner",
          "type": "address"
        }
      ],
      "name": "transferOwnership",
      "outputs": [],
      "stateMutability": "nonpayable",
      "type": "function"
    },
    {
      "inputs": [
        {
          "internalType": "address",
          "name": "enterpriseImplementation",
          "type": "address"
        },
        {
          "internalType": "address",
          "name": "borrowTokenImplementation",
          "type": "address"
        },
        {
          "internalType": "address",
          "name": "interestTokenImplementation",
          "type": "address"
        },
        {
          "internalType": "address",
          "name": "powerTokenImplementation",
          "type": "address"
        },
        {
          "internalType": "contract PowerToken[]",
          "name": "powerTokens",
          "type": "address[]"
        }
      ],
      "name": "upgrade",
      "outputs": [],
      "stateMutability": "nonpayable",
      "type": "function"
    },
    {
      "inputs": [
        {
          "internalType": "uint256",
          "name": "interestTokenId",
          "type": "uint256"
        }
      ],
      "name": "withdrawInterest",
      "outputs": [],
      "stateMutability": "nonpayable",
      "type": "function"
    }
  ],
  "bytecode": "0x608060405234801561001057600080fd5b50615d3580620000216000396000f3fe608060405234801561001057600080fd5b50600436106102715760003560e01c8062ca339b146102765780630103f3131461028b5780630714012c146102b657806308669aab146102d65780630cac36b2146102e95780630ea1dc9e146102fe5780632261b07f14610318578063229304dc146103295780632e365ade1461034a5780632fb2067f1461035d5780633513e0dc14610380578063449497ec146103935780634741efb3146103a657806349bd4e89146103ae578063512a53bc146103c157806351c6590a146103d457806359bf5d39146103e75780635a4598df146103ef5780635a9b0b891461040d57806362c1f3881461042d578063644e44df146104405780636815f33714610451578063696f9c81146104645780637791c42d146104775780638188d50d1461048857806389035b611461049d5780638b3240a0146104c95780638c0114b0146104d15780638da5cb5b146104e457806390f55edd146104ec5780639339ea69146104ff5780639c7aa7f8146105125780639c8f9f2314610525578063a0bcfc7f14610538578063a0efd1181461054b578063a554b26d14610560578063aebb504114610571578063b19337a414610579578063b406bf6d1461058c578063b56de97e146105ad578063b96266fa146105c0578063bfd84fb4146105d5578063c4d66de8146105e8578063c93d0b92146105fb578063cdc2aebf1461060c578063df57f2fa1461061f578063e051ee4214610654578063e1a5fa4914610667578063e91261541461067a578063ed1fecc01461068d578063ef1f9f39146106a0578063f2fde38b146106b3578063faac38ef146106c6578063fcb2884e146106e1575b600080fd5b6102896102843660046150dd565b6106e9565b005b61029e610299366004614eed565b610ed1565b60405160019190910b81526020015b60405180910390f35b6102c96102c4366004615413565b610efe565b6040516102ad9190615787565b6102896102e4366004615413565b611053565b6102f161121c565b6040516102ad9190615698565b6001546001600160a01b03165b6040516102ad9190615568565b6004546001600160a01b031661030b565b61033c610337366004615084565b6112ae565b6040519081526020016102ad565b6102896103583660046154a9565b6113d7565b61037061036b366004614eed565b6114b9565b60405190151581526020016102ad565b61028961038e366004615488565b6114dc565b6102896103a13660046153db565b6115e9565b610289611673565b6102896103bc366004615488565b61176d565b6102896103cf366004614fde565b6119ed565b6102896103e2366004615413565b611c74565b61033c611e1c565b600354600160a01b900463ffffffff165b6040516102ad919061585c565b610415611e41565b6040516102ad9c9b9a999897969594939291906156ab565b61028961043b366004614eed565b612004565b6000546001600160a01b031661030b565b61028961045f3660046151ef565b6120ca565b610289610472366004615488565b6123f6565b6006546001600160a01b031661030b565b600654600160a01b900463ffffffff16610400565b6103706104ab366004614eed565b6001600160a01b031660009081526013602052604090205460ff1690565b61030b6125e5565b6102896104df366004615443565b612606565b61030b612b00565b6102896104fa366004614eed565b612b16565b61033c61050d366004615413565b612bdc565b610289610520366004614eed565b612c29565b610289610533366004615413565b612d6f565b61028961054636600461513e565b612fbc565b600654600160c01b900463ffffffff16610400565b6005546001600160a01b031661030b565b61033c613034565b610289610587366004614eed565b61304b565b600654600160e01b900461ffff1660405161ffff90911681526020016102ad565b6102896105bb3660046154a9565b613111565b6105c86131e7565b6040516102ad91906155d2565b6102896105e3366004614eed565b613248565b6102896105f6366004614eed565b6132de565b6002546001600160a01b031661030b565b61030b61061a366004615413565b6133b3565b61063261062d366004615413565b6133f1565b60408051825181526020808401519082015291810151908201526060016102ad565b6102896106623660046152a1565b6134cb565b6102896106753660046154a9565b6139da565b610289610688366004615413565b613aa0565b61028961069b366004614f25565b613e95565b6102896106ae36600461503a565b6141a3565b6102896106c1366004614eed565b614232565b600e54600d54604080519283526020830191909152016102ad565b600a5461033c565b600354604080518082019091526002815261373560f01b602082015290600160c01b900460ff16156107375760405162461bcd60e51b815260040161072e9190615698565b60405180910390fd5b506001600160a01b03851660009081526013602090815260409182902054825180840190935260018352601b60f91b9183019190915260ff1661078d5760405162461bcd60e51b815260040161072e9190615698565b50610797846114b9565b604051806040016040528060028152602001610d0d60f21b815250906107d05760405162461bcd60e51b815260040161072e9190615698565b50604051636e4d898360e01b81526001600160a01b03861690636e4d8983906107fd90859060040161585c565b60206040518083038186803b15801561081557600080fd5b505afa158015610829573d6000803e3d6000fd5b505050506040513d601f19601f8201168201806040525081019061084d919061501e565b60405180604001604052806002815260200161343560f01b815250906108865760405162461bcd60e51b815260040161072e9190615698565b506040805180820190915260028152611b9b60f11b60208201526001600160701b0384166108c75760405162461bcd60e51b815260040161072e9190615698565b506108d0613034565b836001600160701b03161115604051806040016040528060028152602001611a1b60f11b815250906109155760405162461bcd60e51b815260040161072e9190615698565b506000806000876001600160a01b0316639d5513d78888886040518463ffffffff1660e01b815260040161094b9392919061561f565b60606040518083038186803b15801561096357600080fd5b505afa158015610977573d6000803e3d6000fd5b505050506040513d601f19601f8201168201806040525081019061099b919061539a565b9194509250905060006109ae83856158c4565b6001600160701b0316905084826001600160701b0316826109cf91906158ef565b111560405180604001604052806002815260200161343760f01b81525090610a0a5760405162461bcd60e51b815260040161072e9190615698565b50610a208882856001600160701b031687614323565b600254610a45906001600160a01b038a8116913391166001600160701b0386166144b7565b866001600160701b0316600a6000828254610a6091906158ef565b9091555042915060009050610a758783615907565b600654909150600090610a9590600160a01b900463ffffffff1683615907565b600654909150600090610ab590600160c01b900463ffffffff1684615907565b90506000600260009054906101000a90046001600160a01b03166001600160a01b031663caa0f92a6040518163ffffffff1660e01b8152600401602060405180830381600087803b158015610b0957600080fd5b505af1158015610b1d573d6000803e3d6000fd5b505050506040513d601f19601f82011682018060405250810190610b41919061542b565b90506040518061010001604052808c6001600160701b031681526020018e6001600160a01b03166381045ead6040518163ffffffff1660e01b815260040160206040518083038186803b158015610b9757600080fd5b505afa158015610bab573d6000803e3d6000fd5b505050506040513d601f19601f82011682018060405250810190610bcf91906153f7565b61ffff1681526020018663ffffffff1681526020018563ffffffff1681526020018463ffffffff1681526020018363ffffffff168152602001876001600160701b03168152602001610c208e610ed1565b61ffff9081169091526000838152601160209081526040918290208451815492860151868501516060880151608089015160a08a01516001600160701b039586166001600160801b031998891617600160701b958b16860217600160801b600160c01b031916600160801b63ffffffff9586160263ffffffff60a01b191617600160a01b93851693909302929092176001600160c01b0316600160c01b918416919091026001600160e01b031617600160e01b929091169190910217835560c08701516001909301805460e0909801519390921696909316959095179316029190911790915560025490516335313c2160e11b815282916001600160a01b031690636a62784290610d35903390600401615568565b602060405180830381600087803b158015610d4f57600080fd5b505af1158015610d63573d6000803e3d6000fd5b505050506040513d601f19601f82011682018060405250810190610d87919061542b565b14610da257634e487b7160e01b600052600160045260246000fd5b60405163f8642f2960e01b8152600481018290526001600160a01b038e169063f8642f2990602401600060405180830381600087803b158015610de457600080fd5b505af1158015610df8573d6000803e3d6000fd5b505050508c6001600160a01b0316336001600160a01b0316827f0606c34c8c2ec99faed8921c4f1a3a5c1108fc00ebe3884ff753ab267ef6ec288f8f8d8d8d8d8d8d8d610e43611e1c565b600a54604080516001600160a01b03909c168c526001600160701b039a8b1660208d0152988a16988b019890985295881660608a015296909316608088015263ffffffff91821660a0880152811660c087015290811660e08601529092166101008401526101208301919091526101408201526101600160405180910390a450505050505050505050505050565b6001600160a01b038116600090815260076020526040812054610ef890600190810b615965565b92915050565b6040805161010081018252600080825260208201819052818301819052606082018190526080820181905260a0820181905260c0820181905260e082015260025491516331a9108f60e11b81526004810184905290916001600160a01b031690636352211e9060240160206040518083038186803b158015610f7f57600080fd5b505afa158015610f93573d6000803e3d6000fd5b505050506040513d601f19601f82011682018060405250810190610fb79190614f09565b505060009081526011602090815260409182902082516101008101845281546001600160701b038082168352600160701b80830461ffff90811696850196909652600160801b830463ffffffff90811697850197909752600160a01b830487166060850152600160c01b830487166080850152600160e01b90920490951660a083015260019092015493841660c082015292041660e082015290565b6001546040516331a9108f60e11b815260048101839052829133916001600160a01b0390911690636352211e9060240160206040518083038186803b15801561109b57600080fd5b505afa1580156110af573d6000803e3d6000fd5b505050506040513d601f19601f820116820180604052508101906110d39190614f09565b6001600160a01b031614604051806040016040528060018152602001603360f81b815250906111155760405162461bcd60e51b815260040161072e9190615698565b5060008281526012602052604081209061112e84612bdc565b9050611138613034565b811115604051806040016040528060028152602001611a1b60f11b815250906111745760405162461bcd60e51b815260040161072e9190615698565b5060005461118c906001600160a01b03163383614528565b81546000611198611e1c565b905060006111a68383614547565b90506111c1848287600101546111bc91906159d2565b614569565b600185018190556000336001600160a01b031688600080516020615b20833981519152878786600c548b8a6111f691906159d2565b600a5460405161120b96959493929190615834565b60405180910390a450505050505050565b60606010805461122b90615a15565b80601f016020809104026020016040519081016040528092919081815260200182805461125790615a15565b80156112a45780601f10611279576101008083540402835291602001916112a4565b820191906000526020600020905b81548152906001019060200180831161128757829003601f168201915b5050505050905090565b600354604080518082019091526002815261373560f01b6020820152600091600160c01b900460ff16156112f55760405162461bcd60e51b815260040161072e9190615698565b506001600160a01b03851660009081526013602090815260409182902054825180840190935260018352601b60f91b9183019190915260ff1661134b5760405162461bcd60e51b815260040161072e9190615698565b50604051631466370160e01b81526001600160a01b0386169063146637019061137c9087908790879060040161561f565b60206040518083038186803b15801561139457600080fd5b505afa1580156113a8573d6000803e3d6000fd5b505050506040513d601f19601f820116820180604052508101906113cc919061542b565b90505b949350505050565b336113e0612b00565b6001600160a01b031614604051806040016040528060018152602001603360f81b815250906114225760405162461bcd60e51b815260040161072e9190615698565b506006546040805180820190915260028152610d8d60f21b60208201529063ffffffff600160c01b909104811690831611156114715760405162461bcd60e51b815260040161072e9190615698565b506006805463ffffffff60a01b1916600160a01b63ffffffff841602179055604051600080516020615c80833981519152906114ae90839061585c565b60405180910390a150565b6001600160a01b0316600090815260076020526040812054600190810b900b1390565b336114e5612b00565b6001600160a01b031614604051806040016040528060018152602001603360f81b815250906115275760405162461bcd60e51b815260040161072e9190615698565b50611537600a600360401b615926565b82111560405180604001604052806002815260200161373760f01b815250906115735760405162461bcd60e51b815260040161072e9190615698565b5060408051808201909152600281526106e760f31b6020820152600160401b8211156115b25760405162461bcd60e51b815260040161072e9190615698565b50600e829055600d8190556040805183815260208101839052600080516020615b8083398151915291015b60405180910390a15050565b336115f2612b00565b6001600160a01b031614604051806040016040528060018152602001603360f81b815250906116345760405162461bcd60e51b815260040161072e9190615698565b506006805461ffff60e01b1916600160e01b61ffff841690810291909117909155604051908152600080516020615bc0833981519152906020016114ae565b600354604080518082019091526002815261373560f01b602082015290600160c01b900460ff16156116b85760405162461bcd60e51b815260040161072e9190615698565b50336116c2612b00565b6001600160a01b031614604051806040016040528060018152602001603360f81b815250906117045760405162461bcd60e51b815260040161072e9190615698565b5060038054600160c01b60ff60c01b199091161790556000600a819055600b8054600160701b81046001600160701b03166001600160701b03199091161790556040517f6f6348718c9a361558c634b516777b2b06bb2bf4140ad3d3bfaa44270fc2c0729190a1565b6001546040516331a9108f60e11b815260048101849052839133916001600160a01b0390911690636352211e9060240160206040518083038186803b1580156117b557600080fd5b505afa1580156117c9573d6000803e3d6000fd5b505050506040513d601f19601f820116820180604052508101906117ed9190614f09565b6001600160a01b031614604051806040016040528060018152602001603360f81b8152509061182f5760405162461bcd60e51b815260040161072e9190615698565b50600083815260126020908152604091829020825160608101845281548152600182015481840152600291820154818501819052845180860190955291845261035360f41b92840192909252909190431161189d5760405162461bcd60e51b815260040161072e9190615698565b5080516040805180820190915260028152611a1b60f11b6020820152908411156118da5760405162461bcd60e51b815260040161072e9190615698565b506118e3613034565b831115604051806040016040528060028152602001611a1b60f11b8152509061191f5760405162461bcd60e51b815260040161072e9190615698565b50600054611937906001600160a01b03163385614528565b6000611941611e1c565b9050600061194f8583614547565b90508260200151811115611964575060208201515b61196e8582614569565b6020838101805183900380825285518890038652600089815260129093526040909220600181019290925584519182905551600c5460049233928a92600080516020615b20833981519152928b9290916119c8848b6159d2565b600a546040516119dd96959493929190615834565b60405180910390a4505050505050565b600280546040805180820190915291825261333960f01b60208301526001600160a01b03163314611a315760405162461bcd60e51b815260040161072e9190615698565b506000818152601160209081526040918290205482518084019093526002835261068760f31b918301919091526001600160701b03169081611a865760405162461bcd60e51b815260040161072e9190615698565b5060008281526011602052604081205460148054600160a01b830463ffffffff164211936001600160a01b03898116159490891615939192600160701b90910461ffff16908110611ae757634e487b7160e01b600052603260045260246000fd5b6000918252602090912001546001600160a01b031690508115611b695760405163079cc67960e41b81526001600160a01b038216906379cc679090611b32908b908990600401615597565b600060405180830381600087803b158015611b4c57600080fd5b505af1158015611b60573d6000803e3d6000fd5b50505050611c6a565b8215611b9d576040516340c10f1960e01b81526001600160a01b038216906340c10f1990611b32908a908990600401615597565b83611c3a576040516333bebb7760e01b81526001600160a01b03898116600483015288811660248301526001600160701b03871660448301528216906333bebb7790606401602060405180830381600087803b158015611bfc57600080fd5b505af1158015611c10573d6000803e3d6000fd5b505050506040513d601f19601f82011682018060405250810190611c34919061501e565b50611c6a565b60408051808201825260028152611a9960f11b6020820152905162461bcd60e51b815261072e9190600401615698565b5050505050505050565b600354604080518082019091526002815261373560f01b602082015290600160c01b900460ff1615611cb95760405162461bcd60e51b815260040161072e9190615698565b50600054611cd2906001600160a01b03163330846144b7565b6000611cdc611e1c565b90506000600c54600014611cf957611cf48383614547565b611cfb565b825b9050611d0783826145eb565b6001546040516335313c2160e11b81526000916001600160a01b031690636a62784290611d38903390600401615568565b602060405180830381600087803b158015611d5257600080fd5b505af1158015611d66573d6000803e3d6000fd5b505050506040513d601f19601f82011682018060405250810190611d8a919061542b565b60408051606081018252868152602080820186815243838501908152600086815260129093529390912091518255516001808301919091559151600290910155909150336001600160a01b031682600080516020615b20833981519152878887600c548b8b611df991906158ef565b600a54604051611e0e96959493929190615834565b60405180910390a450505050565b6000611e2661463c565b6001600160701b0316600954611e3c91906158ef565b905090565b600c54600354600654600954600a54600b54600f805460609788976000978897889788978897889788978897889788979496601096939563ffffffff600160a01b94859004811696948404811695600160c01b850482169561ffff600160e01b9687900416959394936001600160701b0380841694600160701b8504909116939190910416908c90611ed290615a15565b80601f0160208091040260200160405190810160405280929190818152602001828054611efe90615a15565b8015611f4b5780601f10611f2057610100808354040283529160200191611f4b565b820191906000526020600020905b815481529060010190602001808311611f2e57829003601f168201915b50505050509b508a8054611f5e90615a15565b80601f0160208091040260200160405190810160405280929190818152602001828054611f8a90615a15565b8015611fd75780601f10611fac57610100808354040283529160200191611fd7565b820191906000526020600020905b815481529060010190602001808311611fba57829003601f168201915b50505050509a509b509b509b509b509b509b509b509b509b509b509b509b50909192939495969798999a9b565b3361200d612b00565b6001600160a01b031614604051806040016040528060018152602001603360f81b8152509061204f5760405162461bcd60e51b815260040161072e9190615698565b50604080518082019091526002815261363160f01b60208201526001600160a01b0382166120905760405162461bcd60e51b815260040161072e9190615698565b50600580546001600160a01b0319166001600160a01b038316179055604051600080516020615c60833981519152906114ae908390615568565b600f80546120d790615a15565b6040805180820190915260018152601960f91b602082015291501561210f5760405162461bcd60e51b815260040161072e9190615698565b50612119816132de565b81600080516020615ba083398151915280546001600160a01b03929092166001600160a01b03199283161790556003805490911633179055865161216490600f9060208a0190614ced565b5061217160108787614d71565b5060068054600480546001600160a01b03199081166001600160a01b03888116919091179092556005805492861692909116821790556003805463ffffffff60a01b191661127560a71b179055600165ffff0000000160c01b0319909116600160e01b61ffff8816026001600160c01b03191617176102a360a61b1763ffffffff60c01b19166102a360c71b17905561220f6064600560401b615926565b600e55612221600a600360401b615926565b600d55604051600080516020615b00833981519152906122449088908890615669565b60405180910390a1600654604051600160e01b90910461ffff168152600080516020615bc08339815191529060200160405180910390a1600454604051600080516020615c00833981519152916122a6916001600160a01b0390911690615568565b60405180910390a1600654604051600080516020615be0833981519152916122d9916001600160a01b0390911690615568565b60405180910390a1600554604051600080516020615c608339815191529161230c916001600160a01b0390911690615568565b60405180910390a1600080516020615cc0833981519152600360149054906101000a900463ffffffff16604051612343919061585c565b60405180910390a1600080516020615c80833981519152600660149054906101000a900463ffffffff1660405161237a919061585c565b60405180910390a1600080516020615b60833981519152600660189054906101000a900463ffffffff166040516123b1919061585c565b60405180910390a1600080516020615b80833981519152600e54600d546040516123e5929190918252602082015260400190565b60405180910390a150505050505050565b600354604080518082019091526002815261373560f01b602082015290600160c01b900460ff161561243b5760405162461bcd60e51b815260040161072e9190615698565b506001546040516331a9108f60e11b815260048101849052839133916001600160a01b0390911690636352211e9060240160206040518083038186803b15801561248457600080fd5b505afa158015612498573d6000803e3d6000fd5b505050506040513d601f19601f820116820180604052508101906124bc9190614f09565b6001600160a01b031614604051806040016040528060018152602001603360f81b815250906124fe5760405162461bcd60e51b815260040161072e9190615698565b50600054612517906001600160a01b03163330856144b7565b6000612521611e1c565b90506000600c5460001461253e576125398483614547565b612540565b835b905061254c84826145eb565b6000858152601260205260408120805490919061256a9087906158ef565b9050600083836001015461257e91906158ef565b8284556001840181905543600285015590506003336001600160a01b031689600080516020615b208339815191528a8686600c548e8d6125be91906158ef565b600a546040516125d396959493929190615834565b60405180910390a45050505050505050565b6000600080516020615ba08339815191525b546001600160a01b0316919050565b600354604080518082019091526002815261373560f01b602082015290600160c01b900460ff161561264b5760405162461bcd60e51b815260040161072e9190615698565b50612655836114b9565b604051806040016040528060028152602001610d0d60f21b8152509061268e5760405162461bcd60e51b815260040161072e9190615698565b50600084815260116020908152604091829020805483518085019094526002845261068760f31b9284019290925291906001600160701b03166126e45760405162461bcd60e51b815260040161072e9190615698565b50805460148054600092600160701b900461ffff1690811061271657634e487b7160e01b600052603260045260246000fd5b600091825260209091200154604051636e4d898360e01b81526001600160a01b0390911691508190636e4d89839061275290879060040161585c565b60206040518083038186803b15801561276a57600080fd5b505afa15801561277e573d6000803e3d6000fd5b505050506040513d601f19601f820116820180604052508101906127a2919061501e565b60405180604001604052806002815260200161343560f01b815250906127db5760405162461bcd60e51b815260040161072e9190615698565b50815442906127f8908690600160a01b900463ffffffff16615907565b63ffffffff16101560405180604001604052806002815260200161343960f01b815250906128395760405162461bcd60e51b815260040161072e9190615698565b508154600a80546001600160701b039092169160009061285a9084906159d2565b90915550508154604051639d5513d760e01b815260009182916001600160a01b03851691639d5513d7916128a0918b916001600160701b03909116908b9060040161561f565b60606040518083038186803b1580156128b857600080fd5b505afa1580156128cc573d6000803e3d6000fd5b505050506040513d601f19601f820116820180604052508101906128f0919061539a565b508554600a80546001600160701b0390921690910190559092509050600061291882846158c4565b6001600160701b031690508581111560405180604001604052806002815260200161343760f01b815250906129605760405162461bcd60e51b815260040161072e9190615698565b506129768882846001600160701b031686614323565b8454600090612993908990600160a01b900463ffffffff16615907565b6006549091506000906129b390600160a01b900463ffffffff1683615907565b6006549091506000906129d390600160c01b900463ffffffff1684615907565b8854600160a01b600160e01b031916600160a01b63ffffffff8681169190910263ffffffff60c01b191691909117600160c01b85831602176001600160e01b0316600160e01b9183169190910217895560405163f8642f2960e01b8152600481018e90529091506001600160a01b0388169063f8642f2990602401600060405180830381600087803b158015612a6857600080fd5b505af1158015612a7c573d6000803e3d6000fd5b5050604080516001600160a01b038f1681526001600160701b038a8116602083015289168183015263ffffffff87811660608301528681166080830152851660a082015290513393508f92507f89d8cafb66c1254c316d74e8fb6f0386656c633ae83763dffdf797ca4843a29c9181900360c00190a3505050505050505050505050565b6000600080516020615b408339815191526125f7565b33612b1f612b00565b6001600160a01b031614604051806040016040528060018152602001603360f81b81525090612b615760405162461bcd60e51b815260040161072e9190615698565b506040805180820190915260028152611b1960f11b60208201526001600160a01b038216612ba25760405162461bcd60e51b815260040161072e9190615698565b50600680546001600160a01b0319166001600160a01b038316179055604051600080516020615be0833981519152906114ae908390615568565b600081815260126020526040812060018101548290612c0290612bfd611e1c565b6146a4565b8254909150811115612c1f578154612c1a90826159d2565b6113cf565b6000949350505050565b33612c32612b00565b6001600160a01b031614604051806040016040528060018152602001603360f81b81525090612c745760405162461bcd60e51b815260040161072e9190615698565b506001600160a01b03811660009081526007602090815260409182902054825180840190935260028352611b9960f11b91830191909152600190810b900b612ccf5760405162461bcd60e51b815260040161072e9190615698565b506001600160a01b038116600090815260076020526040812054600190810b900b1315612d6c576001600160a01b038116600090815260076020526040902054612d1b9060010b615a6b565b6001600160a01b038216600090815260076020526040808220805460019490940b61ffff1661ffff19909416939093179092559051600080516020615ca0833981519152916114ae9184919061557c565b50565b6001546040516331a9108f60e11b815260048101839052829133916001600160a01b0390911690636352211e9060240160206040518083038186803b158015612db757600080fd5b505afa158015612dcb573d6000803e3d6000fd5b505050506040513d601f19601f82011682018060405250810190612def9190614f09565b6001600160a01b031614604051806040016040528060018152602001603360f81b81525090612e315760405162461bcd60e51b815260040161072e9190615698565b5060006012600084815260200190815260200160002090504381600201541060405180604001604052806002815260200161035360f41b81525090612e895760405162461bcd60e51b815260040161072e9190615698565b5060018101546000612e99611e1c565b90506000612ea783836146a4565b9050612eb1613034565b811115604051806040016040528060028152602001611a1b60f11b81525090612eed5760405162461bcd60e51b815260040161072e9190615698565b50600054612f05906001600160a01b03163383614528565b612f0f8184614569565b600154604051630852cd8d60e31b8152600481018890526001600160a01b03909116906342966c6890602401600060405180830381600087803b158015612f5557600080fd5b505af1158015612f69573d6000803e3d6000fd5b5050506000878152601260205260408120818155600181018290556002908101919091559050336001600160a01b031687600080516020615b2083398151915284600080600c54888a6119c891906159d2565b33612fc5612b00565b6001600160a01b031614604051806040016040528060018152602001603360f81b815250906130075760405162461bcd60e51b815260040161072e9190615698565b5061301460108383614d71565b50600080516020615b0083398151915282826040516115dd929190615669565b6000600a54613041611e1c565b611e3c91906159d2565b33613054612b00565b6001600160a01b031614604051806040016040528060018152602001603360f81b815250906130965760405162461bcd60e51b815260040161072e9190615698565b50604080518082019091526002815261363360f01b60208201526001600160a01b0382166130d75760405162461bcd60e51b815260040161072e9190615698565b50600480546001600160a01b0319166001600160a01b038316179055604051600080516020615c00833981519152906114ae908390615568565b3361311a612b00565b6001600160a01b031614604051806040016040528060018152602001603360f81b8152509061315c5760405162461bcd60e51b815260040161072e9190615698565b50600654604080518082019091526002815261363560f01b60208201529063ffffffff808416600160a01b9092041611156131aa5760405162461bcd60e51b815260040161072e9190615698565b506006805463ffffffff60c01b1916600160c01b63ffffffff841602179055604051600080516020615b60833981519152906114ae90839061585c565b606060148054806020026020016040519081016040528092919081815260200182805480156112a457602002820191906000526020600020905b81546001600160a01b03168152600190910190602001808311613221575050505050905090565b33613251612b00565b6001600160a01b031614604051806040016040528060018152602001603360f81b815250906132935760405162461bcd60e51b815260040161072e9190615698565b50604080518082019091526002815261373160f01b60208201526001600160a01b0382166132d45760405162461bcd60e51b815260040161072e9190615698565b50612d6c816146b4565b60006132e8612b00565b6001600160a01b031614604051806040016040528060018152602001601960f91b8152509061332a5760405162461bcd60e51b815260040161072e9190615698565b50604080518082019091526002815261373360f01b60208201526001600160a01b03821661336b5760405162461bcd60e51b815260040161072e9190615698565b50600080516020615b4083398151915280546001600160a01b0319166001600160a01b038316908117909155604051600090600080516020615c40833981519152908290a350565b6000600882815481106133d657634e487b7160e01b600052603260045260246000fd5b6000918252602090912001546001600160a01b031692915050565b61341560405180606001604052806000815260200160008152602001600081525090565b6001546040516331a9108f60e11b8152600481018490526001600160a01b0390911690636352211e9060240160206040518083038186803b15801561345957600080fd5b505afa15801561346d573d6000803e3d6000fd5b505050506040513d601f19601f820116820180604052508101906134919190614f09565b5050600090815260126020908152604091829020825160608101845281548152600182015492810192909252600201549181019190915290565b336134d4612b00565b6001600160a01b031614604051806040016040528060018152602001603360f81b815250906135165760405162461bcd60e51b815260040161072e9190615698565b50600354604080518082019091526002815261373560f01b602082015290600160c01b900460ff161561355c5760405162461bcd60e51b815260040161072e9190615698565b50604080518082019091526002815261034360f41b60208201526001600160a01b03881661359d5760405162461bcd60e51b815260040161072e9190615698565b50601454604080518082019091526002815261343160f01b60208201529061ffff116135dc5760405162461bcd60e51b815260040161072e9190615698565b506003546000906001600160a01b031663c31011cc6135f96125e5565b6040518263ffffffff1660e01b81526004016136159190615568565b602060405180830381600087803b15801561362f57600080fd5b505af1158015613643573d6000803e3d6000fd5b505050506040513d601f19601f820116820180604052508101906136679190614f09565b905060008060009054906101000a90046001600160a01b03166001600160a01b03166395d89b416040518163ffffffff1660e01b815260040160006040518083038186803b1580156136b857600080fd5b505afa1580156136cc573d6000803e3d6000fd5b505050506040513d6000823e601f3d908101601f191682016040526136f4919081019061517d565b90506000818d60405160200161370b92919061552c565b6040516020818303038152906040529050826001600160a01b0316631624f6c68f8360008054906101000a90046001600160a01b03166001600160a01b031663313ce5676040518163ffffffff1660e01b815260040160206040518083038186803b15801561377957600080fd5b505afa15801561378d573d6000803e3d6000fd5b505050506040513d601f19601f820116820180604052508101906137b191906154c3565b6040518463ffffffff1660e01b81526004016137cf9392919061574e565b600060405180830381600087803b1580156137e957600080fd5b505af11580156137fd573d6000803e3d6000fd5b505050505050806001600160a01b031663748abb02308b878e6014805490508e6040518763ffffffff1660e01b815260040161388d969594939291906001600160a01b0396871681526001600160701b039590951660208601526001600160601b0393909316604085015263ffffffff91909116606084015261ffff16608083015290911660a082015260c00190565b600060405180830381600087803b1580156138a757600080fd5b505af11580156138bb573d6000803e3d6000fd5b5050604051639a97db4560e01b815263ffffffff808a1660048301528816602482015261ffff8a166044820152851515606482015284151560848201526001600160a01b0384169250639a97db45915060a401600060405180830381600087803b15801561392857600080fd5b505af115801561393c573d6000803e3d6000fd5b50506014805460018082019092557fce6d7b5282bd9a3661ae061feed1dbda4e52ab073b1f9285be6e155d9c38d4ec0180546001600160a01b0319166001600160a01b038616908117909155600081815260136020526040808220805460ff191690941790935591519093507f2fa31fbaacf5eaf61d648ea7528ada6efb69bfb06d2c3bd35ce511a820fce53e9250a2505050505050505050505050565b336139e3612b00565b6001600160a01b031614604051806040016040528060018152602001603360f81b81525090613a255760405162461bcd60e51b815260040161072e9190615698565b506040805180820190915260028152611b1b60f11b602082015263ffffffff8216613a635760405162461bcd60e51b815260040161072e9190615698565b506003805463ffffffff60a01b1916600160a01b63ffffffff841602179055604051600080516020615cc0833981519152906114ae90839061585c565b60008181526011602090815260409182902082516101008101845281546001600160701b0380821680845261ffff600160701b80850482168689015263ffffffff600160801b86048116878b0152600160a01b860481166060880152600160c01b860481166080880152600160e01b90950490941660a086015260019095015491821660c085015291900490921660e082015283518085019094526002845261068760f31b92840192909252909190613b6c5760405162461bcd60e51b815260040161072e9190615698565b506002546040516331a9108f60e11b8152600481018490526000916001600160a01b031690636352211e9060240160206040518083038186803b158015613bb257600080fd5b505afa158015613bc6573d6000803e3d6000fd5b505050506040513d601f19601f82011682018060405250810190613bea9190614f09565b905060004290508063ffffffff16836080015163ffffffff161080613c175750336001600160a01b038316145b60405180604001604052806002815260200161353360f01b81525090613c505760405162461bcd60e51b815260040161072e9190615698565b508063ffffffff168360a0015163ffffffff161080613c775750336001600160a01b038316145b80613c8c57506005546001600160a01b031633145b604051806040016040528060028152602001610d4d60f21b81525090613cc55760405162461bcd60e51b815260040161072e9190615698565b50600354600160c01b900460ff16613cfc5782600001516001600160701b0316600a6000828254613cf691906159d2565b90915550505b6014836020015161ffff1681548110613d2557634e487b7160e01b600052603260045260246000fd5b9060005260206000200160009054906101000a90046001600160a01b03166001600160a01b0316336001600160a01b0316857f8aaa205a62511774004899f15c5181b7c5865c381dcb3320af8e91b31b6326ab86600001518760c0015160088960e0015161ffff1681548110613dab57634e487b7160e01b600052603260045260246000fd5b6000918252602090912001546001600160a01b0316613dc8611e1c565b600a54604080516001600160701b0396871681529490951660208501526001600160a01b0392909216838501526060830152608082015290519081900360a00190a4600254604051633f34d4cf60e21b8152600481018690523360248201526001600160a01b039091169063fcd3533c90604401600060405180830381600087803b158015613e5657600080fd5b505af1158015613e6a573d6000803e3d6000fd5b50505060009485525050601160205250506040812090815560010180546001600160801b0319169055565b33613e9e612b00565b6001600160a01b031614604051806040016040528060018152602001603360f81b81525090613ee05760405162461bcd60e51b815260040161072e9190615698565b506000613eeb6125e5565b90506001600160a01b03871615613f5d5760405163266a23b160e21b81526001600160a01b038216906399a88ec490613f2a9030908b9060040161564f565b600060405180830381600087803b158015613f4457600080fd5b505af1158015613f58573d6000803e3d6000fd5b505050505b6001600160a01b03861615613fd35760025460405163266a23b160e21b81526001600160a01b03838116926399a88ec492613fa092909116908a9060040161564f565b600060405180830381600087803b158015613fba57600080fd5b505af1158015613fce573d6000803e3d6000fd5b505050505b6001600160a01b038516156140495760015460405163266a23b160e21b81526001600160a01b03838116926399a88ec4926140169290911690899060040161564f565b600060405180830381600087803b15801561403057600080fd5b505af1158015614044573d6000803e3d6000fd5b505050505b6001600160a01b0384161561419a5760005b82811015611c6a576013600085858481811061408757634e487b7160e01b600052603260045260246000fd5b905060200201602081019061409c9190614eed565b6001600160a01b03168152602080820192909252604090810160002054815180830190925260018252601b60f91b928201929092529060ff166140f25760405162461bcd60e51b815260040161072e9190615698565b50816001600160a01b03166399a88ec485858481811061412257634e487b7160e01b600052603260045260246000fd5b90506020020160208101906141379190614eed565b876040518363ffffffff1660e01b815260040161415592919061564f565b600060405180830381600087803b15801561416f57600080fd5b505af1158015614183573d6000803e3d6000fd5b50505050808061419290615a50565b91505061405b565b50505050505050565b6000546040805180820190915260018152601960f91b6020820152906001600160a01b0316156141e65760405162461bcd60e51b815260040161072e9190615698565b50600080546001600160a01b038086166001600160a01b03199283161790925560018054858416908316179055600280549284169290911691909117905561422d836146b4565b505050565b3361423b612b00565b6001600160a01b031614604051806040016040528060018152602001603360f81b8152509061427d5760405162461bcd60e51b815260040161072e9190615698565b50604080518082019091526002815261373360f01b60208201526001600160a01b0382166142be5760405162461bcd60e51b815260040161072e9190615698565b50806001600160a01b03166142d1612b00565b6001600160a01b0316600080516020615c4083398151915260405160405180910390a3600080516020615b4083398151915280546001600160a01b0319166001600160a01b0392909216919091179055565b6143386001600160a01b0385163330866144b7565b6000548390839083906001600160a01b03888116911614614491576004805460405163095ea7b360e01b81526001600160a01b03808b169363095ea7b393614385939216918b91016155b9565b602060405180830381600087803b15801561439f57600080fd5b505af11580156143b3573d6000803e3d6000fd5b505050506040513d601f19601f820116820180604052508101906143d7919061501e565b506004805460005460405163029b465d60e01b81526001600160a01b038b811694820194909452602481018a9052908316604482015291169063029b465d90606401602060405180830381600087803b15801561443357600080fd5b505af1158015614447573d6000803e3d6000fd5b505050506040513d601f19601f8201168201806040525081019061446b919061542b565b9250856144788487615946565b6144829190615926565b915061448e82846159d2565b90505b6006546000546144ae916001600160a01b03918216911684614528565b61419a816147ff565b6040516001600160a01b03808516602483015283166044820152606481018290526145229085906323b872dd60e01b906084015b60408051601f198184030181529190526020810180516001600160e01b03166001600160e01b0319909316929092179091526148b1565b50505050565b61422d8363a9059cbb60e01b84846040516024016144eb9291906155b9565b60008183600c546145589190615946565b6145629190615926565b9392505050565b80600c600082825461457b91906159d2565b90915550506009548211614597576009805483900390556145ca565b60006145a1614983565b6001600160701b0316905082816009546145bb91906158ef565b6145c591906159d2565b600955505b600080516020615ce08339815191526009546040516115dd91815260200190565b80600c60008282546145fd91906158ef565b92505081905550816009600082825461461691906158ef565b9091555050600954604051908152600080516020615ce0833981519152906020016115dd565b600b546000906146879063ffffffff600160e01b82041690614671906001600160701b0380821691600160701b9004166159aa565b600354600160a01b900463ffffffff1642614a41565b600b54611e3c9190600160701b90046001600160701b03166159aa565b600c546000906145588484615946565b6001600160a01b038116600090815260076020526040902054600190810b900b61476a5760088054600181810183557ff3f7a9fe364faab93b216da50a3214154f22a0a2b415b23a84c8169e8b636ee390910180546001600160a01b0385166001600160a01b03199091168117909155915460009283526007602052604092839020805491830b61ffff1661ffff199092169190911790559051600080516020615ca0833981519152916114ae9184919061557c565b6001600160a01b038116600090815260076020526040812054600190810b900b1215612d6c576001600160a01b0381166000908152600760205260409020546147b59060010b615a6b565b6001600160a01b03821660009081526007602052604090819020805461ffff191661ffff600194850b1617905551600080516020615ca0833981519152916114ae9184919061557c565b61480761463c565b600b80546001600160701b0319166001600160701b03928316178082558392600e9161483c918591600160701b9004166158c4565b82546001600160701b039182166101009390930a928302928202191691909117909155600b805463ffffffff4216600160e01b026001600160e01b038216811792839055604051600080516020615c2083398151915295506114ae949182169282169290921792600160701b9004169061581a565b6000614906826040518060400160405280602081526020017f5361666545524332303a206c6f772d6c6576656c2063616c6c206661696c6564815250856001600160a01b0316614be29092919063ffffffff16565b80519091501561422d5780806020019051810190614924919061501e565b61422d5760405162461bcd60e51b815260206004820152602a60248201527f5361666545524332303a204552433230206f7065726174696f6e20646964206e6044820152691bdd081cdd58d8d9595960b21b606482015260840161072e565b600061498d61463c565b600b80546001600160701b0319168082559192508291600e906149c1908490600160701b90046001600160701b03166159aa565b82546001600160701b039182166101009390930a928302928202191691909117909155600b805463ffffffff4216600160e01b026001600160e01b038216811792839055604051600080516020615c208339815191529550614a36949182169282169290921792600160701b9004169061581a565b60405180910390a190565b60008463ffffffff168263ffffffff161015604051806040016040528060018152602001600760fb1b81525090614a8b5760405162461bcd60e51b815260040161072e9190615698565b5084820391508263ffffffff168263ffffffff1681614aba57634e487b7160e01b600052601260045260246000fd5b0463ffffffff16846001600160701b0316901c93508263ffffffff168263ffffffff1681614af857634e487b7160e01b600052601260045260246000fd5b06915063ffffffff82161580614b1557506001600160701b038416155b15614b215750826113cf565b60006001600160701b0385168163ffffffff86811690861671b17217f7d1cf79abc9e3b39803f2f6af40f30281614b6857634e487b7160e01b600052601260045260246000fd5b049050600160901b5b8215614bd557928201928082840281614b9a57634e487b7160e01b600052601260045260246000fd5b0493849003939250600160901b018082840281614bc757634e487b7160e01b600052601260045260246000fd5b049250600160901b01614b71565b5091979650505050505050565b60606113cf848460008585843b614c3b5760405162461bcd60e51b815260206004820152601d60248201527f416464726573733a2063616c6c20746f206e6f6e2d636f6e7472616374000000604482015260640161072e565b600080866001600160a01b03168587604051614c579190615510565b60006040518083038185875af1925050503d8060008114614c94576040519150601f19603f3d011682016040523d82523d6000602084013e614c99565b606091505b5091509150614ca9828286614cb4565b979650505050505050565b60608315614cc3575081614562565b825115614cd35782518084602001fd5b8160405162461bcd60e51b815260040161072e9190615698565b828054614cf990615a15565b90600052602060002090601f016020900481019282614d1b5760008555614d61565b82601f10614d3457805160ff1916838001178555614d61565b82800160010185558215614d61579182015b82811115614d61578251825591602001919060010190614d46565b50614d6d929150614de5565b5090565b828054614d7d90615a15565b90600052602060002090601f016020900481019282614d9f5760008555614d61565b82601f10614db85782800160ff19823516178555614d61565b82800160010185558215614d61579182015b82811115614d61578235825591602001919060010190614dca565b5b80821115614d6d5760008155600101614de6565b8035614e0581615acc565b919050565b8035614e0581615ab7565b60008083601f840112614e26578182fd5b5081356001600160401b03811115614e3c578182fd5b602083019150836020828501011115614e5457600080fd5b9250929050565b600082601f830112614e6b578081fd5b8135614e7e614e798261589d565b61586d565b818152846020838601011115614e92578283fd5b816020850160208301379081016020019190915292915050565b8035614e0581615ada565b8035614e0581615aef565b803563ffffffff81168114614e0557600080fd5b80356001600160601b0381168114614e0557600080fd5b600060208284031215614efe578081fd5b813561456281615ab7565b600060208284031215614f1a578081fd5b815161456281615ab7565b60008060008060008060a08789031215614f3d578182fd5b8635614f4881615ab7565b95506020870135614f5881615ab7565b94506040870135614f6881615ab7565b93506060870135614f7881615ab7565b925060808701356001600160401b0380821115614f93578384fd5b818901915089601f830112614fa6578384fd5b813581811115614fb4578485fd5b8a60208260051b8501011115614fc8578485fd5b6020830194508093505050509295509295509295565b600080600060608486031215614ff2578283fd5b8335614ffd81615ab7565b9250602084013561500d81615ab7565b929592945050506040919091013590565b60006020828403121561502f578081fd5b815161456281615acc565b60008060006060848603121561504e578081fd5b833561505981615ab7565b9250602084013561506981615ab7565b9150604084013561507981615ab7565b809150509250925092565b60008060008060808587031215615099578182fd5b84356150a481615ab7565b935060208501356150b481615ab7565b925060408501356150c481615ada565b91506150d260608601614ec2565b905092959194509250565b600080600080600060a086880312156150f4578283fd5b85356150ff81615ab7565b9450602086013561510f81615ab7565b9350604086013561511f81615ada565b925061512d60608701614ec2565b949793965091946080013592915050565b60008060208385031215615150578182fd5b82356001600160401b03811115615165578283fd5b61517185828601614e15565b90969095509350505050565b60006020828403121561518e578081fd5b81516001600160401b038111156151a3578182fd5b8201601f810184136151b3578182fd5b80516151c1614e798261589d565b8181528560208385010111156151d5578384fd5b6151e68260208301602086016159e9565b95945050505050565b600080600080600080600060c0888a031215615209578485fd5b87356001600160401b038082111561521f578687fd5b61522b8b838c01614e5b565b985060208a0135915080821115615240578687fd5b5061524d8a828b01614e15565b909750955050604088013561526181615aef565b9350606088013561527181615ab7565b9250608088013561528181615ab7565b915060a088013561529181615ab7565b8091505092959891949750929550565b60008060008060008060008060008060006101608c8e0312156152c2578485fd5b6001600160401b038c358110156152d7578586fd5b6152e48e8e358f01614e5b565b9b508060208e013511156152f6578586fd5b506153078d60208e01358e01614e5b565b995061531560408d01614ec2565b985061532360608d01614eac565b975061533160808d01614e0a565b965061533f60a08d01614eb7565b955061534d60c08d01614ec2565b945061535b60e08d01614ec2565b935061536a6101008d01614ed6565b92506153796101208d01614dfa565b91506153886101408d01614dfa565b90509295989b509295989b9093969950565b6000806000606084860312156153ae578081fd5b83516153b981615ada565b60208501519093506153ca81615ada565b604085015190925061507981615ada565b6000602082840312156153ec578081fd5b813561456281615aef565b600060208284031215615408578081fd5b815161456281615aef565b600060208284031215615424578081fd5b5035919050565b60006020828403121561543c578081fd5b5051919050565b60008060008060808587031215615458578182fd5b84359350602085013561546a81615ab7565b925061547860408601614ec2565b9396929550929360600135925050565b6000806040838503121561549a578182fd5b50508035926020909101359150565b6000602082840312156154ba578081fd5b61456282614ec2565b6000602082840312156154d4578081fd5b815160ff81168114614562578182fd5b600081518084526154fc8160208601602086016159e9565b601f01601f19169290920160200192915050565b600082516155228184602087016159e9565b9190910192915050565b6000835161553e8184602088016159e9565b600160fd1b908301908152835161555c8160018401602088016159e9565b01600101949350505050565b6001600160a01b0391909116815260200190565b6001600160a01b039290921682521515602082015260400190565b6001600160a01b039290921682526001600160701b0316602082015260400190565b6001600160a01b03929092168252602082015260400190565b6020808252825182820181905260009190848201906040850190845b818110156156135783516001600160a01b0316835292840192918401916001016155ee565b50909695505050505050565b6001600160a01b039390931683526001600160701b0391909116602083015263ffffffff16604082015260600190565b6001600160a01b0392831681529116602082015260400190565b60208152816020820152818360408301376000818301604090810191909152601f909201601f19160101919050565b60208152600061456260208301846154e4565b610180815260006156c061018083018f6154e4565b82810360208401526156d2818f6154e4565b604084018e905263ffffffff8d811660608601528c811660808601528b1660a085015261ffff8a1660c085015260e0840189905261010084018890526001600160701b03878116610120860152861661014085015291506157309050565b63ffffffff83166101608301529d9c50505050505050505050505050565b60608152600061576160608301866154e4565b828103602084015261577381866154e4565b91505060ff83166040830152949350505050565b81516001600160701b0316815260208083015161ffff169082015260408083015163ffffffff9081169183019190915260608084015182169083015260808084015182169083015260a080840151918216908301526101008201905060c08301516157fd60c08401826001600160701b03169052565b5060e083015161581360e084018261ffff169052565b5092915050565b6001600160701b0392831681529116602082015260400190565b958652602086019490945260408501929092526060840152608083015260a082015260c00190565b63ffffffff91909116815260200190565b604051601f8201601f191681016001600160401b038111828210171561589557615895615aa1565b604052919050565b60006001600160401b038211156158b6576158b6615aa1565b50601f01601f191660200190565b60006001600160701b038281168482168083038211156158e6576158e6615a8b565b01949350505050565b6000821982111561590257615902615a8b565b500190565b600063ffffffff8083168185168083038211156158e6576158e6615a8b565b60008261594157634e487b7160e01b81526012600452602481fd5b500490565b600081600019048311821515161561596057615960615a8b565b500290565b60008160010b8360010b82811281617fff190183128115161561598a5761598a615a8b565b81617fff0183138116156159a0576159a0615a8b565b5090039392505050565b60006001600160701b03838116908316818110156159ca576159ca615a8b565b039392505050565b6000828210156159e4576159e4615a8b565b500390565b60005b83811015615a045781810151838201526020016159ec565b838111156145225750506000910152565b600181811c90821680615a2957607f821691505b60208210811415615a4a57634e487b7160e01b600052602260045260246000fd5b50919050565b6000600019821415615a6457615a64615a8b565b5060010190565b60008160010b617fff19811415615a8457615a84615a8b565b9003919050565b634e487b7160e01b600052601160045260246000fd5b634e487b7160e01b600052604160045260246000fd5b6001600160a01b0381168114612d6c57600080fd5b8015158114612d6c57600080fd5b6001600160701b0381168114612d6c57600080fd5b61ffff81168114612d6c57600080fdfe87cdeaffd8e70903d6ce7cc983fac3b09ca79e83818124c98e47a1d70f8027d6e5f63c82bf3ad1341ce6c32dc2d5ed3f732d99de132df995de19d0d6802bdd634f471908b72bb76dae5bd24599026e7bf3ddb256497722888ffa422f83729ede7c5a703a1928f0d18042c0454d90ddfe036b518c756a39cd82aca939b71d801b926b69b9f7735227079a308fce165b111b96e2983e70a86a381ee047675ff39fd1248cccb5fef9131c731321e43e9a924840ffee7dc68c7d1d3e5cb7dedcae0327894f6b9c469a3eddbe98dd0df54563b6437b20982876e0c2cd60c211a156460dc14fdd751203f0c4dac8cc93c303e991c5f8e60af35674d5c82061929762ddbefcd50991bb64333037879282220d78a901bb4809351643f56628af8a4656dfc8dfab451067f726e1077626e126c7f77149630cc1b0056cf60307a289a118298be0079c531659141344cd1fd0a4f28419497f9722a3daafe3b4186f6b6457e07aa9698a01d2094fb8a580e2c72a6fc3f3bfecfd4cbdc457461118c59a6fefe4f6ae16e9e9771497fc501d1caac6168e19c36e4639d7273813e3b57066035f2a92a4dc1fa715a8cafb0cdc060f729eb1dfdddcbc9effbdc8d822cdf5ebcf4907971f32e7fcf39ef3d42dd88b6e08b31dd4bd8f53e7299c95b669c82e23807e2fa70de76be90dc9c5d9243b0bc73c3d963ba703a0a396f29134bf5b4e6197c180a264697066735822122096f2551ac00572e4e611a4ed6bc71a0669b2d446795902b52d1e7dbf11de1f5164736f6c63430008040033",
  "linkReferences": {},
  "deployedLinkReferences": {}
}