{
  "_format": "hh-sol-artifact-1",
  "contractName": "Enterprise",
  "sourceName": "contracts/Enterprise.sol",
  "abi": [
    {
      "anonymous": false,
      "inputs": [
        {
          "indexed": true,
          "internalType": "address",
          "name": "powerToken",
          "type": "address"
        },
        {
          "indexed": false,
          "internalType": "uint256",
          "name": "tokenId",
          "type": "uint256"
        },
        {
          "indexed": false,
          "internalType": "uint32",
          "name": "from",
          "type": "uint32"
        },
        {
          "indexed": false,
          "internalType": "uint32",
          "name": "to",
          "type": "uint32"
        }
      ],
      "name": "Borrowed",
      "type": "event"
    },
    {
      "anonymous": false,
      "inputs": [
        {
          "indexed": true,
          "internalType": "address",
          "name": "previousOwner",
          "type": "address"
        },
        {
          "indexed": true,
          "internalType": "address",
          "name": "newOwner",
          "type": "address"
        }
      ],
      "name": "OwnershipTransferred",
      "type": "event"
    },
    {
      "anonymous": false,
      "inputs": [
        {
          "indexed": true,
          "internalType": "address",
          "name": "powerToken",
          "type": "address"
        },
        {
          "indexed": false,
          "internalType": "uint32",
          "name": "halfLife",
          "type": "uint32"
        },
        {
          "indexed": false,
          "internalType": "uint112",
          "name": "factor",
          "type": "uint112"
        }
      ],
      "name": "ServiceRegistered",
      "type": "event"
    },
    {
      "inputs": [
        {
          "internalType": "uint256",
          "name": "liquidityAmount",
          "type": "uint256"
        }
      ],
      "name": "addLiquidity",
      "outputs": [],
      "stateMutability": "nonpayable",
      "type": "function"
    },
    {
      "inputs": [
        {
          "internalType": "contract IPowerToken",
          "name": "powerToken",
          "type": "address"
        },
        {
          "internalType": "contract IERC20",
          "name": "paymentToken",
          "type": "address"
        },
        {
          "internalType": "uint112",
          "name": "amount",
          "type": "uint112"
        },
        {
          "internalType": "uint256",
          "name": "maximumPayment",
          "type": "uint256"
        },
        {
          "internalType": "uint32",
          "name": "duration",
          "type": "uint32"
        }
      ],
      "name": "borrow",
      "outputs": [],
      "stateMutability": "nonpayable",
      "type": "function"
    },
    {
      "inputs": [
        {
          "internalType": "address",
          "name": "token",
          "type": "address"
        }
      ],
      "name": "disablePaymentToken",
      "outputs": [],
      "stateMutability": "nonpayable",
      "type": "function"
    },
    {
      "inputs": [
        {
          "internalType": "address",
          "name": "token",
          "type": "address"
        }
      ],
      "name": "enablePaymentToken",
      "outputs": [],
      "stateMutability": "nonpayable",
      "type": "function"
    },
    {
      "inputs": [
        {
          "internalType": "contract IPowerToken",
          "name": "powerToken",
          "type": "address"
        },
        {
          "internalType": "contract IERC20",
          "name": "paymentToken",
          "type": "address"
        },
        {
          "internalType": "uint112",
          "name": "amount",
          "type": "uint112"
        },
        {
          "internalType": "uint32",
          "name": "duration",
          "type": "uint32"
        }
      ],
      "name": "estimateLoan",
      "outputs": [
        {
          "internalType": "uint256",
          "name": "",
          "type": "uint256"
        }
      ],
      "stateMutability": "view",
      "type": "function"
    },
    {
      "inputs": [],
      "name": "getAvailableReserve",
      "outputs": [
        {
          "internalType": "uint256",
          "name": "",
          "type": "uint256"
        }
      ],
      "stateMutability": "view",
      "type": "function"
    },
    {
      "inputs": [],
      "name": "getBaseUri",
      "outputs": [
        {
          "internalType": "string",
          "name": "",
          "type": "string"
        }
      ],
      "stateMutability": "view",
      "type": "function"
    },
    {
      "inputs": [],
      "name": "getBorrowToken",
      "outputs": [
        {
          "internalType": "contract IBorrowToken",
          "name": "",
          "type": "address"
        }
      ],
      "stateMutability": "view",
      "type": "function"
    },
    {
      "inputs": [],
      "name": "getBorrowerLoanReturnGracePeriod",
      "outputs": [
        {
          "internalType": "uint32",
          "name": "",
          "type": "uint32"
        }
      ],
      "stateMutability": "view",
      "type": "function"
    },
    {
      "inputs": [],
      "name": "getConverter",
      "outputs": [
        {
          "internalType": "contract IConverter",
          "name": "",
          "type": "address"
        }
      ],
      "stateMutability": "view",
      "type": "function"
    },
    {
      "inputs": [],
      "name": "getEnterpriseCollector",
      "outputs": [
        {
          "internalType": "address",
          "name": "",
          "type": "address"
        }
      ],
      "stateMutability": "view",
      "type": "function"
    },
    {
      "inputs": [],
      "name": "getEnterpriseLoanCollectGracePeriod",
      "outputs": [
        {
          "internalType": "uint32",
          "name": "",
          "type": "uint32"
        }
      ],
      "stateMutability": "view",
      "type": "function"
    },
    {
      "inputs": [],
      "name": "getEnterpriseVault",
      "outputs": [
        {
          "internalType": "address",
          "name": "",
          "type": "address"
        }
      ],
      "stateMutability": "view",
      "type": "function"
    },
    {
      "inputs": [],
      "name": "getEstimator",
      "outputs": [
        {
          "internalType": "contract IEstimator",
          "name": "",
          "type": "address"
        }
      ],
      "stateMutability": "view",
      "type": "function"
    },
    {
      "inputs": [],
      "name": "getGCFeePercent",
      "outputs": [
        {
          "internalType": "uint16",
          "name": "",
          "type": "uint16"
        }
      ],
      "stateMutability": "view",
      "type": "function"
    },
    {
      "inputs": [],
      "name": "getInfo",
      "outputs": [
        {
          "internalType": "string",
          "name": "name",
          "type": "string"
        },
        {
          "internalType": "string",
          "name": "baseUri",
          "type": "string"
        },
        {
          "internalType": "uint256",
          "name": "totalShares",
          "type": "uint256"
        },
        {
          "internalType": "uint32",
          "name": "interestHalfLife",
          "type": "uint32"
        },
        {
          "internalType": "uint32",
          "name": "borrowerLoanReturnGracePeriod",
          "type": "uint32"
        },
        {
          "internalType": "uint32",
          "name": "enterpriseLoanCollectGracePeriod",
          "type": "uint32"
        },
        {
          "internalType": "uint16",
          "name": "gcFeePercent",
          "type": "uint16"
        },
        {
          "internalType": "uint256",
          "name": "fixedReserve",
          "type": "uint256"
        },
        {
          "internalType": "uint256",
          "name": "usedReserve",
          "type": "uint256"
        },
        {
          "internalType": "uint112",
          "name": "streamingReserve",
          "type": "uint112"
        },
        {
          "internalType": "uint112",
          "name": "streamingReserveTarget",
          "type": "uint112"
        },
        {
          "internalType": "uint32",
          "name": "streamingReserveUpdated",
          "type": "uint32"
        }
      ],
      "stateMutability": "view",
      "type": "function"
    },
    {
      "inputs": [],
      "name": "getInterestHalfLife",
      "outputs": [
        {
          "internalType": "uint32",
          "name": "",
          "type": "uint32"
        }
      ],
      "stateMutability": "view",
      "type": "function"
    },
    {
      "inputs": [],
      "name": "getInterestToken",
      "outputs": [
        {
          "internalType": "contract IInterestToken",
          "name": "",
          "type": "address"
        }
      ],
      "stateMutability": "view",
      "type": "function"
    },
    {
      "inputs": [
        {
          "internalType": "uint256",
          "name": "tokenId",
          "type": "uint256"
        }
      ],
      "name": "getLiquidityInfo",
      "outputs": [
        {
          "components": [
            {
              "internalType": "uint256",
              "name": "amount",
              "type": "uint256"
            },
            {
              "internalType": "uint256",
              "name": "shares",
              "type": "uint256"
            },
            {
              "internalType": "uint256",
              "name": "block",
              "type": "uint256"
            }
          ],
          "internalType": "struct EnterpriseStorage.LiquidityInfo",
          "name": "",
          "type": "tuple"
        }
      ],
      "stateMutability": "view",
      "type": "function"
    },
    {
      "inputs": [],
      "name": "getLiquidityToken",
      "outputs": [
        {
          "internalType": "contract IERC20Metadata",
          "name": "",
          "type": "address"
        }
      ],
      "stateMutability": "view",
      "type": "function"
    },
    {
      "inputs": [
        {
          "internalType": "uint256",
          "name": "tokenId",
          "type": "uint256"
        }
      ],
      "name": "getLoanInfo",
      "outputs": [
        {
          "components": [
            {
              "internalType": "uint112",
              "name": "amount",
              "type": "uint112"
            },
            {
              "internalType": "uint16",
              "name": "powerTokenIndex",
              "type": "uint16"
            },
            {
              "internalType": "uint32",
              "name": "borrowingTime",
              "type": "uint32"
            },
            {
              "internalType": "uint32",
              "name": "maturityTime",
              "type": "uint32"
            },
            {
              "internalType": "uint32",
              "name": "borrowerReturnGraceTime",
              "type": "uint32"
            },
            {
              "internalType": "uint32",
              "name": "enterpriseCollectGraceTime",
              "type": "uint32"
            },
            {
              "internalType": "uint112",
              "name": "gcFee",
              "type": "uint112"
            },
            {
              "internalType": "uint16",
              "name": "gcFeeTokenIndex",
              "type": "uint16"
            }
          ],
          "internalType": "struct EnterpriseStorage.LoanInfo",
          "name": "",
          "type": "tuple"
        }
      ],
      "stateMutability": "view",
      "type": "function"
    },
    {
      "inputs": [
        {
          "internalType": "uint256",
          "name": "tokenId",
          "type": "uint256"
        }
      ],
      "name": "getOwedInterest",
      "outputs": [
        {
          "internalType": "uint256",
          "name": "",
          "type": "uint256"
        }
      ],
      "stateMutability": "view",
      "type": "function"
    },
    {
      "inputs": [
        {
          "internalType": "uint256",
          "name": "index",
          "type": "uint256"
        }
      ],
      "name": "getPowerToken",
      "outputs": [
        {
          "internalType": "contract IPowerToken",
          "name": "",
          "type": "address"
        }
      ],
      "stateMutability": "view",
      "type": "function"
    },
    {
      "inputs": [],
      "name": "getPowerTokenImpl",
      "outputs": [
        {
          "internalType": "address",
          "name": "",
          "type": "address"
        }
      ],
      "stateMutability": "view",
      "type": "function"
    },
    {
      "inputs": [
        {
          "internalType": "contract IPowerToken",
          "name": "powerToken",
          "type": "address"
        }
      ],
      "name": "getPowerTokenIndex",
      "outputs": [
        {
          "internalType": "uint16",
          "name": "",
          "type": "uint16"
        }
      ],
      "stateMutability": "view",
      "type": "function"
    },
    {
      "inputs": [],
      "name": "getPowerTokens",
      "outputs": [
        {
          "internalType": "contract IPowerToken[]",
          "name": "",
          "type": "address[]"
        }
      ],
      "stateMutability": "view",
      "type": "function"
    },
    {
      "inputs": [],
      "name": "getReserve",
      "outputs": [
        {
          "internalType": "uint256",
          "name": "",
          "type": "uint256"
        }
      ],
      "stateMutability": "view",
      "type": "function"
    },
    {
      "inputs": [
        {
          "internalType": "contract IPowerToken",
          "name": "powerToken",
          "type": "address"
        }
      ],
      "name": "getServiceBaseRate",
      "outputs": [
        {
          "internalType": "uint112",
          "name": "",
          "type": "uint112"
        }
      ],
      "stateMutability": "view",
      "type": "function"
    },
    {
      "inputs": [
        {
          "internalType": "contract IPowerToken",
          "name": "powerToken",
          "type": "address"
        }
      ],
      "name": "getServiceBaseToken",
      "outputs": [
        {
          "internalType": "contract IERC20Metadata",
          "name": "",
          "type": "address"
        }
      ],
      "stateMutability": "view",
      "type": "function"
    },
    {
      "inputs": [
        {
          "internalType": "contract IPowerToken",
          "name": "powerToken",
          "type": "address"
        }
      ],
      "name": "getServiceFeePercent",
      "outputs": [
        {
          "internalType": "uint112",
          "name": "",
          "type": "uint112"
        }
      ],
      "stateMutability": "view",
      "type": "function"
    },
    {
      "inputs": [
        {
          "internalType": "contract IPowerToken",
          "name": "powerToken",
          "type": "address"
        }
      ],
      "name": "getServiceHalfLife",
      "outputs": [
        {
          "internalType": "uint32",
          "name": "",
          "type": "uint32"
        }
      ],
      "stateMutability": "view",
      "type": "function"
    },
    {
      "inputs": [
        {
          "internalType": "contract IPowerToken",
          "name": "powerToken",
          "type": "address"
        }
      ],
      "name": "getServiceMaxLoanDuration",
      "outputs": [
        {
          "internalType": "uint32",
          "name": "",
          "type": "uint32"
        }
      ],
      "stateMutability": "view",
      "type": "function"
    },
    {
      "inputs": [
        {
          "internalType": "contract IPowerToken",
          "name": "powerToken",
          "type": "address"
        }
      ],
      "name": "getServiceMinGCFee",
      "outputs": [
        {
          "internalType": "uint112",
          "name": "",
          "type": "uint112"
        }
      ],
      "stateMutability": "view",
      "type": "function"
    },
    {
      "inputs": [
        {
          "internalType": "contract IPowerToken",
          "name": "powerToken",
          "type": "address"
        }
      ],
      "name": "getServiceMinLoanDuration",
      "outputs": [
        {
          "internalType": "uint32",
          "name": "",
          "type": "uint32"
        }
      ],
      "stateMutability": "view",
      "type": "function"
    },
    {
      "inputs": [],
      "name": "getServicesInfo",
      "outputs": [
        {
          "internalType": "address[]",
          "name": "addresses",
          "type": "address[]"
        },
        {
          "internalType": "string[]",
          "name": "names",
          "type": "string[]"
        },
        {
          "internalType": "string[]",
          "name": "symbols",
          "type": "string[]"
        },
        {
          "components": [
            {
              "internalType": "uint112",
              "name": "baseRate",
              "type": "uint112"
            },
            {
              "internalType": "uint112",
              "name": "minGCFee",
              "type": "uint112"
            },
            {
              "internalType": "uint32",
              "name": "halfLife",
              "type": "uint32"
            },
            {
              "internalType": "contract IERC20Metadata",
              "name": "baseToken",
              "type": "address"
            },
            {
              "internalType": "uint32",
              "name": "minLoanDuration",
              "type": "uint32"
            },
            {
              "internalType": "uint32",
              "name": "maxLoanDuration",
              "type": "uint32"
            },
            {
              "internalType": "uint16",
              "name": "serviceFeePercent",
              "type": "uint16"
            },
            {
              "internalType": "uint16",
              "name": "index",
              "type": "uint16"
            }
          ],
          "internalType": "struct EnterpriseStorage.ServiceConfig[]",
          "name": "configs",
          "type": "tuple[]"
        }
      ],
      "stateMutability": "view",
      "type": "function"
    },
    {
      "inputs": [],
      "name": "getUsedReserve",
      "outputs": [
        {
          "internalType": "uint256",
          "name": "",
          "type": "uint256"
        }
      ],
      "stateMutability": "view",
      "type": "function"
    },
    {
      "inputs": [
        {
          "internalType": "address",
          "name": "initialOwner",
          "type": "address"
        }
      ],
      "name": "initialize",
      "outputs": [],
      "stateMutability": "nonpayable",
      "type": "function"
    },
    {
      "inputs": [
        {
          "internalType": "string",
          "name": "enterpriseName",
          "type": "string"
        },
        {
          "internalType": "string",
          "name": "baseUri",
          "type": "string"
        },
        {
          "internalType": "contract IEstimator",
          "name": "estimator",
          "type": "address"
        },
        {
          "internalType": "contract IConverter",
          "name": "converter",
          "type": "address"
        },
        {
          "internalType": "address",
          "name": "owner",
          "type": "address"
        }
      ],
      "name": "initialize",
      "outputs": [],
      "stateMutability": "nonpayable",
      "type": "function"
    },
    {
      "inputs": [
        {
          "internalType": "address",
          "name": "powerTokenImpl",
          "type": "address"
        },
        {
          "internalType": "contract IERC20Metadata",
          "name": "liquidityToken",
          "type": "address"
        },
        {
          "internalType": "contract IInterestToken",
          "name": "interestToken",
          "type": "address"
        },
        {
          "internalType": "contract IBorrowToken",
          "name": "borrowToken",
          "type": "address"
        }
      ],
      "name": "initializeTokens",
      "outputs": [],
      "stateMutability": "nonpayable",
      "type": "function"
    },
    {
      "inputs": [
        {
          "internalType": "contract IPowerToken",
          "name": "powerToken",
          "type": "address"
        }
      ],
      "name": "isRegisteredPowerToken",
      "outputs": [
        {
          "internalType": "bool",
          "name": "",
          "type": "bool"
        }
      ],
      "stateMutability": "view",
      "type": "function"
    },
    {
      "inputs": [
        {
          "internalType": "contract IPowerToken",
          "name": "powerToken",
          "type": "address"
        },
        {
          "internalType": "uint32",
          "name": "duration",
          "type": "uint32"
        }
      ],
      "name": "isServiceAllowedLoanDuration",
      "outputs": [
        {
          "internalType": "bool",
          "name": "",
          "type": "bool"
        }
      ],
      "stateMutability": "view",
      "type": "function"
    },
    {
      "inputs": [
        {
          "internalType": "contract IERC20",
          "name": "token",
          "type": "address"
        }
      ],
      "name": "isSupportedPaymentToken",
      "outputs": [
        {
          "internalType": "bool",
          "name": "",
          "type": "bool"
        }
      ],
      "stateMutability": "view",
      "type": "function"
    },
    {
      "inputs": [
        {
          "internalType": "address",
          "name": "from",
          "type": "address"
        },
        {
          "internalType": "address",
          "name": "to",
          "type": "address"
        },
        {
          "internalType": "uint256",
          "name": "tokenId",
          "type": "uint256"
        }
      ],
      "name": "loanTransfer",
      "outputs": [],
      "stateMutability": "nonpayable",
      "type": "function"
    },
    {
      "inputs": [],
      "name": "owner",
      "outputs": [
        {
          "internalType": "address",
          "name": "",
          "type": "address"
        }
      ],
      "stateMutability": "view",
      "type": "function"
    },
    {
      "inputs": [
        {
          "internalType": "uint256",
          "name": "index",
          "type": "uint256"
        }
      ],
      "name": "paymentToken",
      "outputs": [
        {
          "internalType": "address",
          "name": "",
          "type": "address"
        }
      ],
      "stateMutability": "view",
      "type": "function"
    },
    {
      "inputs": [
        {
          "internalType": "contract IERC20",
          "name": "token",
          "type": "address"
        }
      ],
      "name": "paymentTokenIndex",
      "outputs": [
        {
          "internalType": "int16",
          "name": "",
          "type": "int16"
        }
      ],
      "stateMutability": "view",
      "type": "function"
    },
    {
      "inputs": [
        {
          "internalType": "uint256",
          "name": "tokenId",
          "type": "uint256"
        },
        {
          "internalType": "contract IERC20",
          "name": "paymentToken",
          "type": "address"
        },
        {
          "internalType": "uint256",
          "name": "maximumPayment",
          "type": "uint256"
        },
        {
          "internalType": "uint32",
          "name": "duration",
          "type": "uint32"
        }
      ],
      "name": "reborrow",
      "outputs": [],
      "stateMutability": "nonpayable",
      "type": "function"
    },
    {
      "inputs": [
        {
          "internalType": "string",
          "name": "serviceName",
          "type": "string"
        },
        {
          "internalType": "string",
          "name": "symbol",
          "type": "string"
        },
        {
          "internalType": "uint32",
          "name": "halfLife",
          "type": "uint32"
        },
        {
          "internalType": "uint112",
          "name": "baseRate",
          "type": "uint112"
        },
        {
          "internalType": "contract IERC20Metadata",
          "name": "baseToken",
          "type": "address"
        },
        {
          "internalType": "uint16",
          "name": "serviceFeePercent",
          "type": "uint16"
        },
        {
          "internalType": "uint32",
          "name": "minLoanDuration",
          "type": "uint32"
        },
        {
          "internalType": "uint32",
          "name": "maxLoanDuration",
          "type": "uint32"
        },
        {
          "internalType": "uint112",
          "name": "minGCFee",
          "type": "uint112"
        }
      ],
      "name": "registerService",
      "outputs": [],
      "stateMutability": "nonpayable",
      "type": "function"
    },
    {
      "inputs": [
        {
          "internalType": "uint256",
          "name": "tokenId",
          "type": "uint256"
        }
      ],
      "name": "removeLiquidity",
      "outputs": [],
      "stateMutability": "nonpayable",
      "type": "function"
    },
    {
      "inputs": [
        {
          "internalType": "uint256",
          "name": "tokenId",
          "type": "uint256"
        }
      ],
      "name": "returnLoan",
      "outputs": [],
      "stateMutability": "nonpayable",
      "type": "function"
    },
    {
      "inputs": [
        {
          "internalType": "string",
          "name": "baseUri",
          "type": "string"
        }
      ],
      "name": "setBaseUri",
      "outputs": [],
      "stateMutability": "nonpayable",
      "type": "function"
    },
    {
      "inputs": [
        {
          "internalType": "uint32",
          "name": "newPeriod",
          "type": "uint32"
        }
      ],
      "name": "setBorrowerLoanReturnGracePeriod",
      "outputs": [],
      "stateMutability": "nonpayable",
      "type": "function"
    },
    {
      "inputs": [
        {
          "internalType": "contract IConverter",
          "name": "newConverter",
          "type": "address"
        }
      ],
      "name": "setConverter",
      "outputs": [],
      "stateMutability": "nonpayable",
      "type": "function"
    },
    {
      "inputs": [
        {
          "internalType": "address",
          "name": "newCollector",
          "type": "address"
        }
      ],
      "name": "setEnterpriseCollector",
      "outputs": [],
      "stateMutability": "nonpayable",
      "type": "function"
    },
    {
      "inputs": [
        {
          "internalType": "uint32",
          "name": "newPeriod",
          "type": "uint32"
        }
      ],
      "name": "setEnterpriseLoanCollectGracePeriod",
      "outputs": [],
      "stateMutability": "nonpayable",
      "type": "function"
    },
    {
      "inputs": [
        {
          "internalType": "address",
          "name": "newVault",
          "type": "address"
        }
      ],
      "name": "setEnterpriseVault",
      "outputs": [],
      "stateMutability": "nonpayable",
      "type": "function"
    },
    {
      "inputs": [
        {
          "internalType": "contract IEstimator",
          "name": "newEstimator",
          "type": "address"
        }
      ],
      "name": "setEstimator",
      "outputs": [],
      "stateMutability": "nonpayable",
      "type": "function"
    },
    {
      "inputs": [
        {
          "internalType": "uint16",
          "name": "newGcFeePercent",
          "type": "uint16"
        }
      ],
      "name": "setGcFeePercent",
      "outputs": [],
      "stateMutability": "nonpayable",
      "type": "function"
    },
    {
      "inputs": [
        {
          "internalType": "uint32",
          "name": "interestHalfLife",
          "type": "uint32"
        }
      ],
      "name": "setInterestHalfLife",
      "outputs": [],
      "stateMutability": "nonpayable",
      "type": "function"
    },
    {
      "inputs": [
        {
          "internalType": "contract IPowerToken",
          "name": "powerToken",
          "type": "address"
        },
        {
          "internalType": "uint112",
          "name": "baseRate",
          "type": "uint112"
        },
        {
          "internalType": "contract IERC20Metadata",
          "name": "baseToken",
          "type": "address"
        },
        {
          "internalType": "uint112",
          "name": "minGCFee",
          "type": "uint112"
        }
      ],
      "name": "setServiceBaseRate",
      "outputs": [],
      "stateMutability": "nonpayable",
      "type": "function"
    },
    {
      "inputs": [
        {
          "internalType": "contract IPowerToken",
          "name": "powerToken",
          "type": "address"
        },
        {
          "internalType": "uint16",
          "name": "newServiceFeePercent",
          "type": "uint16"
        }
      ],
      "name": "setServiceFeePercent",
      "outputs": [],
      "stateMutability": "nonpayable",
      "type": "function"
    },
    {
      "inputs": [
        {
          "internalType": "contract IPowerToken[]",
          "name": "powerToken",
          "type": "address[]"
        },
        {
          "internalType": "uint16[]",
          "name": "newServiceFeePercent",
          "type": "uint16[]"
        }
      ],
      "name": "setServiceFeePercentBatch",
      "outputs": [],
      "stateMutability": "nonpayable",
      "type": "function"
    },
    {
      "inputs": [
        {
          "internalType": "contract IPowerToken",
          "name": "powerToken",
          "type": "address"
        },
        {
          "internalType": "uint32",
          "name": "minLoanDuration",
          "type": "uint32"
        },
        {
          "internalType": "uint32",
          "name": "maxLoanDuration",
          "type": "uint32"
        }
      ],
      "name": "setServiceLoanDurationLimits",
      "outputs": [],
      "stateMutability": "nonpayable",
      "type": "function"
    },
    {
      "inputs": [
        {
          "internalType": "address",
          "name": "newOwner",
          "type": "address"
        }
      ],
      "name": "transferOwnership",
      "outputs": [],
      "stateMutability": "nonpayable",
      "type": "function"
    },
    {
      "inputs": [
        {
          "internalType": "contract IPowerToken",
          "name": "powerToken",
          "type": "address"
        },
        {
          "internalType": "uint256",
          "name": "amount",
          "type": "uint256"
        }
      ],
      "name": "unwrap",
      "outputs": [
        {
          "internalType": "bool",
          "name": "",
          "type": "bool"
        }
      ],
      "stateMutability": "nonpayable",
      "type": "function"
    },
    {
      "inputs": [
        {
          "internalType": "uint256",
          "name": "tokenId",
          "type": "uint256"
        }
      ],
      "name": "withdrawInterest",
      "outputs": [],
      "stateMutability": "nonpayable",
      "type": "function"
    },
    {
      "inputs": [
        {
          "internalType": "contract IPowerToken",
          "name": "powerToken",
          "type": "address"
        },
        {
          "internalType": "uint256",
          "name": "amount",
          "type": "uint256"
        }
      ],
      "name": "wrap",
      "outputs": [
        {
          "internalType": "bool",
          "name": "",
          "type": "bool"
        }
      ],
      "stateMutability": "nonpayable",
      "type": "function"
    },
    {
      "inputs": [
        {
          "internalType": "contract IPowerToken",
          "name": "powerToken",
          "type": "address"
        },
        {
          "internalType": "address",
          "name": "to",
          "type": "address"
        },
        {
          "internalType": "uint256",
          "name": "amount",
          "type": "uint256"
        }
      ],
      "name": "wrapTo",
      "outputs": [
        {
          "internalType": "bool",
          "name": "",
          "type": "bool"
        }
      ],
      "stateMutability": "nonpayable",
      "type": "function"
    }
  ],
  "bytecode": "0x60806040526004805463ffffffff60a01b191660e160a61b17905560088054600160a01b600160e01b031916650546000002a360a61b17905534801561004457600080fd5b5061590880620000556000396000f3fe608060405234801561001057600080fd5b50600436106103fc5760003560e01c80639c7aa7f811610215578063c4d66de811610125578063e9126154116100b8578063f57ea1e411610087578063f57ea1e414610b30578063faaed4ad14610b48578063fbac9a5514610b5b578063fc0915b114610b81578063fcb2884e14610b9457600080fd5b8063e912615414610abe578063edc1a62814610ad1578063f2fde38b14610ae4578063f4e28f9a14610af757600080fd5b8063df57f2fa116100f4578063df57f2fa14610a06578063e2b17a1614610a3b578063e36eca0c14610a4e578063e902868314610a8557600080fd5b8063c4d66de814610996578063c93d0b92146109a9578063d1c82007146109ba578063db0ed6a0146109f357600080fd5b8063b406bf6d116101a8578063bf376c7a11610177578063bf376c7a14610937578063bf3bb1a51461094a578063bfd84fb41461095d578063c20aa9bc14610970578063c2fe50dd1461098357600080fd5b8063b406bf6d146108dc578063b56de97e146108fe578063b96266fa14610911578063bf1708801461092657600080fd5b8063a358426f116101e4578063a358426f1461089d578063a554b26d146108b0578063aebb5041146108c1578063b19337a4146108c957600080fd5b80639c7aa7f81461084f5780639c8f9f2314610862578063a0bcfc7f14610875578063a0efd1181461088857600080fd5b8063449497ec116103105780637791c42d116102a357806389035b611161027257806389035b61146107cf5780638d6d50c9146107e25780638da5cb5b146108185780638e9fcf811461082957806390f55edd1461083c57600080fd5b80637791c42d146107855780637eda9ff8146107965780638188d50d146107a957806383b9a009146107be57600080fd5b806359bf5d39116102df57806359bf5d39146107395780635a9b0b891461074157806362c1f38814610761578063644e44df1461077457600080fd5b8063449497ec146106d1578063512a53bc146106e457806351c6590a146106f757806353c091241461070a57600080fd5b80632261b07f116103935780632e365ade116103625780632e365ade1461064f5780632fb2067f146106625780633184fc6414610685578063375921481461069857806339f47693146106be57600080fd5b80632261b07f1461059c578063229304dc146105ad5780632457056e146105ce5780632b39a0ac1461061857600080fd5b80630e101b60116103cf5780630e101b60146105525780630ea1dc9e1461056557806311eec52914610576578063158bf4511461058957600080fd5b806304196058146104015780630714012c1461043157806308669aab146105285780630cac36b21461053d575b600080fd5b61041461040f366004615056565b610b9c565b6040516001600160a01b0390911681526020015b60405180910390f35b61051b61043f366004615056565b6040805161010081018252600080825260208201819052918101829052606081018290526080810182905260a0810182905260c0810182905260e08101919091525060009081526011602090815260409182902082516101008101845281546001600160701b038082168352600160701b80830461ffff90811696850196909652600160801b830463ffffffff90811697850197909752600160a01b830487166060850152600160c01b830487166080850152600160e01b90920490951660a083015260019092015493841660c082015292041660e082015290565b604051610428919061554d565b61053b610536366004615056565b610bda565b005b610545610cbd565b6040516104289190615319565b610414610560366004615056565b610d4f565b6002546001600160a01b0316610414565b61053b610584366004614b82565b610d72565b61053b610597366004614f47565b610ec5565b6006546001600160a01b0316610414565b6105c06105bb366004614c81565b611472565b604051908152602001610428565b6106006105dc366004614aaf565b6001600160a01b03166000908152601360205260409020546001600160701b031690565b6040516001600160701b039091168152602001610428565b610600610626366004614aaf565b6001600160a01b0316600090815260136020526040902060010154600160e01b900461ffff1690565b61053b61065d3660046150c2565b611528565b610675610670366004614aaf565b6115d2565b6040519015158152602001610428565b61053b610693366004614b27565b6115f5565b600454600160a01b900463ffffffff165b60405163ffffffff9091168152602001610428565b6106756106cc366004614d5e565b61169d565b61053b6106df36600461503c565b61173d565b61053b6106f2366004614ae7565b611789565b61053b610705366004615056565b611aa5565b610414610718366004614aaf565b6001600160a01b039081166000908152601360205260409020600101541690565b6105c0611bce565b610749611bf3565b6040516104289c9b9a9998979695949392919061536a565b61053b61076f366004614aaf565b611db6565b6001546001600160a01b0316610414565b6008546001600160a01b0316610414565b61053b6107a4366004614aaf565b611e28565b600854600160a01b900463ffffffff166106a9565b6004546001600160a01b0316610414565b6106756107dd366004614aaf565b611e9a565b6106a96107f0366004614aaf565b6001600160a01b0316600090815260136020526040902054600160e01b900463ffffffff1690565b6000546001600160a01b0316610414565b61053b610837366004614db4565b611ec4565b61053b61084a366004614aaf565b611fc0565b61053b61085d366004614aaf565b612032565b61053b610870366004615056565b612068565b61053b610883366004614df8565b6121f8565b600854600160c01b900463ffffffff166106a9565b6106756108ab366004614d89565b612233565b6007546001600160a01b0316610414565b6105c061228c565b61053b6108d7366004614aaf565b6122a3565b600854600160e01b900461ffff165b60405161ffff9091168152602001610428565b61053b61090c3660046150c2565b612315565b6109196123be565b60405161042891906152cc565b6005546001600160a01b0316610414565b610675610945366004614d5e565b61241f565b6105c0610958366004615056565b612452565b61053b61096b366004614aaf565b612481565b61053b61097e366004614d2a565b6124da565b61053b610991366004615086565b612534565b61053b6109a4366004614aaf565b612999565b6003546001600160a01b0316610414565b6106a96109c8366004614aaf565b6001600160a01b0316600090815260136020526040902060010154600160a01b900463ffffffff1690565b61053b610a01366004614ea9565b612ab9565b610a19610a14366004615056565b612b85565b6040805182518152602080840151908201529181015190820152606001610428565b61053b610a49366004614c1e565b612be2565b6108eb610a5c366004614aaf565b6001600160a01b0316600090815260136020526040902060010154600160f01b900461ffff1690565b610600610a93366004614aaf565b6001600160a01b0316600090815260136020526040902054600160701b90046001600160701b031690565b61053b610acc366004615056565b613221565b61053b610adf3660046150c2565b613516565b61053b610af2366004614aaf565b613566565b6106a9610b05366004614aaf565b6001600160a01b0316600090815260136020526040902060010154600160c01b900463ffffffff1690565b610b38613650565b60405161042894939291906151a7565b610675610b56366004614c0a565b6139d8565b610b6e610b69366004614aaf565b613a7f565b60405160019190910b8152602001610428565b61053b610b8f366004614cda565b613aac565b600d546105c0565b600060148281548110610bbf57634e487b7160e01b600052603260045260246000fd5b6000918252602090912001546001600160a01b031692915050565b60008181526012602052604081206001810154815491929091610bfc83613ba8565b610c06919061576d565b9050610c1061228c565b811115610c5d5760405162461bcd60e51b8152602060048201526016602482015275496e73756666696369656e74206c697175696469747960501b60448201526064015b60405180910390fd5b600154610c74906001600160a01b03163383613bca565b6000610c838460000154613c2d565b600185018190559050610c96818461576d565b600f6000828254610ca7919061576d565b90915550610cb6905082613c45565b5050505050565b6060600b8054610ccc906157cd565b80601f0160208091040260200160405190810160405280929190818152602001828054610cf8906157cd565b8015610d455780601f10610d1a57610100808354040283529160200191610d45565b820191906000526020600020905b815481529060010190602001808311610d2857829003601f168201915b5050505050905090565b6000600a8281548110610bbf57634e487b7160e01b600052603260045260246000fd5b6000546001600160a01b03163314610d9c5760405162461bcd60e51b8152600401610c54906154b5565b828114610de25760405162461bcd60e51b8152602060048201526014602482015273092dcecc2d8d2c840c2e4e4c2f240d8cadccee8d60631b6044820152606401610c54565b60005b83811015610cb657610e25858583818110610e1057634e487b7160e01b600052603260045260246000fd5b90506020020160208101906107dd9190614aaf565b610e415760405162461bcd60e51b8152600401610c54906154ea565b610eb3858583818110610e6457634e487b7160e01b600052603260045260246000fd5b9050602002016020810190610e799190614aaf565b848484818110610e9957634e487b7160e01b600052603260045260246000fd5b9050602002016020810190610eae919061503c565b613ca0565b80610ebd81615808565b915050610de5565b6000546001600160a01b03163314610eef5760405162461bcd60e51b8152600401610c54906154b5565b6001600160a01b038516610f3a5760405162461bcd60e51b815260206004820152601260248201527124b73b30b634b2102130b9b2902a37b5b2b760711b6044820152606401610c54565b60145461ffff11610f8d5760405162461bcd60e51b815260206004820152601d60248201527f43616e6e6f74207265676973746572206d6f72652073657276696365730000006044820152606401610c54565b8163ffffffff168363ffffffff161115610fe95760405162461bcd60e51b815260206004820152601b60248201527f496e76616c6964206d696e20616e64206d617820706572696f647300000000006044820152606401610c54565b60008763ffffffff16116110335760405162461bcd60e51b8152602060048201526011602482015270496e76616c69642068616c66206c69666560781b6044820152606401610c54565b60045460009061104b906001600160a01b0316613d40565b90506000600160009054906101000a90046001600160a01b03166001600160a01b03166395d89b416040518163ffffffff1660e01b815260040160006040518083038186803b15801561109d57600080fd5b505afa1580156110b1573d6000803e3d6000fd5b505050506040513d6000823e601f3d908101601f191682016040526110d99190810190614e37565b90506000818b6040516020016110f092919061516b565b60408051601f19818403018152908290526303bf912560e11b825291506001600160a01b0384169063077f224a90611130908f908590309060040161532c565b600060405180830381600087803b15801561114a57600080fd5b505af115801561115e573d6000803e3d6000fd5b5050505060006040518061010001604052808b6001600160701b03168152602001866001600160701b031681526020018c63ffffffff1681526020018a6001600160a01b031681526020018863ffffffff1681526020018763ffffffff1681526020018961ffff16815260200160148054905061ffff1681525090508060136000866001600160a01b03166001600160a01b0316815260200190815260200160002060008201518160000160006101000a8154816001600160701b0302191690836001600160701b03160217905550602082015181600001600e6101000a8154816001600160701b0302191690836001600160701b03160217905550604082015181600001601c6101000a81548163ffffffff021916908363ffffffff16021790555060608201518160010160006101000a8154816001600160a01b0302191690836001600160a01b0316021790555060808201518160010160146101000a81548163ffffffff021916908363ffffffff16021790555060a08201518160010160186101000a81548163ffffffff021916908363ffffffff16021790555060c082015181600101601c6101000a81548161ffff021916908361ffff16021790555060e082015181600101601e6101000a81548161ffff021916908361ffff1602179055509050506014849080600181540180825580915050600190039060005260206000200160009091909190916101000a8154816001600160a01b0302191690836001600160a01b03160217905550600560009054906101000a90046001600160a01b03166001600160a01b031663508ee32c856040518263ffffffff1660e01b81526004016113de91906001600160a01b0391909116815260200190565b600060405180830381600087803b1580156113f857600080fd5b505af115801561140c573d6000803e3d6000fd5b50506040805163ffffffff8f1681526001600160701b038e1660208201526001600160a01b03881693507f18706585e986f622c9d914abfb256d563b9ea274cd5d49124e0518aa314b8c129250015b60405180910390a250505050505050505050505050565b60008461147e81611e9a565b61149a5760405162461bcd60e51b8152600401610c54906154ea565b6114a3856115d2565b6114bf5760405162461bcd60e51b8152600401610c5490615462565b6114c98684612233565b6114e55760405162461bcd60e51b8152600401610c5490615516565b60008060006114f689898989613ddd565b91945092509050806115088385615648565b6115129190615648565b6001600160701b03169998505050505050505050565b6000546001600160a01b031633146115525760405162461bcd60e51b8152600401610c54906154b5565b60085463ffffffff600160c01b909104811690821611156115ac5760405162461bcd60e51b8152602060048201526014602482015273125b9d985b1a590819dc9858d9481c195c9a5bd960621b6044820152606401610c54565b6008805463ffffffff909216600160a01b0263ffffffff60a01b19909216919091179055565b6001600160a01b0316600090815260096020526040812054600190810b900b1390565b6004546001600160a01b0316156116445760405162461bcd60e51b8152602060048201526013602482015272105b1c9958591e481a5b9a5d1a585b1a5e9959606a1b6044820152606401610c54565b600480546001600160a01b038087166001600160a01b0319928316179092556001805486841690831617905560028054858416908316179055600380549284169290911691909117905561169783613f92565b50505050565b6000826116a981611e9a565b6116c55760405162461bcd60e51b8152600401610c54906154ea565b600154604051638cc7104f60e01b81526001600160a01b0391821660048201523360248201526044810185905290851690638cc7104f90606401600060405180830381600087803b15801561171957600080fd5b505af115801561172d573d6000803e3d6000fd5b50505050600191505b5092915050565b6000546001600160a01b031633146117675760405162461bcd60e51b8152600401610c54906154b5565b6008805461ffff909216600160e01b0261ffff60e01b19909216919091179055565b6003546001600160a01b031633146117d55760405162461bcd60e51b815260206004820152600f60248201526e2737ba102137b93937bbaa37b5b2b760891b6044820152606401610c54565b600081815260116020908152604080832081516101008101835281546001600160701b03808216835261ffff600160701b808404821697850188905263ffffffff600160801b8504811697860197909752600160a01b840487166060860152600160c01b840487166080860152600160e01b90930490951660a084015260019093015492831660c083015290910490911660e0820152601480549193929091811061189057634e487b7160e01b600052603260045260246000fd5b6000918252602090912001546001600160a01b03169050806118c45760405162461bcd60e51b8152600401610c5490615413565b606082015163ffffffff1642116001600160a01b0386811615908616801590301480156118f9576118f487613221565b611a9a565b811561197357855160405163079cc67960e41b81526001600160a01b038b811660048301526001600160701b039092166024820152908616906379cc6790906044015b600060405180830381600087803b15801561195657600080fd5b505af115801561196a573d6000803e3d6000fd5b50505050611a9a565b82156119ba5785516040516340c10f1960e01b81526001600160a01b038a811660048301526001600160701b039092166024820152908616906340c10f199060440161193c565b83611a5b5785516040516333bebb7760e01b81526001600160a01b038b811660048301528a811660248301526001600160701b039092166044820152908616906333bebb7790606401602060405180830381600087803b158015611a1d57600080fd5b505af1158015611a31573d6000803e3d6000fd5b505050506040513d601f19601f82011682018060405250810190611a559190614bea565b50611a9a565b60405162461bcd60e51b81526020600482015260146024820152732737ba1030b63637bbb2b2103a3930b739b332b960611b6044820152606401610c54565b505050505050505050565b600154611abd906001600160a01b03163330846140a9565b6000600f5460001415611ad1575080611add565b611ada82613ba8565b90505b81600c6000828254611aef9190615673565b90915550506002546040516335313c2160e11b81523360048201526000916001600160a01b031690636a62784290602401602060405180830381600087803b158015611b3a57600080fd5b505af1158015611b4e573d6000803e3d6000fd5b505050506040513d601f19601f82011682018060405250810190611b72919061506e565b6040805160608101825285815260208082018681524383850190815260008681526012909352938220925183555160018301559151600290910155600f80549293508492909190611bc4908490615673565b9091555050505050565b6000611bd86140e1565b6001600160701b0316600c54611bee9190615673565b905090565b600f54600454600854600c54600d54600e546010805460609788976000978897889788978897889788978897889788979496600b96939563ffffffff600160a01b94859004811696948404811695600160c01b850482169561ffff600160e01b9687900416959394936001600160701b0380841694600160701b8504909116939190910416908c90611c84906157cd565b80601f0160208091040260200160405190810160405280929190818152602001828054611cb0906157cd565b8015611cfd5780601f10611cd257610100808354040283529160200191611cfd565b820191906000526020600020905b815481529060010190602001808311611ce057829003601f168201915b50505050509b508a8054611d10906157cd565b80601f0160208091040260200160405190810160405280929190818152602001828054611d3c906157cd565b8015611d895780601f10611d5e57610100808354040283529160200191611d89565b820191906000526020600020905b815481529060010190602001808311611d6c57829003601f168201915b50505050509a509b509b509b509b509b509b509b509b509b509b509b509b50909192939495969798999a9b565b6000546001600160a01b03163314611de05760405162461bcd60e51b8152600401610c54906154b5565b6001600160a01b038116611e065760405162461bcd60e51b8152600401610c549061543c565b600780546001600160a01b0319166001600160a01b0392909216919091179055565b6000546001600160a01b03163314611e525760405162461bcd60e51b8152600401610c54906154b5565b6001600160a01b038116611e785760405162461bcd60e51b8152600401610c549061543c565b600580546001600160a01b0319166001600160a01b0392909216919091179055565b6001600160a01b0316600090815260136020526040902054600160e01b900463ffffffff16151590565b6000546001600160a01b03163314611eee5760405162461bcd60e51b8152600401610c54906154b5565b82611ef881611e9a565b611f145760405162461bcd60e51b8152600401610c54906154ea565b8163ffffffff168363ffffffff161115611f645760405162461bcd60e51b8152602060048201526011602482015270496e76616c6964206475726174696f6e7360781b6044820152606401610c54565b506001600160a01b03929092166000908152601360205260409020600101805467ffffffffffffffff60a01b1916600160a01b63ffffffff9384160263ffffffff60c01b191617600160c01b9290931691909102919091179055565b6000546001600160a01b03163314611fea5760405162461bcd60e51b8152600401610c54906154b5565b6001600160a01b0381166120105760405162461bcd60e51b8152600401610c549061543c565b600880546001600160a01b0319166001600160a01b0392909216919091179055565b6000546001600160a01b0316331461205c5760405162461bcd60e51b8152600401610c54906154b5565b61206581614149565b50565b6000818152601260205260409020600281015443116120df5760405162461bcd60e51b815260206004820152602d60248201527f43616e6e6f742061646420616e642072656d6f7665206c69717569646974792060448201526c696e2073616d6520626c6f636b60981b6064820152608401610c54565b600181015460006120ef82613ba8565b90506120f961228c565b8111156121415760405162461bcd60e51b8152602060048201526016602482015275496e73756666696369656e74206c697175696469747960501b6044820152606401610c54565b600254604051630852cd8d60e31b8152600481018690526001600160a01b03909116906342966c6890602401600060405180830381600087803b15801561218757600080fd5b505af115801561219b573d6000803e3d6000fd5b50506001546121b792506001600160a01b031690503383613bca565b6121c081613c45565b81600f60008282546121d2919061576d565b909155505050600092835250506012602052604081208181556001810182905560020155565b6000546001600160a01b031633146122225760405162461bcd60e51b8152600401610c54906154b5565b61222e600b8383614854565b505050565b6001600160a01b0382166000908152601360205260408120600181015463ffffffff808516600160a01b90920416118015906122845750600181015463ffffffff600160c01b909104811690841611155b949350505050565b6000600d54612299611bce565b611bee919061576d565b6000546001600160a01b031633146122cd5760405162461bcd60e51b8152600401610c54906154b5565b6001600160a01b0381166122f35760405162461bcd60e51b8152600401610c549061543c565b600680546001600160a01b0319166001600160a01b0392909216919091179055565b6000546001600160a01b0316331461233f5760405162461bcd60e51b8152600401610c54906154b5565b60085463ffffffff808316600160a01b9092041611156123985760405162461bcd60e51b8152602060048201526014602482015273125b9d985b1a590819dc9858d9481c195c9a5bd960621b6044820152606401610c54565b6008805463ffffffff909216600160c01b0263ffffffff60c01b19909216919091179055565b60606014805480602002602001604051908101604052809291908181526020018280548015610d4557602002820191906000526020600020905b81546001600160a01b031681526001909101906020018083116123f8575050505050905090565b60008261242b81611e9a565b6124475760405162461bcd60e51b8152600401610c54906154ea565b6122848433856139d8565b60008181526012602052604081208054600182015461247090613ba8565b61247a919061576d565b9392505050565b6000546001600160a01b031633146124ab5760405162461bcd60e51b8152600401610c54906154b5565b6001600160a01b0381166124d15760405162461bcd60e51b8152600401610c549061543c565b61206581613f92565b6000546001600160a01b031633146125045760405162461bcd60e51b8152600401610c54906154b5565b8161250e81611e9a565b61252a5760405162461bcd60e51b8152600401610c54906154ea565b61222e8383613ca0565b61253d836115d2565b6125595760405162461bcd60e51b8152600401610c5490615462565b60008481526011602052604081208054601480549293929091600160701b900461ffff1690811061259a57634e487b7160e01b600052603260045260246000fd5b6000918252602090912001546001600160a01b03169050806125ce5760405162461bcd60e51b8152600401610c5490615413565b6125d88184612233565b6125f45760405162461bcd60e51b8152600401610c5490615516565b81544290612610908590600160a01b900463ffffffff1661568b565b63ffffffff1610156126575760405162461bcd60e51b815260206004820152601060248201526f24b73b30b634b210323ab930ba34b7b760811b6044820152606401610c54565b8154600d80546001600160701b039092169160009061267790849061576d565b90915550508154600090819061269a90849089906001600160701b031688613ddd565b508554600d80549395509193506001600160701b0316916000906126bf908490615673565b90915550600090506126d18284615648565b6001600160701b03169050868111156127225760405162461bcd60e51b8152602060048201526013602482015272536c69707061676520697320746f6f2062696760681b6044820152606401610c54565b6127376001600160a01b0389163330846140a9565b60065460015460405163029b465d60e01b81526001600160a01b038b81166004830152602482018590529182166044820152600092919091169063029b465d90606401602060405180830381600087803b15801561279457600080fd5b505af11580156127a8573d6000803e3d6000fd5b505050506040513d601f19601f820116820180604052508101906127cc919061506e565b90506000826127e4836001600160701b0387166156e1565b6127ee91906156aa565b60085460015491925061280e916001600160a01b03908116911683613bca565b600061281a828461576d565b9050612825816141f0565b8754600160a01b900463ffffffff1661283e8a8261568b565b895463ffffffff60a01b1916600160a01b63ffffffff928316810291909117808c5560085461287793908390048116929091041661568b565b895463ffffffff60c01b1916600160c01b63ffffffff928316810291909117808c556008546128b493929004821691600160a01b9091041661568b565b895463ffffffff91909116600160e01b026001600160e01b0390911617895560055460405163f8642f2960e01b8152600481018f90526001600160a01b039091169063f8642f2990602401600060405180830381600087803b15801561291957600080fd5b505af115801561292d573d6000803e3d6000fd5b50505050876001600160a01b03167f9853650269815e203c5c9e228db9ca05cc6037f2c2723c94ed3260cf98324c998e838c60000160149054906101000a900463ffffffff1660405161145b9392919092835263ffffffff918216602084015216604082015260600190565b6000546001600160a01b031615612a045760405162461bcd60e51b815260206004820152602960248201527f496e697469616c697a61626c654f776e61626c653a20616c726561647920696e6044820152681a5d1a585b1a5e995960ba1b6064820152608401610c54565b6001600160a01b038116612a6e5760405162461bcd60e51b815260206004820152602b60248201527f496e697469616c697a61626c654f776e61626c653a20696e76616c696420696e60448201526a34ba34b0b61037bbb732b960a91b6064820152608401610c54565b600080546001600160a01b0319166001600160a01b03831690811782556040519091907f8be0079c531659141344cd1fd0a4f28419497f9722a3daafe3b4186f6b6457e0908290a350565b60108054612ac6906157cd565b159050612b0b5760405162461bcd60e51b8152602060048201526013602482015272105b1c9958591e481a5b9a5d1a585b1a5e9959606a1b6044820152606401610c54565b612b1481612999565b8551612b279060109060208901906148d8565b50612b34600b8686614854565b50600580546001600160a01b03199081166001600160a01b03958616179091556006805482169385169390931790925560088054831691909316908117909255600780549091169091179055505050565b612ba960405180606001604052806000815260200160008152602001600081525090565b50600090815260126020908152604091829020825160608101845281548152600182015492810192909252600201549181019190915290565b84612bec81611e9a565b612c085760405162461bcd60e51b8152600401610c54906154ea565b612c11856115d2565b612c2d5760405162461bcd60e51b8152600401610c5490615462565b612c378683612233565b612c535760405162461bcd60e51b8152600401610c5490615516565b612c5b61228c565b846001600160701b03161115612cab5760405162461bcd60e51b8152602060048201526015602482015274496e73756666696369656e7420726573657276657360581b6044820152606401610c54565b600080600080612cbd8a8a8a89613ddd565b955090935091508390506000612cd38385615648565b6001600160701b0316905087856001600160701b031682612cf49190615673565b1115612d385760405162461bcd60e51b8152602060048201526013602482015272536c69707061676520697320746f6f2062696760681b6044820152606401610c54565b612d4d6001600160a01b038b163330846140a9565b60065460015460405163029b465d60e01b81526001600160a01b038d81166004830152602482018590529182166044820152600092919091169063029b465d90606401602060405180830381600087803b158015612daa57600080fd5b505af1158015612dbe573d6000803e3d6000fd5b505050506040513d601f19601f82011682018060405250810190612de2919061506e565b9050600082612dfa836001600160701b0388166156e1565b612e0491906156aa565b600854600154919250612e24916001600160a01b03908116911683613bca565b8a6001600160701b0316600d6000828254612e3f9190615673565b9091555060009050612e51828461576d565b9050612e5c816141f0565b5050600354612e8995506001600160a01b038c81169550339450169150506001600160701b0385166140a9565b426000612e96858361568b565b90506000600360009054906101000a90046001600160a01b03166001600160a01b031663caa0f92a6040518163ffffffff1660e01b8152600401602060405180830381600087803b158015612eea57600080fd5b505af1158015612efe573d6000803e3d6000fd5b505050506040513d601f19601f82011682018060405250810190612f22919061506e565b60408051610100810182526001600160701b038b1681526001600160a01b038d166000908152601360209081529083902060010154600160f01b900461ffff169082015263ffffffff868116928201929092528482166060820152600854929350916080830191612f9b91600160a01b9004168561568b565b63ffffffff168152602001600860189054906101000a900463ffffffff1684612fc4919061568b565b63ffffffff168152602001856001600160701b03168152602001612fe78b613a7f565b61ffff9081169091526000838152601160209081526040918290208451815492860151868501516060880151608089015160a08a01516001600160701b039586166001600160801b031998891617600160701b958b1686021767ffffffffffffffff60801b1916600160801b63ffffffff9586160263ffffffff60a01b191617600160a01b93851693909302929092176001600160c01b0316600160c01b918416919091026001600160e01b031617600160e01b929091169190910217835560c08701516001909301805460e0909801519390921696909316959095179316029190911790915560035490516335313c2160e11b815233600482015282916001600160a01b031690636a62784290602401602060405180830381600087803b15801561311257600080fd5b505af1158015613126573d6000803e3d6000fd5b505050506040513d601f19601f8201168201806040525081019061314a919061506e565b1461316557634e487b7160e01b600052600160045260246000fd5b60055460405163f8642f2960e01b8152600481018390526001600160a01b039091169063f8642f2990602401600060405180830381600087803b1580156131ab57600080fd5b505af11580156131bf573d6000803e3d6000fd5b50506040805184815263ffffffff878116602083015286168183015290516001600160a01b038e1693507f9853650269815e203c5c9e228db9ca05cc6037f2c2723c94ed3260cf98324c9992509081900360600190a250505050505050505050565b60008181526011602052604081208054601480549293929091600160701b900461ffff1690811061326257634e487b7160e01b600052603260045260246000fd5b6000918252602090912001546001600160a01b03169050806132965760405162461bcd60e51b8152600401610c5490615413565b6003546040516331a9108f60e11b8152600481018590526000916001600160a01b031690636352211e9060240160206040518083038186803b1580156132db57600080fd5b505afa1580156132ef573d6000803e3d6000fd5b505050506040513d601f19601f820116820180604052508101906133139190614acb565b8354909150429063ffffffff808316600160c01b90920416108061333f5750336001600160a01b038316145b6133a95760405162461bcd60e51b815260206004820152603560248201527f4f6e6c7920626f72726f7765722063616e2072657475726e2077697468696e20604482015274189bdc9c9bddd95c8819dc9858d9481c195c9a5bd9605a1b6064820152608401610c54565b835463ffffffff808316600160e01b9092041610806133d05750336001600160a01b038316145b806133e557506007546001600160a01b031633145b6134655760405162461bcd60e51b815260206004820152604560248201527f4f6e6c7920626f72726f776572206f7220656e74657270726973652063616e2060448201527f72657475726e2077697468696e20656e74657270726973652067726163652070606482015264195c9a5bd960da1b608482015260a401610c54565b8354600d80546001600160701b039092169160009061348590849061576d565b9091555050600354604051633f34d4cf60e21b8152600481018790523360248201526001600160a01b039091169063fcd3533c90604401600060405180830381600087803b1580156134d657600080fd5b505af11580156134ea573d6000803e3d6000fd5b5050506000958652505060116020525050604082209182555060010180546001600160801b0319169055565b6000546001600160a01b031633146135405760405162461bcd60e51b8152600401610c54906154b5565b6004805463ffffffff909216600160a01b0263ffffffff60a01b19909216919091179055565b6000546001600160a01b031633146135905760405162461bcd60e51b8152600401610c54906154b5565b6001600160a01b0381166135f55760405162461bcd60e51b815260206004820152602660248201527f4f776e61626c653a206e6577206f776e657220697320746865207a65726f206160448201526564647265737360d01b6064820152608401610c54565b600080546040516001600160a01b03808516939216917f8be0079c531659141344cd1fd0a4f28419497f9722a3daafe3b4186f6b6457e091a3600080546001600160a01b0319166001600160a01b0392909216919091179055565b601454606090819081908190806001600160401b0381111561368257634e487b7160e01b600052604160045260246000fd5b6040519080825280602002602001820160405280156136ab578160200160208202803683370190505b509450806001600160401b038111156136d457634e487b7160e01b600052604160045260246000fd5b60405190808252806020026020018201604052801561370757816020015b60608152602001906001900390816136f25790505b509350806001600160401b0381111561373057634e487b7160e01b600052604160045260246000fd5b60405190808252806020026020018201604052801561376357816020015b606081526020019060019003908161374e5790505b509250806001600160401b0381111561378c57634e487b7160e01b600052604160045260246000fd5b6040519080825280602002602001820160405280156137c557816020015b6137b261494c565b8152602001906001900390816137aa5790505b50915060005b818110156139d0576000601482815481106137f657634e487b7160e01b600052603260045260246000fd5b6000918252602082200154604080516306fdde0360e01b815290516001600160a01b03909216935083926306fdde0392600480840193829003018186803b15801561384057600080fd5b505afa158015613854573d6000803e3d6000fd5b505050506040513d6000823e601f3d908101601f1916820160405261387c9190810190614e37565b86838151811061389c57634e487b7160e01b600052603260045260246000fd5b6020026020010181905250806001600160a01b03166395d89b416040518163ffffffff1660e01b815260040160006040518083038186803b1580156138e057600080fd5b505afa1580156138f4573d6000803e3d6000fd5b505050506040513d6000823e601f3d908101601f1916820160405261391c9190810190614e37565b85838151811061393c57634e487b7160e01b600052603260045260246000fd5b60200260200101819052508087838151811061396857634e487b7160e01b600052603260045260246000fd5b60200260200101906001600160a01b031690816001600160a01b0316815250506139918161426c565b8483815181106139b157634e487b7160e01b600052603260045260246000fd5b60200260200101819052505080806139c890615808565b9150506137cb565b505090919293565b6000836139e481611e9a565b613a005760405162461bcd60e51b8152600401610c54906154ea565b60015460405163a1571a5760e01b81526001600160a01b0391821660048201523360248201528582166044820152606481018590529086169063a1571a5790608401600060405180830381600087803b158015613a5c57600080fd5b505af1158015613a70573d6000803e3d6000fd5b50600198975050505050505050565b6001600160a01b038116600090815260096020526040812054613aa690600190810b615700565b92915050565b6000546001600160a01b03163314613ad65760405162461bcd60e51b8152600401610c54906154b5565b83613ae081611e9a565b613afc5760405162461bcd60e51b8152600401610c54906154ea565b6001600160a01b038316613b475760405162461bcd60e51b815260206004820152601260248201527124b73b30b634b2102130b9b2902a37b5b2b760711b6044820152606401610c54565b506001600160a01b0393841660009081526013602052604090208054600182018054949096166001600160a01b0319909416939093179094556001600160701b03908116600160701b026001600160e01b0319909216921691909117179055565b6000600f5482613bb6611bce565b613bc091906156e1565b613aa691906156aa565b6040516001600160a01b03831660248201526044810182905261222e90849063a9059cbb60e01b906064015b60408051601f198184030181529190526020810180516001600160e01b03166001600160e01b03199093169290921790915261431b565b6000613c37611bce565b82600f54613bc091906156e1565b80600c5410613c6b5780600c6000828254613c60919061576d565b909155506120659050565b6000613c756143ed565b6001600160701b031690508181600c54613c8f9190615673565b613c99919061576d565b600c555050565b61138861ffff82161115613d045760405162461bcd60e51b815260206004820152602560248201527f4d6178696d756d2073657276696365206665652070657263656e7420746872656044820152641cda1bdb1960da1b6064820152608401610c54565b6001600160a01b039091166000908152601360205260409020600101805461ffff909216600160e01b0261ffff60e01b19909216919091179055565b6000604051733d602d80600a3d3981f3363d3d373d3d3d363d7360601b81528260601b60148201526e5af43d82803e903d91602b57fd5bf360881b60288201526037816000f09150506001600160a01b038116613dd85760405162461bcd60e51b8152602060048201526016602482015275115490cc4c4d8dce8818dc99585d194819985a5b195960521b6044820152606401610c54565b919050565b600554604051630641977d60e21b81526001600160a01b0386811660048301526001600160701b038516602483015263ffffffff8416604483015260009283928392839216906319065df49060640160206040518083038186803b158015613e4457600080fd5b505afa158015613e58573d6000803e3d6000fd5b505050506040513d601f19601f82011682018060405250810190613e7c9190615020565b90506000613e8a8983614479565b6006546001600160a01b038b81166000908152601360205260408082206001015490516314fdc96760e11b815290831660048201526001600160701b03871660248201528c83166044820152939450929116906329fb92ce9060640160206040518083038186803b158015613efe57600080fd5b505afa158015613f12573d6000803e3d6000fd5b505050506040513d601f19601f82011682018060405250810190613f36919061506e565b9050826001600160701b031681836001600160701b0316613f5791906156e1565b613f6191906156aa565b9450613f766001600160701b0386168261576d565b9550613f838a8a8a6144c1565b93505050509450945094915050565b6001600160a01b038116600090815260096020526040902054600190810b900b61402a57600a8054600180820183557fc65a7bb8d6351c1cf70c95a316cc6a92839c986682d98bc35f958f4883f9d2a890910180546001600160a01b0319166001600160a01b039490941693841790559054600092835260096020526040909220805461ffff191661ffff9390920b92909216179055565b6001600160a01b038116600090815260096020526040812054600190810b900b1215612065576001600160a01b0381166000908152600960205260409020546140759060010b615846565b6001600160a01b0382166000908152600960205260409020805460019290920b61ffff1661ffff1990921691909117905550565b6040516001600160a01b03808516602483015283166044820152606481018290526116979085906323b872dd60e01b90608401613bf6565b600e5460009061412c9063ffffffff600160e01b82041690614116906001600160701b0380821691600160701b900416615745565b600454600160a01b900463ffffffff16426145d8565b600e54611bee9190600160701b90046001600160701b0316615745565b6001600160a01b038116600090815260096020526040902054600190810b900b6141a55760405162461bcd60e51b815260206004820152600d60248201526c24b73b30b634b2103a37b5b2b760991b6044820152606401610c54565b6001600160a01b038116600090815260096020526040812054600190810b900b1315612065576001600160a01b0381166000908152600960205260409020546140759060010b615846565b6141f86140e1565b600e805463ffffffff4216600160e01b026dffffffffffffffffffffffffffff60701b9091166001600160701b03938416171780825583928291614245918591600160701b900416615648565b92506101000a8154816001600160701b0302191690836001600160701b0316021790555050565b61427461494c565b506001600160a01b0390811660009081526013602090815260409182902082516101008101845281546001600160701b038082168352600160701b8204169382019390935263ffffffff600160e01b938490048116948201949094526001909101549384166060820152600160a01b840483166080820152600160c01b840490921660a083015261ffff908304811660c0830152600160f01b90920490911660e082015290565b6000614370826040518060400160405280602081526020017f5361666545524332303a206c6f772d6c6576656c2063616c6c206661696c6564815250856001600160a01b03166147499092919063ffffffff16565b80519091501561222e578080602001905181019061438e9190614bea565b61222e5760405162461bcd60e51b815260206004820152602a60248201527f5361666545524332303a204552433230206f7065726174696f6e20646964206e6044820152691bdd081cdd58d8d9595960b21b6064820152608401610c54565b60006143f76140e1565b600e80546dffffffffffffffffffffffffffff191680825591925082918190614431908490600160701b90046001600160701b0316615745565b92506101000a8154816001600160701b0302191690836001600160701b0316021790555042600e601c6101000a81548163ffffffff021916908363ffffffff16021790555090565b6001600160a01b038216600090815260136020526040812060010154612710906144b790600160e01b900461ffff166001600160701b0385166156e1565b61247a91906156aa565b6008546000908190612710906144eb90600160e01b900461ffff166001600160701b0386166156e1565b6144f591906156aa565b6006546001600160a01b038781166000908152601360205260408082206001810154905491516314fdc96760e11b81529084166004820152600160701b9091046001600160701b031660248201528883166044820152939450929116906329fb92ce9060640160206040518083038186803b15801561457357600080fd5b505afa158015614587573d6000803e3d6000fd5b505050506040513d601f19601f820116820180604052508101906145ab919061506e565b9050806001600160701b0316826001600160701b0316106145cc57816145ce565b805b9695505050505050565b60008463ffffffff168263ffffffff1610156146275760405162461bcd60e51b815260206004820152600e60248201526d125b9d985b1a59081c195c9a5bd960921b6044820152606401610c54565b6146318583615784565b915061463d83836156be565b63ffffffff16846001600160701b0316901c9350828261465d9190615823565b915063ffffffff8216158061467957506001600160701b038416155b15614685575082612284565b60006001600160701b0385168163ffffffff808716906146b990871671b17217f7d1cf79abc9e3b39803f2f6af40f36156e1565b6146c391906156aa565b9050600160901b5b821561473c576146db8385615673565b9350806146e883856156e1565b6146f291906156aa565b9250614702600160901b82615673565b905061470e838561576d565b93508061471b83856156e1565b61472591906156aa565b9250614735600160901b82615673565b90506146cb565b5091979650505050505050565b6060612284848460008585843b6147a25760405162461bcd60e51b815260206004820152601d60248201527f416464726573733a2063616c6c20746f206e6f6e2d636f6e74726163740000006044820152606401610c54565b600080866001600160a01b031685876040516147be919061514f565b60006040518083038185875af1925050503d80600081146147fb576040519150601f19603f3d011682016040523d82523d6000602084013e614800565b606091505b509150915061481082828661481b565b979650505050505050565b6060831561482a57508161247a565b82511561483a5782518084602001fd5b8160405162461bcd60e51b8152600401610c549190615319565b828054614860906157cd565b90600052602060002090601f01602090048101928261488257600085556148c8565b82601f1061489b5782800160ff198235161785556148c8565b828001600101855582156148c8579182015b828111156148c85782358255916020019190600101906148ad565b506148d4929150614990565b5090565b8280546148e4906157cd565b90600052602060002090601f01602090048101928261490657600085556148c8565b82601f1061491f57805160ff19168380011785556148c8565b828001600101855582156148c8579182015b828111156148c8578251825591602001919060010190614931565b6040805161010081018252600080825260208201819052918101829052606081018290526080810182905260a0810182905260c0810182905260e081019190915290565b5b808211156148d45760008155600101614991565b60008083601f8401126149b6578182fd5b5081356001600160401b038111156149cc578182fd5b6020830191508360208260051b85010111156149e757600080fd5b9250929050565b60008083601f8401126149ff578182fd5b5081356001600160401b03811115614a15578182fd5b6020830191508360208285010111156149e757600080fd5b600082601f830112614a3d578081fd5b8135614a50614a4b82615621565b6155f1565b818152846020838601011115614a64578283fd5b816020850160208301379081016020019190915292915050565b8035613dd8816158bd565b803561ffff81168114613dd857600080fd5b803563ffffffff81168114613dd857600080fd5b600060208284031215614ac0578081fd5b813561247a816158a8565b600060208284031215614adc578081fd5b815161247a816158a8565b600080600060608486031215614afb578182fd5b8335614b06816158a8565b92506020840135614b16816158a8565b929592945050506040919091013590565b60008060008060808587031215614b3c578081fd5b8435614b47816158a8565b93506020850135614b57816158a8565b92506040850135614b67816158a8565b91506060850135614b77816158a8565b939692955090935050565b60008060008060408587031215614b97578384fd5b84356001600160401b0380821115614bad578586fd5b614bb9888389016149a5565b90965094506020870135915080821115614bd1578384fd5b50614bde878288016149a5565b95989497509550505050565b600060208284031215614bfb578081fd5b8151801515811461247a578182fd5b600080600060608486031215614afb578081fd5b600080600080600060a08688031215614c35578283fd5b8535614c40816158a8565b94506020860135614c50816158a8565b93506040860135614c60816158bd565b925060608601359150614c7560808701614a9b565b90509295509295909350565b60008060008060808587031215614c96578182fd5b8435614ca1816158a8565b93506020850135614cb1816158a8565b92506040850135614cc1816158bd565b9150614ccf60608601614a9b565b905092959194509250565b60008060008060808587031215614cef578182fd5b8435614cfa816158a8565b93506020850135614d0a816158bd565b92506040850135614d1a816158a8565b91506060850135614b77816158bd565b60008060408385031215614d3c578182fd5b8235614d47816158a8565b9150614d5560208401614a89565b90509250929050565b60008060408385031215614d70578182fd5b8235614d7b816158a8565b946020939093013593505050565b60008060408385031215614d9b578182fd5b8235614da6816158a8565b9150614d5560208401614a9b565b600080600060608486031215614dc8578081fd5b8335614dd3816158a8565b9250614de160208501614a9b565b9150614def60408501614a9b565b90509250925092565b60008060208385031215614e0a578182fd5b82356001600160401b03811115614e1f578283fd5b614e2b858286016149ee565b90969095509350505050565b600060208284031215614e48578081fd5b81516001600160401b03811115614e5d578182fd5b8201601f81018413614e6d578182fd5b8051614e7b614a4b82615621565b818152856020838501011115614e8f578384fd5b614ea08260208301602086016157a1565b95945050505050565b60008060008060008060a08789031215614ec1578384fd5b86356001600160401b0380821115614ed7578586fd5b614ee38a838b01614a2d565b97506020890135915080821115614ef8578586fd5b50614f0589828a016149ee565b9096509450506040870135614f19816158a8565b92506060870135614f29816158a8565b91506080870135614f39816158a8565b809150509295509295509295565b60008060008060008060008060006101208a8c031215614f65578687fd5b89356001600160401b0380821115614f7b578889fd5b614f878d838e01614a2d565b9a5060208c0135915080821115614f9c578889fd5b50614fa98c828d01614a2d565b985050614fb860408b01614a9b565b965060608a0135614fc8816158bd565b955060808a0135614fd8816158a8565b9450614fe660a08b01614a89565b9350614ff460c08b01614a9b565b925061500260e08b01614a9b565b91506150116101008b01614a7e565b90509295985092959850929598565b600060208284031215615031578081fd5b815161247a816158bd565b60006020828403121561504d578081fd5b61247a82614a89565b600060208284031215615067578081fd5b5035919050565b60006020828403121561507f578081fd5b5051919050565b6000806000806080858703121561509b578182fd5b8435935060208501356150ad816158a8565b925060408501359150614ccf60608601614a9b565b6000602082840312156150d3578081fd5b61247a82614a9b565b600081518084526020808501808196508360051b81019150828601855b8581101561473c578284038952615111848351615123565b988501989350908401906001016150f9565b6000815180845261513b8160208601602086016157a1565b601f01601f19169290920160200192915050565b600082516151618184602087016157a1565b9190910192915050565b6000835161517d8184602088016157a1565b600160fd1b908301908152835161519b8160018401602088016157a1565b01600101949350505050565b608080825285518282018190526000919060a090818501906020808b01865b838110156151eb5781516001600160a01b0316855293820193908201906001016151c6565b5050868303818801526151fe838b6150dc565b92506040915086830382880152615215838a6150dc565b92506060878403818901528389518086528386019150838b019550885b818110156152b957865180516001600160701b0390811685528682015116868501528681015163ffffffff90811688860152858201516001600160a01b0316868601528a82015181168b86015289820151168985015260c08082015161ffff9081169186019190915260e09182015116908401529584019561010090920191600101615232565b50909d9c50505050505050505050505050565b6020808252825182820181905260009190848201906040850190845b8181101561530d5783516001600160a01b0316835292840192918401916001016152e8565b50909695505050505050565b60208152600061247a6020830184615123565b60608152600061533f6060830186615123565b82810360208401526153518186615123565b91505060018060a01b0383166040830152949350505050565b6101808152600061537f61018083018f615123565b8281036020840152615391818f615123565b9150508b604083015263ffffffff808c166060840152808b166080840152808a1660a08401525061ffff881660c08301528660e0830152856101008301526001600160701b0385166101208301526153f56101408301856001600160701b03169052565b63ffffffff83166101608301529d9c50505050505050505050505050565b6020808252600f908201526e125b9d985b1a59081d1bdad95b9259608a1b604082015260600190565b6020808252600c908201526b5a65726f206164647265737360a01b604082015260600190565b60208082526033908201527f496e746572657374207061796d656e7420746f6b656e2069732064697361626c6040820152721959081bdc881b9bdd081cdd5c1c1bdc9d1959606a1b606082015260800190565b6020808252818101527f4f776e61626c653a2063616c6c6572206973206e6f7420746865206f776e6572604082015260600190565b6020808252601290820152712ab735b737bbb7102837bbb2b92a37b5b2b760711b604082015260600190565b60208082526017908201527f4475726174696f6e206973206e6f7420616c6c6f776564000000000000000000604082015260600190565b6000610100820190506001600160701b03835116825261ffff6020840151166020830152604083015163ffffffff8082166040850152806060860151166060850152505060808301516155a8608084018263ffffffff169052565b5060a08301516155c060a084018263ffffffff169052565b5060c08301516155db60c08401826001600160701b03169052565b5060e083015161173660e084018261ffff169052565b604051601f8201601f191681016001600160401b038111828210171561561957615619615892565b604052919050565b60006001600160401b0382111561563a5761563a615892565b50601f01601f191660200190565b60006001600160701b0380831681851680830382111561566a5761566a615866565b01949350505050565b6000821982111561568657615686615866565b500190565b600063ffffffff80831681851680830382111561566a5761566a615866565b6000826156b9576156b961587c565b500490565b600063ffffffff808416806156d5576156d561587c565b92169190910492915050565b60008160001904831182151516156156fb576156fb615866565b500290565b60008160010b8360010b82811281617fff190183128115161561572557615725615866565b81617fff01831381161561573b5761573b615866565b5090039392505050565b60006001600160701b038381169083168181101561576557615765615866565b039392505050565b60008282101561577f5761577f615866565b500390565b600063ffffffff8381169083168181101561576557615765615866565b60005b838110156157bc5781810151838201526020016157a4565b838111156116975750506000910152565b600181811c908216806157e157607f821691505b6020821081141561580257634e487b7160e01b600052602260045260246000fd5b50919050565b600060001982141561581c5761581c615866565b5060010190565b600063ffffffff8084168061583a5761583a61587c565b92169190910692915050565b60008160010b617fff1981141561585f5761585f615866565b9003919050565b634e487b7160e01b600052601160045260246000fd5b634e487b7160e01b600052601260045260246000fd5b634e487b7160e01b600052604160045260246000fd5b6001600160a01b038116811461206557600080fd5b6001600160701b038116811461206557600080fdfea2646970667358221220745fdee121a3636d9227bd8ed2c53eaca24f44c513673ccd24371bd2c2b9342464736f6c63430008040033",
  "linkReferences": {},
  "deployedLinkReferences": {}
}