{
  "_format": "hh-sol-artifact-1",
  "contractName": "Enterprise",
  "sourceName": "contracts/Enterprise.sol",
  "abi": [
    {
      "anonymous": false,
      "inputs": [
        {
          "indexed": true,
          "internalType": "address",
          "name": "powerToken",
          "type": "address"
        },
        {
          "indexed": false,
          "internalType": "uint256",
          "name": "tokenId",
          "type": "uint256"
        },
        {
          "indexed": false,
          "internalType": "uint32",
          "name": "from",
          "type": "uint32"
        },
        {
          "indexed": false,
          "internalType": "uint32",
          "name": "to",
          "type": "uint32"
        }
      ],
      "name": "Borrowed",
      "type": "event"
    },
    {
      "anonymous": false,
      "inputs": [
        {
          "indexed": true,
          "internalType": "address",
          "name": "previousOwner",
          "type": "address"
        },
        {
          "indexed": true,
          "internalType": "address",
          "name": "newOwner",
          "type": "address"
        }
      ],
      "name": "OwnershipTransferred",
      "type": "event"
    },
    {
      "anonymous": false,
      "inputs": [
        {
          "indexed": true,
          "internalType": "address",
          "name": "powerToken",
          "type": "address"
        },
        {
          "indexed": false,
          "internalType": "uint32",
          "name": "halfLife",
          "type": "uint32"
        },
        {
          "indexed": false,
          "internalType": "uint112",
          "name": "factor",
          "type": "uint112"
        }
      ],
      "name": "ServiceRegistered",
      "type": "event"
    },
    {
      "inputs": [
        {
          "internalType": "uint256",
          "name": "liquidityAmount",
          "type": "uint256"
        }
      ],
      "name": "addLiquidity",
      "outputs": [],
      "stateMutability": "nonpayable",
      "type": "function"
    },
    {
      "inputs": [
        {
          "internalType": "contract IPowerToken",
          "name": "powerToken",
          "type": "address"
        },
        {
          "internalType": "contract IERC20",
          "name": "paymentToken",
          "type": "address"
        },
        {
          "internalType": "uint112",
          "name": "amount",
          "type": "uint112"
        },
        {
          "internalType": "uint256",
          "name": "maximumPayment",
          "type": "uint256"
        },
        {
          "internalType": "uint32",
          "name": "duration",
          "type": "uint32"
        }
      ],
      "name": "borrow",
      "outputs": [],
      "stateMutability": "nonpayable",
      "type": "function"
    },
    {
      "inputs": [
        {
          "internalType": "address",
          "name": "token",
          "type": "address"
        }
      ],
      "name": "disablePaymentToken",
      "outputs": [],
      "stateMutability": "nonpayable",
      "type": "function"
    },
    {
      "inputs": [
        {
          "internalType": "address",
          "name": "token",
          "type": "address"
        }
      ],
      "name": "enablePaymentToken",
      "outputs": [],
      "stateMutability": "nonpayable",
      "type": "function"
    },
    {
      "inputs": [
        {
          "internalType": "contract IPowerToken",
          "name": "powerToken",
          "type": "address"
        },
        {
          "internalType": "contract IERC20",
          "name": "paymentToken",
          "type": "address"
        },
        {
          "internalType": "uint112",
          "name": "amount",
          "type": "uint112"
        },
        {
          "internalType": "uint32",
          "name": "duration",
          "type": "uint32"
        }
      ],
      "name": "estimateLoan",
      "outputs": [
        {
          "internalType": "uint256",
          "name": "",
          "type": "uint256"
        }
      ],
      "stateMutability": "view",
      "type": "function"
    },
    {
      "inputs": [],
      "name": "getAvailableReserve",
      "outputs": [
        {
          "internalType": "uint256",
          "name": "",
          "type": "uint256"
        }
      ],
      "stateMutability": "view",
      "type": "function"
    },
    {
      "inputs": [],
      "name": "getBaseUri",
      "outputs": [
        {
          "internalType": "string",
          "name": "",
          "type": "string"
        }
      ],
      "stateMutability": "view",
      "type": "function"
    },
    {
      "inputs": [],
      "name": "getBorrowToken",
      "outputs": [
        {
          "internalType": "contract IBorrowToken",
          "name": "",
          "type": "address"
        }
      ],
      "stateMutability": "view",
      "type": "function"
    },
    {
      "inputs": [],
      "name": "getBorrowerLoanReturnGracePeriod",
      "outputs": [
        {
          "internalType": "uint32",
          "name": "",
          "type": "uint32"
        }
      ],
      "stateMutability": "view",
      "type": "function"
    },
    {
      "inputs": [],
      "name": "getConverter",
      "outputs": [
        {
          "internalType": "contract IConverter",
          "name": "",
          "type": "address"
        }
      ],
      "stateMutability": "view",
      "type": "function"
    },
    {
      "inputs": [],
      "name": "getEnterpriseCollector",
      "outputs": [
        {
          "internalType": "address",
          "name": "",
          "type": "address"
        }
      ],
      "stateMutability": "view",
      "type": "function"
    },
    {
      "inputs": [],
      "name": "getEnterpriseLoanCollectGracePeriod",
      "outputs": [
        {
          "internalType": "uint32",
          "name": "",
          "type": "uint32"
        }
      ],
      "stateMutability": "view",
      "type": "function"
    },
    {
      "inputs": [],
      "name": "getEnterpriseVault",
      "outputs": [
        {
          "internalType": "address",
          "name": "",
          "type": "address"
        }
      ],
      "stateMutability": "view",
      "type": "function"
    },
    {
      "inputs": [],
      "name": "getGCFeePercent",
      "outputs": [
        {
          "internalType": "uint16",
          "name": "",
          "type": "uint16"
        }
      ],
      "stateMutability": "view",
      "type": "function"
    },
    {
      "inputs": [],
      "name": "getInfo",
      "outputs": [
        {
          "internalType": "uint256",
          "name": "reserve",
          "type": "uint256"
        },
        {
          "internalType": "uint256",
          "name": "usedReserve",
          "type": "uint256"
        },
        {
          "internalType": "uint256",
          "name": "totalShares",
          "type": "uint256"
        },
        {
          "internalType": "string",
          "name": "name",
          "type": "string"
        }
      ],
      "stateMutability": "view",
      "type": "function"
    },
    {
      "inputs": [],
      "name": "getInterestToken",
      "outputs": [
        {
          "internalType": "contract IInterestToken",
          "name": "",
          "type": "address"
        }
      ],
      "stateMutability": "view",
      "type": "function"
    },
    {
      "inputs": [
        {
          "internalType": "uint256",
          "name": "tokenId",
          "type": "uint256"
        }
      ],
      "name": "getLiquidityInfo",
      "outputs": [
        {
          "components": [
            {
              "internalType": "uint256",
              "name": "amount",
              "type": "uint256"
            },
            {
              "internalType": "uint256",
              "name": "shares",
              "type": "uint256"
            },
            {
              "internalType": "uint256",
              "name": "block",
              "type": "uint256"
            }
          ],
          "internalType": "struct EnterpriseStorage.LiquidityInfo",
          "name": "",
          "type": "tuple"
        }
      ],
      "stateMutability": "view",
      "type": "function"
    },
    {
      "inputs": [],
      "name": "getLiquidityToken",
      "outputs": [
        {
          "internalType": "contract IERC20Metadata",
          "name": "",
          "type": "address"
        }
      ],
      "stateMutability": "view",
      "type": "function"
    },
    {
      "inputs": [],
      "name": "getLoanCostEstimator",
      "outputs": [
        {
          "internalType": "contract IEstimator",
          "name": "",
          "type": "address"
        }
      ],
      "stateMutability": "view",
      "type": "function"
    },
    {
      "inputs": [
        {
          "internalType": "uint256",
          "name": "tokenId",
          "type": "uint256"
        }
      ],
      "name": "getLoanInfo",
      "outputs": [
        {
          "components": [
            {
              "internalType": "uint112",
              "name": "amount",
              "type": "uint112"
            },
            {
              "internalType": "uint16",
              "name": "powerTokenIndex",
              "type": "uint16"
            },
            {
              "internalType": "uint32",
              "name": "borrowingTime",
              "type": "uint32"
            },
            {
              "internalType": "uint32",
              "name": "maturityTime",
              "type": "uint32"
            },
            {
              "internalType": "uint32",
              "name": "borrowerReturnGraceTime",
              "type": "uint32"
            },
            {
              "internalType": "uint32",
              "name": "enterpriseCollectGraceTime",
              "type": "uint32"
            },
            {
              "internalType": "uint112",
              "name": "gcFee",
              "type": "uint112"
            },
            {
              "internalType": "uint16",
              "name": "gcFeeTokenIndex",
              "type": "uint16"
            }
          ],
          "internalType": "struct EnterpriseStorage.LoanInfo",
          "name": "",
          "type": "tuple"
        }
      ],
      "stateMutability": "view",
      "type": "function"
    },
    {
      "inputs": [
        {
          "internalType": "uint256",
          "name": "tokenId",
          "type": "uint256"
        }
      ],
      "name": "getOwedInterest",
      "outputs": [
        {
          "internalType": "uint256",
          "name": "",
          "type": "uint256"
        }
      ],
      "stateMutability": "view",
      "type": "function"
    },
    {
      "inputs": [
        {
          "internalType": "uint256",
          "name": "index",
          "type": "uint256"
        }
      ],
      "name": "getPowerToken",
      "outputs": [
        {
          "internalType": "contract IPowerToken",
          "name": "",
          "type": "address"
        }
      ],
      "stateMutability": "view",
      "type": "function"
    },
    {
      "inputs": [],
      "name": "getPowerTokenImpl",
      "outputs": [
        {
          "internalType": "address",
          "name": "",
          "type": "address"
        }
      ],
      "stateMutability": "view",
      "type": "function"
    },
    {
      "inputs": [
        {
          "internalType": "contract IPowerToken",
          "name": "powerToken",
          "type": "address"
        }
      ],
      "name": "getPowerTokenIndex",
      "outputs": [
        {
          "internalType": "uint16",
          "name": "",
          "type": "uint16"
        }
      ],
      "stateMutability": "view",
      "type": "function"
    },
    {
      "inputs": [],
      "name": "getPowerTokens",
      "outputs": [
        {
          "internalType": "contract IPowerToken[]",
          "name": "",
          "type": "address[]"
        }
      ],
      "stateMutability": "view",
      "type": "function"
    },
    {
      "inputs": [],
      "name": "getPowerTokensInfo",
      "outputs": [
        {
          "internalType": "address[]",
          "name": "addresses",
          "type": "address[]"
        },
        {
          "internalType": "string[]",
          "name": "names",
          "type": "string[]"
        },
        {
          "internalType": "string[]",
          "name": "symbols",
          "type": "string[]"
        },
        {
          "internalType": "uint32[]",
          "name": "halfLifes",
          "type": "uint32[]"
        }
      ],
      "stateMutability": "view",
      "type": "function"
    },
    {
      "inputs": [],
      "name": "getReserve",
      "outputs": [
        {
          "internalType": "uint256",
          "name": "",
          "type": "uint256"
        }
      ],
      "stateMutability": "view",
      "type": "function"
    },
    {
      "inputs": [
        {
          "internalType": "contract IPowerToken",
          "name": "powerToken",
          "type": "address"
        }
      ],
      "name": "getServiceBaseRate",
      "outputs": [
        {
          "internalType": "uint112",
          "name": "",
          "type": "uint112"
        }
      ],
      "stateMutability": "view",
      "type": "function"
    },
    {
      "inputs": [
        {
          "internalType": "contract IPowerToken",
          "name": "powerToken",
          "type": "address"
        }
      ],
      "name": "getServiceBaseToken",
      "outputs": [
        {
          "internalType": "contract IERC20Metadata",
          "name": "",
          "type": "address"
        }
      ],
      "stateMutability": "view",
      "type": "function"
    },
    {
      "inputs": [
        {
          "internalType": "contract IPowerToken",
          "name": "powerToken",
          "type": "address"
        }
      ],
      "name": "getServiceFeePercent",
      "outputs": [
        {
          "internalType": "uint112",
          "name": "",
          "type": "uint112"
        }
      ],
      "stateMutability": "view",
      "type": "function"
    },
    {
      "inputs": [
        {
          "internalType": "contract IPowerToken",
          "name": "powerToken",
          "type": "address"
        }
      ],
      "name": "getServiceHalfLife",
      "outputs": [
        {
          "internalType": "uint32",
          "name": "",
          "type": "uint32"
        }
      ],
      "stateMutability": "view",
      "type": "function"
    },
    {
      "inputs": [
        {
          "internalType": "contract IPowerToken",
          "name": "powerToken",
          "type": "address"
        }
      ],
      "name": "getServiceMaxLoanDuration",
      "outputs": [
        {
          "internalType": "uint32",
          "name": "",
          "type": "uint32"
        }
      ],
      "stateMutability": "view",
      "type": "function"
    },
    {
      "inputs": [
        {
          "internalType": "contract IPowerToken",
          "name": "powerToken",
          "type": "address"
        }
      ],
      "name": "getServiceMinGCFee",
      "outputs": [
        {
          "internalType": "uint112",
          "name": "",
          "type": "uint112"
        }
      ],
      "stateMutability": "view",
      "type": "function"
    },
    {
      "inputs": [
        {
          "internalType": "contract IPowerToken",
          "name": "powerToken",
          "type": "address"
        }
      ],
      "name": "getServiceMinLoanDuration",
      "outputs": [
        {
          "internalType": "uint32",
          "name": "",
          "type": "uint32"
        }
      ],
      "stateMutability": "view",
      "type": "function"
    },
    {
      "inputs": [],
      "name": "getUsedReserve",
      "outputs": [
        {
          "internalType": "uint256",
          "name": "",
          "type": "uint256"
        }
      ],
      "stateMutability": "view",
      "type": "function"
    },
    {
      "inputs": [
        {
          "internalType": "address",
          "name": "initialOwner",
          "type": "address"
        }
      ],
      "name": "initialize",
      "outputs": [],
      "stateMutability": "nonpayable",
      "type": "function"
    },
    {
      "inputs": [
        {
          "internalType": "string",
          "name": "enterpriseName",
          "type": "string"
        },
        {
          "internalType": "string",
          "name": "baseUri",
          "type": "string"
        },
        {
          "internalType": "contract IEstimator",
          "name": "estimator",
          "type": "address"
        },
        {
          "internalType": "contract IConverter",
          "name": "converter",
          "type": "address"
        },
        {
          "internalType": "address",
          "name": "owner",
          "type": "address"
        }
      ],
      "name": "initialize",
      "outputs": [],
      "stateMutability": "nonpayable",
      "type": "function"
    },
    {
      "inputs": [
        {
          "internalType": "address",
          "name": "powerTokenImpl",
          "type": "address"
        },
        {
          "internalType": "contract IERC20Metadata",
          "name": "liquidityToken",
          "type": "address"
        },
        {
          "internalType": "contract IInterestToken",
          "name": "interestToken",
          "type": "address"
        },
        {
          "internalType": "contract IBorrowToken",
          "name": "borrowToken",
          "type": "address"
        }
      ],
      "name": "initializeTokens",
      "outputs": [],
      "stateMutability": "nonpayable",
      "type": "function"
    },
    {
      "inputs": [
        {
          "internalType": "contract IPowerToken",
          "name": "powerToken",
          "type": "address"
        }
      ],
      "name": "isRegisteredPowerToken",
      "outputs": [
        {
          "internalType": "bool",
          "name": "",
          "type": "bool"
        }
      ],
      "stateMutability": "view",
      "type": "function"
    },
    {
      "inputs": [
        {
          "internalType": "contract IPowerToken",
          "name": "powerToken",
          "type": "address"
        },
        {
          "internalType": "uint32",
          "name": "duration",
          "type": "uint32"
        }
      ],
      "name": "isServiceAllowedLoanDuration",
      "outputs": [
        {
          "internalType": "bool",
          "name": "",
          "type": "bool"
        }
      ],
      "stateMutability": "view",
      "type": "function"
    },
    {
      "inputs": [
        {
          "internalType": "contract IERC20",
          "name": "token",
          "type": "address"
        }
      ],
      "name": "isSupportedPaymentToken",
      "outputs": [
        {
          "internalType": "bool",
          "name": "",
          "type": "bool"
        }
      ],
      "stateMutability": "view",
      "type": "function"
    },
    {
      "inputs": [
        {
          "internalType": "address",
          "name": "from",
          "type": "address"
        },
        {
          "internalType": "address",
          "name": "to",
          "type": "address"
        },
        {
          "internalType": "uint256",
          "name": "tokenId",
          "type": "uint256"
        }
      ],
      "name": "loanTransfer",
      "outputs": [],
      "stateMutability": "nonpayable",
      "type": "function"
    },
    {
      "inputs": [],
      "name": "owner",
      "outputs": [
        {
          "internalType": "address",
          "name": "",
          "type": "address"
        }
      ],
      "stateMutability": "view",
      "type": "function"
    },
    {
      "inputs": [
        {
          "internalType": "uint256",
          "name": "tokenId",
          "type": "uint256"
        },
        {
          "internalType": "contract IERC20",
          "name": "paymentToken",
          "type": "address"
        },
        {
          "internalType": "uint256",
          "name": "maximumPayment",
          "type": "uint256"
        },
        {
          "internalType": "uint32",
          "name": "duration",
          "type": "uint32"
        }
      ],
      "name": "reborrow",
      "outputs": [],
      "stateMutability": "nonpayable",
      "type": "function"
    },
    {
      "inputs": [
        {
          "internalType": "string",
          "name": "serviceName",
          "type": "string"
        },
        {
          "internalType": "string",
          "name": "symbol",
          "type": "string"
        },
        {
          "internalType": "uint32",
          "name": "halfLife",
          "type": "uint32"
        },
        {
          "internalType": "uint112",
          "name": "baseRate",
          "type": "uint112"
        },
        {
          "internalType": "contract IERC20Metadata",
          "name": "baseToken",
          "type": "address"
        },
        {
          "internalType": "uint16",
          "name": "serviceFee",
          "type": "uint16"
        },
        {
          "internalType": "uint32",
          "name": "minLoanDuration",
          "type": "uint32"
        },
        {
          "internalType": "uint32",
          "name": "maxLoanDuration",
          "type": "uint32"
        },
        {
          "internalType": "uint112",
          "name": "minGCFee",
          "type": "uint112"
        }
      ],
      "name": "registerService",
      "outputs": [],
      "stateMutability": "nonpayable",
      "type": "function"
    },
    {
      "inputs": [
        {
          "internalType": "uint256",
          "name": "tokenId",
          "type": "uint256"
        }
      ],
      "name": "removeLiquidity",
      "outputs": [],
      "stateMutability": "nonpayable",
      "type": "function"
    },
    {
      "inputs": [
        {
          "internalType": "uint256",
          "name": "tokenId",
          "type": "uint256"
        }
      ],
      "name": "returnLoan",
      "outputs": [],
      "stateMutability": "nonpayable",
      "type": "function"
    },
    {
      "inputs": [
        {
          "internalType": "contract IPowerToken[]",
          "name": "powerToken",
          "type": "address[]"
        },
        {
          "internalType": "uint16[]",
          "name": "newServiceFeePercent",
          "type": "uint16[]"
        }
      ],
      "name": "scheduleServiceFeePercentBatch",
      "outputs": [],
      "stateMutability": "nonpayable",
      "type": "function"
    },
    {
      "inputs": [
        {
          "internalType": "string",
          "name": "baseUri",
          "type": "string"
        }
      ],
      "name": "setBaseUri",
      "outputs": [],
      "stateMutability": "nonpayable",
      "type": "function"
    },
    {
      "inputs": [
        {
          "internalType": "uint32",
          "name": "newPeriod",
          "type": "uint32"
        }
      ],
      "name": "setBorrowerLoanReturnGracePeriod",
      "outputs": [],
      "stateMutability": "nonpayable",
      "type": "function"
    },
    {
      "inputs": [
        {
          "internalType": "contract IConverter",
          "name": "newConverter",
          "type": "address"
        }
      ],
      "name": "setConverter",
      "outputs": [],
      "stateMutability": "nonpayable",
      "type": "function"
    },
    {
      "inputs": [
        {
          "internalType": "address",
          "name": "newCollector",
          "type": "address"
        }
      ],
      "name": "setEnterpriseCollector",
      "outputs": [],
      "stateMutability": "nonpayable",
      "type": "function"
    },
    {
      "inputs": [
        {
          "internalType": "uint32",
          "name": "newPeriod",
          "type": "uint32"
        }
      ],
      "name": "setEnterpriseLoanCollectGracePeriod",
      "outputs": [],
      "stateMutability": "nonpayable",
      "type": "function"
    },
    {
      "inputs": [
        {
          "internalType": "address",
          "name": "newVault",
          "type": "address"
        }
      ],
      "name": "setEnterpriseVault",
      "outputs": [],
      "stateMutability": "nonpayable",
      "type": "function"
    },
    {
      "inputs": [
        {
          "internalType": "uint16",
          "name": "newGcFeePercent",
          "type": "uint16"
        }
      ],
      "name": "setGcFeePercent",
      "outputs": [],
      "stateMutability": "nonpayable",
      "type": "function"
    },
    {
      "inputs": [
        {
          "internalType": "contract IEstimator",
          "name": "newEstimator",
          "type": "address"
        }
      ],
      "name": "setLoanCostEstimator",
      "outputs": [],
      "stateMutability": "nonpayable",
      "type": "function"
    },
    {
      "inputs": [
        {
          "internalType": "contract IPowerToken",
          "name": "powerToken",
          "type": "address"
        },
        {
          "internalType": "uint112",
          "name": "baseRate",
          "type": "uint112"
        },
        {
          "internalType": "contract IERC20Metadata",
          "name": "baseToken",
          "type": "address"
        },
        {
          "internalType": "uint112",
          "name": "minGCFee",
          "type": "uint112"
        }
      ],
      "name": "setServiceBaseRate",
      "outputs": [],
      "stateMutability": "nonpayable",
      "type": "function"
    },
    {
      "inputs": [
        {
          "internalType": "contract IPowerToken",
          "name": "powerToken",
          "type": "address"
        },
        {
          "internalType": "uint16",
          "name": "newFeePercent",
          "type": "uint16"
        }
      ],
      "name": "setServiceFeePercent",
      "outputs": [],
      "stateMutability": "nonpayable",
      "type": "function"
    },
    {
      "inputs": [
        {
          "internalType": "contract IPowerToken",
          "name": "powerToken",
          "type": "address"
        },
        {
          "internalType": "uint32",
          "name": "minLoanDuration",
          "type": "uint32"
        },
        {
          "internalType": "uint32",
          "name": "maxLoanDuration",
          "type": "uint32"
        }
      ],
      "name": "setServiceLoanDurationLimits",
      "outputs": [],
      "stateMutability": "nonpayable",
      "type": "function"
    },
    {
      "inputs": [
        {
          "internalType": "uint256",
          "name": "index",
          "type": "uint256"
        }
      ],
      "name": "supportedPaymentTokens",
      "outputs": [
        {
          "internalType": "address",
          "name": "",
          "type": "address"
        }
      ],
      "stateMutability": "view",
      "type": "function"
    },
    {
      "inputs": [
        {
          "internalType": "contract IERC20",
          "name": "token",
          "type": "address"
        }
      ],
      "name": "supportedPaymentTokensIndex",
      "outputs": [
        {
          "internalType": "int16",
          "name": "",
          "type": "int16"
        }
      ],
      "stateMutability": "view",
      "type": "function"
    },
    {
      "inputs": [
        {
          "internalType": "address",
          "name": "newOwner",
          "type": "address"
        }
      ],
      "name": "transferOwnership",
      "outputs": [],
      "stateMutability": "nonpayable",
      "type": "function"
    },
    {
      "inputs": [
        {
          "internalType": "contract IPowerToken",
          "name": "powerToken",
          "type": "address"
        },
        {
          "internalType": "uint256",
          "name": "amount",
          "type": "uint256"
        }
      ],
      "name": "unwrap",
      "outputs": [
        {
          "internalType": "bool",
          "name": "",
          "type": "bool"
        }
      ],
      "stateMutability": "nonpayable",
      "type": "function"
    },
    {
      "inputs": [
        {
          "internalType": "uint256",
          "name": "tokenId",
          "type": "uint256"
        }
      ],
      "name": "withdrawInterest",
      "outputs": [],
      "stateMutability": "nonpayable",
      "type": "function"
    },
    {
      "inputs": [
        {
          "internalType": "contract IPowerToken",
          "name": "powerToken",
          "type": "address"
        },
        {
          "internalType": "uint256",
          "name": "amount",
          "type": "uint256"
        }
      ],
      "name": "wrap",
      "outputs": [
        {
          "internalType": "bool",
          "name": "",
          "type": "bool"
        }
      ],
      "stateMutability": "nonpayable",
      "type": "function"
    },
    {
      "inputs": [
        {
          "internalType": "contract IPowerToken",
          "name": "powerToken",
          "type": "address"
        },
        {
          "internalType": "address",
          "name": "to",
          "type": "address"
        },
        {
          "internalType": "uint256",
          "name": "amount",
          "type": "uint256"
        }
      ],
      "name": "wrapTo",
      "outputs": [
        {
          "internalType": "bool",
          "name": "",
          "type": "bool"
        }
      ],
      "stateMutability": "nonpayable",
      "type": "function"
    }
  ],
  "bytecode": "0x608060405260088054600160a01b600160e01b031916650546000002a360a61b17905534801561002e57600080fd5b506155ad806200003f6000396000f3fe608060405234801561001057600080fd5b50600436106103e65760003560e01c806396ea29751161020a578063c2fe50dd11610125578063e36eca0c116100b8578063f4e28f9a11610087578063f4e28f9a14610a4d578063faaed4ad14610a86578063fc0915b114610a99578063fcb2884e14610aac578063fec0dea014610ab457600080fd5b8063e36eca0c14610a01578063e902868314610a14578063e912615414610a27578063f2fde38b14610a3a57600080fd5b8063d1c82007116100f4578063d1c820071461096d578063db0ed6a0146109a6578063df57f2fa146109b9578063e2b17a16146109ee57600080fd5b8063c2fe50dd14610923578063c4d66de814610936578063c93d0b9214610949578063cc284f7b1461095a57600080fd5b8063b19337a41161019d578063bf376c7a1161016c578063bf376c7a146108d7578063bf3bb1a5146108ea578063bfd84fb4146108fd578063c20aa9bc1461091057600080fd5b8063b19337a41461087a578063b406bf6d1461088d578063b56de97e146108af578063b96266fa146108c257600080fd5b8063a0efd118116101d9578063a0efd11814610839578063a358426f1461084e578063a554b26d14610861578063aebb50411461087257600080fd5b806396ea2975146107ed5780639c7aa7f8146108005780639c8f9f2314610813578063a0bcfc7f1461082657600080fd5b80633ff6fe8711610305578063644e44df1161029857806389035b611161026757806389035b61146107905780638d6d50c9146107a35780638da5cb5b146107b65780638e9fcf81146107c757806390f55edd146107da57600080fd5b8063644e44df146107375780637791c42d146107485780638188d50d1461075957806383b9a0091461077f57600080fd5b806353c09124116102d457806353c09124146106d557806359bf5d39146107045780635a9b0b891461070c57806362c1f3881461072457600080fd5b80633ff6fe8714610689578063449497ec1461069c578063512a53bc146106af57806351c6590a146106c257600080fd5b80632457056e1161037d5780632fb2067f1161034c5780632fb2067f146106285780633184fc641461064b57806339f476931461065e5780633d4df8971461067157600080fd5b80632457056e1461059257806327623ddd146105dc5780632b39a0ac146106025780632e365ade1461061557600080fd5b80630ea1dc9e116103b95780630ea1dc9e1461053c578063158bf4511461054d5780632261b07f14610560578063229304dc1461057157600080fd5b806304196058146103eb5780630714012c1461041b57806308669aab146105125780630cac36b214610527575b600080fd5b6103fe6103f9366004614e2e565b610ac5565b6040516001600160a01b0390911681526020015b60405180910390f35b610505610429366004614e2e565b6040805161010081018252600080825260208201819052918101829052606081018290526080810182905260a0810182905260c0810182905260e08101919091525060009081526011602090815260409182902082516101008101845281546001600160701b038082168352600160701b80830461ffff90811696850196909652600160801b830463ffffffff90811697850197909752600160a01b830487166060850152600160c01b830487166080850152600160e01b90920490951660a083015260019092015493841660c082015292041660e082015290565b60405161041291906151d3565b610525610520366004614e2e565b610b03565b005b61052f610be6565b604051610412919061507f565b6002546001600160a01b03166103fe565b61052561055b366004614d1f565b610c78565b6006546001600160a01b03166103fe565b61058461057f366004614a59565b611225565b604051908152602001610412565b6105c46105a0366004614887565b6001600160a01b03166000908152601360205260409020546001600160701b031690565b6040516001600160701b039091168152602001610412565b6105ef6105ea366004614887565b6112b5565b60405160019190910b8152602001610412565b6105c4610610366004614887565b6112e2565b610525610623366004614e9a565b61130b565b61063b610636366004614887565b6113b6565b6040519015158152602001610412565b6105256106593660046148ff565b6113d9565b61063b61066c366004614b36565b611481565b610679611521565b6040516104129493929190614f7f565b61052561069736600461495a565b6118b1565b6105256106aa366004614e14565b611a04565b6105256106bd3660046148bf565b611a50565b6105256106d0366004614e2e565b611d6c565b6103fe6106e3366004614887565b6001600160a01b039081166000908152601360205260409020600101541690565b610584611e95565b610714611eba565b6040516104129493929190615277565b610525610732366004614887565b611f66565b6001546001600160a01b03166103fe565b6008546001600160a01b03166103fe565b600854600160a01b900463ffffffff165b60405163ffffffff9091168152602001610412565b6004546001600160a01b03166103fe565b61063b61079e366004614887565b611fd8565b61076a6107b1366004614887565b612002565b6000546001600160a01b03166103fe565b6105256107d5366004614b8c565b61202a565b6105256107e8366004614887565b612126565b6103fe6107fb366004614e2e565b612198565b61052561080e366004614887565b6121bb565b610525610821366004614e2e565b6121f1565b610525610834366004614bd0565b612381565b600854600160c01b900463ffffffff1661076a565b61063b61085c366004614b61565b6123bc565b6007546001600160a01b03166103fe565b610584612415565b610525610888366004614887565b61242c565b600854600160e01b900461ffff165b60405161ffff9091168152602001610412565b6105256108bd366004614e9a565b61249e565b6108ca612548565b6040516104129190615032565b61063b6108e5366004614b36565b6125a9565b6105846108f8366004614e2e565b6125dc565b61052561090b366004614887565b61260b565b61052561091e366004614b02565b612664565b610525610931366004614e5e565b6126be565b610525610944366004614887565b612b4d565b6003546001600160a01b03166103fe565b610525610968366004614887565b612c6d565b61076a61097b366004614887565b6001600160a01b0316600090815260136020526040902060010154600160a01b900463ffffffff1690565b6105256109b4366004614c81565b612cdf565b6109cc6109c7366004614e2e565b612da8565b6040805182518152602080840151908201529181015190820152606001610412565b6105256109fc3660046149f6565b612e05565b61089c610a0f366004614887565b613452565b6105c4610a22366004614887565b6134aa565b610525610a35366004614e2e565b6134d5565b610525610a48366004614887565b6137ca565b61076a610a5b366004614887565b6001600160a01b0316600090815260136020526040902060010154600160c01b900463ffffffff1690565b61063b610a943660046149e2565b6138b4565b610525610aa7366004614ab2565b61395b565b600d54610584565b6005546001600160a01b03166103fe565b600060148281548110610ae857634e487b7160e01b600052603260045260246000fd5b6000918252602090912001546001600160a01b031692915050565b60008181526012602052604081206001810154815491929091610b2583613a57565b610b2f9190615418565b9050610b39612415565b811115610b865760405162461bcd60e51b8152602060048201526016602482015275496e73756666696369656e74206c697175696469747960501b60448201526064015b60405180910390fd5b600154610b9d906001600160a01b03163383613a79565b6000610bac8460000154613adc565b600185018190559050610bbf8184615418565b600f6000828254610bd09190615418565b90915550610bdf905082613af4565b5050505050565b6060600b8054610bf590615478565b80601f0160208091040260200160405190810160405280929190818152602001828054610c2190615478565b8015610c6e5780601f10610c4357610100808354040283529160200191610c6e565b820191906000526020600020905b815481529060010190602001808311610c5157829003601f168201915b5050505050905090565b6000546001600160a01b03163314610ca25760405162461bcd60e51b8152600401610b7d90615172565b6001600160a01b038516610ced5760405162461bcd60e51b815260206004820152601260248201527124b73b30b634b2102130b9b2902a37b5b2b760711b6044820152606401610b7d565b60145461ffff11610d405760405162461bcd60e51b815260206004820152601d60248201527f43616e6e6f74207265676973746572206d6f72652073657276696365730000006044820152606401610b7d565b8163ffffffff168363ffffffff161115610d9c5760405162461bcd60e51b815260206004820152601b60248201527f496e76616c6964206d696e20616e64206d617820706572696f647300000000006044820152606401610b7d565b60008763ffffffff1611610de65760405162461bcd60e51b8152602060048201526011602482015270496e76616c69642068616c66206c69666560781b6044820152606401610b7d565b600454600090610dfe906001600160a01b0316613b4f565b90506000600160009054906101000a90046001600160a01b03166001600160a01b03166395d89b416040518163ffffffff1660e01b815260040160006040518083038186803b158015610e5057600080fd5b505afa158015610e64573d6000803e3d6000fd5b505050506040513d6000823e601f3d908101601f19168201604052610e8c9190810190614c0f565b90506000818b604051602001610ea3929190614f43565b60408051601f19818403018152908290526303bf912560e11b825291506001600160a01b0384169063077f224a90610ee3908f9085903090600401615092565b600060405180830381600087803b158015610efd57600080fd5b505af1158015610f11573d6000803e3d6000fd5b5050505060006040518061010001604052808b6001600160701b03168152602001866001600160701b031681526020018c63ffffffff1681526020018a6001600160a01b031681526020018863ffffffff1681526020018763ffffffff1681526020018961ffff16815260200160148054905061ffff1681525090508060136000866001600160a01b03166001600160a01b0316815260200190815260200160002060008201518160000160006101000a8154816001600160701b0302191690836001600160701b03160217905550602082015181600001600e6101000a8154816001600160701b0302191690836001600160701b03160217905550604082015181600001601c6101000a81548163ffffffff021916908363ffffffff16021790555060608201518160010160006101000a8154816001600160a01b0302191690836001600160a01b0316021790555060808201518160010160146101000a81548163ffffffff021916908363ffffffff16021790555060a08201518160010160186101000a81548163ffffffff021916908363ffffffff16021790555060c082015181600101601c6101000a81548161ffff021916908361ffff16021790555060e082015181600101601e6101000a81548161ffff021916908361ffff1602179055509050506014849080600181540180825580915050600190039060005260206000200160009091909190916101000a8154816001600160a01b0302191690836001600160a01b03160217905550600560009054906101000a90046001600160a01b03166001600160a01b031663508ee32c856040518263ffffffff1660e01b815260040161119191906001600160a01b0391909116815260200190565b600060405180830381600087803b1580156111ab57600080fd5b505af11580156111bf573d6000803e3d6000fd5b50506040805163ffffffff8f1681526001600160701b038e1660208201526001600160a01b03881693507f18706585e986f622c9d914abfb256d563b9ea274cd5d49124e0518aa314b8c129250015b60405180910390a250505050505050505050505050565b60008461123181611fd8565b61124d5760405162461bcd60e51b8152600401610b7d906151a7565b611256856113b6565b6112725760405162461bcd60e51b8152600401610b7d9061511f565b600080600061128389898989613bec565b919450925090508061129583856152f3565b61129f91906152f3565b6001600160701b03169998505050505050505050565b6001600160a01b0381166000908152600960205260408120546112dc90600190810b6153ab565b92915050565b6001600160a01b0316600090815260136020526040902060010154600160e01b900461ffff1690565b6000546001600160a01b031633146113355760405162461bcd60e51b8152600401610b7d90615172565b60085463ffffffff600160c01b909104811690821611156113905760405162461bcd60e51b8152602060048201526015602482015274496e76616c696420677261636520706572696f647360581b6044820152606401610b7d565b6008805463ffffffff909216600160a01b0263ffffffff60a01b19909216919091179055565b6001600160a01b0316600090815260096020526040812054600190810b900b1390565b6004546001600160a01b0316156114285760405162461bcd60e51b8152602060048201526013602482015272105b1c9958591e481a5b9a5d1a585b1a5e9959606a1b6044820152606401610b7d565b600480546001600160a01b038087166001600160a01b0319928316179092556001805486841690831617905560028054858416908316179055600380549284169290911691909117905561147b83613dbf565b50505050565b60008261148d81611fd8565b6114a95760405162461bcd60e51b8152600401610b7d906151a7565b600154604051638cc7104f60e01b81526001600160a01b0391821660048201523360248201526044810185905290851690638cc7104f90606401600060405180830381600087803b1580156114fd57600080fd5b505af1158015611511573d6000803e3d6000fd5b50505050600191505b5092915050565b601454606090819081908190806001600160401b0381111561155357634e487b7160e01b600052604160045260246000fd5b60405190808252806020026020018201604052801561157c578160200160208202803683370190505b509450806001600160401b038111156115a557634e487b7160e01b600052604160045260246000fd5b6040519080825280602002602001820160405280156115d857816020015b60608152602001906001900390816115c35790505b509350806001600160401b0381111561160157634e487b7160e01b600052604160045260246000fd5b60405190808252806020026020018201604052801561163457816020015b606081526020019060019003908161161f5790505b509250806001600160401b0381111561165d57634e487b7160e01b600052604160045260246000fd5b604051908082528060200260200182016040528015611686578160200160208202803683370190505b50915060005b818110156118a9576000601482815481106116b757634e487b7160e01b600052603260045260246000fd5b9060005260206000200160009054906101000a90046001600160a01b03169050808783815181106116f857634e487b7160e01b600052603260045260246000fd5b60200260200101906001600160a01b031690816001600160a01b031681525050806001600160a01b03166306fdde036040518163ffffffff1660e01b815260040160006040518083038186803b15801561175157600080fd5b505afa158015611765573d6000803e3d6000fd5b505050506040513d6000823e601f3d908101601f1916820160405261178d9190810190614c0f565b8683815181106117ad57634e487b7160e01b600052603260045260246000fd5b6020026020010181905250806001600160a01b03166395d89b416040518163ffffffff1660e01b815260040160006040518083038186803b1580156117f157600080fd5b505afa158015611805573d6000803e3d6000fd5b505050506040513d6000823e601f3d908101601f1916820160405261182d9190810190614c0f565b85838151811061184d57634e487b7160e01b600052603260045260246000fd5b602002602001018190525061186181612002565b84838151811061188157634e487b7160e01b600052603260045260246000fd5b63ffffffff9092166020928302919091019091015250806118a1816154ad565b91505061168c565b505090919293565b6000546001600160a01b031633146118db5760405162461bcd60e51b8152600401610b7d90615172565b8281146119215760405162461bcd60e51b8152602060048201526014602482015273092dcecc2d8d2c840c2e4e4c2f240d8cadccee8d60631b6044820152606401610b7d565b60005b83811015610bdf5761196485858381811061194f57634e487b7160e01b600052603260045260246000fd5b905060200201602081019061079e9190614887565b6119805760405162461bcd60e51b8152600401610b7d906151a7565b6119f28585838181106119a357634e487b7160e01b600052603260045260246000fd5b90506020020160208101906119b89190614887565b8484848181106119d857634e487b7160e01b600052603260045260246000fd5b90506020020160208101906119ed9190614e14565b613ed6565b806119fc816154ad565b915050611924565b6000546001600160a01b03163314611a2e5760405162461bcd60e51b8152600401610b7d90615172565b6008805461ffff909216600160e01b0261ffff60e01b19909216919091179055565b6003546001600160a01b03163314611a9c5760405162461bcd60e51b815260206004820152600f60248201526e2737ba102137b93937bbaa37b5b2b760891b6044820152606401610b7d565b600081815260116020908152604080832081516101008101835281546001600160701b03808216835261ffff600160701b808404821697850188905263ffffffff600160801b8504811697860197909752600160a01b840487166060860152600160c01b840487166080860152600160e01b90930490951660a084015260019093015492831660c083015290910490911660e08201526014805491939290918110611b5757634e487b7160e01b600052603260045260246000fd5b6000918252602090912001546001600160a01b0316905080611b8b5760405162461bcd60e51b8152600401610b7d906150d0565b606082015163ffffffff1642116001600160a01b038681161590861680159030148015611bc057611bbb876134d5565b611d61565b8115611c3a57855160405163079cc67960e41b81526001600160a01b038b811660048301526001600160701b039092166024820152908616906379cc6790906044015b600060405180830381600087803b158015611c1d57600080fd5b505af1158015611c31573d6000803e3d6000fd5b50505050611d61565b8215611c815785516040516340c10f1960e01b81526001600160a01b038a811660048301526001600160701b039092166024820152908616906340c10f1990604401611c03565b83611d225785516040516333bebb7760e01b81526001600160a01b038b811660048301528a811660248301526001600160701b039092166044820152908616906333bebb7790606401602060405180830381600087803b158015611ce457600080fd5b505af1158015611cf8573d6000803e3d6000fd5b505050506040513d601f19601f82011682018060405250810190611d1c91906149c2565b50611d61565b60405162461bcd60e51b81526020600482015260146024820152732737ba1030b63637bbb2b2103a3930b739b332b960611b6044820152606401610b7d565b505050505050505050565b600154611d84906001600160a01b0316333084613f76565b6000600f5460001415611d98575080611da4565b611da182613a57565b90505b81600c6000828254611db6919061531e565b90915550506002546040516335313c2160e11b81523360048201526000916001600160a01b031690636a62784290602401602060405180830381600087803b158015611e0157600080fd5b505af1158015611e15573d6000803e3d6000fd5b505050506040513d601f19601f82011682018060405250810190611e399190614e46565b6040805160608101825285815260208082018681524383850190815260008681526012909352938220925183555160018301559151600290910155600f80549293508492909190611e8b90849061531e565b9091555050505050565b6000611e9f613fae565b6001600160701b0316600c54611eb5919061531e565b905090565b60008060006060600c54600d54600f546010808054611ed890615478565b80601f0160208091040260200160405190810160405280929190818152602001828054611f0490615478565b8015611f515780601f10611f2657610100808354040283529160200191611f51565b820191906000526020600020905b815481529060010190602001808311611f3457829003601f168201915b50505050509050935093509350935090919293565b6000546001600160a01b03163314611f905760405162461bcd60e51b8152600401610b7d90615172565b6001600160a01b038116611fb65760405162461bcd60e51b8152600401610b7d906150f9565b600780546001600160a01b0319166001600160a01b0392909216919091179055565b6001600160a01b0316600090815260136020526040902054600160e01b900463ffffffff16151590565b6001600160a01b0316600090815260136020526040902054600160e01b900463ffffffff1690565b6000546001600160a01b031633146120545760405162461bcd60e51b8152600401610b7d90615172565b8261205e81611fd8565b61207a5760405162461bcd60e51b8152600401610b7d906151a7565b8163ffffffff168363ffffffff1611156120ca5760405162461bcd60e51b8152602060048201526011602482015270496e76616c6964206475726174696f6e7360781b6044820152606401610b7d565b506001600160a01b03929092166000908152601360205260409020600101805467ffffffffffffffff60a01b1916600160a01b63ffffffff9384160263ffffffff60c01b191617600160c01b9290931691909102919091179055565b6000546001600160a01b031633146121505760405162461bcd60e51b8152600401610b7d90615172565b6001600160a01b0381166121765760405162461bcd60e51b8152600401610b7d906150f9565b600880546001600160a01b0319166001600160a01b0392909216919091179055565b6000600a8281548110610ae857634e487b7160e01b600052603260045260246000fd5b6000546001600160a01b031633146121e55760405162461bcd60e51b8152600401610b7d90615172565b6121ee81614009565b50565b6000818152601260205260409020600281015443116122685760405162461bcd60e51b815260206004820152602d60248201527f43616e6e6f742061646420616e642072656d6f7665206c69717569646974792060448201526c696e2073616d6520626c6f636b60981b6064820152608401610b7d565b6001810154600061227882613a57565b9050612282612415565b8111156122ca5760405162461bcd60e51b8152602060048201526016602482015275496e73756666696369656e74206c697175696469747960501b6044820152606401610b7d565b600254604051630852cd8d60e31b8152600481018690526001600160a01b03909116906342966c6890602401600060405180830381600087803b15801561231057600080fd5b505af1158015612324573d6000803e3d6000fd5b505060015461234092506001600160a01b031690503383613a79565b61234981613af4565b81600f600082825461235b9190615418565b909155505050600092835250506012602052604081208181556001810182905560020155565b6000546001600160a01b031633146123ab5760405162461bcd60e51b8152600401610b7d90615172565b6123b7600b8383614670565b505050565b6001600160a01b0382166000908152601360205260408120600181015463ffffffff808516600160a01b909204161180159061240d5750600181015463ffffffff600160c01b909104811690841611155b949350505050565b6000600d54612422611e95565b611eb59190615418565b6000546001600160a01b031633146124565760405162461bcd60e51b8152600401610b7d90615172565b6001600160a01b03811661247c5760405162461bcd60e51b8152600401610b7d906150f9565b600680546001600160a01b0319166001600160a01b0392909216919091179055565b6000546001600160a01b031633146124c85760405162461bcd60e51b8152600401610b7d90615172565b60085463ffffffff808316600160a01b9092041611156125225760405162461bcd60e51b8152602060048201526015602482015274496e76616c696420677261636520706572696f647360581b6044820152606401610b7d565b6008805463ffffffff909216600160c01b0263ffffffff60c01b19909216919091179055565b60606014805480602002602001604051908101604052809291908181526020018280548015610c6e57602002820191906000526020600020905b81546001600160a01b03168152600190910190602001808311612582575050505050905090565b6000826125b581611fd8565b6125d15760405162461bcd60e51b8152600401610b7d906151a7565b61240d8433856138b4565b6000818152601260205260408120805460018201546125fa90613a57565b6126049190615418565b9392505050565b6000546001600160a01b031633146126355760405162461bcd60e51b8152600401610b7d90615172565b6001600160a01b03811661265b5760405162461bcd60e51b8152600401610b7d906150f9565b6121ee81613dbf565b6000546001600160a01b0316331461268e5760405162461bcd60e51b8152600401610b7d90615172565b8161269881611fd8565b6126b45760405162461bcd60e51b8152600401610b7d906151a7565b6123b78383613ed6565b6126c7836113b6565b6126e35760405162461bcd60e51b8152600401610b7d9061511f565b60008481526011602052604081208054601480549293929091600160701b900461ffff1690811061272457634e487b7160e01b600052603260045260246000fd5b6000918252602090912001546001600160a01b03169050806127585760405162461bcd60e51b8152600401610b7d906150d0565b61276281846123bc565b6127a85760405162461bcd60e51b8152602060048201526017602482015276111d5c985d1a5bdb881a5cc81b9bdd08185b1b1bddd959604a1b6044820152606401610b7d565b815442906127c4908590600160a01b900463ffffffff16615336565b63ffffffff16101561280b5760405162461bcd60e51b815260206004820152601060248201526f24b73b30b634b210323ab930ba34b7b760811b6044820152606401610b7d565b8154600d80546001600160701b039092169160009061282b908490615418565b90915550508154600090819061284e90849089906001600160701b031688613bec565b508554600d80549395509193506001600160701b03169160009061287390849061531e565b909155506000905061288582846152f3565b6001600160701b03169050868111156128d65760405162461bcd60e51b8152602060048201526013602482015272536c69707061676520697320746f6f2062696760681b6044820152606401610b7d565b6128eb6001600160a01b038916333084613f76565b60065460015460405163029b465d60e01b81526001600160a01b038b81166004830152602482018590529182166044820152600092919091169063029b465d90606401602060405180830381600087803b15801561294857600080fd5b505af115801561295c573d6000803e3d6000fd5b505050506040513d601f19601f820116820180604052508101906129809190614e46565b9050600082612998836001600160701b03871661538c565b6129a29190615355565b6008546001549192506129c2916001600160a01b03908116911683613a79565b60006129ce8284615418565b90506129d9816140b0565b8754600160a01b900463ffffffff166129f28a82615336565b895463ffffffff60a01b1916600160a01b63ffffffff928316810291909117808c55600854612a2b939083900481169290910416615336565b895463ffffffff60c01b1916600160c01b63ffffffff928316810291909117808c55600854612a6893929004821691600160a01b90910416615336565b895463ffffffff91909116600160e01b026001600160e01b0390911617895560055460405163f8642f2960e01b8152600481018f90526001600160a01b039091169063f8642f2990602401600060405180830381600087803b158015612acd57600080fd5b505af1158015612ae1573d6000803e3d6000fd5b50505050876001600160a01b03167f9853650269815e203c5c9e228db9ca05cc6037f2c2723c94ed3260cf98324c998e838c60000160149054906101000a900463ffffffff1660405161120e9392919092835263ffffffff918216602084015216604082015260600190565b6000546001600160a01b031615612bb85760405162461bcd60e51b815260206004820152602960248201527f496e697469616c697a61626c654f776e61626c653a20616c726561647920696e6044820152681a5d1a585b1a5e995960ba1b6064820152608401610b7d565b6001600160a01b038116612c225760405162461bcd60e51b815260206004820152602b60248201527f496e697469616c697a61626c654f776e61626c653a20696e76616c696420696e60448201526a34ba34b0b61037bbb732b960a91b6064820152608401610b7d565b600080546001600160a01b0319166001600160a01b03831690811782556040519091907f8be0079c531659141344cd1fd0a4f28419497f9722a3daafe3b4186f6b6457e0908290a350565b6000546001600160a01b03163314612c975760405162461bcd60e51b8152600401610b7d90615172565b6001600160a01b038116612cbd5760405162461bcd60e51b8152600401610b7d906150f9565b600580546001600160a01b0319166001600160a01b0392909216919091179055565b6002546001600160a01b031615612d2e5760405162461bcd60e51b8152602060048201526013602482015272105b1c9958591e481a5b9a5d1a585b1a5e9959606a1b6044820152606401610b7d565b612d3781612b4d565b8551612d4a9060109060208901906146f4565b50612d57600b8686614670565b50600580546001600160a01b03199081166001600160a01b03958616179091556006805482169385169390931790925560088054831691909316908117909255600780549091169091179055505050565b612dcc60405180606001604052806000815260200160008152602001600081525090565b50600090815260126020908152604091829020825160608101845281548152600182015492810192909252600201549181019190915290565b84612e0f81611fd8565b612e2b5760405162461bcd60e51b8152600401610b7d906151a7565b612e34856113b6565b612e505760405162461bcd60e51b8152600401610b7d9061511f565b612e5a86836123bc565b612ea05760405162461bcd60e51b8152602060048201526017602482015276111d5c985d1a5bdb881a5cc81b9bdd08185b1b1bddd959604a1b6044820152606401610b7d565b612ea8612415565b846001600160701b03161115612ef85760405162461bcd60e51b8152602060048201526015602482015274496e73756666696369656e7420726573657276657360581b6044820152606401610b7d565b600080600080612f0a8a8a8a89613bec565b955090935091508390506000612f2083856152f3565b6001600160701b0316905087856001600160701b031682612f41919061531e565b1115612f855760405162461bcd60e51b8152602060048201526013602482015272536c69707061676520697320746f6f2062696760681b6044820152606401610b7d565b612f9a6001600160a01b038b16333084613f76565b60065460015460405163029b465d60e01b81526001600160a01b038d81166004830152602482018590529182166044820152600092919091169063029b465d90606401602060405180830381600087803b158015612ff757600080fd5b505af115801561300b573d6000803e3d6000fd5b505050506040513d601f19601f8201168201806040525081019061302f9190614e46565b9050600082613047836001600160701b03881661538c565b6130519190615355565b600854600154919250613071916001600160a01b03908116911683613a79565b600061307d8284615418565b90508b6001600160701b0316600d600082825461309a919061531e565b909155506130a99050816140b0565b50506003546130d695506001600160a01b038c81169550339450169150506001600160701b038516613f76565b4260006130e38583615336565b90506000600360009054906101000a90046001600160a01b03166001600160a01b0316638ada066e6040518163ffffffff1660e01b8152600401602060405180830381600087803b15801561313757600080fd5b505af115801561314b573d6000803e3d6000fd5b505050506040513d601f19601f8201168201806040525081019061316f9190614e46565b60408051610100810182526001600160701b038b1681526001600160a01b038d166000908152601360209081529083902060010154600160f01b900461ffff169082015263ffffffff8681169282019290925284821660608201526008549293509160808301916131e891600160a01b90041685615336565b63ffffffff168152602001600860189054906101000a900463ffffffff16846132119190615336565b63ffffffff168152602001856001600160701b031681526020016132348b6112b5565b61ffff9081169091526000838152601160209081526040918290208451815486840151878601516060808a015160808b015160a08c01516001600160701b039788166001600160801b031997881617600160701b968d1687021767ffffffffffffffff60801b1916600160801b63ffffffff9687160263ffffffff60a01b191617600160a01b93861693909302929092176001600160c01b0316600160c01b918516919091026001600160e01b031617600160e01b9184169190910217865560c08a01516001909601805460e0909b015196909516999093169890981793909616909502919091179055815185815287851691810191909152928516908301526001600160a01b038c16917f9853650269815e203c5c9e228db9ca05cc6037f2c2723c94ed3260cf98324c99910160405180910390a260055460405163f8642f2960e01b8152600481018390526001600160a01b039091169063f8642f2990602401600060405180830381600087803b1580156133b057600080fd5b505af11580156133c4573d6000803e3d6000fd5b50506003546040516335313c2160e11b81523360048201526001600160a01b039091169250636a6278429150602401602060405180830381600087803b15801561340d57600080fd5b505af1158015613421573d6000803e3d6000fd5b505050506040513d601f19601f820116820180604052508101906134459190614e46565b5050505050505050505050565b60008161345e81611fd8565b61347a5760405162461bcd60e51b8152600401610b7d906151a7565b6001600160a01b038316600090815260136020526040902060010154600160f01b900461ffff1691505b50919050565b6001600160a01b0316600090815260136020526040902054600160701b90046001600160701b031690565b60008181526011602052604081208054601480549293929091600160701b900461ffff1690811061351657634e487b7160e01b600052603260045260246000fd5b6000918252602090912001546001600160a01b031690508061354a5760405162461bcd60e51b8152600401610b7d906150d0565b6003546040516331a9108f60e11b8152600481018590526000916001600160a01b031690636352211e9060240160206040518083038186803b15801561358f57600080fd5b505afa1580156135a3573d6000803e3d6000fd5b505050506040513d601f19601f820116820180604052508101906135c791906148a3565b8354909150429063ffffffff808316600160c01b9092041610806135f35750336001600160a01b038316145b61365d5760405162461bcd60e51b815260206004820152603560248201527f4f6e6c7920626f72726f7765722063616e2072657475726e2077697468696e20604482015274189bdc9c9bddd95c8819dc9858d9481c195c9a5bd9605a1b6064820152608401610b7d565b835463ffffffff808316600160e01b9092041610806136845750336001600160a01b038316145b8061369957506007546001600160a01b031633145b6137195760405162461bcd60e51b815260206004820152604560248201527f4f6e6c7920626f72726f776572206f7220656e74657270726973652063616e2060448201527f72657475726e2077697468696e20656e74657270726973652067726163652070606482015264195c9a5bd960da1b608482015260a401610b7d565b8354600d80546001600160701b0390921691600090613739908490615418565b9091555050600354604051633f34d4cf60e21b8152600481018790523360248201526001600160a01b039091169063fcd3533c90604401600060405180830381600087803b15801561378a57600080fd5b505af115801561379e573d6000803e3d6000fd5b5050506000958652505060116020525050604082209182555060010180546001600160801b0319169055565b6000546001600160a01b031633146137f45760405162461bcd60e51b8152600401610b7d90615172565b6001600160a01b0381166138595760405162461bcd60e51b815260206004820152602660248201527f4f776e61626c653a206e6577206f776e657220697320746865207a65726f206160448201526564647265737360d01b6064820152608401610b7d565b600080546040516001600160a01b03808516939216917f8be0079c531659141344cd1fd0a4f28419497f9722a3daafe3b4186f6b6457e091a3600080546001600160a01b0319166001600160a01b0392909216919091179055565b6000836138c081611fd8565b6138dc5760405162461bcd60e51b8152600401610b7d906151a7565b60015460405163a1571a5760e01b81526001600160a01b0391821660048201523360248201528582166044820152606481018590529086169063a1571a5790608401600060405180830381600087803b15801561393857600080fd5b505af115801561394c573d6000803e3d6000fd5b50600198975050505050505050565b6000546001600160a01b031633146139855760405162461bcd60e51b8152600401610b7d90615172565b8361398f81611fd8565b6139ab5760405162461bcd60e51b8152600401610b7d906151a7565b6001600160a01b0383166139f65760405162461bcd60e51b815260206004820152601260248201527124b73b30b634b2102130b9b2902a37b5b2b760711b6044820152606401610b7d565b506001600160a01b0393841660009081526013602052604090208054600182018054949096166001600160a01b0319909416939093179094556001600160701b03908116600160701b026001600160e01b0319909216921691909117179055565b6000600f5482613a65611e95565b613a6f919061538c565b6112dc9190615355565b6040516001600160a01b0383166024820152604481018290526123b790849063a9059cbb60e01b906064015b60408051601f198184030181529190526020810180516001600160e01b03166001600160e01b03199093169290921790915261412c565b6000613ae6611e95565b82600f54613a6f919061538c565b80600c5410613b1a5780600c6000828254613b0f9190615418565b909155506121ee9050565b6000613b246141fe565b6001600160701b031690508181600c54613b3e919061531e565b613b489190615418565b600c555050565b6000604051733d602d80600a3d3981f3363d3d373d3d3d363d7360601b81528260601b60148201526e5af43d82803e903d91602b57fd5bf360881b60288201526037816000f09150506001600160a01b038116613be75760405162461bcd60e51b8152602060048201526016602482015275115490cc4c4d8dce8818dc99585d194819985a5b195960521b6044820152606401610b7d565b919050565b600554604051630641977d60e21b81526001600160a01b0386811660048301526001600160701b038516602483015263ffffffff8416604483015260009283928392839216906319065df49060640160206040518083038186803b158015613c5357600080fd5b505afa158015613c67573d6000803e3d6000fd5b505050506040513d601f19601f82011682018060405250810190613c8b9190614df8565b90506000613c99898361428a565b6006549091506000906001600160a01b03166329fb92ce613cd58c6001600160a01b039081166000908152601360205260409020600101541690565b6040516001600160e01b031960e084901b1681526001600160a01b0391821660048201526001600160701b0387166024820152908c16604482015260640160206040518083038186803b158015613d2b57600080fd5b505afa158015613d3f573d6000803e3d6000fd5b505050506040513d601f19601f82011682018060405250810190613d639190614e46565b9050826001600160701b031681836001600160701b0316613d84919061538c565b613d8e9190615355565b9450613da36001600160701b03861682615418565b9550613db08a8a8a6142bf565b93505050509450945094915050565b6001600160a01b038116600090815260096020526040902054600190810b900b613e5757600a8054600180820183557fc65a7bb8d6351c1cf70c95a316cc6a92839c986682d98bc35f958f4883f9d2a890910180546001600160a01b0319166001600160a01b039490941693841790559054600092835260096020526040909220805461ffff191661ffff9390920b92909216179055565b6001600160a01b038116600090815260096020526040812054600190810b900b12156121ee576001600160a01b038116600090815260096020526040902054613ea29060010b6154eb565b6001600160a01b0382166000908152600960205260409020805460019290920b61ffff1661ffff1990921691909117905550565b61138861ffff82161115613f3a5760405162461bcd60e51b815260206004820152602560248201527f4d6178696d756d2073657276696365206665652070657263656e7420746872656044820152641cda1bdb1960da1b6064820152608401610b7d565b6001600160a01b039091166000908152601360205260409020600101805461ffff909216600160e01b0261ffff60e01b19909216919091179055565b6040516001600160a01b038085166024830152831660448201526064810182905261147b9085906323b872dd60e01b90608401613aa5565b600e54600090613fec9063ffffffff600160e01b82041690613fe3906001600160701b0380821691600160701b9004166153f0565b613840426143f4565b600e54611eb59190600160701b90046001600160701b03166153f0565b6001600160a01b038116600090815260096020526040902054600190810b900b6140655760405162461bcd60e51b815260206004820152600d60248201526c24b73b30b634b2103a37b5b2b760991b6044820152606401610b7d565b6001600160a01b038116600090815260096020526040812054600190810b900b13156121ee576001600160a01b038116600090815260096020526040902054613ea29060010b6154eb565b6140b8613fae565b600e805463ffffffff4216600160e01b026dffffffffffffffffffffffffffff60701b9091166001600160701b03938416171780825583928291614105918591600160701b9004166152f3565b92506101000a8154816001600160701b0302191690836001600160701b0316021790555050565b6000614181826040518060400160405280602081526020017f5361666545524332303a206c6f772d6c6576656c2063616c6c206661696c6564815250856001600160a01b03166145659092919063ffffffff16565b8051909150156123b7578080602001905181019061419f91906149c2565b6123b75760405162461bcd60e51b815260206004820152602a60248201527f5361666545524332303a204552433230206f7065726174696f6e20646964206e6044820152691bdd081cdd58d8d9595960b21b6064820152608401610b7d565b6000614208613fae565b600e80546dffffffffffffffffffffffffffff191680825591925082918190614242908490600160701b90046001600160701b03166153f0565b92506101000a8154816001600160701b0302191690836001600160701b0316021790555042600e601c6101000a81548163ffffffff021916908363ffffffff16021790555090565b6000612710614298846112e2565b6001600160701b0316836001600160701b03166142b5919061538c565b6126049190615355565b6008546000908190612710906142e990600160e01b900461ffff166001600160701b03861661538c565b6142f39190615355565b6006549091506000906001600160a01b03166329fb92ce61432f886001600160a01b039081166000908152601360205260409020600101541690565b614338896134aa565b6040516001600160e01b031960e085901b1681526001600160a01b0392831660048201526001600160701b039091166024820152908816604482015260640160206040518083038186803b15801561438f57600080fd5b505afa1580156143a3573d6000803e3d6000fd5b505050506040513d601f19601f820116820180604052508101906143c79190614e46565b9050806001600160701b0316826001600160701b0316106143e857816143ea565b805b9695505050505050565b60008463ffffffff168263ffffffff1610156144435760405162461bcd60e51b815260206004820152600e60248201526d125b9d985b1a59081c195c9a5bd960921b6044820152606401610b7d565b61444d858361542f565b91506144598383615369565b63ffffffff16846001600160701b0316901c9350828261447991906154c8565b915063ffffffff8216158061449557506001600160701b038416155b156144a157508261240d565b60006001600160701b0385168163ffffffff808716906144d590871671b17217f7d1cf79abc9e3b39803f2f6af40f361538c565b6144df9190615355565b9050600160901b5b8215614558576144f7838561531e565b935080614504838561538c565b61450e9190615355565b925061451e600160901b8261531e565b905061452a8385615418565b935080614537838561538c565b6145419190615355565b9250614551600160901b8261531e565b90506144e7565b5091979650505050505050565b606061240d848460008585843b6145be5760405162461bcd60e51b815260206004820152601d60248201527f416464726573733a2063616c6c20746f206e6f6e2d636f6e74726163740000006044820152606401610b7d565b600080866001600160a01b031685876040516145da9190614f27565b60006040518083038185875af1925050503d8060008114614617576040519150601f19603f3d011682016040523d82523d6000602084013e61461c565b606091505b509150915061462c828286614637565b979650505050505050565b60608315614646575081612604565b8251156146565782518084602001fd5b8160405162461bcd60e51b8152600401610b7d919061507f565b82805461467c90615478565b90600052602060002090601f01602090048101928261469e57600085556146e4565b82601f106146b75782800160ff198235161785556146e4565b828001600101855582156146e4579182015b828111156146e45782358255916020019190600101906146c9565b506146f0929150614768565b5090565b82805461470090615478565b90600052602060002090601f01602090048101928261472257600085556146e4565b82601f1061473b57805160ff19168380011785556146e4565b828001600101855582156146e4579182015b828111156146e457825182559160200191906001019061474d565b5b808211156146f05760008155600101614769565b60008083601f84011261478e578182fd5b5081356001600160401b038111156147a4578182fd5b6020830191508360208260051b85010111156147bf57600080fd5b9250929050565b60008083601f8401126147d7578182fd5b5081356001600160401b038111156147ed578182fd5b6020830191508360208285010111156147bf57600080fd5b600082601f830112614815578081fd5b8135614828614823826152cc565b61529c565b81815284602083860101111561483c578283fd5b816020850160208301379081016020019190915292915050565b8035613be781615562565b803561ffff81168114613be757600080fd5b803563ffffffff81168114613be757600080fd5b600060208284031215614898578081fd5b81356126048161554d565b6000602082840312156148b4578081fd5b81516126048161554d565b6000806000606084860312156148d3578182fd5b83356148de8161554d565b925060208401356148ee8161554d565b929592945050506040919091013590565b60008060008060808587031215614914578081fd5b843561491f8161554d565b9350602085013561492f8161554d565b9250604085013561493f8161554d565b9150606085013561494f8161554d565b939692955090935050565b6000806000806040858703121561496f578384fd5b84356001600160401b0380821115614985578586fd5b6149918883890161477d565b909650945060208701359150808211156149a9578384fd5b506149b68782880161477d565b95989497509550505050565b6000602082840312156149d3578081fd5b81518015158114612604578182fd5b6000806000606084860312156148d3578081fd5b600080600080600060a08688031215614a0d578283fd5b8535614a188161554d565b94506020860135614a288161554d565b93506040860135614a3881615562565b925060608601359150614a4d60808701614873565b90509295509295909350565b60008060008060808587031215614a6e578182fd5b8435614a798161554d565b93506020850135614a898161554d565b92506040850135614a9981615562565b9150614aa760608601614873565b905092959194509250565b60008060008060808587031215614ac7578182fd5b8435614ad28161554d565b93506020850135614ae281615562565b92506040850135614af28161554d565b9150606085013561494f81615562565b60008060408385031215614b14578182fd5b8235614b1f8161554d565b9150614b2d60208401614861565b90509250929050565b60008060408385031215614b48578182fd5b8235614b538161554d565b946020939093013593505050565b60008060408385031215614b73578182fd5b8235614b7e8161554d565b9150614b2d60208401614873565b600080600060608486031215614ba0578081fd5b8335614bab8161554d565b9250614bb960208501614873565b9150614bc760408501614873565b90509250925092565b60008060208385031215614be2578182fd5b82356001600160401b03811115614bf7578283fd5b614c03858286016147c6565b90969095509350505050565b600060208284031215614c20578081fd5b81516001600160401b03811115614c35578182fd5b8201601f81018413614c45578182fd5b8051614c53614823826152cc565b818152856020838501011115614c67578384fd5b614c7882602083016020860161544c565b95945050505050565b60008060008060008060a08789031215614c99578384fd5b86356001600160401b0380821115614caf578586fd5b614cbb8a838b01614805565b97506020890135915080821115614cd0578586fd5b50614cdd89828a016147c6565b9096509450506040870135614cf18161554d565b92506060870135614d018161554d565b91506080870135614d118161554d565b809150509295509295509295565b60008060008060008060008060006101208a8c031215614d3d578687fd5b89356001600160401b0380821115614d53578889fd5b614d5f8d838e01614805565b9a5060208c0135915080821115614d74578889fd5b50614d818c828d01614805565b985050614d9060408b01614873565b965060608a0135614da081615562565b955060808a0135614db08161554d565b9450614dbe60a08b01614861565b9350614dcc60c08b01614873565b9250614dda60e08b01614873565b9150614de96101008b01614856565b90509295985092959850929598565b600060208284031215614e09578081fd5b815161260481615562565b600060208284031215614e25578081fd5b61260482614861565b600060208284031215614e3f578081fd5b5035919050565b600060208284031215614e57578081fd5b5051919050565b60008060008060808587031215614e73578182fd5b843593506020850135614e858161554d565b925060408501359150614aa760608601614873565b600060208284031215614eab578081fd5b61260482614873565b600081518084526020808501808196508360051b81019150828601855b85811015614558578284038952614ee9848351614efb565b98850198935090840190600101614ed1565b60008151808452614f1381602086016020860161544c565b601f01601f19169290920160200192915050565b60008251614f3981846020870161544c565b9190910192915050565b60008351614f5581846020880161544c565b600160fd1b9083019081528351614f7381600184016020880161544c565b01600101949350505050565b6080808252855190820181905260009060209060a0840190828901845b82811015614fc15781516001600160a01b031684529284019290840190600101614f9c565b50505083810382850152614fd58188614eb4565b90508381036040850152614fe98187614eb4565b84810360608601528551808252838701925090830190845b8181101561502357835163ffffffff1683529284019291840191600101615001565b50909998505050505050505050565b6020808252825182820181905260009190848201906040850190845b818110156150735783516001600160a01b03168352928401929184019160010161504e565b50909695505050505050565b6020815260006126046020830184614efb565b6060815260006150a56060830186614efb565b82810360208401526150b78186614efb565b91505060018060a01b0383166040830152949350505050565b6020808252600f908201526e125b9d985b1a59081d1bdad95b9259608a1b604082015260600190565b6020808252600c908201526b5a65726f206164647265737360a01b604082015260600190565b60208082526033908201527f496e746572657374207061796d656e7420746f6b656e2069732064697361626c6040820152721959081bdc881b9bdd081cdd5c1c1bdc9d1959606a1b606082015260800190565b6020808252818101527f4f776e61626c653a2063616c6c6572206973206e6f7420746865206f776e6572604082015260600190565b6020808252601290820152712ab735b737bbb7102837bbb2b92a37b5b2b760711b604082015260600190565b6000610100820190506001600160701b03835116825261ffff6020840151166020830152604083015163ffffffff80821660408501528060608601511660608501525050608083015161522e608084018263ffffffff169052565b5060a083015161524660a084018263ffffffff169052565b5060c083015161526160c08401826001600160701b03169052565b5060e083015161151a60e084018261ffff169052565b8481528360208201528260408201526080606082015260006143ea6080830184614efb565b604051601f8201601f191681016001600160401b03811182821017156152c4576152c4615537565b604052919050565b60006001600160401b038211156152e5576152e5615537565b50601f01601f191660200190565b60006001600160701b038083168185168083038211156153155761531561550b565b01949350505050565b600082198211156153315761533161550b565b500190565b600063ffffffff8083168185168083038211156153155761531561550b565b60008261536457615364615521565b500490565b600063ffffffff8084168061538057615380615521565b92169190910492915050565b60008160001904831182151516156153a6576153a661550b565b500290565b60008160010b8360010b82811281617fff19018312811516156153d0576153d061550b565b81617fff0183138116156153e6576153e661550b565b5090039392505050565b60006001600160701b03838116908316818110156154105761541061550b565b039392505050565b60008282101561542a5761542a61550b565b500390565b600063ffffffff838116908316818110156154105761541061550b565b60005b8381101561546757818101518382015260200161544f565b8381111561147b5750506000910152565b600181811c9082168061548c57607f821691505b602082108114156134a457634e487b7160e01b600052602260045260246000fd5b60006000198214156154c1576154c161550b565b5060010190565b600063ffffffff808416806154df576154df615521565b92169190910692915050565b60008160010b617fff198114156155045761550461550b565b9003919050565b634e487b7160e01b600052601160045260246000fd5b634e487b7160e01b600052601260045260246000fd5b634e487b7160e01b600052604160045260246000fd5b6001600160a01b03811681146121ee57600080fd5b6001600160701b03811681146121ee57600080fdfea26469706673582212204139ac0832ec551c35619150a97cde82aacc63c7d302201c6ddd8a2ae76e537464736f6c63430008040033",
  "linkReferences": {},
  "deployedLinkReferences": {}
}