{
  "_format": "hh-sol-artifact-1",
  "contractName": "Enterprise",
  "sourceName": "contracts/Enterprise.sol",
  "abi": [
    {
      "anonymous": false,
      "inputs": [
        {
          "indexed": false,
          "internalType": "string",
          "name": "baseUri",
          "type": "string"
        }
      ],
      "name": "BaseUriChanged",
      "type": "event"
    },
    {
      "anonymous": false,
      "inputs": [
        {
          "indexed": false,
          "internalType": "uint256",
          "name": "pole",
          "type": "uint256"
        },
        {
          "indexed": false,
          "internalType": "uint256",
          "name": "slope",
          "type": "uint256"
        }
      ],
      "name": "BondingChanged",
      "type": "event"
    },
    {
      "anonymous": false,
      "inputs": [
        {
          "indexed": true,
          "internalType": "uint256",
          "name": "borrowTokenId",
          "type": "uint256"
        },
        {
          "indexed": true,
          "internalType": "address",
          "name": "borrower",
          "type": "address"
        },
        {
          "indexed": true,
          "internalType": "address",
          "name": "powerToken",
          "type": "address"
        },
        {
          "indexed": false,
          "internalType": "address",
          "name": "paymentToken",
          "type": "address"
        },
        {
          "indexed": false,
          "internalType": "uint112",
          "name": "amount",
          "type": "uint112"
        },
        {
          "indexed": false,
          "internalType": "uint112",
          "name": "interest",
          "type": "uint112"
        },
        {
          "indexed": false,
          "internalType": "uint112",
          "name": "serviceFee",
          "type": "uint112"
        },
        {
          "indexed": false,
          "internalType": "uint112",
          "name": "gcFee",
          "type": "uint112"
        },
        {
          "indexed": false,
          "internalType": "uint32",
          "name": "borrowingTime",
          "type": "uint32"
        },
        {
          "indexed": false,
          "internalType": "uint32",
          "name": "maturityTime",
          "type": "uint32"
        },
        {
          "indexed": false,
          "internalType": "uint32",
          "name": "borrowerReturnGraceTime",
          "type": "uint32"
        },
        {
          "indexed": false,
          "internalType": "uint32",
          "name": "enterpriseCollectGraceTime",
          "type": "uint32"
        },
        {
          "indexed": false,
          "internalType": "uint256",
          "name": "reserve",
          "type": "uint256"
        },
        {
          "indexed": false,
          "internalType": "uint256",
          "name": "usedReserve",
          "type": "uint256"
        }
      ],
      "name": "Borrowed",
      "type": "event"
    },
    {
      "anonymous": false,
      "inputs": [
        {
          "indexed": false,
          "internalType": "uint32",
          "name": "period",
          "type": "uint32"
        }
      ],
      "name": "BorrowerLoanReturnGracePeriodChanged",
      "type": "event"
    },
    {
      "anonymous": false,
      "inputs": [
        {
          "indexed": false,
          "internalType": "address",
          "name": "converter",
          "type": "address"
        }
      ],
      "name": "ConverterChanged",
      "type": "event"
    },
    {
      "anonymous": false,
      "inputs": [
        {
          "indexed": false,
          "internalType": "address",
          "name": "collector",
          "type": "address"
        }
      ],
      "name": "EnterpriseCollectorChanged",
      "type": "event"
    },
    {
      "anonymous": false,
      "inputs": [
        {
          "indexed": false,
          "internalType": "uint32",
          "name": "period",
          "type": "uint32"
        }
      ],
      "name": "EnterpriseLoanCollectGracePeriodChanged",
      "type": "event"
    },
    {
      "anonymous": false,
      "inputs": [],
      "name": "EnterpriseShutdown",
      "type": "event"
    },
    {
      "anonymous": false,
      "inputs": [
        {
          "indexed": false,
          "internalType": "address",
          "name": "vault",
          "type": "address"
        }
      ],
      "name": "EnterpriseVaultChanged",
      "type": "event"
    },
    {
      "anonymous": false,
      "inputs": [
        {
          "indexed": false,
          "internalType": "uint256",
          "name": "fixedReserve",
          "type": "uint256"
        }
      ],
      "name": "FixedReserveChanged",
      "type": "event"
    },
    {
      "anonymous": false,
      "inputs": [
        {
          "indexed": false,
          "internalType": "uint16",
          "name": "percent",
          "type": "uint16"
        }
      ],
      "name": "GcFeePercentChanged",
      "type": "event"
    },
    {
      "anonymous": false,
      "inputs": [
        {
          "indexed": false,
          "internalType": "uint32",
          "name": "period",
          "type": "uint32"
        }
      ],
      "name": "InterestGapHalvingPeriodChanged",
      "type": "event"
    },
    {
      "anonymous": false,
      "inputs": [
        {
          "indexed": true,
          "internalType": "uint256",
          "name": "interestTokenId",
          "type": "uint256"
        },
        {
          "indexed": true,
          "internalType": "address",
          "name": "liquidityProvider",
          "type": "address"
        },
        {
          "indexed": true,
          "internalType": "enum Enterprise.LiquidityChangeType",
          "name": "changeType",
          "type": "uint8"
        },
        {
          "indexed": false,
          "internalType": "uint256",
          "name": "amountDelta",
          "type": "uint256"
        },
        {
          "indexed": false,
          "internalType": "uint256",
          "name": "amount",
          "type": "uint256"
        },
        {
          "indexed": false,
          "internalType": "uint256",
          "name": "sharesDelta",
          "type": "uint256"
        },
        {
          "indexed": false,
          "internalType": "uint256",
          "name": "shares",
          "type": "uint256"
        },
        {
          "indexed": false,
          "internalType": "uint256",
          "name": "totalShares",
          "type": "uint256"
        },
        {
          "indexed": false,
          "internalType": "uint256",
          "name": "reserve",
          "type": "uint256"
        },
        {
          "indexed": false,
          "internalType": "uint256",
          "name": "usedReserve",
          "type": "uint256"
        }
      ],
      "name": "LiquidityChanged",
      "type": "event"
    },
    {
      "anonymous": false,
      "inputs": [
        {
          "indexed": true,
          "internalType": "uint256",
          "name": "borrowTokenId",
          "type": "uint256"
        },
        {
          "indexed": true,
          "internalType": "address",
          "name": "borrower",
          "type": "address"
        },
        {
          "indexed": false,
          "internalType": "address",
          "name": "paymentToken",
          "type": "address"
        },
        {
          "indexed": false,
          "internalType": "uint112",
          "name": "interest",
          "type": "uint112"
        },
        {
          "indexed": false,
          "internalType": "uint112",
          "name": "serviceFee",
          "type": "uint112"
        },
        {
          "indexed": false,
          "internalType": "uint32",
          "name": "maturityTime",
          "type": "uint32"
        },
        {
          "indexed": false,
          "internalType": "uint32",
          "name": "borrowerReturnGraceTime",
          "type": "uint32"
        },
        {
          "indexed": false,
          "internalType": "uint32",
          "name": "enterpriseCollectGraceTime",
          "type": "uint32"
        }
      ],
      "name": "LoanExtended",
      "type": "event"
    },
    {
      "anonymous": false,
      "inputs": [
        {
          "indexed": true,
          "internalType": "uint256",
          "name": "borrowTokenId",
          "type": "uint256"
        },
        {
          "indexed": true,
          "internalType": "address",
          "name": "returner",
          "type": "address"
        },
        {
          "indexed": true,
          "internalType": "address",
          "name": "powerToken",
          "type": "address"
        },
        {
          "indexed": false,
          "internalType": "uint112",
          "name": "amount",
          "type": "uint112"
        },
        {
          "indexed": false,
          "internalType": "uint112",
          "name": "gcFee",
          "type": "uint112"
        },
        {
          "indexed": false,
          "internalType": "address",
          "name": "gcFeeToken",
          "type": "address"
        },
        {
          "indexed": false,
          "internalType": "uint256",
          "name": "reserve",
          "type": "uint256"
        },
        {
          "indexed": false,
          "internalType": "uint256",
          "name": "usedReserve",
          "type": "uint256"
        }
      ],
      "name": "LoanReturned",
      "type": "event"
    },
    {
      "anonymous": false,
      "inputs": [
        {
          "indexed": true,
          "internalType": "address",
          "name": "previousOwner",
          "type": "address"
        },
        {
          "indexed": true,
          "internalType": "address",
          "name": "newOwner",
          "type": "address"
        }
      ],
      "name": "OwnershipTransferred",
      "type": "event"
    },
    {
      "anonymous": false,
      "inputs": [
        {
          "indexed": false,
          "internalType": "address",
          "name": "paymentToken",
          "type": "address"
        },
        {
          "indexed": false,
          "internalType": "bool",
          "name": "enabled",
          "type": "bool"
        }
      ],
      "name": "PaymentTokenChange",
      "type": "event"
    },
    {
      "anonymous": false,
      "inputs": [
        {
          "indexed": true,
          "internalType": "address",
          "name": "powerToken",
          "type": "address"
        }
      ],
      "name": "ServiceRegistered",
      "type": "event"
    },
    {
      "anonymous": false,
      "inputs": [
        {
          "indexed": false,
          "internalType": "uint112",
          "name": "streamingReserve",
          "type": "uint112"
        },
        {
          "indexed": false,
          "internalType": "uint112",
          "name": "streamingReserveTarget",
          "type": "uint112"
        }
      ],
      "name": "StreamingReserveChanged",
      "type": "event"
    },
    {
      "inputs": [
        {
          "internalType": "uint256",
          "name": "liquidityAmount",
          "type": "uint256"
        }
      ],
      "name": "addLiquidity",
      "outputs": [],
      "stateMutability": "nonpayable",
      "type": "function"
    },
    {
      "inputs": [
        {
          "internalType": "address",
          "name": "powerToken",
          "type": "address"
        },
        {
          "internalType": "address",
          "name": "paymentToken",
          "type": "address"
        },
        {
          "internalType": "uint112",
          "name": "loanAmount",
          "type": "uint112"
        },
        {
          "internalType": "uint32",
          "name": "duration",
          "type": "uint32"
        },
        {
          "internalType": "uint256",
          "name": "maxPayment",
          "type": "uint256"
        }
      ],
      "name": "borrow",
      "outputs": [],
      "stateMutability": "nonpayable",
      "type": "function"
    },
    {
      "inputs": [
        {
          "internalType": "uint256",
          "name": "interestTokenId",
          "type": "uint256"
        },
        {
          "internalType": "uint256",
          "name": "liquidityAmount",
          "type": "uint256"
        }
      ],
      "name": "decreaseLiquidity",
      "outputs": [],
      "stateMutability": "nonpayable",
      "type": "function"
    },
    {
      "inputs": [
        {
          "internalType": "address",
          "name": "token",
          "type": "address"
        }
      ],
      "name": "disablePaymentToken",
      "outputs": [],
      "stateMutability": "nonpayable",
      "type": "function"
    },
    {
      "inputs": [
        {
          "internalType": "address",
          "name": "token",
          "type": "address"
        }
      ],
      "name": "enablePaymentToken",
      "outputs": [],
      "stateMutability": "nonpayable",
      "type": "function"
    },
    {
      "inputs": [
        {
          "internalType": "address",
          "name": "powerToken",
          "type": "address"
        },
        {
          "internalType": "address",
          "name": "paymentToken",
          "type": "address"
        },
        {
          "internalType": "uint112",
          "name": "amount",
          "type": "uint112"
        },
        {
          "internalType": "uint32",
          "name": "duration",
          "type": "uint32"
        }
      ],
      "name": "estimateLoan",
      "outputs": [
        {
          "internalType": "uint256",
          "name": "",
          "type": "uint256"
        }
      ],
      "stateMutability": "view",
      "type": "function"
    },
    {
      "inputs": [
        {
          "internalType": "uint256",
          "name": "interestTokenId",
          "type": "uint256"
        }
      ],
      "name": "getAccruedInterest",
      "outputs": [
        {
          "internalType": "uint256",
          "name": "",
          "type": "uint256"
        }
      ],
      "stateMutability": "view",
      "type": "function"
    },
    {
      "inputs": [],
      "name": "getAvailableReserve",
      "outputs": [
        {
          "internalType": "uint256",
          "name": "",
          "type": "uint256"
        }
      ],
      "stateMutability": "view",
      "type": "function"
    },
    {
      "inputs": [],
      "name": "getBaseUri",
      "outputs": [
        {
          "internalType": "string",
          "name": "",
          "type": "string"
        }
      ],
      "stateMutability": "view",
      "type": "function"
    },
    {
      "inputs": [],
      "name": "getBondingCurve",
      "outputs": [
        {
          "internalType": "uint256",
          "name": "pole",
          "type": "uint256"
        },
        {
          "internalType": "uint256",
          "name": "slope",
          "type": "uint256"
        }
      ],
      "stateMutability": "view",
      "type": "function"
    },
    {
      "inputs": [],
      "name": "getBorrowToken",
      "outputs": [
        {
          "internalType": "contract IBorrowToken",
          "name": "",
          "type": "address"
        }
      ],
      "stateMutability": "view",
      "type": "function"
    },
    {
      "inputs": [],
      "name": "getBorrowerLoanReturnGracePeriod",
      "outputs": [
        {
          "internalType": "uint32",
          "name": "",
          "type": "uint32"
        }
      ],
      "stateMutability": "view",
      "type": "function"
    },
    {
      "inputs": [],
      "name": "getConverter",
      "outputs": [
        {
          "internalType": "contract IConverter",
          "name": "",
          "type": "address"
        }
      ],
      "stateMutability": "view",
      "type": "function"
    },
    {
      "inputs": [],
      "name": "getEnterpriseCollector",
      "outputs": [
        {
          "internalType": "address",
          "name": "",
          "type": "address"
        }
      ],
      "stateMutability": "view",
      "type": "function"
    },
    {
      "inputs": [],
      "name": "getEnterpriseLoanCollectGracePeriod",
      "outputs": [
        {
          "internalType": "uint32",
          "name": "",
          "type": "uint32"
        }
      ],
      "stateMutability": "view",
      "type": "function"
    },
    {
      "inputs": [],
      "name": "getEnterpriseVault",
      "outputs": [
        {
          "internalType": "address",
          "name": "",
          "type": "address"
        }
      ],
      "stateMutability": "view",
      "type": "function"
    },
    {
      "inputs": [],
      "name": "getGCFeePercent",
      "outputs": [
        {
          "internalType": "uint16",
          "name": "",
          "type": "uint16"
        }
      ],
      "stateMutability": "view",
      "type": "function"
    },
    {
      "inputs": [],
      "name": "getInfo",
      "outputs": [
        {
          "internalType": "string",
          "name": "name",
          "type": "string"
        },
        {
          "internalType": "string",
          "name": "baseUri",
          "type": "string"
        },
        {
          "internalType": "uint256",
          "name": "totalShares",
          "type": "uint256"
        },
        {
          "internalType": "uint32",
          "name": "interestGapHalvingPeriod",
          "type": "uint32"
        },
        {
          "internalType": "uint32",
          "name": "borrowerLoanReturnGracePeriod",
          "type": "uint32"
        },
        {
          "internalType": "uint32",
          "name": "enterpriseLoanCollectGracePeriod",
          "type": "uint32"
        },
        {
          "internalType": "uint16",
          "name": "gcFeePercent",
          "type": "uint16"
        },
        {
          "internalType": "uint256",
          "name": "fixedReserve",
          "type": "uint256"
        },
        {
          "internalType": "uint256",
          "name": "usedReserve",
          "type": "uint256"
        },
        {
          "internalType": "uint112",
          "name": "streamingReserve",
          "type": "uint112"
        },
        {
          "internalType": "uint112",
          "name": "streamingReserveTarget",
          "type": "uint112"
        },
        {
          "internalType": "uint32",
          "name": "streamingReserveUpdated",
          "type": "uint32"
        }
      ],
      "stateMutability": "view",
      "type": "function"
    },
    {
      "inputs": [],
      "name": "getInterestGapHalvingPeriod",
      "outputs": [
        {
          "internalType": "uint32",
          "name": "",
          "type": "uint32"
        }
      ],
      "stateMutability": "view",
      "type": "function"
    },
    {
      "inputs": [],
      "name": "getInterestToken",
      "outputs": [
        {
          "internalType": "contract IInterestToken",
          "name": "",
          "type": "address"
        }
      ],
      "stateMutability": "view",
      "type": "function"
    },
    {
      "inputs": [
        {
          "internalType": "uint256",
          "name": "interestTokenId",
          "type": "uint256"
        }
      ],
      "name": "getLiquidityInfo",
      "outputs": [
        {
          "components": [
            {
              "internalType": "uint256",
              "name": "amount",
              "type": "uint256"
            },
            {
              "internalType": "uint256",
              "name": "shares",
              "type": "uint256"
            },
            {
              "internalType": "uint256",
              "name": "block",
              "type": "uint256"
            }
          ],
          "internalType": "struct EnterpriseStorage.LiquidityInfo",
          "name": "",
          "type": "tuple"
        }
      ],
      "stateMutability": "view",
      "type": "function"
    },
    {
      "inputs": [],
      "name": "getLiquidityToken",
      "outputs": [
        {
          "internalType": "contract IERC20Metadata",
          "name": "",
          "type": "address"
        }
      ],
      "stateMutability": "view",
      "type": "function"
    },
    {
      "inputs": [
        {
          "internalType": "uint256",
          "name": "borrowTokenId",
          "type": "uint256"
        }
      ],
      "name": "getLoanInfo",
      "outputs": [
        {
          "components": [
            {
              "internalType": "uint112",
              "name": "amount",
              "type": "uint112"
            },
            {
              "internalType": "uint16",
              "name": "powerTokenIndex",
              "type": "uint16"
            },
            {
              "internalType": "uint32",
              "name": "borrowingTime",
              "type": "uint32"
            },
            {
              "internalType": "uint32",
              "name": "maturityTime",
              "type": "uint32"
            },
            {
              "internalType": "uint32",
              "name": "borrowerReturnGraceTime",
              "type": "uint32"
            },
            {
              "internalType": "uint32",
              "name": "enterpriseCollectGraceTime",
              "type": "uint32"
            },
            {
              "internalType": "uint112",
              "name": "gcFee",
              "type": "uint112"
            },
            {
              "internalType": "uint16",
              "name": "gcFeeTokenIndex",
              "type": "uint16"
            }
          ],
          "internalType": "struct IEnterpriseStorage.LoanInfo",
          "name": "",
          "type": "tuple"
        }
      ],
      "stateMutability": "view",
      "type": "function"
    },
    {
      "inputs": [
        {
          "internalType": "uint256",
          "name": "index",
          "type": "uint256"
        }
      ],
      "name": "getPaymentToken",
      "outputs": [
        {
          "internalType": "address",
          "name": "",
          "type": "address"
        }
      ],
      "stateMutability": "view",
      "type": "function"
    },
    {
      "inputs": [
        {
          "internalType": "address",
          "name": "token",
          "type": "address"
        }
      ],
      "name": "getPaymentTokenIndex",
      "outputs": [
        {
          "internalType": "int16",
          "name": "",
          "type": "int16"
        }
      ],
      "stateMutability": "view",
      "type": "function"
    },
    {
      "inputs": [],
      "name": "getPowerTokens",
      "outputs": [
        {
          "internalType": "contract IPowerToken[]",
          "name": "",
          "type": "address[]"
        }
      ],
      "stateMutability": "view",
      "type": "function"
    },
    {
      "inputs": [],
      "name": "getProxyAdmin",
      "outputs": [
        {
          "internalType": "contract ProxyAdmin",
          "name": "",
          "type": "address"
        }
      ],
      "stateMutability": "view",
      "type": "function"
    },
    {
      "inputs": [],
      "name": "getReserve",
      "outputs": [
        {
          "internalType": "uint256",
          "name": "",
          "type": "uint256"
        }
      ],
      "stateMutability": "view",
      "type": "function"
    },
    {
      "inputs": [],
      "name": "getUsedReserve",
      "outputs": [
        {
          "internalType": "uint256",
          "name": "",
          "type": "uint256"
        }
      ],
      "stateMutability": "view",
      "type": "function"
    },
    {
      "inputs": [
        {
          "internalType": "uint256",
          "name": "interestTokenId",
          "type": "uint256"
        },
        {
          "internalType": "uint256",
          "name": "liquidityAmount",
          "type": "uint256"
        }
      ],
      "name": "increaseLiquidity",
      "outputs": [],
      "stateMutability": "nonpayable",
      "type": "function"
    },
    {
      "inputs": [
        {
          "internalType": "string",
          "name": "enterpriseName",
          "type": "string"
        },
        {
          "internalType": "string",
          "name": "baseUri",
          "type": "string"
        },
        {
          "internalType": "uint16",
          "name": "gcFeePercent",
          "type": "uint16"
        },
        {
          "internalType": "contract IConverter",
          "name": "converter",
          "type": "address"
        },
        {
          "internalType": "contract ProxyAdmin",
          "name": "proxyAdmin",
          "type": "address"
        },
        {
          "internalType": "address",
          "name": "owner",
          "type": "address"
        }
      ],
      "name": "initialize",
      "outputs": [],
      "stateMutability": "nonpayable",
      "type": "function"
    },
    {
      "inputs": [
        {
          "internalType": "address",
          "name": "initialOwner",
          "type": "address"
        }
      ],
      "name": "initialize",
      "outputs": [],
      "stateMutability": "nonpayable",
      "type": "function"
    },
    {
      "inputs": [
        {
          "internalType": "contract IERC20Metadata",
          "name": "liquidityToken",
          "type": "address"
        },
        {
          "internalType": "contract IInterestToken",
          "name": "interestToken",
          "type": "address"
        },
        {
          "internalType": "contract IBorrowToken",
          "name": "borrowToken",
          "type": "address"
        }
      ],
      "name": "initializeTokens",
      "outputs": [],
      "stateMutability": "nonpayable",
      "type": "function"
    },
    {
      "inputs": [
        {
          "internalType": "address",
          "name": "powerToken",
          "type": "address"
        }
      ],
      "name": "isRegisteredPowerToken",
      "outputs": [
        {
          "internalType": "bool",
          "name": "",
          "type": "bool"
        }
      ],
      "stateMutability": "view",
      "type": "function"
    },
    {
      "inputs": [
        {
          "internalType": "address",
          "name": "token",
          "type": "address"
        }
      ],
      "name": "isSupportedPaymentToken",
      "outputs": [
        {
          "internalType": "bool",
          "name": "",
          "type": "bool"
        }
      ],
      "stateMutability": "view",
      "type": "function"
    },
    {
      "inputs": [
        {
          "internalType": "address",
          "name": "from",
          "type": "address"
        },
        {
          "internalType": "address",
          "name": "to",
          "type": "address"
        },
        {
          "internalType": "uint256",
          "name": "borrowTokenId",
          "type": "uint256"
        }
      ],
      "name": "loanTransfer",
      "outputs": [],
      "stateMutability": "nonpayable",
      "type": "function"
    },
    {
      "inputs": [],
      "name": "owner",
      "outputs": [
        {
          "internalType": "address",
          "name": "",
          "type": "address"
        }
      ],
      "stateMutability": "view",
      "type": "function"
    },
    {
      "inputs": [
        {
          "internalType": "uint256",
          "name": "borrowTokenId",
          "type": "uint256"
        },
        {
          "internalType": "address",
          "name": "paymentToken",
          "type": "address"
        },
        {
          "internalType": "uint32",
          "name": "duration",
          "type": "uint32"
        },
        {
          "internalType": "uint256",
          "name": "maxPayment",
          "type": "uint256"
        }
      ],
      "name": "reborrow",
      "outputs": [],
      "stateMutability": "nonpayable",
      "type": "function"
    },
    {
      "inputs": [
        {
          "internalType": "string",
          "name": "serviceName",
          "type": "string"
        },
        {
          "internalType": "string",
          "name": "symbol",
          "type": "string"
        },
        {
          "internalType": "uint32",
          "name": "gapHalvingPeriod",
          "type": "uint32"
        },
        {
          "internalType": "uint112",
          "name": "baseRate",
          "type": "uint112"
        },
        {
          "internalType": "address",
          "name": "baseToken",
          "type": "address"
        },
        {
          "internalType": "uint16",
          "name": "serviceFeePercent",
          "type": "uint16"
        },
        {
          "internalType": "uint32",
          "name": "minLoanDuration",
          "type": "uint32"
        },
        {
          "internalType": "uint32",
          "name": "maxLoanDuration",
          "type": "uint32"
        },
        {
          "internalType": "uint96",
          "name": "minGCFee",
          "type": "uint96"
        },
        {
          "internalType": "bool",
          "name": "allowsWrappingForever",
          "type": "bool"
        }
      ],
      "name": "registerService",
      "outputs": [],
      "stateMutability": "nonpayable",
      "type": "function"
    },
    {
      "inputs": [
        {
          "internalType": "uint256",
          "name": "interestTokenId",
          "type": "uint256"
        }
      ],
      "name": "removeLiquidity",
      "outputs": [],
      "stateMutability": "nonpayable",
      "type": "function"
    },
    {
      "inputs": [
        {
          "internalType": "uint256",
          "name": "borrowTokenId",
          "type": "uint256"
        }
      ],
      "name": "returnLoan",
      "outputs": [],
      "stateMutability": "nonpayable",
      "type": "function"
    },
    {
      "inputs": [
        {
          "internalType": "string",
          "name": "baseUri",
          "type": "string"
        }
      ],
      "name": "setBaseUri",
      "outputs": [],
      "stateMutability": "nonpayable",
      "type": "function"
    },
    {
      "inputs": [
        {
          "internalType": "uint256",
          "name": "pole",
          "type": "uint256"
        },
        {
          "internalType": "uint256",
          "name": "slope",
          "type": "uint256"
        }
      ],
      "name": "setBondingCurve",
      "outputs": [],
      "stateMutability": "nonpayable",
      "type": "function"
    },
    {
      "inputs": [
        {
          "internalType": "uint32",
          "name": "newPeriod",
          "type": "uint32"
        }
      ],
      "name": "setBorrowerLoanReturnGracePeriod",
      "outputs": [],
      "stateMutability": "nonpayable",
      "type": "function"
    },
    {
      "inputs": [
        {
          "internalType": "contract IConverter",
          "name": "newConverter",
          "type": "address"
        }
      ],
      "name": "setConverter",
      "outputs": [],
      "stateMutability": "nonpayable",
      "type": "function"
    },
    {
      "inputs": [
        {
          "internalType": "address",
          "name": "newCollector",
          "type": "address"
        }
      ],
      "name": "setEnterpriseCollector",
      "outputs": [],
      "stateMutability": "nonpayable",
      "type": "function"
    },
    {
      "inputs": [
        {
          "internalType": "uint32",
          "name": "newPeriod",
          "type": "uint32"
        }
      ],
      "name": "setEnterpriseLoanCollectGracePeriod",
      "outputs": [],
      "stateMutability": "nonpayable",
      "type": "function"
    },
    {
      "inputs": [
        {
          "internalType": "address",
          "name": "newVault",
          "type": "address"
        }
      ],
      "name": "setEnterpriseVault",
      "outputs": [],
      "stateMutability": "nonpayable",
      "type": "function"
    },
    {
      "inputs": [
        {
          "internalType": "uint16",
          "name": "newGcFeePercent",
          "type": "uint16"
        }
      ],
      "name": "setGcFeePercent",
      "outputs": [],
      "stateMutability": "nonpayable",
      "type": "function"
    },
    {
      "inputs": [
        {
          "internalType": "uint32",
          "name": "interestGapHalvingPeriod",
          "type": "uint32"
        }
      ],
      "name": "setInterestGapHalvingPeriod",
      "outputs": [],
      "stateMutability": "nonpayable",
      "type": "function"
    },
    {
      "inputs": [],
      "name": "shutdownEnterpriseForever",
      "outputs": [],
      "stateMutability": "nonpayable",
      "type": "function"
    },
    {
      "inputs": [
        {
          "internalType": "address",
          "name": "newOwner",
          "type": "address"
        }
      ],
      "name": "transferOwnership",
      "outputs": [],
      "stateMutability": "nonpayable",
      "type": "function"
    },
    {
      "inputs": [
        {
          "internalType": "address",
          "name": "enterpriseImplementation",
          "type": "address"
        },
        {
          "internalType": "address",
          "name": "borrowTokenImplementation",
          "type": "address"
        },
        {
          "internalType": "address",
          "name": "interestTokenImplementation",
          "type": "address"
        },
        {
          "internalType": "address",
          "name": "powerTokenImplementation",
          "type": "address"
        },
        {
          "internalType": "address[]",
          "name": "powerTokens",
          "type": "address[]"
        }
      ],
      "name": "upgrade",
      "outputs": [],
      "stateMutability": "nonpayable",
      "type": "function"
    },
    {
      "inputs": [
        {
          "internalType": "uint256",
          "name": "interestTokenId",
          "type": "uint256"
        }
      ],
      "name": "withdrawInterest",
      "outputs": [],
      "stateMutability": "nonpayable",
      "type": "function"
    }
  ],
  "bytecode": "0x608060405234801561001057600080fd5b50615cf080620000216000396000f3fe608060405234801561001057600080fd5b50600436106102715760003560e01c8062ca339b146102765780630103f3131461028b5780630714012c146102b657806308669aab146102d65780630cac36b2146102e95780630ea1dc9e146102fe5780632261b07f14610318578063229304dc146103295780632e365ade1461034a5780632fb2067f1461035d5780633513e0dc14610380578063449497ec146103935780634741efb3146103a657806349bd4e89146103ae578063512a53bc146103c157806351c6590a146103d457806359bf5d39146103e75780635a4598df146103ef5780635a9b0b891461040d57806362c1f3881461042d578063644e44df146104405780636815f33714610451578063696f9c81146104645780637791c42d146104775780638188d50d1461048857806389035b611461049d5780638b3240a0146104c95780638c0114b0146104d15780638da5cb5b146104e457806390f55edd146104ec5780639339ea69146104ff5780639ab71193146105125780639c7aa7f8146105255780639c8f9f2314610538578063a0bcfc7f1461054b578063a0efd1181461055e578063a554b26d14610573578063aebb504114610584578063b19337a41461058c578063b406bf6d1461059f578063b56de97e146105c0578063b96266fa146105d3578063bfd84fb4146105e8578063c4d66de8146105fb578063c93d0b921461060e578063cdc2aebf1461061f578063df57f2fa14610632578063e1a5fa4914610667578063e91261541461067a578063ed1fecc01461068d578063ef1f9f39146106a0578063f2fde38b146106b3578063faac38ef146106c6578063fcb2884e146106e1575b600080fd5b610289610284366004614ffc565b6106e9565b005b61029e610299366004614eb2565b610ed1565b60405160019190910b81526020015b60405180910390f35b6102c96102c43660046153c6565b610efe565b6040516102ad919061573a565b6102896102e43660046153c6565b611053565b6102f1611224565b6040516102ad919061564b565b6001546001600160a01b03165b6040516102ad919061551b565b6004546001600160a01b031661030b565b61033c610337366004614fa3565b6112b6565b6040519081526020016102ad565b61028961035836600461545c565b6113df565b61037061036b366004614eb2565b6114c1565b60405190151581526020016102ad565b61028961038e36600461543b565b6114e4565b6102896103a136600461538e565b6115f1565b61028961167b565b6102896103bc36600461543b565b611775565b6102896103cf36600461505d565b6119f9565b6102896103e23660046153c6565b611c80565b61033c611e2a565b600354600160a01b900463ffffffff165b6040516102ad9190615817565b610415611e4f565b6040516102ad9c9b9a9998979695949392919061565e565b61028961043b366004614eb2565b612012565b6000546001600160a01b031661030b565b61028961045f3660046151b4565b6120d8565b61028961047236600461543b565b612404565b6006546001600160a01b031661030b565b600654600160a01b900463ffffffff16610400565b6103706104ab366004614eb2565b6001600160a01b031660009081526013602052604090205460ff1690565b61030b6125cd565b6102896104df3660046153f6565b6125ee565b61030b612ae8565b6102896104fa366004614eb2565b612afe565b61033c61050d3660046153c6565b612bc4565b610289610520366004615266565b612c11565b610289610533366004614eb2565b6130fb565b6102896105463660046153c6565b613241565b610289610559366004615103565b613490565b600654600160c01b900463ffffffff16610400565b6005546001600160a01b031661030b565b61033c613508565b61028961059a366004614eb2565b61351f565b600654600160e01b900461ffff1660405161ffff90911681526020016102ad565b6102896105ce36600461545c565b6135e5565b6105db6136bb565b6040516102ad91906155b5565b6102896105f6366004614eb2565b61371c565b610289610609366004614eb2565b6137b2565b6002546001600160a01b031661030b565b61030b61062d3660046153c6565b613887565b6106456106403660046153c6565b6138c5565b60408051825181526020808401519082015291810151908201526060016102ad565b61028961067536600461545c565b61399f565b6102896106883660046153c6565b613a65565b61028961069b366004614eea565b613e5a565b6102896106ae3660046150b9565b614168565b6102896106c1366004614eb2565b6141f7565b600e54600d54604080519283526020830191909152016102ad565b600a5461033c565b600354604080518082019091526002815261373560f01b602082015290600160c01b900460ff16156107375760405162461bcd60e51b815260040161072e919061564b565b60405180910390fd5b506001600160a01b03851660009081526013602090815260409182902054825180840190935260018352601b60f91b9183019190915260ff1661078d5760405162461bcd60e51b815260040161072e919061564b565b50610797846114c1565b604051806040016040528060028152602001610d0d60f21b815250906107d05760405162461bcd60e51b815260040161072e919061564b565b50604051636e4d898360e01b81526001600160a01b03861690636e4d8983906107fd908590600401615817565b60206040518083038186803b15801561081557600080fd5b505afa158015610829573d6000803e3d6000fd5b505050506040513d601f19601f8201168201806040525081019061084d919061509d565b60405180604001604052806002815260200161343560f01b815250906108865760405162461bcd60e51b815260040161072e919061564b565b506040805180820190915260028152611b9b60f11b60208201526001600160701b0384166108c75760405162461bcd60e51b815260040161072e919061564b565b506108d0613508565b836001600160701b03161115604051806040016040528060028152602001611a1b60f11b815250906109155760405162461bcd60e51b815260040161072e919061564b565b506000806000876001600160a01b0316639d5513d78888886040518463ffffffff1660e01b815260040161094b9392919061556c565b60606040518083038186803b15801561096357600080fd5b505afa158015610977573d6000803e3d6000fd5b505050506040513d601f19601f8201168201806040525081019061099b919061534d565b9194509250905060006109ae838561587f565b6001600160701b0316905084826001600160701b0316826109cf91906158aa565b111560405180604001604052806002815260200161343760f01b81525090610a0a5760405162461bcd60e51b815260040161072e919061564b565b50610a208882856001600160701b0316876142e8565b600254610a45906001600160a01b038a8116913391166001600160701b03861661447c565b866001600160701b0316600a6000828254610a6091906158aa565b9091555042915060009050610a7587836158c2565b600654909150600090610a9590600160a01b900463ffffffff16836158c2565b600654909150600090610ab590600160c01b900463ffffffff16846158c2565b90506000600260009054906101000a90046001600160a01b03166001600160a01b031663caa0f92a6040518163ffffffff1660e01b8152600401602060405180830381600087803b158015610b0957600080fd5b505af1158015610b1d573d6000803e3d6000fd5b505050506040513d601f19601f82011682018060405250810190610b4191906153de565b90506040518061010001604052808c6001600160701b031681526020018e6001600160a01b03166381045ead6040518163ffffffff1660e01b815260040160206040518083038186803b158015610b9757600080fd5b505afa158015610bab573d6000803e3d6000fd5b505050506040513d601f19601f82011682018060405250810190610bcf91906153aa565b61ffff1681526020018663ffffffff1681526020018563ffffffff1681526020018463ffffffff1681526020018363ffffffff168152602001876001600160701b03168152602001610c208e610ed1565b61ffff9081169091526000838152601160209081526040918290208451815492860151868501516060880151608089015160a08a01516001600160701b039586166001600160801b031998891617600160701b958b16860217600160801b600160c01b031916600160801b63ffffffff9586160263ffffffff60a01b191617600160a01b93851693909302929092176001600160c01b0316600160c01b918416919091026001600160e01b031617600160e01b929091169190910217835560c08701516001909301805460e0909801519390921696909316959095179316029190911790915560025490516335313c2160e11b815282916001600160a01b031690636a62784290610d3590339060040161551b565b602060405180830381600087803b158015610d4f57600080fd5b505af1158015610d63573d6000803e3d6000fd5b505050506040513d601f19601f82011682018060405250810190610d8791906153de565b14610da257634e487b7160e01b600052600160045260246000fd5b60405163f8642f2960e01b8152600481018290526001600160a01b038e169063f8642f2990602401600060405180830381600087803b158015610de457600080fd5b505af1158015610df8573d6000803e3d6000fd5b505050508c6001600160a01b0316336001600160a01b0316827f0606c34c8c2ec99faed8921c4f1a3a5c1108fc00ebe3884ff753ab267ef6ec288f8f8d8d8d8d8d8d8d610e43611e2a565b600a54604080516001600160a01b03909c168c526001600160701b039a8b1660208d0152988a16988b019890985295881660608a015296909316608088015263ffffffff91821660a0880152811660c087015290811660e08601529092166101008401526101208301919091526101408201526101600160405180910390a450505050505050505050505050565b6001600160a01b038116600090815260076020526040812054610ef890600190810b615920565b92915050565b6040805161010081018252600080825260208201819052818301819052606082018190526080820181905260a0820181905260c0820181905260e082015260025491516331a9108f60e11b81526004810184905290916001600160a01b031690636352211e9060240160206040518083038186803b158015610f7f57600080fd5b505afa158015610f93573d6000803e3d6000fd5b505050506040513d601f19601f82011682018060405250810190610fb79190614ece565b505060009081526011602090815260409182902082516101008101845281546001600160701b038082168352600160701b80830461ffff90811696850196909652600160801b830463ffffffff90811697850197909752600160a01b830487166060850152600160c01b830487166080850152600160e01b90920490951660a083015260019092015493841660c082015292041660e082015290565b6001546040516331a9108f60e11b815260048101839052829133916001600160a01b0390911690636352211e9060240160206040518083038186803b15801561109b57600080fd5b505afa1580156110af573d6000803e3d6000fd5b505050506040513d601f19601f820116820180604052508101906110d39190614ece565b6001600160a01b031614604051806040016040528060018152602001603360f81b815250906111155760405162461bcd60e51b815260040161072e919061564b565b5060008281526012602052604081209061112e84612bc4565b9050611138613508565b811115604051806040016040528060028152602001611a1b60f11b815250906111745760405162461bcd60e51b815260040161072e919061564b565b5060005461118c906001600160a01b031633836144ed565b81546000611198611e2a565b905060006111a6838361450c565b905060008186600101546111ba919061598d565b90506111c6858261452e565b600186018290556000336001600160a01b031689600080516020615adb83398151915288888688600c548d8c6111fc919061598d565b600a5460405161121297969594939291906157e7565b60405180910390a45050505050505050565b606060108054611233906159d0565b80601f016020809104026020016040519081016040528092919081815260200182805461125f906159d0565b80156112ac5780601f10611281576101008083540402835291602001916112ac565b820191906000526020600020905b81548152906001019060200180831161128f57829003601f168201915b5050505050905090565b600354604080518082019091526002815261373560f01b6020820152600091600160c01b900460ff16156112fd5760405162461bcd60e51b815260040161072e919061564b565b506001600160a01b03851660009081526013602090815260409182902054825180840190935260018352601b60f91b9183019190915260ff166113535760405162461bcd60e51b815260040161072e919061564b565b50604051631466370160e01b81526001600160a01b038616906314663701906113849087908790879060040161556c565b60206040518083038186803b15801561139c57600080fd5b505afa1580156113b0573d6000803e3d6000fd5b505050506040513d601f19601f820116820180604052508101906113d491906153de565b90505b949350505050565b336113e8612ae8565b6001600160a01b031614604051806040016040528060018152602001603360f81b8152509061142a5760405162461bcd60e51b815260040161072e919061564b565b506006546040805180820190915260028152610d8d60f21b60208201529063ffffffff600160c01b909104811690831611156114795760405162461bcd60e51b815260040161072e919061564b565b506006805463ffffffff60a01b1916600160a01b63ffffffff841602179055604051600080516020615c3b833981519152906114b6908390615817565b60405180910390a150565b6001600160a01b0316600090815260076020526040812054600190810b900b1390565b336114ed612ae8565b6001600160a01b031614604051806040016040528060018152602001603360f81b8152509061152f5760405162461bcd60e51b815260040161072e919061564b565b5061153f600a600360401b6158e1565b82111560405180604001604052806002815260200161373760f01b8152509061157b5760405162461bcd60e51b815260040161072e919061564b565b5060408051808201909152600281526106e760f31b6020820152600160401b8211156115ba5760405162461bcd60e51b815260040161072e919061564b565b50600e829055600d8190556040805183815260208101839052600080516020615b3b83398151915291015b60405180910390a15050565b336115fa612ae8565b6001600160a01b031614604051806040016040528060018152602001603360f81b8152509061163c5760405162461bcd60e51b815260040161072e919061564b565b506006805461ffff60e01b1916600160e01b61ffff841690810291909117909155604051908152600080516020615b7b833981519152906020016114b6565b600354604080518082019091526002815261373560f01b602082015290600160c01b900460ff16156116c05760405162461bcd60e51b815260040161072e919061564b565b50336116ca612ae8565b6001600160a01b031614604051806040016040528060018152602001603360f81b8152509061170c5760405162461bcd60e51b815260040161072e919061564b565b5060038054600160c01b60ff60c01b199091161790556000600a819055600b8054600160701b81046001600160701b03166001600160701b03199091161790556040517f6f6348718c9a361558c634b516777b2b06bb2bf4140ad3d3bfaa44270fc2c0729190a1565b6001546040516331a9108f60e11b815260048101849052839133916001600160a01b0390911690636352211e9060240160206040518083038186803b1580156117bd57600080fd5b505afa1580156117d1573d6000803e3d6000fd5b505050506040513d601f19601f820116820180604052508101906117f59190614ece565b6001600160a01b031614604051806040016040528060018152602001603360f81b815250906118375760405162461bcd60e51b815260040161072e919061564b565b50600083815260126020908152604091829020825160608101845281548152600182015481840152600291820154818501819052845180860190955291845261035360f41b9284019290925290919043116118a55760405162461bcd60e51b815260040161072e919061564b565b5080516040805180820190915260028152611a1b60f11b6020820152908411156118e25760405162461bcd60e51b815260040161072e919061564b565b506118eb613508565b831115604051806040016040528060028152602001611a1b60f11b815250906119275760405162461bcd60e51b815260040161072e919061564b565b5060005461193f906001600160a01b031633856144ed565b6000611949611e2a565b90506000611957858361450c565b9050826020015181111561196c575060208201515b611976858261452e565b6020838101805183900380825285518890038652600089815260129093526040909220600181019290925584519182905551600c5460049233928a92600080516020615adb833981519152928b9290918891906119d3858c61598d565b600a546040516119e997969594939291906157e7565b60405180910390a4505050505050565b600280546040805180820190915291825261333960f01b60208301526001600160a01b03163314611a3d5760405162461bcd60e51b815260040161072e919061564b565b506000818152601160209081526040918290205482518084019093526002835261068760f31b918301919091526001600160701b03169081611a925760405162461bcd60e51b815260040161072e919061564b565b5060008281526011602052604081205460148054600160a01b830463ffffffff164211936001600160a01b03898116159490891615939192600160701b90910461ffff16908110611af357634e487b7160e01b600052603260045260246000fd5b6000918252602090912001546001600160a01b031690508115611b755760405163079cc67960e41b81526001600160a01b038216906379cc679090611b3e908b90899060040161554a565b600060405180830381600087803b158015611b5857600080fd5b505af1158015611b6c573d6000803e3d6000fd5b50505050611c76565b8215611ba9576040516340c10f1960e01b81526001600160a01b038216906340c10f1990611b3e908a90899060040161554a565b83611c46576040516333bebb7760e01b81526001600160a01b03898116600483015288811660248301526001600160701b03871660448301528216906333bebb7790606401602060405180830381600087803b158015611c0857600080fd5b505af1158015611c1c573d6000803e3d6000fd5b505050506040513d601f19601f82011682018060405250810190611c40919061509d565b50611c76565b60408051808201825260028152611a9960f11b6020820152905162461bcd60e51b815261072e919060040161564b565b5050505050505050565b600354604080518082019091526002815261373560f01b602082015290600160c01b900460ff1615611cc55760405162461bcd60e51b815260040161072e919061564b565b50600054611cde906001600160a01b031633308461447c565b6000611ce8611e2a565b90506000600c54600014611d0557611d00838361450c565b611d07565b825b9050611d1383826145b0565b6001546040516335313c2160e11b81526000916001600160a01b031690636a62784290611d4490339060040161551b565b602060405180830381600087803b158015611d5e57600080fd5b505af1158015611d72573d6000803e3d6000fd5b505050506040513d601f19601f82011682018060405250810190611d9691906153de565b60408051606081018252868152602080820186815243838501908152600086815260129093529390912091518255516001808301919091559151600290910155909150336001600160a01b031682600080516020615adb83398151915287888788600c548c8c611e0691906158aa565b600a54604051611e1c97969594939291906157e7565b60405180910390a450505050565b6000611e34614601565b6001600160701b0316600954611e4a91906158aa565b905090565b600c54600354600654600954600a54600b54600f805460609788976000978897889788978897889788978897889788979496601096939563ffffffff600160a01b94859004811696948404811695600160c01b850482169561ffff600160e01b9687900416959394936001600160701b0380841694600160701b8504909116939190910416908c90611ee0906159d0565b80601f0160208091040260200160405190810160405280929190818152602001828054611f0c906159d0565b8015611f595780601f10611f2e57610100808354040283529160200191611f59565b820191906000526020600020905b815481529060010190602001808311611f3c57829003601f168201915b50505050509b508a8054611f6c906159d0565b80601f0160208091040260200160405190810160405280929190818152602001828054611f98906159d0565b8015611fe55780601f10611fba57610100808354040283529160200191611fe5565b820191906000526020600020905b815481529060010190602001808311611fc857829003601f168201915b50505050509a509b509b509b509b509b509b509b509b509b509b509b509b50909192939495969798999a9b565b3361201b612ae8565b6001600160a01b031614604051806040016040528060018152602001603360f81b8152509061205d5760405162461bcd60e51b815260040161072e919061564b565b50604080518082019091526002815261363160f01b60208201526001600160a01b03821661209e5760405162461bcd60e51b815260040161072e919061564b565b50600580546001600160a01b0319166001600160a01b038316179055604051600080516020615c1b833981519152906114b690839061551b565b600f80546120e5906159d0565b6040805180820190915260018152601960f91b602082015291501561211d5760405162461bcd60e51b815260040161072e919061564b565b50612127816137b2565b81600080516020615b5b83398151915280546001600160a01b03929092166001600160a01b03199283161790556003805490911633179055865161217290600f9060208a0190614cb2565b5061217f60108787614d36565b5060068054600480546001600160a01b03199081166001600160a01b03888116919091179092556005805492861692909116821790556003805463ffffffff60a01b191661127560a71b179055600165ffff0000000160c01b0319909116600160e01b61ffff8816026001600160c01b03191617176102a360a61b1763ffffffff60c01b19166102a360c71b17905561221d6064600560401b6158e1565b600e5561222f600a600360401b6158e1565b600d55604051600080516020615abb83398151915290612252908890889061561c565b60405180910390a1600654604051600160e01b90910461ffff168152600080516020615b7b8339815191529060200160405180910390a1600454604051600080516020615bbb833981519152916122b4916001600160a01b039091169061551b565b60405180910390a1600654604051600080516020615b9b833981519152916122e7916001600160a01b039091169061551b565b60405180910390a1600554604051600080516020615c1b8339815191529161231a916001600160a01b039091169061551b565b60405180910390a1600080516020615c7b833981519152600360149054906101000a900463ffffffff166040516123519190615817565b60405180910390a1600080516020615c3b833981519152600660149054906101000a900463ffffffff166040516123889190615817565b60405180910390a1600080516020615b1b833981519152600660189054906101000a900463ffffffff166040516123bf9190615817565b60405180910390a1600080516020615b3b833981519152600e54600d546040516123f3929190918252602082015260400190565b60405180910390a150505050505050565b600354604080518082019091526002815261373560f01b602082015290600160c01b900460ff16156124495760405162461bcd60e51b815260040161072e919061564b565b506001546040516331a9108f60e11b815260048101849052839133916001600160a01b0390911690636352211e9060240160206040518083038186803b15801561249257600080fd5b505afa1580156124a6573d6000803e3d6000fd5b505050506040513d601f19601f820116820180604052508101906124ca9190614ece565b6001600160a01b031614604051806040016040528060018152602001603360f81b8152509061250c5760405162461bcd60e51b815260040161072e919061564b565b50600054612525906001600160a01b031633308561447c565b600061252f611e2a565b90506000600c5460001461254c57612547848361450c565b61254e565b835b905061255a84826145b0565b600085815260126020526040812080549091906125789087906158aa565b9050600083836001015461258c91906158aa565b8284556001840181905543600285015590506003336001600160a01b031689600080516020615adb8339815191528a868987600c548f8e6111fc91906158aa565b6000600080516020615b5b8339815191525b546001600160a01b0316919050565b600354604080518082019091526002815261373560f01b602082015290600160c01b900460ff16156126335760405162461bcd60e51b815260040161072e919061564b565b5061263d836114c1565b604051806040016040528060028152602001610d0d60f21b815250906126765760405162461bcd60e51b815260040161072e919061564b565b50600084815260116020908152604091829020805483518085019094526002845261068760f31b9284019290925291906001600160701b03166126cc5760405162461bcd60e51b815260040161072e919061564b565b50805460148054600092600160701b900461ffff169081106126fe57634e487b7160e01b600052603260045260246000fd5b600091825260209091200154604051636e4d898360e01b81526001600160a01b0390911691508190636e4d89839061273a908790600401615817565b60206040518083038186803b15801561275257600080fd5b505afa158015612766573d6000803e3d6000fd5b505050506040513d601f19601f8201168201806040525081019061278a919061509d565b60405180604001604052806002815260200161343560f01b815250906127c35760405162461bcd60e51b815260040161072e919061564b565b50815442906127e0908690600160a01b900463ffffffff166158c2565b63ffffffff16101560405180604001604052806002815260200161343960f01b815250906128215760405162461bcd60e51b815260040161072e919061564b565b508154600a80546001600160701b039092169160009061284290849061598d565b90915550508154604051639d5513d760e01b815260009182916001600160a01b03851691639d5513d791612888918b916001600160701b03909116908b9060040161556c565b60606040518083038186803b1580156128a057600080fd5b505afa1580156128b4573d6000803e3d6000fd5b505050506040513d601f19601f820116820180604052508101906128d8919061534d565b508554600a80546001600160701b03909216909101905590925090506000612900828461587f565b6001600160701b031690508581111560405180604001604052806002815260200161343760f01b815250906129485760405162461bcd60e51b815260040161072e919061564b565b5061295e8882846001600160701b0316866142e8565b845460009061297b908990600160a01b900463ffffffff166158c2565b60065490915060009061299b90600160a01b900463ffffffff16836158c2565b6006549091506000906129bb90600160c01b900463ffffffff16846158c2565b8854600160a01b600160e01b031916600160a01b63ffffffff8681169190910263ffffffff60c01b191691909117600160c01b85831602176001600160e01b0316600160e01b9183169190910217895560405163f8642f2960e01b8152600481018e90529091506001600160a01b0388169063f8642f2990602401600060405180830381600087803b158015612a5057600080fd5b505af1158015612a64573d6000803e3d6000fd5b5050604080516001600160a01b038f1681526001600160701b038a8116602083015289168183015263ffffffff87811660608301528681166080830152851660a082015290513393508f92507f89d8cafb66c1254c316d74e8fb6f0386656c633ae83763dffdf797ca4843a29c9181900360c00190a3505050505050505050505050565b6000600080516020615afb8339815191526125df565b33612b07612ae8565b6001600160a01b031614604051806040016040528060018152602001603360f81b81525090612b495760405162461bcd60e51b815260040161072e919061564b565b506040805180820190915260028152611b1960f11b60208201526001600160a01b038216612b8a5760405162461bcd60e51b815260040161072e919061564b565b50600680546001600160a01b0319166001600160a01b038316179055604051600080516020615b9b833981519152906114b690839061551b565b600081815260126020526040812060018101548290612bea90612be5611e2a565b614669565b8254909150811115612c07578154612c02908261598d565b6113d7565b6000949350505050565b33612c1a612ae8565b6001600160a01b031614604051806040016040528060018152602001603360f81b81525090612c5c5760405162461bcd60e51b815260040161072e919061564b565b50600354604080518082019091526002815261373560f01b602082015290600160c01b900460ff1615612ca25760405162461bcd60e51b815260040161072e919061564b565b50604080518082019091526002815261034360f41b60208201526001600160a01b038716612ce35760405162461bcd60e51b815260040161072e919061564b565b50601454604080518082019091526002815261343160f01b60208201529061ffff11612d225760405162461bcd60e51b815260040161072e919061564b565b506003546000906001600160a01b031663c31011cc612d3f6125cd565b6040518263ffffffff1660e01b8152600401612d5b919061551b565b602060405180830381600087803b158015612d7557600080fd5b505af1158015612d89573d6000803e3d6000fd5b505050506040513d601f19601f82011682018060405250810190612dad9190614ece565b905060008060009054906101000a90046001600160a01b03166001600160a01b03166395d89b416040518163ffffffff1660e01b815260040160006040518083038186803b158015612dfe57600080fd5b505afa158015612e12573d6000803e3d6000fd5b505050506040513d6000823e601f3d908101601f19168201604052612e3a9190810190615142565b90506000818c604051602001612e519291906154df565b6040516020818303038152906040529050826001600160a01b0316631624f6c68e8360008054906101000a90046001600160a01b03166001600160a01b031663313ce5676040518163ffffffff1660e01b815260040160206040518083038186803b158015612ebf57600080fd5b505afa158015612ed3573d6000803e3d6000fd5b505050506040513d601f19601f82011682018060405250810190612ef79190615476565b6040518463ffffffff1660e01b8152600401612f1593929190615701565b600060405180830381600087803b158015612f2f57600080fd5b505af1158015612f43573d6000803e3d6000fd5b5050601454604051633a455d8160e11b81523060048201526001600160701b038e1660248201526001600160601b038916604482015263ffffffff8f16606482015261ffff90911660848201526001600160a01b038c811660a48301528616945063748abb02935060c4019150612fb79050565b600060405180830381600087803b158015612fd157600080fd5b505af1158015612fe5573d6000803e3d6000fd5b50506040516319f17cdd60e21b815263ffffffff80891660048301528716602482015261ffff8916604482015284151560648201526001600160a01b03841692506367c5f3749150608401600060405180830381600087803b15801561304a57600080fd5b505af115801561305e573d6000803e3d6000fd5b50506014805460018082019092557fce6d7b5282bd9a3661ae061feed1dbda4e52ab073b1f9285be6e155d9c38d4ec0180546001600160a01b0319166001600160a01b038616908117909155600081815260136020526040808220805460ff191690941790935591519093507f2fa31fbaacf5eaf61d648ea7528ada6efb69bfb06d2c3bd35ce511a820fce53e9250a25050505050505050505050565b33613104612ae8565b6001600160a01b031614604051806040016040528060018152602001603360f81b815250906131465760405162461bcd60e51b815260040161072e919061564b565b506001600160a01b03811660009081526007602090815260409182902054825180840190935260028352611b9960f11b91830191909152600190810b900b6131a15760405162461bcd60e51b815260040161072e919061564b565b506001600160a01b038116600090815260076020526040812054600190810b900b131561323e576001600160a01b0381166000908152600760205260409020546131ed9060010b615a26565b6001600160a01b038216600090815260076020526040808220805460019490940b61ffff1661ffff19909416939093179092559051600080516020615c5b833981519152916114b69184919061552f565b50565b6001546040516331a9108f60e11b815260048101839052829133916001600160a01b0390911690636352211e9060240160206040518083038186803b15801561328957600080fd5b505afa15801561329d573d6000803e3d6000fd5b505050506040513d601f19601f820116820180604052508101906132c19190614ece565b6001600160a01b031614604051806040016040528060018152602001603360f81b815250906133035760405162461bcd60e51b815260040161072e919061564b565b5060006012600084815260200190815260200160002090504381600201541060405180604001604052806002815260200161035360f41b8152509061335b5760405162461bcd60e51b815260040161072e919061564b565b506001810154600061336b611e2a565b905060006133798383614669565b9050613383613508565b811115604051806040016040528060028152602001611a1b60f11b815250906133bf5760405162461bcd60e51b815260040161072e919061564b565b506000546133d7906001600160a01b031633836144ed565b6133e1818461452e565b600154604051630852cd8d60e31b8152600481018890526001600160a01b03909116906342966c6890602401600060405180830381600087803b15801561342757600080fd5b505af115801561343b573d6000803e3d6000fd5b5050506000878152601260205260408120818155600181018290556002908101919091559050336001600160a01b031687600080516020615adb833981519152846000886000600c54898b6119d3919061598d565b33613499612ae8565b6001600160a01b031614604051806040016040528060018152602001603360f81b815250906134db5760405162461bcd60e51b815260040161072e919061564b565b506134e860108383614d36565b50600080516020615abb83398151915282826040516115e592919061561c565b6000600a54613515611e2a565b611e4a919061598d565b33613528612ae8565b6001600160a01b031614604051806040016040528060018152602001603360f81b8152509061356a5760405162461bcd60e51b815260040161072e919061564b565b50604080518082019091526002815261363360f01b60208201526001600160a01b0382166135ab5760405162461bcd60e51b815260040161072e919061564b565b50600480546001600160a01b0319166001600160a01b038316179055604051600080516020615bbb833981519152906114b690839061551b565b336135ee612ae8565b6001600160a01b031614604051806040016040528060018152602001603360f81b815250906136305760405162461bcd60e51b815260040161072e919061564b565b50600654604080518082019091526002815261363560f01b60208201529063ffffffff808416600160a01b90920416111561367e5760405162461bcd60e51b815260040161072e919061564b565b506006805463ffffffff60c01b1916600160c01b63ffffffff841602179055604051600080516020615b1b833981519152906114b6908390615817565b606060148054806020026020016040519081016040528092919081815260200182805480156112ac57602002820191906000526020600020905b81546001600160a01b031681526001909101906020018083116136f5575050505050905090565b33613725612ae8565b6001600160a01b031614604051806040016040528060018152602001603360f81b815250906137675760405162461bcd60e51b815260040161072e919061564b565b50604080518082019091526002815261373160f01b60208201526001600160a01b0382166137a85760405162461bcd60e51b815260040161072e919061564b565b5061323e81614679565b60006137bc612ae8565b6001600160a01b031614604051806040016040528060018152602001601960f91b815250906137fe5760405162461bcd60e51b815260040161072e919061564b565b50604080518082019091526002815261373360f01b60208201526001600160a01b03821661383f5760405162461bcd60e51b815260040161072e919061564b565b50600080516020615afb83398151915280546001600160a01b0319166001600160a01b038316908117909155604051600090600080516020615bfb833981519152908290a350565b6000600882815481106138aa57634e487b7160e01b600052603260045260246000fd5b6000918252602090912001546001600160a01b031692915050565b6138e960405180606001604052806000815260200160008152602001600081525090565b6001546040516331a9108f60e11b8152600481018490526001600160a01b0390911690636352211e9060240160206040518083038186803b15801561392d57600080fd5b505afa158015613941573d6000803e3d6000fd5b505050506040513d601f19601f820116820180604052508101906139659190614ece565b5050600090815260126020908152604091829020825160608101845281548152600182015492810192909252600201549181019190915290565b336139a8612ae8565b6001600160a01b031614604051806040016040528060018152602001603360f81b815250906139ea5760405162461bcd60e51b815260040161072e919061564b565b506040805180820190915260028152611b1b60f11b602082015263ffffffff8216613a285760405162461bcd60e51b815260040161072e919061564b565b506003805463ffffffff60a01b1916600160a01b63ffffffff841602179055604051600080516020615c7b833981519152906114b6908390615817565b60008181526011602090815260409182902082516101008101845281546001600160701b0380821680845261ffff600160701b80850482168689015263ffffffff600160801b86048116878b0152600160a01b860481166060880152600160c01b860481166080880152600160e01b90950490941660a086015260019095015491821660c085015291900490921660e082015283518085019094526002845261068760f31b92840192909252909190613b315760405162461bcd60e51b815260040161072e919061564b565b506002546040516331a9108f60e11b8152600481018490526000916001600160a01b031690636352211e9060240160206040518083038186803b158015613b7757600080fd5b505afa158015613b8b573d6000803e3d6000fd5b505050506040513d601f19601f82011682018060405250810190613baf9190614ece565b905060004290508063ffffffff16836080015163ffffffff161080613bdc5750336001600160a01b038316145b60405180604001604052806002815260200161353360f01b81525090613c155760405162461bcd60e51b815260040161072e919061564b565b508063ffffffff168360a0015163ffffffff161080613c3c5750336001600160a01b038316145b80613c5157506005546001600160a01b031633145b604051806040016040528060028152602001610d4d60f21b81525090613c8a5760405162461bcd60e51b815260040161072e919061564b565b50600354600160c01b900460ff16613cc15782600001516001600160701b0316600a6000828254613cbb919061598d565b90915550505b6014836020015161ffff1681548110613cea57634e487b7160e01b600052603260045260246000fd5b9060005260206000200160009054906101000a90046001600160a01b03166001600160a01b0316336001600160a01b0316857f8aaa205a62511774004899f15c5181b7c5865c381dcb3320af8e91b31b6326ab86600001518760c0015160088960e0015161ffff1681548110613d7057634e487b7160e01b600052603260045260246000fd5b6000918252602090912001546001600160a01b0316613d8d611e2a565b600a54604080516001600160701b0396871681529490951660208501526001600160a01b0392909216838501526060830152608082015290519081900360a00190a4600254604051633f34d4cf60e21b8152600481018690523360248201526001600160a01b039091169063fcd3533c90604401600060405180830381600087803b158015613e1b57600080fd5b505af1158015613e2f573d6000803e3d6000fd5b50505060009485525050601160205250506040812090815560010180546001600160801b0319169055565b33613e63612ae8565b6001600160a01b031614604051806040016040528060018152602001603360f81b81525090613ea55760405162461bcd60e51b815260040161072e919061564b565b506000613eb06125cd565b90506001600160a01b03871615613f225760405163266a23b160e21b81526001600160a01b038216906399a88ec490613eef9030908b90600401615602565b600060405180830381600087803b158015613f0957600080fd5b505af1158015613f1d573d6000803e3d6000fd5b505050505b6001600160a01b03861615613f985760025460405163266a23b160e21b81526001600160a01b03838116926399a88ec492613f6592909116908a90600401615602565b600060405180830381600087803b158015613f7f57600080fd5b505af1158015613f93573d6000803e3d6000fd5b505050505b6001600160a01b0385161561400e5760015460405163266a23b160e21b81526001600160a01b03838116926399a88ec492613fdb92909116908990600401615602565b600060405180830381600087803b158015613ff557600080fd5b505af1158015614009573d6000803e3d6000fd5b505050505b6001600160a01b0384161561415f5760005b82811015611c76576013600085858481811061404c57634e487b7160e01b600052603260045260246000fd5b90506020020160208101906140619190614eb2565b6001600160a01b03168152602080820192909252604090810160002054815180830190925260018252601b60f91b928201929092529060ff166140b75760405162461bcd60e51b815260040161072e919061564b565b50816001600160a01b03166399a88ec48585848181106140e757634e487b7160e01b600052603260045260246000fd5b90506020020160208101906140fc9190614eb2565b876040518363ffffffff1660e01b815260040161411a929190615602565b600060405180830381600087803b15801561413457600080fd5b505af1158015614148573d6000803e3d6000fd5b50505050808061415790615a0b565b915050614020565b50505050505050565b6000546040805180820190915260018152601960f91b6020820152906001600160a01b0316156141ab5760405162461bcd60e51b815260040161072e919061564b565b50600080546001600160a01b038086166001600160a01b0319928316179092556001805485841690831617905560028054928416929091169190911790556141f283614679565b505050565b33614200612ae8565b6001600160a01b031614604051806040016040528060018152602001603360f81b815250906142425760405162461bcd60e51b815260040161072e919061564b565b50604080518082019091526002815261373360f01b60208201526001600160a01b0382166142835760405162461bcd60e51b815260040161072e919061564b565b50806001600160a01b0316614296612ae8565b6001600160a01b0316600080516020615bfb83398151915260405160405180910390a3600080516020615afb83398151915280546001600160a01b0319166001600160a01b0392909216919091179055565b6142fd6001600160a01b03851633308661447c565b6000548390839083906001600160a01b03888116911614614456576004805460405163095ea7b360e01b81526001600160a01b03808b169363095ea7b39361434a939216918b910161559c565b602060405180830381600087803b15801561436457600080fd5b505af1158015614378573d6000803e3d6000fd5b505050506040513d601f19601f8201168201806040525081019061439c919061509d565b506004805460005460405163029b465d60e01b81526001600160a01b038b811694820194909452602481018a9052908316604482015291169063029b465d90606401602060405180830381600087803b1580156143f857600080fd5b505af115801561440c573d6000803e3d6000fd5b505050506040513d601f19601f8201168201806040525081019061443091906153de565b92508561443d8487615901565b61444791906158e1565b9150614453828461598d565b90505b600654600054614473916001600160a01b039182169116846144ed565b61415f816147c4565b6040516001600160a01b03808516602483015283166044820152606481018290526144e79085906323b872dd60e01b906084015b60408051601f198184030181529190526020810180516001600160e01b03166001600160e01b031990931692909217909152614876565b50505050565b6141f28363a9059cbb60e01b84846040516024016144b092919061559c565b60008183600c5461451d9190615901565b61452791906158e1565b9392505050565b80600c6000828254614540919061598d565b9091555050600954821161455c5760098054839003905561458f565b6000614566614948565b6001600160701b03169050828160095461458091906158aa565b61458a919061598d565b600955505b600080516020615c9b8339815191526009546040516115e591815260200190565b80600c60008282546145c291906158aa565b9250508190555081600960008282546145db91906158aa565b9091555050600954604051908152600080516020615c9b833981519152906020016115e5565b600b5460009061464c9063ffffffff600160e01b82041690614636906001600160701b0380821691600160701b900416615965565b600354600160a01b900463ffffffff1642614a06565b600b54611e4a9190600160701b90046001600160701b0316615965565b600c5460009061451d8484615901565b6001600160a01b038116600090815260076020526040902054600190810b900b61472f5760088054600181810183557ff3f7a9fe364faab93b216da50a3214154f22a0a2b415b23a84c8169e8b636ee390910180546001600160a01b0385166001600160a01b03199091168117909155915460009283526007602052604092839020805491830b61ffff1661ffff199092169190911790559051600080516020615c5b833981519152916114b69184919061552f565b6001600160a01b038116600090815260076020526040812054600190810b900b121561323e576001600160a01b03811660009081526007602052604090205461477a9060010b615a26565b6001600160a01b03821660009081526007602052604090819020805461ffff191661ffff600194850b1617905551600080516020615c5b833981519152916114b69184919061552f565b6147cc614601565b600b80546001600160701b0319166001600160701b03928316178082558392600e91614801918591600160701b90041661587f565b82546001600160701b039182166101009390930a928302928202191691909117909155600b805463ffffffff4216600160e01b026001600160e01b038216811792839055604051600080516020615bdb83398151915295506114b6949182169282169290921792600160701b900416906157cd565b60006148cb826040518060400160405280602081526020017f5361666545524332303a206c6f772d6c6576656c2063616c6c206661696c6564815250856001600160a01b0316614ba79092919063ffffffff16565b8051909150156141f257808060200190518101906148e9919061509d565b6141f25760405162461bcd60e51b815260206004820152602a60248201527f5361666545524332303a204552433230206f7065726174696f6e20646964206e6044820152691bdd081cdd58d8d9595960b21b606482015260840161072e565b6000614952614601565b600b80546001600160701b0319168082559192508291600e90614986908490600160701b90046001600160701b0316615965565b82546001600160701b039182166101009390930a928302928202191691909117909155600b805463ffffffff4216600160e01b026001600160e01b038216811792839055604051600080516020615bdb83398151915295506149fb949182169282169290921792600160701b900416906157cd565b60405180910390a190565b60008463ffffffff168263ffffffff161015604051806040016040528060018152602001600760fb1b81525090614a505760405162461bcd60e51b815260040161072e919061564b565b5084820391508263ffffffff168263ffffffff1681614a7f57634e487b7160e01b600052601260045260246000fd5b0463ffffffff16846001600160701b0316901c93508263ffffffff168263ffffffff1681614abd57634e487b7160e01b600052601260045260246000fd5b06915063ffffffff82161580614ada57506001600160701b038416155b15614ae65750826113d7565b60006001600160701b0385168163ffffffff86811690861671b17217f7d1cf79abc9e3b39803f2f6af40f30281614b2d57634e487b7160e01b600052601260045260246000fd5b049050600160901b5b8215614b9a57928201928082840281614b5f57634e487b7160e01b600052601260045260246000fd5b0493849003939250600160901b018082840281614b8c57634e487b7160e01b600052601260045260246000fd5b049250600160901b01614b36565b5091979650505050505050565b60606113d7848460008585843b614c005760405162461bcd60e51b815260206004820152601d60248201527f416464726573733a2063616c6c20746f206e6f6e2d636f6e7472616374000000604482015260640161072e565b600080866001600160a01b03168587604051614c1c91906154c3565b60006040518083038185875af1925050503d8060008114614c59576040519150601f19603f3d011682016040523d82523d6000602084013e614c5e565b606091505b5091509150614c6e828286614c79565b979650505050505050565b60608315614c88575081614527565b825115614c985782518084602001fd5b8160405162461bcd60e51b815260040161072e919061564b565b828054614cbe906159d0565b90600052602060002090601f016020900481019282614ce05760008555614d26565b82601f10614cf957805160ff1916838001178555614d26565b82800160010185558215614d26579182015b82811115614d26578251825591602001919060010190614d0b565b50614d32929150614daa565b5090565b828054614d42906159d0565b90600052602060002090601f016020900481019282614d645760008555614d26565b82601f10614d7d5782800160ff19823516178555614d26565b82800160010185558215614d26579182015b82811115614d26578235825591602001919060010190614d8f565b5b80821115614d325760008155600101614dab565b8035614dca81615a72565b919050565b8035614dca81615a87565b60008083601f840112614deb578182fd5b5081356001600160401b03811115614e01578182fd5b602083019150836020828501011115614e1957600080fd5b9250929050565b600082601f830112614e30578081fd5b8135614e43614e3e82615858565b615828565b818152846020838601011115614e57578283fd5b816020850160208301379081016020019190915292915050565b8035614dca81615a95565b8035614dca81615aaa565b803563ffffffff81168114614dca57600080fd5b80356001600160601b0381168114614dca57600080fd5b600060208284031215614ec3578081fd5b813561452781615a72565b600060208284031215614edf578081fd5b815161452781615a72565b60008060008060008060a08789031215614f02578182fd5b8635614f0d81615a72565b95506020870135614f1d81615a72565b94506040870135614f2d81615a72565b93506060870135614f3d81615a72565b925060808701356001600160401b0380821115614f58578384fd5b818901915089601f830112614f6b578384fd5b813581811115614f79578485fd5b8a60208260051b8501011115614f8d578485fd5b6020830194508093505050509295509295509295565b60008060008060808587031215614fb8578384fd5b8435614fc381615a72565b93506020850135614fd381615a72565b92506040850135614fe381615a95565b9150614ff160608601614e87565b905092959194509250565b600080600080600060a08688031215615013578283fd5b853561501e81615a72565b9450602086013561502e81615a72565b9350604086013561503e81615a95565b925061504c60608701614e87565b949793965091946080013592915050565b600080600060608486031215615071578081fd5b833561507c81615a72565b9250602084013561508c81615a72565b929592945050506040919091013590565b6000602082840312156150ae578081fd5b815161452781615a87565b6000806000606084860312156150cd578081fd5b83356150d881615a72565b925060208401356150e881615a72565b915060408401356150f881615a72565b809150509250925092565b60008060208385031215615115578182fd5b82356001600160401b0381111561512a578283fd5b61513685828601614dda565b90969095509350505050565b600060208284031215615153578081fd5b81516001600160401b03811115615168578182fd5b8201601f81018413615178578182fd5b8051615186614e3e82615858565b81815285602083850101111561519a578384fd5b6151ab8260208301602086016159a4565b95945050505050565b600080600080600080600060c0888a0312156151ce578485fd5b87356001600160401b03808211156151e4578687fd5b6151f08b838c01614e20565b985060208a0135915080821115615205578687fd5b506152128a828b01614dda565b909750955050604088013561522681615aaa565b9350606088013561523681615a72565b9250608088013561524681615a72565b915060a088013561525681615a72565b8091505092959891949750929550565b6000806000806000806000806000806101408b8d031215615285578384fd5b8a356001600160401b038082111561529b578586fd5b6152a78e838f01614e20565b9b5060208d01359150808211156152bc578586fd5b506152c98d828e01614e20565b9950506152d860408c01614e87565b97506152e660608c01614e71565b96506152f460808c01614dbf565b955061530260a08c01614e7c565b945061531060c08c01614e87565b935061531e60e08c01614e87565b925061532d6101008c01614e9b565b915061533c6101208c01614dcf565b90509295989b9194979a5092959850565b600080600060608486031215615361578081fd5b835161536c81615a95565b602085015190935061537d81615a95565b60408501519092506150f881615a95565b60006020828403121561539f578081fd5b813561452781615aaa565b6000602082840312156153bb578081fd5b815161452781615aaa565b6000602082840312156153d7578081fd5b5035919050565b6000602082840312156153ef578081fd5b5051919050565b6000806000806080858703121561540b578182fd5b84359350602085013561541d81615a72565b925061542b60408601614e87565b9396929550929360600135925050565b6000806040838503121561544d578182fd5b50508035926020909101359150565b60006020828403121561546d578081fd5b61452782614e87565b600060208284031215615487578081fd5b815160ff81168114614527578182fd5b600081518084526154af8160208601602086016159a4565b601f01601f19169290920160200192915050565b600082516154d58184602087016159a4565b9190910192915050565b600083516154f18184602088016159a4565b600160fd1b908301908152835161550f8160018401602088016159a4565b01600101949350505050565b6001600160a01b0391909116815260200190565b6001600160a01b039290921682521515602082015260400190565b6001600160a01b039290921682526001600160701b0316602082015260400190565b6001600160a01b039390931683526001600160701b0391909116602083015263ffffffff16604082015260600190565b6001600160a01b03929092168252602082015260400190565b6020808252825182820181905260009190848201906040850190845b818110156155f65783516001600160a01b0316835292840192918401916001016155d1565b50909695505050505050565b6001600160a01b0392831681529116602082015260400190565b60208152816020820152818360408301376000818301604090810191909152601f909201601f19160101919050565b6020815260006145276020830184615497565b6101808152600061567361018083018f615497565b8281036020840152615685818f615497565b604084018e905263ffffffff8d811660608601528c811660808601528b1660a085015261ffff8a1660c085015260e0840189905261010084018890526001600160701b03878116610120860152861661014085015291506156e39050565b63ffffffff83166101608301529d9c50505050505050505050505050565b6060815260006157146060830186615497565b82810360208401526157268186615497565b91505060ff83166040830152949350505050565b81516001600160701b0316815260208083015161ffff169082015260408083015163ffffffff9081169183019190915260608084015182169083015260808084015182169083015260a080840151918216908301526101008201905060c08301516157b060c08401826001600160701b03169052565b5060e08301516157c660e084018261ffff169052565b5092915050565b6001600160701b0392831681529116602082015260400190565b968752602087019590955260408601939093526060850191909152608084015260a083015260c082015260e00190565b63ffffffff91909116815260200190565b604051601f8201601f191681016001600160401b038111828210171561585057615850615a5c565b604052919050565b60006001600160401b0382111561587157615871615a5c565b50601f01601f191660200190565b60006001600160701b038281168482168083038211156158a1576158a1615a46565b01949350505050565b600082198211156158bd576158bd615a46565b500190565b600063ffffffff8083168185168083038211156158a1576158a1615a46565b6000826158fc57634e487b7160e01b81526012600452602481fd5b500490565b600081600019048311821515161561591b5761591b615a46565b500290565b60008160010b8360010b82811281617fff190183128115161561594557615945615a46565b81617fff01831381161561595b5761595b615a46565b5090039392505050565b60006001600160701b038381169083168181101561598557615985615a46565b039392505050565b60008282101561599f5761599f615a46565b500390565b60005b838110156159bf5781810151838201526020016159a7565b838111156144e75750506000910152565b600181811c908216806159e457607f821691505b60208210811415615a0557634e487b7160e01b600052602260045260246000fd5b50919050565b6000600019821415615a1f57615a1f615a46565b5060010190565b60008160010b617fff19811415615a3f57615a3f615a46565b9003919050565b634e487b7160e01b600052601160045260246000fd5b634e487b7160e01b600052604160045260246000fd5b6001600160a01b038116811461323e57600080fd5b801515811461323e57600080fd5b6001600160701b038116811461323e57600080fd5b61ffff8116811461323e57600080fdfe87cdeaffd8e70903d6ce7cc983fac3b09ca79e83818124c98e47a1d70f8027d613aeb96d2f11201f58501dadee52a96c6fdf73d417d6342835278982f6463b074f471908b72bb76dae5bd24599026e7bf3ddb256497722888ffa422f83729ede7c5a703a1928f0d18042c0454d90ddfe036b518c756a39cd82aca939b71d801b926b69b9f7735227079a308fce165b111b96e2983e70a86a381ee047675ff39fd1248cccb5fef9131c731321e43e9a924840ffee7dc68c7d1d3e5cb7dedcae0327894f6b9c469a3eddbe98dd0df54563b6437b20982876e0c2cd60c211a156460dc14fdd751203f0c4dac8cc93c303e991c5f8e60af35674d5c82061929762ddbefcd50991bb64333037879282220d78a901bb4809351643f56628af8a4656dfc8dfab451067f726e1077626e126c7f77149630cc1b0056cf60307a289a118298be0079c531659141344cd1fd0a4f28419497f9722a3daafe3b4186f6b6457e07aa9698a01d2094fb8a580e2c72a6fc3f3bfecfd4cbdc457461118c59a6fefe4f6ae16e9e9771497fc501d1caac6168e19c36e4639d7273813e3b57066035f2a92a4dc1fa715a8cafb0cdc060f729eb1dfdddcbc9effbdc8d822cdf5ebcf4907971f32e7fcf39ef3d42dd88b6e08b31dd4bd8f53e7299c95b669c82e23807e2fa70de76be90dc9c5d9243b0bc73c3d963ba703a0a396f29134bf5b4e6197c180a26469706673582212203763137f205f2d97e8bcfc0b2454b09ffee8193533bad547aeaf130959b47b2d64736f6c63430008040033",
  "linkReferences": {},
  "deployedLinkReferences": {}
}