{
  "_format": "hh-sol-artifact-1",
  "contractName": "Enterprise",
  "sourceName": "contracts/Enterprise.sol",
  "abi": [
    {
      "anonymous": false,
      "inputs": [
        {
          "indexed": true,
          "internalType": "address",
          "name": "powerToken",
          "type": "address"
        },
        {
          "indexed": false,
          "internalType": "uint256",
          "name": "tokenId",
          "type": "uint256"
        },
        {
          "indexed": false,
          "internalType": "uint32",
          "name": "from",
          "type": "uint32"
        },
        {
          "indexed": false,
          "internalType": "uint32",
          "name": "to",
          "type": "uint32"
        }
      ],
      "name": "Borrowed",
      "type": "event"
    },
    {
      "anonymous": false,
      "inputs": [
        {
          "indexed": true,
          "internalType": "address",
          "name": "previousOwner",
          "type": "address"
        },
        {
          "indexed": true,
          "internalType": "address",
          "name": "newOwner",
          "type": "address"
        }
      ],
      "name": "OwnershipTransferred",
      "type": "event"
    },
    {
      "anonymous": false,
      "inputs": [
        {
          "indexed": true,
          "internalType": "address",
          "name": "powerToken",
          "type": "address"
        },
        {
          "indexed": false,
          "internalType": "uint32",
          "name": "halfLife",
          "type": "uint32"
        },
        {
          "indexed": false,
          "internalType": "uint112",
          "name": "factor",
          "type": "uint112"
        }
      ],
      "name": "ServiceRegistered",
      "type": "event"
    },
    {
      "inputs": [
        {
          "internalType": "uint256",
          "name": "liquidityAmount",
          "type": "uint256"
        }
      ],
      "name": "addLiquidity",
      "outputs": [],
      "stateMutability": "nonpayable",
      "type": "function"
    },
    {
      "inputs": [
        {
          "internalType": "contract IPowerToken",
          "name": "powerToken",
          "type": "address"
        }
      ],
      "name": "allowPerpetualPowerTokenForever",
      "outputs": [],
      "stateMutability": "nonpayable",
      "type": "function"
    },
    {
      "inputs": [
        {
          "internalType": "contract IPowerToken",
          "name": "powerToken",
          "type": "address"
        },
        {
          "internalType": "contract IERC20",
          "name": "paymentToken",
          "type": "address"
        },
        {
          "internalType": "uint112",
          "name": "amount",
          "type": "uint112"
        },
        {
          "internalType": "uint256",
          "name": "maximumPayment",
          "type": "uint256"
        },
        {
          "internalType": "uint32",
          "name": "duration",
          "type": "uint32"
        }
      ],
      "name": "borrow",
      "outputs": [],
      "stateMutability": "nonpayable",
      "type": "function"
    },
    {
      "inputs": [
        {
          "internalType": "address",
          "name": "token",
          "type": "address"
        }
      ],
      "name": "disablePaymentToken",
      "outputs": [],
      "stateMutability": "nonpayable",
      "type": "function"
    },
    {
      "inputs": [
        {
          "internalType": "address",
          "name": "token",
          "type": "address"
        }
      ],
      "name": "enablePaymentToken",
      "outputs": [],
      "stateMutability": "nonpayable",
      "type": "function"
    },
    {
      "inputs": [
        {
          "internalType": "contract IPowerToken",
          "name": "powerToken",
          "type": "address"
        },
        {
          "internalType": "contract IERC20",
          "name": "paymentToken",
          "type": "address"
        },
        {
          "internalType": "uint112",
          "name": "amount",
          "type": "uint112"
        },
        {
          "internalType": "uint32",
          "name": "duration",
          "type": "uint32"
        }
      ],
      "name": "estimateLoan",
      "outputs": [
        {
          "internalType": "uint256",
          "name": "",
          "type": "uint256"
        }
      ],
      "stateMutability": "view",
      "type": "function"
    },
    {
      "inputs": [],
      "name": "getAvailableReserve",
      "outputs": [
        {
          "internalType": "uint256",
          "name": "",
          "type": "uint256"
        }
      ],
      "stateMutability": "view",
      "type": "function"
    },
    {
      "inputs": [],
      "name": "getBaseUri",
      "outputs": [
        {
          "internalType": "string",
          "name": "",
          "type": "string"
        }
      ],
      "stateMutability": "view",
      "type": "function"
    },
    {
      "inputs": [],
      "name": "getBorrowToken",
      "outputs": [
        {
          "internalType": "contract IBorrowToken",
          "name": "",
          "type": "address"
        }
      ],
      "stateMutability": "view",
      "type": "function"
    },
    {
      "inputs": [],
      "name": "getBorrowerLoanReturnGracePeriod",
      "outputs": [
        {
          "internalType": "uint32",
          "name": "",
          "type": "uint32"
        }
      ],
      "stateMutability": "view",
      "type": "function"
    },
    {
      "inputs": [],
      "name": "getConverter",
      "outputs": [
        {
          "internalType": "contract IConverter",
          "name": "",
          "type": "address"
        }
      ],
      "stateMutability": "view",
      "type": "function"
    },
    {
      "inputs": [],
      "name": "getEnterpriseCollector",
      "outputs": [
        {
          "internalType": "address",
          "name": "",
          "type": "address"
        }
      ],
      "stateMutability": "view",
      "type": "function"
    },
    {
      "inputs": [],
      "name": "getEnterpriseLoanCollectGracePeriod",
      "outputs": [
        {
          "internalType": "uint32",
          "name": "",
          "type": "uint32"
        }
      ],
      "stateMutability": "view",
      "type": "function"
    },
    {
      "inputs": [],
      "name": "getEnterpriseVault",
      "outputs": [
        {
          "internalType": "address",
          "name": "",
          "type": "address"
        }
      ],
      "stateMutability": "view",
      "type": "function"
    },
    {
      "inputs": [],
      "name": "getEstimator",
      "outputs": [
        {
          "internalType": "contract IEstimator",
          "name": "",
          "type": "address"
        }
      ],
      "stateMutability": "view",
      "type": "function"
    },
    {
      "inputs": [],
      "name": "getGCFeePercent",
      "outputs": [
        {
          "internalType": "uint16",
          "name": "",
          "type": "uint16"
        }
      ],
      "stateMutability": "view",
      "type": "function"
    },
    {
      "inputs": [],
      "name": "getInfo",
      "outputs": [
        {
          "internalType": "string",
          "name": "name",
          "type": "string"
        },
        {
          "internalType": "string",
          "name": "baseUri",
          "type": "string"
        },
        {
          "internalType": "uint256",
          "name": "totalShares",
          "type": "uint256"
        },
        {
          "internalType": "uint32",
          "name": "interestHalfLife",
          "type": "uint32"
        },
        {
          "internalType": "uint32",
          "name": "borrowerLoanReturnGracePeriod",
          "type": "uint32"
        },
        {
          "internalType": "uint32",
          "name": "enterpriseLoanCollectGracePeriod",
          "type": "uint32"
        },
        {
          "internalType": "uint16",
          "name": "gcFeePercent",
          "type": "uint16"
        },
        {
          "internalType": "uint256",
          "name": "fixedReserve",
          "type": "uint256"
        },
        {
          "internalType": "uint256",
          "name": "usedReserve",
          "type": "uint256"
        },
        {
          "internalType": "uint112",
          "name": "streamingReserve",
          "type": "uint112"
        },
        {
          "internalType": "uint112",
          "name": "streamingReserveTarget",
          "type": "uint112"
        },
        {
          "internalType": "uint32",
          "name": "streamingReserveUpdated",
          "type": "uint32"
        }
      ],
      "stateMutability": "view",
      "type": "function"
    },
    {
      "inputs": [],
      "name": "getInterestHalfLife",
      "outputs": [
        {
          "internalType": "uint32",
          "name": "",
          "type": "uint32"
        }
      ],
      "stateMutability": "view",
      "type": "function"
    },
    {
      "inputs": [],
      "name": "getInterestToken",
      "outputs": [
        {
          "internalType": "contract IInterestToken",
          "name": "",
          "type": "address"
        }
      ],
      "stateMutability": "view",
      "type": "function"
    },
    {
      "inputs": [
        {
          "internalType": "uint256",
          "name": "tokenId",
          "type": "uint256"
        }
      ],
      "name": "getLiquidityInfo",
      "outputs": [
        {
          "components": [
            {
              "internalType": "uint256",
              "name": "amount",
              "type": "uint256"
            },
            {
              "internalType": "uint256",
              "name": "shares",
              "type": "uint256"
            },
            {
              "internalType": "uint256",
              "name": "block",
              "type": "uint256"
            }
          ],
          "internalType": "struct EnterpriseStorage.LiquidityInfo",
          "name": "",
          "type": "tuple"
        }
      ],
      "stateMutability": "view",
      "type": "function"
    },
    {
      "inputs": [],
      "name": "getLiquidityToken",
      "outputs": [
        {
          "internalType": "contract IERC20Metadata",
          "name": "",
          "type": "address"
        }
      ],
      "stateMutability": "view",
      "type": "function"
    },
    {
      "inputs": [
        {
          "internalType": "uint256",
          "name": "tokenId",
          "type": "uint256"
        }
      ],
      "name": "getLoanInfo",
      "outputs": [
        {
          "components": [
            {
              "internalType": "uint112",
              "name": "amount",
              "type": "uint112"
            },
            {
              "internalType": "uint16",
              "name": "powerTokenIndex",
              "type": "uint16"
            },
            {
              "internalType": "uint32",
              "name": "borrowingTime",
              "type": "uint32"
            },
            {
              "internalType": "uint32",
              "name": "maturityTime",
              "type": "uint32"
            },
            {
              "internalType": "uint32",
              "name": "borrowerReturnGraceTime",
              "type": "uint32"
            },
            {
              "internalType": "uint32",
              "name": "enterpriseCollectGraceTime",
              "type": "uint32"
            },
            {
              "internalType": "uint112",
              "name": "gcFee",
              "type": "uint112"
            },
            {
              "internalType": "uint16",
              "name": "gcFeeTokenIndex",
              "type": "uint16"
            }
          ],
          "internalType": "struct EnterpriseStorage.LoanInfo",
          "name": "",
          "type": "tuple"
        }
      ],
      "stateMutability": "view",
      "type": "function"
    },
    {
      "inputs": [
        {
          "internalType": "uint256",
          "name": "tokenId",
          "type": "uint256"
        }
      ],
      "name": "getOwedInterest",
      "outputs": [
        {
          "internalType": "uint256",
          "name": "",
          "type": "uint256"
        }
      ],
      "stateMutability": "view",
      "type": "function"
    },
    {
      "inputs": [
        {
          "internalType": "uint256",
          "name": "index",
          "type": "uint256"
        }
      ],
      "name": "getPowerToken",
      "outputs": [
        {
          "internalType": "contract IPowerToken",
          "name": "",
          "type": "address"
        }
      ],
      "stateMutability": "view",
      "type": "function"
    },
    {
      "inputs": [
        {
          "internalType": "contract IPowerToken",
          "name": "powerToken",
          "type": "address"
        }
      ],
      "name": "getPowerTokenIndex",
      "outputs": [
        {
          "internalType": "uint16",
          "name": "",
          "type": "uint16"
        }
      ],
      "stateMutability": "view",
      "type": "function"
    },
    {
      "inputs": [],
      "name": "getPowerTokens",
      "outputs": [
        {
          "internalType": "contract IPowerToken[]",
          "name": "",
          "type": "address[]"
        }
      ],
      "stateMutability": "view",
      "type": "function"
    },
    {
      "inputs": [],
      "name": "getProxyAdmin",
      "outputs": [
        {
          "internalType": "contract ProxyAdmin",
          "name": "",
          "type": "address"
        }
      ],
      "stateMutability": "view",
      "type": "function"
    },
    {
      "inputs": [],
      "name": "getReserve",
      "outputs": [
        {
          "internalType": "uint256",
          "name": "",
          "type": "uint256"
        }
      ],
      "stateMutability": "view",
      "type": "function"
    },
    {
      "inputs": [
        {
          "internalType": "contract IPowerToken",
          "name": "powerToken",
          "type": "address"
        }
      ],
      "name": "getService",
      "outputs": [
        {
          "internalType": "string",
          "name": "name",
          "type": "string"
        },
        {
          "internalType": "string",
          "name": "symbol",
          "type": "string"
        },
        {
          "components": [
            {
              "internalType": "uint112",
              "name": "baseRate",
              "type": "uint112"
            },
            {
              "internalType": "uint96",
              "name": "minGCFee",
              "type": "uint96"
            },
            {
              "internalType": "uint32",
              "name": "halfLife",
              "type": "uint32"
            },
            {
              "internalType": "uint16",
              "name": "index",
              "type": "uint16"
            },
            {
              "internalType": "contract IERC20Metadata",
              "name": "baseToken",
              "type": "address"
            },
            {
              "internalType": "uint32",
              "name": "minLoanDuration",
              "type": "uint32"
            },
            {
              "internalType": "uint32",
              "name": "maxLoanDuration",
              "type": "uint32"
            },
            {
              "internalType": "uint16",
              "name": "serviceFeePercent",
              "type": "uint16"
            },
            {
              "internalType": "bool",
              "name": "allowsPerpetual",
              "type": "bool"
            }
          ],
          "internalType": "struct EnterpriseStorage.ServiceConfig",
          "name": "config",
          "type": "tuple"
        }
      ],
      "stateMutability": "view",
      "type": "function"
    },
    {
      "inputs": [
        {
          "internalType": "contract IPowerToken",
          "name": "powerToken",
          "type": "address"
        }
      ],
      "name": "getServiceBaseRate",
      "outputs": [
        {
          "internalType": "uint112",
          "name": "",
          "type": "uint112"
        }
      ],
      "stateMutability": "view",
      "type": "function"
    },
    {
      "inputs": [
        {
          "internalType": "contract IPowerToken",
          "name": "powerToken",
          "type": "address"
        }
      ],
      "name": "getServiceBaseToken",
      "outputs": [
        {
          "internalType": "contract IERC20Metadata",
          "name": "",
          "type": "address"
        }
      ],
      "stateMutability": "view",
      "type": "function"
    },
    {
      "inputs": [
        {
          "internalType": "contract IPowerToken",
          "name": "powerToken",
          "type": "address"
        }
      ],
      "name": "getServiceFeePercent",
      "outputs": [
        {
          "internalType": "uint112",
          "name": "",
          "type": "uint112"
        }
      ],
      "stateMutability": "view",
      "type": "function"
    },
    {
      "inputs": [
        {
          "internalType": "contract IPowerToken",
          "name": "powerToken",
          "type": "address"
        }
      ],
      "name": "getServiceHalfLife",
      "outputs": [
        {
          "internalType": "uint32",
          "name": "",
          "type": "uint32"
        }
      ],
      "stateMutability": "view",
      "type": "function"
    },
    {
      "inputs": [
        {
          "internalType": "contract IPowerToken",
          "name": "powerToken",
          "type": "address"
        }
      ],
      "name": "getServiceMaxLoanDuration",
      "outputs": [
        {
          "internalType": "uint32",
          "name": "",
          "type": "uint32"
        }
      ],
      "stateMutability": "view",
      "type": "function"
    },
    {
      "inputs": [
        {
          "internalType": "contract IPowerToken",
          "name": "powerToken",
          "type": "address"
        }
      ],
      "name": "getServiceMinGCFee",
      "outputs": [
        {
          "internalType": "uint112",
          "name": "",
          "type": "uint112"
        }
      ],
      "stateMutability": "view",
      "type": "function"
    },
    {
      "inputs": [
        {
          "internalType": "contract IPowerToken",
          "name": "powerToken",
          "type": "address"
        }
      ],
      "name": "getServiceMinLoanDuration",
      "outputs": [
        {
          "internalType": "uint32",
          "name": "",
          "type": "uint32"
        }
      ],
      "stateMutability": "view",
      "type": "function"
    },
    {
      "inputs": [],
      "name": "getServices",
      "outputs": [
        {
          "internalType": "address[]",
          "name": "addresses",
          "type": "address[]"
        },
        {
          "internalType": "string[]",
          "name": "names",
          "type": "string[]"
        },
        {
          "internalType": "string[]",
          "name": "symbols",
          "type": "string[]"
        },
        {
          "components": [
            {
              "internalType": "uint112",
              "name": "baseRate",
              "type": "uint112"
            },
            {
              "internalType": "uint96",
              "name": "minGCFee",
              "type": "uint96"
            },
            {
              "internalType": "uint32",
              "name": "halfLife",
              "type": "uint32"
            },
            {
              "internalType": "uint16",
              "name": "index",
              "type": "uint16"
            },
            {
              "internalType": "contract IERC20Metadata",
              "name": "baseToken",
              "type": "address"
            },
            {
              "internalType": "uint32",
              "name": "minLoanDuration",
              "type": "uint32"
            },
            {
              "internalType": "uint32",
              "name": "maxLoanDuration",
              "type": "uint32"
            },
            {
              "internalType": "uint16",
              "name": "serviceFeePercent",
              "type": "uint16"
            },
            {
              "internalType": "bool",
              "name": "allowsPerpetual",
              "type": "bool"
            }
          ],
          "internalType": "struct EnterpriseStorage.ServiceConfig[]",
          "name": "configs",
          "type": "tuple[]"
        }
      ],
      "stateMutability": "view",
      "type": "function"
    },
    {
      "inputs": [],
      "name": "getUsedReserve",
      "outputs": [
        {
          "internalType": "uint256",
          "name": "",
          "type": "uint256"
        }
      ],
      "stateMutability": "view",
      "type": "function"
    },
    {
      "inputs": [
        {
          "internalType": "address",
          "name": "initialOwner",
          "type": "address"
        }
      ],
      "name": "initialize",
      "outputs": [],
      "stateMutability": "nonpayable",
      "type": "function"
    },
    {
      "inputs": [
        {
          "internalType": "string",
          "name": "enterpriseName",
          "type": "string"
        },
        {
          "internalType": "string",
          "name": "baseUri",
          "type": "string"
        },
        {
          "internalType": "contract IEstimator",
          "name": "estimator",
          "type": "address"
        },
        {
          "internalType": "contract IConverter",
          "name": "converter",
          "type": "address"
        },
        {
          "internalType": "contract ProxyAdmin",
          "name": "proxyAdmin",
          "type": "address"
        },
        {
          "internalType": "address",
          "name": "owner",
          "type": "address"
        }
      ],
      "name": "initialize",
      "outputs": [],
      "stateMutability": "nonpayable",
      "type": "function"
    },
    {
      "inputs": [
        {
          "internalType": "contract IERC20Metadata",
          "name": "liquidityToken",
          "type": "address"
        },
        {
          "internalType": "contract IInterestToken",
          "name": "interestToken",
          "type": "address"
        },
        {
          "internalType": "contract IBorrowToken",
          "name": "borrowToken",
          "type": "address"
        }
      ],
      "name": "initializeTokens",
      "outputs": [],
      "stateMutability": "nonpayable",
      "type": "function"
    },
    {
      "inputs": [
        {
          "internalType": "contract IPowerToken",
          "name": "powerToken",
          "type": "address"
        }
      ],
      "name": "isRegisteredPowerToken",
      "outputs": [
        {
          "internalType": "bool",
          "name": "",
          "type": "bool"
        }
      ],
      "stateMutability": "view",
      "type": "function"
    },
    {
      "inputs": [
        {
          "internalType": "contract IPowerToken",
          "name": "powerToken",
          "type": "address"
        },
        {
          "internalType": "uint32",
          "name": "duration",
          "type": "uint32"
        }
      ],
      "name": "isServiceAllowedLoanDuration",
      "outputs": [
        {
          "internalType": "bool",
          "name": "",
          "type": "bool"
        }
      ],
      "stateMutability": "view",
      "type": "function"
    },
    {
      "inputs": [
        {
          "internalType": "contract IERC20",
          "name": "token",
          "type": "address"
        }
      ],
      "name": "isSupportedPaymentToken",
      "outputs": [
        {
          "internalType": "bool",
          "name": "",
          "type": "bool"
        }
      ],
      "stateMutability": "view",
      "type": "function"
    },
    {
      "inputs": [
        {
          "internalType": "address",
          "name": "from",
          "type": "address"
        },
        {
          "internalType": "address",
          "name": "to",
          "type": "address"
        },
        {
          "internalType": "uint256",
          "name": "tokenId",
          "type": "uint256"
        }
      ],
      "name": "loanTransfer",
      "outputs": [],
      "stateMutability": "nonpayable",
      "type": "function"
    },
    {
      "inputs": [],
      "name": "owner",
      "outputs": [
        {
          "internalType": "address",
          "name": "",
          "type": "address"
        }
      ],
      "stateMutability": "view",
      "type": "function"
    },
    {
      "inputs": [
        {
          "internalType": "uint256",
          "name": "index",
          "type": "uint256"
        }
      ],
      "name": "paymentToken",
      "outputs": [
        {
          "internalType": "address",
          "name": "",
          "type": "address"
        }
      ],
      "stateMutability": "view",
      "type": "function"
    },
    {
      "inputs": [
        {
          "internalType": "contract IERC20",
          "name": "token",
          "type": "address"
        }
      ],
      "name": "paymentTokenIndex",
      "outputs": [
        {
          "internalType": "int16",
          "name": "",
          "type": "int16"
        }
      ],
      "stateMutability": "view",
      "type": "function"
    },
    {
      "inputs": [
        {
          "internalType": "uint256",
          "name": "tokenId",
          "type": "uint256"
        },
        {
          "internalType": "contract IERC20",
          "name": "paymentToken",
          "type": "address"
        },
        {
          "internalType": "uint256",
          "name": "maximumPayment",
          "type": "uint256"
        },
        {
          "internalType": "uint32",
          "name": "duration",
          "type": "uint32"
        }
      ],
      "name": "reborrow",
      "outputs": [],
      "stateMutability": "nonpayable",
      "type": "function"
    },
    {
      "inputs": [
        {
          "internalType": "string",
          "name": "serviceName",
          "type": "string"
        },
        {
          "internalType": "string",
          "name": "symbol",
          "type": "string"
        },
        {
          "internalType": "uint32",
          "name": "halfLife",
          "type": "uint32"
        },
        {
          "internalType": "uint112",
          "name": "baseRate",
          "type": "uint112"
        },
        {
          "internalType": "contract IERC20Metadata",
          "name": "baseToken",
          "type": "address"
        },
        {
          "internalType": "uint16",
          "name": "serviceFeePercent",
          "type": "uint16"
        },
        {
          "internalType": "uint32",
          "name": "minLoanDuration",
          "type": "uint32"
        },
        {
          "internalType": "uint32",
          "name": "maxLoanDuration",
          "type": "uint32"
        },
        {
          "internalType": "uint96",
          "name": "minGCFee",
          "type": "uint96"
        },
        {
          "internalType": "bool",
          "name": "allowsPerpetualTokensForever",
          "type": "bool"
        }
      ],
      "name": "registerService",
      "outputs": [],
      "stateMutability": "nonpayable",
      "type": "function"
    },
    {
      "inputs": [
        {
          "internalType": "uint256",
          "name": "tokenId",
          "type": "uint256"
        }
      ],
      "name": "removeLiquidity",
      "outputs": [],
      "stateMutability": "nonpayable",
      "type": "function"
    },
    {
      "inputs": [
        {
          "internalType": "uint256",
          "name": "tokenId",
          "type": "uint256"
        }
      ],
      "name": "returnLoan",
      "outputs": [],
      "stateMutability": "nonpayable",
      "type": "function"
    },
    {
      "inputs": [
        {
          "internalType": "string",
          "name": "baseUri",
          "type": "string"
        }
      ],
      "name": "setBaseUri",
      "outputs": [],
      "stateMutability": "nonpayable",
      "type": "function"
    },
    {
      "inputs": [
        {
          "internalType": "uint32",
          "name": "newPeriod",
          "type": "uint32"
        }
      ],
      "name": "setBorrowerLoanReturnGracePeriod",
      "outputs": [],
      "stateMutability": "nonpayable",
      "type": "function"
    },
    {
      "inputs": [
        {
          "internalType": "contract IConverter",
          "name": "newConverter",
          "type": "address"
        }
      ],
      "name": "setConverter",
      "outputs": [],
      "stateMutability": "nonpayable",
      "type": "function"
    },
    {
      "inputs": [
        {
          "internalType": "address",
          "name": "newCollector",
          "type": "address"
        }
      ],
      "name": "setEnterpriseCollector",
      "outputs": [],
      "stateMutability": "nonpayable",
      "type": "function"
    },
    {
      "inputs": [
        {
          "internalType": "uint32",
          "name": "newPeriod",
          "type": "uint32"
        }
      ],
      "name": "setEnterpriseLoanCollectGracePeriod",
      "outputs": [],
      "stateMutability": "nonpayable",
      "type": "function"
    },
    {
      "inputs": [
        {
          "internalType": "address",
          "name": "newVault",
          "type": "address"
        }
      ],
      "name": "setEnterpriseVault",
      "outputs": [],
      "stateMutability": "nonpayable",
      "type": "function"
    },
    {
      "inputs": [
        {
          "internalType": "contract IEstimator",
          "name": "newEstimator",
          "type": "address"
        }
      ],
      "name": "setEstimator",
      "outputs": [],
      "stateMutability": "nonpayable",
      "type": "function"
    },
    {
      "inputs": [
        {
          "internalType": "uint16",
          "name": "newGcFeePercent",
          "type": "uint16"
        }
      ],
      "name": "setGcFeePercent",
      "outputs": [],
      "stateMutability": "nonpayable",
      "type": "function"
    },
    {
      "inputs": [
        {
          "internalType": "uint32",
          "name": "interestHalfLife",
          "type": "uint32"
        }
      ],
      "name": "setInterestHalfLife",
      "outputs": [],
      "stateMutability": "nonpayable",
      "type": "function"
    },
    {
      "inputs": [
        {
          "internalType": "contract IPowerToken",
          "name": "powerToken",
          "type": "address"
        },
        {
          "internalType": "uint112",
          "name": "baseRate",
          "type": "uint112"
        },
        {
          "internalType": "contract IERC20Metadata",
          "name": "baseToken",
          "type": "address"
        },
        {
          "internalType": "uint96",
          "name": "minGCFee",
          "type": "uint96"
        }
      ],
      "name": "setServiceBaseRate",
      "outputs": [],
      "stateMutability": "nonpayable",
      "type": "function"
    },
    {
      "inputs": [
        {
          "internalType": "contract IPowerToken",
          "name": "powerToken",
          "type": "address"
        },
        {
          "internalType": "uint16",
          "name": "newServiceFeePercent",
          "type": "uint16"
        }
      ],
      "name": "setServiceFeePercent",
      "outputs": [],
      "stateMutability": "nonpayable",
      "type": "function"
    },
    {
      "inputs": [
        {
          "internalType": "contract IPowerToken[]",
          "name": "powerToken",
          "type": "address[]"
        },
        {
          "internalType": "uint16[]",
          "name": "newServiceFeePercent",
          "type": "uint16[]"
        }
      ],
      "name": "setServiceFeePercentBatch",
      "outputs": [],
      "stateMutability": "nonpayable",
      "type": "function"
    },
    {
      "inputs": [
        {
          "internalType": "contract IPowerToken",
          "name": "powerToken",
          "type": "address"
        },
        {
          "internalType": "uint32",
          "name": "minLoanDuration",
          "type": "uint32"
        },
        {
          "internalType": "uint32",
          "name": "maxLoanDuration",
          "type": "uint32"
        }
      ],
      "name": "setServiceLoanDurationLimits",
      "outputs": [],
      "stateMutability": "nonpayable",
      "type": "function"
    },
    {
      "inputs": [
        {
          "internalType": "address",
          "name": "newOwner",
          "type": "address"
        }
      ],
      "name": "transferOwnership",
      "outputs": [],
      "stateMutability": "nonpayable",
      "type": "function"
    },
    {
      "inputs": [
        {
          "internalType": "contract IPowerToken",
          "name": "powerToken",
          "type": "address"
        },
        {
          "internalType": "uint256",
          "name": "amount",
          "type": "uint256"
        }
      ],
      "name": "unwrap",
      "outputs": [
        {
          "internalType": "bool",
          "name": "",
          "type": "bool"
        }
      ],
      "stateMutability": "nonpayable",
      "type": "function"
    },
    {
      "inputs": [
        {
          "internalType": "address",
          "name": "implementation",
          "type": "address"
        }
      ],
      "name": "upgradeBorrowToken",
      "outputs": [],
      "stateMutability": "nonpayable",
      "type": "function"
    },
    {
      "inputs": [
        {
          "internalType": "address",
          "name": "implementation",
          "type": "address"
        }
      ],
      "name": "upgradeEnterprise",
      "outputs": [],
      "stateMutability": "nonpayable",
      "type": "function"
    },
    {
      "inputs": [
        {
          "internalType": "address",
          "name": "implementation",
          "type": "address"
        }
      ],
      "name": "upgradeEstimator",
      "outputs": [],
      "stateMutability": "nonpayable",
      "type": "function"
    },
    {
      "inputs": [
        {
          "internalType": "address",
          "name": "implementation",
          "type": "address"
        }
      ],
      "name": "upgradeInterestToken",
      "outputs": [],
      "stateMutability": "nonpayable",
      "type": "function"
    },
    {
      "inputs": [
        {
          "internalType": "contract IPowerToken",
          "name": "powerToken",
          "type": "address"
        },
        {
          "internalType": "address",
          "name": "implementation",
          "type": "address"
        }
      ],
      "name": "upgradePowerToken",
      "outputs": [],
      "stateMutability": "nonpayable",
      "type": "function"
    },
    {
      "inputs": [
        {
          "internalType": "uint256",
          "name": "tokenId",
          "type": "uint256"
        }
      ],
      "name": "withdrawInterest",
      "outputs": [],
      "stateMutability": "nonpayable",
      "type": "function"
    },
    {
      "inputs": [
        {
          "internalType": "contract IPowerToken",
          "name": "powerToken",
          "type": "address"
        },
        {
          "internalType": "uint256",
          "name": "amount",
          "type": "uint256"
        }
      ],
      "name": "wrap",
      "outputs": [
        {
          "internalType": "bool",
          "name": "",
          "type": "bool"
        }
      ],
      "stateMutability": "nonpayable",
      "type": "function"
    },
    {
      "inputs": [
        {
          "internalType": "contract IPowerToken",
          "name": "powerToken",
          "type": "address"
        },
        {
          "internalType": "address",
          "name": "to",
          "type": "address"
        },
        {
          "internalType": "uint256",
          "name": "amount",
          "type": "uint256"
        }
      ],
      "name": "wrapTo",
      "outputs": [
        {
          "internalType": "bool",
          "name": "",
          "type": "bool"
        }
      ],
      "stateMutability": "nonpayable",
      "type": "function"
    }
  ],
  "bytecode": "0x608060405234801561001057600080fd5b5061605e80620000216000396000f3fe608060405234801561001057600080fd5b50600436106103595760003560e01c8063041960581461035e5780630714012c1461038757806308669aab1461047e5780630cac36b2146104935780630e101b60146104a85780630ea1dc9e146104bb57806311eec529146104cc57806315a52302146104df5780631b912384146105015780632261b07f14610514578063229304dc146105255780632457056e146105465780632b2f6095146105905780632b39a0ac146105a35780632e365ade146105da5780632fb2067f146105ed578063375921481461061057806339f4769314610636578063449497ec14610649578063512a53bc1461065c57806351c6590a1461066f57806353c091241461068257806359bf5d39146106b15780635a9b0b89146106b957806362c1f388146106d9578063644e44df146106ec57806375417851146106fd5780637791c42d146107155780637b024363146107265780637dcfeb73146107395780637eda9ff81461074c5780638188d50d1461075f57806389035b61146107745780638b3240a0146107875780638d6d50c91461078f5780638da5cb5b146107c55780638e9fcf81146107cd57806390f55edd146107e05780639ab71193146107f35780639c7aa7f8146108065780639c8f9f2314610819578063a0bcfc7f1461082c578063a0efd1181461083f578063a358426f14610854578063a554b26d14610867578063aebb504114610878578063b19337a414610880578063b406bf6d14610893578063b56de97e146108b5578063b96266fa146108c8578063bf170880146108dd578063bf376c7a146108ee578063bf3bb1a514610901578063bfd84fb414610914578063c1fc16d814610927578063c20aa9bc1461093a578063c22947841461094d578063c2fe50dd14610960578063c4d66de814610973578063c93d0b9214610986578063d1c8200714610997578063df57f2fa146109d0578063e2b17a1614610a05578063e36eca0c14610a18578063e56f2fe414610a4c578063e902868314610a5f578063e912615414610a98578063edc1a62814610aab578063ef1f9f3914610abe578063f2fde38b14610ad1578063f4e28f9a14610ae4578063f54133bb14610b1d578063faaed4ad14610b30578063fbac9a5514610b43578063fcb2884e14610b69575b600080fd5b61037161036c366004615546565b610b71565b60405161037e919061575a565b60405180910390f35b610471610395366004615546565b6040805161010081018252600080825260208201819052918101829052606081018290526080810182905260a0810182905260c0810182905260e08101919091525060009081526010602090815260409182902082516101008101845281546001600160701b038082168352600160701b80830461ffff90811696850196909652600160801b830463ffffffff90811697850197909752600160a01b830487166060850152600160c01b830487166080850152600160e01b90920490951660a083015260019092015493841660c082015292041660e082015290565b60405161037e9190615c7e565b61049161048c366004615546565b610baf565b005b61049b610c6d565b60405161037e919061590f565b6103716104b6366004615546565b610cff565b6001546001600160a01b0316610371565b6104916104da366004614fdd565b610d22565b6104f26104ed366004614f65565b610e7f565b60405161037e93929190615960565b61049161050f366004614f65565b61103a565b6005546001600160a01b0316610371565b61053861053336600461515a565b6110d2565b60405190815260200161037e565b610578610554366004614f65565b6001600160a01b03166000908152601260205260409020546001600160701b031690565b6040516001600160701b03909116815260200161037e565b61049161059e366004614f65565b611188565b6105786105b1366004614f65565b6001600160a01b0316600090815260126020526040902060010154600160e01b900461ffff1690565b6104916105e83660046155b2565b6111f2565b6106006105fb366004614f65565b61127a565b604051901515815260200161037e565b600354600160a01b900463ffffffff165b60405163ffffffff909116815260200161037e565b610600610644366004615235565b61129d565b61049161065736600461552c565b611339565b61049161066a366004614f9d565b61138a565b61049161067d366004615546565b61166b565b610371610690366004614f65565b6001600160a01b039081166000908152601260205260409020600101541690565b610538611799565b6106c16117be565b60405161037e9c9b9a99989796959493929190615998565b6104916106e7366004614f65565b611981565b6000546001600160a01b0316610371565b6107056119f8565b60405161037e94939291906157cd565b6007546001600160a01b0316610371565b610491610734366004614f65565b611ca9565b6104916107473660046151b3565b611d13565b61049161075a366004614f65565b611df6565b600754600160a01b900463ffffffff16610621565b610600610782366004614f65565b611e6d565b610371611e7e565b61062161079d366004614f65565b6001600160a01b0316600090815260126020526040902054600160d01b900463ffffffff1690565b610371611e9f565b6104916107db36600461528b565b611eb5565b6104916107ee366004614f65565b611fb5565b610491610801366004615429565b61202c565b610491610814366004614f65565b61262a565b610491610827366004615546565b612665565b61049161083a3660046152cf565b6127b4565b600754600160c01b900463ffffffff16610621565b610600610862366004615260565b6127f4565b6006546001600160a01b0316610371565b61053861284d565b61049161088e366004614f65565b612864565b600754600160e01b900461ffff165b60405161ffff909116815260200161037e565b6104916108c33660046155b2565b6128db565b6108d0612962565b60405161037e9190615885565b6004546001600160a01b0316610371565b6106006108fc366004615235565b6129c3565b61053861090f366004615546565b6129f6565b610491610922366004614f65565b612a25565b610491610935366004614f65565b612a83565b610491610948366004615201565b612ae7565b61049161095b3660046150ab565b612b46565b61049161096e366004615576565b612c07565b610491610981366004614f65565b6130c8565b6002546001600160a01b0316610371565b6106216109a5366004614f65565b6001600160a01b0316600090815260126020526040902060010154600160a01b900463ffffffff1690565b6109e36109de366004615546565b6131c4565b604080518251815260208084015190820152918101519082015260600161037e565b610491610a133660046150f7565b613221565b6108a2610a26366004614f65565b6001600160a01b0316600090815260126020526040902054600160f01b900461ffff1690565b610491610a5a366004615377565b6138e0565b610578610a6d366004614f65565b6001600160a01b0316600090815260126020526040902054600160701b90046001600160601b031690565b610491610aa6366004615546565b6139f8565b610491610ab93660046155b2565b613a02565b610491610acc366004615061565b613a7d565b610491610adf366004614f65565b613aec565b610621610af2366004614f65565b6001600160a01b0316600090815260126020526040902060010154600160c01b900463ffffffff1690565b610491610b2b366004614f65565b613be4565b610600610b3e3660046150e3565b613ce9565b610b56610b51366004614f65565b613d25565b60405160019190910b815260200161037e565b600c54610538565b600060138281548110610b9457634e487b7160e01b600052603260045260246000fd5b6000918252602090912001546001600160a01b031692915050565b60008181526011602052604081206001810154815491929091610bd183613d4c565b610bdb9190615e8b565b9050610be561284d565b811115610c0d5760405162461bcd60e51b8152600401610c0490615a69565b60405180910390fd5b600054610c24906001600160a01b03163383613d6e565b6000610c338460000154613dc4565b600185018190559050610c468184615e8b565b600e6000828254610c579190615e8b565b90915550610c66905082613ddc565b5050505050565b6060600a8054610c7c90615ece565b80601f0160208091040260200160405190810160405280929190818152602001828054610ca890615ece565b8015610cf55780601f10610cca57610100808354040283529160200191610cf5565b820191906000526020600020905b815481529060010190602001808311610cd857829003601f168201915b5050505050905090565b600060098281548110610b9457634e487b7160e01b600052603260045260246000fd5b33610d2b611e9f565b6001600160a01b031614610d515760405162461bcd60e51b8152600401610c0490615b67565b828114610d975760405162461bcd60e51b8152602060048201526014602482015273092dcecc2d8d2c840c2e4e4c2f240d8cadccee8d60631b6044820152606401610c04565b60005b83811015610c6657610ddf858583818110610dc557634e487b7160e01b600052603260045260246000fd5b9050602002016020810190610dda9190614f65565b613e26565b610dfb5760405162461bcd60e51b8152600401610c0490615b9c565b610e6d858583818110610e1e57634e487b7160e01b600052603260045260246000fd5b9050602002016020810190610e339190614f65565b848484818110610e5357634e487b7160e01b600052603260045260246000fd5b9050602002016020810190610e68919061552c565b613e50565b80610e7781615f09565b915050610d9a565b606080610e8a614cd0565b836001600160a01b03166306fdde036040518163ffffffff1660e01b815260040160006040518083038186803b158015610ec357600080fd5b505afa158015610ed7573d6000803e3d6000fd5b505050506040513d6000823e601f3d908101601f19168201604052610eff919081019061530e565b846001600160a01b03166395d89b416040518163ffffffff1660e01b815260040160006040518083038186803b158015610f3857600080fd5b505afa158015610f4c573d6000803e3d6000fd5b505050506040513d6000823e601f3d908101601f19168201604052610f74919081019061530e565b6001600160a01b0395861660009081526012602090815260409182902082516101208101845281546001600160701b0381168252600160701b81046001600160601b031693820193909352600160d01b830463ffffffff90811694820194909452600160f01b9283900461ffff9081166060830152600190920154998a166080820152600160a01b8a04841660a0820152600160c01b8a0490931660c0840152600160e01b89041660e083015290960460ff161515610100870152909590949350915050565b33611043611e9f565b6001600160a01b0316146110695760405162461bcd60e51b8152600401610c0490615b67565b611071611e7e565b6004805460405163266a23b160e21b81526001600160a01b03938416936399a88ec4936110a493909116918691016158f5565b600060405180830381600087803b1580156110be57600080fd5b505af1158015610c66573d6000803e3d6000fd5b6000846110de81613e26565b6110fa5760405162461bcd60e51b8152600401610c0490615b9c565b6111038561127a565b61111f5760405162461bcd60e51b8152600401610c0490615b14565b61112986846127f4565b6111455760405162461bcd60e51b8152600401610c0490615c4d565b600080600061115689898989613ef0565b91945092509050806111688385615d7d565b6111729190615d7d565b6001600160701b03169998505050505050505050565b33611191611e9f565b6001600160a01b0316146111b75760405162461bcd60e51b8152600401610c0490615b67565b6111bf611e7e565b60015460405163266a23b160e21b81526001600160a01b03928316926399a88ec4926110a49291169085906004016158f5565b336111fb611e9f565b6001600160a01b0316146112215760405162461bcd60e51b8152600401610c0490615b67565b60075463ffffffff600160c01b909104811690821611156112545760405162461bcd60e51b8152600401610c0490615a3b565b6007805463ffffffff909216600160a01b0263ffffffff60a01b19909216919091179055565b6001600160a01b0316600090815260086020526040812054600190810b900b1390565b6000826112a981613e26565b6112c55760405162461bcd60e51b8152600401610c0490615b9c565b600054604051638cc7104f60e01b81526001600160a01b0386811692638cc7104f926112fb92909116903390889060040161576e565b600060405180830381600087803b15801561131557600080fd5b505af1158015611329573d6000803e3d6000fd5b50505050600191505b5092915050565b33611342611e9f565b6001600160a01b0316146113685760405162461bcd60e51b8152600401610c0490615b67565b6007805461ffff909216600160e01b0261ffff60e01b19909216919091179055565b6002546001600160a01b031633146113d65760405162461bcd60e51b815260206004820152600f60248201526e2737ba102137b93937bbaa37b5b2b760891b6044820152606401610c04565b600081815260106020908152604080832081516101008101835281546001600160701b03808216835261ffff600160701b808404821697850188905263ffffffff600160801b8504811697860197909752600160a01b840487166060860152600160c01b840487166080860152600160e01b90930490951660a084015260019093015492831660c083015290910490911660e0820152601380549193929091811061149157634e487b7160e01b600052603260045260246000fd5b6000918252602090912001546001600160a01b03169050806114c55760405162461bcd60e51b8152600401610c0490615a99565b606082015163ffffffff1642116001600160a01b038681161590861615801561154d57845160405163079cc67960e41b81526001600160a01b038616916379cc679091611516918c91600401615792565b600060405180830381600087803b15801561153057600080fd5b505af1158015611544573d6000803e3d6000fd5b50505050611661565b81156115815784516040516340c10f1960e01b81526001600160a01b038616916340c10f1991611516918b91600401615792565b826116225784516040516333bebb7760e01b81526001600160a01b038a8116600483015289811660248301526001600160701b039092166044820152908516906333bebb7790606401602060405180830381600087803b1580156115e457600080fd5b505af11580156115f8573d6000803e3d6000fd5b505050506040513d601f19601f8201168201806040525081019061161c9190615045565b50611661565b60405162461bcd60e51b81526020600482015260146024820152732737ba1030b63637bbb2b2103a3930b739b332b960611b6044820152606401610c04565b5050505050505050565b600054611683906001600160a01b03163330846140aa565b6000600e54600014156116975750806116a3565b6116a082613d4c565b90505b81600b60008282546116b59190615da8565b90915550506001546040516335313c2160e11b81526000916001600160a01b031690636a627842906116eb90339060040161575a565b602060405180830381600087803b15801561170557600080fd5b505af1158015611719573d6000803e3d6000fd5b505050506040513d601f19601f8201168201806040525081019061173d919061555e565b6040805160608101825285815260208082018681524383850190815260008681526011909352938220925183555160018301559151600290910155600e8054929350849290919061178f908490615da8565b9091555050505050565b60006117a36140d1565b6001600160701b0316600b546117b99190615da8565b905090565b600e54600354600754600b54600c54600d54600f805460609788976000978897889788978897889788978897889788979496600a96939563ffffffff600160a01b94859004811696948404811695600160c01b850482169561ffff600160e01b9687900416959394936001600160701b0380841694600160701b8504909116939190910416908c9061184f90615ece565b80601f016020809104026020016040519081016040528092919081815260200182805461187b90615ece565b80156118c85780601f1061189d576101008083540402835291602001916118c8565b820191906000526020600020905b8154815290600101906020018083116118ab57829003601f168201915b50505050509b508a80546118db90615ece565b80601f016020809104026020016040519081016040528092919081815260200182805461190790615ece565b80156119545780601f1061192957610100808354040283529160200191611954565b820191906000526020600020905b81548152906001019060200180831161193757829003601f168201915b50505050509a509b509b509b509b509b509b509b509b509b509b509b509b50909192939495969798999a9b565b3361198a611e9f565b6001600160a01b0316146119b05760405162461bcd60e51b8152600401610c0490615b67565b6001600160a01b0381166119d65760405162461bcd60e51b8152600401610c0490615ac2565b600680546001600160a01b0319166001600160a01b0392909216919091179055565b601354606090819081908190806001600160401b03811115611a2a57634e487b7160e01b600052604160045260246000fd5b604051908082528060200260200182016040528015611a53578160200160208202803683370190505b509450806001600160401b03811115611a7c57634e487b7160e01b600052604160045260246000fd5b604051908082528060200260200182016040528015611aaf57816020015b6060815260200190600190039081611a9a5790505b509350806001600160401b03811115611ad857634e487b7160e01b600052604160045260246000fd5b604051908082528060200260200182016040528015611b0b57816020015b6060815260200190600190039081611af65790505b509250806001600160401b03811115611b3457634e487b7160e01b600052604160045260246000fd5b604051908082528060200260200182016040528015611b6d57816020015b611b5a614cd0565b815260200190600190039081611b525790505b50915060005b81811015611ca157600060138281548110611b9e57634e487b7160e01b600052603260045260246000fd5b60009182526020822001546001600160a01b031691508080611bbf84610e7f565b925092509250838a8681518110611be657634e487b7160e01b600052603260045260246000fd5b60200260200101906001600160a01b031690816001600160a01b03168152505082898681518110611c2757634e487b7160e01b600052603260045260246000fd5b602002602001018190525081888681518110611c5357634e487b7160e01b600052603260045260246000fd5b602002602001018190525080878681518110611c7f57634e487b7160e01b600052603260045260246000fd5b6020026020010181905250505050508080611c9990615f09565b915050611b73565b505090919293565b33611cb2611e9f565b6001600160a01b031614611cd85760405162461bcd60e51b8152600401610c0490615b67565b611ce0611e7e565b60025460405163266a23b160e21b81526001600160a01b03928316926399a88ec4926110a49291169085906004016158f5565b33611d1c611e9f565b6001600160a01b031614611d425760405162461bcd60e51b8152600401610c0490615b67565b83611d4c81613e26565b611d685760405162461bcd60e51b8152600401610c0490615b9c565b6001600160a01b038316611d8e5760405162461bcd60e51b8152600401610c0490615ae8565b506001600160a01b0393841660009081526012602052604090208054600182018054949096166001600160a01b0319909416939093179094556001600160601b0316600160701b026001600160d01b03199091166001600160701b0390921691909117179055565b33611dff611e9f565b6001600160a01b031614611e255760405162461bcd60e51b8152600401610c0490615b67565b6001600160a01b038116611e4b5760405162461bcd60e51b8152600401610c0490615ac2565b600480546001600160a01b0319166001600160a01b0392909216919091179055565b6000611e7882613e26565b92915050565b6000600080516020615fc98339815191525b546001600160a01b0316919050565b6000600080516020615fa9833981519152611e90565b33611ebe611e9f565b6001600160a01b031614611ee45760405162461bcd60e51b8152600401610c0490615b67565b82611eee81613e26565b611f0a5760405162461bcd60e51b8152600401610c0490615b9c565b8163ffffffff168363ffffffff161115611f5a5760405162461bcd60e51b8152602060048201526011602482015270496e76616c6964206475726174696f6e7360781b6044820152606401610c04565b506001600160a01b039290921660009081526012602052604090206001018054600160a01b600160e01b031916600160a01b63ffffffff9384160263ffffffff60c01b191617600160c01b9290931691909102919091179055565b33611fbe611e9f565b6001600160a01b031614611fe45760405162461bcd60e51b8152600401610c0490615b67565b6001600160a01b03811661200a5760405162461bcd60e51b8152600401610c0490615ac2565b600780546001600160a01b0319166001600160a01b0392909216919091179055565b33612035611e9f565b6001600160a01b03161461205b5760405162461bcd60e51b8152600401610c0490615b67565b6001600160a01b0386166120815760405162461bcd60e51b8152600401610c0490615ae8565b60135461ffff116120d45760405162461bcd60e51b815260206004820152601d60248201527f43616e6e6f74207265676973746572206d6f72652073657276696365730000006044820152606401610c04565b8263ffffffff168463ffffffff16111561212e5760405162461bcd60e51b815260206004820152601b60248201527a496e76616c6964206d696e20616e64206d617820706572696f647360281b6044820152606401610c04565b60008863ffffffff16116121545760405162461bcd60e51b8152600401610c0490615c22565b6003546000906001600160a01b031663c31011cc612170611e7e565b6040518263ffffffff1660e01b815260040161218c919061575a565b602060405180830381600087803b1580156121a657600080fd5b505af11580156121ba573d6000803e3d6000fd5b505050506040513d601f19601f820116820180604052508101906121de9190614f81565b905060008060009054906101000a90046001600160a01b03166001600160a01b03166395d89b416040518163ffffffff1660e01b815260040160006040518083038186803b15801561222f57600080fd5b505afa158015612243573d6000803e3d6000fd5b505050506040513d6000823e601f3d908101601f1916820160405261226b919081019061530e565b90506000818c60405160200161228292919061571e565b6040516020818303038152906040529050826001600160a01b031663077f224a8e83306040518463ffffffff1660e01b81526004016122c393929190615922565b600060405180830381600087803b1580156122dd57600080fd5b505af11580156122f1573d6000803e3d6000fd5b5050505060006040518061012001604052808c6001600160701b03168152602001876001600160601b031681526020018d63ffffffff16815260200160138054905061ffff1681526020018b6001600160a01b031681526020018963ffffffff1681526020018863ffffffff1681526020018a61ffff16815260200186151581525090508060126000866001600160a01b03166001600160a01b0316815260200190815260200160002060008201518160000160006101000a8154816001600160701b0302191690836001600160701b03160217905550602082015181600001600e6101000a8154816001600160601b0302191690836001600160601b03160217905550604082015181600001601a6101000a81548163ffffffff021916908363ffffffff160217905550606082015181600001601e6101000a81548161ffff021916908361ffff16021790555060808201518160010160006101000a8154816001600160a01b0302191690836001600160a01b0316021790555060a08201518160010160146101000a81548163ffffffff021916908363ffffffff16021790555060c08201518160010160186101000a81548163ffffffff021916908363ffffffff16021790555060e082015181600101601c6101000a81548161ffff021916908361ffff16021790555061010082015181600101601e6101000a81548160ff0219169083151502179055509050506013849080600181540180825580915050600190039060005260206000200160009091909190916101000a8154816001600160a01b0302191690836001600160a01b03160217905550600460009054906101000a90046001600160a01b03166001600160a01b031663508ee32c856040518263ffffffff1660e01b815260040161258b919061575a565b600060405180830381600087803b1580156125a557600080fd5b505af11580156125b9573d6000803e3d6000fd5b50505050836001600160a01b03167f18706585e986f622c9d914abfb256d563b9ea274cd5d49124e0518aa314b8c128d8d60405161261292919063ffffffff9290921682526001600160701b0316602082015260400190565b60405180910390a25050505050505050505050505050565b33612633611e9f565b6001600160a01b0316146126595760405162461bcd60e51b8152600401610c0490615b67565b61266281614139565b50565b6000818152601160205260409020600281015443116126c35760405162461bcd60e51b815260206004820152601a6024820152794661696c656420746f2072656d6f7665206c697175696469747960301b6044820152606401610c04565b600181015460006126d382613d4c565b90506126dd61284d565b8111156126fc5760405162461bcd60e51b8152600401610c0490615a69565b600154604051630852cd8d60e31b8152600481018690526001600160a01b03909116906342966c6890602401600060405180830381600087803b15801561274257600080fd5b505af1158015612756573d6000803e3d6000fd5b505060005461277292506001600160a01b031690503383613d6e565b81600e60008282546127849190615e8b565b90915550612793905081613ddc565b50505060009081526011602052604081208181556001810182905560020155565b336127bd611e9f565b6001600160a01b0316146127e35760405162461bcd60e51b8152600401610c0490615b67565b6127ef600a8383614d1c565b505050565b6001600160a01b0382166000908152601260205260408120600181015463ffffffff808516600160a01b90920416118015906128455750600181015463ffffffff600160c01b909104811690841611155b949350505050565b6000600c5461285a611799565b6117b99190615e8b565b3361286d611e9f565b6001600160a01b0316146128935760405162461bcd60e51b8152600401610c0490615b67565b6001600160a01b0381166128b95760405162461bcd60e51b8152600401610c0490615ac2565b600580546001600160a01b0319166001600160a01b0392909216919091179055565b336128e4611e9f565b6001600160a01b03161461290a5760405162461bcd60e51b8152600401610c0490615b67565b60075463ffffffff808316600160a01b90920416111561293c5760405162461bcd60e51b8152600401610c0490615a3b565b6007805463ffffffff909216600160c01b0263ffffffff60c01b19909216919091179055565b60606013805480602002602001604051908101604052809291908181526020018280548015610cf557602002820191906000526020600020905b81546001600160a01b0316815260019091019060200180831161299c575050505050905090565b6000826129cf81613e26565b6129eb5760405162461bcd60e51b8152600401610c0490615b9c565b612845843385614214565b600081815260116020526040812080546001820154612a1490613d4c565b612a1e9190615e8b565b9392505050565b33612a2e611e9f565b6001600160a01b031614612a545760405162461bcd60e51b8152600401610c0490615b67565b6001600160a01b038116612a7a5760405162461bcd60e51b8152600401610c0490615ac2565b61266281614303565b33612a8c611e9f565b6001600160a01b031614612ab25760405162461bcd60e51b8152600401610c0490615b67565b612aba611e7e565b6001600160a01b03166399a88ec430836040518363ffffffff1660e01b81526004016110a49291906158f5565b33612af0611e9f565b6001600160a01b031614612b165760405162461bcd60e51b8152600401610c0490615b67565b81612b2081613e26565b612b3c5760405162461bcd60e51b8152600401610c0490615b9c565b6127ef8383613e50565b33612b4f611e9f565b6001600160a01b031614612b755760405162461bcd60e51b8152600401610c0490615b67565b81612b7f81613e26565b612b9b5760405162461bcd60e51b8152600401610c0490615b9c565b612ba3611e7e565b6001600160a01b03166399a88ec484846040518363ffffffff1660e01b8152600401612bd09291906158f5565b600060405180830381600087803b158015612bea57600080fd5b505af1158015612bfe573d6000803e3d6000fd5b50505050505050565b612c108361127a565b612c2c5760405162461bcd60e51b8152600401610c0490615b14565b60008481526010602052604081208054601380549293929091600160701b900461ffff16908110612c6d57634e487b7160e01b600052603260045260246000fd5b6000918252602090912001546001600160a01b0316905080612ca15760405162461bcd60e51b8152600401610c0490615a99565b612cab81846127f4565b612cc75760405162461bcd60e51b8152600401610c0490615c4d565b81544290612ce3908590600160a01b900463ffffffff16615dc0565b63ffffffff161015612d2a5760405162461bcd60e51b815260206004820152601060248201526f24b73b30b634b210323ab930ba34b7b760811b6044820152606401610c04565b8154600c80546001600160701b0390921691600090612d4a908490615e8b565b909155505081546000908190612d6d90849089906001600160701b031688613ef0565b508554600c80546001600160701b03909216909101905590925090506000612d958284615d7d565b6001600160701b0316905086811115612dc05760405162461bcd60e51b8152600401610c0490615bf5565b612dd56001600160a01b0389163330846140aa565b6001600160a01b0380851660009081526012602052604090206001015482918a8116911614612f115760055460405163095ea7b360e01b81526001600160a01b038b81169263095ea7b392612e32929091169086906004016157b4565b602060405180830381600087803b158015612e4c57600080fd5b505af1158015612e60573d6000803e3d6000fd5b505050506040513d601f19601f82011682018060405250810190612e849190615045565b5060055460005460405163029b465d60e01b81526001600160a01b039283169263029b465d92612ebc928e92889216906004016158d2565b602060405180830381600087803b158015612ed657600080fd5b505af1158015612eea573d6000803e3d6000fd5b505050506040513d601f19601f82011682018060405250810190612f0e919061555e565b90505b600082612f27836001600160701b038716615dff565b612f319190615ddf565b600754600054919250612f51916001600160a01b03908116911683613d6e565b6000612f5d8284615e8b565b9050612f68816143e6565b8754600160a01b900463ffffffff16612f818a82615dc0565b895463ffffffff60a01b1916600160a01b63ffffffff928316810291909117808c55600754612fba939083900481169290910416615dc0565b895463ffffffff60c01b1916600160c01b63ffffffff928316810291909117808c55600754612ff793929004821691600160a01b90910416615dc0565b895463ffffffff91909116600160e01b026001600160e01b039091161789556004805460405163f8642f2960e01b81529182018f90526001600160a01b03169063f8642f2990602401600060405180830381600087803b15801561305a57600080fd5b505af115801561306e573d6000803e3d6000fd5b50505050876001600160a01b03166000805160206160098339815191528e838c60000160149054906101000a900463ffffffff166040516130b193929190615d0a565b60405180910390a250505050505050505050505050565b60006130d2611e9f565b6001600160a01b0316146131275760405162461bcd60e51b815260206004820152601c60248201527b13dddb98589b194e88185b1c9958591e481a5b9a5d1a585b1a5e995960221b6044820152606401610c04565b6001600160a01b03811661317d5760405162461bcd60e51b815260206004820152601e60248201527f4f776e61626c653a20696e76616c696420696e697469616c206f776e657200006044820152606401610c04565b600080516020615fa983398151915280546001600160a01b0319166001600160a01b038316908117909155604051600090600080516020615fe9833981519152908290a350565b6131e860405180606001604052806000815260200160008152602001600081525090565b50600090815260116020908152604091829020825160608101845281548152600182015492810192909252600201549181019190915290565b8461322b81613e26565b6132475760405162461bcd60e51b8152600401610c0490615b9c565b6132508561127a565b61326c5760405162461bcd60e51b8152600401610c0490615b14565b61327686836127f4565b6132925760405162461bcd60e51b8152600401610c0490615c4d565b61329a61284d565b846001600160701b031611156132ea5760405162461bcd60e51b8152602060048201526015602482015274496e73756666696369656e7420726573657276657360581b6044820152606401610c04565b6000806000806132fc8a8a8a89613ef0565b9550909350915083905060006133128385615d7d565b6001600160701b0316905087856001600160701b0316826133339190615da8565b11156133515760405162461bcd60e51b8152600401610c0490615bf5565b6133666001600160a01b038b163330846140aa565b6001600160a01b03808c1660009081526012602052604090206001015482918c81169116146134c35760055460405163095ea7b360e01b81526001600160a01b038d81169263095ea7b3926133c3929091169086906004016157b4565b602060405180830381600087803b1580156133dd57600080fd5b505af11580156133f1573d6000803e3d6000fd5b505050506040513d601f19601f820116820180604052508101906134159190615045565b50600560009054906101000a90046001600160a01b03166001600160a01b031663029b465d8c8460008054906101000a90046001600160a01b03166040518463ffffffff1660e01b815260040161346e939291906158d2565b602060405180830381600087803b15801561348857600080fd5b505af115801561349c573d6000803e3d6000fd5b505050506040513d601f19601f820116820180604052508101906134c0919061555e565b90505b6000826134d9836001600160701b038816615dff565b6134e39190615ddf565b600754600054919250613503916001600160a01b03908116911683613d6e565b8a6001600160701b0316600c600082825461351e9190615da8565b90915550600090506135308284615e8b565b905061353b816143e6565b505060025461356895506001600160a01b038c81169550339450169150506001600160701b0385166140aa565b4260006135758583615dc0565b90506000600260009054906101000a90046001600160a01b03166001600160a01b031663caa0f92a6040518163ffffffff1660e01b8152600401602060405180830381600087803b1580156135c957600080fd5b505af11580156135dd573d6000803e3d6000fd5b505050506040513d601f19601f82011682018060405250810190613601919061555e565b60408051610100810182526001600160701b038b1681526001600160a01b038d166000908152601260209081529083902054600160f01b900461ffff169082015263ffffffff86811692820192909252848216606082015260075492935091608083019161367791600160a01b90041685615dc0565b63ffffffff168152602001600760189054906101000a900463ffffffff16846136a09190615dc0565b63ffffffff168152602001856001600160701b031681526020016136c38b613d25565b61ffff9081169091526000838152601060209081526040918290208451815492860151868501516060880151608089015160a08a01516001600160701b039586166001600160801b031998891617600160701b958b16860217600160801b600160c01b031916600160801b63ffffffff9586160263ffffffff60a01b191617600160a01b93851693909302929092176001600160c01b0316600160c01b918416919091026001600160e01b031617600160e01b929091169190910217835560c08701516001909301805460e0909801519390921696909316959095179316029190911790915560025490516335313c2160e11b815282916001600160a01b031690636a627842906137d890339060040161575a565b602060405180830381600087803b1580156137f257600080fd5b505af1158015613806573d6000803e3d6000fd5b505050506040513d601f19601f8201168201806040525081019061382a919061555e565b1461384557634e487b7160e01b600052600160045260246000fd5b6004805460405163f8642f2960e01b81529182018390526001600160a01b03169063f8642f2990602401600060405180830381600087803b15801561388957600080fd5b505af115801561389d573d6000803e3d6000fd5b50505050896001600160a01b03166000805160206160098339815191528285856040516138cc93929190615d0a565b60405180910390a250505050505050505050565b600f80546138ed90615ece565b15905061390c5760405162461bcd60e51b8152600401610c0490615bc8565b613915816130c8565b81600080516020615fc983398151915280546001600160a01b03929092166001600160a01b03199283161790556003805490911633179055865161396090600f9060208a0190614da0565b5061396d600a8787614d1c565b50600480546001600160a01b03199081166001600160a01b0396871617909155600580548216948616949094179093556007805460068054939096169290941682179094556003805463ffffffff60a01b191660e160a61b1790556001600160c01b03199092169091176102a360a61b1763ffffffff60c01b19166102a360c71b1790915550505050565b612662813361445c565b33613a0b611e9f565b6001600160a01b031614613a315760405162461bcd60e51b8152600401610c0490615b67565b60008163ffffffff1611613a575760405162461bcd60e51b8152600401610c0490615c22565b6003805463ffffffff909216600160a01b0263ffffffff60a01b19909216919091179055565b6000546001600160a01b031615613aa65760405162461bcd60e51b8152600401610c0490615bc8565b600080546001600160a01b038086166001600160a01b0319928316179092556001805485841690831617905560028054928416929091169190911790556127ef83614303565b33613af5611e9f565b6001600160a01b031614613b1b5760405162461bcd60e51b8152600401610c0490615b67565b6001600160a01b038116613b805760405162461bcd60e51b815260206004820152602660248201527f4f776e61626c653a206e6577206f776e657220697320746865207a65726f206160448201526564647265737360d01b6064820152608401610c04565b806001600160a01b0316613b92611e9f565b6001600160a01b0316600080516020615fe983398151915260405160405180910390a3600080516020615fa983398151915280546001600160a01b0319166001600160a01b0392909216919091179055565b33613bed611e9f565b6001600160a01b031614613c135760405162461bcd60e51b8152600401610c0490615b67565b80613c1d81613e26565b613c395760405162461bcd60e51b8152600401610c0490615b9c565b6001600160a01b038216600090815260126020526040902060010154600160f01b900460ff1615613cbb5760405162461bcd60e51b815260206004820152602660248201527f50657270657475616c20506f77657220546f6b656e7320616c726561647920616044820152651b1b1bddd95960d21b6064820152608401610c04565b506001600160a01b03166000908152601260205260409020600101805460ff60f01b1916600160f01b179055565b600083613cf581613e26565b613d115760405162461bcd60e51b8152600401610c0490615b9c565b613d1c858585614214565b95945050505050565b6001600160a01b038116600090815260086020526040812054611e7890600190810b615e1e565b6000600e5482613d5a611799565b613d649190615dff565b611e789190615ddf565b6127ef8363a9059cbb60e01b8484604051602401613d8d9291906157b4565b60408051601f198184030181529190526020810180516001600160e01b03166001600160e01b031990931692909217909152614769565b6000613dce611799565b82600e54613d649190615dff565b80600b5410613df157600b8054829003905550565b6000613dfb61483b565b6001600160701b031690508181600b54613e159190615da8565b613e1f9190615e8b565b600b555050565b6001600160a01b0316600090815260126020526040902054600160d01b900463ffffffff16151590565b61138861ffff82161115613eb45760405162461bcd60e51b815260206004820152602560248201527f4d6178696d756d2073657276696365206665652070657263656e7420746872656044820152641cda1bdb1960da1b6064820152608401610c04565b6001600160a01b039091166000908152601260205260409020600101805461ffff909216600160e01b0261ffff60e01b19909216919091179055565b60048054604051630641977d60e21b81526001600160a01b03878116938201939093526001600160701b038516602482015263ffffffff84166044820152600092839283928392909116906319065df49060640160206040518083038186803b158015613f5c57600080fd5b505afa158015613f70573d6000803e3d6000fd5b505050506040513d601f19601f82011682018060405250810190613f949190615510565b90506000613fa289836148c1565b6005546001600160a01b038b81166000908152601260205260408082206001015490516314fdc96760e11b815290831660048201526001600160701b03871660248201528c83166044820152939450929116906329fb92ce9060640160206040518083038186803b15801561401657600080fd5b505afa15801561402a573d6000803e3d6000fd5b505050506040513d601f19601f8201168201806040525081019061404e919061555e565b9050826001600160701b031681836001600160701b031661406f9190615dff565b6140799190615ddf565b945061408e6001600160701b03861682615e8b565b955061409b8a8a8a614909565b93505050509450945094915050565b6140cb846323b872dd60e01b858585604051602401613d8d9392919061576e565b50505050565b600d5460009061411c9063ffffffff600160e01b82041690614106906001600160701b0380821691600160701b900416615e63565b600354600160a01b900463ffffffff1642614a20565b600d546117b99190600160701b90046001600160701b0316615e63565b6001600160a01b038116600090815260086020526040902054600190810b900b6141955760405162461bcd60e51b815260206004820152600d60248201526c24b73b30b634b2103a37b5b2b760991b6044820152606401610c04565b6001600160a01b038116600090815260086020526040812054600190810b900b1315612662576001600160a01b0381166000908152600860205260409020546141e09060010b615f24565b6001600160a01b0382166000908152600860205260409020805460019290920b61ffff1661ffff1990921691909117905550565b6001600160a01b0383166000908152601260205260408120600190810154600160f01b900460ff161515146142855760405162461bcd60e51b815260206004820152601760248201527615dc985c1c1a5b99c81a5cc81b9bdd08185b1b1bddd959604a1b6044820152606401610c04565b60005460405163a1571a5760e01b81526001600160a01b0391821660048201523360248201528482166044820152606481018490529085169063a1571a5790608401600060405180830381600087803b1580156142e157600080fd5b505af11580156142f5573d6000803e3d6000fd5b506001979650505050505050565b6001600160a01b038116600090815260086020526040902054600190810b900b61439b5760098054600180820183557f6e1540171b6c0c960b71a7020d9f60077f6af931a8bbf590da0223dacf75c7af90910180546001600160a01b0319166001600160a01b039490941693841790559054600092835260086020526040909220805461ffff191661ffff9390920b92909216179055565b6001600160a01b038116600090815260086020526040812054600190810b900b1215612662576001600160a01b0381166000908152600860205260409020546141e09060010b615f24565b6143ee6140d1565b600d805463ffffffff4216600160e01b02600160701b600160e01b039091166001600160701b0393841617178082558392600e91614435918591600160701b900416615d7d565b92506101000a8154816001600160701b0302191690836001600160701b0316021790555050565b60008281526010602052604081208054601380549293929091600160701b900461ffff1690811061449d57634e487b7160e01b600052603260045260246000fd5b6000918252602090912001546001600160a01b03169050806144d15760405162461bcd60e51b8152600401610c0490615a99565b6002546040516331a9108f60e11b8152600481018690526000916001600160a01b031690636352211e9060240160206040518083038186803b15801561451657600080fd5b505afa15801561452a573d6000803e3d6000fd5b505050506040513d601f19601f8201168201806040525081019061454e9190614f81565b8354909150429063ffffffff808316600160c01b9092041610806145835750816001600160a01b0316856001600160a01b0316145b6145ed5760405162461bcd60e51b815260206004820152603560248201527f4f6e6c7920626f72726f7765722063616e2072657475726e2077697468696e20604482015274189bdc9c9bddd95c8819dc9858d9481c195c9a5bd9605a1b6064820152608401610c04565b835463ffffffff808316600160e01b90920416108061461d5750816001600160a01b0316856001600160a01b0316145b8061463557506006546001600160a01b038681169116145b6146b55760405162461bcd60e51b815260206004820152604560248201527f4f6e6c7920626f72726f776572206f7220656e74657270726973652063616e2060448201527f72657475726e2077697468696e20656e74657270726973652067726163652070606482015264195c9a5bd960da1b608482015260a401610c04565b8354600c80546001600160701b03909216916000906146d5908490615e8b565b9091555050600254604051633f34d4cf60e21b8152600481018890526001600160a01b0387811660248301529091169063fcd3533c90604401600060405180830381600087803b15801561472857600080fd5b505af115801561473c573d6000803e3d6000fd5b505050600096875250506010602052505060408320928355505060010180546001600160801b0319169055565b60006147be826040518060400160405280602081526020017f5361666545524332303a206c6f772d6c6576656c2063616c6c206661696c6564815250856001600160a01b0316614bc59092919063ffffffff16565b8051909150156127ef57808060200190518101906147dc9190615045565b6127ef5760405162461bcd60e51b815260206004820152602a60248201527f5361666545524332303a204552433230206f7065726174696f6e20646964206e6044820152691bdd081cdd58d8d9595960b21b6064820152608401610c04565b60006148456140d1565b600d80546001600160701b0319168082559192508291600e90614879908490600160701b90046001600160701b0316615e63565b92506101000a8154816001600160701b0302191690836001600160701b0316021790555042600d601c6101000a81548163ffffffff021916908363ffffffff16021790555090565b6001600160a01b038216600090815260126020526040812060010154612710906148ff90600160e01b900461ffff166001600160701b038516615dff565b612a1e9190615ddf565b60075460009081906127109061493390600160e01b900461ffff166001600160701b038616615dff565b61493d9190615ddf565b6005546001600160a01b038781166000908152601260205260408082206001810154905491516314fdc96760e11b81529084166004820152600160701b9091046001600160601b031660248201528883166044820152939450929116906329fb92ce9060640160206040518083038186803b1580156149bb57600080fd5b505afa1580156149cf573d6000803e3d6000fd5b505050506040513d601f19601f820116820180604052508101906149f3919061555e565b9050806001600160701b0316826001600160701b031610614a145781614a16565b805b9695505050505050565b60008463ffffffff168263ffffffff161015614a6f5760405162461bcd60e51b815260206004820152600e60248201526d125b9d985b1a59081c195c9a5bd960921b6044820152606401610c04565b84820391508263ffffffff168263ffffffff1681614a9d57634e487b7160e01b600052601260045260246000fd5b0463ffffffff16846001600160701b0316901c93508263ffffffff168263ffffffff1681614adb57634e487b7160e01b600052601260045260246000fd5b06915063ffffffff82161580614af857506001600160701b038416155b15614b04575082612845565b60006001600160701b0385168163ffffffff86811690861671b17217f7d1cf79abc9e3b39803f2f6af40f30281614b4b57634e487b7160e01b600052601260045260246000fd5b049050600160901b5b8215614bb857928201928082840281614b7d57634e487b7160e01b600052601260045260246000fd5b0493849003939250600160901b018082840281614baa57634e487b7160e01b600052601260045260246000fd5b049250600160901b01614b54565b5091979650505050505050565b6060612845848460008585843b614c1e5760405162461bcd60e51b815260206004820152601d60248201527f416464726573733a2063616c6c20746f206e6f6e2d636f6e74726163740000006044820152606401610c04565b600080866001600160a01b03168587604051614c3a9190615702565b60006040518083038185875af1925050503d8060008114614c77576040519150601f19603f3d011682016040523d82523d6000602084013e614c7c565b606091505b5091509150614c8c828286614c97565b979650505050505050565b60608315614ca6575081612a1e565b825115614cb65782518084602001fd5b8160405162461bcd60e51b8152600401610c04919061590f565b6040805161012081018252600080825260208201819052918101829052606081018290526080810182905260a0810182905260c0810182905260e0810182905261010081019190915290565b828054614d2890615ece565b90600052602060002090601f016020900481019282614d4a5760008555614d90565b82601f10614d635782800160ff19823516178555614d90565b82800160010185558215614d90579182015b82811115614d90578235825591602001919060010190614d75565b50614d9c929150614e14565b5090565b828054614dac90615ece565b90600052602060002090601f016020900481019282614dce5760008555614d90565b82601f10614de757805160ff1916838001178555614d90565b82800160010185558215614d90579182015b82811115614d90578251825591602001919060010190614df9565b5b80821115614d9c5760008155600101614e15565b60008083601f840112614e3a578182fd5b5081356001600160401b03811115614e50578182fd5b6020830191508360208260051b8501011115614e6b57600080fd5b9250929050565b8035614e7d81615f85565b919050565b8035614e7d81615f70565b60008083601f840112614e9e578182fd5b5081356001600160401b03811115614eb4578182fd5b602083019150836020828501011115614e6b57600080fd5b600082601f830112614edc578081fd5b8135614eef614eea82615d56565b615d26565b818152846020838601011115614f03578283fd5b816020850160208301379081016020019190915292915050565b8035614e7d81615f93565b803561ffff81168114614e7d57600080fd5b803563ffffffff81168114614e7d57600080fd5b80356001600160601b0381168114614e7d57600080fd5b600060208284031215614f76578081fd5b8135612a1e81615f70565b600060208284031215614f92578081fd5b8151612a1e81615f70565b600080600060608486031215614fb1578182fd5b8335614fbc81615f70565b92506020840135614fcc81615f70565b929592945050506040919091013590565b60008060008060408587031215614ff2578081fd5b84356001600160401b0380821115615008578283fd5b61501488838901614e29565b9096509450602087013591508082111561502c578283fd5b5061503987828801614e29565b95989497509550505050565b600060208284031215615056578081fd5b8151612a1e81615f85565b600080600060608486031215615075578081fd5b833561508081615f70565b9250602084013561509081615f70565b915060408401356150a081615f70565b809150509250925092565b600080604083850312156150bd578182fd5b82356150c881615f70565b915060208301356150d881615f70565b809150509250929050565b600080600060608486031215614fb1578081fd5b600080600080600060a0868803121561510e578283fd5b853561511981615f70565b9450602086013561512981615f70565b9350604086013561513981615f93565b92506060860135915061514e60808701614f3a565b90509295509295909350565b6000806000806080858703121561516f578182fd5b843561517a81615f70565b9350602085013561518a81615f70565b9250604085013561519a81615f93565b91506151a860608601614f3a565b905092959194509250565b600080600080608085870312156151c8578182fd5b84356151d381615f70565b935060208501356151e381615f93565b925060408501356151f381615f70565b91506151a860608601614f4e565b60008060408385031215615213578182fd5b823561521e81615f70565b915061522c60208401614f28565b90509250929050565b60008060408385031215615247578182fd5b823561525281615f70565b946020939093013593505050565b60008060408385031215615272578182fd5b823561527d81615f70565b915061522c60208401614f3a565b60008060006060848603121561529f578081fd5b83356152aa81615f70565b92506152b860208501614f3a565b91506152c660408501614f3a565b90509250925092565b600080602083850312156152e1578182fd5b82356001600160401b038111156152f6578283fd5b61530285828601614e8d565b90969095509350505050565b60006020828403121561531f578081fd5b81516001600160401b03811115615334578182fd5b8201601f81018413615344578182fd5b8051615352614eea82615d56565b818152856020838501011115615366578384fd5b613d1c826020830160208601615ea2565b600080600080600080600060c0888a031215615391578485fd5b87356001600160401b03808211156153a7578687fd5b6153b38b838c01614ecc565b985060208a01359150808211156153c8578687fd5b506153d58a828b01614e8d565b90975095505060408801356153e981615f70565b935060608801356153f981615f70565b9250608088013561540981615f70565b915060a088013561541981615f70565b8091505092959891949750929550565b6000806000806000806000806000806101408b8d031215615448578384fd5b8a356001600160401b038082111561545e578586fd5b61546a8e838f01614ecc565b9b5060208d013591508082111561547f578586fd5b5061548c8d828e01614ecc565b99505061549b60408c01614f3a565b97506154a960608c01614f1d565b96506154b760808c01614e82565b95506154c560a08c01614f28565b94506154d360c08c01614f3a565b93506154e160e08c01614f3a565b92506154f06101008c01614f4e565b91506154ff6101208c01614e72565b90509295989b9194979a5092959850565b600060208284031215615521578081fd5b8151612a1e81615f93565b60006020828403121561553d578081fd5b612a1e82614f28565b600060208284031215615557578081fd5b5035919050565b60006020828403121561556f578081fd5b5051919050565b6000806000806080858703121561558b578182fd5b84359350602085013561559d81615f70565b9250604085013591506151a860608601614f3a565b6000602082840312156155c3578081fd5b612a1e82614f3a565b600081518084526020808501808196508360051b81019150828601855b85811015614bb8578284038952615601848351615613565b988501989350908401906001016155e9565b6000815180845261562b816020860160208601615ea2565b601f01601f19169290920160200192915050565b80516001600160701b031682526020808201516001600160601b031690830152604080820151906156779084018263ffffffff169052565b50606081015161568d606084018261ffff169052565b5060808101516156a860808401826001600160a01b03169052565b5060a08101516156c060a084018263ffffffff169052565b5060c08101516156d860c084018263ffffffff169052565b5060e08101516156ee60e084018261ffff169052565b5061010081810151801515848301526140cb565b60008251615714818460208701615ea2565b9190910192915050565b60008351615730818460208801615ea2565b600160fd1b908301908152835161574e816001840160208801615ea2565b01600101949350505050565b6001600160a01b0391909116815260200190565b6001600160a01b039384168152919092166020820152604081019190915260600190565b6001600160a01b039290921682526001600160701b0316602082015260400190565b6001600160a01b03929092168252602082015260400190565b6080808252855190820181905260009060209060a0840190828901845b8281101561580f5781516001600160a01b0316845292840192908401906001016157ea565b5050508381038285015261582381886155cc565b9050838103604085015261583781876155cc565b84810360608601528551808252838701925090830190845b818110156158765761586283855161563f565b92840192610120929092019160010161584f565b50909998505050505050505050565b6020808252825182820181905260009190848201906040850190845b818110156158c65783516001600160a01b0316835292840192918401916001016158a1565b50909695505050505050565b6001600160a01b0393841681526020810192909252909116604082015260600190565b6001600160a01b0392831681529116602082015260400190565b602081526000612a1e6020830184615613565b6060815260006159356060830186615613565b82810360208401526159478186615613565b91505060018060a01b0383166040830152949350505050565b600061016080835261597481840187615613565b905082810360208401526159888186615613565b915050612845604083018461563f565b610180815260006159ad61018083018f615613565b82810360208401526159bf818f615613565b604084018e905263ffffffff8d811660608601528c811660808601528b1660a085015261ffff8a1660c085015260e0840189905261010084018890526001600160701b0387811661012086015286166101408501529150615a1d9050565b63ffffffff83166101608301529d9c50505050505050505050505050565b602080825260149082015273125b9d985b1a590819dc9858d9481c195c9a5bd960621b604082015260600190565b602080825260169082015275496e73756666696369656e74206c697175696469747960501b604082015260600190565b6020808252600f908201526e125b9d985b1a59081d1bdad95b9259608a1b604082015260600190565b6020808252600c908201526b5a65726f206164647265737360a01b604082015260600190565b60208082526012908201527124b73b30b634b2102130b9b2902a37b5b2b760711b604082015260600190565b60208082526033908201527f496e746572657374207061796d656e7420746f6b656e2069732064697361626c6040820152721959081bdc881b9bdd081cdd5c1c1bdc9d1959606a1b606082015260800190565b6020808252818101527f4f776e61626c653a2063616c6c6572206973206e6f7420746865206f776e6572604082015260600190565b6020808252601290820152712ab735b737bbb7102837bbb2b92a37b5b2b760711b604082015260600190565b602080825260139082015272105b1c9958591e481a5b9a5d1a585b1a5e9959606a1b604082015260600190565b602080825260139082015272536c69707061676520697320746f6f2062696760681b604082015260600190565b602080825260119082015270496e76616c69642068616c66206c69666560781b604082015260600190565b602080825260179082015276111d5c985d1a5bdb881a5cc81b9bdd08185b1b1bddd959604a1b604082015260600190565b81516001600160701b0316815260208083015161ffff169082015260408083015163ffffffff9081169183019190915260608084015182169083015260808084015182169083015260a080840151918216908301526101008201905060c0830151615cf460c08401826001600160701b03169052565b5060e083015161133260e084018261ffff169052565b92835263ffffffff918216602084015216604082015260600190565b604051601f8201601f191681016001600160401b0381118282101715615d4e57615d4e615f5a565b604052919050565b60006001600160401b03821115615d6f57615d6f615f5a565b50601f01601f191660200190565b60006001600160701b03828116848216808303821115615d9f57615d9f615f44565b01949350505050565b60008219821115615dbb57615dbb615f44565b500190565b600063ffffffff808316818516808303821115615d9f57615d9f615f44565b600082615dfa57634e487b7160e01b81526012600452602481fd5b500490565b6000816000190483118215151615615e1957615e19615f44565b500290565b60008160010b8360010b82811281617fff1901831281151615615e4357615e43615f44565b81617fff018313811615615e5957615e59615f44565b5090039392505050565b60006001600160701b0383811690831681811015615e8357615e83615f44565b039392505050565b600082821015615e9d57615e9d615f44565b500390565b60005b83811015615ebd578181015183820152602001615ea5565b838111156140cb5750506000910152565b600181811c90821680615ee257607f821691505b60208210811415615f0357634e487b7160e01b600052602260045260246000fd5b50919050565b6000600019821415615f1d57615f1d615f44565b5060010190565b60008160010b617fff19811415615f3d57615f3d615f44565b9003919050565b634e487b7160e01b600052601160045260246000fd5b634e487b7160e01b600052604160045260246000fd5b6001600160a01b038116811461266257600080fd5b801515811461266257600080fd5b6001600160701b038116811461266257600080fdfe4f471908b72bb76dae5bd24599026e7bf3ddb256497722888ffa422f83729eded1248cccb5fef9131c731321e43e9a924840ffee7dc68c7d1d3e5cb7dedcae038be0079c531659141344cd1fd0a4f28419497f9722a3daafe3b4186f6b6457e09853650269815e203c5c9e228db9ca05cc6037f2c2723c94ed3260cf98324c99a264697066735822122066253dcd81ecdc1f89ea7ec1a1858ff708a84ab3c17b26b23e61a94c3d37beba64736f6c63430008040033",
  "linkReferences": {},
  "deployedLinkReferences": {}
}