{
  "_format": "hh-sol-artifact-1",
  "contractName": "Enterprise",
  "sourceName": "contracts/Enterprise.sol",
  "abi": [
    {
      "anonymous": false,
      "inputs": [
        {
          "indexed": true,
          "internalType": "address",
          "name": "powerToken",
          "type": "address"
        },
        {
          "indexed": false,
          "internalType": "uint256",
          "name": "tokenId",
          "type": "uint256"
        },
        {
          "indexed": false,
          "internalType": "uint32",
          "name": "from",
          "type": "uint32"
        },
        {
          "indexed": false,
          "internalType": "uint32",
          "name": "to",
          "type": "uint32"
        }
      ],
      "name": "Borrowed",
      "type": "event"
    },
    {
      "anonymous": false,
      "inputs": [
        {
          "indexed": true,
          "internalType": "address",
          "name": "previousOwner",
          "type": "address"
        },
        {
          "indexed": true,
          "internalType": "address",
          "name": "newOwner",
          "type": "address"
        }
      ],
      "name": "OwnershipTransferred",
      "type": "event"
    },
    {
      "anonymous": false,
      "inputs": [
        {
          "indexed": true,
          "internalType": "address",
          "name": "powerToken",
          "type": "address"
        },
        {
          "indexed": false,
          "internalType": "uint32",
          "name": "halfLife",
          "type": "uint32"
        },
        {
          "indexed": false,
          "internalType": "uint112",
          "name": "factor",
          "type": "uint112"
        }
      ],
      "name": "ServiceRegistered",
      "type": "event"
    },
    {
      "inputs": [
        {
          "internalType": "uint256",
          "name": "liquidityAmount",
          "type": "uint256"
        }
      ],
      "name": "addLiquidity",
      "outputs": [],
      "stateMutability": "nonpayable",
      "type": "function"
    },
    {
      "inputs": [
        {
          "internalType": "contract IPowerToken",
          "name": "powerToken",
          "type": "address"
        }
      ],
      "name": "allowPerpetualPowerTokenForever",
      "outputs": [],
      "stateMutability": "nonpayable",
      "type": "function"
    },
    {
      "inputs": [
        {
          "internalType": "contract IPowerToken",
          "name": "powerToken",
          "type": "address"
        },
        {
          "internalType": "contract IERC20",
          "name": "paymentToken",
          "type": "address"
        },
        {
          "internalType": "uint112",
          "name": "amount",
          "type": "uint112"
        },
        {
          "internalType": "uint256",
          "name": "maxPayment",
          "type": "uint256"
        },
        {
          "internalType": "uint32",
          "name": "duration",
          "type": "uint32"
        }
      ],
      "name": "borrow",
      "outputs": [],
      "stateMutability": "nonpayable",
      "type": "function"
    },
    {
      "inputs": [
        {
          "internalType": "address",
          "name": "token",
          "type": "address"
        }
      ],
      "name": "disablePaymentToken",
      "outputs": [],
      "stateMutability": "nonpayable",
      "type": "function"
    },
    {
      "inputs": [
        {
          "internalType": "address",
          "name": "token",
          "type": "address"
        }
      ],
      "name": "enablePaymentToken",
      "outputs": [],
      "stateMutability": "nonpayable",
      "type": "function"
    },
    {
      "inputs": [
        {
          "internalType": "contract IPowerToken",
          "name": "powerToken",
          "type": "address"
        },
        {
          "internalType": "contract IERC20",
          "name": "paymentToken",
          "type": "address"
        },
        {
          "internalType": "uint112",
          "name": "amount",
          "type": "uint112"
        },
        {
          "internalType": "uint32",
          "name": "duration",
          "type": "uint32"
        }
      ],
      "name": "estimateLoan",
      "outputs": [
        {
          "internalType": "uint256",
          "name": "",
          "type": "uint256"
        }
      ],
      "stateMutability": "view",
      "type": "function"
    },
    {
      "inputs": [],
      "name": "getAvailableReserve",
      "outputs": [
        {
          "internalType": "uint256",
          "name": "",
          "type": "uint256"
        }
      ],
      "stateMutability": "view",
      "type": "function"
    },
    {
      "inputs": [],
      "name": "getBaseUri",
      "outputs": [
        {
          "internalType": "string",
          "name": "",
          "type": "string"
        }
      ],
      "stateMutability": "view",
      "type": "function"
    },
    {
      "inputs": [],
      "name": "getBorrowToken",
      "outputs": [
        {
          "internalType": "contract IBorrowToken",
          "name": "",
          "type": "address"
        }
      ],
      "stateMutability": "view",
      "type": "function"
    },
    {
      "inputs": [],
      "name": "getBorrowerLoanReturnGracePeriod",
      "outputs": [
        {
          "internalType": "uint32",
          "name": "",
          "type": "uint32"
        }
      ],
      "stateMutability": "view",
      "type": "function"
    },
    {
      "inputs": [],
      "name": "getConverter",
      "outputs": [
        {
          "internalType": "contract IConverter",
          "name": "",
          "type": "address"
        }
      ],
      "stateMutability": "view",
      "type": "function"
    },
    {
      "inputs": [],
      "name": "getEnterpriseCollector",
      "outputs": [
        {
          "internalType": "address",
          "name": "",
          "type": "address"
        }
      ],
      "stateMutability": "view",
      "type": "function"
    },
    {
      "inputs": [],
      "name": "getEnterpriseLoanCollectGracePeriod",
      "outputs": [
        {
          "internalType": "uint32",
          "name": "",
          "type": "uint32"
        }
      ],
      "stateMutability": "view",
      "type": "function"
    },
    {
      "inputs": [],
      "name": "getEnterpriseVault",
      "outputs": [
        {
          "internalType": "address",
          "name": "",
          "type": "address"
        }
      ],
      "stateMutability": "view",
      "type": "function"
    },
    {
      "inputs": [],
      "name": "getEstimator",
      "outputs": [
        {
          "internalType": "contract IEstimator",
          "name": "",
          "type": "address"
        }
      ],
      "stateMutability": "view",
      "type": "function"
    },
    {
      "inputs": [],
      "name": "getGCFeePercent",
      "outputs": [
        {
          "internalType": "uint16",
          "name": "",
          "type": "uint16"
        }
      ],
      "stateMutability": "view",
      "type": "function"
    },
    {
      "inputs": [],
      "name": "getInfo",
      "outputs": [
        {
          "internalType": "string",
          "name": "name",
          "type": "string"
        },
        {
          "internalType": "string",
          "name": "baseUri",
          "type": "string"
        },
        {
          "internalType": "uint256",
          "name": "totalShares",
          "type": "uint256"
        },
        {
          "internalType": "uint32",
          "name": "interestHalfLife",
          "type": "uint32"
        },
        {
          "internalType": "uint32",
          "name": "borrowerLoanReturnGracePeriod",
          "type": "uint32"
        },
        {
          "internalType": "uint32",
          "name": "enterpriseLoanCollectGracePeriod",
          "type": "uint32"
        },
        {
          "internalType": "uint16",
          "name": "gcFeePercent",
          "type": "uint16"
        },
        {
          "internalType": "uint256",
          "name": "fixedReserve",
          "type": "uint256"
        },
        {
          "internalType": "uint256",
          "name": "usedReserve",
          "type": "uint256"
        },
        {
          "internalType": "uint112",
          "name": "streamingReserve",
          "type": "uint112"
        },
        {
          "internalType": "uint112",
          "name": "streamingReserveTarget",
          "type": "uint112"
        },
        {
          "internalType": "uint32",
          "name": "streamingReserveUpdated",
          "type": "uint32"
        }
      ],
      "stateMutability": "view",
      "type": "function"
    },
    {
      "inputs": [],
      "name": "getInterestHalfLife",
      "outputs": [
        {
          "internalType": "uint32",
          "name": "",
          "type": "uint32"
        }
      ],
      "stateMutability": "view",
      "type": "function"
    },
    {
      "inputs": [],
      "name": "getInterestToken",
      "outputs": [
        {
          "internalType": "contract IInterestToken",
          "name": "",
          "type": "address"
        }
      ],
      "stateMutability": "view",
      "type": "function"
    },
    {
      "inputs": [
        {
          "internalType": "uint256",
          "name": "tokenId",
          "type": "uint256"
        }
      ],
      "name": "getLiquidityInfo",
      "outputs": [
        {
          "components": [
            {
              "internalType": "uint256",
              "name": "amount",
              "type": "uint256"
            },
            {
              "internalType": "uint256",
              "name": "shares",
              "type": "uint256"
            },
            {
              "internalType": "uint256",
              "name": "block",
              "type": "uint256"
            }
          ],
          "internalType": "struct EnterpriseStorage.LiquidityInfo",
          "name": "",
          "type": "tuple"
        }
      ],
      "stateMutability": "view",
      "type": "function"
    },
    {
      "inputs": [],
      "name": "getLiquidityToken",
      "outputs": [
        {
          "internalType": "contract IERC20Metadata",
          "name": "",
          "type": "address"
        }
      ],
      "stateMutability": "view",
      "type": "function"
    },
    {
      "inputs": [
        {
          "internalType": "uint256",
          "name": "tokenId",
          "type": "uint256"
        }
      ],
      "name": "getLoanInfo",
      "outputs": [
        {
          "components": [
            {
              "internalType": "uint112",
              "name": "amount",
              "type": "uint112"
            },
            {
              "internalType": "uint16",
              "name": "powerTokenIndex",
              "type": "uint16"
            },
            {
              "internalType": "uint32",
              "name": "borrowingTime",
              "type": "uint32"
            },
            {
              "internalType": "uint32",
              "name": "maturityTime",
              "type": "uint32"
            },
            {
              "internalType": "uint32",
              "name": "borrowerReturnGraceTime",
              "type": "uint32"
            },
            {
              "internalType": "uint32",
              "name": "enterpriseCollectGraceTime",
              "type": "uint32"
            },
            {
              "internalType": "uint112",
              "name": "gcFee",
              "type": "uint112"
            },
            {
              "internalType": "uint16",
              "name": "gcFeeTokenIndex",
              "type": "uint16"
            }
          ],
          "internalType": "struct EnterpriseStorage.LoanInfo",
          "name": "",
          "type": "tuple"
        }
      ],
      "stateMutability": "view",
      "type": "function"
    },
    {
      "inputs": [
        {
          "internalType": "uint256",
          "name": "tokenId",
          "type": "uint256"
        }
      ],
      "name": "getOwedInterest",
      "outputs": [
        {
          "internalType": "uint256",
          "name": "",
          "type": "uint256"
        }
      ],
      "stateMutability": "view",
      "type": "function"
    },
    {
      "inputs": [],
      "name": "getPowerTokens",
      "outputs": [
        {
          "internalType": "contract IPowerToken[]",
          "name": "",
          "type": "address[]"
        }
      ],
      "stateMutability": "view",
      "type": "function"
    },
    {
      "inputs": [],
      "name": "getProxyAdmin",
      "outputs": [
        {
          "internalType": "contract ProxyAdmin",
          "name": "",
          "type": "address"
        }
      ],
      "stateMutability": "view",
      "type": "function"
    },
    {
      "inputs": [],
      "name": "getReserve",
      "outputs": [
        {
          "internalType": "uint256",
          "name": "",
          "type": "uint256"
        }
      ],
      "stateMutability": "view",
      "type": "function"
    },
    {
      "inputs": [
        {
          "internalType": "contract IPowerToken",
          "name": "powerToken",
          "type": "address"
        }
      ],
      "name": "getService",
      "outputs": [
        {
          "internalType": "string",
          "name": "name",
          "type": "string"
        },
        {
          "internalType": "string",
          "name": "symbol",
          "type": "string"
        },
        {
          "components": [
            {
              "internalType": "uint112",
              "name": "baseRate",
              "type": "uint112"
            },
            {
              "internalType": "uint96",
              "name": "minGCFee",
              "type": "uint96"
            },
            {
              "internalType": "uint32",
              "name": "halfLife",
              "type": "uint32"
            },
            {
              "internalType": "uint16",
              "name": "index",
              "type": "uint16"
            },
            {
              "internalType": "contract IERC20Metadata",
              "name": "baseToken",
              "type": "address"
            },
            {
              "internalType": "uint32",
              "name": "minLoanDuration",
              "type": "uint32"
            },
            {
              "internalType": "uint32",
              "name": "maxLoanDuration",
              "type": "uint32"
            },
            {
              "internalType": "uint16",
              "name": "serviceFeePercent",
              "type": "uint16"
            },
            {
              "internalType": "bool",
              "name": "allowsPerpetual",
              "type": "bool"
            }
          ],
          "internalType": "struct EnterpriseStorage.ServiceConfig",
          "name": "config",
          "type": "tuple"
        }
      ],
      "stateMutability": "view",
      "type": "function"
    },
    {
      "inputs": [],
      "name": "getUsedReserve",
      "outputs": [
        {
          "internalType": "uint256",
          "name": "",
          "type": "uint256"
        }
      ],
      "stateMutability": "view",
      "type": "function"
    },
    {
      "inputs": [
        {
          "internalType": "address",
          "name": "initialOwner",
          "type": "address"
        }
      ],
      "name": "initialize",
      "outputs": [],
      "stateMutability": "nonpayable",
      "type": "function"
    },
    {
      "inputs": [
        {
          "internalType": "string",
          "name": "enterpriseName",
          "type": "string"
        },
        {
          "internalType": "string",
          "name": "baseUri",
          "type": "string"
        },
        {
          "internalType": "contract IEstimator",
          "name": "estimator",
          "type": "address"
        },
        {
          "internalType": "contract IConverter",
          "name": "converter",
          "type": "address"
        },
        {
          "internalType": "contract ProxyAdmin",
          "name": "proxyAdmin",
          "type": "address"
        },
        {
          "internalType": "address",
          "name": "owner",
          "type": "address"
        }
      ],
      "name": "initialize",
      "outputs": [],
      "stateMutability": "nonpayable",
      "type": "function"
    },
    {
      "inputs": [
        {
          "internalType": "contract IERC20Metadata",
          "name": "liquidityToken",
          "type": "address"
        },
        {
          "internalType": "contract IInterestToken",
          "name": "interestToken",
          "type": "address"
        },
        {
          "internalType": "contract IBorrowToken",
          "name": "borrowToken",
          "type": "address"
        }
      ],
      "name": "initializeTokens",
      "outputs": [],
      "stateMutability": "nonpayable",
      "type": "function"
    },
    {
      "inputs": [
        {
          "internalType": "contract IPowerToken",
          "name": "powerToken",
          "type": "address"
        }
      ],
      "name": "isRegisteredPowerToken",
      "outputs": [
        {
          "internalType": "bool",
          "name": "",
          "type": "bool"
        }
      ],
      "stateMutability": "view",
      "type": "function"
    },
    {
      "inputs": [
        {
          "internalType": "contract IPowerToken",
          "name": "powerToken",
          "type": "address"
        },
        {
          "internalType": "uint32",
          "name": "duration",
          "type": "uint32"
        }
      ],
      "name": "isServiceAllowedLoanDuration",
      "outputs": [
        {
          "internalType": "bool",
          "name": "",
          "type": "bool"
        }
      ],
      "stateMutability": "view",
      "type": "function"
    },
    {
      "inputs": [
        {
          "internalType": "contract IERC20",
          "name": "token",
          "type": "address"
        }
      ],
      "name": "isSupportedPaymentToken",
      "outputs": [
        {
          "internalType": "bool",
          "name": "",
          "type": "bool"
        }
      ],
      "stateMutability": "view",
      "type": "function"
    },
    {
      "inputs": [
        {
          "internalType": "address",
          "name": "from",
          "type": "address"
        },
        {
          "internalType": "address",
          "name": "to",
          "type": "address"
        },
        {
          "internalType": "uint256",
          "name": "tokenId",
          "type": "uint256"
        }
      ],
      "name": "loanTransfer",
      "outputs": [],
      "stateMutability": "nonpayable",
      "type": "function"
    },
    {
      "inputs": [],
      "name": "owner",
      "outputs": [
        {
          "internalType": "address",
          "name": "",
          "type": "address"
        }
      ],
      "stateMutability": "view",
      "type": "function"
    },
    {
      "inputs": [
        {
          "internalType": "uint256",
          "name": "index",
          "type": "uint256"
        }
      ],
      "name": "paymentToken",
      "outputs": [
        {
          "internalType": "address",
          "name": "",
          "type": "address"
        }
      ],
      "stateMutability": "view",
      "type": "function"
    },
    {
      "inputs": [
        {
          "internalType": "contract IERC20",
          "name": "token",
          "type": "address"
        }
      ],
      "name": "paymentTokenIndex",
      "outputs": [
        {
          "internalType": "int16",
          "name": "",
          "type": "int16"
        }
      ],
      "stateMutability": "view",
      "type": "function"
    },
    {
      "inputs": [
        {
          "internalType": "uint256",
          "name": "tokenId",
          "type": "uint256"
        },
        {
          "internalType": "contract IERC20",
          "name": "paymentToken",
          "type": "address"
        },
        {
          "internalType": "uint256",
          "name": "maxPayment",
          "type": "uint256"
        },
        {
          "internalType": "uint32",
          "name": "duration",
          "type": "uint32"
        }
      ],
      "name": "reborrow",
      "outputs": [],
      "stateMutability": "nonpayable",
      "type": "function"
    },
    {
      "inputs": [
        {
          "internalType": "string",
          "name": "serviceName",
          "type": "string"
        },
        {
          "internalType": "string",
          "name": "symbol",
          "type": "string"
        },
        {
          "internalType": "uint32",
          "name": "halfLife",
          "type": "uint32"
        },
        {
          "internalType": "uint112",
          "name": "baseRate",
          "type": "uint112"
        },
        {
          "internalType": "contract IERC20Metadata",
          "name": "baseToken",
          "type": "address"
        },
        {
          "internalType": "uint16",
          "name": "serviceFeePercent",
          "type": "uint16"
        },
        {
          "internalType": "uint32",
          "name": "minLoanDuration",
          "type": "uint32"
        },
        {
          "internalType": "uint32",
          "name": "maxLoanDuration",
          "type": "uint32"
        },
        {
          "internalType": "uint96",
          "name": "minGCFee",
          "type": "uint96"
        },
        {
          "internalType": "bool",
          "name": "allowsPerpetualTokensForever",
          "type": "bool"
        }
      ],
      "name": "registerService",
      "outputs": [],
      "stateMutability": "nonpayable",
      "type": "function"
    },
    {
      "inputs": [
        {
          "internalType": "uint256",
          "name": "tokenId",
          "type": "uint256"
        }
      ],
      "name": "removeLiquidity",
      "outputs": [],
      "stateMutability": "nonpayable",
      "type": "function"
    },
    {
      "inputs": [
        {
          "internalType": "uint256",
          "name": "tokenId",
          "type": "uint256"
        }
      ],
      "name": "returnLoan",
      "outputs": [],
      "stateMutability": "nonpayable",
      "type": "function"
    },
    {
      "inputs": [
        {
          "internalType": "string",
          "name": "baseUri",
          "type": "string"
        }
      ],
      "name": "setBaseUri",
      "outputs": [],
      "stateMutability": "nonpayable",
      "type": "function"
    },
    {
      "inputs": [
        {
          "internalType": "uint32",
          "name": "newPeriod",
          "type": "uint32"
        }
      ],
      "name": "setBorrowerLoanReturnGracePeriod",
      "outputs": [],
      "stateMutability": "nonpayable",
      "type": "function"
    },
    {
      "inputs": [
        {
          "internalType": "contract IConverter",
          "name": "newConverter",
          "type": "address"
        }
      ],
      "name": "setConverter",
      "outputs": [],
      "stateMutability": "nonpayable",
      "type": "function"
    },
    {
      "inputs": [
        {
          "internalType": "address",
          "name": "newCollector",
          "type": "address"
        }
      ],
      "name": "setEnterpriseCollector",
      "outputs": [],
      "stateMutability": "nonpayable",
      "type": "function"
    },
    {
      "inputs": [
        {
          "internalType": "uint32",
          "name": "newPeriod",
          "type": "uint32"
        }
      ],
      "name": "setEnterpriseLoanCollectGracePeriod",
      "outputs": [],
      "stateMutability": "nonpayable",
      "type": "function"
    },
    {
      "inputs": [
        {
          "internalType": "address",
          "name": "newVault",
          "type": "address"
        }
      ],
      "name": "setEnterpriseVault",
      "outputs": [],
      "stateMutability": "nonpayable",
      "type": "function"
    },
    {
      "inputs": [
        {
          "internalType": "contract IEstimator",
          "name": "newEstimator",
          "type": "address"
        }
      ],
      "name": "setEstimator",
      "outputs": [],
      "stateMutability": "nonpayable",
      "type": "function"
    },
    {
      "inputs": [
        {
          "internalType": "uint16",
          "name": "newGcFeePercent",
          "type": "uint16"
        }
      ],
      "name": "setGcFeePercent",
      "outputs": [],
      "stateMutability": "nonpayable",
      "type": "function"
    },
    {
      "inputs": [
        {
          "internalType": "uint32",
          "name": "interestHalfLife",
          "type": "uint32"
        }
      ],
      "name": "setInterestHalfLife",
      "outputs": [],
      "stateMutability": "nonpayable",
      "type": "function"
    },
    {
      "inputs": [
        {
          "internalType": "contract IPowerToken",
          "name": "powerToken",
          "type": "address"
        },
        {
          "internalType": "uint112",
          "name": "baseRate",
          "type": "uint112"
        },
        {
          "internalType": "contract IERC20Metadata",
          "name": "baseToken",
          "type": "address"
        },
        {
          "internalType": "uint96",
          "name": "minGCFee",
          "type": "uint96"
        }
      ],
      "name": "setServiceBaseRate",
      "outputs": [],
      "stateMutability": "nonpayable",
      "type": "function"
    },
    {
      "inputs": [
        {
          "internalType": "contract IPowerToken",
          "name": "powerToken",
          "type": "address"
        },
        {
          "internalType": "uint16",
          "name": "newServiceFeePercent",
          "type": "uint16"
        }
      ],
      "name": "setServiceFeePercent",
      "outputs": [],
      "stateMutability": "nonpayable",
      "type": "function"
    },
    {
      "inputs": [
        {
          "internalType": "contract IPowerToken",
          "name": "powerToken",
          "type": "address"
        },
        {
          "internalType": "uint32",
          "name": "minLoanDuration",
          "type": "uint32"
        },
        {
          "internalType": "uint32",
          "name": "maxLoanDuration",
          "type": "uint32"
        }
      ],
      "name": "setServiceLoanDurationLimits",
      "outputs": [],
      "stateMutability": "nonpayable",
      "type": "function"
    },
    {
      "inputs": [],
      "name": "shutdownEnterpriseForever",
      "outputs": [],
      "stateMutability": "nonpayable",
      "type": "function"
    },
    {
      "inputs": [
        {
          "internalType": "address",
          "name": "newOwner",
          "type": "address"
        }
      ],
      "name": "transferOwnership",
      "outputs": [],
      "stateMutability": "nonpayable",
      "type": "function"
    },
    {
      "inputs": [
        {
          "internalType": "contract IPowerToken",
          "name": "powerToken",
          "type": "address"
        },
        {
          "internalType": "uint256",
          "name": "amount",
          "type": "uint256"
        }
      ],
      "name": "unwrap",
      "outputs": [
        {
          "internalType": "bool",
          "name": "",
          "type": "bool"
        }
      ],
      "stateMutability": "nonpayable",
      "type": "function"
    },
    {
      "inputs": [
        {
          "internalType": "address",
          "name": "implementation",
          "type": "address"
        }
      ],
      "name": "upgradeBorrowToken",
      "outputs": [],
      "stateMutability": "nonpayable",
      "type": "function"
    },
    {
      "inputs": [
        {
          "internalType": "address",
          "name": "implementation",
          "type": "address"
        }
      ],
      "name": "upgradeEnterprise",
      "outputs": [],
      "stateMutability": "nonpayable",
      "type": "function"
    },
    {
      "inputs": [
        {
          "internalType": "address",
          "name": "implementation",
          "type": "address"
        }
      ],
      "name": "upgradeEstimator",
      "outputs": [],
      "stateMutability": "nonpayable",
      "type": "function"
    },
    {
      "inputs": [
        {
          "internalType": "address",
          "name": "implementation",
          "type": "address"
        }
      ],
      "name": "upgradeInterestToken",
      "outputs": [],
      "stateMutability": "nonpayable",
      "type": "function"
    },
    {
      "inputs": [
        {
          "internalType": "contract IPowerToken",
          "name": "powerToken",
          "type": "address"
        },
        {
          "internalType": "address",
          "name": "implementation",
          "type": "address"
        }
      ],
      "name": "upgradePowerToken",
      "outputs": [],
      "stateMutability": "nonpayable",
      "type": "function"
    },
    {
      "inputs": [
        {
          "internalType": "uint256",
          "name": "tokenId",
          "type": "uint256"
        }
      ],
      "name": "withdrawInterest",
      "outputs": [],
      "stateMutability": "nonpayable",
      "type": "function"
    },
    {
      "inputs": [
        {
          "internalType": "contract IPowerToken",
          "name": "powerToken",
          "type": "address"
        },
        {
          "internalType": "uint256",
          "name": "amount",
          "type": "uint256"
        }
      ],
      "name": "wrap",
      "outputs": [
        {
          "internalType": "bool",
          "name": "",
          "type": "bool"
        }
      ],
      "stateMutability": "nonpayable",
      "type": "function"
    },
    {
      "inputs": [
        {
          "internalType": "contract IPowerToken",
          "name": "powerToken",
          "type": "address"
        },
        {
          "internalType": "address",
          "name": "to",
          "type": "address"
        },
        {
          "internalType": "uint256",
          "name": "amount",
          "type": "uint256"
        }
      ],
      "name": "wrapTo",
      "outputs": [
        {
          "internalType": "bool",
          "name": "",
          "type": "bool"
        }
      ],
      "stateMutability": "nonpayable",
      "type": "function"
    }
  ],
  "bytecode": "0x608060405234801561001057600080fd5b50615c8380620000216000396000f3fe608060405234801561001057600080fd5b50600436106102eb5760003560e01c80630714012c146102f057806308669aab146103f05780630cac36b2146104055780630e101b601461041a5780630ea1dc9e1461043a57806315a523021461044b5780631b9123841461046d5780632261b07f14610480578063229304dc146104915780632b2f6095146104b25780632e365ade146104c55780632fb2067f146104d857806337592148146104fb57806339f4769314610521578063449497ec146105345780634741efb314610547578063512a53bc1461054f57806351c6590a1461056257806359bf5d39146105755780635a9b0b891461057d57806362c1f3881461059d578063644e44df146105b05780637791c42d146105c15780637b024363146105d25780637dcfeb73146105e55780637eda9ff8146105f85780638188d50d1461060b57806389035b61146106205780638b3240a0146106335780638da5cb5b1461063b5780638e9fcf811461064357806390f55edd146106565780639ab71193146106695780639c7aa7f81461067c5780639c8f9f231461068f578063a0bcfc7f146106a2578063a0efd118146106b5578063a358426f146106ca578063a554b26d146106dd578063aebb5041146106ee578063b19337a4146106f6578063b406bf6d14610709578063b56de97e1461072a578063b96266fa1461073d578063bf17088014610752578063bf376c7a14610763578063bf3bb1a514610776578063bfd84fb414610789578063c1fc16d81461079c578063c20aa9bc146107af578063c2294784146107c2578063c2fe50dd146107d5578063c4d66de8146107e8578063c93d0b92146107fb578063df57f2fa1461080c578063e2b17a1614610841578063e56f2fe414610854578063e912615414610867578063edc1a6281461087a578063ef1f9f391461088d578063f2fde38b146108a0578063f54133bb146108b3578063faaed4ad146108c6578063fbac9a55146108d9578063fcb2884e146108ff575b600080fd5b6103da6102fe3660046154ed565b6040805161010081018252600080825260208201819052918101829052606081018290526080810182905260a0810182905260c0810182905260e08101919091525060009081526010602090815260409182902082516101008101845281546001600160701b038082168352600160701b80830461ffff90811696850196909652600160801b830463ffffffff90811697850197909752600160a01b830487166060850152600160c01b830487166080850152600160e01b90920490951660a083015260019092015493841660c082015292041660e082015290565b6040516103e791906158be565b60405180910390f35b6104036103fe3660046154ed565b610907565b005b61040d610a29565b6040516103e791906156f4565b61042d6104283660046154ed565b610abb565b6040516103e791906155f7565b6001546001600160a01b031661042d565b61045e610459366004614f6b565b610af9565b6040516103e793929190615745565b61040361047b366004614f6b565b610cf5565b6005546001600160a01b031661042d565b6104a461049f3660046150f8565b610daa565b6040519081526020016103e7565b6104036104c0366004614f6b565b610f01565b6104036104d3366004615559565b610f88565b6104eb6104e6366004614f6b565b611049565b60405190151581526020016103e7565b600354600160a01b900463ffffffff165b60405163ffffffff90911681526020016103e7565b6104eb61052f3660046151d3565b61106c565b6104036105423660046154d3565b611125565b610403611193565b61040361055d366004614fa3565b611264565b6104036105703660046154ed565b6114eb565b6104a461165f565b610585611684565b6040516103e79c9b9a9998979695949392919061581b565b6104036105ab366004614f6b565b611847565b6000546001600160a01b031661042d565b6007546001600160a01b031661042d565b6104036105e0366004614f6b565b6118f6565b6104036105f3366004615151565b61197d565b610403610606366004614f6b565b611ab5565b600754600160a01b900463ffffffff1661050c565b6104eb61062e366004614f6b565b611b64565b61042d611b8e565b61042d611baf565b610403610651366004615229565b611bc5565b610403610664366004614f6b565b611cf9565b6104036106773660046153d0565b611da8565b61040361068a366004614f6b565b612449565b61040361069d3660046154ed565b612570565b6104036106b036600461526d565b6126d7565b600754600160c01b900463ffffffff1661050c565b6104eb6106d83660046151fe565b612734565b6006546001600160a01b031661042d565b6104a461278d565b610403610704366004614f6b565b6127a4565b600754600160e01b900461ffff1660405161ffff90911681526020016103e7565b610403610738366004615559565b612853565b610745612913565b6040516103e7919061566a565b6004546001600160a01b031661042d565b6104eb6107713660046151d3565b612974565b6104a46107843660046154ed565b612988565b610403610797366004614f6b565b6129b0565b6104036107aa366004614f6b565b612a46565b6104036107bd36600461519f565b612ac7565b6104036107d0366004615049565b612bd4565b6104036107e336600461551d565b612ccf565b6104036107f6366004614f6b565b61323d565b6002546001600160a01b031661042d565b61081f61081a3660046154ed565b613312565b60408051825181526020808401519082015291810151908201526060016103e7565b61040361084f366004615095565b61336f565b61040361086236600461531e565b613b22565b6104036108753660046154ed565b613c54565b610403610888366004615559565b613ec5565b61040361089b366004614fff565b613f75565b6104036108ae366004614f6b565b613fff565b6104036108c1366004614f6b565b6140f0565b6104eb6108d4366004615081565b61420f565b6108ec6108e7366004614f6b565b61421c565b60405160019190910b81526020016103e7565b600b546104a4565b600354604080518082019091526002815261373560f01b602082015290600160c01b900460ff16156109555760405162461bcd60e51b815260040161094c91906156f4565b60405180910390fd5b506000818152601160205260408120600181015481549192909161097883614249565b6109829190615acb565b905061098c61278d565b811115604051806040016040528060028152602001611a1b60f11b815250906109c85760405162461bcd60e51b815260040161094c91906156f4565b506000546109e0906001600160a01b0316338361426b565b60006109ef84600001546142c1565b600185018190559050610a028184615acb565b600d6000828254610a139190615acb565b90915550610a229050826142d9565b5050505050565b6060600f8054610a3890615b0e565b80601f0160208091040260200160405190810160405280929190818152602001828054610a6490615b0e565b8015610ab15780601f10610a8657610100808354040283529160200191610ab1565b820191906000526020600020905b815481529060010190602001808311610a9457829003601f168201915b5050505050905090565b600060098281548110610ade57634e487b7160e01b600052603260045260246000fd5b6000918252602090912001546001600160a01b031692915050565b604080516101208101825260008082526020820181905291810182905260608181018390526080820183905260a0820183905260c0820183905260e082018390526101008201929092528190836001600160a01b03166306fdde036040518163ffffffff1660e01b815260040160006040518083038186803b158015610b7e57600080fd5b505afa158015610b92573d6000803e3d6000fd5b505050506040513d6000823e601f3d908101601f19168201604052610bba91908101906152ac565b846001600160a01b03166395d89b416040518163ffffffff1660e01b815260040160006040518083038186803b158015610bf357600080fd5b505afa158015610c07573d6000803e3d6000fd5b505050506040513d6000823e601f3d908101601f19168201604052610c2f91908101906152ac565b6001600160a01b0395861660009081526012602090815260409182902082516101208101845281546001600160701b0381168252600160701b81046001600160601b031693820193909352600160d01b830463ffffffff90811694820194909452600160f01b9283900461ffff9081166060830152600190920154998a166080820152600160a01b8a04841660a0820152600160c01b8a0490931660c0840152600160e01b89041660e083015290960460ff161515610100870152909590949350915050565b33610cfe611baf565b6001600160a01b031614604051806040016040528060018152602001603360f81b81525090610d405760405162461bcd60e51b815260040161094c91906156f4565b50610d49611b8e565b6004805460405163266a23b160e21b81526001600160a01b03938416936399a88ec493610d7c93909116918691016156da565b600060405180830381600087803b158015610d9657600080fd5b505af1158015610a22573d6000803e3d6000fd5b600354604080518082019091526002815261373560f01b6020820152600091600160c01b900460ff1615610df15760405162461bcd60e51b815260040161094c91906156f4565b5084610dfc81611b64565b604051806040016040528060018152602001601b60f91b81525090610e345760405162461bcd60e51b815260040161094c91906156f4565b50610e3e85611049565b604051806040016040528060028152602001610d0d60f21b81525090610e775760405162461bcd60e51b815260040161094c91906156f4565b50610e828684612734565b60405180604001604052806002815260200161343560f01b81525090610ebb5760405162461bcd60e51b815260040161094c91906156f4565b506000806000610ecd89898989614323565b9194509250905080610edf83856159bd565b610ee991906159bd565b6001600160701b031694505050505b50949350505050565b33610f0a611baf565b6001600160a01b031614604051806040016040528060018152602001603360f81b81525090610f4c5760405162461bcd60e51b815260040161094c91906156f4565b50610f55611b8e565b60015460405163266a23b160e21b81526001600160a01b03928316926399a88ec492610d7c9291169085906004016156da565b33610f91611baf565b6001600160a01b031614604051806040016040528060018152602001603360f81b81525090610fd35760405162461bcd60e51b815260040161094c91906156f4565b506007546040805180820190915260028152610d8d60f21b60208201529063ffffffff600160c01b909104811690831611156110225760405162461bcd60e51b815260040161094c91906156f4565b506007805463ffffffff909216600160a01b0263ffffffff60a01b19909216919091179055565b6001600160a01b0316600090815260086020526040812054600190810b900b1390565b60008261107881611b64565b604051806040016040528060018152602001601b60f91b815250906110b05760405162461bcd60e51b815260040161094c91906156f4565b50600054604051638cc7104f60e01b81526001600160a01b0386811692638cc7104f926110e792909116903390889060040161560b565b600060405180830381600087803b15801561110157600080fd5b505af1158015611115573d6000803e3d6000fd5b50505050600191505b5092915050565b3361112e611baf565b6001600160a01b031614604051806040016040528060018152602001603360f81b815250906111705760405162461bcd60e51b815260040161094c91906156f4565b506007805461ffff909216600160e01b0261ffff60e01b19909216919091179055565b600354604080518082019091526002815261373560f01b602082015290600160c01b900460ff16156111d85760405162461bcd60e51b815260040161094c91906156f4565b50336111e2611baf565b6001600160a01b031614604051806040016040528060018152602001603360f81b815250906112245760405162461bcd60e51b815260040161094c91906156f4565b5060038054600160c01b60ff60c01b199091161790556000600b55600c8054600160701b81046001600160701b03166001600160701b0319909116179055565b600280546040805180820190915291825261333960f01b60208301526001600160a01b031633146112a85760405162461bcd60e51b815260040161094c91906156f4565b506000818152601060209081526040918290205482518084019093526002835261068760f31b918301919091526001600160701b031690816112fd5760405162461bcd60e51b815260040161094c91906156f4565b5060008281526010602052604081205460138054600160a01b830463ffffffff164211936001600160a01b03898116159490891615939192600160701b90910461ffff1690811061135e57634e487b7160e01b600052603260045260246000fd5b6000918252602090912001546001600160a01b0316905081156113e05760405163079cc67960e41b81526001600160a01b038216906379cc6790906113a9908b90899060040161562f565b600060405180830381600087803b1580156113c357600080fd5b505af11580156113d7573d6000803e3d6000fd5b505050506114e1565b8215611414576040516340c10f1960e01b81526001600160a01b038216906340c10f19906113a9908a90899060040161562f565b836114b1576040516333bebb7760e01b81526001600160a01b03898116600483015288811660248301526001600160701b03871660448301528216906333bebb7790606401602060405180830381600087803b15801561147357600080fd5b505af1158015611487573d6000803e3d6000fd5b505050506040513d601f19601f820116820180604052508101906114ab9190614fe3565b506114e1565b60408051808201825260028152611a9960f11b6020820152905162461bcd60e51b815261094c91906004016156f4565b5050505050505050565b600354604080518082019091526002815261373560f01b602082015290600160c01b900460ff16156115305760405162461bcd60e51b815260040161094c91906156f4565b50600054611549906001600160a01b03163330846144dd565b6000600d546000141561155d575080611569565b61156682614249565b90505b81600a600082825461157b91906159e8565b90915550506001546040516335313c2160e11b81526000916001600160a01b031690636a627842906115b19033906004016155f7565b602060405180830381600087803b1580156115cb57600080fd5b505af11580156115df573d6000803e3d6000fd5b505050506040513d601f19601f820116820180604052508101906116039190615505565b6040805160608101825285815260208082018681524383850190815260008681526011909352938220925183555160018301559151600290910155600d805492935084929091906116559084906159e8565b9091555050505050565b6000611669614504565b6001600160701b0316600a5461167f91906159e8565b905090565b600d54600354600754600a54600b54600c54600e805460609788976000978897889788978897889788978897889788979496600f96939563ffffffff600160a01b94859004811696948404811695600160c01b850482169561ffff600160e01b9687900416959394936001600160701b0380841694600160701b8504909116939190910416908c9061171590615b0e565b80601f016020809104026020016040519081016040528092919081815260200182805461174190615b0e565b801561178e5780601f106117635761010080835404028352916020019161178e565b820191906000526020600020905b81548152906001019060200180831161177157829003601f168201915b50505050509b508a80546117a190615b0e565b80601f01602080910402602001604051908101604052809291908181526020018280546117cd90615b0e565b801561181a5780601f106117ef5761010080835404028352916020019161181a565b820191906000526020600020905b8154815290600101906020018083116117fd57829003601f168201915b50505050509a509b509b509b509b509b509b509b509b509b509b509b509b50909192939495969798999a9b565b33611850611baf565b6001600160a01b031614604051806040016040528060018152602001603360f81b815250906118925760405162461bcd60e51b815260040161094c91906156f4565b50604080518082019091526002815261363160f01b60208201526001600160a01b0382166118d35760405162461bcd60e51b815260040161094c91906156f4565b50600680546001600160a01b0319166001600160a01b0392909216919091179055565b336118ff611baf565b6001600160a01b031614604051806040016040528060018152602001603360f81b815250906119415760405162461bcd60e51b815260040161094c91906156f4565b5061194a611b8e565b60025460405163266a23b160e21b81526001600160a01b03928316926399a88ec492610d7c9291169085906004016156da565b33611986611baf565b6001600160a01b031614604051806040016040528060018152602001603360f81b815250906119c85760405162461bcd60e51b815260040161094c91906156f4565b50836119d381611b64565b604051806040016040528060018152602001601b60f91b81525090611a0b5760405162461bcd60e51b815260040161094c91906156f4565b5060408051808201909152600281526106c760f31b60208201526001600160a01b038416611a4c5760405162461bcd60e51b815260040161094c91906156f4565b50506001600160a01b0393841660009081526012602052604090208054600182018054949096166001600160a01b0319909416939093179094556001600160601b0316600160701b026001600160d01b03199091166001600160701b0390921691909117179055565b33611abe611baf565b6001600160a01b031614604051806040016040528060018152602001603360f81b81525090611b005760405162461bcd60e51b815260040161094c91906156f4565b50604080518082019091526002815261036360f41b60208201526001600160a01b038216611b415760405162461bcd60e51b815260040161094c91906156f4565b50600480546001600160a01b0319166001600160a01b0392909216919091179055565b6001600160a01b0316600090815260126020526040902054600160d01b900463ffffffff16151590565b6000600080516020615bee8339815191525b546001600160a01b0316919050565b6000600080516020615bce833981519152611ba0565b33611bce611baf565b6001600160a01b031614604051806040016040528060018152602001603360f81b81525090611c105760405162461bcd60e51b815260040161094c91906156f4565b5082611c1b81611b64565b604051806040016040528060018152602001601b60f91b81525090611c535760405162461bcd60e51b815260040161094c91906156f4565b508163ffffffff168363ffffffff16111560405180604001604052806002815260200161363960f01b81525090611c9d5760405162461bcd60e51b815260040161094c91906156f4565b50506001600160a01b039290921660009081526012602052604090206001018054600160a01b600160e01b031916600160a01b63ffffffff9384160263ffffffff60c01b191617600160c01b9290931691909102919091179055565b33611d02611baf565b6001600160a01b031614604051806040016040528060018152602001603360f81b81525090611d445760405162461bcd60e51b815260040161094c91906156f4565b506040805180820190915260028152611b1960f11b60208201526001600160a01b038216611d855760405162461bcd60e51b815260040161094c91906156f4565b50600780546001600160a01b0319166001600160a01b0392909216919091179055565b33611db1611baf565b6001600160a01b031614604051806040016040528060018152602001603360f81b81525090611df35760405162461bcd60e51b815260040161094c91906156f4565b50600354604080518082019091526002815261373560f01b602082015290600160c01b900460ff1615611e395760405162461bcd60e51b815260040161094c91906156f4565b50604080518082019091526002815261034360f41b60208201526001600160a01b038716611e7a5760405162461bcd60e51b815260040161094c91906156f4565b50601354604080518082019091526002815261343160f01b60208201529061ffff11611eb95760405162461bcd60e51b815260040161094c91906156f4565b508263ffffffff168463ffffffff161115604051806040016040528060028152602001611a1960f11b81525090611f035760405162461bcd60e51b815260040161094c91906156f4565b50604080518082019091526002815261343360f01b602082015263ffffffff8916611f415760405162461bcd60e51b815260040161094c91906156f4565b50604080518082019091526002815261363760f01b602082015261138861ffff87161115611f825760405162461bcd60e51b815260040161094c91906156f4565b506003546000906001600160a01b031663c31011cc611f9f611b8e565b6040518263ffffffff1660e01b8152600401611fbb91906155f7565b602060405180830381600087803b158015611fd557600080fd5b505af1158015611fe9573d6000803e3d6000fd5b505050506040513d601f19601f8201168201806040525081019061200d9190614f87565b905060008060009054906101000a90046001600160a01b03166001600160a01b03166395d89b416040518163ffffffff1660e01b815260040160006040518083038186803b15801561205e57600080fd5b505afa158015612072573d6000803e3d6000fd5b505050506040513d6000823e601f3d908101601f1916820160405261209a91908101906152ac565b90506000818c6040516020016120b19291906155bb565b6040516020818303038152906040529050826001600160a01b031663077f224a8e83306040518463ffffffff1660e01b81526004016120f293929190615707565b600060405180830381600087803b15801561210c57600080fd5b505af1158015612120573d6000803e3d6000fd5b505050506040518061012001604052808b6001600160701b03168152602001866001600160601b031681526020018c63ffffffff16815260200160138054905061ffff1681526020018a6001600160a01b031681526020018863ffffffff1681526020018763ffffffff1681526020018961ffff16815260200185151581525060126000856001600160a01b03166001600160a01b0316815260200190815260200160002060008201518160000160006101000a8154816001600160701b0302191690836001600160701b03160217905550602082015181600001600e6101000a8154816001600160601b0302191690836001600160601b03160217905550604082015181600001601a6101000a81548163ffffffff021916908363ffffffff160217905550606082015181600001601e6101000a81548161ffff021916908361ffff16021790555060808201518160010160006101000a8154816001600160a01b0302191690836001600160a01b0316021790555060a08201518160010160146101000a81548163ffffffff021916908363ffffffff16021790555060c08201518160010160186101000a81548163ffffffff021916908363ffffffff16021790555060e082015181600101601c6101000a81548161ffff021916908361ffff16021790555061010082015181600101601e6101000a81548160ff0219169083151502179055509050506013839080600181540180825580915050600190039060005260206000200160009091909190916101000a8154816001600160a01b0302191690836001600160a01b03160217905550600460009054906101000a90046001600160a01b03166001600160a01b031663508ee32c846040518263ffffffff1660e01b81526004016123b591906155f7565b600060405180830381600087803b1580156123cf57600080fd5b505af11580156123e3573d6000803e3d6000fd5b50506040805163ffffffff8f1681526001600160701b038e1660208201526001600160a01b03871693507f18706585e986f622c9d914abfb256d563b9ea274cd5d49124e0518aa314b8c129250015b60405180910390a250505050505050505050505050565b33612452611baf565b6001600160a01b031614604051806040016040528060018152602001603360f81b815250906124945760405162461bcd60e51b815260040161094c91906156f4565b506001600160a01b03811660009081526008602090815260409182902054825180840190935260028352611b9960f11b91830191909152600190810b900b6124ef5760405162461bcd60e51b815260040161094c91906156f4565b506001600160a01b038116600090815260086020526040812054600190810b900b131561256d576001600160a01b03811660009081526008602052604090205461253b9060010b615b49565b6001600160a01b0382166000908152600860205260409020805460019290920b61ffff1661ffff199092169190911790555b50565b60006011600083815260200190815260200160002090504381600201541060405180604001604052806002815260200161035360f41b815250906125c75760405162461bcd60e51b815260040161094c91906156f4565b50600181015460006125d882614249565b90506125e261278d565b811115604051806040016040528060028152602001611a1b60f11b8152509061261e5760405162461bcd60e51b815260040161094c91906156f4565b50600154604051630852cd8d60e31b8152600481018690526001600160a01b03909116906342966c6890602401600060405180830381600087803b15801561266557600080fd5b505af1158015612679573d6000803e3d6000fd5b505060005461269592506001600160a01b03169050338361426b565b81600d60008282546126a79190615acb565b909155506126b69050816142d9565b50505060009081526011602052604081208181556001810182905560020155565b336126e0611baf565b6001600160a01b031614604051806040016040528060018152602001603360f81b815250906127225760405162461bcd60e51b815260040161094c91906156f4565b5061272f600f8383614d64565b505050565b6001600160a01b0382166000908152601260205260408120600181015463ffffffff808516600160a01b90920416118015906127855750600181015463ffffffff600160c01b909104811690841611155b949350505050565b6000600b5461279a61165f565b61167f9190615acb565b336127ad611baf565b6001600160a01b031614604051806040016040528060018152602001603360f81b815250906127ef5760405162461bcd60e51b815260040161094c91906156f4565b50604080518082019091526002815261363360f01b60208201526001600160a01b0382166128305760405162461bcd60e51b815260040161094c91906156f4565b50600580546001600160a01b0319166001600160a01b0392909216919091179055565b3361285c611baf565b6001600160a01b031614604051806040016040528060018152602001603360f81b8152509061289e5760405162461bcd60e51b815260040161094c91906156f4565b50600754604080518082019091526002815261363560f01b60208201529063ffffffff808416600160a01b9092041611156128ec5760405162461bcd60e51b815260040161094c91906156f4565b506007805463ffffffff909216600160c01b0263ffffffff60c01b19909216919091179055565b60606013805480602002602001604051908101604052809291908181526020018280548015610ab157602002820191906000526020600020905b81546001600160a01b0316815260019091019060200180831161294d575050505050905090565b600061298183338461456c565b9392505050565b6000818152601160205260408120805460018201546129a690614249565b6129819190615acb565b336129b9611baf565b6001600160a01b031614604051806040016040528060018152602001603360f81b815250906129fb5760405162461bcd60e51b815260040161094c91906156f4565b50604080518082019091526002815261373160f01b60208201526001600160a01b038216612a3c5760405162461bcd60e51b815260040161094c91906156f4565b5061256d81614699565b33612a4f611baf565b6001600160a01b031614604051806040016040528060018152602001603360f81b81525090612a915760405162461bcd60e51b815260040161094c91906156f4565b50612a9a611b8e565b6001600160a01b03166399a88ec430836040518363ffffffff1660e01b8152600401610d7c9291906156da565b33612ad0611baf565b6001600160a01b031614604051806040016040528060018152602001603360f81b81525090612b125760405162461bcd60e51b815260040161094c91906156f4565b5081612b1d81611b64565b604051806040016040528060018152602001601b60f91b81525090612b555760405162461bcd60e51b815260040161094c91906156f4565b50604080518082019091526002815261363760f01b602082015261138861ffff84161115612b965760405162461bcd60e51b815260040161094c91906156f4565b50506001600160a01b039091166000908152601260205260409020600101805461ffff909216600160e01b0261ffff60e01b19909216919091179055565b33612bdd611baf565b6001600160a01b031614604051806040016040528060018152602001603360f81b81525090612c1f5760405162461bcd60e51b815260040161094c91906156f4565b5081612c2a81611b64565b604051806040016040528060018152602001601b60f91b81525090612c625760405162461bcd60e51b815260040161094c91906156f4565b50612c6b611b8e565b6001600160a01b03166399a88ec484846040518363ffffffff1660e01b8152600401612c989291906156da565b600060405180830381600087803b158015612cb257600080fd5b505af1158015612cc6573d6000803e3d6000fd5b50505050505050565b600354604080518082019091526002815261373560f01b602082015290600160c01b900460ff1615612d145760405162461bcd60e51b815260040161094c91906156f4565b50612d1e83611049565b604051806040016040528060028152602001610d0d60f21b81525090612d575760405162461bcd60e51b815260040161094c91906156f4565b50600084815260106020908152604091829020805483518085019094526002845261068760f31b9284019290925291906001600160701b0316612dad5760405162461bcd60e51b815260040161094c91906156f4565b50805460138054600092600160701b900461ffff16908110612ddf57634e487b7160e01b600052603260045260246000fd5b6000918252602090912001546001600160a01b03169050612e008184612734565b60405180604001604052806002815260200161343560f01b81525090612e395760405162461bcd60e51b815260040161094c91906156f4565b5081544290612e56908590600160a01b900463ffffffff16615a00565b63ffffffff16101560405180604001604052806002815260200161343960f01b81525090612e975760405162461bcd60e51b815260040161094c91906156f4565b508154600b80546001600160701b0390921691600090612eb8908490615acb565b909155505081546000908190612edb90849089906001600160701b031688614323565b508554600b80546001600160701b03909216909101905590925090506000612f0382846159bd565b6001600160701b031690508681111560405180604001604052806002815260200161343760f01b81525090612f4b5760405162461bcd60e51b815260040161094c91906156f4565b50612f616001600160a01b0389163330846144dd565b6001600160a01b0380851660009081526012602052604090206001015482918a811691161461309d5760055460405163095ea7b360e01b81526001600160a01b038b81169263095ea7b392612fbe92909116908690600401615651565b602060405180830381600087803b158015612fd857600080fd5b505af1158015612fec573d6000803e3d6000fd5b505050506040513d601f19601f820116820180604052508101906130109190614fe3565b5060055460005460405163029b465d60e01b81526001600160a01b039283169263029b465d92613048928e92889216906004016156b7565b602060405180830381600087803b15801561306257600080fd5b505af1158015613076573d6000803e3d6000fd5b505050506040513d601f19601f8201168201806040525081019061309a9190615505565b90505b6000826130b3836001600160701b038716615a3f565b6130bd9190615a1f565b6007546000549192506130dd916001600160a01b0390811691168361426b565b60006130e98284615acb565b90506130f48161477c565b8754600160a01b900463ffffffff1661310d8a82615a00565b895463ffffffff60a01b1916600160a01b63ffffffff928316810291909117808c55600754613146939083900481169290910416615a00565b895463ffffffff60c01b1916600160c01b63ffffffff928316810291909117808c5560075461318393929004821691600160a01b90910416615a00565b895463ffffffff91909116600160e01b026001600160e01b039091161789556004805460405163f8642f2960e01b81529182018f90526001600160a01b03169063f8642f2990602401600060405180830381600087803b1580156131e657600080fd5b505af11580156131fa573d6000803e3d6000fd5b50505050876001600160a01b0316600080516020615c2e8339815191528e838c60000160149054906101000a900463ffffffff166040516124329392919061594a565b6000613247611baf565b6001600160a01b031614604051806040016040528060018152602001601960f91b815250906132895760405162461bcd60e51b815260040161094c91906156f4565b50604080518082019091526002815261373360f01b60208201526001600160a01b0382166132ca5760405162461bcd60e51b815260040161094c91906156f4565b50600080516020615bce83398151915280546001600160a01b0319166001600160a01b038316908117909155604051600090600080516020615c0e833981519152908290a350565b61333660405180606001604052806000815260200160008152602001600081525090565b50600090815260116020908152604091829020825160608101845281548152600182015492810192909252600201549181019190915290565b600354604080518082019091526002815261373560f01b602082015290600160c01b900460ff16156133b45760405162461bcd60e51b815260040161094c91906156f4565b50846133bf81611b64565b604051806040016040528060018152602001601b60f91b815250906133f75760405162461bcd60e51b815260040161094c91906156f4565b5061340185611049565b604051806040016040528060028152602001610d0d60f21b8152509061343a5760405162461bcd60e51b815260040161094c91906156f4565b506134458683612734565b60405180604001604052806002815260200161343560f01b8152509061347e5760405162461bcd60e51b815260040161094c91906156f4565b506040805180820190915260028152611b9b60f11b60208201526001600160701b0385166134bf5760405162461bcd60e51b815260040161094c91906156f4565b506134c861278d565b846001600160701b03161115604051806040016040528060028152602001611a1b60f11b8152509061350d5760405162461bcd60e51b815260040161094c91906156f4565b506000806000806135208a8a8a89614323565b95509093509150839050600061353683856159bd565b6001600160701b0316905087856001600160701b03168261355791906159e8565b111560405180604001604052806002815260200161343760f01b815250906135925760405162461bcd60e51b815260040161094c91906156f4565b506135a86001600160a01b038b163330846144dd565b6001600160a01b03808c1660009081526012602052604090206001015482918c81169116146137055760055460405163095ea7b360e01b81526001600160a01b038d81169263095ea7b39261360592909116908690600401615651565b602060405180830381600087803b15801561361f57600080fd5b505af1158015613633573d6000803e3d6000fd5b505050506040513d601f19601f820116820180604052508101906136579190614fe3565b50600560009054906101000a90046001600160a01b03166001600160a01b031663029b465d8c8460008054906101000a90046001600160a01b03166040518463ffffffff1660e01b81526004016136b0939291906156b7565b602060405180830381600087803b1580156136ca57600080fd5b505af11580156136de573d6000803e3d6000fd5b505050506040513d601f19601f820116820180604052508101906137029190615505565b90505b60008261371b836001600160701b038816615a3f565b6137259190615a1f565b600754600054919250613745916001600160a01b0390811691168361426b565b8a6001600160701b0316600b600082825461376091906159e8565b90915550600090506137728284615acb565b905061377d8161477c565b50506002546137aa95506001600160a01b038c81169550339450169150506001600160701b0385166144dd565b4260006137b78583615a00565b90506000600260009054906101000a90046001600160a01b03166001600160a01b031663caa0f92a6040518163ffffffff1660e01b8152600401602060405180830381600087803b15801561380b57600080fd5b505af115801561381f573d6000803e3d6000fd5b505050506040513d601f19601f820116820180604052508101906138439190615505565b60408051610100810182526001600160701b038b1681526001600160a01b038d166000908152601260209081529083902054600160f01b900461ffff169082015263ffffffff8681169282019290925284821660608201526007549293509160808301916138b991600160a01b90041685615a00565b63ffffffff168152602001600760189054906101000a900463ffffffff16846138e29190615a00565b63ffffffff168152602001856001600160701b031681526020016139058b61421c565b61ffff9081169091526000838152601060209081526040918290208451815492860151868501516060880151608089015160a08a01516001600160701b039586166001600160801b031998891617600160701b958b16860217600160801b600160c01b031916600160801b63ffffffff9586160263ffffffff60a01b191617600160a01b93851693909302929092176001600160c01b0316600160c01b918416919091026001600160e01b031617600160e01b929091169190910217835560c08701516001909301805460e0909801519390921696909316959095179316029190911790915560025490516335313c2160e11b815282916001600160a01b031690636a62784290613a1a9033906004016155f7565b602060405180830381600087803b158015613a3457600080fd5b505af1158015613a48573d6000803e3d6000fd5b505050506040513d601f19601f82011682018060405250810190613a6c9190615505565b14613a8757634e487b7160e01b600052600160045260246000fd5b6004805460405163f8642f2960e01b81529182018390526001600160a01b03169063f8642f2990602401600060405180830381600087803b158015613acb57600080fd5b505af1158015613adf573d6000803e3d6000fd5b50505050896001600160a01b0316600080516020615c2e833981519152828585604051613b0e9392919061594a565b60405180910390a250505050505050505050565b600e8054613b2f90615b0e565b6040805180820190915260018152601960f91b6020820152915015613b675760405162461bcd60e51b815260040161094c91906156f4565b50613b718161323d565b81600080516020615bee83398151915280546001600160a01b03929092166001600160a01b031992831617905560038054909116331790558651613bbc90600e9060208a0190614de8565b50613bc9600f8787614d64565b50600480546001600160a01b03199081166001600160a01b0396871617909155600580548216948616949094179093556007805460068054939096169290941682179094556003805463ffffffff60a01b191660e160a61b1790556001600160c01b03199092169091176102a360a61b1763ffffffff60c01b19166102a360c71b1790915550505050565b600081815260106020908152604091829020805483518085019094526002845261068760f31b9284019290925291906001600160701b0316613ca95760405162461bcd60e51b815260040161094c91906156f4565b506002546040516331a9108f60e11b8152600481018490526000916001600160a01b031690636352211e9060240160206040518083038186803b158015613cef57600080fd5b505afa158015613d03573d6000803e3d6000fd5b505050506040513d601f19601f82011682018060405250810190613d279190614f87565b8254909150429063ffffffff808316600160c01b909204161080613d535750336001600160a01b038316145b60405180604001604052806002815260200161353360f01b81525090613d8c5760405162461bcd60e51b815260040161094c91906156f4565b50825463ffffffff808316600160e01b909204161080613db45750336001600160a01b038316145b80613dc957506006546001600160a01b031633145b604051806040016040528060028152602001610d4d60f21b81525090613e025760405162461bcd60e51b815260040161094c91906156f4565b50600354600160c01b900460ff16613e3a578254600b80546001600160701b0390921691600090613e34908490615acb565b90915550505b600254604051633f34d4cf60e21b8152600481018690523360248201526001600160a01b039091169063fcd3533c90604401600060405180830381600087803b158015613e8657600080fd5b505af1158015613e9a573d6000803e3d6000fd5b50505060009485525050601060205250506040812090815560010180546001600160801b0319169055565b33613ece611baf565b6001600160a01b031614604051806040016040528060018152602001603360f81b81525090613f105760405162461bcd60e51b815260040161094c91906156f4565b506040805180820190915260028152611b1b60f11b602082015263ffffffff8216613f4e5760405162461bcd60e51b815260040161094c91906156f4565b506003805463ffffffff909216600160a01b0263ffffffff60a01b19909216919091179055565b6000546040805180820190915260018152601960f91b6020820152906001600160a01b031615613fb85760405162461bcd60e51b815260040161094c91906156f4565b50600080546001600160a01b038086166001600160a01b03199283161790925560018054858416908316179055600280549284169290911691909117905561272f83614699565b33614008611baf565b6001600160a01b031614604051806040016040528060018152602001603360f81b8152509061404a5760405162461bcd60e51b815260040161094c91906156f4565b50604080518082019091526002815261373360f01b60208201526001600160a01b03821661408b5760405162461bcd60e51b815260040161094c91906156f4565b50806001600160a01b031661409e611baf565b6001600160a01b0316600080516020615c0e83398151915260405160405180910390a3600080516020615bce83398151915280546001600160a01b0319166001600160a01b0392909216919091179055565b336140f9611baf565b6001600160a01b031614604051806040016040528060018152602001603360f81b8152509061413b5760405162461bcd60e51b815260040161094c91906156f4565b508061414681611b64565b604051806040016040528060018152602001601b60f91b8152509061417e5760405162461bcd60e51b815260040161094c91906156f4565b506001600160a01b0382166000908152601260209081526040918290206001015482518084019093526002835261037360f41b91830191909152600160f01b900460ff16156141e05760405162461bcd60e51b815260040161094c91906156f4565b50506001600160a01b03166000908152601260205260409020600101805460ff60f01b1916600160f01b179055565b600061278584848461456c565b6001600160a01b03811660009081526008602052604081205461424390600190810b615a5e565b92915050565b6000600d548261425761165f565b6142619190615a3f565b6142439190615a1f565b61272f8363a9059cbb60e01b848460405160240161428a929190615651565b60408051601f198184030181529190526020810180516001600160e01b03166001600160e01b031990931692909217909152614801565b60006142cb61165f565b82600d546142619190615a3f565b80600a54106142ee57600a8054829003905550565b60006142f86148d3565b6001600160701b031690508181600a5461431291906159e8565b61431c9190615acb565b600a555050565b60048054604051630641977d60e21b81526001600160a01b03878116938201939093526001600160701b038516602482015263ffffffff84166044820152600092839283928392909116906319065df49060640160206040518083038186803b15801561438f57600080fd5b505afa1580156143a3573d6000803e3d6000fd5b505050506040513d601f19601f820116820180604052508101906143c791906154b7565b905060006143d58983614959565b6005546001600160a01b038b81166000908152601260205260408082206001015490516314fdc96760e11b815290831660048201526001600160701b03871660248201528c83166044820152939450929116906329fb92ce9060640160206040518083038186803b15801561444957600080fd5b505afa15801561445d573d6000803e3d6000fd5b505050506040513d601f19601f820116820180604052508101906144819190615505565b9050826001600160701b031681836001600160701b03166144a29190615a3f565b6144ac9190615a1f565b94506144c16001600160701b03861682615acb565b95506144ce8a8a8a6149a1565b93505050509450945094915050565b6144fe846323b872dd60e01b85858560405160240161428a9392919061560b565b50505050565b600c5460009061454f9063ffffffff600160e01b82041690614539906001600160701b0380821691600160701b900416615aa3565b600354600160a01b900463ffffffff1642614ab8565b600c5461167f9190600160701b90046001600160701b0316615aa3565b600354604080518082019091526002815261373560f01b6020820152600091600160c01b900460ff16156145b35760405162461bcd60e51b815260040161094c91906156f4565b506001600160a01b03841660009081526012602090815260409182902060019081015483518085019094526002845261353160f01b92840192909252600160f01b90910460ff1615151461461a5760405162461bcd60e51b815260040161094c91906156f4565b5060005460405163a1571a5760e01b81526001600160a01b0391821660048201523360248201528482166044820152606481018490529085169063a1571a5790608401600060405180830381600087803b15801561467757600080fd5b505af115801561468b573d6000803e3d6000fd5b506001979650505050505050565b6001600160a01b038116600090815260086020526040902054600190810b900b6147315760098054600180820183557f6e1540171b6c0c960b71a7020d9f60077f6af931a8bbf590da0223dacf75c7af90910180546001600160a01b0319166001600160a01b039490941693841790559054600092835260086020526040909220805461ffff191661ffff9390920b92909216179055565b6001600160a01b038116600090815260086020526040812054600190810b900b121561256d576001600160a01b03811660009081526008602052604090205461253b9060010b615b49565b614784614504565b600c80546001600160701b0319166001600160701b03928316178082558392600e916147b9918591600160701b9004166159bd565b92506101000a8154816001600160701b0302191690836001600160701b0316021790555042600c601c6101000a81548163ffffffff021916908363ffffffff16021790555050565b6000614856826040518060400160405280602081526020017f5361666545524332303a206c6f772d6c6576656c2063616c6c206661696c6564815250856001600160a01b0316614c599092919063ffffffff16565b80519091501561272f57808060200190518101906148749190614fe3565b61272f5760405162461bcd60e51b815260206004820152602a60248201527f5361666545524332303a204552433230206f7065726174696f6e20646964206e6044820152691bdd081cdd58d8d9595960b21b606482015260840161094c565b60006148dd614504565b600c80546001600160701b0319168082559192508291600e90614911908490600160701b90046001600160701b0316615aa3565b92506101000a8154816001600160701b0302191690836001600160701b0316021790555042600c601c6101000a81548163ffffffff021916908363ffffffff16021790555090565b6001600160a01b0382166000908152601260205260408120600101546127109061499790600160e01b900461ffff166001600160701b038516615a3f565b6129819190615a1f565b6007546000908190612710906149cb90600160e01b900461ffff166001600160701b038616615a3f565b6149d59190615a1f565b6005546001600160a01b038781166000908152601260205260408082206001810154905491516314fdc96760e11b81529084166004820152600160701b9091046001600160601b031660248201528883166044820152939450929116906329fb92ce9060640160206040518083038186803b158015614a5357600080fd5b505afa158015614a67573d6000803e3d6000fd5b505050506040513d601f19601f82011682018060405250810190614a8b9190615505565b9050806001600160701b0316826001600160701b031610614aac5781614aae565b805b9695505050505050565b60008463ffffffff168263ffffffff161015604051806040016040528060018152602001600760fb1b81525090614b025760405162461bcd60e51b815260040161094c91906156f4565b5084820391508263ffffffff168263ffffffff1681614b3157634e487b7160e01b600052601260045260246000fd5b0463ffffffff16846001600160701b0316901c93508263ffffffff168263ffffffff1681614b6f57634e487b7160e01b600052601260045260246000fd5b06915063ffffffff82161580614b8c57506001600160701b038416155b15614b98575082612785565b60006001600160701b0385168163ffffffff86811690861671b17217f7d1cf79abc9e3b39803f2f6af40f30281614bdf57634e487b7160e01b600052601260045260246000fd5b049050600160901b5b8215614c4c57928201928082840281614c1157634e487b7160e01b600052601260045260246000fd5b0493849003939250600160901b018082840281614c3e57634e487b7160e01b600052601260045260246000fd5b049250600160901b01614be8565b5091979650505050505050565b6060612785848460008585843b614cb25760405162461bcd60e51b815260206004820152601d60248201527f416464726573733a2063616c6c20746f206e6f6e2d636f6e7472616374000000604482015260640161094c565b600080866001600160a01b03168587604051614cce919061559f565b60006040518083038185875af1925050503d8060008114614d0b576040519150601f19603f3d011682016040523d82523d6000602084013e614d10565b606091505b5091509150614d20828286614d2b565b979650505050505050565b60608315614d3a575081612981565b825115614d4a5782518084602001fd5b8160405162461bcd60e51b815260040161094c91906156f4565b828054614d7090615b0e565b90600052602060002090601f016020900481019282614d925760008555614dd8565b82601f10614dab5782800160ff19823516178555614dd8565b82800160010185558215614dd8579182015b82811115614dd8578235825591602001919060010190614dbd565b50614de4929150614e5c565b5090565b828054614df490615b0e565b90600052602060002090601f016020900481019282614e165760008555614dd8565b82601f10614e2f57805160ff1916838001178555614dd8565b82800160010185558215614dd8579182015b82811115614dd8578251825591602001919060010190614e41565b5b80821115614de45760008155600101614e5d565b8035614e7c81615baa565b919050565b8035614e7c81615b95565b60008083601f840112614e9d578182fd5b5081356001600160401b03811115614eb3578182fd5b602083019150836020828501011115614ecb57600080fd5b9250929050565b600082601f830112614ee2578081fd5b8135614ef5614ef082615996565b615966565b818152846020838601011115614f09578283fd5b816020850160208301379081016020019190915292915050565b8035614e7c81615bb8565b803561ffff81168114614e7c57600080fd5b803563ffffffff81168114614e7c57600080fd5b80356001600160601b0381168114614e7c57600080fd5b600060208284031215614f7c578081fd5b813561298181615b95565b600060208284031215614f98578081fd5b815161298181615b95565b600080600060608486031215614fb7578182fd5b8335614fc281615b95565b92506020840135614fd281615b95565b929592945050506040919091013590565b600060208284031215614ff4578081fd5b815161298181615baa565b600080600060608486031215615013578283fd5b833561501e81615b95565b9250602084013561502e81615b95565b9150604084013561503e81615b95565b809150509250925092565b6000806040838503121561505b578182fd5b823561506681615b95565b9150602083013561507681615b95565b809150509250929050565b600080600060608486031215614fb7578081fd5b600080600080600060a086880312156150ac578283fd5b85356150b781615b95565b945060208601356150c781615b95565b935060408601356150d781615bb8565b9250606086013591506150ec60808701614f40565b90509295509295909350565b6000806000806080858703121561510d578182fd5b843561511881615b95565b9350602085013561512881615b95565b9250604085013561513881615bb8565b915061514660608601614f40565b905092959194509250565b60008060008060808587031215615166578182fd5b843561517181615b95565b9350602085013561518181615bb8565b9250604085013561519181615b95565b915061514660608601614f54565b600080604083850312156151b1578182fd5b82356151bc81615b95565b91506151ca60208401614f2e565b90509250929050565b600080604083850312156151e5578182fd5b82356151f081615b95565b946020939093013593505050565b60008060408385031215615210578182fd5b823561521b81615b95565b91506151ca60208401614f40565b60008060006060848603121561523d578081fd5b833561524881615b95565b925061525660208501614f40565b915061526460408501614f40565b90509250925092565b6000806020838503121561527f578182fd5b82356001600160401b03811115615294578283fd5b6152a085828601614e8c565b90969095509350505050565b6000602082840312156152bd578081fd5b81516001600160401b038111156152d2578182fd5b8201601f810184136152e2578182fd5b80516152f0614ef082615996565b818152856020838501011115615304578384fd5b615315826020830160208601615ae2565b95945050505050565b600080600080600080600060c0888a031215615338578485fd5b87356001600160401b038082111561534e578687fd5b61535a8b838c01614ed2565b985060208a013591508082111561536f578687fd5b5061537c8a828b01614e8c565b909750955050604088013561539081615b95565b935060608801356153a081615b95565b925060808801356153b081615b95565b915060a08801356153c081615b95565b8091505092959891949750929550565b6000806000806000806000806000806101408b8d0312156153ef578384fd5b8a356001600160401b0380821115615405578586fd5b6154118e838f01614ed2565b9b5060208d0135915080821115615426578586fd5b506154338d828e01614ed2565b99505061544260408c01614f40565b975061545060608c01614f23565b965061545e60808c01614e81565b955061546c60a08c01614f2e565b945061547a60c08c01614f40565b935061548860e08c01614f40565b92506154976101008c01614f54565b91506154a66101208c01614e71565b90509295989b9194979a5092959850565b6000602082840312156154c8578081fd5b815161298181615bb8565b6000602082840312156154e4578081fd5b61298182614f2e565b6000602082840312156154fe578081fd5b5035919050565b600060208284031215615516578081fd5b5051919050565b60008060008060808587031215615532578182fd5b84359350602085013561554481615b95565b92506040850135915061514660608601614f40565b60006020828403121561556a578081fd5b61298182614f40565b6000815180845261558b816020860160208601615ae2565b601f01601f19169290920160200192915050565b600082516155b1818460208701615ae2565b9190910192915050565b600083516155cd818460208801615ae2565b600160fd1b90830190815283516155eb816001840160208801615ae2565b01600101949350505050565b6001600160a01b0391909116815260200190565b6001600160a01b039384168152919092166020820152604081019190915260600190565b6001600160a01b039290921682526001600160701b0316602082015260400190565b6001600160a01b03929092168252602082015260400190565b6020808252825182820181905260009190848201906040850190845b818110156156ab5783516001600160a01b031683529284019291840191600101615686565b50909695505050505050565b6001600160a01b0393841681526020810192909252909116604082015260600190565b6001600160a01b0392831681529116602082015260400190565b6020815260006129816020830184615573565b60608152600061571a6060830186615573565b828103602084015261572c8186615573565b91505060018060a01b0383166040830152949350505050565b600061016080835261575981840187615573565b9050828103602084015261576d8186615573565b84516001600160701b031660408581019190915260208601516001600160601b0316606086015285015163ffffffff81166080860152909250905050606083015161ffff811660a08401525060808301516001600160a01b03811660c08401525060a083015163ffffffff811660e08401525060c08301516101006157f98185018363ffffffff169052565b60e085015161ffff166101208501528401518015156101408501529050610ef8565b6101808152600061583061018083018f615573565b8281036020840152615842818f615573565b604084018e905263ffffffff8d811660608601528c811660808601528b1660a085015261ffff8a1660c085015260e0840189905261010084018890526001600160701b03878116610120860152861661014085015291506158a09050565b63ffffffff83166101608301529d9c50505050505050505050505050565b81516001600160701b0316815260208083015161ffff169082015260408083015163ffffffff9081169183019190915260608084015182169083015260808084015182169083015260a080840151918216908301526101008201905060c083015161593460c08401826001600160701b03169052565b5060e083015161111e60e084018261ffff169052565b92835263ffffffff918216602084015216604082015260600190565b604051601f8201601f191681016001600160401b038111828210171561598e5761598e615b7f565b604052919050565b60006001600160401b038211156159af576159af615b7f565b50601f01601f191660200190565b60006001600160701b038281168482168083038211156159df576159df615b69565b01949350505050565b600082198211156159fb576159fb615b69565b500190565b600063ffffffff8083168185168083038211156159df576159df615b69565b600082615a3a57634e487b7160e01b81526012600452602481fd5b500490565b6000816000190483118215151615615a5957615a59615b69565b500290565b60008160010b8360010b82811281617fff1901831281151615615a8357615a83615b69565b81617fff018313811615615a9957615a99615b69565b5090039392505050565b60006001600160701b0383811690831681811015615ac357615ac3615b69565b039392505050565b600082821015615add57615add615b69565b500390565b60005b83811015615afd578181015183820152602001615ae5565b838111156144fe5750506000910152565b600181811c90821680615b2257607f821691505b60208210811415615b4357634e487b7160e01b600052602260045260246000fd5b50919050565b60008160010b617fff19811415615b6257615b62615b69565b9003919050565b634e487b7160e01b600052601160045260246000fd5b634e487b7160e01b600052604160045260246000fd5b6001600160a01b038116811461256d57600080fd5b801515811461256d57600080fd5b6001600160701b038116811461256d57600080fdfe4f471908b72bb76dae5bd24599026e7bf3ddb256497722888ffa422f83729eded1248cccb5fef9131c731321e43e9a924840ffee7dc68c7d1d3e5cb7dedcae038be0079c531659141344cd1fd0a4f28419497f9722a3daafe3b4186f6b6457e09853650269815e203c5c9e228db9ca05cc6037f2c2723c94ed3260cf98324c99a26469706673582212207138d3c2901e2fb45b2ac7ba7bfe162dc4fd3199221657df34d730317cefa85e64736f6c63430008040033",
  "linkReferences": {},
  "deployedLinkReferences": {}
}