{
  "_format": "hh-sol-artifact-1",
  "contractName": "Enterprise",
  "sourceName": "contracts/Enterprise.sol",
  "abi": [
    {
      "anonymous": false,
      "inputs": [
        {
          "indexed": false,
          "internalType": "string",
          "name": "baseUri",
          "type": "string"
        }
      ],
      "name": "BaseUriChanged",
      "type": "event"
    },
    {
      "anonymous": false,
      "inputs": [
        {
          "indexed": false,
          "internalType": "uint256",
          "name": "pole",
          "type": "uint256"
        },
        {
          "indexed": false,
          "internalType": "uint256",
          "name": "slope",
          "type": "uint256"
        }
      ],
      "name": "BondingChanged",
      "type": "event"
    },
    {
      "anonymous": false,
      "inputs": [
        {
          "indexed": true,
          "internalType": "uint256",
          "name": "borrowTokenId",
          "type": "uint256"
        },
        {
          "indexed": true,
          "internalType": "address",
          "name": "borrower",
          "type": "address"
        },
        {
          "indexed": true,
          "internalType": "address",
          "name": "powerToken",
          "type": "address"
        },
        {
          "indexed": false,
          "internalType": "address",
          "name": "paymentToken",
          "type": "address"
        },
        {
          "indexed": false,
          "internalType": "uint112",
          "name": "amount",
          "type": "uint112"
        },
        {
          "indexed": false,
          "internalType": "uint112",
          "name": "interest",
          "type": "uint112"
        },
        {
          "indexed": false,
          "internalType": "uint112",
          "name": "serviceFee",
          "type": "uint112"
        },
        {
          "indexed": false,
          "internalType": "uint112",
          "name": "gcFee",
          "type": "uint112"
        },
        {
          "indexed": false,
          "internalType": "uint32",
          "name": "borrowingTime",
          "type": "uint32"
        },
        {
          "indexed": false,
          "internalType": "uint32",
          "name": "maturityTime",
          "type": "uint32"
        },
        {
          "indexed": false,
          "internalType": "uint32",
          "name": "borrowerReturnGraceTime",
          "type": "uint32"
        },
        {
          "indexed": false,
          "internalType": "uint32",
          "name": "enterpriseCollectGraceTime",
          "type": "uint32"
        },
        {
          "indexed": false,
          "internalType": "uint256",
          "name": "reserve",
          "type": "uint256"
        },
        {
          "indexed": false,
          "internalType": "uint256",
          "name": "usedReserve",
          "type": "uint256"
        }
      ],
      "name": "Borrowed",
      "type": "event"
    },
    {
      "anonymous": false,
      "inputs": [
        {
          "indexed": false,
          "internalType": "uint32",
          "name": "period",
          "type": "uint32"
        }
      ],
      "name": "BorrowerLoanReturnGracePeriodChanged",
      "type": "event"
    },
    {
      "anonymous": false,
      "inputs": [
        {
          "indexed": false,
          "internalType": "address",
          "name": "converter",
          "type": "address"
        }
      ],
      "name": "ConverterChanged",
      "type": "event"
    },
    {
      "anonymous": false,
      "inputs": [
        {
          "indexed": false,
          "internalType": "address",
          "name": "collector",
          "type": "address"
        }
      ],
      "name": "EnterpriseCollectorChanged",
      "type": "event"
    },
    {
      "anonymous": false,
      "inputs": [
        {
          "indexed": false,
          "internalType": "uint32",
          "name": "period",
          "type": "uint32"
        }
      ],
      "name": "EnterpriseLoanCollectGracePeriodChanged",
      "type": "event"
    },
    {
      "anonymous": false,
      "inputs": [],
      "name": "EnterpriseShutdown",
      "type": "event"
    },
    {
      "anonymous": false,
      "inputs": [
        {
          "indexed": false,
          "internalType": "address",
          "name": "vault",
          "type": "address"
        }
      ],
      "name": "EnterpriseVaultChanged",
      "type": "event"
    },
    {
      "anonymous": false,
      "inputs": [
        {
          "indexed": false,
          "internalType": "uint256",
          "name": "fixedReserve",
          "type": "uint256"
        }
      ],
      "name": "FixedReserveChanged",
      "type": "event"
    },
    {
      "anonymous": false,
      "inputs": [
        {
          "indexed": false,
          "internalType": "uint16",
          "name": "percent",
          "type": "uint16"
        }
      ],
      "name": "GcFeePercentChanged",
      "type": "event"
    },
    {
      "anonymous": false,
      "inputs": [
        {
          "indexed": false,
          "internalType": "uint32",
          "name": "period",
          "type": "uint32"
        }
      ],
      "name": "InterestGapHalvingPeriodChanged",
      "type": "event"
    },
    {
      "anonymous": false,
      "inputs": [
        {
          "indexed": true,
          "internalType": "uint256",
          "name": "interestTokenId",
          "type": "uint256"
        },
        {
          "indexed": true,
          "internalType": "address",
          "name": "liquidityProvider",
          "type": "address"
        },
        {
          "indexed": true,
          "internalType": "enum Enterprise.LiquidityChangeType",
          "name": "changeType",
          "type": "uint8"
        },
        {
          "indexed": false,
          "internalType": "uint256",
          "name": "amountDelta",
          "type": "uint256"
        },
        {
          "indexed": false,
          "internalType": "uint256",
          "name": "amount",
          "type": "uint256"
        },
        {
          "indexed": false,
          "internalType": "uint256",
          "name": "shares",
          "type": "uint256"
        },
        {
          "indexed": false,
          "internalType": "uint256",
          "name": "totalShares",
          "type": "uint256"
        },
        {
          "indexed": false,
          "internalType": "uint256",
          "name": "reserve",
          "type": "uint256"
        },
        {
          "indexed": false,
          "internalType": "uint256",
          "name": "usedReserve",
          "type": "uint256"
        }
      ],
      "name": "LiquidityChanged",
      "type": "event"
    },
    {
      "anonymous": false,
      "inputs": [
        {
          "indexed": true,
          "internalType": "uint256",
          "name": "borrowTokenId",
          "type": "uint256"
        },
        {
          "indexed": true,
          "internalType": "address",
          "name": "borrower",
          "type": "address"
        },
        {
          "indexed": false,
          "internalType": "address",
          "name": "paymentToken",
          "type": "address"
        },
        {
          "indexed": false,
          "internalType": "uint112",
          "name": "interest",
          "type": "uint112"
        },
        {
          "indexed": false,
          "internalType": "uint112",
          "name": "serviceFee",
          "type": "uint112"
        },
        {
          "indexed": false,
          "internalType": "uint32",
          "name": "maturityTime",
          "type": "uint32"
        },
        {
          "indexed": false,
          "internalType": "uint32",
          "name": "borrowerReturnGraceTime",
          "type": "uint32"
        },
        {
          "indexed": false,
          "internalType": "uint32",
          "name": "enterpriseCollectGraceTime",
          "type": "uint32"
        }
      ],
      "name": "LoanExtended",
      "type": "event"
    },
    {
      "anonymous": false,
      "inputs": [
        {
          "indexed": true,
          "internalType": "uint256",
          "name": "borrowTokenId",
          "type": "uint256"
        },
        {
          "indexed": true,
          "internalType": "address",
          "name": "returner",
          "type": "address"
        },
        {
          "indexed": true,
          "internalType": "address",
          "name": "powerToken",
          "type": "address"
        },
        {
          "indexed": false,
          "internalType": "uint112",
          "name": "amount",
          "type": "uint112"
        },
        {
          "indexed": false,
          "internalType": "uint112",
          "name": "gcFee",
          "type": "uint112"
        },
        {
          "indexed": false,
          "internalType": "address",
          "name": "gcFeeToken",
          "type": "address"
        },
        {
          "indexed": false,
          "internalType": "uint256",
          "name": "reserve",
          "type": "uint256"
        },
        {
          "indexed": false,
          "internalType": "uint256",
          "name": "usedReserve",
          "type": "uint256"
        }
      ],
      "name": "LoanReturned",
      "type": "event"
    },
    {
      "anonymous": false,
      "inputs": [
        {
          "indexed": true,
          "internalType": "address",
          "name": "previousOwner",
          "type": "address"
        },
        {
          "indexed": true,
          "internalType": "address",
          "name": "newOwner",
          "type": "address"
        }
      ],
      "name": "OwnershipTransferred",
      "type": "event"
    },
    {
      "anonymous": false,
      "inputs": [
        {
          "indexed": false,
          "internalType": "address",
          "name": "paymentToken",
          "type": "address"
        },
        {
          "indexed": false,
          "internalType": "bool",
          "name": "enabled",
          "type": "bool"
        }
      ],
      "name": "PaymentTokenChange",
      "type": "event"
    },
    {
      "anonymous": false,
      "inputs": [
        {
          "indexed": true,
          "internalType": "address",
          "name": "powerToken",
          "type": "address"
        }
      ],
      "name": "ServiceRegistered",
      "type": "event"
    },
    {
      "anonymous": false,
      "inputs": [
        {
          "indexed": false,
          "internalType": "uint112",
          "name": "streamingReserve",
          "type": "uint112"
        },
        {
          "indexed": false,
          "internalType": "uint112",
          "name": "streamingReserveTarget",
          "type": "uint112"
        }
      ],
      "name": "StreamingReserveChanged",
      "type": "event"
    },
    {
      "inputs": [
        {
          "internalType": "uint256",
          "name": "liquidityAmount",
          "type": "uint256"
        }
      ],
      "name": "addLiquidity",
      "outputs": [],
      "stateMutability": "nonpayable",
      "type": "function"
    },
    {
      "inputs": [
        {
          "internalType": "contract PowerToken",
          "name": "powerToken",
          "type": "address"
        },
        {
          "internalType": "contract IERC20",
          "name": "paymentToken",
          "type": "address"
        },
        {
          "internalType": "uint112",
          "name": "loanAmount",
          "type": "uint112"
        },
        {
          "internalType": "uint32",
          "name": "duration",
          "type": "uint32"
        },
        {
          "internalType": "uint256",
          "name": "maxPayment",
          "type": "uint256"
        }
      ],
      "name": "borrow",
      "outputs": [],
      "stateMutability": "nonpayable",
      "type": "function"
    },
    {
      "inputs": [
        {
          "internalType": "uint256",
          "name": "interestTokenId",
          "type": "uint256"
        },
        {
          "internalType": "uint256",
          "name": "liquidityAmount",
          "type": "uint256"
        }
      ],
      "name": "decreaseLiquidity",
      "outputs": [],
      "stateMutability": "nonpayable",
      "type": "function"
    },
    {
      "inputs": [
        {
          "internalType": "address",
          "name": "token",
          "type": "address"
        }
      ],
      "name": "disablePaymentToken",
      "outputs": [],
      "stateMutability": "nonpayable",
      "type": "function"
    },
    {
      "inputs": [
        {
          "internalType": "address",
          "name": "token",
          "type": "address"
        }
      ],
      "name": "enablePaymentToken",
      "outputs": [],
      "stateMutability": "nonpayable",
      "type": "function"
    },
    {
      "inputs": [
        {
          "internalType": "contract PowerToken",
          "name": "powerToken",
          "type": "address"
        },
        {
          "internalType": "contract IERC20",
          "name": "paymentToken",
          "type": "address"
        },
        {
          "internalType": "uint112",
          "name": "amount",
          "type": "uint112"
        },
        {
          "internalType": "uint32",
          "name": "duration",
          "type": "uint32"
        }
      ],
      "name": "estimateLoan",
      "outputs": [
        {
          "internalType": "uint256",
          "name": "",
          "type": "uint256"
        }
      ],
      "stateMutability": "view",
      "type": "function"
    },
    {
      "inputs": [
        {
          "internalType": "uint256",
          "name": "interestTokenId",
          "type": "uint256"
        }
      ],
      "name": "getAccruedInterest",
      "outputs": [
        {
          "internalType": "uint256",
          "name": "",
          "type": "uint256"
        }
      ],
      "stateMutability": "view",
      "type": "function"
    },
    {
      "inputs": [],
      "name": "getAvailableReserve",
      "outputs": [
        {
          "internalType": "uint256",
          "name": "",
          "type": "uint256"
        }
      ],
      "stateMutability": "view",
      "type": "function"
    },
    {
      "inputs": [],
      "name": "getBaseUri",
      "outputs": [
        {
          "internalType": "string",
          "name": "",
          "type": "string"
        }
      ],
      "stateMutability": "view",
      "type": "function"
    },
    {
      "inputs": [],
      "name": "getBondingCurve",
      "outputs": [
        {
          "internalType": "uint256",
          "name": "pole",
          "type": "uint256"
        },
        {
          "internalType": "uint256",
          "name": "slope",
          "type": "uint256"
        }
      ],
      "stateMutability": "view",
      "type": "function"
    },
    {
      "inputs": [],
      "name": "getBorrowToken",
      "outputs": [
        {
          "internalType": "contract IBorrowToken",
          "name": "",
          "type": "address"
        }
      ],
      "stateMutability": "view",
      "type": "function"
    },
    {
      "inputs": [],
      "name": "getBorrowerLoanReturnGracePeriod",
      "outputs": [
        {
          "internalType": "uint32",
          "name": "",
          "type": "uint32"
        }
      ],
      "stateMutability": "view",
      "type": "function"
    },
    {
      "inputs": [],
      "name": "getConverter",
      "outputs": [
        {
          "internalType": "contract IConverter",
          "name": "",
          "type": "address"
        }
      ],
      "stateMutability": "view",
      "type": "function"
    },
    {
      "inputs": [],
      "name": "getEnterpriseCollector",
      "outputs": [
        {
          "internalType": "address",
          "name": "",
          "type": "address"
        }
      ],
      "stateMutability": "view",
      "type": "function"
    },
    {
      "inputs": [],
      "name": "getEnterpriseLoanCollectGracePeriod",
      "outputs": [
        {
          "internalType": "uint32",
          "name": "",
          "type": "uint32"
        }
      ],
      "stateMutability": "view",
      "type": "function"
    },
    {
      "inputs": [],
      "name": "getEnterpriseVault",
      "outputs": [
        {
          "internalType": "address",
          "name": "",
          "type": "address"
        }
      ],
      "stateMutability": "view",
      "type": "function"
    },
    {
      "inputs": [],
      "name": "getGCFeePercent",
      "outputs": [
        {
          "internalType": "uint16",
          "name": "",
          "type": "uint16"
        }
      ],
      "stateMutability": "view",
      "type": "function"
    },
    {
      "inputs": [],
      "name": "getInfo",
      "outputs": [
        {
          "internalType": "string",
          "name": "name",
          "type": "string"
        },
        {
          "internalType": "string",
          "name": "baseUri",
          "type": "string"
        },
        {
          "internalType": "uint256",
          "name": "totalShares",
          "type": "uint256"
        },
        {
          "internalType": "uint32",
          "name": "interestGapHalvingPeriod",
          "type": "uint32"
        },
        {
          "internalType": "uint32",
          "name": "borrowerLoanReturnGracePeriod",
          "type": "uint32"
        },
        {
          "internalType": "uint32",
          "name": "enterpriseLoanCollectGracePeriod",
          "type": "uint32"
        },
        {
          "internalType": "uint16",
          "name": "gcFeePercent",
          "type": "uint16"
        },
        {
          "internalType": "uint256",
          "name": "fixedReserve",
          "type": "uint256"
        },
        {
          "internalType": "uint256",
          "name": "usedReserve",
          "type": "uint256"
        },
        {
          "internalType": "uint112",
          "name": "streamingReserve",
          "type": "uint112"
        },
        {
          "internalType": "uint112",
          "name": "streamingReserveTarget",
          "type": "uint112"
        },
        {
          "internalType": "uint32",
          "name": "streamingReserveUpdated",
          "type": "uint32"
        }
      ],
      "stateMutability": "view",
      "type": "function"
    },
    {
      "inputs": [],
      "name": "getInterestGapHalvingPeriod",
      "outputs": [
        {
          "internalType": "uint32",
          "name": "",
          "type": "uint32"
        }
      ],
      "stateMutability": "view",
      "type": "function"
    },
    {
      "inputs": [],
      "name": "getInterestToken",
      "outputs": [
        {
          "internalType": "contract IInterestToken",
          "name": "",
          "type": "address"
        }
      ],
      "stateMutability": "view",
      "type": "function"
    },
    {
      "inputs": [
        {
          "internalType": "uint256",
          "name": "interestTokenId",
          "type": "uint256"
        }
      ],
      "name": "getLiquidityInfo",
      "outputs": [
        {
          "components": [
            {
              "internalType": "uint256",
              "name": "amount",
              "type": "uint256"
            },
            {
              "internalType": "uint256",
              "name": "shares",
              "type": "uint256"
            },
            {
              "internalType": "uint256",
              "name": "block",
              "type": "uint256"
            }
          ],
          "internalType": "struct EnterpriseStorage.LiquidityInfo",
          "name": "",
          "type": "tuple"
        }
      ],
      "stateMutability": "view",
      "type": "function"
    },
    {
      "inputs": [],
      "name": "getLiquidityToken",
      "outputs": [
        {
          "internalType": "contract IERC20Metadata",
          "name": "",
          "type": "address"
        }
      ],
      "stateMutability": "view",
      "type": "function"
    },
    {
      "inputs": [
        {
          "internalType": "uint256",
          "name": "borrowTokenId",
          "type": "uint256"
        }
      ],
      "name": "getLoanInfo",
      "outputs": [
        {
          "components": [
            {
              "internalType": "uint112",
              "name": "amount",
              "type": "uint112"
            },
            {
              "internalType": "uint16",
              "name": "powerTokenIndex",
              "type": "uint16"
            },
            {
              "internalType": "uint32",
              "name": "borrowingTime",
              "type": "uint32"
            },
            {
              "internalType": "uint32",
              "name": "maturityTime",
              "type": "uint32"
            },
            {
              "internalType": "uint32",
              "name": "borrowerReturnGraceTime",
              "type": "uint32"
            },
            {
              "internalType": "uint32",
              "name": "enterpriseCollectGraceTime",
              "type": "uint32"
            },
            {
              "internalType": "uint112",
              "name": "gcFee",
              "type": "uint112"
            },
            {
              "internalType": "uint16",
              "name": "gcFeeTokenIndex",
              "type": "uint16"
            }
          ],
          "internalType": "struct EnterpriseStorage.LoanInfo",
          "name": "",
          "type": "tuple"
        }
      ],
      "stateMutability": "view",
      "type": "function"
    },
    {
      "inputs": [
        {
          "internalType": "uint256",
          "name": "index",
          "type": "uint256"
        }
      ],
      "name": "getPaymentToken",
      "outputs": [
        {
          "internalType": "address",
          "name": "",
          "type": "address"
        }
      ],
      "stateMutability": "view",
      "type": "function"
    },
    {
      "inputs": [
        {
          "internalType": "contract IERC20",
          "name": "token",
          "type": "address"
        }
      ],
      "name": "getPaymentTokenIndex",
      "outputs": [
        {
          "internalType": "int16",
          "name": "",
          "type": "int16"
        }
      ],
      "stateMutability": "view",
      "type": "function"
    },
    {
      "inputs": [],
      "name": "getPowerTokens",
      "outputs": [
        {
          "internalType": "contract PowerToken[]",
          "name": "",
          "type": "address[]"
        }
      ],
      "stateMutability": "view",
      "type": "function"
    },
    {
      "inputs": [],
      "name": "getProxyAdmin",
      "outputs": [
        {
          "internalType": "contract ProxyAdmin",
          "name": "",
          "type": "address"
        }
      ],
      "stateMutability": "view",
      "type": "function"
    },
    {
      "inputs": [],
      "name": "getReserve",
      "outputs": [
        {
          "internalType": "uint256",
          "name": "",
          "type": "uint256"
        }
      ],
      "stateMutability": "view",
      "type": "function"
    },
    {
      "inputs": [],
      "name": "getUsedReserve",
      "outputs": [
        {
          "internalType": "uint256",
          "name": "",
          "type": "uint256"
        }
      ],
      "stateMutability": "view",
      "type": "function"
    },
    {
      "inputs": [
        {
          "internalType": "uint256",
          "name": "interestTokenId",
          "type": "uint256"
        },
        {
          "internalType": "uint256",
          "name": "liquidityAmount",
          "type": "uint256"
        }
      ],
      "name": "increaseLiquidity",
      "outputs": [],
      "stateMutability": "nonpayable",
      "type": "function"
    },
    {
      "inputs": [
        {
          "internalType": "string",
          "name": "enterpriseName",
          "type": "string"
        },
        {
          "internalType": "string",
          "name": "baseUri",
          "type": "string"
        },
        {
          "internalType": "uint16",
          "name": "gcFeePercent",
          "type": "uint16"
        },
        {
          "internalType": "contract IConverter",
          "name": "converter",
          "type": "address"
        },
        {
          "internalType": "contract ProxyAdmin",
          "name": "proxyAdmin",
          "type": "address"
        },
        {
          "internalType": "address",
          "name": "owner",
          "type": "address"
        }
      ],
      "name": "initialize",
      "outputs": [],
      "stateMutability": "nonpayable",
      "type": "function"
    },
    {
      "inputs": [
        {
          "internalType": "address",
          "name": "initialOwner",
          "type": "address"
        }
      ],
      "name": "initialize",
      "outputs": [],
      "stateMutability": "nonpayable",
      "type": "function"
    },
    {
      "inputs": [
        {
          "internalType": "contract IERC20Metadata",
          "name": "liquidityToken",
          "type": "address"
        },
        {
          "internalType": "contract IInterestToken",
          "name": "interestToken",
          "type": "address"
        },
        {
          "internalType": "contract IBorrowToken",
          "name": "borrowToken",
          "type": "address"
        }
      ],
      "name": "initializeTokens",
      "outputs": [],
      "stateMutability": "nonpayable",
      "type": "function"
    },
    {
      "inputs": [
        {
          "internalType": "contract PowerToken",
          "name": "powerToken",
          "type": "address"
        }
      ],
      "name": "isRegisteredPowerToken",
      "outputs": [
        {
          "internalType": "bool",
          "name": "",
          "type": "bool"
        }
      ],
      "stateMutability": "view",
      "type": "function"
    },
    {
      "inputs": [
        {
          "internalType": "contract IERC20",
          "name": "token",
          "type": "address"
        }
      ],
      "name": "isSupportedPaymentToken",
      "outputs": [
        {
          "internalType": "bool",
          "name": "",
          "type": "bool"
        }
      ],
      "stateMutability": "view",
      "type": "function"
    },
    {
      "inputs": [
        {
          "internalType": "address",
          "name": "from",
          "type": "address"
        },
        {
          "internalType": "address",
          "name": "to",
          "type": "address"
        },
        {
          "internalType": "uint256",
          "name": "borrowTokenId",
          "type": "uint256"
        }
      ],
      "name": "loanTransfer",
      "outputs": [],
      "stateMutability": "nonpayable",
      "type": "function"
    },
    {
      "inputs": [],
      "name": "owner",
      "outputs": [
        {
          "internalType": "address",
          "name": "",
          "type": "address"
        }
      ],
      "stateMutability": "view",
      "type": "function"
    },
    {
      "inputs": [
        {
          "internalType": "uint256",
          "name": "borrowTokenId",
          "type": "uint256"
        },
        {
          "internalType": "contract IERC20",
          "name": "paymentToken",
          "type": "address"
        },
        {
          "internalType": "uint32",
          "name": "duration",
          "type": "uint32"
        },
        {
          "internalType": "uint256",
          "name": "maxPayment",
          "type": "uint256"
        }
      ],
      "name": "reborrow",
      "outputs": [],
      "stateMutability": "nonpayable",
      "type": "function"
    },
    {
      "inputs": [
        {
          "internalType": "string",
          "name": "serviceName",
          "type": "string"
        },
        {
          "internalType": "string",
          "name": "symbol",
          "type": "string"
        },
        {
          "internalType": "uint32",
          "name": "gapHalvingPeriod",
          "type": "uint32"
        },
        {
          "internalType": "uint112",
          "name": "baseRate",
          "type": "uint112"
        },
        {
          "internalType": "contract IERC20Metadata",
          "name": "baseToken",
          "type": "address"
        },
        {
          "internalType": "uint16",
          "name": "serviceFeePercent",
          "type": "uint16"
        },
        {
          "internalType": "uint32",
          "name": "minLoanDuration",
          "type": "uint32"
        },
        {
          "internalType": "uint32",
          "name": "maxLoanDuration",
          "type": "uint32"
        },
        {
          "internalType": "uint96",
          "name": "minGCFee",
          "type": "uint96"
        },
        {
          "internalType": "bool",
          "name": "allowsPerpetualTokensForever",
          "type": "bool"
        }
      ],
      "name": "registerService",
      "outputs": [],
      "stateMutability": "nonpayable",
      "type": "function"
    },
    {
      "inputs": [
        {
          "internalType": "uint256",
          "name": "interestTokenId",
          "type": "uint256"
        }
      ],
      "name": "removeLiquidity",
      "outputs": [],
      "stateMutability": "nonpayable",
      "type": "function"
    },
    {
      "inputs": [
        {
          "internalType": "uint256",
          "name": "borrowTokenId",
          "type": "uint256"
        }
      ],
      "name": "returnLoan",
      "outputs": [],
      "stateMutability": "nonpayable",
      "type": "function"
    },
    {
      "inputs": [
        {
          "internalType": "string",
          "name": "baseUri",
          "type": "string"
        }
      ],
      "name": "setBaseUri",
      "outputs": [],
      "stateMutability": "nonpayable",
      "type": "function"
    },
    {
      "inputs": [
        {
          "internalType": "uint256",
          "name": "pole",
          "type": "uint256"
        },
        {
          "internalType": "uint256",
          "name": "slope",
          "type": "uint256"
        }
      ],
      "name": "setBondingCurve",
      "outputs": [],
      "stateMutability": "nonpayable",
      "type": "function"
    },
    {
      "inputs": [
        {
          "internalType": "uint32",
          "name": "newPeriod",
          "type": "uint32"
        }
      ],
      "name": "setBorrowerLoanReturnGracePeriod",
      "outputs": [],
      "stateMutability": "nonpayable",
      "type": "function"
    },
    {
      "inputs": [
        {
          "internalType": "contract IConverter",
          "name": "newConverter",
          "type": "address"
        }
      ],
      "name": "setConverter",
      "outputs": [],
      "stateMutability": "nonpayable",
      "type": "function"
    },
    {
      "inputs": [
        {
          "internalType": "address",
          "name": "newCollector",
          "type": "address"
        }
      ],
      "name": "setEnterpriseCollector",
      "outputs": [],
      "stateMutability": "nonpayable",
      "type": "function"
    },
    {
      "inputs": [
        {
          "internalType": "uint32",
          "name": "newPeriod",
          "type": "uint32"
        }
      ],
      "name": "setEnterpriseLoanCollectGracePeriod",
      "outputs": [],
      "stateMutability": "nonpayable",
      "type": "function"
    },
    {
      "inputs": [
        {
          "internalType": "address",
          "name": "newVault",
          "type": "address"
        }
      ],
      "name": "setEnterpriseVault",
      "outputs": [],
      "stateMutability": "nonpayable",
      "type": "function"
    },
    {
      "inputs": [
        {
          "internalType": "uint16",
          "name": "newGcFeePercent",
          "type": "uint16"
        }
      ],
      "name": "setGcFeePercent",
      "outputs": [],
      "stateMutability": "nonpayable",
      "type": "function"
    },
    {
      "inputs": [
        {
          "internalType": "uint32",
          "name": "interestGapHalvingPeriod",
          "type": "uint32"
        }
      ],
      "name": "setInterestGapHalvingPeriod",
      "outputs": [],
      "stateMutability": "nonpayable",
      "type": "function"
    },
    {
      "inputs": [],
      "name": "shutdownEnterpriseForever",
      "outputs": [],
      "stateMutability": "nonpayable",
      "type": "function"
    },
    {
      "inputs": [
        {
          "internalType": "address",
          "name": "newOwner",
          "type": "address"
        }
      ],
      "name": "transferOwnership",
      "outputs": [],
      "stateMutability": "nonpayable",
      "type": "function"
    },
    {
      "inputs": [
        {
          "internalType": "address",
          "name": "enterpriseImplementation",
          "type": "address"
        },
        {
          "internalType": "address",
          "name": "borrowTokenImplementation",
          "type": "address"
        },
        {
          "internalType": "address",
          "name": "interestTokenImplementation",
          "type": "address"
        },
        {
          "internalType": "address",
          "name": "powerTokenImplementation",
          "type": "address"
        },
        {
          "internalType": "contract PowerToken[]",
          "name": "powerTokens",
          "type": "address[]"
        }
      ],
      "name": "upgrade",
      "outputs": [],
      "stateMutability": "nonpayable",
      "type": "function"
    },
    {
      "inputs": [
        {
          "internalType": "uint256",
          "name": "interestTokenId",
          "type": "uint256"
        }
      ],
      "name": "withdrawInterest",
      "outputs": [],
      "stateMutability": "nonpayable",
      "type": "function"
    }
  ],
  "bytecode": "0x608060405234801561001057600080fd5b50615ccf80620000216000396000f3fe608060405234801561001057600080fd5b50600436106102715760003560e01c8062ca339b146102765780630103f3131461028b5780630714012c146102b657806308669aab146102d65780630cac36b2146102e95780630ea1dc9e146102fe5780632261b07f14610318578063229304dc146103295780632e365ade1461034a5780632fb2067f1461035d5780633513e0dc14610380578063449497ec146103935780634741efb3146103a657806349bd4e89146103ae578063512a53bc146103c157806351c6590a146103d457806359bf5d39146103e75780635a4598df146103ef5780635a9b0b891461040d57806362c1f3881461042d578063644e44df146104405780636815f33714610451578063696f9c81146104645780637791c42d146104775780638188d50d1461048857806389035b611461049d5780638b3240a0146104c95780638c0114b0146104d15780638da5cb5b146104e457806390f55edd146104ec5780639339ea69146104ff5780639ab71193146105125780639c7aa7f8146105255780639c8f9f2314610538578063a0bcfc7f1461054b578063a0efd1181461055e578063a554b26d14610573578063aebb504114610584578063b19337a41461058c578063b406bf6d1461059f578063b56de97e146105c0578063b96266fa146105d3578063bfd84fb4146105e8578063c4d66de8146105fb578063c93d0b921461060e578063cdc2aebf1461061f578063df57f2fa14610632578063e1a5fa4914610667578063e91261541461067a578063ed1fecc01461068d578063ef1f9f39146106a0578063f2fde38b146106b3578063faac38ef146106c6578063fcb2884e146106e1575b600080fd5b610289610284366004615089565b6106e9565b005b61029e610299366004614e99565b610ed1565b60405160019190910b81526020015b60405180910390f35b6102c96102c43660046153ad565b610efe565b6040516102ad9190615721565b6102896102e43660046153ad565b611053565b6102f161121c565b6040516102ad9190615632565b6001546001600160a01b03165b6040516102ad9190615502565b6004546001600160a01b031661030b565b61033c610337366004615030565b6112ae565b6040519081526020016102ad565b610289610358366004615443565b6113d7565b61037061036b366004614e99565b6114b9565b60405190151581526020016102ad565b61028961038e366004615422565b6114dc565b6102896103a1366004615375565b6115e9565b610289611673565b6102896103bc366004615422565b61176d565b6102896103cf366004614f8a565b6119ed565b6102896103e23660046153ad565b611c74565b61033c611e1c565b600354600160a01b900463ffffffff165b6040516102ad91906157f6565b610415611e41565b6040516102ad9c9b9a99989796959493929190615645565b61028961043b366004614e99565b612004565b6000546001600160a01b031661030b565b61028961045f36600461519b565b6120ca565b610289610472366004615422565b6123f6565b6006546001600160a01b031661030b565b600654600160a01b900463ffffffff16610400565b6103706104ab366004614e99565b6001600160a01b031660009081526013602052604090205460ff1690565b61030b6125e5565b6102896104df3660046153dd565b612606565b61030b612b00565b6102896104fa366004614e99565b612b16565b61033c61050d3660046153ad565b612bdc565b61028961052036600461524d565b612c29565b610289610533366004614e99565b6130e4565b6102896105463660046153ad565b61322a565b6102896105593660046150ea565b613477565b600654600160c01b900463ffffffff16610400565b6005546001600160a01b031661030b565b61033c6134ef565b61028961059a366004614e99565b613506565b600654600160e01b900461ffff1660405161ffff90911681526020016102ad565b6102896105ce366004615443565b6135cc565b6105db6136a2565b6040516102ad919061556c565b6102896105f6366004614e99565b613703565b610289610609366004614e99565b613799565b6002546001600160a01b031661030b565b61030b61062d3660046153ad565b61386e565b6106456106403660046153ad565b6138ac565b60408051825181526020808401519082015291810151908201526060016102ad565b610289610675366004615443565b613986565b6102896106883660046153ad565b613a4c565b61028961069b366004614ed1565b613e41565b6102896106ae366004614fe6565b61414f565b6102896106c1366004614e99565b6141de565b600e54600d54604080519283526020830191909152016102ad565b600a5461033c565b600354604080518082019091526002815261373560f01b602082015290600160c01b900460ff16156107375760405162461bcd60e51b815260040161072e9190615632565b60405180910390fd5b506001600160a01b03851660009081526013602090815260409182902054825180840190935260018352601b60f91b9183019190915260ff1661078d5760405162461bcd60e51b815260040161072e9190615632565b50610797846114b9565b604051806040016040528060028152602001610d0d60f21b815250906107d05760405162461bcd60e51b815260040161072e9190615632565b50604051636e4d898360e01b81526001600160a01b03861690636e4d8983906107fd9085906004016157f6565b60206040518083038186803b15801561081557600080fd5b505afa158015610829573d6000803e3d6000fd5b505050506040513d601f19601f8201168201806040525081019061084d9190614fca565b60405180604001604052806002815260200161343560f01b815250906108865760405162461bcd60e51b815260040161072e9190615632565b506040805180820190915260028152611b9b60f11b60208201526001600160701b0384166108c75760405162461bcd60e51b815260040161072e9190615632565b506108d06134ef565b836001600160701b03161115604051806040016040528060028152602001611a1b60f11b815250906109155760405162461bcd60e51b815260040161072e9190615632565b506000806000876001600160a01b0316639d5513d78888886040518463ffffffff1660e01b815260040161094b939291906155b9565b60606040518083038186803b15801561096357600080fd5b505afa158015610977573d6000803e3d6000fd5b505050506040513d601f19601f8201168201806040525081019061099b9190615334565b9194509250905060006109ae838561585e565b6001600160701b0316905084826001600160701b0316826109cf9190615889565b111560405180604001604052806002815260200161343760f01b81525090610a0a5760405162461bcd60e51b815260040161072e9190615632565b50610a208882856001600160701b0316876142cf565b600254610a45906001600160a01b038a8116913391166001600160701b038616614463565b866001600160701b0316600a6000828254610a609190615889565b9091555042915060009050610a7587836158a1565b600654909150600090610a9590600160a01b900463ffffffff16836158a1565b600654909150600090610ab590600160c01b900463ffffffff16846158a1565b90506000600260009054906101000a90046001600160a01b03166001600160a01b031663caa0f92a6040518163ffffffff1660e01b8152600401602060405180830381600087803b158015610b0957600080fd5b505af1158015610b1d573d6000803e3d6000fd5b505050506040513d601f19601f82011682018060405250810190610b4191906153c5565b90506040518061010001604052808c6001600160701b031681526020018e6001600160a01b03166381045ead6040518163ffffffff1660e01b815260040160206040518083038186803b158015610b9757600080fd5b505afa158015610bab573d6000803e3d6000fd5b505050506040513d601f19601f82011682018060405250810190610bcf9190615391565b61ffff1681526020018663ffffffff1681526020018563ffffffff1681526020018463ffffffff1681526020018363ffffffff168152602001876001600160701b03168152602001610c208e610ed1565b61ffff9081169091526000838152601160209081526040918290208451815492860151868501516060880151608089015160a08a01516001600160701b039586166001600160801b031998891617600160701b958b16860217600160801b600160c01b031916600160801b63ffffffff9586160263ffffffff60a01b191617600160a01b93851693909302929092176001600160c01b0316600160c01b918416919091026001600160e01b031617600160e01b929091169190910217835560c08701516001909301805460e0909801519390921696909316959095179316029190911790915560025490516335313c2160e11b815282916001600160a01b031690636a62784290610d35903390600401615502565b602060405180830381600087803b158015610d4f57600080fd5b505af1158015610d63573d6000803e3d6000fd5b505050506040513d601f19601f82011682018060405250810190610d8791906153c5565b14610da257634e487b7160e01b600052600160045260246000fd5b60405163f8642f2960e01b8152600481018290526001600160a01b038e169063f8642f2990602401600060405180830381600087803b158015610de457600080fd5b505af1158015610df8573d6000803e3d6000fd5b505050508c6001600160a01b0316336001600160a01b0316827f0606c34c8c2ec99faed8921c4f1a3a5c1108fc00ebe3884ff753ab267ef6ec288f8f8d8d8d8d8d8d8d610e43611e1c565b600a54604080516001600160a01b03909c168c526001600160701b039a8b1660208d0152988a16988b019890985295881660608a015296909316608088015263ffffffff91821660a0880152811660c087015290811660e08601529092166101008401526101208301919091526101408201526101600160405180910390a450505050505050505050505050565b6001600160a01b038116600090815260076020526040812054610ef890600190810b6158ff565b92915050565b6040805161010081018252600080825260208201819052818301819052606082018190526080820181905260a0820181905260c0820181905260e082015260025491516331a9108f60e11b81526004810184905290916001600160a01b031690636352211e9060240160206040518083038186803b158015610f7f57600080fd5b505afa158015610f93573d6000803e3d6000fd5b505050506040513d601f19601f82011682018060405250810190610fb79190614eb5565b505060009081526011602090815260409182902082516101008101845281546001600160701b038082168352600160701b80830461ffff90811696850196909652600160801b830463ffffffff90811697850197909752600160a01b830487166060850152600160c01b830487166080850152600160e01b90920490951660a083015260019092015493841660c082015292041660e082015290565b6001546040516331a9108f60e11b815260048101839052829133916001600160a01b0390911690636352211e9060240160206040518083038186803b15801561109b57600080fd5b505afa1580156110af573d6000803e3d6000fd5b505050506040513d601f19601f820116820180604052508101906110d39190614eb5565b6001600160a01b031614604051806040016040528060018152602001603360f81b815250906111155760405162461bcd60e51b815260040161072e9190615632565b5060008281526012602052604081209061112e84612bdc565b90506111386134ef565b811115604051806040016040528060028152602001611a1b60f11b815250906111745760405162461bcd60e51b815260040161072e9190615632565b5060005461118c906001600160a01b031633836144d4565b81546000611198611e1c565b905060006111a683836144f3565b90506111c1848287600101546111bc919061596c565b614515565b600185018190556000336001600160a01b031688600080516020615aba833981519152878786600c548b8a6111f6919061596c565b600a5460405161120b969594939291906157ce565b60405180910390a450505050505050565b60606010805461122b906159af565b80601f0160208091040260200160405190810160405280929190818152602001828054611257906159af565b80156112a45780601f10611279576101008083540402835291602001916112a4565b820191906000526020600020905b81548152906001019060200180831161128757829003601f168201915b5050505050905090565b600354604080518082019091526002815261373560f01b6020820152600091600160c01b900460ff16156112f55760405162461bcd60e51b815260040161072e9190615632565b506001600160a01b03851660009081526013602090815260409182902054825180840190935260018352601b60f91b9183019190915260ff1661134b5760405162461bcd60e51b815260040161072e9190615632565b50604051631466370160e01b81526001600160a01b0386169063146637019061137c908790879087906004016155b9565b60206040518083038186803b15801561139457600080fd5b505afa1580156113a8573d6000803e3d6000fd5b505050506040513d601f19601f820116820180604052508101906113cc91906153c5565b90505b949350505050565b336113e0612b00565b6001600160a01b031614604051806040016040528060018152602001603360f81b815250906114225760405162461bcd60e51b815260040161072e9190615632565b506006546040805180820190915260028152610d8d60f21b60208201529063ffffffff600160c01b909104811690831611156114715760405162461bcd60e51b815260040161072e9190615632565b506006805463ffffffff60a01b1916600160a01b63ffffffff841602179055604051600080516020615c1a833981519152906114ae9083906157f6565b60405180910390a150565b6001600160a01b0316600090815260076020526040812054600190810b900b1390565b336114e5612b00565b6001600160a01b031614604051806040016040528060018152602001603360f81b815250906115275760405162461bcd60e51b815260040161072e9190615632565b50611537600a600360401b6158c0565b82111560405180604001604052806002815260200161373760f01b815250906115735760405162461bcd60e51b815260040161072e9190615632565b5060408051808201909152600281526106e760f31b6020820152600160401b8211156115b25760405162461bcd60e51b815260040161072e9190615632565b50600e829055600d8190556040805183815260208101839052600080516020615b1a83398151915291015b60405180910390a15050565b336115f2612b00565b6001600160a01b031614604051806040016040528060018152602001603360f81b815250906116345760405162461bcd60e51b815260040161072e9190615632565b506006805461ffff60e01b1916600160e01b61ffff841690810291909117909155604051908152600080516020615b5a833981519152906020016114ae565b600354604080518082019091526002815261373560f01b602082015290600160c01b900460ff16156116b85760405162461bcd60e51b815260040161072e9190615632565b50336116c2612b00565b6001600160a01b031614604051806040016040528060018152602001603360f81b815250906117045760405162461bcd60e51b815260040161072e9190615632565b5060038054600160c01b60ff60c01b199091161790556000600a819055600b8054600160701b81046001600160701b03166001600160701b03199091161790556040517f6f6348718c9a361558c634b516777b2b06bb2bf4140ad3d3bfaa44270fc2c0729190a1565b6001546040516331a9108f60e11b815260048101849052839133916001600160a01b0390911690636352211e9060240160206040518083038186803b1580156117b557600080fd5b505afa1580156117c9573d6000803e3d6000fd5b505050506040513d601f19601f820116820180604052508101906117ed9190614eb5565b6001600160a01b031614604051806040016040528060018152602001603360f81b8152509061182f5760405162461bcd60e51b815260040161072e9190615632565b50600083815260126020908152604091829020825160608101845281548152600182015481840152600291820154818501819052845180860190955291845261035360f41b92840192909252909190431161189d5760405162461bcd60e51b815260040161072e9190615632565b5080516040805180820190915260028152611a1b60f11b6020820152908411156118da5760405162461bcd60e51b815260040161072e9190615632565b506118e36134ef565b831115604051806040016040528060028152602001611a1b60f11b8152509061191f5760405162461bcd60e51b815260040161072e9190615632565b50600054611937906001600160a01b031633856144d4565b6000611941611e1c565b9050600061194f85836144f3565b90508260200151811115611964575060208201515b61196e8582614515565b6020838101805183900380825285518890038652600089815260129093526040909220600181019290925584519182905551600c5460049233928a92600080516020615aba833981519152928b9290916119c8848b61596c565b600a546040516119dd969594939291906157ce565b60405180910390a4505050505050565b600280546040805180820190915291825261333960f01b60208301526001600160a01b03163314611a315760405162461bcd60e51b815260040161072e9190615632565b506000818152601160209081526040918290205482518084019093526002835261068760f31b918301919091526001600160701b03169081611a865760405162461bcd60e51b815260040161072e9190615632565b5060008281526011602052604081205460148054600160a01b830463ffffffff164211936001600160a01b03898116159490891615939192600160701b90910461ffff16908110611ae757634e487b7160e01b600052603260045260246000fd5b6000918252602090912001546001600160a01b031690508115611b695760405163079cc67960e41b81526001600160a01b038216906379cc679090611b32908b908990600401615531565b600060405180830381600087803b158015611b4c57600080fd5b505af1158015611b60573d6000803e3d6000fd5b50505050611c6a565b8215611b9d576040516340c10f1960e01b81526001600160a01b038216906340c10f1990611b32908a908990600401615531565b83611c3a576040516333bebb7760e01b81526001600160a01b03898116600483015288811660248301526001600160701b03871660448301528216906333bebb7790606401602060405180830381600087803b158015611bfc57600080fd5b505af1158015611c10573d6000803e3d6000fd5b505050506040513d601f19601f82011682018060405250810190611c349190614fca565b50611c6a565b60408051808201825260028152611a9960f11b6020820152905162461bcd60e51b815261072e9190600401615632565b5050505050505050565b600354604080518082019091526002815261373560f01b602082015290600160c01b900460ff1615611cb95760405162461bcd60e51b815260040161072e9190615632565b50600054611cd2906001600160a01b0316333084614463565b6000611cdc611e1c565b90506000600c54600014611cf957611cf483836144f3565b611cfb565b825b9050611d078382614597565b6001546040516335313c2160e11b81526000916001600160a01b031690636a62784290611d38903390600401615502565b602060405180830381600087803b158015611d5257600080fd5b505af1158015611d66573d6000803e3d6000fd5b505050506040513d601f19601f82011682018060405250810190611d8a91906153c5565b60408051606081018252868152602080820186815243838501908152600086815260129093529390912091518255516001808301919091559151600290910155909150336001600160a01b031682600080516020615aba833981519152878887600c548b8b611df99190615889565b600a54604051611e0e969594939291906157ce565b60405180910390a450505050565b6000611e266145e8565b6001600160701b0316600954611e3c9190615889565b905090565b600c54600354600654600954600a54600b54600f805460609788976000978897889788978897889788978897889788979496601096939563ffffffff600160a01b94859004811696948404811695600160c01b850482169561ffff600160e01b9687900416959394936001600160701b0380841694600160701b8504909116939190910416908c90611ed2906159af565b80601f0160208091040260200160405190810160405280929190818152602001828054611efe906159af565b8015611f4b5780601f10611f2057610100808354040283529160200191611f4b565b820191906000526020600020905b815481529060010190602001808311611f2e57829003601f168201915b50505050509b508a8054611f5e906159af565b80601f0160208091040260200160405190810160405280929190818152602001828054611f8a906159af565b8015611fd75780601f10611fac57610100808354040283529160200191611fd7565b820191906000526020600020905b815481529060010190602001808311611fba57829003601f168201915b50505050509a509b509b509b509b509b509b509b509b509b509b509b509b50909192939495969798999a9b565b3361200d612b00565b6001600160a01b031614604051806040016040528060018152602001603360f81b8152509061204f5760405162461bcd60e51b815260040161072e9190615632565b50604080518082019091526002815261363160f01b60208201526001600160a01b0382166120905760405162461bcd60e51b815260040161072e9190615632565b50600580546001600160a01b0319166001600160a01b038316179055604051600080516020615bfa833981519152906114ae908390615502565b600f80546120d7906159af565b6040805180820190915260018152601960f91b602082015291501561210f5760405162461bcd60e51b815260040161072e9190615632565b5061211981613799565b81600080516020615b3a83398151915280546001600160a01b03929092166001600160a01b03199283161790556003805490911633179055865161216490600f9060208a0190614c99565b5061217160108787614d1d565b5060068054600480546001600160a01b03199081166001600160a01b03888116919091179092556005805492861692909116821790556003805463ffffffff60a01b191661127560a71b179055600165ffff0000000160c01b0319909116600160e01b61ffff8816026001600160c01b03191617176102a360a61b1763ffffffff60c01b19166102a360c71b17905561220f6064600560401b6158c0565b600e55612221600a600360401b6158c0565b600d55604051600080516020615a9a833981519152906122449088908890615603565b60405180910390a1600654604051600160e01b90910461ffff168152600080516020615b5a8339815191529060200160405180910390a1600454604051600080516020615b9a833981519152916122a6916001600160a01b0390911690615502565b60405180910390a1600654604051600080516020615b7a833981519152916122d9916001600160a01b0390911690615502565b60405180910390a1600554604051600080516020615bfa8339815191529161230c916001600160a01b0390911690615502565b60405180910390a1600080516020615c5a833981519152600360149054906101000a900463ffffffff1660405161234391906157f6565b60405180910390a1600080516020615c1a833981519152600660149054906101000a900463ffffffff1660405161237a91906157f6565b60405180910390a1600080516020615afa833981519152600660189054906101000a900463ffffffff166040516123b191906157f6565b60405180910390a1600080516020615b1a833981519152600e54600d546040516123e5929190918252602082015260400190565b60405180910390a150505050505050565b600354604080518082019091526002815261373560f01b602082015290600160c01b900460ff161561243b5760405162461bcd60e51b815260040161072e9190615632565b506001546040516331a9108f60e11b815260048101849052839133916001600160a01b0390911690636352211e9060240160206040518083038186803b15801561248457600080fd5b505afa158015612498573d6000803e3d6000fd5b505050506040513d601f19601f820116820180604052508101906124bc9190614eb5565b6001600160a01b031614604051806040016040528060018152602001603360f81b815250906124fe5760405162461bcd60e51b815260040161072e9190615632565b50600054612517906001600160a01b0316333085614463565b6000612521611e1c565b90506000600c5460001461253e5761253984836144f3565b612540565b835b905061254c8482614597565b6000858152601260205260408120805490919061256a908790615889565b9050600083836001015461257e9190615889565b8284556001840181905543600285015590506003336001600160a01b031689600080516020615aba8339815191528a8686600c548e8d6125be9190615889565b600a546040516125d3969594939291906157ce565b60405180910390a45050505050505050565b6000600080516020615b3a8339815191525b546001600160a01b0316919050565b600354604080518082019091526002815261373560f01b602082015290600160c01b900460ff161561264b5760405162461bcd60e51b815260040161072e9190615632565b50612655836114b9565b604051806040016040528060028152602001610d0d60f21b8152509061268e5760405162461bcd60e51b815260040161072e9190615632565b50600084815260116020908152604091829020805483518085019094526002845261068760f31b9284019290925291906001600160701b03166126e45760405162461bcd60e51b815260040161072e9190615632565b50805460148054600092600160701b900461ffff1690811061271657634e487b7160e01b600052603260045260246000fd5b600091825260209091200154604051636e4d898360e01b81526001600160a01b0390911691508190636e4d8983906127529087906004016157f6565b60206040518083038186803b15801561276a57600080fd5b505afa15801561277e573d6000803e3d6000fd5b505050506040513d601f19601f820116820180604052508101906127a29190614fca565b60405180604001604052806002815260200161343560f01b815250906127db5760405162461bcd60e51b815260040161072e9190615632565b50815442906127f8908690600160a01b900463ffffffff166158a1565b63ffffffff16101560405180604001604052806002815260200161343960f01b815250906128395760405162461bcd60e51b815260040161072e9190615632565b508154600a80546001600160701b039092169160009061285a90849061596c565b90915550508154604051639d5513d760e01b815260009182916001600160a01b03851691639d5513d7916128a0918b916001600160701b03909116908b906004016155b9565b60606040518083038186803b1580156128b857600080fd5b505afa1580156128cc573d6000803e3d6000fd5b505050506040513d601f19601f820116820180604052508101906128f09190615334565b508554600a80546001600160701b03909216909101905590925090506000612918828461585e565b6001600160701b031690508581111560405180604001604052806002815260200161343760f01b815250906129605760405162461bcd60e51b815260040161072e9190615632565b506129768882846001600160701b0316866142cf565b8454600090612993908990600160a01b900463ffffffff166158a1565b6006549091506000906129b390600160a01b900463ffffffff16836158a1565b6006549091506000906129d390600160c01b900463ffffffff16846158a1565b8854600160a01b600160e01b031916600160a01b63ffffffff8681169190910263ffffffff60c01b191691909117600160c01b85831602176001600160e01b0316600160e01b9183169190910217895560405163f8642f2960e01b8152600481018e90529091506001600160a01b0388169063f8642f2990602401600060405180830381600087803b158015612a6857600080fd5b505af1158015612a7c573d6000803e3d6000fd5b5050604080516001600160a01b038f1681526001600160701b038a8116602083015289168183015263ffffffff87811660608301528681166080830152851660a082015290513393508f92507f89d8cafb66c1254c316d74e8fb6f0386656c633ae83763dffdf797ca4843a29c9181900360c00190a3505050505050505050505050565b6000600080516020615ada8339815191526125f7565b33612b1f612b00565b6001600160a01b031614604051806040016040528060018152602001603360f81b81525090612b615760405162461bcd60e51b815260040161072e9190615632565b506040805180820190915260028152611b1960f11b60208201526001600160a01b038216612ba25760405162461bcd60e51b815260040161072e9190615632565b50600680546001600160a01b0319166001600160a01b038316179055604051600080516020615b7a833981519152906114ae908390615502565b600081815260126020526040812060018101548290612c0290612bfd611e1c565b614650565b8254909150811115612c1f578154612c1a908261596c565b6113cf565b6000949350505050565b33612c32612b00565b6001600160a01b031614604051806040016040528060018152602001603360f81b81525090612c745760405162461bcd60e51b815260040161072e9190615632565b50600354604080518082019091526002815261373560f01b602082015290600160c01b900460ff1615612cba5760405162461bcd60e51b815260040161072e9190615632565b50604080518082019091526002815261034360f41b60208201526001600160a01b038716612cfb5760405162461bcd60e51b815260040161072e9190615632565b50601454604080518082019091526002815261343160f01b60208201529061ffff11612d3a5760405162461bcd60e51b815260040161072e9190615632565b506003546000906001600160a01b031663c31011cc612d576125e5565b6040518263ffffffff1660e01b8152600401612d739190615502565b602060405180830381600087803b158015612d8d57600080fd5b505af1158015612da1573d6000803e3d6000fd5b505050506040513d601f19601f82011682018060405250810190612dc59190614eb5565b905060008060009054906101000a90046001600160a01b03166001600160a01b03166395d89b416040518163ffffffff1660e01b815260040160006040518083038186803b158015612e1657600080fd5b505afa158015612e2a573d6000803e3d6000fd5b505050506040513d6000823e601f3d908101601f19168201604052612e529190810190615129565b90506000818c604051602001612e699291906154c6565b6040516020818303038152906040529050826001600160a01b0316631624f6c68e8360008054906101000a90046001600160a01b03166001600160a01b031663313ce5676040518163ffffffff1660e01b815260040160206040518083038186803b158015612ed757600080fd5b505afa158015612eeb573d6000803e3d6000fd5b505050506040513d601f19601f82011682018060405250810190612f0f919061545d565b6040518463ffffffff1660e01b8152600401612f2d939291906156e8565b600060405180830381600087803b158015612f4757600080fd5b505af1158015612f5b573d6000803e3d6000fd5b505050505050806001600160a01b0316632ef0cf8b308a868d6014805490508d8c8c8f8c6040518b63ffffffff1660e01b81526004016130199a999897969594939291906001600160a01b039a8b1681526001600160701b039990991660208a01526001600160601b0397909716604089015263ffffffff958616606089015261ffff94851660808901529290971660a0870152831660c08601529490911660e0840152929092166101008201529015156101208201526101400190565b600060405180830381600087803b15801561303357600080fd5b505af1158015613047573d6000803e3d6000fd5b50506014805460018082019092557fce6d7b5282bd9a3661ae061feed1dbda4e52ab073b1f9285be6e155d9c38d4ec0180546001600160a01b0319166001600160a01b038616908117909155600081815260136020526040808220805460ff191690941790935591519093507f2fa31fbaacf5eaf61d648ea7528ada6efb69bfb06d2c3bd35ce511a820fce53e9250a25050505050505050505050565b336130ed612b00565b6001600160a01b031614604051806040016040528060018152602001603360f81b8152509061312f5760405162461bcd60e51b815260040161072e9190615632565b506001600160a01b03811660009081526007602090815260409182902054825180840190935260028352611b9960f11b91830191909152600190810b900b61318a5760405162461bcd60e51b815260040161072e9190615632565b506001600160a01b038116600090815260076020526040812054600190810b900b1315613227576001600160a01b0381166000908152600760205260409020546131d69060010b615a05565b6001600160a01b038216600090815260076020526040808220805460019490940b61ffff1661ffff19909416939093179092559051600080516020615c3a833981519152916114ae91849190615516565b50565b6001546040516331a9108f60e11b815260048101839052829133916001600160a01b0390911690636352211e9060240160206040518083038186803b15801561327257600080fd5b505afa158015613286573d6000803e3d6000fd5b505050506040513d601f19601f820116820180604052508101906132aa9190614eb5565b6001600160a01b031614604051806040016040528060018152602001603360f81b815250906132ec5760405162461bcd60e51b815260040161072e9190615632565b5060006012600084815260200190815260200160002090504381600201541060405180604001604052806002815260200161035360f41b815250906133445760405162461bcd60e51b815260040161072e9190615632565b5060018101546000613354611e1c565b905060006133628383614650565b905061336c6134ef565b811115604051806040016040528060028152602001611a1b60f11b815250906133a85760405162461bcd60e51b815260040161072e9190615632565b506000546133c0906001600160a01b031633836144d4565b6133ca8184614515565b600154604051630852cd8d60e31b8152600481018890526001600160a01b03909116906342966c6890602401600060405180830381600087803b15801561341057600080fd5b505af1158015613424573d6000803e3d6000fd5b5050506000878152601260205260408120818155600181018290556002908101919091559050336001600160a01b031687600080516020615aba83398151915284600080600c54888a6119c8919061596c565b33613480612b00565b6001600160a01b031614604051806040016040528060018152602001603360f81b815250906134c25760405162461bcd60e51b815260040161072e9190615632565b506134cf60108383614d1d565b50600080516020615a9a83398151915282826040516115dd929190615603565b6000600a546134fc611e1c565b611e3c919061596c565b3361350f612b00565b6001600160a01b031614604051806040016040528060018152602001603360f81b815250906135515760405162461bcd60e51b815260040161072e9190615632565b50604080518082019091526002815261363360f01b60208201526001600160a01b0382166135925760405162461bcd60e51b815260040161072e9190615632565b50600480546001600160a01b0319166001600160a01b038316179055604051600080516020615b9a833981519152906114ae908390615502565b336135d5612b00565b6001600160a01b031614604051806040016040528060018152602001603360f81b815250906136175760405162461bcd60e51b815260040161072e9190615632565b50600654604080518082019091526002815261363560f01b60208201529063ffffffff808416600160a01b9092041611156136655760405162461bcd60e51b815260040161072e9190615632565b506006805463ffffffff60c01b1916600160c01b63ffffffff841602179055604051600080516020615afa833981519152906114ae9083906157f6565b606060148054806020026020016040519081016040528092919081815260200182805480156112a457602002820191906000526020600020905b81546001600160a01b031681526001909101906020018083116136dc575050505050905090565b3361370c612b00565b6001600160a01b031614604051806040016040528060018152602001603360f81b8152509061374e5760405162461bcd60e51b815260040161072e9190615632565b50604080518082019091526002815261373160f01b60208201526001600160a01b03821661378f5760405162461bcd60e51b815260040161072e9190615632565b5061322781614660565b60006137a3612b00565b6001600160a01b031614604051806040016040528060018152602001601960f91b815250906137e55760405162461bcd60e51b815260040161072e9190615632565b50604080518082019091526002815261373360f01b60208201526001600160a01b0382166138265760405162461bcd60e51b815260040161072e9190615632565b50600080516020615ada83398151915280546001600160a01b0319166001600160a01b038316908117909155604051600090600080516020615bda833981519152908290a350565b60006008828154811061389157634e487b7160e01b600052603260045260246000fd5b6000918252602090912001546001600160a01b031692915050565b6138d060405180606001604052806000815260200160008152602001600081525090565b6001546040516331a9108f60e11b8152600481018490526001600160a01b0390911690636352211e9060240160206040518083038186803b15801561391457600080fd5b505afa158015613928573d6000803e3d6000fd5b505050506040513d601f19601f8201168201806040525081019061394c9190614eb5565b5050600090815260126020908152604091829020825160608101845281548152600182015492810192909252600201549181019190915290565b3361398f612b00565b6001600160a01b031614604051806040016040528060018152602001603360f81b815250906139d15760405162461bcd60e51b815260040161072e9190615632565b506040805180820190915260028152611b1b60f11b602082015263ffffffff8216613a0f5760405162461bcd60e51b815260040161072e9190615632565b506003805463ffffffff60a01b1916600160a01b63ffffffff841602179055604051600080516020615c5a833981519152906114ae9083906157f6565b60008181526011602090815260409182902082516101008101845281546001600160701b0380821680845261ffff600160701b80850482168689015263ffffffff600160801b86048116878b0152600160a01b860481166060880152600160c01b860481166080880152600160e01b90950490941660a086015260019095015491821660c085015291900490921660e082015283518085019094526002845261068760f31b92840192909252909190613b185760405162461bcd60e51b815260040161072e9190615632565b506002546040516331a9108f60e11b8152600481018490526000916001600160a01b031690636352211e9060240160206040518083038186803b158015613b5e57600080fd5b505afa158015613b72573d6000803e3d6000fd5b505050506040513d601f19601f82011682018060405250810190613b969190614eb5565b905060004290508063ffffffff16836080015163ffffffff161080613bc35750336001600160a01b038316145b60405180604001604052806002815260200161353360f01b81525090613bfc5760405162461bcd60e51b815260040161072e9190615632565b508063ffffffff168360a0015163ffffffff161080613c235750336001600160a01b038316145b80613c3857506005546001600160a01b031633145b604051806040016040528060028152602001610d4d60f21b81525090613c715760405162461bcd60e51b815260040161072e9190615632565b50600354600160c01b900460ff16613ca85782600001516001600160701b0316600a6000828254613ca2919061596c565b90915550505b6014836020015161ffff1681548110613cd157634e487b7160e01b600052603260045260246000fd5b9060005260206000200160009054906101000a90046001600160a01b03166001600160a01b0316336001600160a01b0316857f8aaa205a62511774004899f15c5181b7c5865c381dcb3320af8e91b31b6326ab86600001518760c0015160088960e0015161ffff1681548110613d5757634e487b7160e01b600052603260045260246000fd5b6000918252602090912001546001600160a01b0316613d74611e1c565b600a54604080516001600160701b0396871681529490951660208501526001600160a01b0392909216838501526060830152608082015290519081900360a00190a4600254604051633f34d4cf60e21b8152600481018690523360248201526001600160a01b039091169063fcd3533c90604401600060405180830381600087803b158015613e0257600080fd5b505af1158015613e16573d6000803e3d6000fd5b50505060009485525050601160205250506040812090815560010180546001600160801b0319169055565b33613e4a612b00565b6001600160a01b031614604051806040016040528060018152602001603360f81b81525090613e8c5760405162461bcd60e51b815260040161072e9190615632565b506000613e976125e5565b90506001600160a01b03871615613f095760405163266a23b160e21b81526001600160a01b038216906399a88ec490613ed69030908b906004016155e9565b600060405180830381600087803b158015613ef057600080fd5b505af1158015613f04573d6000803e3d6000fd5b505050505b6001600160a01b03861615613f7f5760025460405163266a23b160e21b81526001600160a01b03838116926399a88ec492613f4c92909116908a906004016155e9565b600060405180830381600087803b158015613f6657600080fd5b505af1158015613f7a573d6000803e3d6000fd5b505050505b6001600160a01b03851615613ff55760015460405163266a23b160e21b81526001600160a01b03838116926399a88ec492613fc2929091169089906004016155e9565b600060405180830381600087803b158015613fdc57600080fd5b505af1158015613ff0573d6000803e3d6000fd5b505050505b6001600160a01b038416156141465760005b82811015611c6a576013600085858481811061403357634e487b7160e01b600052603260045260246000fd5b90506020020160208101906140489190614e99565b6001600160a01b03168152602080820192909252604090810160002054815180830190925260018252601b60f91b928201929092529060ff1661409e5760405162461bcd60e51b815260040161072e9190615632565b50816001600160a01b03166399a88ec48585848181106140ce57634e487b7160e01b600052603260045260246000fd5b90506020020160208101906140e39190614e99565b876040518363ffffffff1660e01b81526004016141019291906155e9565b600060405180830381600087803b15801561411b57600080fd5b505af115801561412f573d6000803e3d6000fd5b50505050808061413e906159ea565b915050614007565b50505050505050565b6000546040805180820190915260018152601960f91b6020820152906001600160a01b0316156141925760405162461bcd60e51b815260040161072e9190615632565b50600080546001600160a01b038086166001600160a01b0319928316179092556001805485841690831617905560028054928416929091169190911790556141d983614660565b505050565b336141e7612b00565b6001600160a01b031614604051806040016040528060018152602001603360f81b815250906142295760405162461bcd60e51b815260040161072e9190615632565b50604080518082019091526002815261373360f01b60208201526001600160a01b03821661426a5760405162461bcd60e51b815260040161072e9190615632565b50806001600160a01b031661427d612b00565b6001600160a01b0316600080516020615bda83398151915260405160405180910390a3600080516020615ada83398151915280546001600160a01b0319166001600160a01b0392909216919091179055565b6142e46001600160a01b038516333086614463565b6000548390839083906001600160a01b0388811691161461443d576004805460405163095ea7b360e01b81526001600160a01b03808b169363095ea7b393614331939216918b9101615553565b602060405180830381600087803b15801561434b57600080fd5b505af115801561435f573d6000803e3d6000fd5b505050506040513d601f19601f820116820180604052508101906143839190614fca565b506004805460005460405163029b465d60e01b81526001600160a01b038b811694820194909452602481018a9052908316604482015291169063029b465d90606401602060405180830381600087803b1580156143df57600080fd5b505af11580156143f3573d6000803e3d6000fd5b505050506040513d601f19601f8201168201806040525081019061441791906153c5565b92508561442484876158e0565b61442e91906158c0565b915061443a828461596c565b90505b60065460005461445a916001600160a01b039182169116846144d4565b614146816147ab565b6040516001600160a01b03808516602483015283166044820152606481018290526144ce9085906323b872dd60e01b906084015b60408051601f198184030181529190526020810180516001600160e01b03166001600160e01b03199093169290921790915261485d565b50505050565b6141d98363a9059cbb60e01b8484604051602401614497929190615553565b60008183600c5461450491906158e0565b61450e91906158c0565b9392505050565b80600c6000828254614527919061596c565b9091555050600954821161454357600980548390039055614576565b600061454d61492f565b6001600160701b0316905082816009546145679190615889565b614571919061596c565b600955505b600080516020615c7a8339815191526009546040516115dd91815260200190565b80600c60008282546145a99190615889565b9250508190555081600960008282546145c29190615889565b9091555050600954604051908152600080516020615c7a833981519152906020016115dd565b600b546000906146339063ffffffff600160e01b8204169061461d906001600160701b0380821691600160701b900416615944565b600354600160a01b900463ffffffff16426149ed565b600b54611e3c9190600160701b90046001600160701b0316615944565b600c5460009061450484846158e0565b6001600160a01b038116600090815260076020526040902054600190810b900b6147165760088054600181810183557ff3f7a9fe364faab93b216da50a3214154f22a0a2b415b23a84c8169e8b636ee390910180546001600160a01b0385166001600160a01b03199091168117909155915460009283526007602052604092839020805491830b61ffff1661ffff199092169190911790559051600080516020615c3a833981519152916114ae91849190615516565b6001600160a01b038116600090815260076020526040812054600190810b900b1215613227576001600160a01b0381166000908152600760205260409020546147619060010b615a05565b6001600160a01b03821660009081526007602052604090819020805461ffff191661ffff600194850b1617905551600080516020615c3a833981519152916114ae91849190615516565b6147b36145e8565b600b80546001600160701b0319166001600160701b03928316178082558392600e916147e8918591600160701b90041661585e565b82546001600160701b039182166101009390930a928302928202191691909117909155600b805463ffffffff4216600160e01b026001600160e01b038216811792839055604051600080516020615bba83398151915295506114ae949182169282169290921792600160701b900416906157b4565b60006148b2826040518060400160405280602081526020017f5361666545524332303a206c6f772d6c6576656c2063616c6c206661696c6564815250856001600160a01b0316614b8e9092919063ffffffff16565b8051909150156141d957808060200190518101906148d09190614fca565b6141d95760405162461bcd60e51b815260206004820152602a60248201527f5361666545524332303a204552433230206f7065726174696f6e20646964206e6044820152691bdd081cdd58d8d9595960b21b606482015260840161072e565b60006149396145e8565b600b80546001600160701b0319168082559192508291600e9061496d908490600160701b90046001600160701b0316615944565b82546001600160701b039182166101009390930a928302928202191691909117909155600b805463ffffffff4216600160e01b026001600160e01b038216811792839055604051600080516020615bba83398151915295506149e2949182169282169290921792600160701b900416906157b4565b60405180910390a190565b60008463ffffffff168263ffffffff161015604051806040016040528060018152602001600760fb1b81525090614a375760405162461bcd60e51b815260040161072e9190615632565b5084820391508263ffffffff168263ffffffff1681614a6657634e487b7160e01b600052601260045260246000fd5b0463ffffffff16846001600160701b0316901c93508263ffffffff168263ffffffff1681614aa457634e487b7160e01b600052601260045260246000fd5b06915063ffffffff82161580614ac157506001600160701b038416155b15614acd5750826113cf565b60006001600160701b0385168163ffffffff86811690861671b17217f7d1cf79abc9e3b39803f2f6af40f30281614b1457634e487b7160e01b600052601260045260246000fd5b049050600160901b5b8215614b8157928201928082840281614b4657634e487b7160e01b600052601260045260246000fd5b0493849003939250600160901b018082840281614b7357634e487b7160e01b600052601260045260246000fd5b049250600160901b01614b1d565b5091979650505050505050565b60606113cf848460008585843b614be75760405162461bcd60e51b815260206004820152601d60248201527f416464726573733a2063616c6c20746f206e6f6e2d636f6e7472616374000000604482015260640161072e565b600080866001600160a01b03168587604051614c0391906154aa565b60006040518083038185875af1925050503d8060008114614c40576040519150601f19603f3d011682016040523d82523d6000602084013e614c45565b606091505b5091509150614c55828286614c60565b979650505050505050565b60608315614c6f57508161450e565b825115614c7f5782518084602001fd5b8160405162461bcd60e51b815260040161072e9190615632565b828054614ca5906159af565b90600052602060002090601f016020900481019282614cc75760008555614d0d565b82601f10614ce057805160ff1916838001178555614d0d565b82800160010185558215614d0d579182015b82811115614d0d578251825591602001919060010190614cf2565b50614d19929150614d91565b5090565b828054614d29906159af565b90600052602060002090601f016020900481019282614d4b5760008555614d0d565b82601f10614d645782800160ff19823516178555614d0d565b82800160010185558215614d0d579182015b82811115614d0d578235825591602001919060010190614d76565b5b80821115614d195760008155600101614d92565b8035614db181615a66565b919050565b8035614db181615a51565b60008083601f840112614dd2578182fd5b5081356001600160401b03811115614de8578182fd5b602083019150836020828501011115614e0057600080fd5b9250929050565b600082601f830112614e17578081fd5b8135614e2a614e2582615837565b615807565b818152846020838601011115614e3e578283fd5b816020850160208301379081016020019190915292915050565b8035614db181615a74565b8035614db181615a89565b803563ffffffff81168114614db157600080fd5b80356001600160601b0381168114614db157600080fd5b600060208284031215614eaa578081fd5b813561450e81615a51565b600060208284031215614ec6578081fd5b815161450e81615a51565b60008060008060008060a08789031215614ee9578182fd5b8635614ef481615a51565b95506020870135614f0481615a51565b94506040870135614f1481615a51565b93506060870135614f2481615a51565b925060808701356001600160401b0380821115614f3f578384fd5b818901915089601f830112614f52578384fd5b813581811115614f60578485fd5b8a60208260051b8501011115614f74578485fd5b6020830194508093505050509295509295509295565b600080600060608486031215614f9e578283fd5b8335614fa981615a51565b92506020840135614fb981615a51565b929592945050506040919091013590565b600060208284031215614fdb578081fd5b815161450e81615a66565b600080600060608486031215614ffa578081fd5b833561500581615a51565b9250602084013561501581615a51565b9150604084013561502581615a51565b809150509250925092565b60008060008060808587031215615045578182fd5b843561505081615a51565b9350602085013561506081615a51565b9250604085013561507081615a74565b915061507e60608601614e6e565b905092959194509250565b600080600080600060a086880312156150a0578283fd5b85356150ab81615a51565b945060208601356150bb81615a51565b935060408601356150cb81615a74565b92506150d960608701614e6e565b949793965091946080013592915050565b600080602083850312156150fc578182fd5b82356001600160401b03811115615111578283fd5b61511d85828601614dc1565b90969095509350505050565b60006020828403121561513a578081fd5b81516001600160401b0381111561514f578182fd5b8201601f8101841361515f578182fd5b805161516d614e2582615837565b818152856020838501011115615181578384fd5b615192826020830160208601615983565b95945050505050565b600080600080600080600060c0888a0312156151b5578485fd5b87356001600160401b03808211156151cb578687fd5b6151d78b838c01614e07565b985060208a01359150808211156151ec578687fd5b506151f98a828b01614dc1565b909750955050604088013561520d81615a89565b9350606088013561521d81615a51565b9250608088013561522d81615a51565b915060a088013561523d81615a51565b8091505092959891949750929550565b6000806000806000806000806000806101408b8d03121561526c578384fd5b8a356001600160401b0380821115615282578586fd5b61528e8e838f01614e07565b9b5060208d01359150808211156152a3578586fd5b506152b08d828e01614e07565b9950506152bf60408c01614e6e565b97506152cd60608c01614e58565b96506152db60808c01614db6565b95506152e960a08c01614e63565b94506152f760c08c01614e6e565b935061530560e08c01614e6e565b92506153146101008c01614e82565b91506153236101208c01614da6565b90509295989b9194979a5092959850565b600080600060608486031215615348578081fd5b835161535381615a74565b602085015190935061536481615a74565b604085015190925061502581615a74565b600060208284031215615386578081fd5b813561450e81615a89565b6000602082840312156153a2578081fd5b815161450e81615a89565b6000602082840312156153be578081fd5b5035919050565b6000602082840312156153d6578081fd5b5051919050565b600080600080608085870312156153f2578182fd5b84359350602085013561540481615a51565b925061541260408601614e6e565b9396929550929360600135925050565b60008060408385031215615434578182fd5b50508035926020909101359150565b600060208284031215615454578081fd5b61450e82614e6e565b60006020828403121561546e578081fd5b815160ff8116811461450e578182fd5b60008151808452615496816020860160208601615983565b601f01601f19169290920160200192915050565b600082516154bc818460208701615983565b9190910192915050565b600083516154d8818460208801615983565b600160fd1b90830190815283516154f6816001840160208801615983565b01600101949350505050565b6001600160a01b0391909116815260200190565b6001600160a01b039290921682521515602082015260400190565b6001600160a01b039290921682526001600160701b0316602082015260400190565b6001600160a01b03929092168252602082015260400190565b6020808252825182820181905260009190848201906040850190845b818110156155ad5783516001600160a01b031683529284019291840191600101615588565b50909695505050505050565b6001600160a01b039390931683526001600160701b0391909116602083015263ffffffff16604082015260600190565b6001600160a01b0392831681529116602082015260400190565b60208152816020820152818360408301376000818301604090810191909152601f909201601f19160101919050565b60208152600061450e602083018461547e565b6101808152600061565a61018083018f61547e565b828103602084015261566c818f61547e565b604084018e905263ffffffff8d811660608601528c811660808601528b1660a085015261ffff8a1660c085015260e0840189905261010084018890526001600160701b03878116610120860152861661014085015291506156ca9050565b63ffffffff83166101608301529d9c50505050505050505050505050565b6060815260006156fb606083018661547e565b828103602084015261570d818661547e565b91505060ff83166040830152949350505050565b81516001600160701b0316815260208083015161ffff169082015260408083015163ffffffff9081169183019190915260608084015182169083015260808084015182169083015260a080840151918216908301526101008201905060c083015161579760c08401826001600160701b03169052565b5060e08301516157ad60e084018261ffff169052565b5092915050565b6001600160701b0392831681529116602082015260400190565b958652602086019490945260408501929092526060840152608083015260a082015260c00190565b63ffffffff91909116815260200190565b604051601f8201601f191681016001600160401b038111828210171561582f5761582f615a3b565b604052919050565b60006001600160401b0382111561585057615850615a3b565b50601f01601f191660200190565b60006001600160701b0382811684821680830382111561588057615880615a25565b01949350505050565b6000821982111561589c5761589c615a25565b500190565b600063ffffffff80831681851680830382111561588057615880615a25565b6000826158db57634e487b7160e01b81526012600452602481fd5b500490565b60008160001904831182151516156158fa576158fa615a25565b500290565b60008160010b8360010b82811281617fff190183128115161561592457615924615a25565b81617fff01831381161561593a5761593a615a25565b5090039392505050565b60006001600160701b038381169083168181101561596457615964615a25565b039392505050565b60008282101561597e5761597e615a25565b500390565b60005b8381101561599e578181015183820152602001615986565b838111156144ce5750506000910152565b600181811c908216806159c357607f821691505b602082108114156159e457634e487b7160e01b600052602260045260246000fd5b50919050565b60006000198214156159fe576159fe615a25565b5060010190565b60008160010b617fff19811415615a1e57615a1e615a25565b9003919050565b634e487b7160e01b600052601160045260246000fd5b634e487b7160e01b600052604160045260246000fd5b6001600160a01b038116811461322757600080fd5b801515811461322757600080fd5b6001600160701b038116811461322757600080fd5b61ffff8116811461322757600080fdfe87cdeaffd8e70903d6ce7cc983fac3b09ca79e83818124c98e47a1d70f8027d6e5f63c82bf3ad1341ce6c32dc2d5ed3f732d99de132df995de19d0d6802bdd634f471908b72bb76dae5bd24599026e7bf3ddb256497722888ffa422f83729ede7c5a703a1928f0d18042c0454d90ddfe036b518c756a39cd82aca939b71d801b926b69b9f7735227079a308fce165b111b96e2983e70a86a381ee047675ff39fd1248cccb5fef9131c731321e43e9a924840ffee7dc68c7d1d3e5cb7dedcae0327894f6b9c469a3eddbe98dd0df54563b6437b20982876e0c2cd60c211a156460dc14fdd751203f0c4dac8cc93c303e991c5f8e60af35674d5c82061929762ddbefcd50991bb64333037879282220d78a901bb4809351643f56628af8a4656dfc8dfab451067f726e1077626e126c7f77149630cc1b0056cf60307a289a118298be0079c531659141344cd1fd0a4f28419497f9722a3daafe3b4186f6b6457e07aa9698a01d2094fb8a580e2c72a6fc3f3bfecfd4cbdc457461118c59a6fefe4f6ae16e9e9771497fc501d1caac6168e19c36e4639d7273813e3b57066035f2a92a4dc1fa715a8cafb0cdc060f729eb1dfdddcbc9effbdc8d822cdf5ebcf4907971f32e7fcf39ef3d42dd88b6e08b31dd4bd8f53e7299c95b669c82e23807e2fa70de76be90dc9c5d9243b0bc73c3d963ba703a0a396f29134bf5b4e6197c180a2646970667358221220e741f5a6140f7416cc34dfa1b2a9d89d993db0c29531b15e16839e64b3f1389d64736f6c63430008040033",
  "linkReferences": {},
  "deployedLinkReferences": {}
}