{
  "_format": "hh-sol-artifact-1",
  "contractName": "Enterprise",
  "sourceName": "contracts/Enterprise.sol",
  "abi": [
    {
      "anonymous": false,
      "inputs": [
        {
          "indexed": true,
          "internalType": "address",
          "name": "powerToken",
          "type": "address"
        },
        {
          "indexed": false,
          "internalType": "uint256",
          "name": "tokenId",
          "type": "uint256"
        },
        {
          "indexed": false,
          "internalType": "uint32",
          "name": "from",
          "type": "uint32"
        },
        {
          "indexed": false,
          "internalType": "uint32",
          "name": "to",
          "type": "uint32"
        }
      ],
      "name": "Borrowed",
      "type": "event"
    },
    {
      "anonymous": false,
      "inputs": [
        {
          "indexed": true,
          "internalType": "address",
          "name": "previousOwner",
          "type": "address"
        },
        {
          "indexed": true,
          "internalType": "address",
          "name": "newOwner",
          "type": "address"
        }
      ],
      "name": "OwnershipTransferred",
      "type": "event"
    },
    {
      "anonymous": false,
      "inputs": [
        {
          "indexed": true,
          "internalType": "address",
          "name": "powerToken",
          "type": "address"
        },
        {
          "indexed": false,
          "internalType": "uint32",
          "name": "halfLife",
          "type": "uint32"
        },
        {
          "indexed": false,
          "internalType": "uint112",
          "name": "factor",
          "type": "uint112"
        }
      ],
      "name": "ServiceRegistered",
      "type": "event"
    },
    {
      "inputs": [
        {
          "internalType": "uint256",
          "name": "liquidityAmount",
          "type": "uint256"
        }
      ],
      "name": "addLiquidity",
      "outputs": [],
      "stateMutability": "nonpayable",
      "type": "function"
    },
    {
      "inputs": [
        {
          "internalType": "contract IPowerToken",
          "name": "powerToken",
          "type": "address"
        },
        {
          "internalType": "contract IERC20",
          "name": "paymentToken",
          "type": "address"
        },
        {
          "internalType": "uint112",
          "name": "amount",
          "type": "uint112"
        },
        {
          "internalType": "uint256",
          "name": "maximumPayment",
          "type": "uint256"
        },
        {
          "internalType": "uint32",
          "name": "duration",
          "type": "uint32"
        }
      ],
      "name": "borrow",
      "outputs": [],
      "stateMutability": "nonpayable",
      "type": "function"
    },
    {
      "inputs": [
        {
          "internalType": "address",
          "name": "token",
          "type": "address"
        }
      ],
      "name": "disablePaymentToken",
      "outputs": [],
      "stateMutability": "nonpayable",
      "type": "function"
    },
    {
      "inputs": [
        {
          "internalType": "address",
          "name": "token",
          "type": "address"
        }
      ],
      "name": "enablePaymentToken",
      "outputs": [],
      "stateMutability": "nonpayable",
      "type": "function"
    },
    {
      "inputs": [
        {
          "internalType": "contract IPowerToken",
          "name": "powerToken",
          "type": "address"
        },
        {
          "internalType": "contract IERC20",
          "name": "paymentToken",
          "type": "address"
        },
        {
          "internalType": "uint112",
          "name": "amount",
          "type": "uint112"
        },
        {
          "internalType": "uint32",
          "name": "duration",
          "type": "uint32"
        }
      ],
      "name": "estimateLoan",
      "outputs": [
        {
          "internalType": "uint256",
          "name": "",
          "type": "uint256"
        }
      ],
      "stateMutability": "view",
      "type": "function"
    },
    {
      "inputs": [],
      "name": "getAvailableReserve",
      "outputs": [
        {
          "internalType": "uint256",
          "name": "",
          "type": "uint256"
        }
      ],
      "stateMutability": "view",
      "type": "function"
    },
    {
      "inputs": [],
      "name": "getBaseUri",
      "outputs": [
        {
          "internalType": "string",
          "name": "",
          "type": "string"
        }
      ],
      "stateMutability": "view",
      "type": "function"
    },
    {
      "inputs": [],
      "name": "getBorrowToken",
      "outputs": [
        {
          "internalType": "contract IBorrowToken",
          "name": "",
          "type": "address"
        }
      ],
      "stateMutability": "view",
      "type": "function"
    },
    {
      "inputs": [],
      "name": "getBorrowerLoanReturnGracePeriod",
      "outputs": [
        {
          "internalType": "uint32",
          "name": "",
          "type": "uint32"
        }
      ],
      "stateMutability": "view",
      "type": "function"
    },
    {
      "inputs": [],
      "name": "getConverter",
      "outputs": [
        {
          "internalType": "contract IConverter",
          "name": "",
          "type": "address"
        }
      ],
      "stateMutability": "view",
      "type": "function"
    },
    {
      "inputs": [],
      "name": "getEnterpriseCollector",
      "outputs": [
        {
          "internalType": "address",
          "name": "",
          "type": "address"
        }
      ],
      "stateMutability": "view",
      "type": "function"
    },
    {
      "inputs": [],
      "name": "getEnterpriseLoanCollectGracePeriod",
      "outputs": [
        {
          "internalType": "uint32",
          "name": "",
          "type": "uint32"
        }
      ],
      "stateMutability": "view",
      "type": "function"
    },
    {
      "inputs": [],
      "name": "getEnterpriseVault",
      "outputs": [
        {
          "internalType": "address",
          "name": "",
          "type": "address"
        }
      ],
      "stateMutability": "view",
      "type": "function"
    },
    {
      "inputs": [],
      "name": "getEstimator",
      "outputs": [
        {
          "internalType": "contract IEstimator",
          "name": "",
          "type": "address"
        }
      ],
      "stateMutability": "view",
      "type": "function"
    },
    {
      "inputs": [],
      "name": "getGCFeePercent",
      "outputs": [
        {
          "internalType": "uint16",
          "name": "",
          "type": "uint16"
        }
      ],
      "stateMutability": "view",
      "type": "function"
    },
    {
      "inputs": [],
      "name": "getInfo",
      "outputs": [
        {
          "internalType": "uint256",
          "name": "reserve",
          "type": "uint256"
        },
        {
          "internalType": "uint256",
          "name": "usedReserve",
          "type": "uint256"
        },
        {
          "internalType": "uint256",
          "name": "totalShares",
          "type": "uint256"
        },
        {
          "internalType": "string",
          "name": "name",
          "type": "string"
        }
      ],
      "stateMutability": "view",
      "type": "function"
    },
    {
      "inputs": [],
      "name": "getInterestToken",
      "outputs": [
        {
          "internalType": "contract IInterestToken",
          "name": "",
          "type": "address"
        }
      ],
      "stateMutability": "view",
      "type": "function"
    },
    {
      "inputs": [
        {
          "internalType": "uint256",
          "name": "tokenId",
          "type": "uint256"
        }
      ],
      "name": "getLiquidityInfo",
      "outputs": [
        {
          "components": [
            {
              "internalType": "uint256",
              "name": "amount",
              "type": "uint256"
            },
            {
              "internalType": "uint256",
              "name": "shares",
              "type": "uint256"
            },
            {
              "internalType": "uint256",
              "name": "block",
              "type": "uint256"
            }
          ],
          "internalType": "struct EnterpriseStorage.LiquidityInfo",
          "name": "",
          "type": "tuple"
        }
      ],
      "stateMutability": "view",
      "type": "function"
    },
    {
      "inputs": [],
      "name": "getLiquidityToken",
      "outputs": [
        {
          "internalType": "contract IERC20Metadata",
          "name": "",
          "type": "address"
        }
      ],
      "stateMutability": "view",
      "type": "function"
    },
    {
      "inputs": [
        {
          "internalType": "uint256",
          "name": "tokenId",
          "type": "uint256"
        }
      ],
      "name": "getLoanInfo",
      "outputs": [
        {
          "components": [
            {
              "internalType": "uint112",
              "name": "amount",
              "type": "uint112"
            },
            {
              "internalType": "uint16",
              "name": "powerTokenIndex",
              "type": "uint16"
            },
            {
              "internalType": "uint32",
              "name": "borrowingTime",
              "type": "uint32"
            },
            {
              "internalType": "uint32",
              "name": "maturityTime",
              "type": "uint32"
            },
            {
              "internalType": "uint32",
              "name": "borrowerReturnGraceTime",
              "type": "uint32"
            },
            {
              "internalType": "uint32",
              "name": "enterpriseCollectGraceTime",
              "type": "uint32"
            },
            {
              "internalType": "uint112",
              "name": "gcFee",
              "type": "uint112"
            },
            {
              "internalType": "uint16",
              "name": "gcFeeTokenIndex",
              "type": "uint16"
            }
          ],
          "internalType": "struct EnterpriseStorage.LoanInfo",
          "name": "",
          "type": "tuple"
        }
      ],
      "stateMutability": "view",
      "type": "function"
    },
    {
      "inputs": [
        {
          "internalType": "uint256",
          "name": "tokenId",
          "type": "uint256"
        }
      ],
      "name": "getOwedInterest",
      "outputs": [
        {
          "internalType": "uint256",
          "name": "",
          "type": "uint256"
        }
      ],
      "stateMutability": "view",
      "type": "function"
    },
    {
      "inputs": [
        {
          "internalType": "uint256",
          "name": "index",
          "type": "uint256"
        }
      ],
      "name": "getPowerToken",
      "outputs": [
        {
          "internalType": "contract IPowerToken",
          "name": "",
          "type": "address"
        }
      ],
      "stateMutability": "view",
      "type": "function"
    },
    {
      "inputs": [],
      "name": "getPowerTokenImpl",
      "outputs": [
        {
          "internalType": "address",
          "name": "",
          "type": "address"
        }
      ],
      "stateMutability": "view",
      "type": "function"
    },
    {
      "inputs": [
        {
          "internalType": "contract IPowerToken",
          "name": "powerToken",
          "type": "address"
        }
      ],
      "name": "getPowerTokenIndex",
      "outputs": [
        {
          "internalType": "uint16",
          "name": "",
          "type": "uint16"
        }
      ],
      "stateMutability": "view",
      "type": "function"
    },
    {
      "inputs": [],
      "name": "getPowerTokens",
      "outputs": [
        {
          "internalType": "contract IPowerToken[]",
          "name": "",
          "type": "address[]"
        }
      ],
      "stateMutability": "view",
      "type": "function"
    },
    {
      "inputs": [],
      "name": "getPowerTokensInfo",
      "outputs": [
        {
          "internalType": "address[]",
          "name": "addresses",
          "type": "address[]"
        },
        {
          "internalType": "string[]",
          "name": "names",
          "type": "string[]"
        },
        {
          "internalType": "string[]",
          "name": "symbols",
          "type": "string[]"
        },
        {
          "internalType": "uint32[]",
          "name": "halfLifes",
          "type": "uint32[]"
        }
      ],
      "stateMutability": "view",
      "type": "function"
    },
    {
      "inputs": [],
      "name": "getReserve",
      "outputs": [
        {
          "internalType": "uint256",
          "name": "",
          "type": "uint256"
        }
      ],
      "stateMutability": "view",
      "type": "function"
    },
    {
      "inputs": [
        {
          "internalType": "contract IPowerToken",
          "name": "powerToken",
          "type": "address"
        }
      ],
      "name": "getServiceBaseRate",
      "outputs": [
        {
          "internalType": "uint112",
          "name": "",
          "type": "uint112"
        }
      ],
      "stateMutability": "view",
      "type": "function"
    },
    {
      "inputs": [
        {
          "internalType": "contract IPowerToken",
          "name": "powerToken",
          "type": "address"
        }
      ],
      "name": "getServiceBaseToken",
      "outputs": [
        {
          "internalType": "contract IERC20Metadata",
          "name": "",
          "type": "address"
        }
      ],
      "stateMutability": "view",
      "type": "function"
    },
    {
      "inputs": [
        {
          "internalType": "contract IPowerToken",
          "name": "powerToken",
          "type": "address"
        }
      ],
      "name": "getServiceFeePercent",
      "outputs": [
        {
          "internalType": "uint112",
          "name": "",
          "type": "uint112"
        }
      ],
      "stateMutability": "view",
      "type": "function"
    },
    {
      "inputs": [
        {
          "internalType": "contract IPowerToken",
          "name": "powerToken",
          "type": "address"
        }
      ],
      "name": "getServiceHalfLife",
      "outputs": [
        {
          "internalType": "uint32",
          "name": "",
          "type": "uint32"
        }
      ],
      "stateMutability": "view",
      "type": "function"
    },
    {
      "inputs": [
        {
          "internalType": "contract IPowerToken",
          "name": "powerToken",
          "type": "address"
        }
      ],
      "name": "getServiceMaxLoanDuration",
      "outputs": [
        {
          "internalType": "uint32",
          "name": "",
          "type": "uint32"
        }
      ],
      "stateMutability": "view",
      "type": "function"
    },
    {
      "inputs": [
        {
          "internalType": "contract IPowerToken",
          "name": "powerToken",
          "type": "address"
        }
      ],
      "name": "getServiceMinGCFee",
      "outputs": [
        {
          "internalType": "uint112",
          "name": "",
          "type": "uint112"
        }
      ],
      "stateMutability": "view",
      "type": "function"
    },
    {
      "inputs": [
        {
          "internalType": "contract IPowerToken",
          "name": "powerToken",
          "type": "address"
        }
      ],
      "name": "getServiceMinLoanDuration",
      "outputs": [
        {
          "internalType": "uint32",
          "name": "",
          "type": "uint32"
        }
      ],
      "stateMutability": "view",
      "type": "function"
    },
    {
      "inputs": [],
      "name": "getUsedReserve",
      "outputs": [
        {
          "internalType": "uint256",
          "name": "",
          "type": "uint256"
        }
      ],
      "stateMutability": "view",
      "type": "function"
    },
    {
      "inputs": [
        {
          "internalType": "address",
          "name": "initialOwner",
          "type": "address"
        }
      ],
      "name": "initialize",
      "outputs": [],
      "stateMutability": "nonpayable",
      "type": "function"
    },
    {
      "inputs": [
        {
          "internalType": "string",
          "name": "enterpriseName",
          "type": "string"
        },
        {
          "internalType": "string",
          "name": "baseUri",
          "type": "string"
        },
        {
          "internalType": "contract IEstimator",
          "name": "estimator",
          "type": "address"
        },
        {
          "internalType": "contract IConverter",
          "name": "converter",
          "type": "address"
        },
        {
          "internalType": "address",
          "name": "owner",
          "type": "address"
        }
      ],
      "name": "initialize",
      "outputs": [],
      "stateMutability": "nonpayable",
      "type": "function"
    },
    {
      "inputs": [
        {
          "internalType": "address",
          "name": "powerTokenImpl",
          "type": "address"
        },
        {
          "internalType": "contract IERC20Metadata",
          "name": "liquidityToken",
          "type": "address"
        },
        {
          "internalType": "contract IInterestToken",
          "name": "interestToken",
          "type": "address"
        },
        {
          "internalType": "contract IBorrowToken",
          "name": "borrowToken",
          "type": "address"
        }
      ],
      "name": "initializeTokens",
      "outputs": [],
      "stateMutability": "nonpayable",
      "type": "function"
    },
    {
      "inputs": [
        {
          "internalType": "contract IPowerToken",
          "name": "powerToken",
          "type": "address"
        }
      ],
      "name": "isRegisteredPowerToken",
      "outputs": [
        {
          "internalType": "bool",
          "name": "",
          "type": "bool"
        }
      ],
      "stateMutability": "view",
      "type": "function"
    },
    {
      "inputs": [
        {
          "internalType": "contract IPowerToken",
          "name": "powerToken",
          "type": "address"
        },
        {
          "internalType": "uint32",
          "name": "duration",
          "type": "uint32"
        }
      ],
      "name": "isServiceAllowedLoanDuration",
      "outputs": [
        {
          "internalType": "bool",
          "name": "",
          "type": "bool"
        }
      ],
      "stateMutability": "view",
      "type": "function"
    },
    {
      "inputs": [
        {
          "internalType": "contract IERC20",
          "name": "token",
          "type": "address"
        }
      ],
      "name": "isSupportedPaymentToken",
      "outputs": [
        {
          "internalType": "bool",
          "name": "",
          "type": "bool"
        }
      ],
      "stateMutability": "view",
      "type": "function"
    },
    {
      "inputs": [
        {
          "internalType": "address",
          "name": "from",
          "type": "address"
        },
        {
          "internalType": "address",
          "name": "to",
          "type": "address"
        },
        {
          "internalType": "uint256",
          "name": "tokenId",
          "type": "uint256"
        }
      ],
      "name": "loanTransfer",
      "outputs": [],
      "stateMutability": "nonpayable",
      "type": "function"
    },
    {
      "inputs": [],
      "name": "owner",
      "outputs": [
        {
          "internalType": "address",
          "name": "",
          "type": "address"
        }
      ],
      "stateMutability": "view",
      "type": "function"
    },
    {
      "inputs": [
        {
          "internalType": "uint256",
          "name": "index",
          "type": "uint256"
        }
      ],
      "name": "paymentToken",
      "outputs": [
        {
          "internalType": "address",
          "name": "",
          "type": "address"
        }
      ],
      "stateMutability": "view",
      "type": "function"
    },
    {
      "inputs": [
        {
          "internalType": "contract IERC20",
          "name": "token",
          "type": "address"
        }
      ],
      "name": "paymentTokenIndex",
      "outputs": [
        {
          "internalType": "int16",
          "name": "",
          "type": "int16"
        }
      ],
      "stateMutability": "view",
      "type": "function"
    },
    {
      "inputs": [
        {
          "internalType": "uint256",
          "name": "tokenId",
          "type": "uint256"
        },
        {
          "internalType": "contract IERC20",
          "name": "paymentToken",
          "type": "address"
        },
        {
          "internalType": "uint256",
          "name": "maximumPayment",
          "type": "uint256"
        },
        {
          "internalType": "uint32",
          "name": "duration",
          "type": "uint32"
        }
      ],
      "name": "reborrow",
      "outputs": [],
      "stateMutability": "nonpayable",
      "type": "function"
    },
    {
      "inputs": [
        {
          "internalType": "string",
          "name": "serviceName",
          "type": "string"
        },
        {
          "internalType": "string",
          "name": "symbol",
          "type": "string"
        },
        {
          "internalType": "uint32",
          "name": "halfLife",
          "type": "uint32"
        },
        {
          "internalType": "uint112",
          "name": "baseRate",
          "type": "uint112"
        },
        {
          "internalType": "contract IERC20Metadata",
          "name": "baseToken",
          "type": "address"
        },
        {
          "internalType": "uint16",
          "name": "serviceFee",
          "type": "uint16"
        },
        {
          "internalType": "uint32",
          "name": "minLoanDuration",
          "type": "uint32"
        },
        {
          "internalType": "uint32",
          "name": "maxLoanDuration",
          "type": "uint32"
        },
        {
          "internalType": "uint112",
          "name": "minGCFee",
          "type": "uint112"
        }
      ],
      "name": "registerService",
      "outputs": [],
      "stateMutability": "nonpayable",
      "type": "function"
    },
    {
      "inputs": [
        {
          "internalType": "uint256",
          "name": "tokenId",
          "type": "uint256"
        }
      ],
      "name": "removeLiquidity",
      "outputs": [],
      "stateMutability": "nonpayable",
      "type": "function"
    },
    {
      "inputs": [
        {
          "internalType": "uint256",
          "name": "tokenId",
          "type": "uint256"
        }
      ],
      "name": "returnLoan",
      "outputs": [],
      "stateMutability": "nonpayable",
      "type": "function"
    },
    {
      "inputs": [
        {
          "internalType": "string",
          "name": "baseUri",
          "type": "string"
        }
      ],
      "name": "setBaseUri",
      "outputs": [],
      "stateMutability": "nonpayable",
      "type": "function"
    },
    {
      "inputs": [
        {
          "internalType": "uint32",
          "name": "newPeriod",
          "type": "uint32"
        }
      ],
      "name": "setBorrowerLoanReturnGracePeriod",
      "outputs": [],
      "stateMutability": "nonpayable",
      "type": "function"
    },
    {
      "inputs": [
        {
          "internalType": "contract IConverter",
          "name": "newConverter",
          "type": "address"
        }
      ],
      "name": "setConverter",
      "outputs": [],
      "stateMutability": "nonpayable",
      "type": "function"
    },
    {
      "inputs": [
        {
          "internalType": "address",
          "name": "newCollector",
          "type": "address"
        }
      ],
      "name": "setEnterpriseCollector",
      "outputs": [],
      "stateMutability": "nonpayable",
      "type": "function"
    },
    {
      "inputs": [
        {
          "internalType": "uint32",
          "name": "newPeriod",
          "type": "uint32"
        }
      ],
      "name": "setEnterpriseLoanCollectGracePeriod",
      "outputs": [],
      "stateMutability": "nonpayable",
      "type": "function"
    },
    {
      "inputs": [
        {
          "internalType": "address",
          "name": "newVault",
          "type": "address"
        }
      ],
      "name": "setEnterpriseVault",
      "outputs": [],
      "stateMutability": "nonpayable",
      "type": "function"
    },
    {
      "inputs": [
        {
          "internalType": "contract IEstimator",
          "name": "newEstimator",
          "type": "address"
        }
      ],
      "name": "setEstimator",
      "outputs": [],
      "stateMutability": "nonpayable",
      "type": "function"
    },
    {
      "inputs": [
        {
          "internalType": "uint16",
          "name": "newGcFeePercent",
          "type": "uint16"
        }
      ],
      "name": "setGcFeePercent",
      "outputs": [],
      "stateMutability": "nonpayable",
      "type": "function"
    },
    {
      "inputs": [
        {
          "internalType": "contract IPowerToken",
          "name": "powerToken",
          "type": "address"
        },
        {
          "internalType": "uint112",
          "name": "baseRate",
          "type": "uint112"
        },
        {
          "internalType": "contract IERC20Metadata",
          "name": "baseToken",
          "type": "address"
        },
        {
          "internalType": "uint112",
          "name": "minGCFee",
          "type": "uint112"
        }
      ],
      "name": "setServiceBaseRate",
      "outputs": [],
      "stateMutability": "nonpayable",
      "type": "function"
    },
    {
      "inputs": [
        {
          "internalType": "contract IPowerToken",
          "name": "powerToken",
          "type": "address"
        },
        {
          "internalType": "uint16",
          "name": "newServiceFeePercent",
          "type": "uint16"
        }
      ],
      "name": "setServiceFeePercent",
      "outputs": [],
      "stateMutability": "nonpayable",
      "type": "function"
    },
    {
      "inputs": [
        {
          "internalType": "contract IPowerToken[]",
          "name": "powerToken",
          "type": "address[]"
        },
        {
          "internalType": "uint16[]",
          "name": "newServiceFeePercent",
          "type": "uint16[]"
        }
      ],
      "name": "setServiceFeePercentBatch",
      "outputs": [],
      "stateMutability": "nonpayable",
      "type": "function"
    },
    {
      "inputs": [
        {
          "internalType": "contract IPowerToken",
          "name": "powerToken",
          "type": "address"
        },
        {
          "internalType": "uint32",
          "name": "minLoanDuration",
          "type": "uint32"
        },
        {
          "internalType": "uint32",
          "name": "maxLoanDuration",
          "type": "uint32"
        }
      ],
      "name": "setServiceLoanDurationLimits",
      "outputs": [],
      "stateMutability": "nonpayable",
      "type": "function"
    },
    {
      "inputs": [
        {
          "internalType": "address",
          "name": "newOwner",
          "type": "address"
        }
      ],
      "name": "transferOwnership",
      "outputs": [],
      "stateMutability": "nonpayable",
      "type": "function"
    },
    {
      "inputs": [
        {
          "internalType": "contract IPowerToken",
          "name": "powerToken",
          "type": "address"
        },
        {
          "internalType": "uint256",
          "name": "amount",
          "type": "uint256"
        }
      ],
      "name": "unwrap",
      "outputs": [
        {
          "internalType": "bool",
          "name": "",
          "type": "bool"
        }
      ],
      "stateMutability": "nonpayable",
      "type": "function"
    },
    {
      "inputs": [
        {
          "internalType": "uint256",
          "name": "tokenId",
          "type": "uint256"
        }
      ],
      "name": "withdrawInterest",
      "outputs": [],
      "stateMutability": "nonpayable",
      "type": "function"
    },
    {
      "inputs": [
        {
          "internalType": "contract IPowerToken",
          "name": "powerToken",
          "type": "address"
        },
        {
          "internalType": "uint256",
          "name": "amount",
          "type": "uint256"
        }
      ],
      "name": "wrap",
      "outputs": [
        {
          "internalType": "bool",
          "name": "",
          "type": "bool"
        }
      ],
      "stateMutability": "nonpayable",
      "type": "function"
    },
    {
      "inputs": [
        {
          "internalType": "contract IPowerToken",
          "name": "powerToken",
          "type": "address"
        },
        {
          "internalType": "address",
          "name": "to",
          "type": "address"
        },
        {
          "internalType": "uint256",
          "name": "amount",
          "type": "uint256"
        }
      ],
      "name": "wrapTo",
      "outputs": [
        {
          "internalType": "bool",
          "name": "",
          "type": "bool"
        }
      ],
      "stateMutability": "nonpayable",
      "type": "function"
    }
  ],
  "bytecode": "0x608060405260088054600160a01b600160e01b031916650546000002a360a61b17905534801561002e57600080fd5b506155a7806200003f6000396000f3fe608060405234801561001057600080fd5b50600436106103e65760003560e01c806390f55edd1161020a578063c20aa9bc11610125578063e36eca0c116100b8578063f4e28f9a11610087578063f4e28f9a14610a5c578063faaed4ad14610a95578063fbac9a5514610aa8578063fc0915b114610ace578063fcb2884e14610ae157600080fd5b8063e36eca0c146109ec578063e902868314610a23578063e912615414610a36578063f2fde38b14610a4957600080fd5b8063d1c82007116100f4578063d1c8200714610958578063db0ed6a014610991578063df57f2fa146109a4578063e2b17a16146109d957600080fd5b8063c20aa9bc1461090e578063c2fe50dd14610921578063c4d66de814610934578063c93d0b921461094757600080fd5b8063b19337a41161019d578063bf1708801161016c578063bf170880146108c4578063bf376c7a146108d5578063bf3bb1a5146108e8578063bfd84fb4146108fb57600080fd5b8063b19337a414610867578063b406bf6d1461087a578063b56de97e1461089c578063b96266fa146108af57600080fd5b8063a0efd118116101d9578063a0efd11814610826578063a358426f1461083b578063a554b26d1461084e578063aebb50411461085f57600080fd5b806390f55edd146107da5780639c7aa7f8146107ed5780639c8f9f2314610800578063a0bcfc7f1461081357600080fd5b80633d4df89711610305578063644e44df1161029857806383b9a0091161026757806383b9a0091461077f57806389035b61146107905780638d6d50c9146107a35780638da5cb5b146107b65780638e9fcf81146107c757600080fd5b8063644e44df146107245780637791c42d146107355780637eda9ff8146107465780638188d50d1461075957600080fd5b806353c09124116102d457806353c09124146106c257806359bf5d39146106f15780635a9b0b89146106f957806362c1f3881461071157600080fd5b80633d4df89714610671578063449497ec14610689578063512a53bc1461069c57806351c6590a146106af57600080fd5b80632261b07f1161037d5780632e365ade1161034c5780632e365ade146106155780632fb2067f146106285780633184fc641461064b57806339f476931461065e57600080fd5b80632261b07f14610586578063229304dc146105975780632457056e146105b85780632b39a0ac1461060257600080fd5b80630e101b60116103b95780630e101b601461053c5780630ea1dc9e1461054f57806311eec52914610560578063158bf4511461057357600080fd5b806304196058146103eb5780630714012c1461041b57806308669aab146105125780630cac36b214610527575b600080fd5b6103fe6103f9366004614deb565b610ae9565b6040516001600160a01b0390911681526020015b60405180910390f35b610505610429366004614deb565b6040805161010081018252600080825260208201819052918101829052606081018290526080810182905260a0810182905260c0810182905260e08101919091525060009081526011602090815260409182902082516101008101845281546001600160701b038082168352600160701b80830461ffff90811696850196909652600160801b830463ffffffff90811697850197909752600160a01b830487166060850152600160c01b830487166080850152600160e01b90920490951660a083015260019092015493841660c082015292041660e082015290565b60405161041291906151c7565b610525610520366004614deb565b610b27565b005b61052f610c0a565b604051610412919061503c565b6103fe61054a366004614deb565b610c9c565b6002546001600160a01b03166103fe565b61052561056e366004614917565b610cbf565b610525610581366004614cdc565b610e12565b6006546001600160a01b03166103fe565b6105aa6105a5366004614a16565b6113bf565b604051908152602001610412565b6105ea6105c6366004614844565b6001600160a01b03166000908152601360205260409020546001600160701b031690565b6040516001600160701b039091168152602001610412565b6105ea610610366004614844565b611475565b610525610623366004614e57565b61149e565b61063b610636366004614844565b611549565b6040519015158152602001610412565b6105256106593660046148bc565b61156c565b61063b61066c366004614af3565b611614565b6106796116b4565b6040516104129493929190614f3c565b610525610697366004614dd1565b611a44565b6105256106aa36600461487c565b611a90565b6105256106bd366004614deb565b611dac565b6103fe6106d0366004614844565b6001600160a01b039081166000908152601360205260409020600101541690565b6105aa611ed5565b610701611efa565b604051610412949392919061526b565b61052561071f366004614844565b611fa6565b6001546001600160a01b03166103fe565b6008546001600160a01b03166103fe565b610525610754366004614844565b612018565b600854600160a01b900463ffffffff165b60405163ffffffff9091168152602001610412565b6004546001600160a01b03166103fe565b61063b61079e366004614844565b61208a565b61076a6107b1366004614844565b6120b4565b6000546001600160a01b03166103fe565b6105256107d5366004614b49565b6120dc565b6105256107e8366004614844565b6121d8565b6105256107fb366004614844565b61224a565b61052561080e366004614deb565b612280565b610525610821366004614b8d565b612410565b600854600160c01b900463ffffffff1661076a565b61063b610849366004614b1e565b61244b565b6007546001600160a01b03166103fe565b6105aa6124a4565b610525610875366004614844565b6124bb565b600854600160e01b900461ffff165b60405161ffff9091168152602001610412565b6105256108aa366004614e57565b61252d565b6108b76125d7565b6040516104129190614fef565b6005546001600160a01b03166103fe565b61063b6108e3366004614af3565b612638565b6105aa6108f6366004614deb565b61266b565b610525610909366004614844565b61269a565b61052561091c366004614abf565b6126f3565b61052561092f366004614e1b565b61274d565b610525610942366004614844565b612bb2565b6003546001600160a01b03166103fe565b61076a610966366004614844565b6001600160a01b0316600090815260136020526040902060010154600160a01b900463ffffffff1690565b61052561099f366004614c3e565b612cd2565b6109b76109b2366004614deb565b612d9e565b6040805182518152602080840151908201529181015190820152606001610412565b6105256109e73660046149b3565b612dfb565b6108896109fa366004614844565b6001600160a01b0316600090815260136020526040902060010154600160f01b900461ffff1690565b6105ea610a31366004614844565b61343a565b610525610a44366004614deb565b613465565b610525610a57366004614844565b61375a565b61076a610a6a366004614844565b6001600160a01b0316600090815260136020526040902060010154600160c01b900463ffffffff1690565b61063b610aa336600461499f565b613844565b610abb610ab6366004614844565b6138eb565b60405160019190910b8152602001610412565b610525610adc366004614a6f565b613918565b600d546105aa565b600060148281548110610b0c57634e487b7160e01b600052603260045260246000fd5b6000918252602090912001546001600160a01b031692915050565b60008181526012602052604081206001810154815491929091610b4983613a14565b610b53919061540c565b9050610b5d6124a4565b811115610baa5760405162461bcd60e51b8152602060048201526016602482015275496e73756666696369656e74206c697175696469747960501b60448201526064015b60405180910390fd5b600154610bc1906001600160a01b03163383613a36565b6000610bd08460000154613a99565b600185018190559050610be3818461540c565b600f6000828254610bf4919061540c565b90915550610c03905082613ab1565b5050505050565b6060600b8054610c199061546c565b80601f0160208091040260200160405190810160405280929190818152602001828054610c459061546c565b8015610c925780601f10610c6757610100808354040283529160200191610c92565b820191906000526020600020905b815481529060010190602001808311610c7557829003601f168201915b5050505050905090565b6000600a8281548110610b0c57634e487b7160e01b600052603260045260246000fd5b6000546001600160a01b03163314610ce95760405162461bcd60e51b8152600401610ba19061512f565b828114610d2f5760405162461bcd60e51b8152602060048201526014602482015273092dcecc2d8d2c840c2e4e4c2f240d8cadccee8d60631b6044820152606401610ba1565b60005b83811015610c0357610d72858583818110610d5d57634e487b7160e01b600052603260045260246000fd5b905060200201602081019061079e9190614844565b610d8e5760405162461bcd60e51b8152600401610ba190615164565b610e00858583818110610db157634e487b7160e01b600052603260045260246000fd5b9050602002016020810190610dc69190614844565b848484818110610de657634e487b7160e01b600052603260045260246000fd5b9050602002016020810190610dfb9190614dd1565b613b0c565b80610e0a816154a7565b915050610d32565b6000546001600160a01b03163314610e3c5760405162461bcd60e51b8152600401610ba19061512f565b6001600160a01b038516610e875760405162461bcd60e51b815260206004820152601260248201527124b73b30b634b2102130b9b2902a37b5b2b760711b6044820152606401610ba1565b60145461ffff11610eda5760405162461bcd60e51b815260206004820152601d60248201527f43616e6e6f74207265676973746572206d6f72652073657276696365730000006044820152606401610ba1565b8163ffffffff168363ffffffff161115610f365760405162461bcd60e51b815260206004820152601b60248201527f496e76616c6964206d696e20616e64206d617820706572696f647300000000006044820152606401610ba1565b60008763ffffffff1611610f805760405162461bcd60e51b8152602060048201526011602482015270496e76616c69642068616c66206c69666560781b6044820152606401610ba1565b600454600090610f98906001600160a01b0316613bac565b90506000600160009054906101000a90046001600160a01b03166001600160a01b03166395d89b416040518163ffffffff1660e01b815260040160006040518083038186803b158015610fea57600080fd5b505afa158015610ffe573d6000803e3d6000fd5b505050506040513d6000823e601f3d908101601f191682016040526110269190810190614bcc565b90506000818b60405160200161103d929190614f00565b60408051601f19818403018152908290526303bf912560e11b825291506001600160a01b0384169063077f224a9061107d908f908590309060040161504f565b600060405180830381600087803b15801561109757600080fd5b505af11580156110ab573d6000803e3d6000fd5b5050505060006040518061010001604052808b6001600160701b03168152602001866001600160701b031681526020018c63ffffffff1681526020018a6001600160a01b031681526020018863ffffffff1681526020018763ffffffff1681526020018961ffff16815260200160148054905061ffff1681525090508060136000866001600160a01b03166001600160a01b0316815260200190815260200160002060008201518160000160006101000a8154816001600160701b0302191690836001600160701b03160217905550602082015181600001600e6101000a8154816001600160701b0302191690836001600160701b03160217905550604082015181600001601c6101000a81548163ffffffff021916908363ffffffff16021790555060608201518160010160006101000a8154816001600160a01b0302191690836001600160a01b0316021790555060808201518160010160146101000a81548163ffffffff021916908363ffffffff16021790555060a08201518160010160186101000a81548163ffffffff021916908363ffffffff16021790555060c082015181600101601c6101000a81548161ffff021916908361ffff16021790555060e082015181600101601e6101000a81548161ffff021916908361ffff1602179055509050506014849080600181540180825580915050600190039060005260206000200160009091909190916101000a8154816001600160a01b0302191690836001600160a01b03160217905550600560009054906101000a90046001600160a01b03166001600160a01b031663508ee32c856040518263ffffffff1660e01b815260040161132b91906001600160a01b0391909116815260200190565b600060405180830381600087803b15801561134557600080fd5b505af1158015611359573d6000803e3d6000fd5b50506040805163ffffffff8f1681526001600160701b038e1660208201526001600160a01b03881693507f18706585e986f622c9d914abfb256d563b9ea274cd5d49124e0518aa314b8c129250015b60405180910390a250505050505050505050505050565b6000846113cb8161208a565b6113e75760405162461bcd60e51b8152600401610ba190615164565b6113f085611549565b61140c5760405162461bcd60e51b8152600401610ba1906150dc565b611416868461244b565b6114325760405162461bcd60e51b8152600401610ba190615190565b600080600061144389898989613c49565b919450925090508061145583856152e7565b61145f91906152e7565b6001600160701b03169998505050505050505050565b6001600160a01b0316600090815260136020526040902060010154600160e01b900461ffff1690565b6000546001600160a01b031633146114c85760405162461bcd60e51b8152600401610ba19061512f565b60085463ffffffff600160c01b909104811690821611156115235760405162461bcd60e51b8152602060048201526015602482015274496e76616c696420677261636520706572696f647360581b6044820152606401610ba1565b6008805463ffffffff909216600160a01b0263ffffffff60a01b19909216919091179055565b6001600160a01b0316600090815260096020526040812054600190810b900b1390565b6004546001600160a01b0316156115bb5760405162461bcd60e51b8152602060048201526013602482015272105b1c9958591e481a5b9a5d1a585b1a5e9959606a1b6044820152606401610ba1565b600480546001600160a01b038087166001600160a01b0319928316179092556001805486841690831617905560028054858416908316179055600380549284169290911691909117905561160e83613e1c565b50505050565b6000826116208161208a565b61163c5760405162461bcd60e51b8152600401610ba190615164565b600154604051638cc7104f60e01b81526001600160a01b0391821660048201523360248201526044810185905290851690638cc7104f90606401600060405180830381600087803b15801561169057600080fd5b505af11580156116a4573d6000803e3d6000fd5b50505050600191505b5092915050565b601454606090819081908190806001600160401b038111156116e657634e487b7160e01b600052604160045260246000fd5b60405190808252806020026020018201604052801561170f578160200160208202803683370190505b509450806001600160401b0381111561173857634e487b7160e01b600052604160045260246000fd5b60405190808252806020026020018201604052801561176b57816020015b60608152602001906001900390816117565790505b509350806001600160401b0381111561179457634e487b7160e01b600052604160045260246000fd5b6040519080825280602002602001820160405280156117c757816020015b60608152602001906001900390816117b25790505b509250806001600160401b038111156117f057634e487b7160e01b600052604160045260246000fd5b604051908082528060200260200182016040528015611819578160200160208202803683370190505b50915060005b81811015611a3c5760006014828154811061184a57634e487b7160e01b600052603260045260246000fd5b9060005260206000200160009054906101000a90046001600160a01b031690508087838151811061188b57634e487b7160e01b600052603260045260246000fd5b60200260200101906001600160a01b031690816001600160a01b031681525050806001600160a01b03166306fdde036040518163ffffffff1660e01b815260040160006040518083038186803b1580156118e457600080fd5b505afa1580156118f8573d6000803e3d6000fd5b505050506040513d6000823e601f3d908101601f191682016040526119209190810190614bcc565b86838151811061194057634e487b7160e01b600052603260045260246000fd5b6020026020010181905250806001600160a01b03166395d89b416040518163ffffffff1660e01b815260040160006040518083038186803b15801561198457600080fd5b505afa158015611998573d6000803e3d6000fd5b505050506040513d6000823e601f3d908101601f191682016040526119c09190810190614bcc565b8583815181106119e057634e487b7160e01b600052603260045260246000fd5b60200260200101819052506119f4816120b4565b848381518110611a1457634e487b7160e01b600052603260045260246000fd5b63ffffffff909216602092830291909101909101525080611a34816154a7565b91505061181f565b505090919293565b6000546001600160a01b03163314611a6e5760405162461bcd60e51b8152600401610ba19061512f565b6008805461ffff909216600160e01b0261ffff60e01b19909216919091179055565b6003546001600160a01b03163314611adc5760405162461bcd60e51b815260206004820152600f60248201526e2737ba102137b93937bbaa37b5b2b760891b6044820152606401610ba1565b600081815260116020908152604080832081516101008101835281546001600160701b03808216835261ffff600160701b808404821697850188905263ffffffff600160801b8504811697860197909752600160a01b840487166060860152600160c01b840487166080860152600160e01b90930490951660a084015260019093015492831660c083015290910490911660e08201526014805491939290918110611b9757634e487b7160e01b600052603260045260246000fd5b6000918252602090912001546001600160a01b0316905080611bcb5760405162461bcd60e51b8152600401610ba19061508d565b606082015163ffffffff1642116001600160a01b038681161590861680159030148015611c0057611bfb87613465565b611da1565b8115611c7a57855160405163079cc67960e41b81526001600160a01b038b811660048301526001600160701b039092166024820152908616906379cc6790906044015b600060405180830381600087803b158015611c5d57600080fd5b505af1158015611c71573d6000803e3d6000fd5b50505050611da1565b8215611cc15785516040516340c10f1960e01b81526001600160a01b038a811660048301526001600160701b039092166024820152908616906340c10f1990604401611c43565b83611d625785516040516333bebb7760e01b81526001600160a01b038b811660048301528a811660248301526001600160701b039092166044820152908616906333bebb7790606401602060405180830381600087803b158015611d2457600080fd5b505af1158015611d38573d6000803e3d6000fd5b505050506040513d601f19601f82011682018060405250810190611d5c919061497f565b50611da1565b60405162461bcd60e51b81526020600482015260146024820152732737ba1030b63637bbb2b2103a3930b739b332b960611b6044820152606401610ba1565b505050505050505050565b600154611dc4906001600160a01b0316333084613f33565b6000600f5460001415611dd8575080611de4565b611de182613a14565b90505b81600c6000828254611df69190615312565b90915550506002546040516335313c2160e11b81523360048201526000916001600160a01b031690636a62784290602401602060405180830381600087803b158015611e4157600080fd5b505af1158015611e55573d6000803e3d6000fd5b505050506040513d601f19601f82011682018060405250810190611e799190614e03565b6040805160608101825285815260208082018681524383850190815260008681526012909352938220925183555160018301559151600290910155600f80549293508492909190611ecb908490615312565b9091555050505050565b6000611edf613f6b565b6001600160701b0316600c54611ef59190615312565b905090565b60008060006060600c54600d54600f546010808054611f189061546c565b80601f0160208091040260200160405190810160405280929190818152602001828054611f449061546c565b8015611f915780601f10611f6657610100808354040283529160200191611f91565b820191906000526020600020905b815481529060010190602001808311611f7457829003601f168201915b50505050509050935093509350935090919293565b6000546001600160a01b03163314611fd05760405162461bcd60e51b8152600401610ba19061512f565b6001600160a01b038116611ff65760405162461bcd60e51b8152600401610ba1906150b6565b600780546001600160a01b0319166001600160a01b0392909216919091179055565b6000546001600160a01b031633146120425760405162461bcd60e51b8152600401610ba19061512f565b6001600160a01b0381166120685760405162461bcd60e51b8152600401610ba1906150b6565b600580546001600160a01b0319166001600160a01b0392909216919091179055565b6001600160a01b0316600090815260136020526040902054600160e01b900463ffffffff16151590565b6001600160a01b0316600090815260136020526040902054600160e01b900463ffffffff1690565b6000546001600160a01b031633146121065760405162461bcd60e51b8152600401610ba19061512f565b826121108161208a565b61212c5760405162461bcd60e51b8152600401610ba190615164565b8163ffffffff168363ffffffff16111561217c5760405162461bcd60e51b8152602060048201526011602482015270496e76616c6964206475726174696f6e7360781b6044820152606401610ba1565b506001600160a01b03929092166000908152601360205260409020600101805467ffffffffffffffff60a01b1916600160a01b63ffffffff9384160263ffffffff60c01b191617600160c01b9290931691909102919091179055565b6000546001600160a01b031633146122025760405162461bcd60e51b8152600401610ba19061512f565b6001600160a01b0381166122285760405162461bcd60e51b8152600401610ba1906150b6565b600880546001600160a01b0319166001600160a01b0392909216919091179055565b6000546001600160a01b031633146122745760405162461bcd60e51b8152600401610ba19061512f565b61227d81613fc6565b50565b6000818152601260205260409020600281015443116122f75760405162461bcd60e51b815260206004820152602d60248201527f43616e6e6f742061646420616e642072656d6f7665206c69717569646974792060448201526c696e2073616d6520626c6f636b60981b6064820152608401610ba1565b6001810154600061230782613a14565b90506123116124a4565b8111156123595760405162461bcd60e51b8152602060048201526016602482015275496e73756666696369656e74206c697175696469747960501b6044820152606401610ba1565b600254604051630852cd8d60e31b8152600481018690526001600160a01b03909116906342966c6890602401600060405180830381600087803b15801561239f57600080fd5b505af11580156123b3573d6000803e3d6000fd5b50506001546123cf92506001600160a01b031690503383613a36565b6123d881613ab1565b81600f60008282546123ea919061540c565b909155505050600092835250506012602052604081208181556001810182905560020155565b6000546001600160a01b0316331461243a5760405162461bcd60e51b8152600401610ba19061512f565b612446600b838361462d565b505050565b6001600160a01b0382166000908152601360205260408120600181015463ffffffff808516600160a01b909204161180159061249c5750600181015463ffffffff600160c01b909104811690841611155b949350505050565b6000600d546124b1611ed5565b611ef5919061540c565b6000546001600160a01b031633146124e55760405162461bcd60e51b8152600401610ba19061512f565b6001600160a01b03811661250b5760405162461bcd60e51b8152600401610ba1906150b6565b600680546001600160a01b0319166001600160a01b0392909216919091179055565b6000546001600160a01b031633146125575760405162461bcd60e51b8152600401610ba19061512f565b60085463ffffffff808316600160a01b9092041611156125b15760405162461bcd60e51b8152602060048201526015602482015274496e76616c696420677261636520706572696f647360581b6044820152606401610ba1565b6008805463ffffffff909216600160c01b0263ffffffff60c01b19909216919091179055565b60606014805480602002602001604051908101604052809291908181526020018280548015610c9257602002820191906000526020600020905b81546001600160a01b03168152600190910190602001808311612611575050505050905090565b6000826126448161208a565b6126605760405162461bcd60e51b8152600401610ba190615164565b61249c843385613844565b60008181526012602052604081208054600182015461268990613a14565b612693919061540c565b9392505050565b6000546001600160a01b031633146126c45760405162461bcd60e51b8152600401610ba19061512f565b6001600160a01b0381166126ea5760405162461bcd60e51b8152600401610ba1906150b6565b61227d81613e1c565b6000546001600160a01b0316331461271d5760405162461bcd60e51b8152600401610ba19061512f565b816127278161208a565b6127435760405162461bcd60e51b8152600401610ba190615164565b6124468383613b0c565b61275683611549565b6127725760405162461bcd60e51b8152600401610ba1906150dc565b60008481526011602052604081208054601480549293929091600160701b900461ffff169081106127b357634e487b7160e01b600052603260045260246000fd5b6000918252602090912001546001600160a01b03169050806127e75760405162461bcd60e51b8152600401610ba19061508d565b6127f1818461244b565b61280d5760405162461bcd60e51b8152600401610ba190615190565b81544290612829908590600160a01b900463ffffffff1661532a565b63ffffffff1610156128705760405162461bcd60e51b815260206004820152601060248201526f24b73b30b634b210323ab930ba34b7b760811b6044820152606401610ba1565b8154600d80546001600160701b039092169160009061289090849061540c565b9091555050815460009081906128b390849089906001600160701b031688613c49565b508554600d80549395509193506001600160701b0316916000906128d8908490615312565b90915550600090506128ea82846152e7565b6001600160701b031690508681111561293b5760405162461bcd60e51b8152602060048201526013602482015272536c69707061676520697320746f6f2062696760681b6044820152606401610ba1565b6129506001600160a01b038916333084613f33565b60065460015460405163029b465d60e01b81526001600160a01b038b81166004830152602482018590529182166044820152600092919091169063029b465d90606401602060405180830381600087803b1580156129ad57600080fd5b505af11580156129c1573d6000803e3d6000fd5b505050506040513d601f19601f820116820180604052508101906129e59190614e03565b90506000826129fd836001600160701b038716615380565b612a079190615349565b600854600154919250612a27916001600160a01b03908116911683613a36565b6000612a33828461540c565b9050612a3e8161406d565b8754600160a01b900463ffffffff16612a578a8261532a565b895463ffffffff60a01b1916600160a01b63ffffffff928316810291909117808c55600854612a9093908390048116929091041661532a565b895463ffffffff60c01b1916600160c01b63ffffffff928316810291909117808c55600854612acd93929004821691600160a01b9091041661532a565b895463ffffffff91909116600160e01b026001600160e01b0390911617895560055460405163f8642f2960e01b8152600481018f90526001600160a01b039091169063f8642f2990602401600060405180830381600087803b158015612b3257600080fd5b505af1158015612b46573d6000803e3d6000fd5b50505050876001600160a01b03167f9853650269815e203c5c9e228db9ca05cc6037f2c2723c94ed3260cf98324c998e838c60000160149054906101000a900463ffffffff166040516113a89392919092835263ffffffff918216602084015216604082015260600190565b6000546001600160a01b031615612c1d5760405162461bcd60e51b815260206004820152602960248201527f496e697469616c697a61626c654f776e61626c653a20616c726561647920696e6044820152681a5d1a585b1a5e995960ba1b6064820152608401610ba1565b6001600160a01b038116612c875760405162461bcd60e51b815260206004820152602b60248201527f496e697469616c697a61626c654f776e61626c653a20696e76616c696420696e60448201526a34ba34b0b61037bbb732b960a91b6064820152608401610ba1565b600080546001600160a01b0319166001600160a01b03831690811782556040519091907f8be0079c531659141344cd1fd0a4f28419497f9722a3daafe3b4186f6b6457e0908290a350565b60108054612cdf9061546c565b159050612d245760405162461bcd60e51b8152602060048201526013602482015272105b1c9958591e481a5b9a5d1a585b1a5e9959606a1b6044820152606401610ba1565b612d2d81612bb2565b8551612d409060109060208901906146b1565b50612d4d600b868661462d565b50600580546001600160a01b03199081166001600160a01b03958616179091556006805482169385169390931790925560088054831691909316908117909255600780549091169091179055505050565b612dc260405180606001604052806000815260200160008152602001600081525090565b50600090815260126020908152604091829020825160608101845281548152600182015492810192909252600201549181019190915290565b84612e058161208a565b612e215760405162461bcd60e51b8152600401610ba190615164565b612e2a85611549565b612e465760405162461bcd60e51b8152600401610ba1906150dc565b612e50868361244b565b612e6c5760405162461bcd60e51b8152600401610ba190615190565b612e746124a4565b846001600160701b03161115612ec45760405162461bcd60e51b8152602060048201526015602482015274496e73756666696369656e7420726573657276657360581b6044820152606401610ba1565b600080600080612ed68a8a8a89613c49565b955090935091508390506000612eec83856152e7565b6001600160701b0316905087856001600160701b031682612f0d9190615312565b1115612f515760405162461bcd60e51b8152602060048201526013602482015272536c69707061676520697320746f6f2062696760681b6044820152606401610ba1565b612f666001600160a01b038b16333084613f33565b60065460015460405163029b465d60e01b81526001600160a01b038d81166004830152602482018590529182166044820152600092919091169063029b465d90606401602060405180830381600087803b158015612fc357600080fd5b505af1158015612fd7573d6000803e3d6000fd5b505050506040513d601f19601f82011682018060405250810190612ffb9190614e03565b9050600082613013836001600160701b038816615380565b61301d9190615349565b60085460015491925061303d916001600160a01b03908116911683613a36565b8a6001600160701b0316600d60008282546130589190615312565b909155506000905061306a828461540c565b90506130758161406d565b50506003546130a295506001600160a01b038c81169550339450169150506001600160701b038516613f33565b4260006130af858361532a565b90506000600360009054906101000a90046001600160a01b03166001600160a01b031663caa0f92a6040518163ffffffff1660e01b8152600401602060405180830381600087803b15801561310357600080fd5b505af1158015613117573d6000803e3d6000fd5b505050506040513d601f19601f8201168201806040525081019061313b9190614e03565b60408051610100810182526001600160701b038b1681526001600160a01b038d166000908152601360209081529083902060010154600160f01b900461ffff169082015263ffffffff8681169282019290925284821660608201526008549293509160808301916131b491600160a01b9004168561532a565b63ffffffff168152602001600860189054906101000a900463ffffffff16846131dd919061532a565b63ffffffff168152602001856001600160701b031681526020016132008b6138eb565b61ffff9081169091526000838152601160209081526040918290208451815492860151868501516060880151608089015160a08a01516001600160701b039586166001600160801b031998891617600160701b958b1686021767ffffffffffffffff60801b1916600160801b63ffffffff9586160263ffffffff60a01b191617600160a01b93851693909302929092176001600160c01b0316600160c01b918416919091026001600160e01b031617600160e01b929091169190910217835560c08701516001909301805460e0909801519390921696909316959095179316029190911790915560035490516335313c2160e11b815233600482015282916001600160a01b031690636a62784290602401602060405180830381600087803b15801561332b57600080fd5b505af115801561333f573d6000803e3d6000fd5b505050506040513d601f19601f820116820180604052508101906133639190614e03565b1461337e57634e487b7160e01b600052600160045260246000fd5b60055460405163f8642f2960e01b8152600481018390526001600160a01b039091169063f8642f2990602401600060405180830381600087803b1580156133c457600080fd5b505af11580156133d8573d6000803e3d6000fd5b50506040805184815263ffffffff878116602083015286168183015290516001600160a01b038e1693507f9853650269815e203c5c9e228db9ca05cc6037f2c2723c94ed3260cf98324c9992509081900360600190a250505050505050505050565b6001600160a01b0316600090815260136020526040902054600160701b90046001600160701b031690565b60008181526011602052604081208054601480549293929091600160701b900461ffff169081106134a657634e487b7160e01b600052603260045260246000fd5b6000918252602090912001546001600160a01b03169050806134da5760405162461bcd60e51b8152600401610ba19061508d565b6003546040516331a9108f60e11b8152600481018590526000916001600160a01b031690636352211e9060240160206040518083038186803b15801561351f57600080fd5b505afa158015613533573d6000803e3d6000fd5b505050506040513d601f19601f820116820180604052508101906135579190614860565b8354909150429063ffffffff808316600160c01b9092041610806135835750336001600160a01b038316145b6135ed5760405162461bcd60e51b815260206004820152603560248201527f4f6e6c7920626f72726f7765722063616e2072657475726e2077697468696e20604482015274189bdc9c9bddd95c8819dc9858d9481c195c9a5bd9605a1b6064820152608401610ba1565b835463ffffffff808316600160e01b9092041610806136145750336001600160a01b038316145b8061362957506007546001600160a01b031633145b6136a95760405162461bcd60e51b815260206004820152604560248201527f4f6e6c7920626f72726f776572206f7220656e74657270726973652063616e2060448201527f72657475726e2077697468696e20656e74657270726973652067726163652070606482015264195c9a5bd960da1b608482015260a401610ba1565b8354600d80546001600160701b03909216916000906136c990849061540c565b9091555050600354604051633f34d4cf60e21b8152600481018790523360248201526001600160a01b039091169063fcd3533c90604401600060405180830381600087803b15801561371a57600080fd5b505af115801561372e573d6000803e3d6000fd5b5050506000958652505060116020525050604082209182555060010180546001600160801b0319169055565b6000546001600160a01b031633146137845760405162461bcd60e51b8152600401610ba19061512f565b6001600160a01b0381166137e95760405162461bcd60e51b815260206004820152602660248201527f4f776e61626c653a206e6577206f776e657220697320746865207a65726f206160448201526564647265737360d01b6064820152608401610ba1565b600080546040516001600160a01b03808516939216917f8be0079c531659141344cd1fd0a4f28419497f9722a3daafe3b4186f6b6457e091a3600080546001600160a01b0319166001600160a01b0392909216919091179055565b6000836138508161208a565b61386c5760405162461bcd60e51b8152600401610ba190615164565b60015460405163a1571a5760e01b81526001600160a01b0391821660048201523360248201528582166044820152606481018590529086169063a1571a5790608401600060405180830381600087803b1580156138c857600080fd5b505af11580156138dc573d6000803e3d6000fd5b50600198975050505050505050565b6001600160a01b03811660009081526009602052604081205461391290600190810b61539f565b92915050565b6000546001600160a01b031633146139425760405162461bcd60e51b8152600401610ba19061512f565b8361394c8161208a565b6139685760405162461bcd60e51b8152600401610ba190615164565b6001600160a01b0383166139b35760405162461bcd60e51b815260206004820152601260248201527124b73b30b634b2102130b9b2902a37b5b2b760711b6044820152606401610ba1565b506001600160a01b0393841660009081526013602052604090208054600182018054949096166001600160a01b0319909416939093179094556001600160701b03908116600160701b026001600160e01b0319909216921691909117179055565b6000600f5482613a22611ed5565b613a2c9190615380565b6139129190615349565b6040516001600160a01b03831660248201526044810182905261244690849063a9059cbb60e01b906064015b60408051601f198184030181529190526020810180516001600160e01b03166001600160e01b0319909316929092179091526140e9565b6000613aa3611ed5565b82600f54613a2c9190615380565b80600c5410613ad75780600c6000828254613acc919061540c565b9091555061227d9050565b6000613ae16141bb565b6001600160701b031690508181600c54613afb9190615312565b613b05919061540c565b600c555050565b61138861ffff82161115613b705760405162461bcd60e51b815260206004820152602560248201527f4d6178696d756d2073657276696365206665652070657263656e7420746872656044820152641cda1bdb1960da1b6064820152608401610ba1565b6001600160a01b039091166000908152601360205260409020600101805461ffff909216600160e01b0261ffff60e01b19909216919091179055565b6000604051733d602d80600a3d3981f3363d3d373d3d3d363d7360601b81528260601b60148201526e5af43d82803e903d91602b57fd5bf360881b60288201526037816000f09150506001600160a01b038116613c445760405162461bcd60e51b8152602060048201526016602482015275115490cc4c4d8dce8818dc99585d194819985a5b195960521b6044820152606401610ba1565b919050565b600554604051630641977d60e21b81526001600160a01b0386811660048301526001600160701b038516602483015263ffffffff8416604483015260009283928392839216906319065df49060640160206040518083038186803b158015613cb057600080fd5b505afa158015613cc4573d6000803e3d6000fd5b505050506040513d601f19601f82011682018060405250810190613ce89190614db5565b90506000613cf68983614247565b6006549091506000906001600160a01b03166329fb92ce613d328c6001600160a01b039081166000908152601360205260409020600101541690565b6040516001600160e01b031960e084901b1681526001600160a01b0391821660048201526001600160701b0387166024820152908c16604482015260640160206040518083038186803b158015613d8857600080fd5b505afa158015613d9c573d6000803e3d6000fd5b505050506040513d601f19601f82011682018060405250810190613dc09190614e03565b9050826001600160701b031681836001600160701b0316613de19190615380565b613deb9190615349565b9450613e006001600160701b0386168261540c565b9550613e0d8a8a8a61427c565b93505050509450945094915050565b6001600160a01b038116600090815260096020526040902054600190810b900b613eb457600a8054600180820183557fc65a7bb8d6351c1cf70c95a316cc6a92839c986682d98bc35f958f4883f9d2a890910180546001600160a01b0319166001600160a01b039490941693841790559054600092835260096020526040909220805461ffff191661ffff9390920b92909216179055565b6001600160a01b038116600090815260096020526040812054600190810b900b121561227d576001600160a01b038116600090815260096020526040902054613eff9060010b6154e5565b6001600160a01b0382166000908152600960205260409020805460019290920b61ffff1661ffff1990921691909117905550565b6040516001600160a01b038085166024830152831660448201526064810182905261160e9085906323b872dd60e01b90608401613a62565b600e54600090613fa99063ffffffff600160e01b82041690613fa0906001600160701b0380821691600160701b9004166153e4565b613840426143b1565b600e54611ef59190600160701b90046001600160701b03166153e4565b6001600160a01b038116600090815260096020526040902054600190810b900b6140225760405162461bcd60e51b815260206004820152600d60248201526c24b73b30b634b2103a37b5b2b760991b6044820152606401610ba1565b6001600160a01b038116600090815260096020526040812054600190810b900b131561227d576001600160a01b038116600090815260096020526040902054613eff9060010b6154e5565b614075613f6b565b600e805463ffffffff4216600160e01b026dffffffffffffffffffffffffffff60701b9091166001600160701b039384161717808255839282916140c2918591600160701b9004166152e7565b92506101000a8154816001600160701b0302191690836001600160701b0316021790555050565b600061413e826040518060400160405280602081526020017f5361666545524332303a206c6f772d6c6576656c2063616c6c206661696c6564815250856001600160a01b03166145229092919063ffffffff16565b805190915015612446578080602001905181019061415c919061497f565b6124465760405162461bcd60e51b815260206004820152602a60248201527f5361666545524332303a204552433230206f7065726174696f6e20646964206e6044820152691bdd081cdd58d8d9595960b21b6064820152608401610ba1565b60006141c5613f6b565b600e80546dffffffffffffffffffffffffffff1916808255919250829181906141ff908490600160701b90046001600160701b03166153e4565b92506101000a8154816001600160701b0302191690836001600160701b0316021790555042600e601c6101000a81548163ffffffff021916908363ffffffff16021790555090565b600061271061425584611475565b6001600160701b0316836001600160701b03166142729190615380565b6126939190615349565b6008546000908190612710906142a690600160e01b900461ffff166001600160701b038616615380565b6142b09190615349565b6006549091506000906001600160a01b03166329fb92ce6142ec886001600160a01b039081166000908152601360205260409020600101541690565b6142f58961343a565b6040516001600160e01b031960e085901b1681526001600160a01b0392831660048201526001600160701b039091166024820152908816604482015260640160206040518083038186803b15801561434c57600080fd5b505afa158015614360573d6000803e3d6000fd5b505050506040513d601f19601f820116820180604052508101906143849190614e03565b9050806001600160701b0316826001600160701b0316106143a557816143a7565b805b9695505050505050565b60008463ffffffff168263ffffffff1610156144005760405162461bcd60e51b815260206004820152600e60248201526d125b9d985b1a59081c195c9a5bd960921b6044820152606401610ba1565b61440a8583615423565b9150614416838361535d565b63ffffffff16846001600160701b0316901c9350828261443691906154c2565b915063ffffffff8216158061445257506001600160701b038416155b1561445e57508261249c565b60006001600160701b0385168163ffffffff8087169061449290871671b17217f7d1cf79abc9e3b39803f2f6af40f3615380565b61449c9190615349565b9050600160901b5b8215614515576144b48385615312565b9350806144c18385615380565b6144cb9190615349565b92506144db600160901b82615312565b90506144e7838561540c565b9350806144f48385615380565b6144fe9190615349565b925061450e600160901b82615312565b90506144a4565b5091979650505050505050565b606061249c848460008585843b61457b5760405162461bcd60e51b815260206004820152601d60248201527f416464726573733a2063616c6c20746f206e6f6e2d636f6e74726163740000006044820152606401610ba1565b600080866001600160a01b031685876040516145979190614ee4565b60006040518083038185875af1925050503d80600081146145d4576040519150601f19603f3d011682016040523d82523d6000602084013e6145d9565b606091505b50915091506145e98282866145f4565b979650505050505050565b60608315614603575081612693565b8251156146135782518084602001fd5b8160405162461bcd60e51b8152600401610ba1919061503c565b8280546146399061546c565b90600052602060002090601f01602090048101928261465b57600085556146a1565b82601f106146745782800160ff198235161785556146a1565b828001600101855582156146a1579182015b828111156146a1578235825591602001919060010190614686565b506146ad929150614725565b5090565b8280546146bd9061546c565b90600052602060002090601f0160209004810192826146df57600085556146a1565b82601f106146f857805160ff19168380011785556146a1565b828001600101855582156146a1579182015b828111156146a157825182559160200191906001019061470a565b5b808211156146ad5760008155600101614726565b60008083601f84011261474b578182fd5b5081356001600160401b03811115614761578182fd5b6020830191508360208260051b850101111561477c57600080fd5b9250929050565b60008083601f840112614794578182fd5b5081356001600160401b038111156147aa578182fd5b60208301915083602082850101111561477c57600080fd5b600082601f8301126147d2578081fd5b81356147e56147e0826152c0565b615290565b8181528460208386010111156147f9578283fd5b816020850160208301379081016020019190915292915050565b8035613c448161555c565b803561ffff81168114613c4457600080fd5b803563ffffffff81168114613c4457600080fd5b600060208284031215614855578081fd5b813561269381615547565b600060208284031215614871578081fd5b815161269381615547565b600080600060608486031215614890578182fd5b833561489b81615547565b925060208401356148ab81615547565b929592945050506040919091013590565b600080600080608085870312156148d1578081fd5b84356148dc81615547565b935060208501356148ec81615547565b925060408501356148fc81615547565b9150606085013561490c81615547565b939692955090935050565b6000806000806040858703121561492c578384fd5b84356001600160401b0380821115614942578586fd5b61494e8883890161473a565b90965094506020870135915080821115614966578384fd5b506149738782880161473a565b95989497509550505050565b600060208284031215614990578081fd5b81518015158114612693578182fd5b600080600060608486031215614890578081fd5b600080600080600060a086880312156149ca578283fd5b85356149d581615547565b945060208601356149e581615547565b935060408601356149f58161555c565b925060608601359150614a0a60808701614830565b90509295509295909350565b60008060008060808587031215614a2b578182fd5b8435614a3681615547565b93506020850135614a4681615547565b92506040850135614a568161555c565b9150614a6460608601614830565b905092959194509250565b60008060008060808587031215614a84578182fd5b8435614a8f81615547565b93506020850135614a9f8161555c565b92506040850135614aaf81615547565b9150606085013561490c8161555c565b60008060408385031215614ad1578182fd5b8235614adc81615547565b9150614aea6020840161481e565b90509250929050565b60008060408385031215614b05578182fd5b8235614b1081615547565b946020939093013593505050565b60008060408385031215614b30578182fd5b8235614b3b81615547565b9150614aea60208401614830565b600080600060608486031215614b5d578081fd5b8335614b6881615547565b9250614b7660208501614830565b9150614b8460408501614830565b90509250925092565b60008060208385031215614b9f578182fd5b82356001600160401b03811115614bb4578283fd5b614bc085828601614783565b90969095509350505050565b600060208284031215614bdd578081fd5b81516001600160401b03811115614bf2578182fd5b8201601f81018413614c02578182fd5b8051614c106147e0826152c0565b818152856020838501011115614c24578384fd5b614c35826020830160208601615440565b95945050505050565b60008060008060008060a08789031215614c56578384fd5b86356001600160401b0380821115614c6c578586fd5b614c788a838b016147c2565b97506020890135915080821115614c8d578586fd5b50614c9a89828a01614783565b9096509450506040870135614cae81615547565b92506060870135614cbe81615547565b91506080870135614cce81615547565b809150509295509295509295565b60008060008060008060008060006101208a8c031215614cfa578687fd5b89356001600160401b0380821115614d10578889fd5b614d1c8d838e016147c2565b9a5060208c0135915080821115614d31578889fd5b50614d3e8c828d016147c2565b985050614d4d60408b01614830565b965060608a0135614d5d8161555c565b955060808a0135614d6d81615547565b9450614d7b60a08b0161481e565b9350614d8960c08b01614830565b9250614d9760e08b01614830565b9150614da66101008b01614813565b90509295985092959850929598565b600060208284031215614dc6578081fd5b81516126938161555c565b600060208284031215614de2578081fd5b6126938261481e565b600060208284031215614dfc578081fd5b5035919050565b600060208284031215614e14578081fd5b5051919050565b60008060008060808587031215614e30578182fd5b843593506020850135614e4281615547565b925060408501359150614a6460608601614830565b600060208284031215614e68578081fd5b61269382614830565b600081518084526020808501808196508360051b81019150828601855b85811015614515578284038952614ea6848351614eb8565b98850198935090840190600101614e8e565b60008151808452614ed0816020860160208601615440565b601f01601f19169290920160200192915050565b60008251614ef6818460208701615440565b9190910192915050565b60008351614f12818460208801615440565b600160fd1b9083019081528351614f30816001840160208801615440565b01600101949350505050565b6080808252855190820181905260009060209060a0840190828901845b82811015614f7e5781516001600160a01b031684529284019290840190600101614f59565b50505083810382850152614f928188614e71565b90508381036040850152614fa68187614e71565b84810360608601528551808252838701925090830190845b81811015614fe057835163ffffffff1683529284019291840191600101614fbe565b50909998505050505050505050565b6020808252825182820181905260009190848201906040850190845b818110156150305783516001600160a01b03168352928401929184019160010161500b565b50909695505050505050565b6020815260006126936020830184614eb8565b6060815260006150626060830186614eb8565b82810360208401526150748186614eb8565b91505060018060a01b0383166040830152949350505050565b6020808252600f908201526e125b9d985b1a59081d1bdad95b9259608a1b604082015260600190565b6020808252600c908201526b5a65726f206164647265737360a01b604082015260600190565b60208082526033908201527f496e746572657374207061796d656e7420746f6b656e2069732064697361626c6040820152721959081bdc881b9bdd081cdd5c1c1bdc9d1959606a1b606082015260800190565b6020808252818101527f4f776e61626c653a2063616c6c6572206973206e6f7420746865206f776e6572604082015260600190565b6020808252601290820152712ab735b737bbb7102837bbb2b92a37b5b2b760711b604082015260600190565b60208082526017908201527f4475726174696f6e206973206e6f7420616c6c6f776564000000000000000000604082015260600190565b6000610100820190506001600160701b03835116825261ffff6020840151166020830152604083015163ffffffff808216604085015280606086015116606085015250506080830151615222608084018263ffffffff169052565b5060a083015161523a60a084018263ffffffff169052565b5060c083015161525560c08401826001600160701b03169052565b5060e08301516116ad60e084018261ffff169052565b8481528360208201528260408201526080606082015260006143a76080830184614eb8565b604051601f8201601f191681016001600160401b03811182821017156152b8576152b8615531565b604052919050565b60006001600160401b038211156152d9576152d9615531565b50601f01601f191660200190565b60006001600160701b0380831681851680830382111561530957615309615505565b01949350505050565b6000821982111561532557615325615505565b500190565b600063ffffffff80831681851680830382111561530957615309615505565b6000826153585761535861551b565b500490565b600063ffffffff808416806153745761537461551b565b92169190910492915050565b600081600019048311821515161561539a5761539a615505565b500290565b60008160010b8360010b82811281617fff19018312811516156153c4576153c4615505565b81617fff0183138116156153da576153da615505565b5090039392505050565b60006001600160701b038381169083168181101561540457615404615505565b039392505050565b60008282101561541e5761541e615505565b500390565b600063ffffffff8381169083168181101561540457615404615505565b60005b8381101561545b578181015183820152602001615443565b8381111561160e5750506000910152565b600181811c9082168061548057607f821691505b602082108114156154a157634e487b7160e01b600052602260045260246000fd5b50919050565b60006000198214156154bb576154bb615505565b5060010190565b600063ffffffff808416806154d9576154d961551b565b92169190910692915050565b60008160010b617fff198114156154fe576154fe615505565b9003919050565b634e487b7160e01b600052601160045260246000fd5b634e487b7160e01b600052601260045260246000fd5b634e487b7160e01b600052604160045260246000fd5b6001600160a01b038116811461227d57600080fd5b6001600160701b038116811461227d57600080fdfea264697066735822122048f05600cd8ea85b15c4d7459e82d8b18d100c36799dc4b7d1a8353cfaef159564736f6c63430008040033",
  "linkReferences": {},
  "deployedLinkReferences": {}
}