{
  "_format": "hh-sol-artifact-1",
  "contractName": "Enterprise",
  "sourceName": "contracts/Enterprise.sol",
  "abi": [
    {
      "anonymous": false,
      "inputs": [
        {
          "indexed": true,
          "internalType": "address",
          "name": "powerToken",
          "type": "address"
        },
        {
          "indexed": false,
          "internalType": "uint256",
          "name": "tokenId",
          "type": "uint256"
        },
        {
          "indexed": false,
          "internalType": "uint32",
          "name": "from",
          "type": "uint32"
        },
        {
          "indexed": false,
          "internalType": "uint32",
          "name": "to",
          "type": "uint32"
        }
      ],
      "name": "Borrowed",
      "type": "event"
    },
    {
      "anonymous": false,
      "inputs": [
        {
          "indexed": true,
          "internalType": "address",
          "name": "previousOwner",
          "type": "address"
        },
        {
          "indexed": true,
          "internalType": "address",
          "name": "newOwner",
          "type": "address"
        }
      ],
      "name": "OwnershipTransferred",
      "type": "event"
    },
    {
      "anonymous": false,
      "inputs": [
        {
          "indexed": true,
          "internalType": "address",
          "name": "powerToken",
          "type": "address"
        },
        {
          "indexed": false,
          "internalType": "uint32",
          "name": "gapHalvingPeriod",
          "type": "uint32"
        },
        {
          "indexed": false,
          "internalType": "uint112",
          "name": "factor",
          "type": "uint112"
        }
      ],
      "name": "ServiceRegistered",
      "type": "event"
    },
    {
      "inputs": [
        {
          "internalType": "uint256",
          "name": "liquidityAmount",
          "type": "uint256"
        }
      ],
      "name": "addLiquidity",
      "outputs": [],
      "stateMutability": "nonpayable",
      "type": "function"
    },
    {
      "inputs": [
        {
          "internalType": "contract PowerToken",
          "name": "powerToken",
          "type": "address"
        },
        {
          "internalType": "contract IERC20",
          "name": "paymentToken",
          "type": "address"
        },
        {
          "internalType": "uint112",
          "name": "amount",
          "type": "uint112"
        },
        {
          "internalType": "uint32",
          "name": "duration",
          "type": "uint32"
        },
        {
          "internalType": "uint256",
          "name": "maxPayment",
          "type": "uint256"
        }
      ],
      "name": "borrow",
      "outputs": [],
      "stateMutability": "nonpayable",
      "type": "function"
    },
    {
      "inputs": [
        {
          "internalType": "uint256",
          "name": "tokenId",
          "type": "uint256"
        },
        {
          "internalType": "uint256",
          "name": "amount",
          "type": "uint256"
        }
      ],
      "name": "decreaseLiquidity",
      "outputs": [],
      "stateMutability": "nonpayable",
      "type": "function"
    },
    {
      "inputs": [
        {
          "internalType": "address",
          "name": "token",
          "type": "address"
        }
      ],
      "name": "disablePaymentToken",
      "outputs": [],
      "stateMutability": "nonpayable",
      "type": "function"
    },
    {
      "inputs": [
        {
          "internalType": "address",
          "name": "token",
          "type": "address"
        }
      ],
      "name": "enablePaymentToken",
      "outputs": [],
      "stateMutability": "nonpayable",
      "type": "function"
    },
    {
      "inputs": [
        {
          "internalType": "contract PowerToken",
          "name": "powerToken",
          "type": "address"
        },
        {
          "internalType": "contract IERC20",
          "name": "paymentToken",
          "type": "address"
        },
        {
          "internalType": "uint112",
          "name": "amount",
          "type": "uint112"
        },
        {
          "internalType": "uint32",
          "name": "duration",
          "type": "uint32"
        }
      ],
      "name": "estimateLoan",
      "outputs": [
        {
          "internalType": "uint256",
          "name": "",
          "type": "uint256"
        }
      ],
      "stateMutability": "view",
      "type": "function"
    },
    {
      "inputs": [],
      "name": "getAvailableReserve",
      "outputs": [
        {
          "internalType": "uint256",
          "name": "",
          "type": "uint256"
        }
      ],
      "stateMutability": "view",
      "type": "function"
    },
    {
      "inputs": [],
      "name": "getBaseUri",
      "outputs": [
        {
          "internalType": "string",
          "name": "",
          "type": "string"
        }
      ],
      "stateMutability": "view",
      "type": "function"
    },
    {
      "inputs": [],
      "name": "getBondingCurve",
      "outputs": [
        {
          "internalType": "uint256",
          "name": "pole",
          "type": "uint256"
        },
        {
          "internalType": "uint256",
          "name": "slope",
          "type": "uint256"
        }
      ],
      "stateMutability": "view",
      "type": "function"
    },
    {
      "inputs": [],
      "name": "getBorrowToken",
      "outputs": [
        {
          "internalType": "contract IBorrowToken",
          "name": "",
          "type": "address"
        }
      ],
      "stateMutability": "view",
      "type": "function"
    },
    {
      "inputs": [],
      "name": "getBorrowerLoanReturnGracePeriod",
      "outputs": [
        {
          "internalType": "uint32",
          "name": "",
          "type": "uint32"
        }
      ],
      "stateMutability": "view",
      "type": "function"
    },
    {
      "inputs": [],
      "name": "getConverter",
      "outputs": [
        {
          "internalType": "contract IConverter",
          "name": "",
          "type": "address"
        }
      ],
      "stateMutability": "view",
      "type": "function"
    },
    {
      "inputs": [],
      "name": "getEnterpriseCollector",
      "outputs": [
        {
          "internalType": "address",
          "name": "",
          "type": "address"
        }
      ],
      "stateMutability": "view",
      "type": "function"
    },
    {
      "inputs": [],
      "name": "getEnterpriseLoanCollectGracePeriod",
      "outputs": [
        {
          "internalType": "uint32",
          "name": "",
          "type": "uint32"
        }
      ],
      "stateMutability": "view",
      "type": "function"
    },
    {
      "inputs": [],
      "name": "getEnterpriseVault",
      "outputs": [
        {
          "internalType": "address",
          "name": "",
          "type": "address"
        }
      ],
      "stateMutability": "view",
      "type": "function"
    },
    {
      "inputs": [],
      "name": "getGCFeePercent",
      "outputs": [
        {
          "internalType": "uint16",
          "name": "",
          "type": "uint16"
        }
      ],
      "stateMutability": "view",
      "type": "function"
    },
    {
      "inputs": [],
      "name": "getInfo",
      "outputs": [
        {
          "internalType": "string",
          "name": "name",
          "type": "string"
        },
        {
          "internalType": "string",
          "name": "baseUri",
          "type": "string"
        },
        {
          "internalType": "uint256",
          "name": "totalShares",
          "type": "uint256"
        },
        {
          "internalType": "uint32",
          "name": "interestGapHalvingPeriod",
          "type": "uint32"
        },
        {
          "internalType": "uint32",
          "name": "borrowerLoanReturnGracePeriod",
          "type": "uint32"
        },
        {
          "internalType": "uint32",
          "name": "enterpriseLoanCollectGracePeriod",
          "type": "uint32"
        },
        {
          "internalType": "uint16",
          "name": "gcFeePercent",
          "type": "uint16"
        },
        {
          "internalType": "uint256",
          "name": "fixedReserve",
          "type": "uint256"
        },
        {
          "internalType": "uint256",
          "name": "usedReserve",
          "type": "uint256"
        },
        {
          "internalType": "uint112",
          "name": "streamingReserve",
          "type": "uint112"
        },
        {
          "internalType": "uint112",
          "name": "streamingReserveTarget",
          "type": "uint112"
        },
        {
          "internalType": "uint32",
          "name": "streamingReserveUpdated",
          "type": "uint32"
        }
      ],
      "stateMutability": "view",
      "type": "function"
    },
    {
      "inputs": [],
      "name": "getInterestGapHalvingPeriod",
      "outputs": [
        {
          "internalType": "uint32",
          "name": "",
          "type": "uint32"
        }
      ],
      "stateMutability": "view",
      "type": "function"
    },
    {
      "inputs": [],
      "name": "getInterestToken",
      "outputs": [
        {
          "internalType": "contract IInterestToken",
          "name": "",
          "type": "address"
        }
      ],
      "stateMutability": "view",
      "type": "function"
    },
    {
      "inputs": [
        {
          "internalType": "uint256",
          "name": "tokenId",
          "type": "uint256"
        }
      ],
      "name": "getLiquidityInfo",
      "outputs": [
        {
          "components": [
            {
              "internalType": "uint256",
              "name": "amount",
              "type": "uint256"
            },
            {
              "internalType": "uint256",
              "name": "shares",
              "type": "uint256"
            },
            {
              "internalType": "uint256",
              "name": "block",
              "type": "uint256"
            }
          ],
          "internalType": "struct EnterpriseStorage.LiquidityInfo",
          "name": "",
          "type": "tuple"
        }
      ],
      "stateMutability": "view",
      "type": "function"
    },
    {
      "inputs": [],
      "name": "getLiquidityToken",
      "outputs": [
        {
          "internalType": "contract IERC20Metadata",
          "name": "",
          "type": "address"
        }
      ],
      "stateMutability": "view",
      "type": "function"
    },
    {
      "inputs": [
        {
          "internalType": "uint256",
          "name": "tokenId",
          "type": "uint256"
        }
      ],
      "name": "getLoanInfo",
      "outputs": [
        {
          "components": [
            {
              "internalType": "uint112",
              "name": "amount",
              "type": "uint112"
            },
            {
              "internalType": "uint16",
              "name": "powerTokenIndex",
              "type": "uint16"
            },
            {
              "internalType": "uint32",
              "name": "borrowingTime",
              "type": "uint32"
            },
            {
              "internalType": "uint32",
              "name": "maturityTime",
              "type": "uint32"
            },
            {
              "internalType": "uint32",
              "name": "borrowerReturnGraceTime",
              "type": "uint32"
            },
            {
              "internalType": "uint32",
              "name": "enterpriseCollectGraceTime",
              "type": "uint32"
            },
            {
              "internalType": "uint112",
              "name": "gcFee",
              "type": "uint112"
            },
            {
              "internalType": "uint16",
              "name": "gcFeeTokenIndex",
              "type": "uint16"
            }
          ],
          "internalType": "struct EnterpriseStorage.LoanInfo",
          "name": "",
          "type": "tuple"
        }
      ],
      "stateMutability": "view",
      "type": "function"
    },
    {
      "inputs": [
        {
          "internalType": "uint256",
          "name": "tokenId",
          "type": "uint256"
        }
      ],
      "name": "getOwedInterest",
      "outputs": [
        {
          "internalType": "uint256",
          "name": "",
          "type": "uint256"
        }
      ],
      "stateMutability": "view",
      "type": "function"
    },
    {
      "inputs": [],
      "name": "getPowerTokens",
      "outputs": [
        {
          "internalType": "contract PowerToken[]",
          "name": "",
          "type": "address[]"
        }
      ],
      "stateMutability": "view",
      "type": "function"
    },
    {
      "inputs": [],
      "name": "getProxyAdmin",
      "outputs": [
        {
          "internalType": "contract ProxyAdmin",
          "name": "",
          "type": "address"
        }
      ],
      "stateMutability": "view",
      "type": "function"
    },
    {
      "inputs": [],
      "name": "getReserve",
      "outputs": [
        {
          "internalType": "uint256",
          "name": "",
          "type": "uint256"
        }
      ],
      "stateMutability": "view",
      "type": "function"
    },
    {
      "inputs": [],
      "name": "getUsedReserve",
      "outputs": [
        {
          "internalType": "uint256",
          "name": "",
          "type": "uint256"
        }
      ],
      "stateMutability": "view",
      "type": "function"
    },
    {
      "inputs": [
        {
          "internalType": "uint256",
          "name": "tokenId",
          "type": "uint256"
        },
        {
          "internalType": "uint256",
          "name": "amount",
          "type": "uint256"
        }
      ],
      "name": "increaseLiquidity",
      "outputs": [],
      "stateMutability": "nonpayable",
      "type": "function"
    },
    {
      "inputs": [
        {
          "internalType": "string",
          "name": "enterpriseName",
          "type": "string"
        },
        {
          "internalType": "string",
          "name": "baseUri",
          "type": "string"
        },
        {
          "internalType": "uint16",
          "name": "gcFeePercent",
          "type": "uint16"
        },
        {
          "internalType": "contract IConverter",
          "name": "converter",
          "type": "address"
        },
        {
          "internalType": "contract ProxyAdmin",
          "name": "proxyAdmin",
          "type": "address"
        },
        {
          "internalType": "address",
          "name": "owner",
          "type": "address"
        }
      ],
      "name": "initialize",
      "outputs": [],
      "stateMutability": "nonpayable",
      "type": "function"
    },
    {
      "inputs": [
        {
          "internalType": "address",
          "name": "initialOwner",
          "type": "address"
        }
      ],
      "name": "initialize",
      "outputs": [],
      "stateMutability": "nonpayable",
      "type": "function"
    },
    {
      "inputs": [
        {
          "internalType": "contract IERC20Metadata",
          "name": "liquidityToken",
          "type": "address"
        },
        {
          "internalType": "contract IInterestToken",
          "name": "interestToken",
          "type": "address"
        },
        {
          "internalType": "contract IBorrowToken",
          "name": "borrowToken",
          "type": "address"
        }
      ],
      "name": "initializeTokens",
      "outputs": [],
      "stateMutability": "nonpayable",
      "type": "function"
    },
    {
      "inputs": [
        {
          "internalType": "contract PowerToken",
          "name": "powerToken",
          "type": "address"
        }
      ],
      "name": "isRegisteredPowerToken",
      "outputs": [
        {
          "internalType": "bool",
          "name": "",
          "type": "bool"
        }
      ],
      "stateMutability": "view",
      "type": "function"
    },
    {
      "inputs": [
        {
          "internalType": "contract IERC20",
          "name": "token",
          "type": "address"
        }
      ],
      "name": "isSupportedPaymentToken",
      "outputs": [
        {
          "internalType": "bool",
          "name": "",
          "type": "bool"
        }
      ],
      "stateMutability": "view",
      "type": "function"
    },
    {
      "inputs": [
        {
          "internalType": "address",
          "name": "from",
          "type": "address"
        },
        {
          "internalType": "address",
          "name": "to",
          "type": "address"
        },
        {
          "internalType": "uint256",
          "name": "tokenId",
          "type": "uint256"
        }
      ],
      "name": "loanTransfer",
      "outputs": [],
      "stateMutability": "nonpayable",
      "type": "function"
    },
    {
      "inputs": [],
      "name": "owner",
      "outputs": [
        {
          "internalType": "address",
          "name": "",
          "type": "address"
        }
      ],
      "stateMutability": "view",
      "type": "function"
    },
    {
      "inputs": [
        {
          "internalType": "uint256",
          "name": "index",
          "type": "uint256"
        }
      ],
      "name": "paymentToken",
      "outputs": [
        {
          "internalType": "address",
          "name": "",
          "type": "address"
        }
      ],
      "stateMutability": "view",
      "type": "function"
    },
    {
      "inputs": [
        {
          "internalType": "contract IERC20",
          "name": "token",
          "type": "address"
        }
      ],
      "name": "paymentTokenIndex",
      "outputs": [
        {
          "internalType": "int16",
          "name": "",
          "type": "int16"
        }
      ],
      "stateMutability": "view",
      "type": "function"
    },
    {
      "inputs": [
        {
          "internalType": "uint256",
          "name": "tokenId",
          "type": "uint256"
        },
        {
          "internalType": "contract IERC20",
          "name": "paymentToken",
          "type": "address"
        },
        {
          "internalType": "uint32",
          "name": "duration",
          "type": "uint32"
        },
        {
          "internalType": "uint256",
          "name": "maxPayment",
          "type": "uint256"
        }
      ],
      "name": "reborrow",
      "outputs": [],
      "stateMutability": "nonpayable",
      "type": "function"
    },
    {
      "inputs": [
        {
          "internalType": "string",
          "name": "serviceName",
          "type": "string"
        },
        {
          "internalType": "string",
          "name": "symbol",
          "type": "string"
        },
        {
          "internalType": "uint32",
          "name": "gapHalvingPeriod",
          "type": "uint32"
        },
        {
          "internalType": "uint112",
          "name": "baseRate",
          "type": "uint112"
        },
        {
          "internalType": "contract IERC20Metadata",
          "name": "baseToken",
          "type": "address"
        },
        {
          "internalType": "uint16",
          "name": "serviceFeePercent",
          "type": "uint16"
        },
        {
          "internalType": "uint32",
          "name": "minLoanDuration",
          "type": "uint32"
        },
        {
          "internalType": "uint32",
          "name": "maxLoanDuration",
          "type": "uint32"
        },
        {
          "internalType": "uint96",
          "name": "minGCFee",
          "type": "uint96"
        },
        {
          "internalType": "bool",
          "name": "allowsPerpetualTokensForever",
          "type": "bool"
        }
      ],
      "name": "registerService",
      "outputs": [],
      "stateMutability": "nonpayable",
      "type": "function"
    },
    {
      "inputs": [
        {
          "internalType": "uint256",
          "name": "tokenId",
          "type": "uint256"
        }
      ],
      "name": "removeLiquidity",
      "outputs": [],
      "stateMutability": "nonpayable",
      "type": "function"
    },
    {
      "inputs": [
        {
          "internalType": "uint256",
          "name": "tokenId",
          "type": "uint256"
        }
      ],
      "name": "returnLoan",
      "outputs": [],
      "stateMutability": "nonpayable",
      "type": "function"
    },
    {
      "inputs": [
        {
          "internalType": "string",
          "name": "baseUri",
          "type": "string"
        }
      ],
      "name": "setBaseUri",
      "outputs": [],
      "stateMutability": "nonpayable",
      "type": "function"
    },
    {
      "inputs": [
        {
          "internalType": "uint256",
          "name": "pole",
          "type": "uint256"
        },
        {
          "internalType": "uint256",
          "name": "slope",
          "type": "uint256"
        }
      ],
      "name": "setBondingCurve",
      "outputs": [],
      "stateMutability": "nonpayable",
      "type": "function"
    },
    {
      "inputs": [
        {
          "internalType": "uint32",
          "name": "newPeriod",
          "type": "uint32"
        }
      ],
      "name": "setBorrowerLoanReturnGracePeriod",
      "outputs": [],
      "stateMutability": "nonpayable",
      "type": "function"
    },
    {
      "inputs": [
        {
          "internalType": "contract IConverter",
          "name": "newConverter",
          "type": "address"
        }
      ],
      "name": "setConverter",
      "outputs": [],
      "stateMutability": "nonpayable",
      "type": "function"
    },
    {
      "inputs": [
        {
          "internalType": "address",
          "name": "newCollector",
          "type": "address"
        }
      ],
      "name": "setEnterpriseCollector",
      "outputs": [],
      "stateMutability": "nonpayable",
      "type": "function"
    },
    {
      "inputs": [
        {
          "internalType": "uint32",
          "name": "newPeriod",
          "type": "uint32"
        }
      ],
      "name": "setEnterpriseLoanCollectGracePeriod",
      "outputs": [],
      "stateMutability": "nonpayable",
      "type": "function"
    },
    {
      "inputs": [
        {
          "internalType": "address",
          "name": "newVault",
          "type": "address"
        }
      ],
      "name": "setEnterpriseVault",
      "outputs": [],
      "stateMutability": "nonpayable",
      "type": "function"
    },
    {
      "inputs": [
        {
          "internalType": "uint16",
          "name": "newGcFeePercent",
          "type": "uint16"
        }
      ],
      "name": "setGcFeePercent",
      "outputs": [],
      "stateMutability": "nonpayable",
      "type": "function"
    },
    {
      "inputs": [
        {
          "internalType": "uint32",
          "name": "interestGapHalvingPeriod",
          "type": "uint32"
        }
      ],
      "name": "setInterestGapHalvingPeriod",
      "outputs": [],
      "stateMutability": "nonpayable",
      "type": "function"
    },
    {
      "inputs": [],
      "name": "shutdownEnterpriseForever",
      "outputs": [],
      "stateMutability": "nonpayable",
      "type": "function"
    },
    {
      "inputs": [
        {
          "internalType": "address",
          "name": "newOwner",
          "type": "address"
        }
      ],
      "name": "transferOwnership",
      "outputs": [],
      "stateMutability": "nonpayable",
      "type": "function"
    },
    {
      "inputs": [
        {
          "internalType": "address",
          "name": "implementation",
          "type": "address"
        }
      ],
      "name": "upgradeBorrowToken",
      "outputs": [],
      "stateMutability": "nonpayable",
      "type": "function"
    },
    {
      "inputs": [
        {
          "internalType": "address",
          "name": "implementation",
          "type": "address"
        }
      ],
      "name": "upgradeEnterprise",
      "outputs": [],
      "stateMutability": "nonpayable",
      "type": "function"
    },
    {
      "inputs": [
        {
          "internalType": "address",
          "name": "implementation",
          "type": "address"
        }
      ],
      "name": "upgradeInterestToken",
      "outputs": [],
      "stateMutability": "nonpayable",
      "type": "function"
    },
    {
      "inputs": [
        {
          "internalType": "contract PowerToken",
          "name": "powerToken",
          "type": "address"
        },
        {
          "internalType": "address",
          "name": "implementation",
          "type": "address"
        }
      ],
      "name": "upgradePowerToken",
      "outputs": [],
      "stateMutability": "nonpayable",
      "type": "function"
    },
    {
      "inputs": [
        {
          "internalType": "uint256",
          "name": "tokenId",
          "type": "uint256"
        }
      ],
      "name": "withdrawInterest",
      "outputs": [],
      "stateMutability": "nonpayable",
      "type": "function"
    }
  ],
  "bytecode": "0x608060405234801561001057600080fd5b506154dc806100206000396000f3fe608060405234801561001057600080fd5b50600436106102925760003560e01c8062ca339b146102975780630714012c146102ac57806308669aab146102d55780630cac36b2146102e85780630e101b60146102fd5780630ea1dc9e1461031d5780632261b07f1461032e578063229304dc1461033f5780632b2f6095146103605780632e365ade146103735780632fb2067f146103865780633513e0dc146103a9578063449497ec146103bc5780634741efb3146103cf57806349bd4e89146103d7578063512a53bc146103ea57806351c6590a146103fd57806359bf5d39146104105780635a4598df146104185780635a9b0b891461043657806362c1f38814610456578063644e44df146104695780636815f3371461047a578063696f9c811461048d5780637791c42d146104a05780637b024363146104b15780638188d50d146104c457806389035b61146104d95780638b3240a0146105055780638c0114b01461050d5780638da5cb5b1461052057806390f55edd146105285780639ab711931461053b5780639c7aa7f81461054e5780639c8f9f2314610561578063a0bcfc7f14610574578063a0efd11814610587578063a554b26d1461059c578063aebb5041146105ad578063b19337a4146105b5578063b406bf6d146105c8578063b56de97e146105e9578063b96266fa146105fc578063bf3bb1a514610611578063bfd84fb414610624578063c1fc16d814610637578063c22947841461064a578063c4d66de81461065d578063c93d0b9214610670578063df57f2fa14610681578063e1a5fa49146106b6578063e9126154146106c9578063ef1f9f39146106dc578063f2fde38b146106ef578063faac38ef14610702578063fbac9a551461071d578063fcb2884e14610743575b600080fd5b6102aa6102a5366004614ab3565b61074b565b005b6102bf6102ba366004614dd7565b6110af565b6040516102cc91906150ef565b60405180910390f35b6102aa6102e3366004614dd7565b611204565b6102f061138d565b6040516102cc9190615014565b61031061030b366004614dd7565b61141f565b6040516102cc9190614f0b565b6001546001600160a01b0316610310565b6004546001600160a01b0316610310565b61035261034d366004614a5a565b61145d565b6040519081526020016102cc565b6102aa61036e366004614944565b611586565b6102aa610381366004614e6d565b611642565b610399610394366004614944565b611703565b60405190151581526020016102cc565b6102aa6103b7366004614e4c565b611726565b6102aa6103ca366004614d9f565b611808565b6102aa611876565b6102aa6103e5366004614e4c565b611947565b6102aa6103f836600461497c565b611b3f565b6102aa61040b366004614dd7565b611dc6565b610352611f38565b600354600160a01b900463ffffffff165b6040516102cc919061519e565b61043e611f5d565b6040516102cc9c9b9a9998979695949392919061504c565b6102aa610464366004614944565b612120565b6000546001600160a01b0316610310565b6102aa610488366004614bc5565b6121cf565b6102aa61049b366004614e4c565b612331565b6006546001600160a01b0316610310565b6102aa6104bf366004614944565b6124f0565b600654600160a01b900463ffffffff16610429565b6103996104e7366004614944565b6001600160a01b031660009081526013602052604090205460ff1690565b610310612577565b6102aa61051b366004614e07565b612598565b610310612c5e565b6102aa610536366004614944565b612c74565b6102aa610549366004614c77565b612d23565b6102aa61055c366004614944565b61317e565b6102aa61056f366004614dd7565b6132a5565b6102aa610582366004614b14565b6134d0565b600654600160c01b900463ffffffff16610429565b6005546001600160a01b0316610310565b61035261352d565b6102aa6105c3366004614944565b613544565b600654600160e01b900461ffff1660405161ffff90911681526020016102cc565b6102aa6105f7366004614e6d565b6135f3565b6106046136b3565b6040516102cc9190614f5a565b61035261061f366004614dd7565b613714565b6102aa610632366004614944565b613759565b6102aa610645366004614944565b6137ef565b6102aa610658366004614a22565b613870565b6102aa61066b366004614944565b613975565b6002546001600160a01b0316610310565b61069461068f366004614dd7565b613a4a565b60408051825181526020808401519082015291810151908201526060016102cc565b6102aa6106c4366004614e6d565b613b24565b6102aa6106d7366004614dd7565b613bd4565b6102aa6106ea3660046149d8565b613e45565b6102aa6106fd366004614944565b613ecf565b600e54600d54604080519283526020830191909152016102cc565b61073061072b366004614944565b613fc0565b60405160019190910b81526020016102cc565b600a54610352565b600354604080518082019091526002815261373560f01b602082015290600160c01b900460ff16156107995760405162461bcd60e51b81526004016107909190615014565b60405180910390fd5b506001600160a01b03851660009081526013602090815260409182902054825180840190935260018352601b60f91b9183019190915260ff166107ef5760405162461bcd60e51b81526004016107909190615014565b506107f984611703565b604051806040016040528060028152602001610d0d60f21b815250906108325760405162461bcd60e51b81526004016107909190615014565b50604051636e4d898360e01b81526001600160a01b03861690636e4d89839061085f90859060040161519e565b60206040518083038186803b15801561087757600080fd5b505afa15801561088b573d6000803e3d6000fd5b505050506040513d601f19601f820116820180604052508101906108af91906149bc565b60405180604001604052806002815260200161343560f01b815250906108e85760405162461bcd60e51b81526004016107909190615014565b506040805180820190915260028152611b9b60f11b60208201526001600160701b0384166109295760405162461bcd60e51b81526004016107909190615014565b5061093261352d565b836001600160701b03161115604051806040016040528060028152602001611a1b60f11b815250906109775760405162461bcd60e51b81526004016107909190615014565b50600080600080886001600160a01b0316639d5513d78989896040518463ffffffff1660e01b81526004016109ae93929190614fa7565b60606040518083038186803b1580156109c657600080fd5b505afa1580156109da573d6000803e3d6000fd5b505050506040513d601f19601f820116820180604052508101906109fe9190614d5e565b955090935091508390506000610a148385615206565b6001600160701b0316905085856001600160701b031682610a359190615231565b111560405180604001604052806002815260200161343760f01b81525090610a705760405162461bcd60e51b81526004016107909190615014565b50610a866001600160a01b038a16333084613fed565b60008190508a6001600160a01b03166398acd7a66040518163ffffffff1660e01b815260040160206040518083038186803b158015610ac457600080fd5b505afa158015610ad8573d6000803e3d6000fd5b505050506040513d601f19601f82011682018060405250810190610afc9190614960565b6001600160a01b03168a6001600160a01b031614610c46576004805460405163095ea7b360e01b81526001600160a01b03808e169363095ea7b393610b4693921691879101614f41565b602060405180830381600087803b158015610b6057600080fd5b505af1158015610b74573d6000803e3d6000fd5b505050506040513d601f19601f82011682018060405250810190610b9891906149bc565b50600460009054906101000a90046001600160a01b03166001600160a01b031663029b465d8b8460008054906101000a90046001600160a01b03166040518463ffffffff1660e01b8152600401610bf193929190614fd7565b602060405180830381600087803b158015610c0b57600080fd5b505af1158015610c1f573d6000803e3d6000fd5b505050506040513d601f19601f82011682018060405250810190610c439190614def565b90505b600082610c5c836001600160701b038816615288565b610c669190615268565b600654600054919250610c86916001600160a01b0390811691168361405e565b896001600160701b0316600a6000828254610ca19190615231565b9091555060009050610cb38284615314565b9050610cbe8161407d565b5050600254610ceb95506001600160a01b038b81169550339450169150506001600160701b038516613fed565b426000610cf88583615249565b90506000600260009054906101000a90046001600160a01b03166001600160a01b031663caa0f92a6040518163ffffffff1660e01b8152600401602060405180830381600087803b158015610d4c57600080fd5b505af1158015610d60573d6000803e3d6000fd5b505050506040513d601f19601f82011682018060405250810190610d849190614def565b9050604051806101000160405280886001600160701b031681526020018a6001600160a01b03166381045ead6040518163ffffffff1660e01b815260040160206040518083038186803b158015610dda57600080fd5b505afa158015610dee573d6000803e3d6000fd5b505050506040513d601f19601f82011682018060405250810190610e129190614dbb565b61ffff16815263ffffffff80861660208301528481166040830152600654606090920191610e4991600160a01b9091041685615249565b63ffffffff168152602001600660189054906101000a900463ffffffff1684610e729190615249565b63ffffffff168152602001856001600160701b03168152602001610e958a613fc0565b61ffff9081169091526000838152601160209081526040918290208451815492860151868501516060880151608089015160a08a01516001600160701b039586166001600160801b031998891617600160701b958b16860217600160801b600160c01b031916600160801b63ffffffff9586160263ffffffff60a01b191617600160a01b93851693909302929092176001600160c01b0316600160c01b918416919091026001600160e01b031617600160e01b929091169190910217835560c08701516001909301805460e0909801519390921696909316959095179316029190911790915560025490516335313c2160e11b815282916001600160a01b031690636a62784290610faa903390600401614f0b565b602060405180830381600087803b158015610fc457600080fd5b505af1158015610fd8573d6000803e3d6000fd5b505050506040513d601f19601f82011682018060405250810190610ffc9190614def565b1461101757634e487b7160e01b600052600160045260246000fd5b60405163f8642f2960e01b8152600481018290526001600160a01b038a169063f8642f2990602401600060405180830381600087803b15801561105957600080fd5b505af115801561106d573d6000803e3d6000fd5b50505050886001600160a01b031660008051602061548783398151915282858560405161109c93929190615182565b60405180910390a2505050505050505050565b6040805161010081018252600080825260208201819052818301819052606082018190526080820181905260a0820181905260c0820181905260e082015260025491516331a9108f60e11b81526004810184905290916001600160a01b031690636352211e9060240160206040518083038186803b15801561113057600080fd5b505afa158015611144573d6000803e3d6000fd5b505050506040513d601f19601f820116820180604052508101906111689190614960565b505060009081526011602090815260409182902082516101008101845281546001600160701b038082168352600160701b80830461ffff90811696850196909652600160801b830463ffffffff90811697850197909752600160a01b830487166060850152600160c01b830487166080850152600160e01b90920490951660a083015260019092015493841660c082015292041660e082015290565b6001546040516331a9108f60e11b815260048101839052829133916001600160a01b0390911690636352211e9060240160206040518083038186803b15801561124c57600080fd5b505afa158015611260573d6000803e3d6000fd5b505050506040513d601f19601f820116820180604052508101906112849190614960565b6001600160a01b031614604051806040016040528060018152602001603360f81b815250906112c65760405162461bcd60e51b81526004016107909190615014565b506000828152601260205260408120600181015490916112e585613714565b90506112ef61352d565b811115604051806040016040528060028152602001611a1b60f11b8152509061132b5760405162461bcd60e51b81526004016107909190615014565b50600054611343906001600160a01b0316338361405e565b60006113528460000154614102565b6001850181905590506113658184615314565b600c60008282546113769190615314565b90915550611385905082614124565b505050505050565b60606010805461139c90615357565b80601f01602080910402602001604051908101604052809291908181526020018280546113c890615357565b80156114155780601f106113ea57610100808354040283529160200191611415565b820191906000526020600020905b8154815290600101906020018083116113f857829003601f168201915b5050505050905090565b60006008828154811061144257634e487b7160e01b600052603260045260246000fd5b6000918252602090912001546001600160a01b031692915050565b600354604080518082019091526002815261373560f01b6020820152600091600160c01b900460ff16156114a45760405162461bcd60e51b81526004016107909190615014565b506001600160a01b03851660009081526013602090815260409182902054825180840190935260018352601b60f91b9183019190915260ff166114fa5760405162461bcd60e51b81526004016107909190615014565b50604051631466370160e01b81526001600160a01b0386169063146637019061152b90879087908790600401614fa7565b60206040518083038186803b15801561154357600080fd5b505afa158015611557573d6000803e3d6000fd5b505050506040513d601f19601f8201168201806040525081019061157b9190614def565b90505b949350505050565b3361158f612c5e565b6001600160a01b031614604051806040016040528060018152602001603360f81b815250906115d15760405162461bcd60e51b81526004016107909190615014565b506115da612577565b60015460405163266a23b160e21b81526001600160a01b03928316926399a88ec49261160d929116908590600401614ffa565b600060405180830381600087803b15801561162757600080fd5b505af115801561163b573d6000803e3d6000fd5b5050505050565b3361164b612c5e565b6001600160a01b031614604051806040016040528060018152602001603360f81b8152509061168d5760405162461bcd60e51b81526004016107909190615014565b506006546040805180820190915260028152610d8d60f21b60208201529063ffffffff600160c01b909104811690831611156116dc5760405162461bcd60e51b81526004016107909190615014565b506006805463ffffffff909216600160a01b0263ffffffff60a01b19909216919091179055565b6001600160a01b0316600090815260076020526040812054600190810b900b1390565b3361172f612c5e565b6001600160a01b031614604051806040016040528060018152602001603360f81b815250906117715760405162461bcd60e51b81526004016107909190615014565b50611781600a600360401b615268565b82111560405180604001604052806002815260200161373760f01b815250906117bd5760405162461bcd60e51b81526004016107909190615014565b5060408051808201909152600281526106e760f31b6020820152600160401b8211156117fc5760405162461bcd60e51b81526004016107909190615014565b50600e91909155600d55565b33611811612c5e565b6001600160a01b031614604051806040016040528060018152602001603360f81b815250906118535760405162461bcd60e51b81526004016107909190615014565b506006805461ffff909216600160e01b0261ffff60e01b19909216919091179055565b600354604080518082019091526002815261373560f01b602082015290600160c01b900460ff16156118bb5760405162461bcd60e51b81526004016107909190615014565b50336118c5612c5e565b6001600160a01b031614604051806040016040528060018152602001603360f81b815250906119075760405162461bcd60e51b81526004016107909190615014565b5060038054600160c01b60ff60c01b199091161790556000600a55600b8054600160701b81046001600160701b03166001600160701b0319909116179055565b6001546040516331a9108f60e11b815260048101849052839133916001600160a01b0390911690636352211e9060240160206040518083038186803b15801561198f57600080fd5b505afa1580156119a3573d6000803e3d6000fd5b505050506040513d601f19601f820116820180604052508101906119c79190614960565b6001600160a01b031614604051806040016040528060018152602001603360f81b81525090611a095760405162461bcd60e51b81526004016107909190615014565b5060006012600085815260200190815260200160002090504381600201541060405180604001604052806002815260200161035360f41b81525090611a615760405162461bcd60e51b81526004016107909190615014565b5080546040805180820190915260028152611a1b60f11b602082015290841115611a9e5760405162461bcd60e51b81526004016107909190615014565b50611aa761352d565b831115604051806040016040528060028152602001611a1b60f11b81525090611ae35760405162461bcd60e51b81526004016107909190615014565b50600054611afb906001600160a01b0316338561405e565b6000611b0684614102565b90508160010154811115611b1b575060018101545b600182018054829003905581548490038255600c8054829003905561163b84614124565b600280546040805180820190915291825261333960f01b60208301526001600160a01b03163314611b835760405162461bcd60e51b81526004016107909190615014565b506000818152601160209081526040918290205482518084019093526002835261068760f31b918301919091526001600160701b03169081611bd85760405162461bcd60e51b81526004016107909190615014565b5060008281526011602052604081205460148054600160a01b830463ffffffff164211936001600160a01b03898116159490891615939192600160701b90910461ffff16908110611c3957634e487b7160e01b600052603260045260246000fd5b6000918252602090912001546001600160a01b031690508115611cbb5760405163079cc67960e41b81526001600160a01b038216906379cc679090611c84908b908990600401614f1f565b600060405180830381600087803b158015611c9e57600080fd5b505af1158015611cb2573d6000803e3d6000fd5b50505050611dbc565b8215611cef576040516340c10f1960e01b81526001600160a01b038216906340c10f1990611c84908a908990600401614f1f565b83611d8c576040516333bebb7760e01b81526001600160a01b03898116600483015288811660248301526001600160701b03871660448301528216906333bebb7790606401602060405180830381600087803b158015611d4e57600080fd5b505af1158015611d62573d6000803e3d6000fd5b505050506040513d601f19601f82011682018060405250810190611d8691906149bc565b50611dbc565b60408051808201825260028152611a9960f11b6020820152905162461bcd60e51b81526107909190600401615014565b5050505050505050565b600354604080518082019091526002815261373560f01b602082015290600160c01b900460ff1615611e0b5760405162461bcd60e51b81526004016107909190615014565b50600054611e24906001600160a01b0316333084613fed565b6000600c54600014611e3e57611e3982614102565b611e40565b815b90508160096000828254611e549190615231565b90915550506001546040516335313c2160e11b81526000916001600160a01b031690636a62784290611e8a903390600401614f0b565b602060405180830381600087803b158015611ea457600080fd5b505af1158015611eb8573d6000803e3d6000fd5b505050506040513d601f19601f82011682018060405250810190611edc9190614def565b6040805160608101825285815260208082018681524383850190815260008681526012909352938220925183555160018301559151600290910155600c80549293508492909190611f2e908490615231565b9091555050505050565b6000611f4261416e565b6001600160701b0316600954611f589190615231565b905090565b600c54600354600654600954600a54600b54600f805460609788976000978897889788978897889788978897889788979496601096939563ffffffff600160a01b94859004811696948404811695600160c01b850482169561ffff600160e01b9687900416959394936001600160701b0380841694600160701b8504909116939190910416908c90611fee90615357565b80601f016020809104026020016040519081016040528092919081815260200182805461201a90615357565b80156120675780601f1061203c57610100808354040283529160200191612067565b820191906000526020600020905b81548152906001019060200180831161204a57829003601f168201915b50505050509b508a805461207a90615357565b80601f01602080910402602001604051908101604052809291908181526020018280546120a690615357565b80156120f35780601f106120c8576101008083540402835291602001916120f3565b820191906000526020600020905b8154815290600101906020018083116120d657829003601f168201915b50505050509a509b509b509b509b509b509b509b509b509b509b509b509b50909192939495969798999a9b565b33612129612c5e565b6001600160a01b031614604051806040016040528060018152602001603360f81b8152509061216b5760405162461bcd60e51b81526004016107909190615014565b50604080518082019091526002815261363160f01b60208201526001600160a01b0382166121ac5760405162461bcd60e51b81526004016107909190615014565b50600580546001600160a01b0319166001600160a01b0392909216919091179055565b600f80546121dc90615357565b6040805180820190915260018152601960f91b60208201529150156122145760405162461bcd60e51b81526004016107909190615014565b5061221e81613975565b8160008051602061544783398151915280546001600160a01b03929092166001600160a01b03199283161790556003805490911633179055865161226990600f9060208a0190614744565b50612276601087876147c8565b5060068054600480546001600160a01b03199081166001600160a01b03888116919091179092556005805492861692909116821790556003805463ffffffff60a01b191660e160a61b179055600165ffff0000000160c01b0319909116600160e01b61ffff8816026001600160c01b03191617176102a360a61b1763ffffffff60c01b19166102a360c71b1790556123136064600560401b615268565b600e55612325600a600360401b615268565b600d5550505050505050565b600354604080518082019091526002815261373560f01b602082015290600160c01b900460ff16156123765760405162461bcd60e51b81526004016107909190615014565b506001546040516331a9108f60e11b815260048101849052839133916001600160a01b0390911690636352211e9060240160206040518083038186803b1580156123bf57600080fd5b505afa1580156123d3573d6000803e3d6000fd5b505050506040513d601f19601f820116820180604052508101906123f79190614960565b6001600160a01b031614604051806040016040528060018152602001603360f81b815250906124395760405162461bcd60e51b81526004016107909190615014565b50600054612452906001600160a01b0316333085613fed565b6000600c5460001461246c5761246783614102565b61246e565b825b905082600960008282546124829190615231565b909155505060008481526012602052604081208054909185918391906124a9908490615231565b92505081905550818160010160008282546124c49190615231565b9091555050436002820155600c80548391906000906124e4908490615231565b90915550505050505050565b336124f9612c5e565b6001600160a01b031614604051806040016040528060018152602001603360f81b8152509061253b5760405162461bcd60e51b81526004016107909190615014565b50612544612577565b60025460405163266a23b160e21b81526001600160a01b03928316926399a88ec49261160d929116908590600401614ffa565b60006000805160206154478339815191525b546001600160a01b0316919050565b600354604080518082019091526002815261373560f01b602082015290600160c01b900460ff16156125dd5760405162461bcd60e51b81526004016107909190615014565b506125e783611703565b604051806040016040528060028152602001610d0d60f21b815250906126205760405162461bcd60e51b81526004016107909190615014565b50600084815260116020908152604091829020805483518085019094526002845261068760f31b9284019290925291906001600160701b03166126765760405162461bcd60e51b81526004016107909190615014565b50805460148054600092600160701b900461ffff169081106126a857634e487b7160e01b600052603260045260246000fd5b600091825260209091200154604051636e4d898360e01b81526001600160a01b0390911691508190636e4d8983906126e490879060040161519e565b60206040518083038186803b1580156126fc57600080fd5b505afa158015612710573d6000803e3d6000fd5b505050506040513d601f19601f8201168201806040525081019061273491906149bc565b60405180604001604052806002815260200161343560f01b8152509061276d5760405162461bcd60e51b81526004016107909190615014565b508154429061278a908690600160a01b900463ffffffff16615249565b63ffffffff16101560405180604001604052806002815260200161343960f01b815250906127cb5760405162461bcd60e51b81526004016107909190615014565b508154600a80546001600160701b03909216916000906127ec908490615314565b90915550508154604051639d5513d760e01b815260009182916001600160a01b03851691639d5513d791612832918b916001600160701b03909116908b90600401614fa7565b60606040518083038186803b15801561284a57600080fd5b505afa15801561285e573d6000803e3d6000fd5b505050506040513d601f19601f820116820180604052508101906128829190614d5e565b508554600a80546001600160701b039092169091019055909250905060006128aa8284615206565b6001600160701b031690508581111560405180604001604052806002815260200161343760f01b815250906128f25760405162461bcd60e51b81526004016107909190615014565b506129086001600160a01b038916333084613fed565b6000819050846001600160a01b03166398acd7a66040518163ffffffff1660e01b815260040160206040518083038186803b15801561294657600080fd5b505afa15801561295a573d6000803e3d6000fd5b505050506040513d601f19601f8201168201806040525081019061297e9190614960565b6001600160a01b0316896001600160a01b031614612aa9576004805460405163095ea7b360e01b81526001600160a01b03808d169363095ea7b3936129c893921691879101614f41565b602060405180830381600087803b1580156129e257600080fd5b505af11580156129f6573d6000803e3d6000fd5b505050506040513d601f19601f82011682018060405250810190612a1a91906149bc565b506004805460005460405163029b465d60e01b81526001600160a01b039283169363029b465d93612a54938f938993919092169101614fd7565b602060405180830381600087803b158015612a6e57600080fd5b505af1158015612a82573d6000803e3d6000fd5b505050506040513d601f19601f82011682018060405250810190612aa69190614def565b90505b600082612abf836001600160701b038716615288565b612ac99190615268565b600654600054919250612ae9916001600160a01b0390811691168361405e565b6000612af58284615314565b9050612b008161407d565b8754600160a01b900463ffffffff16612b198b82615249565b895463ffffffff60a01b1916600160a01b63ffffffff928316810291909117808c55600654612b52939083900481169290910416615249565b895463ffffffff60c01b1916600160c01b63ffffffff928316810291909117808c55600654612b8f93929004821691600160a01b90910416615249565b895463ffffffff91909116600160e01b026001600160e01b0390911617895560405163f8642f2960e01b8152600481018e90526001600160a01b0389169063f8642f2990602401600060405180830381600087803b158015612bf057600080fd5b505af1158015612c04573d6000803e3d6000fd5b50505050876001600160a01b03166000805160206154878339815191528e838c60000160149054906101000a900463ffffffff16604051612c4793929190615182565b60405180910390a250505050505050505050505050565b6000600080516020615427833981519152612589565b33612c7d612c5e565b6001600160a01b031614604051806040016040528060018152602001603360f81b81525090612cbf5760405162461bcd60e51b81526004016107909190615014565b506040805180820190915260028152611b1960f11b60208201526001600160a01b038216612d005760405162461bcd60e51b81526004016107909190615014565b50600680546001600160a01b0319166001600160a01b0392909216919091179055565b33612d2c612c5e565b6001600160a01b031614604051806040016040528060018152602001603360f81b81525090612d6e5760405162461bcd60e51b81526004016107909190615014565b50600354604080518082019091526002815261373560f01b602082015290600160c01b900460ff1615612db45760405162461bcd60e51b81526004016107909190615014565b50604080518082019091526002815261034360f41b60208201526001600160a01b038716612df55760405162461bcd60e51b81526004016107909190615014565b50601454604080518082019091526002815261343160f01b60208201529061ffff11612e345760405162461bcd60e51b81526004016107909190615014565b506003546000906001600160a01b031663c31011cc612e51612577565b6040518263ffffffff1660e01b8152600401612e6d9190614f0b565b602060405180830381600087803b158015612e8757600080fd5b505af1158015612e9b573d6000803e3d6000fd5b505050506040513d601f19601f82011682018060405250810190612ebf9190614960565b905060008060009054906101000a90046001600160a01b03166001600160a01b03166395d89b416040518163ffffffff1660e01b815260040160006040518083038186803b158015612f1057600080fd5b505afa158015612f24573d6000803e3d6000fd5b505050506040513d6000823e601f3d908101601f19168201604052612f4c9190810190614b53565b90506000818c604051602001612f63929190614ecf565b6040516020818303038152906040529050826001600160a01b0316634cd88b768e836040518363ffffffff1660e01b8152600401612fa2929190615027565b600060405180830381600087803b158015612fbc57600080fd5b505af1158015612fd0573d6000803e3d6000fd5b505050505050806001600160a01b0316632ef0cf8b308a868d6014805490508d8c8c8f8c6040518b63ffffffff1660e01b815260040161308e9a999897969594939291906001600160a01b039a8b1681526001600160701b039990991660208a01526001600160601b0397909716604089015263ffffffff958616606089015261ffff94851660808901529290971660a0870152831660c08601529490911660e0840152929092166101008201529015156101208201526101400190565b600060405180830381600087803b1580156130a857600080fd5b505af11580156130bc573d6000803e3d6000fd5b50506014805460018082019092557fce6d7b5282bd9a3661ae061feed1dbda4e52ab073b1f9285be6e155d9c38d4ec0180546001600160a01b0319166001600160a01b038616908117909155600081815260136020908152604091829020805460ff1916909417909355805163ffffffff8f1681526001600160701b038e16938101939093529093507f18706585e986f622c9d914abfb256d563b9ea274cd5d49124e0518aa314b8c1292500160405180910390a25050505050505050505050565b33613187612c5e565b6001600160a01b031614604051806040016040528060018152602001603360f81b815250906131c95760405162461bcd60e51b81526004016107909190615014565b506001600160a01b03811660009081526007602090815260409182902054825180840190935260028352611b9960f11b91830191909152600190810b900b6132245760405162461bcd60e51b81526004016107909190615014565b506001600160a01b038116600090815260076020526040812054600190810b900b13156132a2576001600160a01b0381166000908152600760205260409020546132709060010b615392565b6001600160a01b0382166000908152600760205260409020805460019290920b61ffff1661ffff199092169190911790555b50565b6001546040516331a9108f60e11b815260048101839052829133916001600160a01b0390911690636352211e9060240160206040518083038186803b1580156132ed57600080fd5b505afa158015613301573d6000803e3d6000fd5b505050506040513d601f19601f820116820180604052508101906133259190614960565b6001600160a01b031614604051806040016040528060018152602001603360f81b815250906133675760405162461bcd60e51b81526004016107909190615014565b5060006012600084815260200190815260200160002090504381600201541060405180604001604052806002815260200161035360f41b815250906133bf5760405162461bcd60e51b81526004016107909190615014565b50600181015460006133d0826141d6565b90506133da61352d565b811115604051806040016040528060028152602001611a1b60f11b815250906134165760405162461bcd60e51b81526004016107909190615014565b50600154604051630852cd8d60e31b8152600481018790526001600160a01b03909116906342966c6890602401600060405180830381600087803b15801561345d57600080fd5b505af1158015613471573d6000803e3d6000fd5b505060005461348d92506001600160a01b03169050338361405e565b81600c600082825461349f9190615314565b909155506134ae905081614124565b5050506000918252506012602052604081208181556001810182905560020155565b336134d9612c5e565b6001600160a01b031614604051806040016040528060018152602001603360f81b8152509061351b5760405162461bcd60e51b81526004016107909190615014565b50613528601083836147c8565b505050565b6000600a5461353a611f38565b611f589190615314565b3361354d612c5e565b6001600160a01b031614604051806040016040528060018152602001603360f81b8152509061358f5760405162461bcd60e51b81526004016107909190615014565b50604080518082019091526002815261363360f01b60208201526001600160a01b0382166135d05760405162461bcd60e51b81526004016107909190615014565b50600480546001600160a01b0319166001600160a01b0392909216919091179055565b336135fc612c5e565b6001600160a01b031614604051806040016040528060018152602001603360f81b8152509061363e5760405162461bcd60e51b81526004016107909190615014565b50600654604080518082019091526002815261363560f01b60208201529063ffffffff808416600160a01b90920416111561368c5760405162461bcd60e51b81526004016107909190615014565b506006805463ffffffff909216600160c01b0263ffffffff60c01b19909216919091179055565b6060601480548060200260200160405190810160405280929190818152602001828054801561141557602002820191906000526020600020905b81546001600160a01b031681526001909101906020018083116136ed575050505050905090565b600081815260126020526040812060018101548290613732906141d6565b825490915081111561374f57815461374a9082615314565b61157e565b6000949350505050565b33613762612c5e565b6001600160a01b031614604051806040016040528060018152602001603360f81b815250906137a45760405162461bcd60e51b81526004016107909190615014565b50604080518082019091526002815261373160f01b60208201526001600160a01b0382166137e55760405162461bcd60e51b81526004016107909190615014565b506132a2816141ee565b336137f8612c5e565b6001600160a01b031614604051806040016040528060018152602001603360f81b8152509061383a5760405162461bcd60e51b81526004016107909190615014565b50613843612577565b6001600160a01b03166399a88ec430836040518363ffffffff1660e01b815260040161160d929190614ffa565b33613879612c5e565b6001600160a01b031614604051806040016040528060018152602001603360f81b815250906138bb5760405162461bcd60e51b81526004016107909190615014565b506001600160a01b03821660009081526013602090815260409182902054825180840190935260018352601b60f91b9183019190915260ff166139115760405162461bcd60e51b81526004016107909190615014565b5061391a612577565b6001600160a01b03166399a88ec483836040518363ffffffff1660e01b8152600401613947929190614ffa565b600060405180830381600087803b15801561396157600080fd5b505af1158015611385573d6000803e3d6000fd5b600061397f612c5e565b6001600160a01b031614604051806040016040528060018152602001601960f91b815250906139c15760405162461bcd60e51b81526004016107909190615014565b50604080518082019091526002815261373360f01b60208201526001600160a01b038216613a025760405162461bcd60e51b81526004016107909190615014565b5060008051602061542783398151915280546001600160a01b0319166001600160a01b038316908117909155604051600090600080516020615467833981519152908290a350565b613a6e60405180606001604052806000815260200160008152602001600081525090565b6001546040516331a9108f60e11b8152600481018490526001600160a01b0390911690636352211e9060240160206040518083038186803b158015613ab257600080fd5b505afa158015613ac6573d6000803e3d6000fd5b505050506040513d601f19601f82011682018060405250810190613aea9190614960565b5050600090815260126020908152604091829020825160608101845281548152600182015492810192909252600201549181019190915290565b33613b2d612c5e565b6001600160a01b031614604051806040016040528060018152602001603360f81b81525090613b6f5760405162461bcd60e51b81526004016107909190615014565b506040805180820190915260028152611b1b60f11b602082015263ffffffff8216613bad5760405162461bcd60e51b81526004016107909190615014565b506003805463ffffffff909216600160a01b0263ffffffff60a01b19909216919091179055565b600081815260116020908152604091829020805483518085019094526002845261068760f31b9284019290925291906001600160701b0316613c295760405162461bcd60e51b81526004016107909190615014565b506002546040516331a9108f60e11b8152600481018490526000916001600160a01b031690636352211e9060240160206040518083038186803b158015613c6f57600080fd5b505afa158015613c83573d6000803e3d6000fd5b505050506040513d601f19601f82011682018060405250810190613ca79190614960565b8254909150429063ffffffff808316600160c01b909204161080613cd35750336001600160a01b038316145b60405180604001604052806002815260200161353360f01b81525090613d0c5760405162461bcd60e51b81526004016107909190615014565b50825463ffffffff808316600160e01b909204161080613d345750336001600160a01b038316145b80613d4957506005546001600160a01b031633145b604051806040016040528060028152602001610d4d60f21b81525090613d825760405162461bcd60e51b81526004016107909190615014565b50600354600160c01b900460ff16613dba578254600a80546001600160701b0390921691600090613db4908490615314565b90915550505b600254604051633f34d4cf60e21b8152600481018690523360248201526001600160a01b039091169063fcd3533c90604401600060405180830381600087803b158015613e0657600080fd5b505af1158015613e1a573d6000803e3d6000fd5b50505060009485525050601160205250506040812090815560010180546001600160801b0319169055565b6000546040805180820190915260018152601960f91b6020820152906001600160a01b031615613e885760405162461bcd60e51b81526004016107909190615014565b50600080546001600160a01b038086166001600160a01b031992831617909255600180548584169083161790556002805492841692909116919091179055613528836141ee565b33613ed8612c5e565b6001600160a01b031614604051806040016040528060018152602001603360f81b81525090613f1a5760405162461bcd60e51b81526004016107909190615014565b50604080518082019091526002815261373360f01b60208201526001600160a01b038216613f5b5760405162461bcd60e51b81526004016107909190615014565b50806001600160a01b0316613f6e612c5e565b6001600160a01b031660008051602061546783398151915260405160405180910390a360008051602061542783398151915280546001600160a01b0319166001600160a01b0392909216919091179055565b6001600160a01b038116600090815260076020526040812054613fe790600190810b6152a7565b92915050565b6040516001600160a01b03808516602483015283166044820152606481018290526140589085906323b872dd60e01b906084015b60408051601f198184030181529190526020810180516001600160e01b03166001600160e01b0319909316929092179091526142d1565b50505050565b6135288363a9059cbb60e01b8484604051602401614021929190614f41565b61408561416e565b600b80546001600160701b0319166001600160701b03928316178082558392600e916140ba918591600160701b900416615206565b92506101000a8154816001600160701b0302191690836001600160701b0316021790555042600b601c6101000a81548163ffffffff021916908363ffffffff16021790555050565b600061410c611f38565b82600c5461411a9190615288565b613fe79190615268565b80600954106141395760098054829003905550565b60006141436143a3565b6001600160701b03169050818160095461415d9190615231565b6141679190615314565b6009555050565b600b546000906141b99063ffffffff600160e01b820416906141a3906001600160701b0380821691600160701b9004166152ec565b600354600160a01b900463ffffffff1642614429565b600b54611f589190600160701b90046001600160701b03166152ec565b6000600c54826141e4611f38565b61411a9190615288565b6001600160a01b038116600090815260076020526040902054600190810b900b6142865760088054600180820183557ff3f7a9fe364faab93b216da50a3214154f22a0a2b415b23a84c8169e8b636ee390910180546001600160a01b0319166001600160a01b039490941693841790559054600092835260076020526040909220805461ffff191661ffff9390920b92909216179055565b6001600160a01b038116600090815260076020526040812054600190810b900b12156132a2576001600160a01b0381166000908152600760205260409020546132709060010b615392565b6000614326826040518060400160405280602081526020017f5361666545524332303a206c6f772d6c6576656c2063616c6c206661696c6564815250856001600160a01b03166145ca9092919063ffffffff16565b805190915015613528578080602001905181019061434491906149bc565b6135285760405162461bcd60e51b815260206004820152602a60248201527f5361666545524332303a204552433230206f7065726174696f6e20646964206e6044820152691bdd081cdd58d8d9595960b21b6064820152608401610790565b60006143ad61416e565b600b80546001600160701b0319168082559192508291600e906143e1908490600160701b90046001600160701b03166152ec565b92506101000a8154816001600160701b0302191690836001600160701b0316021790555042600b601c6101000a81548163ffffffff021916908363ffffffff16021790555090565b60008463ffffffff168263ffffffff161015604051806040016040528060018152602001600760fb1b815250906144735760405162461bcd60e51b81526004016107909190615014565b5084820391508263ffffffff168263ffffffff16816144a257634e487b7160e01b600052601260045260246000fd5b0463ffffffff16846001600160701b0316901c93508263ffffffff168263ffffffff16816144e057634e487b7160e01b600052601260045260246000fd5b06915063ffffffff821615806144fd57506001600160701b038416155b1561450957508261157e565b60006001600160701b0385168163ffffffff86811690861671b17217f7d1cf79abc9e3b39803f2f6af40f3028161455057634e487b7160e01b600052601260045260246000fd5b049050600160901b5b82156145bd5792820192808284028161458257634e487b7160e01b600052601260045260246000fd5b0493849003939250600160901b0180828402816145af57634e487b7160e01b600052601260045260246000fd5b049250600160901b01614559565b5091979650505050505050565b60606145d984846000856145e3565b90505b9392505050565b6060824710156146445760405162461bcd60e51b815260206004820152602660248201527f416464726573733a20696e73756666696369656e742062616c616e636520666f6044820152651c8818d85b1b60d21b6064820152608401610790565b843b6146925760405162461bcd60e51b815260206004820152601d60248201527f416464726573733a2063616c6c20746f206e6f6e2d636f6e74726163740000006044820152606401610790565b600080866001600160a01b031685876040516146ae9190614eb3565b60006040518083038185875af1925050503d80600081146146eb576040519150601f19603f3d011682016040523d82523d6000602084013e6146f0565b606091505b509150915061470082828661470b565b979650505050505050565b6060831561471a5750816145dc565b82511561472a5782518084602001fd5b8160405162461bcd60e51b81526004016107909190615014565b82805461475090615357565b90600052602060002090601f01602090048101928261477257600085556147b8565b82601f1061478b57805160ff19168380011785556147b8565b828001600101855582156147b8579182015b828111156147b857825182559160200191906001019061479d565b506147c492915061483c565b5090565b8280546147d490615357565b90600052602060002090601f0160209004810192826147f657600085556147b8565b82601f1061480f5782800160ff198235161785556147b8565b828001600101855582156147b8579182015b828111156147b8578235825591602001919060010190614821565b5b808211156147c4576000815560010161483d565b803561485c816153f3565b919050565b803561485c816153de565b60008083601f84011261487d578182fd5b5081356001600160401b03811115614893578182fd5b6020830191508360208285010111156148ab57600080fd5b9250929050565b600082601f8301126148c2578081fd5b81356148d56148d0826151df565b6151af565b8181528460208386010111156148e9578283fd5b816020850160208301379081016020019190915292915050565b803561485c81615401565b803561485c81615416565b803563ffffffff8116811461485c57600080fd5b80356001600160601b038116811461485c57600080fd5b600060208284031215614955578081fd5b81356145dc816153de565b600060208284031215614971578081fd5b81516145dc816153de565b600080600060608486031215614990578182fd5b833561499b816153de565b925060208401356149ab816153de565b929592945050506040919091013590565b6000602082840312156149cd578081fd5b81516145dc816153f3565b6000806000606084860312156149ec578081fd5b83356149f7816153de565b92506020840135614a07816153de565b91506040840135614a17816153de565b809150509250925092565b60008060408385031215614a34578182fd5b8235614a3f816153de565b91506020830135614a4f816153de565b809150509250929050565b60008060008060808587031215614a6f578182fd5b8435614a7a816153de565b93506020850135614a8a816153de565b92506040850135614a9a81615401565b9150614aa860608601614919565b905092959194509250565b600080600080600060a08688031215614aca578283fd5b8535614ad5816153de565b94506020860135614ae5816153de565b93506040860135614af581615401565b9250614b0360608701614919565b949793965091946080013592915050565b60008060208385031215614b26578182fd5b82356001600160401b03811115614b3b578283fd5b614b478582860161486c565b90969095509350505050565b600060208284031215614b64578081fd5b81516001600160401b03811115614b79578182fd5b8201601f81018413614b89578182fd5b8051614b976148d0826151df565b818152856020838501011115614bab578384fd5b614bbc82602083016020860161532b565b95945050505050565b600080600080600080600060c0888a031215614bdf578485fd5b87356001600160401b0380821115614bf5578687fd5b614c018b838c016148b2565b985060208a0135915080821115614c16578687fd5b50614c238a828b0161486c565b9097509550506040880135614c3781615416565b93506060880135614c47816153de565b92506080880135614c57816153de565b915060a0880135614c67816153de565b8091505092959891949750929550565b6000806000806000806000806000806101408b8d031215614c96578384fd5b8a356001600160401b0380821115614cac578586fd5b614cb88e838f016148b2565b9b5060208d0135915080821115614ccd578586fd5b50614cda8d828e016148b2565b995050614ce960408c01614919565b9750614cf760608c01614903565b9650614d0560808c01614861565b9550614d1360a08c0161490e565b9450614d2160c08c01614919565b9350614d2f60e08c01614919565b9250614d3e6101008c0161492d565b9150614d4d6101208c01614851565b90509295989b9194979a5092959850565b600080600060608486031215614d72578081fd5b8351614d7d81615401565b6020850151909350614d8e81615401565b6040850151909250614a1781615401565b600060208284031215614db0578081fd5b81356145dc81615416565b600060208284031215614dcc578081fd5b81516145dc81615416565b600060208284031215614de8578081fd5b5035919050565b600060208284031215614e00578081fd5b5051919050565b60008060008060808587031215614e1c578182fd5b843593506020850135614e2e816153de565b9250614e3c60408601614919565b9396929550929360600135925050565b60008060408385031215614e5e578182fd5b50508035926020909101359150565b600060208284031215614e7e578081fd5b6145dc82614919565b60008151808452614e9f81602086016020860161532b565b601f01601f19169290920160200192915050565b60008251614ec581846020870161532b565b9190910192915050565b60008351614ee181846020880161532b565b600160fd1b9083019081528351614eff81600184016020880161532b565b01600101949350505050565b6001600160a01b0391909116815260200190565b6001600160a01b039290921682526001600160701b0316602082015260400190565b6001600160a01b03929092168252602082015260400190565b6020808252825182820181905260009190848201906040850190845b81811015614f9b5783516001600160a01b031683529284019291840191600101614f76565b50909695505050505050565b6001600160a01b039390931683526001600160701b0391909116602083015263ffffffff16604082015260600190565b6001600160a01b0393841681526020810192909252909116604082015260600190565b6001600160a01b0392831681529116602082015260400190565b6020815260006145dc6020830184614e87565b60408152600061503a6040830185614e87565b8281036020840152614bbc8185614e87565b6101808152600061506161018083018f614e87565b8281036020840152615073818f614e87565b604084018e905263ffffffff8d811660608601528c811660808601528b1660a085015261ffff8a1660c085015260e0840189905261010084018890526001600160701b03878116610120860152861661014085015291506150d19050565b63ffffffff83166101608301529d9c50505050505050505050505050565b81516001600160701b0316815260208083015161ffff169082015260408083015163ffffffff9081169183019190915260608084015182169083015260808084015182169083015260a080840151918216908301526101008201905060c083015161516560c08401826001600160701b03169052565b5060e083015161517b60e084018261ffff169052565b5092915050565b92835263ffffffff918216602084015216604082015260600190565b63ffffffff91909116815260200190565b604051601f8201601f191681016001600160401b03811182821017156151d7576151d76153c8565b604052919050565b60006001600160401b038211156151f8576151f86153c8565b50601f01601f191660200190565b60006001600160701b03828116848216808303821115615228576152286153b2565b01949350505050565b60008219821115615244576152446153b2565b500190565b600063ffffffff808316818516808303821115615228576152286153b2565b60008261528357634e487b7160e01b81526012600452602481fd5b500490565b60008160001904831182151516156152a2576152a26153b2565b500290565b60008160010b8360010b82811281617fff19018312811516156152cc576152cc6153b2565b81617fff0183138116156152e2576152e26153b2565b5090039392505050565b60006001600160701b038381169083168181101561530c5761530c6153b2565b039392505050565b600082821015615326576153266153b2565b500390565b60005b8381101561534657818101518382015260200161532e565b838111156140585750506000910152565b600181811c9082168061536b57607f821691505b6020821081141561538c57634e487b7160e01b600052602260045260246000fd5b50919050565b60008160010b617fff198114156153ab576153ab6153b2565b9003919050565b634e487b7160e01b600052601160045260246000fd5b634e487b7160e01b600052604160045260246000fd5b6001600160a01b03811681146132a257600080fd5b80151581146132a257600080fd5b6001600160701b03811681146132a257600080fd5b61ffff811681146132a257600080fdfe4f471908b72bb76dae5bd24599026e7bf3ddb256497722888ffa422f83729eded1248cccb5fef9131c731321e43e9a924840ffee7dc68c7d1d3e5cb7dedcae038be0079c531659141344cd1fd0a4f28419497f9722a3daafe3b4186f6b6457e09853650269815e203c5c9e228db9ca05cc6037f2c2723c94ed3260cf98324c99a2646970667358221220c073d9587ef7913a0a2d056ef3ef4341991a5e2abf4d9779ee78c3cfb3d7cc7764736f6c63430008040033",
  "linkReferences": {},
  "deployedLinkReferences": {}
}