{
  "_format": "hh-sol-artifact-1",
  "contractName": "Enterprise",
  "sourceName": "contracts/Enterprise.sol",
  "abi": [
    {
      "anonymous": false,
      "inputs": [
        {
          "indexed": false,
          "internalType": "string",
          "name": "baseUri",
          "type": "string"
        }
      ],
      "name": "BaseUriChanged",
      "type": "event"
    },
    {
      "anonymous": false,
      "inputs": [
        {
          "indexed": false,
          "internalType": "uint256",
          "name": "pole",
          "type": "uint256"
        },
        {
          "indexed": false,
          "internalType": "uint256",
          "name": "slope",
          "type": "uint256"
        }
      ],
      "name": "BondingChanged",
      "type": "event"
    },
    {
      "anonymous": false,
      "inputs": [
        {
          "indexed": true,
          "internalType": "address",
          "name": "powerToken",
          "type": "address"
        },
        {
          "indexed": true,
          "internalType": "uint256",
          "name": "borrowTokenId",
          "type": "uint256"
        }
      ],
      "name": "Borrowed",
      "type": "event"
    },
    {
      "anonymous": false,
      "inputs": [
        {
          "indexed": false,
          "internalType": "uint32",
          "name": "period",
          "type": "uint32"
        }
      ],
      "name": "BorrowerLoanReturnGracePeriodChanged",
      "type": "event"
    },
    {
      "anonymous": false,
      "inputs": [
        {
          "indexed": false,
          "internalType": "address",
          "name": "converter",
          "type": "address"
        }
      ],
      "name": "ConverterChanged",
      "type": "event"
    },
    {
      "anonymous": false,
      "inputs": [
        {
          "indexed": false,
          "internalType": "address",
          "name": "collector",
          "type": "address"
        }
      ],
      "name": "EnterpriseCollectorChanged",
      "type": "event"
    },
    {
      "anonymous": false,
      "inputs": [
        {
          "indexed": false,
          "internalType": "uint32",
          "name": "period",
          "type": "uint32"
        }
      ],
      "name": "EnterpriseLoanCollectGracePeriodChanged",
      "type": "event"
    },
    {
      "anonymous": false,
      "inputs": [],
      "name": "EnterpriseShutdown",
      "type": "event"
    },
    {
      "anonymous": false,
      "inputs": [
        {
          "indexed": false,
          "internalType": "address",
          "name": "vault",
          "type": "address"
        }
      ],
      "name": "EnterpriseVaultChanged",
      "type": "event"
    },
    {
      "anonymous": false,
      "inputs": [
        {
          "indexed": false,
          "internalType": "uint256",
          "name": "fixedReserve",
          "type": "uint256"
        }
      ],
      "name": "FixedReserveChanged",
      "type": "event"
    },
    {
      "anonymous": false,
      "inputs": [
        {
          "indexed": false,
          "internalType": "uint16",
          "name": "percent",
          "type": "uint16"
        }
      ],
      "name": "GcFeePercentChanged",
      "type": "event"
    },
    {
      "anonymous": false,
      "inputs": [
        {
          "indexed": false,
          "internalType": "uint32",
          "name": "period",
          "type": "uint32"
        }
      ],
      "name": "InterestGapHalvingPeriodChanged",
      "type": "event"
    },
    {
      "anonymous": false,
      "inputs": [
        {
          "indexed": true,
          "internalType": "uint256",
          "name": "interestTokenId",
          "type": "uint256"
        },
        {
          "indexed": true,
          "internalType": "enum Enterprise.LiquidityChangeType",
          "name": "changeType",
          "type": "uint8"
        },
        {
          "indexed": false,
          "internalType": "uint256",
          "name": "amount",
          "type": "uint256"
        }
      ],
      "name": "LiquidityChanged",
      "type": "event"
    },
    {
      "anonymous": false,
      "inputs": [
        {
          "indexed": true,
          "internalType": "uint256",
          "name": "borrowTokenId",
          "type": "uint256"
        }
      ],
      "name": "LoanReturned",
      "type": "event"
    },
    {
      "anonymous": false,
      "inputs": [
        {
          "indexed": true,
          "internalType": "address",
          "name": "previousOwner",
          "type": "address"
        },
        {
          "indexed": true,
          "internalType": "address",
          "name": "newOwner",
          "type": "address"
        }
      ],
      "name": "OwnershipTransferred",
      "type": "event"
    },
    {
      "anonymous": false,
      "inputs": [
        {
          "indexed": false,
          "internalType": "address",
          "name": "paymentToken",
          "type": "address"
        },
        {
          "indexed": false,
          "internalType": "bool",
          "name": "enabled",
          "type": "bool"
        }
      ],
      "name": "PaymentTokenChange",
      "type": "event"
    },
    {
      "anonymous": false,
      "inputs": [
        {
          "indexed": true,
          "internalType": "address",
          "name": "powerToken",
          "type": "address"
        }
      ],
      "name": "ServiceRegistered",
      "type": "event"
    },
    {
      "anonymous": false,
      "inputs": [
        {
          "indexed": false,
          "internalType": "uint112",
          "name": "streamingReserve",
          "type": "uint112"
        },
        {
          "indexed": false,
          "internalType": "uint112",
          "name": "streamingReserveTarget",
          "type": "uint112"
        }
      ],
      "name": "StreamingReserveChanged",
      "type": "event"
    },
    {
      "anonymous": false,
      "inputs": [
        {
          "indexed": false,
          "internalType": "uint256",
          "name": "totalShares",
          "type": "uint256"
        }
      ],
      "name": "TotalSharesChanged",
      "type": "event"
    },
    {
      "anonymous": false,
      "inputs": [
        {
          "indexed": false,
          "internalType": "uint256",
          "name": "fixedReserve",
          "type": "uint256"
        }
      ],
      "name": "UsedReserveChanged",
      "type": "event"
    },
    {
      "inputs": [
        {
          "internalType": "uint256",
          "name": "liquidityAmount",
          "type": "uint256"
        }
      ],
      "name": "addLiquidity",
      "outputs": [],
      "stateMutability": "nonpayable",
      "type": "function"
    },
    {
      "inputs": [
        {
          "internalType": "contract PowerToken",
          "name": "powerToken",
          "type": "address"
        },
        {
          "internalType": "contract IERC20",
          "name": "paymentToken",
          "type": "address"
        },
        {
          "internalType": "uint112",
          "name": "amount",
          "type": "uint112"
        },
        {
          "internalType": "uint32",
          "name": "duration",
          "type": "uint32"
        },
        {
          "internalType": "uint256",
          "name": "maxPayment",
          "type": "uint256"
        }
      ],
      "name": "borrow",
      "outputs": [],
      "stateMutability": "nonpayable",
      "type": "function"
    },
    {
      "inputs": [
        {
          "internalType": "uint256",
          "name": "interestTokenId",
          "type": "uint256"
        },
        {
          "internalType": "uint256",
          "name": "amount",
          "type": "uint256"
        }
      ],
      "name": "decreaseLiquidity",
      "outputs": [],
      "stateMutability": "nonpayable",
      "type": "function"
    },
    {
      "inputs": [
        {
          "internalType": "address",
          "name": "token",
          "type": "address"
        }
      ],
      "name": "disablePaymentToken",
      "outputs": [],
      "stateMutability": "nonpayable",
      "type": "function"
    },
    {
      "inputs": [
        {
          "internalType": "address",
          "name": "token",
          "type": "address"
        }
      ],
      "name": "enablePaymentToken",
      "outputs": [],
      "stateMutability": "nonpayable",
      "type": "function"
    },
    {
      "inputs": [
        {
          "internalType": "contract PowerToken",
          "name": "powerToken",
          "type": "address"
        },
        {
          "internalType": "contract IERC20",
          "name": "paymentToken",
          "type": "address"
        },
        {
          "internalType": "uint112",
          "name": "amount",
          "type": "uint112"
        },
        {
          "internalType": "uint32",
          "name": "duration",
          "type": "uint32"
        }
      ],
      "name": "estimateLoan",
      "outputs": [
        {
          "internalType": "uint256",
          "name": "",
          "type": "uint256"
        }
      ],
      "stateMutability": "view",
      "type": "function"
    },
    {
      "inputs": [
        {
          "internalType": "uint256",
          "name": "interestTokenId",
          "type": "uint256"
        }
      ],
      "name": "getAccruedInterest",
      "outputs": [
        {
          "internalType": "uint256",
          "name": "",
          "type": "uint256"
        }
      ],
      "stateMutability": "view",
      "type": "function"
    },
    {
      "inputs": [],
      "name": "getAvailableReserve",
      "outputs": [
        {
          "internalType": "uint256",
          "name": "",
          "type": "uint256"
        }
      ],
      "stateMutability": "view",
      "type": "function"
    },
    {
      "inputs": [],
      "name": "getBaseUri",
      "outputs": [
        {
          "internalType": "string",
          "name": "",
          "type": "string"
        }
      ],
      "stateMutability": "view",
      "type": "function"
    },
    {
      "inputs": [],
      "name": "getBondingCurve",
      "outputs": [
        {
          "internalType": "uint256",
          "name": "pole",
          "type": "uint256"
        },
        {
          "internalType": "uint256",
          "name": "slope",
          "type": "uint256"
        }
      ],
      "stateMutability": "view",
      "type": "function"
    },
    {
      "inputs": [],
      "name": "getBorrowToken",
      "outputs": [
        {
          "internalType": "contract IBorrowToken",
          "name": "",
          "type": "address"
        }
      ],
      "stateMutability": "view",
      "type": "function"
    },
    {
      "inputs": [],
      "name": "getBorrowerLoanReturnGracePeriod",
      "outputs": [
        {
          "internalType": "uint32",
          "name": "",
          "type": "uint32"
        }
      ],
      "stateMutability": "view",
      "type": "function"
    },
    {
      "inputs": [],
      "name": "getConverter",
      "outputs": [
        {
          "internalType": "contract IConverter",
          "name": "",
          "type": "address"
        }
      ],
      "stateMutability": "view",
      "type": "function"
    },
    {
      "inputs": [],
      "name": "getEnterpriseCollector",
      "outputs": [
        {
          "internalType": "address",
          "name": "",
          "type": "address"
        }
      ],
      "stateMutability": "view",
      "type": "function"
    },
    {
      "inputs": [],
      "name": "getEnterpriseLoanCollectGracePeriod",
      "outputs": [
        {
          "internalType": "uint32",
          "name": "",
          "type": "uint32"
        }
      ],
      "stateMutability": "view",
      "type": "function"
    },
    {
      "inputs": [],
      "name": "getEnterpriseVault",
      "outputs": [
        {
          "internalType": "address",
          "name": "",
          "type": "address"
        }
      ],
      "stateMutability": "view",
      "type": "function"
    },
    {
      "inputs": [],
      "name": "getGCFeePercent",
      "outputs": [
        {
          "internalType": "uint16",
          "name": "",
          "type": "uint16"
        }
      ],
      "stateMutability": "view",
      "type": "function"
    },
    {
      "inputs": [],
      "name": "getInfo",
      "outputs": [
        {
          "internalType": "string",
          "name": "name",
          "type": "string"
        },
        {
          "internalType": "string",
          "name": "baseUri",
          "type": "string"
        },
        {
          "internalType": "uint256",
          "name": "totalShares",
          "type": "uint256"
        },
        {
          "internalType": "uint32",
          "name": "interestGapHalvingPeriod",
          "type": "uint32"
        },
        {
          "internalType": "uint32",
          "name": "borrowerLoanReturnGracePeriod",
          "type": "uint32"
        },
        {
          "internalType": "uint32",
          "name": "enterpriseLoanCollectGracePeriod",
          "type": "uint32"
        },
        {
          "internalType": "uint16",
          "name": "gcFeePercent",
          "type": "uint16"
        },
        {
          "internalType": "uint256",
          "name": "fixedReserve",
          "type": "uint256"
        },
        {
          "internalType": "uint256",
          "name": "usedReserve",
          "type": "uint256"
        },
        {
          "internalType": "uint112",
          "name": "streamingReserve",
          "type": "uint112"
        },
        {
          "internalType": "uint112",
          "name": "streamingReserveTarget",
          "type": "uint112"
        },
        {
          "internalType": "uint32",
          "name": "streamingReserveUpdated",
          "type": "uint32"
        }
      ],
      "stateMutability": "view",
      "type": "function"
    },
    {
      "inputs": [],
      "name": "getInterestGapHalvingPeriod",
      "outputs": [
        {
          "internalType": "uint32",
          "name": "",
          "type": "uint32"
        }
      ],
      "stateMutability": "view",
      "type": "function"
    },
    {
      "inputs": [],
      "name": "getInterestToken",
      "outputs": [
        {
          "internalType": "contract IInterestToken",
          "name": "",
          "type": "address"
        }
      ],
      "stateMutability": "view",
      "type": "function"
    },
    {
      "inputs": [
        {
          "internalType": "uint256",
          "name": "interestTokenId",
          "type": "uint256"
        }
      ],
      "name": "getLiquidityInfo",
      "outputs": [
        {
          "components": [
            {
              "internalType": "uint256",
              "name": "amount",
              "type": "uint256"
            },
            {
              "internalType": "uint256",
              "name": "shares",
              "type": "uint256"
            },
            {
              "internalType": "uint256",
              "name": "block",
              "type": "uint256"
            }
          ],
          "internalType": "struct EnterpriseStorage.LiquidityInfo",
          "name": "",
          "type": "tuple"
        }
      ],
      "stateMutability": "view",
      "type": "function"
    },
    {
      "inputs": [],
      "name": "getLiquidityToken",
      "outputs": [
        {
          "internalType": "contract IERC20Metadata",
          "name": "",
          "type": "address"
        }
      ],
      "stateMutability": "view",
      "type": "function"
    },
    {
      "inputs": [
        {
          "internalType": "uint256",
          "name": "borrowTokenId",
          "type": "uint256"
        }
      ],
      "name": "getLoanInfo",
      "outputs": [
        {
          "components": [
            {
              "internalType": "uint112",
              "name": "amount",
              "type": "uint112"
            },
            {
              "internalType": "uint16",
              "name": "powerTokenIndex",
              "type": "uint16"
            },
            {
              "internalType": "uint32",
              "name": "borrowingTime",
              "type": "uint32"
            },
            {
              "internalType": "uint32",
              "name": "maturityTime",
              "type": "uint32"
            },
            {
              "internalType": "uint32",
              "name": "borrowerReturnGraceTime",
              "type": "uint32"
            },
            {
              "internalType": "uint32",
              "name": "enterpriseCollectGraceTime",
              "type": "uint32"
            },
            {
              "internalType": "uint112",
              "name": "gcFee",
              "type": "uint112"
            },
            {
              "internalType": "uint16",
              "name": "gcFeeTokenIndex",
              "type": "uint16"
            }
          ],
          "internalType": "struct EnterpriseStorage.LoanInfo",
          "name": "",
          "type": "tuple"
        }
      ],
      "stateMutability": "view",
      "type": "function"
    },
    {
      "inputs": [],
      "name": "getPowerTokens",
      "outputs": [
        {
          "internalType": "contract PowerToken[]",
          "name": "",
          "type": "address[]"
        }
      ],
      "stateMutability": "view",
      "type": "function"
    },
    {
      "inputs": [],
      "name": "getProxyAdmin",
      "outputs": [
        {
          "internalType": "contract ProxyAdmin",
          "name": "",
          "type": "address"
        }
      ],
      "stateMutability": "view",
      "type": "function"
    },
    {
      "inputs": [],
      "name": "getReserve",
      "outputs": [
        {
          "internalType": "uint256",
          "name": "",
          "type": "uint256"
        }
      ],
      "stateMutability": "view",
      "type": "function"
    },
    {
      "inputs": [],
      "name": "getUsedReserve",
      "outputs": [
        {
          "internalType": "uint256",
          "name": "",
          "type": "uint256"
        }
      ],
      "stateMutability": "view",
      "type": "function"
    },
    {
      "inputs": [
        {
          "internalType": "uint256",
          "name": "interestTokenId",
          "type": "uint256"
        },
        {
          "internalType": "uint256",
          "name": "amount",
          "type": "uint256"
        }
      ],
      "name": "increaseLiquidity",
      "outputs": [],
      "stateMutability": "nonpayable",
      "type": "function"
    },
    {
      "inputs": [
        {
          "internalType": "string",
          "name": "enterpriseName",
          "type": "string"
        },
        {
          "internalType": "string",
          "name": "baseUri",
          "type": "string"
        },
        {
          "internalType": "uint16",
          "name": "gcFeePercent",
          "type": "uint16"
        },
        {
          "internalType": "contract IConverter",
          "name": "converter",
          "type": "address"
        },
        {
          "internalType": "contract ProxyAdmin",
          "name": "proxyAdmin",
          "type": "address"
        },
        {
          "internalType": "address",
          "name": "owner",
          "type": "address"
        }
      ],
      "name": "initialize",
      "outputs": [],
      "stateMutability": "nonpayable",
      "type": "function"
    },
    {
      "inputs": [
        {
          "internalType": "address",
          "name": "initialOwner",
          "type": "address"
        }
      ],
      "name": "initialize",
      "outputs": [],
      "stateMutability": "nonpayable",
      "type": "function"
    },
    {
      "inputs": [
        {
          "internalType": "contract IERC20Metadata",
          "name": "liquidityToken",
          "type": "address"
        },
        {
          "internalType": "contract IInterestToken",
          "name": "interestToken",
          "type": "address"
        },
        {
          "internalType": "contract IBorrowToken",
          "name": "borrowToken",
          "type": "address"
        }
      ],
      "name": "initializeTokens",
      "outputs": [],
      "stateMutability": "nonpayable",
      "type": "function"
    },
    {
      "inputs": [
        {
          "internalType": "contract PowerToken",
          "name": "powerToken",
          "type": "address"
        }
      ],
      "name": "isRegisteredPowerToken",
      "outputs": [
        {
          "internalType": "bool",
          "name": "",
          "type": "bool"
        }
      ],
      "stateMutability": "view",
      "type": "function"
    },
    {
      "inputs": [
        {
          "internalType": "contract IERC20",
          "name": "token",
          "type": "address"
        }
      ],
      "name": "isSupportedPaymentToken",
      "outputs": [
        {
          "internalType": "bool",
          "name": "",
          "type": "bool"
        }
      ],
      "stateMutability": "view",
      "type": "function"
    },
    {
      "inputs": [
        {
          "internalType": "address",
          "name": "from",
          "type": "address"
        },
        {
          "internalType": "address",
          "name": "to",
          "type": "address"
        },
        {
          "internalType": "uint256",
          "name": "borrowTokenId",
          "type": "uint256"
        }
      ],
      "name": "loanTransfer",
      "outputs": [],
      "stateMutability": "nonpayable",
      "type": "function"
    },
    {
      "inputs": [],
      "name": "owner",
      "outputs": [
        {
          "internalType": "address",
          "name": "",
          "type": "address"
        }
      ],
      "stateMutability": "view",
      "type": "function"
    },
    {
      "inputs": [
        {
          "internalType": "uint256",
          "name": "index",
          "type": "uint256"
        }
      ],
      "name": "paymentToken",
      "outputs": [
        {
          "internalType": "address",
          "name": "",
          "type": "address"
        }
      ],
      "stateMutability": "view",
      "type": "function"
    },
    {
      "inputs": [
        {
          "internalType": "contract IERC20",
          "name": "token",
          "type": "address"
        }
      ],
      "name": "paymentTokenIndex",
      "outputs": [
        {
          "internalType": "int16",
          "name": "",
          "type": "int16"
        }
      ],
      "stateMutability": "view",
      "type": "function"
    },
    {
      "inputs": [
        {
          "internalType": "uint256",
          "name": "borrowTokenId",
          "type": "uint256"
        },
        {
          "internalType": "contract IERC20",
          "name": "paymentToken",
          "type": "address"
        },
        {
          "internalType": "uint32",
          "name": "duration",
          "type": "uint32"
        },
        {
          "internalType": "uint256",
          "name": "maxPayment",
          "type": "uint256"
        }
      ],
      "name": "reborrow",
      "outputs": [],
      "stateMutability": "nonpayable",
      "type": "function"
    },
    {
      "inputs": [
        {
          "internalType": "string",
          "name": "serviceName",
          "type": "string"
        },
        {
          "internalType": "string",
          "name": "symbol",
          "type": "string"
        },
        {
          "internalType": "uint32",
          "name": "gapHalvingPeriod",
          "type": "uint32"
        },
        {
          "internalType": "uint112",
          "name": "baseRate",
          "type": "uint112"
        },
        {
          "internalType": "contract IERC20Metadata",
          "name": "baseToken",
          "type": "address"
        },
        {
          "internalType": "uint16",
          "name": "serviceFeePercent",
          "type": "uint16"
        },
        {
          "internalType": "uint32",
          "name": "minLoanDuration",
          "type": "uint32"
        },
        {
          "internalType": "uint32",
          "name": "maxLoanDuration",
          "type": "uint32"
        },
        {
          "internalType": "uint96",
          "name": "minGCFee",
          "type": "uint96"
        },
        {
          "internalType": "bool",
          "name": "allowsPerpetualTokensForever",
          "type": "bool"
        }
      ],
      "name": "registerService",
      "outputs": [],
      "stateMutability": "nonpayable",
      "type": "function"
    },
    {
      "inputs": [
        {
          "internalType": "uint256",
          "name": "interestTokenId",
          "type": "uint256"
        }
      ],
      "name": "removeLiquidity",
      "outputs": [],
      "stateMutability": "nonpayable",
      "type": "function"
    },
    {
      "inputs": [
        {
          "internalType": "uint256",
          "name": "borrowTokenId",
          "type": "uint256"
        }
      ],
      "name": "returnLoan",
      "outputs": [],
      "stateMutability": "nonpayable",
      "type": "function"
    },
    {
      "inputs": [
        {
          "internalType": "string",
          "name": "baseUri",
          "type": "string"
        }
      ],
      "name": "setBaseUri",
      "outputs": [],
      "stateMutability": "nonpayable",
      "type": "function"
    },
    {
      "inputs": [
        {
          "internalType": "uint256",
          "name": "pole",
          "type": "uint256"
        },
        {
          "internalType": "uint256",
          "name": "slope",
          "type": "uint256"
        }
      ],
      "name": "setBondingCurve",
      "outputs": [],
      "stateMutability": "nonpayable",
      "type": "function"
    },
    {
      "inputs": [
        {
          "internalType": "uint32",
          "name": "newPeriod",
          "type": "uint32"
        }
      ],
      "name": "setBorrowerLoanReturnGracePeriod",
      "outputs": [],
      "stateMutability": "nonpayable",
      "type": "function"
    },
    {
      "inputs": [
        {
          "internalType": "contract IConverter",
          "name": "newConverter",
          "type": "address"
        }
      ],
      "name": "setConverter",
      "outputs": [],
      "stateMutability": "nonpayable",
      "type": "function"
    },
    {
      "inputs": [
        {
          "internalType": "address",
          "name": "newCollector",
          "type": "address"
        }
      ],
      "name": "setEnterpriseCollector",
      "outputs": [],
      "stateMutability": "nonpayable",
      "type": "function"
    },
    {
      "inputs": [
        {
          "internalType": "uint32",
          "name": "newPeriod",
          "type": "uint32"
        }
      ],
      "name": "setEnterpriseLoanCollectGracePeriod",
      "outputs": [],
      "stateMutability": "nonpayable",
      "type": "function"
    },
    {
      "inputs": [
        {
          "internalType": "address",
          "name": "newVault",
          "type": "address"
        }
      ],
      "name": "setEnterpriseVault",
      "outputs": [],
      "stateMutability": "nonpayable",
      "type": "function"
    },
    {
      "inputs": [
        {
          "internalType": "uint16",
          "name": "newGcFeePercent",
          "type": "uint16"
        }
      ],
      "name": "setGcFeePercent",
      "outputs": [],
      "stateMutability": "nonpayable",
      "type": "function"
    },
    {
      "inputs": [
        {
          "internalType": "uint32",
          "name": "interestGapHalvingPeriod",
          "type": "uint32"
        }
      ],
      "name": "setInterestGapHalvingPeriod",
      "outputs": [],
      "stateMutability": "nonpayable",
      "type": "function"
    },
    {
      "inputs": [],
      "name": "shutdownEnterpriseForever",
      "outputs": [],
      "stateMutability": "nonpayable",
      "type": "function"
    },
    {
      "inputs": [
        {
          "internalType": "address",
          "name": "newOwner",
          "type": "address"
        }
      ],
      "name": "transferOwnership",
      "outputs": [],
      "stateMutability": "nonpayable",
      "type": "function"
    },
    {
      "inputs": [
        {
          "internalType": "address",
          "name": "implementation",
          "type": "address"
        }
      ],
      "name": "upgradeBorrowToken",
      "outputs": [],
      "stateMutability": "nonpayable",
      "type": "function"
    },
    {
      "inputs": [
        {
          "internalType": "address",
          "name": "implementation",
          "type": "address"
        }
      ],
      "name": "upgradeEnterprise",
      "outputs": [],
      "stateMutability": "nonpayable",
      "type": "function"
    },
    {
      "inputs": [
        {
          "internalType": "address",
          "name": "implementation",
          "type": "address"
        }
      ],
      "name": "upgradeInterestToken",
      "outputs": [],
      "stateMutability": "nonpayable",
      "type": "function"
    },
    {
      "inputs": [
        {
          "internalType": "contract PowerToken",
          "name": "powerToken",
          "type": "address"
        },
        {
          "internalType": "address",
          "name": "implementation",
          "type": "address"
        }
      ],
      "name": "upgradePowerToken",
      "outputs": [],
      "stateMutability": "nonpayable",
      "type": "function"
    },
    {
      "inputs": [
        {
          "internalType": "uint256",
          "name": "interestTokenId",
          "type": "uint256"
        }
      ],
      "name": "withdrawInterest",
      "outputs": [],
      "stateMutability": "nonpayable",
      "type": "function"
    }
  ],
  "bytecode": "0x608060405234801561001057600080fd5b50615c9c80620000216000396000f3fe608060405234801561001057600080fd5b50600436106102925760003560e01c8062ca339b146102975780630714012c146102ac57806308669aab146102d55780630cac36b2146102e85780630e101b60146102fd5780630ea1dc9e1461031d5780632261b07f1461032e578063229304dc1461033f5780632b2f6095146103605780632e365ade146103735780632fb2067f146103865780633513e0dc146103a9578063449497ec146103bc5780634741efb3146103cf57806349bd4e89146103d7578063512a53bc146103ea57806351c6590a146103fd57806359bf5d39146104105780635a4598df146104185780635a9b0b891461043657806362c1f38814610456578063644e44df146104695780636815f3371461047a578063696f9c811461048d5780637791c42d146104a05780637b024363146104b15780638188d50d146104c457806389035b61146104d95780638b3240a0146105055780638c0114b01461050d5780638da5cb5b1461052057806390f55edd146105285780639339ea691461053b5780639ab711931461054e5780639c7aa7f8146105615780639c8f9f2314610574578063a0bcfc7f14610587578063a0efd1181461059a578063a554b26d146105af578063aebb5041146105c0578063b19337a4146105c8578063b406bf6d146105db578063b56de97e146105fc578063b96266fa1461060f578063bfd84fb414610624578063c1fc16d814610637578063c22947841461064a578063c4d66de81461065d578063c93d0b9214610670578063df57f2fa14610681578063e1a5fa49146106b6578063e9126154146106c9578063ef1f9f39146106dc578063f2fde38b146106ef578063faac38ef14610702578063fbac9a551461071d578063fcb2884e14610743575b600080fd5b6102aa6102a5366004615035565b61074b565b005b6102bf6102ba366004615359565b6110c9565b6040516102cc91906156f9565b60405180910390f35b6102aa6102e3366004615359565b61121e565b6102f06113c2565b6040516102cc919061560e565b61031061030b366004615359565b611454565b6040516102cc91906154bb565b6001546001600160a01b0316610310565b6004546001600160a01b0316610310565b61035261034d366004614fdc565b611492565b6040519081526020016102cc565b6102aa61036e366004614ec6565b6115bb565b6102aa6103813660046153ef565b611677565b610399610394366004614ec6565b611759565b60405190151581526020016102cc565b6102aa6103b73660046153ce565b61177c565b6102aa6103ca366004615321565b611889565b6102aa611913565b6102aa6103e53660046153ce565b611a0d565b6102aa6103f8366004614efe565b611c37565b6102aa61040b366004615359565b611ebe565b61035261203c565b600354600160a01b900463ffffffff165b6040516102cc919061579e565b61043e612061565b6040516102cc9c9b9a99989796959493929190615621565b6102aa610464366004614ec6565b612224565b6000546001600160a01b0316610310565b6102aa610488366004615147565b6122ea565b6102aa61049b3660046153ce565b612615565b6006546001600160a01b0316610310565b6102aa6104bf366004614ec6565b6127b5565b600654600160a01b900463ffffffff16610429565b6103996104e7366004614ec6565b6001600160a01b031660009081526013602052604090205460ff1690565b61031061283c565b6102aa61051b366004615389565b61285d565b610310612f00565b6102aa610536366004614ec6565b612f16565b610352610549366004615359565b612fdc565b6102aa61055c3660046151f9565b613021565b6102aa61056f366004614ec6565b6134dc565b6102aa610582366004615359565b613622565b6102aa610595366004615096565b61385d565b600654600160c01b900463ffffffff16610429565b6005546001600160a01b0316610310565b6103526138d5565b6102aa6105d6366004614ec6565b6138ec565b600654600160e01b900461ffff1660405161ffff90911681526020016102cc565b6102aa61060a3660046153ef565b6139b2565b610617613a88565b6040516102cc9190615525565b6102aa610632366004614ec6565b613ae9565b6102aa610645366004614ec6565b613b7f565b6102aa610658366004614fa4565b613c00565b6102aa61066b366004614ec6565b613d0d565b6002546001600160a01b0316610310565b61069461068f366004615359565b613de2565b60408051825181526020808401519082015291810151908201526060016102cc565b6102aa6106c43660046153ef565b613ebc565b6102aa6106d7366004615359565b613f82565b6102aa6106ea366004614f5a565b614240565b6102aa6106fd366004614ec6565b6142cf565b600e54600d54604080519283526020830191909152016102cc565b61073061072b366004614ec6565b6143c0565b60405160019190910b81526020016102cc565b600a54610352565b600354604080518082019091526002815261373560f01b602082015290600160c01b900460ff16156107995760405162461bcd60e51b8152600401610790919061560e565b60405180910390fd5b506001600160a01b03851660009081526013602090815260409182902054825180840190935260018352601b60f91b9183019190915260ff166107ef5760405162461bcd60e51b8152600401610790919061560e565b506107f984611759565b604051806040016040528060028152602001610d0d60f21b815250906108325760405162461bcd60e51b8152600401610790919061560e565b50604051636e4d898360e01b81526001600160a01b03861690636e4d89839061085f90859060040161579e565b60206040518083038186803b15801561087757600080fd5b505afa15801561088b573d6000803e3d6000fd5b505050506040513d601f19601f820116820180604052508101906108af9190614f3e565b60405180604001604052806002815260200161343560f01b815250906108e85760405162461bcd60e51b8152600401610790919061560e565b506040805180820190915260028152611b9b60f11b60208201526001600160701b0384166109295760405162461bcd60e51b8152600401610790919061560e565b506109326138d5565b836001600160701b03161115604051806040016040528060028152602001611a1b60f11b815250906109775760405162461bcd60e51b8152600401610790919061560e565b50600080600080886001600160a01b0316639d5513d78989896040518463ffffffff1660e01b81526004016109ae93929190615572565b60606040518083038186803b1580156109c657600080fd5b505afa1580156109da573d6000803e3d6000fd5b505050506040513d601f19601f820116820180604052508101906109fe91906152e0565b955090935091508390506000610a148385615806565b6001600160701b0316905085856001600160701b031682610a359190615831565b111560405180604001604052806002815260200161343760f01b81525090610a705760405162461bcd60e51b8152600401610790919061560e565b50610a866001600160a01b038a163330846143ed565b60008190508a6001600160a01b03166398acd7a66040518163ffffffff1660e01b815260040160206040518083038186803b158015610ac457600080fd5b505afa158015610ad8573d6000803e3d6000fd5b505050506040513d601f19601f82011682018060405250810190610afc9190614ee2565b6001600160a01b03168a6001600160a01b031614610c46576004805460405163095ea7b360e01b81526001600160a01b03808e169363095ea7b393610b469392169187910161550c565b602060405180830381600087803b158015610b6057600080fd5b505af1158015610b74573d6000803e3d6000fd5b505050506040513d601f19601f82011682018060405250810190610b989190614f3e565b50600460009054906101000a90046001600160a01b03166001600160a01b031663029b465d8b8460008054906101000a90046001600160a01b03166040518463ffffffff1660e01b8152600401610bf1939291906155a2565b602060405180830381600087803b158015610c0b57600080fd5b505af1158015610c1f573d6000803e3d6000fd5b505050506040513d601f19601f82011682018060405250810190610c439190615371565b90505b600082610c5c836001600160701b038816615888565b610c669190615868565b600654600054919250610c86916001600160a01b0390811691168361445e565b896001600160701b0316600a6000828254610ca19190615831565b9091555060009050610cb38284615914565b9050610cbe8161447d565b5050600254610ceb95506001600160a01b038b81169550339450169150506001600160701b0385166143ed565b426000610cf88583615849565b90506000600260009054906101000a90046001600160a01b03166001600160a01b031663caa0f92a6040518163ffffffff1660e01b8152600401602060405180830381600087803b158015610d4c57600080fd5b505af1158015610d60573d6000803e3d6000fd5b505050506040513d601f19601f82011682018060405250810190610d849190615371565b9050604051806101000160405280886001600160701b031681526020018a6001600160a01b03166381045ead6040518163ffffffff1660e01b815260040160206040518083038186803b158015610dda57600080fd5b505afa158015610dee573d6000803e3d6000fd5b505050506040513d601f19601f82011682018060405250810190610e12919061533d565b61ffff16815263ffffffff80861660208301528481166040830152600654606090920191610e4991600160a01b9091041685615849565b63ffffffff168152602001600660189054906101000a900463ffffffff1684610e729190615849565b63ffffffff168152602001856001600160701b03168152602001610e958a6143c0565b61ffff9081169091526000838152601160209081526040918290208451815492860151868501516060880151608089015160a08a01516001600160701b039586166001600160801b031998891617600160701b958b16860217600160801b600160c01b031916600160801b63ffffffff9586160263ffffffff60a01b191617600160a01b93851693909302929092176001600160c01b0316600160c01b918416919091026001600160e01b031617600160e01b929091169190910217835560c08701516001909301805460e0909801519390921696909316959095179316029190911790915560025490516335313c2160e11b815282916001600160a01b031690636a62784290610faa9033906004016154bb565b602060405180830381600087803b158015610fc457600080fd5b505af1158015610fd8573d6000803e3d6000fd5b505050506040513d601f19601f82011682018060405250810190610ffc9190615371565b1461101757634e487b7160e01b600052600160045260246000fd5b60405163f8642f2960e01b8152600481018290526001600160a01b038a169063f8642f2990602401600060405180830381600087803b15801561105957600080fd5b505af115801561106d573d6000803e3d6000fd5b50506040518392506001600160a01b038c169150600080516020615a4783398151915290600090a3600080516020615c27833981519152600a546040516110b691815260200190565b60405180910390a1505050505050505050565b6040805161010081018252600080825260208201819052818301819052606082018190526080820181905260a0820181905260c0820181905260e082015260025491516331a9108f60e11b81526004810184905290916001600160a01b031690636352211e9060240160206040518083038186803b15801561114a57600080fd5b505afa15801561115e573d6000803e3d6000fd5b505050506040513d601f19601f820116820180604052508101906111829190614ee2565b505060009081526011602090815260409182902082516101008101845281546001600160701b038082168352600160701b80830461ffff90811696850196909652600160801b830463ffffffff90811697850197909752600160a01b830487166060850152600160c01b830487166080850152600160e01b90920490951660a083015260019092015493841660c082015292041660e082015290565b6001546040516331a9108f60e11b815260048101839052829133916001600160a01b0390911690636352211e9060240160206040518083038186803b15801561126657600080fd5b505afa15801561127a573d6000803e3d6000fd5b505050506040513d601f19601f8201168201806040525081019061129e9190614ee2565b6001600160a01b031614604051806040016040528060018152602001603360f81b815250906112e05760405162461bcd60e51b8152600401610790919061560e565b506000828152601260205260408120600181015490916112ff85612fdc565b90506113096138d5565b811115604051806040016040528060028152602001611a1b60f11b815250906113455760405162461bcd60e51b8152600401610790919061560e565b5060005461135d906001600160a01b0316338361445e565b600061136c846000015461452f565b6001850181905590506113876113828285615914565b614551565b6113908261459b565b600086600080516020615a87833981519152846040516113b291815260200190565b60405180910390a3505050505050565b6060601080546113d190615957565b80601f01602080910402602001604051908101604052809291908181526020018280546113fd90615957565b801561144a5780601f1061141f5761010080835404028352916020019161144a565b820191906000526020600020905b81548152906001019060200180831161142d57829003601f168201915b5050505050905090565b60006008828154811061147757634e487b7160e01b600052603260045260246000fd5b6000918252602090912001546001600160a01b031692915050565b600354604080518082019091526002815261373560f01b6020820152600091600160c01b900460ff16156114d95760405162461bcd60e51b8152600401610790919061560e565b506001600160a01b03851660009081526013602090815260409182902054825180840190935260018352601b60f91b9183019190915260ff1661152f5760405162461bcd60e51b8152600401610790919061560e565b50604051631466370160e01b81526001600160a01b0386169063146637019061156090879087908790600401615572565b60206040518083038186803b15801561157857600080fd5b505afa15801561158c573d6000803e3d6000fd5b505050506040513d601f19601f820116820180604052508101906115b09190615371565b90505b949350505050565b336115c4612f00565b6001600160a01b031614604051806040016040528060018152602001603360f81b815250906116065760405162461bcd60e51b8152600401610790919061560e565b5061160f61283c565b60015460405163266a23b160e21b81526001600160a01b03928316926399a88ec4926116429291169085906004016155c5565b600060405180830381600087803b15801561165c57600080fd5b505af1158015611670573d6000803e3d6000fd5b5050505050565b33611680612f00565b6001600160a01b031614604051806040016040528060018152602001603360f81b815250906116c25760405162461bcd60e51b8152600401610790919061560e565b506006546040805180820190915260028152610d8d60f21b60208201529063ffffffff600160c01b909104811690831611156117115760405162461bcd60e51b8152600401610790919061560e565b506006805463ffffffff60a01b1916600160a01b63ffffffff841602179055604051600080516020615bc78339815191529061174e90839061579e565b60405180910390a150565b6001600160a01b0316600090815260076020526040812054600190810b900b1390565b33611785612f00565b6001600160a01b031614604051806040016040528060018152602001603360f81b815250906117c75760405162461bcd60e51b8152600401610790919061560e565b506117d7600a600360401b615868565b82111560405180604001604052806002815260200161373760f01b815250906118135760405162461bcd60e51b8152600401610790919061560e565b5060408051808201909152600281526106e760f31b6020820152600160401b8211156118525760405162461bcd60e51b8152600401610790919061560e565b50600e829055600d8190556040805183815260208101839052600080516020615ac783398151915291015b60405180910390a15050565b33611892612f00565b6001600160a01b031614604051806040016040528060018152602001603360f81b815250906118d45760405162461bcd60e51b8152600401610790919061560e565b506006805461ffff60e01b1916600160e01b61ffff841690810291909117909155604051908152600080516020615b078339815191529060200161174e565b600354604080518082019091526002815261373560f01b602082015290600160c01b900460ff16156119585760405162461bcd60e51b8152600401610790919061560e565b5033611962612f00565b6001600160a01b031614604051806040016040528060018152602001603360f81b815250906119a45760405162461bcd60e51b8152600401610790919061560e565b5060038054600160c01b60ff60c01b199091161790556000600a819055600b8054600160701b81046001600160701b03166001600160701b03199091161790556040517f6f6348718c9a361558c634b516777b2b06bb2bf4140ad3d3bfaa44270fc2c0729190a1565b6001546040516331a9108f60e11b815260048101849052839133916001600160a01b0390911690636352211e9060240160206040518083038186803b158015611a5557600080fd5b505afa158015611a69573d6000803e3d6000fd5b505050506040513d601f19601f82011682018060405250810190611a8d9190614ee2565b6001600160a01b031614604051806040016040528060018152602001603360f81b81525090611acf5760405162461bcd60e51b8152600401610790919061560e565b5060006012600085815260200190815260200160002090504381600201541060405180604001604052806002815260200161035360f41b81525090611b275760405162461bcd60e51b8152600401610790919061560e565b5080546040805180820190915260028152611a1b60f11b602082015290841115611b645760405162461bcd60e51b8152600401610790919061560e565b50611b6d6138d5565b831115604051806040016040528060028152602001611a1b60f11b81525090611ba95760405162461bcd60e51b8152600401610790919061560e565b50600054611bc1906001600160a01b0316338561445e565b6000611bcc8461452f565b90508160010154811115611be1575060018101545b600182018054829003905581548490038255611bfc81614551565b611c058461459b565b60045b85600080516020615a8783398151915286604051611c2891815260200190565b60405180910390a35050505050565b600280546040805180820190915291825261333960f01b60208301526001600160a01b03163314611c7b5760405162461bcd60e51b8152600401610790919061560e565b506000818152601160209081526040918290205482518084019093526002835261068760f31b918301919091526001600160701b03169081611cd05760405162461bcd60e51b8152600401610790919061560e565b5060008281526011602052604081205460148054600160a01b830463ffffffff164211936001600160a01b03898116159490891615939192600160701b90910461ffff16908110611d3157634e487b7160e01b600052603260045260246000fd5b6000918252602090912001546001600160a01b031690508115611db35760405163079cc67960e41b81526001600160a01b038216906379cc679090611d7c908b9089906004016154ea565b600060405180830381600087803b158015611d9657600080fd5b505af1158015611daa573d6000803e3d6000fd5b50505050611eb4565b8215611de7576040516340c10f1960e01b81526001600160a01b038216906340c10f1990611d7c908a9089906004016154ea565b83611e84576040516333bebb7760e01b81526001600160a01b03898116600483015288811660248301526001600160701b03871660448301528216906333bebb7790606401602060405180830381600087803b158015611e4657600080fd5b505af1158015611e5a573d6000803e3d6000fd5b505050506040513d601f19601f82011682018060405250810190611e7e9190614f3e565b50611eb4565b60408051808201825260028152611a9960f11b6020820152905162461bcd60e51b8152610790919060040161560e565b5050505050505050565b600354604080518082019091526002815261373560f01b602082015290600160c01b900460ff1615611f035760405162461bcd60e51b8152600401610790919061560e565b50600054611f1c906001600160a01b03163330846143ed565b6000600c54600014611f3657611f318261452f565b611f38565b815b9050611f4382614606565b6001546040516335313c2160e11b81526000916001600160a01b031690636a62784290611f749033906004016154bb565b602060405180830381600087803b158015611f8e57600080fd5b505af1158015611fa2573d6000803e3d6000fd5b505050506040513d601f19601f82011682018060405250810190611fc69190615371565b604080516060810182528581526020808201868152438385019081526000868152601290935293909120915182555160018201559051600290910155905061200d8261463e565b600181600080516020615a878339815191528560405161202f91815260200190565b60405180910390a3505050565b6000612046614650565b6001600160701b031660095461205c9190615831565b905090565b600c54600354600654600954600a54600b54600f805460609788976000978897889788978897889788978897889788979496601096939563ffffffff600160a01b94859004811696948404811695600160c01b850482169561ffff600160e01b9687900416959394936001600160701b0380841694600160701b8504909116939190910416908c906120f290615957565b80601f016020809104026020016040519081016040528092919081815260200182805461211e90615957565b801561216b5780601f106121405761010080835404028352916020019161216b565b820191906000526020600020905b81548152906001019060200180831161214e57829003601f168201915b50505050509b508a805461217e90615957565b80601f01602080910402602001604051908101604052809291908181526020018280546121aa90615957565b80156121f75780601f106121cc576101008083540402835291602001916121f7565b820191906000526020600020905b8154815290600101906020018083116121da57829003601f168201915b50505050509a509b509b509b509b509b509b509b509b509b509b509b509b50909192939495969798999a9b565b3361222d612f00565b6001600160a01b031614604051806040016040528060018152602001603360f81b8152509061226f5760405162461bcd60e51b8152600401610790919061560e565b50604080518082019091526002815261363160f01b60208201526001600160a01b0382166122b05760405162461bcd60e51b8152600401610790919061560e565b50600580546001600160a01b0319166001600160a01b038316179055604051600080516020615ba78339815191529061174e9083906154bb565b600f80546122f790615957565b6040805180820190915260018152601960f91b602082015291501561232f5760405162461bcd60e51b8152600401610790919061560e565b5061233981613d0d565b81600080516020615ae783398151915280546001600160a01b03929092166001600160a01b03199283161790556003805490911633179055865161238490600f9060208a0190614cc6565b5061239160108787614d4a565b5060068054600480546001600160a01b03199081166001600160a01b03888116919091179092556005805492861692909116821790556003805463ffffffff60a01b191660e160a61b179055600165ffff0000000160c01b0319909116600160e01b61ffff8816026001600160c01b03191617176102a360a61b1763ffffffff60c01b19166102a360c71b17905561242e6064600560401b615868565b600e55612440600a600360401b615868565b600d55604051600080516020615a278339815191529061246390889088906155df565b60405180910390a1600654604051600160e01b90910461ffff168152600080516020615b078339815191529060200160405180910390a1600454604051600080516020615b47833981519152916124c5916001600160a01b03909116906154bb565b60405180910390a1600654604051600080516020615b27833981519152916124f8916001600160a01b03909116906154bb565b60405180910390a1600554604051600080516020615ba78339815191529161252b916001600160a01b03909116906154bb565b60405180910390a1600080516020615c07833981519152600360149054906101000a900463ffffffff16604051612562919061579e565b60405180910390a1600080516020615bc7833981519152600660149054906101000a900463ffffffff16604051612599919061579e565b60405180910390a1600080516020615aa7833981519152600660189054906101000a900463ffffffff166040516125d0919061579e565b60405180910390a1600080516020615ac7833981519152600e54600d54604051612604929190918252602082015260400190565b60405180910390a150505050505050565b600354604080518082019091526002815261373560f01b602082015290600160c01b900460ff161561265a5760405162461bcd60e51b8152600401610790919061560e565b506001546040516331a9108f60e11b815260048101849052839133916001600160a01b0390911690636352211e9060240160206040518083038186803b1580156126a357600080fd5b505afa1580156126b7573d6000803e3d6000fd5b505050506040513d601f19601f820116820180604052508101906126db9190614ee2565b6001600160a01b031614604051806040016040528060018152602001603360f81b8152509061271d5760405162461bcd60e51b8152600401610790919061560e565b50600054612736906001600160a01b03163330856143ed565b6000600c546000146127505761274b8361452f565b612752565b825b905061275d83614606565b600084815260126020526040812080549091859183919061277f908490615831565b925050819055508181600101600082825461279a9190615831565b90915550504360028201556127ae8261463e565b6003611c08565b336127be612f00565b6001600160a01b031614604051806040016040528060018152602001603360f81b815250906128005760405162461bcd60e51b8152600401610790919061560e565b5061280961283c565b60025460405163266a23b160e21b81526001600160a01b03928316926399a88ec4926116429291169085906004016155c5565b6000600080516020615ae78339815191525b546001600160a01b0316919050565b600354604080518082019091526002815261373560f01b602082015290600160c01b900460ff16156128a25760405162461bcd60e51b8152600401610790919061560e565b506128ac83611759565b604051806040016040528060028152602001610d0d60f21b815250906128e55760405162461bcd60e51b8152600401610790919061560e565b50600084815260116020908152604091829020805483518085019094526002845261068760f31b9284019290925291906001600160701b031661293b5760405162461bcd60e51b8152600401610790919061560e565b50805460148054600092600160701b900461ffff1690811061296d57634e487b7160e01b600052603260045260246000fd5b600091825260209091200154604051636e4d898360e01b81526001600160a01b0390911691508190636e4d8983906129a990879060040161579e565b60206040518083038186803b1580156129c157600080fd5b505afa1580156129d5573d6000803e3d6000fd5b505050506040513d601f19601f820116820180604052508101906129f99190614f3e565b60405180604001604052806002815260200161343560f01b81525090612a325760405162461bcd60e51b8152600401610790919061560e565b5081544290612a4f908690600160a01b900463ffffffff16615849565b63ffffffff16101560405180604001604052806002815260200161343960f01b81525090612a905760405162461bcd60e51b8152600401610790919061560e565b508154600a80546001600160701b0390921691600090612ab1908490615914565b90915550508154604051639d5513d760e01b815260009182916001600160a01b03851691639d5513d791612af7918b916001600160701b03909116908b90600401615572565b60606040518083038186803b158015612b0f57600080fd5b505afa158015612b23573d6000803e3d6000fd5b505050506040513d601f19601f82011682018060405250810190612b4791906152e0565b508554600a80546001600160701b03909216909101905590925090506000612b6f8284615806565b6001600160701b031690508581111560405180604001604052806002815260200161343760f01b81525090612bb75760405162461bcd60e51b8152600401610790919061560e565b50612bcd6001600160a01b0389163330846143ed565b6000819050846001600160a01b03166398acd7a66040518163ffffffff1660e01b815260040160206040518083038186803b158015612c0b57600080fd5b505afa158015612c1f573d6000803e3d6000fd5b505050506040513d601f19601f82011682018060405250810190612c439190614ee2565b6001600160a01b0316896001600160a01b031614612d6e576004805460405163095ea7b360e01b81526001600160a01b03808d169363095ea7b393612c8d9392169187910161550c565b602060405180830381600087803b158015612ca757600080fd5b505af1158015612cbb573d6000803e3d6000fd5b505050506040513d601f19601f82011682018060405250810190612cdf9190614f3e565b506004805460005460405163029b465d60e01b81526001600160a01b039283169363029b465d93612d19938f9389939190921691016155a2565b602060405180830381600087803b158015612d3357600080fd5b505af1158015612d47573d6000803e3d6000fd5b505050506040513d601f19601f82011682018060405250810190612d6b9190615371565b90505b600082612d84836001600160701b038716615888565b612d8e9190615868565b600654600054919250612dae916001600160a01b0390811691168361445e565b6000612dba8284615914565b9050612dc58161447d565b8754612ddf908b90600160a01b900463ffffffff16615849565b885463ffffffff60a01b1916600160a01b63ffffffff928316810291909117808b55600654612e18939083900481169290910416615849565b885463ffffffff60c01b1916600160c01b63ffffffff928316810291909117808b55600654612e5593929004821691600160a01b90910416615849565b885463ffffffff91909116600160e01b026001600160e01b0390911617885560405163f8642f2960e01b8152600481018d90526001600160a01b0388169063f8642f2990602401600060405180830381600087803b158015612eb657600080fd5b505af1158015612eca573d6000803e3d6000fd5b50506040518e92506001600160a01b038a169150600080516020615a4783398151915290600090a3505050505050505050505050565b6000600080516020615a6783398151915261284e565b33612f1f612f00565b6001600160a01b031614604051806040016040528060018152602001603360f81b81525090612f615760405162461bcd60e51b8152600401610790919061560e565b506040805180820190915260028152611b1960f11b60208201526001600160a01b038216612fa25760405162461bcd60e51b8152600401610790919061560e565b50600680546001600160a01b0319166001600160a01b038316179055604051600080516020615b278339815191529061174e9083906154bb565b600081815260126020526040812060018101548290612ffa906146b8565b82549091508111156130175781546130129082615914565b6115b3565b6000949350505050565b3361302a612f00565b6001600160a01b031614604051806040016040528060018152602001603360f81b8152509061306c5760405162461bcd60e51b8152600401610790919061560e565b50600354604080518082019091526002815261373560f01b602082015290600160c01b900460ff16156130b25760405162461bcd60e51b8152600401610790919061560e565b50604080518082019091526002815261034360f41b60208201526001600160a01b0387166130f35760405162461bcd60e51b8152600401610790919061560e565b50601454604080518082019091526002815261343160f01b60208201529061ffff116131325760405162461bcd60e51b8152600401610790919061560e565b506003546000906001600160a01b031663c31011cc61314f61283c565b6040518263ffffffff1660e01b815260040161316b91906154bb565b602060405180830381600087803b15801561318557600080fd5b505af1158015613199573d6000803e3d6000fd5b505050506040513d601f19601f820116820180604052508101906131bd9190614ee2565b905060008060009054906101000a90046001600160a01b03166001600160a01b03166395d89b416040518163ffffffff1660e01b815260040160006040518083038186803b15801561320e57600080fd5b505afa158015613222573d6000803e3d6000fd5b505050506040513d6000823e601f3d908101601f1916820160405261324a91908101906150d5565b90506000818c60405160200161326192919061547f565b6040516020818303038152906040529050826001600160a01b0316631624f6c68e8360008054906101000a90046001600160a01b03166001600160a01b031663313ce5676040518163ffffffff1660e01b815260040160206040518083038186803b1580156132cf57600080fd5b505afa1580156132e3573d6000803e3d6000fd5b505050506040513d601f19601f820116820180604052508101906133079190615409565b6040518463ffffffff1660e01b8152600401613325939291906156c0565b600060405180830381600087803b15801561333f57600080fd5b505af1158015613353573d6000803e3d6000fd5b505050505050806001600160a01b0316632ef0cf8b308a868d6014805490508d8c8c8f8c6040518b63ffffffff1660e01b81526004016134119a999897969594939291906001600160a01b039a8b1681526001600160701b039990991660208a01526001600160601b0397909716604089015263ffffffff958616606089015261ffff94851660808901529290971660a0870152831660c08601529490911660e0840152929092166101008201529015156101208201526101400190565b600060405180830381600087803b15801561342b57600080fd5b505af115801561343f573d6000803e3d6000fd5b50506014805460018082019092557fce6d7b5282bd9a3661ae061feed1dbda4e52ab073b1f9285be6e155d9c38d4ec0180546001600160a01b0319166001600160a01b038616908117909155600081815260136020526040808220805460ff191690941790935591519093507f2fa31fbaacf5eaf61d648ea7528ada6efb69bfb06d2c3bd35ce511a820fce53e9250a25050505050505050505050565b336134e5612f00565b6001600160a01b031614604051806040016040528060018152602001603360f81b815250906135275760405162461bcd60e51b8152600401610790919061560e565b506001600160a01b03811660009081526007602090815260409182902054825180840190935260028352611b9960f11b91830191909152600190810b900b6135825760405162461bcd60e51b8152600401610790919061560e565b506001600160a01b038116600090815260076020526040812054600190810b900b131561361f576001600160a01b0381166000908152600760205260409020546135ce9060010b615992565b6001600160a01b038216600090815260076020526040808220805460019490940b61ffff1661ffff19909416939093179092559051600080516020615be78339815191529161174e918491906154cf565b50565b6001546040516331a9108f60e11b815260048101839052829133916001600160a01b0390911690636352211e9060240160206040518083038186803b15801561366a57600080fd5b505afa15801561367e573d6000803e3d6000fd5b505050506040513d601f19601f820116820180604052508101906136a29190614ee2565b6001600160a01b031614604051806040016040528060018152602001603360f81b815250906136e45760405162461bcd60e51b8152600401610790919061560e565b5060006012600084815260200190815260200160002090504381600201541060405180604001604052806002815260200161035360f41b8152509061373c5760405162461bcd60e51b8152600401610790919061560e565b506001810154600061374d826146b8565b90506137576138d5565b811115604051806040016040528060028152602001611a1b60f11b815250906137935760405162461bcd60e51b8152600401610790919061560e565b50600154604051630852cd8d60e31b8152600481018790526001600160a01b03909116906342966c6890602401600060405180830381600087803b1580156137da57600080fd5b505af11580156137ee573d6000803e3d6000fd5b505060005461380a92506001600160a01b03169050338361445e565b61381382614551565b61381c8161459b565b60008581526012602052604081208181556001810182905560029081019190915585600080516020615a8783398151915283604051611c2891815260200190565b33613866612f00565b6001600160a01b031614604051806040016040528060018152602001603360f81b815250906138a85760405162461bcd60e51b8152600401610790919061560e565b506138b560108383614d4a565b50600080516020615a27833981519152828260405161187d9291906155df565b6000600a546138e261203c565b61205c9190615914565b336138f5612f00565b6001600160a01b031614604051806040016040528060018152602001603360f81b815250906139375760405162461bcd60e51b8152600401610790919061560e565b50604080518082019091526002815261363360f01b60208201526001600160a01b0382166139785760405162461bcd60e51b8152600401610790919061560e565b50600480546001600160a01b0319166001600160a01b038316179055604051600080516020615b478339815191529061174e9083906154bb565b336139bb612f00565b6001600160a01b031614604051806040016040528060018152602001603360f81b815250906139fd5760405162461bcd60e51b8152600401610790919061560e565b50600654604080518082019091526002815261363560f01b60208201529063ffffffff808416600160a01b909204161115613a4b5760405162461bcd60e51b8152600401610790919061560e565b506006805463ffffffff60c01b1916600160c01b63ffffffff841602179055604051600080516020615aa78339815191529061174e90839061579e565b6060601480548060200260200160405190810160405280929190818152602001828054801561144a57602002820191906000526020600020905b81546001600160a01b03168152600190910190602001808311613ac2575050505050905090565b33613af2612f00565b6001600160a01b031614604051806040016040528060018152602001603360f81b81525090613b345760405162461bcd60e51b8152600401610790919061560e565b50604080518082019091526002815261373160f01b60208201526001600160a01b038216613b755760405162461bcd60e51b8152600401610790919061560e565b5061361f816146d0565b33613b88612f00565b6001600160a01b031614604051806040016040528060018152602001603360f81b81525090613bca5760405162461bcd60e51b8152600401610790919061560e565b50613bd361283c565b6001600160a01b03166399a88ec430836040518363ffffffff1660e01b81526004016116429291906155c5565b33613c09612f00565b6001600160a01b031614604051806040016040528060018152602001603360f81b81525090613c4b5760405162461bcd60e51b8152600401610790919061560e565b506001600160a01b03821660009081526013602090815260409182902054825180840190935260018352601b60f91b9183019190915260ff16613ca15760405162461bcd60e51b8152600401610790919061560e565b50613caa61283c565b6001600160a01b03166399a88ec483836040518363ffffffff1660e01b8152600401613cd79291906155c5565b600060405180830381600087803b158015613cf157600080fd5b505af1158015613d05573d6000803e3d6000fd5b505050505050565b6000613d17612f00565b6001600160a01b031614604051806040016040528060018152602001601960f91b81525090613d595760405162461bcd60e51b8152600401610790919061560e565b50604080518082019091526002815261373360f01b60208201526001600160a01b038216613d9a5760405162461bcd60e51b8152600401610790919061560e565b50600080516020615a6783398151915280546001600160a01b0319166001600160a01b038316908117909155604051600090600080516020615b87833981519152908290a350565b613e0660405180606001604052806000815260200160008152602001600081525090565b6001546040516331a9108f60e11b8152600481018490526001600160a01b0390911690636352211e9060240160206040518083038186803b158015613e4a57600080fd5b505afa158015613e5e573d6000803e3d6000fd5b505050506040513d601f19601f82011682018060405250810190613e829190614ee2565b5050600090815260126020908152604091829020825160608101845281548152600182015492810192909252600201549181019190915290565b33613ec5612f00565b6001600160a01b031614604051806040016040528060018152602001603360f81b81525090613f075760405162461bcd60e51b8152600401610790919061560e565b506040805180820190915260028152611b1b60f11b602082015263ffffffff8216613f455760405162461bcd60e51b8152600401610790919061560e565b506003805463ffffffff60a01b1916600160a01b63ffffffff841602179055604051600080516020615c078339815191529061174e90839061579e565b600081815260116020908152604091829020805483518085019094526002845261068760f31b9284019290925291906001600160701b0316613fd75760405162461bcd60e51b8152600401610790919061560e565b506002546040516331a9108f60e11b8152600481018490526000916001600160a01b031690636352211e9060240160206040518083038186803b15801561401d57600080fd5b505afa158015614031573d6000803e3d6000fd5b505050506040513d601f19601f820116820180604052508101906140559190614ee2565b8254909150429063ffffffff808316600160c01b9092041610806140815750336001600160a01b038316145b60405180604001604052806002815260200161353360f01b815250906140ba5760405162461bcd60e51b8152600401610790919061560e565b50825463ffffffff808316600160e01b9092041610806140e25750336001600160a01b038316145b806140f757506005546001600160a01b031633145b604051806040016040528060028152602001610d4d60f21b815250906141305760405162461bcd60e51b8152600401610790919061560e565b50600354600160c01b900460ff1661418c578254600a80546001600160701b0390921691600090614162908490615914565b9091555050600a54604051908152600080516020615c278339815191529060200160405180910390a15b600254604051633f34d4cf60e21b8152600481018690523360248201526001600160a01b039091169063fcd3533c90604401600060405180830381600087803b1580156141d857600080fd5b505af11580156141ec573d6000803e3d6000fd5b50505060008581526011602052604080822082815560010180546001600160801b0319169055518692507f80fadef8be1cf6508244c1bbb67077973d214a1462d3ade2908699c3750cd94b9190a250505050565b6000546040805180820190915260018152601960f91b6020820152906001600160a01b0316156142835760405162461bcd60e51b8152600401610790919061560e565b50600080546001600160a01b038086166001600160a01b0319928316179092556001805485841690831617905560028054928416929091169190911790556142ca836146d0565b505050565b336142d8612f00565b6001600160a01b031614604051806040016040528060018152602001603360f81b8152509061431a5760405162461bcd60e51b8152600401610790919061560e565b50604080518082019091526002815261373360f01b60208201526001600160a01b03821661435b5760405162461bcd60e51b8152600401610790919061560e565b50806001600160a01b031661436e612f00565b6001600160a01b0316600080516020615b8783398151915260405160405180910390a3600080516020615a6783398151915280546001600160a01b0319166001600160a01b0392909216919091179055565b6001600160a01b0381166000908152600760205260408120546143e790600190810b6158a7565b92915050565b6040516001600160a01b03808516602483015283166044820152606481018290526144589085906323b872dd60e01b906084015b60408051601f198184030181529190526020810180516001600160e01b03166001600160e01b03199093169290921790915261481b565b50505050565b6142ca8363a9059cbb60e01b848460405160240161442192919061550c565b614485614650565b600b80546001600160701b0319166001600160701b03928316178082558392600e916144ba918591600160701b900416615806565b82546001600160701b039182166101009390930a928302928202191691909117909155600b805463ffffffff4216600160e01b026001600160e01b038216811792839055604051600080516020615b67833981519152955061174e949182169282169290921792600160701b90041690615784565b600061453961203c565b82600c546145479190615888565b6143e79190615868565b80600c60008282546145639190615914565b9091555050600c546040519081527ff75b433a747ade2e089a9382669e86292bab6b6218af81254ef18440992bb2649060200161174e565b80600954106145b2576009805482900390556145e5565b60006145bc6148ed565b6001600160701b0316905081816009546145d69190615831565b6145e09190615914565b600955505b600080516020615c4783398151915260095460405161174e91815260200190565b80600960008282546146189190615831565b9091555050600954604051908152600080516020615c478339815191529060200161174e565b80600c60008282546145639190615831565b600b5460009061469b9063ffffffff600160e01b82041690614685906001600160701b0380821691600160701b9004166158ec565b600354600160a01b900463ffffffff16426149ab565b600b5461205c9190600160701b90046001600160701b03166158ec565b6000600c54826146c661203c565b6145479190615888565b6001600160a01b038116600090815260076020526040902054600190810b900b6147865760088054600181810183557ff3f7a9fe364faab93b216da50a3214154f22a0a2b415b23a84c8169e8b636ee390910180546001600160a01b0385166001600160a01b03199091168117909155915460009283526007602052604092839020805491830b61ffff1661ffff199092169190911790559051600080516020615be78339815191529161174e918491906154cf565b6001600160a01b038116600090815260076020526040812054600190810b900b121561361f576001600160a01b0381166000908152600760205260409020546147d19060010b615992565b6001600160a01b03821660009081526007602052604090819020805461ffff191661ffff600194850b1617905551600080516020615be78339815191529161174e918491906154cf565b6000614870826040518060400160405280602081526020017f5361666545524332303a206c6f772d6c6576656c2063616c6c206661696c6564815250856001600160a01b0316614b4c9092919063ffffffff16565b8051909150156142ca578080602001905181019061488e9190614f3e565b6142ca5760405162461bcd60e51b815260206004820152602a60248201527f5361666545524332303a204552433230206f7065726174696f6e20646964206e6044820152691bdd081cdd58d8d9595960b21b6064820152608401610790565b60006148f7614650565b600b80546001600160701b0319168082559192508291600e9061492b908490600160701b90046001600160701b03166158ec565b82546001600160701b039182166101009390930a928302928202191691909117909155600b805463ffffffff4216600160e01b026001600160e01b038216811792839055604051600080516020615b6783398151915295506149a0949182169282169290921792600160701b90041690615784565b60405180910390a190565b60008463ffffffff168263ffffffff161015604051806040016040528060018152602001600760fb1b815250906149f55760405162461bcd60e51b8152600401610790919061560e565b5084820391508263ffffffff168263ffffffff1681614a2457634e487b7160e01b600052601260045260246000fd5b0463ffffffff16846001600160701b0316901c93508263ffffffff168263ffffffff1681614a6257634e487b7160e01b600052601260045260246000fd5b06915063ffffffff82161580614a7f57506001600160701b038416155b15614a8b5750826115b3565b60006001600160701b0385168163ffffffff86811690861671b17217f7d1cf79abc9e3b39803f2f6af40f30281614ad257634e487b7160e01b600052601260045260246000fd5b049050600160901b5b8215614b3f57928201928082840281614b0457634e487b7160e01b600052601260045260246000fd5b0493849003939250600160901b018082840281614b3157634e487b7160e01b600052601260045260246000fd5b049250600160901b01614adb565b5091979650505050505050565b6060614b5b8484600085614b65565b90505b9392505050565b606082471015614bc65760405162461bcd60e51b815260206004820152602660248201527f416464726573733a20696e73756666696369656e742062616c616e636520666f6044820152651c8818d85b1b60d21b6064820152608401610790565b843b614c145760405162461bcd60e51b815260206004820152601d60248201527f416464726573733a2063616c6c20746f206e6f6e2d636f6e74726163740000006044820152606401610790565b600080866001600160a01b03168587604051614c309190615463565b60006040518083038185875af1925050503d8060008114614c6d576040519150601f19603f3d011682016040523d82523d6000602084013e614c72565b606091505b5091509150614c82828286614c8d565b979650505050505050565b60608315614c9c575081614b5e565b825115614cac5782518084602001fd5b8160405162461bcd60e51b8152600401610790919061560e565b828054614cd290615957565b90600052602060002090601f016020900481019282614cf45760008555614d3a565b82601f10614d0d57805160ff1916838001178555614d3a565b82800160010185558215614d3a579182015b82811115614d3a578251825591602001919060010190614d1f565b50614d46929150614dbe565b5090565b828054614d5690615957565b90600052602060002090601f016020900481019282614d785760008555614d3a565b82601f10614d915782800160ff19823516178555614d3a565b82800160010185558215614d3a579182015b82811115614d3a578235825591602001919060010190614da3565b5b80821115614d465760008155600101614dbf565b8035614dde816159f3565b919050565b8035614dde816159de565b60008083601f840112614dff578182fd5b5081356001600160401b03811115614e15578182fd5b602083019150836020828501011115614e2d57600080fd5b9250929050565b600082601f830112614e44578081fd5b8135614e57614e52826157df565b6157af565b818152846020838601011115614e6b578283fd5b816020850160208301379081016020019190915292915050565b8035614dde81615a01565b8035614dde81615a16565b803563ffffffff81168114614dde57600080fd5b80356001600160601b0381168114614dde57600080fd5b600060208284031215614ed7578081fd5b8135614b5e816159de565b600060208284031215614ef3578081fd5b8151614b5e816159de565b600080600060608486031215614f12578182fd5b8335614f1d816159de565b92506020840135614f2d816159de565b929592945050506040919091013590565b600060208284031215614f4f578081fd5b8151614b5e816159f3565b600080600060608486031215614f6e578081fd5b8335614f79816159de565b92506020840135614f89816159de565b91506040840135614f99816159de565b809150509250925092565b60008060408385031215614fb6578182fd5b8235614fc1816159de565b91506020830135614fd1816159de565b809150509250929050565b60008060008060808587031215614ff1578182fd5b8435614ffc816159de565b9350602085013561500c816159de565b9250604085013561501c81615a01565b915061502a60608601614e9b565b905092959194509250565b600080600080600060a0868803121561504c578283fd5b8535615057816159de565b94506020860135615067816159de565b9350604086013561507781615a01565b925061508560608701614e9b565b949793965091946080013592915050565b600080602083850312156150a8578182fd5b82356001600160401b038111156150bd578283fd5b6150c985828601614dee565b90969095509350505050565b6000602082840312156150e6578081fd5b81516001600160401b038111156150fb578182fd5b8201601f8101841361510b578182fd5b8051615119614e52826157df565b81815285602083850101111561512d578384fd5b61513e82602083016020860161592b565b95945050505050565b600080600080600080600060c0888a031215615161578485fd5b87356001600160401b0380821115615177578687fd5b6151838b838c01614e34565b985060208a0135915080821115615198578687fd5b506151a58a828b01614dee565b90975095505060408801356151b981615a16565b935060608801356151c9816159de565b925060808801356151d9816159de565b915060a08801356151e9816159de565b8091505092959891949750929550565b6000806000806000806000806000806101408b8d031215615218578384fd5b8a356001600160401b038082111561522e578586fd5b61523a8e838f01614e34565b9b5060208d013591508082111561524f578586fd5b5061525c8d828e01614e34565b99505061526b60408c01614e9b565b975061527960608c01614e85565b965061528760808c01614de3565b955061529560a08c01614e90565b94506152a360c08c01614e9b565b93506152b160e08c01614e9b565b92506152c06101008c01614eaf565b91506152cf6101208c01614dd3565b90509295989b9194979a5092959850565b6000806000606084860312156152f4578081fd5b83516152ff81615a01565b602085015190935061531081615a01565b6040850151909250614f9981615a01565b600060208284031215615332578081fd5b8135614b5e81615a16565b60006020828403121561534e578081fd5b8151614b5e81615a16565b60006020828403121561536a578081fd5b5035919050565b600060208284031215615382578081fd5b5051919050565b6000806000806080858703121561539e578182fd5b8435935060208501356153b0816159de565b92506153be60408601614e9b565b9396929550929360600135925050565b600080604083850312156153e0578182fd5b50508035926020909101359150565b600060208284031215615400578081fd5b614b5e82614e9b565b60006020828403121561541a578081fd5b815160ff81168114614b5e578182fd5b6000815180845261544281602086016020860161592b565b601f01601f19169290920160200192915050565b6001600160701b03169052565b6000825161547581846020870161592b565b9190910192915050565b6000835161549181846020880161592b565b600160fd1b90830190815283516154af81600184016020880161592b565b01600101949350505050565b6001600160a01b0391909116815260200190565b6001600160a01b039290921682521515602082015260400190565b6001600160a01b039290921682526001600160701b0316602082015260400190565b6001600160a01b03929092168252602082015260400190565b6020808252825182820181905260009190848201906040850190845b818110156155665783516001600160a01b031683529284019291840191600101615541565b50909695505050505050565b6001600160a01b039390931683526001600160701b0391909116602083015263ffffffff16604082015260600190565b6001600160a01b0393841681526020810192909252909116604082015260600190565b6001600160a01b0392831681529116602082015260400190565b60208152816020820152818360408301376000818301604090810191909152601f909201601f19160101919050565b602081526000614b5e602083018461542a565b6101808152600061563661018083018f61542a565b8281036020840152615648818f61542a565b9150508b604083015263ffffffff808c166060840152808b166080840152808a1660a08401525061ffff881660c08301528660e083015285610100830152615694610120830186615456565b6156a2610140830185615456565b63ffffffff83166101608301529d9c50505050505050505050505050565b6060815260006156d3606083018661542a565b82810360208401526156e5818661542a565b91505060ff83166040830152949350505050565b81516001600160701b0316815260208083015161ffff169082015260408083015163ffffffff9081169183019190915260608084015182169083015260808084015182169083015260a080840151918216908301526101008201905060c083015161576760c0840182615456565b5060e083015161577d60e084018261ffff169052565b5092915050565b6001600160701b0392831681529116602082015260400190565b63ffffffff91909116815260200190565b604051601f8201601f191681016001600160401b03811182821017156157d7576157d76159c8565b604052919050565b60006001600160401b038211156157f8576157f86159c8565b50601f01601f191660200190565b60006001600160701b03828116848216808303821115615828576158286159b2565b01949350505050565b60008219821115615844576158446159b2565b500190565b600063ffffffff808316818516808303821115615828576158286159b2565b60008261588357634e487b7160e01b81526012600452602481fd5b500490565b60008160001904831182151516156158a2576158a26159b2565b500290565b60008160010b8360010b82811281617fff19018312811516156158cc576158cc6159b2565b81617fff0183138116156158e2576158e26159b2565b5090039392505050565b60006001600160701b038381169083168181101561590c5761590c6159b2565b039392505050565b600082821015615926576159266159b2565b500390565b60005b8381101561594657818101518382015260200161592e565b838111156144585750506000910152565b600181811c9082168061596b57607f821691505b6020821081141561598c57634e487b7160e01b600052602260045260246000fd5b50919050565b60008160010b617fff198114156159ab576159ab6159b2565b9003919050565b634e487b7160e01b600052601160045260246000fd5b634e487b7160e01b600052604160045260246000fd5b6001600160a01b038116811461361f57600080fd5b801515811461361f57600080fd5b6001600160701b038116811461361f57600080fd5b61ffff8116811461361f57600080fdfe87cdeaffd8e70903d6ce7cc983fac3b09ca79e83818124c98e47a1d70f8027d6ac59582e5396aca512fa873a2047e7f4c80f8f55d4a06cb34a78a0187f62719f4f471908b72bb76dae5bd24599026e7bf3ddb256497722888ffa422f83729ede5fbe47a2294bb165359bd422c05af7405a9f2c0e0f397deef39ade4da37b27647c5a703a1928f0d18042c0454d90ddfe036b518c756a39cd82aca939b71d801b926b69b9f7735227079a308fce165b111b96e2983e70a86a381ee047675ff39fd1248cccb5fef9131c731321e43e9a924840ffee7dc68c7d1d3e5cb7dedcae0327894f6b9c469a3eddbe98dd0df54563b6437b20982876e0c2cd60c211a156460dc14fdd751203f0c4dac8cc93c303e991c5f8e60af35674d5c82061929762ddbefcd50991bb64333037879282220d78a901bb4809351643f56628af8a4656dfc8dfab451067f726e1077626e126c7f77149630cc1b0056cf60307a289a118298be0079c531659141344cd1fd0a4f28419497f9722a3daafe3b4186f6b6457e07aa9698a01d2094fb8a580e2c72a6fc3f3bfecfd4cbdc457461118c59a6fefe4f6ae16e9e9771497fc501d1caac6168e19c36e4639d7273813e3b57066035f2a92a4dc1fa715a8cafb0cdc060f729eb1dfdddcbc9effbdc8d822cdf5ebcf4907971f32e7fcf39ef3d42dd88b6e08b31dd4bd8f53e7299c95b669c82e23807e2f80a06b510f93a5f9143990fd9bd6b2020b17681a30b6420dac3d79b20ce73585a70de76be90dc9c5d9243b0bc73c3d963ba703a0a396f29134bf5b4e6197c180a264697066735822122061ec56acaf29f9f2625d4f894e788ec1d0799cb1189a853f3f78948fc43bf53c64736f6c63430008040033",
  "linkReferences": {},
  "deployedLinkReferences": {}
}