{
  "_format": "hh-sol-artifact-1",
  "contractName": "Enterprise",
  "sourceName": "contracts/Enterprise.sol",
  "abi": [
    {
      "anonymous": false,
      "inputs": [
        {
          "indexed": true,
          "internalType": "address",
          "name": "powerToken",
          "type": "address"
        },
        {
          "indexed": false,
          "internalType": "uint256",
          "name": "tokenId",
          "type": "uint256"
        },
        {
          "indexed": false,
          "internalType": "uint32",
          "name": "from",
          "type": "uint32"
        },
        {
          "indexed": false,
          "internalType": "uint32",
          "name": "to",
          "type": "uint32"
        }
      ],
      "name": "Borrowed",
      "type": "event"
    },
    {
      "anonymous": false,
      "inputs": [
        {
          "indexed": true,
          "internalType": "address",
          "name": "previousOwner",
          "type": "address"
        },
        {
          "indexed": true,
          "internalType": "address",
          "name": "newOwner",
          "type": "address"
        }
      ],
      "name": "OwnershipTransferred",
      "type": "event"
    },
    {
      "anonymous": false,
      "inputs": [
        {
          "indexed": true,
          "internalType": "address",
          "name": "powerToken",
          "type": "address"
        },
        {
          "indexed": false,
          "internalType": "uint32",
          "name": "halfLife",
          "type": "uint32"
        },
        {
          "indexed": false,
          "internalType": "uint112",
          "name": "factor",
          "type": "uint112"
        }
      ],
      "name": "ServiceRegistered",
      "type": "event"
    },
    {
      "inputs": [
        {
          "internalType": "uint256",
          "name": "liquidityAmount",
          "type": "uint256"
        }
      ],
      "name": "addLiquidity",
      "outputs": [],
      "stateMutability": "nonpayable",
      "type": "function"
    },
    {
      "inputs": [
        {
          "internalType": "contract PowerToken",
          "name": "powerToken",
          "type": "address"
        },
        {
          "internalType": "contract IERC20",
          "name": "paymentToken",
          "type": "address"
        },
        {
          "internalType": "uint112",
          "name": "amount",
          "type": "uint112"
        },
        {
          "internalType": "uint32",
          "name": "duration",
          "type": "uint32"
        },
        {
          "internalType": "uint256",
          "name": "maxPayment",
          "type": "uint256"
        }
      ],
      "name": "borrow",
      "outputs": [],
      "stateMutability": "nonpayable",
      "type": "function"
    },
    {
      "inputs": [
        {
          "internalType": "uint256",
          "name": "tokenId",
          "type": "uint256"
        },
        {
          "internalType": "uint256",
          "name": "amount",
          "type": "uint256"
        }
      ],
      "name": "decreaseLiquidity",
      "outputs": [],
      "stateMutability": "nonpayable",
      "type": "function"
    },
    {
      "inputs": [
        {
          "internalType": "address",
          "name": "token",
          "type": "address"
        }
      ],
      "name": "disablePaymentToken",
      "outputs": [],
      "stateMutability": "nonpayable",
      "type": "function"
    },
    {
      "inputs": [
        {
          "internalType": "address",
          "name": "token",
          "type": "address"
        }
      ],
      "name": "enablePaymentToken",
      "outputs": [],
      "stateMutability": "nonpayable",
      "type": "function"
    },
    {
      "inputs": [
        {
          "internalType": "contract PowerToken",
          "name": "powerToken",
          "type": "address"
        },
        {
          "internalType": "contract IERC20",
          "name": "paymentToken",
          "type": "address"
        },
        {
          "internalType": "uint112",
          "name": "amount",
          "type": "uint112"
        },
        {
          "internalType": "uint32",
          "name": "duration",
          "type": "uint32"
        }
      ],
      "name": "estimateLoan",
      "outputs": [
        {
          "internalType": "uint256",
          "name": "",
          "type": "uint256"
        }
      ],
      "stateMutability": "view",
      "type": "function"
    },
    {
      "inputs": [],
      "name": "getAvailableReserve",
      "outputs": [
        {
          "internalType": "uint256",
          "name": "",
          "type": "uint256"
        }
      ],
      "stateMutability": "view",
      "type": "function"
    },
    {
      "inputs": [],
      "name": "getBaseUri",
      "outputs": [
        {
          "internalType": "string",
          "name": "",
          "type": "string"
        }
      ],
      "stateMutability": "view",
      "type": "function"
    },
    {
      "inputs": [],
      "name": "getBondingLambda",
      "outputs": [
        {
          "internalType": "uint256",
          "name": "",
          "type": "uint256"
        }
      ],
      "stateMutability": "view",
      "type": "function"
    },
    {
      "inputs": [],
      "name": "getBorrowToken",
      "outputs": [
        {
          "internalType": "contract IBorrowToken",
          "name": "",
          "type": "address"
        }
      ],
      "stateMutability": "view",
      "type": "function"
    },
    {
      "inputs": [],
      "name": "getBorrowerLoanReturnGracePeriod",
      "outputs": [
        {
          "internalType": "uint32",
          "name": "",
          "type": "uint32"
        }
      ],
      "stateMutability": "view",
      "type": "function"
    },
    {
      "inputs": [],
      "name": "getConverter",
      "outputs": [
        {
          "internalType": "contract IConverter",
          "name": "",
          "type": "address"
        }
      ],
      "stateMutability": "view",
      "type": "function"
    },
    {
      "inputs": [],
      "name": "getEnterpriseCollector",
      "outputs": [
        {
          "internalType": "address",
          "name": "",
          "type": "address"
        }
      ],
      "stateMutability": "view",
      "type": "function"
    },
    {
      "inputs": [],
      "name": "getEnterpriseLoanCollectGracePeriod",
      "outputs": [
        {
          "internalType": "uint32",
          "name": "",
          "type": "uint32"
        }
      ],
      "stateMutability": "view",
      "type": "function"
    },
    {
      "inputs": [],
      "name": "getEnterpriseVault",
      "outputs": [
        {
          "internalType": "address",
          "name": "",
          "type": "address"
        }
      ],
      "stateMutability": "view",
      "type": "function"
    },
    {
      "inputs": [],
      "name": "getGCFeePercent",
      "outputs": [
        {
          "internalType": "uint16",
          "name": "",
          "type": "uint16"
        }
      ],
      "stateMutability": "view",
      "type": "function"
    },
    {
      "inputs": [],
      "name": "getInfo",
      "outputs": [
        {
          "internalType": "string",
          "name": "name",
          "type": "string"
        },
        {
          "internalType": "string",
          "name": "baseUri",
          "type": "string"
        },
        {
          "internalType": "uint256",
          "name": "totalShares",
          "type": "uint256"
        },
        {
          "internalType": "uint32",
          "name": "interestHalfLife",
          "type": "uint32"
        },
        {
          "internalType": "uint32",
          "name": "borrowerLoanReturnGracePeriod",
          "type": "uint32"
        },
        {
          "internalType": "uint32",
          "name": "enterpriseLoanCollectGracePeriod",
          "type": "uint32"
        },
        {
          "internalType": "uint16",
          "name": "gcFeePercent",
          "type": "uint16"
        },
        {
          "internalType": "uint256",
          "name": "fixedReserve",
          "type": "uint256"
        },
        {
          "internalType": "uint256",
          "name": "usedReserve",
          "type": "uint256"
        },
        {
          "internalType": "uint112",
          "name": "streamingReserve",
          "type": "uint112"
        },
        {
          "internalType": "uint112",
          "name": "streamingReserveTarget",
          "type": "uint112"
        },
        {
          "internalType": "uint32",
          "name": "streamingReserveUpdated",
          "type": "uint32"
        }
      ],
      "stateMutability": "view",
      "type": "function"
    },
    {
      "inputs": [],
      "name": "getInterestHalfLife",
      "outputs": [
        {
          "internalType": "uint32",
          "name": "",
          "type": "uint32"
        }
      ],
      "stateMutability": "view",
      "type": "function"
    },
    {
      "inputs": [],
      "name": "getInterestToken",
      "outputs": [
        {
          "internalType": "contract IInterestToken",
          "name": "",
          "type": "address"
        }
      ],
      "stateMutability": "view",
      "type": "function"
    },
    {
      "inputs": [
        {
          "internalType": "uint256",
          "name": "tokenId",
          "type": "uint256"
        }
      ],
      "name": "getLiquidityInfo",
      "outputs": [
        {
          "components": [
            {
              "internalType": "uint256",
              "name": "amount",
              "type": "uint256"
            },
            {
              "internalType": "uint256",
              "name": "shares",
              "type": "uint256"
            },
            {
              "internalType": "uint256",
              "name": "block",
              "type": "uint256"
            }
          ],
          "internalType": "struct EnterpriseStorage.LiquidityInfo",
          "name": "",
          "type": "tuple"
        }
      ],
      "stateMutability": "view",
      "type": "function"
    },
    {
      "inputs": [],
      "name": "getLiquidityToken",
      "outputs": [
        {
          "internalType": "contract IERC20Metadata",
          "name": "",
          "type": "address"
        }
      ],
      "stateMutability": "view",
      "type": "function"
    },
    {
      "inputs": [
        {
          "internalType": "uint256",
          "name": "tokenId",
          "type": "uint256"
        }
      ],
      "name": "getLoanInfo",
      "outputs": [
        {
          "components": [
            {
              "internalType": "uint112",
              "name": "amount",
              "type": "uint112"
            },
            {
              "internalType": "uint16",
              "name": "powerTokenIndex",
              "type": "uint16"
            },
            {
              "internalType": "uint32",
              "name": "borrowingTime",
              "type": "uint32"
            },
            {
              "internalType": "uint32",
              "name": "maturityTime",
              "type": "uint32"
            },
            {
              "internalType": "uint32",
              "name": "borrowerReturnGraceTime",
              "type": "uint32"
            },
            {
              "internalType": "uint32",
              "name": "enterpriseCollectGraceTime",
              "type": "uint32"
            },
            {
              "internalType": "uint112",
              "name": "gcFee",
              "type": "uint112"
            },
            {
              "internalType": "uint16",
              "name": "gcFeeTokenIndex",
              "type": "uint16"
            }
          ],
          "internalType": "struct EnterpriseStorage.LoanInfo",
          "name": "",
          "type": "tuple"
        }
      ],
      "stateMutability": "view",
      "type": "function"
    },
    {
      "inputs": [
        {
          "internalType": "uint256",
          "name": "tokenId",
          "type": "uint256"
        }
      ],
      "name": "getOwedInterest",
      "outputs": [
        {
          "internalType": "uint256",
          "name": "",
          "type": "uint256"
        }
      ],
      "stateMutability": "view",
      "type": "function"
    },
    {
      "inputs": [],
      "name": "getPowerTokens",
      "outputs": [
        {
          "internalType": "contract PowerToken[]",
          "name": "",
          "type": "address[]"
        }
      ],
      "stateMutability": "view",
      "type": "function"
    },
    {
      "inputs": [],
      "name": "getProxyAdmin",
      "outputs": [
        {
          "internalType": "contract ProxyAdmin",
          "name": "",
          "type": "address"
        }
      ],
      "stateMutability": "view",
      "type": "function"
    },
    {
      "inputs": [],
      "name": "getReserve",
      "outputs": [
        {
          "internalType": "uint256",
          "name": "",
          "type": "uint256"
        }
      ],
      "stateMutability": "view",
      "type": "function"
    },
    {
      "inputs": [],
      "name": "getUsedReserve",
      "outputs": [
        {
          "internalType": "uint256",
          "name": "",
          "type": "uint256"
        }
      ],
      "stateMutability": "view",
      "type": "function"
    },
    {
      "inputs": [
        {
          "internalType": "uint256",
          "name": "tokenId",
          "type": "uint256"
        },
        {
          "internalType": "uint256",
          "name": "amount",
          "type": "uint256"
        }
      ],
      "name": "increaseLiquidity",
      "outputs": [],
      "stateMutability": "nonpayable",
      "type": "function"
    },
    {
      "inputs": [
        {
          "internalType": "string",
          "name": "enterpriseName",
          "type": "string"
        },
        {
          "internalType": "string",
          "name": "baseUri",
          "type": "string"
        },
        {
          "internalType": "uint16",
          "name": "gcFeePercent",
          "type": "uint16"
        },
        {
          "internalType": "contract IConverter",
          "name": "converter",
          "type": "address"
        },
        {
          "internalType": "contract ProxyAdmin",
          "name": "proxyAdmin",
          "type": "address"
        },
        {
          "internalType": "address",
          "name": "owner",
          "type": "address"
        }
      ],
      "name": "initialize",
      "outputs": [],
      "stateMutability": "nonpayable",
      "type": "function"
    },
    {
      "inputs": [
        {
          "internalType": "address",
          "name": "initialOwner",
          "type": "address"
        }
      ],
      "name": "initialize",
      "outputs": [],
      "stateMutability": "nonpayable",
      "type": "function"
    },
    {
      "inputs": [
        {
          "internalType": "contract IERC20Metadata",
          "name": "liquidityToken",
          "type": "address"
        },
        {
          "internalType": "contract IInterestToken",
          "name": "interestToken",
          "type": "address"
        },
        {
          "internalType": "contract IBorrowToken",
          "name": "borrowToken",
          "type": "address"
        }
      ],
      "name": "initializeTokens",
      "outputs": [],
      "stateMutability": "nonpayable",
      "type": "function"
    },
    {
      "inputs": [
        {
          "internalType": "contract PowerToken",
          "name": "powerToken",
          "type": "address"
        }
      ],
      "name": "isRegisteredPowerToken",
      "outputs": [
        {
          "internalType": "bool",
          "name": "",
          "type": "bool"
        }
      ],
      "stateMutability": "view",
      "type": "function"
    },
    {
      "inputs": [
        {
          "internalType": "contract IERC20",
          "name": "token",
          "type": "address"
        }
      ],
      "name": "isSupportedPaymentToken",
      "outputs": [
        {
          "internalType": "bool",
          "name": "",
          "type": "bool"
        }
      ],
      "stateMutability": "view",
      "type": "function"
    },
    {
      "inputs": [
        {
          "internalType": "address",
          "name": "from",
          "type": "address"
        },
        {
          "internalType": "address",
          "name": "to",
          "type": "address"
        },
        {
          "internalType": "uint256",
          "name": "tokenId",
          "type": "uint256"
        }
      ],
      "name": "loanTransfer",
      "outputs": [],
      "stateMutability": "nonpayable",
      "type": "function"
    },
    {
      "inputs": [],
      "name": "owner",
      "outputs": [
        {
          "internalType": "address",
          "name": "",
          "type": "address"
        }
      ],
      "stateMutability": "view",
      "type": "function"
    },
    {
      "inputs": [
        {
          "internalType": "uint256",
          "name": "index",
          "type": "uint256"
        }
      ],
      "name": "paymentToken",
      "outputs": [
        {
          "internalType": "address",
          "name": "",
          "type": "address"
        }
      ],
      "stateMutability": "view",
      "type": "function"
    },
    {
      "inputs": [
        {
          "internalType": "contract IERC20",
          "name": "token",
          "type": "address"
        }
      ],
      "name": "paymentTokenIndex",
      "outputs": [
        {
          "internalType": "int16",
          "name": "",
          "type": "int16"
        }
      ],
      "stateMutability": "view",
      "type": "function"
    },
    {
      "inputs": [
        {
          "internalType": "uint256",
          "name": "tokenId",
          "type": "uint256"
        },
        {
          "internalType": "contract IERC20",
          "name": "paymentToken",
          "type": "address"
        },
        {
          "internalType": "uint32",
          "name": "duration",
          "type": "uint32"
        },
        {
          "internalType": "uint256",
          "name": "maxPayment",
          "type": "uint256"
        }
      ],
      "name": "reborrow",
      "outputs": [],
      "stateMutability": "nonpayable",
      "type": "function"
    },
    {
      "inputs": [
        {
          "internalType": "string",
          "name": "serviceName",
          "type": "string"
        },
        {
          "internalType": "string",
          "name": "symbol",
          "type": "string"
        },
        {
          "internalType": "uint32",
          "name": "halfLife",
          "type": "uint32"
        },
        {
          "internalType": "uint112",
          "name": "baseRate",
          "type": "uint112"
        },
        {
          "internalType": "contract IERC20Metadata",
          "name": "baseToken",
          "type": "address"
        },
        {
          "internalType": "uint16",
          "name": "serviceFeePercent",
          "type": "uint16"
        },
        {
          "internalType": "uint32",
          "name": "minLoanDuration",
          "type": "uint32"
        },
        {
          "internalType": "uint32",
          "name": "maxLoanDuration",
          "type": "uint32"
        },
        {
          "internalType": "uint96",
          "name": "minGCFee",
          "type": "uint96"
        },
        {
          "internalType": "bool",
          "name": "allowsPerpetualTokensForever",
          "type": "bool"
        }
      ],
      "name": "registerService",
      "outputs": [],
      "stateMutability": "nonpayable",
      "type": "function"
    },
    {
      "inputs": [
        {
          "internalType": "uint256",
          "name": "tokenId",
          "type": "uint256"
        }
      ],
      "name": "removeLiquidity",
      "outputs": [],
      "stateMutability": "nonpayable",
      "type": "function"
    },
    {
      "inputs": [
        {
          "internalType": "uint256",
          "name": "tokenId",
          "type": "uint256"
        }
      ],
      "name": "returnLoan",
      "outputs": [],
      "stateMutability": "nonpayable",
      "type": "function"
    },
    {
      "inputs": [
        {
          "internalType": "string",
          "name": "baseUri",
          "type": "string"
        }
      ],
      "name": "setBaseUri",
      "outputs": [],
      "stateMutability": "nonpayable",
      "type": "function"
    },
    {
      "inputs": [
        {
          "internalType": "uint256",
          "name": "lambda",
          "type": "uint256"
        }
      ],
      "name": "setBondingLambda",
      "outputs": [],
      "stateMutability": "nonpayable",
      "type": "function"
    },
    {
      "inputs": [
        {
          "internalType": "uint32",
          "name": "newPeriod",
          "type": "uint32"
        }
      ],
      "name": "setBorrowerLoanReturnGracePeriod",
      "outputs": [],
      "stateMutability": "nonpayable",
      "type": "function"
    },
    {
      "inputs": [
        {
          "internalType": "contract IConverter",
          "name": "newConverter",
          "type": "address"
        }
      ],
      "name": "setConverter",
      "outputs": [],
      "stateMutability": "nonpayable",
      "type": "function"
    },
    {
      "inputs": [
        {
          "internalType": "address",
          "name": "newCollector",
          "type": "address"
        }
      ],
      "name": "setEnterpriseCollector",
      "outputs": [],
      "stateMutability": "nonpayable",
      "type": "function"
    },
    {
      "inputs": [
        {
          "internalType": "uint32",
          "name": "newPeriod",
          "type": "uint32"
        }
      ],
      "name": "setEnterpriseLoanCollectGracePeriod",
      "outputs": [],
      "stateMutability": "nonpayable",
      "type": "function"
    },
    {
      "inputs": [
        {
          "internalType": "address",
          "name": "newVault",
          "type": "address"
        }
      ],
      "name": "setEnterpriseVault",
      "outputs": [],
      "stateMutability": "nonpayable",
      "type": "function"
    },
    {
      "inputs": [
        {
          "internalType": "uint16",
          "name": "newGcFeePercent",
          "type": "uint16"
        }
      ],
      "name": "setGcFeePercent",
      "outputs": [],
      "stateMutability": "nonpayable",
      "type": "function"
    },
    {
      "inputs": [
        {
          "internalType": "uint32",
          "name": "interestHalfLife",
          "type": "uint32"
        }
      ],
      "name": "setInterestHalfLife",
      "outputs": [],
      "stateMutability": "nonpayable",
      "type": "function"
    },
    {
      "inputs": [],
      "name": "shutdownEnterpriseForever",
      "outputs": [],
      "stateMutability": "nonpayable",
      "type": "function"
    },
    {
      "inputs": [
        {
          "internalType": "address",
          "name": "newOwner",
          "type": "address"
        }
      ],
      "name": "transferOwnership",
      "outputs": [],
      "stateMutability": "nonpayable",
      "type": "function"
    },
    {
      "inputs": [
        {
          "internalType": "address",
          "name": "implementation",
          "type": "address"
        }
      ],
      "name": "upgradeBorrowToken",
      "outputs": [],
      "stateMutability": "nonpayable",
      "type": "function"
    },
    {
      "inputs": [
        {
          "internalType": "address",
          "name": "implementation",
          "type": "address"
        }
      ],
      "name": "upgradeEnterprise",
      "outputs": [],
      "stateMutability": "nonpayable",
      "type": "function"
    },
    {
      "inputs": [
        {
          "internalType": "address",
          "name": "implementation",
          "type": "address"
        }
      ],
      "name": "upgradeInterestToken",
      "outputs": [],
      "stateMutability": "nonpayable",
      "type": "function"
    },
    {
      "inputs": [
        {
          "internalType": "contract PowerToken",
          "name": "powerToken",
          "type": "address"
        },
        {
          "internalType": "address",
          "name": "implementation",
          "type": "address"
        }
      ],
      "name": "upgradePowerToken",
      "outputs": [],
      "stateMutability": "nonpayable",
      "type": "function"
    },
    {
      "inputs": [
        {
          "internalType": "uint256",
          "name": "tokenId",
          "type": "uint256"
        }
      ],
      "name": "withdrawInterest",
      "outputs": [],
      "stateMutability": "nonpayable",
      "type": "function"
    }
  ],
  "bytecode": "0x608060405234801561001057600080fd5b5061536b806100206000396000f3fe608060405234801561001057600080fd5b50600436106102925760003560e01c8062ca339b146102975780630714012c146102ac57806308669aab146103ac5780630cac36b2146103bf5780630e101b60146103d45780630ea1dc9e146103f45780632261b07f14610405578063229304dc146104165780632b2f6095146104375780632e365ade1461044a5780632ef02be31461045d5780632fb2067f146104705780633759214814610493578063449497ec146104b15780634741efb3146104c457806349bd4e89146104cc578063512a53bc146104df57806351c6590a146104f257806359bf5d39146105055780635a9b0b891461050d57806362c1f3881461052d578063644e44df146105405780636815f337146105515780636936cc2d14610564578063696f9c811461056c5780637791c42d1461057f5780637b024363146105905780638188d50d146105a357806389035b61146105b85780638b3240a0146105e45780638c0114b0146105ec5780638da5cb5b146105ff57806390f55edd146106075780639ab711931461061a5780639c7aa7f81461062d5780639c8f9f2314610640578063a0bcfc7f14610653578063a0efd11814610666578063a554b26d1461067b578063aebb50411461068c578063b19337a414610694578063b406bf6d146106a7578063b56de97e146106c8578063b96266fa146106db578063bf3bb1a5146106f0578063bfd84fb414610703578063c1fc16d814610716578063c229478414610729578063c4d66de81461073c578063c93d0b921461074f578063df57f2fa14610760578063e912615414610795578063edc1a628146107a8578063ef1f9f39146107bb578063f2fde38b146107ce578063fbac9a55146107e1578063fcb2884e14610807575b600080fd5b6102aa6102a5366004614942565b61080f565b005b6103966102ba366004614c66565b6040805161010081018252600080825260208201819052918101829052606081018290526080810182905260a0810182905260c0810182905260e08101919091525060009081526010602090815260409182902082516101008101845281546001600160701b038082168352600160701b80830461ffff90811696850196909652600160801b830463ffffffff90811697850197909752600160a01b830487166060850152600160c01b830487166080850152600160e01b90920490951660a083015260019092015493841660c082015292041660e082015290565b6040516103a39190614f7e565b60405180910390f35b6102aa6103ba366004614c66565b611173565b6103c7611342565b6040516103a39190614ea3565b6103e76103e2366004614c66565b6113d4565b6040516103a39190614d9a565b6001546001600160a01b03166103e7565b6004546001600160a01b03166103e7565b6104296104243660046148e9565b611412565b6040519081526020016103a3565b6102aa6104453660046147d3565b61153b565b6102aa610458366004614cfc565b6115f7565b6102aa61046b366004614c66565b6116b8565b61048361047e3660046147d3565b611709565b60405190151581526020016103a3565b600354600160a01b900463ffffffff165b6040516103a3919061502d565b6102aa6104bf366004614c2e565b61172c565b6102aa61179a565b6102aa6104da366004614cdb565b61186b565b6102aa6104ed36600461480b565b611a63565b6102aa610500366004614c66565b611cea565b610429611e5c565b610515611e81565b6040516103a39c9b9a99989796959493929190614edb565b6102aa61053b3660046147d3565b612044565b6000546001600160a01b03166103e7565b6102aa61055f366004614a54565b6120f3565b600d54610429565b6102aa61057a366004614cdb565b61223d565b6006546001600160a01b03166103e7565b6102aa61059e3660046147d3565b6123fc565b600654600160a01b900463ffffffff166104a4565b6104836105c63660046147d3565b6001600160a01b031660009081526012602052604090205460ff1690565b6103e7612483565b6102aa6105fa366004614c96565b6124a4565b6103e7612b6a565b6102aa6106153660046147d3565b612b80565b6102aa610628366004614b06565b612c2f565b6102aa61063b3660046147d3565b61308a565b6102aa61064e366004614c66565b6131b1565b6102aa6106613660046149a3565b6133dc565b600654600160c01b900463ffffffff166104a4565b6005546001600160a01b03166103e7565b610429613439565b6102aa6106a23660046147d3565b613450565b600654600160e01b900461ffff1660405161ffff90911681526020016103a3565b6102aa6106d6366004614cfc565b6134ff565b6106e36135bf565b6040516103a39190614de9565b6104296106fe366004614c66565b613620565b6102aa6107113660046147d3565b613665565b6102aa6107243660046147d3565b6136fb565b6102aa6107373660046148b1565b61377c565b6102aa61074a3660046147d3565b613881565b6002546001600160a01b03166103e7565b61077361076e366004614c66565b613956565b60408051825181526020808401519082015291810151908201526060016103a3565b6102aa6107a3366004614c66565b6139b3565b6102aa6107b6366004614cfc565b613c24565b6102aa6107c9366004614867565b613cd4565b6102aa6107dc3660046147d3565b613d5e565b6107f46107ef3660046147d3565b613e4f565b60405160019190910b81526020016103a3565b600a54610429565b600354604080518082019091526002815261373560f01b602082015290600160c01b900460ff161561085d5760405162461bcd60e51b81526004016108549190614ea3565b60405180910390fd5b506001600160a01b03851660009081526012602090815260409182902054825180840190935260018352601b60f91b9183019190915260ff166108b35760405162461bcd60e51b81526004016108549190614ea3565b506108bd84611709565b604051806040016040528060028152602001610d0d60f21b815250906108f65760405162461bcd60e51b81526004016108549190614ea3565b50604051636e4d898360e01b81526001600160a01b03861690636e4d89839061092390859060040161502d565b60206040518083038186803b15801561093b57600080fd5b505afa15801561094f573d6000803e3d6000fd5b505050506040513d601f19601f82011682018060405250810190610973919061484b565b60405180604001604052806002815260200161343560f01b815250906109ac5760405162461bcd60e51b81526004016108549190614ea3565b506040805180820190915260028152611b9b60f11b60208201526001600160701b0384166109ed5760405162461bcd60e51b81526004016108549190614ea3565b506109f6613439565b836001600160701b03161115604051806040016040528060028152602001611a1b60f11b81525090610a3b5760405162461bcd60e51b81526004016108549190614ea3565b50600080600080886001600160a01b0316639d5513d78989896040518463ffffffff1660e01b8152600401610a7293929190614e36565b60606040518083038186803b158015610a8a57600080fd5b505afa158015610a9e573d6000803e3d6000fd5b505050506040513d601f19601f82011682018060405250810190610ac29190614bed565b955090935091508390506000610ad88385615095565b6001600160701b0316905085856001600160701b031682610af991906150c0565b111560405180604001604052806002815260200161343760f01b81525090610b345760405162461bcd60e51b81526004016108549190614ea3565b50610b4a6001600160a01b038a16333084613e7c565b60008190508a6001600160a01b031663c55dae636040518163ffffffff1660e01b815260040160206040518083038186803b158015610b8857600080fd5b505afa158015610b9c573d6000803e3d6000fd5b505050506040513d601f19601f82011682018060405250810190610bc091906147ef565b6001600160a01b03168a6001600160a01b031614610d0a576004805460405163095ea7b360e01b81526001600160a01b03808e169363095ea7b393610c0a93921691879101614dd0565b602060405180830381600087803b158015610c2457600080fd5b505af1158015610c38573d6000803e3d6000fd5b505050506040513d601f19601f82011682018060405250810190610c5c919061484b565b50600460009054906101000a90046001600160a01b03166001600160a01b031663029b465d8b8460008054906101000a90046001600160a01b03166040518463ffffffff1660e01b8152600401610cb593929190614e66565b602060405180830381600087803b158015610ccf57600080fd5b505af1158015610ce3573d6000803e3d6000fd5b505050506040513d601f19601f82011682018060405250810190610d079190614c7e565b90505b600082610d20836001600160701b038816615117565b610d2a91906150f7565b600654600054919250610d4a916001600160a01b03908116911683613eed565b896001600160701b0316600a6000828254610d6591906150c0565b9091555060009050610d7782846151a3565b9050610d8281613f0c565b5050600254610daf95506001600160a01b038b81169550339450169150506001600160701b038516613e7c565b426000610dbc85836150d8565b90506000600260009054906101000a90046001600160a01b03166001600160a01b031663caa0f92a6040518163ffffffff1660e01b8152600401602060405180830381600087803b158015610e1057600080fd5b505af1158015610e24573d6000803e3d6000fd5b505050506040513d601f19601f82011682018060405250810190610e489190614c7e565b9050604051806101000160405280886001600160701b031681526020018a6001600160a01b0316632986c0e56040518163ffffffff1660e01b815260040160206040518083038186803b158015610e9e57600080fd5b505afa158015610eb2573d6000803e3d6000fd5b505050506040513d601f19601f82011682018060405250810190610ed69190614c4a565b61ffff16815263ffffffff80861660208301528481166040830152600654606090920191610f0d91600160a01b90910416856150d8565b63ffffffff168152602001600660189054906101000a900463ffffffff1684610f3691906150d8565b63ffffffff168152602001856001600160701b03168152602001610f598a613e4f565b61ffff9081169091526000838152601060209081526040918290208451815492860151868501516060880151608089015160a08a01516001600160701b039586166001600160801b031998891617600160701b958b16860217600160801b600160c01b031916600160801b63ffffffff9586160263ffffffff60a01b191617600160a01b93851693909302929092176001600160c01b0316600160c01b918416919091026001600160e01b031617600160e01b929091169190910217835560c08701516001909301805460e0909801519390921696909316959095179316029190911790915560025490516335313c2160e11b815282916001600160a01b031690636a6278429061106e903390600401614d9a565b602060405180830381600087803b15801561108857600080fd5b505af115801561109c573d6000803e3d6000fd5b505050506040513d601f19601f820116820180604052508101906110c09190614c7e565b146110db57634e487b7160e01b600052600160045260246000fd5b60405163f8642f2960e01b8152600481018290526001600160a01b038a169063f8642f2990602401600060405180830381600087803b15801561111d57600080fd5b505af1158015611131573d6000803e3d6000fd5b50505050886001600160a01b031660008051602061531683398151915282858560405161116093929190615011565b60405180910390a2505050505050505050565b600354604080518082019091526002815261373560f01b602082015290600160c01b900460ff16156111b85760405162461bcd60e51b81526004016108549190614ea3565b506001546040516331a9108f60e11b815260048101839052829133916001600160a01b0390911690636352211e9060240160206040518083038186803b15801561120157600080fd5b505afa158015611215573d6000803e3d6000fd5b505050506040513d601f19601f8201168201806040525081019061123991906147ef565b6001600160a01b031614604051806040016040528060018152602001603360f81b8152509061127b5760405162461bcd60e51b81526004016108549190614ea3565b5060008281526011602052604081206001810154909161129a85613620565b90506112a4613439565b811115604051806040016040528060028152602001611a1b60f11b815250906112e05760405162461bcd60e51b81526004016108549190614ea3565b506000546112f8906001600160a01b03163383613eed565b60006113078460000154613f91565b60018501819055905061131a81846151a3565b600c600082825461132b91906151a3565b9091555061133a905082613fb3565b505050505050565b6060600f8054611351906151e6565b80601f016020809104026020016040519081016040528092919081815260200182805461137d906151e6565b80156113ca5780601f1061139f576101008083540402835291602001916113ca565b820191906000526020600020905b8154815290600101906020018083116113ad57829003601f168201915b5050505050905090565b6000600882815481106113f757634e487b7160e01b600052603260045260246000fd5b6000918252602090912001546001600160a01b031692915050565b600354604080518082019091526002815261373560f01b6020820152600091600160c01b900460ff16156114595760405162461bcd60e51b81526004016108549190614ea3565b506001600160a01b03851660009081526012602090815260409182902054825180840190935260018352601b60f91b9183019190915260ff166114af5760405162461bcd60e51b81526004016108549190614ea3565b50604051631466370160e01b81526001600160a01b038616906314663701906114e090879087908790600401614e36565b60206040518083038186803b1580156114f857600080fd5b505afa15801561150c573d6000803e3d6000fd5b505050506040513d601f19601f820116820180604052508101906115309190614c7e565b90505b949350505050565b33611544612b6a565b6001600160a01b031614604051806040016040528060018152602001603360f81b815250906115865760405162461bcd60e51b81526004016108549190614ea3565b5061158f612483565b60015460405163266a23b160e21b81526001600160a01b03928316926399a88ec4926115c2929116908590600401614e89565b600060405180830381600087803b1580156115dc57600080fd5b505af11580156115f0573d6000803e3d6000fd5b5050505050565b33611600612b6a565b6001600160a01b031614604051806040016040528060018152602001603360f81b815250906116425760405162461bcd60e51b81526004016108549190614ea3565b506006546040805180820190915260028152610d8d60f21b60208201529063ffffffff600160c01b909104811690831611156116915760405162461bcd60e51b81526004016108549190614ea3565b506006805463ffffffff909216600160a01b0263ffffffff60a01b19909216919091179055565b336116c1612b6a565b6001600160a01b031614604051806040016040528060018152602001603360f81b815250906117035760405162461bcd60e51b81526004016108549190614ea3565b50600d55565b6001600160a01b0316600090815260076020526040812054600190810b900b1390565b33611735612b6a565b6001600160a01b031614604051806040016040528060018152602001603360f81b815250906117775760405162461bcd60e51b81526004016108549190614ea3565b506006805461ffff909216600160e01b0261ffff60e01b19909216919091179055565b600354604080518082019091526002815261373560f01b602082015290600160c01b900460ff16156117df5760405162461bcd60e51b81526004016108549190614ea3565b50336117e9612b6a565b6001600160a01b031614604051806040016040528060018152602001603360f81b8152509061182b5760405162461bcd60e51b81526004016108549190614ea3565b5060038054600160c01b60ff60c01b199091161790556000600a55600b8054600160701b81046001600160701b03166001600160701b0319909116179055565b6001546040516331a9108f60e11b815260048101849052839133916001600160a01b0390911690636352211e9060240160206040518083038186803b1580156118b357600080fd5b505afa1580156118c7573d6000803e3d6000fd5b505050506040513d601f19601f820116820180604052508101906118eb91906147ef565b6001600160a01b031614604051806040016040528060018152602001603360f81b8152509061192d5760405162461bcd60e51b81526004016108549190614ea3565b5060006011600085815260200190815260200160002090504381600201541060405180604001604052806002815260200161035360f41b815250906119855760405162461bcd60e51b81526004016108549190614ea3565b5080546040805180820190915260028152611a1b60f11b6020820152908411156119c25760405162461bcd60e51b81526004016108549190614ea3565b506119cb613439565b831115604051806040016040528060028152602001611a1b60f11b81525090611a075760405162461bcd60e51b81526004016108549190614ea3565b50600054611a1f906001600160a01b03163385613eed565b6000611a2a84613f91565b90508160010154811115611a3f575060018101545b600182018054829003905581548490038255600c805482900390556115f084613fb3565b600280546040805180820190915291825261333960f01b60208301526001600160a01b03163314611aa75760405162461bcd60e51b81526004016108549190614ea3565b506000818152601060209081526040918290205482518084019093526002835261068760f31b918301919091526001600160701b03169081611afc5760405162461bcd60e51b81526004016108549190614ea3565b5060008281526010602052604081205460138054600160a01b830463ffffffff164211936001600160a01b03898116159490891615939192600160701b90910461ffff16908110611b5d57634e487b7160e01b600052603260045260246000fd5b6000918252602090912001546001600160a01b031690508115611bdf5760405163079cc67960e41b81526001600160a01b038216906379cc679090611ba8908b908990600401614dae565b600060405180830381600087803b158015611bc257600080fd5b505af1158015611bd6573d6000803e3d6000fd5b50505050611ce0565b8215611c13576040516340c10f1960e01b81526001600160a01b038216906340c10f1990611ba8908a908990600401614dae565b83611cb0576040516333bebb7760e01b81526001600160a01b03898116600483015288811660248301526001600160701b03871660448301528216906333bebb7790606401602060405180830381600087803b158015611c7257600080fd5b505af1158015611c86573d6000803e3d6000fd5b505050506040513d601f19601f82011682018060405250810190611caa919061484b565b50611ce0565b60408051808201825260028152611a9960f11b6020820152905162461bcd60e51b81526108549190600401614ea3565b5050505050505050565b600354604080518082019091526002815261373560f01b602082015290600160c01b900460ff1615611d2f5760405162461bcd60e51b81526004016108549190614ea3565b50600054611d48906001600160a01b0316333084613e7c565b6000600c54600014611d6257611d5d82613f91565b611d64565b815b90508160096000828254611d7891906150c0565b90915550506001546040516335313c2160e11b81526000916001600160a01b031690636a62784290611dae903390600401614d9a565b602060405180830381600087803b158015611dc857600080fd5b505af1158015611ddc573d6000803e3d6000fd5b505050506040513d601f19601f82011682018060405250810190611e009190614c7e565b6040805160608101825285815260208082018681524383850190815260008681526011909352938220925183555160018301559151600290910155600c80549293508492909190611e529084906150c0565b9091555050505050565b6000611e66613ffd565b6001600160701b0316600954611e7c91906150c0565b905090565b600c54600354600654600954600a54600b54600e805460609788976000978897889788978897889788978897889788979496600f96939563ffffffff600160a01b94859004811696948404811695600160c01b850482169561ffff600160e01b9687900416959394936001600160701b0380841694600160701b8504909116939190910416908c90611f12906151e6565b80601f0160208091040260200160405190810160405280929190818152602001828054611f3e906151e6565b8015611f8b5780601f10611f6057610100808354040283529160200191611f8b565b820191906000526020600020905b815481529060010190602001808311611f6e57829003601f168201915b50505050509b508a8054611f9e906151e6565b80601f0160208091040260200160405190810160405280929190818152602001828054611fca906151e6565b80156120175780601f10611fec57610100808354040283529160200191612017565b820191906000526020600020905b815481529060010190602001808311611ffa57829003601f168201915b50505050509a509b509b509b509b509b509b509b509b509b509b509b509b50909192939495969798999a9b565b3361204d612b6a565b6001600160a01b031614604051806040016040528060018152602001603360f81b8152509061208f5760405162461bcd60e51b81526004016108549190614ea3565b50604080518082019091526002815261363160f01b60208201526001600160a01b0382166120d05760405162461bcd60e51b81526004016108549190614ea3565b50600580546001600160a01b0319166001600160a01b0392909216919091179055565b600e8054612100906151e6565b6040805180820190915260018152601960f91b60208201529150156121385760405162461bcd60e51b81526004016108549190614ea3565b5061214281613881565b816000805160206152d683398151915280546001600160a01b03929092166001600160a01b03199283161790556003805490911633179055865161218d90600e9060208a01906145d3565b5061219a600f8787614657565b5060068054600480546001600160a01b03199081166001600160a01b03978816179091556005805494909616931683179094556003805463ffffffff60a01b191660e160a61b179055600165ffff0000000160c01b0319909316600160e01b61ffff95909516949094026001600160c01b031916939093179092176102a360a61b1763ffffffff60c01b19166102a360c71b1790555050600160401b600d555050565b600354604080518082019091526002815261373560f01b602082015290600160c01b900460ff16156122825760405162461bcd60e51b81526004016108549190614ea3565b506001546040516331a9108f60e11b815260048101849052839133916001600160a01b0390911690636352211e9060240160206040518083038186803b1580156122cb57600080fd5b505afa1580156122df573d6000803e3d6000fd5b505050506040513d601f19601f8201168201806040525081019061230391906147ef565b6001600160a01b031614604051806040016040528060018152602001603360f81b815250906123455760405162461bcd60e51b81526004016108549190614ea3565b5060005461235e906001600160a01b0316333085613e7c565b6000600c546000146123785761237383613f91565b61237a565b825b9050826009600082825461238e91906150c0565b909155505060008481526011602052604081208054909185918391906123b59084906150c0565b92505081905550818160010160008282546123d091906150c0565b9091555050436002820155600c80548391906000906123f09084906150c0565b90915550505050505050565b33612405612b6a565b6001600160a01b031614604051806040016040528060018152602001603360f81b815250906124475760405162461bcd60e51b81526004016108549190614ea3565b50612450612483565b60025460405163266a23b160e21b81526001600160a01b03928316926399a88ec4926115c2929116908590600401614e89565b60006000805160206152d68339815191525b546001600160a01b0316919050565b600354604080518082019091526002815261373560f01b602082015290600160c01b900460ff16156124e95760405162461bcd60e51b81526004016108549190614ea3565b506124f383611709565b604051806040016040528060028152602001610d0d60f21b8152509061252c5760405162461bcd60e51b81526004016108549190614ea3565b50600084815260106020908152604091829020805483518085019094526002845261068760f31b9284019290925291906001600160701b03166125825760405162461bcd60e51b81526004016108549190614ea3565b50805460138054600092600160701b900461ffff169081106125b457634e487b7160e01b600052603260045260246000fd5b600091825260209091200154604051636e4d898360e01b81526001600160a01b0390911691508190636e4d8983906125f090879060040161502d565b60206040518083038186803b15801561260857600080fd5b505afa15801561261c573d6000803e3d6000fd5b505050506040513d601f19601f82011682018060405250810190612640919061484b565b60405180604001604052806002815260200161343560f01b815250906126795760405162461bcd60e51b81526004016108549190614ea3565b5081544290612696908690600160a01b900463ffffffff166150d8565b63ffffffff16101560405180604001604052806002815260200161343960f01b815250906126d75760405162461bcd60e51b81526004016108549190614ea3565b508154600a80546001600160701b03909216916000906126f89084906151a3565b90915550508154604051639d5513d760e01b815260009182916001600160a01b03851691639d5513d79161273e918b916001600160701b03909116908b90600401614e36565b60606040518083038186803b15801561275657600080fd5b505afa15801561276a573d6000803e3d6000fd5b505050506040513d601f19601f8201168201806040525081019061278e9190614bed565b508554600a80546001600160701b039092169091019055909250905060006127b68284615095565b6001600160701b031690508581111560405180604001604052806002815260200161343760f01b815250906127fe5760405162461bcd60e51b81526004016108549190614ea3565b506128146001600160a01b038916333084613e7c565b6000819050846001600160a01b031663c55dae636040518163ffffffff1660e01b815260040160206040518083038186803b15801561285257600080fd5b505afa158015612866573d6000803e3d6000fd5b505050506040513d601f19601f8201168201806040525081019061288a91906147ef565b6001600160a01b0316896001600160a01b0316146129b5576004805460405163095ea7b360e01b81526001600160a01b03808d169363095ea7b3936128d493921691879101614dd0565b602060405180830381600087803b1580156128ee57600080fd5b505af1158015612902573d6000803e3d6000fd5b505050506040513d601f19601f82011682018060405250810190612926919061484b565b506004805460005460405163029b465d60e01b81526001600160a01b039283169363029b465d93612960938f938993919092169101614e66565b602060405180830381600087803b15801561297a57600080fd5b505af115801561298e573d6000803e3d6000fd5b505050506040513d601f19601f820116820180604052508101906129b29190614c7e565b90505b6000826129cb836001600160701b038716615117565b6129d591906150f7565b6006546000549192506129f5916001600160a01b03908116911683613eed565b6000612a0182846151a3565b9050612a0c81613f0c565b8754600160a01b900463ffffffff16612a258b826150d8565b895463ffffffff60a01b1916600160a01b63ffffffff928316810291909117808c55600654612a5e9390839004811692909104166150d8565b895463ffffffff60c01b1916600160c01b63ffffffff928316810291909117808c55600654612a9b93929004821691600160a01b909104166150d8565b895463ffffffff91909116600160e01b026001600160e01b0390911617895560405163f8642f2960e01b8152600481018e90526001600160a01b0389169063f8642f2990602401600060405180830381600087803b158015612afc57600080fd5b505af1158015612b10573d6000803e3d6000fd5b50505050876001600160a01b03166000805160206153168339815191528e838c60000160149054906101000a900463ffffffff16604051612b5393929190615011565b60405180910390a250505050505050505050505050565b60006000805160206152b6833981519152612495565b33612b89612b6a565b6001600160a01b031614604051806040016040528060018152602001603360f81b81525090612bcb5760405162461bcd60e51b81526004016108549190614ea3565b506040805180820190915260028152611b1960f11b60208201526001600160a01b038216612c0c5760405162461bcd60e51b81526004016108549190614ea3565b50600680546001600160a01b0319166001600160a01b0392909216919091179055565b33612c38612b6a565b6001600160a01b031614604051806040016040528060018152602001603360f81b81525090612c7a5760405162461bcd60e51b81526004016108549190614ea3565b50600354604080518082019091526002815261373560f01b602082015290600160c01b900460ff1615612cc05760405162461bcd60e51b81526004016108549190614ea3565b50604080518082019091526002815261034360f41b60208201526001600160a01b038716612d015760405162461bcd60e51b81526004016108549190614ea3565b50601354604080518082019091526002815261343160f01b60208201529061ffff11612d405760405162461bcd60e51b81526004016108549190614ea3565b506003546000906001600160a01b031663c31011cc612d5d612483565b6040518263ffffffff1660e01b8152600401612d799190614d9a565b602060405180830381600087803b158015612d9357600080fd5b505af1158015612da7573d6000803e3d6000fd5b505050506040513d601f19601f82011682018060405250810190612dcb91906147ef565b905060008060009054906101000a90046001600160a01b03166001600160a01b03166395d89b416040518163ffffffff1660e01b815260040160006040518083038186803b158015612e1c57600080fd5b505afa158015612e30573d6000803e3d6000fd5b505050506040513d6000823e601f3d908101601f19168201604052612e5891908101906149e2565b90506000818c604051602001612e6f929190614d5e565b6040516020818303038152906040529050826001600160a01b0316634cd88b768e836040518363ffffffff1660e01b8152600401612eae929190614eb6565b600060405180830381600087803b158015612ec857600080fd5b505af1158015612edc573d6000803e3d6000fd5b505050505050806001600160a01b0316632ef0cf8b308a868d6013805490508d8c8c8f8c6040518b63ffffffff1660e01b8152600401612f9a9a999897969594939291906001600160a01b039a8b1681526001600160701b039990991660208a01526001600160601b0397909716604089015263ffffffff958616606089015261ffff94851660808901529290971660a0870152831660c08601529490911660e0840152929092166101008201529015156101208201526101400190565b600060405180830381600087803b158015612fb457600080fd5b505af1158015612fc8573d6000803e3d6000fd5b50506013805460018082019092557f66de8ffda797e3de9c05e8fc57b3bf0ec28a930d40b0d285d93c06501cf6a0900180546001600160a01b0319166001600160a01b038616908117909155600081815260126020908152604091829020805460ff1916909417909355805163ffffffff8f1681526001600160701b038e16938101939093529093507f18706585e986f622c9d914abfb256d563b9ea274cd5d49124e0518aa314b8c1292500160405180910390a25050505050505050505050565b33613093612b6a565b6001600160a01b031614604051806040016040528060018152602001603360f81b815250906130d55760405162461bcd60e51b81526004016108549190614ea3565b506001600160a01b03811660009081526007602090815260409182902054825180840190935260028352611b9960f11b91830191909152600190810b900b6131305760405162461bcd60e51b81526004016108549190614ea3565b506001600160a01b038116600090815260076020526040812054600190810b900b13156131ae576001600160a01b03811660009081526007602052604090205461317c9060010b615221565b6001600160a01b0382166000908152600760205260409020805460019290920b61ffff1661ffff199092169190911790555b50565b6001546040516331a9108f60e11b815260048101839052829133916001600160a01b0390911690636352211e9060240160206040518083038186803b1580156131f957600080fd5b505afa15801561320d573d6000803e3d6000fd5b505050506040513d601f19601f8201168201806040525081019061323191906147ef565b6001600160a01b031614604051806040016040528060018152602001603360f81b815250906132735760405162461bcd60e51b81526004016108549190614ea3565b5060006011600084815260200190815260200160002090504381600201541060405180604001604052806002815260200161035360f41b815250906132cb5760405162461bcd60e51b81526004016108549190614ea3565b50600181015460006132dc82614065565b90506132e6613439565b811115604051806040016040528060028152602001611a1b60f11b815250906133225760405162461bcd60e51b81526004016108549190614ea3565b50600154604051630852cd8d60e31b8152600481018790526001600160a01b03909116906342966c6890602401600060405180830381600087803b15801561336957600080fd5b505af115801561337d573d6000803e3d6000fd5b505060005461339992506001600160a01b031690503383613eed565b81600c60008282546133ab91906151a3565b909155506133ba905081613fb3565b5050506000918252506011602052604081208181556001810182905560020155565b336133e5612b6a565b6001600160a01b031614604051806040016040528060018152602001603360f81b815250906134275760405162461bcd60e51b81526004016108549190614ea3565b50613434600f8383614657565b505050565b6000600a54613446611e5c565b611e7c91906151a3565b33613459612b6a565b6001600160a01b031614604051806040016040528060018152602001603360f81b8152509061349b5760405162461bcd60e51b81526004016108549190614ea3565b50604080518082019091526002815261363360f01b60208201526001600160a01b0382166134dc5760405162461bcd60e51b81526004016108549190614ea3565b50600480546001600160a01b0319166001600160a01b0392909216919091179055565b33613508612b6a565b6001600160a01b031614604051806040016040528060018152602001603360f81b8152509061354a5760405162461bcd60e51b81526004016108549190614ea3565b50600654604080518082019091526002815261363560f01b60208201529063ffffffff808416600160a01b9092041611156135985760405162461bcd60e51b81526004016108549190614ea3565b506006805463ffffffff909216600160c01b0263ffffffff60c01b19909216919091179055565b606060138054806020026020016040519081016040528092919081815260200182805480156113ca57602002820191906000526020600020905b81546001600160a01b031681526001909101906020018083116135f9575050505050905090565b60008181526011602052604081206001810154829061363e90614065565b825490915081111561365b57815461365690826151a3565b611533565b6000949350505050565b3361366e612b6a565b6001600160a01b031614604051806040016040528060018152602001603360f81b815250906136b05760405162461bcd60e51b81526004016108549190614ea3565b50604080518082019091526002815261373160f01b60208201526001600160a01b0382166136f15760405162461bcd60e51b81526004016108549190614ea3565b506131ae8161407d565b33613704612b6a565b6001600160a01b031614604051806040016040528060018152602001603360f81b815250906137465760405162461bcd60e51b81526004016108549190614ea3565b5061374f612483565b6001600160a01b03166399a88ec430836040518363ffffffff1660e01b81526004016115c2929190614e89565b33613785612b6a565b6001600160a01b031614604051806040016040528060018152602001603360f81b815250906137c75760405162461bcd60e51b81526004016108549190614ea3565b506001600160a01b03821660009081526012602090815260409182902054825180840190935260018352601b60f91b9183019190915260ff1661381d5760405162461bcd60e51b81526004016108549190614ea3565b50613826612483565b6001600160a01b03166399a88ec483836040518363ffffffff1660e01b8152600401613853929190614e89565b600060405180830381600087803b15801561386d57600080fd5b505af115801561133a573d6000803e3d6000fd5b600061388b612b6a565b6001600160a01b031614604051806040016040528060018152602001601960f91b815250906138cd5760405162461bcd60e51b81526004016108549190614ea3565b50604080518082019091526002815261373360f01b60208201526001600160a01b03821661390e5760405162461bcd60e51b81526004016108549190614ea3565b506000805160206152b683398151915280546001600160a01b0319166001600160a01b0383169081179091556040516000906000805160206152f6833981519152908290a350565b61397a60405180606001604052806000815260200160008152602001600081525090565b50600090815260116020908152604091829020825160608101845281548152600182015492810192909252600201549181019190915290565b600081815260106020908152604091829020805483518085019094526002845261068760f31b9284019290925291906001600160701b0316613a085760405162461bcd60e51b81526004016108549190614ea3565b506002546040516331a9108f60e11b8152600481018490526000916001600160a01b031690636352211e9060240160206040518083038186803b158015613a4e57600080fd5b505afa158015613a62573d6000803e3d6000fd5b505050506040513d601f19601f82011682018060405250810190613a8691906147ef565b8254909150429063ffffffff808316600160c01b909204161080613ab25750336001600160a01b038316145b60405180604001604052806002815260200161353360f01b81525090613aeb5760405162461bcd60e51b81526004016108549190614ea3565b50825463ffffffff808316600160e01b909204161080613b135750336001600160a01b038316145b80613b2857506005546001600160a01b031633145b604051806040016040528060028152602001610d4d60f21b81525090613b615760405162461bcd60e51b81526004016108549190614ea3565b50600354600160c01b900460ff16613b99578254600a80546001600160701b0390921691600090613b939084906151a3565b90915550505b600254604051633f34d4cf60e21b8152600481018690523360248201526001600160a01b039091169063fcd3533c90604401600060405180830381600087803b158015613be557600080fd5b505af1158015613bf9573d6000803e3d6000fd5b50505060009485525050601060205250506040812090815560010180546001600160801b0319169055565b33613c2d612b6a565b6001600160a01b031614604051806040016040528060018152602001603360f81b81525090613c6f5760405162461bcd60e51b81526004016108549190614ea3565b506040805180820190915260028152611b1b60f11b602082015263ffffffff8216613cad5760405162461bcd60e51b81526004016108549190614ea3565b506003805463ffffffff909216600160a01b0263ffffffff60a01b19909216919091179055565b6000546040805180820190915260018152601960f91b6020820152906001600160a01b031615613d175760405162461bcd60e51b81526004016108549190614ea3565b50600080546001600160a01b038086166001600160a01b0319928316179092556001805485841690831617905560028054928416929091169190911790556134348361407d565b33613d67612b6a565b6001600160a01b031614604051806040016040528060018152602001603360f81b81525090613da95760405162461bcd60e51b81526004016108549190614ea3565b50604080518082019091526002815261373360f01b60208201526001600160a01b038216613dea5760405162461bcd60e51b81526004016108549190614ea3565b50806001600160a01b0316613dfd612b6a565b6001600160a01b03166000805160206152f683398151915260405160405180910390a36000805160206152b683398151915280546001600160a01b0319166001600160a01b0392909216919091179055565b6001600160a01b038116600090815260076020526040812054613e7690600190810b615136565b92915050565b6040516001600160a01b0380851660248301528316604482015260648101829052613ee79085906323b872dd60e01b906084015b60408051601f198184030181529190526020810180516001600160e01b03166001600160e01b031990931692909217909152614160565b50505050565b6134348363a9059cbb60e01b8484604051602401613eb0929190614dd0565b613f14613ffd565b600b80546001600160701b0319166001600160701b03928316178082558392600e91613f49918591600160701b900416615095565b92506101000a8154816001600160701b0302191690836001600160701b0316021790555042600b601c6101000a81548163ffffffff021916908363ffffffff16021790555050565b6000613f9b611e5c565b82600c54613fa99190615117565b613e7691906150f7565b8060095410613fc85760098054829003905550565b6000613fd2614232565b6001600160701b031690508181600954613fec91906150c0565b613ff691906151a3565b6009555050565b600b546000906140489063ffffffff600160e01b82041690614032906001600160701b0380821691600160701b90041661517b565b600354600160a01b900463ffffffff16426142b8565b600b54611e7c9190600160701b90046001600160701b031661517b565b6000600c5482614073611e5c565b613fa99190615117565b6001600160a01b038116600090815260076020526040902054600190810b900b6141155760088054600180820183557ff3f7a9fe364faab93b216da50a3214154f22a0a2b415b23a84c8169e8b636ee390910180546001600160a01b0319166001600160a01b039490941693841790559054600092835260076020526040909220805461ffff191661ffff9390920b92909216179055565b6001600160a01b038116600090815260076020526040812054600190810b900b12156131ae576001600160a01b03811660009081526007602052604090205461317c9060010b615221565b60006141b5826040518060400160405280602081526020017f5361666545524332303a206c6f772d6c6576656c2063616c6c206661696c6564815250856001600160a01b03166144599092919063ffffffff16565b80519091501561343457808060200190518101906141d3919061484b565b6134345760405162461bcd60e51b815260206004820152602a60248201527f5361666545524332303a204552433230206f7065726174696f6e20646964206e6044820152691bdd081cdd58d8d9595960b21b6064820152608401610854565b600061423c613ffd565b600b80546001600160701b0319168082559192508291600e90614270908490600160701b90046001600160701b031661517b565b92506101000a8154816001600160701b0302191690836001600160701b0316021790555042600b601c6101000a81548163ffffffff021916908363ffffffff16021790555090565b60008463ffffffff168263ffffffff161015604051806040016040528060018152602001600760fb1b815250906143025760405162461bcd60e51b81526004016108549190614ea3565b5084820391508263ffffffff168263ffffffff168161433157634e487b7160e01b600052601260045260246000fd5b0463ffffffff16846001600160701b0316901c93508263ffffffff168263ffffffff168161436f57634e487b7160e01b600052601260045260246000fd5b06915063ffffffff8216158061438c57506001600160701b038416155b15614398575082611533565b60006001600160701b0385168163ffffffff86811690861671b17217f7d1cf79abc9e3b39803f2f6af40f302816143df57634e487b7160e01b600052601260045260246000fd5b049050600160901b5b821561444c5792820192808284028161441157634e487b7160e01b600052601260045260246000fd5b0493849003939250600160901b01808284028161443e57634e487b7160e01b600052601260045260246000fd5b049250600160901b016143e8565b5091979650505050505050565b60606144688484600085614472565b90505b9392505050565b6060824710156144d35760405162461bcd60e51b815260206004820152602660248201527f416464726573733a20696e73756666696369656e742062616c616e636520666f6044820152651c8818d85b1b60d21b6064820152608401610854565b843b6145215760405162461bcd60e51b815260206004820152601d60248201527f416464726573733a2063616c6c20746f206e6f6e2d636f6e74726163740000006044820152606401610854565b600080866001600160a01b0316858760405161453d9190614d42565b60006040518083038185875af1925050503d806000811461457a576040519150601f19603f3d011682016040523d82523d6000602084013e61457f565b606091505b509150915061458f82828661459a565b979650505050505050565b606083156145a957508161446b565b8251156145b95782518084602001fd5b8160405162461bcd60e51b81526004016108549190614ea3565b8280546145df906151e6565b90600052602060002090601f0160209004810192826146015760008555614647565b82601f1061461a57805160ff1916838001178555614647565b82800160010185558215614647579182015b8281111561464757825182559160200191906001019061462c565b506146539291506146cb565b5090565b828054614663906151e6565b90600052602060002090601f0160209004810192826146855760008555614647565b82601f1061469e5782800160ff19823516178555614647565b82800160010185558215614647579182015b828111156146475782358255916020019190600101906146b0565b5b8082111561465357600081556001016146cc565b80356146eb81615282565b919050565b80356146eb8161526d565b60008083601f84011261470c578182fd5b5081356001600160401b03811115614722578182fd5b60208301915083602082850101111561473a57600080fd5b9250929050565b600082601f830112614751578081fd5b813561476461475f8261506e565b61503e565b818152846020838601011115614778578283fd5b816020850160208301379081016020019190915292915050565b80356146eb81615290565b80356146eb816152a5565b803563ffffffff811681146146eb57600080fd5b80356001600160601b03811681146146eb57600080fd5b6000602082840312156147e4578081fd5b813561446b8161526d565b600060208284031215614800578081fd5b815161446b8161526d565b60008060006060848603121561481f578182fd5b833561482a8161526d565b9250602084013561483a8161526d565b929592945050506040919091013590565b60006020828403121561485c578081fd5b815161446b81615282565b60008060006060848603121561487b578081fd5b83356148868161526d565b925060208401356148968161526d565b915060408401356148a68161526d565b809150509250925092565b600080604083850312156148c3578182fd5b82356148ce8161526d565b915060208301356148de8161526d565b809150509250929050565b600080600080608085870312156148fe578182fd5b84356149098161526d565b935060208501356149198161526d565b9250604085013561492981615290565b9150614937606086016147a8565b905092959194509250565b600080600080600060a08688031215614959578283fd5b85356149648161526d565b945060208601356149748161526d565b9350604086013561498481615290565b9250614992606087016147a8565b949793965091946080013592915050565b600080602083850312156149b5578182fd5b82356001600160401b038111156149ca578283fd5b6149d6858286016146fb565b90969095509350505050565b6000602082840312156149f3578081fd5b81516001600160401b03811115614a08578182fd5b8201601f81018413614a18578182fd5b8051614a2661475f8261506e565b818152856020838501011115614a3a578384fd5b614a4b8260208301602086016151ba565b95945050505050565b600080600080600080600060c0888a031215614a6e578485fd5b87356001600160401b0380821115614a84578687fd5b614a908b838c01614741565b985060208a0135915080821115614aa5578687fd5b50614ab28a828b016146fb565b9097509550506040880135614ac6816152a5565b93506060880135614ad68161526d565b92506080880135614ae68161526d565b915060a0880135614af68161526d565b8091505092959891949750929550565b6000806000806000806000806000806101408b8d031215614b25578384fd5b8a356001600160401b0380821115614b3b578586fd5b614b478e838f01614741565b9b5060208d0135915080821115614b5c578586fd5b50614b698d828e01614741565b995050614b7860408c016147a8565b9750614b8660608c01614792565b9650614b9460808c016146f0565b9550614ba260a08c0161479d565b9450614bb060c08c016147a8565b9350614bbe60e08c016147a8565b9250614bcd6101008c016147bc565b9150614bdc6101208c016146e0565b90509295989b9194979a5092959850565b600080600060608486031215614c01578081fd5b8351614c0c81615290565b6020850151909350614c1d81615290565b60408501519092506148a681615290565b600060208284031215614c3f578081fd5b813561446b816152a5565b600060208284031215614c5b578081fd5b815161446b816152a5565b600060208284031215614c77578081fd5b5035919050565b600060208284031215614c8f578081fd5b5051919050565b60008060008060808587031215614cab578182fd5b843593506020850135614cbd8161526d565b9250614ccb604086016147a8565b9396929550929360600135925050565b60008060408385031215614ced578182fd5b50508035926020909101359150565b600060208284031215614d0d578081fd5b61446b826147a8565b60008151808452614d2e8160208601602086016151ba565b601f01601f19169290920160200192915050565b60008251614d548184602087016151ba565b9190910192915050565b60008351614d708184602088016151ba565b600160fd1b9083019081528351614d8e8160018401602088016151ba565b01600101949350505050565b6001600160a01b0391909116815260200190565b6001600160a01b039290921682526001600160701b0316602082015260400190565b6001600160a01b03929092168252602082015260400190565b6020808252825182820181905260009190848201906040850190845b81811015614e2a5783516001600160a01b031683529284019291840191600101614e05565b50909695505050505050565b6001600160a01b039390931683526001600160701b0391909116602083015263ffffffff16604082015260600190565b6001600160a01b0393841681526020810192909252909116604082015260600190565b6001600160a01b0392831681529116602082015260400190565b60208152600061446b6020830184614d16565b604081526000614ec96040830185614d16565b8281036020840152614a4b8185614d16565b61018081526000614ef061018083018f614d16565b8281036020840152614f02818f614d16565b604084018e905263ffffffff8d811660608601528c811660808601528b1660a085015261ffff8a1660c085015260e0840189905261010084018890526001600160701b0387811661012086015286166101408501529150614f609050565b63ffffffff83166101608301529d9c50505050505050505050505050565b81516001600160701b0316815260208083015161ffff169082015260408083015163ffffffff9081169183019190915260608084015182169083015260808084015182169083015260a080840151918216908301526101008201905060c0830151614ff460c08401826001600160701b03169052565b5060e083015161500a60e084018261ffff169052565b5092915050565b92835263ffffffff918216602084015216604082015260600190565b63ffffffff91909116815260200190565b604051601f8201601f191681016001600160401b038111828210171561506657615066615257565b604052919050565b60006001600160401b0382111561508757615087615257565b50601f01601f191660200190565b60006001600160701b038281168482168083038211156150b7576150b7615241565b01949350505050565b600082198211156150d3576150d3615241565b500190565b600063ffffffff8083168185168083038211156150b7576150b7615241565b60008261511257634e487b7160e01b81526012600452602481fd5b500490565b600081600019048311821515161561513157615131615241565b500290565b60008160010b8360010b82811281617fff190183128115161561515b5761515b615241565b81617fff01831381161561517157615171615241565b5090039392505050565b60006001600160701b038381169083168181101561519b5761519b615241565b039392505050565b6000828210156151b5576151b5615241565b500390565b60005b838110156151d55781810151838201526020016151bd565b83811115613ee75750506000910152565b600181811c908216806151fa57607f821691505b6020821081141561521b57634e487b7160e01b600052602260045260246000fd5b50919050565b60008160010b617fff1981141561523a5761523a615241565b9003919050565b634e487b7160e01b600052601160045260246000fd5b634e487b7160e01b600052604160045260246000fd5b6001600160a01b03811681146131ae57600080fd5b80151581146131ae57600080fd5b6001600160701b03811681146131ae57600080fd5b61ffff811681146131ae57600080fdfe4f471908b72bb76dae5bd24599026e7bf3ddb256497722888ffa422f83729eded1248cccb5fef9131c731321e43e9a924840ffee7dc68c7d1d3e5cb7dedcae038be0079c531659141344cd1fd0a4f28419497f9722a3daafe3b4186f6b6457e09853650269815e203c5c9e228db9ca05cc6037f2c2723c94ed3260cf98324c99a2646970667358221220122962abf5785d09f41da0dea2dc639f6f6a92d766a6988190b77b42bdc789a164736f6c63430008040033",
  "linkReferences": {},
  "deployedLinkReferences": {}
}