{
  "_format": "hh-sol-artifact-1",
  "contractName": "Enterprise",
  "sourceName": "contracts/Enterprise.sol",
  "abi": [
    {
      "anonymous": false,
      "inputs": [
        {
          "indexed": false,
          "internalType": "string",
          "name": "baseUri",
          "type": "string"
        }
      ],
      "name": "BaseUriChanged",
      "type": "event"
    },
    {
      "anonymous": false,
      "inputs": [
        {
          "indexed": false,
          "internalType": "uint256",
          "name": "pole",
          "type": "uint256"
        },
        {
          "indexed": false,
          "internalType": "uint256",
          "name": "slope",
          "type": "uint256"
        }
      ],
      "name": "BondingChanged",
      "type": "event"
    },
    {
      "anonymous": false,
      "inputs": [
        {
          "indexed": true,
          "internalType": "uint256",
          "name": "borrowTokenId",
          "type": "uint256"
        },
        {
          "indexed": true,
          "internalType": "address",
          "name": "borrower",
          "type": "address"
        },
        {
          "indexed": true,
          "internalType": "address",
          "name": "powerToken",
          "type": "address"
        },
        {
          "indexed": false,
          "internalType": "address",
          "name": "paymentToken",
          "type": "address"
        },
        {
          "indexed": false,
          "internalType": "uint112",
          "name": "amount",
          "type": "uint112"
        },
        {
          "indexed": false,
          "internalType": "uint112",
          "name": "interest",
          "type": "uint112"
        },
        {
          "indexed": false,
          "internalType": "uint112",
          "name": "serviceFee",
          "type": "uint112"
        },
        {
          "indexed": false,
          "internalType": "uint112",
          "name": "gcFee",
          "type": "uint112"
        },
        {
          "indexed": false,
          "internalType": "uint32",
          "name": "borrowingTime",
          "type": "uint32"
        },
        {
          "indexed": false,
          "internalType": "uint32",
          "name": "maturityTime",
          "type": "uint32"
        },
        {
          "indexed": false,
          "internalType": "uint32",
          "name": "borrowerReturnGraceTime",
          "type": "uint32"
        },
        {
          "indexed": false,
          "internalType": "uint32",
          "name": "enterpriseCollectGraceTime",
          "type": "uint32"
        },
        {
          "indexed": false,
          "internalType": "uint256",
          "name": "reserve",
          "type": "uint256"
        },
        {
          "indexed": false,
          "internalType": "uint256",
          "name": "usedReserve",
          "type": "uint256"
        }
      ],
      "name": "Borrowed",
      "type": "event"
    },
    {
      "anonymous": false,
      "inputs": [
        {
          "indexed": false,
          "internalType": "uint32",
          "name": "period",
          "type": "uint32"
        }
      ],
      "name": "BorrowerLoanReturnGracePeriodChanged",
      "type": "event"
    },
    {
      "anonymous": false,
      "inputs": [
        {
          "indexed": false,
          "internalType": "address",
          "name": "converter",
          "type": "address"
        }
      ],
      "name": "ConverterChanged",
      "type": "event"
    },
    {
      "anonymous": false,
      "inputs": [
        {
          "indexed": false,
          "internalType": "address",
          "name": "collector",
          "type": "address"
        }
      ],
      "name": "EnterpriseCollectorChanged",
      "type": "event"
    },
    {
      "anonymous": false,
      "inputs": [
        {
          "indexed": false,
          "internalType": "uint32",
          "name": "period",
          "type": "uint32"
        }
      ],
      "name": "EnterpriseLoanCollectGracePeriodChanged",
      "type": "event"
    },
    {
      "anonymous": false,
      "inputs": [],
      "name": "EnterpriseShutdown",
      "type": "event"
    },
    {
      "anonymous": false,
      "inputs": [
        {
          "indexed": false,
          "internalType": "address",
          "name": "vault",
          "type": "address"
        }
      ],
      "name": "EnterpriseVaultChanged",
      "type": "event"
    },
    {
      "anonymous": false,
      "inputs": [
        {
          "indexed": false,
          "internalType": "uint256",
          "name": "fixedReserve",
          "type": "uint256"
        }
      ],
      "name": "FixedReserveChanged",
      "type": "event"
    },
    {
      "anonymous": false,
      "inputs": [
        {
          "indexed": false,
          "internalType": "uint16",
          "name": "percent",
          "type": "uint16"
        }
      ],
      "name": "GcFeePercentChanged",
      "type": "event"
    },
    {
      "anonymous": false,
      "inputs": [
        {
          "indexed": false,
          "internalType": "uint32",
          "name": "period",
          "type": "uint32"
        }
      ],
      "name": "InterestGapHalvingPeriodChanged",
      "type": "event"
    },
    {
      "anonymous": false,
      "inputs": [
        {
          "indexed": true,
          "internalType": "uint256",
          "name": "interestTokenId",
          "type": "uint256"
        },
        {
          "indexed": true,
          "internalType": "address",
          "name": "liquidityProvider",
          "type": "address"
        },
        {
          "indexed": true,
          "internalType": "enum Enterprise.LiquidityChangeType",
          "name": "changeType",
          "type": "uint8"
        },
        {
          "indexed": false,
          "internalType": "uint256",
          "name": "amountDelta",
          "type": "uint256"
        },
        {
          "indexed": false,
          "internalType": "uint256",
          "name": "amount",
          "type": "uint256"
        },
        {
          "indexed": false,
          "internalType": "uint256",
          "name": "sharesDelta",
          "type": "uint256"
        },
        {
          "indexed": false,
          "internalType": "uint256",
          "name": "shares",
          "type": "uint256"
        },
        {
          "indexed": false,
          "internalType": "uint256",
          "name": "totalShares",
          "type": "uint256"
        },
        {
          "indexed": false,
          "internalType": "uint256",
          "name": "reserve",
          "type": "uint256"
        },
        {
          "indexed": false,
          "internalType": "uint256",
          "name": "usedReserve",
          "type": "uint256"
        }
      ],
      "name": "LiquidityChanged",
      "type": "event"
    },
    {
      "anonymous": false,
      "inputs": [
        {
          "indexed": true,
          "internalType": "uint256",
          "name": "borrowTokenId",
          "type": "uint256"
        },
        {
          "indexed": true,
          "internalType": "address",
          "name": "borrower",
          "type": "address"
        },
        {
          "indexed": false,
          "internalType": "address",
          "name": "paymentToken",
          "type": "address"
        },
        {
          "indexed": false,
          "internalType": "uint112",
          "name": "interest",
          "type": "uint112"
        },
        {
          "indexed": false,
          "internalType": "uint112",
          "name": "serviceFee",
          "type": "uint112"
        },
        {
          "indexed": false,
          "internalType": "uint32",
          "name": "maturityTime",
          "type": "uint32"
        },
        {
          "indexed": false,
          "internalType": "uint32",
          "name": "borrowerReturnGraceTime",
          "type": "uint32"
        },
        {
          "indexed": false,
          "internalType": "uint32",
          "name": "enterpriseCollectGraceTime",
          "type": "uint32"
        }
      ],
      "name": "LoanExtended",
      "type": "event"
    },
    {
      "anonymous": false,
      "inputs": [
        {
          "indexed": true,
          "internalType": "uint256",
          "name": "borrowTokenId",
          "type": "uint256"
        },
        {
          "indexed": true,
          "internalType": "address",
          "name": "returner",
          "type": "address"
        },
        {
          "indexed": true,
          "internalType": "address",
          "name": "powerToken",
          "type": "address"
        },
        {
          "indexed": false,
          "internalType": "uint112",
          "name": "amount",
          "type": "uint112"
        },
        {
          "indexed": false,
          "internalType": "uint112",
          "name": "gcFee",
          "type": "uint112"
        },
        {
          "indexed": false,
          "internalType": "address",
          "name": "gcFeeToken",
          "type": "address"
        },
        {
          "indexed": false,
          "internalType": "uint256",
          "name": "reserve",
          "type": "uint256"
        },
        {
          "indexed": false,
          "internalType": "uint256",
          "name": "usedReserve",
          "type": "uint256"
        }
      ],
      "name": "LoanReturned",
      "type": "event"
    },
    {
      "anonymous": false,
      "inputs": [
        {
          "indexed": true,
          "internalType": "address",
          "name": "previousOwner",
          "type": "address"
        },
        {
          "indexed": true,
          "internalType": "address",
          "name": "newOwner",
          "type": "address"
        }
      ],
      "name": "OwnershipTransferred",
      "type": "event"
    },
    {
      "anonymous": false,
      "inputs": [
        {
          "indexed": false,
          "internalType": "address",
          "name": "paymentToken",
          "type": "address"
        },
        {
          "indexed": false,
          "internalType": "bool",
          "name": "enabled",
          "type": "bool"
        }
      ],
      "name": "PaymentTokenChange",
      "type": "event"
    },
    {
      "anonymous": false,
      "inputs": [
        {
          "indexed": true,
          "internalType": "address",
          "name": "powerToken",
          "type": "address"
        }
      ],
      "name": "ServiceRegistered",
      "type": "event"
    },
    {
      "anonymous": false,
      "inputs": [
        {
          "indexed": false,
          "internalType": "uint112",
          "name": "streamingReserve",
          "type": "uint112"
        },
        {
          "indexed": false,
          "internalType": "uint112",
          "name": "streamingReserveTarget",
          "type": "uint112"
        }
      ],
      "name": "StreamingReserveChanged",
      "type": "event"
    },
    {
      "inputs": [
        {
          "internalType": "uint256",
          "name": "liquidityAmount",
          "type": "uint256"
        }
      ],
      "name": "addLiquidity",
      "outputs": [],
      "stateMutability": "nonpayable",
      "type": "function"
    },
    {
      "inputs": [
        {
          "internalType": "address",
          "name": "powerToken",
          "type": "address"
        },
        {
          "internalType": "address",
          "name": "paymentToken",
          "type": "address"
        },
        {
          "internalType": "uint112",
          "name": "loanAmount",
          "type": "uint112"
        },
        {
          "internalType": "uint32",
          "name": "duration",
          "type": "uint32"
        },
        {
          "internalType": "uint256",
          "name": "maxPayment",
          "type": "uint256"
        }
      ],
      "name": "borrow",
      "outputs": [],
      "stateMutability": "nonpayable",
      "type": "function"
    },
    {
      "inputs": [
        {
          "internalType": "uint256",
          "name": "interestTokenId",
          "type": "uint256"
        },
        {
          "internalType": "uint256",
          "name": "liquidityAmount",
          "type": "uint256"
        }
      ],
      "name": "decreaseLiquidity",
      "outputs": [],
      "stateMutability": "nonpayable",
      "type": "function"
    },
    {
      "inputs": [
        {
          "internalType": "address",
          "name": "token",
          "type": "address"
        }
      ],
      "name": "disablePaymentToken",
      "outputs": [],
      "stateMutability": "nonpayable",
      "type": "function"
    },
    {
      "inputs": [
        {
          "internalType": "address",
          "name": "token",
          "type": "address"
        }
      ],
      "name": "enablePaymentToken",
      "outputs": [],
      "stateMutability": "nonpayable",
      "type": "function"
    },
    {
      "inputs": [
        {
          "internalType": "address",
          "name": "powerToken",
          "type": "address"
        },
        {
          "internalType": "address",
          "name": "paymentToken",
          "type": "address"
        },
        {
          "internalType": "uint112",
          "name": "amount",
          "type": "uint112"
        },
        {
          "internalType": "uint32",
          "name": "duration",
          "type": "uint32"
        }
      ],
      "name": "estimateLoan",
      "outputs": [
        {
          "internalType": "uint256",
          "name": "",
          "type": "uint256"
        }
      ],
      "stateMutability": "view",
      "type": "function"
    },
    {
      "inputs": [
        {
          "internalType": "uint256",
          "name": "interestTokenId",
          "type": "uint256"
        }
      ],
      "name": "getAccruedInterest",
      "outputs": [
        {
          "internalType": "uint256",
          "name": "",
          "type": "uint256"
        }
      ],
      "stateMutability": "view",
      "type": "function"
    },
    {
      "inputs": [],
      "name": "getAvailableReserve",
      "outputs": [
        {
          "internalType": "uint256",
          "name": "",
          "type": "uint256"
        }
      ],
      "stateMutability": "view",
      "type": "function"
    },
    {
      "inputs": [],
      "name": "getBaseUri",
      "outputs": [
        {
          "internalType": "string",
          "name": "",
          "type": "string"
        }
      ],
      "stateMutability": "view",
      "type": "function"
    },
    {
      "inputs": [],
      "name": "getBondingCurve",
      "outputs": [
        {
          "internalType": "uint256",
          "name": "pole",
          "type": "uint256"
        },
        {
          "internalType": "uint256",
          "name": "slope",
          "type": "uint256"
        }
      ],
      "stateMutability": "view",
      "type": "function"
    },
    {
      "inputs": [],
      "name": "getBorrowToken",
      "outputs": [
        {
          "internalType": "contract IBorrowToken",
          "name": "",
          "type": "address"
        }
      ],
      "stateMutability": "view",
      "type": "function"
    },
    {
      "inputs": [],
      "name": "getBorrowerLoanReturnGracePeriod",
      "outputs": [
        {
          "internalType": "uint32",
          "name": "",
          "type": "uint32"
        }
      ],
      "stateMutability": "view",
      "type": "function"
    },
    {
      "inputs": [],
      "name": "getConverter",
      "outputs": [
        {
          "internalType": "contract IConverter",
          "name": "",
          "type": "address"
        }
      ],
      "stateMutability": "view",
      "type": "function"
    },
    {
      "inputs": [],
      "name": "getEnterpriseCollector",
      "outputs": [
        {
          "internalType": "address",
          "name": "",
          "type": "address"
        }
      ],
      "stateMutability": "view",
      "type": "function"
    },
    {
      "inputs": [],
      "name": "getEnterpriseLoanCollectGracePeriod",
      "outputs": [
        {
          "internalType": "uint32",
          "name": "",
          "type": "uint32"
        }
      ],
      "stateMutability": "view",
      "type": "function"
    },
    {
      "inputs": [],
      "name": "getEnterpriseVault",
      "outputs": [
        {
          "internalType": "address",
          "name": "",
          "type": "address"
        }
      ],
      "stateMutability": "view",
      "type": "function"
    },
    {
      "inputs": [],
      "name": "getGCFeePercent",
      "outputs": [
        {
          "internalType": "uint16",
          "name": "",
          "type": "uint16"
        }
      ],
      "stateMutability": "view",
      "type": "function"
    },
    {
      "inputs": [],
      "name": "getInfo",
      "outputs": [
        {
          "internalType": "string",
          "name": "name",
          "type": "string"
        },
        {
          "internalType": "string",
          "name": "baseUri",
          "type": "string"
        },
        {
          "internalType": "uint256",
          "name": "totalShares",
          "type": "uint256"
        },
        {
          "internalType": "uint32",
          "name": "interestGapHalvingPeriod",
          "type": "uint32"
        },
        {
          "internalType": "uint32",
          "name": "borrowerLoanReturnGracePeriod",
          "type": "uint32"
        },
        {
          "internalType": "uint32",
          "name": "enterpriseLoanCollectGracePeriod",
          "type": "uint32"
        },
        {
          "internalType": "uint16",
          "name": "gcFeePercent",
          "type": "uint16"
        },
        {
          "internalType": "uint256",
          "name": "fixedReserve",
          "type": "uint256"
        },
        {
          "internalType": "uint256",
          "name": "usedReserve",
          "type": "uint256"
        },
        {
          "internalType": "uint112",
          "name": "streamingReserve",
          "type": "uint112"
        },
        {
          "internalType": "uint112",
          "name": "streamingReserveTarget",
          "type": "uint112"
        },
        {
          "internalType": "uint32",
          "name": "streamingReserveUpdated",
          "type": "uint32"
        }
      ],
      "stateMutability": "view",
      "type": "function"
    },
    {
      "inputs": [],
      "name": "getInterestGapHalvingPeriod",
      "outputs": [
        {
          "internalType": "uint32",
          "name": "",
          "type": "uint32"
        }
      ],
      "stateMutability": "view",
      "type": "function"
    },
    {
      "inputs": [],
      "name": "getInterestToken",
      "outputs": [
        {
          "internalType": "contract IInterestToken",
          "name": "",
          "type": "address"
        }
      ],
      "stateMutability": "view",
      "type": "function"
    },
    {
      "inputs": [
        {
          "internalType": "uint256",
          "name": "interestTokenId",
          "type": "uint256"
        }
      ],
      "name": "getLiquidityInfo",
      "outputs": [
        {
          "components": [
            {
              "internalType": "uint256",
              "name": "amount",
              "type": "uint256"
            },
            {
              "internalType": "uint256",
              "name": "shares",
              "type": "uint256"
            },
            {
              "internalType": "uint256",
              "name": "block",
              "type": "uint256"
            }
          ],
          "internalType": "struct EnterpriseStorage.LiquidityInfo",
          "name": "",
          "type": "tuple"
        }
      ],
      "stateMutability": "view",
      "type": "function"
    },
    {
      "inputs": [],
      "name": "getLiquidityToken",
      "outputs": [
        {
          "internalType": "contract IERC20Metadata",
          "name": "",
          "type": "address"
        }
      ],
      "stateMutability": "view",
      "type": "function"
    },
    {
      "inputs": [
        {
          "internalType": "uint256",
          "name": "borrowTokenId",
          "type": "uint256"
        }
      ],
      "name": "getLoanInfo",
      "outputs": [
        {
          "components": [
            {
              "internalType": "uint112",
              "name": "amount",
              "type": "uint112"
            },
            {
              "internalType": "uint16",
              "name": "powerTokenIndex",
              "type": "uint16"
            },
            {
              "internalType": "uint32",
              "name": "borrowingTime",
              "type": "uint32"
            },
            {
              "internalType": "uint32",
              "name": "maturityTime",
              "type": "uint32"
            },
            {
              "internalType": "uint32",
              "name": "borrowerReturnGraceTime",
              "type": "uint32"
            },
            {
              "internalType": "uint32",
              "name": "enterpriseCollectGraceTime",
              "type": "uint32"
            },
            {
              "internalType": "uint112",
              "name": "gcFee",
              "type": "uint112"
            },
            {
              "internalType": "uint16",
              "name": "gcFeeTokenIndex",
              "type": "uint16"
            }
          ],
          "internalType": "struct IEnterpriseStorage.LoanInfo",
          "name": "",
          "type": "tuple"
        }
      ],
      "stateMutability": "view",
      "type": "function"
    },
    {
      "inputs": [
        {
          "internalType": "uint256",
          "name": "index",
          "type": "uint256"
        }
      ],
      "name": "getPaymentToken",
      "outputs": [
        {
          "internalType": "address",
          "name": "",
          "type": "address"
        }
      ],
      "stateMutability": "view",
      "type": "function"
    },
    {
      "inputs": [
        {
          "internalType": "address",
          "name": "token",
          "type": "address"
        }
      ],
      "name": "getPaymentTokenIndex",
      "outputs": [
        {
          "internalType": "int16",
          "name": "",
          "type": "int16"
        }
      ],
      "stateMutability": "view",
      "type": "function"
    },
    {
      "inputs": [],
      "name": "getPowerTokens",
      "outputs": [
        {
          "internalType": "contract IPowerToken[]",
          "name": "",
          "type": "address[]"
        }
      ],
      "stateMutability": "view",
      "type": "function"
    },
    {
      "inputs": [],
      "name": "getProxyAdmin",
      "outputs": [
        {
          "internalType": "contract ProxyAdmin",
          "name": "",
          "type": "address"
        }
      ],
      "stateMutability": "view",
      "type": "function"
    },
    {
      "inputs": [],
      "name": "getReserve",
      "outputs": [
        {
          "internalType": "uint256",
          "name": "",
          "type": "uint256"
        }
      ],
      "stateMutability": "view",
      "type": "function"
    },
    {
      "inputs": [],
      "name": "getUsedReserve",
      "outputs": [
        {
          "internalType": "uint256",
          "name": "",
          "type": "uint256"
        }
      ],
      "stateMutability": "view",
      "type": "function"
    },
    {
      "inputs": [
        {
          "internalType": "uint256",
          "name": "interestTokenId",
          "type": "uint256"
        },
        {
          "internalType": "uint256",
          "name": "liquidityAmount",
          "type": "uint256"
        }
      ],
      "name": "increaseLiquidity",
      "outputs": [],
      "stateMutability": "nonpayable",
      "type": "function"
    },
    {
      "inputs": [
        {
          "internalType": "string",
          "name": "enterpriseName",
          "type": "string"
        },
        {
          "internalType": "string",
          "name": "baseUri",
          "type": "string"
        },
        {
          "internalType": "uint16",
          "name": "gcFeePercent",
          "type": "uint16"
        },
        {
          "internalType": "contract IConverter",
          "name": "converter",
          "type": "address"
        },
        {
          "internalType": "contract ProxyAdmin",
          "name": "proxyAdmin",
          "type": "address"
        },
        {
          "internalType": "address",
          "name": "owner",
          "type": "address"
        }
      ],
      "name": "initialize",
      "outputs": [],
      "stateMutability": "nonpayable",
      "type": "function"
    },
    {
      "inputs": [
        {
          "internalType": "address",
          "name": "initialOwner",
          "type": "address"
        }
      ],
      "name": "initialize",
      "outputs": [],
      "stateMutability": "nonpayable",
      "type": "function"
    },
    {
      "inputs": [
        {
          "internalType": "contract IERC20Metadata",
          "name": "liquidityToken",
          "type": "address"
        },
        {
          "internalType": "contract IInterestToken",
          "name": "interestToken",
          "type": "address"
        },
        {
          "internalType": "contract IBorrowToken",
          "name": "borrowToken",
          "type": "address"
        }
      ],
      "name": "initializeTokens",
      "outputs": [],
      "stateMutability": "nonpayable",
      "type": "function"
    },
    {
      "inputs": [
        {
          "internalType": "address",
          "name": "powerToken",
          "type": "address"
        }
      ],
      "name": "isRegisteredPowerToken",
      "outputs": [
        {
          "internalType": "bool",
          "name": "",
          "type": "bool"
        }
      ],
      "stateMutability": "view",
      "type": "function"
    },
    {
      "inputs": [
        {
          "internalType": "address",
          "name": "token",
          "type": "address"
        }
      ],
      "name": "isSupportedPaymentToken",
      "outputs": [
        {
          "internalType": "bool",
          "name": "",
          "type": "bool"
        }
      ],
      "stateMutability": "view",
      "type": "function"
    },
    {
      "inputs": [
        {
          "internalType": "address",
          "name": "from",
          "type": "address"
        },
        {
          "internalType": "address",
          "name": "to",
          "type": "address"
        },
        {
          "internalType": "uint256",
          "name": "borrowTokenId",
          "type": "uint256"
        }
      ],
      "name": "loanTransfer",
      "outputs": [],
      "stateMutability": "nonpayable",
      "type": "function"
    },
    {
      "inputs": [],
      "name": "owner",
      "outputs": [
        {
          "internalType": "address",
          "name": "",
          "type": "address"
        }
      ],
      "stateMutability": "view",
      "type": "function"
    },
    {
      "inputs": [
        {
          "internalType": "uint256",
          "name": "borrowTokenId",
          "type": "uint256"
        },
        {
          "internalType": "address",
          "name": "paymentToken",
          "type": "address"
        },
        {
          "internalType": "uint32",
          "name": "duration",
          "type": "uint32"
        },
        {
          "internalType": "uint256",
          "name": "maxPayment",
          "type": "uint256"
        }
      ],
      "name": "reborrow",
      "outputs": [],
      "stateMutability": "nonpayable",
      "type": "function"
    },
    {
      "inputs": [
        {
          "internalType": "string",
          "name": "serviceName",
          "type": "string"
        },
        {
          "internalType": "string",
          "name": "symbol",
          "type": "string"
        },
        {
          "internalType": "uint32",
          "name": "gapHalvingPeriod",
          "type": "uint32"
        },
        {
          "internalType": "uint112",
          "name": "baseRate",
          "type": "uint112"
        },
        {
          "internalType": "address",
          "name": "baseToken",
          "type": "address"
        },
        {
          "internalType": "uint16",
          "name": "serviceFeePercent",
          "type": "uint16"
        },
        {
          "internalType": "uint32",
          "name": "minLoanDuration",
          "type": "uint32"
        },
        {
          "internalType": "uint32",
          "name": "maxLoanDuration",
          "type": "uint32"
        },
        {
          "internalType": "uint96",
          "name": "minGCFee",
          "type": "uint96"
        },
        {
          "internalType": "bool",
          "name": "allowsPerpetualTokensForever",
          "type": "bool"
        },
        {
          "internalType": "bool",
          "name": "allowsTransfersForever",
          "type": "bool"
        }
      ],
      "name": "registerService",
      "outputs": [],
      "stateMutability": "nonpayable",
      "type": "function"
    },
    {
      "inputs": [
        {
          "internalType": "uint256",
          "name": "interestTokenId",
          "type": "uint256"
        }
      ],
      "name": "removeLiquidity",
      "outputs": [],
      "stateMutability": "nonpayable",
      "type": "function"
    },
    {
      "inputs": [
        {
          "internalType": "uint256",
          "name": "borrowTokenId",
          "type": "uint256"
        }
      ],
      "name": "returnLoan",
      "outputs": [],
      "stateMutability": "nonpayable",
      "type": "function"
    },
    {
      "inputs": [
        {
          "internalType": "string",
          "name": "baseUri",
          "type": "string"
        }
      ],
      "name": "setBaseUri",
      "outputs": [],
      "stateMutability": "nonpayable",
      "type": "function"
    },
    {
      "inputs": [
        {
          "internalType": "uint256",
          "name": "pole",
          "type": "uint256"
        },
        {
          "internalType": "uint256",
          "name": "slope",
          "type": "uint256"
        }
      ],
      "name": "setBondingCurve",
      "outputs": [],
      "stateMutability": "nonpayable",
      "type": "function"
    },
    {
      "inputs": [
        {
          "internalType": "uint32",
          "name": "newPeriod",
          "type": "uint32"
        }
      ],
      "name": "setBorrowerLoanReturnGracePeriod",
      "outputs": [],
      "stateMutability": "nonpayable",
      "type": "function"
    },
    {
      "inputs": [
        {
          "internalType": "contract IConverter",
          "name": "newConverter",
          "type": "address"
        }
      ],
      "name": "setConverter",
      "outputs": [],
      "stateMutability": "nonpayable",
      "type": "function"
    },
    {
      "inputs": [
        {
          "internalType": "address",
          "name": "newCollector",
          "type": "address"
        }
      ],
      "name": "setEnterpriseCollector",
      "outputs": [],
      "stateMutability": "nonpayable",
      "type": "function"
    },
    {
      "inputs": [
        {
          "internalType": "uint32",
          "name": "newPeriod",
          "type": "uint32"
        }
      ],
      "name": "setEnterpriseLoanCollectGracePeriod",
      "outputs": [],
      "stateMutability": "nonpayable",
      "type": "function"
    },
    {
      "inputs": [
        {
          "internalType": "address",
          "name": "newVault",
          "type": "address"
        }
      ],
      "name": "setEnterpriseVault",
      "outputs": [],
      "stateMutability": "nonpayable",
      "type": "function"
    },
    {
      "inputs": [
        {
          "internalType": "uint16",
          "name": "newGcFeePercent",
          "type": "uint16"
        }
      ],
      "name": "setGcFeePercent",
      "outputs": [],
      "stateMutability": "nonpayable",
      "type": "function"
    },
    {
      "inputs": [
        {
          "internalType": "uint32",
          "name": "interestGapHalvingPeriod",
          "type": "uint32"
        }
      ],
      "name": "setInterestGapHalvingPeriod",
      "outputs": [],
      "stateMutability": "nonpayable",
      "type": "function"
    },
    {
      "inputs": [],
      "name": "shutdownEnterpriseForever",
      "outputs": [],
      "stateMutability": "nonpayable",
      "type": "function"
    },
    {
      "inputs": [
        {
          "internalType": "address",
          "name": "newOwner",
          "type": "address"
        }
      ],
      "name": "transferOwnership",
      "outputs": [],
      "stateMutability": "nonpayable",
      "type": "function"
    },
    {
      "inputs": [
        {
          "internalType": "address",
          "name": "enterpriseImplementation",
          "type": "address"
        },
        {
          "internalType": "address",
          "name": "borrowTokenImplementation",
          "type": "address"
        },
        {
          "internalType": "address",
          "name": "interestTokenImplementation",
          "type": "address"
        },
        {
          "internalType": "address",
          "name": "powerTokenImplementation",
          "type": "address"
        },
        {
          "internalType": "address[]",
          "name": "powerTokens",
          "type": "address[]"
        }
      ],
      "name": "upgrade",
      "outputs": [],
      "stateMutability": "nonpayable",
      "type": "function"
    },
    {
      "inputs": [
        {
          "internalType": "uint256",
          "name": "interestTokenId",
          "type": "uint256"
        }
      ],
      "name": "withdrawInterest",
      "outputs": [],
      "stateMutability": "nonpayable",
      "type": "function"
    }
  ],
  "bytecode": "0x608060405234801561001057600080fd5b50615d2780620000216000396000f3fe608060405234801561001057600080fd5b50600436106102715760003560e01c8062ca339b146102765780630103f3131461028b5780630714012c146102b657806308669aab146102d65780630cac36b2146102e95780630ea1dc9e146102fe5780632261b07f14610318578063229304dc146103295780632e365ade1461034a5780632fb2067f1461035d5780633513e0dc14610380578063449497ec146103935780634741efb3146103a657806349bd4e89146103ae578063512a53bc146103c157806351c6590a146103d457806359bf5d39146103e75780635a4598df146103ef5780635a9b0b891461040d57806362c1f3881461042d578063644e44df146104405780636815f33714610451578063696f9c81146104645780637791c42d146104775780638188d50d1461048857806389035b611461049d5780638b3240a0146104c95780638c0114b0146104d15780638da5cb5b146104e457806390f55edd146104ec5780639339ea69146104ff5780639c7aa7f8146105125780639c8f9f2314610525578063a0bcfc7f14610538578063a0efd1181461054b578063a554b26d14610560578063aebb504114610571578063b19337a414610579578063b406bf6d1461058c578063b56de97e146105ad578063b96266fa146105c0578063bfd84fb4146105d5578063c4d66de8146105e8578063c93d0b92146105fb578063cdc2aebf1461060c578063df57f2fa1461061f578063e051ee4214610654578063e1a5fa4914610667578063e91261541461067a578063ed1fecc01461068d578063ef1f9f39146106a0578063f2fde38b146106b3578063faac38ef146106c6578063fcb2884e146106e1575b600080fd5b610289610284366004615021565b6106e9565b005b61029e610299366004614ed7565b610ed1565b60405160019190910b81526020015b60405180910390f35b6102c96102c43660046153fd565b610efe565b6040516102ad9190615771565b6102896102e43660046153fd565b611053565b6102f1611224565b6040516102ad9190615682565b6001546001600160a01b03165b6040516102ad9190615552565b6004546001600160a01b031661030b565b61033c610337366004614fc8565b6112b6565b6040519081526020016102ad565b610289610358366004615493565b6113df565b61037061036b366004614ed7565b6114c1565b60405190151581526020016102ad565b61028961038e366004615472565b6114e4565b6102896103a13660046153c5565b6115f1565b61028961167b565b6102896103bc366004615472565b611775565b6102896103cf366004615082565b6119f9565b6102896103e23660046153fd565b611c80565b61033c611e2a565b600354600160a01b900463ffffffff165b6040516102ad919061584e565b610415611e4f565b6040516102ad9c9b9a99989796959493929190615695565b61028961043b366004614ed7565b612012565b6000546001600160a01b031661030b565b61028961045f3660046151d9565b6120d8565b610289610472366004615472565b612404565b6006546001600160a01b031661030b565b600654600160a01b900463ffffffff16610400565b6103706104ab366004614ed7565b6001600160a01b031660009081526013602052604090205460ff1690565b61030b6125cd565b6102896104df36600461542d565b6125ee565b61030b612ae8565b6102896104fa366004614ed7565b612afe565b61033c61050d3660046153fd565b612bc4565b610289610520366004614ed7565b612c11565b6102896105333660046153fd565b612d57565b610289610546366004615128565b612fa6565b600654600160c01b900463ffffffff16610400565b6005546001600160a01b031661030b565b61033c61301e565b610289610587366004614ed7565b613035565b600654600160e01b900461ffff1660405161ffff90911681526020016102ad565b6102896105bb366004615493565b6130fb565b6105c86131d1565b6040516102ad91906155ec565b6102896105e3366004614ed7565b613232565b6102896105f6366004614ed7565b6132c8565b6002546001600160a01b031661030b565b61030b61061a3660046153fd565b61339d565b61063261062d3660046153fd565b6133db565b60408051825181526020808401519082015291810151908201526060016102ad565b61028961066236600461528b565b6134b5565b610289610675366004615493565b6139c4565b6102896106883660046153fd565b613a8a565b61028961069b366004614f0f565b613e7f565b6102896106ae3660046150de565b61418d565b6102896106c1366004614ed7565b61421c565b600e54600d54604080519283526020830191909152016102ad565b600a5461033c565b600354604080518082019091526002815261373560f01b602082015290600160c01b900460ff16156107375760405162461bcd60e51b815260040161072e9190615682565b60405180910390fd5b506001600160a01b03851660009081526013602090815260409182902054825180840190935260018352601b60f91b9183019190915260ff1661078d5760405162461bcd60e51b815260040161072e9190615682565b50610797846114c1565b604051806040016040528060028152602001610d0d60f21b815250906107d05760405162461bcd60e51b815260040161072e9190615682565b50604051636e4d898360e01b81526001600160a01b03861690636e4d8983906107fd90859060040161584e565b60206040518083038186803b15801561081557600080fd5b505afa158015610829573d6000803e3d6000fd5b505050506040513d601f19601f8201168201806040525081019061084d91906150c2565b60405180604001604052806002815260200161343560f01b815250906108865760405162461bcd60e51b815260040161072e9190615682565b506040805180820190915260028152611b9b60f11b60208201526001600160701b0384166108c75760405162461bcd60e51b815260040161072e9190615682565b506108d061301e565b836001600160701b03161115604051806040016040528060028152602001611a1b60f11b815250906109155760405162461bcd60e51b815260040161072e9190615682565b506000806000876001600160a01b0316639d5513d78888886040518463ffffffff1660e01b815260040161094b939291906155a3565b60606040518083038186803b15801561096357600080fd5b505afa158015610977573d6000803e3d6000fd5b505050506040513d601f19601f8201168201806040525081019061099b9190615384565b9194509250905060006109ae83856158b6565b6001600160701b0316905084826001600160701b0316826109cf91906158e1565b111560405180604001604052806002815260200161343760f01b81525090610a0a5760405162461bcd60e51b815260040161072e9190615682565b50610a208882856001600160701b03168761430d565b600254610a45906001600160a01b038a8116913391166001600160701b0386166144a1565b866001600160701b0316600a6000828254610a6091906158e1565b9091555042915060009050610a7587836158f9565b600654909150600090610a9590600160a01b900463ffffffff16836158f9565b600654909150600090610ab590600160c01b900463ffffffff16846158f9565b90506000600260009054906101000a90046001600160a01b03166001600160a01b031663caa0f92a6040518163ffffffff1660e01b8152600401602060405180830381600087803b158015610b0957600080fd5b505af1158015610b1d573d6000803e3d6000fd5b505050506040513d601f19601f82011682018060405250810190610b419190615415565b90506040518061010001604052808c6001600160701b031681526020018e6001600160a01b03166381045ead6040518163ffffffff1660e01b815260040160206040518083038186803b158015610b9757600080fd5b505afa158015610bab573d6000803e3d6000fd5b505050506040513d601f19601f82011682018060405250810190610bcf91906153e1565b61ffff1681526020018663ffffffff1681526020018563ffffffff1681526020018463ffffffff1681526020018363ffffffff168152602001876001600160701b03168152602001610c208e610ed1565b61ffff9081169091526000838152601160209081526040918290208451815492860151868501516060880151608089015160a08a01516001600160701b039586166001600160801b031998891617600160701b958b16860217600160801b600160c01b031916600160801b63ffffffff9586160263ffffffff60a01b191617600160a01b93851693909302929092176001600160c01b0316600160c01b918416919091026001600160e01b031617600160e01b929091169190910217835560c08701516001909301805460e0909801519390921696909316959095179316029190911790915560025490516335313c2160e11b815282916001600160a01b031690636a62784290610d35903390600401615552565b602060405180830381600087803b158015610d4f57600080fd5b505af1158015610d63573d6000803e3d6000fd5b505050506040513d601f19601f82011682018060405250810190610d879190615415565b14610da257634e487b7160e01b600052600160045260246000fd5b60405163f8642f2960e01b8152600481018290526001600160a01b038e169063f8642f2990602401600060405180830381600087803b158015610de457600080fd5b505af1158015610df8573d6000803e3d6000fd5b505050508c6001600160a01b0316336001600160a01b0316827f0606c34c8c2ec99faed8921c4f1a3a5c1108fc00ebe3884ff753ab267ef6ec288f8f8d8d8d8d8d8d8d610e43611e2a565b600a54604080516001600160a01b03909c168c526001600160701b039a8b1660208d0152988a16988b019890985295881660608a015296909316608088015263ffffffff91821660a0880152811660c087015290811660e08601529092166101008401526101208301919091526101408201526101600160405180910390a450505050505050505050505050565b6001600160a01b038116600090815260076020526040812054610ef890600190810b615957565b92915050565b6040805161010081018252600080825260208201819052818301819052606082018190526080820181905260a0820181905260c0820181905260e082015260025491516331a9108f60e11b81526004810184905290916001600160a01b031690636352211e9060240160206040518083038186803b158015610f7f57600080fd5b505afa158015610f93573d6000803e3d6000fd5b505050506040513d601f19601f82011682018060405250810190610fb79190614ef3565b505060009081526011602090815260409182902082516101008101845281546001600160701b038082168352600160701b80830461ffff90811696850196909652600160801b830463ffffffff90811697850197909752600160a01b830487166060850152600160c01b830487166080850152600160e01b90920490951660a083015260019092015493841660c082015292041660e082015290565b6001546040516331a9108f60e11b815260048101839052829133916001600160a01b0390911690636352211e9060240160206040518083038186803b15801561109b57600080fd5b505afa1580156110af573d6000803e3d6000fd5b505050506040513d601f19601f820116820180604052508101906110d39190614ef3565b6001600160a01b031614604051806040016040528060018152602001603360f81b815250906111155760405162461bcd60e51b815260040161072e9190615682565b5060008281526012602052604081209061112e84612bc4565b905061113861301e565b811115604051806040016040528060028152602001611a1b60f11b815250906111745760405162461bcd60e51b815260040161072e9190615682565b5060005461118c906001600160a01b03163383614512565b81546000611198611e2a565b905060006111a68383614531565b905060008186600101546111ba91906159c4565b90506111c68582614553565b600186018290556000336001600160a01b031689600080516020615b1283398151915288888688600c548d8c6111fc91906159c4565b600a54604051611212979695949392919061581e565b60405180910390a45050505050505050565b60606010805461123390615a07565b80601f016020809104026020016040519081016040528092919081815260200182805461125f90615a07565b80156112ac5780601f10611281576101008083540402835291602001916112ac565b820191906000526020600020905b81548152906001019060200180831161128f57829003601f168201915b5050505050905090565b600354604080518082019091526002815261373560f01b6020820152600091600160c01b900460ff16156112fd5760405162461bcd60e51b815260040161072e9190615682565b506001600160a01b03851660009081526013602090815260409182902054825180840190935260018352601b60f91b9183019190915260ff166113535760405162461bcd60e51b815260040161072e9190615682565b50604051631466370160e01b81526001600160a01b03861690631466370190611384908790879087906004016155a3565b60206040518083038186803b15801561139c57600080fd5b505afa1580156113b0573d6000803e3d6000fd5b505050506040513d601f19601f820116820180604052508101906113d49190615415565b90505b949350505050565b336113e8612ae8565b6001600160a01b031614604051806040016040528060018152602001603360f81b8152509061142a5760405162461bcd60e51b815260040161072e9190615682565b506006546040805180820190915260028152610d8d60f21b60208201529063ffffffff600160c01b909104811690831611156114795760405162461bcd60e51b815260040161072e9190615682565b506006805463ffffffff60a01b1916600160a01b63ffffffff841602179055604051600080516020615c72833981519152906114b690839061584e565b60405180910390a150565b6001600160a01b0316600090815260076020526040812054600190810b900b1390565b336114ed612ae8565b6001600160a01b031614604051806040016040528060018152602001603360f81b8152509061152f5760405162461bcd60e51b815260040161072e9190615682565b5061153f600a600360401b615918565b82111560405180604001604052806002815260200161373760f01b8152509061157b5760405162461bcd60e51b815260040161072e9190615682565b5060408051808201909152600281526106e760f31b6020820152600160401b8211156115ba5760405162461bcd60e51b815260040161072e9190615682565b50600e829055600d8190556040805183815260208101839052600080516020615b7283398151915291015b60405180910390a15050565b336115fa612ae8565b6001600160a01b031614604051806040016040528060018152602001603360f81b8152509061163c5760405162461bcd60e51b815260040161072e9190615682565b506006805461ffff60e01b1916600160e01b61ffff841690810291909117909155604051908152600080516020615bb2833981519152906020016114b6565b600354604080518082019091526002815261373560f01b602082015290600160c01b900460ff16156116c05760405162461bcd60e51b815260040161072e9190615682565b50336116ca612ae8565b6001600160a01b031614604051806040016040528060018152602001603360f81b8152509061170c5760405162461bcd60e51b815260040161072e9190615682565b5060038054600160c01b60ff60c01b199091161790556000600a819055600b8054600160701b81046001600160701b03166001600160701b03199091161790556040517f6f6348718c9a361558c634b516777b2b06bb2bf4140ad3d3bfaa44270fc2c0729190a1565b6001546040516331a9108f60e11b815260048101849052839133916001600160a01b0390911690636352211e9060240160206040518083038186803b1580156117bd57600080fd5b505afa1580156117d1573d6000803e3d6000fd5b505050506040513d601f19601f820116820180604052508101906117f59190614ef3565b6001600160a01b031614604051806040016040528060018152602001603360f81b815250906118375760405162461bcd60e51b815260040161072e9190615682565b50600083815260126020908152604091829020825160608101845281548152600182015481840152600291820154818501819052845180860190955291845261035360f41b9284019290925290919043116118a55760405162461bcd60e51b815260040161072e9190615682565b5080516040805180820190915260028152611a1b60f11b6020820152908411156118e25760405162461bcd60e51b815260040161072e9190615682565b506118eb61301e565b831115604051806040016040528060028152602001611a1b60f11b815250906119275760405162461bcd60e51b815260040161072e9190615682565b5060005461193f906001600160a01b03163385614512565b6000611949611e2a565b905060006119578583614531565b9050826020015181111561196c575060208201515b6119768582614553565b6020838101805183900380825285518890038652600089815260129093526040909220600181019290925584519182905551600c5460049233928a92600080516020615b12833981519152928b9290918891906119d3858c6159c4565b600a546040516119e9979695949392919061581e565b60405180910390a4505050505050565b600280546040805180820190915291825261333960f01b60208301526001600160a01b03163314611a3d5760405162461bcd60e51b815260040161072e9190615682565b506000818152601160209081526040918290205482518084019093526002835261068760f31b918301919091526001600160701b03169081611a925760405162461bcd60e51b815260040161072e9190615682565b5060008281526011602052604081205460148054600160a01b830463ffffffff164211936001600160a01b03898116159490891615939192600160701b90910461ffff16908110611af357634e487b7160e01b600052603260045260246000fd5b6000918252602090912001546001600160a01b031690508115611b755760405163079cc67960e41b81526001600160a01b038216906379cc679090611b3e908b908990600401615581565b600060405180830381600087803b158015611b5857600080fd5b505af1158015611b6c573d6000803e3d6000fd5b50505050611c76565b8215611ba9576040516340c10f1960e01b81526001600160a01b038216906340c10f1990611b3e908a908990600401615581565b83611c46576040516333bebb7760e01b81526001600160a01b03898116600483015288811660248301526001600160701b03871660448301528216906333bebb7790606401602060405180830381600087803b158015611c0857600080fd5b505af1158015611c1c573d6000803e3d6000fd5b505050506040513d601f19601f82011682018060405250810190611c4091906150c2565b50611c76565b60408051808201825260028152611a9960f11b6020820152905162461bcd60e51b815261072e9190600401615682565b5050505050505050565b600354604080518082019091526002815261373560f01b602082015290600160c01b900460ff1615611cc55760405162461bcd60e51b815260040161072e9190615682565b50600054611cde906001600160a01b03163330846144a1565b6000611ce8611e2a565b90506000600c54600014611d0557611d008383614531565b611d07565b825b9050611d1383826145d5565b6001546040516335313c2160e11b81526000916001600160a01b031690636a62784290611d44903390600401615552565b602060405180830381600087803b158015611d5e57600080fd5b505af1158015611d72573d6000803e3d6000fd5b505050506040513d601f19601f82011682018060405250810190611d969190615415565b60408051606081018252868152602080820186815243838501908152600086815260129093529390912091518255516001808301919091559151600290910155909150336001600160a01b031682600080516020615b1283398151915287888788600c548c8c611e0691906158e1565b600a54604051611e1c979695949392919061581e565b60405180910390a450505050565b6000611e34614626565b6001600160701b0316600954611e4a91906158e1565b905090565b600c54600354600654600954600a54600b54600f805460609788976000978897889788978897889788978897889788979496601096939563ffffffff600160a01b94859004811696948404811695600160c01b850482169561ffff600160e01b9687900416959394936001600160701b0380841694600160701b8504909116939190910416908c90611ee090615a07565b80601f0160208091040260200160405190810160405280929190818152602001828054611f0c90615a07565b8015611f595780601f10611f2e57610100808354040283529160200191611f59565b820191906000526020600020905b815481529060010190602001808311611f3c57829003601f168201915b50505050509b508a8054611f6c90615a07565b80601f0160208091040260200160405190810160405280929190818152602001828054611f9890615a07565b8015611fe55780601f10611fba57610100808354040283529160200191611fe5565b820191906000526020600020905b815481529060010190602001808311611fc857829003601f168201915b50505050509a509b509b509b509b509b509b509b509b509b509b509b509b50909192939495969798999a9b565b3361201b612ae8565b6001600160a01b031614604051806040016040528060018152602001603360f81b8152509061205d5760405162461bcd60e51b815260040161072e9190615682565b50604080518082019091526002815261363160f01b60208201526001600160a01b03821661209e5760405162461bcd60e51b815260040161072e9190615682565b50600580546001600160a01b0319166001600160a01b038316179055604051600080516020615c52833981519152906114b6908390615552565b600f80546120e590615a07565b6040805180820190915260018152601960f91b602082015291501561211d5760405162461bcd60e51b815260040161072e9190615682565b50612127816132c8565b81600080516020615b9283398151915280546001600160a01b03929092166001600160a01b03199283161790556003805490911633179055865161217290600f9060208a0190614cd7565b5061217f60108787614d5b565b5060068054600480546001600160a01b03199081166001600160a01b03888116919091179092556005805492861692909116821790556003805463ffffffff60a01b191661127560a71b179055600165ffff0000000160c01b0319909116600160e01b61ffff8816026001600160c01b03191617176102a360a61b1763ffffffff60c01b19166102a360c71b17905561221d6064600560401b615918565b600e5561222f600a600360401b615918565b600d55604051600080516020615af2833981519152906122529088908890615653565b60405180910390a1600654604051600160e01b90910461ffff168152600080516020615bb28339815191529060200160405180910390a1600454604051600080516020615bf2833981519152916122b4916001600160a01b0390911690615552565b60405180910390a1600654604051600080516020615bd2833981519152916122e7916001600160a01b0390911690615552565b60405180910390a1600554604051600080516020615c528339815191529161231a916001600160a01b0390911690615552565b60405180910390a1600080516020615cb2833981519152600360149054906101000a900463ffffffff16604051612351919061584e565b60405180910390a1600080516020615c72833981519152600660149054906101000a900463ffffffff16604051612388919061584e565b60405180910390a1600080516020615b52833981519152600660189054906101000a900463ffffffff166040516123bf919061584e565b60405180910390a1600080516020615b72833981519152600e54600d546040516123f3929190918252602082015260400190565b60405180910390a150505050505050565b600354604080518082019091526002815261373560f01b602082015290600160c01b900460ff16156124495760405162461bcd60e51b815260040161072e9190615682565b506001546040516331a9108f60e11b815260048101849052839133916001600160a01b0390911690636352211e9060240160206040518083038186803b15801561249257600080fd5b505afa1580156124a6573d6000803e3d6000fd5b505050506040513d601f19601f820116820180604052508101906124ca9190614ef3565b6001600160a01b031614604051806040016040528060018152602001603360f81b8152509061250c5760405162461bcd60e51b815260040161072e9190615682565b50600054612525906001600160a01b03163330856144a1565b600061252f611e2a565b90506000600c5460001461254c576125478483614531565b61254e565b835b905061255a84826145d5565b600085815260126020526040812080549091906125789087906158e1565b9050600083836001015461258c91906158e1565b8284556001840181905543600285015590506003336001600160a01b031689600080516020615b128339815191528a868987600c548f8e6111fc91906158e1565b6000600080516020615b928339815191525b546001600160a01b0316919050565b600354604080518082019091526002815261373560f01b602082015290600160c01b900460ff16156126335760405162461bcd60e51b815260040161072e9190615682565b5061263d836114c1565b604051806040016040528060028152602001610d0d60f21b815250906126765760405162461bcd60e51b815260040161072e9190615682565b50600084815260116020908152604091829020805483518085019094526002845261068760f31b9284019290925291906001600160701b03166126cc5760405162461bcd60e51b815260040161072e9190615682565b50805460148054600092600160701b900461ffff169081106126fe57634e487b7160e01b600052603260045260246000fd5b600091825260209091200154604051636e4d898360e01b81526001600160a01b0390911691508190636e4d89839061273a90879060040161584e565b60206040518083038186803b15801561275257600080fd5b505afa158015612766573d6000803e3d6000fd5b505050506040513d601f19601f8201168201806040525081019061278a91906150c2565b60405180604001604052806002815260200161343560f01b815250906127c35760405162461bcd60e51b815260040161072e9190615682565b50815442906127e0908690600160a01b900463ffffffff166158f9565b63ffffffff16101560405180604001604052806002815260200161343960f01b815250906128215760405162461bcd60e51b815260040161072e9190615682565b508154600a80546001600160701b03909216916000906128429084906159c4565b90915550508154604051639d5513d760e01b815260009182916001600160a01b03851691639d5513d791612888918b916001600160701b03909116908b906004016155a3565b60606040518083038186803b1580156128a057600080fd5b505afa1580156128b4573d6000803e3d6000fd5b505050506040513d601f19601f820116820180604052508101906128d89190615384565b508554600a80546001600160701b0390921690910190559092509050600061290082846158b6565b6001600160701b031690508581111560405180604001604052806002815260200161343760f01b815250906129485760405162461bcd60e51b815260040161072e9190615682565b5061295e8882846001600160701b03168661430d565b845460009061297b908990600160a01b900463ffffffff166158f9565b60065490915060009061299b90600160a01b900463ffffffff16836158f9565b6006549091506000906129bb90600160c01b900463ffffffff16846158f9565b8854600160a01b600160e01b031916600160a01b63ffffffff8681169190910263ffffffff60c01b191691909117600160c01b85831602176001600160e01b0316600160e01b9183169190910217895560405163f8642f2960e01b8152600481018e90529091506001600160a01b0388169063f8642f2990602401600060405180830381600087803b158015612a5057600080fd5b505af1158015612a64573d6000803e3d6000fd5b5050604080516001600160a01b038f1681526001600160701b038a8116602083015289168183015263ffffffff87811660608301528681166080830152851660a082015290513393508f92507f89d8cafb66c1254c316d74e8fb6f0386656c633ae83763dffdf797ca4843a29c9181900360c00190a3505050505050505050505050565b6000600080516020615b328339815191526125df565b33612b07612ae8565b6001600160a01b031614604051806040016040528060018152602001603360f81b81525090612b495760405162461bcd60e51b815260040161072e9190615682565b506040805180820190915260028152611b1960f11b60208201526001600160a01b038216612b8a5760405162461bcd60e51b815260040161072e9190615682565b50600680546001600160a01b0319166001600160a01b038316179055604051600080516020615bd2833981519152906114b6908390615552565b600081815260126020526040812060018101548290612bea90612be5611e2a565b61468e565b8254909150811115612c07578154612c0290826159c4565b6113d7565b6000949350505050565b33612c1a612ae8565b6001600160a01b031614604051806040016040528060018152602001603360f81b81525090612c5c5760405162461bcd60e51b815260040161072e9190615682565b506001600160a01b03811660009081526007602090815260409182902054825180840190935260028352611b9960f11b91830191909152600190810b900b612cb75760405162461bcd60e51b815260040161072e9190615682565b506001600160a01b038116600090815260076020526040812054600190810b900b1315612d54576001600160a01b038116600090815260076020526040902054612d039060010b615a5d565b6001600160a01b038216600090815260076020526040808220805460019490940b61ffff1661ffff19909416939093179092559051600080516020615c92833981519152916114b691849190615566565b50565b6001546040516331a9108f60e11b815260048101839052829133916001600160a01b0390911690636352211e9060240160206040518083038186803b158015612d9f57600080fd5b505afa158015612db3573d6000803e3d6000fd5b505050506040513d601f19601f82011682018060405250810190612dd79190614ef3565b6001600160a01b031614604051806040016040528060018152602001603360f81b81525090612e195760405162461bcd60e51b815260040161072e9190615682565b5060006012600084815260200190815260200160002090504381600201541060405180604001604052806002815260200161035360f41b81525090612e715760405162461bcd60e51b815260040161072e9190615682565b5060018101546000612e81611e2a565b90506000612e8f838361468e565b9050612e9961301e565b811115604051806040016040528060028152602001611a1b60f11b81525090612ed55760405162461bcd60e51b815260040161072e9190615682565b50600054612eed906001600160a01b03163383614512565b612ef78184614553565b600154604051630852cd8d60e31b8152600481018890526001600160a01b03909116906342966c6890602401600060405180830381600087803b158015612f3d57600080fd5b505af1158015612f51573d6000803e3d6000fd5b5050506000878152601260205260408120818155600181018290556002908101919091559050336001600160a01b031687600080516020615b12833981519152846000886000600c54898b6119d391906159c4565b33612faf612ae8565b6001600160a01b031614604051806040016040528060018152602001603360f81b81525090612ff15760405162461bcd60e51b815260040161072e9190615682565b50612ffe60108383614d5b565b50600080516020615af283398151915282826040516115e5929190615653565b6000600a5461302b611e2a565b611e4a91906159c4565b3361303e612ae8565b6001600160a01b031614604051806040016040528060018152602001603360f81b815250906130805760405162461bcd60e51b815260040161072e9190615682565b50604080518082019091526002815261363360f01b60208201526001600160a01b0382166130c15760405162461bcd60e51b815260040161072e9190615682565b50600480546001600160a01b0319166001600160a01b038316179055604051600080516020615bf2833981519152906114b6908390615552565b33613104612ae8565b6001600160a01b031614604051806040016040528060018152602001603360f81b815250906131465760405162461bcd60e51b815260040161072e9190615682565b50600654604080518082019091526002815261363560f01b60208201529063ffffffff808416600160a01b9092041611156131945760405162461bcd60e51b815260040161072e9190615682565b506006805463ffffffff60c01b1916600160c01b63ffffffff841602179055604051600080516020615b52833981519152906114b690839061584e565b606060148054806020026020016040519081016040528092919081815260200182805480156112ac57602002820191906000526020600020905b81546001600160a01b0316815260019091019060200180831161320b575050505050905090565b3361323b612ae8565b6001600160a01b031614604051806040016040528060018152602001603360f81b8152509061327d5760405162461bcd60e51b815260040161072e9190615682565b50604080518082019091526002815261373160f01b60208201526001600160a01b0382166132be5760405162461bcd60e51b815260040161072e9190615682565b50612d548161469e565b60006132d2612ae8565b6001600160a01b031614604051806040016040528060018152602001601960f91b815250906133145760405162461bcd60e51b815260040161072e9190615682565b50604080518082019091526002815261373360f01b60208201526001600160a01b0382166133555760405162461bcd60e51b815260040161072e9190615682565b50600080516020615b3283398151915280546001600160a01b0319166001600160a01b038316908117909155604051600090600080516020615c32833981519152908290a350565b6000600882815481106133c057634e487b7160e01b600052603260045260246000fd5b6000918252602090912001546001600160a01b031692915050565b6133ff60405180606001604052806000815260200160008152602001600081525090565b6001546040516331a9108f60e11b8152600481018490526001600160a01b0390911690636352211e9060240160206040518083038186803b15801561344357600080fd5b505afa158015613457573d6000803e3d6000fd5b505050506040513d601f19601f8201168201806040525081019061347b9190614ef3565b5050600090815260126020908152604091829020825160608101845281548152600182015492810192909252600201549181019190915290565b336134be612ae8565b6001600160a01b031614604051806040016040528060018152602001603360f81b815250906135005760405162461bcd60e51b815260040161072e9190615682565b50600354604080518082019091526002815261373560f01b602082015290600160c01b900460ff16156135465760405162461bcd60e51b815260040161072e9190615682565b50604080518082019091526002815261034360f41b60208201526001600160a01b0388166135875760405162461bcd60e51b815260040161072e9190615682565b50601454604080518082019091526002815261343160f01b60208201529061ffff116135c65760405162461bcd60e51b815260040161072e9190615682565b506003546000906001600160a01b031663c31011cc6135e36125cd565b6040518263ffffffff1660e01b81526004016135ff9190615552565b602060405180830381600087803b15801561361957600080fd5b505af115801561362d573d6000803e3d6000fd5b505050506040513d601f19601f820116820180604052508101906136519190614ef3565b905060008060009054906101000a90046001600160a01b03166001600160a01b03166395d89b416040518163ffffffff1660e01b815260040160006040518083038186803b1580156136a257600080fd5b505afa1580156136b6573d6000803e3d6000fd5b505050506040513d6000823e601f3d908101601f191682016040526136de9190810190615167565b90506000818d6040516020016136f5929190615516565b6040516020818303038152906040529050826001600160a01b0316631624f6c68f8360008054906101000a90046001600160a01b03166001600160a01b031663313ce5676040518163ffffffff1660e01b815260040160206040518083038186803b15801561376357600080fd5b505afa158015613777573d6000803e3d6000fd5b505050506040513d601f19601f8201168201806040525081019061379b91906154ad565b6040518463ffffffff1660e01b81526004016137b993929190615738565b600060405180830381600087803b1580156137d357600080fd5b505af11580156137e7573d6000803e3d6000fd5b505050505050806001600160a01b031663748abb02308b878e6014805490508e6040518763ffffffff1660e01b8152600401613877969594939291906001600160a01b0396871681526001600160701b039590951660208601526001600160601b0393909316604085015263ffffffff91909116606084015261ffff16608083015290911660a082015260c00190565b600060405180830381600087803b15801561389157600080fd5b505af11580156138a5573d6000803e3d6000fd5b5050604051639a97db4560e01b815263ffffffff808a1660048301528816602482015261ffff8a166044820152851515606482015284151560848201526001600160a01b0384169250639a97db45915060a401600060405180830381600087803b15801561391257600080fd5b505af1158015613926573d6000803e3d6000fd5b50506014805460018082019092557fce6d7b5282bd9a3661ae061feed1dbda4e52ab073b1f9285be6e155d9c38d4ec0180546001600160a01b0319166001600160a01b038616908117909155600081815260136020526040808220805460ff191690941790935591519093507f2fa31fbaacf5eaf61d648ea7528ada6efb69bfb06d2c3bd35ce511a820fce53e9250a2505050505050505050505050565b336139cd612ae8565b6001600160a01b031614604051806040016040528060018152602001603360f81b81525090613a0f5760405162461bcd60e51b815260040161072e9190615682565b506040805180820190915260028152611b1b60f11b602082015263ffffffff8216613a4d5760405162461bcd60e51b815260040161072e9190615682565b506003805463ffffffff60a01b1916600160a01b63ffffffff841602179055604051600080516020615cb2833981519152906114b690839061584e565b60008181526011602090815260409182902082516101008101845281546001600160701b0380821680845261ffff600160701b80850482168689015263ffffffff600160801b86048116878b0152600160a01b860481166060880152600160c01b860481166080880152600160e01b90950490941660a086015260019095015491821660c085015291900490921660e082015283518085019094526002845261068760f31b92840192909252909190613b565760405162461bcd60e51b815260040161072e9190615682565b506002546040516331a9108f60e11b8152600481018490526000916001600160a01b031690636352211e9060240160206040518083038186803b158015613b9c57600080fd5b505afa158015613bb0573d6000803e3d6000fd5b505050506040513d601f19601f82011682018060405250810190613bd49190614ef3565b905060004290508063ffffffff16836080015163ffffffff161080613c015750336001600160a01b038316145b60405180604001604052806002815260200161353360f01b81525090613c3a5760405162461bcd60e51b815260040161072e9190615682565b508063ffffffff168360a0015163ffffffff161080613c615750336001600160a01b038316145b80613c7657506005546001600160a01b031633145b604051806040016040528060028152602001610d4d60f21b81525090613caf5760405162461bcd60e51b815260040161072e9190615682565b50600354600160c01b900460ff16613ce65782600001516001600160701b0316600a6000828254613ce091906159c4565b90915550505b6014836020015161ffff1681548110613d0f57634e487b7160e01b600052603260045260246000fd5b9060005260206000200160009054906101000a90046001600160a01b03166001600160a01b0316336001600160a01b0316857f8aaa205a62511774004899f15c5181b7c5865c381dcb3320af8e91b31b6326ab86600001518760c0015160088960e0015161ffff1681548110613d9557634e487b7160e01b600052603260045260246000fd5b6000918252602090912001546001600160a01b0316613db2611e2a565b600a54604080516001600160701b0396871681529490951660208501526001600160a01b0392909216838501526060830152608082015290519081900360a00190a4600254604051633f34d4cf60e21b8152600481018690523360248201526001600160a01b039091169063fcd3533c90604401600060405180830381600087803b158015613e4057600080fd5b505af1158015613e54573d6000803e3d6000fd5b50505060009485525050601160205250506040812090815560010180546001600160801b0319169055565b33613e88612ae8565b6001600160a01b031614604051806040016040528060018152602001603360f81b81525090613eca5760405162461bcd60e51b815260040161072e9190615682565b506000613ed56125cd565b90506001600160a01b03871615613f475760405163266a23b160e21b81526001600160a01b038216906399a88ec490613f149030908b90600401615639565b600060405180830381600087803b158015613f2e57600080fd5b505af1158015613f42573d6000803e3d6000fd5b505050505b6001600160a01b03861615613fbd5760025460405163266a23b160e21b81526001600160a01b03838116926399a88ec492613f8a92909116908a90600401615639565b600060405180830381600087803b158015613fa457600080fd5b505af1158015613fb8573d6000803e3d6000fd5b505050505b6001600160a01b038516156140335760015460405163266a23b160e21b81526001600160a01b03838116926399a88ec49261400092909116908990600401615639565b600060405180830381600087803b15801561401a57600080fd5b505af115801561402e573d6000803e3d6000fd5b505050505b6001600160a01b038416156141845760005b82811015611c76576013600085858481811061407157634e487b7160e01b600052603260045260246000fd5b90506020020160208101906140869190614ed7565b6001600160a01b03168152602080820192909252604090810160002054815180830190925260018252601b60f91b928201929092529060ff166140dc5760405162461bcd60e51b815260040161072e9190615682565b50816001600160a01b03166399a88ec485858481811061410c57634e487b7160e01b600052603260045260246000fd5b90506020020160208101906141219190614ed7565b876040518363ffffffff1660e01b815260040161413f929190615639565b600060405180830381600087803b15801561415957600080fd5b505af115801561416d573d6000803e3d6000fd5b50505050808061417c90615a42565b915050614045565b50505050505050565b6000546040805180820190915260018152601960f91b6020820152906001600160a01b0316156141d05760405162461bcd60e51b815260040161072e9190615682565b50600080546001600160a01b038086166001600160a01b0319928316179092556001805485841690831617905560028054928416929091169190911790556142178361469e565b505050565b33614225612ae8565b6001600160a01b031614604051806040016040528060018152602001603360f81b815250906142675760405162461bcd60e51b815260040161072e9190615682565b50604080518082019091526002815261373360f01b60208201526001600160a01b0382166142a85760405162461bcd60e51b815260040161072e9190615682565b50806001600160a01b03166142bb612ae8565b6001600160a01b0316600080516020615c3283398151915260405160405180910390a3600080516020615b3283398151915280546001600160a01b0319166001600160a01b0392909216919091179055565b6143226001600160a01b0385163330866144a1565b6000548390839083906001600160a01b0388811691161461447b576004805460405163095ea7b360e01b81526001600160a01b03808b169363095ea7b39361436f939216918b91016155d3565b602060405180830381600087803b15801561438957600080fd5b505af115801561439d573d6000803e3d6000fd5b505050506040513d601f19601f820116820180604052508101906143c191906150c2565b506004805460005460405163029b465d60e01b81526001600160a01b038b811694820194909452602481018a9052908316604482015291169063029b465d90606401602060405180830381600087803b15801561441d57600080fd5b505af1158015614431573d6000803e3d6000fd5b505050506040513d601f19601f820116820180604052508101906144559190615415565b9250856144628487615938565b61446c9190615918565b915061447882846159c4565b90505b600654600054614498916001600160a01b03918216911684614512565b614184816147e9565b6040516001600160a01b038085166024830152831660448201526064810182905261450c9085906323b872dd60e01b906084015b60408051601f198184030181529190526020810180516001600160e01b03166001600160e01b03199093169290921790915261489b565b50505050565b6142178363a9059cbb60e01b84846040516024016144d59291906155d3565b60008183600c546145429190615938565b61454c9190615918565b9392505050565b80600c600082825461456591906159c4565b90915550506009548211614581576009805483900390556145b4565b600061458b61496d565b6001600160701b0316905082816009546145a591906158e1565b6145af91906159c4565b600955505b600080516020615cd28339815191526009546040516115e591815260200190565b80600c60008282546145e791906158e1565b92505081905550816009600082825461460091906158e1565b9091555050600954604051908152600080516020615cd2833981519152906020016115e5565b600b546000906146719063ffffffff600160e01b8204169061465b906001600160701b0380821691600160701b90041661599c565b600354600160a01b900463ffffffff1642614a2b565b600b54611e4a9190600160701b90046001600160701b031661599c565b600c546000906145428484615938565b6001600160a01b038116600090815260076020526040902054600190810b900b6147545760088054600181810183557ff3f7a9fe364faab93b216da50a3214154f22a0a2b415b23a84c8169e8b636ee390910180546001600160a01b0385166001600160a01b03199091168117909155915460009283526007602052604092839020805491830b61ffff1661ffff199092169190911790559051600080516020615c92833981519152916114b691849190615566565b6001600160a01b038116600090815260076020526040812054600190810b900b1215612d54576001600160a01b03811660009081526007602052604090205461479f9060010b615a5d565b6001600160a01b03821660009081526007602052604090819020805461ffff191661ffff600194850b1617905551600080516020615c92833981519152916114b691849190615566565b6147f1614626565b600b80546001600160701b0319166001600160701b03928316178082558392600e91614826918591600160701b9004166158b6565b82546001600160701b039182166101009390930a928302928202191691909117909155600b805463ffffffff4216600160e01b026001600160e01b038216811792839055604051600080516020615c1283398151915295506114b6949182169282169290921792600160701b90041690615804565b60006148f0826040518060400160405280602081526020017f5361666545524332303a206c6f772d6c6576656c2063616c6c206661696c6564815250856001600160a01b0316614bcc9092919063ffffffff16565b805190915015614217578080602001905181019061490e91906150c2565b6142175760405162461bcd60e51b815260206004820152602a60248201527f5361666545524332303a204552433230206f7065726174696f6e20646964206e6044820152691bdd081cdd58d8d9595960b21b606482015260840161072e565b6000614977614626565b600b80546001600160701b0319168082559192508291600e906149ab908490600160701b90046001600160701b031661599c565b82546001600160701b039182166101009390930a928302928202191691909117909155600b805463ffffffff4216600160e01b026001600160e01b038216811792839055604051600080516020615c128339815191529550614a20949182169282169290921792600160701b90041690615804565b60405180910390a190565b60008463ffffffff168263ffffffff161015604051806040016040528060018152602001600760fb1b81525090614a755760405162461bcd60e51b815260040161072e9190615682565b5084820391508263ffffffff168263ffffffff1681614aa457634e487b7160e01b600052601260045260246000fd5b0463ffffffff16846001600160701b0316901c93508263ffffffff168263ffffffff1681614ae257634e487b7160e01b600052601260045260246000fd5b06915063ffffffff82161580614aff57506001600160701b038416155b15614b0b5750826113d7565b60006001600160701b0385168163ffffffff86811690861671b17217f7d1cf79abc9e3b39803f2f6af40f30281614b5257634e487b7160e01b600052601260045260246000fd5b049050600160901b5b8215614bbf57928201928082840281614b8457634e487b7160e01b600052601260045260246000fd5b0493849003939250600160901b018082840281614bb157634e487b7160e01b600052601260045260246000fd5b049250600160901b01614b5b565b5091979650505050505050565b60606113d7848460008585843b614c255760405162461bcd60e51b815260206004820152601d60248201527f416464726573733a2063616c6c20746f206e6f6e2d636f6e7472616374000000604482015260640161072e565b600080866001600160a01b03168587604051614c4191906154fa565b60006040518083038185875af1925050503d8060008114614c7e576040519150601f19603f3d011682016040523d82523d6000602084013e614c83565b606091505b5091509150614c93828286614c9e565b979650505050505050565b60608315614cad57508161454c565b825115614cbd5782518084602001fd5b8160405162461bcd60e51b815260040161072e9190615682565b828054614ce390615a07565b90600052602060002090601f016020900481019282614d055760008555614d4b565b82601f10614d1e57805160ff1916838001178555614d4b565b82800160010185558215614d4b579182015b82811115614d4b578251825591602001919060010190614d30565b50614d57929150614dcf565b5090565b828054614d6790615a07565b90600052602060002090601f016020900481019282614d895760008555614d4b565b82601f10614da25782800160ff19823516178555614d4b565b82800160010185558215614d4b579182015b82811115614d4b578235825591602001919060010190614db4565b5b80821115614d575760008155600101614dd0565b8035614def81615aa9565b919050565b8035614def81615abe565b60008083601f840112614e10578182fd5b5081356001600160401b03811115614e26578182fd5b602083019150836020828501011115614e3e57600080fd5b9250929050565b600082601f830112614e55578081fd5b8135614e68614e638261588f565b61585f565b818152846020838601011115614e7c578283fd5b816020850160208301379081016020019190915292915050565b8035614def81615acc565b8035614def81615ae1565b803563ffffffff81168114614def57600080fd5b80356001600160601b0381168114614def57600080fd5b600060208284031215614ee8578081fd5b813561454c81615aa9565b600060208284031215614f04578081fd5b815161454c81615aa9565b60008060008060008060a08789031215614f27578182fd5b8635614f3281615aa9565b95506020870135614f4281615aa9565b94506040870135614f5281615aa9565b93506060870135614f6281615aa9565b925060808701356001600160401b0380821115614f7d578384fd5b818901915089601f830112614f90578384fd5b813581811115614f9e578485fd5b8a60208260051b8501011115614fb2578485fd5b6020830194508093505050509295509295509295565b60008060008060808587031215614fdd578384fd5b8435614fe881615aa9565b93506020850135614ff881615aa9565b9250604085013561500881615acc565b915061501660608601614eac565b905092959194509250565b600080600080600060a08688031215615038578283fd5b853561504381615aa9565b9450602086013561505381615aa9565b9350604086013561506381615acc565b925061507160608701614eac565b949793965091946080013592915050565b600080600060608486031215615096578081fd5b83356150a181615aa9565b925060208401356150b181615aa9565b929592945050506040919091013590565b6000602082840312156150d3578081fd5b815161454c81615abe565b6000806000606084860312156150f2578081fd5b83356150fd81615aa9565b9250602084013561510d81615aa9565b9150604084013561511d81615aa9565b809150509250925092565b6000806020838503121561513a578182fd5b82356001600160401b0381111561514f578283fd5b61515b85828601614dff565b90969095509350505050565b600060208284031215615178578081fd5b81516001600160401b0381111561518d578182fd5b8201601f8101841361519d578182fd5b80516151ab614e638261588f565b8181528560208385010111156151bf578384fd5b6151d08260208301602086016159db565b95945050505050565b600080600080600080600060c0888a0312156151f3578485fd5b87356001600160401b0380821115615209578687fd5b6152158b838c01614e45565b985060208a013591508082111561522a578687fd5b506152378a828b01614dff565b909750955050604088013561524b81615ae1565b9350606088013561525b81615aa9565b9250608088013561526b81615aa9565b915060a088013561527b81615aa9565b8091505092959891949750929550565b60008060008060008060008060008060006101608c8e0312156152ac578485fd5b6001600160401b038c358110156152c1578586fd5b6152ce8e8e358f01614e45565b9b508060208e013511156152e0578586fd5b506152f18d60208e01358e01614e45565b99506152ff60408d01614eac565b985061530d60608d01614e96565b975061531b60808d01614de4565b965061532960a08d01614ea1565b955061533760c08d01614eac565b945061534560e08d01614eac565b93506153546101008d01614ec0565b92506153636101208d01614df4565b91506153726101408d01614df4565b90509295989b509295989b9093969950565b600080600060608486031215615398578081fd5b83516153a381615acc565b60208501519093506153b481615acc565b604085015190925061511d81615acc565b6000602082840312156153d6578081fd5b813561454c81615ae1565b6000602082840312156153f2578081fd5b815161454c81615ae1565b60006020828403121561540e578081fd5b5035919050565b600060208284031215615426578081fd5b5051919050565b60008060008060808587031215615442578182fd5b84359350602085013561545481615aa9565b925061546260408601614eac565b9396929550929360600135925050565b60008060408385031215615484578182fd5b50508035926020909101359150565b6000602082840312156154a4578081fd5b61454c82614eac565b6000602082840312156154be578081fd5b815160ff8116811461454c578182fd5b600081518084526154e68160208601602086016159db565b601f01601f19169290920160200192915050565b6000825161550c8184602087016159db565b9190910192915050565b600083516155288184602088016159db565b600160fd1b90830190815283516155468160018401602088016159db565b01600101949350505050565b6001600160a01b0391909116815260200190565b6001600160a01b039290921682521515602082015260400190565b6001600160a01b039290921682526001600160701b0316602082015260400190565b6001600160a01b039390931683526001600160701b0391909116602083015263ffffffff16604082015260600190565b6001600160a01b03929092168252602082015260400190565b6020808252825182820181905260009190848201906040850190845b8181101561562d5783516001600160a01b031683529284019291840191600101615608565b50909695505050505050565b6001600160a01b0392831681529116602082015260400190565b60208152816020820152818360408301376000818301604090810191909152601f909201601f19160101919050565b60208152600061454c60208301846154ce565b610180815260006156aa61018083018f6154ce565b82810360208401526156bc818f6154ce565b604084018e905263ffffffff8d811660608601528c811660808601528b1660a085015261ffff8a1660c085015260e0840189905261010084018890526001600160701b038781166101208601528616610140850152915061571a9050565b63ffffffff83166101608301529d9c50505050505050505050505050565b60608152600061574b60608301866154ce565b828103602084015261575d81866154ce565b91505060ff83166040830152949350505050565b81516001600160701b0316815260208083015161ffff169082015260408083015163ffffffff9081169183019190915260608084015182169083015260808084015182169083015260a080840151918216908301526101008201905060c08301516157e760c08401826001600160701b03169052565b5060e08301516157fd60e084018261ffff169052565b5092915050565b6001600160701b0392831681529116602082015260400190565b968752602087019590955260408601939093526060850191909152608084015260a083015260c082015260e00190565b63ffffffff91909116815260200190565b604051601f8201601f191681016001600160401b038111828210171561588757615887615a93565b604052919050565b60006001600160401b038211156158a8576158a8615a93565b50601f01601f191660200190565b60006001600160701b038281168482168083038211156158d8576158d8615a7d565b01949350505050565b600082198211156158f4576158f4615a7d565b500190565b600063ffffffff8083168185168083038211156158d8576158d8615a7d565b60008261593357634e487b7160e01b81526012600452602481fd5b500490565b600081600019048311821515161561595257615952615a7d565b500290565b60008160010b8360010b82811281617fff190183128115161561597c5761597c615a7d565b81617fff01831381161561599257615992615a7d565b5090039392505050565b60006001600160701b03838116908316818110156159bc576159bc615a7d565b039392505050565b6000828210156159d6576159d6615a7d565b500390565b60005b838110156159f65781810151838201526020016159de565b8381111561450c5750506000910152565b600181811c90821680615a1b57607f821691505b60208210811415615a3c57634e487b7160e01b600052602260045260246000fd5b50919050565b6000600019821415615a5657615a56615a7d565b5060010190565b60008160010b617fff19811415615a7657615a76615a7d565b9003919050565b634e487b7160e01b600052601160045260246000fd5b634e487b7160e01b600052604160045260246000fd5b6001600160a01b0381168114612d5457600080fd5b8015158114612d5457600080fd5b6001600160701b0381168114612d5457600080fd5b61ffff81168114612d5457600080fdfe87cdeaffd8e70903d6ce7cc983fac3b09ca79e83818124c98e47a1d70f8027d613aeb96d2f11201f58501dadee52a96c6fdf73d417d6342835278982f6463b074f471908b72bb76dae5bd24599026e7bf3ddb256497722888ffa422f83729ede7c5a703a1928f0d18042c0454d90ddfe036b518c756a39cd82aca939b71d801b926b69b9f7735227079a308fce165b111b96e2983e70a86a381ee047675ff39fd1248cccb5fef9131c731321e43e9a924840ffee7dc68c7d1d3e5cb7dedcae0327894f6b9c469a3eddbe98dd0df54563b6437b20982876e0c2cd60c211a156460dc14fdd751203f0c4dac8cc93c303e991c5f8e60af35674d5c82061929762ddbefcd50991bb64333037879282220d78a901bb4809351643f56628af8a4656dfc8dfab451067f726e1077626e126c7f77149630cc1b0056cf60307a289a118298be0079c531659141344cd1fd0a4f28419497f9722a3daafe3b4186f6b6457e07aa9698a01d2094fb8a580e2c72a6fc3f3bfecfd4cbdc457461118c59a6fefe4f6ae16e9e9771497fc501d1caac6168e19c36e4639d7273813e3b57066035f2a92a4dc1fa715a8cafb0cdc060f729eb1dfdddcbc9effbdc8d822cdf5ebcf4907971f32e7fcf39ef3d42dd88b6e08b31dd4bd8f53e7299c95b669c82e23807e2fa70de76be90dc9c5d9243b0bc73c3d963ba703a0a396f29134bf5b4e6197c180a26469706673582212207fd61d49cbb03baf19661d0f4a95ad24de51f4edd3c075b86f0f65a78cb71e0664736f6c63430008040033",
  "linkReferences": {},
  "deployedLinkReferences": {}
}