{
  "_format": "hh-sol-artifact-1",
  "contractName": "Enterprise",
  "sourceName": "contracts/Enterprise.sol",
  "abi": [
    {
      "anonymous": false,
      "inputs": [
        {
          "indexed": true,
          "internalType": "address",
          "name": "powerToken",
          "type": "address"
        },
        {
          "indexed": false,
          "internalType": "uint256",
          "name": "tokenId",
          "type": "uint256"
        },
        {
          "indexed": false,
          "internalType": "uint32",
          "name": "from",
          "type": "uint32"
        },
        {
          "indexed": false,
          "internalType": "uint32",
          "name": "to",
          "type": "uint32"
        }
      ],
      "name": "Borrowed",
      "type": "event"
    },
    {
      "anonymous": false,
      "inputs": [
        {
          "indexed": true,
          "internalType": "address",
          "name": "previousOwner",
          "type": "address"
        },
        {
          "indexed": true,
          "internalType": "address",
          "name": "newOwner",
          "type": "address"
        }
      ],
      "name": "OwnershipTransferred",
      "type": "event"
    },
    {
      "anonymous": false,
      "inputs": [
        {
          "indexed": true,
          "internalType": "address",
          "name": "powerToken",
          "type": "address"
        },
        {
          "indexed": false,
          "internalType": "uint32",
          "name": "halfLife",
          "type": "uint32"
        },
        {
          "indexed": false,
          "internalType": "uint112",
          "name": "factor",
          "type": "uint112"
        }
      ],
      "name": "ServiceRegistered",
      "type": "event"
    },
    {
      "inputs": [
        {
          "internalType": "uint256",
          "name": "liquidityAmount",
          "type": "uint256"
        }
      ],
      "name": "addLiquidity",
      "outputs": [],
      "stateMutability": "nonpayable",
      "type": "function"
    },
    {
      "inputs": [
        {
          "internalType": "contract IPowerToken",
          "name": "powerToken",
          "type": "address"
        },
        {
          "internalType": "contract IERC20",
          "name": "paymentToken",
          "type": "address"
        },
        {
          "internalType": "uint112",
          "name": "amount",
          "type": "uint112"
        },
        {
          "internalType": "uint256",
          "name": "maximumPayment",
          "type": "uint256"
        },
        {
          "internalType": "uint32",
          "name": "duration",
          "type": "uint32"
        }
      ],
      "name": "borrow",
      "outputs": [],
      "stateMutability": "nonpayable",
      "type": "function"
    },
    {
      "inputs": [
        {
          "internalType": "address",
          "name": "token",
          "type": "address"
        }
      ],
      "name": "disablePaymentToken",
      "outputs": [],
      "stateMutability": "nonpayable",
      "type": "function"
    },
    {
      "inputs": [
        {
          "internalType": "address",
          "name": "token",
          "type": "address"
        }
      ],
      "name": "enablePaymentToken",
      "outputs": [],
      "stateMutability": "nonpayable",
      "type": "function"
    },
    {
      "inputs": [
        {
          "internalType": "contract IPowerToken",
          "name": "powerToken",
          "type": "address"
        },
        {
          "internalType": "contract IERC20",
          "name": "paymentToken",
          "type": "address"
        },
        {
          "internalType": "uint112",
          "name": "amount",
          "type": "uint112"
        },
        {
          "internalType": "uint32",
          "name": "duration",
          "type": "uint32"
        }
      ],
      "name": "estimateLoan",
      "outputs": [
        {
          "internalType": "uint256",
          "name": "",
          "type": "uint256"
        }
      ],
      "stateMutability": "view",
      "type": "function"
    },
    {
      "inputs": [],
      "name": "getAvailableReserve",
      "outputs": [
        {
          "internalType": "uint256",
          "name": "",
          "type": "uint256"
        }
      ],
      "stateMutability": "view",
      "type": "function"
    },
    {
      "inputs": [],
      "name": "getBaseUri",
      "outputs": [
        {
          "internalType": "string",
          "name": "",
          "type": "string"
        }
      ],
      "stateMutability": "view",
      "type": "function"
    },
    {
      "inputs": [],
      "name": "getBorrowToken",
      "outputs": [
        {
          "internalType": "contract IBorrowToken",
          "name": "",
          "type": "address"
        }
      ],
      "stateMutability": "view",
      "type": "function"
    },
    {
      "inputs": [],
      "name": "getBorrowerLoanReturnGracePeriod",
      "outputs": [
        {
          "internalType": "uint32",
          "name": "",
          "type": "uint32"
        }
      ],
      "stateMutability": "view",
      "type": "function"
    },
    {
      "inputs": [],
      "name": "getConverter",
      "outputs": [
        {
          "internalType": "contract IConverter",
          "name": "",
          "type": "address"
        }
      ],
      "stateMutability": "view",
      "type": "function"
    },
    {
      "inputs": [],
      "name": "getEnterpriseCollector",
      "outputs": [
        {
          "internalType": "address",
          "name": "",
          "type": "address"
        }
      ],
      "stateMutability": "view",
      "type": "function"
    },
    {
      "inputs": [],
      "name": "getEnterpriseLoanCollectGracePeriod",
      "outputs": [
        {
          "internalType": "uint32",
          "name": "",
          "type": "uint32"
        }
      ],
      "stateMutability": "view",
      "type": "function"
    },
    {
      "inputs": [],
      "name": "getEnterpriseVault",
      "outputs": [
        {
          "internalType": "address",
          "name": "",
          "type": "address"
        }
      ],
      "stateMutability": "view",
      "type": "function"
    },
    {
      "inputs": [],
      "name": "getEstimator",
      "outputs": [
        {
          "internalType": "contract IEstimator",
          "name": "",
          "type": "address"
        }
      ],
      "stateMutability": "view",
      "type": "function"
    },
    {
      "inputs": [],
      "name": "getGCFeePercent",
      "outputs": [
        {
          "internalType": "uint16",
          "name": "",
          "type": "uint16"
        }
      ],
      "stateMutability": "view",
      "type": "function"
    },
    {
      "inputs": [],
      "name": "getInfo",
      "outputs": [
        {
          "internalType": "uint256",
          "name": "reserve",
          "type": "uint256"
        },
        {
          "internalType": "uint256",
          "name": "usedReserve",
          "type": "uint256"
        },
        {
          "internalType": "uint256",
          "name": "totalShares",
          "type": "uint256"
        },
        {
          "internalType": "string",
          "name": "name",
          "type": "string"
        }
      ],
      "stateMutability": "view",
      "type": "function"
    },
    {
      "inputs": [],
      "name": "getInterestHalfLife",
      "outputs": [
        {
          "internalType": "uint32",
          "name": "",
          "type": "uint32"
        }
      ],
      "stateMutability": "view",
      "type": "function"
    },
    {
      "inputs": [],
      "name": "getInterestToken",
      "outputs": [
        {
          "internalType": "contract IInterestToken",
          "name": "",
          "type": "address"
        }
      ],
      "stateMutability": "view",
      "type": "function"
    },
    {
      "inputs": [
        {
          "internalType": "uint256",
          "name": "tokenId",
          "type": "uint256"
        }
      ],
      "name": "getLiquidityInfo",
      "outputs": [
        {
          "components": [
            {
              "internalType": "uint256",
              "name": "amount",
              "type": "uint256"
            },
            {
              "internalType": "uint256",
              "name": "shares",
              "type": "uint256"
            },
            {
              "internalType": "uint256",
              "name": "block",
              "type": "uint256"
            }
          ],
          "internalType": "struct EnterpriseStorage.LiquidityInfo",
          "name": "",
          "type": "tuple"
        }
      ],
      "stateMutability": "view",
      "type": "function"
    },
    {
      "inputs": [],
      "name": "getLiquidityToken",
      "outputs": [
        {
          "internalType": "contract IERC20Metadata",
          "name": "",
          "type": "address"
        }
      ],
      "stateMutability": "view",
      "type": "function"
    },
    {
      "inputs": [
        {
          "internalType": "uint256",
          "name": "tokenId",
          "type": "uint256"
        }
      ],
      "name": "getLoanInfo",
      "outputs": [
        {
          "components": [
            {
              "internalType": "uint112",
              "name": "amount",
              "type": "uint112"
            },
            {
              "internalType": "uint16",
              "name": "powerTokenIndex",
              "type": "uint16"
            },
            {
              "internalType": "uint32",
              "name": "borrowingTime",
              "type": "uint32"
            },
            {
              "internalType": "uint32",
              "name": "maturityTime",
              "type": "uint32"
            },
            {
              "internalType": "uint32",
              "name": "borrowerReturnGraceTime",
              "type": "uint32"
            },
            {
              "internalType": "uint32",
              "name": "enterpriseCollectGraceTime",
              "type": "uint32"
            },
            {
              "internalType": "uint112",
              "name": "gcFee",
              "type": "uint112"
            },
            {
              "internalType": "uint16",
              "name": "gcFeeTokenIndex",
              "type": "uint16"
            }
          ],
          "internalType": "struct EnterpriseStorage.LoanInfo",
          "name": "",
          "type": "tuple"
        }
      ],
      "stateMutability": "view",
      "type": "function"
    },
    {
      "inputs": [
        {
          "internalType": "uint256",
          "name": "tokenId",
          "type": "uint256"
        }
      ],
      "name": "getOwedInterest",
      "outputs": [
        {
          "internalType": "uint256",
          "name": "",
          "type": "uint256"
        }
      ],
      "stateMutability": "view",
      "type": "function"
    },
    {
      "inputs": [
        {
          "internalType": "uint256",
          "name": "index",
          "type": "uint256"
        }
      ],
      "name": "getPowerToken",
      "outputs": [
        {
          "internalType": "contract IPowerToken",
          "name": "",
          "type": "address"
        }
      ],
      "stateMutability": "view",
      "type": "function"
    },
    {
      "inputs": [],
      "name": "getPowerTokenImpl",
      "outputs": [
        {
          "internalType": "address",
          "name": "",
          "type": "address"
        }
      ],
      "stateMutability": "view",
      "type": "function"
    },
    {
      "inputs": [
        {
          "internalType": "contract IPowerToken",
          "name": "powerToken",
          "type": "address"
        }
      ],
      "name": "getPowerTokenIndex",
      "outputs": [
        {
          "internalType": "uint16",
          "name": "",
          "type": "uint16"
        }
      ],
      "stateMutability": "view",
      "type": "function"
    },
    {
      "inputs": [],
      "name": "getPowerTokens",
      "outputs": [
        {
          "internalType": "contract IPowerToken[]",
          "name": "",
          "type": "address[]"
        }
      ],
      "stateMutability": "view",
      "type": "function"
    },
    {
      "inputs": [],
      "name": "getPowerTokensInfo",
      "outputs": [
        {
          "internalType": "address[]",
          "name": "addresses",
          "type": "address[]"
        },
        {
          "internalType": "string[]",
          "name": "names",
          "type": "string[]"
        },
        {
          "internalType": "string[]",
          "name": "symbols",
          "type": "string[]"
        },
        {
          "internalType": "uint32[]",
          "name": "halfLifes",
          "type": "uint32[]"
        }
      ],
      "stateMutability": "view",
      "type": "function"
    },
    {
      "inputs": [],
      "name": "getReserve",
      "outputs": [
        {
          "internalType": "uint256",
          "name": "",
          "type": "uint256"
        }
      ],
      "stateMutability": "view",
      "type": "function"
    },
    {
      "inputs": [
        {
          "internalType": "contract IPowerToken",
          "name": "powerToken",
          "type": "address"
        }
      ],
      "name": "getServiceBaseRate",
      "outputs": [
        {
          "internalType": "uint112",
          "name": "",
          "type": "uint112"
        }
      ],
      "stateMutability": "view",
      "type": "function"
    },
    {
      "inputs": [
        {
          "internalType": "contract IPowerToken",
          "name": "powerToken",
          "type": "address"
        }
      ],
      "name": "getServiceBaseToken",
      "outputs": [
        {
          "internalType": "contract IERC20Metadata",
          "name": "",
          "type": "address"
        }
      ],
      "stateMutability": "view",
      "type": "function"
    },
    {
      "inputs": [
        {
          "internalType": "contract IPowerToken",
          "name": "powerToken",
          "type": "address"
        }
      ],
      "name": "getServiceFeePercent",
      "outputs": [
        {
          "internalType": "uint112",
          "name": "",
          "type": "uint112"
        }
      ],
      "stateMutability": "view",
      "type": "function"
    },
    {
      "inputs": [
        {
          "internalType": "contract IPowerToken",
          "name": "powerToken",
          "type": "address"
        }
      ],
      "name": "getServiceHalfLife",
      "outputs": [
        {
          "internalType": "uint32",
          "name": "",
          "type": "uint32"
        }
      ],
      "stateMutability": "view",
      "type": "function"
    },
    {
      "inputs": [
        {
          "internalType": "contract IPowerToken",
          "name": "powerToken",
          "type": "address"
        }
      ],
      "name": "getServiceMaxLoanDuration",
      "outputs": [
        {
          "internalType": "uint32",
          "name": "",
          "type": "uint32"
        }
      ],
      "stateMutability": "view",
      "type": "function"
    },
    {
      "inputs": [
        {
          "internalType": "contract IPowerToken",
          "name": "powerToken",
          "type": "address"
        }
      ],
      "name": "getServiceMinGCFee",
      "outputs": [
        {
          "internalType": "uint112",
          "name": "",
          "type": "uint112"
        }
      ],
      "stateMutability": "view",
      "type": "function"
    },
    {
      "inputs": [
        {
          "internalType": "contract IPowerToken",
          "name": "powerToken",
          "type": "address"
        }
      ],
      "name": "getServiceMinLoanDuration",
      "outputs": [
        {
          "internalType": "uint32",
          "name": "",
          "type": "uint32"
        }
      ],
      "stateMutability": "view",
      "type": "function"
    },
    {
      "inputs": [],
      "name": "getUsedReserve",
      "outputs": [
        {
          "internalType": "uint256",
          "name": "",
          "type": "uint256"
        }
      ],
      "stateMutability": "view",
      "type": "function"
    },
    {
      "inputs": [
        {
          "internalType": "address",
          "name": "initialOwner",
          "type": "address"
        }
      ],
      "name": "initialize",
      "outputs": [],
      "stateMutability": "nonpayable",
      "type": "function"
    },
    {
      "inputs": [
        {
          "internalType": "string",
          "name": "enterpriseName",
          "type": "string"
        },
        {
          "internalType": "string",
          "name": "baseUri",
          "type": "string"
        },
        {
          "internalType": "contract IEstimator",
          "name": "estimator",
          "type": "address"
        },
        {
          "internalType": "contract IConverter",
          "name": "converter",
          "type": "address"
        },
        {
          "internalType": "address",
          "name": "owner",
          "type": "address"
        }
      ],
      "name": "initialize",
      "outputs": [],
      "stateMutability": "nonpayable",
      "type": "function"
    },
    {
      "inputs": [
        {
          "internalType": "address",
          "name": "powerTokenImpl",
          "type": "address"
        },
        {
          "internalType": "contract IERC20Metadata",
          "name": "liquidityToken",
          "type": "address"
        },
        {
          "internalType": "contract IInterestToken",
          "name": "interestToken",
          "type": "address"
        },
        {
          "internalType": "contract IBorrowToken",
          "name": "borrowToken",
          "type": "address"
        }
      ],
      "name": "initializeTokens",
      "outputs": [],
      "stateMutability": "nonpayable",
      "type": "function"
    },
    {
      "inputs": [
        {
          "internalType": "contract IPowerToken",
          "name": "powerToken",
          "type": "address"
        }
      ],
      "name": "isRegisteredPowerToken",
      "outputs": [
        {
          "internalType": "bool",
          "name": "",
          "type": "bool"
        }
      ],
      "stateMutability": "view",
      "type": "function"
    },
    {
      "inputs": [
        {
          "internalType": "contract IPowerToken",
          "name": "powerToken",
          "type": "address"
        },
        {
          "internalType": "uint32",
          "name": "duration",
          "type": "uint32"
        }
      ],
      "name": "isServiceAllowedLoanDuration",
      "outputs": [
        {
          "internalType": "bool",
          "name": "",
          "type": "bool"
        }
      ],
      "stateMutability": "view",
      "type": "function"
    },
    {
      "inputs": [
        {
          "internalType": "contract IERC20",
          "name": "token",
          "type": "address"
        }
      ],
      "name": "isSupportedPaymentToken",
      "outputs": [
        {
          "internalType": "bool",
          "name": "",
          "type": "bool"
        }
      ],
      "stateMutability": "view",
      "type": "function"
    },
    {
      "inputs": [
        {
          "internalType": "address",
          "name": "from",
          "type": "address"
        },
        {
          "internalType": "address",
          "name": "to",
          "type": "address"
        },
        {
          "internalType": "uint256",
          "name": "tokenId",
          "type": "uint256"
        }
      ],
      "name": "loanTransfer",
      "outputs": [],
      "stateMutability": "nonpayable",
      "type": "function"
    },
    {
      "inputs": [],
      "name": "owner",
      "outputs": [
        {
          "internalType": "address",
          "name": "",
          "type": "address"
        }
      ],
      "stateMutability": "view",
      "type": "function"
    },
    {
      "inputs": [
        {
          "internalType": "uint256",
          "name": "index",
          "type": "uint256"
        }
      ],
      "name": "paymentToken",
      "outputs": [
        {
          "internalType": "address",
          "name": "",
          "type": "address"
        }
      ],
      "stateMutability": "view",
      "type": "function"
    },
    {
      "inputs": [
        {
          "internalType": "contract IERC20",
          "name": "token",
          "type": "address"
        }
      ],
      "name": "paymentTokenIndex",
      "outputs": [
        {
          "internalType": "int16",
          "name": "",
          "type": "int16"
        }
      ],
      "stateMutability": "view",
      "type": "function"
    },
    {
      "inputs": [
        {
          "internalType": "uint256",
          "name": "tokenId",
          "type": "uint256"
        },
        {
          "internalType": "contract IERC20",
          "name": "paymentToken",
          "type": "address"
        },
        {
          "internalType": "uint256",
          "name": "maximumPayment",
          "type": "uint256"
        },
        {
          "internalType": "uint32",
          "name": "duration",
          "type": "uint32"
        }
      ],
      "name": "reborrow",
      "outputs": [],
      "stateMutability": "nonpayable",
      "type": "function"
    },
    {
      "inputs": [
        {
          "internalType": "string",
          "name": "serviceName",
          "type": "string"
        },
        {
          "internalType": "string",
          "name": "symbol",
          "type": "string"
        },
        {
          "internalType": "uint32",
          "name": "halfLife",
          "type": "uint32"
        },
        {
          "internalType": "uint112",
          "name": "baseRate",
          "type": "uint112"
        },
        {
          "internalType": "contract IERC20Metadata",
          "name": "baseToken",
          "type": "address"
        },
        {
          "internalType": "uint16",
          "name": "serviceFee",
          "type": "uint16"
        },
        {
          "internalType": "uint32",
          "name": "minLoanDuration",
          "type": "uint32"
        },
        {
          "internalType": "uint32",
          "name": "maxLoanDuration",
          "type": "uint32"
        },
        {
          "internalType": "uint112",
          "name": "minGCFee",
          "type": "uint112"
        }
      ],
      "name": "registerService",
      "outputs": [],
      "stateMutability": "nonpayable",
      "type": "function"
    },
    {
      "inputs": [
        {
          "internalType": "uint256",
          "name": "tokenId",
          "type": "uint256"
        }
      ],
      "name": "removeLiquidity",
      "outputs": [],
      "stateMutability": "nonpayable",
      "type": "function"
    },
    {
      "inputs": [
        {
          "internalType": "uint256",
          "name": "tokenId",
          "type": "uint256"
        }
      ],
      "name": "returnLoan",
      "outputs": [],
      "stateMutability": "nonpayable",
      "type": "function"
    },
    {
      "inputs": [
        {
          "internalType": "string",
          "name": "baseUri",
          "type": "string"
        }
      ],
      "name": "setBaseUri",
      "outputs": [],
      "stateMutability": "nonpayable",
      "type": "function"
    },
    {
      "inputs": [
        {
          "internalType": "uint32",
          "name": "newPeriod",
          "type": "uint32"
        }
      ],
      "name": "setBorrowerLoanReturnGracePeriod",
      "outputs": [],
      "stateMutability": "nonpayable",
      "type": "function"
    },
    {
      "inputs": [
        {
          "internalType": "contract IConverter",
          "name": "newConverter",
          "type": "address"
        }
      ],
      "name": "setConverter",
      "outputs": [],
      "stateMutability": "nonpayable",
      "type": "function"
    },
    {
      "inputs": [
        {
          "internalType": "address",
          "name": "newCollector",
          "type": "address"
        }
      ],
      "name": "setEnterpriseCollector",
      "outputs": [],
      "stateMutability": "nonpayable",
      "type": "function"
    },
    {
      "inputs": [
        {
          "internalType": "uint32",
          "name": "newPeriod",
          "type": "uint32"
        }
      ],
      "name": "setEnterpriseLoanCollectGracePeriod",
      "outputs": [],
      "stateMutability": "nonpayable",
      "type": "function"
    },
    {
      "inputs": [
        {
          "internalType": "address",
          "name": "newVault",
          "type": "address"
        }
      ],
      "name": "setEnterpriseVault",
      "outputs": [],
      "stateMutability": "nonpayable",
      "type": "function"
    },
    {
      "inputs": [
        {
          "internalType": "contract IEstimator",
          "name": "newEstimator",
          "type": "address"
        }
      ],
      "name": "setEstimator",
      "outputs": [],
      "stateMutability": "nonpayable",
      "type": "function"
    },
    {
      "inputs": [
        {
          "internalType": "uint16",
          "name": "newGcFeePercent",
          "type": "uint16"
        }
      ],
      "name": "setGcFeePercent",
      "outputs": [],
      "stateMutability": "nonpayable",
      "type": "function"
    },
    {
      "inputs": [
        {
          "internalType": "uint32",
          "name": "interestHalfLife",
          "type": "uint32"
        }
      ],
      "name": "setInterestHalfLife",
      "outputs": [],
      "stateMutability": "nonpayable",
      "type": "function"
    },
    {
      "inputs": [
        {
          "internalType": "contract IPowerToken",
          "name": "powerToken",
          "type": "address"
        },
        {
          "internalType": "uint112",
          "name": "baseRate",
          "type": "uint112"
        },
        {
          "internalType": "contract IERC20Metadata",
          "name": "baseToken",
          "type": "address"
        },
        {
          "internalType": "uint112",
          "name": "minGCFee",
          "type": "uint112"
        }
      ],
      "name": "setServiceBaseRate",
      "outputs": [],
      "stateMutability": "nonpayable",
      "type": "function"
    },
    {
      "inputs": [
        {
          "internalType": "contract IPowerToken",
          "name": "powerToken",
          "type": "address"
        },
        {
          "internalType": "uint16",
          "name": "newServiceFeePercent",
          "type": "uint16"
        }
      ],
      "name": "setServiceFeePercent",
      "outputs": [],
      "stateMutability": "nonpayable",
      "type": "function"
    },
    {
      "inputs": [
        {
          "internalType": "contract IPowerToken[]",
          "name": "powerToken",
          "type": "address[]"
        },
        {
          "internalType": "uint16[]",
          "name": "newServiceFeePercent",
          "type": "uint16[]"
        }
      ],
      "name": "setServiceFeePercentBatch",
      "outputs": [],
      "stateMutability": "nonpayable",
      "type": "function"
    },
    {
      "inputs": [
        {
          "internalType": "contract IPowerToken",
          "name": "powerToken",
          "type": "address"
        },
        {
          "internalType": "uint32",
          "name": "minLoanDuration",
          "type": "uint32"
        },
        {
          "internalType": "uint32",
          "name": "maxLoanDuration",
          "type": "uint32"
        }
      ],
      "name": "setServiceLoanDurationLimits",
      "outputs": [],
      "stateMutability": "nonpayable",
      "type": "function"
    },
    {
      "inputs": [
        {
          "internalType": "address",
          "name": "newOwner",
          "type": "address"
        }
      ],
      "name": "transferOwnership",
      "outputs": [],
      "stateMutability": "nonpayable",
      "type": "function"
    },
    {
      "inputs": [
        {
          "internalType": "contract IPowerToken",
          "name": "powerToken",
          "type": "address"
        },
        {
          "internalType": "uint256",
          "name": "amount",
          "type": "uint256"
        }
      ],
      "name": "unwrap",
      "outputs": [
        {
          "internalType": "bool",
          "name": "",
          "type": "bool"
        }
      ],
      "stateMutability": "nonpayable",
      "type": "function"
    },
    {
      "inputs": [
        {
          "internalType": "uint256",
          "name": "tokenId",
          "type": "uint256"
        }
      ],
      "name": "withdrawInterest",
      "outputs": [],
      "stateMutability": "nonpayable",
      "type": "function"
    },
    {
      "inputs": [
        {
          "internalType": "contract IPowerToken",
          "name": "powerToken",
          "type": "address"
        },
        {
          "internalType": "uint256",
          "name": "amount",
          "type": "uint256"
        }
      ],
      "name": "wrap",
      "outputs": [
        {
          "internalType": "bool",
          "name": "",
          "type": "bool"
        }
      ],
      "stateMutability": "nonpayable",
      "type": "function"
    },
    {
      "inputs": [
        {
          "internalType": "contract IPowerToken",
          "name": "powerToken",
          "type": "address"
        },
        {
          "internalType": "address",
          "name": "to",
          "type": "address"
        },
        {
          "internalType": "uint256",
          "name": "amount",
          "type": "uint256"
        }
      ],
      "name": "wrapTo",
      "outputs": [
        {
          "internalType": "bool",
          "name": "",
          "type": "bool"
        }
      ],
      "stateMutability": "nonpayable",
      "type": "function"
    }
  ],
  "bytecode": "0x60806040526004805463ffffffff60a01b191660e160a61b17905560088054600160a01b600160e01b031916650546000002a360a61b17905534801561004457600080fd5b5061564280620000556000396000f3fe608060405234801561001057600080fd5b50600436106103fc5760003560e01c806390f55edd11610215578063c2fe50dd11610125578063e9028683116100b8578063f4e28f9a11610087578063f4e28f9a14610a9a578063faaed4ad14610ad3578063fbac9a5514610ae6578063fc0915b114610b0c578063fcb2884e14610b1f57600080fd5b8063e902868314610a4e578063e912615414610a61578063edc1a62814610a74578063f2fde38b14610a8757600080fd5b8063db0ed6a0116100f4578063db0ed6a0146109bc578063df57f2fa146109cf578063e2b17a1614610a04578063e36eca0c14610a1757600080fd5b8063c2fe50dd1461094c578063c4d66de81461095f578063c93d0b9214610972578063d1c820071461098357600080fd5b8063b19337a4116101a8578063bf17088011610177578063bf170880146108ef578063bf376c7a14610900578063bf3bb1a514610913578063bfd84fb414610926578063c20aa9bc1461093957600080fd5b8063b19337a414610892578063b406bf6d146108a5578063b56de97e146108c7578063b96266fa146108da57600080fd5b8063a0efd118116101e4578063a0efd11814610851578063a358426f14610866578063a554b26d14610879578063aebb50411461088a57600080fd5b806390f55edd146108055780639c7aa7f8146108185780639c8f9f231461082b578063a0bcfc7f1461083e57600080fd5b80633d4df89711610310578063644e44df116102a357806383b9a0091161027257806383b9a009146107aa57806389035b61146107bb5780638d6d50c9146107ce5780638da5cb5b146107e15780638e9fcf81146107f257600080fd5b8063644e44df146107605780637791c42d146107715780637eda9ff8146107825780638188d50d1461079557600080fd5b806353c09124116102df57806353c09124146106fe57806359bf5d391461072d5780635a9b0b891461073557806362c1f3881461074d57600080fd5b80633d4df897146106ad578063449497ec146106c5578063512a53bc146106d857806351c6590a146106eb57600080fd5b80632261b07f116103935780632e365ade116103625780632e365ade1461062b5780632fb2067f1461063e5780633184fc6414610661578063375921481461067457806339f476931461069a57600080fd5b80632261b07f1461059c578063229304dc146105ad5780632457056e146105ce5780632b39a0ac1461061857600080fd5b80630e101b60116103cf5780630e101b60146105525780630ea1dc9e1461056557806311eec52914610576578063158bf4511461058957600080fd5b806304196058146104015780630714012c1461043157806308669aab146105285780630cac36b21461053d575b600080fd5b61041461040f366004614e86565b610b27565b6040516001600160a01b0390911681526020015b60405180910390f35b61051b61043f366004614e86565b6040805161010081018252600080825260208201819052918101829052606081018290526080810182905260a0810182905260c0810182905260e08101919091525060009081526011602090815260409182902082516101008101845281546001600160701b038082168352600160701b80830461ffff90811696850196909652600160801b830463ffffffff90811697850197909752600160a01b830487166060850152600160c01b830487166080850152600160e01b90920490951660a083015260019092015493841660c082015292041660e082015290565b6040516104289190615262565b61053b610536366004614e86565b610b65565b005b610545610c48565b60405161042891906150d7565b610414610560366004614e86565b610cda565b6002546001600160a01b0316610414565b61053b6105843660046149b2565b610cfd565b61053b610597366004614d77565b610e50565b6006546001600160a01b0316610414565b6105c06105bb366004614ab1565b6113fd565b604051908152602001610428565b6106006105dc3660046148df565b6001600160a01b03166000908152601360205260409020546001600160701b031690565b6040516001600160701b039091168152602001610428565b6106006106263660046148df565b6114b3565b61053b610639366004614ef2565b6114dc565b61065161064c3660046148df565b611587565b6040519015158152602001610428565b61053b61066f366004614957565b6115aa565b600454600160a01b900463ffffffff165b60405163ffffffff9091168152602001610428565b6106516106a8366004614b8e565b611652565b6106b56116f2565b6040516104289493929190614fd7565b61053b6106d3366004614e6c565b611a82565b61053b6106e6366004614917565b611ace565b61053b6106f9366004614e86565b611dea565b61041461070c3660046148df565b6001600160a01b039081166000908152601360205260409020600101541690565b6105c0611f13565b61073d611f38565b6040516104289493929190615306565b61053b61075b3660046148df565b611fe4565b6001546001600160a01b0316610414565b6008546001600160a01b0316610414565b61053b6107903660046148df565b612056565b600854600160a01b900463ffffffff16610685565b6004546001600160a01b0316610414565b6106516107c93660046148df565b6120c8565b6106856107dc3660046148df565b6120f2565b6000546001600160a01b0316610414565b61053b610800366004614be4565b61211a565b61053b6108133660046148df565b612216565b61053b6108263660046148df565b612288565b61053b610839366004614e86565b6122be565b61053b61084c366004614c28565b61244e565b600854600160c01b900463ffffffff16610685565b610651610874366004614bb9565b612489565b6007546001600160a01b0316610414565b6105c06124e2565b61053b6108a03660046148df565b6124f9565b600854600160e01b900461ffff165b60405161ffff9091168152602001610428565b61053b6108d5366004614ef2565b61256b565b6108e2612615565b604051610428919061508a565b6005546001600160a01b0316610414565b61065161090e366004614b8e565b612676565b6105c0610921366004614e86565b6126a9565b61053b6109343660046148df565b6126d8565b61053b610947366004614b5a565b612731565b61053b61095a366004614eb6565b61278b565b61053b61096d3660046148df565b612bf0565b6003546001600160a01b0316610414565b6106856109913660046148df565b6001600160a01b0316600090815260136020526040902060010154600160a01b900463ffffffff1690565b61053b6109ca366004614cd9565b612d10565b6109e26109dd366004614e86565b612ddc565b6040805182518152602080840151908201529181015190820152606001610428565b61053b610a12366004614a4e565b612e39565b6108b4610a253660046148df565b6001600160a01b0316600090815260136020526040902060010154600160f01b900461ffff1690565b610600610a5c3660046148df565b613478565b61053b610a6f366004614e86565b6134a3565b61053b610a82366004614ef2565b613798565b61053b610a953660046148df565b6137e8565b610685610aa83660046148df565b6001600160a01b0316600090815260136020526040902060010154600160c01b900463ffffffff1690565b610651610ae1366004614a3a565b6138d2565b610af9610af43660046148df565b613979565b60405160019190910b8152602001610428565b61053b610b1a366004614b0a565b6139a6565b600d546105c0565b600060148281548110610b4a57634e487b7160e01b600052603260045260246000fd5b6000918252602090912001546001600160a01b031692915050565b60008181526012602052604081206001810154815491929091610b8783613aa2565b610b9191906154a7565b9050610b9b6124e2565b811115610be85760405162461bcd60e51b8152602060048201526016602482015275496e73756666696369656e74206c697175696469747960501b60448201526064015b60405180910390fd5b600154610bff906001600160a01b03163383613ac4565b6000610c0e8460000154613b27565b600185018190559050610c2181846154a7565b600f6000828254610c3291906154a7565b90915550610c41905082613b3f565b5050505050565b6060600b8054610c5790615507565b80601f0160208091040260200160405190810160405280929190818152602001828054610c8390615507565b8015610cd05780601f10610ca557610100808354040283529160200191610cd0565b820191906000526020600020905b815481529060010190602001808311610cb357829003601f168201915b5050505050905090565b6000600a8281548110610b4a57634e487b7160e01b600052603260045260246000fd5b6000546001600160a01b03163314610d275760405162461bcd60e51b8152600401610bdf906151ca565b828114610d6d5760405162461bcd60e51b8152602060048201526014602482015273092dcecc2d8d2c840c2e4e4c2f240d8cadccee8d60631b6044820152606401610bdf565b60005b83811015610c4157610db0858583818110610d9b57634e487b7160e01b600052603260045260246000fd5b90506020020160208101906107c991906148df565b610dcc5760405162461bcd60e51b8152600401610bdf906151ff565b610e3e858583818110610def57634e487b7160e01b600052603260045260246000fd5b9050602002016020810190610e0491906148df565b848484818110610e2457634e487b7160e01b600052603260045260246000fd5b9050602002016020810190610e399190614e6c565b613b9a565b80610e4881615542565b915050610d70565b6000546001600160a01b03163314610e7a5760405162461bcd60e51b8152600401610bdf906151ca565b6001600160a01b038516610ec55760405162461bcd60e51b815260206004820152601260248201527124b73b30b634b2102130b9b2902a37b5b2b760711b6044820152606401610bdf565b60145461ffff11610f185760405162461bcd60e51b815260206004820152601d60248201527f43616e6e6f74207265676973746572206d6f72652073657276696365730000006044820152606401610bdf565b8163ffffffff168363ffffffff161115610f745760405162461bcd60e51b815260206004820152601b60248201527f496e76616c6964206d696e20616e64206d617820706572696f647300000000006044820152606401610bdf565b60008763ffffffff1611610fbe5760405162461bcd60e51b8152602060048201526011602482015270496e76616c69642068616c66206c69666560781b6044820152606401610bdf565b600454600090610fd6906001600160a01b0316613c3a565b90506000600160009054906101000a90046001600160a01b03166001600160a01b03166395d89b416040518163ffffffff1660e01b815260040160006040518083038186803b15801561102857600080fd5b505afa15801561103c573d6000803e3d6000fd5b505050506040513d6000823e601f3d908101601f191682016040526110649190810190614c67565b90506000818b60405160200161107b929190614f9b565b60408051601f19818403018152908290526303bf912560e11b825291506001600160a01b0384169063077f224a906110bb908f90859030906004016150ea565b600060405180830381600087803b1580156110d557600080fd5b505af11580156110e9573d6000803e3d6000fd5b5050505060006040518061010001604052808b6001600160701b03168152602001866001600160701b031681526020018c63ffffffff1681526020018a6001600160a01b031681526020018863ffffffff1681526020018763ffffffff1681526020018961ffff16815260200160148054905061ffff1681525090508060136000866001600160a01b03166001600160a01b0316815260200190815260200160002060008201518160000160006101000a8154816001600160701b0302191690836001600160701b03160217905550602082015181600001600e6101000a8154816001600160701b0302191690836001600160701b03160217905550604082015181600001601c6101000a81548163ffffffff021916908363ffffffff16021790555060608201518160010160006101000a8154816001600160a01b0302191690836001600160a01b0316021790555060808201518160010160146101000a81548163ffffffff021916908363ffffffff16021790555060a08201518160010160186101000a81548163ffffffff021916908363ffffffff16021790555060c082015181600101601c6101000a81548161ffff021916908361ffff16021790555060e082015181600101601e6101000a81548161ffff021916908361ffff1602179055509050506014849080600181540180825580915050600190039060005260206000200160009091909190916101000a8154816001600160a01b0302191690836001600160a01b03160217905550600560009054906101000a90046001600160a01b03166001600160a01b031663508ee32c856040518263ffffffff1660e01b815260040161136991906001600160a01b0391909116815260200190565b600060405180830381600087803b15801561138357600080fd5b505af1158015611397573d6000803e3d6000fd5b50506040805163ffffffff8f1681526001600160701b038e1660208201526001600160a01b03881693507f18706585e986f622c9d914abfb256d563b9ea274cd5d49124e0518aa314b8c129250015b60405180910390a250505050505050505050505050565b600084611409816120c8565b6114255760405162461bcd60e51b8152600401610bdf906151ff565b61142e85611587565b61144a5760405162461bcd60e51b8152600401610bdf90615177565b6114548684612489565b6114705760405162461bcd60e51b8152600401610bdf9061522b565b600080600061148189898989613cd7565b91945092509050806114938385615382565b61149d9190615382565b6001600160701b03169998505050505050505050565b6001600160a01b0316600090815260136020526040902060010154600160e01b900461ffff1690565b6000546001600160a01b031633146115065760405162461bcd60e51b8152600401610bdf906151ca565b60085463ffffffff600160c01b909104811690821611156115615760405162461bcd60e51b8152602060048201526015602482015274496e76616c696420677261636520706572696f647360581b6044820152606401610bdf565b6008805463ffffffff909216600160a01b0263ffffffff60a01b19909216919091179055565b6001600160a01b0316600090815260096020526040812054600190810b900b1390565b6004546001600160a01b0316156115f95760405162461bcd60e51b8152602060048201526013602482015272105b1c9958591e481a5b9a5d1a585b1a5e9959606a1b6044820152606401610bdf565b600480546001600160a01b038087166001600160a01b0319928316179092556001805486841690831617905560028054858416908316179055600380549284169290911691909117905561164c83613eaa565b50505050565b60008261165e816120c8565b61167a5760405162461bcd60e51b8152600401610bdf906151ff565b600154604051638cc7104f60e01b81526001600160a01b0391821660048201523360248201526044810185905290851690638cc7104f90606401600060405180830381600087803b1580156116ce57600080fd5b505af11580156116e2573d6000803e3d6000fd5b50505050600191505b5092915050565b601454606090819081908190806001600160401b0381111561172457634e487b7160e01b600052604160045260246000fd5b60405190808252806020026020018201604052801561174d578160200160208202803683370190505b509450806001600160401b0381111561177657634e487b7160e01b600052604160045260246000fd5b6040519080825280602002602001820160405280156117a957816020015b60608152602001906001900390816117945790505b509350806001600160401b038111156117d257634e487b7160e01b600052604160045260246000fd5b60405190808252806020026020018201604052801561180557816020015b60608152602001906001900390816117f05790505b509250806001600160401b0381111561182e57634e487b7160e01b600052604160045260246000fd5b604051908082528060200260200182016040528015611857578160200160208202803683370190505b50915060005b81811015611a7a5760006014828154811061188857634e487b7160e01b600052603260045260246000fd5b9060005260206000200160009054906101000a90046001600160a01b03169050808783815181106118c957634e487b7160e01b600052603260045260246000fd5b60200260200101906001600160a01b031690816001600160a01b031681525050806001600160a01b03166306fdde036040518163ffffffff1660e01b815260040160006040518083038186803b15801561192257600080fd5b505afa158015611936573d6000803e3d6000fd5b505050506040513d6000823e601f3d908101601f1916820160405261195e9190810190614c67565b86838151811061197e57634e487b7160e01b600052603260045260246000fd5b6020026020010181905250806001600160a01b03166395d89b416040518163ffffffff1660e01b815260040160006040518083038186803b1580156119c257600080fd5b505afa1580156119d6573d6000803e3d6000fd5b505050506040513d6000823e601f3d908101601f191682016040526119fe9190810190614c67565b858381518110611a1e57634e487b7160e01b600052603260045260246000fd5b6020026020010181905250611a32816120f2565b848381518110611a5257634e487b7160e01b600052603260045260246000fd5b63ffffffff909216602092830291909101909101525080611a7281615542565b91505061185d565b505090919293565b6000546001600160a01b03163314611aac5760405162461bcd60e51b8152600401610bdf906151ca565b6008805461ffff909216600160e01b0261ffff60e01b19909216919091179055565b6003546001600160a01b03163314611b1a5760405162461bcd60e51b815260206004820152600f60248201526e2737ba102137b93937bbaa37b5b2b760891b6044820152606401610bdf565b600081815260116020908152604080832081516101008101835281546001600160701b03808216835261ffff600160701b808404821697850188905263ffffffff600160801b8504811697860197909752600160a01b840487166060860152600160c01b840487166080860152600160e01b90930490951660a084015260019093015492831660c083015290910490911660e08201526014805491939290918110611bd557634e487b7160e01b600052603260045260246000fd5b6000918252602090912001546001600160a01b0316905080611c095760405162461bcd60e51b8152600401610bdf90615128565b606082015163ffffffff1642116001600160a01b038681161590861680159030148015611c3e57611c39876134a3565b611ddf565b8115611cb857855160405163079cc67960e41b81526001600160a01b038b811660048301526001600160701b039092166024820152908616906379cc6790906044015b600060405180830381600087803b158015611c9b57600080fd5b505af1158015611caf573d6000803e3d6000fd5b50505050611ddf565b8215611cff5785516040516340c10f1960e01b81526001600160a01b038a811660048301526001600160701b039092166024820152908616906340c10f1990604401611c81565b83611da05785516040516333bebb7760e01b81526001600160a01b038b811660048301528a811660248301526001600160701b039092166044820152908616906333bebb7790606401602060405180830381600087803b158015611d6257600080fd5b505af1158015611d76573d6000803e3d6000fd5b505050506040513d601f19601f82011682018060405250810190611d9a9190614a1a565b50611ddf565b60405162461bcd60e51b81526020600482015260146024820152732737ba1030b63637bbb2b2103a3930b739b332b960611b6044820152606401610bdf565b505050505050505050565b600154611e02906001600160a01b0316333084613fc1565b6000600f5460001415611e16575080611e22565b611e1f82613aa2565b90505b81600c6000828254611e3491906153ad565b90915550506002546040516335313c2160e11b81523360048201526000916001600160a01b031690636a62784290602401602060405180830381600087803b158015611e7f57600080fd5b505af1158015611e93573d6000803e3d6000fd5b505050506040513d601f19601f82011682018060405250810190611eb79190614e9e565b6040805160608101825285815260208082018681524383850190815260008681526012909352938220925183555160018301559151600290910155600f80549293508492909190611f099084906153ad565b9091555050505050565b6000611f1d613ff9565b6001600160701b0316600c54611f3391906153ad565b905090565b60008060006060600c54600d54600f546010808054611f5690615507565b80601f0160208091040260200160405190810160405280929190818152602001828054611f8290615507565b8015611fcf5780601f10611fa457610100808354040283529160200191611fcf565b820191906000526020600020905b815481529060010190602001808311611fb257829003601f168201915b50505050509050935093509350935090919293565b6000546001600160a01b0316331461200e5760405162461bcd60e51b8152600401610bdf906151ca565b6001600160a01b0381166120345760405162461bcd60e51b8152600401610bdf90615151565b600780546001600160a01b0319166001600160a01b0392909216919091179055565b6000546001600160a01b031633146120805760405162461bcd60e51b8152600401610bdf906151ca565b6001600160a01b0381166120a65760405162461bcd60e51b8152600401610bdf90615151565b600580546001600160a01b0319166001600160a01b0392909216919091179055565b6001600160a01b0316600090815260136020526040902054600160e01b900463ffffffff16151590565b6001600160a01b0316600090815260136020526040902054600160e01b900463ffffffff1690565b6000546001600160a01b031633146121445760405162461bcd60e51b8152600401610bdf906151ca565b8261214e816120c8565b61216a5760405162461bcd60e51b8152600401610bdf906151ff565b8163ffffffff168363ffffffff1611156121ba5760405162461bcd60e51b8152602060048201526011602482015270496e76616c6964206475726174696f6e7360781b6044820152606401610bdf565b506001600160a01b03929092166000908152601360205260409020600101805467ffffffffffffffff60a01b1916600160a01b63ffffffff9384160263ffffffff60c01b191617600160c01b9290931691909102919091179055565b6000546001600160a01b031633146122405760405162461bcd60e51b8152600401610bdf906151ca565b6001600160a01b0381166122665760405162461bcd60e51b8152600401610bdf90615151565b600880546001600160a01b0319166001600160a01b0392909216919091179055565b6000546001600160a01b031633146122b25760405162461bcd60e51b8152600401610bdf906151ca565b6122bb81614061565b50565b6000818152601260205260409020600281015443116123355760405162461bcd60e51b815260206004820152602d60248201527f43616e6e6f742061646420616e642072656d6f7665206c69717569646974792060448201526c696e2073616d6520626c6f636b60981b6064820152608401610bdf565b6001810154600061234582613aa2565b905061234f6124e2565b8111156123975760405162461bcd60e51b8152602060048201526016602482015275496e73756666696369656e74206c697175696469747960501b6044820152606401610bdf565b600254604051630852cd8d60e31b8152600481018690526001600160a01b03909116906342966c6890602401600060405180830381600087803b1580156123dd57600080fd5b505af11580156123f1573d6000803e3d6000fd5b505060015461240d92506001600160a01b031690503383613ac4565b61241681613b3f565b81600f600082825461242891906154a7565b909155505050600092835250506012602052604081208181556001810182905560020155565b6000546001600160a01b031633146124785760405162461bcd60e51b8152600401610bdf906151ca565b612484600b83836146c8565b505050565b6001600160a01b0382166000908152601360205260408120600181015463ffffffff808516600160a01b90920416118015906124da5750600181015463ffffffff600160c01b909104811690841611155b949350505050565b6000600d546124ef611f13565b611f3391906154a7565b6000546001600160a01b031633146125235760405162461bcd60e51b8152600401610bdf906151ca565b6001600160a01b0381166125495760405162461bcd60e51b8152600401610bdf90615151565b600680546001600160a01b0319166001600160a01b0392909216919091179055565b6000546001600160a01b031633146125955760405162461bcd60e51b8152600401610bdf906151ca565b60085463ffffffff808316600160a01b9092041611156125ef5760405162461bcd60e51b8152602060048201526015602482015274496e76616c696420677261636520706572696f647360581b6044820152606401610bdf565b6008805463ffffffff909216600160c01b0263ffffffff60c01b19909216919091179055565b60606014805480602002602001604051908101604052809291908181526020018280548015610cd057602002820191906000526020600020905b81546001600160a01b0316815260019091019060200180831161264f575050505050905090565b600082612682816120c8565b61269e5760405162461bcd60e51b8152600401610bdf906151ff565b6124da8433856138d2565b6000818152601260205260408120805460018201546126c790613aa2565b6126d191906154a7565b9392505050565b6000546001600160a01b031633146127025760405162461bcd60e51b8152600401610bdf906151ca565b6001600160a01b0381166127285760405162461bcd60e51b8152600401610bdf90615151565b6122bb81613eaa565b6000546001600160a01b0316331461275b5760405162461bcd60e51b8152600401610bdf906151ca565b81612765816120c8565b6127815760405162461bcd60e51b8152600401610bdf906151ff565b6124848383613b9a565b61279483611587565b6127b05760405162461bcd60e51b8152600401610bdf90615177565b60008481526011602052604081208054601480549293929091600160701b900461ffff169081106127f157634e487b7160e01b600052603260045260246000fd5b6000918252602090912001546001600160a01b03169050806128255760405162461bcd60e51b8152600401610bdf90615128565b61282f8184612489565b61284b5760405162461bcd60e51b8152600401610bdf9061522b565b81544290612867908590600160a01b900463ffffffff166153c5565b63ffffffff1610156128ae5760405162461bcd60e51b815260206004820152601060248201526f24b73b30b634b210323ab930ba34b7b760811b6044820152606401610bdf565b8154600d80546001600160701b03909216916000906128ce9084906154a7565b9091555050815460009081906128f190849089906001600160701b031688613cd7565b508554600d80549395509193506001600160701b0316916000906129169084906153ad565b90915550600090506129288284615382565b6001600160701b03169050868111156129795760405162461bcd60e51b8152602060048201526013602482015272536c69707061676520697320746f6f2062696760681b6044820152606401610bdf565b61298e6001600160a01b038916333084613fc1565b60065460015460405163029b465d60e01b81526001600160a01b038b81166004830152602482018590529182166044820152600092919091169063029b465d90606401602060405180830381600087803b1580156129eb57600080fd5b505af11580156129ff573d6000803e3d6000fd5b505050506040513d601f19601f82011682018060405250810190612a239190614e9e565b9050600082612a3b836001600160701b03871661541b565b612a4591906153e4565b600854600154919250612a65916001600160a01b03908116911683613ac4565b6000612a7182846154a7565b9050612a7c81614108565b8754600160a01b900463ffffffff16612a958a826153c5565b895463ffffffff60a01b1916600160a01b63ffffffff928316810291909117808c55600854612ace9390839004811692909104166153c5565b895463ffffffff60c01b1916600160c01b63ffffffff928316810291909117808c55600854612b0b93929004821691600160a01b909104166153c5565b895463ffffffff91909116600160e01b026001600160e01b0390911617895560055460405163f8642f2960e01b8152600481018f90526001600160a01b039091169063f8642f2990602401600060405180830381600087803b158015612b7057600080fd5b505af1158015612b84573d6000803e3d6000fd5b50505050876001600160a01b03167f9853650269815e203c5c9e228db9ca05cc6037f2c2723c94ed3260cf98324c998e838c60000160149054906101000a900463ffffffff166040516113e69392919092835263ffffffff918216602084015216604082015260600190565b6000546001600160a01b031615612c5b5760405162461bcd60e51b815260206004820152602960248201527f496e697469616c697a61626c654f776e61626c653a20616c726561647920696e6044820152681a5d1a585b1a5e995960ba1b6064820152608401610bdf565b6001600160a01b038116612cc55760405162461bcd60e51b815260206004820152602b60248201527f496e697469616c697a61626c654f776e61626c653a20696e76616c696420696e60448201526a34ba34b0b61037bbb732b960a91b6064820152608401610bdf565b600080546001600160a01b0319166001600160a01b03831690811782556040519091907f8be0079c531659141344cd1fd0a4f28419497f9722a3daafe3b4186f6b6457e0908290a350565b60108054612d1d90615507565b159050612d625760405162461bcd60e51b8152602060048201526013602482015272105b1c9958591e481a5b9a5d1a585b1a5e9959606a1b6044820152606401610bdf565b612d6b81612bf0565b8551612d7e90601090602089019061474c565b50612d8b600b86866146c8565b50600580546001600160a01b03199081166001600160a01b03958616179091556006805482169385169390931790925560088054831691909316908117909255600780549091169091179055505050565b612e0060405180606001604052806000815260200160008152602001600081525090565b50600090815260126020908152604091829020825160608101845281548152600182015492810192909252600201549181019190915290565b84612e43816120c8565b612e5f5760405162461bcd60e51b8152600401610bdf906151ff565b612e6885611587565b612e845760405162461bcd60e51b8152600401610bdf90615177565b612e8e8683612489565b612eaa5760405162461bcd60e51b8152600401610bdf9061522b565b612eb26124e2565b846001600160701b03161115612f025760405162461bcd60e51b8152602060048201526015602482015274496e73756666696369656e7420726573657276657360581b6044820152606401610bdf565b600080600080612f148a8a8a89613cd7565b955090935091508390506000612f2a8385615382565b6001600160701b0316905087856001600160701b031682612f4b91906153ad565b1115612f8f5760405162461bcd60e51b8152602060048201526013602482015272536c69707061676520697320746f6f2062696760681b6044820152606401610bdf565b612fa46001600160a01b038b16333084613fc1565b60065460015460405163029b465d60e01b81526001600160a01b038d81166004830152602482018590529182166044820152600092919091169063029b465d90606401602060405180830381600087803b15801561300157600080fd5b505af1158015613015573d6000803e3d6000fd5b505050506040513d601f19601f820116820180604052508101906130399190614e9e565b9050600082613051836001600160701b03881661541b565b61305b91906153e4565b60085460015491925061307b916001600160a01b03908116911683613ac4565b8a6001600160701b0316600d600082825461309691906153ad565b90915550600090506130a882846154a7565b90506130b381614108565b50506003546130e095506001600160a01b038c81169550339450169150506001600160701b038516613fc1565b4260006130ed85836153c5565b90506000600360009054906101000a90046001600160a01b03166001600160a01b031663caa0f92a6040518163ffffffff1660e01b8152600401602060405180830381600087803b15801561314157600080fd5b505af1158015613155573d6000803e3d6000fd5b505050506040513d601f19601f820116820180604052508101906131799190614e9e565b60408051610100810182526001600160701b038b1681526001600160a01b038d166000908152601360209081529083902060010154600160f01b900461ffff169082015263ffffffff8681169282019290925284821660608201526008549293509160808301916131f291600160a01b900416856153c5565b63ffffffff168152602001600860189054906101000a900463ffffffff168461321b91906153c5565b63ffffffff168152602001856001600160701b0316815260200161323e8b613979565b61ffff9081169091526000838152601160209081526040918290208451815492860151868501516060880151608089015160a08a01516001600160701b039586166001600160801b031998891617600160701b958b1686021767ffffffffffffffff60801b1916600160801b63ffffffff9586160263ffffffff60a01b191617600160a01b93851693909302929092176001600160c01b0316600160c01b918416919091026001600160e01b031617600160e01b929091169190910217835560c08701516001909301805460e0909801519390921696909316959095179316029190911790915560035490516335313c2160e11b815233600482015282916001600160a01b031690636a62784290602401602060405180830381600087803b15801561336957600080fd5b505af115801561337d573d6000803e3d6000fd5b505050506040513d601f19601f820116820180604052508101906133a19190614e9e565b146133bc57634e487b7160e01b600052600160045260246000fd5b60055460405163f8642f2960e01b8152600481018390526001600160a01b039091169063f8642f2990602401600060405180830381600087803b15801561340257600080fd5b505af1158015613416573d6000803e3d6000fd5b50506040805184815263ffffffff878116602083015286168183015290516001600160a01b038e1693507f9853650269815e203c5c9e228db9ca05cc6037f2c2723c94ed3260cf98324c9992509081900360600190a250505050505050505050565b6001600160a01b0316600090815260136020526040902054600160701b90046001600160701b031690565b60008181526011602052604081208054601480549293929091600160701b900461ffff169081106134e457634e487b7160e01b600052603260045260246000fd5b6000918252602090912001546001600160a01b03169050806135185760405162461bcd60e51b8152600401610bdf90615128565b6003546040516331a9108f60e11b8152600481018590526000916001600160a01b031690636352211e9060240160206040518083038186803b15801561355d57600080fd5b505afa158015613571573d6000803e3d6000fd5b505050506040513d601f19601f8201168201806040525081019061359591906148fb565b8354909150429063ffffffff808316600160c01b9092041610806135c15750336001600160a01b038316145b61362b5760405162461bcd60e51b815260206004820152603560248201527f4f6e6c7920626f72726f7765722063616e2072657475726e2077697468696e20604482015274189bdc9c9bddd95c8819dc9858d9481c195c9a5bd9605a1b6064820152608401610bdf565b835463ffffffff808316600160e01b9092041610806136525750336001600160a01b038316145b8061366757506007546001600160a01b031633145b6136e75760405162461bcd60e51b815260206004820152604560248201527f4f6e6c7920626f72726f776572206f7220656e74657270726973652063616e2060448201527f72657475726e2077697468696e20656e74657270726973652067726163652070606482015264195c9a5bd960da1b608482015260a401610bdf565b8354600d80546001600160701b03909216916000906137079084906154a7565b9091555050600354604051633f34d4cf60e21b8152600481018790523360248201526001600160a01b039091169063fcd3533c90604401600060405180830381600087803b15801561375857600080fd5b505af115801561376c573d6000803e3d6000fd5b5050506000958652505060116020525050604082209182555060010180546001600160801b0319169055565b6000546001600160a01b031633146137c25760405162461bcd60e51b8152600401610bdf906151ca565b6004805463ffffffff909216600160a01b0263ffffffff60a01b19909216919091179055565b6000546001600160a01b031633146138125760405162461bcd60e51b8152600401610bdf906151ca565b6001600160a01b0381166138775760405162461bcd60e51b815260206004820152602660248201527f4f776e61626c653a206e6577206f776e657220697320746865207a65726f206160448201526564647265737360d01b6064820152608401610bdf565b600080546040516001600160a01b03808516939216917f8be0079c531659141344cd1fd0a4f28419497f9722a3daafe3b4186f6b6457e091a3600080546001600160a01b0319166001600160a01b0392909216919091179055565b6000836138de816120c8565b6138fa5760405162461bcd60e51b8152600401610bdf906151ff565b60015460405163a1571a5760e01b81526001600160a01b0391821660048201523360248201528582166044820152606481018590529086169063a1571a5790608401600060405180830381600087803b15801561395657600080fd5b505af115801561396a573d6000803e3d6000fd5b50600198975050505050505050565b6001600160a01b0381166000908152600960205260408120546139a090600190810b61543a565b92915050565b6000546001600160a01b031633146139d05760405162461bcd60e51b8152600401610bdf906151ca565b836139da816120c8565b6139f65760405162461bcd60e51b8152600401610bdf906151ff565b6001600160a01b038316613a415760405162461bcd60e51b815260206004820152601260248201527124b73b30b634b2102130b9b2902a37b5b2b760711b6044820152606401610bdf565b506001600160a01b0393841660009081526013602052604090208054600182018054949096166001600160a01b0319909416939093179094556001600160701b03908116600160701b026001600160e01b0319909216921691909117179055565b6000600f5482613ab0611f13565b613aba919061541b565b6139a091906153e4565b6040516001600160a01b03831660248201526044810182905261248490849063a9059cbb60e01b906064015b60408051601f198184030181529190526020810180516001600160e01b03166001600160e01b031990931692909217909152614184565b6000613b31611f13565b82600f54613aba919061541b565b80600c5410613b655780600c6000828254613b5a91906154a7565b909155506122bb9050565b6000613b6f614256565b6001600160701b031690508181600c54613b8991906153ad565b613b9391906154a7565b600c555050565b61138861ffff82161115613bfe5760405162461bcd60e51b815260206004820152602560248201527f4d6178696d756d2073657276696365206665652070657263656e7420746872656044820152641cda1bdb1960da1b6064820152608401610bdf565b6001600160a01b039091166000908152601360205260409020600101805461ffff909216600160e01b0261ffff60e01b19909216919091179055565b6000604051733d602d80600a3d3981f3363d3d373d3d3d363d7360601b81528260601b60148201526e5af43d82803e903d91602b57fd5bf360881b60288201526037816000f09150506001600160a01b038116613cd25760405162461bcd60e51b8152602060048201526016602482015275115490cc4c4d8dce8818dc99585d194819985a5b195960521b6044820152606401610bdf565b919050565b600554604051630641977d60e21b81526001600160a01b0386811660048301526001600160701b038516602483015263ffffffff8416604483015260009283928392839216906319065df49060640160206040518083038186803b158015613d3e57600080fd5b505afa158015613d52573d6000803e3d6000fd5b505050506040513d601f19601f82011682018060405250810190613d769190614e50565b90506000613d8489836142e2565b6006549091506000906001600160a01b03166329fb92ce613dc08c6001600160a01b039081166000908152601360205260409020600101541690565b6040516001600160e01b031960e084901b1681526001600160a01b0391821660048201526001600160701b0387166024820152908c16604482015260640160206040518083038186803b158015613e1657600080fd5b505afa158015613e2a573d6000803e3d6000fd5b505050506040513d601f19601f82011682018060405250810190613e4e9190614e9e565b9050826001600160701b031681836001600160701b0316613e6f919061541b565b613e7991906153e4565b9450613e8e6001600160701b038616826154a7565b9550613e9b8a8a8a614317565b93505050509450945094915050565b6001600160a01b038116600090815260096020526040902054600190810b900b613f4257600a8054600180820183557fc65a7bb8d6351c1cf70c95a316cc6a92839c986682d98bc35f958f4883f9d2a890910180546001600160a01b0319166001600160a01b039490941693841790559054600092835260096020526040909220805461ffff191661ffff9390920b92909216179055565b6001600160a01b038116600090815260096020526040812054600190810b900b12156122bb576001600160a01b038116600090815260096020526040902054613f8d9060010b615580565b6001600160a01b0382166000908152600960205260409020805460019290920b61ffff1661ffff1990921691909117905550565b6040516001600160a01b038085166024830152831660448201526064810182905261164c9085906323b872dd60e01b90608401613af0565b600e546000906140449063ffffffff600160e01b8204169061402e906001600160701b0380821691600160701b90041661547f565b600454600160a01b900463ffffffff164261444c565b600e54611f339190600160701b90046001600160701b031661547f565b6001600160a01b038116600090815260096020526040902054600190810b900b6140bd5760405162461bcd60e51b815260206004820152600d60248201526c24b73b30b634b2103a37b5b2b760991b6044820152606401610bdf565b6001600160a01b038116600090815260096020526040812054600190810b900b13156122bb576001600160a01b038116600090815260096020526040902054613f8d9060010b615580565b614110613ff9565b600e805463ffffffff4216600160e01b026dffffffffffffffffffffffffffff60701b9091166001600160701b0393841617178082558392829161415d918591600160701b900416615382565b92506101000a8154816001600160701b0302191690836001600160701b0316021790555050565b60006141d9826040518060400160405280602081526020017f5361666545524332303a206c6f772d6c6576656c2063616c6c206661696c6564815250856001600160a01b03166145bd9092919063ffffffff16565b80519091501561248457808060200190518101906141f79190614a1a565b6124845760405162461bcd60e51b815260206004820152602a60248201527f5361666545524332303a204552433230206f7065726174696f6e20646964206e6044820152691bdd081cdd58d8d9595960b21b6064820152608401610bdf565b6000614260613ff9565b600e80546dffffffffffffffffffffffffffff19168082559192508291819061429a908490600160701b90046001600160701b031661547f565b92506101000a8154816001600160701b0302191690836001600160701b0316021790555042600e601c6101000a81548163ffffffff021916908363ffffffff16021790555090565b60006127106142f0846114b3565b6001600160701b0316836001600160701b031661430d919061541b565b6126d191906153e4565b60085460009081906127109061434190600160e01b900461ffff166001600160701b03861661541b565b61434b91906153e4565b6006549091506000906001600160a01b03166329fb92ce614387886001600160a01b039081166000908152601360205260409020600101541690565b61439089613478565b6040516001600160e01b031960e085901b1681526001600160a01b0392831660048201526001600160701b039091166024820152908816604482015260640160206040518083038186803b1580156143e757600080fd5b505afa1580156143fb573d6000803e3d6000fd5b505050506040513d601f19601f8201168201806040525081019061441f9190614e9e565b9050806001600160701b0316826001600160701b0316106144405781614442565b805b9695505050505050565b60008463ffffffff168263ffffffff16101561449b5760405162461bcd60e51b815260206004820152600e60248201526d125b9d985b1a59081c195c9a5bd960921b6044820152606401610bdf565b6144a585836154be565b91506144b183836153f8565b63ffffffff16846001600160701b0316901c935082826144d1919061555d565b915063ffffffff821615806144ed57506001600160701b038416155b156144f95750826124da565b60006001600160701b0385168163ffffffff8087169061452d90871671b17217f7d1cf79abc9e3b39803f2f6af40f361541b565b61453791906153e4565b9050600160901b5b82156145b05761454f83856153ad565b93508061455c838561541b565b61456691906153e4565b9250614576600160901b826153ad565b905061458283856154a7565b93508061458f838561541b565b61459991906153e4565b92506145a9600160901b826153ad565b905061453f565b5091979650505050505050565b60606124da848460008585843b6146165760405162461bcd60e51b815260206004820152601d60248201527f416464726573733a2063616c6c20746f206e6f6e2d636f6e74726163740000006044820152606401610bdf565b600080866001600160a01b031685876040516146329190614f7f565b60006040518083038185875af1925050503d806000811461466f576040519150601f19603f3d011682016040523d82523d6000602084013e614674565b606091505b509150915061468482828661468f565b979650505050505050565b6060831561469e5750816126d1565b8251156146ae5782518084602001fd5b8160405162461bcd60e51b8152600401610bdf91906150d7565b8280546146d490615507565b90600052602060002090601f0160209004810192826146f6576000855561473c565b82601f1061470f5782800160ff1982351617855561473c565b8280016001018555821561473c579182015b8281111561473c578235825591602001919060010190614721565b506147489291506147c0565b5090565b82805461475890615507565b90600052602060002090601f01602090048101928261477a576000855561473c565b82601f1061479357805160ff191683800117855561473c565b8280016001018555821561473c579182015b8281111561473c5782518255916020019190600101906147a5565b5b8082111561474857600081556001016147c1565b60008083601f8401126147e6578182fd5b5081356001600160401b038111156147fc578182fd5b6020830191508360208260051b850101111561481757600080fd5b9250929050565b60008083601f84011261482f578182fd5b5081356001600160401b03811115614845578182fd5b60208301915083602082850101111561481757600080fd5b600082601f83011261486d578081fd5b813561488061487b8261535b565b61532b565b818152846020838601011115614894578283fd5b816020850160208301379081016020019190915292915050565b8035613cd2816155f7565b803561ffff81168114613cd257600080fd5b803563ffffffff81168114613cd257600080fd5b6000602082840312156148f0578081fd5b81356126d1816155e2565b60006020828403121561490c578081fd5b81516126d1816155e2565b60008060006060848603121561492b578182fd5b8335614936816155e2565b92506020840135614946816155e2565b929592945050506040919091013590565b6000806000806080858703121561496c578081fd5b8435614977816155e2565b93506020850135614987816155e2565b92506040850135614997816155e2565b915060608501356149a7816155e2565b939692955090935050565b600080600080604085870312156149c7578384fd5b84356001600160401b03808211156149dd578586fd5b6149e9888389016147d5565b90965094506020870135915080821115614a01578384fd5b50614a0e878288016147d5565b95989497509550505050565b600060208284031215614a2b578081fd5b815180151581146126d1578182fd5b60008060006060848603121561492b578081fd5b600080600080600060a08688031215614a65578283fd5b8535614a70816155e2565b94506020860135614a80816155e2565b93506040860135614a90816155f7565b925060608601359150614aa5608087016148cb565b90509295509295909350565b60008060008060808587031215614ac6578182fd5b8435614ad1816155e2565b93506020850135614ae1816155e2565b92506040850135614af1816155f7565b9150614aff606086016148cb565b905092959194509250565b60008060008060808587031215614b1f578182fd5b8435614b2a816155e2565b93506020850135614b3a816155f7565b92506040850135614b4a816155e2565b915060608501356149a7816155f7565b60008060408385031215614b6c578182fd5b8235614b77816155e2565b9150614b85602084016148b9565b90509250929050565b60008060408385031215614ba0578182fd5b8235614bab816155e2565b946020939093013593505050565b60008060408385031215614bcb578182fd5b8235614bd6816155e2565b9150614b85602084016148cb565b600080600060608486031215614bf8578081fd5b8335614c03816155e2565b9250614c11602085016148cb565b9150614c1f604085016148cb565b90509250925092565b60008060208385031215614c3a578182fd5b82356001600160401b03811115614c4f578283fd5b614c5b8582860161481e565b90969095509350505050565b600060208284031215614c78578081fd5b81516001600160401b03811115614c8d578182fd5b8201601f81018413614c9d578182fd5b8051614cab61487b8261535b565b818152856020838501011115614cbf578384fd5b614cd08260208301602086016154db565b95945050505050565b60008060008060008060a08789031215614cf1578384fd5b86356001600160401b0380821115614d07578586fd5b614d138a838b0161485d565b97506020890135915080821115614d28578586fd5b50614d3589828a0161481e565b9096509450506040870135614d49816155e2565b92506060870135614d59816155e2565b91506080870135614d69816155e2565b809150509295509295509295565b60008060008060008060008060006101208a8c031215614d95578687fd5b89356001600160401b0380821115614dab578889fd5b614db78d838e0161485d565b9a5060208c0135915080821115614dcc578889fd5b50614dd98c828d0161485d565b985050614de860408b016148cb565b965060608a0135614df8816155f7565b955060808a0135614e08816155e2565b9450614e1660a08b016148b9565b9350614e2460c08b016148cb565b9250614e3260e08b016148cb565b9150614e416101008b016148ae565b90509295985092959850929598565b600060208284031215614e61578081fd5b81516126d1816155f7565b600060208284031215614e7d578081fd5b6126d1826148b9565b600060208284031215614e97578081fd5b5035919050565b600060208284031215614eaf578081fd5b5051919050565b60008060008060808587031215614ecb578182fd5b843593506020850135614edd816155e2565b925060408501359150614aff606086016148cb565b600060208284031215614f03578081fd5b6126d1826148cb565b600081518084526020808501808196508360051b81019150828601855b858110156145b0578284038952614f41848351614f53565b98850198935090840190600101614f29565b60008151808452614f6b8160208601602086016154db565b601f01601f19169290920160200192915050565b60008251614f918184602087016154db565b9190910192915050565b60008351614fad8184602088016154db565b600160fd1b9083019081528351614fcb8160018401602088016154db565b01600101949350505050565b6080808252855190820181905260009060209060a0840190828901845b828110156150195781516001600160a01b031684529284019290840190600101614ff4565b5050508381038285015261502d8188614f0c565b905083810360408501526150418187614f0c565b84810360608601528551808252838701925090830190845b8181101561507b57835163ffffffff1683529284019291840191600101615059565b50909998505050505050505050565b6020808252825182820181905260009190848201906040850190845b818110156150cb5783516001600160a01b0316835292840192918401916001016150a6565b50909695505050505050565b6020815260006126d16020830184614f53565b6060815260006150fd6060830186614f53565b828103602084015261510f8186614f53565b91505060018060a01b0383166040830152949350505050565b6020808252600f908201526e125b9d985b1a59081d1bdad95b9259608a1b604082015260600190565b6020808252600c908201526b5a65726f206164647265737360a01b604082015260600190565b60208082526033908201527f496e746572657374207061796d656e7420746f6b656e2069732064697361626c6040820152721959081bdc881b9bdd081cdd5c1c1bdc9d1959606a1b606082015260800190565b6020808252818101527f4f776e61626c653a2063616c6c6572206973206e6f7420746865206f776e6572604082015260600190565b6020808252601290820152712ab735b737bbb7102837bbb2b92a37b5b2b760711b604082015260600190565b60208082526017908201527f4475726174696f6e206973206e6f7420616c6c6f776564000000000000000000604082015260600190565b6000610100820190506001600160701b03835116825261ffff6020840151166020830152604083015163ffffffff8082166040850152806060860151166060850152505060808301516152bd608084018263ffffffff169052565b5060a08301516152d560a084018263ffffffff169052565b5060c08301516152f060c08401826001600160701b03169052565b5060e08301516116eb60e084018261ffff169052565b8481528360208201528260408201526080606082015260006144426080830184614f53565b604051601f8201601f191681016001600160401b0381118282101715615353576153536155cc565b604052919050565b60006001600160401b03821115615374576153746155cc565b50601f01601f191660200190565b60006001600160701b038083168185168083038211156153a4576153a46155a0565b01949350505050565b600082198211156153c0576153c06155a0565b500190565b600063ffffffff8083168185168083038211156153a4576153a46155a0565b6000826153f3576153f36155b6565b500490565b600063ffffffff8084168061540f5761540f6155b6565b92169190910492915050565b6000816000190483118215151615615435576154356155a0565b500290565b60008160010b8360010b82811281617fff190183128115161561545f5761545f6155a0565b81617fff018313811615615475576154756155a0565b5090039392505050565b60006001600160701b038381169083168181101561549f5761549f6155a0565b039392505050565b6000828210156154b9576154b96155a0565b500390565b600063ffffffff8381169083168181101561549f5761549f6155a0565b60005b838110156154f65781810151838201526020016154de565b8381111561164c5750506000910152565b600181811c9082168061551b57607f821691505b6020821081141561553c57634e487b7160e01b600052602260045260246000fd5b50919050565b6000600019821415615556576155566155a0565b5060010190565b600063ffffffff80841680615574576155746155b6565b92169190910692915050565b60008160010b617fff19811415615599576155996155a0565b9003919050565b634e487b7160e01b600052601160045260246000fd5b634e487b7160e01b600052601260045260246000fd5b634e487b7160e01b600052604160045260246000fd5b6001600160a01b03811681146122bb57600080fd5b6001600160701b03811681146122bb57600080fdfea26469706673582212203ed0a7e78851d03b674eb26339cdc5bd1c81c8359ae9f48ed8cbe5b9e8d4130b64736f6c63430008040033",
  "linkReferences": {},
  "deployedLinkReferences": {}
}