{
  "_format": "hh-sol-artifact-1",
  "contractName": "Enterprise",
  "sourceName": "contracts/Enterprise.sol",
  "abi": [
    {
      "anonymous": false,
      "inputs": [
        {
          "indexed": true,
          "internalType": "address",
          "name": "powerToken",
          "type": "address"
        },
        {
          "indexed": false,
          "internalType": "uint256",
          "name": "tokenId",
          "type": "uint256"
        },
        {
          "indexed": false,
          "internalType": "uint32",
          "name": "from",
          "type": "uint32"
        },
        {
          "indexed": false,
          "internalType": "uint32",
          "name": "to",
          "type": "uint32"
        }
      ],
      "name": "Borrowed",
      "type": "event"
    },
    {
      "anonymous": false,
      "inputs": [
        {
          "indexed": true,
          "internalType": "address",
          "name": "previousOwner",
          "type": "address"
        },
        {
          "indexed": true,
          "internalType": "address",
          "name": "newOwner",
          "type": "address"
        }
      ],
      "name": "OwnershipTransferred",
      "type": "event"
    },
    {
      "anonymous": false,
      "inputs": [
        {
          "indexed": true,
          "internalType": "address",
          "name": "powerToken",
          "type": "address"
        },
        {
          "indexed": false,
          "internalType": "uint32",
          "name": "halfLife",
          "type": "uint32"
        },
        {
          "indexed": false,
          "internalType": "uint112",
          "name": "factor",
          "type": "uint112"
        }
      ],
      "name": "ServiceRegistered",
      "type": "event"
    },
    {
      "inputs": [
        {
          "internalType": "uint256",
          "name": "liquidityAmount",
          "type": "uint256"
        }
      ],
      "name": "addLiquidity",
      "outputs": [],
      "stateMutability": "nonpayable",
      "type": "function"
    },
    {
      "inputs": [
        {
          "internalType": "contract IPowerToken",
          "name": "powerToken",
          "type": "address"
        },
        {
          "internalType": "contract IERC20",
          "name": "paymentToken",
          "type": "address"
        },
        {
          "internalType": "uint112",
          "name": "amount",
          "type": "uint112"
        },
        {
          "internalType": "uint256",
          "name": "maximumPayment",
          "type": "uint256"
        },
        {
          "internalType": "uint32",
          "name": "duration",
          "type": "uint32"
        }
      ],
      "name": "borrow",
      "outputs": [],
      "stateMutability": "nonpayable",
      "type": "function"
    },
    {
      "inputs": [
        {
          "internalType": "address",
          "name": "token",
          "type": "address"
        }
      ],
      "name": "disablePaymentToken",
      "outputs": [],
      "stateMutability": "nonpayable",
      "type": "function"
    },
    {
      "inputs": [
        {
          "internalType": "address",
          "name": "token",
          "type": "address"
        }
      ],
      "name": "enablePaymentToken",
      "outputs": [],
      "stateMutability": "nonpayable",
      "type": "function"
    },
    {
      "inputs": [
        {
          "internalType": "contract IPowerToken",
          "name": "powerToken",
          "type": "address"
        },
        {
          "internalType": "contract IERC20",
          "name": "paymentToken",
          "type": "address"
        },
        {
          "internalType": "uint112",
          "name": "amount",
          "type": "uint112"
        },
        {
          "internalType": "uint32",
          "name": "duration",
          "type": "uint32"
        }
      ],
      "name": "estimateLoan",
      "outputs": [
        {
          "internalType": "uint256",
          "name": "",
          "type": "uint256"
        }
      ],
      "stateMutability": "view",
      "type": "function"
    },
    {
      "inputs": [],
      "name": "getAvailableReserve",
      "outputs": [
        {
          "internalType": "uint256",
          "name": "",
          "type": "uint256"
        }
      ],
      "stateMutability": "view",
      "type": "function"
    },
    {
      "inputs": [],
      "name": "getBaseUri",
      "outputs": [
        {
          "internalType": "string",
          "name": "",
          "type": "string"
        }
      ],
      "stateMutability": "view",
      "type": "function"
    },
    {
      "inputs": [],
      "name": "getBorrowToken",
      "outputs": [
        {
          "internalType": "contract IBorrowToken",
          "name": "",
          "type": "address"
        }
      ],
      "stateMutability": "view",
      "type": "function"
    },
    {
      "inputs": [],
      "name": "getBorrowerLoanReturnGracePeriod",
      "outputs": [
        {
          "internalType": "uint32",
          "name": "",
          "type": "uint32"
        }
      ],
      "stateMutability": "view",
      "type": "function"
    },
    {
      "inputs": [],
      "name": "getConverter",
      "outputs": [
        {
          "internalType": "contract IConverter",
          "name": "",
          "type": "address"
        }
      ],
      "stateMutability": "view",
      "type": "function"
    },
    {
      "inputs": [],
      "name": "getEnterpriseCollector",
      "outputs": [
        {
          "internalType": "address",
          "name": "",
          "type": "address"
        }
      ],
      "stateMutability": "view",
      "type": "function"
    },
    {
      "inputs": [],
      "name": "getEnterpriseLoanCollectGracePeriod",
      "outputs": [
        {
          "internalType": "uint32",
          "name": "",
          "type": "uint32"
        }
      ],
      "stateMutability": "view",
      "type": "function"
    },
    {
      "inputs": [],
      "name": "getEnterpriseVault",
      "outputs": [
        {
          "internalType": "address",
          "name": "",
          "type": "address"
        }
      ],
      "stateMutability": "view",
      "type": "function"
    },
    {
      "inputs": [],
      "name": "getGCFeePercent",
      "outputs": [
        {
          "internalType": "uint16",
          "name": "",
          "type": "uint16"
        }
      ],
      "stateMutability": "view",
      "type": "function"
    },
    {
      "inputs": [],
      "name": "getInfo",
      "outputs": [
        {
          "internalType": "uint256",
          "name": "reserve",
          "type": "uint256"
        },
        {
          "internalType": "uint256",
          "name": "availableReserve",
          "type": "uint256"
        },
        {
          "internalType": "uint256",
          "name": "totalShares",
          "type": "uint256"
        },
        {
          "internalType": "string",
          "name": "name",
          "type": "string"
        }
      ],
      "stateMutability": "view",
      "type": "function"
    },
    {
      "inputs": [],
      "name": "getInterestToken",
      "outputs": [
        {
          "internalType": "contract IInterestToken",
          "name": "",
          "type": "address"
        }
      ],
      "stateMutability": "view",
      "type": "function"
    },
    {
      "inputs": [
        {
          "internalType": "uint256",
          "name": "tokenId",
          "type": "uint256"
        }
      ],
      "name": "getLiquidityInfo",
      "outputs": [
        {
          "components": [
            {
              "internalType": "uint256",
              "name": "amount",
              "type": "uint256"
            },
            {
              "internalType": "uint256",
              "name": "shares",
              "type": "uint256"
            },
            {
              "internalType": "uint256",
              "name": "block",
              "type": "uint256"
            }
          ],
          "internalType": "struct EnterpriseStorage.LiquidityInfo",
          "name": "",
          "type": "tuple"
        }
      ],
      "stateMutability": "view",
      "type": "function"
    },
    {
      "inputs": [],
      "name": "getLiquidityToken",
      "outputs": [
        {
          "internalType": "contract IERC20Metadata",
          "name": "",
          "type": "address"
        }
      ],
      "stateMutability": "view",
      "type": "function"
    },
    {
      "inputs": [],
      "name": "getLoanCostEstimator",
      "outputs": [
        {
          "internalType": "contract ILoanCostEstimator",
          "name": "",
          "type": "address"
        }
      ],
      "stateMutability": "view",
      "type": "function"
    },
    {
      "inputs": [
        {
          "internalType": "uint256",
          "name": "tokenId",
          "type": "uint256"
        }
      ],
      "name": "getLoanInfo",
      "outputs": [
        {
          "components": [
            {
              "internalType": "uint112",
              "name": "amount",
              "type": "uint112"
            },
            {
              "internalType": "uint16",
              "name": "powerTokenIndex",
              "type": "uint16"
            },
            {
              "internalType": "uint32",
              "name": "borrowingTime",
              "type": "uint32"
            },
            {
              "internalType": "uint32",
              "name": "maturityTime",
              "type": "uint32"
            },
            {
              "internalType": "uint32",
              "name": "borrowerReturnGraceTime",
              "type": "uint32"
            },
            {
              "internalType": "uint32",
              "name": "enterpriseCollectGraceTime",
              "type": "uint32"
            },
            {
              "internalType": "uint112",
              "name": "gcFee",
              "type": "uint112"
            },
            {
              "internalType": "uint16",
              "name": "gcFeeTokenIndex",
              "type": "uint16"
            }
          ],
          "internalType": "struct EnterpriseStorage.LoanInfo",
          "name": "",
          "type": "tuple"
        }
      ],
      "stateMutability": "view",
      "type": "function"
    },
    {
      "inputs": [
        {
          "internalType": "uint256",
          "name": "tokenId",
          "type": "uint256"
        }
      ],
      "name": "getOwedInterest",
      "outputs": [
        {
          "internalType": "uint256",
          "name": "",
          "type": "uint256"
        }
      ],
      "stateMutability": "view",
      "type": "function"
    },
    {
      "inputs": [
        {
          "internalType": "uint256",
          "name": "index",
          "type": "uint256"
        }
      ],
      "name": "getPowerToken",
      "outputs": [
        {
          "internalType": "contract IPowerToken",
          "name": "",
          "type": "address"
        }
      ],
      "stateMutability": "view",
      "type": "function"
    },
    {
      "inputs": [],
      "name": "getPowerTokenImpl",
      "outputs": [
        {
          "internalType": "address",
          "name": "",
          "type": "address"
        }
      ],
      "stateMutability": "view",
      "type": "function"
    },
    {
      "inputs": [
        {
          "internalType": "contract IPowerToken",
          "name": "powerToken",
          "type": "address"
        }
      ],
      "name": "getPowerTokenIndex",
      "outputs": [
        {
          "internalType": "uint16",
          "name": "",
          "type": "uint16"
        }
      ],
      "stateMutability": "view",
      "type": "function"
    },
    {
      "inputs": [],
      "name": "getPowerTokens",
      "outputs": [
        {
          "internalType": "contract IPowerToken[]",
          "name": "",
          "type": "address[]"
        }
      ],
      "stateMutability": "view",
      "type": "function"
    },
    {
      "inputs": [],
      "name": "getPowerTokensInfo",
      "outputs": [
        {
          "internalType": "address[]",
          "name": "addresses",
          "type": "address[]"
        },
        {
          "internalType": "string[]",
          "name": "names",
          "type": "string[]"
        },
        {
          "internalType": "string[]",
          "name": "symbols",
          "type": "string[]"
        },
        {
          "internalType": "uint32[]",
          "name": "halfLifes",
          "type": "uint32[]"
        }
      ],
      "stateMutability": "view",
      "type": "function"
    },
    {
      "inputs": [],
      "name": "getReserve",
      "outputs": [
        {
          "internalType": "uint256",
          "name": "",
          "type": "uint256"
        }
      ],
      "stateMutability": "view",
      "type": "function"
    },
    {
      "inputs": [
        {
          "internalType": "contract IPowerToken",
          "name": "powerToken",
          "type": "address"
        }
      ],
      "name": "getServiceBaseRate",
      "outputs": [
        {
          "internalType": "uint112",
          "name": "",
          "type": "uint112"
        }
      ],
      "stateMutability": "view",
      "type": "function"
    },
    {
      "inputs": [
        {
          "internalType": "contract IPowerToken",
          "name": "powerToken",
          "type": "address"
        }
      ],
      "name": "getServiceBaseToken",
      "outputs": [
        {
          "internalType": "contract IERC20Metadata",
          "name": "",
          "type": "address"
        }
      ],
      "stateMutability": "view",
      "type": "function"
    },
    {
      "inputs": [
        {
          "internalType": "contract IPowerToken",
          "name": "powerToken",
          "type": "address"
        }
      ],
      "name": "getServiceFeePercent",
      "outputs": [
        {
          "internalType": "uint112",
          "name": "",
          "type": "uint112"
        }
      ],
      "stateMutability": "view",
      "type": "function"
    },
    {
      "inputs": [
        {
          "internalType": "contract IPowerToken",
          "name": "powerToken",
          "type": "address"
        }
      ],
      "name": "getServiceHalfLife",
      "outputs": [
        {
          "internalType": "uint32",
          "name": "",
          "type": "uint32"
        }
      ],
      "stateMutability": "view",
      "type": "function"
    },
    {
      "inputs": [
        {
          "internalType": "contract IPowerToken",
          "name": "powerToken",
          "type": "address"
        }
      ],
      "name": "getServiceMaxLoanDuration",
      "outputs": [
        {
          "internalType": "uint32",
          "name": "",
          "type": "uint32"
        }
      ],
      "stateMutability": "view",
      "type": "function"
    },
    {
      "inputs": [
        {
          "internalType": "contract IPowerToken",
          "name": "powerToken",
          "type": "address"
        }
      ],
      "name": "getServiceMinGCFee",
      "outputs": [
        {
          "internalType": "uint112",
          "name": "",
          "type": "uint112"
        }
      ],
      "stateMutability": "view",
      "type": "function"
    },
    {
      "inputs": [
        {
          "internalType": "contract IPowerToken",
          "name": "powerToken",
          "type": "address"
        }
      ],
      "name": "getServiceMinLoanDuration",
      "outputs": [
        {
          "internalType": "uint32",
          "name": "",
          "type": "uint32"
        }
      ],
      "stateMutability": "view",
      "type": "function"
    },
    {
      "inputs": [
        {
          "internalType": "address",
          "name": "initialOwner",
          "type": "address"
        }
      ],
      "name": "initialize",
      "outputs": [],
      "stateMutability": "nonpayable",
      "type": "function"
    },
    {
      "inputs": [
        {
          "internalType": "string",
          "name": "enterpriseName",
          "type": "string"
        },
        {
          "internalType": "string",
          "name": "baseUri",
          "type": "string"
        },
        {
          "internalType": "contract ILoanCostEstimator",
          "name": "estimator",
          "type": "address"
        },
        {
          "internalType": "contract IConverter",
          "name": "converter",
          "type": "address"
        },
        {
          "internalType": "address",
          "name": "owner",
          "type": "address"
        }
      ],
      "name": "initialize",
      "outputs": [],
      "stateMutability": "nonpayable",
      "type": "function"
    },
    {
      "inputs": [
        {
          "internalType": "address",
          "name": "powerTokenImpl",
          "type": "address"
        },
        {
          "internalType": "contract IERC20Metadata",
          "name": "liquidityToken",
          "type": "address"
        },
        {
          "internalType": "contract IInterestToken",
          "name": "interestToken",
          "type": "address"
        },
        {
          "internalType": "contract IBorrowToken",
          "name": "borrowToken",
          "type": "address"
        }
      ],
      "name": "initializeTokens",
      "outputs": [],
      "stateMutability": "nonpayable",
      "type": "function"
    },
    {
      "inputs": [
        {
          "internalType": "contract IPowerToken",
          "name": "powerToken",
          "type": "address"
        }
      ],
      "name": "isRegisteredPowerToken",
      "outputs": [
        {
          "internalType": "bool",
          "name": "",
          "type": "bool"
        }
      ],
      "stateMutability": "view",
      "type": "function"
    },
    {
      "inputs": [
        {
          "internalType": "contract IPowerToken",
          "name": "powerToken",
          "type": "address"
        },
        {
          "internalType": "uint32",
          "name": "duration",
          "type": "uint32"
        }
      ],
      "name": "isServiceAllowedLoanDuration",
      "outputs": [
        {
          "internalType": "bool",
          "name": "",
          "type": "bool"
        }
      ],
      "stateMutability": "view",
      "type": "function"
    },
    {
      "inputs": [
        {
          "internalType": "contract IERC20",
          "name": "token",
          "type": "address"
        }
      ],
      "name": "isSupportedPaymentToken",
      "outputs": [
        {
          "internalType": "bool",
          "name": "",
          "type": "bool"
        }
      ],
      "stateMutability": "view",
      "type": "function"
    },
    {
      "inputs": [
        {
          "internalType": "address",
          "name": "from",
          "type": "address"
        },
        {
          "internalType": "address",
          "name": "to",
          "type": "address"
        },
        {
          "internalType": "uint256",
          "name": "tokenId",
          "type": "uint256"
        }
      ],
      "name": "loanTransfer",
      "outputs": [],
      "stateMutability": "nonpayable",
      "type": "function"
    },
    {
      "inputs": [],
      "name": "owner",
      "outputs": [
        {
          "internalType": "address",
          "name": "",
          "type": "address"
        }
      ],
      "stateMutability": "view",
      "type": "function"
    },
    {
      "inputs": [
        {
          "internalType": "uint256",
          "name": "tokenId",
          "type": "uint256"
        },
        {
          "internalType": "contract IERC20",
          "name": "paymentToken",
          "type": "address"
        },
        {
          "internalType": "uint256",
          "name": "maximumPayment",
          "type": "uint256"
        },
        {
          "internalType": "uint32",
          "name": "duration",
          "type": "uint32"
        }
      ],
      "name": "reborrow",
      "outputs": [],
      "stateMutability": "nonpayable",
      "type": "function"
    },
    {
      "inputs": [
        {
          "internalType": "string",
          "name": "serviceName",
          "type": "string"
        },
        {
          "internalType": "string",
          "name": "symbol",
          "type": "string"
        },
        {
          "internalType": "uint32",
          "name": "halfLife",
          "type": "uint32"
        },
        {
          "internalType": "uint112",
          "name": "baseRate",
          "type": "uint112"
        },
        {
          "internalType": "contract IERC20Metadata",
          "name": "baseToken",
          "type": "address"
        },
        {
          "internalType": "uint16",
          "name": "serviceFee",
          "type": "uint16"
        },
        {
          "internalType": "uint32",
          "name": "minLoanDuration",
          "type": "uint32"
        },
        {
          "internalType": "uint32",
          "name": "maxLoanDuration",
          "type": "uint32"
        },
        {
          "internalType": "uint112",
          "name": "minGCFee",
          "type": "uint112"
        }
      ],
      "name": "registerService",
      "outputs": [],
      "stateMutability": "nonpayable",
      "type": "function"
    },
    {
      "inputs": [
        {
          "internalType": "uint256",
          "name": "tokenId",
          "type": "uint256"
        }
      ],
      "name": "removeLiquidity",
      "outputs": [],
      "stateMutability": "nonpayable",
      "type": "function"
    },
    {
      "inputs": [
        {
          "internalType": "uint256",
          "name": "tokenId",
          "type": "uint256"
        }
      ],
      "name": "returnLoan",
      "outputs": [],
      "stateMutability": "nonpayable",
      "type": "function"
    },
    {
      "inputs": [
        {
          "internalType": "contract IPowerToken[]",
          "name": "powerToken",
          "type": "address[]"
        },
        {
          "internalType": "uint16[]",
          "name": "newServiceFeePercent",
          "type": "uint16[]"
        }
      ],
      "name": "scheduleServiceFeePercentBatch",
      "outputs": [],
      "stateMutability": "nonpayable",
      "type": "function"
    },
    {
      "inputs": [
        {
          "internalType": "string",
          "name": "baseUri",
          "type": "string"
        }
      ],
      "name": "setBaseUri",
      "outputs": [],
      "stateMutability": "nonpayable",
      "type": "function"
    },
    {
      "inputs": [
        {
          "internalType": "uint32",
          "name": "newPeriod",
          "type": "uint32"
        }
      ],
      "name": "setBorrowerLoanReturnGracePeriod",
      "outputs": [],
      "stateMutability": "nonpayable",
      "type": "function"
    },
    {
      "inputs": [
        {
          "internalType": "contract IConverter",
          "name": "newConverter",
          "type": "address"
        }
      ],
      "name": "setConverter",
      "outputs": [],
      "stateMutability": "nonpayable",
      "type": "function"
    },
    {
      "inputs": [
        {
          "internalType": "address",
          "name": "newCollector",
          "type": "address"
        }
      ],
      "name": "setEnterpriseCollector",
      "outputs": [],
      "stateMutability": "nonpayable",
      "type": "function"
    },
    {
      "inputs": [
        {
          "internalType": "uint32",
          "name": "newPeriod",
          "type": "uint32"
        }
      ],
      "name": "setEnterpriseLoanCollectGracePeriod",
      "outputs": [],
      "stateMutability": "nonpayable",
      "type": "function"
    },
    {
      "inputs": [
        {
          "internalType": "address",
          "name": "newVault",
          "type": "address"
        }
      ],
      "name": "setEnterpriseVault",
      "outputs": [],
      "stateMutability": "nonpayable",
      "type": "function"
    },
    {
      "inputs": [
        {
          "internalType": "uint16",
          "name": "newGcFeePercent",
          "type": "uint16"
        }
      ],
      "name": "setGcFeePercent",
      "outputs": [],
      "stateMutability": "nonpayable",
      "type": "function"
    },
    {
      "inputs": [
        {
          "internalType": "contract ILoanCostEstimator",
          "name": "newEstimator",
          "type": "address"
        }
      ],
      "name": "setLoanCostEstimator",
      "outputs": [],
      "stateMutability": "nonpayable",
      "type": "function"
    },
    {
      "inputs": [
        {
          "internalType": "contract IPowerToken",
          "name": "powerToken",
          "type": "address"
        },
        {
          "internalType": "uint112",
          "name": "baseRate",
          "type": "uint112"
        },
        {
          "internalType": "contract IERC20Metadata",
          "name": "baseToken",
          "type": "address"
        },
        {
          "internalType": "uint112",
          "name": "minGCFee",
          "type": "uint112"
        }
      ],
      "name": "setServiceBaseRate",
      "outputs": [],
      "stateMutability": "nonpayable",
      "type": "function"
    },
    {
      "inputs": [
        {
          "internalType": "contract IPowerToken",
          "name": "powerToken",
          "type": "address"
        },
        {
          "internalType": "uint16",
          "name": "newFeePercent",
          "type": "uint16"
        }
      ],
      "name": "setServiceFeePercent",
      "outputs": [],
      "stateMutability": "nonpayable",
      "type": "function"
    },
    {
      "inputs": [
        {
          "internalType": "contract IPowerToken",
          "name": "powerToken",
          "type": "address"
        },
        {
          "internalType": "uint32",
          "name": "minLoanDuration",
          "type": "uint32"
        },
        {
          "internalType": "uint32",
          "name": "maxLoanDuration",
          "type": "uint32"
        }
      ],
      "name": "setServiceLoanDurationLimits",
      "outputs": [],
      "stateMutability": "nonpayable",
      "type": "function"
    },
    {
      "inputs": [
        {
          "internalType": "uint256",
          "name": "index",
          "type": "uint256"
        }
      ],
      "name": "supportedPaymentTokens",
      "outputs": [
        {
          "internalType": "address",
          "name": "",
          "type": "address"
        }
      ],
      "stateMutability": "view",
      "type": "function"
    },
    {
      "inputs": [
        {
          "internalType": "contract IERC20",
          "name": "token",
          "type": "address"
        }
      ],
      "name": "supportedPaymentTokensIndex",
      "outputs": [
        {
          "internalType": "int16",
          "name": "",
          "type": "int16"
        }
      ],
      "stateMutability": "view",
      "type": "function"
    },
    {
      "inputs": [
        {
          "internalType": "address",
          "name": "newOwner",
          "type": "address"
        }
      ],
      "name": "transferOwnership",
      "outputs": [],
      "stateMutability": "nonpayable",
      "type": "function"
    },
    {
      "inputs": [
        {
          "internalType": "contract IPowerToken",
          "name": "powerToken",
          "type": "address"
        },
        {
          "internalType": "uint256",
          "name": "amount",
          "type": "uint256"
        }
      ],
      "name": "unwrap",
      "outputs": [
        {
          "internalType": "bool",
          "name": "",
          "type": "bool"
        }
      ],
      "stateMutability": "nonpayable",
      "type": "function"
    },
    {
      "inputs": [
        {
          "internalType": "uint256",
          "name": "tokenId",
          "type": "uint256"
        }
      ],
      "name": "withdrawInterest",
      "outputs": [],
      "stateMutability": "nonpayable",
      "type": "function"
    },
    {
      "inputs": [
        {
          "internalType": "contract IPowerToken",
          "name": "powerToken",
          "type": "address"
        },
        {
          "internalType": "uint256",
          "name": "amount",
          "type": "uint256"
        }
      ],
      "name": "wrap",
      "outputs": [
        {
          "internalType": "bool",
          "name": "",
          "type": "bool"
        }
      ],
      "stateMutability": "nonpayable",
      "type": "function"
    },
    {
      "inputs": [
        {
          "internalType": "contract IPowerToken",
          "name": "powerToken",
          "type": "address"
        },
        {
          "internalType": "address",
          "name": "to",
          "type": "address"
        },
        {
          "internalType": "uint256",
          "name": "amount",
          "type": "uint256"
        }
      ],
      "name": "wrapTo",
      "outputs": [
        {
          "internalType": "bool",
          "name": "",
          "type": "bool"
        }
      ],
      "stateMutability": "nonpayable",
      "type": "function"
    }
  ],
  "bytecode": "0x608060405260088054600160a01b600160e01b031916650546000002a360a71b17905534801561002e57600080fd5b50615a34806200003f6000396000f3fe608060405234801561001057600080fd5b50600436106103eb5760003560e01c806390f55edd1161021a578063c20aa9bc11610135578063e2b17a16116100c8578063f2fde38b11610097578063faaed4ad1161007c578063faaed4ad14610b3b578063fc0915b114610b4e578063fec0dea014610b6157600080fd5b8063f2fde38b14610aef578063f4e28f9a14610b0257600080fd5b8063e2b17a1614610a7d578063e36eca0c14610a90578063e902868314610aa3578063e912615414610adc57600080fd5b8063cc284f7b11610104578063cc284f7b146109e9578063d1c82007146109fc578063db0ed6a014610a35578063df57f2fa14610a4857600080fd5b8063c20aa9bc1461099f578063c2fe50dd146109b2578063c4d66de8146109c5578063c93d0b92146109d857600080fd5b8063aebb5041116101ad578063b96266fa1161017c578063b96266fa14610951578063bf376c7a14610966578063bf3bb1a514610979578063bfd84fb41461098c57600080fd5b8063aebb504114610901578063b19337a414610909578063b406bf6d1461091c578063b56de97e1461093e57600080fd5b8063a0bcfc7f116101e9578063a0bcfc7f146108b5578063a0efd118146108c8578063a358426f146108dd578063a554b26d146108f057600080fd5b806390f55edd1461086957806396ea29751461087c5780639c7aa7f81461088f5780639c8f9f23146108a257600080fd5b80633ff6fe871161030a578063644e44df1161029d57806389035b611161026c57806389035b61146107d75780638d6d50c91461080f5780638da5cb5b146108455780638e9fcf811461085657600080fd5b8063644e44df1461077e5780637791c42d1461078f5780638188d50d146107a057806383b9a009146107c657600080fd5b806353c09124116102d957806353c091241461071c57806359bf5d391461074b5780635a9b0b891461075357806362c1f3881461076b57600080fd5b80633ff6fe87146106d0578063449497ec146106e3578063512a53bc146106f657806351c6590a1461070957600080fd5b80632457056e116103825780632fb2067f116103515780632fb2067f146106515780633184fc641461069257806339f47693146106a55780633d4df897146106b857600080fd5b80632457056e1461059757806327623ddd146105e15780632b39a0ac146106075780632e365ade1461063e57600080fd5b80630ea1dc9e116103be5780630ea1dc9e14610541578063158bf451146105525780632261b07f14610565578063229304dc1461057657600080fd5b806304196058146103f05780630714012c1461042057806308669aab146105175780630cac36b21461052c575b600080fd5b6104036103fe366004615401565b610b72565b6040516001600160a01b0390911681526020015b60405180910390f35b61050a61042e366004615401565b6040805161010081018252600080825260208201819052918101829052606081018290526080810182905260a0810182905260c0810182905260e08101919091525060009081526010602090815260409182902082516101008101845281546001600160701b038082168352600160701b80830461ffff90811696850196909652600160801b830463ffffffff90811697850197909752600160a01b830487166060850152600160c01b830487166080850152600160e01b90920490951660a083015260019092015493841660c082015292041660e082015290565b60405161041791906156cd565b61052a610525366004615401565b610bb0565b005b610534610cbd565b604051610417919061567b565b6002546001600160a01b0316610403565b61052a6105603660046152f1565b610d4f565b6006546001600160a01b0316610403565b610589610584366004615028565b6112e1565b604051908152602001610417565b6105c96105a5366004614e55565b6001600160a01b03166000908152601260205260409020546001600160701b031690565b6040516001600160701b039091168152602001610417565b6105f46105ef366004614e55565b611420565b60405160019190910b8152602001610417565b6105c9610615366004614e55565b6001600160a01b0316600090815260126020526040902060010154600160e01b900461ffff1690565b61052a61064c36600461546d565b61144d565b61068261065f366004614e55565b6001600160a01b0316600090815260096020526040812054600190810b900b1390565b6040519015158152602001610417565b61052a6106a0366004614ecd565b61151e565b6106826106b3366004615105565b6115d0565b6106c06116ca565b604051610417949392919061557b565b61052a6106de366004614f28565b611a82565b61052a6106f13660046153e7565b611c28565b61052a610704366004614e8d565b611c92565b61052a610717366004615401565b612032565b61040361072a366004614e55565b6001600160a01b039081166000908152601260205260409020600101541690565b600c54610589565b61075b612174565b6040516104179493929190615771565b61052a610779366004614e55565b612220565b6001546001600160a01b0316610403565b6008546001600160a01b0316610403565b600854600160a01b900463ffffffff165b60405163ffffffff9091168152602001610417565b6004546001600160a01b0316610403565b6106826107e5366004614e55565b6001600160a01b0316600090815260126020526040902054600160e01b900463ffffffff16151590565b6107b161081d366004614e55565b6001600160a01b0316600090815260126020526040902054600160e01b900463ffffffff1690565b6000546001600160a01b0316610403565b61052a61086436600461515b565b6122cf565b61052a610877366004614e55565b61244c565b61040361088a366004615401565b6124fb565b61052a61089d366004614e55565b61251e565b61052a6108b0366004615401565b612572565b61052a6108c336600461519f565b612756565b600854600160c01b900463ffffffff166107b1565b6106826108eb366004615130565b6127af565b6007546001600160a01b0316610403565b600d54610589565b61052a610917366004614e55565b612808565b600854600160e01b900461ffff165b60405161ffff9091168152602001610417565b61052a61094c36600461546d565b6128b7565b610959612987565b604051610417919061562e565b610682610974366004615105565b6129e8565b610589610987366004615401565b612a5c565b61052a61099a366004614e55565b612a8b565b61052a6109ad3660046150d1565b612b21565b61052a6109c0366004615431565b612bdc565b61052a6109d3366004614e55565b6130f5565b6003546001600160a01b0316610403565b61052a6109f7366004614e55565b6131bf565b6107b1610a0a366004614e55565b6001600160a01b0316600090815260126020526040902060010154600160a01b900463ffffffff1690565b61052a610a43366004615252565b61326e565b610a5b610a56366004615401565b613341565b6040805182518152602080840151908201529181015190820152606001610417565b61052a610a8b366004614fc5565b61339e565b61092b610a9e366004614e55565b613af2565b6105c9610ab1366004614e55565b6001600160a01b0316600090815260126020526040902054600160701b90046001600160701b031690565b61052a610aea366004615401565b613b8b565b61052a610afd366004614e55565b613efd565b6107b1610b10366004614e55565b6001600160a01b0316600090815260126020526040902060010154600160c01b900463ffffffff1690565b610682610b49366004614fb1565b61401c565b61052a610b5c366004615081565b61411d565b6005546001600160a01b0316610403565b600060138281548110610b9557634e487b7160e01b600052603260045260246000fd5b6000918252602090912001546001600160a01b031692915050565b60008181526011602052604081206001810154815491929091610bd283614285565b610bdc91906158d5565b9050600d54811115610c355760405162461bcd60e51b815260206004820152601660248201527f496e73756666696369656e74206c69717569646974790000000000000000000060448201526064015b60405180910390fd5b600154610c4c906001600160a01b031633836142a2565b6000610c5b846000015461431e565b600185018190559050610c6e81846158d5565b600e6000828254610c7f91906158d5565b9250508190555081600d6000828254610c9891906158d5565b9250508190555081600c6000828254610cb191906158d5565b90915550505050505050565b6060600b8054610ccc90615918565b80601f0160208091040260200160405190810160405280929190818152602001828054610cf890615918565b8015610d455780601f10610d1a57610100808354040283529160200191610d45565b820191906000526020600020905b815481529060010190602001808311610d2857829003601f168201915b5050505050905090565b6000546001600160a01b03163314610d975760405162461bcd60e51b815260206004820181905260248201526000805160206159df8339815191526044820152606401610c2c565b60135461ffff11610dea5760405162461bcd60e51b815260206004820152601d60248201527f43616e6e6f74207265676973746572206d6f72652073657276696365730000006044820152606401610c2c565b8163ffffffff168363ffffffff161115610e465760405162461bcd60e51b815260206004820152601b60248201527f496e76616c6964206d696e20616e64206d617820706572696f647300000000006044820152606401610c2c565b60008763ffffffff1611610e9c5760405162461bcd60e51b815260206004820152601160248201527f496e76616c69642068616c66206c6966650000000000000000000000000000006044820152606401610c2c565b600154604080517f95d89b4100000000000000000000000000000000000000000000000000000000815290516000926001600160a01b0316916395d89b419160048083019286929190829003018186803b158015610ef957600080fd5b505afa158015610f0d573d6000803e3d6000fd5b505050506040513d6000823e601f3d908101601f19168201604052610f3591908101906151df565b90506000818a604051602001610f4c929190615523565b60408051601f19818403018152919052600454909150600090610f77906001600160a01b0316614331565b905060006040518061010001604052808b6001600160701b03168152602001866001600160701b031681526020018c63ffffffff1681526020018a6001600160a01b031681526020018863ffffffff1681526020018763ffffffff1681526020018961ffff16815260200160138054905061ffff1681525090508060126000846001600160a01b03166001600160a01b0316815260200190815260200160002060008201518160000160006101000a8154816001600160701b0302191690836001600160701b03160217905550602082015181600001600e6101000a8154816001600160701b0302191690836001600160701b03160217905550604082015181600001601c6101000a81548163ffffffff021916908363ffffffff16021790555060608201518160010160006101000a8154816001600160a01b0302191690836001600160a01b0316021790555060808201518160010160146101000a81548163ffffffff021916908363ffffffff16021790555060a08201518160010160186101000a81548163ffffffff021916908363ffffffff16021790555060c082015181600101601c6101000a81548161ffff021916908361ffff16021790555060e082015181600101601e6101000a81548161ffff021916908361ffff1602179055509050506013829080600181540180825580915050600190039060005260206000200160009091909190916101000a8154816001600160a01b0302191690836001600160a01b03160217905550816001600160a01b031663077f224a8e85306040518463ffffffff1660e01b81526004016111d59392919061568e565b600060405180830381600087803b1580156111ef57600080fd5b505af1158015611203573d6000803e3d6000fd5b50506005546040517f508ee32c0000000000000000000000000000000000000000000000000000000081526001600160a01b038681166004830152909116925063508ee32c9150602401600060405180830381600087803b15801561126757600080fd5b505af115801561127b573d6000803e3d6000fd5b50506040805163ffffffff8f1681526001600160701b038e1660208201526001600160a01b03861693507f18706585e986f622c9d914abfb256d563b9ea274cd5d49124e0518aa314b8c129250015b60405180910390a250505050505050505050505050565b6001600160a01b0384166000908152601260205260408120548590600160e01b900463ffffffff1661134a5760405162461bcd60e51b81526020600482015260126024820152712ab735b737bbb7102837bbb2b92a37b5b2b760711b6044820152606401610c2c565b6001600160a01b038516600090815260096020526040812054600190810b900b136113dd5760405162461bcd60e51b815260206004820152603360248201527f496e746572657374207061796d656e7420746f6b656e2069732064697361626c60448201527f6564206f72206e6f7420737570706f72746564000000000000000000000000006064820152608401610c2c565b60008060006113ee898989896143ec565b919450925090508061140083856157ef565b61140a91906157ef565b6001600160701b03169998505050505050505050565b6001600160a01b03811660009081526009602052604081205461144790600190810b615890565b92915050565b6000546001600160a01b031633146114955760405162461bcd60e51b815260206004820181905260248201526000805160206159df8339815191526044820152606401610c2c565b60085463ffffffff600160c01b909104811690821611156114f85760405162461bcd60e51b815260206004820152601560248201527f496e76616c696420677261636520706572696f647300000000000000000000006044820152606401610c2c565b6008805463ffffffff909216600160a01b0263ffffffff60a01b19909216919091179055565b6004546001600160a01b0316156115775760405162461bcd60e51b815260206004820152601360248201527f416c726561647920696e697469616c697a6564000000000000000000000000006044820152606401610c2c565b600480546001600160a01b038087166001600160a01b031992831617909255600180548684169083161790556002805485841690831617905560038054928416929091169190911790556115ca836145d8565b50505050565b6001600160a01b0382166000908152601260205260408120548390600160e01b900463ffffffff166116395760405162461bcd60e51b81526020600482015260126024820152712ab735b737bbb7102837bbb2b92a37b5b2b760711b6044820152606401610c2c565b6001546040517f8cc7104f0000000000000000000000000000000000000000000000000000000081526001600160a01b0391821660048201523360248201526044810185905290851690638cc7104f90606401600060405180830381600087803b1580156116a657600080fd5b505af11580156116ba573d6000803e3d6000fd5b50505050600191505b5092915050565b6013546060908190819081908067ffffffffffffffff8111156116fd57634e487b7160e01b600052604160045260246000fd5b604051908082528060200260200182016040528015611726578160200160208202803683370190505b5094508067ffffffffffffffff81111561175057634e487b7160e01b600052604160045260246000fd5b60405190808252806020026020018201604052801561178357816020015b606081526020019060019003908161176e5790505b5093508067ffffffffffffffff8111156117ad57634e487b7160e01b600052604160045260246000fd5b6040519080825280602002602001820160405280156117e057816020015b60608152602001906001900390816117cb5790505b5092508067ffffffffffffffff81111561180a57634e487b7160e01b600052604160045260246000fd5b604051908082528060200260200182016040528015611833578160200160208202803683370190505b50915060005b81811015611a7a5760006013828154811061186457634e487b7160e01b600052603260045260246000fd5b9060005260206000200160009054906101000a90046001600160a01b03169050808783815181106118a557634e487b7160e01b600052603260045260246000fd5b60200260200101906001600160a01b031690816001600160a01b031681525050806001600160a01b03166306fdde036040518163ffffffff1660e01b815260040160006040518083038186803b1580156118fe57600080fd5b505afa158015611912573d6000803e3d6000fd5b505050506040513d6000823e601f3d908101601f1916820160405261193a91908101906151df565b86838151811061195a57634e487b7160e01b600052603260045260246000fd5b6020026020010181905250806001600160a01b03166395d89b416040518163ffffffff1660e01b815260040160006040518083038186803b15801561199e57600080fd5b505afa1580156119b2573d6000803e3d6000fd5b505050506040513d6000823e601f3d908101601f191682016040526119da91908101906151df565b8583815181106119fa57634e487b7160e01b600052603260045260246000fd5b6020026020010181905250611a32816001600160a01b031660009081526012602052604090205463ffffffff600160e01b9091041690565b848381518110611a5257634e487b7160e01b600052603260045260246000fd5b63ffffffff909216602092830291909101909101525080611a728161594d565b915050611839565b505090919293565b6000546001600160a01b03163314611aca5760405162461bcd60e51b815260206004820181905260248201526000805160206159df8339815191526044820152606401610c2c565b828114611b195760405162461bcd60e51b815260206004820152601460248201527f496e76616c6964206172726179206c656e6774680000000000000000000000006044820152606401610c2c565b60005b83811015611c2157611b5c858583818110611b4757634e487b7160e01b600052603260045260246000fd5b90506020020160208101906107e59190614e55565b611b9d5760405162461bcd60e51b81526020600482015260126024820152712ab735b737bbb7102837bbb2b92a37b5b2b760711b6044820152606401610c2c565b611c0f858583818110611bc057634e487b7160e01b600052603260045260246000fd5b9050602002016020810190611bd59190614e55565b848484818110611bf557634e487b7160e01b600052603260045260246000fd5b9050602002016020810190611c0a91906153e7565b6146ef565b80611c198161594d565b915050611b1c565b5050505050565b6000546001600160a01b03163314611c705760405162461bcd60e51b815260206004820181905260248201526000805160206159df8339815191526044820152606401610c2c565b6008805461ffff909216600160e01b0261ffff60e01b19909216919091179055565b6003546001600160a01b03163314611cec5760405162461bcd60e51b815260206004820152600f60248201527f4e6f7420426f72726f77546f6b656e00000000000000000000000000000000006044820152606401610c2c565b600081815260106020908152604080832081516101008101835281546001600160701b03808216835261ffff600160701b808404821697850188905263ffffffff600160801b8504811697860197909752600160a01b840487166060860152600160c01b840487166080860152600160e01b90930490951660a084015260019093015492831660c083015290910490911660e08201526013805491939290918110611da757634e487b7160e01b600052603260045260246000fd5b6000918252602090912001546001600160a01b0316905080611dfd5760405162461bcd60e51b815260206004820152600f60248201526e125b9d985b1a59081d1bdad95b9259608a1b6044820152606401610c2c565b606082015163ffffffff1642116001600160a01b038681161590861680159030148015611e3257611e2d87613b8b565b612027565b8115611ec55785516040517f79cc67900000000000000000000000000000000000000000000000000000000081526001600160a01b038b811660048301526001600160701b039092166024820152908616906379cc6790906044015b600060405180830381600087803b158015611ea857600080fd5b505af1158015611ebc573d6000803e3d6000fd5b50505050612027565b8215611f255785516040517f40c10f190000000000000000000000000000000000000000000000000000000081526001600160a01b038a811660048301526001600160701b039092166024820152908616906340c10f1990604401611e8e565b83611fdf5785516040517f33bebb770000000000000000000000000000000000000000000000000000000081526001600160a01b038b811660048301528a811660248301526001600160701b039092166044820152908616906333bebb7790606401602060405180830381600087803b158015611fa157600080fd5b505af1158015611fb5573d6000803e3d6000fd5b505050506040513d601f19601f82011682018060405250810190611fd99190614f91565b50612027565b60405162461bcd60e51b815260206004820152601460248201527f4e6f7420616c6c6f776564207472616e736665720000000000000000000000006044820152606401610c2c565b505050505050505050565b60015461204a906001600160a01b03163330846147a7565b6000600e546000141561205e57508061206a565b61206782614285565b90505b81600c600082825461207c919061581a565b9250508190555081600d6000828254612095919061581a565b90915550506002546040516335313c2160e11b81523360048201526000916001600160a01b031690636a62784290602401602060405180830381600087803b1580156120e057600080fd5b505af11580156120f4573d6000803e3d6000fd5b505050506040513d601f19601f820116820180604052508101906121189190615419565b6040805160608101825285815260208082018681524383850190815260008681526011909352938220925183555160018301559151600290910155600e8054929350849290919061216a90849061581a565b9091555050505050565b60008060006060600c54600d54600e54600f80805461219290615918565b80601f01602080910402602001604051908101604052809291908181526020018280546121be90615918565b801561220b5780601f106121e05761010080835404028352916020019161220b565b820191906000526020600020905b8154815290600101906020018083116121ee57829003601f168201915b50505050509050935093509350935090919293565b6000546001600160a01b031633146122685760405162461bcd60e51b815260206004820181905260248201526000805160206159df8339815191526044820152606401610c2c565b6001600160a01b0381166122ad5760405162461bcd60e51b815260206004820152600c60248201526b5a65726f206164647265737360a01b6044820152606401610c2c565b600780546001600160a01b0319166001600160a01b0392909216919091179055565b6000546001600160a01b031633146123175760405162461bcd60e51b815260206004820181905260248201526000805160206159df8339815191526044820152606401610c2c565b6001600160a01b0383166000908152601260205260409020548390600160e01b900463ffffffff166123805760405162461bcd60e51b81526020600482015260126024820152712ab735b737bbb7102837bbb2b92a37b5b2b760711b6044820152606401610c2c565b8163ffffffff168363ffffffff1611156123dc5760405162461bcd60e51b815260206004820152601160248201527f496e76616c6964206475726174696f6e730000000000000000000000000000006044820152606401610c2c565b506001600160a01b0392909216600090815260126020526040902060010180547fffffffff0000000000000000ffffffffffffffffffffffffffffffffffffffff16600160a01b63ffffffff9384160263ffffffff60c01b191617600160c01b9290931691909102919091179055565b6000546001600160a01b031633146124945760405162461bcd60e51b815260206004820181905260248201526000805160206159df8339815191526044820152606401610c2c565b6001600160a01b0381166124d95760405162461bcd60e51b815260206004820152600c60248201526b5a65726f206164647265737360a01b6044820152606401610c2c565b600880546001600160a01b0319166001600160a01b0392909216919091179055565b6000600a8281548110610b9557634e487b7160e01b600052603260045260246000fd5b6000546001600160a01b031633146125665760405162461bcd60e51b815260206004820181905260248201526000805160206159df8339815191526044820152606401610c2c565b61256f816147f8565b50565b6000818152601160205260409020600281015443116125f95760405162461bcd60e51b815260206004820152602d60248201527f43616e6e6f742061646420616e642072656d6f7665206c69717569646974792060448201527f696e2073616d6520626c6f636b000000000000000000000000000000000000006064820152608401610c2c565b6001810154600061260982614285565b9050600d5481111561265d5760405162461bcd60e51b815260206004820152601660248201527f496e73756666696369656e74206c6971756964697479000000000000000000006044820152606401610c2c565b6002546040517f42966c68000000000000000000000000000000000000000000000000000000008152600481018690526001600160a01b03909116906342966c6890602401600060405180830381600087803b1580156126bc57600080fd5b505af11580156126d0573d6000803e3d6000fd5b50506001546126ec92506001600160a01b0316905033836142a2565b80600c60008282546126fe91906158d5565b9250508190555080600d600082825461271791906158d5565b9250508190555081600e600082825461273091906158d5565b909155505050600092835250506011602052604081208181556001810182905560020155565b6000546001600160a01b0316331461279e5760405162461bcd60e51b815260206004820181905260248201526000805160206159df8339815191526044820152606401610c2c565b6127aa600b8383614c3c565b505050565b6001600160a01b0382166000908152601260205260408120600181015463ffffffff808516600160a01b90920416118015906128005750600181015463ffffffff600160c01b909104811690841611155b949350505050565b6000546001600160a01b031633146128505760405162461bcd60e51b815260206004820181905260248201526000805160206159df8339815191526044820152606401610c2c565b6001600160a01b0381166128955760405162461bcd60e51b815260206004820152600c60248201526b5a65726f206164647265737360a01b6044820152606401610c2c565b600680546001600160a01b0319166001600160a01b0392909216919091179055565b6000546001600160a01b031633146128ff5760405162461bcd60e51b815260206004820181905260248201526000805160206159df8339815191526044820152606401610c2c565b60085463ffffffff808316600160a01b9092041611156129615760405162461bcd60e51b815260206004820152601560248201527f496e76616c696420677261636520706572696f647300000000000000000000006044820152606401610c2c565b6008805463ffffffff909216600160c01b0263ffffffff60c01b19909216919091179055565b60606013805480602002602001604051908101604052809291908181526020018280548015610d4557602002820191906000526020600020905b81546001600160a01b031681526001909101906020018083116129c1575050505050905090565b6001600160a01b0382166000908152601260205260408120548390600160e01b900463ffffffff16612a515760405162461bcd60e51b81526020600482015260126024820152712ab735b737bbb7102837bbb2b92a37b5b2b760711b6044820152606401610c2c565b61280084338561401c565b600081815260116020526040812080546001820154612a7a90614285565b612a8491906158d5565b9392505050565b6000546001600160a01b03163314612ad35760405162461bcd60e51b815260206004820181905260248201526000805160206159df8339815191526044820152606401610c2c565b6001600160a01b038116612b185760405162461bcd60e51b815260206004820152600c60248201526b5a65726f206164647265737360a01b6044820152606401610c2c565b61256f816145d8565b6000546001600160a01b03163314612b695760405162461bcd60e51b815260206004820181905260248201526000805160206159df8339815191526044820152606401610c2c565b6001600160a01b0382166000908152601260205260409020548290600160e01b900463ffffffff16612bd25760405162461bcd60e51b81526020600482015260126024820152712ab735b737bbb7102837bbb2b92a37b5b2b760711b6044820152606401610c2c565b6127aa83836146ef565b6001600160a01b038316600090815260096020526040812054600190810b900b13612c6f5760405162461bcd60e51b815260206004820152603360248201527f496e746572657374207061796d656e7420746f6b656e2069732064697361626c60448201527f6564206f72206e6f7420737570706f72746564000000000000000000000000006064820152608401610c2c565b60008481526010602052604081208054601380549293929091600160701b900461ffff16908110612cb057634e487b7160e01b600052603260045260246000fd5b6000918252602090912001546001600160a01b0316905080612d065760405162461bcd60e51b815260206004820152600f60248201526e125b9d985b1a59081d1bdad95b9259608a1b6044820152606401610c2c565b612d1081846127af565b612d5c5760405162461bcd60e51b815260206004820152601760248201527f4475726174696f6e206973206e6f7420616c6c6f7765640000000000000000006044820152606401610c2c565b81544290612d78908590600160a01b900463ffffffff16615832565b63ffffffff161015612dcc5760405162461bcd60e51b815260206004820152601060248201527f496e76616c6964206475726174696f6e000000000000000000000000000000006044820152606401610c2c565b81546000908190612dea90849089906001600160701b0316886143ec565b5090925090506000612dfc82846157ef565b6001600160701b0316905086811115612e575760405162461bcd60e51b815260206004820152601360248201527f536c69707061676520697320746f6f20626967000000000000000000000000006044820152606401610c2c565b612e6c6001600160a01b0389163330846147a7565b60065460015460405163029b465d60e01b81526001600160a01b038b81166004830152602482018590529182166044820152600092919091169063029b465d90606401602060405180830381600087803b158015612ec957600080fd5b505af1158015612edd573d6000803e3d6000fd5b505050506040513d601f19601f82011682018060405250810190612f019190615419565b9050600082612f19836001600160701b038716615871565b612f239190615851565b600854600154919250612f43916001600160a01b039081169116836142a2565b6000612f4f82846158d5565b905080600d6000828254612f63919061581a565b9250508190555080600c6000828254612f7c919061581a565b90915550508754600160a01b900463ffffffff16612f9a8a82615832565b895463ffffffff60a01b1916600160a01b63ffffffff928316810291909117808c55600854612fd3939083900481169290910416615832565b895463ffffffff60c01b1916600160c01b63ffffffff928316810291909117808c5560085461301093929004821691600160a01b90910416615832565b895463ffffffff91909116600160e01b026001600160e01b0390911617895560055460405163f8642f2960e01b8152600481018f90526001600160a01b039091169063f8642f2990602401600060405180830381600087803b15801561307557600080fd5b505af1158015613089573d6000803e3d6000fd5b50505050876001600160a01b03167f9853650269815e203c5c9e228db9ca05cc6037f2c2723c94ed3260cf98324c998e838c60000160149054906101000a900463ffffffff166040516112ca9392919092835263ffffffff918216602084015216604082015260600190565b6000546001600160a01b0316156131745760405162461bcd60e51b815260206004820152602960248201527f496e697469616c697a61626c654f776e61626c653a20616c726561647920696e60448201527f697469616c697a656400000000000000000000000000000000000000000000006064820152608401610c2c565b600080546001600160a01b0319166001600160a01b03831690811782556040519091907f8be0079c531659141344cd1fd0a4f28419497f9722a3daafe3b4186f6b6457e0908290a350565b6000546001600160a01b031633146132075760405162461bcd60e51b815260206004820181905260248201526000805160206159df8339815191526044820152606401610c2c565b6001600160a01b03811661324c5760405162461bcd60e51b815260206004820152600c60248201526b5a65726f206164647265737360a01b6044820152606401610c2c565b600580546001600160a01b0319166001600160a01b0392909216919091179055565b6002546001600160a01b0316156132c75760405162461bcd60e51b815260206004820152601360248201527f416c726561647920696e697469616c697a6564000000000000000000000000006044820152606401610c2c565b6132d0816130f5565b85516132e390600f906020890190614cc0565b506132f0600b8686614c3c565b50600580546001600160a01b03199081166001600160a01b03958616179091556006805482169385169390931790925560088054831691909316908117909255600780549091169091179055505050565b61336560405180606001604052806000815260200160008152602001600081525090565b50600090815260116020908152604091829020825160608101845281548152600182015492810192909252600201549181019190915290565b6001600160a01b0385166000908152601260205260409020548590600160e01b900463ffffffff166134075760405162461bcd60e51b81526020600482015260126024820152712ab735b737bbb7102837bbb2b92a37b5b2b760711b6044820152606401610c2c565b6001600160a01b038516600090815260096020526040812054600190810b900b1361349a5760405162461bcd60e51b815260206004820152603360248201527f496e746572657374207061796d656e7420746f6b656e2069732064697361626c60448201527f6564206f72206e6f7420737570706f72746564000000000000000000000000006064820152608401610c2c565b6134a486836127af565b6134f05760405162461bcd60e51b815260206004820152601760248201527f4475726174696f6e206973206e6f7420616c6c6f7765640000000000000000006044820152606401610c2c565b600d54846001600160701b0316111561354b5760405162461bcd60e51b815260206004820152601560248201527f496e73756666696369656e7420726573657276657300000000000000000000006044820152606401610c2c565b60008060008061355d8a8a8a896143ec565b95509093509150839050600061357383856157ef565b6001600160701b0316905087856001600160701b031682613594919061581a565b11156135e25760405162461bcd60e51b815260206004820152601360248201527f536c69707061676520697320746f6f20626967000000000000000000000000006044820152606401610c2c565b6135f76001600160a01b038b163330846147a7565b60015460065460405163029b465d60e01b81526001600160a01b038d81166004830152602482018590529283166044820181905292600092169063029b465d90606401602060405180830381600087803b15801561365457600080fd5b505af1158015613668573d6000803e3d6000fd5b505050506040513d601f19601f8201168201806040525081019061368c9190615419565b90506000836136a4836001600160701b038916615871565b6136ae9190615851565b6008549091506136cb906001600160a01b038581169116836142a2565b60006136d782846158d5565b9050808d6001600160701b0316600d546136f191906158d5565b6136fb919061581a565b600d8190555080600c6000828254613713919061581a565b909155505060035461374898506001600160a01b038f81169850339750169450506001600160701b0388169250506147a79050565b4260006137558583615832565b90506000600360009054906101000a90046001600160a01b03166001600160a01b0316638ada066e6040518163ffffffff1660e01b8152600401602060405180830381600087803b1580156137a957600080fd5b505af11580156137bd573d6000803e3d6000fd5b505050506040513d601f19601f820116820180604052508101906137e19190615419565b60408051610100810182526001600160701b038b1681526001600160a01b038d166000908152601260209081529083902060010154600160f01b900461ffff169082015263ffffffff86811692820192909252848216606082015260085492935091608083019161385a91600160a01b90041685615832565b63ffffffff168152602001600860189054906101000a900463ffffffff16846138839190615832565b63ffffffff168152602001856001600160701b031681526020016138a68b611420565b61ffff9081169091526000838152601060209081526040918290208451815486840151878601516060808a015160808b015160a08c01516001600160701b039788166fffffffffffffffffffffffffffffffff1997881617600160701b968d168702177fffffffffffffffff0000000000000000ffffffffffffffffffffffffffffffff16600160801b63ffffffff9687160263ffffffff60a01b191617600160a01b938616939093029290921777ffffffffffffffffffffffffffffffffffffffffffffffff16600160c01b918516919091026001600160e01b031617600160e01b9184169190910217865560c08a01516001909601805460e0909b015196909516999093169890981793909616909502919091179055815185815287851691810191909152928516908301526001600160a01b038c16917f9853650269815e203c5c9e228db9ca05cc6037f2c2723c94ed3260cf98324c99910160405180910390a260055460405163f8642f2960e01b8152600481018390526001600160a01b039091169063f8642f2990602401600060405180830381600087803b158015613a5057600080fd5b505af1158015613a64573d6000803e3d6000fd5b50506003546040516335313c2160e11b81523360048201526001600160a01b039091169250636a6278429150602401602060405180830381600087803b158015613aad57600080fd5b505af1158015613ac1573d6000803e3d6000fd5b505050506040513d601f19601f82011682018060405250810190613ae59190615419565b5050505050505050505050565b6001600160a01b0381166000908152601260205260408120548290600160e01b900463ffffffff16613b5b5760405162461bcd60e51b81526020600482015260126024820152712ab735b737bbb7102837bbb2b92a37b5b2b760711b6044820152606401610c2c565b6001600160a01b038316600090815260126020526040902060010154600160f01b900461ffff1691505b50919050565b60008181526010602052604081208054601380549293929091600160701b900461ffff16908110613bcc57634e487b7160e01b600052603260045260246000fd5b6000918252602090912001546001600160a01b0316905080613c225760405162461bcd60e51b815260206004820152600f60248201526e125b9d985b1a59081d1bdad95b9259608a1b6044820152606401610c2c565b6003546040517f6352211e000000000000000000000000000000000000000000000000000000008152600481018590526000916001600160a01b031690636352211e9060240160206040518083038186803b158015613c8057600080fd5b505afa158015613c94573d6000803e3d6000fd5b505050506040513d601f19601f82011682018060405250810190613cb89190614e71565b8354909150429063ffffffff808316600160c01b909204161080613ce45750336001600160a01b038316145b613d565760405162461bcd60e51b815260206004820152603560248201527f4f6e6c7920626f72726f7765722063616e2072657475726e2077697468696e2060448201527f626f72726f77657220677261636520706572696f6400000000000000000000006064820152608401610c2c565b835463ffffffff808316600160e01b909204161080613d7d5750336001600160a01b038316145b80613d9257506007546001600160a01b031633145b613e2a5760405162461bcd60e51b815260206004820152604560248201527f4f6e6c7920626f72726f776572206f7220656e74657270726973652063616e2060448201527f72657475726e2077697468696e20656e7465727072697365206772616365207060648201527f6572696f64000000000000000000000000000000000000000000000000000000608482015260a401610c2c565b8354600d80546001600160701b0390921691600090613e4a90849061581a565b90915550506003546040517ffcd3533c000000000000000000000000000000000000000000000000000000008152600481018790523360248201526001600160a01b039091169063fcd3533c90604401600060405180830381600087803b158015613eb457600080fd5b505af1158015613ec8573d6000803e3d6000fd5b5050506000958652505060106020525050604082209182555060010180546fffffffffffffffffffffffffffffffff19169055565b6000546001600160a01b03163314613f455760405162461bcd60e51b815260206004820181905260248201526000805160206159df8339815191526044820152606401610c2c565b6001600160a01b038116613fc15760405162461bcd60e51b815260206004820152602660248201527f4f776e61626c653a206e6577206f776e657220697320746865207a65726f206160448201527f64647265737300000000000000000000000000000000000000000000000000006064820152608401610c2c565b600080546040516001600160a01b03808516939216917f8be0079c531659141344cd1fd0a4f28419497f9722a3daafe3b4186f6b6457e091a3600080546001600160a01b0319166001600160a01b0392909216919091179055565b6001600160a01b0383166000908152601260205260408120548490600160e01b900463ffffffff166140855760405162461bcd60e51b81526020600482015260126024820152712ab735b737bbb7102837bbb2b92a37b5b2b760711b6044820152606401610c2c565b6001546040517fa1571a570000000000000000000000000000000000000000000000000000000081526001600160a01b0391821660048201523360248201528582166044820152606481018590529086169063a1571a5790608401600060405180830381600087803b1580156140fa57600080fd5b505af115801561410e573d6000803e3d6000fd5b50600198975050505050505050565b6000546001600160a01b031633146141655760405162461bcd60e51b815260206004820181905260248201526000805160206159df8339815191526044820152606401610c2c565b6001600160a01b0384166000908152601260205260409020548490600160e01b900463ffffffff166141ce5760405162461bcd60e51b81526020600482015260126024820152712ab735b737bbb7102837bbb2b92a37b5b2b760711b6044820152606401610c2c565b6001600160a01b0383166142245760405162461bcd60e51b815260206004820152601260248201527f496e76616c6964204261736520546f6b656e00000000000000000000000000006044820152606401610c2c565b506001600160a01b0393841660009081526012602052604090208054600182018054949096166001600160a01b0319909416939093179094556001600160701b03908116600160701b026001600160e01b0319909216921691909117179055565b6000600e5482600c546142989190615871565b6114479190615851565b6040516001600160a01b0383166024820152604481018290526127aa9084907fa9059cbb00000000000000000000000000000000000000000000000000000000906064015b60408051601f198184030181529190526020810180516001600160e01b03166001600160e01b0319909316929092179091526148af565b6000600c5482600e546142989190615871565b60006040517f3d602d80600a3d3981f3363d3d373d3d3d363d7300000000000000000000000081528260601b60148201527f5af43d82803e903d91602b57fd5bf3000000000000000000000000000000000060288201526037816000f09150506001600160a01b0381166143e75760405162461bcd60e51b815260206004820152601660248201527f455243313136373a20637265617465206661696c6564000000000000000000006044820152606401610c2c565b919050565b6005546040517f19065df40000000000000000000000000000000000000000000000000000000081526001600160a01b0386811660048301526001600160701b038516602483015263ffffffff8416604483015260009283928392839216906319065df49060640160206040518083038186803b15801561446c57600080fd5b505afa158015614480573d6000803e3d6000fd5b505050506040513d601f19601f820116820180604052508101906144a491906153cb565b905060006144b28983614994565b6006549091506000906001600160a01b03166329fb92ce6144ee8c6001600160a01b039081166000908152601260205260409020600101541690565b6040516001600160e01b031960e084901b1681526001600160a01b0391821660048201526001600160701b0387166024820152908c16604482015260640160206040518083038186803b15801561454457600080fd5b505afa158015614558573d6000803e3d6000fd5b505050506040513d601f19601f8201168201806040525081019061457c9190615419565b9050826001600160701b031681836001600160701b031661459d9190615871565b6145a79190615851565b94506145bc6001600160701b038616826158d5565b95506145c98a8a8a6149dc565b93505050509450945094915050565b6001600160a01b038116600090815260096020526040902054600190810b900b61467057600a8054600180820183557fc65a7bb8d6351c1cf70c95a316cc6a92839c986682d98bc35f958f4883f9d2a890910180546001600160a01b0319166001600160a01b039490941693841790559054600092835260096020526040909220805461ffff191661ffff9390920b92909216179055565b6001600160a01b038116600090815260096020526040812054600190810b900b121561256f576001600160a01b0381166000908152600960205260409020546146bb9060010b615968565b6001600160a01b0382166000908152600960205260409020805460019290920b61ffff1661ffff1990921691909117905550565b61138861ffff8216111561476b5760405162461bcd60e51b815260206004820152602560248201527f4d6178696d756d2073657276696365206665652070657263656e74207468726560448201527f73686f6c640000000000000000000000000000000000000000000000000000006064820152608401610c2c565b6001600160a01b039091166000908152601260205260409020600101805461ffff909216600160e01b0261ffff60e01b19909216919091179055565b6040516001600160a01b03808516602483015283166044820152606481018290526115ca9085907f23b872dd00000000000000000000000000000000000000000000000000000000906084016142e7565b6001600160a01b038116600090815260096020526040902054600190810b900b6148645760405162461bcd60e51b815260206004820152600d60248201527f496e76616c696420746f6b656e000000000000000000000000000000000000006044820152606401610c2c565b6001600160a01b038116600090815260096020526040812054600190810b900b131561256f576001600160a01b0381166000908152600960205260409020546146bb9060010b615968565b6000614904826040518060400160405280602081526020017f5361666545524332303a206c6f772d6c6576656c2063616c6c206661696c6564815250856001600160a01b0316614b319092919063ffffffff16565b8051909150156127aa57808060200190518101906149229190614f91565b6127aa5760405162461bcd60e51b815260206004820152602a60248201527f5361666545524332303a204552433230206f7065726174696f6e20646964206e60448201527f6f742073756363656564000000000000000000000000000000000000000000006064820152608401610c2c565b6001600160a01b038216600090815260126020526040812060010154612710906149d290600160e01b900461ffff166001600160701b038516615871565b612a849190615851565b600854600090819061271090614a0690600160e01b900461ffff166001600160701b038616615871565b614a109190615851565b6006549091506000906001600160a01b03166329fb92ce614a4c886001600160a01b039081166000908152601260205260409020600101541690565b6001600160a01b038916600090815260126020526040902054600160701b90046001600160701b03166040516001600160e01b031960e085901b1681526001600160a01b0392831660048201526001600160701b039091166024820152908816604482015260640160206040518083038186803b158015614acc57600080fd5b505afa158015614ae0573d6000803e3d6000fd5b505050506040513d601f19601f82011682018060405250810190614b049190615419565b9050806001600160701b0316826001600160701b031610614b255781614b27565b805b9695505050505050565b6060612800848460008585843b614b8a5760405162461bcd60e51b815260206004820152601d60248201527f416464726573733a2063616c6c20746f206e6f6e2d636f6e74726163740000006044820152606401610c2c565b600080866001600160a01b03168587604051614ba69190615507565b60006040518083038185875af1925050503d8060008114614be3576040519150601f19603f3d011682016040523d82523d6000602084013e614be8565b606091505b5091509150614bf8828286614c03565b979650505050505050565b60608315614c12575081612a84565b825115614c225782518084602001fd5b8160405162461bcd60e51b8152600401610c2c919061567b565b828054614c4890615918565b90600052602060002090601f016020900481019282614c6a5760008555614cb0565b82601f10614c835782800160ff19823516178555614cb0565b82800160010185558215614cb0579182015b82811115614cb0578235825591602001919060010190614c95565b50614cbc929150614d34565b5090565b828054614ccc90615918565b90600052602060002090601f016020900481019282614cee5760008555614cb0565b82601f10614d0757805160ff1916838001178555614cb0565b82800160010185558215614cb0579182015b82811115614cb0578251825591602001919060010190614d19565b5b80821115614cbc5760008155600101614d35565b60008083601f840112614d5a578182fd5b50813567ffffffffffffffff811115614d71578182fd5b6020830191508360208260051b8501011115614d8c57600080fd5b9250929050565b60008083601f840112614da4578182fd5b50813567ffffffffffffffff811115614dbb578182fd5b602083019150836020828501011115614d8c57600080fd5b600082601f830112614de3578081fd5b8135614df6614df1826157c7565b615796565b818152846020838601011115614e0a578283fd5b816020850160208301379081016020019190915292915050565b80356143e7816159c9565b803561ffff811681146143e757600080fd5b803563ffffffff811681146143e757600080fd5b600060208284031215614e66578081fd5b8135612a84816159b4565b600060208284031215614e82578081fd5b8151612a84816159b4565b600080600060608486031215614ea1578182fd5b8335614eac816159b4565b92506020840135614ebc816159b4565b929592945050506040919091013590565b60008060008060808587031215614ee2578081fd5b8435614eed816159b4565b93506020850135614efd816159b4565b92506040850135614f0d816159b4565b91506060850135614f1d816159b4565b939692955090935050565b60008060008060408587031215614f3d578384fd5b843567ffffffffffffffff80821115614f54578586fd5b614f6088838901614d49565b90965094506020870135915080821115614f78578384fd5b50614f8587828801614d49565b95989497509550505050565b600060208284031215614fa2578081fd5b81518015158114612a84578182fd5b600080600060608486031215614ea1578081fd5b600080600080600060a08688031215614fdc578283fd5b8535614fe7816159b4565b94506020860135614ff7816159b4565b93506040860135615007816159c9565b92506060860135915061501c60808701614e41565b90509295509295909350565b6000806000806080858703121561503d578182fd5b8435615048816159b4565b93506020850135615058816159b4565b92506040850135615068816159c9565b915061507660608601614e41565b905092959194509250565b60008060008060808587031215615096578182fd5b84356150a1816159b4565b935060208501356150b1816159c9565b925060408501356150c1816159b4565b91506060850135614f1d816159c9565b600080604083850312156150e3578182fd5b82356150ee816159b4565b91506150fc60208401614e2f565b90509250929050565b60008060408385031215615117578182fd5b8235615122816159b4565b946020939093013593505050565b60008060408385031215615142578182fd5b823561514d816159b4565b91506150fc60208401614e41565b60008060006060848603121561516f578081fd5b833561517a816159b4565b925061518860208501614e41565b915061519660408501614e41565b90509250925092565b600080602083850312156151b1578182fd5b823567ffffffffffffffff8111156151c7578283fd5b6151d385828601614d93565b90969095509350505050565b6000602082840312156151f0578081fd5b815167ffffffffffffffff811115615206578182fd5b8201601f81018413615216578182fd5b8051615224614df1826157c7565b818152856020838501011115615238578384fd5b6152498260208301602086016158ec565b95945050505050565b60008060008060008060a0878903121561526a578384fd5b863567ffffffffffffffff80821115615281578586fd5b61528d8a838b01614dd3565b975060208901359150808211156152a2578586fd5b506152af89828a01614d93565b90965094505060408701356152c3816159b4565b925060608701356152d3816159b4565b915060808701356152e3816159b4565b809150509295509295509295565b60008060008060008060008060006101208a8c03121561530f578687fd5b893567ffffffffffffffff80821115615326578889fd5b6153328d838e01614dd3565b9a5060208c0135915080821115615347578889fd5b506153548c828d01614dd3565b98505061536360408b01614e41565b965060608a0135615373816159c9565b955060808a0135615383816159b4565b945061539160a08b01614e2f565b935061539f60c08b01614e41565b92506153ad60e08b01614e41565b91506153bc6101008b01614e24565b90509295985092959850929598565b6000602082840312156153dc578081fd5b8151612a84816159c9565b6000602082840312156153f8578081fd5b612a8482614e2f565b600060208284031215615412578081fd5b5035919050565b60006020828403121561542a578081fd5b5051919050565b60008060008060808587031215615446578182fd5b843593506020850135615458816159b4565b92506040850135915061507660608601614e41565b60006020828403121561547e578081fd5b612a8482614e41565b600081518084526020808501808196508360051b81019150828601855b858110156154ce5782840389526154bc8483516154db565b988501989350908401906001016154a4565b5091979650505050505050565b600081518084526154f38160208601602086016158ec565b601f01601f19169290920160200192915050565b600082516155198184602087016158ec565b9190910192915050565b600083516155358184602088016158ec565b7f2000000000000000000000000000000000000000000000000000000000000000908301908152835161556f8160018401602088016158ec565b01600101949350505050565b6080808252855190820181905260009060209060a0840190828901845b828110156155bd5781516001600160a01b031684529284019290840190600101615598565b505050838103828501526155d18188615487565b905083810360408501526155e58187615487565b84810360608601528551808252838701925090830190845b8181101561561f57835163ffffffff16835292840192918401916001016155fd565b50909998505050505050505050565b6020808252825182820181905260009190848201906040850190845b8181101561566f5783516001600160a01b03168352928401929184019160010161564a565b50909695505050505050565b602081526000612a8460208301846154db565b6060815260006156a160608301866154db565b82810360208401526156b381866154db565b9150506001600160a01b0383166040830152949350505050565b6000610100820190506001600160701b03835116825261ffff6020840151166020830152604083015163ffffffff808216604085015280606086015116606085015250506080830151615728608084018263ffffffff169052565b5060a083015161574060a084018263ffffffff169052565b5060c083015161575b60c08401826001600160701b03169052565b5060e08301516116c360e084018261ffff169052565b848152836020820152826040820152608060608201526000614b2760808301846154db565b604051601f8201601f1916810167ffffffffffffffff811182821017156157bf576157bf61599e565b604052919050565b600067ffffffffffffffff8211156157e1576157e161599e565b50601f01601f191660200190565b60006001600160701b0380831681851680830382111561581157615811615988565b01949350505050565b6000821982111561582d5761582d615988565b500190565b600063ffffffff80831681851680830382111561581157615811615988565b60008261586c57634e487b7160e01b81526012600452602481fd5b500490565b600081600019048311821515161561588b5761588b615988565b500290565b60008160010b8360010b82811281617fff19018312811516156158b5576158b5615988565b81617fff0183138116156158cb576158cb615988565b5090039392505050565b6000828210156158e7576158e7615988565b500390565b60005b838110156159075781810151838201526020016158ef565b838111156115ca5750506000910152565b600181811c9082168061592c57607f821691505b60208210811415613b8557634e487b7160e01b600052602260045260246000fd5b600060001982141561596157615961615988565b5060010190565b60008160010b617fff1981141561598157615981615988565b9003919050565b634e487b7160e01b600052601160045260246000fd5b634e487b7160e01b600052604160045260246000fd5b6001600160a01b038116811461256f57600080fd5b6001600160701b038116811461256f57600080fdfe4f776e61626c653a2063616c6c6572206973206e6f7420746865206f776e6572a2646970667358221220b1f11316f43f38637dbacabe59dfacdc1ab8ecbac6abacb07c3b3a09157b6e7264736f6c63430008040033",
  "linkReferences": {},
  "deployedLinkReferences": {}
}