{
  "_format": "hh-sol-artifact-1",
  "contractName": "Enterprise",
  "sourceName": "contracts/Enterprise.sol",
  "abi": [
    {
      "anonymous": false,
      "inputs": [
        {
          "indexed": true,
          "internalType": "address",
          "name": "powerToken",
          "type": "address"
        },
        {
          "indexed": false,
          "internalType": "uint256",
          "name": "tokenId",
          "type": "uint256"
        },
        {
          "indexed": false,
          "internalType": "uint32",
          "name": "from",
          "type": "uint32"
        },
        {
          "indexed": false,
          "internalType": "uint32",
          "name": "to",
          "type": "uint32"
        }
      ],
      "name": "Borrowed",
      "type": "event"
    },
    {
      "anonymous": false,
      "inputs": [
        {
          "indexed": true,
          "internalType": "address",
          "name": "previousOwner",
          "type": "address"
        },
        {
          "indexed": true,
          "internalType": "address",
          "name": "newOwner",
          "type": "address"
        }
      ],
      "name": "OwnershipTransferred",
      "type": "event"
    },
    {
      "anonymous": false,
      "inputs": [
        {
          "indexed": true,
          "internalType": "address",
          "name": "powerToken",
          "type": "address"
        },
        {
          "indexed": false,
          "internalType": "uint32",
          "name": "halfLife",
          "type": "uint32"
        },
        {
          "indexed": false,
          "internalType": "uint112",
          "name": "factor",
          "type": "uint112"
        }
      ],
      "name": "ServiceRegistered",
      "type": "event"
    },
    {
      "inputs": [
        {
          "internalType": "uint256",
          "name": "liquidityAmount",
          "type": "uint256"
        }
      ],
      "name": "addLiquidity",
      "outputs": [],
      "stateMutability": "nonpayable",
      "type": "function"
    },
    {
      "inputs": [
        {
          "internalType": "contract IPowerToken",
          "name": "powerToken",
          "type": "address"
        }
      ],
      "name": "allowPerpetualPowerTokenForever",
      "outputs": [],
      "stateMutability": "nonpayable",
      "type": "function"
    },
    {
      "inputs": [
        {
          "internalType": "contract IPowerToken",
          "name": "powerToken",
          "type": "address"
        },
        {
          "internalType": "contract IERC20",
          "name": "paymentToken",
          "type": "address"
        },
        {
          "internalType": "uint112",
          "name": "amount",
          "type": "uint112"
        },
        {
          "internalType": "uint256",
          "name": "maxPayment",
          "type": "uint256"
        },
        {
          "internalType": "uint32",
          "name": "duration",
          "type": "uint32"
        }
      ],
      "name": "borrow",
      "outputs": [],
      "stateMutability": "nonpayable",
      "type": "function"
    },
    {
      "inputs": [
        {
          "internalType": "address",
          "name": "token",
          "type": "address"
        }
      ],
      "name": "disablePaymentToken",
      "outputs": [],
      "stateMutability": "nonpayable",
      "type": "function"
    },
    {
      "inputs": [
        {
          "internalType": "address",
          "name": "token",
          "type": "address"
        }
      ],
      "name": "enablePaymentToken",
      "outputs": [],
      "stateMutability": "nonpayable",
      "type": "function"
    },
    {
      "inputs": [
        {
          "internalType": "contract IPowerToken",
          "name": "powerToken",
          "type": "address"
        },
        {
          "internalType": "contract IERC20",
          "name": "paymentToken",
          "type": "address"
        },
        {
          "internalType": "uint112",
          "name": "amount",
          "type": "uint112"
        },
        {
          "internalType": "uint32",
          "name": "duration",
          "type": "uint32"
        }
      ],
      "name": "estimateLoan",
      "outputs": [
        {
          "internalType": "uint256",
          "name": "",
          "type": "uint256"
        }
      ],
      "stateMutability": "view",
      "type": "function"
    },
    {
      "inputs": [],
      "name": "getAvailableReserve",
      "outputs": [
        {
          "internalType": "uint256",
          "name": "",
          "type": "uint256"
        }
      ],
      "stateMutability": "view",
      "type": "function"
    },
    {
      "inputs": [],
      "name": "getBaseUri",
      "outputs": [
        {
          "internalType": "string",
          "name": "",
          "type": "string"
        }
      ],
      "stateMutability": "view",
      "type": "function"
    },
    {
      "inputs": [],
      "name": "getBorrowToken",
      "outputs": [
        {
          "internalType": "contract IBorrowToken",
          "name": "",
          "type": "address"
        }
      ],
      "stateMutability": "view",
      "type": "function"
    },
    {
      "inputs": [],
      "name": "getBorrowerLoanReturnGracePeriod",
      "outputs": [
        {
          "internalType": "uint32",
          "name": "",
          "type": "uint32"
        }
      ],
      "stateMutability": "view",
      "type": "function"
    },
    {
      "inputs": [],
      "name": "getConverter",
      "outputs": [
        {
          "internalType": "contract IConverter",
          "name": "",
          "type": "address"
        }
      ],
      "stateMutability": "view",
      "type": "function"
    },
    {
      "inputs": [],
      "name": "getEnterpriseCollector",
      "outputs": [
        {
          "internalType": "address",
          "name": "",
          "type": "address"
        }
      ],
      "stateMutability": "view",
      "type": "function"
    },
    {
      "inputs": [],
      "name": "getEnterpriseLoanCollectGracePeriod",
      "outputs": [
        {
          "internalType": "uint32",
          "name": "",
          "type": "uint32"
        }
      ],
      "stateMutability": "view",
      "type": "function"
    },
    {
      "inputs": [],
      "name": "getEnterpriseVault",
      "outputs": [
        {
          "internalType": "address",
          "name": "",
          "type": "address"
        }
      ],
      "stateMutability": "view",
      "type": "function"
    },
    {
      "inputs": [],
      "name": "getEstimator",
      "outputs": [
        {
          "internalType": "contract IEstimator",
          "name": "",
          "type": "address"
        }
      ],
      "stateMutability": "view",
      "type": "function"
    },
    {
      "inputs": [],
      "name": "getGCFeePercent",
      "outputs": [
        {
          "internalType": "uint16",
          "name": "",
          "type": "uint16"
        }
      ],
      "stateMutability": "view",
      "type": "function"
    },
    {
      "inputs": [],
      "name": "getInfo",
      "outputs": [
        {
          "internalType": "string",
          "name": "name",
          "type": "string"
        },
        {
          "internalType": "string",
          "name": "baseUri",
          "type": "string"
        },
        {
          "internalType": "uint256",
          "name": "totalShares",
          "type": "uint256"
        },
        {
          "internalType": "uint32",
          "name": "interestHalfLife",
          "type": "uint32"
        },
        {
          "internalType": "uint32",
          "name": "borrowerLoanReturnGracePeriod",
          "type": "uint32"
        },
        {
          "internalType": "uint32",
          "name": "enterpriseLoanCollectGracePeriod",
          "type": "uint32"
        },
        {
          "internalType": "uint16",
          "name": "gcFeePercent",
          "type": "uint16"
        },
        {
          "internalType": "uint256",
          "name": "fixedReserve",
          "type": "uint256"
        },
        {
          "internalType": "uint256",
          "name": "usedReserve",
          "type": "uint256"
        },
        {
          "internalType": "uint112",
          "name": "streamingReserve",
          "type": "uint112"
        },
        {
          "internalType": "uint112",
          "name": "streamingReserveTarget",
          "type": "uint112"
        },
        {
          "internalType": "uint32",
          "name": "streamingReserveUpdated",
          "type": "uint32"
        }
      ],
      "stateMutability": "view",
      "type": "function"
    },
    {
      "inputs": [],
      "name": "getInterestHalfLife",
      "outputs": [
        {
          "internalType": "uint32",
          "name": "",
          "type": "uint32"
        }
      ],
      "stateMutability": "view",
      "type": "function"
    },
    {
      "inputs": [],
      "name": "getInterestToken",
      "outputs": [
        {
          "internalType": "contract IInterestToken",
          "name": "",
          "type": "address"
        }
      ],
      "stateMutability": "view",
      "type": "function"
    },
    {
      "inputs": [
        {
          "internalType": "uint256",
          "name": "tokenId",
          "type": "uint256"
        }
      ],
      "name": "getLiquidityInfo",
      "outputs": [
        {
          "components": [
            {
              "internalType": "uint256",
              "name": "amount",
              "type": "uint256"
            },
            {
              "internalType": "uint256",
              "name": "shares",
              "type": "uint256"
            },
            {
              "internalType": "uint256",
              "name": "block",
              "type": "uint256"
            }
          ],
          "internalType": "struct EnterpriseStorage.LiquidityInfo",
          "name": "",
          "type": "tuple"
        }
      ],
      "stateMutability": "view",
      "type": "function"
    },
    {
      "inputs": [],
      "name": "getLiquidityToken",
      "outputs": [
        {
          "internalType": "contract IERC20Metadata",
          "name": "",
          "type": "address"
        }
      ],
      "stateMutability": "view",
      "type": "function"
    },
    {
      "inputs": [
        {
          "internalType": "uint256",
          "name": "tokenId",
          "type": "uint256"
        }
      ],
      "name": "getLoanInfo",
      "outputs": [
        {
          "components": [
            {
              "internalType": "uint112",
              "name": "amount",
              "type": "uint112"
            },
            {
              "internalType": "uint16",
              "name": "powerTokenIndex",
              "type": "uint16"
            },
            {
              "internalType": "uint32",
              "name": "borrowingTime",
              "type": "uint32"
            },
            {
              "internalType": "uint32",
              "name": "maturityTime",
              "type": "uint32"
            },
            {
              "internalType": "uint32",
              "name": "borrowerReturnGraceTime",
              "type": "uint32"
            },
            {
              "internalType": "uint32",
              "name": "enterpriseCollectGraceTime",
              "type": "uint32"
            },
            {
              "internalType": "uint112",
              "name": "gcFee",
              "type": "uint112"
            },
            {
              "internalType": "uint16",
              "name": "gcFeeTokenIndex",
              "type": "uint16"
            }
          ],
          "internalType": "struct EnterpriseStorage.LoanInfo",
          "name": "",
          "type": "tuple"
        }
      ],
      "stateMutability": "view",
      "type": "function"
    },
    {
      "inputs": [
        {
          "internalType": "uint256",
          "name": "tokenId",
          "type": "uint256"
        }
      ],
      "name": "getOwedInterest",
      "outputs": [
        {
          "internalType": "uint256",
          "name": "",
          "type": "uint256"
        }
      ],
      "stateMutability": "view",
      "type": "function"
    },
    {
      "inputs": [
        {
          "internalType": "uint256",
          "name": "index",
          "type": "uint256"
        }
      ],
      "name": "getPowerToken",
      "outputs": [
        {
          "internalType": "contract IPowerToken",
          "name": "",
          "type": "address"
        }
      ],
      "stateMutability": "view",
      "type": "function"
    },
    {
      "inputs": [
        {
          "internalType": "contract IPowerToken",
          "name": "powerToken",
          "type": "address"
        }
      ],
      "name": "getPowerTokenIndex",
      "outputs": [
        {
          "internalType": "uint16",
          "name": "",
          "type": "uint16"
        }
      ],
      "stateMutability": "view",
      "type": "function"
    },
    {
      "inputs": [],
      "name": "getPowerTokens",
      "outputs": [
        {
          "internalType": "contract IPowerToken[]",
          "name": "",
          "type": "address[]"
        }
      ],
      "stateMutability": "view",
      "type": "function"
    },
    {
      "inputs": [],
      "name": "getProxyAdmin",
      "outputs": [
        {
          "internalType": "contract ProxyAdmin",
          "name": "",
          "type": "address"
        }
      ],
      "stateMutability": "view",
      "type": "function"
    },
    {
      "inputs": [],
      "name": "getReserve",
      "outputs": [
        {
          "internalType": "uint256",
          "name": "",
          "type": "uint256"
        }
      ],
      "stateMutability": "view",
      "type": "function"
    },
    {
      "inputs": [
        {
          "internalType": "contract IPowerToken",
          "name": "powerToken",
          "type": "address"
        }
      ],
      "name": "getService",
      "outputs": [
        {
          "internalType": "string",
          "name": "name",
          "type": "string"
        },
        {
          "internalType": "string",
          "name": "symbol",
          "type": "string"
        },
        {
          "components": [
            {
              "internalType": "uint112",
              "name": "baseRate",
              "type": "uint112"
            },
            {
              "internalType": "uint96",
              "name": "minGCFee",
              "type": "uint96"
            },
            {
              "internalType": "uint32",
              "name": "halfLife",
              "type": "uint32"
            },
            {
              "internalType": "uint16",
              "name": "index",
              "type": "uint16"
            },
            {
              "internalType": "contract IERC20Metadata",
              "name": "baseToken",
              "type": "address"
            },
            {
              "internalType": "uint32",
              "name": "minLoanDuration",
              "type": "uint32"
            },
            {
              "internalType": "uint32",
              "name": "maxLoanDuration",
              "type": "uint32"
            },
            {
              "internalType": "uint16",
              "name": "serviceFeePercent",
              "type": "uint16"
            },
            {
              "internalType": "bool",
              "name": "allowsPerpetual",
              "type": "bool"
            }
          ],
          "internalType": "struct EnterpriseStorage.ServiceConfig",
          "name": "config",
          "type": "tuple"
        }
      ],
      "stateMutability": "view",
      "type": "function"
    },
    {
      "inputs": [
        {
          "internalType": "contract IPowerToken",
          "name": "powerToken",
          "type": "address"
        }
      ],
      "name": "getServiceBaseRate",
      "outputs": [
        {
          "internalType": "uint112",
          "name": "",
          "type": "uint112"
        }
      ],
      "stateMutability": "view",
      "type": "function"
    },
    {
      "inputs": [
        {
          "internalType": "contract IPowerToken",
          "name": "powerToken",
          "type": "address"
        }
      ],
      "name": "getServiceBaseToken",
      "outputs": [
        {
          "internalType": "contract IERC20Metadata",
          "name": "",
          "type": "address"
        }
      ],
      "stateMutability": "view",
      "type": "function"
    },
    {
      "inputs": [
        {
          "internalType": "contract IPowerToken",
          "name": "powerToken",
          "type": "address"
        }
      ],
      "name": "getServiceFeePercent",
      "outputs": [
        {
          "internalType": "uint112",
          "name": "",
          "type": "uint112"
        }
      ],
      "stateMutability": "view",
      "type": "function"
    },
    {
      "inputs": [
        {
          "internalType": "contract IPowerToken",
          "name": "powerToken",
          "type": "address"
        }
      ],
      "name": "getServiceHalfLife",
      "outputs": [
        {
          "internalType": "uint32",
          "name": "",
          "type": "uint32"
        }
      ],
      "stateMutability": "view",
      "type": "function"
    },
    {
      "inputs": [
        {
          "internalType": "contract IPowerToken",
          "name": "powerToken",
          "type": "address"
        }
      ],
      "name": "getServiceMaxLoanDuration",
      "outputs": [
        {
          "internalType": "uint32",
          "name": "",
          "type": "uint32"
        }
      ],
      "stateMutability": "view",
      "type": "function"
    },
    {
      "inputs": [
        {
          "internalType": "contract IPowerToken",
          "name": "powerToken",
          "type": "address"
        }
      ],
      "name": "getServiceMinGCFee",
      "outputs": [
        {
          "internalType": "uint112",
          "name": "",
          "type": "uint112"
        }
      ],
      "stateMutability": "view",
      "type": "function"
    },
    {
      "inputs": [
        {
          "internalType": "contract IPowerToken",
          "name": "powerToken",
          "type": "address"
        }
      ],
      "name": "getServiceMinLoanDuration",
      "outputs": [
        {
          "internalType": "uint32",
          "name": "",
          "type": "uint32"
        }
      ],
      "stateMutability": "view",
      "type": "function"
    },
    {
      "inputs": [],
      "name": "getServices",
      "outputs": [
        {
          "internalType": "address[]",
          "name": "addresses",
          "type": "address[]"
        },
        {
          "internalType": "string[]",
          "name": "names",
          "type": "string[]"
        },
        {
          "internalType": "string[]",
          "name": "symbols",
          "type": "string[]"
        },
        {
          "components": [
            {
              "internalType": "uint112",
              "name": "baseRate",
              "type": "uint112"
            },
            {
              "internalType": "uint96",
              "name": "minGCFee",
              "type": "uint96"
            },
            {
              "internalType": "uint32",
              "name": "halfLife",
              "type": "uint32"
            },
            {
              "internalType": "uint16",
              "name": "index",
              "type": "uint16"
            },
            {
              "internalType": "contract IERC20Metadata",
              "name": "baseToken",
              "type": "address"
            },
            {
              "internalType": "uint32",
              "name": "minLoanDuration",
              "type": "uint32"
            },
            {
              "internalType": "uint32",
              "name": "maxLoanDuration",
              "type": "uint32"
            },
            {
              "internalType": "uint16",
              "name": "serviceFeePercent",
              "type": "uint16"
            },
            {
              "internalType": "bool",
              "name": "allowsPerpetual",
              "type": "bool"
            }
          ],
          "internalType": "struct EnterpriseStorage.ServiceConfig[]",
          "name": "configs",
          "type": "tuple[]"
        }
      ],
      "stateMutability": "view",
      "type": "function"
    },
    {
      "inputs": [],
      "name": "getUsedReserve",
      "outputs": [
        {
          "internalType": "uint256",
          "name": "",
          "type": "uint256"
        }
      ],
      "stateMutability": "view",
      "type": "function"
    },
    {
      "inputs": [
        {
          "internalType": "address",
          "name": "initialOwner",
          "type": "address"
        }
      ],
      "name": "initialize",
      "outputs": [],
      "stateMutability": "nonpayable",
      "type": "function"
    },
    {
      "inputs": [
        {
          "internalType": "string",
          "name": "enterpriseName",
          "type": "string"
        },
        {
          "internalType": "string",
          "name": "baseUri",
          "type": "string"
        },
        {
          "internalType": "contract IEstimator",
          "name": "estimator",
          "type": "address"
        },
        {
          "internalType": "contract IConverter",
          "name": "converter",
          "type": "address"
        },
        {
          "internalType": "contract ProxyAdmin",
          "name": "proxyAdmin",
          "type": "address"
        },
        {
          "internalType": "address",
          "name": "owner",
          "type": "address"
        }
      ],
      "name": "initialize",
      "outputs": [],
      "stateMutability": "nonpayable",
      "type": "function"
    },
    {
      "inputs": [
        {
          "internalType": "contract IERC20Metadata",
          "name": "liquidityToken",
          "type": "address"
        },
        {
          "internalType": "contract IInterestToken",
          "name": "interestToken",
          "type": "address"
        },
        {
          "internalType": "contract IBorrowToken",
          "name": "borrowToken",
          "type": "address"
        }
      ],
      "name": "initializeTokens",
      "outputs": [],
      "stateMutability": "nonpayable",
      "type": "function"
    },
    {
      "inputs": [
        {
          "internalType": "contract IPowerToken",
          "name": "powerToken",
          "type": "address"
        }
      ],
      "name": "isRegisteredPowerToken",
      "outputs": [
        {
          "internalType": "bool",
          "name": "",
          "type": "bool"
        }
      ],
      "stateMutability": "view",
      "type": "function"
    },
    {
      "inputs": [
        {
          "internalType": "contract IPowerToken",
          "name": "powerToken",
          "type": "address"
        },
        {
          "internalType": "uint32",
          "name": "duration",
          "type": "uint32"
        }
      ],
      "name": "isServiceAllowedLoanDuration",
      "outputs": [
        {
          "internalType": "bool",
          "name": "",
          "type": "bool"
        }
      ],
      "stateMutability": "view",
      "type": "function"
    },
    {
      "inputs": [
        {
          "internalType": "contract IERC20",
          "name": "token",
          "type": "address"
        }
      ],
      "name": "isSupportedPaymentToken",
      "outputs": [
        {
          "internalType": "bool",
          "name": "",
          "type": "bool"
        }
      ],
      "stateMutability": "view",
      "type": "function"
    },
    {
      "inputs": [
        {
          "internalType": "address",
          "name": "from",
          "type": "address"
        },
        {
          "internalType": "address",
          "name": "to",
          "type": "address"
        },
        {
          "internalType": "uint256",
          "name": "tokenId",
          "type": "uint256"
        }
      ],
      "name": "loanTransfer",
      "outputs": [],
      "stateMutability": "nonpayable",
      "type": "function"
    },
    {
      "inputs": [],
      "name": "owner",
      "outputs": [
        {
          "internalType": "address",
          "name": "",
          "type": "address"
        }
      ],
      "stateMutability": "view",
      "type": "function"
    },
    {
      "inputs": [
        {
          "internalType": "uint256",
          "name": "index",
          "type": "uint256"
        }
      ],
      "name": "paymentToken",
      "outputs": [
        {
          "internalType": "address",
          "name": "",
          "type": "address"
        }
      ],
      "stateMutability": "view",
      "type": "function"
    },
    {
      "inputs": [
        {
          "internalType": "contract IERC20",
          "name": "token",
          "type": "address"
        }
      ],
      "name": "paymentTokenIndex",
      "outputs": [
        {
          "internalType": "int16",
          "name": "",
          "type": "int16"
        }
      ],
      "stateMutability": "view",
      "type": "function"
    },
    {
      "inputs": [
        {
          "internalType": "uint256",
          "name": "tokenId",
          "type": "uint256"
        },
        {
          "internalType": "contract IERC20",
          "name": "paymentToken",
          "type": "address"
        },
        {
          "internalType": "uint256",
          "name": "maxPayment",
          "type": "uint256"
        },
        {
          "internalType": "uint32",
          "name": "duration",
          "type": "uint32"
        }
      ],
      "name": "reborrow",
      "outputs": [],
      "stateMutability": "nonpayable",
      "type": "function"
    },
    {
      "inputs": [
        {
          "internalType": "string",
          "name": "serviceName",
          "type": "string"
        },
        {
          "internalType": "string",
          "name": "symbol",
          "type": "string"
        },
        {
          "internalType": "uint32",
          "name": "halfLife",
          "type": "uint32"
        },
        {
          "internalType": "uint112",
          "name": "baseRate",
          "type": "uint112"
        },
        {
          "internalType": "contract IERC20Metadata",
          "name": "baseToken",
          "type": "address"
        },
        {
          "internalType": "uint16",
          "name": "serviceFeePercent",
          "type": "uint16"
        },
        {
          "internalType": "uint32",
          "name": "minLoanDuration",
          "type": "uint32"
        },
        {
          "internalType": "uint32",
          "name": "maxLoanDuration",
          "type": "uint32"
        },
        {
          "internalType": "uint96",
          "name": "minGCFee",
          "type": "uint96"
        },
        {
          "internalType": "bool",
          "name": "allowsPerpetualTokensForever",
          "type": "bool"
        }
      ],
      "name": "registerService",
      "outputs": [],
      "stateMutability": "nonpayable",
      "type": "function"
    },
    {
      "inputs": [
        {
          "internalType": "uint256",
          "name": "tokenId",
          "type": "uint256"
        }
      ],
      "name": "removeLiquidity",
      "outputs": [],
      "stateMutability": "nonpayable",
      "type": "function"
    },
    {
      "inputs": [
        {
          "internalType": "uint256",
          "name": "tokenId",
          "type": "uint256"
        }
      ],
      "name": "returnLoan",
      "outputs": [],
      "stateMutability": "nonpayable",
      "type": "function"
    },
    {
      "inputs": [
        {
          "internalType": "string",
          "name": "baseUri",
          "type": "string"
        }
      ],
      "name": "setBaseUri",
      "outputs": [],
      "stateMutability": "nonpayable",
      "type": "function"
    },
    {
      "inputs": [
        {
          "internalType": "uint32",
          "name": "newPeriod",
          "type": "uint32"
        }
      ],
      "name": "setBorrowerLoanReturnGracePeriod",
      "outputs": [],
      "stateMutability": "nonpayable",
      "type": "function"
    },
    {
      "inputs": [
        {
          "internalType": "contract IConverter",
          "name": "newConverter",
          "type": "address"
        }
      ],
      "name": "setConverter",
      "outputs": [],
      "stateMutability": "nonpayable",
      "type": "function"
    },
    {
      "inputs": [
        {
          "internalType": "address",
          "name": "newCollector",
          "type": "address"
        }
      ],
      "name": "setEnterpriseCollector",
      "outputs": [],
      "stateMutability": "nonpayable",
      "type": "function"
    },
    {
      "inputs": [
        {
          "internalType": "uint32",
          "name": "newPeriod",
          "type": "uint32"
        }
      ],
      "name": "setEnterpriseLoanCollectGracePeriod",
      "outputs": [],
      "stateMutability": "nonpayable",
      "type": "function"
    },
    {
      "inputs": [
        {
          "internalType": "address",
          "name": "newVault",
          "type": "address"
        }
      ],
      "name": "setEnterpriseVault",
      "outputs": [],
      "stateMutability": "nonpayable",
      "type": "function"
    },
    {
      "inputs": [
        {
          "internalType": "contract IEstimator",
          "name": "newEstimator",
          "type": "address"
        }
      ],
      "name": "setEstimator",
      "outputs": [],
      "stateMutability": "nonpayable",
      "type": "function"
    },
    {
      "inputs": [
        {
          "internalType": "uint16",
          "name": "newGcFeePercent",
          "type": "uint16"
        }
      ],
      "name": "setGcFeePercent",
      "outputs": [],
      "stateMutability": "nonpayable",
      "type": "function"
    },
    {
      "inputs": [
        {
          "internalType": "uint32",
          "name": "interestHalfLife",
          "type": "uint32"
        }
      ],
      "name": "setInterestHalfLife",
      "outputs": [],
      "stateMutability": "nonpayable",
      "type": "function"
    },
    {
      "inputs": [
        {
          "internalType": "contract IPowerToken",
          "name": "powerToken",
          "type": "address"
        },
        {
          "internalType": "uint112",
          "name": "baseRate",
          "type": "uint112"
        },
        {
          "internalType": "contract IERC20Metadata",
          "name": "baseToken",
          "type": "address"
        },
        {
          "internalType": "uint96",
          "name": "minGCFee",
          "type": "uint96"
        }
      ],
      "name": "setServiceBaseRate",
      "outputs": [],
      "stateMutability": "nonpayable",
      "type": "function"
    },
    {
      "inputs": [
        {
          "internalType": "contract IPowerToken",
          "name": "powerToken",
          "type": "address"
        },
        {
          "internalType": "uint16",
          "name": "newServiceFeePercent",
          "type": "uint16"
        }
      ],
      "name": "setServiceFeePercent",
      "outputs": [],
      "stateMutability": "nonpayable",
      "type": "function"
    },
    {
      "inputs": [
        {
          "internalType": "contract IPowerToken[]",
          "name": "powerToken",
          "type": "address[]"
        },
        {
          "internalType": "uint16[]",
          "name": "newServiceFeePercent",
          "type": "uint16[]"
        }
      ],
      "name": "setServiceFeePercentBatch",
      "outputs": [],
      "stateMutability": "nonpayable",
      "type": "function"
    },
    {
      "inputs": [
        {
          "internalType": "contract IPowerToken",
          "name": "powerToken",
          "type": "address"
        },
        {
          "internalType": "uint32",
          "name": "minLoanDuration",
          "type": "uint32"
        },
        {
          "internalType": "uint32",
          "name": "maxLoanDuration",
          "type": "uint32"
        }
      ],
      "name": "setServiceLoanDurationLimits",
      "outputs": [],
      "stateMutability": "nonpayable",
      "type": "function"
    },
    {
      "inputs": [
        {
          "internalType": "address",
          "name": "newOwner",
          "type": "address"
        }
      ],
      "name": "transferOwnership",
      "outputs": [],
      "stateMutability": "nonpayable",
      "type": "function"
    },
    {
      "inputs": [
        {
          "internalType": "contract IPowerToken",
          "name": "powerToken",
          "type": "address"
        },
        {
          "internalType": "uint256",
          "name": "amount",
          "type": "uint256"
        }
      ],
      "name": "unwrap",
      "outputs": [
        {
          "internalType": "bool",
          "name": "",
          "type": "bool"
        }
      ],
      "stateMutability": "nonpayable",
      "type": "function"
    },
    {
      "inputs": [
        {
          "internalType": "address",
          "name": "implementation",
          "type": "address"
        }
      ],
      "name": "upgradeBorrowToken",
      "outputs": [],
      "stateMutability": "nonpayable",
      "type": "function"
    },
    {
      "inputs": [
        {
          "internalType": "address",
          "name": "implementation",
          "type": "address"
        }
      ],
      "name": "upgradeEnterprise",
      "outputs": [],
      "stateMutability": "nonpayable",
      "type": "function"
    },
    {
      "inputs": [
        {
          "internalType": "address",
          "name": "implementation",
          "type": "address"
        }
      ],
      "name": "upgradeEstimator",
      "outputs": [],
      "stateMutability": "nonpayable",
      "type": "function"
    },
    {
      "inputs": [
        {
          "internalType": "address",
          "name": "implementation",
          "type": "address"
        }
      ],
      "name": "upgradeInterestToken",
      "outputs": [],
      "stateMutability": "nonpayable",
      "type": "function"
    },
    {
      "inputs": [
        {
          "internalType": "contract IPowerToken",
          "name": "powerToken",
          "type": "address"
        },
        {
          "internalType": "address",
          "name": "implementation",
          "type": "address"
        }
      ],
      "name": "upgradePowerToken",
      "outputs": [],
      "stateMutability": "nonpayable",
      "type": "function"
    },
    {
      "inputs": [
        {
          "internalType": "uint256",
          "name": "tokenId",
          "type": "uint256"
        }
      ],
      "name": "withdrawInterest",
      "outputs": [],
      "stateMutability": "nonpayable",
      "type": "function"
    },
    {
      "inputs": [
        {
          "internalType": "contract IPowerToken",
          "name": "powerToken",
          "type": "address"
        },
        {
          "internalType": "uint256",
          "name": "amount",
          "type": "uint256"
        }
      ],
      "name": "wrap",
      "outputs": [
        {
          "internalType": "bool",
          "name": "",
          "type": "bool"
        }
      ],
      "stateMutability": "nonpayable",
      "type": "function"
    },
    {
      "inputs": [
        {
          "internalType": "contract IPowerToken",
          "name": "powerToken",
          "type": "address"
        },
        {
          "internalType": "address",
          "name": "to",
          "type": "address"
        },
        {
          "internalType": "uint256",
          "name": "amount",
          "type": "uint256"
        }
      ],
      "name": "wrapTo",
      "outputs": [
        {
          "internalType": "bool",
          "name": "",
          "type": "bool"
        }
      ],
      "stateMutability": "nonpayable",
      "type": "function"
    }
  ],
  "bytecode": "0x608060405234801561001057600080fd5b5061636080620000216000396000f3fe608060405234801561001057600080fd5b50600436106103595760003560e01c8063041960581461035e5780630714012c1461038757806308669aab1461047e5780630cac36b2146104935780630e101b60146104a85780630ea1dc9e146104bb57806311eec529146104cc57806315a52302146104df5780631b912384146105015780632261b07f14610514578063229304dc146105255780632457056e146105465780632b2f6095146105905780632b39a0ac146105a35780632e365ade146105da5780632fb2067f146105ed578063375921481461061057806339f4769314610636578063449497ec14610649578063512a53bc1461065c57806351c6590a1461066f57806353c091241461068257806359bf5d39146106b15780635a9b0b89146106b957806362c1f388146106d9578063644e44df146106ec57806375417851146106fd5780637791c42d146107155780637b024363146107265780637dcfeb73146107395780637eda9ff81461074c5780638188d50d1461075f57806389035b61146107745780638b3240a0146107875780638d6d50c91461078f5780638da5cb5b146107c55780638e9fcf81146107cd57806390f55edd146107e05780639ab71193146107f35780639c7aa7f8146108065780639c8f9f2314610819578063a0bcfc7f1461082c578063a0efd1181461083f578063a358426f14610854578063a554b26d14610867578063aebb504114610878578063b19337a414610880578063b406bf6d14610893578063b56de97e146108b5578063b96266fa146108c8578063bf170880146108dd578063bf376c7a146108ee578063bf3bb1a514610901578063bfd84fb414610914578063c1fc16d814610927578063c20aa9bc1461093a578063c22947841461094d578063c2fe50dd14610960578063c4d66de814610973578063c93d0b9214610986578063d1c8200714610997578063df57f2fa146109d0578063e2b17a1614610a05578063e36eca0c14610a18578063e56f2fe414610a4c578063e902868314610a5f578063e912615414610a98578063edc1a62814610aab578063ef1f9f3914610abe578063f2fde38b14610ad1578063f4e28f9a14610ae4578063f54133bb14610b1d578063faaed4ad14610b30578063fbac9a5514610b43578063fcb2884e14610b69575b600080fd5b61037161036c366004615a8b565b610b71565b60405161037e9190615c9f565b60405180910390f35b610471610395366004615a8b565b6040805161010081018252600080825260208201819052918101829052606081018290526080810182905260a0810182905260c0810182905260e08101919091525060009081526010602090815260409182902082516101008101845281546001600160701b038082168352600160701b80830461ffff90811696850196909652600160801b830463ffffffff90811697850197909752600160a01b830487166060850152600160c01b830487166080850152600160e01b90920490951660a083015260019092015493841660c082015292041660e082015290565b60405161037e9190615f80565b61049161048c366004615a8b565b610baf565b005b61049b610c8b565b60405161037e9190615e54565b6103716104b6366004615a8b565b610d1d565b6001546001600160a01b0316610371565b6104916104da366004615522565b610d40565b6104f26104ed3660046154aa565b610eca565b60405161037e93929190615ea5565b61049161050f3660046154aa565b611085565b6005546001600160a01b0316610371565b61053861053336600461569f565b61113a565b60405190815260200161037e565b6105786105543660046154aa565b6001600160a01b03166000908152601260205260409020546001600160701b031690565b6040516001600160701b03909116815260200161037e565b61049161059e3660046154aa565b611249565b6105786105b13660046154aa565b6001600160a01b0316600090815260126020526040902060010154600160e01b900461ffff1690565b6104916105e8366004615af7565b6112d0565b6106006105fb3660046154aa565b611391565b604051901515815260200161037e565b600354600160a01b900463ffffffff165b60405163ffffffff909116815260200161037e565b61060061064436600461577a565b6113b4565b610491610657366004615a71565b61146d565b61049161066a3660046154e2565b6114db565b61049161067d366004615a8b565b6117c4565b6103716106903660046154aa565b6001600160a01b039081166000908152601260205260409020600101541690565b6105386118f2565b6106c1611917565b60405161037e9c9b9a99989796959493929190615edd565b6104916106e73660046154aa565b611ada565b6000546001600160a01b0316610371565b610705611b89565b60405161037e9493929190615d12565b6007546001600160a01b0316610371565b6104916107343660046154aa565b611e3a565b6104916107473660046156f8565b611ec1565b61049161075a3660046154aa565b611ff9565b600754600160a01b900463ffffffff16610621565b6106006107823660046154aa565b6120a8565b6103716120b9565b61062161079d3660046154aa565b6001600160a01b0316600090815260126020526040902054600160d01b900463ffffffff1690565b6103716120da565b6104916107db3660046157d0565b6120f0565b6104916107ee3660046154aa565b612224565b61049161080136600461596e565b6122d3565b6104916108143660046154aa565b6128fd565b610491610827366004615a8b565b612955565b61049161083a366004615814565b612abc565b600754600160c01b900463ffffffff16610621565b6106006108623660046157a5565b612b19565b6006546001600160a01b0316610371565b610538612b72565b61049161088e3660046154aa565b612b89565b600754600160e01b900461ffff165b60405161ffff909116815260200161037e565b6104916108c3366004615af7565b612c38565b6108d0612cf8565b60405161037e9190615dca565b6004546001600160a01b0316610371565b6106006108fc36600461577a565b612d59565b61053861090f366004615a8b565b612da9565b6104916109223660046154aa565b612dd8565b6104916109353660046154aa565b612e6e565b610491610948366004615746565b612eef565b61049161095b3660046155f0565b612f88565b61049161096e366004615abb565b613083565b6104916109813660046154aa565b6135b7565b6002546001600160a01b0316610371565b6106216109a53660046154aa565b6001600160a01b0316600090815260126020526040902060010154600160a01b900463ffffffff1690565b6109e36109de366004615a8b565b61368c565b604080518251815260208084015190820152918101519082015260600161037e565b610491610a1336600461563c565b6136e9565b6108a2610a263660046154aa565b6001600160a01b0316600090815260126020526040902054600160f01b900461ffff1690565b610491610a5a3660046158bc565b613e15565b610578610a6d3660046154aa565b6001600160a01b0316600090815260126020526040902054600160701b90046001600160601b031690565b610491610aa6366004615a8b565b613f47565b610491610ab9366004615af7565b613f51565b610491610acc3660046155a6565b614001565b610491610adf3660046154aa565b61408b565b610621610af23660046154aa565b6001600160a01b0316600090815260126020526040902060010154600160c01b900463ffffffff1690565b610491610b2b3660046154aa565b61417c565b610600610b3e366004615628565b61429b565b610b56610b513660046154aa565b6142f4565b60405160019190910b815260200161037e565b600c54610538565b600060138281548110610b9457634e487b7160e01b600052603260045260246000fd5b6000918252602090912001546001600160a01b031692915050565b60008181526011602052604081206001810154815491929091610bd18361431b565b610bdb919061618d565b9050610be5612b72565b811115604051806040016040528060028152602001611a1b60f11b81525090610c2a5760405162461bcd60e51b8152600401610c219190615e54565b60405180910390fd5b50600054610c42906001600160a01b0316338361433d565b6000610c518460000154614393565b600185018190559050610c64818461618d565b600e6000828254610c75919061618d565b90915550610c849050826143ab565b5050505050565b6060600a8054610c9a906161d0565b80601f0160208091040260200160405190810160405280929190818152602001828054610cc6906161d0565b8015610d135780601f10610ce857610100808354040283529160200191610d13565b820191906000526020600020905b815481529060010190602001808311610cf657829003601f168201915b5050505050905090565b600060098281548110610b9457634e487b7160e01b600052603260045260246000fd5b33610d496120da565b6001600160a01b031614604051806040016040528060018152602001603360f81b81525090610d8b5760405162461bcd60e51b8152600401610c219190615e54565b506040805180820190915260018152603760f81b6020820152838214610dc45760405162461bcd60e51b8152600401610c219190615e54565b5060005b83811015610c8457610e0d858583818110610df357634e487b7160e01b600052603260045260246000fd5b9050602002016020810190610e0891906154aa565b6143f5565b604051806040016040528060018152602001601b60f91b81525090610e455760405162461bcd60e51b8152600401610c219190615e54565b50610eb8858583818110610e6957634e487b7160e01b600052603260045260246000fd5b9050602002016020810190610e7e91906154aa565b848484818110610e9e57634e487b7160e01b600052603260045260246000fd5b9050602002016020810190610eb39190615a71565b61441f565b80610ec28161620b565b915050610dc8565b606080610ed5615215565b836001600160a01b03166306fdde036040518163ffffffff1660e01b815260040160006040518083038186803b158015610f0e57600080fd5b505afa158015610f22573d6000803e3d6000fd5b505050506040513d6000823e601f3d908101601f19168201604052610f4a9190810190615853565b846001600160a01b03166395d89b416040518163ffffffff1660e01b815260040160006040518083038186803b158015610f8357600080fd5b505afa158015610f97573d6000803e3d6000fd5b505050506040513d6000823e601f3d908101601f19168201604052610fbf9190810190615853565b6001600160a01b0395861660009081526012602090815260409182902082516101208101845281546001600160701b0381168252600160701b81046001600160601b031693820193909352600160d01b830463ffffffff90811694820194909452600160f01b9283900461ffff9081166060830152600190920154998a166080820152600160a01b8a04841660a0820152600160c01b8a0490931660c0840152600160e01b89041660e083015290960460ff161515610100870152909590949350915050565b3361108e6120da565b6001600160a01b031614604051806040016040528060018152602001603360f81b815250906110d05760405162461bcd60e51b8152600401610c219190615e54565b506110d96120b9565b6004805460405163266a23b160e21b81526001600160a01b03938416936399a88ec49361110c9390911691869101615e3a565b600060405180830381600087803b15801561112657600080fd5b505af1158015610c84573d6000803e3d6000fd5b600084611146816143f5565b604051806040016040528060018152602001601b60f91b8152509061117e5760405162461bcd60e51b8152600401610c219190615e54565b5061118885611391565b604051806040016040528060028152602001610d0d60f21b815250906111c15760405162461bcd60e51b8152600401610c219190615e54565b506111cc8684612b19565b60405180604001604052806002815260200161343560f01b815250906112055760405162461bcd60e51b8152600401610c219190615e54565b5060008060006112178989898961449c565b9194509250905080611229838561607f565b611233919061607f565b6001600160701b03169998505050505050505050565b336112526120da565b6001600160a01b031614604051806040016040528060018152602001603360f81b815250906112945760405162461bcd60e51b8152600401610c219190615e54565b5061129d6120b9565b60015460405163266a23b160e21b81526001600160a01b03928316926399a88ec49261110c929116908590600401615e3a565b336112d96120da565b6001600160a01b031614604051806040016040528060018152602001603360f81b8152509061131b5760405162461bcd60e51b8152600401610c219190615e54565b506007546040805180820190915260028152610d8d60f21b60208201529063ffffffff600160c01b9091048116908316111561136a5760405162461bcd60e51b8152600401610c219190615e54565b506007805463ffffffff909216600160a01b0263ffffffff60a01b19909216919091179055565b6001600160a01b0316600090815260086020526040812054600190810b900b1390565b6000826113c0816143f5565b604051806040016040528060018152602001601b60f91b815250906113f85760405162461bcd60e51b8152600401610c219190615e54565b50600054604051638cc7104f60e01b81526001600160a01b0386811692638cc7104f9261142f929091169033908890600401615cb3565b600060405180830381600087803b15801561144957600080fd5b505af115801561145d573d6000803e3d6000fd5b50505050600191505b5092915050565b336114766120da565b6001600160a01b031614604051806040016040528060018152602001603360f81b815250906114b85760405162461bcd60e51b8152600401610c219190615e54565b506007805461ffff909216600160e01b0261ffff60e01b19909216919091179055565b600280546040805180820190915291825261333960f01b60208301526001600160a01b0316331461151f5760405162461bcd60e51b8152600401610c219190615e54565b50600081815260106020908152604080832081516101008101835281546001600160701b03808216835261ffff600160701b808404821697850188905263ffffffff600160801b8504811697860197909752600160a01b840487166060860152600160c01b840487166080860152600160e01b90930490951660a084015260019093015492831660c083015290910490911660e082015260138054919392909181106115db57634e487b7160e01b600052603260045260246000fd5b60009182526020918290200154604080518082019091526002815261068760f31b928101929092526001600160a01b031691508161162c5760405162461bcd60e51b8152600401610c219190615e54565b50606082015163ffffffff1642116001600160a01b03868116159086161580156116b557845160405163079cc67960e41b81526001600160a01b038616916379cc67909161167e918c91600401615cd7565b600060405180830381600087803b15801561169857600080fd5b505af11580156116ac573d6000803e3d6000fd5b505050506117ba565b81156116e95784516040516340c10f1960e01b81526001600160a01b038616916340c10f199161167e918b91600401615cd7565b8261178a5784516040516333bebb7760e01b81526001600160a01b038a8116600483015289811660248301526001600160701b039092166044820152908516906333bebb7790606401602060405180830381600087803b15801561174c57600080fd5b505af1158015611760573d6000803e3d6000fd5b505050506040513d601f19601f82011682018060405250810190611784919061558a565b506117ba565b60408051808201825260028152611a9960f11b6020820152905162461bcd60e51b8152610c219190600401615e54565b5050505050505050565b6000546117dc906001600160a01b0316333084614656565b6000600e54600014156117f05750806117fc565b6117f98261431b565b90505b81600b600082825461180e91906160aa565b90915550506001546040516335313c2160e11b81526000916001600160a01b031690636a62784290611844903390600401615c9f565b602060405180830381600087803b15801561185e57600080fd5b505af1158015611872573d6000803e3d6000fd5b505050506040513d601f19601f820116820180604052508101906118969190615aa3565b6040805160608101825285815260208082018681524383850190815260008681526011909352938220925183555160018301559151600290910155600e805492935084929091906118e89084906160aa565b9091555050505050565b60006118fc61467d565b6001600160701b0316600b5461191291906160aa565b905090565b600e54600354600754600b54600c54600d54600f805460609788976000978897889788978897889788978897889788979496600a96939563ffffffff600160a01b94859004811696948404811695600160c01b850482169561ffff600160e01b9687900416959394936001600160701b0380841694600160701b8504909116939190910416908c906119a8906161d0565b80601f01602080910402602001604051908101604052809291908181526020018280546119d4906161d0565b8015611a215780601f106119f657610100808354040283529160200191611a21565b820191906000526020600020905b815481529060010190602001808311611a0457829003601f168201915b50505050509b508a8054611a34906161d0565b80601f0160208091040260200160405190810160405280929190818152602001828054611a60906161d0565b8015611aad5780601f10611a8257610100808354040283529160200191611aad565b820191906000526020600020905b815481529060010190602001808311611a9057829003601f168201915b50505050509a509b509b509b509b509b509b509b509b509b509b509b509b50909192939495969798999a9b565b33611ae36120da565b6001600160a01b031614604051806040016040528060018152602001603360f81b81525090611b255760405162461bcd60e51b8152600401610c219190615e54565b50604080518082019091526002815261363160f01b60208201526001600160a01b038216611b665760405162461bcd60e51b8152600401610c219190615e54565b50600680546001600160a01b0319166001600160a01b0392909216919091179055565b601354606090819081908190806001600160401b03811115611bbb57634e487b7160e01b600052604160045260246000fd5b604051908082528060200260200182016040528015611be4578160200160208202803683370190505b509450806001600160401b03811115611c0d57634e487b7160e01b600052604160045260246000fd5b604051908082528060200260200182016040528015611c4057816020015b6060815260200190600190039081611c2b5790505b509350806001600160401b03811115611c6957634e487b7160e01b600052604160045260246000fd5b604051908082528060200260200182016040528015611c9c57816020015b6060815260200190600190039081611c875790505b509250806001600160401b03811115611cc557634e487b7160e01b600052604160045260246000fd5b604051908082528060200260200182016040528015611cfe57816020015b611ceb615215565b815260200190600190039081611ce35790505b50915060005b81811015611e3257600060138281548110611d2f57634e487b7160e01b600052603260045260246000fd5b60009182526020822001546001600160a01b031691508080611d5084610eca565b925092509250838a8681518110611d7757634e487b7160e01b600052603260045260246000fd5b60200260200101906001600160a01b031690816001600160a01b03168152505082898681518110611db857634e487b7160e01b600052603260045260246000fd5b602002602001018190525081888681518110611de457634e487b7160e01b600052603260045260246000fd5b602002602001018190525080878681518110611e1057634e487b7160e01b600052603260045260246000fd5b6020026020010181905250505050508080611e2a9061620b565b915050611d04565b505090919293565b33611e436120da565b6001600160a01b031614604051806040016040528060018152602001603360f81b81525090611e855760405162461bcd60e51b8152600401610c219190615e54565b50611e8e6120b9565b60025460405163266a23b160e21b81526001600160a01b03928316926399a88ec49261110c929116908590600401615e3a565b33611eca6120da565b6001600160a01b031614604051806040016040528060018152602001603360f81b81525090611f0c5760405162461bcd60e51b8152600401610c219190615e54565b5083611f17816143f5565b604051806040016040528060018152602001601b60f91b81525090611f4f5760405162461bcd60e51b8152600401610c219190615e54565b5060408051808201909152600281526106c760f31b60208201526001600160a01b038416611f905760405162461bcd60e51b8152600401610c219190615e54565b50506001600160a01b0393841660009081526012602052604090208054600182018054949096166001600160a01b0319909416939093179094556001600160601b0316600160701b026001600160d01b03199091166001600160701b0390921691909117179055565b336120026120da565b6001600160a01b031614604051806040016040528060018152602001603360f81b815250906120445760405162461bcd60e51b8152600401610c219190615e54565b50604080518082019091526002815261036360f41b60208201526001600160a01b0382166120855760405162461bcd60e51b8152600401610c219190615e54565b50600480546001600160a01b0319166001600160a01b0392909216919091179055565b60006120b3826143f5565b92915050565b60006000805160206162cb8339815191525b546001600160a01b0316919050565b60006000805160206162ab8339815191526120cb565b336120f96120da565b6001600160a01b031614604051806040016040528060018152602001603360f81b8152509061213b5760405162461bcd60e51b8152600401610c219190615e54565b5082612146816143f5565b604051806040016040528060018152602001601b60f91b8152509061217e5760405162461bcd60e51b8152600401610c219190615e54565b508163ffffffff168363ffffffff16111560405180604001604052806002815260200161363960f01b815250906121c85760405162461bcd60e51b8152600401610c219190615e54565b50506001600160a01b039290921660009081526012602052604090206001018054600160a01b600160e01b031916600160a01b63ffffffff9384160263ffffffff60c01b191617600160c01b9290931691909102919091179055565b3361222d6120da565b6001600160a01b031614604051806040016040528060018152602001603360f81b8152509061226f5760405162461bcd60e51b8152600401610c219190615e54565b506040805180820190915260028152611b1960f11b60208201526001600160a01b0382166122b05760405162461bcd60e51b8152600401610c219190615e54565b50600780546001600160a01b0319166001600160a01b0392909216919091179055565b336122dc6120da565b6001600160a01b031614604051806040016040528060018152602001603360f81b8152509061231e5760405162461bcd60e51b8152600401610c219190615e54565b50604080518082019091526002815261034360f41b60208201526001600160a01b03871661235f5760405162461bcd60e51b8152600401610c219190615e54565b50601354604080518082019091526002815261343160f01b60208201529061ffff1161239e5760405162461bcd60e51b8152600401610c219190615e54565b508263ffffffff168463ffffffff161115604051806040016040528060028152602001611a1960f11b815250906123e85760405162461bcd60e51b8152600401610c219190615e54565b50604080518082019091526002815261343360f01b602082015263ffffffff89166124265760405162461bcd60e51b8152600401610c219190615e54565b506003546000906001600160a01b031663c31011cc6124436120b9565b6040518263ffffffff1660e01b815260040161245f9190615c9f565b602060405180830381600087803b15801561247957600080fd5b505af115801561248d573d6000803e3d6000fd5b505050506040513d601f19601f820116820180604052508101906124b191906154c6565b905060008060009054906101000a90046001600160a01b03166001600160a01b03166395d89b416040518163ffffffff1660e01b815260040160006040518083038186803b15801561250257600080fd5b505afa158015612516573d6000803e3d6000fd5b505050506040513d6000823e601f3d908101601f1916820160405261253e9190810190615853565b90506000818c604051602001612555929190615c63565b6040516020818303038152906040529050826001600160a01b031663077f224a8e83306040518463ffffffff1660e01b815260040161259693929190615e67565b600060405180830381600087803b1580156125b057600080fd5b505af11580156125c4573d6000803e3d6000fd5b5050505060006040518061012001604052808c6001600160701b03168152602001876001600160601b031681526020018d63ffffffff16815260200160138054905061ffff1681526020018b6001600160a01b031681526020018963ffffffff1681526020018863ffffffff1681526020018a61ffff16815260200186151581525090508060126000866001600160a01b03166001600160a01b0316815260200190815260200160002060008201518160000160006101000a8154816001600160701b0302191690836001600160701b03160217905550602082015181600001600e6101000a8154816001600160601b0302191690836001600160601b03160217905550604082015181600001601a6101000a81548163ffffffff021916908363ffffffff160217905550606082015181600001601e6101000a81548161ffff021916908361ffff16021790555060808201518160010160006101000a8154816001600160a01b0302191690836001600160a01b0316021790555060a08201518160010160146101000a81548163ffffffff021916908363ffffffff16021790555060c08201518160010160186101000a81548163ffffffff021916908363ffffffff16021790555060e082015181600101601c6101000a81548161ffff021916908361ffff16021790555061010082015181600101601e6101000a81548160ff0219169083151502179055509050506013849080600181540180825580915050600190039060005260206000200160009091909190916101000a8154816001600160a01b0302191690836001600160a01b03160217905550600460009054906101000a90046001600160a01b03166001600160a01b031663508ee32c856040518263ffffffff1660e01b815260040161285e9190615c9f565b600060405180830381600087803b15801561287857600080fd5b505af115801561288c573d6000803e3d6000fd5b50505050836001600160a01b03167f18706585e986f622c9d914abfb256d563b9ea274cd5d49124e0518aa314b8c128d8d6040516128e592919063ffffffff9290921682526001600160701b0316602082015260400190565b60405180910390a25050505050505050505050505050565b336129066120da565b6001600160a01b031614604051806040016040528060018152602001603360f81b815250906129485760405162461bcd60e51b8152600401610c219190615e54565b50612952816146e5565b50565b60006011600083815260200190815260200160002090504381600201541060405180604001604052806002815260200161035360f41b815250906129ac5760405162461bcd60e51b8152600401610c219190615e54565b50600181015460006129bd8261431b565b90506129c7612b72565b811115604051806040016040528060028152602001611a1b60f11b81525090612a035760405162461bcd60e51b8152600401610c219190615e54565b50600154604051630852cd8d60e31b8152600481018690526001600160a01b03909116906342966c6890602401600060405180830381600087803b158015612a4a57600080fd5b505af1158015612a5e573d6000803e3d6000fd5b5050600054612a7a92506001600160a01b03169050338361433d565b81600e6000828254612a8c919061618d565b90915550612a9b9050816143ab565b50505060009081526011602052604081208181556001810182905560020155565b33612ac56120da565b6001600160a01b031614604051806040016040528060018152602001603360f81b81525090612b075760405162461bcd60e51b8152600401610c219190615e54565b50612b14600a8383615261565b505050565b6001600160a01b0382166000908152601260205260408120600181015463ffffffff808516600160a01b9092041611801590612b6a5750600181015463ffffffff600160c01b909104811690841611155b949350505050565b6000600c54612b7f6118f2565b611912919061618d565b33612b926120da565b6001600160a01b031614604051806040016040528060018152602001603360f81b81525090612bd45760405162461bcd60e51b8152600401610c219190615e54565b50604080518082019091526002815261363360f01b60208201526001600160a01b038216612c155760405162461bcd60e51b8152600401610c219190615e54565b50600580546001600160a01b0319166001600160a01b0392909216919091179055565b33612c416120da565b6001600160a01b031614604051806040016040528060018152602001603360f81b81525090612c835760405162461bcd60e51b8152600401610c219190615e54565b50600754604080518082019091526002815261363560f01b60208201529063ffffffff808416600160a01b909204161115612cd15760405162461bcd60e51b8152600401610c219190615e54565b506007805463ffffffff909216600160c01b0263ffffffff60c01b19909216919091179055565b60606013805480602002602001604051908101604052809291908181526020018280548015610d1357602002820191906000526020600020905b81546001600160a01b03168152600190910190602001808311612d32575050505050905090565b600082612d65816143f5565b604051806040016040528060018152602001601b60f91b81525090612d9d5760405162461bcd60e51b8152600401610c219190615e54565b50612b6a8433856147bf565b600081815260116020526040812080546001820154612dc79061431b565b612dd1919061618d565b9392505050565b33612de16120da565b6001600160a01b031614604051806040016040528060018152602001603360f81b81525090612e235760405162461bcd60e51b8152600401610c219190615e54565b50604080518082019091526002815261373160f01b60208201526001600160a01b038216612e645760405162461bcd60e51b8152600401610c219190615e54565b50612952816148a4565b33612e776120da565b6001600160a01b031614604051806040016040528060018152602001603360f81b81525090612eb95760405162461bcd60e51b8152600401610c219190615e54565b50612ec26120b9565b6001600160a01b03166399a88ec430836040518363ffffffff1660e01b815260040161110c929190615e3a565b33612ef86120da565b6001600160a01b031614604051806040016040528060018152602001603360f81b81525090612f3a5760405162461bcd60e51b8152600401610c219190615e54565b5081612f45816143f5565b604051806040016040528060018152602001601b60f91b81525090612f7d5760405162461bcd60e51b8152600401610c219190615e54565b50612b14838361441f565b33612f916120da565b6001600160a01b031614604051806040016040528060018152602001603360f81b81525090612fd35760405162461bcd60e51b8152600401610c219190615e54565b5081612fde816143f5565b604051806040016040528060018152602001601b60f91b815250906130165760405162461bcd60e51b8152600401610c219190615e54565b5061301f6120b9565b6001600160a01b03166399a88ec484846040518363ffffffff1660e01b815260040161304c929190615e3a565b600060405180830381600087803b15801561306657600080fd5b505af115801561307a573d6000803e3d6000fd5b50505050505050565b61308c83611391565b604051806040016040528060028152602001610d0d60f21b815250906130c55760405162461bcd60e51b8152600401610c219190615e54565b5060008481526010602052604081208054601380549293929091600160701b900461ffff1690811061310757634e487b7160e01b600052603260045260246000fd5b60009182526020918290200154604080518082019091526002815261068760f31b928101929092526001600160a01b03169150816131585760405162461bcd60e51b8152600401610c219190615e54565b506131638184612b19565b60405180604001604052806002815260200161343560f01b8152509061319c5760405162461bcd60e51b8152600401610c219190615e54565b50815442906131b9908590600160a01b900463ffffffff166160c2565b63ffffffff16101560405180604001604052806002815260200161343960f01b815250906131fa5760405162461bcd60e51b8152600401610c219190615e54565b508154600c80546001600160701b039092169160009061321b90849061618d565b90915550508154600090819061323e90849089906001600160701b03168861449c565b508554600c80546001600160701b03909216909101905590925090506000613266828461607f565b6001600160701b031690508681111560405180604001604052806002815260200161343760f01b815250906132ae5760405162461bcd60e51b8152600401610c219190615e54565b506132c46001600160a01b038916333084614656565b6001600160a01b0380851660009081526012602052604090206001015482918a81169116146134005760055460405163095ea7b360e01b81526001600160a01b038b81169263095ea7b39261332192909116908690600401615cf9565b602060405180830381600087803b15801561333b57600080fd5b505af115801561334f573d6000803e3d6000fd5b505050506040513d601f19601f82011682018060405250810190613373919061558a565b5060055460005460405163029b465d60e01b81526001600160a01b039283169263029b465d926133ab928e9288921690600401615e17565b602060405180830381600087803b1580156133c557600080fd5b505af11580156133d9573d6000803e3d6000fd5b505050506040513d601f19601f820116820180604052508101906133fd9190615aa3565b90505b600082613416836001600160701b038716616101565b61342091906160e1565b600754600054919250613440916001600160a01b0390811691168361433d565b600061344c828461618d565b905061345781614987565b8754600160a01b900463ffffffff166134708a826160c2565b895463ffffffff60a01b1916600160a01b63ffffffff928316810291909117808c556007546134a99390839004811692909104166160c2565b895463ffffffff60c01b1916600160c01b63ffffffff928316810291909117808c556007546134e693929004821691600160a01b909104166160c2565b895463ffffffff91909116600160e01b026001600160e01b039091161789556004805460405163f8642f2960e01b81529182018f90526001600160a01b03169063f8642f2990602401600060405180830381600087803b15801561354957600080fd5b505af115801561355d573d6000803e3d6000fd5b50505050876001600160a01b031660008051602061630b8339815191528e838c60000160149054906101000a900463ffffffff166040516135a09392919061600c565b60405180910390a250505050505050505050505050565b60006135c16120da565b6001600160a01b031614604051806040016040528060018152602001601960f91b815250906136035760405162461bcd60e51b8152600401610c219190615e54565b50604080518082019091526002815261373360f01b60208201526001600160a01b0382166136445760405162461bcd60e51b8152600401610c219190615e54565b506000805160206162ab83398151915280546001600160a01b0319166001600160a01b0383169081179091556040516000906000805160206162eb833981519152908290a350565b6136b060405180606001604052806000815260200160008152602001600081525090565b50600090815260116020908152604091829020825160608101845281548152600182015492810192909252600201549181019190915290565b846136f3816143f5565b604051806040016040528060018152602001601b60f91b8152509061372b5760405162461bcd60e51b8152600401610c219190615e54565b5061373585611391565b604051806040016040528060028152602001610d0d60f21b8152509061376e5760405162461bcd60e51b8152600401610c219190615e54565b506137798683612b19565b60405180604001604052806002815260200161343560f01b815250906137b25760405162461bcd60e51b8152600401610c219190615e54565b506137bb612b72565b846001600160701b03161115604051806040016040528060028152602001611a1b60f11b815250906138005760405162461bcd60e51b8152600401610c219190615e54565b506000806000806138138a8a8a8961449c565b955090935091508390506000613829838561607f565b6001600160701b0316905087856001600160701b03168261384a91906160aa565b111560405180604001604052806002815260200161343760f01b815250906138855760405162461bcd60e51b8152600401610c219190615e54565b5061389b6001600160a01b038b16333084614656565b6001600160a01b03808c1660009081526012602052604090206001015482918c81169116146139f85760055460405163095ea7b360e01b81526001600160a01b038d81169263095ea7b3926138f892909116908690600401615cf9565b602060405180830381600087803b15801561391257600080fd5b505af1158015613926573d6000803e3d6000fd5b505050506040513d601f19601f8201168201806040525081019061394a919061558a565b50600560009054906101000a90046001600160a01b03166001600160a01b031663029b465d8c8460008054906101000a90046001600160a01b03166040518463ffffffff1660e01b81526004016139a393929190615e17565b602060405180830381600087803b1580156139bd57600080fd5b505af11580156139d1573d6000803e3d6000fd5b505050506040513d601f19601f820116820180604052508101906139f59190615aa3565b90505b600082613a0e836001600160701b038816616101565b613a1891906160e1565b600754600054919250613a38916001600160a01b0390811691168361433d565b8a6001600160701b0316600c6000828254613a5391906160aa565b9091555060009050613a65828461618d565b9050613a7081614987565b5050600254613a9d95506001600160a01b038c81169550339450169150506001600160701b038516614656565b426000613aaa85836160c2565b90506000600260009054906101000a90046001600160a01b03166001600160a01b031663caa0f92a6040518163ffffffff1660e01b8152600401602060405180830381600087803b158015613afe57600080fd5b505af1158015613b12573d6000803e3d6000fd5b505050506040513d601f19601f82011682018060405250810190613b369190615aa3565b60408051610100810182526001600160701b038b1681526001600160a01b038d166000908152601260209081529083902054600160f01b900461ffff169082015263ffffffff868116928201929092528482166060820152600754929350916080830191613bac91600160a01b900416856160c2565b63ffffffff168152602001600760189054906101000a900463ffffffff1684613bd591906160c2565b63ffffffff168152602001856001600160701b03168152602001613bf88b6142f4565b61ffff9081169091526000838152601060209081526040918290208451815492860151868501516060880151608089015160a08a01516001600160701b039586166001600160801b031998891617600160701b958b16860217600160801b600160c01b031916600160801b63ffffffff9586160263ffffffff60a01b191617600160a01b93851693909302929092176001600160c01b0316600160c01b918416919091026001600160e01b031617600160e01b929091169190910217835560c08701516001909301805460e0909801519390921696909316959095179316029190911790915560025490516335313c2160e11b815282916001600160a01b031690636a62784290613d0d903390600401615c9f565b602060405180830381600087803b158015613d2757600080fd5b505af1158015613d3b573d6000803e3d6000fd5b505050506040513d601f19601f82011682018060405250810190613d5f9190615aa3565b14613d7a57634e487b7160e01b600052600160045260246000fd5b6004805460405163f8642f2960e01b81529182018390526001600160a01b03169063f8642f2990602401600060405180830381600087803b158015613dbe57600080fd5b505af1158015613dd2573d6000803e3d6000fd5b50505050896001600160a01b031660008051602061630b833981519152828585604051613e019392919061600c565b60405180910390a250505050505050505050565b600f8054613e22906161d0565b6040805180820190915260018152601960f91b6020820152915015613e5a5760405162461bcd60e51b8152600401610c219190615e54565b50613e64816135b7565b816000805160206162cb83398151915280546001600160a01b03929092166001600160a01b031992831617905560038054909116331790558651613eaf90600f9060208a01906152e5565b50613ebc600a8787615261565b50600480546001600160a01b03199081166001600160a01b0396871617909155600580548216948616949094179093556007805460068054939096169290941682179094556003805463ffffffff60a01b191660e160a61b1790556001600160c01b03199092169091176102a360a61b1763ffffffff60c01b19166102a360c71b1790915550505050565b61295281336149fd565b33613f5a6120da565b6001600160a01b031614604051806040016040528060018152602001603360f81b81525090613f9c5760405162461bcd60e51b8152600401610c219190615e54565b506040805180820190915260028152611b1b60f11b602082015263ffffffff8216613fda5760405162461bcd60e51b8152600401610c219190615e54565b506003805463ffffffff909216600160a01b0263ffffffff60a01b19909216919091179055565b6000546040805180820190915260018152601960f91b6020820152906001600160a01b0316156140445760405162461bcd60e51b8152600401610c219190615e54565b50600080546001600160a01b038086166001600160a01b031992831617909255600180548584169083161790556002805492841692909116919091179055612b14836148a4565b336140946120da565b6001600160a01b031614604051806040016040528060018152602001603360f81b815250906140d65760405162461bcd60e51b8152600401610c219190615e54565b50604080518082019091526002815261373360f01b60208201526001600160a01b0382166141175760405162461bcd60e51b8152600401610c219190615e54565b50806001600160a01b031661412a6120da565b6001600160a01b03166000805160206162eb83398151915260405160405180910390a36000805160206162ab83398151915280546001600160a01b0319166001600160a01b0392909216919091179055565b336141856120da565b6001600160a01b031614604051806040016040528060018152602001603360f81b815250906141c75760405162461bcd60e51b8152600401610c219190615e54565b50806141d2816143f5565b604051806040016040528060018152602001601b60f91b8152509061420a5760405162461bcd60e51b8152600401610c219190615e54565b506001600160a01b0382166000908152601260209081526040918290206001015482518084019093526002835261037360f41b91830191909152600160f01b900460ff161561426c5760405162461bcd60e51b8152600401610c219190615e54565b50506001600160a01b03166000908152601260205260409020600101805460ff60f01b1916600160f01b179055565b6000836142a7816143f5565b604051806040016040528060018152602001601b60f91b815250906142df5760405162461bcd60e51b8152600401610c219190615e54565b506142eb8585856147bf565b95945050505050565b6001600160a01b0381166000908152600860205260408120546120b390600190810b616120565b6000600e54826143296118f2565b6143339190616101565b6120b391906160e1565b612b148363a9059cbb60e01b848460405160240161435c929190615cf9565b60408051601f198184030181529190526020810180516001600160e01b03166001600160e01b031990931692909217909152614cb2565b600061439d6118f2565b82600e546143339190616101565b80600b54106143c057600b8054829003905550565b60006143ca614d84565b6001600160701b031690508181600b546143e491906160aa565b6143ee919061618d565b600b555050565b6001600160a01b0316600090815260126020526040902054600160d01b900463ffffffff16151590565b604080518082019091526002815261363760f01b602082015261138861ffff8316111561445f5760405162461bcd60e51b8152600401610c219190615e54565b506001600160a01b039091166000908152601260205260409020600101805461ffff909216600160e01b0261ffff60e01b19909216919091179055565b60048054604051630641977d60e21b81526001600160a01b03878116938201939093526001600160701b038516602482015263ffffffff84166044820152600092839283928392909116906319065df49060640160206040518083038186803b15801561450857600080fd5b505afa15801561451c573d6000803e3d6000fd5b505050506040513d601f19601f820116820180604052508101906145409190615a55565b9050600061454e8983614e0a565b6005546001600160a01b038b81166000908152601260205260408082206001015490516314fdc96760e11b815290831660048201526001600160701b03871660248201528c83166044820152939450929116906329fb92ce9060640160206040518083038186803b1580156145c257600080fd5b505afa1580156145d6573d6000803e3d6000fd5b505050506040513d601f19601f820116820180604052508101906145fa9190615aa3565b9050826001600160701b031681836001600160701b031661461b9190616101565b61462591906160e1565b945061463a6001600160701b0386168261618d565b95506146478a8a8a614e52565b93505050509450945094915050565b614677846323b872dd60e01b85858560405160240161435c93929190615cb3565b50505050565b600d546000906146c89063ffffffff600160e01b820416906146b2906001600160701b0380821691600160701b900416616165565b600354600160a01b900463ffffffff1642614f69565b600d546119129190600160701b90046001600160701b0316616165565b6001600160a01b03811660009081526008602090815260409182902054825180840190935260028352611b9960f11b91830191909152600190810b900b61473f5760405162461bcd60e51b8152600401610c219190615e54565b506001600160a01b038116600090815260086020526040812054600190810b900b1315612952576001600160a01b03811660009081526008602052604090205461478b9060010b616226565b6001600160a01b0382166000908152600860205260409020805460019290920b61ffff1661ffff1990921691909117905550565b6001600160a01b038316600090815260126020908152604080832060019081015482518084019093526002835261353160f01b938301939093529091600160f01b900460ff161515146148255760405162461bcd60e51b8152600401610c219190615e54565b5060005460405163a1571a5760e01b81526001600160a01b0391821660048201523360248201528482166044820152606481018490529085169063a1571a5790608401600060405180830381600087803b15801561488257600080fd5b505af1158015614896573d6000803e3d6000fd5b506001979650505050505050565b6001600160a01b038116600090815260086020526040902054600190810b900b61493c5760098054600180820183557f6e1540171b6c0c960b71a7020d9f60077f6af931a8bbf590da0223dacf75c7af90910180546001600160a01b0319166001600160a01b039490941693841790559054600092835260086020526040909220805461ffff191661ffff9390920b92909216179055565b6001600160a01b038116600090815260086020526040812054600190810b900b1215612952576001600160a01b03811660009081526008602052604090205461478b9060010b616226565b61498f61467d565b600d805463ffffffff4216600160e01b02600160701b600160e01b039091166001600160701b0393841617178082558392600e916149d6918591600160701b90041661607f565b92506101000a8154816001600160701b0302191690836001600160701b0316021790555050565b60008281526010602052604081208054601380549293929091600160701b900461ffff16908110614a3e57634e487b7160e01b600052603260045260246000fd5b60009182526020918290200154604080518082019091526002815261068760f31b928101929092526001600160a01b0316915081614a8f5760405162461bcd60e51b8152600401610c219190615e54565b506002546040516331a9108f60e11b8152600481018690526000916001600160a01b031690636352211e9060240160206040518083038186803b158015614ad557600080fd5b505afa158015614ae9573d6000803e3d6000fd5b505050506040513d601f19601f82011682018060405250810190614b0d91906154c6565b8354909150429063ffffffff808316600160c01b909204161080614b425750816001600160a01b0316856001600160a01b0316145b60405180604001604052806002815260200161353360f01b81525090614b7b5760405162461bcd60e51b8152600401610c219190615e54565b50835463ffffffff808316600160e01b909204161080614bac5750816001600160a01b0316856001600160a01b0316145b80614bc457506006546001600160a01b038681169116145b604051806040016040528060028152602001610d4d60f21b81525090614bfd5760405162461bcd60e51b8152600401610c219190615e54565b508354600c80546001600160701b0390921691600090614c1e90849061618d565b9091555050600254604051633f34d4cf60e21b8152600481018890526001600160a01b0387811660248301529091169063fcd3533c90604401600060405180830381600087803b158015614c7157600080fd5b505af1158015614c85573d6000803e3d6000fd5b505050600096875250506010602052505060408320928355505060010180546001600160801b0319169055565b6000614d07826040518060400160405280602081526020017f5361666545524332303a206c6f772d6c6576656c2063616c6c206661696c6564815250856001600160a01b031661510a9092919063ffffffff16565b805190915015612b145780806020019051810190614d25919061558a565b612b145760405162461bcd60e51b815260206004820152602a60248201527f5361666545524332303a204552433230206f7065726174696f6e20646964206e6044820152691bdd081cdd58d8d9595960b21b6064820152608401610c21565b6000614d8e61467d565b600d80546001600160701b0319168082559192508291600e90614dc2908490600160701b90046001600160701b0316616165565b92506101000a8154816001600160701b0302191690836001600160701b0316021790555042600d601c6101000a81548163ffffffff021916908363ffffffff16021790555090565b6001600160a01b03821660009081526012602052604081206001015461271090614e4890600160e01b900461ffff166001600160701b038516616101565b612dd191906160e1565b600754600090819061271090614e7c90600160e01b900461ffff166001600160701b038616616101565b614e8691906160e1565b6005546001600160a01b038781166000908152601260205260408082206001810154905491516314fdc96760e11b81529084166004820152600160701b9091046001600160601b031660248201528883166044820152939450929116906329fb92ce9060640160206040518083038186803b158015614f0457600080fd5b505afa158015614f18573d6000803e3d6000fd5b505050506040513d601f19601f82011682018060405250810190614f3c9190615aa3565b9050806001600160701b0316826001600160701b031610614f5d5781614f5f565b805b9695505050505050565b60008463ffffffff168263ffffffff161015604051806040016040528060018152602001600760fb1b81525090614fb35760405162461bcd60e51b8152600401610c219190615e54565b5084820391508263ffffffff168263ffffffff1681614fe257634e487b7160e01b600052601260045260246000fd5b0463ffffffff16846001600160701b0316901c93508263ffffffff168263ffffffff168161502057634e487b7160e01b600052601260045260246000fd5b06915063ffffffff8216158061503d57506001600160701b038416155b15615049575082612b6a565b60006001600160701b0385168163ffffffff86811690861671b17217f7d1cf79abc9e3b39803f2f6af40f3028161509057634e487b7160e01b600052601260045260246000fd5b049050600160901b5b82156150fd579282019280828402816150c257634e487b7160e01b600052601260045260246000fd5b0493849003939250600160901b0180828402816150ef57634e487b7160e01b600052601260045260246000fd5b049250600160901b01615099565b5091979650505050505050565b6060612b6a848460008585843b6151635760405162461bcd60e51b815260206004820152601d60248201527f416464726573733a2063616c6c20746f206e6f6e2d636f6e74726163740000006044820152606401610c21565b600080866001600160a01b0316858760405161517f9190615c47565b60006040518083038185875af1925050503d80600081146151bc576040519150601f19603f3d011682016040523d82523d6000602084013e6151c1565b606091505b50915091506151d18282866151dc565b979650505050505050565b606083156151eb575081612dd1565b8251156151fb5782518084602001fd5b8160405162461bcd60e51b8152600401610c219190615e54565b6040805161012081018252600080825260208201819052918101829052606081018290526080810182905260a0810182905260c0810182905260e0810182905261010081019190915290565b82805461526d906161d0565b90600052602060002090601f01602090048101928261528f57600085556152d5565b82601f106152a85782800160ff198235161785556152d5565b828001600101855582156152d5579182015b828111156152d55782358255916020019190600101906152ba565b506152e1929150615359565b5090565b8280546152f1906161d0565b90600052602060002090601f01602090048101928261531357600085556152d5565b82601f1061532c57805160ff19168380011785556152d5565b828001600101855582156152d5579182015b828111156152d557825182559160200191906001019061533e565b5b808211156152e1576000815560010161535a565b60008083601f84011261537f578182fd5b5081356001600160401b03811115615395578182fd5b6020830191508360208260051b85010111156153b057600080fd5b9250929050565b80356153c281616287565b919050565b80356153c281616272565b60008083601f8401126153e3578182fd5b5081356001600160401b038111156153f9578182fd5b6020830191508360208285010111156153b057600080fd5b600082601f830112615421578081fd5b813561543461542f82616058565b616028565b818152846020838601011115615448578283fd5b816020850160208301379081016020019190915292915050565b80356153c281616295565b803561ffff811681146153c257600080fd5b803563ffffffff811681146153c257600080fd5b80356001600160601b03811681146153c257600080fd5b6000602082840312156154bb578081fd5b8135612dd181616272565b6000602082840312156154d7578081fd5b8151612dd181616272565b6000806000606084860312156154f6578182fd5b833561550181616272565b9250602084013561551181616272565b929592945050506040919091013590565b60008060008060408587031215615537578081fd5b84356001600160401b038082111561554d578283fd5b6155598883890161536e565b90965094506020870135915080821115615571578283fd5b5061557e8782880161536e565b95989497509550505050565b60006020828403121561559b578081fd5b8151612dd181616287565b6000806000606084860312156155ba578081fd5b83356155c581616272565b925060208401356155d581616272565b915060408401356155e581616272565b809150509250925092565b60008060408385031215615602578182fd5b823561560d81616272565b9150602083013561561d81616272565b809150509250929050565b6000806000606084860312156154f6578081fd5b600080600080600060a08688031215615653578283fd5b853561565e81616272565b9450602086013561566e81616272565b9350604086013561567e81616295565b9250606086013591506156936080870161547f565b90509295509295909350565b600080600080608085870312156156b4578182fd5b84356156bf81616272565b935060208501356156cf81616272565b925060408501356156df81616295565b91506156ed6060860161547f565b905092959194509250565b6000806000806080858703121561570d578182fd5b843561571881616272565b9350602085013561572881616295565b9250604085013561573881616272565b91506156ed60608601615493565b60008060408385031215615758578182fd5b823561576381616272565b91506157716020840161546d565b90509250929050565b6000806040838503121561578c578182fd5b823561579781616272565b946020939093013593505050565b600080604083850312156157b7578182fd5b82356157c281616272565b91506157716020840161547f565b6000806000606084860312156157e4578081fd5b83356157ef81616272565b92506157fd6020850161547f565b915061580b6040850161547f565b90509250925092565b60008060208385031215615826578182fd5b82356001600160401b0381111561583b578283fd5b615847858286016153d2565b90969095509350505050565b600060208284031215615864578081fd5b81516001600160401b03811115615879578182fd5b8201601f81018413615889578182fd5b805161589761542f82616058565b8181528560208385010111156158ab578384fd5b6142eb8260208301602086016161a4565b600080600080600080600060c0888a0312156158d6578485fd5b87356001600160401b03808211156158ec578687fd5b6158f88b838c01615411565b985060208a013591508082111561590d578687fd5b5061591a8a828b016153d2565b909750955050604088013561592e81616272565b9350606088013561593e81616272565b9250608088013561594e81616272565b915060a088013561595e81616272565b8091505092959891949750929550565b6000806000806000806000806000806101408b8d03121561598d578384fd5b8a356001600160401b03808211156159a3578586fd5b6159af8e838f01615411565b9b5060208d01359150808211156159c4578586fd5b506159d18d828e01615411565b9950506159e060408c0161547f565b97506159ee60608c01615462565b96506159fc60808c016153c7565b9550615a0a60a08c0161546d565b9450615a1860c08c0161547f565b9350615a2660e08c0161547f565b9250615a356101008c01615493565b9150615a446101208c016153b7565b90509295989b9194979a5092959850565b600060208284031215615a66578081fd5b8151612dd181616295565b600060208284031215615a82578081fd5b612dd18261546d565b600060208284031215615a9c578081fd5b5035919050565b600060208284031215615ab4578081fd5b5051919050565b60008060008060808587031215615ad0578182fd5b843593506020850135615ae281616272565b9250604085013591506156ed6060860161547f565b600060208284031215615b08578081fd5b612dd18261547f565b600081518084526020808501808196508360051b81019150828601855b858110156150fd578284038952615b46848351615b58565b98850198935090840190600101615b2e565b60008151808452615b708160208601602086016161a4565b601f01601f19169290920160200192915050565b80516001600160701b031682526020808201516001600160601b03169083015260408082015190615bbc9084018263ffffffff169052565b506060810151615bd2606084018261ffff169052565b506080810151615bed60808401826001600160a01b03169052565b5060a0810151615c0560a084018263ffffffff169052565b5060c0810151615c1d60c084018263ffffffff169052565b5060e0810151615c3360e084018261ffff169052565b506101008181015180151584830152614677565b60008251615c598184602087016161a4565b9190910192915050565b60008351615c758184602088016161a4565b600160fd1b9083019081528351615c938160018401602088016161a4565b01600101949350505050565b6001600160a01b0391909116815260200190565b6001600160a01b039384168152919092166020820152604081019190915260600190565b6001600160a01b039290921682526001600160701b0316602082015260400190565b6001600160a01b03929092168252602082015260400190565b6080808252855190820181905260009060209060a0840190828901845b82811015615d545781516001600160a01b031684529284019290840190600101615d2f565b50505083810382850152615d688188615b11565b90508381036040850152615d7c8187615b11565b84810360608601528551808252838701925090830190845b81811015615dbb57615da7838551615b84565b928401926101209290920191600101615d94565b50909998505050505050505050565b6020808252825182820181905260009190848201906040850190845b81811015615e0b5783516001600160a01b031683529284019291840191600101615de6565b50909695505050505050565b6001600160a01b0393841681526020810192909252909116604082015260600190565b6001600160a01b0392831681529116602082015260400190565b602081526000612dd16020830184615b58565b606081526000615e7a6060830186615b58565b8281036020840152615e8c8186615b58565b91505060018060a01b0383166040830152949350505050565b6000610160808352615eb981840187615b58565b90508281036020840152615ecd8186615b58565b915050612b6a6040830184615b84565b61018081526000615ef261018083018f615b58565b8281036020840152615f04818f615b58565b604084018e905263ffffffff8d811660608601528c811660808601528b1660a085015261ffff8a1660c085015260e0840189905261010084018890526001600160701b0387811661012086015286166101408501529150615f629050565b63ffffffff83166101608301529d9c50505050505050505050505050565b81516001600160701b0316815260208083015161ffff169082015260408083015163ffffffff9081169183019190915260608084015182169083015260808084015182169083015260a080840151918216908301526101008201905060c0830151615ff660c08401826001600160701b03169052565b5060e083015161146660e084018261ffff169052565b92835263ffffffff918216602084015216604082015260600190565b604051601f8201601f191681016001600160401b03811182821017156160505761605061625c565b604052919050565b60006001600160401b038211156160715761607161625c565b50601f01601f191660200190565b60006001600160701b038281168482168083038211156160a1576160a1616246565b01949350505050565b600082198211156160bd576160bd616246565b500190565b600063ffffffff8083168185168083038211156160a1576160a1616246565b6000826160fc57634e487b7160e01b81526012600452602481fd5b500490565b600081600019048311821515161561611b5761611b616246565b500290565b60008160010b8360010b82811281617fff190183128115161561614557616145616246565b81617fff01831381161561615b5761615b616246565b5090039392505050565b60006001600160701b038381169083168181101561618557616185616246565b039392505050565b60008282101561619f5761619f616246565b500390565b60005b838110156161bf5781810151838201526020016161a7565b838111156146775750506000910152565b600181811c908216806161e457607f821691505b6020821081141561620557634e487b7160e01b600052602260045260246000fd5b50919050565b600060001982141561621f5761621f616246565b5060010190565b60008160010b617fff1981141561623f5761623f616246565b9003919050565b634e487b7160e01b600052601160045260246000fd5b634e487b7160e01b600052604160045260246000fd5b6001600160a01b038116811461295257600080fd5b801515811461295257600080fd5b6001600160701b038116811461295257600080fdfe4f471908b72bb76dae5bd24599026e7bf3ddb256497722888ffa422f83729eded1248cccb5fef9131c731321e43e9a924840ffee7dc68c7d1d3e5cb7dedcae038be0079c531659141344cd1fd0a4f28419497f9722a3daafe3b4186f6b6457e09853650269815e203c5c9e228db9ca05cc6037f2c2723c94ed3260cf98324c99a2646970667358221220d215ab4a9b32a88ada5e5175337b4aa6c64b02b551388ff29335d0ce4507674764736f6c63430008040033",
  "linkReferences": {},
  "deployedLinkReferences": {}
}