{
  "_format": "hh-sol-artifact-1",
  "contractName": "Enterprise",
  "sourceName": "contracts/Enterprise.sol",
  "abi": [
    {
      "anonymous": false,
      "inputs": [
        {
          "indexed": false,
          "internalType": "string",
          "name": "baseUri",
          "type": "string"
        }
      ],
      "name": "BaseUriChanged",
      "type": "event"
    },
    {
      "anonymous": false,
      "inputs": [
        {
          "indexed": false,
          "internalType": "uint256",
          "name": "pole",
          "type": "uint256"
        },
        {
          "indexed": false,
          "internalType": "uint256",
          "name": "slope",
          "type": "uint256"
        }
      ],
      "name": "BondingChanged",
      "type": "event"
    },
    {
      "anonymous": false,
      "inputs": [
        {
          "indexed": true,
          "internalType": "uint256",
          "name": "borrowTokenId",
          "type": "uint256"
        },
        {
          "indexed": true,
          "internalType": "address",
          "name": "borrower",
          "type": "address"
        },
        {
          "indexed": true,
          "internalType": "address",
          "name": "powerToken",
          "type": "address"
        },
        {
          "indexed": false,
          "internalType": "address",
          "name": "paymentToken",
          "type": "address"
        },
        {
          "indexed": false,
          "internalType": "uint112",
          "name": "amount",
          "type": "uint112"
        },
        {
          "indexed": false,
          "internalType": "uint112",
          "name": "interest",
          "type": "uint112"
        },
        {
          "indexed": false,
          "internalType": "uint112",
          "name": "serviceFee",
          "type": "uint112"
        },
        {
          "indexed": false,
          "internalType": "uint112",
          "name": "gcFee",
          "type": "uint112"
        },
        {
          "indexed": false,
          "internalType": "uint32",
          "name": "borrowingTime",
          "type": "uint32"
        },
        {
          "indexed": false,
          "internalType": "uint32",
          "name": "maturityTime",
          "type": "uint32"
        },
        {
          "indexed": false,
          "internalType": "uint32",
          "name": "borrowerReturnGraceTime",
          "type": "uint32"
        },
        {
          "indexed": false,
          "internalType": "uint32",
          "name": "enterpriseCollectGraceTime",
          "type": "uint32"
        },
        {
          "indexed": false,
          "internalType": "uint256",
          "name": "reserve",
          "type": "uint256"
        },
        {
          "indexed": false,
          "internalType": "uint256",
          "name": "usedReserve",
          "type": "uint256"
        }
      ],
      "name": "Borrowed",
      "type": "event"
    },
    {
      "anonymous": false,
      "inputs": [
        {
          "indexed": false,
          "internalType": "uint32",
          "name": "period",
          "type": "uint32"
        }
      ],
      "name": "BorrowerLoanReturnGracePeriodChanged",
      "type": "event"
    },
    {
      "anonymous": false,
      "inputs": [
        {
          "indexed": false,
          "internalType": "address",
          "name": "converter",
          "type": "address"
        }
      ],
      "name": "ConverterChanged",
      "type": "event"
    },
    {
      "anonymous": false,
      "inputs": [
        {
          "indexed": false,
          "internalType": "address",
          "name": "collector",
          "type": "address"
        }
      ],
      "name": "EnterpriseCollectorChanged",
      "type": "event"
    },
    {
      "anonymous": false,
      "inputs": [
        {
          "indexed": false,
          "internalType": "uint32",
          "name": "period",
          "type": "uint32"
        }
      ],
      "name": "EnterpriseLoanCollectGracePeriodChanged",
      "type": "event"
    },
    {
      "anonymous": false,
      "inputs": [],
      "name": "EnterpriseShutdown",
      "type": "event"
    },
    {
      "anonymous": false,
      "inputs": [
        {
          "indexed": false,
          "internalType": "address",
          "name": "vault",
          "type": "address"
        }
      ],
      "name": "EnterpriseVaultChanged",
      "type": "event"
    },
    {
      "anonymous": false,
      "inputs": [
        {
          "indexed": false,
          "internalType": "uint256",
          "name": "fixedReserve",
          "type": "uint256"
        }
      ],
      "name": "FixedReserveChanged",
      "type": "event"
    },
    {
      "anonymous": false,
      "inputs": [
        {
          "indexed": false,
          "internalType": "uint16",
          "name": "percent",
          "type": "uint16"
        }
      ],
      "name": "GcFeePercentChanged",
      "type": "event"
    },
    {
      "anonymous": false,
      "inputs": [
        {
          "indexed": false,
          "internalType": "uint32",
          "name": "period",
          "type": "uint32"
        }
      ],
      "name": "InterestGapHalvingPeriodChanged",
      "type": "event"
    },
    {
      "anonymous": false,
      "inputs": [
        {
          "indexed": true,
          "internalType": "uint256",
          "name": "interestTokenId",
          "type": "uint256"
        },
        {
          "indexed": true,
          "internalType": "address",
          "name": "liquidityProvider",
          "type": "address"
        },
        {
          "indexed": true,
          "internalType": "enum Enterprise.LiquidityChangeType",
          "name": "changeType",
          "type": "uint8"
        },
        {
          "indexed": false,
          "internalType": "uint256",
          "name": "amountDelta",
          "type": "uint256"
        },
        {
          "indexed": false,
          "internalType": "uint256",
          "name": "amount",
          "type": "uint256"
        },
        {
          "indexed": false,
          "internalType": "uint256",
          "name": "shares",
          "type": "uint256"
        },
        {
          "indexed": false,
          "internalType": "uint256",
          "name": "totalShares",
          "type": "uint256"
        },
        {
          "indexed": false,
          "internalType": "uint256",
          "name": "reserve",
          "type": "uint256"
        },
        {
          "indexed": false,
          "internalType": "uint256",
          "name": "usedReserve",
          "type": "uint256"
        }
      ],
      "name": "LiquidityChanged",
      "type": "event"
    },
    {
      "anonymous": false,
      "inputs": [
        {
          "indexed": true,
          "internalType": "uint256",
          "name": "borrowTokenId",
          "type": "uint256"
        },
        {
          "indexed": true,
          "internalType": "address",
          "name": "borrower",
          "type": "address"
        },
        {
          "indexed": false,
          "internalType": "address",
          "name": "paymentToken",
          "type": "address"
        },
        {
          "indexed": false,
          "internalType": "uint112",
          "name": "interest",
          "type": "uint112"
        },
        {
          "indexed": false,
          "internalType": "uint112",
          "name": "serviceFee",
          "type": "uint112"
        },
        {
          "indexed": false,
          "internalType": "uint32",
          "name": "maturityTime",
          "type": "uint32"
        },
        {
          "indexed": false,
          "internalType": "uint32",
          "name": "borrowerReturnGraceTime",
          "type": "uint32"
        },
        {
          "indexed": false,
          "internalType": "uint32",
          "name": "enterpriseCollectGraceTime",
          "type": "uint32"
        }
      ],
      "name": "LoanExtended",
      "type": "event"
    },
    {
      "anonymous": false,
      "inputs": [
        {
          "indexed": true,
          "internalType": "uint256",
          "name": "borrowTokenId",
          "type": "uint256"
        },
        {
          "indexed": true,
          "internalType": "address",
          "name": "returner",
          "type": "address"
        },
        {
          "indexed": true,
          "internalType": "address",
          "name": "powerToken",
          "type": "address"
        },
        {
          "indexed": false,
          "internalType": "uint112",
          "name": "amount",
          "type": "uint112"
        },
        {
          "indexed": false,
          "internalType": "uint112",
          "name": "gcFee",
          "type": "uint112"
        },
        {
          "indexed": false,
          "internalType": "address",
          "name": "gcFeeToken",
          "type": "address"
        },
        {
          "indexed": false,
          "internalType": "uint256",
          "name": "reserve",
          "type": "uint256"
        },
        {
          "indexed": false,
          "internalType": "uint256",
          "name": "usedReserve",
          "type": "uint256"
        }
      ],
      "name": "LoanReturned",
      "type": "event"
    },
    {
      "anonymous": false,
      "inputs": [
        {
          "indexed": true,
          "internalType": "address",
          "name": "previousOwner",
          "type": "address"
        },
        {
          "indexed": true,
          "internalType": "address",
          "name": "newOwner",
          "type": "address"
        }
      ],
      "name": "OwnershipTransferred",
      "type": "event"
    },
    {
      "anonymous": false,
      "inputs": [
        {
          "indexed": false,
          "internalType": "address",
          "name": "paymentToken",
          "type": "address"
        },
        {
          "indexed": false,
          "internalType": "bool",
          "name": "enabled",
          "type": "bool"
        }
      ],
      "name": "PaymentTokenChange",
      "type": "event"
    },
    {
      "anonymous": false,
      "inputs": [
        {
          "indexed": true,
          "internalType": "address",
          "name": "powerToken",
          "type": "address"
        }
      ],
      "name": "ServiceRegistered",
      "type": "event"
    },
    {
      "anonymous": false,
      "inputs": [
        {
          "indexed": false,
          "internalType": "uint112",
          "name": "streamingReserve",
          "type": "uint112"
        },
        {
          "indexed": false,
          "internalType": "uint112",
          "name": "streamingReserveTarget",
          "type": "uint112"
        }
      ],
      "name": "StreamingReserveChanged",
      "type": "event"
    },
    {
      "inputs": [
        {
          "internalType": "uint256",
          "name": "liquidityAmount",
          "type": "uint256"
        }
      ],
      "name": "addLiquidity",
      "outputs": [],
      "stateMutability": "nonpayable",
      "type": "function"
    },
    {
      "inputs": [
        {
          "internalType": "contract PowerToken",
          "name": "powerToken",
          "type": "address"
        },
        {
          "internalType": "contract IERC20",
          "name": "paymentToken",
          "type": "address"
        },
        {
          "internalType": "uint112",
          "name": "loanAmount",
          "type": "uint112"
        },
        {
          "internalType": "uint32",
          "name": "duration",
          "type": "uint32"
        },
        {
          "internalType": "uint256",
          "name": "maxPayment",
          "type": "uint256"
        }
      ],
      "name": "borrow",
      "outputs": [],
      "stateMutability": "nonpayable",
      "type": "function"
    },
    {
      "inputs": [
        {
          "internalType": "uint256",
          "name": "interestTokenId",
          "type": "uint256"
        },
        {
          "internalType": "uint256",
          "name": "liquidityAmount",
          "type": "uint256"
        }
      ],
      "name": "decreaseLiquidity",
      "outputs": [],
      "stateMutability": "nonpayable",
      "type": "function"
    },
    {
      "inputs": [
        {
          "internalType": "address",
          "name": "token",
          "type": "address"
        }
      ],
      "name": "disablePaymentToken",
      "outputs": [],
      "stateMutability": "nonpayable",
      "type": "function"
    },
    {
      "inputs": [
        {
          "internalType": "address",
          "name": "token",
          "type": "address"
        }
      ],
      "name": "enablePaymentToken",
      "outputs": [],
      "stateMutability": "nonpayable",
      "type": "function"
    },
    {
      "inputs": [
        {
          "internalType": "contract PowerToken",
          "name": "powerToken",
          "type": "address"
        },
        {
          "internalType": "contract IERC20",
          "name": "paymentToken",
          "type": "address"
        },
        {
          "internalType": "uint112",
          "name": "amount",
          "type": "uint112"
        },
        {
          "internalType": "uint32",
          "name": "duration",
          "type": "uint32"
        }
      ],
      "name": "estimateLoan",
      "outputs": [
        {
          "internalType": "uint256",
          "name": "",
          "type": "uint256"
        }
      ],
      "stateMutability": "view",
      "type": "function"
    },
    {
      "inputs": [
        {
          "internalType": "uint256",
          "name": "interestTokenId",
          "type": "uint256"
        }
      ],
      "name": "getAccruedInterest",
      "outputs": [
        {
          "internalType": "uint256",
          "name": "",
          "type": "uint256"
        }
      ],
      "stateMutability": "view",
      "type": "function"
    },
    {
      "inputs": [],
      "name": "getAvailableReserve",
      "outputs": [
        {
          "internalType": "uint256",
          "name": "",
          "type": "uint256"
        }
      ],
      "stateMutability": "view",
      "type": "function"
    },
    {
      "inputs": [],
      "name": "getBaseUri",
      "outputs": [
        {
          "internalType": "string",
          "name": "",
          "type": "string"
        }
      ],
      "stateMutability": "view",
      "type": "function"
    },
    {
      "inputs": [],
      "name": "getBondingCurve",
      "outputs": [
        {
          "internalType": "uint256",
          "name": "pole",
          "type": "uint256"
        },
        {
          "internalType": "uint256",
          "name": "slope",
          "type": "uint256"
        }
      ],
      "stateMutability": "view",
      "type": "function"
    },
    {
      "inputs": [],
      "name": "getBorrowToken",
      "outputs": [
        {
          "internalType": "contract IBorrowToken",
          "name": "",
          "type": "address"
        }
      ],
      "stateMutability": "view",
      "type": "function"
    },
    {
      "inputs": [],
      "name": "getBorrowerLoanReturnGracePeriod",
      "outputs": [
        {
          "internalType": "uint32",
          "name": "",
          "type": "uint32"
        }
      ],
      "stateMutability": "view",
      "type": "function"
    },
    {
      "inputs": [],
      "name": "getConverter",
      "outputs": [
        {
          "internalType": "contract IConverter",
          "name": "",
          "type": "address"
        }
      ],
      "stateMutability": "view",
      "type": "function"
    },
    {
      "inputs": [],
      "name": "getEnterpriseCollector",
      "outputs": [
        {
          "internalType": "address",
          "name": "",
          "type": "address"
        }
      ],
      "stateMutability": "view",
      "type": "function"
    },
    {
      "inputs": [],
      "name": "getEnterpriseLoanCollectGracePeriod",
      "outputs": [
        {
          "internalType": "uint32",
          "name": "",
          "type": "uint32"
        }
      ],
      "stateMutability": "view",
      "type": "function"
    },
    {
      "inputs": [],
      "name": "getEnterpriseVault",
      "outputs": [
        {
          "internalType": "address",
          "name": "",
          "type": "address"
        }
      ],
      "stateMutability": "view",
      "type": "function"
    },
    {
      "inputs": [],
      "name": "getGCFeePercent",
      "outputs": [
        {
          "internalType": "uint16",
          "name": "",
          "type": "uint16"
        }
      ],
      "stateMutability": "view",
      "type": "function"
    },
    {
      "inputs": [],
      "name": "getInfo",
      "outputs": [
        {
          "internalType": "string",
          "name": "name",
          "type": "string"
        },
        {
          "internalType": "string",
          "name": "baseUri",
          "type": "string"
        },
        {
          "internalType": "uint256",
          "name": "totalShares",
          "type": "uint256"
        },
        {
          "internalType": "uint32",
          "name": "interestGapHalvingPeriod",
          "type": "uint32"
        },
        {
          "internalType": "uint32",
          "name": "borrowerLoanReturnGracePeriod",
          "type": "uint32"
        },
        {
          "internalType": "uint32",
          "name": "enterpriseLoanCollectGracePeriod",
          "type": "uint32"
        },
        {
          "internalType": "uint16",
          "name": "gcFeePercent",
          "type": "uint16"
        },
        {
          "internalType": "uint256",
          "name": "fixedReserve",
          "type": "uint256"
        },
        {
          "internalType": "uint256",
          "name": "usedReserve",
          "type": "uint256"
        },
        {
          "internalType": "uint112",
          "name": "streamingReserve",
          "type": "uint112"
        },
        {
          "internalType": "uint112",
          "name": "streamingReserveTarget",
          "type": "uint112"
        },
        {
          "internalType": "uint32",
          "name": "streamingReserveUpdated",
          "type": "uint32"
        }
      ],
      "stateMutability": "view",
      "type": "function"
    },
    {
      "inputs": [],
      "name": "getInterestGapHalvingPeriod",
      "outputs": [
        {
          "internalType": "uint32",
          "name": "",
          "type": "uint32"
        }
      ],
      "stateMutability": "view",
      "type": "function"
    },
    {
      "inputs": [],
      "name": "getInterestToken",
      "outputs": [
        {
          "internalType": "contract IInterestToken",
          "name": "",
          "type": "address"
        }
      ],
      "stateMutability": "view",
      "type": "function"
    },
    {
      "inputs": [
        {
          "internalType": "uint256",
          "name": "interestTokenId",
          "type": "uint256"
        }
      ],
      "name": "getLiquidityInfo",
      "outputs": [
        {
          "components": [
            {
              "internalType": "uint256",
              "name": "amount",
              "type": "uint256"
            },
            {
              "internalType": "uint256",
              "name": "shares",
              "type": "uint256"
            },
            {
              "internalType": "uint256",
              "name": "block",
              "type": "uint256"
            }
          ],
          "internalType": "struct EnterpriseStorage.LiquidityInfo",
          "name": "",
          "type": "tuple"
        }
      ],
      "stateMutability": "view",
      "type": "function"
    },
    {
      "inputs": [],
      "name": "getLiquidityToken",
      "outputs": [
        {
          "internalType": "contract IERC20Metadata",
          "name": "",
          "type": "address"
        }
      ],
      "stateMutability": "view",
      "type": "function"
    },
    {
      "inputs": [
        {
          "internalType": "uint256",
          "name": "borrowTokenId",
          "type": "uint256"
        }
      ],
      "name": "getLoanInfo",
      "outputs": [
        {
          "components": [
            {
              "internalType": "uint112",
              "name": "amount",
              "type": "uint112"
            },
            {
              "internalType": "uint16",
              "name": "powerTokenIndex",
              "type": "uint16"
            },
            {
              "internalType": "uint32",
              "name": "borrowingTime",
              "type": "uint32"
            },
            {
              "internalType": "uint32",
              "name": "maturityTime",
              "type": "uint32"
            },
            {
              "internalType": "uint32",
              "name": "borrowerReturnGraceTime",
              "type": "uint32"
            },
            {
              "internalType": "uint32",
              "name": "enterpriseCollectGraceTime",
              "type": "uint32"
            },
            {
              "internalType": "uint112",
              "name": "gcFee",
              "type": "uint112"
            },
            {
              "internalType": "uint16",
              "name": "gcFeeTokenIndex",
              "type": "uint16"
            }
          ],
          "internalType": "struct EnterpriseStorage.LoanInfo",
          "name": "",
          "type": "tuple"
        }
      ],
      "stateMutability": "view",
      "type": "function"
    },
    {
      "inputs": [
        {
          "internalType": "uint256",
          "name": "index",
          "type": "uint256"
        }
      ],
      "name": "getPaymentToken",
      "outputs": [
        {
          "internalType": "address",
          "name": "",
          "type": "address"
        }
      ],
      "stateMutability": "view",
      "type": "function"
    },
    {
      "inputs": [
        {
          "internalType": "contract IERC20",
          "name": "token",
          "type": "address"
        }
      ],
      "name": "getPaymentTokenIndex",
      "outputs": [
        {
          "internalType": "int16",
          "name": "",
          "type": "int16"
        }
      ],
      "stateMutability": "view",
      "type": "function"
    },
    {
      "inputs": [],
      "name": "getPowerTokens",
      "outputs": [
        {
          "internalType": "contract PowerToken[]",
          "name": "",
          "type": "address[]"
        }
      ],
      "stateMutability": "view",
      "type": "function"
    },
    {
      "inputs": [],
      "name": "getProxyAdmin",
      "outputs": [
        {
          "internalType": "contract ProxyAdmin",
          "name": "",
          "type": "address"
        }
      ],
      "stateMutability": "view",
      "type": "function"
    },
    {
      "inputs": [],
      "name": "getReserve",
      "outputs": [
        {
          "internalType": "uint256",
          "name": "",
          "type": "uint256"
        }
      ],
      "stateMutability": "view",
      "type": "function"
    },
    {
      "inputs": [],
      "name": "getUsedReserve",
      "outputs": [
        {
          "internalType": "uint256",
          "name": "",
          "type": "uint256"
        }
      ],
      "stateMutability": "view",
      "type": "function"
    },
    {
      "inputs": [
        {
          "internalType": "uint256",
          "name": "interestTokenId",
          "type": "uint256"
        },
        {
          "internalType": "uint256",
          "name": "liquidityAmount",
          "type": "uint256"
        }
      ],
      "name": "increaseLiquidity",
      "outputs": [],
      "stateMutability": "nonpayable",
      "type": "function"
    },
    {
      "inputs": [
        {
          "internalType": "string",
          "name": "enterpriseName",
          "type": "string"
        },
        {
          "internalType": "string",
          "name": "baseUri",
          "type": "string"
        },
        {
          "internalType": "uint16",
          "name": "gcFeePercent",
          "type": "uint16"
        },
        {
          "internalType": "contract IConverter",
          "name": "converter",
          "type": "address"
        },
        {
          "internalType": "contract ProxyAdmin",
          "name": "proxyAdmin",
          "type": "address"
        },
        {
          "internalType": "address",
          "name": "owner",
          "type": "address"
        }
      ],
      "name": "initialize",
      "outputs": [],
      "stateMutability": "nonpayable",
      "type": "function"
    },
    {
      "inputs": [
        {
          "internalType": "address",
          "name": "initialOwner",
          "type": "address"
        }
      ],
      "name": "initialize",
      "outputs": [],
      "stateMutability": "nonpayable",
      "type": "function"
    },
    {
      "inputs": [
        {
          "internalType": "contract IERC20Metadata",
          "name": "liquidityToken",
          "type": "address"
        },
        {
          "internalType": "contract IInterestToken",
          "name": "interestToken",
          "type": "address"
        },
        {
          "internalType": "contract IBorrowToken",
          "name": "borrowToken",
          "type": "address"
        }
      ],
      "name": "initializeTokens",
      "outputs": [],
      "stateMutability": "nonpayable",
      "type": "function"
    },
    {
      "inputs": [
        {
          "internalType": "contract PowerToken",
          "name": "powerToken",
          "type": "address"
        }
      ],
      "name": "isRegisteredPowerToken",
      "outputs": [
        {
          "internalType": "bool",
          "name": "",
          "type": "bool"
        }
      ],
      "stateMutability": "view",
      "type": "function"
    },
    {
      "inputs": [
        {
          "internalType": "contract IERC20",
          "name": "token",
          "type": "address"
        }
      ],
      "name": "isSupportedPaymentToken",
      "outputs": [
        {
          "internalType": "bool",
          "name": "",
          "type": "bool"
        }
      ],
      "stateMutability": "view",
      "type": "function"
    },
    {
      "inputs": [
        {
          "internalType": "address",
          "name": "from",
          "type": "address"
        },
        {
          "internalType": "address",
          "name": "to",
          "type": "address"
        },
        {
          "internalType": "uint256",
          "name": "borrowTokenId",
          "type": "uint256"
        }
      ],
      "name": "loanTransfer",
      "outputs": [],
      "stateMutability": "nonpayable",
      "type": "function"
    },
    {
      "inputs": [],
      "name": "owner",
      "outputs": [
        {
          "internalType": "address",
          "name": "",
          "type": "address"
        }
      ],
      "stateMutability": "view",
      "type": "function"
    },
    {
      "inputs": [
        {
          "internalType": "uint256",
          "name": "borrowTokenId",
          "type": "uint256"
        },
        {
          "internalType": "contract IERC20",
          "name": "paymentToken",
          "type": "address"
        },
        {
          "internalType": "uint32",
          "name": "duration",
          "type": "uint32"
        },
        {
          "internalType": "uint256",
          "name": "maxPayment",
          "type": "uint256"
        }
      ],
      "name": "reborrow",
      "outputs": [],
      "stateMutability": "nonpayable",
      "type": "function"
    },
    {
      "inputs": [
        {
          "internalType": "string",
          "name": "serviceName",
          "type": "string"
        },
        {
          "internalType": "string",
          "name": "symbol",
          "type": "string"
        },
        {
          "internalType": "uint32",
          "name": "gapHalvingPeriod",
          "type": "uint32"
        },
        {
          "internalType": "uint112",
          "name": "baseRate",
          "type": "uint112"
        },
        {
          "internalType": "contract IERC20Metadata",
          "name": "baseToken",
          "type": "address"
        },
        {
          "internalType": "uint16",
          "name": "serviceFeePercent",
          "type": "uint16"
        },
        {
          "internalType": "uint32",
          "name": "minLoanDuration",
          "type": "uint32"
        },
        {
          "internalType": "uint32",
          "name": "maxLoanDuration",
          "type": "uint32"
        },
        {
          "internalType": "uint96",
          "name": "minGCFee",
          "type": "uint96"
        },
        {
          "internalType": "bool",
          "name": "allowsPerpetualTokensForever",
          "type": "bool"
        }
      ],
      "name": "registerService",
      "outputs": [],
      "stateMutability": "nonpayable",
      "type": "function"
    },
    {
      "inputs": [
        {
          "internalType": "uint256",
          "name": "interestTokenId",
          "type": "uint256"
        }
      ],
      "name": "removeLiquidity",
      "outputs": [],
      "stateMutability": "nonpayable",
      "type": "function"
    },
    {
      "inputs": [
        {
          "internalType": "uint256",
          "name": "borrowTokenId",
          "type": "uint256"
        }
      ],
      "name": "returnLoan",
      "outputs": [],
      "stateMutability": "nonpayable",
      "type": "function"
    },
    {
      "inputs": [
        {
          "internalType": "string",
          "name": "baseUri",
          "type": "string"
        }
      ],
      "name": "setBaseUri",
      "outputs": [],
      "stateMutability": "nonpayable",
      "type": "function"
    },
    {
      "inputs": [
        {
          "internalType": "uint256",
          "name": "pole",
          "type": "uint256"
        },
        {
          "internalType": "uint256",
          "name": "slope",
          "type": "uint256"
        }
      ],
      "name": "setBondingCurve",
      "outputs": [],
      "stateMutability": "nonpayable",
      "type": "function"
    },
    {
      "inputs": [
        {
          "internalType": "uint32",
          "name": "newPeriod",
          "type": "uint32"
        }
      ],
      "name": "setBorrowerLoanReturnGracePeriod",
      "outputs": [],
      "stateMutability": "nonpayable",
      "type": "function"
    },
    {
      "inputs": [
        {
          "internalType": "contract IConverter",
          "name": "newConverter",
          "type": "address"
        }
      ],
      "name": "setConverter",
      "outputs": [],
      "stateMutability": "nonpayable",
      "type": "function"
    },
    {
      "inputs": [
        {
          "internalType": "address",
          "name": "newCollector",
          "type": "address"
        }
      ],
      "name": "setEnterpriseCollector",
      "outputs": [],
      "stateMutability": "nonpayable",
      "type": "function"
    },
    {
      "inputs": [
        {
          "internalType": "uint32",
          "name": "newPeriod",
          "type": "uint32"
        }
      ],
      "name": "setEnterpriseLoanCollectGracePeriod",
      "outputs": [],
      "stateMutability": "nonpayable",
      "type": "function"
    },
    {
      "inputs": [
        {
          "internalType": "address",
          "name": "newVault",
          "type": "address"
        }
      ],
      "name": "setEnterpriseVault",
      "outputs": [],
      "stateMutability": "nonpayable",
      "type": "function"
    },
    {
      "inputs": [
        {
          "internalType": "uint16",
          "name": "newGcFeePercent",
          "type": "uint16"
        }
      ],
      "name": "setGcFeePercent",
      "outputs": [],
      "stateMutability": "nonpayable",
      "type": "function"
    },
    {
      "inputs": [
        {
          "internalType": "uint32",
          "name": "interestGapHalvingPeriod",
          "type": "uint32"
        }
      ],
      "name": "setInterestGapHalvingPeriod",
      "outputs": [],
      "stateMutability": "nonpayable",
      "type": "function"
    },
    {
      "inputs": [],
      "name": "shutdownEnterpriseForever",
      "outputs": [],
      "stateMutability": "nonpayable",
      "type": "function"
    },
    {
      "inputs": [
        {
          "internalType": "address",
          "name": "newOwner",
          "type": "address"
        }
      ],
      "name": "transferOwnership",
      "outputs": [],
      "stateMutability": "nonpayable",
      "type": "function"
    },
    {
      "inputs": [
        {
          "internalType": "address",
          "name": "implementation",
          "type": "address"
        }
      ],
      "name": "upgradeBorrowToken",
      "outputs": [],
      "stateMutability": "nonpayable",
      "type": "function"
    },
    {
      "inputs": [
        {
          "internalType": "address",
          "name": "implementation",
          "type": "address"
        }
      ],
      "name": "upgradeEnterprise",
      "outputs": [],
      "stateMutability": "nonpayable",
      "type": "function"
    },
    {
      "inputs": [
        {
          "internalType": "address",
          "name": "implementation",
          "type": "address"
        }
      ],
      "name": "upgradeInterestToken",
      "outputs": [],
      "stateMutability": "nonpayable",
      "type": "function"
    },
    {
      "inputs": [
        {
          "internalType": "contract PowerToken",
          "name": "powerToken",
          "type": "address"
        },
        {
          "internalType": "address",
          "name": "implementation",
          "type": "address"
        }
      ],
      "name": "upgradePowerToken",
      "outputs": [],
      "stateMutability": "nonpayable",
      "type": "function"
    },
    {
      "inputs": [
        {
          "internalType": "uint256",
          "name": "interestTokenId",
          "type": "uint256"
        }
      ],
      "name": "withdrawInterest",
      "outputs": [],
      "stateMutability": "nonpayable",
      "type": "function"
    }
  ],
  "bytecode": "0x608060405234801561001057600080fd5b50615c5980620000216000396000f3fe608060405234801561001057600080fd5b50600436106102925760003560e01c8062ca339b146102975780630103f313146102ac5780630714012c146102d757806308669aab146102f75780630cac36b21461030a5780630ea1dc9e1461031f5780632261b07f14610339578063229304dc1461034a5780632b2f60951461036b5780632e365ade1461037e5780632fb2067f146103915780633513e0dc146103b4578063449497ec146103c75780634741efb3146103da57806349bd4e89146103e2578063512a53bc146103f557806351c6590a1461040857806359bf5d391461041b5780635a4598df146104235780635a9b0b891461044157806362c1f38814610461578063644e44df146104745780636815f33714610485578063696f9c81146104985780637791c42d146104ab5780637b024363146104bc5780638188d50d146104cf57806389035b61146104e45780638b3240a0146105105780638c0114b0146105185780638da5cb5b1461052b57806390f55edd146105335780639339ea69146105465780639ab71193146105595780639c7aa7f81461056c5780639c8f9f231461057f578063a0bcfc7f14610592578063a0efd118146105a5578063a554b26d146105ba578063aebb5041146105cb578063b19337a4146105d3578063b406bf6d146105e6578063b56de97e14610607578063b96266fa1461061a578063bfd84fb41461062f578063c1fc16d814610642578063c229478414610655578063c4d66de814610668578063c93d0b921461067b578063cdc2aebf1461068c578063df57f2fa1461069f578063e1a5fa49146106d4578063e9126154146106e7578063ef1f9f39146106fa578063f2fde38b1461070d578063faac38ef14610720578063fcb2884e1461073b575b600080fd5b6102aa6102a536600461502e565b610743565b005b6102bf6102ba366004614ebf565b610f2b565b60405160019190910b81526020015b60405180910390f35b6102ea6102e5366004615352565b610f58565b6040516102ce91906156c6565b6102aa610305366004615352565b6110ad565b610312611276565b6040516102ce91906155d7565b6001546001600160a01b03165b6040516102ce91906154a7565b6004546001600160a01b031661032c565b61035d610358366004614fd5565b611308565b6040519081526020016102ce565b6102aa610379366004614ebf565b611431565b6102aa61038c3660046153e8565b6114ed565b6103a461039f366004614ebf565b6115cf565b60405190151581526020016102ce565b6102aa6103c23660046153c7565b6115f2565b6102aa6103d536600461531a565b6116ff565b6102aa611789565b6102aa6103f03660046153c7565b611883565b6102aa610403366004614ef7565b611b03565b6102aa610416366004615352565b611d8a565b61035d611f32565b600354600160a01b900463ffffffff165b6040516102ce919061579b565b610449611f57565b6040516102ce9c9b9a999897969594939291906155ea565b6102aa61046f366004614ebf565b61211a565b6000546001600160a01b031661032c565b6102aa610493366004615140565b6121e0565b6102aa6104a63660046153c7565b61250c565b6006546001600160a01b031661032c565b6102aa6104ca366004614ebf565b6126fb565b600654600160a01b900463ffffffff16610434565b6103a46104f2366004614ebf565b6001600160a01b031660009081526013602052604090205460ff1690565b61032c612782565b6102aa610526366004615382565b6127a3565b61032c612c9d565b6102aa610541366004614ebf565b612cb3565b61035d610554366004615352565b612d79565b6102aa6105673660046151f2565b612dc6565b6102aa61057a366004614ebf565b613281565b6102aa61058d366004615352565b6133c7565b6102aa6105a036600461508f565b613614565b600654600160c01b900463ffffffff16610434565b6005546001600160a01b031661032c565b61035d61368c565b6102aa6105e1366004614ebf565b6136a3565b600654600160e01b900461ffff1660405161ffff90911681526020016102ce565b6102aa6106153660046153e8565b613769565b61062261383f565b6040516102ce9190615511565b6102aa61063d366004614ebf565b6138a0565b6102aa610650366004614ebf565b613936565b6102aa610663366004614f9d565b6139b7565b6102aa610676366004614ebf565b613ac4565b6002546001600160a01b031661032c565b61032c61069a366004615352565b613b99565b6106b26106ad366004615352565b613bd7565b60408051825181526020808401519082015291810151908201526060016102ce565b6102aa6106e23660046153e8565b613cb1565b6102aa6106f5366004615352565b613d77565b6102aa610708366004614f53565b61416c565b6102aa61071b366004614ebf565b6141fb565b600e54600d54604080519283526020830191909152016102ce565b600a5461035d565b600354604080518082019091526002815261373560f01b602082015290600160c01b900460ff16156107915760405162461bcd60e51b815260040161078891906155d7565b60405180910390fd5b506001600160a01b03851660009081526013602090815260409182902054825180840190935260018352601b60f91b9183019190915260ff166107e75760405162461bcd60e51b815260040161078891906155d7565b506107f1846115cf565b604051806040016040528060028152602001610d0d60f21b8152509061082a5760405162461bcd60e51b815260040161078891906155d7565b50604051636e4d898360e01b81526001600160a01b03861690636e4d89839061085790859060040161579b565b60206040518083038186803b15801561086f57600080fd5b505afa158015610883573d6000803e3d6000fd5b505050506040513d601f19601f820116820180604052508101906108a79190614f37565b60405180604001604052806002815260200161343560f01b815250906108e05760405162461bcd60e51b815260040161078891906155d7565b506040805180820190915260028152611b9b60f11b60208201526001600160701b0384166109215760405162461bcd60e51b815260040161078891906155d7565b5061092a61368c565b836001600160701b03161115604051806040016040528060028152602001611a1b60f11b8152509061096f5760405162461bcd60e51b815260040161078891906155d7565b506000806000876001600160a01b0316639d5513d78888886040518463ffffffff1660e01b81526004016109a59392919061555e565b60606040518083038186803b1580156109bd57600080fd5b505afa1580156109d1573d6000803e3d6000fd5b505050506040513d601f19601f820116820180604052508101906109f591906152d9565b919450925090506000610a088385615803565b6001600160701b0316905084826001600160701b031682610a29919061582e565b111560405180604001604052806002815260200161343760f01b81525090610a645760405162461bcd60e51b815260040161078891906155d7565b50610a7a8882856001600160701b0316876142ec565b600254610a9f906001600160a01b038a8116913391166001600160701b038616614489565b866001600160701b0316600a6000828254610aba919061582e565b9091555042915060009050610acf8783615846565b600654909150600090610aef90600160a01b900463ffffffff1683615846565b600654909150600090610b0f90600160c01b900463ffffffff1684615846565b90506000600260009054906101000a90046001600160a01b03166001600160a01b031663caa0f92a6040518163ffffffff1660e01b8152600401602060405180830381600087803b158015610b6357600080fd5b505af1158015610b77573d6000803e3d6000fd5b505050506040513d601f19601f82011682018060405250810190610b9b919061536a565b90506040518061010001604052808c6001600160701b031681526020018e6001600160a01b03166381045ead6040518163ffffffff1660e01b815260040160206040518083038186803b158015610bf157600080fd5b505afa158015610c05573d6000803e3d6000fd5b505050506040513d601f19601f82011682018060405250810190610c299190615336565b61ffff1681526020018663ffffffff1681526020018563ffffffff1681526020018463ffffffff1681526020018363ffffffff168152602001876001600160701b03168152602001610c7a8e610f2b565b61ffff9081169091526000838152601160209081526040918290208451815492860151868501516060880151608089015160a08a01516001600160701b039586166001600160801b031998891617600160701b958b16860217600160801b600160c01b031916600160801b63ffffffff9586160263ffffffff60a01b191617600160a01b93851693909302929092176001600160c01b0316600160c01b918416919091026001600160e01b031617600160e01b929091169190910217835560c08701516001909301805460e0909801519390921696909316959095179316029190911790915560025490516335313c2160e11b815282916001600160a01b031690636a62784290610d8f9033906004016154a7565b602060405180830381600087803b158015610da957600080fd5b505af1158015610dbd573d6000803e3d6000fd5b505050506040513d601f19601f82011682018060405250810190610de1919061536a565b14610dfc57634e487b7160e01b600052600160045260246000fd5b60405163f8642f2960e01b8152600481018290526001600160a01b038e169063f8642f2990602401600060405180830381600087803b158015610e3e57600080fd5b505af1158015610e52573d6000803e3d6000fd5b505050508c6001600160a01b0316336001600160a01b0316827f0606c34c8c2ec99faed8921c4f1a3a5c1108fc00ebe3884ff753ab267ef6ec288f8f8d8d8d8d8d8d8d610e9d611f32565b600a54604080516001600160a01b03909c168c526001600160701b039a8b1660208d0152988a16988b019890985295881660608a015296909316608088015263ffffffff91821660a0880152811660c087015290811660e08601529092166101008401526101208301919091526101408201526101600160405180910390a450505050505050505050505050565b6001600160a01b038116600090815260076020526040812054610f5290600190810b6158a4565b92915050565b6040805161010081018252600080825260208201819052818301819052606082018190526080820181905260a0820181905260c0820181905260e082015260025491516331a9108f60e11b81526004810184905290916001600160a01b031690636352211e9060240160206040518083038186803b158015610fd957600080fd5b505afa158015610fed573d6000803e3d6000fd5b505050506040513d601f19601f820116820180604052508101906110119190614edb565b505060009081526011602090815260409182902082516101008101845281546001600160701b038082168352600160701b80830461ffff90811696850196909652600160801b830463ffffffff90811697850197909752600160a01b830487166060850152600160c01b830487166080850152600160e01b90920490951660a083015260019092015493841660c082015292041660e082015290565b6001546040516331a9108f60e11b815260048101839052829133916001600160a01b0390911690636352211e9060240160206040518083038186803b1580156110f557600080fd5b505afa158015611109573d6000803e3d6000fd5b505050506040513d601f19601f8201168201806040525081019061112d9190614edb565b6001600160a01b031614604051806040016040528060018152602001603360f81b8152509061116f5760405162461bcd60e51b815260040161078891906155d7565b5060008281526012602052604081209061118884612d79565b905061119261368c565b811115604051806040016040528060028152602001611a1b60f11b815250906111ce5760405162461bcd60e51b815260040161078891906155d7565b506000546111e6906001600160a01b031633836144fa565b815460006111f2611f32565b905060006112008383614519565b905061121b848287600101546112169190615911565b61453b565b600185018190556000336001600160a01b031688600080516020615a44833981519152878786600c548b8a6112509190615911565b600a5460405161126596959493929190615773565b60405180910390a450505050505050565b60606010805461128590615954565b80601f01602080910402602001604051908101604052809291908181526020018280546112b190615954565b80156112fe5780601f106112d3576101008083540402835291602001916112fe565b820191906000526020600020905b8154815290600101906020018083116112e157829003601f168201915b5050505050905090565b600354604080518082019091526002815261373560f01b6020820152600091600160c01b900460ff161561134f5760405162461bcd60e51b815260040161078891906155d7565b506001600160a01b03851660009081526013602090815260409182902054825180840190935260018352601b60f91b9183019190915260ff166113a55760405162461bcd60e51b815260040161078891906155d7565b50604051631466370160e01b81526001600160a01b038616906314663701906113d69087908790879060040161555e565b60206040518083038186803b1580156113ee57600080fd5b505afa158015611402573d6000803e3d6000fd5b505050506040513d601f19601f82011682018060405250810190611426919061536a565b90505b949350505050565b3361143a612c9d565b6001600160a01b031614604051806040016040528060018152602001603360f81b8152509061147c5760405162461bcd60e51b815260040161078891906155d7565b50611485612782565b60015460405163266a23b160e21b81526001600160a01b03928316926399a88ec4926114b892911690859060040161558e565b600060405180830381600087803b1580156114d257600080fd5b505af11580156114e6573d6000803e3d6000fd5b5050505050565b336114f6612c9d565b6001600160a01b031614604051806040016040528060018152602001603360f81b815250906115385760405162461bcd60e51b815260040161078891906155d7565b506006546040805180820190915260028152610d8d60f21b60208201529063ffffffff600160c01b909104811690831611156115875760405162461bcd60e51b815260040161078891906155d7565b506006805463ffffffff60a01b1916600160a01b63ffffffff841602179055604051600080516020615ba4833981519152906115c490839061579b565b60405180910390a150565b6001600160a01b0316600090815260076020526040812054600190810b900b1390565b336115fb612c9d565b6001600160a01b031614604051806040016040528060018152602001603360f81b8152509061163d5760405162461bcd60e51b815260040161078891906155d7565b5061164d600a600360401b615865565b82111560405180604001604052806002815260200161373760f01b815250906116895760405162461bcd60e51b815260040161078891906155d7565b5060408051808201909152600281526106e760f31b6020820152600160401b8211156116c85760405162461bcd60e51b815260040161078891906155d7565b50600e829055600d8190556040805183815260208101839052600080516020615aa483398151915291015b60405180910390a15050565b33611708612c9d565b6001600160a01b031614604051806040016040528060018152602001603360f81b8152509061174a5760405162461bcd60e51b815260040161078891906155d7565b506006805461ffff60e01b1916600160e01b61ffff841690810291909117909155604051908152600080516020615ae4833981519152906020016115c4565b600354604080518082019091526002815261373560f01b602082015290600160c01b900460ff16156117ce5760405162461bcd60e51b815260040161078891906155d7565b50336117d8612c9d565b6001600160a01b031614604051806040016040528060018152602001603360f81b8152509061181a5760405162461bcd60e51b815260040161078891906155d7565b5060038054600160c01b60ff60c01b199091161790556000600a819055600b8054600160701b81046001600160701b03166001600160701b03199091161790556040517f6f6348718c9a361558c634b516777b2b06bb2bf4140ad3d3bfaa44270fc2c0729190a1565b6001546040516331a9108f60e11b815260048101849052839133916001600160a01b0390911690636352211e9060240160206040518083038186803b1580156118cb57600080fd5b505afa1580156118df573d6000803e3d6000fd5b505050506040513d601f19601f820116820180604052508101906119039190614edb565b6001600160a01b031614604051806040016040528060018152602001603360f81b815250906119455760405162461bcd60e51b815260040161078891906155d7565b50600083815260126020908152604091829020825160608101845281548152600182015481840152600291820154818501819052845180860190955291845261035360f41b9284019290925290919043116119b35760405162461bcd60e51b815260040161078891906155d7565b5080516040805180820190915260028152611a1b60f11b6020820152908411156119f05760405162461bcd60e51b815260040161078891906155d7565b506119f961368c565b831115604051806040016040528060028152602001611a1b60f11b81525090611a355760405162461bcd60e51b815260040161078891906155d7565b50600054611a4d906001600160a01b031633856144fa565b6000611a57611f32565b90506000611a658583614519565b90508260200151811115611a7a575060208201515b611a84858261453b565b6020838101805183900380825285518890038652600089815260129093526040909220600181019290925584519182905551600c5460049233928a92600080516020615a44833981519152928b929091611ade848b615911565b600a54604051611af396959493929190615773565b60405180910390a4505050505050565b600280546040805180820190915291825261333960f01b60208301526001600160a01b03163314611b475760405162461bcd60e51b815260040161078891906155d7565b506000818152601160209081526040918290205482518084019093526002835261068760f31b918301919091526001600160701b03169081611b9c5760405162461bcd60e51b815260040161078891906155d7565b5060008281526011602052604081205460148054600160a01b830463ffffffff164211936001600160a01b03898116159490891615939192600160701b90910461ffff16908110611bfd57634e487b7160e01b600052603260045260246000fd5b6000918252602090912001546001600160a01b031690508115611c7f5760405163079cc67960e41b81526001600160a01b038216906379cc679090611c48908b9089906004016154d6565b600060405180830381600087803b158015611c6257600080fd5b505af1158015611c76573d6000803e3d6000fd5b50505050611d80565b8215611cb3576040516340c10f1960e01b81526001600160a01b038216906340c10f1990611c48908a9089906004016154d6565b83611d50576040516333bebb7760e01b81526001600160a01b03898116600483015288811660248301526001600160701b03871660448301528216906333bebb7790606401602060405180830381600087803b158015611d1257600080fd5b505af1158015611d26573d6000803e3d6000fd5b505050506040513d601f19601f82011682018060405250810190611d4a9190614f37565b50611d80565b60408051808201825260028152611a9960f11b6020820152905162461bcd60e51b815261078891906004016155d7565b5050505050505050565b600354604080518082019091526002815261373560f01b602082015290600160c01b900460ff1615611dcf5760405162461bcd60e51b815260040161078891906155d7565b50600054611de8906001600160a01b0316333084614489565b6000611df2611f32565b90506000600c54600014611e0f57611e0a8383614519565b611e11565b825b9050611e1d83826145bd565b6001546040516335313c2160e11b81526000916001600160a01b031690636a62784290611e4e9033906004016154a7565b602060405180830381600087803b158015611e6857600080fd5b505af1158015611e7c573d6000803e3d6000fd5b505050506040513d601f19601f82011682018060405250810190611ea0919061536a565b60408051606081018252868152602080820186815243838501908152600086815260129093529390912091518255516001808301919091559151600290910155909150336001600160a01b031682600080516020615a44833981519152878887600c548b8b611f0f919061582e565b600a54604051611f2496959493929190615773565b60405180910390a450505050565b6000611f3c61460e565b6001600160701b0316600954611f52919061582e565b905090565b600c54600354600654600954600a54600b54600f805460609788976000978897889788978897889788978897889788979496601096939563ffffffff600160a01b94859004811696948404811695600160c01b850482169561ffff600160e01b9687900416959394936001600160701b0380841694600160701b8504909116939190910416908c90611fe890615954565b80601f016020809104026020016040519081016040528092919081815260200182805461201490615954565b80156120615780601f1061203657610100808354040283529160200191612061565b820191906000526020600020905b81548152906001019060200180831161204457829003601f168201915b50505050509b508a805461207490615954565b80601f01602080910402602001604051908101604052809291908181526020018280546120a090615954565b80156120ed5780601f106120c2576101008083540402835291602001916120ed565b820191906000526020600020905b8154815290600101906020018083116120d057829003601f168201915b50505050509a509b509b509b509b509b509b509b509b509b509b509b509b50909192939495969798999a9b565b33612123612c9d565b6001600160a01b031614604051806040016040528060018152602001603360f81b815250906121655760405162461bcd60e51b815260040161078891906155d7565b50604080518082019091526002815261363160f01b60208201526001600160a01b0382166121a65760405162461bcd60e51b815260040161078891906155d7565b50600580546001600160a01b0319166001600160a01b038316179055604051600080516020615b84833981519152906115c49083906154a7565b600f80546121ed90615954565b6040805180820190915260018152601960f91b60208201529150156122255760405162461bcd60e51b815260040161078891906155d7565b5061222f81613ac4565b81600080516020615ac483398151915280546001600160a01b03929092166001600160a01b03199283161790556003805490911633179055865161227a90600f9060208a0190614cbf565b5061228760108787614d43565b5060068054600480546001600160a01b03199081166001600160a01b03888116919091179092556005805492861692909116821790556003805463ffffffff60a01b191661127560a71b179055600165ffff0000000160c01b0319909116600160e01b61ffff8816026001600160c01b03191617176102a360a61b1763ffffffff60c01b19166102a360c71b1790556123256064600560401b615865565b600e55612337600a600360401b615865565b600d55604051600080516020615a248339815191529061235a90889088906155a8565b60405180910390a1600654604051600160e01b90910461ffff168152600080516020615ae48339815191529060200160405180910390a1600454604051600080516020615b24833981519152916123bc916001600160a01b03909116906154a7565b60405180910390a1600654604051600080516020615b04833981519152916123ef916001600160a01b03909116906154a7565b60405180910390a1600554604051600080516020615b8483398151915291612422916001600160a01b03909116906154a7565b60405180910390a1600080516020615be4833981519152600360149054906101000a900463ffffffff16604051612459919061579b565b60405180910390a1600080516020615ba4833981519152600660149054906101000a900463ffffffff16604051612490919061579b565b60405180910390a1600080516020615a84833981519152600660189054906101000a900463ffffffff166040516124c7919061579b565b60405180910390a1600080516020615aa4833981519152600e54600d546040516124fb929190918252602082015260400190565b60405180910390a150505050505050565b600354604080518082019091526002815261373560f01b602082015290600160c01b900460ff16156125515760405162461bcd60e51b815260040161078891906155d7565b506001546040516331a9108f60e11b815260048101849052839133916001600160a01b0390911690636352211e9060240160206040518083038186803b15801561259a57600080fd5b505afa1580156125ae573d6000803e3d6000fd5b505050506040513d601f19601f820116820180604052508101906125d29190614edb565b6001600160a01b031614604051806040016040528060018152602001603360f81b815250906126145760405162461bcd60e51b815260040161078891906155d7565b5060005461262d906001600160a01b0316333085614489565b6000612637611f32565b90506000600c546000146126545761264f8483614519565b612656565b835b905061266284826145bd565b6000858152601260205260408120805490919061268090879061582e565b90506000838360010154612694919061582e565b8284556001840181905543600285015590506003336001600160a01b031689600080516020615a448339815191528a8686600c548e8d6126d4919061582e565b600a546040516126e996959493929190615773565b60405180910390a45050505050505050565b33612704612c9d565b6001600160a01b031614604051806040016040528060018152602001603360f81b815250906127465760405162461bcd60e51b815260040161078891906155d7565b5061274f612782565b60025460405163266a23b160e21b81526001600160a01b03928316926399a88ec4926114b892911690859060040161558e565b6000600080516020615ac48339815191525b546001600160a01b0316919050565b600354604080518082019091526002815261373560f01b602082015290600160c01b900460ff16156127e85760405162461bcd60e51b815260040161078891906155d7565b506127f2836115cf565b604051806040016040528060028152602001610d0d60f21b8152509061282b5760405162461bcd60e51b815260040161078891906155d7565b50600084815260116020908152604091829020805483518085019094526002845261068760f31b9284019290925291906001600160701b03166128815760405162461bcd60e51b815260040161078891906155d7565b50805460148054600092600160701b900461ffff169081106128b357634e487b7160e01b600052603260045260246000fd5b600091825260209091200154604051636e4d898360e01b81526001600160a01b0390911691508190636e4d8983906128ef90879060040161579b565b60206040518083038186803b15801561290757600080fd5b505afa15801561291b573d6000803e3d6000fd5b505050506040513d601f19601f8201168201806040525081019061293f9190614f37565b60405180604001604052806002815260200161343560f01b815250906129785760405162461bcd60e51b815260040161078891906155d7565b5081544290612995908690600160a01b900463ffffffff16615846565b63ffffffff16101560405180604001604052806002815260200161343960f01b815250906129d65760405162461bcd60e51b815260040161078891906155d7565b508154600a80546001600160701b03909216916000906129f7908490615911565b90915550508154604051639d5513d760e01b815260009182916001600160a01b03851691639d5513d791612a3d918b916001600160701b03909116908b9060040161555e565b60606040518083038186803b158015612a5557600080fd5b505afa158015612a69573d6000803e3d6000fd5b505050506040513d601f19601f82011682018060405250810190612a8d91906152d9565b508554600a80546001600160701b03909216909101905590925090506000612ab58284615803565b6001600160701b031690508581111560405180604001604052806002815260200161343760f01b81525090612afd5760405162461bcd60e51b815260040161078891906155d7565b50612b138882846001600160701b0316866142ec565b8454600090612b30908990600160a01b900463ffffffff16615846565b600654909150600090612b5090600160a01b900463ffffffff1683615846565b600654909150600090612b7090600160c01b900463ffffffff1684615846565b8854600160a01b600160e01b031916600160a01b63ffffffff8681169190910263ffffffff60c01b191691909117600160c01b85831602176001600160e01b0316600160e01b9183169190910217895560405163f8642f2960e01b8152600481018e90529091506001600160a01b0388169063f8642f2990602401600060405180830381600087803b158015612c0557600080fd5b505af1158015612c19573d6000803e3d6000fd5b5050604080516001600160a01b038f1681526001600160701b038a8116602083015289168183015263ffffffff87811660608301528681166080830152851660a082015290513393508f92507f89d8cafb66c1254c316d74e8fb6f0386656c633ae83763dffdf797ca4843a29c9181900360c00190a3505050505050505050505050565b6000600080516020615a64833981519152612794565b33612cbc612c9d565b6001600160a01b031614604051806040016040528060018152602001603360f81b81525090612cfe5760405162461bcd60e51b815260040161078891906155d7565b506040805180820190915260028152611b1960f11b60208201526001600160a01b038216612d3f5760405162461bcd60e51b815260040161078891906155d7565b50600680546001600160a01b0319166001600160a01b038316179055604051600080516020615b04833981519152906115c49083906154a7565b600081815260126020526040812060018101548290612d9f90612d9a611f32565b614676565b8254909150811115612dbc578154612db79082615911565b611429565b6000949350505050565b33612dcf612c9d565b6001600160a01b031614604051806040016040528060018152602001603360f81b81525090612e115760405162461bcd60e51b815260040161078891906155d7565b50600354604080518082019091526002815261373560f01b602082015290600160c01b900460ff1615612e575760405162461bcd60e51b815260040161078891906155d7565b50604080518082019091526002815261034360f41b60208201526001600160a01b038716612e985760405162461bcd60e51b815260040161078891906155d7565b50601454604080518082019091526002815261343160f01b60208201529061ffff11612ed75760405162461bcd60e51b815260040161078891906155d7565b506003546000906001600160a01b031663c31011cc612ef4612782565b6040518263ffffffff1660e01b8152600401612f1091906154a7565b602060405180830381600087803b158015612f2a57600080fd5b505af1158015612f3e573d6000803e3d6000fd5b505050506040513d601f19601f82011682018060405250810190612f629190614edb565b905060008060009054906101000a90046001600160a01b03166001600160a01b03166395d89b416040518163ffffffff1660e01b815260040160006040518083038186803b158015612fb357600080fd5b505afa158015612fc7573d6000803e3d6000fd5b505050506040513d6000823e601f3d908101601f19168201604052612fef91908101906150ce565b90506000818c60405160200161300692919061546b565b6040516020818303038152906040529050826001600160a01b0316631624f6c68e8360008054906101000a90046001600160a01b03166001600160a01b031663313ce5676040518163ffffffff1660e01b815260040160206040518083038186803b15801561307457600080fd5b505afa158015613088573d6000803e3d6000fd5b505050506040513d601f19601f820116820180604052508101906130ac9190615402565b6040518463ffffffff1660e01b81526004016130ca9392919061568d565b600060405180830381600087803b1580156130e457600080fd5b505af11580156130f8573d6000803e3d6000fd5b505050505050806001600160a01b0316632ef0cf8b308a868d6014805490508d8c8c8f8c6040518b63ffffffff1660e01b81526004016131b69a999897969594939291906001600160a01b039a8b1681526001600160701b039990991660208a01526001600160601b0397909716604089015263ffffffff958616606089015261ffff94851660808901529290971660a0870152831660c08601529490911660e0840152929092166101008201529015156101208201526101400190565b600060405180830381600087803b1580156131d057600080fd5b505af11580156131e4573d6000803e3d6000fd5b50506014805460018082019092557fce6d7b5282bd9a3661ae061feed1dbda4e52ab073b1f9285be6e155d9c38d4ec0180546001600160a01b0319166001600160a01b038616908117909155600081815260136020526040808220805460ff191690941790935591519093507f2fa31fbaacf5eaf61d648ea7528ada6efb69bfb06d2c3bd35ce511a820fce53e9250a25050505050505050505050565b3361328a612c9d565b6001600160a01b031614604051806040016040528060018152602001603360f81b815250906132cc5760405162461bcd60e51b815260040161078891906155d7565b506001600160a01b03811660009081526007602090815260409182902054825180840190935260028352611b9960f11b91830191909152600190810b900b6133275760405162461bcd60e51b815260040161078891906155d7565b506001600160a01b038116600090815260076020526040812054600190810b900b13156133c4576001600160a01b0381166000908152600760205260409020546133739060010b61598f565b6001600160a01b038216600090815260076020526040808220805460019490940b61ffff1661ffff19909416939093179092559051600080516020615bc4833981519152916115c4918491906154bb565b50565b6001546040516331a9108f60e11b815260048101839052829133916001600160a01b0390911690636352211e9060240160206040518083038186803b15801561340f57600080fd5b505afa158015613423573d6000803e3d6000fd5b505050506040513d601f19601f820116820180604052508101906134479190614edb565b6001600160a01b031614604051806040016040528060018152602001603360f81b815250906134895760405162461bcd60e51b815260040161078891906155d7565b5060006012600084815260200190815260200160002090504381600201541060405180604001604052806002815260200161035360f41b815250906134e15760405162461bcd60e51b815260040161078891906155d7565b50600181015460006134f1611f32565b905060006134ff8383614676565b905061350961368c565b811115604051806040016040528060028152602001611a1b60f11b815250906135455760405162461bcd60e51b815260040161078891906155d7565b5060005461355d906001600160a01b031633836144fa565b613567818461453b565b600154604051630852cd8d60e31b8152600481018890526001600160a01b03909116906342966c6890602401600060405180830381600087803b1580156135ad57600080fd5b505af11580156135c1573d6000803e3d6000fd5b5050506000878152601260205260408120818155600181018290556002908101919091559050336001600160a01b031687600080516020615a4483398151915284600080600c54888a611ade9190615911565b3361361d612c9d565b6001600160a01b031614604051806040016040528060018152602001603360f81b8152509061365f5760405162461bcd60e51b815260040161078891906155d7565b5061366c60108383614d43565b50600080516020615a2483398151915282826040516116f39291906155a8565b6000600a54613699611f32565b611f529190615911565b336136ac612c9d565b6001600160a01b031614604051806040016040528060018152602001603360f81b815250906136ee5760405162461bcd60e51b815260040161078891906155d7565b50604080518082019091526002815261363360f01b60208201526001600160a01b03821661372f5760405162461bcd60e51b815260040161078891906155d7565b50600480546001600160a01b0319166001600160a01b038316179055604051600080516020615b24833981519152906115c49083906154a7565b33613772612c9d565b6001600160a01b031614604051806040016040528060018152602001603360f81b815250906137b45760405162461bcd60e51b815260040161078891906155d7565b50600654604080518082019091526002815261363560f01b60208201529063ffffffff808416600160a01b9092041611156138025760405162461bcd60e51b815260040161078891906155d7565b506006805463ffffffff60c01b1916600160c01b63ffffffff841602179055604051600080516020615a84833981519152906115c490839061579b565b606060148054806020026020016040519081016040528092919081815260200182805480156112fe57602002820191906000526020600020905b81546001600160a01b03168152600190910190602001808311613879575050505050905090565b336138a9612c9d565b6001600160a01b031614604051806040016040528060018152602001603360f81b815250906138eb5760405162461bcd60e51b815260040161078891906155d7565b50604080518082019091526002815261373160f01b60208201526001600160a01b03821661392c5760405162461bcd60e51b815260040161078891906155d7565b506133c481614686565b3361393f612c9d565b6001600160a01b031614604051806040016040528060018152602001603360f81b815250906139815760405162461bcd60e51b815260040161078891906155d7565b5061398a612782565b6001600160a01b03166399a88ec430836040518363ffffffff1660e01b81526004016114b892919061558e565b336139c0612c9d565b6001600160a01b031614604051806040016040528060018152602001603360f81b81525090613a025760405162461bcd60e51b815260040161078891906155d7565b506001600160a01b03821660009081526013602090815260409182902054825180840190935260018352601b60f91b9183019190915260ff16613a585760405162461bcd60e51b815260040161078891906155d7565b50613a61612782565b6001600160a01b03166399a88ec483836040518363ffffffff1660e01b8152600401613a8e92919061558e565b600060405180830381600087803b158015613aa857600080fd5b505af1158015613abc573d6000803e3d6000fd5b505050505050565b6000613ace612c9d565b6001600160a01b031614604051806040016040528060018152602001601960f91b81525090613b105760405162461bcd60e51b815260040161078891906155d7565b50604080518082019091526002815261373360f01b60208201526001600160a01b038216613b515760405162461bcd60e51b815260040161078891906155d7565b50600080516020615a6483398151915280546001600160a01b0319166001600160a01b038316908117909155604051600090600080516020615b64833981519152908290a350565b600060088281548110613bbc57634e487b7160e01b600052603260045260246000fd5b6000918252602090912001546001600160a01b031692915050565b613bfb60405180606001604052806000815260200160008152602001600081525090565b6001546040516331a9108f60e11b8152600481018490526001600160a01b0390911690636352211e9060240160206040518083038186803b158015613c3f57600080fd5b505afa158015613c53573d6000803e3d6000fd5b505050506040513d601f19601f82011682018060405250810190613c779190614edb565b5050600090815260126020908152604091829020825160608101845281548152600182015492810192909252600201549181019190915290565b33613cba612c9d565b6001600160a01b031614604051806040016040528060018152602001603360f81b81525090613cfc5760405162461bcd60e51b815260040161078891906155d7565b506040805180820190915260028152611b1b60f11b602082015263ffffffff8216613d3a5760405162461bcd60e51b815260040161078891906155d7565b506003805463ffffffff60a01b1916600160a01b63ffffffff841602179055604051600080516020615be4833981519152906115c490839061579b565b60008181526011602090815260409182902082516101008101845281546001600160701b0380821680845261ffff600160701b80850482168689015263ffffffff600160801b86048116878b0152600160a01b860481166060880152600160c01b860481166080880152600160e01b90950490941660a086015260019095015491821660c085015291900490921660e082015283518085019094526002845261068760f31b92840192909252909190613e435760405162461bcd60e51b815260040161078891906155d7565b506002546040516331a9108f60e11b8152600481018490526000916001600160a01b031690636352211e9060240160206040518083038186803b158015613e8957600080fd5b505afa158015613e9d573d6000803e3d6000fd5b505050506040513d601f19601f82011682018060405250810190613ec19190614edb565b905060004290508063ffffffff16836080015163ffffffff161080613eee5750336001600160a01b038316145b60405180604001604052806002815260200161353360f01b81525090613f275760405162461bcd60e51b815260040161078891906155d7565b508063ffffffff168360a0015163ffffffff161080613f4e5750336001600160a01b038316145b80613f6357506005546001600160a01b031633145b604051806040016040528060028152602001610d4d60f21b81525090613f9c5760405162461bcd60e51b815260040161078891906155d7565b50600354600160c01b900460ff16613fd35782600001516001600160701b0316600a6000828254613fcd9190615911565b90915550505b6014836020015161ffff1681548110613ffc57634e487b7160e01b600052603260045260246000fd5b9060005260206000200160009054906101000a90046001600160a01b03166001600160a01b0316336001600160a01b0316857f8aaa205a62511774004899f15c5181b7c5865c381dcb3320af8e91b31b6326ab86600001518760c0015160088960e0015161ffff168154811061408257634e487b7160e01b600052603260045260246000fd5b6000918252602090912001546001600160a01b031661409f611f32565b600a54604080516001600160701b0396871681529490951660208501526001600160a01b0392909216838501526060830152608082015290519081900360a00190a4600254604051633f34d4cf60e21b8152600481018690523360248201526001600160a01b039091169063fcd3533c90604401600060405180830381600087803b15801561412d57600080fd5b505af1158015614141573d6000803e3d6000fd5b50505060009485525050601160205250506040812090815560010180546001600160801b0319169055565b6000546040805180820190915260018152601960f91b6020820152906001600160a01b0316156141af5760405162461bcd60e51b815260040161078891906155d7565b50600080546001600160a01b038086166001600160a01b0319928316179092556001805485841690831617905560028054928416929091169190911790556141f683614686565b505050565b33614204612c9d565b6001600160a01b031614604051806040016040528060018152602001603360f81b815250906142465760405162461bcd60e51b815260040161078891906155d7565b50604080518082019091526002815261373360f01b60208201526001600160a01b0382166142875760405162461bcd60e51b815260040161078891906155d7565b50806001600160a01b031661429a612c9d565b6001600160a01b0316600080516020615b6483398151915260405160405180910390a3600080516020615a6483398151915280546001600160a01b0319166001600160a01b0392909216919091179055565b6143016001600160a01b038516333086614489565b6000548390839083906001600160a01b0388811691161461445a576004805460405163095ea7b360e01b81526001600160a01b03808b169363095ea7b39361434e939216918b91016154f8565b602060405180830381600087803b15801561436857600080fd5b505af115801561437c573d6000803e3d6000fd5b505050506040513d601f19601f820116820180604052508101906143a09190614f37565b506004805460005460405163029b465d60e01b81526001600160a01b038b811694820194909452602481018a9052908316604482015291169063029b465d90606401602060405180830381600087803b1580156143fc57600080fd5b505af1158015614410573d6000803e3d6000fd5b505050506040513d601f19601f82011682018060405250810190614434919061536a565b9250856144418487615885565b61444b9190615865565b91506144578284615911565b90505b600654600054614477916001600160a01b039182169116846144fa565b614480816147d1565b50505050505050565b6040516001600160a01b03808516602483015283166044820152606481018290526144f49085906323b872dd60e01b906084015b60408051601f198184030181529190526020810180516001600160e01b03166001600160e01b031990931692909217909152614883565b50505050565b6141f68363a9059cbb60e01b84846040516024016144bd9291906154f8565b60008183600c5461452a9190615885565b6145349190615865565b9392505050565b80600c600082825461454d9190615911565b909155505060095482116145695760098054839003905561459c565b6000614573614955565b6001600160701b03169050828160095461458d919061582e565b6145979190615911565b600955505b600080516020615c048339815191526009546040516116f391815260200190565b80600c60008282546145cf919061582e565b9250508190555081600960008282546145e8919061582e565b9091555050600954604051908152600080516020615c04833981519152906020016116f3565b600b546000906146599063ffffffff600160e01b82041690614643906001600160701b0380821691600160701b9004166158e9565b600354600160a01b900463ffffffff1642614a13565b600b54611f529190600160701b90046001600160701b03166158e9565b600c5460009061452a8484615885565b6001600160a01b038116600090815260076020526040902054600190810b900b61473c5760088054600181810183557ff3f7a9fe364faab93b216da50a3214154f22a0a2b415b23a84c8169e8b636ee390910180546001600160a01b0385166001600160a01b03199091168117909155915460009283526007602052604092839020805491830b61ffff1661ffff199092169190911790559051600080516020615bc4833981519152916115c4918491906154bb565b6001600160a01b038116600090815260076020526040812054600190810b900b12156133c4576001600160a01b0381166000908152600760205260409020546147879060010b61598f565b6001600160a01b03821660009081526007602052604090819020805461ffff191661ffff600194850b1617905551600080516020615bc4833981519152916115c4918491906154bb565b6147d961460e565b600b80546001600160701b0319166001600160701b03928316178082558392600e9161480e918591600160701b900416615803565b82546001600160701b039182166101009390930a928302928202191691909117909155600b805463ffffffff4216600160e01b026001600160e01b038216811792839055604051600080516020615b4483398151915295506115c4949182169282169290921792600160701b90041690615759565b60006148d8826040518060400160405280602081526020017f5361666545524332303a206c6f772d6c6576656c2063616c6c206661696c6564815250856001600160a01b0316614bb49092919063ffffffff16565b8051909150156141f657808060200190518101906148f69190614f37565b6141f65760405162461bcd60e51b815260206004820152602a60248201527f5361666545524332303a204552433230206f7065726174696f6e20646964206e6044820152691bdd081cdd58d8d9595960b21b6064820152608401610788565b600061495f61460e565b600b80546001600160701b0319168082559192508291600e90614993908490600160701b90046001600160701b03166158e9565b82546001600160701b039182166101009390930a928302928202191691909117909155600b805463ffffffff4216600160e01b026001600160e01b038216811792839055604051600080516020615b448339815191529550614a08949182169282169290921792600160701b90041690615759565b60405180910390a190565b60008463ffffffff168263ffffffff161015604051806040016040528060018152602001600760fb1b81525090614a5d5760405162461bcd60e51b815260040161078891906155d7565b5084820391508263ffffffff168263ffffffff1681614a8c57634e487b7160e01b600052601260045260246000fd5b0463ffffffff16846001600160701b0316901c93508263ffffffff168263ffffffff1681614aca57634e487b7160e01b600052601260045260246000fd5b06915063ffffffff82161580614ae757506001600160701b038416155b15614af3575082611429565b60006001600160701b0385168163ffffffff86811690861671b17217f7d1cf79abc9e3b39803f2f6af40f30281614b3a57634e487b7160e01b600052601260045260246000fd5b049050600160901b5b8215614ba757928201928082840281614b6c57634e487b7160e01b600052601260045260246000fd5b0493849003939250600160901b018082840281614b9957634e487b7160e01b600052601260045260246000fd5b049250600160901b01614b43565b5091979650505050505050565b6060611429848460008585843b614c0d5760405162461bcd60e51b815260206004820152601d60248201527f416464726573733a2063616c6c20746f206e6f6e2d636f6e74726163740000006044820152606401610788565b600080866001600160a01b03168587604051614c29919061544f565b60006040518083038185875af1925050503d8060008114614c66576040519150601f19603f3d011682016040523d82523d6000602084013e614c6b565b606091505b5091509150614c7b828286614c86565b979650505050505050565b60608315614c95575081614534565b825115614ca55782518084602001fd5b8160405162461bcd60e51b815260040161078891906155d7565b828054614ccb90615954565b90600052602060002090601f016020900481019282614ced5760008555614d33565b82601f10614d0657805160ff1916838001178555614d33565b82800160010185558215614d33579182015b82811115614d33578251825591602001919060010190614d18565b50614d3f929150614db7565b5090565b828054614d4f90615954565b90600052602060002090601f016020900481019282614d715760008555614d33565b82601f10614d8a5782800160ff19823516178555614d33565b82800160010185558215614d33579182015b82811115614d33578235825591602001919060010190614d9c565b5b80821115614d3f5760008155600101614db8565b8035614dd7816159f0565b919050565b8035614dd7816159db565b60008083601f840112614df8578182fd5b5081356001600160401b03811115614e0e578182fd5b602083019150836020828501011115614e2657600080fd5b9250929050565b600082601f830112614e3d578081fd5b8135614e50614e4b826157dc565b6157ac565b818152846020838601011115614e64578283fd5b816020850160208301379081016020019190915292915050565b8035614dd7816159fe565b8035614dd781615a13565b803563ffffffff81168114614dd757600080fd5b80356001600160601b0381168114614dd757600080fd5b600060208284031215614ed0578081fd5b8135614534816159db565b600060208284031215614eec578081fd5b8151614534816159db565b600080600060608486031215614f0b578182fd5b8335614f16816159db565b92506020840135614f26816159db565b929592945050506040919091013590565b600060208284031215614f48578081fd5b8151614534816159f0565b600080600060608486031215614f67578081fd5b8335614f72816159db565b92506020840135614f82816159db565b91506040840135614f92816159db565b809150509250925092565b60008060408385031215614faf578182fd5b8235614fba816159db565b91506020830135614fca816159db565b809150509250929050565b60008060008060808587031215614fea578182fd5b8435614ff5816159db565b93506020850135615005816159db565b92506040850135615015816159fe565b915061502360608601614e94565b905092959194509250565b600080600080600060a08688031215615045578283fd5b8535615050816159db565b94506020860135615060816159db565b93506040860135615070816159fe565b925061507e60608701614e94565b949793965091946080013592915050565b600080602083850312156150a1578182fd5b82356001600160401b038111156150b6578283fd5b6150c285828601614de7565b90969095509350505050565b6000602082840312156150df578081fd5b81516001600160401b038111156150f4578182fd5b8201601f81018413615104578182fd5b8051615112614e4b826157dc565b818152856020838501011115615126578384fd5b615137826020830160208601615928565b95945050505050565b600080600080600080600060c0888a03121561515a578485fd5b87356001600160401b0380821115615170578687fd5b61517c8b838c01614e2d565b985060208a0135915080821115615191578687fd5b5061519e8a828b01614de7565b90975095505060408801356151b281615a13565b935060608801356151c2816159db565b925060808801356151d2816159db565b915060a08801356151e2816159db565b8091505092959891949750929550565b6000806000806000806000806000806101408b8d031215615211578384fd5b8a356001600160401b0380821115615227578586fd5b6152338e838f01614e2d565b9b5060208d0135915080821115615248578586fd5b506152558d828e01614e2d565b99505061526460408c01614e94565b975061527260608c01614e7e565b965061528060808c01614ddc565b955061528e60a08c01614e89565b945061529c60c08c01614e94565b93506152aa60e08c01614e94565b92506152b96101008c01614ea8565b91506152c86101208c01614dcc565b90509295989b9194979a5092959850565b6000806000606084860312156152ed578081fd5b83516152f8816159fe565b6020850151909350615309816159fe565b6040850151909250614f92816159fe565b60006020828403121561532b578081fd5b813561453481615a13565b600060208284031215615347578081fd5b815161453481615a13565b600060208284031215615363578081fd5b5035919050565b60006020828403121561537b578081fd5b5051919050565b60008060008060808587031215615397578182fd5b8435935060208501356153a9816159db565b92506153b760408601614e94565b9396929550929360600135925050565b600080604083850312156153d9578182fd5b50508035926020909101359150565b6000602082840312156153f9578081fd5b61453482614e94565b600060208284031215615413578081fd5b815160ff81168114614534578182fd5b6000815180845261543b816020860160208601615928565b601f01601f19169290920160200192915050565b60008251615461818460208701615928565b9190910192915050565b6000835161547d818460208801615928565b600160fd1b908301908152835161549b816001840160208801615928565b01600101949350505050565b6001600160a01b0391909116815260200190565b6001600160a01b039290921682521515602082015260400190565b6001600160a01b039290921682526001600160701b0316602082015260400190565b6001600160a01b03929092168252602082015260400190565b6020808252825182820181905260009190848201906040850190845b818110156155525783516001600160a01b03168352928401929184019160010161552d565b50909695505050505050565b6001600160a01b039390931683526001600160701b0391909116602083015263ffffffff16604082015260600190565b6001600160a01b0392831681529116602082015260400190565b60208152816020820152818360408301376000818301604090810191909152601f909201601f19160101919050565b6020815260006145346020830184615423565b610180815260006155ff61018083018f615423565b8281036020840152615611818f615423565b604084018e905263ffffffff8d811660608601528c811660808601528b1660a085015261ffff8a1660c085015260e0840189905261010084018890526001600160701b038781166101208601528616610140850152915061566f9050565b63ffffffff83166101608301529d9c50505050505050505050505050565b6060815260006156a06060830186615423565b82810360208401526156b28186615423565b91505060ff83166040830152949350505050565b81516001600160701b0316815260208083015161ffff169082015260408083015163ffffffff9081169183019190915260608084015182169083015260808084015182169083015260a080840151918216908301526101008201905060c083015161573c60c08401826001600160701b03169052565b5060e083015161575260e084018261ffff169052565b5092915050565b6001600160701b0392831681529116602082015260400190565b958652602086019490945260408501929092526060840152608083015260a082015260c00190565b63ffffffff91909116815260200190565b604051601f8201601f191681016001600160401b03811182821017156157d4576157d46159c5565b604052919050565b60006001600160401b038211156157f5576157f56159c5565b50601f01601f191660200190565b60006001600160701b03828116848216808303821115615825576158256159af565b01949350505050565b60008219821115615841576158416159af565b500190565b600063ffffffff808316818516808303821115615825576158256159af565b60008261588057634e487b7160e01b81526012600452602481fd5b500490565b600081600019048311821515161561589f5761589f6159af565b500290565b60008160010b8360010b82811281617fff19018312811516156158c9576158c96159af565b81617fff0183138116156158df576158df6159af565b5090039392505050565b60006001600160701b0383811690831681811015615909576159096159af565b039392505050565b600082821015615923576159236159af565b500390565b60005b8381101561594357818101518382015260200161592b565b838111156144f45750506000910152565b600181811c9082168061596857607f821691505b6020821081141561598957634e487b7160e01b600052602260045260246000fd5b50919050565b60008160010b617fff198114156159a8576159a86159af565b9003919050565b634e487b7160e01b600052601160045260246000fd5b634e487b7160e01b600052604160045260246000fd5b6001600160a01b03811681146133c457600080fd5b80151581146133c457600080fd5b6001600160701b03811681146133c457600080fd5b61ffff811681146133c457600080fdfe87cdeaffd8e70903d6ce7cc983fac3b09ca79e83818124c98e47a1d70f8027d6e5f63c82bf3ad1341ce6c32dc2d5ed3f732d99de132df995de19d0d6802bdd634f471908b72bb76dae5bd24599026e7bf3ddb256497722888ffa422f83729ede7c5a703a1928f0d18042c0454d90ddfe036b518c756a39cd82aca939b71d801b926b69b9f7735227079a308fce165b111b96e2983e70a86a381ee047675ff39fd1248cccb5fef9131c731321e43e9a924840ffee7dc68c7d1d3e5cb7dedcae0327894f6b9c469a3eddbe98dd0df54563b6437b20982876e0c2cd60c211a156460dc14fdd751203f0c4dac8cc93c303e991c5f8e60af35674d5c82061929762ddbefcd50991bb64333037879282220d78a901bb4809351643f56628af8a4656dfc8dfab451067f726e1077626e126c7f77149630cc1b0056cf60307a289a118298be0079c531659141344cd1fd0a4f28419497f9722a3daafe3b4186f6b6457e07aa9698a01d2094fb8a580e2c72a6fc3f3bfecfd4cbdc457461118c59a6fefe4f6ae16e9e9771497fc501d1caac6168e19c36e4639d7273813e3b57066035f2a92a4dc1fa715a8cafb0cdc060f729eb1dfdddcbc9effbdc8d822cdf5ebcf4907971f32e7fcf39ef3d42dd88b6e08b31dd4bd8f53e7299c95b669c82e23807e2fa70de76be90dc9c5d9243b0bc73c3d963ba703a0a396f29134bf5b4e6197c180a26469706673582212206e72bd323b7bee60d157a7f17f26564876e6340e52910ede78763ae7c278146564736f6c63430008040033",
  "linkReferences": {},
  "deployedLinkReferences": {}
}