{
  "_format": "hh-sol-artifact-1",
  "contractName": "Enterprise",
  "sourceName": "contracts/Enterprise.sol",
  "abi": [
    {
      "anonymous": false,
      "inputs": [
        {
          "indexed": false,
          "internalType": "string",
          "name": "baseUri",
          "type": "string"
        }
      ],
      "name": "BaseUriChanged",
      "type": "event"
    },
    {
      "anonymous": false,
      "inputs": [
        {
          "indexed": false,
          "internalType": "uint256",
          "name": "pole",
          "type": "uint256"
        },
        {
          "indexed": false,
          "internalType": "uint256",
          "name": "slope",
          "type": "uint256"
        }
      ],
      "name": "BondingChanged",
      "type": "event"
    },
    {
      "anonymous": false,
      "inputs": [
        {
          "indexed": true,
          "internalType": "address",
          "name": "powerToken",
          "type": "address"
        },
        {
          "indexed": true,
          "internalType": "uint256",
          "name": "borrowTokenId",
          "type": "uint256"
        }
      ],
      "name": "Borrowed",
      "type": "event"
    },
    {
      "anonymous": false,
      "inputs": [
        {
          "indexed": false,
          "internalType": "uint32",
          "name": "period",
          "type": "uint32"
        }
      ],
      "name": "BorrowerLoanReturnGracePeriodChanged",
      "type": "event"
    },
    {
      "anonymous": false,
      "inputs": [
        {
          "indexed": false,
          "internalType": "address",
          "name": "converter",
          "type": "address"
        }
      ],
      "name": "ConverterChanged",
      "type": "event"
    },
    {
      "anonymous": false,
      "inputs": [
        {
          "indexed": false,
          "internalType": "address",
          "name": "collector",
          "type": "address"
        }
      ],
      "name": "EnterpriseCollectorChanged",
      "type": "event"
    },
    {
      "anonymous": false,
      "inputs": [
        {
          "indexed": false,
          "internalType": "uint32",
          "name": "period",
          "type": "uint32"
        }
      ],
      "name": "EnterpriseLoanCollectGracePeriodChanged",
      "type": "event"
    },
    {
      "anonymous": false,
      "inputs": [],
      "name": "EnterpriseShutdown",
      "type": "event"
    },
    {
      "anonymous": false,
      "inputs": [
        {
          "indexed": false,
          "internalType": "address",
          "name": "vault",
          "type": "address"
        }
      ],
      "name": "EnterpriseVaultChanged",
      "type": "event"
    },
    {
      "anonymous": false,
      "inputs": [
        {
          "indexed": false,
          "internalType": "uint256",
          "name": "fixedReserve",
          "type": "uint256"
        }
      ],
      "name": "FixedReserveChanged",
      "type": "event"
    },
    {
      "anonymous": false,
      "inputs": [
        {
          "indexed": false,
          "internalType": "uint16",
          "name": "percent",
          "type": "uint16"
        }
      ],
      "name": "GcFeePercentChanged",
      "type": "event"
    },
    {
      "anonymous": false,
      "inputs": [
        {
          "indexed": false,
          "internalType": "uint32",
          "name": "period",
          "type": "uint32"
        }
      ],
      "name": "InterestGapHalvingPeriodChanged",
      "type": "event"
    },
    {
      "anonymous": false,
      "inputs": [
        {
          "indexed": true,
          "internalType": "uint256",
          "name": "interestTokenId",
          "type": "uint256"
        },
        {
          "indexed": true,
          "internalType": "enum Enterprise.LiquidityChangeType",
          "name": "changeType",
          "type": "uint8"
        },
        {
          "indexed": false,
          "internalType": "uint256",
          "name": "amount",
          "type": "uint256"
        }
      ],
      "name": "LiquidityChanged",
      "type": "event"
    },
    {
      "anonymous": false,
      "inputs": [
        {
          "indexed": true,
          "internalType": "uint256",
          "name": "borrowTokenId",
          "type": "uint256"
        }
      ],
      "name": "LoanReturned",
      "type": "event"
    },
    {
      "anonymous": false,
      "inputs": [
        {
          "indexed": true,
          "internalType": "address",
          "name": "previousOwner",
          "type": "address"
        },
        {
          "indexed": true,
          "internalType": "address",
          "name": "newOwner",
          "type": "address"
        }
      ],
      "name": "OwnershipTransferred",
      "type": "event"
    },
    {
      "anonymous": false,
      "inputs": [
        {
          "indexed": false,
          "internalType": "address",
          "name": "paymentToken",
          "type": "address"
        },
        {
          "indexed": false,
          "internalType": "bool",
          "name": "enabled",
          "type": "bool"
        }
      ],
      "name": "PaymentTokenChange",
      "type": "event"
    },
    {
      "anonymous": false,
      "inputs": [
        {
          "indexed": true,
          "internalType": "address",
          "name": "powerToken",
          "type": "address"
        }
      ],
      "name": "ServiceRegistered",
      "type": "event"
    },
    {
      "anonymous": false,
      "inputs": [
        {
          "indexed": false,
          "internalType": "uint112",
          "name": "streamingReserve",
          "type": "uint112"
        },
        {
          "indexed": false,
          "internalType": "uint112",
          "name": "streamingReserveTarget",
          "type": "uint112"
        }
      ],
      "name": "StreamingReserveChanged",
      "type": "event"
    },
    {
      "anonymous": false,
      "inputs": [
        {
          "indexed": false,
          "internalType": "uint256",
          "name": "totalShares",
          "type": "uint256"
        }
      ],
      "name": "TotalSharesChanged",
      "type": "event"
    },
    {
      "anonymous": false,
      "inputs": [
        {
          "indexed": false,
          "internalType": "uint256",
          "name": "fixedReserve",
          "type": "uint256"
        }
      ],
      "name": "UsedReserveChanged",
      "type": "event"
    },
    {
      "inputs": [
        {
          "internalType": "uint256",
          "name": "liquidityAmount",
          "type": "uint256"
        }
      ],
      "name": "addLiquidity",
      "outputs": [],
      "stateMutability": "nonpayable",
      "type": "function"
    },
    {
      "inputs": [
        {
          "internalType": "contract PowerToken",
          "name": "powerToken",
          "type": "address"
        },
        {
          "internalType": "contract IERC20",
          "name": "paymentToken",
          "type": "address"
        },
        {
          "internalType": "uint112",
          "name": "amount",
          "type": "uint112"
        },
        {
          "internalType": "uint32",
          "name": "duration",
          "type": "uint32"
        },
        {
          "internalType": "uint256",
          "name": "maxPayment",
          "type": "uint256"
        }
      ],
      "name": "borrow",
      "outputs": [],
      "stateMutability": "nonpayable",
      "type": "function"
    },
    {
      "inputs": [
        {
          "internalType": "uint256",
          "name": "interestTokenId",
          "type": "uint256"
        },
        {
          "internalType": "uint256",
          "name": "amount",
          "type": "uint256"
        }
      ],
      "name": "decreaseLiquidity",
      "outputs": [],
      "stateMutability": "nonpayable",
      "type": "function"
    },
    {
      "inputs": [
        {
          "internalType": "address",
          "name": "token",
          "type": "address"
        }
      ],
      "name": "disablePaymentToken",
      "outputs": [],
      "stateMutability": "nonpayable",
      "type": "function"
    },
    {
      "inputs": [
        {
          "internalType": "address",
          "name": "token",
          "type": "address"
        }
      ],
      "name": "enablePaymentToken",
      "outputs": [],
      "stateMutability": "nonpayable",
      "type": "function"
    },
    {
      "inputs": [
        {
          "internalType": "contract PowerToken",
          "name": "powerToken",
          "type": "address"
        },
        {
          "internalType": "contract IERC20",
          "name": "paymentToken",
          "type": "address"
        },
        {
          "internalType": "uint112",
          "name": "amount",
          "type": "uint112"
        },
        {
          "internalType": "uint32",
          "name": "duration",
          "type": "uint32"
        }
      ],
      "name": "estimateLoan",
      "outputs": [
        {
          "internalType": "uint256",
          "name": "",
          "type": "uint256"
        }
      ],
      "stateMutability": "view",
      "type": "function"
    },
    {
      "inputs": [
        {
          "internalType": "uint256",
          "name": "interestTokenId",
          "type": "uint256"
        }
      ],
      "name": "getAccruedInterest",
      "outputs": [
        {
          "internalType": "uint256",
          "name": "",
          "type": "uint256"
        }
      ],
      "stateMutability": "view",
      "type": "function"
    },
    {
      "inputs": [],
      "name": "getAvailableReserve",
      "outputs": [
        {
          "internalType": "uint256",
          "name": "",
          "type": "uint256"
        }
      ],
      "stateMutability": "view",
      "type": "function"
    },
    {
      "inputs": [],
      "name": "getBaseUri",
      "outputs": [
        {
          "internalType": "string",
          "name": "",
          "type": "string"
        }
      ],
      "stateMutability": "view",
      "type": "function"
    },
    {
      "inputs": [],
      "name": "getBondingCurve",
      "outputs": [
        {
          "internalType": "uint256",
          "name": "pole",
          "type": "uint256"
        },
        {
          "internalType": "uint256",
          "name": "slope",
          "type": "uint256"
        }
      ],
      "stateMutability": "view",
      "type": "function"
    },
    {
      "inputs": [],
      "name": "getBorrowToken",
      "outputs": [
        {
          "internalType": "contract IBorrowToken",
          "name": "",
          "type": "address"
        }
      ],
      "stateMutability": "view",
      "type": "function"
    },
    {
      "inputs": [],
      "name": "getBorrowerLoanReturnGracePeriod",
      "outputs": [
        {
          "internalType": "uint32",
          "name": "",
          "type": "uint32"
        }
      ],
      "stateMutability": "view",
      "type": "function"
    },
    {
      "inputs": [],
      "name": "getConverter",
      "outputs": [
        {
          "internalType": "contract IConverter",
          "name": "",
          "type": "address"
        }
      ],
      "stateMutability": "view",
      "type": "function"
    },
    {
      "inputs": [],
      "name": "getEnterpriseCollector",
      "outputs": [
        {
          "internalType": "address",
          "name": "",
          "type": "address"
        }
      ],
      "stateMutability": "view",
      "type": "function"
    },
    {
      "inputs": [],
      "name": "getEnterpriseLoanCollectGracePeriod",
      "outputs": [
        {
          "internalType": "uint32",
          "name": "",
          "type": "uint32"
        }
      ],
      "stateMutability": "view",
      "type": "function"
    },
    {
      "inputs": [],
      "name": "getEnterpriseVault",
      "outputs": [
        {
          "internalType": "address",
          "name": "",
          "type": "address"
        }
      ],
      "stateMutability": "view",
      "type": "function"
    },
    {
      "inputs": [],
      "name": "getGCFeePercent",
      "outputs": [
        {
          "internalType": "uint16",
          "name": "",
          "type": "uint16"
        }
      ],
      "stateMutability": "view",
      "type": "function"
    },
    {
      "inputs": [],
      "name": "getInfo",
      "outputs": [
        {
          "internalType": "string",
          "name": "name",
          "type": "string"
        },
        {
          "internalType": "string",
          "name": "baseUri",
          "type": "string"
        },
        {
          "internalType": "uint256",
          "name": "totalShares",
          "type": "uint256"
        },
        {
          "internalType": "uint32",
          "name": "interestGapHalvingPeriod",
          "type": "uint32"
        },
        {
          "internalType": "uint32",
          "name": "borrowerLoanReturnGracePeriod",
          "type": "uint32"
        },
        {
          "internalType": "uint32",
          "name": "enterpriseLoanCollectGracePeriod",
          "type": "uint32"
        },
        {
          "internalType": "uint16",
          "name": "gcFeePercent",
          "type": "uint16"
        },
        {
          "internalType": "uint256",
          "name": "fixedReserve",
          "type": "uint256"
        },
        {
          "internalType": "uint256",
          "name": "usedReserve",
          "type": "uint256"
        },
        {
          "internalType": "uint112",
          "name": "streamingReserve",
          "type": "uint112"
        },
        {
          "internalType": "uint112",
          "name": "streamingReserveTarget",
          "type": "uint112"
        },
        {
          "internalType": "uint32",
          "name": "streamingReserveUpdated",
          "type": "uint32"
        }
      ],
      "stateMutability": "view",
      "type": "function"
    },
    {
      "inputs": [],
      "name": "getInterestGapHalvingPeriod",
      "outputs": [
        {
          "internalType": "uint32",
          "name": "",
          "type": "uint32"
        }
      ],
      "stateMutability": "view",
      "type": "function"
    },
    {
      "inputs": [],
      "name": "getInterestToken",
      "outputs": [
        {
          "internalType": "contract IInterestToken",
          "name": "",
          "type": "address"
        }
      ],
      "stateMutability": "view",
      "type": "function"
    },
    {
      "inputs": [
        {
          "internalType": "uint256",
          "name": "interestTokenId",
          "type": "uint256"
        }
      ],
      "name": "getLiquidityInfo",
      "outputs": [
        {
          "components": [
            {
              "internalType": "uint256",
              "name": "amount",
              "type": "uint256"
            },
            {
              "internalType": "uint256",
              "name": "shares",
              "type": "uint256"
            },
            {
              "internalType": "uint256",
              "name": "block",
              "type": "uint256"
            }
          ],
          "internalType": "struct EnterpriseStorage.LiquidityInfo",
          "name": "",
          "type": "tuple"
        }
      ],
      "stateMutability": "view",
      "type": "function"
    },
    {
      "inputs": [],
      "name": "getLiquidityToken",
      "outputs": [
        {
          "internalType": "contract IERC20Metadata",
          "name": "",
          "type": "address"
        }
      ],
      "stateMutability": "view",
      "type": "function"
    },
    {
      "inputs": [
        {
          "internalType": "uint256",
          "name": "borrowTokenId",
          "type": "uint256"
        }
      ],
      "name": "getLoanInfo",
      "outputs": [
        {
          "components": [
            {
              "internalType": "uint112",
              "name": "amount",
              "type": "uint112"
            },
            {
              "internalType": "uint16",
              "name": "powerTokenIndex",
              "type": "uint16"
            },
            {
              "internalType": "uint32",
              "name": "borrowingTime",
              "type": "uint32"
            },
            {
              "internalType": "uint32",
              "name": "maturityTime",
              "type": "uint32"
            },
            {
              "internalType": "uint32",
              "name": "borrowerReturnGraceTime",
              "type": "uint32"
            },
            {
              "internalType": "uint32",
              "name": "enterpriseCollectGraceTime",
              "type": "uint32"
            },
            {
              "internalType": "uint112",
              "name": "gcFee",
              "type": "uint112"
            },
            {
              "internalType": "uint16",
              "name": "gcFeeTokenIndex",
              "type": "uint16"
            }
          ],
          "internalType": "struct EnterpriseStorage.LoanInfo",
          "name": "",
          "type": "tuple"
        }
      ],
      "stateMutability": "view",
      "type": "function"
    },
    {
      "inputs": [],
      "name": "getPowerTokens",
      "outputs": [
        {
          "internalType": "contract PowerToken[]",
          "name": "",
          "type": "address[]"
        }
      ],
      "stateMutability": "view",
      "type": "function"
    },
    {
      "inputs": [],
      "name": "getProxyAdmin",
      "outputs": [
        {
          "internalType": "contract ProxyAdmin",
          "name": "",
          "type": "address"
        }
      ],
      "stateMutability": "view",
      "type": "function"
    },
    {
      "inputs": [],
      "name": "getReserve",
      "outputs": [
        {
          "internalType": "uint256",
          "name": "",
          "type": "uint256"
        }
      ],
      "stateMutability": "view",
      "type": "function"
    },
    {
      "inputs": [],
      "name": "getUsedReserve",
      "outputs": [
        {
          "internalType": "uint256",
          "name": "",
          "type": "uint256"
        }
      ],
      "stateMutability": "view",
      "type": "function"
    },
    {
      "inputs": [
        {
          "internalType": "uint256",
          "name": "interestTokenId",
          "type": "uint256"
        },
        {
          "internalType": "uint256",
          "name": "amount",
          "type": "uint256"
        }
      ],
      "name": "increaseLiquidity",
      "outputs": [],
      "stateMutability": "nonpayable",
      "type": "function"
    },
    {
      "inputs": [
        {
          "internalType": "string",
          "name": "enterpriseName",
          "type": "string"
        },
        {
          "internalType": "string",
          "name": "baseUri",
          "type": "string"
        },
        {
          "internalType": "uint16",
          "name": "gcFeePercent",
          "type": "uint16"
        },
        {
          "internalType": "contract IConverter",
          "name": "converter",
          "type": "address"
        },
        {
          "internalType": "contract ProxyAdmin",
          "name": "proxyAdmin",
          "type": "address"
        },
        {
          "internalType": "address",
          "name": "owner",
          "type": "address"
        }
      ],
      "name": "initialize",
      "outputs": [],
      "stateMutability": "nonpayable",
      "type": "function"
    },
    {
      "inputs": [
        {
          "internalType": "address",
          "name": "initialOwner",
          "type": "address"
        }
      ],
      "name": "initialize",
      "outputs": [],
      "stateMutability": "nonpayable",
      "type": "function"
    },
    {
      "inputs": [
        {
          "internalType": "contract IERC20Metadata",
          "name": "liquidityToken",
          "type": "address"
        },
        {
          "internalType": "contract IInterestToken",
          "name": "interestToken",
          "type": "address"
        },
        {
          "internalType": "contract IBorrowToken",
          "name": "borrowToken",
          "type": "address"
        }
      ],
      "name": "initializeTokens",
      "outputs": [],
      "stateMutability": "nonpayable",
      "type": "function"
    },
    {
      "inputs": [
        {
          "internalType": "contract PowerToken",
          "name": "powerToken",
          "type": "address"
        }
      ],
      "name": "isRegisteredPowerToken",
      "outputs": [
        {
          "internalType": "bool",
          "name": "",
          "type": "bool"
        }
      ],
      "stateMutability": "view",
      "type": "function"
    },
    {
      "inputs": [
        {
          "internalType": "contract IERC20",
          "name": "token",
          "type": "address"
        }
      ],
      "name": "isSupportedPaymentToken",
      "outputs": [
        {
          "internalType": "bool",
          "name": "",
          "type": "bool"
        }
      ],
      "stateMutability": "view",
      "type": "function"
    },
    {
      "inputs": [
        {
          "internalType": "address",
          "name": "from",
          "type": "address"
        },
        {
          "internalType": "address",
          "name": "to",
          "type": "address"
        },
        {
          "internalType": "uint256",
          "name": "borrowTokenId",
          "type": "uint256"
        }
      ],
      "name": "loanTransfer",
      "outputs": [],
      "stateMutability": "nonpayable",
      "type": "function"
    },
    {
      "inputs": [],
      "name": "owner",
      "outputs": [
        {
          "internalType": "address",
          "name": "",
          "type": "address"
        }
      ],
      "stateMutability": "view",
      "type": "function"
    },
    {
      "inputs": [
        {
          "internalType": "uint256",
          "name": "index",
          "type": "uint256"
        }
      ],
      "name": "paymentToken",
      "outputs": [
        {
          "internalType": "address",
          "name": "",
          "type": "address"
        }
      ],
      "stateMutability": "view",
      "type": "function"
    },
    {
      "inputs": [
        {
          "internalType": "contract IERC20",
          "name": "token",
          "type": "address"
        }
      ],
      "name": "paymentTokenIndex",
      "outputs": [
        {
          "internalType": "int16",
          "name": "",
          "type": "int16"
        }
      ],
      "stateMutability": "view",
      "type": "function"
    },
    {
      "inputs": [
        {
          "internalType": "uint256",
          "name": "borrowTokenId",
          "type": "uint256"
        },
        {
          "internalType": "contract IERC20",
          "name": "paymentToken",
          "type": "address"
        },
        {
          "internalType": "uint32",
          "name": "duration",
          "type": "uint32"
        },
        {
          "internalType": "uint256",
          "name": "maxPayment",
          "type": "uint256"
        }
      ],
      "name": "reborrow",
      "outputs": [],
      "stateMutability": "nonpayable",
      "type": "function"
    },
    {
      "inputs": [
        {
          "internalType": "string",
          "name": "serviceName",
          "type": "string"
        },
        {
          "internalType": "string",
          "name": "symbol",
          "type": "string"
        },
        {
          "internalType": "uint32",
          "name": "gapHalvingPeriod",
          "type": "uint32"
        },
        {
          "internalType": "uint112",
          "name": "baseRate",
          "type": "uint112"
        },
        {
          "internalType": "contract IERC20Metadata",
          "name": "baseToken",
          "type": "address"
        },
        {
          "internalType": "uint16",
          "name": "serviceFeePercent",
          "type": "uint16"
        },
        {
          "internalType": "uint32",
          "name": "minLoanDuration",
          "type": "uint32"
        },
        {
          "internalType": "uint32",
          "name": "maxLoanDuration",
          "type": "uint32"
        },
        {
          "internalType": "uint96",
          "name": "minGCFee",
          "type": "uint96"
        },
        {
          "internalType": "bool",
          "name": "allowsPerpetualTokensForever",
          "type": "bool"
        }
      ],
      "name": "registerService",
      "outputs": [],
      "stateMutability": "nonpayable",
      "type": "function"
    },
    {
      "inputs": [
        {
          "internalType": "uint256",
          "name": "interestTokenId",
          "type": "uint256"
        }
      ],
      "name": "removeLiquidity",
      "outputs": [],
      "stateMutability": "nonpayable",
      "type": "function"
    },
    {
      "inputs": [
        {
          "internalType": "uint256",
          "name": "borrowTokenId",
          "type": "uint256"
        }
      ],
      "name": "returnLoan",
      "outputs": [],
      "stateMutability": "nonpayable",
      "type": "function"
    },
    {
      "inputs": [
        {
          "internalType": "string",
          "name": "baseUri",
          "type": "string"
        }
      ],
      "name": "setBaseUri",
      "outputs": [],
      "stateMutability": "nonpayable",
      "type": "function"
    },
    {
      "inputs": [
        {
          "internalType": "uint256",
          "name": "pole",
          "type": "uint256"
        },
        {
          "internalType": "uint256",
          "name": "slope",
          "type": "uint256"
        }
      ],
      "name": "setBondingCurve",
      "outputs": [],
      "stateMutability": "nonpayable",
      "type": "function"
    },
    {
      "inputs": [
        {
          "internalType": "uint32",
          "name": "newPeriod",
          "type": "uint32"
        }
      ],
      "name": "setBorrowerLoanReturnGracePeriod",
      "outputs": [],
      "stateMutability": "nonpayable",
      "type": "function"
    },
    {
      "inputs": [
        {
          "internalType": "contract IConverter",
          "name": "newConverter",
          "type": "address"
        }
      ],
      "name": "setConverter",
      "outputs": [],
      "stateMutability": "nonpayable",
      "type": "function"
    },
    {
      "inputs": [
        {
          "internalType": "address",
          "name": "newCollector",
          "type": "address"
        }
      ],
      "name": "setEnterpriseCollector",
      "outputs": [],
      "stateMutability": "nonpayable",
      "type": "function"
    },
    {
      "inputs": [
        {
          "internalType": "uint32",
          "name": "newPeriod",
          "type": "uint32"
        }
      ],
      "name": "setEnterpriseLoanCollectGracePeriod",
      "outputs": [],
      "stateMutability": "nonpayable",
      "type": "function"
    },
    {
      "inputs": [
        {
          "internalType": "address",
          "name": "newVault",
          "type": "address"
        }
      ],
      "name": "setEnterpriseVault",
      "outputs": [],
      "stateMutability": "nonpayable",
      "type": "function"
    },
    {
      "inputs": [
        {
          "internalType": "uint16",
          "name": "newGcFeePercent",
          "type": "uint16"
        }
      ],
      "name": "setGcFeePercent",
      "outputs": [],
      "stateMutability": "nonpayable",
      "type": "function"
    },
    {
      "inputs": [
        {
          "internalType": "uint32",
          "name": "interestGapHalvingPeriod",
          "type": "uint32"
        }
      ],
      "name": "setInterestGapHalvingPeriod",
      "outputs": [],
      "stateMutability": "nonpayable",
      "type": "function"
    },
    {
      "inputs": [],
      "name": "shutdownEnterpriseForever",
      "outputs": [],
      "stateMutability": "nonpayable",
      "type": "function"
    },
    {
      "inputs": [
        {
          "internalType": "address",
          "name": "newOwner",
          "type": "address"
        }
      ],
      "name": "transferOwnership",
      "outputs": [],
      "stateMutability": "nonpayable",
      "type": "function"
    },
    {
      "inputs": [
        {
          "internalType": "address",
          "name": "implementation",
          "type": "address"
        }
      ],
      "name": "upgradeBorrowToken",
      "outputs": [],
      "stateMutability": "nonpayable",
      "type": "function"
    },
    {
      "inputs": [
        {
          "internalType": "address",
          "name": "implementation",
          "type": "address"
        }
      ],
      "name": "upgradeEnterprise",
      "outputs": [],
      "stateMutability": "nonpayable",
      "type": "function"
    },
    {
      "inputs": [
        {
          "internalType": "address",
          "name": "implementation",
          "type": "address"
        }
      ],
      "name": "upgradeInterestToken",
      "outputs": [],
      "stateMutability": "nonpayable",
      "type": "function"
    },
    {
      "inputs": [
        {
          "internalType": "contract PowerToken",
          "name": "powerToken",
          "type": "address"
        },
        {
          "internalType": "address",
          "name": "implementation",
          "type": "address"
        }
      ],
      "name": "upgradePowerToken",
      "outputs": [],
      "stateMutability": "nonpayable",
      "type": "function"
    },
    {
      "inputs": [
        {
          "internalType": "uint256",
          "name": "interestTokenId",
          "type": "uint256"
        }
      ],
      "name": "withdrawInterest",
      "outputs": [],
      "stateMutability": "nonpayable",
      "type": "function"
    }
  ],
  "bytecode": "0x608060405234801561001057600080fd5b50615baf80620000216000396000f3fe608060405234801561001057600080fd5b50600436106102925760003560e01c8062ca339b146102975780630714012c146102ac57806308669aab146102d55780630cac36b2146102e85780630e101b60146102fd5780630ea1dc9e1461031d5780632261b07f1461032e578063229304dc1461033f5780632b2f6095146103605780632e365ade146103735780632fb2067f146103865780633513e0dc146103a9578063449497ec146103bc5780634741efb3146103cf57806349bd4e89146103d7578063512a53bc146103ea57806351c6590a146103fd57806359bf5d39146104105780635a4598df146104185780635a9b0b891461043657806362c1f38814610456578063644e44df146104695780636815f3371461047a578063696f9c811461048d5780637791c42d146104a05780637b024363146104b15780638188d50d146104c457806389035b61146104d95780638b3240a0146105055780638c0114b01461050d5780638da5cb5b1461052057806390f55edd146105285780639339ea691461053b5780639ab711931461054e5780639c7aa7f8146105615780639c8f9f2314610574578063a0bcfc7f14610587578063a0efd1181461059a578063a554b26d146105af578063aebb5041146105c0578063b19337a4146105c8578063b406bf6d146105db578063b56de97e146105fc578063b96266fa1461060f578063bfd84fb414610624578063c1fc16d814610637578063c22947841461064a578063c4d66de81461065d578063c93d0b9214610670578063df57f2fa14610681578063e1a5fa49146106b6578063e9126154146106c9578063ef1f9f39146106dc578063f2fde38b146106ef578063faac38ef14610702578063fbac9a551461071d578063fcb2884e14610743575b600080fd5b6102aa6102a5366004614f48565b61074b565b005b6102bf6102ba36600461526c565b611052565b6040516102cc919061560c565b60405180910390f35b6102aa6102e336600461526c565b6111a7565b6102f061134b565b6040516102cc9190615521565b61031061030b36600461526c565b6113dd565b6040516102cc91906153ce565b6001546001600160a01b0316610310565b6004546001600160a01b0316610310565b61035261034d366004614eef565b61141b565b6040519081526020016102cc565b6102aa61036e366004614dd9565b611544565b6102aa610381366004615302565b611600565b610399610394366004614dd9565b6116e2565b60405190151581526020016102cc565b6102aa6103b73660046152e1565b611705565b6102aa6103ca366004615234565b611812565b6102aa61189c565b6102aa6103e53660046152e1565b611996565b6102aa6103f8366004614e11565b611bc0565b6102aa61040b36600461526c565b611e47565b610352611fc5565b600354600160a01b900463ffffffff165b6040516102cc91906156b1565b61043e611fea565b6040516102cc9c9b9a99989796959493929190615534565b6102aa610464366004614dd9565b6121ad565b6000546001600160a01b0316610310565b6102aa61048836600461505a565b612273565b6102aa61049b3660046152e1565b61259f565b6006546001600160a01b0316610310565b6102aa6104bf366004614dd9565b61273f565b600654600160a01b900463ffffffff16610429565b6103996104e7366004614dd9565b6001600160a01b031660009081526013602052604090205460ff1690565b6103106127c6565b6102aa61051b36600461529c565b6127e7565b610310612e13565b6102aa610536366004614dd9565b612e29565b61035261054936600461526c565b612eef565b6102aa61055c36600461510c565b612f34565b6102aa61056f366004614dd9565b6133ef565b6102aa61058236600461526c565b613535565b6102aa610595366004614fa9565b613770565b600654600160c01b900463ffffffff16610429565b6005546001600160a01b0316610310565b6103526137e8565b6102aa6105d6366004614dd9565b6137ff565b600654600160e01b900461ffff1660405161ffff90911681526020016102cc565b6102aa61060a366004615302565b6138c5565b61061761399b565b6040516102cc9190615438565b6102aa610632366004614dd9565b6139fc565b6102aa610645366004614dd9565b613a92565b6102aa610658366004614eb7565b613b13565b6102aa61066b366004614dd9565b613c20565b6002546001600160a01b0316610310565b61069461068f36600461526c565b613cf5565b60408051825181526020808401519082015291810151908201526060016102cc565b6102aa6106c4366004615302565b613dcf565b6102aa6106d736600461526c565b613e95565b6102aa6106ea366004614e6d565b614153565b6102aa6106fd366004614dd9565b6141e2565b600e54600d54604080519283526020830191909152016102cc565b61073061072b366004614dd9565b6142d3565b60405160019190910b81526020016102cc565b600a54610352565b600354604080518082019091526002815261373560f01b602082015290600160c01b900460ff16156107995760405162461bcd60e51b81526004016107909190615521565b60405180910390fd5b506001600160a01b03851660009081526013602090815260409182902054825180840190935260018352601b60f91b9183019190915260ff166107ef5760405162461bcd60e51b81526004016107909190615521565b506107f9846116e2565b604051806040016040528060028152602001610d0d60f21b815250906108325760405162461bcd60e51b81526004016107909190615521565b50604051636e4d898360e01b81526001600160a01b03861690636e4d89839061085f9085906004016156b1565b60206040518083038186803b15801561087757600080fd5b505afa15801561088b573d6000803e3d6000fd5b505050506040513d601f19601f820116820180604052508101906108af9190614e51565b60405180604001604052806002815260200161343560f01b815250906108e85760405162461bcd60e51b81526004016107909190615521565b506040805180820190915260028152611b9b60f11b60208201526001600160701b0384166109295760405162461bcd60e51b81526004016107909190615521565b506109326137e8565b836001600160701b03161115604051806040016040528060028152602001611a1b60f11b815250906109775760405162461bcd60e51b81526004016107909190615521565b50600080600080886001600160a01b0316639d5513d78989896040518463ffffffff1660e01b81526004016109ae93929190615485565b60606040518083038186803b1580156109c657600080fd5b505afa1580156109da573d6000803e3d6000fd5b505050506040513d601f19601f820116820180604052508101906109fe91906151f3565b955090935091508390506000610a148385615719565b6001600160701b0316905085856001600160701b031682610a359190615744565b111560405180604001604052806002815260200161343760f01b81525090610a705760405162461bcd60e51b81526004016107909190615521565b50610a866001600160a01b038a16333084614300565b60005481906001600160a01b038b8116911614610bcf576004805460405163095ea7b360e01b81526001600160a01b03808e169363095ea7b393610acf9392169187910161541f565b602060405180830381600087803b158015610ae957600080fd5b505af1158015610afd573d6000803e3d6000fd5b505050506040513d601f19601f82011682018060405250810190610b219190614e51565b50600460009054906101000a90046001600160a01b03166001600160a01b031663029b465d8b8460008054906101000a90046001600160a01b03166040518463ffffffff1660e01b8152600401610b7a939291906154b5565b602060405180830381600087803b158015610b9457600080fd5b505af1158015610ba8573d6000803e3d6000fd5b505050506040513d601f19601f82011682018060405250810190610bcc9190615284565b90505b600082610be5836001600160701b03881661579b565b610bef919061577b565b600654600054919250610c0f916001600160a01b03908116911683614371565b896001600160701b0316600a6000828254610c2a9190615744565b9091555060009050610c3c8284615827565b9050610c4781614390565b5050600254610c7495506001600160a01b038b81169550339450169150506001600160701b038516614300565b426000610c81858361575c565b90506000600260009054906101000a90046001600160a01b03166001600160a01b031663caa0f92a6040518163ffffffff1660e01b8152600401602060405180830381600087803b158015610cd557600080fd5b505af1158015610ce9573d6000803e3d6000fd5b505050506040513d601f19601f82011682018060405250810190610d0d9190615284565b9050604051806101000160405280886001600160701b031681526020018a6001600160a01b03166381045ead6040518163ffffffff1660e01b815260040160206040518083038186803b158015610d6357600080fd5b505afa158015610d77573d6000803e3d6000fd5b505050506040513d601f19601f82011682018060405250810190610d9b9190615250565b61ffff16815263ffffffff80861660208301528481166040830152600654606090920191610dd291600160a01b909104168561575c565b63ffffffff168152602001600660189054906101000a900463ffffffff1684610dfb919061575c565b63ffffffff168152602001856001600160701b03168152602001610e1e8a6142d3565b61ffff9081169091526000838152601160209081526040918290208451815492860151868501516060880151608089015160a08a01516001600160701b039586166001600160801b031998891617600160701b958b16860217600160801b600160c01b031916600160801b63ffffffff9586160263ffffffff60a01b191617600160a01b93851693909302929092176001600160c01b0316600160c01b918416919091026001600160e01b031617600160e01b929091169190910217835560c08701516001909301805460e0909801519390921696909316959095179316029190911790915560025490516335313c2160e11b815282916001600160a01b031690636a62784290610f339033906004016153ce565b602060405180830381600087803b158015610f4d57600080fd5b505af1158015610f61573d6000803e3d6000fd5b505050506040513d601f19601f82011682018060405250810190610f859190615284565b14610fa057634e487b7160e01b600052600160045260246000fd5b60405163f8642f2960e01b8152600481018290526001600160a01b038a169063f8642f2990602401600060405180830381600087803b158015610fe257600080fd5b505af1158015610ff6573d6000803e3d6000fd5b50506040518392506001600160a01b038c16915060008051602061595a83398151915290600090a3600080516020615b3a833981519152600a5460405161103f91815260200190565b60405180910390a1505050505050505050565b6040805161010081018252600080825260208201819052818301819052606082018190526080820181905260a0820181905260c0820181905260e082015260025491516331a9108f60e11b81526004810184905290916001600160a01b031690636352211e9060240160206040518083038186803b1580156110d357600080fd5b505afa1580156110e7573d6000803e3d6000fd5b505050506040513d601f19601f8201168201806040525081019061110b9190614df5565b505060009081526011602090815260409182902082516101008101845281546001600160701b038082168352600160701b80830461ffff90811696850196909652600160801b830463ffffffff90811697850197909752600160a01b830487166060850152600160c01b830487166080850152600160e01b90920490951660a083015260019092015493841660c082015292041660e082015290565b6001546040516331a9108f60e11b815260048101839052829133916001600160a01b0390911690636352211e9060240160206040518083038186803b1580156111ef57600080fd5b505afa158015611203573d6000803e3d6000fd5b505050506040513d601f19601f820116820180604052508101906112279190614df5565b6001600160a01b031614604051806040016040528060018152602001603360f81b815250906112695760405162461bcd60e51b81526004016107909190615521565b5060008281526012602052604081206001810154909161128885612eef565b90506112926137e8565b811115604051806040016040528060028152602001611a1b60f11b815250906112ce5760405162461bcd60e51b81526004016107909190615521565b506000546112e6906001600160a01b03163383614371565b60006112f58460000154614442565b60018501819055905061131061130b8285615827565b614464565b611319826144ae565b60008660008051602061599a8339815191528460405161133b91815260200190565b60405180910390a3505050505050565b60606010805461135a9061586a565b80601f01602080910402602001604051908101604052809291908181526020018280546113869061586a565b80156113d35780601f106113a8576101008083540402835291602001916113d3565b820191906000526020600020905b8154815290600101906020018083116113b657829003601f168201915b5050505050905090565b60006008828154811061140057634e487b7160e01b600052603260045260246000fd5b6000918252602090912001546001600160a01b031692915050565b600354604080518082019091526002815261373560f01b6020820152600091600160c01b900460ff16156114625760405162461bcd60e51b81526004016107909190615521565b506001600160a01b03851660009081526013602090815260409182902054825180840190935260018352601b60f91b9183019190915260ff166114b85760405162461bcd60e51b81526004016107909190615521565b50604051631466370160e01b81526001600160a01b038616906314663701906114e990879087908790600401615485565b60206040518083038186803b15801561150157600080fd5b505afa158015611515573d6000803e3d6000fd5b505050506040513d601f19601f820116820180604052508101906115399190615284565b90505b949350505050565b3361154d612e13565b6001600160a01b031614604051806040016040528060018152602001603360f81b8152509061158f5760405162461bcd60e51b81526004016107909190615521565b506115986127c6565b60015460405163266a23b160e21b81526001600160a01b03928316926399a88ec4926115cb9291169085906004016154d8565b600060405180830381600087803b1580156115e557600080fd5b505af11580156115f9573d6000803e3d6000fd5b5050505050565b33611609612e13565b6001600160a01b031614604051806040016040528060018152602001603360f81b8152509061164b5760405162461bcd60e51b81526004016107909190615521565b506006546040805180820190915260028152610d8d60f21b60208201529063ffffffff600160c01b9091048116908316111561169a5760405162461bcd60e51b81526004016107909190615521565b506006805463ffffffff60a01b1916600160a01b63ffffffff841602179055604051600080516020615ada833981519152906116d79083906156b1565b60405180910390a150565b6001600160a01b0316600090815260076020526040812054600190810b900b1390565b3361170e612e13565b6001600160a01b031614604051806040016040528060018152602001603360f81b815250906117505760405162461bcd60e51b81526004016107909190615521565b50611760600a600360401b61577b565b82111560405180604001604052806002815260200161373760f01b8152509061179c5760405162461bcd60e51b81526004016107909190615521565b5060408051808201909152600281526106e760f31b6020820152600160401b8211156117db5760405162461bcd60e51b81526004016107909190615521565b50600e829055600d81905560408051838152602081018390526000805160206159da83398151915291015b60405180910390a15050565b3361181b612e13565b6001600160a01b031614604051806040016040528060018152602001603360f81b8152509061185d5760405162461bcd60e51b81526004016107909190615521565b506006805461ffff60e01b1916600160e01b61ffff841690810291909117909155604051908152600080516020615a1a833981519152906020016116d7565b600354604080518082019091526002815261373560f01b602082015290600160c01b900460ff16156118e15760405162461bcd60e51b81526004016107909190615521565b50336118eb612e13565b6001600160a01b031614604051806040016040528060018152602001603360f81b8152509061192d5760405162461bcd60e51b81526004016107909190615521565b5060038054600160c01b60ff60c01b199091161790556000600a819055600b8054600160701b81046001600160701b03166001600160701b03199091161790556040517f6f6348718c9a361558c634b516777b2b06bb2bf4140ad3d3bfaa44270fc2c0729190a1565b6001546040516331a9108f60e11b815260048101849052839133916001600160a01b0390911690636352211e9060240160206040518083038186803b1580156119de57600080fd5b505afa1580156119f2573d6000803e3d6000fd5b505050506040513d601f19601f82011682018060405250810190611a169190614df5565b6001600160a01b031614604051806040016040528060018152602001603360f81b81525090611a585760405162461bcd60e51b81526004016107909190615521565b5060006012600085815260200190815260200160002090504381600201541060405180604001604052806002815260200161035360f41b81525090611ab05760405162461bcd60e51b81526004016107909190615521565b5080546040805180820190915260028152611a1b60f11b602082015290841115611aed5760405162461bcd60e51b81526004016107909190615521565b50611af66137e8565b831115604051806040016040528060028152602001611a1b60f11b81525090611b325760405162461bcd60e51b81526004016107909190615521565b50600054611b4a906001600160a01b03163385614371565b6000611b5584614442565b90508160010154811115611b6a575060018101545b600182018054829003905581548490038255611b8581614464565b611b8e846144ae565b60045b8560008051602061599a83398151915286604051611bb191815260200190565b60405180910390a35050505050565b600280546040805180820190915291825261333960f01b60208301526001600160a01b03163314611c045760405162461bcd60e51b81526004016107909190615521565b506000818152601160209081526040918290205482518084019093526002835261068760f31b918301919091526001600160701b03169081611c595760405162461bcd60e51b81526004016107909190615521565b5060008281526011602052604081205460148054600160a01b830463ffffffff164211936001600160a01b03898116159490891615939192600160701b90910461ffff16908110611cba57634e487b7160e01b600052603260045260246000fd5b6000918252602090912001546001600160a01b031690508115611d3c5760405163079cc67960e41b81526001600160a01b038216906379cc679090611d05908b9089906004016153fd565b600060405180830381600087803b158015611d1f57600080fd5b505af1158015611d33573d6000803e3d6000fd5b50505050611e3d565b8215611d70576040516340c10f1960e01b81526001600160a01b038216906340c10f1990611d05908a9089906004016153fd565b83611e0d576040516333bebb7760e01b81526001600160a01b03898116600483015288811660248301526001600160701b03871660448301528216906333bebb7790606401602060405180830381600087803b158015611dcf57600080fd5b505af1158015611de3573d6000803e3d6000fd5b505050506040513d601f19601f82011682018060405250810190611e079190614e51565b50611e3d565b60408051808201825260028152611a9960f11b6020820152905162461bcd60e51b81526107909190600401615521565b5050505050505050565b600354604080518082019091526002815261373560f01b602082015290600160c01b900460ff1615611e8c5760405162461bcd60e51b81526004016107909190615521565b50600054611ea5906001600160a01b0316333084614300565b6000600c54600014611ebf57611eba82614442565b611ec1565b815b9050611ecc82614519565b6001546040516335313c2160e11b81526000916001600160a01b031690636a62784290611efd9033906004016153ce565b602060405180830381600087803b158015611f1757600080fd5b505af1158015611f2b573d6000803e3d6000fd5b505050506040513d601f19601f82011682018060405250810190611f4f9190615284565b6040805160608101825285815260208082018681524383850190815260008681526012909352939091209151825551600182015590516002909101559050611f9682614551565b60018160008051602061599a83398151915285604051611fb891815260200190565b60405180910390a3505050565b6000611fcf614563565b6001600160701b0316600954611fe59190615744565b905090565b600c54600354600654600954600a54600b54600f805460609788976000978897889788978897889788978897889788979496601096939563ffffffff600160a01b94859004811696948404811695600160c01b850482169561ffff600160e01b9687900416959394936001600160701b0380841694600160701b8504909116939190910416908c9061207b9061586a565b80601f01602080910402602001604051908101604052809291908181526020018280546120a79061586a565b80156120f45780601f106120c9576101008083540402835291602001916120f4565b820191906000526020600020905b8154815290600101906020018083116120d757829003601f168201915b50505050509b508a80546121079061586a565b80601f01602080910402602001604051908101604052809291908181526020018280546121339061586a565b80156121805780601f1061215557610100808354040283529160200191612180565b820191906000526020600020905b81548152906001019060200180831161216357829003601f168201915b50505050509a509b509b509b509b509b509b509b509b509b509b509b509b50909192939495969798999a9b565b336121b6612e13565b6001600160a01b031614604051806040016040528060018152602001603360f81b815250906121f85760405162461bcd60e51b81526004016107909190615521565b50604080518082019091526002815261363160f01b60208201526001600160a01b0382166122395760405162461bcd60e51b81526004016107909190615521565b50600580546001600160a01b0319166001600160a01b038316179055604051600080516020615aba833981519152906116d79083906153ce565b600f80546122809061586a565b6040805180820190915260018152601960f91b60208201529150156122b85760405162461bcd60e51b81526004016107909190615521565b506122c281613c20565b816000805160206159fa83398151915280546001600160a01b03929092166001600160a01b03199283161790556003805490911633179055865161230d90600f9060208a0190614bd9565b5061231a60108787614c5d565b5060068054600480546001600160a01b03199081166001600160a01b03888116919091179092556005805492861692909116821790556003805463ffffffff60a01b191661127560a71b179055600165ffff0000000160c01b0319909116600160e01b61ffff8816026001600160c01b03191617176102a360a61b1763ffffffff60c01b19166102a360c71b1790556123b86064600560401b61577b565b600e556123ca600a600360401b61577b565b600d5560405160008051602061593a833981519152906123ed90889088906154f2565b60405180910390a1600654604051600160e01b90910461ffff168152600080516020615a1a8339815191529060200160405180910390a1600454604051600080516020615a5a8339815191529161244f916001600160a01b03909116906153ce565b60405180910390a1600654604051600080516020615a3a83398151915291612482916001600160a01b03909116906153ce565b60405180910390a1600554604051600080516020615aba833981519152916124b5916001600160a01b03909116906153ce565b60405180910390a1600080516020615b1a833981519152600360149054906101000a900463ffffffff166040516124ec91906156b1565b60405180910390a1600080516020615ada833981519152600660149054906101000a900463ffffffff1660405161252391906156b1565b60405180910390a16000805160206159ba833981519152600660189054906101000a900463ffffffff1660405161255a91906156b1565b60405180910390a16000805160206159da833981519152600e54600d5460405161258e929190918252602082015260400190565b60405180910390a150505050505050565b600354604080518082019091526002815261373560f01b602082015290600160c01b900460ff16156125e45760405162461bcd60e51b81526004016107909190615521565b506001546040516331a9108f60e11b815260048101849052839133916001600160a01b0390911690636352211e9060240160206040518083038186803b15801561262d57600080fd5b505afa158015612641573d6000803e3d6000fd5b505050506040513d601f19601f820116820180604052508101906126659190614df5565b6001600160a01b031614604051806040016040528060018152602001603360f81b815250906126a75760405162461bcd60e51b81526004016107909190615521565b506000546126c0906001600160a01b0316333085614300565b6000600c546000146126da576126d583614442565b6126dc565b825b90506126e783614519565b6000848152601260205260408120805490918591839190612709908490615744565b92505081905550818160010160008282546127249190615744565b909155505043600282015561273882614551565b6003611b91565b33612748612e13565b6001600160a01b031614604051806040016040528060018152602001603360f81b8152509061278a5760405162461bcd60e51b81526004016107909190615521565b506127936127c6565b60025460405163266a23b160e21b81526001600160a01b03928316926399a88ec4926115cb9291169085906004016154d8565b60006000805160206159fa8339815191525b546001600160a01b0316919050565b600354604080518082019091526002815261373560f01b602082015290600160c01b900460ff161561282c5760405162461bcd60e51b81526004016107909190615521565b50612836836116e2565b604051806040016040528060028152602001610d0d60f21b8152509061286f5760405162461bcd60e51b81526004016107909190615521565b50600084815260116020908152604091829020805483518085019094526002845261068760f31b9284019290925291906001600160701b03166128c55760405162461bcd60e51b81526004016107909190615521565b50805460148054600092600160701b900461ffff169081106128f757634e487b7160e01b600052603260045260246000fd5b600091825260209091200154604051636e4d898360e01b81526001600160a01b0390911691508190636e4d8983906129339087906004016156b1565b60206040518083038186803b15801561294b57600080fd5b505afa15801561295f573d6000803e3d6000fd5b505050506040513d601f19601f820116820180604052508101906129839190614e51565b60405180604001604052806002815260200161343560f01b815250906129bc5760405162461bcd60e51b81526004016107909190615521565b50815442906129d9908690600160a01b900463ffffffff1661575c565b63ffffffff16101560405180604001604052806002815260200161343960f01b81525090612a1a5760405162461bcd60e51b81526004016107909190615521565b508154600a80546001600160701b0390921691600090612a3b908490615827565b90915550508154604051639d5513d760e01b815260009182916001600160a01b03851691639d5513d791612a81918b916001600160701b03909116908b90600401615485565b60606040518083038186803b158015612a9957600080fd5b505afa158015612aad573d6000803e3d6000fd5b505050506040513d601f19601f82011682018060405250810190612ad191906151f3565b508554600a80546001600160701b03909216909101905590925090506000612af98284615719565b6001600160701b031690508581111560405180604001604052806002815260200161343760f01b81525090612b415760405162461bcd60e51b81526004016107909190615521565b50612b576001600160a01b038916333084614300565b60005481906001600160a01b038a8116911614612c81576004805460405163095ea7b360e01b81526001600160a01b03808d169363095ea7b393612ba09392169187910161541f565b602060405180830381600087803b158015612bba57600080fd5b505af1158015612bce573d6000803e3d6000fd5b505050506040513d601f19601f82011682018060405250810190612bf29190614e51565b506004805460005460405163029b465d60e01b81526001600160a01b039283169363029b465d93612c2c938f9389939190921691016154b5565b602060405180830381600087803b158015612c4657600080fd5b505af1158015612c5a573d6000803e3d6000fd5b505050506040513d601f19601f82011682018060405250810190612c7e9190615284565b90505b600082612c97836001600160701b03871661579b565b612ca1919061577b565b600654600054919250612cc1916001600160a01b03908116911683614371565b6000612ccd8284615827565b9050612cd881614390565b8754612cf2908b90600160a01b900463ffffffff1661575c565b885463ffffffff60a01b1916600160a01b63ffffffff928316810291909117808b55600654612d2b93908390048116929091041661575c565b885463ffffffff60c01b1916600160c01b63ffffffff928316810291909117808b55600654612d6893929004821691600160a01b9091041661575c565b885463ffffffff91909116600160e01b026001600160e01b0390911617885560405163f8642f2960e01b8152600481018d90526001600160a01b0388169063f8642f2990602401600060405180830381600087803b158015612dc957600080fd5b505af1158015612ddd573d6000803e3d6000fd5b50506040518e92506001600160a01b038a16915060008051602061595a83398151915290600090a3505050505050505050505050565b600060008051602061597a8339815191526127d8565b33612e32612e13565b6001600160a01b031614604051806040016040528060018152602001603360f81b81525090612e745760405162461bcd60e51b81526004016107909190615521565b506040805180820190915260028152611b1960f11b60208201526001600160a01b038216612eb55760405162461bcd60e51b81526004016107909190615521565b50600680546001600160a01b0319166001600160a01b038316179055604051600080516020615a3a833981519152906116d79083906153ce565b600081815260126020526040812060018101548290612f0d906145cb565b8254909150811115612f2a578154612f259082615827565b61153c565b6000949350505050565b33612f3d612e13565b6001600160a01b031614604051806040016040528060018152602001603360f81b81525090612f7f5760405162461bcd60e51b81526004016107909190615521565b50600354604080518082019091526002815261373560f01b602082015290600160c01b900460ff1615612fc55760405162461bcd60e51b81526004016107909190615521565b50604080518082019091526002815261034360f41b60208201526001600160a01b0387166130065760405162461bcd60e51b81526004016107909190615521565b50601454604080518082019091526002815261343160f01b60208201529061ffff116130455760405162461bcd60e51b81526004016107909190615521565b506003546000906001600160a01b031663c31011cc6130626127c6565b6040518263ffffffff1660e01b815260040161307e91906153ce565b602060405180830381600087803b15801561309857600080fd5b505af11580156130ac573d6000803e3d6000fd5b505050506040513d601f19601f820116820180604052508101906130d09190614df5565b905060008060009054906101000a90046001600160a01b03166001600160a01b03166395d89b416040518163ffffffff1660e01b815260040160006040518083038186803b15801561312157600080fd5b505afa158015613135573d6000803e3d6000fd5b505050506040513d6000823e601f3d908101601f1916820160405261315d9190810190614fe8565b90506000818c604051602001613174929190615392565b6040516020818303038152906040529050826001600160a01b0316631624f6c68e8360008054906101000a90046001600160a01b03166001600160a01b031663313ce5676040518163ffffffff1660e01b815260040160206040518083038186803b1580156131e257600080fd5b505afa1580156131f6573d6000803e3d6000fd5b505050506040513d601f19601f8201168201806040525081019061321a919061531c565b6040518463ffffffff1660e01b8152600401613238939291906155d3565b600060405180830381600087803b15801561325257600080fd5b505af1158015613266573d6000803e3d6000fd5b505050505050806001600160a01b0316632ef0cf8b308a868d6014805490508d8c8c8f8c6040518b63ffffffff1660e01b81526004016133249a999897969594939291906001600160a01b039a8b1681526001600160701b039990991660208a01526001600160601b0397909716604089015263ffffffff958616606089015261ffff94851660808901529290971660a0870152831660c08601529490911660e0840152929092166101008201529015156101208201526101400190565b600060405180830381600087803b15801561333e57600080fd5b505af1158015613352573d6000803e3d6000fd5b50506014805460018082019092557fce6d7b5282bd9a3661ae061feed1dbda4e52ab073b1f9285be6e155d9c38d4ec0180546001600160a01b0319166001600160a01b038616908117909155600081815260136020526040808220805460ff191690941790935591519093507f2fa31fbaacf5eaf61d648ea7528ada6efb69bfb06d2c3bd35ce511a820fce53e9250a25050505050505050505050565b336133f8612e13565b6001600160a01b031614604051806040016040528060018152602001603360f81b8152509061343a5760405162461bcd60e51b81526004016107909190615521565b506001600160a01b03811660009081526007602090815260409182902054825180840190935260028352611b9960f11b91830191909152600190810b900b6134955760405162461bcd60e51b81526004016107909190615521565b506001600160a01b038116600090815260076020526040812054600190810b900b1315613532576001600160a01b0381166000908152600760205260409020546134e19060010b6158a5565b6001600160a01b038216600090815260076020526040808220805460019490940b61ffff1661ffff19909416939093179092559051600080516020615afa833981519152916116d7918491906153e2565b50565b6001546040516331a9108f60e11b815260048101839052829133916001600160a01b0390911690636352211e9060240160206040518083038186803b15801561357d57600080fd5b505afa158015613591573d6000803e3d6000fd5b505050506040513d601f19601f820116820180604052508101906135b59190614df5565b6001600160a01b031614604051806040016040528060018152602001603360f81b815250906135f75760405162461bcd60e51b81526004016107909190615521565b5060006012600084815260200190815260200160002090504381600201541060405180604001604052806002815260200161035360f41b8152509061364f5760405162461bcd60e51b81526004016107909190615521565b5060018101546000613660826145cb565b905061366a6137e8565b811115604051806040016040528060028152602001611a1b60f11b815250906136a65760405162461bcd60e51b81526004016107909190615521565b50600154604051630852cd8d60e31b8152600481018790526001600160a01b03909116906342966c6890602401600060405180830381600087803b1580156136ed57600080fd5b505af1158015613701573d6000803e3d6000fd5b505060005461371d92506001600160a01b031690503383614371565b61372682614464565b61372f816144ae565b6000858152601260205260408120818155600181018290556002908101919091558560008051602061599a83398151915283604051611bb191815260200190565b33613779612e13565b6001600160a01b031614604051806040016040528060018152602001603360f81b815250906137bb5760405162461bcd60e51b81526004016107909190615521565b506137c860108383614c5d565b5060008051602061593a83398151915282826040516118069291906154f2565b6000600a546137f5611fc5565b611fe59190615827565b33613808612e13565b6001600160a01b031614604051806040016040528060018152602001603360f81b8152509061384a5760405162461bcd60e51b81526004016107909190615521565b50604080518082019091526002815261363360f01b60208201526001600160a01b03821661388b5760405162461bcd60e51b81526004016107909190615521565b50600480546001600160a01b0319166001600160a01b038316179055604051600080516020615a5a833981519152906116d79083906153ce565b336138ce612e13565b6001600160a01b031614604051806040016040528060018152602001603360f81b815250906139105760405162461bcd60e51b81526004016107909190615521565b50600654604080518082019091526002815261363560f01b60208201529063ffffffff808416600160a01b90920416111561395e5760405162461bcd60e51b81526004016107909190615521565b506006805463ffffffff60c01b1916600160c01b63ffffffff8416021790556040516000805160206159ba833981519152906116d79083906156b1565b606060148054806020026020016040519081016040528092919081815260200182805480156113d357602002820191906000526020600020905b81546001600160a01b031681526001909101906020018083116139d5575050505050905090565b33613a05612e13565b6001600160a01b031614604051806040016040528060018152602001603360f81b81525090613a475760405162461bcd60e51b81526004016107909190615521565b50604080518082019091526002815261373160f01b60208201526001600160a01b038216613a885760405162461bcd60e51b81526004016107909190615521565b50613532816145e3565b33613a9b612e13565b6001600160a01b031614604051806040016040528060018152602001603360f81b81525090613add5760405162461bcd60e51b81526004016107909190615521565b50613ae66127c6565b6001600160a01b03166399a88ec430836040518363ffffffff1660e01b81526004016115cb9291906154d8565b33613b1c612e13565b6001600160a01b031614604051806040016040528060018152602001603360f81b81525090613b5e5760405162461bcd60e51b81526004016107909190615521565b506001600160a01b03821660009081526013602090815260409182902054825180840190935260018352601b60f91b9183019190915260ff16613bb45760405162461bcd60e51b81526004016107909190615521565b50613bbd6127c6565b6001600160a01b03166399a88ec483836040518363ffffffff1660e01b8152600401613bea9291906154d8565b600060405180830381600087803b158015613c0457600080fd5b505af1158015613c18573d6000803e3d6000fd5b505050505050565b6000613c2a612e13565b6001600160a01b031614604051806040016040528060018152602001601960f91b81525090613c6c5760405162461bcd60e51b81526004016107909190615521565b50604080518082019091526002815261373360f01b60208201526001600160a01b038216613cad5760405162461bcd60e51b81526004016107909190615521565b5060008051602061597a83398151915280546001600160a01b0319166001600160a01b038316908117909155604051600090600080516020615a9a833981519152908290a350565b613d1960405180606001604052806000815260200160008152602001600081525090565b6001546040516331a9108f60e11b8152600481018490526001600160a01b0390911690636352211e9060240160206040518083038186803b158015613d5d57600080fd5b505afa158015613d71573d6000803e3d6000fd5b505050506040513d601f19601f82011682018060405250810190613d959190614df5565b5050600090815260126020908152604091829020825160608101845281548152600182015492810192909252600201549181019190915290565b33613dd8612e13565b6001600160a01b031614604051806040016040528060018152602001603360f81b81525090613e1a5760405162461bcd60e51b81526004016107909190615521565b506040805180820190915260028152611b1b60f11b602082015263ffffffff8216613e585760405162461bcd60e51b81526004016107909190615521565b506003805463ffffffff60a01b1916600160a01b63ffffffff841602179055604051600080516020615b1a833981519152906116d79083906156b1565b600081815260116020908152604091829020805483518085019094526002845261068760f31b9284019290925291906001600160701b0316613eea5760405162461bcd60e51b81526004016107909190615521565b506002546040516331a9108f60e11b8152600481018490526000916001600160a01b031690636352211e9060240160206040518083038186803b158015613f3057600080fd5b505afa158015613f44573d6000803e3d6000fd5b505050506040513d601f19601f82011682018060405250810190613f689190614df5565b8254909150429063ffffffff808316600160c01b909204161080613f945750336001600160a01b038316145b60405180604001604052806002815260200161353360f01b81525090613fcd5760405162461bcd60e51b81526004016107909190615521565b50825463ffffffff808316600160e01b909204161080613ff55750336001600160a01b038316145b8061400a57506005546001600160a01b031633145b604051806040016040528060028152602001610d4d60f21b815250906140435760405162461bcd60e51b81526004016107909190615521565b50600354600160c01b900460ff1661409f578254600a80546001600160701b0390921691600090614075908490615827565b9091555050600a54604051908152600080516020615b3a8339815191529060200160405180910390a15b600254604051633f34d4cf60e21b8152600481018690523360248201526001600160a01b039091169063fcd3533c90604401600060405180830381600087803b1580156140eb57600080fd5b505af11580156140ff573d6000803e3d6000fd5b50505060008581526011602052604080822082815560010180546001600160801b0319169055518692507f80fadef8be1cf6508244c1bbb67077973d214a1462d3ade2908699c3750cd94b9190a250505050565b6000546040805180820190915260018152601960f91b6020820152906001600160a01b0316156141965760405162461bcd60e51b81526004016107909190615521565b50600080546001600160a01b038086166001600160a01b0319928316179092556001805485841690831617905560028054928416929091169190911790556141dd836145e3565b505050565b336141eb612e13565b6001600160a01b031614604051806040016040528060018152602001603360f81b8152509061422d5760405162461bcd60e51b81526004016107909190615521565b50604080518082019091526002815261373360f01b60208201526001600160a01b03821661426e5760405162461bcd60e51b81526004016107909190615521565b50806001600160a01b0316614281612e13565b6001600160a01b0316600080516020615a9a83398151915260405160405180910390a360008051602061597a83398151915280546001600160a01b0319166001600160a01b0392909216919091179055565b6001600160a01b0381166000908152600760205260408120546142fa90600190810b6157ba565b92915050565b6040516001600160a01b038085166024830152831660448201526064810182905261436b9085906323b872dd60e01b906084015b60408051601f198184030181529190526020810180516001600160e01b03166001600160e01b03199093169290921790915261472e565b50505050565b6141dd8363a9059cbb60e01b848460405160240161433492919061541f565b614398614563565b600b80546001600160701b0319166001600160701b03928316178082558392600e916143cd918591600160701b900416615719565b82546001600160701b039182166101009390930a928302928202191691909117909155600b805463ffffffff4216600160e01b026001600160e01b038216811792839055604051600080516020615a7a83398151915295506116d7949182169282169290921792600160701b90041690615697565b600061444c611fc5565b82600c5461445a919061579b565b6142fa919061577b565b80600c60008282546144769190615827565b9091555050600c546040519081527ff75b433a747ade2e089a9382669e86292bab6b6218af81254ef18440992bb264906020016116d7565b80600954106144c5576009805482900390556144f8565b60006144cf614800565b6001600160701b0316905081816009546144e99190615744565b6144f39190615827565b600955505b600080516020615b5a8339815191526009546040516116d791815260200190565b806009600082825461452b9190615744565b9091555050600954604051908152600080516020615b5a833981519152906020016116d7565b80600c60008282546144769190615744565b600b546000906145ae9063ffffffff600160e01b82041690614598906001600160701b0380821691600160701b9004166157ff565b600354600160a01b900463ffffffff16426148be565b600b54611fe59190600160701b90046001600160701b03166157ff565b6000600c54826145d9611fc5565b61445a919061579b565b6001600160a01b038116600090815260076020526040902054600190810b900b6146995760088054600181810183557ff3f7a9fe364faab93b216da50a3214154f22a0a2b415b23a84c8169e8b636ee390910180546001600160a01b0385166001600160a01b03199091168117909155915460009283526007602052604092839020805491830b61ffff1661ffff199092169190911790559051600080516020615afa833981519152916116d7918491906153e2565b6001600160a01b038116600090815260076020526040812054600190810b900b1215613532576001600160a01b0381166000908152600760205260409020546146e49060010b6158a5565b6001600160a01b03821660009081526007602052604090819020805461ffff191661ffff600194850b1617905551600080516020615afa833981519152916116d7918491906153e2565b6000614783826040518060400160405280602081526020017f5361666545524332303a206c6f772d6c6576656c2063616c6c206661696c6564815250856001600160a01b0316614a5f9092919063ffffffff16565b8051909150156141dd57808060200190518101906147a19190614e51565b6141dd5760405162461bcd60e51b815260206004820152602a60248201527f5361666545524332303a204552433230206f7065726174696f6e20646964206e6044820152691bdd081cdd58d8d9595960b21b6064820152608401610790565b600061480a614563565b600b80546001600160701b0319168082559192508291600e9061483e908490600160701b90046001600160701b03166157ff565b82546001600160701b039182166101009390930a928302928202191691909117909155600b805463ffffffff4216600160e01b026001600160e01b038216811792839055604051600080516020615a7a83398151915295506148b3949182169282169290921792600160701b90041690615697565b60405180910390a190565b60008463ffffffff168263ffffffff161015604051806040016040528060018152602001600760fb1b815250906149085760405162461bcd60e51b81526004016107909190615521565b5084820391508263ffffffff168263ffffffff168161493757634e487b7160e01b600052601260045260246000fd5b0463ffffffff16846001600160701b0316901c93508263ffffffff168263ffffffff168161497557634e487b7160e01b600052601260045260246000fd5b06915063ffffffff8216158061499257506001600160701b038416155b1561499e57508261153c565b60006001600160701b0385168163ffffffff86811690861671b17217f7d1cf79abc9e3b39803f2f6af40f302816149e557634e487b7160e01b600052601260045260246000fd5b049050600160901b5b8215614a5257928201928082840281614a1757634e487b7160e01b600052601260045260246000fd5b0493849003939250600160901b018082840281614a4457634e487b7160e01b600052601260045260246000fd5b049250600160901b016149ee565b5091979650505050505050565b6060614a6e8484600085614a78565b90505b9392505050565b606082471015614ad95760405162461bcd60e51b815260206004820152602660248201527f416464726573733a20696e73756666696369656e742062616c616e636520666f6044820152651c8818d85b1b60d21b6064820152608401610790565b843b614b275760405162461bcd60e51b815260206004820152601d60248201527f416464726573733a2063616c6c20746f206e6f6e2d636f6e74726163740000006044820152606401610790565b600080866001600160a01b03168587604051614b439190615376565b60006040518083038185875af1925050503d8060008114614b80576040519150601f19603f3d011682016040523d82523d6000602084013e614b85565b606091505b5091509150614b95828286614ba0565b979650505050505050565b60608315614baf575081614a71565b825115614bbf5782518084602001fd5b8160405162461bcd60e51b81526004016107909190615521565b828054614be59061586a565b90600052602060002090601f016020900481019282614c075760008555614c4d565b82601f10614c2057805160ff1916838001178555614c4d565b82800160010185558215614c4d579182015b82811115614c4d578251825591602001919060010190614c32565b50614c59929150614cd1565b5090565b828054614c699061586a565b90600052602060002090601f016020900481019282614c8b5760008555614c4d565b82601f10614ca45782800160ff19823516178555614c4d565b82800160010185558215614c4d579182015b82811115614c4d578235825591602001919060010190614cb6565b5b80821115614c595760008155600101614cd2565b8035614cf181615906565b919050565b8035614cf1816158f1565b60008083601f840112614d12578182fd5b5081356001600160401b03811115614d28578182fd5b602083019150836020828501011115614d4057600080fd5b9250929050565b600082601f830112614d57578081fd5b8135614d6a614d65826156f2565b6156c2565b818152846020838601011115614d7e578283fd5b816020850160208301379081016020019190915292915050565b8035614cf181615914565b8035614cf181615929565b803563ffffffff81168114614cf157600080fd5b80356001600160601b0381168114614cf157600080fd5b600060208284031215614dea578081fd5b8135614a71816158f1565b600060208284031215614e06578081fd5b8151614a71816158f1565b600080600060608486031215614e25578182fd5b8335614e30816158f1565b92506020840135614e40816158f1565b929592945050506040919091013590565b600060208284031215614e62578081fd5b8151614a7181615906565b600080600060608486031215614e81578081fd5b8335614e8c816158f1565b92506020840135614e9c816158f1565b91506040840135614eac816158f1565b809150509250925092565b60008060408385031215614ec9578182fd5b8235614ed4816158f1565b91506020830135614ee4816158f1565b809150509250929050565b60008060008060808587031215614f04578182fd5b8435614f0f816158f1565b93506020850135614f1f816158f1565b92506040850135614f2f81615914565b9150614f3d60608601614dae565b905092959194509250565b600080600080600060a08688031215614f5f578283fd5b8535614f6a816158f1565b94506020860135614f7a816158f1565b93506040860135614f8a81615914565b9250614f9860608701614dae565b949793965091946080013592915050565b60008060208385031215614fbb578182fd5b82356001600160401b03811115614fd0578283fd5b614fdc85828601614d01565b90969095509350505050565b600060208284031215614ff9578081fd5b81516001600160401b0381111561500e578182fd5b8201601f8101841361501e578182fd5b805161502c614d65826156f2565b818152856020838501011115615040578384fd5b61505182602083016020860161583e565b95945050505050565b600080600080600080600060c0888a031215615074578485fd5b87356001600160401b038082111561508a578687fd5b6150968b838c01614d47565b985060208a01359150808211156150ab578687fd5b506150b88a828b01614d01565b90975095505060408801356150cc81615929565b935060608801356150dc816158f1565b925060808801356150ec816158f1565b915060a08801356150fc816158f1565b8091505092959891949750929550565b6000806000806000806000806000806101408b8d03121561512b578384fd5b8a356001600160401b0380821115615141578586fd5b61514d8e838f01614d47565b9b5060208d0135915080821115615162578586fd5b5061516f8d828e01614d47565b99505061517e60408c01614dae565b975061518c60608c01614d98565b965061519a60808c01614cf6565b95506151a860a08c01614da3565b94506151b660c08c01614dae565b93506151c460e08c01614dae565b92506151d36101008c01614dc2565b91506151e26101208c01614ce6565b90509295989b9194979a5092959850565b600080600060608486031215615207578081fd5b835161521281615914565b602085015190935061522381615914565b6040850151909250614eac81615914565b600060208284031215615245578081fd5b8135614a7181615929565b600060208284031215615261578081fd5b8151614a7181615929565b60006020828403121561527d578081fd5b5035919050565b600060208284031215615295578081fd5b5051919050565b600080600080608085870312156152b1578182fd5b8435935060208501356152c3816158f1565b92506152d160408601614dae565b9396929550929360600135925050565b600080604083850312156152f3578182fd5b50508035926020909101359150565b600060208284031215615313578081fd5b614a7182614dae565b60006020828403121561532d578081fd5b815160ff81168114614a71578182fd5b6000815180845261535581602086016020860161583e565b601f01601f19169290920160200192915050565b6001600160701b03169052565b6000825161538881846020870161583e565b9190910192915050565b600083516153a481846020880161583e565b600160fd1b90830190815283516153c281600184016020880161583e565b01600101949350505050565b6001600160a01b0391909116815260200190565b6001600160a01b039290921682521515602082015260400190565b6001600160a01b039290921682526001600160701b0316602082015260400190565b6001600160a01b03929092168252602082015260400190565b6020808252825182820181905260009190848201906040850190845b818110156154795783516001600160a01b031683529284019291840191600101615454565b50909695505050505050565b6001600160a01b039390931683526001600160701b0391909116602083015263ffffffff16604082015260600190565b6001600160a01b0393841681526020810192909252909116604082015260600190565b6001600160a01b0392831681529116602082015260400190565b60208152816020820152818360408301376000818301604090810191909152601f909201601f19160101919050565b602081526000614a71602083018461533d565b6101808152600061554961018083018f61533d565b828103602084015261555b818f61533d565b9150508b604083015263ffffffff808c166060840152808b166080840152808a1660a08401525061ffff881660c08301528660e0830152856101008301526155a7610120830186615369565b6155b5610140830185615369565b63ffffffff83166101608301529d9c50505050505050505050505050565b6060815260006155e6606083018661533d565b82810360208401526155f8818661533d565b91505060ff83166040830152949350505050565b81516001600160701b0316815260208083015161ffff169082015260408083015163ffffffff9081169183019190915260608084015182169083015260808084015182169083015260a080840151918216908301526101008201905060c083015161567a60c0840182615369565b5060e083015161569060e084018261ffff169052565b5092915050565b6001600160701b0392831681529116602082015260400190565b63ffffffff91909116815260200190565b604051601f8201601f191681016001600160401b03811182821017156156ea576156ea6158db565b604052919050565b60006001600160401b0382111561570b5761570b6158db565b50601f01601f191660200190565b60006001600160701b0382811684821680830382111561573b5761573b6158c5565b01949350505050565b60008219821115615757576157576158c5565b500190565b600063ffffffff80831681851680830382111561573b5761573b6158c5565b60008261579657634e487b7160e01b81526012600452602481fd5b500490565b60008160001904831182151516156157b5576157b56158c5565b500290565b60008160010b8360010b82811281617fff19018312811516156157df576157df6158c5565b81617fff0183138116156157f5576157f56158c5565b5090039392505050565b60006001600160701b038381169083168181101561581f5761581f6158c5565b039392505050565b600082821015615839576158396158c5565b500390565b60005b83811015615859578181015183820152602001615841565b8381111561436b5750506000910152565b600181811c9082168061587e57607f821691505b6020821081141561589f57634e487b7160e01b600052602260045260246000fd5b50919050565b60008160010b617fff198114156158be576158be6158c5565b9003919050565b634e487b7160e01b600052601160045260246000fd5b634e487b7160e01b600052604160045260246000fd5b6001600160a01b038116811461353257600080fd5b801515811461353257600080fd5b6001600160701b038116811461353257600080fd5b61ffff8116811461353257600080fdfe87cdeaffd8e70903d6ce7cc983fac3b09ca79e83818124c98e47a1d70f8027d6ac59582e5396aca512fa873a2047e7f4c80f8f55d4a06cb34a78a0187f62719f4f471908b72bb76dae5bd24599026e7bf3ddb256497722888ffa422f83729ede5fbe47a2294bb165359bd422c05af7405a9f2c0e0f397deef39ade4da37b27647c5a703a1928f0d18042c0454d90ddfe036b518c756a39cd82aca939b71d801b926b69b9f7735227079a308fce165b111b96e2983e70a86a381ee047675ff39fd1248cccb5fef9131c731321e43e9a924840ffee7dc68c7d1d3e5cb7dedcae0327894f6b9c469a3eddbe98dd0df54563b6437b20982876e0c2cd60c211a156460dc14fdd751203f0c4dac8cc93c303e991c5f8e60af35674d5c82061929762ddbefcd50991bb64333037879282220d78a901bb4809351643f56628af8a4656dfc8dfab451067f726e1077626e126c7f77149630cc1b0056cf60307a289a118298be0079c531659141344cd1fd0a4f28419497f9722a3daafe3b4186f6b6457e07aa9698a01d2094fb8a580e2c72a6fc3f3bfecfd4cbdc457461118c59a6fefe4f6ae16e9e9771497fc501d1caac6168e19c36e4639d7273813e3b57066035f2a92a4dc1fa715a8cafb0cdc060f729eb1dfdddcbc9effbdc8d822cdf5ebcf4907971f32e7fcf39ef3d42dd88b6e08b31dd4bd8f53e7299c95b669c82e23807e2f80a06b510f93a5f9143990fd9bd6b2020b17681a30b6420dac3d79b20ce73585a70de76be90dc9c5d9243b0bc73c3d963ba703a0a396f29134bf5b4e6197c180a2646970667358221220fbe8100e6a7c4692daaa17f9579527f8ce5498f05782b57298a53f0b93aa40ff64736f6c63430008040033",
  "linkReferences": {},
  "deployedLinkReferences": {}
}