{
  "_format": "hh-sol-artifact-1",
  "contractName": "Enterprise",
  "sourceName": "contracts/Enterprise.sol",
  "abi": [
    {
      "anonymous": false,
      "inputs": [
        {
          "indexed": true,
          "internalType": "address",
          "name": "powerToken",
          "type": "address"
        },
        {
          "indexed": false,
          "internalType": "uint256",
          "name": "tokenId",
          "type": "uint256"
        },
        {
          "indexed": false,
          "internalType": "uint32",
          "name": "from",
          "type": "uint32"
        },
        {
          "indexed": false,
          "internalType": "uint32",
          "name": "to",
          "type": "uint32"
        }
      ],
      "name": "Borrowed",
      "type": "event"
    },
    {
      "anonymous": false,
      "inputs": [
        {
          "indexed": true,
          "internalType": "address",
          "name": "powerToken",
          "type": "address"
        },
        {
          "indexed": false,
          "internalType": "uint32",
          "name": "halfLife",
          "type": "uint32"
        },
        {
          "indexed": false,
          "internalType": "uint112",
          "name": "factor",
          "type": "uint112"
        }
      ],
      "name": "ServiceRegistered",
      "type": "event"
    },
    {
      "inputs": [
        {
          "internalType": "uint256",
          "name": "liquidityAmount",
          "type": "uint256"
        }
      ],
      "name": "addLiquidity",
      "outputs": [],
      "stateMutability": "nonpayable",
      "type": "function"
    },
    {
      "inputs": [
        {
          "internalType": "contract IPowerToken",
          "name": "powerToken",
          "type": "address"
        },
        {
          "internalType": "contract IERC20",
          "name": "paymentToken",
          "type": "address"
        },
        {
          "internalType": "uint112",
          "name": "amount",
          "type": "uint112"
        },
        {
          "internalType": "uint256",
          "name": "maximumPayment",
          "type": "uint256"
        },
        {
          "internalType": "uint32",
          "name": "duration",
          "type": "uint32"
        }
      ],
      "name": "borrow",
      "outputs": [],
      "stateMutability": "nonpayable",
      "type": "function"
    },
    {
      "inputs": [
        {
          "internalType": "contract IPowerToken",
          "name": "powerToken",
          "type": "address"
        },
        {
          "internalType": "contract IERC20",
          "name": "paymentToken",
          "type": "address"
        },
        {
          "internalType": "uint112",
          "name": "amount",
          "type": "uint112"
        },
        {
          "internalType": "uint32",
          "name": "duration",
          "type": "uint32"
        }
      ],
      "name": "estimateLoan",
      "outputs": [
        {
          "internalType": "uint256",
          "name": "",
          "type": "uint256"
        }
      ],
      "stateMutability": "view",
      "type": "function"
    },
    {
      "inputs": [],
      "name": "getAvailableReserve",
      "outputs": [
        {
          "internalType": "uint256",
          "name": "",
          "type": "uint256"
        }
      ],
      "stateMutability": "view",
      "type": "function"
    },
    {
      "inputs": [],
      "name": "getConfigurator",
      "outputs": [
        {
          "internalType": "contract EnterpriseConfigurator",
          "name": "",
          "type": "address"
        }
      ],
      "stateMutability": "view",
      "type": "function"
    },
    {
      "inputs": [],
      "name": "getInfo",
      "outputs": [
        {
          "internalType": "uint256",
          "name": "reserve",
          "type": "uint256"
        },
        {
          "internalType": "uint256",
          "name": "availableReserve",
          "type": "uint256"
        },
        {
          "internalType": "uint256",
          "name": "totalShares",
          "type": "uint256"
        },
        {
          "internalType": "string",
          "name": "name",
          "type": "string"
        }
      ],
      "stateMutability": "view",
      "type": "function"
    },
    {
      "inputs": [
        {
          "internalType": "uint256",
          "name": "tokenId",
          "type": "uint256"
        }
      ],
      "name": "getLiquidityInfo",
      "outputs": [
        {
          "components": [
            {
              "internalType": "uint256",
              "name": "amount",
              "type": "uint256"
            },
            {
              "internalType": "uint256",
              "name": "shares",
              "type": "uint256"
            },
            {
              "internalType": "uint256",
              "name": "block",
              "type": "uint256"
            }
          ],
          "internalType": "struct IEnterprise.LiquidityInfo",
          "name": "",
          "type": "tuple"
        }
      ],
      "stateMutability": "view",
      "type": "function"
    },
    {
      "inputs": [
        {
          "internalType": "uint256",
          "name": "tokenId",
          "type": "uint256"
        }
      ],
      "name": "getLoanInfo",
      "outputs": [
        {
          "components": [
            {
              "internalType": "uint112",
              "name": "amount",
              "type": "uint112"
            },
            {
              "internalType": "uint16",
              "name": "powerTokenIndex",
              "type": "uint16"
            },
            {
              "internalType": "uint32",
              "name": "borrowingTime",
              "type": "uint32"
            },
            {
              "internalType": "uint32",
              "name": "maturityTime",
              "type": "uint32"
            },
            {
              "internalType": "uint32",
              "name": "borrowerReturnGraceTime",
              "type": "uint32"
            },
            {
              "internalType": "uint32",
              "name": "enterpriseCollectGraceTime",
              "type": "uint32"
            },
            {
              "internalType": "uint112",
              "name": "gcFee",
              "type": "uint112"
            },
            {
              "internalType": "uint16",
              "name": "gcFeeTokenIndex",
              "type": "uint16"
            }
          ],
          "internalType": "struct IEnterprise.LoanInfo",
          "name": "",
          "type": "tuple"
        }
      ],
      "stateMutability": "view",
      "type": "function"
    },
    {
      "inputs": [
        {
          "internalType": "uint256",
          "name": "tokenId",
          "type": "uint256"
        }
      ],
      "name": "getOwedInterest",
      "outputs": [
        {
          "internalType": "uint256",
          "name": "",
          "type": "uint256"
        }
      ],
      "stateMutability": "view",
      "type": "function"
    },
    {
      "inputs": [
        {
          "internalType": "uint256",
          "name": "index",
          "type": "uint256"
        }
      ],
      "name": "getPowerToken",
      "outputs": [
        {
          "internalType": "contract IPowerToken",
          "name": "",
          "type": "address"
        }
      ],
      "stateMutability": "view",
      "type": "function"
    },
    {
      "inputs": [
        {
          "internalType": "contract IPowerToken",
          "name": "powerToken",
          "type": "address"
        }
      ],
      "name": "getPowerTokenIndex",
      "outputs": [
        {
          "internalType": "int256",
          "name": "",
          "type": "int256"
        }
      ],
      "stateMutability": "view",
      "type": "function"
    },
    {
      "inputs": [],
      "name": "getPowerTokens",
      "outputs": [
        {
          "internalType": "contract IPowerToken[]",
          "name": "",
          "type": "address[]"
        }
      ],
      "stateMutability": "view",
      "type": "function"
    },
    {
      "inputs": [],
      "name": "getPowerTokensInfo",
      "outputs": [
        {
          "internalType": "address[]",
          "name": "addresses",
          "type": "address[]"
        },
        {
          "internalType": "string[]",
          "name": "names",
          "type": "string[]"
        },
        {
          "internalType": "string[]",
          "name": "symbols",
          "type": "string[]"
        },
        {
          "internalType": "uint32[]",
          "name": "halfLifes",
          "type": "uint32[]"
        }
      ],
      "stateMutability": "view",
      "type": "function"
    },
    {
      "inputs": [],
      "name": "getReserve",
      "outputs": [
        {
          "internalType": "uint256",
          "name": "",
          "type": "uint256"
        }
      ],
      "stateMutability": "view",
      "type": "function"
    },
    {
      "inputs": [
        {
          "internalType": "string",
          "name": "enterpriseName",
          "type": "string"
        },
        {
          "internalType": "contract EnterpriseConfigurator",
          "name": "configurator",
          "type": "address"
        }
      ],
      "name": "initialize",
      "outputs": [],
      "stateMutability": "nonpayable",
      "type": "function"
    },
    {
      "inputs": [
        {
          "internalType": "contract IPowerToken",
          "name": "powerToken",
          "type": "address"
        }
      ],
      "name": "isRegisteredPowerToken",
      "outputs": [
        {
          "internalType": "bool",
          "name": "",
          "type": "bool"
        }
      ],
      "stateMutability": "view",
      "type": "function"
    },
    {
      "inputs": [
        {
          "internalType": "address",
          "name": "from",
          "type": "address"
        },
        {
          "internalType": "address",
          "name": "to",
          "type": "address"
        },
        {
          "internalType": "uint256",
          "name": "tokenId",
          "type": "uint256"
        }
      ],
      "name": "loanTransfer",
      "outputs": [],
      "stateMutability": "nonpayable",
      "type": "function"
    },
    {
      "inputs": [],
      "name": "owner",
      "outputs": [
        {
          "internalType": "address",
          "name": "",
          "type": "address"
        }
      ],
      "stateMutability": "view",
      "type": "function"
    },
    {
      "inputs": [
        {
          "internalType": "uint256",
          "name": "tokenId",
          "type": "uint256"
        },
        {
          "internalType": "contract IERC20",
          "name": "paymentToken",
          "type": "address"
        },
        {
          "internalType": "uint256",
          "name": "maximumPayment",
          "type": "uint256"
        },
        {
          "internalType": "uint32",
          "name": "duration",
          "type": "uint32"
        }
      ],
      "name": "reborrow",
      "outputs": [],
      "stateMutability": "nonpayable",
      "type": "function"
    },
    {
      "inputs": [
        {
          "internalType": "string",
          "name": "serviceName",
          "type": "string"
        },
        {
          "internalType": "string",
          "name": "symbol",
          "type": "string"
        },
        {
          "internalType": "uint32",
          "name": "halfLife",
          "type": "uint32"
        },
        {
          "internalType": "uint112",
          "name": "baseRate",
          "type": "uint112"
        },
        {
          "internalType": "contract IERC20Metadata",
          "name": "baseToken",
          "type": "address"
        },
        {
          "internalType": "uint16",
          "name": "serviceFee",
          "type": "uint16"
        },
        {
          "internalType": "uint32",
          "name": "minLoanDuration",
          "type": "uint32"
        },
        {
          "internalType": "uint32",
          "name": "maxLoanDuration",
          "type": "uint32"
        },
        {
          "internalType": "uint112",
          "name": "minGCFee",
          "type": "uint112"
        }
      ],
      "name": "registerService",
      "outputs": [],
      "stateMutability": "nonpayable",
      "type": "function"
    },
    {
      "inputs": [
        {
          "internalType": "uint256",
          "name": "tokenId",
          "type": "uint256"
        }
      ],
      "name": "removeLiquidity",
      "outputs": [],
      "stateMutability": "nonpayable",
      "type": "function"
    },
    {
      "inputs": [
        {
          "internalType": "uint256",
          "name": "tokenId",
          "type": "uint256"
        }
      ],
      "name": "returnLoan",
      "outputs": [],
      "stateMutability": "nonpayable",
      "type": "function"
    },
    {
      "inputs": [
        {
          "internalType": "contract IPowerToken",
          "name": "powerToken",
          "type": "address"
        },
        {
          "internalType": "uint256",
          "name": "amount",
          "type": "uint256"
        }
      ],
      "name": "unwrap",
      "outputs": [
        {
          "internalType": "bool",
          "name": "",
          "type": "bool"
        }
      ],
      "stateMutability": "nonpayable",
      "type": "function"
    },
    {
      "inputs": [
        {
          "internalType": "uint256",
          "name": "tokenId",
          "type": "uint256"
        }
      ],
      "name": "withdrawInterest",
      "outputs": [],
      "stateMutability": "nonpayable",
      "type": "function"
    },
    {
      "inputs": [
        {
          "internalType": "contract IPowerToken",
          "name": "powerToken",
          "type": "address"
        },
        {
          "internalType": "uint256",
          "name": "amount",
          "type": "uint256"
        }
      ],
      "name": "wrap",
      "outputs": [
        {
          "internalType": "bool",
          "name": "",
          "type": "bool"
        }
      ],
      "stateMutability": "nonpayable",
      "type": "function"
    },
    {
      "inputs": [
        {
          "internalType": "contract IPowerToken",
          "name": "powerToken",
          "type": "address"
        },
        {
          "internalType": "address",
          "name": "to",
          "type": "address"
        },
        {
          "internalType": "uint256",
          "name": "amount",
          "type": "uint256"
        }
      ],
      "name": "wrapTo",
      "outputs": [
        {
          "internalType": "bool",
          "name": "",
          "type": "bool"
        }
      ],
      "stateMutability": "nonpayable",
      "type": "function"
    }
  ],
  "bytecode": "0x608060405234801561001057600080fd5b506150cf806100206000396000f3fe608060405234801561001057600080fd5b50600436106101ae5760003560e01c80638da5cb5b116100ee578063bf3bb1a511610097578063e2b17a1611610071578063e2b17a1614610499578063e36eca0c146104ac578063e9126154146104bf578063faaed4ad146104d257600080fd5b8063bf3bb1a51461043e578063c2fe50dd14610451578063df57f2fa1461046457600080fd5b8063aebb5041116100c8578063aebb50411461040e578063b96266fa14610416578063bf376c7a1461042b57600080fd5b80638da5cb5b146103e25780639b7ae5ec146103ea5780639c8f9f23146103fb57600080fd5b80633d4df8971161015b57806359bf5d391161013557806359bf5d39146103845780635a9b0b891461038c5780637ab4339d146103a457806389035b61146103b757600080fd5b80633d4df89714610346578063512a53bc1461035e57806351c6590a1461037157600080fd5b8063158bf4511161018c578063158bf451146102ef578063229304dc1461030257806339f476931461032357600080fd5b806304196058146101b35780630714012c146101e357806308669aab146102da575b600080fd5b6101c66101c1366004614a5e565b6104e5565b6040516001600160a01b0390911681526020015b60405180910390f35b6102cd6101f1366004614a5e565b6040805161010081018252600080825260208201819052918101829052606081018290526080810182905260a0810182905260c0810182905260e08101919091525060009081526005602090815260409182902082516101008101845281546001600160701b038082168352600160701b80830461ffff90811696850196909652600160801b830463ffffffff90811697850197909752600160a01b830487166060850152600160c01b830487166080850152600160e01b90920490951660a083015260019092015493841660c082015292041660e082015290565b6040516101da9190614db8565b6102ed6102e8366004614a5e565b610523565b005b6102ed6102fd36600461494c565b6106b2565b6103156103103660046147e2565b610ccb565b6040519081526020016101da565b61033661033136600461483d565b610d6a565b60405190151581526020016101da565b61034e610ecb565b6040516101da9493929190614bd9565b6102ed61036c3660046146eb565b6112ec565b6102ed61037f366004614a5e565b611716565b600154610315565b61039461196f565b6040516101da9493929190614e5c565b6102ed6103b23660046148fc565b611a1b565b6103366103c536600461474b565b6001600160a01b0316600090815260076020526040902054151590565b6101c6611b0e565b6000546001600160a01b03166101c6565b6102ed610409366004614a5e565b611b9a565b600254610315565b61041e611e23565b6040516101da9190614c8c565b61033661043936600461483d565b611e85565b61031561044c366004614a5e565b611ef4565b6102ed61045f366004614a8e565b611f23565b610477610472366004614a5e565b61286e565b60408051825181526020808401519082015291810151908201526060016101da565b6102ed6104a736600461477b565b6128cb565b6103156104ba36600461474b565b6134a1565b6102ed6104cd366004614a5e565b6134f3565b6103366104e0366004614767565b613974565b60006008828154811061050857634e487b7160e01b600052603260045260246000fd5b6000918252602090912001546001600160a01b031692915050565b6000818152600660205260408120600181015481549192909161054583613ade565b61054f9190614f85565b90506002548111156105a85760405162461bcd60e51b815260206004820152601660248201527f496e73756666696369656e74206c69717569646974790000000000000000000060448201526064015b60405180910390fd5b610641338260008054906101000a90046001600160a01b03166001600160a01b031663644e44df6040518163ffffffff1660e01b815260040160206040518083038186803b1580156105f957600080fd5b505afa15801561060d573d6000803e3d6000fd5b505050506040513d601f19601f8201168201806040525081019061063191906146cf565b6001600160a01b03169190613afb565b60006106508460000154613b7c565b6001850181905590506106638184614f85565b600360008282546106749190614f85565b92505081905550816002600082825461068d9190614f85565b9250508190555081600160008282546106a69190614f85565b90915550505050505050565b6106ba611b0e565b6001600160a01b0316336001600160a01b03161461071a5760405162461bcd60e51b815260206004820181905260248201527f4f776e61626c653a2063616c6c6572206973206e6f7420746865206f776e6572604482015260640161059f565b60085461ffff1161076d5760405162461bcd60e51b815260206004820152601d60248201527f43616e6e6f74207265676973746572206d6f7265207365727669636573000000604482015260640161059f565b8163ffffffff168363ffffffff1611156107c95760405162461bcd60e51b815260206004820152601b60248201527f496e76616c6964206d696e20616e64206d617820706572696f64730000000000604482015260640161059f565b60008763ffffffff161161081f5760405162461bcd60e51b815260206004820152601160248201527f496e76616c69642068616c66206c696665000000000000000000000000000000604482015260640161059f565b60008060009054906101000a90046001600160a01b03166001600160a01b031663644e44df6040518163ffffffff1660e01b815260040160206040518083038186803b15801561086e57600080fd5b505afa158015610882573d6000803e3d6000fd5b505050506040513d601f19601f820116820180604052508101906108a691906146cf565b6001600160a01b03166395d89b416040518163ffffffff1660e01b815260040160006040518083038186803b1580156108de57600080fd5b505afa1580156108f2573d6000803e3d6000fd5b505050506040513d6000823e601f3d908101601f1916820160405261091a9190810190614889565b90506000818a604051602001610931929190614b81565b604051602081830303815290604052905060006109d960008054906101000a90046001600160a01b03166001600160a01b03166383b9a0096040518163ffffffff1660e01b815260040160206040518083038186803b15801561099357600080fd5b505afa1580156109a7573d6000803e3d6000fd5b505050506040513d601f19601f820116820180604052508101906109cb91906146cf565b6001600160a01b0316613b8f565b6040805160e0810182526001600160701b03808d1682528716602082015263ffffffff808e16828401526001600160a01b03808d1660608401528a8216608084015290891660a083015261ffff8b1660c083015260005492517f38ad790100000000000000000000000000000000000000000000000000000000815293945090929116906338ad790190610a739085908590600401614cd9565b600060405180830381600087803b158015610a8d57600080fd5b505af1158015610aa1573d6000803e3d6000fd5b50505050816001600160a01b031663077f224a8e8560008054906101000a90046001600160a01b03166040518463ffffffff1660e01b8152600401610ae893929190614d79565b600060405180830381600087803b158015610b0257600080fd5b505af1158015610b16573d6000803e3d6000fd5b5050600880546001810182557ff3f7a9fe364faab93b216da50a3214154f22a0a2b415b23a84c8169e8b636ee301805473ffffffffffffffffffffffffffffffffffffffff19166001600160a01b038781169182179092559154600092835260076020908152604080852092909255925481516307f606f560e51b815291519216945063fec0dea093506004808201939291829003018186803b158015610bbc57600080fd5b505afa158015610bd0573d6000803e3d6000fd5b505050506040513d601f19601f82011682018060405250810190610bf491906146cf565b6040517f508ee32c0000000000000000000000000000000000000000000000000000000081526001600160a01b038481166004830152919091169063508ee32c90602401600060405180830381600087803b158015610c5257600080fd5b505af1158015610c66573d6000803e3d6000fd5b50506040805163ffffffff8f1681526001600160701b038e1660208201526001600160a01b03861693507f18706585e986f622c9d914abfb256d563b9ea274cd5d49124e0518aa314b8c1292500160405180910390a250505050505050505050505050565b6001600160a01b0384166000908152600760205260408120548590610d275760405162461bcd60e51b81526020600482015260126024820152712ab735b737bbb7102837bbb2b92a37b5b2b760711b604482015260640161059f565b6000806000610d3889898989613c4a565b9194509250905080610d4a8385614ee4565b610d549190614ee4565b6001600160701b03169998505050505050505050565b6001600160a01b0382166000908152600760205260408120548390610dc65760405162461bcd60e51b81526020600482015260126024820152712ab735b737bbb7102837bbb2b92a37b5b2b760711b604482015260640161059f565b836001600160a01b0316638cc7104f60008054906101000a90046001600160a01b03166001600160a01b031663644e44df6040518163ffffffff1660e01b815260040160206040518083038186803b158015610e2157600080fd5b505afa158015610e35573d6000803e3d6000fd5b505050506040513d601f19601f82011682018060405250810190610e5991906146cf565b6040516001600160e01b031960e084901b1681526001600160a01b03909116600482015233602482015260448101869052606401600060405180830381600087803b158015610ea757600080fd5b505af1158015610ebb573d6000803e3d6000fd5b50505050600191505b5092915050565b6008546060908190819081908067ffffffffffffffff811115610efe57634e487b7160e01b600052604160045260246000fd5b604051908082528060200260200182016040528015610f27578160200160208202803683370190505b5094508067ffffffffffffffff811115610f5157634e487b7160e01b600052604160045260246000fd5b604051908082528060200260200182016040528015610f8457816020015b6060815260200190600190039081610f6f5790505b5093508067ffffffffffffffff811115610fae57634e487b7160e01b600052604160045260246000fd5b604051908082528060200260200182016040528015610fe157816020015b6060815260200190600190039081610fcc5790505b5092508067ffffffffffffffff81111561100b57634e487b7160e01b600052604160045260246000fd5b604051908082528060200260200182016040528015611034578160200160208202803683370190505b50915060005b818110156112e45760006008828154811061106557634e487b7160e01b600052603260045260246000fd5b9060005260206000200160009054906101000a90046001600160a01b03169050808783815181106110a657634e487b7160e01b600052603260045260246000fd5b60200260200101906001600160a01b031690816001600160a01b031681525050806001600160a01b03166306fdde036040518163ffffffff1660e01b815260040160006040518083038186803b1580156110ff57600080fd5b505afa158015611113573d6000803e3d6000fd5b505050506040513d6000823e601f3d908101601f1916820160405261113b9190810190614889565b86838151811061115b57634e487b7160e01b600052603260045260246000fd5b6020026020010181905250806001600160a01b03166395d89b416040518163ffffffff1660e01b815260040160006040518083038186803b15801561119f57600080fd5b505afa1580156111b3573d6000803e3d6000fd5b505050506040513d6000823e601f3d908101601f191682016040526111db9190810190614889565b8583815181106111fb57634e487b7160e01b600052603260045260246000fd5b60209081029190910101526000546040517f8fcfd8b30000000000000000000000000000000000000000000000000000000081526001600160a01b03838116600483015290911690638fcfd8b39060240160206040518083038186803b15801561126457600080fd5b505afa158015611278573d6000803e3d6000fd5b505050506040513d601f19601f8201168201806040525081019061129c9190614acc565b8483815181106112bc57634e487b7160e01b600052603260045260246000fd5b63ffffffff9092166020928302919091019091015250806112dc81615003565b91505061103a565b505090919293565b60008054906101000a90046001600160a01b03166001600160a01b031663c93d0b926040518163ffffffff1660e01b815260040160206040518083038186803b15801561133857600080fd5b505afa15801561134c573d6000803e3d6000fd5b505050506040513d601f19601f8201168201806040525081019061137091906146cf565b6001600160a01b0316336001600160a01b0316146113d05760405162461bcd60e51b815260206004820152600f60248201527f4e6f7420426f72726f77546f6b656e0000000000000000000000000000000000604482015260640161059f565b600081815260056020908152604080832081516101008101835281546001600160701b03808216835261ffff600160701b808404821697850188905263ffffffff600160801b8504811697860197909752600160a01b840487166060860152600160c01b840487166080860152600160e01b90930490951660a084015260019093015492831660c083015290910490911660e0820152600880549193929091811061148b57634e487b7160e01b600052603260045260246000fd5b6000918252602090912001546001600160a01b03169050806114e15760405162461bcd60e51b815260206004820152600f60248201526e125b9d985b1a59081d1bdad95b9259608a1b604482015260640161059f565b606082015163ffffffff1642116001600160a01b03868116159086168015903014801561151657611511876134f3565b61170b565b81156115a95785516040517f79cc67900000000000000000000000000000000000000000000000000000000081526001600160a01b038b811660048301526001600160701b039092166024820152908616906379cc6790906044015b600060405180830381600087803b15801561158c57600080fd5b505af11580156115a0573d6000803e3d6000fd5b5050505061170b565b82156116095785516040517f40c10f190000000000000000000000000000000000000000000000000000000081526001600160a01b038a811660048301526001600160701b039092166024820152908616906340c10f1990604401611572565b836116c35785516040517f33bebb770000000000000000000000000000000000000000000000000000000081526001600160a01b038b811660048301528a811660248301526001600160701b039092166044820152908616906333bebb7790606401602060405180830381600087803b15801561168557600080fd5b505af1158015611699573d6000803e3d6000fd5b505050506040513d601f19601f820116820180604052508101906116bd919061472b565b5061170b565b60405162461bcd60e51b815260206004820152601460248201527f4e6f7420616c6c6f776564207472616e73666572000000000000000000000000604482015260640161059f565b505050505050505050565b6117b133308360008054906101000a90046001600160a01b03166001600160a01b031663644e44df6040518163ffffffff1660e01b815260040160206040518083038186803b15801561176857600080fd5b505afa15801561177c573d6000803e3d6000fd5b505050506040513d601f19601f820116820180604052508101906117a091906146cf565b6001600160a01b0316929190613f89565b6000600354600014156117c55750806117d1565b6117ce82613ade565b90505b81600160008282546117e39190614f0f565b9250508190555081600260008282546117fc9190614f0f565b909155505060008054604080517f0ea1dc9e00000000000000000000000000000000000000000000000000000000815290516001600160a01b0390921691630ea1dc9e91600480820192602092909190829003018186803b15801561186057600080fd5b505afa158015611874573d6000803e3d6000fd5b505050506040513d601f19601f8201168201806040525081019061189891906146cf565b6040516335313c2160e11b81523360048201526001600160a01b039190911690636a62784290602401602060405180830381600087803b1580156118db57600080fd5b505af11580156118ef573d6000803e3d6000fd5b505050506040513d601f19601f820116820180604052508101906119139190614a76565b6040805160608101825285815260208082018681524383850190815260008681526006909352938220925183555160018301559151600290910155600380549293508492909190611965908490614f0f565b9091555050505050565b60008060006060600154600254600354600480805461198d90614fc8565b80601f01602080910402602001604051908101604052809291908181526020018280546119b990614fc8565b8015611a065780601f106119db57610100808354040283529160200191611a06565b820191906000526020600020905b8154815290600101906020018083116119e957829003601f168201915b50505050509050935093509350935090919293565b6000546001600160a01b031615611a745760405162461bcd60e51b815260206004820152601360248201527f416c726561647920696e697469616c697a656400000000000000000000000000604482015260640161059f565b6001600160a01b038116611aca5760405162461bcd60e51b815260206004820152601460248201527f496e76616c696420636f6e666967757261746f72000000000000000000000000604482015260640161059f565b8151611add9060049060208501906145b9565b506000805473ffffffffffffffffffffffffffffffffffffffff19166001600160a01b039290921691909117905550565b60008060009054906101000a90046001600160a01b03166001600160a01b0316638da5cb5b6040518163ffffffff1660e01b815260040160206040518083038186803b158015611b5d57600080fd5b505afa158015611b71573d6000803e3d6000fd5b505050506040513d601f19601f82011682018060405250810190611b9591906146cf565b905090565b600081815260066020526040902060028101544311611c215760405162461bcd60e51b815260206004820152602d60248201527f43616e6e6f742061646420616e642072656d6f7665206c69717569646974792060448201527f696e2073616d6520626c6f636b00000000000000000000000000000000000000606482015260840161059f565b60018101546000611c3182613ade565b9050600254811115611c855760405162461bcd60e51b815260206004820152601660248201527f496e73756666696369656e74206c697175696469747900000000000000000000604482015260640161059f565b60008054906101000a90046001600160a01b03166001600160a01b0316630ea1dc9e6040518163ffffffff1660e01b815260040160206040518083038186803b158015611cd157600080fd5b505afa158015611ce5573d6000803e3d6000fd5b505050506040513d601f19601f82011682018060405250810190611d0991906146cf565b6001600160a01b03166342966c68856040518263ffffffff1660e01b8152600401611d3691815260200190565b600060405180830381600087803b158015611d5057600080fd5b505af1158015611d64573d6000803e3d6000fd5b50505050611db9338260008054906101000a90046001600160a01b03166001600160a01b031663644e44df6040518163ffffffff1660e01b815260040160206040518083038186803b1580156105f957600080fd5b8060016000828254611dcb9190614f85565b925050819055508060026000828254611de49190614f85565b925050819055508160036000828254611dfd9190614f85565b909155505050600092835250506006602052604081208181556001810182905560020155565b60606008805480602002602001604051908101604052809291908181526020018280548015611e7b57602002820191906000526020600020905b81546001600160a01b03168152600190910190602001808311611e5d575b5050505050905090565b6001600160a01b0382166000908152600760205260408120548390611ee15760405162461bcd60e51b81526020600482015260126024820152712ab735b737bbb7102837bbb2b92a37b5b2b760711b604482015260640161059f565b611eec843385613974565b949350505050565b600081815260066020526040812080546001820154611f1290613ade565b611f1c9190614f85565b9392505050565b600054604051632fb2067f60e01b81526001600160a01b03858116600483015290911690632fb2067f9060240160206040518083038186803b158015611f6857600080fd5b505afa158015611f7c573d6000803e3d6000fd5b505050506040513d601f19601f82011682018060405250810190611fa0919061472b565b6120125760405162461bcd60e51b815260206004820152603360248201527f496e746572657374207061796d656e7420746f6b656e2069732064697361626c60448201527f6564206f72206e6f7420737570706f7274656400000000000000000000000000606482015260840161059f565b60008481526005602052604081208054600880549293929091600160701b900461ffff1690811061205357634e487b7160e01b600052603260045260246000fd5b6000918252602090912001546001600160a01b03169050806120a95760405162461bcd60e51b815260206004820152600f60248201526e125b9d985b1a59081d1bdad95b9259608a1b604482015260640161059f565b60005460405163a0cffa5960e01b81526001600160a01b03838116600483015263ffffffff861660248301529091169063a0cffa599060440160206040518083038186803b1580156120fa57600080fd5b505afa15801561210e573d6000803e3d6000fd5b505050506040513d601f19601f82011682018060405250810190612132919061472b565b61217e5760405162461bcd60e51b815260206004820152601760248201527f4475726174696f6e206973206e6f7420616c6c6f776564000000000000000000604482015260640161059f565b8154429061219a908590600160a01b900463ffffffff16614f27565b63ffffffff1610156121ee5760405162461bcd60e51b815260206004820152601060248201527f496e76616c6964206475726174696f6e00000000000000000000000000000000604482015260640161059f565b8154600090819061220c90849089906001600160701b031688613c4a565b509092509050600061221e8284614ee4565b6001600160701b03169050868111156122795760405162461bcd60e51b815260206004820152601360248201527f536c69707061676520697320746f6f2062696700000000000000000000000000604482015260640161059f565b61228e6001600160a01b038916333084613f89565b60008060009054906101000a90046001600160a01b03166001600160a01b031663644e44df6040518163ffffffff1660e01b815260040160206040518083038186803b1580156122dd57600080fd5b505afa1580156122f1573d6000803e3d6000fd5b505050506040513d601f19601f8201168201806040525081019061231591906146cf565b905060008060009054906101000a90046001600160a01b03166001600160a01b0316632261b07f6040518163ffffffff1660e01b815260040160206040518083038186803b15801561236657600080fd5b505afa15801561237a573d6000803e3d6000fd5b505050506040513d601f19601f8201168201806040525081019061239e91906146cf565b60405163029b465d60e01b81526001600160a01b038c81166004830152602482018690528481166044830152919091169063029b465d90606401602060405180830381600087803b1580156123f257600080fd5b505af1158015612406573d6000803e3d6000fd5b505050506040513d601f19601f8201168201806040525081019061242a9190614a76565b9050600083612442836001600160701b038816614f66565b61244c9190614f46565b90506124e660008054906101000a90046001600160a01b03166001600160a01b0316637791c42d6040518163ffffffff1660e01b815260040160206040518083038186803b15801561249d57600080fd5b505afa1580156124b1573d6000803e3d6000fd5b505050506040513d601f19601f820116820180604052508101906124d591906146cf565b6001600160a01b0385169083613afb565b60006124f28284614f85565b905080600260008282546125069190614f0f565b92505081905550806001600082825461251f9190614f0f565b90915550508854600160a01b900463ffffffff1661253d8b82614f27565b8a5463ffffffff91909116600160a01b0263ffffffff60a01b19909116178a55600054604080517f8188d50d00000000000000000000000000000000000000000000000000000000815290516001600160a01b0390921691638188d50d91600480820192602092909190829003018186803b1580156125bb57600080fd5b505afa1580156125cf573d6000803e3d6000fd5b505050506040513d601f19601f820116820180604052508101906125f39190614acc565b8a5461260c9190600160a01b900463ffffffff16614f27565b8a5463ffffffff91909116600160c01b027fffffffff00000000ffffffffffffffffffffffffffffffffffffffffffffffff909116178a55600054604080517fa0efd11800000000000000000000000000000000000000000000000000000000815290516001600160a01b039092169163a0efd11891600480820192602092909190829003018186803b1580156126a257600080fd5b505afa1580156126b6573d6000803e3d6000fd5b505050506040513d601f19601f820116820180604052508101906126da9190614acc565b8a546126f39190600160a01b900463ffffffff16614f27565b8a5463ffffffff91909116600160e01b026001600160e01b03909116178a55600054604080516307f606f560e51b815290516001600160a01b039092169163fec0dea091600480820192602092909190829003018186803b15801561275757600080fd5b505afa15801561276b573d6000803e3d6000fd5b505050506040513d601f19601f8201168201806040525081019061278f91906146cf565b6001600160a01b031663f8642f298f6040518263ffffffff1660e01b81526004016127bc91815260200190565b600060405180830381600087803b1580156127d657600080fd5b505af11580156127ea573d6000803e3d6000fd5b50505050886001600160a01b03167f9853650269815e203c5c9e228db9ca05cc6037f2c2723c94ed3260cf98324c998f838d60000160149054906101000a900463ffffffff166040516128569392919092835263ffffffff918216602084015216604082015260600190565b60405180910390a25050505050505050505050505050565b61289260405180606001604052806000815260200160008152602001600081525090565b50600090815260066020908152604091829020825160608101845281548152600182015492810192909252600201549181019190915290565b846128ed816001600160a01b0316600090815260076020526040902054151590565b61292e5760405162461bcd60e51b81526020600482015260126024820152712ab735b737bbb7102837bbb2b92a37b5b2b760711b604482015260640161059f565b600054604051632fb2067f60e01b81526001600160a01b03878116600483015290911690632fb2067f9060240160206040518083038186803b15801561297357600080fd5b505afa158015612987573d6000803e3d6000fd5b505050506040513d601f19601f820116820180604052508101906129ab919061472b565b612a1d5760405162461bcd60e51b815260206004820152603360248201527f496e746572657374207061796d656e7420746f6b656e2069732064697361626c60448201527f6564206f72206e6f7420737570706f7274656400000000000000000000000000606482015260840161059f565b60005460405163a0cffa5960e01b81526001600160a01b03888116600483015263ffffffff851660248301529091169063a0cffa599060440160206040518083038186803b158015612a6e57600080fd5b505afa158015612a82573d6000803e3d6000fd5b505050506040513d601f19601f82011682018060405250810190612aa6919061472b565b612af25760405162461bcd60e51b815260206004820152601760248201527f4475726174696f6e206973206e6f7420616c6c6f776564000000000000000000604482015260640161059f565b600254846001600160701b03161115612b4d5760405162461bcd60e51b815260206004820152601560248201527f496e73756666696369656e742072657365727665730000000000000000000000604482015260640161059f565b600080600080612b5f8a8a8a89613c4a565b955090935091508390506000612b758385614ee4565b6001600160701b0316905087856001600160701b031682612b969190614f0f565b1115612be45760405162461bcd60e51b815260206004820152601360248201527f536c69707061676520697320746f6f2062696700000000000000000000000000604482015260640161059f565b612bf96001600160a01b038b16333084613f89565b60008060009054906101000a90046001600160a01b03166001600160a01b031663644e44df6040518163ffffffff1660e01b815260040160206040518083038186803b158015612c4857600080fd5b505afa158015612c5c573d6000803e3d6000fd5b505050506040513d601f19601f82011682018060405250810190612c8091906146cf565b905060008060009054906101000a90046001600160a01b03166001600160a01b0316632261b07f6040518163ffffffff1660e01b815260040160206040518083038186803b158015612cd157600080fd5b505afa158015612ce5573d6000803e3d6000fd5b505050506040513d601f19601f82011682018060405250810190612d0991906146cf565b60405163029b465d60e01b81526001600160a01b038e81166004830152602482018690528481166044830152919091169063029b465d90606401602060405180830381600087803b158015612d5d57600080fd5b505af1158015612d71573d6000803e3d6000fd5b505050506040513d601f19601f82011682018060405250810190612d959190614a76565b9050600083612dad836001600160701b038916614f66565b612db79190614f46565b9050612e0860008054906101000a90046001600160a01b03166001600160a01b0316637791c42d6040518163ffffffff1660e01b815260040160206040518083038186803b15801561249d57600080fd5b6000612e148284614f85565b9050808d6001600160701b0316600254612e2e9190614f85565b612e389190614f0f565b6002819055508060016000828254612e509190614f0f565b92505081905550505050505050505060008060009054906101000a90046001600160a01b03166001600160a01b031663c93d0b926040518163ffffffff1660e01b815260040160206040518083038186803b158015612eae57600080fd5b505afa158015612ec2573d6000803e3d6000fd5b505050506040513d601f19601f82011682018060405250810190612ee691906146cf565b9050612f066001600160a01b03881633836001600160701b038616613f89565b426000612f138683614f27565b90506000836001600160a01b0316638ada066e6040518163ffffffff1660e01b8152600401602060405180830381600087803b158015612f5257600080fd5b505af1158015612f66573d6000803e3d6000fd5b505050506040513d601f19601f82011682018060405250810190612f8a9190614a76565b90506040518061010001604052808a6001600160701b031681526020016001600760008f6001600160a01b03166001600160a01b0316815260200190815260200160002054612fd99190614f85565b61ffff1681526020018463ffffffff1681526020018363ffffffff16815260200160008054906101000a90046001600160a01b03166001600160a01b0316638188d50d6040518163ffffffff1660e01b815260040160206040518083038186803b15801561304657600080fd5b505afa15801561305a573d6000803e3d6000fd5b505050506040513d601f19601f8201168201806040525081019061307e9190614acc565b6130889085614f27565b63ffffffff16815260200160008054906101000a90046001600160a01b03166001600160a01b031663a0efd1186040518163ffffffff1660e01b815260040160206040518083038186803b1580156130df57600080fd5b505afa1580156130f3573d6000803e3d6000fd5b505050506040513d601f19601f820116820180604052508101906131179190614acc565b6131219085614f27565b63ffffffff1681526001600160701b0387166020820152600054604080517f27623ddd0000000000000000000000000000000000000000000000000000000081526001600160a01b038f8116600483015291909301929116906327623ddd9060240160206040518083038186803b15801561319b57600080fd5b505afa1580156131af573d6000803e3d6000fd5b505050506040513d601f19601f820116820180604052508101906131d39190614868565b61ffff9081169091526000838152600560209081526040918290208451815486840151878601516060808a015160808b015160a08c01516001600160701b039788166fffffffffffffffffffffffffffffffff1997881617600160701b968d168702177fffffffffffffffff0000000000000000ffffffffffffffffffffffffffffffff16600160801b63ffffffff9687160263ffffffff60a01b191617600160a01b938616939093029290921777ffffffffffffffffffffffffffffffffffffffffffffffff16600160c01b918516919091026001600160e01b031617600160e01b9184169190910217865560c08a01516001909601805460e0909b015196909516999093169890981793909616909502919091179055815185815287851691810191909152928516908301526001600160a01b038d16917f9853650269815e203c5c9e228db9ca05cc6037f2c2723c94ed3260cf98324c99910160405180910390a260008054906101000a90046001600160a01b03166001600160a01b031663fec0dea06040518163ffffffff1660e01b815260040160206040518083038186803b15801561338357600080fd5b505afa158015613397573d6000803e3d6000fd5b505050506040513d601f19601f820116820180604052508101906133bb91906146cf565b6001600160a01b031663f8642f29826040518263ffffffff1660e01b81526004016133e891815260200190565b600060405180830381600087803b15801561340257600080fd5b505af1158015613416573d6000803e3d6000fd5b50506040516335313c2160e11b81523360048201526001600160a01b0387169250636a6278429150602401602060405180830381600087803b15801561345b57600080fd5b505af115801561346f573d6000803e3d6000fd5b505050506040513d601f19601f820116820180604052508101906134939190614a76565b505050505050505050505050565b6001600160a01b038116600090815260076020526040812054156134e9576001600160a01b0382166000908152600760205260409020546134e490600190614f85565b6134ed565b6000195b92915050565b60008181526005602052604081208054600880549293929091600160701b900461ffff1690811061353457634e487b7160e01b600052603260045260246000fd5b6000918252602090912001546001600160a01b031690508061358a5760405162461bcd60e51b815260206004820152600f60248201526e125b9d985b1a59081d1bdad95b9259608a1b604482015260640161059f565b60008060009054906101000a90046001600160a01b03166001600160a01b031663c93d0b926040518163ffffffff1660e01b815260040160206040518083038186803b1580156135d957600080fd5b505afa1580156135ed573d6000803e3d6000fd5b505050506040513d601f19601f8201168201806040525081019061361191906146cf565b6040517f6352211e000000000000000000000000000000000000000000000000000000008152600481018690529091506000906001600160a01b03831690636352211e9060240160206040518083038186803b15801561367057600080fd5b505afa158015613684573d6000803e3d6000fd5b505050506040513d601f19601f820116820180604052508101906136a891906146cf565b8454909150429063ffffffff808316600160c01b9092041610806136d45750336001600160a01b038316145b6137465760405162461bcd60e51b815260206004820152603560248201527f4f6e6c7920626f72726f7765722063616e2072657475726e2077697468696e2060448201527f626f72726f77657220677261636520706572696f640000000000000000000000606482015260840161059f565b845463ffffffff808316600160e01b90920416108061376d5750336001600160a01b038316145b8061380c575060008054906101000a90046001600160a01b03166001600160a01b031663a554b26d6040518163ffffffff1660e01b815260040160206040518083038186803b1580156137bf57600080fd5b505afa1580156137d3573d6000803e3d6000fd5b505050506040513d601f19601f820116820180604052508101906137f791906146cf565b6001600160a01b0316336001600160a01b0316145b6138a45760405162461bcd60e51b815260206004820152604560248201527f4f6e6c7920626f72726f776572206f7220656e74657270726973652063616e2060448201527f72657475726e2077697468696e20656e7465727072697365206772616365207060648201527f6572696f64000000000000000000000000000000000000000000000000000000608482015260a40161059f565b8454600280546001600160701b03909216916000906138c4908490614f0f565b90915550506040517ffcd3533c000000000000000000000000000000000000000000000000000000008152600481018790523360248201526001600160a01b0384169063fcd3533c90604401600060405180830381600087803b15801561392a57600080fd5b505af115801561393e573d6000803e3d6000fd5b505050600096875250506005602052505060408320928355505060010180546fffffffffffffffffffffffffffffffff19169055565b6001600160a01b03831660009081526007602052604081205484906139d05760405162461bcd60e51b81526020600482015260126024820152712ab735b737bbb7102837bbb2b92a37b5b2b760711b604482015260640161059f565b846001600160a01b031663a1571a5760008054906101000a90046001600160a01b03166001600160a01b031663644e44df6040518163ffffffff1660e01b815260040160206040518083038186803b158015613a2b57600080fd5b505afa158015613a3f573d6000803e3d6000fd5b505050506040513d601f19601f82011682018060405250810190613a6391906146cf565b6040516001600160e01b031960e084901b1681526001600160a01b039182166004820152336024820152908716604482015260648101869052608401600060405180830381600087803b158015613ab957600080fd5b505af1158015613acd573d6000803e3d6000fd5b50505050600191505b509392505050565b600060035482600154613af19190614f66565b6134ed9190614f46565b6040516001600160a01b038316602482015260448101829052613b779084907fa9059cbb00000000000000000000000000000000000000000000000000000000906064015b60408051601f198184030181529190526020810180516001600160e01b03166001600160e01b031990931692909217909152613fe0565b505050565b600060015482600354613af19190614f66565b60006040517f3d602d80600a3d3981f3363d3d373d3d3d363d7300000000000000000000000081528260601b60148201527f5af43d82803e903d91602b57fd5bf3000000000000000000000000000000000060288201526037816000f09150506001600160a01b038116613c455760405162461bcd60e51b815260206004820152601660248201527f455243313136373a20637265617465206661696c656400000000000000000000604482015260640161059f565b919050565b60008060008060008054906101000a90046001600160a01b03166001600160a01b031663fec0dea06040518163ffffffff1660e01b815260040160206040518083038186803b158015613c9c57600080fd5b505afa158015613cb0573d6000803e3d6000fd5b505050506040513d601f19601f82011682018060405250810190613cd491906146cf565b6040517f19065df40000000000000000000000000000000000000000000000000000000081526001600160a01b038a811660048301526001600160701b038916602483015263ffffffff8816604483015291909116906319065df49060640160206040518083038186803b158015613d4b57600080fd5b505afa158015613d5f573d6000803e3d6000fd5b505050506040513d601f19601f82011682018060405250810190613d839190614a26565b90506000613d9189836140c5565b905060008060009054906101000a90046001600160a01b03166001600160a01b0316632261b07f6040518163ffffffff1660e01b815260040160206040518083038186803b158015613de257600080fd5b505afa158015613df6573d6000803e3d6000fd5b505050506040513d601f19601f82011682018060405250810190613e1a91906146cf565b600054604051630c10fd0f60e01b81526001600160a01b038d81166004830152928316926329fb92ce921690630c10fd0f9060240160206040518083038186803b158015613e6757600080fd5b505afa158015613e7b573d6000803e3d6000fd5b505050506040513d601f19601f82011682018060405250810190613e9f91906146cf565b6040516001600160e01b031960e084901b1681526001600160a01b0391821660048201526001600160701b0387166024820152908c16604482015260640160206040518083038186803b158015613ef557600080fd5b505afa158015613f09573d6000803e3d6000fd5b505050506040513d601f19601f82011682018060405250810190613f2d9190614a76565b9050826001600160701b031681836001600160701b0316613f4e9190614f66565b613f589190614f46565b9450613f6d6001600160701b03861682614f85565b9550613f7a8a8a8a614185565b93505050509450945094915050565b6040516001600160a01b0380851660248301528316604482015260648101829052613fda9085907f23b872dd0000000000000000000000000000000000000000000000000000000090608401613b40565b50505050565b6000614035826040518060400160405280602081526020017f5361666545524332303a206c6f772d6c6576656c2063616c6c206661696c6564815250856001600160a01b03166144ae9092919063ffffffff16565b805190915015613b775780806020019051810190614053919061472b565b613b775760405162461bcd60e51b815260206004820152602a60248201527f5361666545524332303a204552433230206f7065726174696f6e20646964206e60448201527f6f74207375636365656400000000000000000000000000000000000000000000606482015260840161059f565b600080546040517f2b39a0ac0000000000000000000000000000000000000000000000000000000081526001600160a01b038581166004830152612710921690632b39a0ac9060240160206040518083038186803b15801561412657600080fd5b505afa15801561413a573d6000803e3d6000fd5b505050506040513d601f19601f8201168201806040525081019061415e9190614a26565b6001600160701b0316836001600160701b031661417b9190614f66565b611f1c9190614f46565b60008054604080517fb406bf6d000000000000000000000000000000000000000000000000000000008152905183926001600160a01b03169163b406bf6d916004808301926020929190829003018186803b1580156141e357600080fd5b505afa1580156141f7573d6000803e3d6000fd5b505050506040513d601f19601f8201168201806040525081019061421b9190614a42565b9050600061271061423961ffff84166001600160701b038716614f66565b6142439190614f46565b905060008060009054906101000a90046001600160a01b03166001600160a01b0316632261b07f6040518163ffffffff1660e01b815260040160206040518083038186803b15801561429457600080fd5b505afa1580156142a8573d6000803e3d6000fd5b505050506040513d601f19601f820116820180604052508101906142cc91906146cf565b60008054604051630c10fd0f60e01b81526001600160a01b038b811660048301529394509192808516926329fb92ce929190911690630c10fd0f9060240160206040518083038186803b15801561432257600080fd5b505afa158015614336573d6000803e3d6000fd5b505050506040513d601f19601f8201168201806040525081019061435a91906146cf565b6000546040517f854bb4a20000000000000000000000000000000000000000000000000000000081526001600160a01b038d811660048301529091169063854bb4a29060240160206040518083038186803b1580156143b857600080fd5b505afa1580156143cc573d6000803e3d6000fd5b505050506040513d601f19601f820116820180604052508101906143f09190614a26565b6040516001600160e01b031960e085901b1681526001600160a01b0392831660048201526001600160701b039091166024820152908a16604482015260640160206040518083038186803b15801561444757600080fd5b505afa15801561445b573d6000803e3d6000fd5b505050506040513d601f19601f8201168201806040525081019061447f9190614a76565b9050806001600160701b0316836001600160701b0316106144a057826144a2565b805b98975050505050505050565b6060611eec848460008585843b6145075760405162461bcd60e51b815260206004820152601d60248201527f416464726573733a2063616c6c20746f206e6f6e2d636f6e7472616374000000604482015260640161059f565b600080866001600160a01b031685876040516145239190614b65565b60006040518083038185875af1925050503d8060008114614560576040519150601f19603f3d011682016040523d82523d6000602084013e614565565b606091505b5091509150614575828286614580565b979650505050505050565b6060831561458f575081611f1c565b82511561459f5782518084602001fd5b8160405162461bcd60e51b815260040161059f9190614d66565b8280546145c590614fc8565b90600052602060002090601f0160209004810192826145e7576000855561462d565b82601f1061460057805160ff191683800117855561462d565b8280016001018555821561462d579182015b8281111561462d578251825591602001919060010190614612565b5061463992915061463d565b5090565b5b80821115614639576000815560010161463e565b8035613c458161504a565b600082601f83011261466d578081fd5b813561468061467b82614ebc565b614e8b565b818152846020838601011115614694578283fd5b816020850160208301379081016020019190915292915050565b8035613c4581615062565b8035613c4581615077565b8035613c4581615087565b6000602082840312156146e0578081fd5b8151611f1c8161504a565b6000806000606084860312156146ff578182fd5b833561470a8161504a565b9250602084013561471a8161504a565b929592945050506040919091013590565b60006020828403121561473c578081fd5b81518015158114611f1c578182fd5b60006020828403121561475c578081fd5b8135611f1c8161504a565b6000806000606084860312156146ff578081fd5b600080600080600060a08688031215614792578283fd5b853561479d8161504a565b945060208601356147ad8161504a565b935060408601356147bd81615062565b92506060860135915060808601356147d481615087565b809150509295509295909350565b600080600080608085870312156147f7578182fd5b84356148028161504a565b935060208501356148128161504a565b9250604085013561482281615062565b9150606085013561483281615087565b939692955090935050565b6000806040838503121561484f578182fd5b823561485a8161504a565b946020939093013593505050565b600060208284031215614879578081fd5b81518060010b8114611f1c578182fd5b60006020828403121561489a578081fd5b815167ffffffffffffffff8111156148b0578182fd5b8201601f810184136148c0578182fd5b80516148ce61467b82614ebc565b8181528560208385010111156148e2578384fd5b6148f3826020830160208601614f9c565b95945050505050565b6000806040838503121561490e578182fd5b823567ffffffffffffffff811115614924578283fd5b6149308582860161465d565b92505060208301356149418161504a565b809150509250929050565b60008060008060008060008060006101208a8c03121561496a578687fd5b893567ffffffffffffffff80821115614981578889fd5b61498d8d838e0161465d565b9a5060208c01359150808211156149a2578889fd5b506149af8c828d0161465d565b98505060408a01356149c081615087565b965060608a01356149d081615062565b95506149de60808b01614652565b94506149ec60a08b016146b9565b93506149fa60c08b016146c4565b9250614a0860e08b016146c4565b9150614a176101008b016146ae565b90509295985092959850929598565b600060208284031215614a37578081fd5b8151611f1c81615062565b600060208284031215614a53578081fd5b8151611f1c81615077565b600060208284031215614a6f578081fd5b5035919050565b600060208284031215614a87578081fd5b5051919050565b60008060008060808587031215614aa3578182fd5b843593506020850135614ab58161504a565b925060408501359150606085013561483281615087565b600060208284031215614add578081fd5b8151611f1c81615087565b6000815180845260208085019450848260051b8601828601855b85811015614b2c578383038952614b1a838351614b39565b98850198925090840190600101614b02565b5090979650505050505050565b60008151808452614b51816020860160208601614f9c565b601f01601f19169290920160200192915050565b60008251614b77818460208701614f9c565b9190910192915050565b60008351614b93818460208801614f9c565b7f20000000000000000000000000000000000000000000000000000000000000009083019081528351614bcd816001840160208801614f9c565b01600101949350505050565b6080808252855190820181905260009060209060a0840190828901845b82811015614c1b5781516001600160a01b031684529284019290840190600101614bf6565b50505083810382850152614c2f8188614ae8565b90508381036040850152614c438187614ae8565b84810360608601528551808252838701925090830190845b81811015614c7d57835163ffffffff1683529284019291840191600101614c5b565b50909998505050505050505050565b6020808252825182820181905260009190848201906040850190845b81811015614ccd5783516001600160a01b031683529284019291840191600101614ca8565b50909695505050505050565b6000610100820190506001600160a01b0380851683526001600160701b0380855116602085015280602086015116604085015250604084015163ffffffff80821660608601528260608701511660808601528060808701511660a086015250505060a0830151614d5160c084018263ffffffff169052565b5060c083015161ffff811660e0840152613ad6565b602081526000611f1c6020830184614b39565b606081526000614d8c6060830186614b39565b8281036020840152614d9e8186614b39565b9150506001600160a01b0383166040830152949350505050565b6000610100820190506001600160701b03835116825261ffff6020840151166020830152604083015163ffffffff808216604085015280606086015116606085015250506080830151614e13608084018263ffffffff169052565b5060a0830151614e2b60a084018263ffffffff169052565b5060c0830151614e4660c08401826001600160701b03169052565b5060e0830151610ec460e084018261ffff169052565b848152836020820152826040820152608060608201526000614e816080830184614b39565b9695505050505050565b604051601f8201601f1916810167ffffffffffffffff81118282101715614eb457614eb4615034565b604052919050565b600067ffffffffffffffff821115614ed657614ed6615034565b50601f01601f191660200190565b60006001600160701b03808316818516808303821115614f0657614f0661501e565b01949350505050565b60008219821115614f2257614f2261501e565b500190565b600063ffffffff808316818516808303821115614f0657614f0661501e565b600082614f6157634e487b7160e01b81526012600452602481fd5b500490565b6000816000190483118215151615614f8057614f8061501e565b500290565b600082821015614f9757614f9761501e565b500390565b60005b83811015614fb7578181015183820152602001614f9f565b83811115613fda5750506000910152565b600181811c90821680614fdc57607f821691505b60208210811415614ffd57634e487b7160e01b600052602260045260246000fd5b50919050565b60006000198214156150175761501761501e565b5060010190565b634e487b7160e01b600052601160045260246000fd5b634e487b7160e01b600052604160045260246000fd5b6001600160a01b038116811461505f57600080fd5b50565b6001600160701b038116811461505f57600080fd5b61ffff8116811461505f57600080fd5b63ffffffff8116811461505f57600080fdfea2646970667358221220f23a8c58092554cb9969f71675713aff15f7c9e126839130e7e6e4700dd042f464736f6c63430008040033",
  "linkReferences": {},
  "deployedLinkReferences": {}
}