{
  "_format": "hh-sol-artifact-1",
  "contractName": "Enterprise",
  "sourceName": "contracts/Enterprise.sol",
  "abi": [
    {
      "anonymous": false,
      "inputs": [
        {
          "indexed": false,
          "internalType": "string",
          "name": "baseUri",
          "type": "string"
        }
      ],
      "name": "BaseUriChanged",
      "type": "event"
    },
    {
      "anonymous": false,
      "inputs": [
        {
          "indexed": false,
          "internalType": "uint256",
          "name": "pole",
          "type": "uint256"
        },
        {
          "indexed": false,
          "internalType": "uint256",
          "name": "slope",
          "type": "uint256"
        }
      ],
      "name": "BondingChanged",
      "type": "event"
    },
    {
      "anonymous": false,
      "inputs": [
        {
          "indexed": true,
          "internalType": "uint256",
          "name": "borrowTokenId",
          "type": "uint256"
        },
        {
          "indexed": true,
          "internalType": "address",
          "name": "borrower",
          "type": "address"
        },
        {
          "indexed": true,
          "internalType": "address",
          "name": "powerToken",
          "type": "address"
        },
        {
          "indexed": false,
          "internalType": "address",
          "name": "paymentToken",
          "type": "address"
        },
        {
          "indexed": false,
          "internalType": "uint112",
          "name": "amount",
          "type": "uint112"
        },
        {
          "indexed": false,
          "internalType": "uint112",
          "name": "interest",
          "type": "uint112"
        },
        {
          "indexed": false,
          "internalType": "uint112",
          "name": "serviceFee",
          "type": "uint112"
        },
        {
          "indexed": false,
          "internalType": "uint112",
          "name": "gcFee",
          "type": "uint112"
        },
        {
          "indexed": false,
          "internalType": "uint32",
          "name": "borrowingTime",
          "type": "uint32"
        },
        {
          "indexed": false,
          "internalType": "uint32",
          "name": "maturityTime",
          "type": "uint32"
        },
        {
          "indexed": false,
          "internalType": "uint32",
          "name": "borrowerReturnGraceTime",
          "type": "uint32"
        },
        {
          "indexed": false,
          "internalType": "uint32",
          "name": "enterpriseCollectGraceTime",
          "type": "uint32"
        },
        {
          "indexed": false,
          "internalType": "uint256",
          "name": "reserve",
          "type": "uint256"
        },
        {
          "indexed": false,
          "internalType": "uint256",
          "name": "usedReserve",
          "type": "uint256"
        }
      ],
      "name": "Borrowed",
      "type": "event"
    },
    {
      "anonymous": false,
      "inputs": [
        {
          "indexed": false,
          "internalType": "uint32",
          "name": "period",
          "type": "uint32"
        }
      ],
      "name": "BorrowerLoanReturnGracePeriodChanged",
      "type": "event"
    },
    {
      "anonymous": false,
      "inputs": [
        {
          "indexed": false,
          "internalType": "address",
          "name": "converter",
          "type": "address"
        }
      ],
      "name": "ConverterChanged",
      "type": "event"
    },
    {
      "anonymous": false,
      "inputs": [
        {
          "indexed": false,
          "internalType": "address",
          "name": "collector",
          "type": "address"
        }
      ],
      "name": "EnterpriseCollectorChanged",
      "type": "event"
    },
    {
      "anonymous": false,
      "inputs": [
        {
          "indexed": false,
          "internalType": "uint32",
          "name": "period",
          "type": "uint32"
        }
      ],
      "name": "EnterpriseLoanCollectGracePeriodChanged",
      "type": "event"
    },
    {
      "anonymous": false,
      "inputs": [],
      "name": "EnterpriseShutdown",
      "type": "event"
    },
    {
      "anonymous": false,
      "inputs": [
        {
          "indexed": false,
          "internalType": "address",
          "name": "vault",
          "type": "address"
        }
      ],
      "name": "EnterpriseVaultChanged",
      "type": "event"
    },
    {
      "anonymous": false,
      "inputs": [
        {
          "indexed": false,
          "internalType": "uint256",
          "name": "fixedReserve",
          "type": "uint256"
        }
      ],
      "name": "FixedReserveChanged",
      "type": "event"
    },
    {
      "anonymous": false,
      "inputs": [
        {
          "indexed": false,
          "internalType": "uint16",
          "name": "percent",
          "type": "uint16"
        }
      ],
      "name": "GcFeePercentChanged",
      "type": "event"
    },
    {
      "anonymous": false,
      "inputs": [
        {
          "indexed": false,
          "internalType": "uint32",
          "name": "period",
          "type": "uint32"
        }
      ],
      "name": "InterestGapHalvingPeriodChanged",
      "type": "event"
    },
    {
      "anonymous": false,
      "inputs": [
        {
          "indexed": true,
          "internalType": "uint256",
          "name": "interestTokenId",
          "type": "uint256"
        },
        {
          "indexed": true,
          "internalType": "address",
          "name": "liquidityProvider",
          "type": "address"
        },
        {
          "indexed": true,
          "internalType": "enum Enterprise.LiquidityChangeType",
          "name": "changeType",
          "type": "uint8"
        },
        {
          "indexed": false,
          "internalType": "uint256",
          "name": "amount",
          "type": "uint256"
        },
        {
          "indexed": false,
          "internalType": "uint256",
          "name": "totalShares",
          "type": "uint256"
        },
        {
          "indexed": false,
          "internalType": "uint256",
          "name": "reserve",
          "type": "uint256"
        },
        {
          "indexed": false,
          "internalType": "uint256",
          "name": "usedReserve",
          "type": "uint256"
        }
      ],
      "name": "LiquidityChanged",
      "type": "event"
    },
    {
      "anonymous": false,
      "inputs": [
        {
          "indexed": true,
          "internalType": "uint256",
          "name": "borrowTokenId",
          "type": "uint256"
        },
        {
          "indexed": true,
          "internalType": "address",
          "name": "borrower",
          "type": "address"
        },
        {
          "indexed": false,
          "internalType": "address",
          "name": "paymentToken",
          "type": "address"
        },
        {
          "indexed": false,
          "internalType": "uint112",
          "name": "interest",
          "type": "uint112"
        },
        {
          "indexed": false,
          "internalType": "uint112",
          "name": "serviceFee",
          "type": "uint112"
        },
        {
          "indexed": false,
          "internalType": "uint32",
          "name": "maturityTime",
          "type": "uint32"
        },
        {
          "indexed": false,
          "internalType": "uint32",
          "name": "borrowerReturnGraceTime",
          "type": "uint32"
        },
        {
          "indexed": false,
          "internalType": "uint32",
          "name": "enterpriseCollectGraceTime",
          "type": "uint32"
        }
      ],
      "name": "LoanExtended",
      "type": "event"
    },
    {
      "anonymous": false,
      "inputs": [
        {
          "indexed": true,
          "internalType": "uint256",
          "name": "borrowTokenId",
          "type": "uint256"
        },
        {
          "indexed": true,
          "internalType": "address",
          "name": "returner",
          "type": "address"
        },
        {
          "indexed": true,
          "internalType": "address",
          "name": "powerToken",
          "type": "address"
        },
        {
          "indexed": false,
          "internalType": "uint112",
          "name": "amount",
          "type": "uint112"
        },
        {
          "indexed": false,
          "internalType": "uint112",
          "name": "gcFee",
          "type": "uint112"
        },
        {
          "indexed": false,
          "internalType": "address",
          "name": "gcFeeToken",
          "type": "address"
        },
        {
          "indexed": false,
          "internalType": "uint256",
          "name": "reserve",
          "type": "uint256"
        },
        {
          "indexed": false,
          "internalType": "uint256",
          "name": "usedReserve",
          "type": "uint256"
        }
      ],
      "name": "LoanReturned",
      "type": "event"
    },
    {
      "anonymous": false,
      "inputs": [
        {
          "indexed": true,
          "internalType": "address",
          "name": "previousOwner",
          "type": "address"
        },
        {
          "indexed": true,
          "internalType": "address",
          "name": "newOwner",
          "type": "address"
        }
      ],
      "name": "OwnershipTransferred",
      "type": "event"
    },
    {
      "anonymous": false,
      "inputs": [
        {
          "indexed": false,
          "internalType": "address",
          "name": "paymentToken",
          "type": "address"
        },
        {
          "indexed": false,
          "internalType": "bool",
          "name": "enabled",
          "type": "bool"
        }
      ],
      "name": "PaymentTokenChange",
      "type": "event"
    },
    {
      "anonymous": false,
      "inputs": [
        {
          "indexed": true,
          "internalType": "address",
          "name": "powerToken",
          "type": "address"
        }
      ],
      "name": "ServiceRegistered",
      "type": "event"
    },
    {
      "anonymous": false,
      "inputs": [
        {
          "indexed": false,
          "internalType": "uint112",
          "name": "streamingReserve",
          "type": "uint112"
        },
        {
          "indexed": false,
          "internalType": "uint112",
          "name": "streamingReserveTarget",
          "type": "uint112"
        }
      ],
      "name": "StreamingReserveChanged",
      "type": "event"
    },
    {
      "inputs": [
        {
          "internalType": "uint256",
          "name": "amount",
          "type": "uint256"
        }
      ],
      "name": "addLiquidity",
      "outputs": [],
      "stateMutability": "nonpayable",
      "type": "function"
    },
    {
      "inputs": [
        {
          "internalType": "contract PowerToken",
          "name": "powerToken",
          "type": "address"
        },
        {
          "internalType": "contract IERC20",
          "name": "paymentToken",
          "type": "address"
        },
        {
          "internalType": "uint112",
          "name": "loanAmount",
          "type": "uint112"
        },
        {
          "internalType": "uint32",
          "name": "duration",
          "type": "uint32"
        },
        {
          "internalType": "uint256",
          "name": "maxPayment",
          "type": "uint256"
        }
      ],
      "name": "borrow",
      "outputs": [],
      "stateMutability": "nonpayable",
      "type": "function"
    },
    {
      "inputs": [
        {
          "internalType": "uint256",
          "name": "interestTokenId",
          "type": "uint256"
        },
        {
          "internalType": "uint256",
          "name": "amount",
          "type": "uint256"
        }
      ],
      "name": "decreaseLiquidity",
      "outputs": [],
      "stateMutability": "nonpayable",
      "type": "function"
    },
    {
      "inputs": [
        {
          "internalType": "address",
          "name": "token",
          "type": "address"
        }
      ],
      "name": "disablePaymentToken",
      "outputs": [],
      "stateMutability": "nonpayable",
      "type": "function"
    },
    {
      "inputs": [
        {
          "internalType": "address",
          "name": "token",
          "type": "address"
        }
      ],
      "name": "enablePaymentToken",
      "outputs": [],
      "stateMutability": "nonpayable",
      "type": "function"
    },
    {
      "inputs": [
        {
          "internalType": "contract PowerToken",
          "name": "powerToken",
          "type": "address"
        },
        {
          "internalType": "contract IERC20",
          "name": "paymentToken",
          "type": "address"
        },
        {
          "internalType": "uint112",
          "name": "amount",
          "type": "uint112"
        },
        {
          "internalType": "uint32",
          "name": "duration",
          "type": "uint32"
        }
      ],
      "name": "estimateLoan",
      "outputs": [
        {
          "internalType": "uint256",
          "name": "",
          "type": "uint256"
        }
      ],
      "stateMutability": "view",
      "type": "function"
    },
    {
      "inputs": [
        {
          "internalType": "uint256",
          "name": "interestTokenId",
          "type": "uint256"
        }
      ],
      "name": "getAccruedInterest",
      "outputs": [
        {
          "internalType": "uint256",
          "name": "",
          "type": "uint256"
        }
      ],
      "stateMutability": "view",
      "type": "function"
    },
    {
      "inputs": [],
      "name": "getAvailableReserve",
      "outputs": [
        {
          "internalType": "uint256",
          "name": "",
          "type": "uint256"
        }
      ],
      "stateMutability": "view",
      "type": "function"
    },
    {
      "inputs": [],
      "name": "getBaseUri",
      "outputs": [
        {
          "internalType": "string",
          "name": "",
          "type": "string"
        }
      ],
      "stateMutability": "view",
      "type": "function"
    },
    {
      "inputs": [],
      "name": "getBondingCurve",
      "outputs": [
        {
          "internalType": "uint256",
          "name": "pole",
          "type": "uint256"
        },
        {
          "internalType": "uint256",
          "name": "slope",
          "type": "uint256"
        }
      ],
      "stateMutability": "view",
      "type": "function"
    },
    {
      "inputs": [],
      "name": "getBorrowToken",
      "outputs": [
        {
          "internalType": "contract IBorrowToken",
          "name": "",
          "type": "address"
        }
      ],
      "stateMutability": "view",
      "type": "function"
    },
    {
      "inputs": [],
      "name": "getBorrowerLoanReturnGracePeriod",
      "outputs": [
        {
          "internalType": "uint32",
          "name": "",
          "type": "uint32"
        }
      ],
      "stateMutability": "view",
      "type": "function"
    },
    {
      "inputs": [],
      "name": "getConverter",
      "outputs": [
        {
          "internalType": "contract IConverter",
          "name": "",
          "type": "address"
        }
      ],
      "stateMutability": "view",
      "type": "function"
    },
    {
      "inputs": [],
      "name": "getEnterpriseCollector",
      "outputs": [
        {
          "internalType": "address",
          "name": "",
          "type": "address"
        }
      ],
      "stateMutability": "view",
      "type": "function"
    },
    {
      "inputs": [],
      "name": "getEnterpriseLoanCollectGracePeriod",
      "outputs": [
        {
          "internalType": "uint32",
          "name": "",
          "type": "uint32"
        }
      ],
      "stateMutability": "view",
      "type": "function"
    },
    {
      "inputs": [],
      "name": "getEnterpriseVault",
      "outputs": [
        {
          "internalType": "address",
          "name": "",
          "type": "address"
        }
      ],
      "stateMutability": "view",
      "type": "function"
    },
    {
      "inputs": [],
      "name": "getGCFeePercent",
      "outputs": [
        {
          "internalType": "uint16",
          "name": "",
          "type": "uint16"
        }
      ],
      "stateMutability": "view",
      "type": "function"
    },
    {
      "inputs": [],
      "name": "getInfo",
      "outputs": [
        {
          "internalType": "string",
          "name": "name",
          "type": "string"
        },
        {
          "internalType": "string",
          "name": "baseUri",
          "type": "string"
        },
        {
          "internalType": "uint256",
          "name": "totalShares",
          "type": "uint256"
        },
        {
          "internalType": "uint32",
          "name": "interestGapHalvingPeriod",
          "type": "uint32"
        },
        {
          "internalType": "uint32",
          "name": "borrowerLoanReturnGracePeriod",
          "type": "uint32"
        },
        {
          "internalType": "uint32",
          "name": "enterpriseLoanCollectGracePeriod",
          "type": "uint32"
        },
        {
          "internalType": "uint16",
          "name": "gcFeePercent",
          "type": "uint16"
        },
        {
          "internalType": "uint256",
          "name": "fixedReserve",
          "type": "uint256"
        },
        {
          "internalType": "uint256",
          "name": "usedReserve",
          "type": "uint256"
        },
        {
          "internalType": "uint112",
          "name": "streamingReserve",
          "type": "uint112"
        },
        {
          "internalType": "uint112",
          "name": "streamingReserveTarget",
          "type": "uint112"
        },
        {
          "internalType": "uint32",
          "name": "streamingReserveUpdated",
          "type": "uint32"
        }
      ],
      "stateMutability": "view",
      "type": "function"
    },
    {
      "inputs": [],
      "name": "getInterestGapHalvingPeriod",
      "outputs": [
        {
          "internalType": "uint32",
          "name": "",
          "type": "uint32"
        }
      ],
      "stateMutability": "view",
      "type": "function"
    },
    {
      "inputs": [],
      "name": "getInterestToken",
      "outputs": [
        {
          "internalType": "contract IInterestToken",
          "name": "",
          "type": "address"
        }
      ],
      "stateMutability": "view",
      "type": "function"
    },
    {
      "inputs": [
        {
          "internalType": "uint256",
          "name": "interestTokenId",
          "type": "uint256"
        }
      ],
      "name": "getLiquidityInfo",
      "outputs": [
        {
          "components": [
            {
              "internalType": "uint256",
              "name": "amount",
              "type": "uint256"
            },
            {
              "internalType": "uint256",
              "name": "shares",
              "type": "uint256"
            },
            {
              "internalType": "uint256",
              "name": "block",
              "type": "uint256"
            }
          ],
          "internalType": "struct EnterpriseStorage.LiquidityInfo",
          "name": "",
          "type": "tuple"
        }
      ],
      "stateMutability": "view",
      "type": "function"
    },
    {
      "inputs": [],
      "name": "getLiquidityToken",
      "outputs": [
        {
          "internalType": "contract IERC20Metadata",
          "name": "",
          "type": "address"
        }
      ],
      "stateMutability": "view",
      "type": "function"
    },
    {
      "inputs": [
        {
          "internalType": "uint256",
          "name": "borrowTokenId",
          "type": "uint256"
        }
      ],
      "name": "getLoanInfo",
      "outputs": [
        {
          "components": [
            {
              "internalType": "uint112",
              "name": "amount",
              "type": "uint112"
            },
            {
              "internalType": "uint16",
              "name": "powerTokenIndex",
              "type": "uint16"
            },
            {
              "internalType": "uint32",
              "name": "borrowingTime",
              "type": "uint32"
            },
            {
              "internalType": "uint32",
              "name": "maturityTime",
              "type": "uint32"
            },
            {
              "internalType": "uint32",
              "name": "borrowerReturnGraceTime",
              "type": "uint32"
            },
            {
              "internalType": "uint32",
              "name": "enterpriseCollectGraceTime",
              "type": "uint32"
            },
            {
              "internalType": "uint112",
              "name": "gcFee",
              "type": "uint112"
            },
            {
              "internalType": "uint16",
              "name": "gcFeeTokenIndex",
              "type": "uint16"
            }
          ],
          "internalType": "struct EnterpriseStorage.LoanInfo",
          "name": "",
          "type": "tuple"
        }
      ],
      "stateMutability": "view",
      "type": "function"
    },
    {
      "inputs": [
        {
          "internalType": "uint256",
          "name": "index",
          "type": "uint256"
        }
      ],
      "name": "getPaymentToken",
      "outputs": [
        {
          "internalType": "address",
          "name": "",
          "type": "address"
        }
      ],
      "stateMutability": "view",
      "type": "function"
    },
    {
      "inputs": [
        {
          "internalType": "contract IERC20",
          "name": "token",
          "type": "address"
        }
      ],
      "name": "getPaymentTokenIndex",
      "outputs": [
        {
          "internalType": "int16",
          "name": "",
          "type": "int16"
        }
      ],
      "stateMutability": "view",
      "type": "function"
    },
    {
      "inputs": [],
      "name": "getPowerTokens",
      "outputs": [
        {
          "internalType": "contract PowerToken[]",
          "name": "",
          "type": "address[]"
        }
      ],
      "stateMutability": "view",
      "type": "function"
    },
    {
      "inputs": [],
      "name": "getProxyAdmin",
      "outputs": [
        {
          "internalType": "contract ProxyAdmin",
          "name": "",
          "type": "address"
        }
      ],
      "stateMutability": "view",
      "type": "function"
    },
    {
      "inputs": [],
      "name": "getReserve",
      "outputs": [
        {
          "internalType": "uint256",
          "name": "",
          "type": "uint256"
        }
      ],
      "stateMutability": "view",
      "type": "function"
    },
    {
      "inputs": [],
      "name": "getUsedReserve",
      "outputs": [
        {
          "internalType": "uint256",
          "name": "",
          "type": "uint256"
        }
      ],
      "stateMutability": "view",
      "type": "function"
    },
    {
      "inputs": [
        {
          "internalType": "uint256",
          "name": "interestTokenId",
          "type": "uint256"
        },
        {
          "internalType": "uint256",
          "name": "amount",
          "type": "uint256"
        }
      ],
      "name": "increaseLiquidity",
      "outputs": [],
      "stateMutability": "nonpayable",
      "type": "function"
    },
    {
      "inputs": [
        {
          "internalType": "string",
          "name": "enterpriseName",
          "type": "string"
        },
        {
          "internalType": "string",
          "name": "baseUri",
          "type": "string"
        },
        {
          "internalType": "uint16",
          "name": "gcFeePercent",
          "type": "uint16"
        },
        {
          "internalType": "contract IConverter",
          "name": "converter",
          "type": "address"
        },
        {
          "internalType": "contract ProxyAdmin",
          "name": "proxyAdmin",
          "type": "address"
        },
        {
          "internalType": "address",
          "name": "owner",
          "type": "address"
        }
      ],
      "name": "initialize",
      "outputs": [],
      "stateMutability": "nonpayable",
      "type": "function"
    },
    {
      "inputs": [
        {
          "internalType": "address",
          "name": "initialOwner",
          "type": "address"
        }
      ],
      "name": "initialize",
      "outputs": [],
      "stateMutability": "nonpayable",
      "type": "function"
    },
    {
      "inputs": [
        {
          "internalType": "contract IERC20Metadata",
          "name": "liquidityToken",
          "type": "address"
        },
        {
          "internalType": "contract IInterestToken",
          "name": "interestToken",
          "type": "address"
        },
        {
          "internalType": "contract IBorrowToken",
          "name": "borrowToken",
          "type": "address"
        }
      ],
      "name": "initializeTokens",
      "outputs": [],
      "stateMutability": "nonpayable",
      "type": "function"
    },
    {
      "inputs": [
        {
          "internalType": "contract PowerToken",
          "name": "powerToken",
          "type": "address"
        }
      ],
      "name": "isRegisteredPowerToken",
      "outputs": [
        {
          "internalType": "bool",
          "name": "",
          "type": "bool"
        }
      ],
      "stateMutability": "view",
      "type": "function"
    },
    {
      "inputs": [
        {
          "internalType": "contract IERC20",
          "name": "token",
          "type": "address"
        }
      ],
      "name": "isSupportedPaymentToken",
      "outputs": [
        {
          "internalType": "bool",
          "name": "",
          "type": "bool"
        }
      ],
      "stateMutability": "view",
      "type": "function"
    },
    {
      "inputs": [
        {
          "internalType": "address",
          "name": "from",
          "type": "address"
        },
        {
          "internalType": "address",
          "name": "to",
          "type": "address"
        },
        {
          "internalType": "uint256",
          "name": "borrowTokenId",
          "type": "uint256"
        }
      ],
      "name": "loanTransfer",
      "outputs": [],
      "stateMutability": "nonpayable",
      "type": "function"
    },
    {
      "inputs": [],
      "name": "owner",
      "outputs": [
        {
          "internalType": "address",
          "name": "",
          "type": "address"
        }
      ],
      "stateMutability": "view",
      "type": "function"
    },
    {
      "inputs": [
        {
          "internalType": "uint256",
          "name": "borrowTokenId",
          "type": "uint256"
        },
        {
          "internalType": "contract IERC20",
          "name": "paymentToken",
          "type": "address"
        },
        {
          "internalType": "uint32",
          "name": "duration",
          "type": "uint32"
        },
        {
          "internalType": "uint256",
          "name": "maxPayment",
          "type": "uint256"
        }
      ],
      "name": "reborrow",
      "outputs": [],
      "stateMutability": "nonpayable",
      "type": "function"
    },
    {
      "inputs": [
        {
          "internalType": "string",
          "name": "serviceName",
          "type": "string"
        },
        {
          "internalType": "string",
          "name": "symbol",
          "type": "string"
        },
        {
          "internalType": "uint32",
          "name": "gapHalvingPeriod",
          "type": "uint32"
        },
        {
          "internalType": "uint112",
          "name": "baseRate",
          "type": "uint112"
        },
        {
          "internalType": "contract IERC20Metadata",
          "name": "baseToken",
          "type": "address"
        },
        {
          "internalType": "uint16",
          "name": "serviceFeePercent",
          "type": "uint16"
        },
        {
          "internalType": "uint32",
          "name": "minLoanDuration",
          "type": "uint32"
        },
        {
          "internalType": "uint32",
          "name": "maxLoanDuration",
          "type": "uint32"
        },
        {
          "internalType": "uint96",
          "name": "minGCFee",
          "type": "uint96"
        },
        {
          "internalType": "bool",
          "name": "allowsPerpetualTokensForever",
          "type": "bool"
        }
      ],
      "name": "registerService",
      "outputs": [],
      "stateMutability": "nonpayable",
      "type": "function"
    },
    {
      "inputs": [
        {
          "internalType": "uint256",
          "name": "interestTokenId",
          "type": "uint256"
        }
      ],
      "name": "removeLiquidity",
      "outputs": [],
      "stateMutability": "nonpayable",
      "type": "function"
    },
    {
      "inputs": [
        {
          "internalType": "uint256",
          "name": "borrowTokenId",
          "type": "uint256"
        }
      ],
      "name": "returnLoan",
      "outputs": [],
      "stateMutability": "nonpayable",
      "type": "function"
    },
    {
      "inputs": [
        {
          "internalType": "string",
          "name": "baseUri",
          "type": "string"
        }
      ],
      "name": "setBaseUri",
      "outputs": [],
      "stateMutability": "nonpayable",
      "type": "function"
    },
    {
      "inputs": [
        {
          "internalType": "uint256",
          "name": "pole",
          "type": "uint256"
        },
        {
          "internalType": "uint256",
          "name": "slope",
          "type": "uint256"
        }
      ],
      "name": "setBondingCurve",
      "outputs": [],
      "stateMutability": "nonpayable",
      "type": "function"
    },
    {
      "inputs": [
        {
          "internalType": "uint32",
          "name": "newPeriod",
          "type": "uint32"
        }
      ],
      "name": "setBorrowerLoanReturnGracePeriod",
      "outputs": [],
      "stateMutability": "nonpayable",
      "type": "function"
    },
    {
      "inputs": [
        {
          "internalType": "contract IConverter",
          "name": "newConverter",
          "type": "address"
        }
      ],
      "name": "setConverter",
      "outputs": [],
      "stateMutability": "nonpayable",
      "type": "function"
    },
    {
      "inputs": [
        {
          "internalType": "address",
          "name": "newCollector",
          "type": "address"
        }
      ],
      "name": "setEnterpriseCollector",
      "outputs": [],
      "stateMutability": "nonpayable",
      "type": "function"
    },
    {
      "inputs": [
        {
          "internalType": "uint32",
          "name": "newPeriod",
          "type": "uint32"
        }
      ],
      "name": "setEnterpriseLoanCollectGracePeriod",
      "outputs": [],
      "stateMutability": "nonpayable",
      "type": "function"
    },
    {
      "inputs": [
        {
          "internalType": "address",
          "name": "newVault",
          "type": "address"
        }
      ],
      "name": "setEnterpriseVault",
      "outputs": [],
      "stateMutability": "nonpayable",
      "type": "function"
    },
    {
      "inputs": [
        {
          "internalType": "uint16",
          "name": "newGcFeePercent",
          "type": "uint16"
        }
      ],
      "name": "setGcFeePercent",
      "outputs": [],
      "stateMutability": "nonpayable",
      "type": "function"
    },
    {
      "inputs": [
        {
          "internalType": "uint32",
          "name": "interestGapHalvingPeriod",
          "type": "uint32"
        }
      ],
      "name": "setInterestGapHalvingPeriod",
      "outputs": [],
      "stateMutability": "nonpayable",
      "type": "function"
    },
    {
      "inputs": [],
      "name": "shutdownEnterpriseForever",
      "outputs": [],
      "stateMutability": "nonpayable",
      "type": "function"
    },
    {
      "inputs": [
        {
          "internalType": "address",
          "name": "newOwner",
          "type": "address"
        }
      ],
      "name": "transferOwnership",
      "outputs": [],
      "stateMutability": "nonpayable",
      "type": "function"
    },
    {
      "inputs": [
        {
          "internalType": "address",
          "name": "implementation",
          "type": "address"
        }
      ],
      "name": "upgradeBorrowToken",
      "outputs": [],
      "stateMutability": "nonpayable",
      "type": "function"
    },
    {
      "inputs": [
        {
          "internalType": "address",
          "name": "implementation",
          "type": "address"
        }
      ],
      "name": "upgradeEnterprise",
      "outputs": [],
      "stateMutability": "nonpayable",
      "type": "function"
    },
    {
      "inputs": [
        {
          "internalType": "address",
          "name": "implementation",
          "type": "address"
        }
      ],
      "name": "upgradeInterestToken",
      "outputs": [],
      "stateMutability": "nonpayable",
      "type": "function"
    },
    {
      "inputs": [
        {
          "internalType": "contract PowerToken",
          "name": "powerToken",
          "type": "address"
        },
        {
          "internalType": "address",
          "name": "implementation",
          "type": "address"
        }
      ],
      "name": "upgradePowerToken",
      "outputs": [],
      "stateMutability": "nonpayable",
      "type": "function"
    },
    {
      "inputs": [
        {
          "internalType": "uint256",
          "name": "interestTokenId",
          "type": "uint256"
        }
      ],
      "name": "withdrawInterest",
      "outputs": [],
      "stateMutability": "nonpayable",
      "type": "function"
    }
  ],
  "bytecode": "0x608060405234801561001057600080fd5b50615bc680620000216000396000f3fe608060405234801561001057600080fd5b50600436106102925760003560e01c8062ca339b146102975780630103f313146102ac5780630714012c146102d757806308669aab146102f75780630cac36b21461030a5780630ea1dc9e1461031f5780632261b07f14610339578063229304dc1461034a5780632b2f60951461036b5780632e365ade1461037e5780632fb2067f146103915780633513e0dc146103b4578063449497ec146103c75780634741efb3146103da57806349bd4e89146103e2578063512a53bc146103f557806351c6590a1461040857806359bf5d391461041b5780635a4598df146104235780635a9b0b891461044157806362c1f38814610461578063644e44df146104745780636815f33714610485578063696f9c81146104985780637791c42d146104ab5780637b024363146104bc5780638188d50d146104cf57806389035b61146104e45780638b3240a0146105105780638c0114b0146105185780638da5cb5b1461052b57806390f55edd146105335780639339ea69146105465780639ab71193146105595780639c7aa7f81461056c5780639c8f9f231461057f578063a0bcfc7f14610592578063a0efd118146105a5578063a554b26d146105ba578063aebb5041146105cb578063b19337a4146105d3578063b406bf6d146105e6578063b56de97e14610607578063b96266fa1461061a578063bfd84fb41461062f578063c1fc16d814610642578063c229478414610655578063c4d66de814610668578063c93d0b921461067b578063cdc2aebf1461068c578063df57f2fa1461069f578063e1a5fa49146106d4578063e9126154146106e7578063ef1f9f39146106fa578063f2fde38b1461070d578063faac38ef14610720578063fcb2884e1461073b575b600080fd5b6102aa6102a5366004614fa8565b610743565b005b6102bf6102ba366004614e39565b610f2b565b60405160019190910b81526020015b60405180910390f35b6102ea6102e53660046152cc565b610f58565b6040516102ce9190615640565b6102aa6103053660046152cc565b6110ad565b610312611273565b6040516102ce9190615551565b6001546001600160a01b03165b6040516102ce9190615421565b6004546001600160a01b031661032c565b61035d610358366004614f4f565b611305565b6040519081526020016102ce565b6102aa610379366004614e39565b61142e565b6102aa61038c366004615362565b6114ea565b6103a461039f366004614e39565b6115cc565b60405190151581526020016102ce565b6102aa6103c2366004615341565b6115ef565b6102aa6103d5366004615294565b6116fc565b6102aa611786565b6102aa6103f0366004615341565b611880565b6102aa610403366004614e71565b611aa9565b6102aa6104163660046152cc565b611d30565b61035d611ed4565b600354600160a01b900463ffffffff165b6040516102ce9190615708565b610449611ef9565b6040516102ce9c9b9a99989796959493929190615564565b6102aa61046f366004614e39565b6120bc565b6000546001600160a01b031661032c565b6102aa6104933660046150ba565b612182565b6102aa6104a6366004615341565b6124ae565b6006546001600160a01b031661032c565b6102aa6104ca366004614e39565b612678565b600654600160a01b900463ffffffff16610434565b6103a46104f2366004614e39565b6001600160a01b031660009081526013602052604090205460ff1690565b61032c6126ff565b6102aa6105263660046152fc565b612720565b61032c612c1a565b6102aa610541366004614e39565b612c30565b61035d6105543660046152cc565b612cf6565b6102aa61056736600461516c565b612d43565b6102aa61057a366004614e39565b6131fe565b6102aa61058d3660046152cc565b613344565b6102aa6105a0366004615009565b61358e565b600654600160c01b900463ffffffff16610434565b6005546001600160a01b031661032c565b61035d613606565b6102aa6105e1366004614e39565b61361d565b600654600160e01b900461ffff1660405161ffff90911681526020016102ce565b6102aa610615366004615362565b6136e3565b6106226137b9565b6040516102ce919061548b565b6102aa61063d366004614e39565b61381a565b6102aa610650366004614e39565b6138b0565b6102aa610663366004614f17565b613931565b6102aa610676366004614e39565b613a3e565b6002546001600160a01b031661032c565b61032c61069a3660046152cc565b613b13565b6106b26106ad3660046152cc565b613b51565b60408051825181526020808401519082015291810151908201526060016102ce565b6102aa6106e2366004615362565b613c2b565b6102aa6106f53660046152cc565b613cf1565b6102aa610708366004614ecd565b6140e6565b6102aa61071b366004614e39565b614175565b600e54600d54604080519283526020830191909152016102ce565b600a5461035d565b600354604080518082019091526002815261373560f01b602082015290600160c01b900460ff16156107915760405162461bcd60e51b81526004016107889190615551565b60405180910390fd5b506001600160a01b03851660009081526013602090815260409182902054825180840190935260018352601b60f91b9183019190915260ff166107e75760405162461bcd60e51b81526004016107889190615551565b506107f1846115cc565b604051806040016040528060028152602001610d0d60f21b8152509061082a5760405162461bcd60e51b81526004016107889190615551565b50604051636e4d898360e01b81526001600160a01b03861690636e4d898390610857908590600401615708565b60206040518083038186803b15801561086f57600080fd5b505afa158015610883573d6000803e3d6000fd5b505050506040513d601f19601f820116820180604052508101906108a79190614eb1565b60405180604001604052806002815260200161343560f01b815250906108e05760405162461bcd60e51b81526004016107889190615551565b506040805180820190915260028152611b9b60f11b60208201526001600160701b0384166109215760405162461bcd60e51b81526004016107889190615551565b5061092a613606565b836001600160701b03161115604051806040016040528060028152602001611a1b60f11b8152509061096f5760405162461bcd60e51b81526004016107889190615551565b506000806000876001600160a01b0316639d5513d78888886040518463ffffffff1660e01b81526004016109a5939291906154d8565b60606040518083038186803b1580156109bd57600080fd5b505afa1580156109d1573d6000803e3d6000fd5b505050506040513d601f19601f820116820180604052508101906109f59190615253565b919450925090506000610a088385615770565b6001600160701b0316905084826001600160701b031682610a29919061579b565b111560405180604001604052806002815260200161343760f01b81525090610a645760405162461bcd60e51b81526004016107889190615551565b50610a7a8882856001600160701b031687614266565b600254610a9f906001600160a01b038a8116913391166001600160701b038616614403565b866001600160701b0316600a6000828254610aba919061579b565b9091555042915060009050610acf87836157b3565b600654909150600090610aef90600160a01b900463ffffffff16836157b3565b600654909150600090610b0f90600160c01b900463ffffffff16846157b3565b90506000600260009054906101000a90046001600160a01b03166001600160a01b031663caa0f92a6040518163ffffffff1660e01b8152600401602060405180830381600087803b158015610b6357600080fd5b505af1158015610b77573d6000803e3d6000fd5b505050506040513d601f19601f82011682018060405250810190610b9b91906152e4565b90506040518061010001604052808c6001600160701b031681526020018e6001600160a01b03166381045ead6040518163ffffffff1660e01b815260040160206040518083038186803b158015610bf157600080fd5b505afa158015610c05573d6000803e3d6000fd5b505050506040513d601f19601f82011682018060405250810190610c2991906152b0565b61ffff1681526020018663ffffffff1681526020018563ffffffff1681526020018463ffffffff1681526020018363ffffffff168152602001876001600160701b03168152602001610c7a8e610f2b565b61ffff9081169091526000838152601160209081526040918290208451815492860151868501516060880151608089015160a08a01516001600160701b039586166001600160801b031998891617600160701b958b16860217600160801b600160c01b031916600160801b63ffffffff9586160263ffffffff60a01b191617600160a01b93851693909302929092176001600160c01b0316600160c01b918416919091026001600160e01b031617600160e01b929091169190910217835560c08701516001909301805460e0909801519390921696909316959095179316029190911790915560025490516335313c2160e11b815282916001600160a01b031690636a62784290610d8f903390600401615421565b602060405180830381600087803b158015610da957600080fd5b505af1158015610dbd573d6000803e3d6000fd5b505050506040513d601f19601f82011682018060405250810190610de191906152e4565b14610dfc57634e487b7160e01b600052600160045260246000fd5b60405163f8642f2960e01b8152600481018290526001600160a01b038e169063f8642f2990602401600060405180830381600087803b158015610e3e57600080fd5b505af1158015610e52573d6000803e3d6000fd5b505050508c6001600160a01b0316336001600160a01b0316827f0606c34c8c2ec99faed8921c4f1a3a5c1108fc00ebe3884ff753ab267ef6ec288f8f8d8d8d8d8d8d8d610e9d611ed4565b600a54604080516001600160a01b03909c168c526001600160701b039a8b1660208d0152988a16988b019890985295881660608a015296909316608088015263ffffffff91821660a0880152811660c087015290811660e08601529092166101008401526101208301919091526101408201526101600160405180910390a450505050505050505050505050565b6001600160a01b038116600090815260076020526040812054610f5290600190810b615811565b92915050565b6040805161010081018252600080825260208201819052818301819052606082018190526080820181905260a0820181905260c0820181905260e082015260025491516331a9108f60e11b81526004810184905290916001600160a01b031690636352211e9060240160206040518083038186803b158015610fd957600080fd5b505afa158015610fed573d6000803e3d6000fd5b505050506040513d601f19601f820116820180604052508101906110119190614e55565b505060009081526011602090815260409182902082516101008101845281546001600160701b038082168352600160701b80830461ffff90811696850196909652600160801b830463ffffffff90811697850197909752600160a01b830487166060850152600160c01b830487166080850152600160e01b90920490951660a083015260019092015493841660c082015292041660e082015290565b6001546040516331a9108f60e11b815260048101839052829133916001600160a01b0390911690636352211e9060240160206040518083038186803b1580156110f557600080fd5b505afa158015611109573d6000803e3d6000fd5b505050506040513d601f19601f8201168201806040525081019061112d9190614e55565b6001600160a01b031614604051806040016040528060018152602001603360f81b8152509061116f5760405162461bcd60e51b81526004016107889190615551565b5060008281526012602052604081209061118884612cf6565b9050611192613606565b811115604051806040016040528060028152602001611a1b60f11b815250906111ce5760405162461bcd60e51b81526004016107889190615551565b506000546111e6906001600160a01b03163383614474565b60006111f0611ed4565b90506000611202846000015483614493565b905061121d83828660010154611218919061587e565b6144b5565b600184018190556000336001600160a01b031687600080516020615a9183398151915286600c548888611250919061587e565b600a5460405161126394939291906156ed565b60405180910390a4505050505050565b606060108054611282906158c1565b80601f01602080910402602001604051908101604052809291908181526020018280546112ae906158c1565b80156112fb5780601f106112d0576101008083540402835291602001916112fb565b820191906000526020600020905b8154815290600101906020018083116112de57829003601f168201915b5050505050905090565b600354604080518082019091526002815261373560f01b6020820152600091600160c01b900460ff161561134c5760405162461bcd60e51b81526004016107889190615551565b506001600160a01b03851660009081526013602090815260409182902054825180840190935260018352601b60f91b9183019190915260ff166113a25760405162461bcd60e51b81526004016107889190615551565b50604051631466370160e01b81526001600160a01b038616906314663701906113d3908790879087906004016154d8565b60206040518083038186803b1580156113eb57600080fd5b505afa1580156113ff573d6000803e3d6000fd5b505050506040513d601f19601f8201168201806040525081019061142391906152e4565b90505b949350505050565b33611437612c1a565b6001600160a01b031614604051806040016040528060018152602001603360f81b815250906114795760405162461bcd60e51b81526004016107889190615551565b506114826126ff565b60015460405163266a23b160e21b81526001600160a01b03928316926399a88ec4926114b5929116908590600401615508565b600060405180830381600087803b1580156114cf57600080fd5b505af11580156114e3573d6000803e3d6000fd5b5050505050565b336114f3612c1a565b6001600160a01b031614604051806040016040528060018152602001603360f81b815250906115355760405162461bcd60e51b81526004016107889190615551565b506006546040805180820190915260028152610d8d60f21b60208201529063ffffffff600160c01b909104811690831611156115845760405162461bcd60e51b81526004016107889190615551565b506006805463ffffffff60a01b1916600160a01b63ffffffff841602179055604051600080516020615b11833981519152906115c1908390615708565b60405180910390a150565b6001600160a01b0316600090815260076020526040812054600190810b900b1390565b336115f8612c1a565b6001600160a01b031614604051806040016040528060018152602001603360f81b8152509061163a5760405162461bcd60e51b81526004016107889190615551565b5061164a600a600360401b6157d2565b82111560405180604001604052806002815260200161373760f01b815250906116865760405162461bcd60e51b81526004016107889190615551565b5060408051808201909152600281526106e760f31b6020820152600160401b8211156116c55760405162461bcd60e51b81526004016107889190615551565b50600e829055600d81905560408051838152602081018390526000805160206159f183398151915291015b60405180910390a15050565b33611705612c1a565b6001600160a01b031614604051806040016040528060018152602001603360f81b815250906117475760405162461bcd60e51b81526004016107889190615551565b506006805461ffff60e01b1916600160e01b61ffff841690810291909117909155604051908152600080516020615a31833981519152906020016115c1565b600354604080518082019091526002815261373560f01b602082015290600160c01b900460ff16156117cb5760405162461bcd60e51b81526004016107889190615551565b50336117d5612c1a565b6001600160a01b031614604051806040016040528060018152602001603360f81b815250906118175760405162461bcd60e51b81526004016107889190615551565b5060038054600160c01b60ff60c01b199091161790556000600a819055600b8054600160701b81046001600160701b03166001600160701b03199091161790556040517f6f6348718c9a361558c634b516777b2b06bb2bf4140ad3d3bfaa44270fc2c0729190a1565b6001546040516331a9108f60e11b815260048101849052839133916001600160a01b0390911690636352211e9060240160206040518083038186803b1580156118c857600080fd5b505afa1580156118dc573d6000803e3d6000fd5b505050506040513d601f19601f820116820180604052508101906119009190614e55565b6001600160a01b031614604051806040016040528060018152602001603360f81b815250906119425760405162461bcd60e51b81526004016107889190615551565b5060006012600085815260200190815260200160002090504381600201541060405180604001604052806002815260200161035360f41b8152509061199a5760405162461bcd60e51b81526004016107889190615551565b5080546040805180820190915260028152611a1b60f11b6020820152908411156119d75760405162461bcd60e51b81526004016107889190615551565b506119e0613606565b831115604051806040016040528060028152602001611a1b60f11b81525090611a1c5760405162461bcd60e51b81526004016107889190615551565b50600054611a34906001600160a01b03163385614474565b6000611a3e611ed4565b90506000611a4c8583614493565b90508260010154811115611a61575060018201545b611a6b85826144b5565b6001830180548290039055825485900383556004336001600160a01b031687600080516020615a9183398151915288600c548a88611250919061587e565b600280546040805180820190915291825261333960f01b60208301526001600160a01b03163314611aed5760405162461bcd60e51b81526004016107889190615551565b506000818152601160209081526040918290205482518084019093526002835261068760f31b918301919091526001600160701b03169081611b425760405162461bcd60e51b81526004016107889190615551565b5060008281526011602052604081205460148054600160a01b830463ffffffff164211936001600160a01b03898116159490891615939192600160701b90910461ffff16908110611ba357634e487b7160e01b600052603260045260246000fd5b6000918252602090912001546001600160a01b031690508115611c255760405163079cc67960e41b81526001600160a01b038216906379cc679090611bee908b908990600401615450565b600060405180830381600087803b158015611c0857600080fd5b505af1158015611c1c573d6000803e3d6000fd5b50505050611d26565b8215611c59576040516340c10f1960e01b81526001600160a01b038216906340c10f1990611bee908a908990600401615450565b83611cf6576040516333bebb7760e01b81526001600160a01b03898116600483015288811660248301526001600160701b03871660448301528216906333bebb7790606401602060405180830381600087803b158015611cb857600080fd5b505af1158015611ccc573d6000803e3d6000fd5b505050506040513d601f19601f82011682018060405250810190611cf09190614eb1565b50611d26565b60408051808201825260028152611a9960f11b6020820152905162461bcd60e51b81526107889190600401615551565b5050505050505050565b600354604080518082019091526002815261373560f01b602082015290600160c01b900460ff1615611d755760405162461bcd60e51b81526004016107889190615551565b50600054611d8e906001600160a01b0316333084614403565b6000611d98611ed4565b90506000600c54600014611db557611db08383614493565b611db7565b825b9050611dc38382614537565b6001546040516335313c2160e11b81526000916001600160a01b031690636a62784290611df4903390600401615421565b602060405180830381600087803b158015611e0e57600080fd5b505af1158015611e22573d6000803e3d6000fd5b505050506040513d601f19601f82011682018060405250810190611e4691906152e4565b60408051606081018252868152602080820186815243838501908152600086815260129093529390912091518255516001808301919091559151600290910155909150336001600160a01b031682600080516020615a9183398151915287600c548989611eb3919061579b565b600a54604051611ec694939291906156ed565b60405180910390a450505050565b6000611ede614588565b6001600160701b0316600954611ef4919061579b565b905090565b600c54600354600654600954600a54600b54600f805460609788976000978897889788978897889788978897889788979496601096939563ffffffff600160a01b94859004811696948404811695600160c01b850482169561ffff600160e01b9687900416959394936001600160701b0380841694600160701b8504909116939190910416908c90611f8a906158c1565b80601f0160208091040260200160405190810160405280929190818152602001828054611fb6906158c1565b80156120035780601f10611fd857610100808354040283529160200191612003565b820191906000526020600020905b815481529060010190602001808311611fe657829003601f168201915b50505050509b508a8054612016906158c1565b80601f0160208091040260200160405190810160405280929190818152602001828054612042906158c1565b801561208f5780601f106120645761010080835404028352916020019161208f565b820191906000526020600020905b81548152906001019060200180831161207257829003601f168201915b50505050509a509b509b509b509b509b509b509b509b509b509b509b509b50909192939495969798999a9b565b336120c5612c1a565b6001600160a01b031614604051806040016040528060018152602001603360f81b815250906121075760405162461bcd60e51b81526004016107889190615551565b50604080518082019091526002815261363160f01b60208201526001600160a01b0382166121485760405162461bcd60e51b81526004016107889190615551565b50600580546001600160a01b0319166001600160a01b038316179055604051600080516020615af1833981519152906115c1908390615421565b600f805461218f906158c1565b6040805180820190915260018152601960f91b60208201529150156121c75760405162461bcd60e51b81526004016107889190615551565b506121d181613a3e565b81600080516020615a1183398151915280546001600160a01b03929092166001600160a01b03199283161790556003805490911633179055865161221c90600f9060208a0190614c39565b5061222960108787614cbd565b5060068054600480546001600160a01b03199081166001600160a01b03888116919091179092556005805492861692909116821790556003805463ffffffff60a01b191661127560a71b179055600165ffff0000000160c01b0319909116600160e01b61ffff8816026001600160c01b03191617176102a360a61b1763ffffffff60c01b19166102a360c71b1790556122c76064600560401b6157d2565b600e556122d9600a600360401b6157d2565b600d55604051600080516020615991833981519152906122fc9088908890615522565b60405180910390a1600654604051600160e01b90910461ffff168152600080516020615a318339815191529060200160405180910390a1600454604051600080516020615a718339815191529161235e916001600160a01b0390911690615421565b60405180910390a1600654604051600080516020615a5183398151915291612391916001600160a01b0390911690615421565b60405180910390a1600554604051600080516020615af1833981519152916123c4916001600160a01b0390911690615421565b60405180910390a1600080516020615b51833981519152600360149054906101000a900463ffffffff166040516123fb9190615708565b60405180910390a1600080516020615b11833981519152600660149054906101000a900463ffffffff166040516124329190615708565b60405180910390a16000805160206159d1833981519152600660189054906101000a900463ffffffff166040516124699190615708565b60405180910390a16000805160206159f1833981519152600e54600d5460405161249d929190918252602082015260400190565b60405180910390a150505050505050565b600354604080518082019091526002815261373560f01b602082015290600160c01b900460ff16156124f35760405162461bcd60e51b81526004016107889190615551565b506001546040516331a9108f60e11b815260048101849052839133916001600160a01b0390911690636352211e9060240160206040518083038186803b15801561253c57600080fd5b505afa158015612550573d6000803e3d6000fd5b505050506040513d601f19601f820116820180604052508101906125749190614e55565b6001600160a01b031614604051806040016040528060018152602001603360f81b815250906125b65760405162461bcd60e51b81526004016107889190615551565b506000546125cf906001600160a01b0316333085614403565b60006125d9611ed4565b90506000600c546000146125f6576125f18483614493565b6125f8565b835b90506126048482614537565b600085815260126020526040812080549091869183919061262690849061579b565b9250508190555081816001016000828254612641919061579b565b90915550504360028201556003336001600160a01b031687600080516020615a9183398151915288600c548a89611250919061579b565b33612681612c1a565b6001600160a01b031614604051806040016040528060018152602001603360f81b815250906126c35760405162461bcd60e51b81526004016107889190615551565b506126cc6126ff565b60025460405163266a23b160e21b81526001600160a01b03928316926399a88ec4926114b5929116908590600401615508565b6000600080516020615a118339815191525b546001600160a01b0316919050565b600354604080518082019091526002815261373560f01b602082015290600160c01b900460ff16156127655760405162461bcd60e51b81526004016107889190615551565b5061276f836115cc565b604051806040016040528060028152602001610d0d60f21b815250906127a85760405162461bcd60e51b81526004016107889190615551565b50600084815260116020908152604091829020805483518085019094526002845261068760f31b9284019290925291906001600160701b03166127fe5760405162461bcd60e51b81526004016107889190615551565b50805460148054600092600160701b900461ffff1690811061283057634e487b7160e01b600052603260045260246000fd5b600091825260209091200154604051636e4d898360e01b81526001600160a01b0390911691508190636e4d89839061286c908790600401615708565b60206040518083038186803b15801561288457600080fd5b505afa158015612898573d6000803e3d6000fd5b505050506040513d601f19601f820116820180604052508101906128bc9190614eb1565b60405180604001604052806002815260200161343560f01b815250906128f55760405162461bcd60e51b81526004016107889190615551565b5081544290612912908690600160a01b900463ffffffff166157b3565b63ffffffff16101560405180604001604052806002815260200161343960f01b815250906129535760405162461bcd60e51b81526004016107889190615551565b508154600a80546001600160701b039092169160009061297490849061587e565b90915550508154604051639d5513d760e01b815260009182916001600160a01b03851691639d5513d7916129ba918b916001600160701b03909116908b906004016154d8565b60606040518083038186803b1580156129d257600080fd5b505afa1580156129e6573d6000803e3d6000fd5b505050506040513d601f19601f82011682018060405250810190612a0a9190615253565b508554600a80546001600160701b03909216909101905590925090506000612a328284615770565b6001600160701b031690508581111560405180604001604052806002815260200161343760f01b81525090612a7a5760405162461bcd60e51b81526004016107889190615551565b50612a908882846001600160701b031686614266565b8454600090612aad908990600160a01b900463ffffffff166157b3565b600654909150600090612acd90600160a01b900463ffffffff16836157b3565b600654909150600090612aed90600160c01b900463ffffffff16846157b3565b8854600160a01b600160e01b031916600160a01b63ffffffff8681169190910263ffffffff60c01b191691909117600160c01b85831602176001600160e01b0316600160e01b9183169190910217895560405163f8642f2960e01b8152600481018e90529091506001600160a01b0388169063f8642f2990602401600060405180830381600087803b158015612b8257600080fd5b505af1158015612b96573d6000803e3d6000fd5b5050604080516001600160a01b038f1681526001600160701b038a8116602083015289168183015263ffffffff87811660608301528681166080830152851660a082015290513393508f92507f89d8cafb66c1254c316d74e8fb6f0386656c633ae83763dffdf797ca4843a29c9181900360c00190a3505050505050505050505050565b60006000805160206159b1833981519152612711565b33612c39612c1a565b6001600160a01b031614604051806040016040528060018152602001603360f81b81525090612c7b5760405162461bcd60e51b81526004016107889190615551565b506040805180820190915260028152611b1960f11b60208201526001600160a01b038216612cbc5760405162461bcd60e51b81526004016107889190615551565b50600680546001600160a01b0319166001600160a01b038316179055604051600080516020615a51833981519152906115c1908390615421565b600081815260126020526040812060018101548290612d1c90612d17611ed4565b6145f0565b8254909150811115612d39578154612d34908261587e565b611426565b6000949350505050565b33612d4c612c1a565b6001600160a01b031614604051806040016040528060018152602001603360f81b81525090612d8e5760405162461bcd60e51b81526004016107889190615551565b50600354604080518082019091526002815261373560f01b602082015290600160c01b900460ff1615612dd45760405162461bcd60e51b81526004016107889190615551565b50604080518082019091526002815261034360f41b60208201526001600160a01b038716612e155760405162461bcd60e51b81526004016107889190615551565b50601454604080518082019091526002815261343160f01b60208201529061ffff11612e545760405162461bcd60e51b81526004016107889190615551565b506003546000906001600160a01b031663c31011cc612e716126ff565b6040518263ffffffff1660e01b8152600401612e8d9190615421565b602060405180830381600087803b158015612ea757600080fd5b505af1158015612ebb573d6000803e3d6000fd5b505050506040513d601f19601f82011682018060405250810190612edf9190614e55565b905060008060009054906101000a90046001600160a01b03166001600160a01b03166395d89b416040518163ffffffff1660e01b815260040160006040518083038186803b158015612f3057600080fd5b505afa158015612f44573d6000803e3d6000fd5b505050506040513d6000823e601f3d908101601f19168201604052612f6c9190810190615048565b90506000818c604051602001612f839291906153e5565b6040516020818303038152906040529050826001600160a01b0316631624f6c68e8360008054906101000a90046001600160a01b03166001600160a01b031663313ce5676040518163ffffffff1660e01b815260040160206040518083038186803b158015612ff157600080fd5b505afa158015613005573d6000803e3d6000fd5b505050506040513d601f19601f82011682018060405250810190613029919061537c565b6040518463ffffffff1660e01b815260040161304793929190615607565b600060405180830381600087803b15801561306157600080fd5b505af1158015613075573d6000803e3d6000fd5b505050505050806001600160a01b0316632ef0cf8b308a868d6014805490508d8c8c8f8c6040518b63ffffffff1660e01b81526004016131339a999897969594939291906001600160a01b039a8b1681526001600160701b039990991660208a01526001600160601b0397909716604089015263ffffffff958616606089015261ffff94851660808901529290971660a0870152831660c08601529490911660e0840152929092166101008201529015156101208201526101400190565b600060405180830381600087803b15801561314d57600080fd5b505af1158015613161573d6000803e3d6000fd5b50506014805460018082019092557fce6d7b5282bd9a3661ae061feed1dbda4e52ab073b1f9285be6e155d9c38d4ec0180546001600160a01b0319166001600160a01b038616908117909155600081815260136020526040808220805460ff191690941790935591519093507f2fa31fbaacf5eaf61d648ea7528ada6efb69bfb06d2c3bd35ce511a820fce53e9250a25050505050505050505050565b33613207612c1a565b6001600160a01b031614604051806040016040528060018152602001603360f81b815250906132495760405162461bcd60e51b81526004016107889190615551565b506001600160a01b03811660009081526007602090815260409182902054825180840190935260028352611b9960f11b91830191909152600190810b900b6132a45760405162461bcd60e51b81526004016107889190615551565b506001600160a01b038116600090815260076020526040812054600190810b900b1315613341576001600160a01b0381166000908152600760205260409020546132f09060010b6158fc565b6001600160a01b038216600090815260076020526040808220805460019490940b61ffff1661ffff19909416939093179092559051600080516020615b31833981519152916115c191849190615435565b50565b6001546040516331a9108f60e11b815260048101839052829133916001600160a01b0390911690636352211e9060240160206040518083038186803b15801561338c57600080fd5b505afa1580156133a0573d6000803e3d6000fd5b505050506040513d601f19601f820116820180604052508101906133c49190614e55565b6001600160a01b031614604051806040016040528060018152602001603360f81b815250906134065760405162461bcd60e51b81526004016107889190615551565b5060006012600084815260200190815260200160002090504381600201541060405180604001604052806002815260200161035360f41b8152509061345e5760405162461bcd60e51b81526004016107889190615551565b506001810154600061346e611ed4565b9050600061347c83836145f0565b9050613486613606565b811115604051806040016040528060028152602001611a1b60f11b815250906134c25760405162461bcd60e51b81526004016107889190615551565b506000546134da906001600160a01b03163383614474565b6134e481846144b5565b600154604051630852cd8d60e31b8152600481018890526001600160a01b03909116906342966c6890602401600060405180830381600087803b15801561352a57600080fd5b505af115801561353e573d6000803e3d6000fd5b5050506000878152601260205260408120818155600181018290556002908101919091559050336001600160a01b031687600080516020615a9183398151915284600c548688611250919061587e565b33613597612c1a565b6001600160a01b031614604051806040016040528060018152602001603360f81b815250906135d95760405162461bcd60e51b81526004016107889190615551565b506135e660108383614cbd565b5060008051602061599183398151915282826040516116f0929190615522565b6000600a54613613611ed4565b611ef4919061587e565b33613626612c1a565b6001600160a01b031614604051806040016040528060018152602001603360f81b815250906136685760405162461bcd60e51b81526004016107889190615551565b50604080518082019091526002815261363360f01b60208201526001600160a01b0382166136a95760405162461bcd60e51b81526004016107889190615551565b50600480546001600160a01b0319166001600160a01b038316179055604051600080516020615a71833981519152906115c1908390615421565b336136ec612c1a565b6001600160a01b031614604051806040016040528060018152602001603360f81b8152509061372e5760405162461bcd60e51b81526004016107889190615551565b50600654604080518082019091526002815261363560f01b60208201529063ffffffff808416600160a01b90920416111561377c5760405162461bcd60e51b81526004016107889190615551565b506006805463ffffffff60c01b1916600160c01b63ffffffff8416021790556040516000805160206159d1833981519152906115c1908390615708565b606060148054806020026020016040519081016040528092919081815260200182805480156112fb57602002820191906000526020600020905b81546001600160a01b031681526001909101906020018083116137f3575050505050905090565b33613823612c1a565b6001600160a01b031614604051806040016040528060018152602001603360f81b815250906138655760405162461bcd60e51b81526004016107889190615551565b50604080518082019091526002815261373160f01b60208201526001600160a01b0382166138a65760405162461bcd60e51b81526004016107889190615551565b5061334181614600565b336138b9612c1a565b6001600160a01b031614604051806040016040528060018152602001603360f81b815250906138fb5760405162461bcd60e51b81526004016107889190615551565b506139046126ff565b6001600160a01b03166399a88ec430836040518363ffffffff1660e01b81526004016114b5929190615508565b3361393a612c1a565b6001600160a01b031614604051806040016040528060018152602001603360f81b8152509061397c5760405162461bcd60e51b81526004016107889190615551565b506001600160a01b03821660009081526013602090815260409182902054825180840190935260018352601b60f91b9183019190915260ff166139d25760405162461bcd60e51b81526004016107889190615551565b506139db6126ff565b6001600160a01b03166399a88ec483836040518363ffffffff1660e01b8152600401613a08929190615508565b600060405180830381600087803b158015613a2257600080fd5b505af1158015613a36573d6000803e3d6000fd5b505050505050565b6000613a48612c1a565b6001600160a01b031614604051806040016040528060018152602001601960f91b81525090613a8a5760405162461bcd60e51b81526004016107889190615551565b50604080518082019091526002815261373360f01b60208201526001600160a01b038216613acb5760405162461bcd60e51b81526004016107889190615551565b506000805160206159b183398151915280546001600160a01b0319166001600160a01b038316908117909155604051600090600080516020615ad1833981519152908290a350565b600060088281548110613b3657634e487b7160e01b600052603260045260246000fd5b6000918252602090912001546001600160a01b031692915050565b613b7560405180606001604052806000815260200160008152602001600081525090565b6001546040516331a9108f60e11b8152600481018490526001600160a01b0390911690636352211e9060240160206040518083038186803b158015613bb957600080fd5b505afa158015613bcd573d6000803e3d6000fd5b505050506040513d601f19601f82011682018060405250810190613bf19190614e55565b5050600090815260126020908152604091829020825160608101845281548152600182015492810192909252600201549181019190915290565b33613c34612c1a565b6001600160a01b031614604051806040016040528060018152602001603360f81b81525090613c765760405162461bcd60e51b81526004016107889190615551565b506040805180820190915260028152611b1b60f11b602082015263ffffffff8216613cb45760405162461bcd60e51b81526004016107889190615551565b506003805463ffffffff60a01b1916600160a01b63ffffffff841602179055604051600080516020615b51833981519152906115c1908390615708565b60008181526011602090815260409182902082516101008101845281546001600160701b0380821680845261ffff600160701b80850482168689015263ffffffff600160801b86048116878b0152600160a01b860481166060880152600160c01b860481166080880152600160e01b90950490941660a086015260019095015491821660c085015291900490921660e082015283518085019094526002845261068760f31b92840192909252909190613dbd5760405162461bcd60e51b81526004016107889190615551565b506002546040516331a9108f60e11b8152600481018490526000916001600160a01b031690636352211e9060240160206040518083038186803b158015613e0357600080fd5b505afa158015613e17573d6000803e3d6000fd5b505050506040513d601f19601f82011682018060405250810190613e3b9190614e55565b905060004290508063ffffffff16836080015163ffffffff161080613e685750336001600160a01b038316145b60405180604001604052806002815260200161353360f01b81525090613ea15760405162461bcd60e51b81526004016107889190615551565b508063ffffffff168360a0015163ffffffff161080613ec85750336001600160a01b038316145b80613edd57506005546001600160a01b031633145b604051806040016040528060028152602001610d4d60f21b81525090613f165760405162461bcd60e51b81526004016107889190615551565b50600354600160c01b900460ff16613f4d5782600001516001600160701b0316600a6000828254613f47919061587e565b90915550505b6014836020015161ffff1681548110613f7657634e487b7160e01b600052603260045260246000fd5b9060005260206000200160009054906101000a90046001600160a01b03166001600160a01b0316336001600160a01b0316857f8aaa205a62511774004899f15c5181b7c5865c381dcb3320af8e91b31b6326ab86600001518760c0015160088960e0015161ffff1681548110613ffc57634e487b7160e01b600052603260045260246000fd5b6000918252602090912001546001600160a01b0316614019611ed4565b600a54604080516001600160701b0396871681529490951660208501526001600160a01b0392909216838501526060830152608082015290519081900360a00190a4600254604051633f34d4cf60e21b8152600481018690523360248201526001600160a01b039091169063fcd3533c90604401600060405180830381600087803b1580156140a757600080fd5b505af11580156140bb573d6000803e3d6000fd5b50505060009485525050601160205250506040812090815560010180546001600160801b0319169055565b6000546040805180820190915260018152601960f91b6020820152906001600160a01b0316156141295760405162461bcd60e51b81526004016107889190615551565b50600080546001600160a01b038086166001600160a01b03199283161790925560018054858416908316179055600280549284169290911691909117905561417083614600565b505050565b3361417e612c1a565b6001600160a01b031614604051806040016040528060018152602001603360f81b815250906141c05760405162461bcd60e51b81526004016107889190615551565b50604080518082019091526002815261373360f01b60208201526001600160a01b0382166142015760405162461bcd60e51b81526004016107889190615551565b50806001600160a01b0316614214612c1a565b6001600160a01b0316600080516020615ad183398151915260405160405180910390a36000805160206159b183398151915280546001600160a01b0319166001600160a01b0392909216919091179055565b61427b6001600160a01b038516333086614403565b6000548390839083906001600160a01b038881169116146143d4576004805460405163095ea7b360e01b81526001600160a01b03808b169363095ea7b3936142c8939216918b9101615472565b602060405180830381600087803b1580156142e257600080fd5b505af11580156142f6573d6000803e3d6000fd5b505050506040513d601f19601f8201168201806040525081019061431a9190614eb1565b506004805460005460405163029b465d60e01b81526001600160a01b038b811694820194909452602481018a9052908316604482015291169063029b465d90606401602060405180830381600087803b15801561437657600080fd5b505af115801561438a573d6000803e3d6000fd5b505050506040513d601f19601f820116820180604052508101906143ae91906152e4565b9250856143bb84876157f2565b6143c591906157d2565b91506143d1828461587e565b90505b6006546000546143f1916001600160a01b03918216911684614474565b6143fa8161474b565b50505050505050565b6040516001600160a01b038085166024830152831660448201526064810182905261446e9085906323b872dd60e01b906084015b60408051601f198184030181529190526020810180516001600160e01b03166001600160e01b0319909316929092179091526147fd565b50505050565b6141708363a9059cbb60e01b8484604051602401614437929190615472565b60008183600c546144a491906157f2565b6144ae91906157d2565b9392505050565b80600c60008282546144c7919061587e565b909155505060095482116144e357600980548390039055614516565b60006144ed6148cf565b6001600160701b031690508281600954614507919061579b565b614511919061587e565b600955505b600080516020615b718339815191526009546040516116f091815260200190565b80600c6000828254614549919061579b565b925050819055508160096000828254614562919061579b565b9091555050600954604051908152600080516020615b71833981519152906020016116f0565b600b546000906145d39063ffffffff600160e01b820416906145bd906001600160701b0380821691600160701b900416615856565b600354600160a01b900463ffffffff164261498d565b600b54611ef49190600160701b90046001600160701b0316615856565b600c546000906144a484846157f2565b6001600160a01b038116600090815260076020526040902054600190810b900b6146b65760088054600181810183557ff3f7a9fe364faab93b216da50a3214154f22a0a2b415b23a84c8169e8b636ee390910180546001600160a01b0385166001600160a01b03199091168117909155915460009283526007602052604092839020805491830b61ffff1661ffff199092169190911790559051600080516020615b31833981519152916115c191849190615435565b6001600160a01b038116600090815260076020526040812054600190810b900b1215613341576001600160a01b0381166000908152600760205260409020546147019060010b6158fc565b6001600160a01b03821660009081526007602052604090819020805461ffff191661ffff600194850b1617905551600080516020615b31833981519152916115c191849190615435565b614753614588565b600b80546001600160701b0319166001600160701b03928316178082558392600e91614788918591600160701b900416615770565b82546001600160701b039182166101009390930a928302928202191691909117909155600b805463ffffffff4216600160e01b026001600160e01b038216811792839055604051600080516020615ab183398151915295506115c1949182169282169290921792600160701b900416906156d3565b6000614852826040518060400160405280602081526020017f5361666545524332303a206c6f772d6c6576656c2063616c6c206661696c6564815250856001600160a01b0316614b2e9092919063ffffffff16565b80519091501561417057808060200190518101906148709190614eb1565b6141705760405162461bcd60e51b815260206004820152602a60248201527f5361666545524332303a204552433230206f7065726174696f6e20646964206e6044820152691bdd081cdd58d8d9595960b21b6064820152608401610788565b60006148d9614588565b600b80546001600160701b0319168082559192508291600e9061490d908490600160701b90046001600160701b0316615856565b82546001600160701b039182166101009390930a928302928202191691909117909155600b805463ffffffff4216600160e01b026001600160e01b038216811792839055604051600080516020615ab18339815191529550614982949182169282169290921792600160701b900416906156d3565b60405180910390a190565b60008463ffffffff168263ffffffff161015604051806040016040528060018152602001600760fb1b815250906149d75760405162461bcd60e51b81526004016107889190615551565b5084820391508263ffffffff168263ffffffff1681614a0657634e487b7160e01b600052601260045260246000fd5b0463ffffffff16846001600160701b0316901c93508263ffffffff168263ffffffff1681614a4457634e487b7160e01b600052601260045260246000fd5b06915063ffffffff82161580614a6157506001600160701b038416155b15614a6d575082611426565b60006001600160701b0385168163ffffffff86811690861671b17217f7d1cf79abc9e3b39803f2f6af40f30281614ab457634e487b7160e01b600052601260045260246000fd5b049050600160901b5b8215614b2157928201928082840281614ae657634e487b7160e01b600052601260045260246000fd5b0493849003939250600160901b018082840281614b1357634e487b7160e01b600052601260045260246000fd5b049250600160901b01614abd565b5091979650505050505050565b6060611426848460008585843b614b875760405162461bcd60e51b815260206004820152601d60248201527f416464726573733a2063616c6c20746f206e6f6e2d636f6e74726163740000006044820152606401610788565b600080866001600160a01b03168587604051614ba391906153c9565b60006040518083038185875af1925050503d8060008114614be0576040519150601f19603f3d011682016040523d82523d6000602084013e614be5565b606091505b5091509150614bf5828286614c00565b979650505050505050565b60608315614c0f5750816144ae565b825115614c1f5782518084602001fd5b8160405162461bcd60e51b81526004016107889190615551565b828054614c45906158c1565b90600052602060002090601f016020900481019282614c675760008555614cad565b82601f10614c8057805160ff1916838001178555614cad565b82800160010185558215614cad579182015b82811115614cad578251825591602001919060010190614c92565b50614cb9929150614d31565b5090565b828054614cc9906158c1565b90600052602060002090601f016020900481019282614ceb5760008555614cad565b82601f10614d045782800160ff19823516178555614cad565b82800160010185558215614cad579182015b82811115614cad578235825591602001919060010190614d16565b5b80821115614cb95760008155600101614d32565b8035614d518161595d565b919050565b8035614d5181615948565b60008083601f840112614d72578182fd5b5081356001600160401b03811115614d88578182fd5b602083019150836020828501011115614da057600080fd5b9250929050565b600082601f830112614db7578081fd5b8135614dca614dc582615749565b615719565b818152846020838601011115614dde578283fd5b816020850160208301379081016020019190915292915050565b8035614d518161596b565b8035614d5181615980565b803563ffffffff81168114614d5157600080fd5b80356001600160601b0381168114614d5157600080fd5b600060208284031215614e4a578081fd5b81356144ae81615948565b600060208284031215614e66578081fd5b81516144ae81615948565b600080600060608486031215614e85578182fd5b8335614e9081615948565b92506020840135614ea081615948565b929592945050506040919091013590565b600060208284031215614ec2578081fd5b81516144ae8161595d565b600080600060608486031215614ee1578081fd5b8335614eec81615948565b92506020840135614efc81615948565b91506040840135614f0c81615948565b809150509250925092565b60008060408385031215614f29578182fd5b8235614f3481615948565b91506020830135614f4481615948565b809150509250929050565b60008060008060808587031215614f64578182fd5b8435614f6f81615948565b93506020850135614f7f81615948565b92506040850135614f8f8161596b565b9150614f9d60608601614e0e565b905092959194509250565b600080600080600060a08688031215614fbf578283fd5b8535614fca81615948565b94506020860135614fda81615948565b93506040860135614fea8161596b565b9250614ff860608701614e0e565b949793965091946080013592915050565b6000806020838503121561501b578182fd5b82356001600160401b03811115615030578283fd5b61503c85828601614d61565b90969095509350505050565b600060208284031215615059578081fd5b81516001600160401b0381111561506e578182fd5b8201601f8101841361507e578182fd5b805161508c614dc582615749565b8181528560208385010111156150a0578384fd5b6150b1826020830160208601615895565b95945050505050565b600080600080600080600060c0888a0312156150d4578485fd5b87356001600160401b03808211156150ea578687fd5b6150f68b838c01614da7565b985060208a013591508082111561510b578687fd5b506151188a828b01614d61565b909750955050604088013561512c81615980565b9350606088013561513c81615948565b9250608088013561514c81615948565b915060a088013561515c81615948565b8091505092959891949750929550565b6000806000806000806000806000806101408b8d03121561518b578384fd5b8a356001600160401b03808211156151a1578586fd5b6151ad8e838f01614da7565b9b5060208d01359150808211156151c2578586fd5b506151cf8d828e01614da7565b9950506151de60408c01614e0e565b97506151ec60608c01614df8565b96506151fa60808c01614d56565b955061520860a08c01614e03565b945061521660c08c01614e0e565b935061522460e08c01614e0e565b92506152336101008c01614e22565b91506152426101208c01614d46565b90509295989b9194979a5092959850565b600080600060608486031215615267578081fd5b83516152728161596b565b60208501519093506152838161596b565b6040850151909250614f0c8161596b565b6000602082840312156152a5578081fd5b81356144ae81615980565b6000602082840312156152c1578081fd5b81516144ae81615980565b6000602082840312156152dd578081fd5b5035919050565b6000602082840312156152f5578081fd5b5051919050565b60008060008060808587031215615311578182fd5b84359350602085013561532381615948565b925061533160408601614e0e565b9396929550929360600135925050565b60008060408385031215615353578182fd5b50508035926020909101359150565b600060208284031215615373578081fd5b6144ae82614e0e565b60006020828403121561538d578081fd5b815160ff811681146144ae578182fd5b600081518084526153b5816020860160208601615895565b601f01601f19169290920160200192915050565b600082516153db818460208701615895565b9190910192915050565b600083516153f7818460208801615895565b600160fd1b9083019081528351615415816001840160208801615895565b01600101949350505050565b6001600160a01b0391909116815260200190565b6001600160a01b039290921682521515602082015260400190565b6001600160a01b039290921682526001600160701b0316602082015260400190565b6001600160a01b03929092168252602082015260400190565b6020808252825182820181905260009190848201906040850190845b818110156154cc5783516001600160a01b0316835292840192918401916001016154a7565b50909695505050505050565b6001600160a01b039390931683526001600160701b0391909116602083015263ffffffff16604082015260600190565b6001600160a01b0392831681529116602082015260400190565b60208152816020820152818360408301376000818301604090810191909152601f909201601f19160101919050565b6020815260006144ae602083018461539d565b6101808152600061557961018083018f61539d565b828103602084015261558b818f61539d565b604084018e905263ffffffff8d811660608601528c811660808601528b1660a085015261ffff8a1660c085015260e0840189905261010084018890526001600160701b03878116610120860152861661014085015291506155e99050565b63ffffffff83166101608301529d9c50505050505050505050505050565b60608152600061561a606083018661539d565b828103602084015261562c818661539d565b91505060ff83166040830152949350505050565b81516001600160701b0316815260208083015161ffff169082015260408083015163ffffffff9081169183019190915260608084015182169083015260808084015182169083015260a080840151918216908301526101008201905060c08301516156b660c08401826001600160701b03169052565b5060e08301516156cc60e084018261ffff169052565b5092915050565b6001600160701b0392831681529116602082015260400190565b93845260208401929092526040830152606082015260800190565b63ffffffff91909116815260200190565b604051601f8201601f191681016001600160401b038111828210171561574157615741615932565b604052919050565b60006001600160401b0382111561576257615762615932565b50601f01601f191660200190565b60006001600160701b038281168482168083038211156157925761579261591c565b01949350505050565b600082198211156157ae576157ae61591c565b500190565b600063ffffffff8083168185168083038211156157925761579261591c565b6000826157ed57634e487b7160e01b81526012600452602481fd5b500490565b600081600019048311821515161561580c5761580c61591c565b500290565b60008160010b8360010b82811281617fff19018312811516156158365761583661591c565b81617fff01831381161561584c5761584c61591c565b5090039392505050565b60006001600160701b03838116908316818110156158765761587661591c565b039392505050565b6000828210156158905761589061591c565b500390565b60005b838110156158b0578181015183820152602001615898565b8381111561446e5750506000910152565b600181811c908216806158d557607f821691505b602082108114156158f657634e487b7160e01b600052602260045260246000fd5b50919050565b60008160010b617fff198114156159155761591561591c565b9003919050565b634e487b7160e01b600052601160045260246000fd5b634e487b7160e01b600052604160045260246000fd5b6001600160a01b038116811461334157600080fd5b801515811461334157600080fd5b6001600160701b038116811461334157600080fd5b61ffff8116811461334157600080fdfe87cdeaffd8e70903d6ce7cc983fac3b09ca79e83818124c98e47a1d70f8027d64f471908b72bb76dae5bd24599026e7bf3ddb256497722888ffa422f83729ede7c5a703a1928f0d18042c0454d90ddfe036b518c756a39cd82aca939b71d801b926b69b9f7735227079a308fce165b111b96e2983e70a86a381ee047675ff39fd1248cccb5fef9131c731321e43e9a924840ffee7dc68c7d1d3e5cb7dedcae0327894f6b9c469a3eddbe98dd0df54563b6437b20982876e0c2cd60c211a156460dc14fdd751203f0c4dac8cc93c303e991c5f8e60af35674d5c82061929762ddbefcd50991bb64333037879282220d78a901bb4809351643f56628af8a4656df969ecf0238cef8bf2ca02ab63362da99efb5c15700bebc679429551846b4918bc8dfab451067f726e1077626e126c7f77149630cc1b0056cf60307a289a118298be0079c531659141344cd1fd0a4f28419497f9722a3daafe3b4186f6b6457e07aa9698a01d2094fb8a580e2c72a6fc3f3bfecfd4cbdc457461118c59a6fefe4f6ae16e9e9771497fc501d1caac6168e19c36e4639d7273813e3b57066035f2a92a4dc1fa715a8cafb0cdc060f729eb1dfdddcbc9effbdc8d822cdf5ebcf4907971f32e7fcf39ef3d42dd88b6e08b31dd4bd8f53e7299c95b669c82e23807e2fa70de76be90dc9c5d9243b0bc73c3d963ba703a0a396f29134bf5b4e6197c180a2646970667358221220587338b4121473b364f20be6fb3296fa5aee093b510284cce480daef51bc426e64736f6c63430008040033",
  "linkReferences": {},
  "deployedLinkReferences": {}
}