{
  "_format": "hh-sol-artifact-1",
  "contractName": "Enterprise",
  "sourceName": "contracts/Enterprise.sol",
  "abi": [
    {
      "anonymous": false,
      "inputs": [
        {
          "indexed": true,
          "internalType": "address",
          "name": "powerToken",
          "type": "address"
        },
        {
          "indexed": false,
          "internalType": "uint256",
          "name": "tokenId",
          "type": "uint256"
        },
        {
          "indexed": false,
          "internalType": "uint32",
          "name": "from",
          "type": "uint32"
        },
        {
          "indexed": false,
          "internalType": "uint32",
          "name": "to",
          "type": "uint32"
        }
      ],
      "name": "Borrowed",
      "type": "event"
    },
    {
      "anonymous": false,
      "inputs": [
        {
          "indexed": true,
          "internalType": "address",
          "name": "previousOwner",
          "type": "address"
        },
        {
          "indexed": true,
          "internalType": "address",
          "name": "newOwner",
          "type": "address"
        }
      ],
      "name": "OwnershipTransferred",
      "type": "event"
    },
    {
      "anonymous": false,
      "inputs": [
        {
          "indexed": true,
          "internalType": "address",
          "name": "powerToken",
          "type": "address"
        },
        {
          "indexed": false,
          "internalType": "uint32",
          "name": "halfLife",
          "type": "uint32"
        },
        {
          "indexed": false,
          "internalType": "uint112",
          "name": "factor",
          "type": "uint112"
        }
      ],
      "name": "ServiceRegistered",
      "type": "event"
    },
    {
      "inputs": [
        {
          "internalType": "uint256",
          "name": "liquidityAmount",
          "type": "uint256"
        }
      ],
      "name": "addLiquidity",
      "outputs": [],
      "stateMutability": "nonpayable",
      "type": "function"
    },
    {
      "inputs": [
        {
          "internalType": "contract IPowerToken",
          "name": "powerToken",
          "type": "address"
        },
        {
          "internalType": "contract IERC20",
          "name": "paymentToken",
          "type": "address"
        },
        {
          "internalType": "uint112",
          "name": "amount",
          "type": "uint112"
        },
        {
          "internalType": "uint256",
          "name": "maximumPayment",
          "type": "uint256"
        },
        {
          "internalType": "uint32",
          "name": "duration",
          "type": "uint32"
        }
      ],
      "name": "borrow",
      "outputs": [],
      "stateMutability": "nonpayable",
      "type": "function"
    },
    {
      "inputs": [
        {
          "internalType": "address",
          "name": "token",
          "type": "address"
        }
      ],
      "name": "disablePaymentToken",
      "outputs": [],
      "stateMutability": "nonpayable",
      "type": "function"
    },
    {
      "inputs": [
        {
          "internalType": "address",
          "name": "token",
          "type": "address"
        }
      ],
      "name": "enablePaymentToken",
      "outputs": [],
      "stateMutability": "nonpayable",
      "type": "function"
    },
    {
      "inputs": [
        {
          "internalType": "contract IPowerToken",
          "name": "powerToken",
          "type": "address"
        },
        {
          "internalType": "contract IERC20",
          "name": "paymentToken",
          "type": "address"
        },
        {
          "internalType": "uint112",
          "name": "amount",
          "type": "uint112"
        },
        {
          "internalType": "uint32",
          "name": "duration",
          "type": "uint32"
        }
      ],
      "name": "estimateLoan",
      "outputs": [
        {
          "internalType": "uint256",
          "name": "",
          "type": "uint256"
        }
      ],
      "stateMutability": "view",
      "type": "function"
    },
    {
      "inputs": [],
      "name": "getAvailableReserve",
      "outputs": [
        {
          "internalType": "uint256",
          "name": "",
          "type": "uint256"
        }
      ],
      "stateMutability": "view",
      "type": "function"
    },
    {
      "inputs": [],
      "name": "getBaseUri",
      "outputs": [
        {
          "internalType": "string",
          "name": "",
          "type": "string"
        }
      ],
      "stateMutability": "view",
      "type": "function"
    },
    {
      "inputs": [],
      "name": "getBorrowToken",
      "outputs": [
        {
          "internalType": "contract IBorrowToken",
          "name": "",
          "type": "address"
        }
      ],
      "stateMutability": "view",
      "type": "function"
    },
    {
      "inputs": [],
      "name": "getBorrowerLoanReturnGracePeriod",
      "outputs": [
        {
          "internalType": "uint32",
          "name": "",
          "type": "uint32"
        }
      ],
      "stateMutability": "view",
      "type": "function"
    },
    {
      "inputs": [],
      "name": "getConverter",
      "outputs": [
        {
          "internalType": "contract IConverter",
          "name": "",
          "type": "address"
        }
      ],
      "stateMutability": "view",
      "type": "function"
    },
    {
      "inputs": [],
      "name": "getEnterpriseCollector",
      "outputs": [
        {
          "internalType": "address",
          "name": "",
          "type": "address"
        }
      ],
      "stateMutability": "view",
      "type": "function"
    },
    {
      "inputs": [],
      "name": "getEnterpriseLoanCollectGracePeriod",
      "outputs": [
        {
          "internalType": "uint32",
          "name": "",
          "type": "uint32"
        }
      ],
      "stateMutability": "view",
      "type": "function"
    },
    {
      "inputs": [],
      "name": "getEnterpriseVault",
      "outputs": [
        {
          "internalType": "address",
          "name": "",
          "type": "address"
        }
      ],
      "stateMutability": "view",
      "type": "function"
    },
    {
      "inputs": [],
      "name": "getEstimator",
      "outputs": [
        {
          "internalType": "contract IEstimator",
          "name": "",
          "type": "address"
        }
      ],
      "stateMutability": "view",
      "type": "function"
    },
    {
      "inputs": [],
      "name": "getGCFeePercent",
      "outputs": [
        {
          "internalType": "uint16",
          "name": "",
          "type": "uint16"
        }
      ],
      "stateMutability": "view",
      "type": "function"
    },
    {
      "inputs": [],
      "name": "getInfo",
      "outputs": [
        {
          "internalType": "string",
          "name": "name",
          "type": "string"
        },
        {
          "internalType": "string",
          "name": "baseUri",
          "type": "string"
        },
        {
          "internalType": "uint256",
          "name": "totalShares",
          "type": "uint256"
        },
        {
          "internalType": "uint32",
          "name": "interestHalfLife",
          "type": "uint32"
        },
        {
          "internalType": "uint32",
          "name": "borrowerLoanReturnGracePeriod",
          "type": "uint32"
        },
        {
          "internalType": "uint32",
          "name": "enterpriseLoanCollectGracePeriod",
          "type": "uint32"
        },
        {
          "internalType": "uint16",
          "name": "gcFeePercent",
          "type": "uint16"
        },
        {
          "internalType": "uint256",
          "name": "fixedReserve",
          "type": "uint256"
        },
        {
          "internalType": "uint256",
          "name": "usedReserve",
          "type": "uint256"
        },
        {
          "internalType": "uint112",
          "name": "streamingReserve",
          "type": "uint112"
        },
        {
          "internalType": "uint112",
          "name": "streamingReserveTarget",
          "type": "uint112"
        },
        {
          "internalType": "uint32",
          "name": "streamingReserveUpdated",
          "type": "uint32"
        }
      ],
      "stateMutability": "view",
      "type": "function"
    },
    {
      "inputs": [],
      "name": "getInterestHalfLife",
      "outputs": [
        {
          "internalType": "uint32",
          "name": "",
          "type": "uint32"
        }
      ],
      "stateMutability": "view",
      "type": "function"
    },
    {
      "inputs": [],
      "name": "getInterestToken",
      "outputs": [
        {
          "internalType": "contract IInterestToken",
          "name": "",
          "type": "address"
        }
      ],
      "stateMutability": "view",
      "type": "function"
    },
    {
      "inputs": [
        {
          "internalType": "uint256",
          "name": "tokenId",
          "type": "uint256"
        }
      ],
      "name": "getLiquidityInfo",
      "outputs": [
        {
          "components": [
            {
              "internalType": "uint256",
              "name": "amount",
              "type": "uint256"
            },
            {
              "internalType": "uint256",
              "name": "shares",
              "type": "uint256"
            },
            {
              "internalType": "uint256",
              "name": "block",
              "type": "uint256"
            }
          ],
          "internalType": "struct EnterpriseStorage.LiquidityInfo",
          "name": "",
          "type": "tuple"
        }
      ],
      "stateMutability": "view",
      "type": "function"
    },
    {
      "inputs": [],
      "name": "getLiquidityToken",
      "outputs": [
        {
          "internalType": "contract IERC20Metadata",
          "name": "",
          "type": "address"
        }
      ],
      "stateMutability": "view",
      "type": "function"
    },
    {
      "inputs": [
        {
          "internalType": "uint256",
          "name": "tokenId",
          "type": "uint256"
        }
      ],
      "name": "getLoanInfo",
      "outputs": [
        {
          "components": [
            {
              "internalType": "uint112",
              "name": "amount",
              "type": "uint112"
            },
            {
              "internalType": "uint16",
              "name": "powerTokenIndex",
              "type": "uint16"
            },
            {
              "internalType": "uint32",
              "name": "borrowingTime",
              "type": "uint32"
            },
            {
              "internalType": "uint32",
              "name": "maturityTime",
              "type": "uint32"
            },
            {
              "internalType": "uint32",
              "name": "borrowerReturnGraceTime",
              "type": "uint32"
            },
            {
              "internalType": "uint32",
              "name": "enterpriseCollectGraceTime",
              "type": "uint32"
            },
            {
              "internalType": "uint112",
              "name": "gcFee",
              "type": "uint112"
            },
            {
              "internalType": "uint16",
              "name": "gcFeeTokenIndex",
              "type": "uint16"
            }
          ],
          "internalType": "struct EnterpriseStorage.LoanInfo",
          "name": "",
          "type": "tuple"
        }
      ],
      "stateMutability": "view",
      "type": "function"
    },
    {
      "inputs": [
        {
          "internalType": "uint256",
          "name": "tokenId",
          "type": "uint256"
        }
      ],
      "name": "getOwedInterest",
      "outputs": [
        {
          "internalType": "uint256",
          "name": "",
          "type": "uint256"
        }
      ],
      "stateMutability": "view",
      "type": "function"
    },
    {
      "inputs": [
        {
          "internalType": "uint256",
          "name": "index",
          "type": "uint256"
        }
      ],
      "name": "getPowerToken",
      "outputs": [
        {
          "internalType": "contract IPowerToken",
          "name": "",
          "type": "address"
        }
      ],
      "stateMutability": "view",
      "type": "function"
    },
    {
      "inputs": [],
      "name": "getPowerTokenImpl",
      "outputs": [
        {
          "internalType": "address",
          "name": "",
          "type": "address"
        }
      ],
      "stateMutability": "view",
      "type": "function"
    },
    {
      "inputs": [
        {
          "internalType": "contract IPowerToken",
          "name": "powerToken",
          "type": "address"
        }
      ],
      "name": "getPowerTokenIndex",
      "outputs": [
        {
          "internalType": "uint16",
          "name": "",
          "type": "uint16"
        }
      ],
      "stateMutability": "view",
      "type": "function"
    },
    {
      "inputs": [],
      "name": "getPowerTokens",
      "outputs": [
        {
          "internalType": "contract IPowerToken[]",
          "name": "",
          "type": "address[]"
        }
      ],
      "stateMutability": "view",
      "type": "function"
    },
    {
      "inputs": [],
      "name": "getPowerTokensInfo",
      "outputs": [
        {
          "internalType": "address[]",
          "name": "addresses",
          "type": "address[]"
        },
        {
          "internalType": "string[]",
          "name": "names",
          "type": "string[]"
        },
        {
          "internalType": "string[]",
          "name": "symbols",
          "type": "string[]"
        },
        {
          "internalType": "uint32[]",
          "name": "halfLifes",
          "type": "uint32[]"
        }
      ],
      "stateMutability": "view",
      "type": "function"
    },
    {
      "inputs": [],
      "name": "getReserve",
      "outputs": [
        {
          "internalType": "uint256",
          "name": "",
          "type": "uint256"
        }
      ],
      "stateMutability": "view",
      "type": "function"
    },
    {
      "inputs": [
        {
          "internalType": "contract IPowerToken",
          "name": "powerToken",
          "type": "address"
        }
      ],
      "name": "getServiceBaseRate",
      "outputs": [
        {
          "internalType": "uint112",
          "name": "",
          "type": "uint112"
        }
      ],
      "stateMutability": "view",
      "type": "function"
    },
    {
      "inputs": [
        {
          "internalType": "contract IPowerToken",
          "name": "powerToken",
          "type": "address"
        }
      ],
      "name": "getServiceBaseToken",
      "outputs": [
        {
          "internalType": "contract IERC20Metadata",
          "name": "",
          "type": "address"
        }
      ],
      "stateMutability": "view",
      "type": "function"
    },
    {
      "inputs": [
        {
          "internalType": "contract IPowerToken",
          "name": "powerToken",
          "type": "address"
        }
      ],
      "name": "getServiceFeePercent",
      "outputs": [
        {
          "internalType": "uint112",
          "name": "",
          "type": "uint112"
        }
      ],
      "stateMutability": "view",
      "type": "function"
    },
    {
      "inputs": [
        {
          "internalType": "contract IPowerToken",
          "name": "powerToken",
          "type": "address"
        }
      ],
      "name": "getServiceHalfLife",
      "outputs": [
        {
          "internalType": "uint32",
          "name": "",
          "type": "uint32"
        }
      ],
      "stateMutability": "view",
      "type": "function"
    },
    {
      "inputs": [
        {
          "internalType": "contract IPowerToken",
          "name": "powerToken",
          "type": "address"
        }
      ],
      "name": "getServiceMaxLoanDuration",
      "outputs": [
        {
          "internalType": "uint32",
          "name": "",
          "type": "uint32"
        }
      ],
      "stateMutability": "view",
      "type": "function"
    },
    {
      "inputs": [
        {
          "internalType": "contract IPowerToken",
          "name": "powerToken",
          "type": "address"
        }
      ],
      "name": "getServiceMinGCFee",
      "outputs": [
        {
          "internalType": "uint112",
          "name": "",
          "type": "uint112"
        }
      ],
      "stateMutability": "view",
      "type": "function"
    },
    {
      "inputs": [
        {
          "internalType": "contract IPowerToken",
          "name": "powerToken",
          "type": "address"
        }
      ],
      "name": "getServiceMinLoanDuration",
      "outputs": [
        {
          "internalType": "uint32",
          "name": "",
          "type": "uint32"
        }
      ],
      "stateMutability": "view",
      "type": "function"
    },
    {
      "inputs": [],
      "name": "getUsedReserve",
      "outputs": [
        {
          "internalType": "uint256",
          "name": "",
          "type": "uint256"
        }
      ],
      "stateMutability": "view",
      "type": "function"
    },
    {
      "inputs": [
        {
          "internalType": "address",
          "name": "initialOwner",
          "type": "address"
        }
      ],
      "name": "initialize",
      "outputs": [],
      "stateMutability": "nonpayable",
      "type": "function"
    },
    {
      "inputs": [
        {
          "internalType": "string",
          "name": "enterpriseName",
          "type": "string"
        },
        {
          "internalType": "string",
          "name": "baseUri",
          "type": "string"
        },
        {
          "internalType": "contract IEstimator",
          "name": "estimator",
          "type": "address"
        },
        {
          "internalType": "contract IConverter",
          "name": "converter",
          "type": "address"
        },
        {
          "internalType": "address",
          "name": "owner",
          "type": "address"
        }
      ],
      "name": "initialize",
      "outputs": [],
      "stateMutability": "nonpayable",
      "type": "function"
    },
    {
      "inputs": [
        {
          "internalType": "address",
          "name": "powerTokenImpl",
          "type": "address"
        },
        {
          "internalType": "contract IERC20Metadata",
          "name": "liquidityToken",
          "type": "address"
        },
        {
          "internalType": "contract IInterestToken",
          "name": "interestToken",
          "type": "address"
        },
        {
          "internalType": "contract IBorrowToken",
          "name": "borrowToken",
          "type": "address"
        }
      ],
      "name": "initializeTokens",
      "outputs": [],
      "stateMutability": "nonpayable",
      "type": "function"
    },
    {
      "inputs": [
        {
          "internalType": "contract IPowerToken",
          "name": "powerToken",
          "type": "address"
        }
      ],
      "name": "isRegisteredPowerToken",
      "outputs": [
        {
          "internalType": "bool",
          "name": "",
          "type": "bool"
        }
      ],
      "stateMutability": "view",
      "type": "function"
    },
    {
      "inputs": [
        {
          "internalType": "contract IPowerToken",
          "name": "powerToken",
          "type": "address"
        },
        {
          "internalType": "uint32",
          "name": "duration",
          "type": "uint32"
        }
      ],
      "name": "isServiceAllowedLoanDuration",
      "outputs": [
        {
          "internalType": "bool",
          "name": "",
          "type": "bool"
        }
      ],
      "stateMutability": "view",
      "type": "function"
    },
    {
      "inputs": [
        {
          "internalType": "contract IERC20",
          "name": "token",
          "type": "address"
        }
      ],
      "name": "isSupportedPaymentToken",
      "outputs": [
        {
          "internalType": "bool",
          "name": "",
          "type": "bool"
        }
      ],
      "stateMutability": "view",
      "type": "function"
    },
    {
      "inputs": [
        {
          "internalType": "address",
          "name": "from",
          "type": "address"
        },
        {
          "internalType": "address",
          "name": "to",
          "type": "address"
        },
        {
          "internalType": "uint256",
          "name": "tokenId",
          "type": "uint256"
        }
      ],
      "name": "loanTransfer",
      "outputs": [],
      "stateMutability": "nonpayable",
      "type": "function"
    },
    {
      "inputs": [],
      "name": "owner",
      "outputs": [
        {
          "internalType": "address",
          "name": "",
          "type": "address"
        }
      ],
      "stateMutability": "view",
      "type": "function"
    },
    {
      "inputs": [
        {
          "internalType": "uint256",
          "name": "index",
          "type": "uint256"
        }
      ],
      "name": "paymentToken",
      "outputs": [
        {
          "internalType": "address",
          "name": "",
          "type": "address"
        }
      ],
      "stateMutability": "view",
      "type": "function"
    },
    {
      "inputs": [
        {
          "internalType": "contract IERC20",
          "name": "token",
          "type": "address"
        }
      ],
      "name": "paymentTokenIndex",
      "outputs": [
        {
          "internalType": "int16",
          "name": "",
          "type": "int16"
        }
      ],
      "stateMutability": "view",
      "type": "function"
    },
    {
      "inputs": [
        {
          "internalType": "uint256",
          "name": "tokenId",
          "type": "uint256"
        },
        {
          "internalType": "contract IERC20",
          "name": "paymentToken",
          "type": "address"
        },
        {
          "internalType": "uint256",
          "name": "maximumPayment",
          "type": "uint256"
        },
        {
          "internalType": "uint32",
          "name": "duration",
          "type": "uint32"
        }
      ],
      "name": "reborrow",
      "outputs": [],
      "stateMutability": "nonpayable",
      "type": "function"
    },
    {
      "inputs": [
        {
          "internalType": "string",
          "name": "serviceName",
          "type": "string"
        },
        {
          "internalType": "string",
          "name": "symbol",
          "type": "string"
        },
        {
          "internalType": "uint32",
          "name": "halfLife",
          "type": "uint32"
        },
        {
          "internalType": "uint112",
          "name": "baseRate",
          "type": "uint112"
        },
        {
          "internalType": "contract IERC20Metadata",
          "name": "baseToken",
          "type": "address"
        },
        {
          "internalType": "uint16",
          "name": "serviceFee",
          "type": "uint16"
        },
        {
          "internalType": "uint32",
          "name": "minLoanDuration",
          "type": "uint32"
        },
        {
          "internalType": "uint32",
          "name": "maxLoanDuration",
          "type": "uint32"
        },
        {
          "internalType": "uint112",
          "name": "minGCFee",
          "type": "uint112"
        }
      ],
      "name": "registerService",
      "outputs": [],
      "stateMutability": "nonpayable",
      "type": "function"
    },
    {
      "inputs": [
        {
          "internalType": "uint256",
          "name": "tokenId",
          "type": "uint256"
        }
      ],
      "name": "removeLiquidity",
      "outputs": [],
      "stateMutability": "nonpayable",
      "type": "function"
    },
    {
      "inputs": [
        {
          "internalType": "uint256",
          "name": "tokenId",
          "type": "uint256"
        }
      ],
      "name": "returnLoan",
      "outputs": [],
      "stateMutability": "nonpayable",
      "type": "function"
    },
    {
      "inputs": [
        {
          "internalType": "string",
          "name": "baseUri",
          "type": "string"
        }
      ],
      "name": "setBaseUri",
      "outputs": [],
      "stateMutability": "nonpayable",
      "type": "function"
    },
    {
      "inputs": [
        {
          "internalType": "uint32",
          "name": "newPeriod",
          "type": "uint32"
        }
      ],
      "name": "setBorrowerLoanReturnGracePeriod",
      "outputs": [],
      "stateMutability": "nonpayable",
      "type": "function"
    },
    {
      "inputs": [
        {
          "internalType": "contract IConverter",
          "name": "newConverter",
          "type": "address"
        }
      ],
      "name": "setConverter",
      "outputs": [],
      "stateMutability": "nonpayable",
      "type": "function"
    },
    {
      "inputs": [
        {
          "internalType": "address",
          "name": "newCollector",
          "type": "address"
        }
      ],
      "name": "setEnterpriseCollector",
      "outputs": [],
      "stateMutability": "nonpayable",
      "type": "function"
    },
    {
      "inputs": [
        {
          "internalType": "uint32",
          "name": "newPeriod",
          "type": "uint32"
        }
      ],
      "name": "setEnterpriseLoanCollectGracePeriod",
      "outputs": [],
      "stateMutability": "nonpayable",
      "type": "function"
    },
    {
      "inputs": [
        {
          "internalType": "address",
          "name": "newVault",
          "type": "address"
        }
      ],
      "name": "setEnterpriseVault",
      "outputs": [],
      "stateMutability": "nonpayable",
      "type": "function"
    },
    {
      "inputs": [
        {
          "internalType": "contract IEstimator",
          "name": "newEstimator",
          "type": "address"
        }
      ],
      "name": "setEstimator",
      "outputs": [],
      "stateMutability": "nonpayable",
      "type": "function"
    },
    {
      "inputs": [
        {
          "internalType": "uint16",
          "name": "newGcFeePercent",
          "type": "uint16"
        }
      ],
      "name": "setGcFeePercent",
      "outputs": [],
      "stateMutability": "nonpayable",
      "type": "function"
    },
    {
      "inputs": [
        {
          "internalType": "uint32",
          "name": "interestHalfLife",
          "type": "uint32"
        }
      ],
      "name": "setInterestHalfLife",
      "outputs": [],
      "stateMutability": "nonpayable",
      "type": "function"
    },
    {
      "inputs": [
        {
          "internalType": "contract IPowerToken",
          "name": "powerToken",
          "type": "address"
        },
        {
          "internalType": "uint112",
          "name": "baseRate",
          "type": "uint112"
        },
        {
          "internalType": "contract IERC20Metadata",
          "name": "baseToken",
          "type": "address"
        },
        {
          "internalType": "uint112",
          "name": "minGCFee",
          "type": "uint112"
        }
      ],
      "name": "setServiceBaseRate",
      "outputs": [],
      "stateMutability": "nonpayable",
      "type": "function"
    },
    {
      "inputs": [
        {
          "internalType": "contract IPowerToken",
          "name": "powerToken",
          "type": "address"
        },
        {
          "internalType": "uint16",
          "name": "newServiceFeePercent",
          "type": "uint16"
        }
      ],
      "name": "setServiceFeePercent",
      "outputs": [],
      "stateMutability": "nonpayable",
      "type": "function"
    },
    {
      "inputs": [
        {
          "internalType": "contract IPowerToken[]",
          "name": "powerToken",
          "type": "address[]"
        },
        {
          "internalType": "uint16[]",
          "name": "newServiceFeePercent",
          "type": "uint16[]"
        }
      ],
      "name": "setServiceFeePercentBatch",
      "outputs": [],
      "stateMutability": "nonpayable",
      "type": "function"
    },
    {
      "inputs": [
        {
          "internalType": "contract IPowerToken",
          "name": "powerToken",
          "type": "address"
        },
        {
          "internalType": "uint32",
          "name": "minLoanDuration",
          "type": "uint32"
        },
        {
          "internalType": "uint32",
          "name": "maxLoanDuration",
          "type": "uint32"
        }
      ],
      "name": "setServiceLoanDurationLimits",
      "outputs": [],
      "stateMutability": "nonpayable",
      "type": "function"
    },
    {
      "inputs": [
        {
          "internalType": "address",
          "name": "newOwner",
          "type": "address"
        }
      ],
      "name": "transferOwnership",
      "outputs": [],
      "stateMutability": "nonpayable",
      "type": "function"
    },
    {
      "inputs": [
        {
          "internalType": "contract IPowerToken",
          "name": "powerToken",
          "type": "address"
        },
        {
          "internalType": "uint256",
          "name": "amount",
          "type": "uint256"
        }
      ],
      "name": "unwrap",
      "outputs": [
        {
          "internalType": "bool",
          "name": "",
          "type": "bool"
        }
      ],
      "stateMutability": "nonpayable",
      "type": "function"
    },
    {
      "inputs": [
        {
          "internalType": "uint256",
          "name": "tokenId",
          "type": "uint256"
        }
      ],
      "name": "withdrawInterest",
      "outputs": [],
      "stateMutability": "nonpayable",
      "type": "function"
    },
    {
      "inputs": [
        {
          "internalType": "contract IPowerToken",
          "name": "powerToken",
          "type": "address"
        },
        {
          "internalType": "uint256",
          "name": "amount",
          "type": "uint256"
        }
      ],
      "name": "wrap",
      "outputs": [
        {
          "internalType": "bool",
          "name": "",
          "type": "bool"
        }
      ],
      "stateMutability": "nonpayable",
      "type": "function"
    },
    {
      "inputs": [
        {
          "internalType": "contract IPowerToken",
          "name": "powerToken",
          "type": "address"
        },
        {
          "internalType": "address",
          "name": "to",
          "type": "address"
        },
        {
          "internalType": "uint256",
          "name": "amount",
          "type": "uint256"
        }
      ],
      "name": "wrapTo",
      "outputs": [
        {
          "internalType": "bool",
          "name": "",
          "type": "bool"
        }
      ],
      "stateMutability": "nonpayable",
      "type": "function"
    }
  ],
  "bytecode": "0x60806040526004805463ffffffff60a01b191660e160a61b17905560088054600160a01b600160e01b031916650546000002a360a61b17905534801561004457600080fd5b506157e580620000556000396000f3fe608060405234801561001057600080fd5b50600436106103fc5760003560e01c806390f55edd11610215578063c2fe50dd11610125578063e9028683116100b8578063f4e28f9a11610087578063f4e28f9a14610aa2578063faaed4ad14610adb578063fbac9a5514610aee578063fc0915b114610b14578063fcb2884e14610b2757600080fd5b8063e902868314610a56578063e912615414610a69578063edc1a62814610a7c578063f2fde38b14610a8f57600080fd5b8063db0ed6a0116100f4578063db0ed6a0146109c4578063df57f2fa146109d7578063e2b17a1614610a0c578063e36eca0c14610a1f57600080fd5b8063c2fe50dd14610954578063c4d66de814610967578063c93d0b921461097a578063d1c820071461098b57600080fd5b8063b19337a4116101a8578063bf17088011610177578063bf170880146108f7578063bf376c7a14610908578063bf3bb1a51461091b578063bfd84fb41461092e578063c20aa9bc1461094157600080fd5b8063b19337a41461089a578063b406bf6d146108ad578063b56de97e146108cf578063b96266fa146108e257600080fd5b8063a0efd118116101e4578063a0efd11814610859578063a358426f1461086e578063a554b26d14610881578063aebb50411461089257600080fd5b806390f55edd1461080d5780639c7aa7f8146108205780639c8f9f2314610833578063a0bcfc7f1461084657600080fd5b80633d4df89711610310578063644e44df116102a357806383b9a0091161027257806383b9a009146107b257806389035b61146107c35780638d6d50c9146107d65780638da5cb5b146107e95780638e9fcf81146107fa57600080fd5b8063644e44df146107685780637791c42d146107795780637eda9ff81461078a5780638188d50d1461079d57600080fd5b806353c09124116102df57806353c09124146106fe57806359bf5d391461072d5780635a9b0b891461073557806362c1f3881461075557600080fd5b80633d4df897146106ad578063449497ec146106c5578063512a53bc146106d857806351c6590a146106eb57600080fd5b80632261b07f116103935780632e365ade116103625780632e365ade1461062b5780632fb2067f1461063e5780633184fc6414610661578063375921481461067457806339f476931461069a57600080fd5b80632261b07f1461059c578063229304dc146105ad5780632457056e146105ce5780632b39a0ac1461061857600080fd5b80630e101b60116103cf5780630e101b60146105525780630ea1dc9e1461056557806311eec52914610576578063158bf4511461058957600080fd5b806304196058146104015780630714012c1461043157806308669aab146105285780630cac36b21461053d575b600080fd5b61041461040f366004614fa5565b610b2f565b6040516001600160a01b0390911681526020015b60405180910390f35b61051b61043f366004614fa5565b6040805161010081018252600080825260208201819052918101829052606081018290526080810182905260a0810182905260c0810182905260e08101919091525060009081526011602090815260409182902082516101008101845281546001600160701b038082168352600160701b80830461ffff90811696850196909652600160801b830463ffffffff90811697850197909752600160a01b830487166060850152600160c01b830487166080850152600160e01b90920490951660a083015260019092015493841660c082015292041660e082015290565b604051610428919061542a565b61053b610536366004614fa5565b610b6d565b005b610545610c50565b60405161042891906151f6565b610414610560366004614fa5565b610ce2565b6002546001600160a01b0316610414565b61053b610584366004614ad1565b610d05565b61053b610597366004614e96565b610e58565b6006546001600160a01b0316610414565b6105c06105bb366004614bd0565b611405565b604051908152602001610428565b6106006105dc3660046149fe565b6001600160a01b03166000908152601360205260409020546001600160701b031690565b6040516001600160701b039091168152602001610428565b6106006106263660046149fe565b6114bb565b61053b610639366004615011565b6114e4565b61065161064c3660046149fe565b61158f565b6040519015158152602001610428565b61053b61066f366004614a76565b6115b2565b600454600160a01b900463ffffffff165b60405163ffffffff9091168152602001610428565b6106516106a8366004614cad565b61165a565b6106b56116fa565b60405161042894939291906150f6565b61053b6106d3366004614f8b565b611a8a565b61053b6106e6366004614a36565b611ad6565b61053b6106f9366004614fa5565b611df2565b61041461070c3660046149fe565b6001600160a01b039081166000908152601360205260409020600101541690565b6105c0611f1b565b61073d611f40565b6040516104289c9b9a99989796959493929190615247565b61053b6107633660046149fe565b612103565b6001546001600160a01b0316610414565b6008546001600160a01b0316610414565b61053b6107983660046149fe565b612175565b600854600160a01b900463ffffffff16610685565b6004546001600160a01b0316610414565b6106516107d13660046149fe565b6121e7565b6106856107e43660046149fe565b612211565b6000546001600160a01b0316610414565b61053b610808366004614d03565b612239565b61053b61081b3660046149fe565b612335565b61053b61082e3660046149fe565b6123a7565b61053b610841366004614fa5565b6123dd565b61053b610854366004614d47565b61256d565b600854600160c01b900463ffffffff16610685565b61065161087c366004614cd8565b6125a8565b6007546001600160a01b0316610414565b6105c0612601565b61053b6108a83660046149fe565b612618565b600854600160e01b900461ffff165b60405161ffff9091168152602001610428565b61053b6108dd366004615011565b61268a565b6108ea612734565b60405161042891906151a9565b6005546001600160a01b0316610414565b610651610916366004614cad565b612795565b6105c0610929366004614fa5565b6127c8565b61053b61093c3660046149fe565b6127f7565b61053b61094f366004614c79565b612850565b61053b610962366004614fd5565b6128aa565b61053b6109753660046149fe565b612d0f565b6003546001600160a01b0316610414565b6106856109993660046149fe565b6001600160a01b0316600090815260136020526040902060010154600160a01b900463ffffffff1690565b61053b6109d2366004614df8565b612e2f565b6109ea6109e5366004614fa5565b612efb565b6040805182518152602080840151908201529181015190820152606001610428565b61053b610a1a366004614b6d565b612f58565b6108bc610a2d3660046149fe565b6001600160a01b0316600090815260136020526040902060010154600160f01b900461ffff1690565b610600610a643660046149fe565b613597565b61053b610a77366004614fa5565b6135c2565b61053b610a8a366004615011565b6138b7565b61053b610a9d3660046149fe565b613907565b610685610ab03660046149fe565b6001600160a01b0316600090815260136020526040902060010154600160c01b900463ffffffff1690565b610651610ae9366004614b59565b6139f1565b610b01610afc3660046149fe565b613a98565b60405160019190910b8152602001610428565b61053b610b22366004614c29565b613ac5565b600d546105c0565b600060148281548110610b5257634e487b7160e01b600052603260045260246000fd5b6000918252602090912001546001600160a01b031692915050565b60008181526012602052604081206001810154815491929091610b8f83613bc1565b610b99919061564a565b9050610ba3612601565b811115610bf05760405162461bcd60e51b8152602060048201526016602482015275496e73756666696369656e74206c697175696469747960501b60448201526064015b60405180910390fd5b600154610c07906001600160a01b03163383613be3565b6000610c168460000154613c46565b600185018190559050610c29818461564a565b600f6000828254610c3a919061564a565b90915550610c49905082613c5e565b5050505050565b6060600b8054610c5f906156aa565b80601f0160208091040260200160405190810160405280929190818152602001828054610c8b906156aa565b8015610cd85780601f10610cad57610100808354040283529160200191610cd8565b820191906000526020600020905b815481529060010190602001808311610cbb57829003601f168201915b5050505050905090565b6000600a8281548110610b5257634e487b7160e01b600052603260045260246000fd5b6000546001600160a01b03163314610d2f5760405162461bcd60e51b8152600401610be790615392565b828114610d755760405162461bcd60e51b8152602060048201526014602482015273092dcecc2d8d2c840c2e4e4c2f240d8cadccee8d60631b6044820152606401610be7565b60005b83811015610c4957610db8858583818110610da357634e487b7160e01b600052603260045260246000fd5b90506020020160208101906107d191906149fe565b610dd45760405162461bcd60e51b8152600401610be7906153c7565b610e46858583818110610df757634e487b7160e01b600052603260045260246000fd5b9050602002016020810190610e0c91906149fe565b848484818110610e2c57634e487b7160e01b600052603260045260246000fd5b9050602002016020810190610e419190614f8b565b613cb9565b80610e50816156e5565b915050610d78565b6000546001600160a01b03163314610e825760405162461bcd60e51b8152600401610be790615392565b6001600160a01b038516610ecd5760405162461bcd60e51b815260206004820152601260248201527124b73b30b634b2102130b9b2902a37b5b2b760711b6044820152606401610be7565b60145461ffff11610f205760405162461bcd60e51b815260206004820152601d60248201527f43616e6e6f74207265676973746572206d6f72652073657276696365730000006044820152606401610be7565b8163ffffffff168363ffffffff161115610f7c5760405162461bcd60e51b815260206004820152601b60248201527f496e76616c6964206d696e20616e64206d617820706572696f647300000000006044820152606401610be7565b60008763ffffffff1611610fc65760405162461bcd60e51b8152602060048201526011602482015270496e76616c69642068616c66206c69666560781b6044820152606401610be7565b600454600090610fde906001600160a01b0316613d59565b90506000600160009054906101000a90046001600160a01b03166001600160a01b03166395d89b416040518163ffffffff1660e01b815260040160006040518083038186803b15801561103057600080fd5b505afa158015611044573d6000803e3d6000fd5b505050506040513d6000823e601f3d908101601f1916820160405261106c9190810190614d86565b90506000818b6040516020016110839291906150ba565b60408051601f19818403018152908290526303bf912560e11b825291506001600160a01b0384169063077f224a906110c3908f9085903090600401615209565b600060405180830381600087803b1580156110dd57600080fd5b505af11580156110f1573d6000803e3d6000fd5b5050505060006040518061010001604052808b6001600160701b03168152602001866001600160701b031681526020018c63ffffffff1681526020018a6001600160a01b031681526020018863ffffffff1681526020018763ffffffff1681526020018961ffff16815260200160148054905061ffff1681525090508060136000866001600160a01b03166001600160a01b0316815260200190815260200160002060008201518160000160006101000a8154816001600160701b0302191690836001600160701b03160217905550602082015181600001600e6101000a8154816001600160701b0302191690836001600160701b03160217905550604082015181600001601c6101000a81548163ffffffff021916908363ffffffff16021790555060608201518160010160006101000a8154816001600160a01b0302191690836001600160a01b0316021790555060808201518160010160146101000a81548163ffffffff021916908363ffffffff16021790555060a08201518160010160186101000a81548163ffffffff021916908363ffffffff16021790555060c082015181600101601c6101000a81548161ffff021916908361ffff16021790555060e082015181600101601e6101000a81548161ffff021916908361ffff1602179055509050506014849080600181540180825580915050600190039060005260206000200160009091909190916101000a8154816001600160a01b0302191690836001600160a01b03160217905550600560009054906101000a90046001600160a01b03166001600160a01b031663508ee32c856040518263ffffffff1660e01b815260040161137191906001600160a01b0391909116815260200190565b600060405180830381600087803b15801561138b57600080fd5b505af115801561139f573d6000803e3d6000fd5b50506040805163ffffffff8f1681526001600160701b038e1660208201526001600160a01b03881693507f18706585e986f622c9d914abfb256d563b9ea274cd5d49124e0518aa314b8c129250015b60405180910390a250505050505050505050505050565b600084611411816121e7565b61142d5760405162461bcd60e51b8152600401610be7906153c7565b6114368561158f565b6114525760405162461bcd60e51b8152600401610be79061533f565b61145c86846125a8565b6114785760405162461bcd60e51b8152600401610be7906153f3565b600080600061148989898989613df6565b919450925090508061149b8385615525565b6114a59190615525565b6001600160701b03169998505050505050505050565b6001600160a01b0316600090815260136020526040902060010154600160e01b900461ffff1690565b6000546001600160a01b0316331461150e5760405162461bcd60e51b8152600401610be790615392565b60085463ffffffff600160c01b909104811690821611156115695760405162461bcd60e51b8152602060048201526015602482015274496e76616c696420677261636520706572696f647360581b6044820152606401610be7565b6008805463ffffffff909216600160a01b0263ffffffff60a01b19909216919091179055565b6001600160a01b0316600090815260096020526040812054600190810b900b1390565b6004546001600160a01b0316156116015760405162461bcd60e51b8152602060048201526013602482015272105b1c9958591e481a5b9a5d1a585b1a5e9959606a1b6044820152606401610be7565b600480546001600160a01b038087166001600160a01b0319928316179092556001805486841690831617905560028054858416908316179055600380549284169290911691909117905561165483613fc9565b50505050565b600082611666816121e7565b6116825760405162461bcd60e51b8152600401610be7906153c7565b600154604051638cc7104f60e01b81526001600160a01b0391821660048201523360248201526044810185905290851690638cc7104f90606401600060405180830381600087803b1580156116d657600080fd5b505af11580156116ea573d6000803e3d6000fd5b50505050600191505b5092915050565b601454606090819081908190806001600160401b0381111561172c57634e487b7160e01b600052604160045260246000fd5b604051908082528060200260200182016040528015611755578160200160208202803683370190505b509450806001600160401b0381111561177e57634e487b7160e01b600052604160045260246000fd5b6040519080825280602002602001820160405280156117b157816020015b606081526020019060019003908161179c5790505b509350806001600160401b038111156117da57634e487b7160e01b600052604160045260246000fd5b60405190808252806020026020018201604052801561180d57816020015b60608152602001906001900390816117f85790505b509250806001600160401b0381111561183657634e487b7160e01b600052604160045260246000fd5b60405190808252806020026020018201604052801561185f578160200160208202803683370190505b50915060005b81811015611a825760006014828154811061189057634e487b7160e01b600052603260045260246000fd5b9060005260206000200160009054906101000a90046001600160a01b03169050808783815181106118d157634e487b7160e01b600052603260045260246000fd5b60200260200101906001600160a01b031690816001600160a01b031681525050806001600160a01b03166306fdde036040518163ffffffff1660e01b815260040160006040518083038186803b15801561192a57600080fd5b505afa15801561193e573d6000803e3d6000fd5b505050506040513d6000823e601f3d908101601f191682016040526119669190810190614d86565b86838151811061198657634e487b7160e01b600052603260045260246000fd5b6020026020010181905250806001600160a01b03166395d89b416040518163ffffffff1660e01b815260040160006040518083038186803b1580156119ca57600080fd5b505afa1580156119de573d6000803e3d6000fd5b505050506040513d6000823e601f3d908101601f19168201604052611a069190810190614d86565b858381518110611a2657634e487b7160e01b600052603260045260246000fd5b6020026020010181905250611a3a81612211565b848381518110611a5a57634e487b7160e01b600052603260045260246000fd5b63ffffffff909216602092830291909101909101525080611a7a816156e5565b915050611865565b505090919293565b6000546001600160a01b03163314611ab45760405162461bcd60e51b8152600401610be790615392565b6008805461ffff909216600160e01b0261ffff60e01b19909216919091179055565b6003546001600160a01b03163314611b225760405162461bcd60e51b815260206004820152600f60248201526e2737ba102137b93937bbaa37b5b2b760891b6044820152606401610be7565b600081815260116020908152604080832081516101008101835281546001600160701b03808216835261ffff600160701b808404821697850188905263ffffffff600160801b8504811697860197909752600160a01b840487166060860152600160c01b840487166080860152600160e01b90930490951660a084015260019093015492831660c083015290910490911660e08201526014805491939290918110611bdd57634e487b7160e01b600052603260045260246000fd5b6000918252602090912001546001600160a01b0316905080611c115760405162461bcd60e51b8152600401610be7906152f0565b606082015163ffffffff1642116001600160a01b038681161590861680159030148015611c4657611c41876135c2565b611de7565b8115611cc057855160405163079cc67960e41b81526001600160a01b038b811660048301526001600160701b039092166024820152908616906379cc6790906044015b600060405180830381600087803b158015611ca357600080fd5b505af1158015611cb7573d6000803e3d6000fd5b50505050611de7565b8215611d075785516040516340c10f1960e01b81526001600160a01b038a811660048301526001600160701b039092166024820152908616906340c10f1990604401611c89565b83611da85785516040516333bebb7760e01b81526001600160a01b038b811660048301528a811660248301526001600160701b039092166044820152908616906333bebb7790606401602060405180830381600087803b158015611d6a57600080fd5b505af1158015611d7e573d6000803e3d6000fd5b505050506040513d601f19601f82011682018060405250810190611da29190614b39565b50611de7565b60405162461bcd60e51b81526020600482015260146024820152732737ba1030b63637bbb2b2103a3930b739b332b960611b6044820152606401610be7565b505050505050505050565b600154611e0a906001600160a01b03163330846140e0565b6000600f5460001415611e1e575080611e2a565b611e2782613bc1565b90505b81600c6000828254611e3c9190615550565b90915550506002546040516335313c2160e11b81523360048201526000916001600160a01b031690636a62784290602401602060405180830381600087803b158015611e8757600080fd5b505af1158015611e9b573d6000803e3d6000fd5b505050506040513d601f19601f82011682018060405250810190611ebf9190614fbd565b6040805160608101825285815260208082018681524383850190815260008681526012909352938220925183555160018301559151600290910155600f80549293508492909190611f11908490615550565b9091555050505050565b6000611f25614118565b6001600160701b0316600c54611f3b9190615550565b905090565b600f54600454600854600c54600d54600e546010805460609788976000978897889788978897889788978897889788979496600b96939563ffffffff600160a01b94859004811696948404811695600160c01b850482169561ffff600160e01b9687900416959394936001600160701b0380841694600160701b8504909116939190910416908c90611fd1906156aa565b80601f0160208091040260200160405190810160405280929190818152602001828054611ffd906156aa565b801561204a5780601f1061201f5761010080835404028352916020019161204a565b820191906000526020600020905b81548152906001019060200180831161202d57829003601f168201915b50505050509b508a805461205d906156aa565b80601f0160208091040260200160405190810160405280929190818152602001828054612089906156aa565b80156120d65780601f106120ab576101008083540402835291602001916120d6565b820191906000526020600020905b8154815290600101906020018083116120b957829003601f168201915b50505050509a509b509b509b509b509b509b509b509b509b509b509b509b50909192939495969798999a9b565b6000546001600160a01b0316331461212d5760405162461bcd60e51b8152600401610be790615392565b6001600160a01b0381166121535760405162461bcd60e51b8152600401610be790615319565b600780546001600160a01b0319166001600160a01b0392909216919091179055565b6000546001600160a01b0316331461219f5760405162461bcd60e51b8152600401610be790615392565b6001600160a01b0381166121c55760405162461bcd60e51b8152600401610be790615319565b600580546001600160a01b0319166001600160a01b0392909216919091179055565b6001600160a01b0316600090815260136020526040902054600160e01b900463ffffffff16151590565b6001600160a01b0316600090815260136020526040902054600160e01b900463ffffffff1690565b6000546001600160a01b031633146122635760405162461bcd60e51b8152600401610be790615392565b8261226d816121e7565b6122895760405162461bcd60e51b8152600401610be7906153c7565b8163ffffffff168363ffffffff1611156122d95760405162461bcd60e51b8152602060048201526011602482015270496e76616c6964206475726174696f6e7360781b6044820152606401610be7565b506001600160a01b03929092166000908152601360205260409020600101805467ffffffffffffffff60a01b1916600160a01b63ffffffff9384160263ffffffff60c01b191617600160c01b9290931691909102919091179055565b6000546001600160a01b0316331461235f5760405162461bcd60e51b8152600401610be790615392565b6001600160a01b0381166123855760405162461bcd60e51b8152600401610be790615319565b600880546001600160a01b0319166001600160a01b0392909216919091179055565b6000546001600160a01b031633146123d15760405162461bcd60e51b8152600401610be790615392565b6123da81614180565b50565b6000818152601260205260409020600281015443116124545760405162461bcd60e51b815260206004820152602d60248201527f43616e6e6f742061646420616e642072656d6f7665206c69717569646974792060448201526c696e2073616d6520626c6f636b60981b6064820152608401610be7565b6001810154600061246482613bc1565b905061246e612601565b8111156124b65760405162461bcd60e51b8152602060048201526016602482015275496e73756666696369656e74206c697175696469747960501b6044820152606401610be7565b600254604051630852cd8d60e31b8152600481018690526001600160a01b03909116906342966c6890602401600060405180830381600087803b1580156124fc57600080fd5b505af1158015612510573d6000803e3d6000fd5b505060015461252c92506001600160a01b031690503383613be3565b61253581613c5e565b81600f6000828254612547919061564a565b909155505050600092835250506012602052604081208181556001810182905560020155565b6000546001600160a01b031633146125975760405162461bcd60e51b8152600401610be790615392565b6125a3600b83836147e7565b505050565b6001600160a01b0382166000908152601360205260408120600181015463ffffffff808516600160a01b90920416118015906125f95750600181015463ffffffff600160c01b909104811690841611155b949350505050565b6000600d5461260e611f1b565b611f3b919061564a565b6000546001600160a01b031633146126425760405162461bcd60e51b8152600401610be790615392565b6001600160a01b0381166126685760405162461bcd60e51b8152600401610be790615319565b600680546001600160a01b0319166001600160a01b0392909216919091179055565b6000546001600160a01b031633146126b45760405162461bcd60e51b8152600401610be790615392565b60085463ffffffff808316600160a01b90920416111561270e5760405162461bcd60e51b8152602060048201526015602482015274496e76616c696420677261636520706572696f647360581b6044820152606401610be7565b6008805463ffffffff909216600160c01b0263ffffffff60c01b19909216919091179055565b60606014805480602002602001604051908101604052809291908181526020018280548015610cd857602002820191906000526020600020905b81546001600160a01b0316815260019091019060200180831161276e575050505050905090565b6000826127a1816121e7565b6127bd5760405162461bcd60e51b8152600401610be7906153c7565b6125f98433856139f1565b6000818152601260205260408120805460018201546127e690613bc1565b6127f0919061564a565b9392505050565b6000546001600160a01b031633146128215760405162461bcd60e51b8152600401610be790615392565b6001600160a01b0381166128475760405162461bcd60e51b8152600401610be790615319565b6123da81613fc9565b6000546001600160a01b0316331461287a5760405162461bcd60e51b8152600401610be790615392565b81612884816121e7565b6128a05760405162461bcd60e51b8152600401610be7906153c7565b6125a38383613cb9565b6128b38361158f565b6128cf5760405162461bcd60e51b8152600401610be79061533f565b60008481526011602052604081208054601480549293929091600160701b900461ffff1690811061291057634e487b7160e01b600052603260045260246000fd5b6000918252602090912001546001600160a01b03169050806129445760405162461bcd60e51b8152600401610be7906152f0565b61294e81846125a8565b61296a5760405162461bcd60e51b8152600401610be7906153f3565b81544290612986908590600160a01b900463ffffffff16615568565b63ffffffff1610156129cd5760405162461bcd60e51b815260206004820152601060248201526f24b73b30b634b210323ab930ba34b7b760811b6044820152606401610be7565b8154600d80546001600160701b03909216916000906129ed90849061564a565b909155505081546000908190612a1090849089906001600160701b031688613df6565b508554600d80549395509193506001600160701b031691600090612a35908490615550565b9091555060009050612a478284615525565b6001600160701b0316905086811115612a985760405162461bcd60e51b8152602060048201526013602482015272536c69707061676520697320746f6f2062696760681b6044820152606401610be7565b612aad6001600160a01b0389163330846140e0565b60065460015460405163029b465d60e01b81526001600160a01b038b81166004830152602482018590529182166044820152600092919091169063029b465d90606401602060405180830381600087803b158015612b0a57600080fd5b505af1158015612b1e573d6000803e3d6000fd5b505050506040513d601f19601f82011682018060405250810190612b429190614fbd565b9050600082612b5a836001600160701b0387166155be565b612b649190615587565b600854600154919250612b84916001600160a01b03908116911683613be3565b6000612b90828461564a565b9050612b9b81614227565b8754600160a01b900463ffffffff16612bb48a82615568565b895463ffffffff60a01b1916600160a01b63ffffffff928316810291909117808c55600854612bed939083900481169290910416615568565b895463ffffffff60c01b1916600160c01b63ffffffff928316810291909117808c55600854612c2a93929004821691600160a01b90910416615568565b895463ffffffff91909116600160e01b026001600160e01b0390911617895560055460405163f8642f2960e01b8152600481018f90526001600160a01b039091169063f8642f2990602401600060405180830381600087803b158015612c8f57600080fd5b505af1158015612ca3573d6000803e3d6000fd5b50505050876001600160a01b03167f9853650269815e203c5c9e228db9ca05cc6037f2c2723c94ed3260cf98324c998e838c60000160149054906101000a900463ffffffff166040516113ee9392919092835263ffffffff918216602084015216604082015260600190565b6000546001600160a01b031615612d7a5760405162461bcd60e51b815260206004820152602960248201527f496e697469616c697a61626c654f776e61626c653a20616c726561647920696e6044820152681a5d1a585b1a5e995960ba1b6064820152608401610be7565b6001600160a01b038116612de45760405162461bcd60e51b815260206004820152602b60248201527f496e697469616c697a61626c654f776e61626c653a20696e76616c696420696e60448201526a34ba34b0b61037bbb732b960a91b6064820152608401610be7565b600080546001600160a01b0319166001600160a01b03831690811782556040519091907f8be0079c531659141344cd1fd0a4f28419497f9722a3daafe3b4186f6b6457e0908290a350565b60108054612e3c906156aa565b159050612e815760405162461bcd60e51b8152602060048201526013602482015272105b1c9958591e481a5b9a5d1a585b1a5e9959606a1b6044820152606401610be7565b612e8a81612d0f565b8551612e9d90601090602089019061486b565b50612eaa600b86866147e7565b50600580546001600160a01b03199081166001600160a01b03958616179091556006805482169385169390931790925560088054831691909316908117909255600780549091169091179055505050565b612f1f60405180606001604052806000815260200160008152602001600081525090565b50600090815260126020908152604091829020825160608101845281548152600182015492810192909252600201549181019190915290565b84612f62816121e7565b612f7e5760405162461bcd60e51b8152600401610be7906153c7565b612f878561158f565b612fa35760405162461bcd60e51b8152600401610be79061533f565b612fad86836125a8565b612fc95760405162461bcd60e51b8152600401610be7906153f3565b612fd1612601565b846001600160701b031611156130215760405162461bcd60e51b8152602060048201526015602482015274496e73756666696369656e7420726573657276657360581b6044820152606401610be7565b6000806000806130338a8a8a89613df6565b9550909350915083905060006130498385615525565b6001600160701b0316905087856001600160701b03168261306a9190615550565b11156130ae5760405162461bcd60e51b8152602060048201526013602482015272536c69707061676520697320746f6f2062696760681b6044820152606401610be7565b6130c36001600160a01b038b163330846140e0565b60065460015460405163029b465d60e01b81526001600160a01b038d81166004830152602482018590529182166044820152600092919091169063029b465d90606401602060405180830381600087803b15801561312057600080fd5b505af1158015613134573d6000803e3d6000fd5b505050506040513d601f19601f820116820180604052508101906131589190614fbd565b9050600082613170836001600160701b0388166155be565b61317a9190615587565b60085460015491925061319a916001600160a01b03908116911683613be3565b8a6001600160701b0316600d60008282546131b59190615550565b90915550600090506131c7828461564a565b90506131d281614227565b50506003546131ff95506001600160a01b038c81169550339450169150506001600160701b0385166140e0565b42600061320c8583615568565b90506000600360009054906101000a90046001600160a01b03166001600160a01b031663caa0f92a6040518163ffffffff1660e01b8152600401602060405180830381600087803b15801561326057600080fd5b505af1158015613274573d6000803e3d6000fd5b505050506040513d601f19601f820116820180604052508101906132989190614fbd565b60408051610100810182526001600160701b038b1681526001600160a01b038d166000908152601360209081529083902060010154600160f01b900461ffff169082015263ffffffff86811692820192909252848216606082015260085492935091608083019161331191600160a01b90041685615568565b63ffffffff168152602001600860189054906101000a900463ffffffff168461333a9190615568565b63ffffffff168152602001856001600160701b0316815260200161335d8b613a98565b61ffff9081169091526000838152601160209081526040918290208451815492860151868501516060880151608089015160a08a01516001600160701b039586166001600160801b031998891617600160701b958b1686021767ffffffffffffffff60801b1916600160801b63ffffffff9586160263ffffffff60a01b191617600160a01b93851693909302929092176001600160c01b0316600160c01b918416919091026001600160e01b031617600160e01b929091169190910217835560c08701516001909301805460e0909801519390921696909316959095179316029190911790915560035490516335313c2160e11b815233600482015282916001600160a01b031690636a62784290602401602060405180830381600087803b15801561348857600080fd5b505af115801561349c573d6000803e3d6000fd5b505050506040513d601f19601f820116820180604052508101906134c09190614fbd565b146134db57634e487b7160e01b600052600160045260246000fd5b60055460405163f8642f2960e01b8152600481018390526001600160a01b039091169063f8642f2990602401600060405180830381600087803b15801561352157600080fd5b505af1158015613535573d6000803e3d6000fd5b50506040805184815263ffffffff878116602083015286168183015290516001600160a01b038e1693507f9853650269815e203c5c9e228db9ca05cc6037f2c2723c94ed3260cf98324c9992509081900360600190a250505050505050505050565b6001600160a01b0316600090815260136020526040902054600160701b90046001600160701b031690565b60008181526011602052604081208054601480549293929091600160701b900461ffff1690811061360357634e487b7160e01b600052603260045260246000fd5b6000918252602090912001546001600160a01b03169050806136375760405162461bcd60e51b8152600401610be7906152f0565b6003546040516331a9108f60e11b8152600481018590526000916001600160a01b031690636352211e9060240160206040518083038186803b15801561367c57600080fd5b505afa158015613690573d6000803e3d6000fd5b505050506040513d601f19601f820116820180604052508101906136b49190614a1a565b8354909150429063ffffffff808316600160c01b9092041610806136e05750336001600160a01b038316145b61374a5760405162461bcd60e51b815260206004820152603560248201527f4f6e6c7920626f72726f7765722063616e2072657475726e2077697468696e20604482015274189bdc9c9bddd95c8819dc9858d9481c195c9a5bd9605a1b6064820152608401610be7565b835463ffffffff808316600160e01b9092041610806137715750336001600160a01b038316145b8061378657506007546001600160a01b031633145b6138065760405162461bcd60e51b815260206004820152604560248201527f4f6e6c7920626f72726f776572206f7220656e74657270726973652063616e2060448201527f72657475726e2077697468696e20656e74657270726973652067726163652070606482015264195c9a5bd960da1b608482015260a401610be7565b8354600d80546001600160701b039092169160009061382690849061564a565b9091555050600354604051633f34d4cf60e21b8152600481018790523360248201526001600160a01b039091169063fcd3533c90604401600060405180830381600087803b15801561387757600080fd5b505af115801561388b573d6000803e3d6000fd5b5050506000958652505060116020525050604082209182555060010180546001600160801b0319169055565b6000546001600160a01b031633146138e15760405162461bcd60e51b8152600401610be790615392565b6004805463ffffffff909216600160a01b0263ffffffff60a01b19909216919091179055565b6000546001600160a01b031633146139315760405162461bcd60e51b8152600401610be790615392565b6001600160a01b0381166139965760405162461bcd60e51b815260206004820152602660248201527f4f776e61626c653a206e6577206f776e657220697320746865207a65726f206160448201526564647265737360d01b6064820152608401610be7565b600080546040516001600160a01b03808516939216917f8be0079c531659141344cd1fd0a4f28419497f9722a3daafe3b4186f6b6457e091a3600080546001600160a01b0319166001600160a01b0392909216919091179055565b6000836139fd816121e7565b613a195760405162461bcd60e51b8152600401610be7906153c7565b60015460405163a1571a5760e01b81526001600160a01b0391821660048201523360248201528582166044820152606481018590529086169063a1571a5790608401600060405180830381600087803b158015613a7557600080fd5b505af1158015613a89573d6000803e3d6000fd5b50600198975050505050505050565b6001600160a01b038116600090815260096020526040812054613abf90600190810b6155dd565b92915050565b6000546001600160a01b03163314613aef5760405162461bcd60e51b8152600401610be790615392565b83613af9816121e7565b613b155760405162461bcd60e51b8152600401610be7906153c7565b6001600160a01b038316613b605760405162461bcd60e51b815260206004820152601260248201527124b73b30b634b2102130b9b2902a37b5b2b760711b6044820152606401610be7565b506001600160a01b0393841660009081526013602052604090208054600182018054949096166001600160a01b0319909416939093179094556001600160701b03908116600160701b026001600160e01b0319909216921691909117179055565b6000600f5482613bcf611f1b565b613bd991906155be565b613abf9190615587565b6040516001600160a01b0383166024820152604481018290526125a390849063a9059cbb60e01b906064015b60408051601f198184030181529190526020810180516001600160e01b03166001600160e01b0319909316929092179091526142a3565b6000613c50611f1b565b82600f54613bd991906155be565b80600c5410613c845780600c6000828254613c79919061564a565b909155506123da9050565b6000613c8e614375565b6001600160701b031690508181600c54613ca89190615550565b613cb2919061564a565b600c555050565b61138861ffff82161115613d1d5760405162461bcd60e51b815260206004820152602560248201527f4d6178696d756d2073657276696365206665652070657263656e7420746872656044820152641cda1bdb1960da1b6064820152608401610be7565b6001600160a01b039091166000908152601360205260409020600101805461ffff909216600160e01b0261ffff60e01b19909216919091179055565b6000604051733d602d80600a3d3981f3363d3d373d3d3d363d7360601b81528260601b60148201526e5af43d82803e903d91602b57fd5bf360881b60288201526037816000f09150506001600160a01b038116613df15760405162461bcd60e51b8152602060048201526016602482015275115490cc4c4d8dce8818dc99585d194819985a5b195960521b6044820152606401610be7565b919050565b600554604051630641977d60e21b81526001600160a01b0386811660048301526001600160701b038516602483015263ffffffff8416604483015260009283928392839216906319065df49060640160206040518083038186803b158015613e5d57600080fd5b505afa158015613e71573d6000803e3d6000fd5b505050506040513d601f19601f82011682018060405250810190613e959190614f6f565b90506000613ea38983614401565b6006549091506000906001600160a01b03166329fb92ce613edf8c6001600160a01b039081166000908152601360205260409020600101541690565b6040516001600160e01b031960e084901b1681526001600160a01b0391821660048201526001600160701b0387166024820152908c16604482015260640160206040518083038186803b158015613f3557600080fd5b505afa158015613f49573d6000803e3d6000fd5b505050506040513d601f19601f82011682018060405250810190613f6d9190614fbd565b9050826001600160701b031681836001600160701b0316613f8e91906155be565b613f989190615587565b9450613fad6001600160701b0386168261564a565b9550613fba8a8a8a614436565b93505050509450945094915050565b6001600160a01b038116600090815260096020526040902054600190810b900b61406157600a8054600180820183557fc65a7bb8d6351c1cf70c95a316cc6a92839c986682d98bc35f958f4883f9d2a890910180546001600160a01b0319166001600160a01b039490941693841790559054600092835260096020526040909220805461ffff191661ffff9390920b92909216179055565b6001600160a01b038116600090815260096020526040812054600190810b900b12156123da576001600160a01b0381166000908152600960205260409020546140ac9060010b615723565b6001600160a01b0382166000908152600960205260409020805460019290920b61ffff1661ffff1990921691909117905550565b6040516001600160a01b03808516602483015283166044820152606481018290526116549085906323b872dd60e01b90608401613c0f565b600e546000906141639063ffffffff600160e01b8204169061414d906001600160701b0380821691600160701b900416615622565b600454600160a01b900463ffffffff164261456b565b600e54611f3b9190600160701b90046001600160701b0316615622565b6001600160a01b038116600090815260096020526040902054600190810b900b6141dc5760405162461bcd60e51b815260206004820152600d60248201526c24b73b30b634b2103a37b5b2b760991b6044820152606401610be7565b6001600160a01b038116600090815260096020526040812054600190810b900b13156123da576001600160a01b0381166000908152600960205260409020546140ac9060010b615723565b61422f614118565b600e805463ffffffff4216600160e01b026dffffffffffffffffffffffffffff60701b9091166001600160701b0393841617178082558392829161427c918591600160701b900416615525565b92506101000a8154816001600160701b0302191690836001600160701b0316021790555050565b60006142f8826040518060400160405280602081526020017f5361666545524332303a206c6f772d6c6576656c2063616c6c206661696c6564815250856001600160a01b03166146dc9092919063ffffffff16565b8051909150156125a357808060200190518101906143169190614b39565b6125a35760405162461bcd60e51b815260206004820152602a60248201527f5361666545524332303a204552433230206f7065726174696f6e20646964206e6044820152691bdd081cdd58d8d9595960b21b6064820152608401610be7565b600061437f614118565b600e80546dffffffffffffffffffffffffffff1916808255919250829181906143b9908490600160701b90046001600160701b0316615622565b92506101000a8154816001600160701b0302191690836001600160701b0316021790555042600e601c6101000a81548163ffffffff021916908363ffffffff16021790555090565b600061271061440f846114bb565b6001600160701b0316836001600160701b031661442c91906155be565b6127f09190615587565b60085460009081906127109061446090600160e01b900461ffff166001600160701b0386166155be565b61446a9190615587565b6006549091506000906001600160a01b03166329fb92ce6144a6886001600160a01b039081166000908152601360205260409020600101541690565b6144af89613597565b6040516001600160e01b031960e085901b1681526001600160a01b0392831660048201526001600160701b039091166024820152908816604482015260640160206040518083038186803b15801561450657600080fd5b505afa15801561451a573d6000803e3d6000fd5b505050506040513d601f19601f8201168201806040525081019061453e9190614fbd565b9050806001600160701b0316826001600160701b03161061455f5781614561565b805b9695505050505050565b60008463ffffffff168263ffffffff1610156145ba5760405162461bcd60e51b815260206004820152600e60248201526d125b9d985b1a59081c195c9a5bd960921b6044820152606401610be7565b6145c48583615661565b91506145d0838361559b565b63ffffffff16846001600160701b0316901c935082826145f09190615700565b915063ffffffff8216158061460c57506001600160701b038416155b156146185750826125f9565b60006001600160701b0385168163ffffffff8087169061464c90871671b17217f7d1cf79abc9e3b39803f2f6af40f36155be565b6146569190615587565b9050600160901b5b82156146cf5761466e8385615550565b93508061467b83856155be565b6146859190615587565b9250614695600160901b82615550565b90506146a1838561564a565b9350806146ae83856155be565b6146b89190615587565b92506146c8600160901b82615550565b905061465e565b5091979650505050505050565b60606125f9848460008585843b6147355760405162461bcd60e51b815260206004820152601d60248201527f416464726573733a2063616c6c20746f206e6f6e2d636f6e74726163740000006044820152606401610be7565b600080866001600160a01b03168587604051614751919061509e565b60006040518083038185875af1925050503d806000811461478e576040519150601f19603f3d011682016040523d82523d6000602084013e614793565b606091505b50915091506147a38282866147ae565b979650505050505050565b606083156147bd5750816127f0565b8251156147cd5782518084602001fd5b8160405162461bcd60e51b8152600401610be791906151f6565b8280546147f3906156aa565b90600052602060002090601f016020900481019282614815576000855561485b565b82601f1061482e5782800160ff1982351617855561485b565b8280016001018555821561485b579182015b8281111561485b578235825591602001919060010190614840565b506148679291506148df565b5090565b828054614877906156aa565b90600052602060002090601f016020900481019282614899576000855561485b565b82601f106148b257805160ff191683800117855561485b565b8280016001018555821561485b579182015b8281111561485b5782518255916020019190600101906148c4565b5b8082111561486757600081556001016148e0565b60008083601f840112614905578182fd5b5081356001600160401b0381111561491b578182fd5b6020830191508360208260051b850101111561493657600080fd5b9250929050565b60008083601f84011261494e578182fd5b5081356001600160401b03811115614964578182fd5b60208301915083602082850101111561493657600080fd5b600082601f83011261498c578081fd5b813561499f61499a826154fe565b6154ce565b8181528460208386010111156149b3578283fd5b816020850160208301379081016020019190915292915050565b8035613df18161579a565b803561ffff81168114613df157600080fd5b803563ffffffff81168114613df157600080fd5b600060208284031215614a0f578081fd5b81356127f081615785565b600060208284031215614a2b578081fd5b81516127f081615785565b600080600060608486031215614a4a578182fd5b8335614a5581615785565b92506020840135614a6581615785565b929592945050506040919091013590565b60008060008060808587031215614a8b578081fd5b8435614a9681615785565b93506020850135614aa681615785565b92506040850135614ab681615785565b91506060850135614ac681615785565b939692955090935050565b60008060008060408587031215614ae6578384fd5b84356001600160401b0380821115614afc578586fd5b614b08888389016148f4565b90965094506020870135915080821115614b20578384fd5b50614b2d878288016148f4565b95989497509550505050565b600060208284031215614b4a578081fd5b815180151581146127f0578182fd5b600080600060608486031215614a4a578081fd5b600080600080600060a08688031215614b84578283fd5b8535614b8f81615785565b94506020860135614b9f81615785565b93506040860135614baf8161579a565b925060608601359150614bc4608087016149ea565b90509295509295909350565b60008060008060808587031215614be5578182fd5b8435614bf081615785565b93506020850135614c0081615785565b92506040850135614c108161579a565b9150614c1e606086016149ea565b905092959194509250565b60008060008060808587031215614c3e578182fd5b8435614c4981615785565b93506020850135614c598161579a565b92506040850135614c6981615785565b91506060850135614ac68161579a565b60008060408385031215614c8b578182fd5b8235614c9681615785565b9150614ca4602084016149d8565b90509250929050565b60008060408385031215614cbf578182fd5b8235614cca81615785565b946020939093013593505050565b60008060408385031215614cea578182fd5b8235614cf581615785565b9150614ca4602084016149ea565b600080600060608486031215614d17578081fd5b8335614d2281615785565b9250614d30602085016149ea565b9150614d3e604085016149ea565b90509250925092565b60008060208385031215614d59578182fd5b82356001600160401b03811115614d6e578283fd5b614d7a8582860161493d565b90969095509350505050565b600060208284031215614d97578081fd5b81516001600160401b03811115614dac578182fd5b8201601f81018413614dbc578182fd5b8051614dca61499a826154fe565b818152856020838501011115614dde578384fd5b614def82602083016020860161567e565b95945050505050565b60008060008060008060a08789031215614e10578384fd5b86356001600160401b0380821115614e26578586fd5b614e328a838b0161497c565b97506020890135915080821115614e47578586fd5b50614e5489828a0161493d565b9096509450506040870135614e6881615785565b92506060870135614e7881615785565b91506080870135614e8881615785565b809150509295509295509295565b60008060008060008060008060006101208a8c031215614eb4578687fd5b89356001600160401b0380821115614eca578889fd5b614ed68d838e0161497c565b9a5060208c0135915080821115614eeb578889fd5b50614ef88c828d0161497c565b985050614f0760408b016149ea565b965060608a0135614f178161579a565b955060808a0135614f2781615785565b9450614f3560a08b016149d8565b9350614f4360c08b016149ea565b9250614f5160e08b016149ea565b9150614f606101008b016149cd565b90509295985092959850929598565b600060208284031215614f80578081fd5b81516127f08161579a565b600060208284031215614f9c578081fd5b6127f0826149d8565b600060208284031215614fb6578081fd5b5035919050565b600060208284031215614fce578081fd5b5051919050565b60008060008060808587031215614fea578182fd5b843593506020850135614ffc81615785565b925060408501359150614c1e606086016149ea565b600060208284031215615022578081fd5b6127f0826149ea565b600081518084526020808501808196508360051b81019150828601855b858110156146cf578284038952615060848351615072565b98850198935090840190600101615048565b6000815180845261508a81602086016020860161567e565b601f01601f19169290920160200192915050565b600082516150b081846020870161567e565b9190910192915050565b600083516150cc81846020880161567e565b600160fd1b90830190815283516150ea81600184016020880161567e565b01600101949350505050565b6080808252855190820181905260009060209060a0840190828901845b828110156151385781516001600160a01b031684529284019290840190600101615113565b5050508381038285015261514c818861502b565b90508381036040850152615160818761502b565b84810360608601528551808252838701925090830190845b8181101561519a57835163ffffffff1683529284019291840191600101615178565b50909998505050505050505050565b6020808252825182820181905260009190848201906040850190845b818110156151ea5783516001600160a01b0316835292840192918401916001016151c5565b50909695505050505050565b6020815260006127f06020830184615072565b60608152600061521c6060830186615072565b828103602084015261522e8186615072565b91505060018060a01b0383166040830152949350505050565b6101808152600061525c61018083018f615072565b828103602084015261526e818f615072565b9150508b604083015263ffffffff808c166060840152808b166080840152808a1660a08401525061ffff881660c08301528660e0830152856101008301526001600160701b0385166101208301526152d26101408301856001600160701b03169052565b63ffffffff83166101608301529d9c50505050505050505050505050565b6020808252600f908201526e125b9d985b1a59081d1bdad95b9259608a1b604082015260600190565b6020808252600c908201526b5a65726f206164647265737360a01b604082015260600190565b60208082526033908201527f496e746572657374207061796d656e7420746f6b656e2069732064697361626c6040820152721959081bdc881b9bdd081cdd5c1c1bdc9d1959606a1b606082015260800190565b6020808252818101527f4f776e61626c653a2063616c6c6572206973206e6f7420746865206f776e6572604082015260600190565b6020808252601290820152712ab735b737bbb7102837bbb2b92a37b5b2b760711b604082015260600190565b60208082526017908201527f4475726174696f6e206973206e6f7420616c6c6f776564000000000000000000604082015260600190565b6000610100820190506001600160701b03835116825261ffff6020840151166020830152604083015163ffffffff808216604085015280606086015116606085015250506080830151615485608084018263ffffffff169052565b5060a083015161549d60a084018263ffffffff169052565b5060c08301516154b860c08401826001600160701b03169052565b5060e08301516116f360e084018261ffff169052565b604051601f8201601f191681016001600160401b03811182821017156154f6576154f661576f565b604052919050565b60006001600160401b038211156155175761551761576f565b50601f01601f191660200190565b60006001600160701b0380831681851680830382111561554757615547615743565b01949350505050565b6000821982111561556357615563615743565b500190565b600063ffffffff80831681851680830382111561554757615547615743565b60008261559657615596615759565b500490565b600063ffffffff808416806155b2576155b2615759565b92169190910492915050565b60008160001904831182151516156155d8576155d8615743565b500290565b60008160010b8360010b82811281617fff190183128115161561560257615602615743565b81617fff01831381161561561857615618615743565b5090039392505050565b60006001600160701b038381169083168181101561564257615642615743565b039392505050565b60008282101561565c5761565c615743565b500390565b600063ffffffff8381169083168181101561564257615642615743565b60005b83811015615699578181015183820152602001615681565b838111156116545750506000910152565b600181811c908216806156be57607f821691505b602082108114156156df57634e487b7160e01b600052602260045260246000fd5b50919050565b60006000198214156156f9576156f9615743565b5060010190565b600063ffffffff8084168061571757615717615759565b92169190910692915050565b60008160010b617fff1981141561573c5761573c615743565b9003919050565b634e487b7160e01b600052601160045260246000fd5b634e487b7160e01b600052601260045260246000fd5b634e487b7160e01b600052604160045260246000fd5b6001600160a01b03811681146123da57600080fd5b6001600160701b03811681146123da57600080fdfea264697066735822122099824c7d733431aa49cebddbd352f6ef2f7f2b9fa2f6edbfe6329d605dd8bf5464736f6c63430008040033",
  "linkReferences": {},
  "deployedLinkReferences": {}
}