{
  "_format": "hh-sol-artifact-1",
  "contractName": "Enterprise",
  "sourceName": "contracts/Enterprise.sol",
  "abi": [
    {
      "anonymous": false,
      "inputs": [
        {
          "indexed": true,
          "internalType": "address",
          "name": "powerToken",
          "type": "address"
        },
        {
          "indexed": false,
          "internalType": "uint256",
          "name": "tokenId",
          "type": "uint256"
        },
        {
          "indexed": false,
          "internalType": "uint32",
          "name": "from",
          "type": "uint32"
        },
        {
          "indexed": false,
          "internalType": "uint32",
          "name": "to",
          "type": "uint32"
        }
      ],
      "name": "Borrowed",
      "type": "event"
    },
    {
      "anonymous": false,
      "inputs": [
        {
          "indexed": true,
          "internalType": "address",
          "name": "previousOwner",
          "type": "address"
        },
        {
          "indexed": true,
          "internalType": "address",
          "name": "newOwner",
          "type": "address"
        }
      ],
      "name": "OwnershipTransferred",
      "type": "event"
    },
    {
      "anonymous": false,
      "inputs": [
        {
          "indexed": true,
          "internalType": "address",
          "name": "powerToken",
          "type": "address"
        },
        {
          "indexed": false,
          "internalType": "uint32",
          "name": "halfLife",
          "type": "uint32"
        },
        {
          "indexed": false,
          "internalType": "uint112",
          "name": "factor",
          "type": "uint112"
        }
      ],
      "name": "ServiceRegistered",
      "type": "event"
    },
    {
      "inputs": [
        {
          "internalType": "uint256",
          "name": "liquidityAmount",
          "type": "uint256"
        }
      ],
      "name": "addLiquidity",
      "outputs": [],
      "stateMutability": "nonpayable",
      "type": "function"
    },
    {
      "inputs": [
        {
          "internalType": "contract IPowerToken",
          "name": "powerToken",
          "type": "address"
        }
      ],
      "name": "allowPerpetualPowerTokenForever",
      "outputs": [],
      "stateMutability": "nonpayable",
      "type": "function"
    },
    {
      "inputs": [
        {
          "internalType": "contract IPowerToken",
          "name": "powerToken",
          "type": "address"
        },
        {
          "internalType": "contract IERC20",
          "name": "paymentToken",
          "type": "address"
        },
        {
          "internalType": "uint112",
          "name": "amount",
          "type": "uint112"
        },
        {
          "internalType": "uint256",
          "name": "maximumPayment",
          "type": "uint256"
        },
        {
          "internalType": "uint32",
          "name": "duration",
          "type": "uint32"
        }
      ],
      "name": "borrow",
      "outputs": [],
      "stateMutability": "nonpayable",
      "type": "function"
    },
    {
      "inputs": [
        {
          "internalType": "address",
          "name": "token",
          "type": "address"
        }
      ],
      "name": "disablePaymentToken",
      "outputs": [],
      "stateMutability": "nonpayable",
      "type": "function"
    },
    {
      "inputs": [
        {
          "internalType": "address",
          "name": "token",
          "type": "address"
        }
      ],
      "name": "enablePaymentToken",
      "outputs": [],
      "stateMutability": "nonpayable",
      "type": "function"
    },
    {
      "inputs": [
        {
          "internalType": "contract IPowerToken",
          "name": "powerToken",
          "type": "address"
        },
        {
          "internalType": "contract IERC20",
          "name": "paymentToken",
          "type": "address"
        },
        {
          "internalType": "uint112",
          "name": "amount",
          "type": "uint112"
        },
        {
          "internalType": "uint32",
          "name": "duration",
          "type": "uint32"
        }
      ],
      "name": "estimateLoan",
      "outputs": [
        {
          "internalType": "uint256",
          "name": "",
          "type": "uint256"
        }
      ],
      "stateMutability": "view",
      "type": "function"
    },
    {
      "inputs": [],
      "name": "getAvailableReserve",
      "outputs": [
        {
          "internalType": "uint256",
          "name": "",
          "type": "uint256"
        }
      ],
      "stateMutability": "view",
      "type": "function"
    },
    {
      "inputs": [],
      "name": "getBaseUri",
      "outputs": [
        {
          "internalType": "string",
          "name": "",
          "type": "string"
        }
      ],
      "stateMutability": "view",
      "type": "function"
    },
    {
      "inputs": [],
      "name": "getBorrowToken",
      "outputs": [
        {
          "internalType": "contract IBorrowToken",
          "name": "",
          "type": "address"
        }
      ],
      "stateMutability": "view",
      "type": "function"
    },
    {
      "inputs": [],
      "name": "getBorrowerLoanReturnGracePeriod",
      "outputs": [
        {
          "internalType": "uint32",
          "name": "",
          "type": "uint32"
        }
      ],
      "stateMutability": "view",
      "type": "function"
    },
    {
      "inputs": [],
      "name": "getConverter",
      "outputs": [
        {
          "internalType": "contract IConverter",
          "name": "",
          "type": "address"
        }
      ],
      "stateMutability": "view",
      "type": "function"
    },
    {
      "inputs": [],
      "name": "getEnterpriseCollector",
      "outputs": [
        {
          "internalType": "address",
          "name": "",
          "type": "address"
        }
      ],
      "stateMutability": "view",
      "type": "function"
    },
    {
      "inputs": [],
      "name": "getEnterpriseLoanCollectGracePeriod",
      "outputs": [
        {
          "internalType": "uint32",
          "name": "",
          "type": "uint32"
        }
      ],
      "stateMutability": "view",
      "type": "function"
    },
    {
      "inputs": [],
      "name": "getEnterpriseVault",
      "outputs": [
        {
          "internalType": "address",
          "name": "",
          "type": "address"
        }
      ],
      "stateMutability": "view",
      "type": "function"
    },
    {
      "inputs": [],
      "name": "getEstimator",
      "outputs": [
        {
          "internalType": "contract IEstimator",
          "name": "",
          "type": "address"
        }
      ],
      "stateMutability": "view",
      "type": "function"
    },
    {
      "inputs": [],
      "name": "getGCFeePercent",
      "outputs": [
        {
          "internalType": "uint16",
          "name": "",
          "type": "uint16"
        }
      ],
      "stateMutability": "view",
      "type": "function"
    },
    {
      "inputs": [],
      "name": "getInfo",
      "outputs": [
        {
          "internalType": "string",
          "name": "name",
          "type": "string"
        },
        {
          "internalType": "string",
          "name": "baseUri",
          "type": "string"
        },
        {
          "internalType": "uint256",
          "name": "totalShares",
          "type": "uint256"
        },
        {
          "internalType": "uint32",
          "name": "interestHalfLife",
          "type": "uint32"
        },
        {
          "internalType": "uint32",
          "name": "borrowerLoanReturnGracePeriod",
          "type": "uint32"
        },
        {
          "internalType": "uint32",
          "name": "enterpriseLoanCollectGracePeriod",
          "type": "uint32"
        },
        {
          "internalType": "uint16",
          "name": "gcFeePercent",
          "type": "uint16"
        },
        {
          "internalType": "uint256",
          "name": "fixedReserve",
          "type": "uint256"
        },
        {
          "internalType": "uint256",
          "name": "usedReserve",
          "type": "uint256"
        },
        {
          "internalType": "uint112",
          "name": "streamingReserve",
          "type": "uint112"
        },
        {
          "internalType": "uint112",
          "name": "streamingReserveTarget",
          "type": "uint112"
        },
        {
          "internalType": "uint32",
          "name": "streamingReserveUpdated",
          "type": "uint32"
        }
      ],
      "stateMutability": "view",
      "type": "function"
    },
    {
      "inputs": [],
      "name": "getInterestHalfLife",
      "outputs": [
        {
          "internalType": "uint32",
          "name": "",
          "type": "uint32"
        }
      ],
      "stateMutability": "view",
      "type": "function"
    },
    {
      "inputs": [],
      "name": "getInterestToken",
      "outputs": [
        {
          "internalType": "contract IInterestToken",
          "name": "",
          "type": "address"
        }
      ],
      "stateMutability": "view",
      "type": "function"
    },
    {
      "inputs": [
        {
          "internalType": "uint256",
          "name": "tokenId",
          "type": "uint256"
        }
      ],
      "name": "getLiquidityInfo",
      "outputs": [
        {
          "components": [
            {
              "internalType": "uint256",
              "name": "amount",
              "type": "uint256"
            },
            {
              "internalType": "uint256",
              "name": "shares",
              "type": "uint256"
            },
            {
              "internalType": "uint256",
              "name": "block",
              "type": "uint256"
            }
          ],
          "internalType": "struct EnterpriseStorage.LiquidityInfo",
          "name": "",
          "type": "tuple"
        }
      ],
      "stateMutability": "view",
      "type": "function"
    },
    {
      "inputs": [],
      "name": "getLiquidityToken",
      "outputs": [
        {
          "internalType": "contract IERC20Metadata",
          "name": "",
          "type": "address"
        }
      ],
      "stateMutability": "view",
      "type": "function"
    },
    {
      "inputs": [
        {
          "internalType": "uint256",
          "name": "tokenId",
          "type": "uint256"
        }
      ],
      "name": "getLoanInfo",
      "outputs": [
        {
          "components": [
            {
              "internalType": "uint112",
              "name": "amount",
              "type": "uint112"
            },
            {
              "internalType": "uint16",
              "name": "powerTokenIndex",
              "type": "uint16"
            },
            {
              "internalType": "uint32",
              "name": "borrowingTime",
              "type": "uint32"
            },
            {
              "internalType": "uint32",
              "name": "maturityTime",
              "type": "uint32"
            },
            {
              "internalType": "uint32",
              "name": "borrowerReturnGraceTime",
              "type": "uint32"
            },
            {
              "internalType": "uint32",
              "name": "enterpriseCollectGraceTime",
              "type": "uint32"
            },
            {
              "internalType": "uint112",
              "name": "gcFee",
              "type": "uint112"
            },
            {
              "internalType": "uint16",
              "name": "gcFeeTokenIndex",
              "type": "uint16"
            }
          ],
          "internalType": "struct EnterpriseStorage.LoanInfo",
          "name": "",
          "type": "tuple"
        }
      ],
      "stateMutability": "view",
      "type": "function"
    },
    {
      "inputs": [
        {
          "internalType": "uint256",
          "name": "tokenId",
          "type": "uint256"
        }
      ],
      "name": "getOwedInterest",
      "outputs": [
        {
          "internalType": "uint256",
          "name": "",
          "type": "uint256"
        }
      ],
      "stateMutability": "view",
      "type": "function"
    },
    {
      "inputs": [
        {
          "internalType": "uint256",
          "name": "index",
          "type": "uint256"
        }
      ],
      "name": "getPowerToken",
      "outputs": [
        {
          "internalType": "contract IPowerToken",
          "name": "",
          "type": "address"
        }
      ],
      "stateMutability": "view",
      "type": "function"
    },
    {
      "inputs": [],
      "name": "getPowerTokenImpl",
      "outputs": [
        {
          "internalType": "address",
          "name": "",
          "type": "address"
        }
      ],
      "stateMutability": "view",
      "type": "function"
    },
    {
      "inputs": [
        {
          "internalType": "contract IPowerToken",
          "name": "powerToken",
          "type": "address"
        }
      ],
      "name": "getPowerTokenIndex",
      "outputs": [
        {
          "internalType": "uint16",
          "name": "",
          "type": "uint16"
        }
      ],
      "stateMutability": "view",
      "type": "function"
    },
    {
      "inputs": [],
      "name": "getPowerTokens",
      "outputs": [
        {
          "internalType": "contract IPowerToken[]",
          "name": "",
          "type": "address[]"
        }
      ],
      "stateMutability": "view",
      "type": "function"
    },
    {
      "inputs": [],
      "name": "getReserve",
      "outputs": [
        {
          "internalType": "uint256",
          "name": "",
          "type": "uint256"
        }
      ],
      "stateMutability": "view",
      "type": "function"
    },
    {
      "inputs": [
        {
          "internalType": "contract IPowerToken",
          "name": "powerToken",
          "type": "address"
        }
      ],
      "name": "getService",
      "outputs": [
        {
          "internalType": "string",
          "name": "name",
          "type": "string"
        },
        {
          "internalType": "string",
          "name": "symbol",
          "type": "string"
        },
        {
          "components": [
            {
              "internalType": "uint112",
              "name": "baseRate",
              "type": "uint112"
            },
            {
              "internalType": "uint96",
              "name": "minGCFee",
              "type": "uint96"
            },
            {
              "internalType": "uint32",
              "name": "halfLife",
              "type": "uint32"
            },
            {
              "internalType": "uint16",
              "name": "index",
              "type": "uint16"
            },
            {
              "internalType": "contract IERC20Metadata",
              "name": "baseToken",
              "type": "address"
            },
            {
              "internalType": "uint32",
              "name": "minLoanDuration",
              "type": "uint32"
            },
            {
              "internalType": "uint32",
              "name": "maxLoanDuration",
              "type": "uint32"
            },
            {
              "internalType": "uint16",
              "name": "serviceFeePercent",
              "type": "uint16"
            },
            {
              "internalType": "bool",
              "name": "allowsPerpetual",
              "type": "bool"
            }
          ],
          "internalType": "struct EnterpriseStorage.ServiceConfig",
          "name": "config",
          "type": "tuple"
        }
      ],
      "stateMutability": "view",
      "type": "function"
    },
    {
      "inputs": [
        {
          "internalType": "contract IPowerToken",
          "name": "powerToken",
          "type": "address"
        }
      ],
      "name": "getServiceBaseRate",
      "outputs": [
        {
          "internalType": "uint112",
          "name": "",
          "type": "uint112"
        }
      ],
      "stateMutability": "view",
      "type": "function"
    },
    {
      "inputs": [
        {
          "internalType": "contract IPowerToken",
          "name": "powerToken",
          "type": "address"
        }
      ],
      "name": "getServiceBaseToken",
      "outputs": [
        {
          "internalType": "contract IERC20Metadata",
          "name": "",
          "type": "address"
        }
      ],
      "stateMutability": "view",
      "type": "function"
    },
    {
      "inputs": [
        {
          "internalType": "contract IPowerToken",
          "name": "powerToken",
          "type": "address"
        }
      ],
      "name": "getServiceFeePercent",
      "outputs": [
        {
          "internalType": "uint112",
          "name": "",
          "type": "uint112"
        }
      ],
      "stateMutability": "view",
      "type": "function"
    },
    {
      "inputs": [
        {
          "internalType": "contract IPowerToken",
          "name": "powerToken",
          "type": "address"
        }
      ],
      "name": "getServiceHalfLife",
      "outputs": [
        {
          "internalType": "uint32",
          "name": "",
          "type": "uint32"
        }
      ],
      "stateMutability": "view",
      "type": "function"
    },
    {
      "inputs": [
        {
          "internalType": "contract IPowerToken",
          "name": "powerToken",
          "type": "address"
        }
      ],
      "name": "getServiceMaxLoanDuration",
      "outputs": [
        {
          "internalType": "uint32",
          "name": "",
          "type": "uint32"
        }
      ],
      "stateMutability": "view",
      "type": "function"
    },
    {
      "inputs": [
        {
          "internalType": "contract IPowerToken",
          "name": "powerToken",
          "type": "address"
        }
      ],
      "name": "getServiceMinGCFee",
      "outputs": [
        {
          "internalType": "uint112",
          "name": "",
          "type": "uint112"
        }
      ],
      "stateMutability": "view",
      "type": "function"
    },
    {
      "inputs": [
        {
          "internalType": "contract IPowerToken",
          "name": "powerToken",
          "type": "address"
        }
      ],
      "name": "getServiceMinLoanDuration",
      "outputs": [
        {
          "internalType": "uint32",
          "name": "",
          "type": "uint32"
        }
      ],
      "stateMutability": "view",
      "type": "function"
    },
    {
      "inputs": [],
      "name": "getServices",
      "outputs": [
        {
          "internalType": "address[]",
          "name": "addresses",
          "type": "address[]"
        },
        {
          "internalType": "string[]",
          "name": "names",
          "type": "string[]"
        },
        {
          "internalType": "string[]",
          "name": "symbols",
          "type": "string[]"
        },
        {
          "components": [
            {
              "internalType": "uint112",
              "name": "baseRate",
              "type": "uint112"
            },
            {
              "internalType": "uint96",
              "name": "minGCFee",
              "type": "uint96"
            },
            {
              "internalType": "uint32",
              "name": "halfLife",
              "type": "uint32"
            },
            {
              "internalType": "uint16",
              "name": "index",
              "type": "uint16"
            },
            {
              "internalType": "contract IERC20Metadata",
              "name": "baseToken",
              "type": "address"
            },
            {
              "internalType": "uint32",
              "name": "minLoanDuration",
              "type": "uint32"
            },
            {
              "internalType": "uint32",
              "name": "maxLoanDuration",
              "type": "uint32"
            },
            {
              "internalType": "uint16",
              "name": "serviceFeePercent",
              "type": "uint16"
            },
            {
              "internalType": "bool",
              "name": "allowsPerpetual",
              "type": "bool"
            }
          ],
          "internalType": "struct EnterpriseStorage.ServiceConfig[]",
          "name": "configs",
          "type": "tuple[]"
        }
      ],
      "stateMutability": "view",
      "type": "function"
    },
    {
      "inputs": [],
      "name": "getUsedReserve",
      "outputs": [
        {
          "internalType": "uint256",
          "name": "",
          "type": "uint256"
        }
      ],
      "stateMutability": "view",
      "type": "function"
    },
    {
      "inputs": [
        {
          "internalType": "address",
          "name": "initialOwner",
          "type": "address"
        }
      ],
      "name": "initialize",
      "outputs": [],
      "stateMutability": "nonpayable",
      "type": "function"
    },
    {
      "inputs": [
        {
          "internalType": "string",
          "name": "enterpriseName",
          "type": "string"
        },
        {
          "internalType": "string",
          "name": "baseUri",
          "type": "string"
        },
        {
          "internalType": "contract IEstimator",
          "name": "estimator",
          "type": "address"
        },
        {
          "internalType": "contract IConverter",
          "name": "converter",
          "type": "address"
        },
        {
          "internalType": "address",
          "name": "owner",
          "type": "address"
        }
      ],
      "name": "initialize",
      "outputs": [],
      "stateMutability": "nonpayable",
      "type": "function"
    },
    {
      "inputs": [
        {
          "internalType": "address",
          "name": "powerTokenImpl",
          "type": "address"
        },
        {
          "internalType": "contract IERC20Metadata",
          "name": "liquidityToken",
          "type": "address"
        },
        {
          "internalType": "contract IInterestToken",
          "name": "interestToken",
          "type": "address"
        },
        {
          "internalType": "contract IBorrowToken",
          "name": "borrowToken",
          "type": "address"
        }
      ],
      "name": "initializeTokens",
      "outputs": [],
      "stateMutability": "nonpayable",
      "type": "function"
    },
    {
      "inputs": [
        {
          "internalType": "contract IPowerToken",
          "name": "powerToken",
          "type": "address"
        }
      ],
      "name": "isRegisteredPowerToken",
      "outputs": [
        {
          "internalType": "bool",
          "name": "",
          "type": "bool"
        }
      ],
      "stateMutability": "view",
      "type": "function"
    },
    {
      "inputs": [
        {
          "internalType": "contract IPowerToken",
          "name": "powerToken",
          "type": "address"
        },
        {
          "internalType": "uint32",
          "name": "duration",
          "type": "uint32"
        }
      ],
      "name": "isServiceAllowedLoanDuration",
      "outputs": [
        {
          "internalType": "bool",
          "name": "",
          "type": "bool"
        }
      ],
      "stateMutability": "view",
      "type": "function"
    },
    {
      "inputs": [
        {
          "internalType": "contract IERC20",
          "name": "token",
          "type": "address"
        }
      ],
      "name": "isSupportedPaymentToken",
      "outputs": [
        {
          "internalType": "bool",
          "name": "",
          "type": "bool"
        }
      ],
      "stateMutability": "view",
      "type": "function"
    },
    {
      "inputs": [
        {
          "internalType": "address",
          "name": "from",
          "type": "address"
        },
        {
          "internalType": "address",
          "name": "to",
          "type": "address"
        },
        {
          "internalType": "uint256",
          "name": "tokenId",
          "type": "uint256"
        }
      ],
      "name": "loanTransfer",
      "outputs": [],
      "stateMutability": "nonpayable",
      "type": "function"
    },
    {
      "inputs": [],
      "name": "owner",
      "outputs": [
        {
          "internalType": "address",
          "name": "",
          "type": "address"
        }
      ],
      "stateMutability": "view",
      "type": "function"
    },
    {
      "inputs": [
        {
          "internalType": "uint256",
          "name": "index",
          "type": "uint256"
        }
      ],
      "name": "paymentToken",
      "outputs": [
        {
          "internalType": "address",
          "name": "",
          "type": "address"
        }
      ],
      "stateMutability": "view",
      "type": "function"
    },
    {
      "inputs": [
        {
          "internalType": "contract IERC20",
          "name": "token",
          "type": "address"
        }
      ],
      "name": "paymentTokenIndex",
      "outputs": [
        {
          "internalType": "int16",
          "name": "",
          "type": "int16"
        }
      ],
      "stateMutability": "view",
      "type": "function"
    },
    {
      "inputs": [
        {
          "internalType": "uint256",
          "name": "tokenId",
          "type": "uint256"
        },
        {
          "internalType": "contract IERC20",
          "name": "paymentToken",
          "type": "address"
        },
        {
          "internalType": "uint256",
          "name": "maximumPayment",
          "type": "uint256"
        },
        {
          "internalType": "uint32",
          "name": "duration",
          "type": "uint32"
        }
      ],
      "name": "reborrow",
      "outputs": [],
      "stateMutability": "nonpayable",
      "type": "function"
    },
    {
      "inputs": [
        {
          "internalType": "string",
          "name": "serviceName",
          "type": "string"
        },
        {
          "internalType": "string",
          "name": "symbol",
          "type": "string"
        },
        {
          "internalType": "uint32",
          "name": "halfLife",
          "type": "uint32"
        },
        {
          "internalType": "uint112",
          "name": "baseRate",
          "type": "uint112"
        },
        {
          "internalType": "contract IERC20Metadata",
          "name": "baseToken",
          "type": "address"
        },
        {
          "internalType": "uint16",
          "name": "serviceFeePercent",
          "type": "uint16"
        },
        {
          "internalType": "uint32",
          "name": "minLoanDuration",
          "type": "uint32"
        },
        {
          "internalType": "uint32",
          "name": "maxLoanDuration",
          "type": "uint32"
        },
        {
          "internalType": "uint96",
          "name": "minGCFee",
          "type": "uint96"
        },
        {
          "internalType": "bool",
          "name": "allowsPerpetualTokensForever",
          "type": "bool"
        }
      ],
      "name": "registerService",
      "outputs": [],
      "stateMutability": "nonpayable",
      "type": "function"
    },
    {
      "inputs": [
        {
          "internalType": "uint256",
          "name": "tokenId",
          "type": "uint256"
        }
      ],
      "name": "removeLiquidity",
      "outputs": [],
      "stateMutability": "nonpayable",
      "type": "function"
    },
    {
      "inputs": [
        {
          "internalType": "uint256",
          "name": "tokenId",
          "type": "uint256"
        }
      ],
      "name": "returnLoan",
      "outputs": [],
      "stateMutability": "nonpayable",
      "type": "function"
    },
    {
      "inputs": [
        {
          "internalType": "string",
          "name": "baseUri",
          "type": "string"
        }
      ],
      "name": "setBaseUri",
      "outputs": [],
      "stateMutability": "nonpayable",
      "type": "function"
    },
    {
      "inputs": [
        {
          "internalType": "uint32",
          "name": "newPeriod",
          "type": "uint32"
        }
      ],
      "name": "setBorrowerLoanReturnGracePeriod",
      "outputs": [],
      "stateMutability": "nonpayable",
      "type": "function"
    },
    {
      "inputs": [
        {
          "internalType": "contract IConverter",
          "name": "newConverter",
          "type": "address"
        }
      ],
      "name": "setConverter",
      "outputs": [],
      "stateMutability": "nonpayable",
      "type": "function"
    },
    {
      "inputs": [
        {
          "internalType": "address",
          "name": "newCollector",
          "type": "address"
        }
      ],
      "name": "setEnterpriseCollector",
      "outputs": [],
      "stateMutability": "nonpayable",
      "type": "function"
    },
    {
      "inputs": [
        {
          "internalType": "uint32",
          "name": "newPeriod",
          "type": "uint32"
        }
      ],
      "name": "setEnterpriseLoanCollectGracePeriod",
      "outputs": [],
      "stateMutability": "nonpayable",
      "type": "function"
    },
    {
      "inputs": [
        {
          "internalType": "address",
          "name": "newVault",
          "type": "address"
        }
      ],
      "name": "setEnterpriseVault",
      "outputs": [],
      "stateMutability": "nonpayable",
      "type": "function"
    },
    {
      "inputs": [
        {
          "internalType": "contract IEstimator",
          "name": "newEstimator",
          "type": "address"
        }
      ],
      "name": "setEstimator",
      "outputs": [],
      "stateMutability": "nonpayable",
      "type": "function"
    },
    {
      "inputs": [
        {
          "internalType": "uint16",
          "name": "newGcFeePercent",
          "type": "uint16"
        }
      ],
      "name": "setGcFeePercent",
      "outputs": [],
      "stateMutability": "nonpayable",
      "type": "function"
    },
    {
      "inputs": [
        {
          "internalType": "uint32",
          "name": "interestHalfLife",
          "type": "uint32"
        }
      ],
      "name": "setInterestHalfLife",
      "outputs": [],
      "stateMutability": "nonpayable",
      "type": "function"
    },
    {
      "inputs": [
        {
          "internalType": "contract IPowerToken",
          "name": "powerToken",
          "type": "address"
        },
        {
          "internalType": "uint112",
          "name": "baseRate",
          "type": "uint112"
        },
        {
          "internalType": "contract IERC20Metadata",
          "name": "baseToken",
          "type": "address"
        },
        {
          "internalType": "uint96",
          "name": "minGCFee",
          "type": "uint96"
        }
      ],
      "name": "setServiceBaseRate",
      "outputs": [],
      "stateMutability": "nonpayable",
      "type": "function"
    },
    {
      "inputs": [
        {
          "internalType": "contract IPowerToken",
          "name": "powerToken",
          "type": "address"
        },
        {
          "internalType": "uint16",
          "name": "newServiceFeePercent",
          "type": "uint16"
        }
      ],
      "name": "setServiceFeePercent",
      "outputs": [],
      "stateMutability": "nonpayable",
      "type": "function"
    },
    {
      "inputs": [
        {
          "internalType": "contract IPowerToken[]",
          "name": "powerToken",
          "type": "address[]"
        },
        {
          "internalType": "uint16[]",
          "name": "newServiceFeePercent",
          "type": "uint16[]"
        }
      ],
      "name": "setServiceFeePercentBatch",
      "outputs": [],
      "stateMutability": "nonpayable",
      "type": "function"
    },
    {
      "inputs": [
        {
          "internalType": "contract IPowerToken",
          "name": "powerToken",
          "type": "address"
        },
        {
          "internalType": "uint32",
          "name": "minLoanDuration",
          "type": "uint32"
        },
        {
          "internalType": "uint32",
          "name": "maxLoanDuration",
          "type": "uint32"
        }
      ],
      "name": "setServiceLoanDurationLimits",
      "outputs": [],
      "stateMutability": "nonpayable",
      "type": "function"
    },
    {
      "inputs": [
        {
          "internalType": "address",
          "name": "newOwner",
          "type": "address"
        }
      ],
      "name": "transferOwnership",
      "outputs": [],
      "stateMutability": "nonpayable",
      "type": "function"
    },
    {
      "inputs": [
        {
          "internalType": "contract IPowerToken",
          "name": "powerToken",
          "type": "address"
        },
        {
          "internalType": "uint256",
          "name": "amount",
          "type": "uint256"
        }
      ],
      "name": "unwrap",
      "outputs": [
        {
          "internalType": "bool",
          "name": "",
          "type": "bool"
        }
      ],
      "stateMutability": "nonpayable",
      "type": "function"
    },
    {
      "inputs": [
        {
          "internalType": "uint256",
          "name": "tokenId",
          "type": "uint256"
        }
      ],
      "name": "withdrawInterest",
      "outputs": [],
      "stateMutability": "nonpayable",
      "type": "function"
    },
    {
      "inputs": [
        {
          "internalType": "contract IPowerToken",
          "name": "powerToken",
          "type": "address"
        },
        {
          "internalType": "uint256",
          "name": "amount",
          "type": "uint256"
        }
      ],
      "name": "wrap",
      "outputs": [
        {
          "internalType": "bool",
          "name": "",
          "type": "bool"
        }
      ],
      "stateMutability": "nonpayable",
      "type": "function"
    },
    {
      "inputs": [
        {
          "internalType": "contract IPowerToken",
          "name": "powerToken",
          "type": "address"
        },
        {
          "internalType": "address",
          "name": "to",
          "type": "address"
        },
        {
          "internalType": "uint256",
          "name": "amount",
          "type": "uint256"
        }
      ],
      "name": "wrapTo",
      "outputs": [
        {
          "internalType": "bool",
          "name": "",
          "type": "bool"
        }
      ],
      "stateMutability": "nonpayable",
      "type": "function"
    }
  ],
  "bytecode": "0x608060405234801561001057600080fd5b50615cb880620000216000396000f3fe608060405234801561001057600080fd5b50600436106104125760003560e01c806390f55edd11610220578063c20aa9bc11610130578063e9028683116100b8578063f4e28f9a11610087578063f4e28f9a14610b57578063f54133bb14610b90578063faaed4ad14610ba3578063fbac9a5514610bb6578063fcb2884e14610bdc57600080fd5b8063e902868314610ae5578063e912615414610b1e578063edc1a62814610b31578063f2fde38b14610b4457600080fd5b8063d1c82007116100ff578063d1c8200714610a1d578063db0ed6a014610a56578063df57f2fa14610a69578063e2b17a1614610a9e578063e36eca0c14610ab157600080fd5b8063c20aa9bc146109d3578063c2fe50dd146109e6578063c4d66de8146109f9578063c93d0b9214610a0c57600080fd5b8063aebb5041116101b3578063b96266fa11610182578063b96266fa14610974578063bf17088014610989578063bf376c7a1461099a578063bf3bb1a5146109ad578063bfd84fb4146109c057600080fd5b8063aebb504114610924578063b19337a41461092c578063b406bf6d1461093f578063b56de97e1461096157600080fd5b8063a0bcfc7f116101ef578063a0bcfc7f146108d8578063a0efd118146108eb578063a358426f14610900578063a554b26d1461091357600080fd5b806390f55edd1461088c5780639ab711931461089f5780639c7aa7f8146108b25780639c8f9f23146108c557600080fd5b8063449497ec116103265780637791c42d116102ae57806383b9a0091161027d57806383b9a0091461080e57806389035b611461081f5780638d6d50c9146108325780638da5cb5b146108685780638e9fcf811461087957600080fd5b80637791c42d146107c25780637dcfeb73146107d35780637eda9ff8146107e65780638188d50d146107f957600080fd5b806359bf5d39116102f557806359bf5d391461075e5780635a9b0b891461076657806362c1f38814610786578063644e44df1461079957806375417851146107aa57600080fd5b8063449497ec146106f6578063512a53bc1461070957806351c6590a1461071c57806353c091241461072f57600080fd5b80632261b07f116103a95780632e365ade116103785780632e365ade146106745780632fb2067f146106875780633184fc64146106aa57806337592148146106bd57806339f47693146106e357600080fd5b80632261b07f146105c1578063229304dc146105d25780632457056e146105f35780632b39a0ac1461063d57600080fd5b80630e101b60116103e55780630e101b60146105685780630ea1dc9e1461057b57806311eec5291461058c57806315a523021461059f57600080fd5b806304196058146104175780630714012c1461044757806308669aab1461053e5780630cac36b214610553575b600080fd5b61042a61042536600461536b565b610be4565b6040516001600160a01b0390911681526020015b60405180910390f35b61053161045536600461536b565b6040805161010081018252600080825260208201819052918101829052606081018290526080810182905260a0810182905260c0810182905260e08101919091525060009081526011602090815260409182902082516101008101845281546001600160701b038082168352600160701b80830461ffff90811696850196909652600160801b830463ffffffff90811697850197909752600160a01b830487166060850152600160c01b830487166080850152600160e01b90920490951660a083015260019092015493841660c082015292041660e082015290565b60405161043e91906158ef565b61055161054c36600461536b565b610c22565b005b61055b610d05565b60405161043e9190615683565b61042a61057636600461536b565b610d97565b6002546001600160a01b031661042a565b61055161059a366004614e98565b610dba565b6105b26105ad366004614dc5565b610f0d565b60405161043e939291906156d4565b6006546001600160a01b031661042a565b6105e56105e0366004614f93565b6110c8565b60405190815260200161043e565b610625610601366004614dc5565b6001600160a01b03166000908152601360205260409020546001600160701b031690565b6040516001600160701b03909116815260200161043e565b61062561064b366004614dc5565b6001600160a01b0316600090815260136020526040902060010154600160e01b900461ffff1690565b6105516106823660046153d7565b61117e565b61069a610695366004614dc5565b611228565b604051901515815260200161043e565b6105516106b8366004614e3d565b61124b565b600454600160a01b900463ffffffff165b60405163ffffffff909116815260200161043e565b61069a6106f136600461506e565b6112f3565b610551610704366004615351565b611393565b610551610717366004614dfd565b6113df565b61055161072a36600461536b565b6116e2565b61042a61073d366004614dc5565b6001600160a01b039081166000908152601360205260409020600101541690565b6105e561180b565b61076e611830565b60405161043e9c9b9a9998979695949392919061570c565b610551610794366004614dc5565b6119f3565b6001546001600160a01b031661042a565b6107b2611a65565b60405161043e949392919061557e565b6008546001600160a01b031661042a565b6105516107e1366004614fec565b611d16565b6105516107f4366004614dc5565b611e19565b600854600160a01b900463ffffffff166106ce565b6004546001600160a01b031661042a565b61069a61082d366004614dc5565b611e8b565b6106ce610840366004614dc5565b6001600160a01b0316600090815260136020526040902054600160d01b900463ffffffff1690565b6000546001600160a01b031661042a565b6105516108873660046150c4565b611eb5565b61055161089a366004614dc5565b611fb1565b6105516108ad36600461524e565b612023565b6105516108c0366004614dc5565b612605565b6105516108d336600461536b565b61263b565b6105516108e6366004615108565b6127cc565b600854600160c01b900463ffffffff166106ce565b61069a61090e366004615099565b612807565b6007546001600160a01b031661042a565b6105e5612860565b61055161093a366004614dc5565b612877565b600854600160e01b900461ffff165b60405161ffff909116815260200161043e565b61055161096f3660046153d7565b6128e9565b61097c612992565b60405161043e9190615636565b6005546001600160a01b031661042a565b61069a6109a836600461506e565b6129f3565b6105e56109bb36600461536b565b612a26565b6105516109ce366004614dc5565b612a55565b6105516109e136600461503a565b612aae565b6105516109f436600461539b565b612b08565b610551610a07366004614dc5565b612f84565b6003546001600160a01b031661042a565b6106ce610a2b366004614dc5565b6001600160a01b0316600090815260136020526040902060010154600160a01b900463ffffffff1690565b610551610a643660046151b0565b6130a4565b610a7c610a7736600461536b565b6131a6565b604080518251815260208084015190820152918101519082015260600161043e565b610551610aac366004614f30565b613203565b61094e610abf366004614dc5565b6001600160a01b0316600090815260136020526040902054600160f01b900461ffff1690565b610625610af3366004614dc5565b6001600160a01b0316600090815260136020526040902054600160701b90046001600160601b031690565b610551610b2c36600461536b565b61383f565b610551610b3f3660046153d7565b613849565b610551610b52366004614dc5565b6138e3565b6106ce610b65366004614dc5565b6001600160a01b0316600090815260136020526040902060010154600160c01b900463ffffffff1690565b610551610b9e366004614dc5565b6139cd565b61069a610bb1366004614f1c565b613acd565b610bc9610bc4366004614dc5565b613b09565b60405160019190910b815260200161043e565b600d546105e5565b600060148281548110610c0757634e487b7160e01b600052603260045260246000fd5b6000918252602090912001546001600160a01b031692915050565b60008181526012602052604081206001810154815491929091610c4483613b36565b610c4e9190615b0f565b9050610c58612860565b811115610ca55760405162461bcd60e51b8152602060048201526016602482015275496e73756666696369656e74206c697175696469747960501b60448201526064015b60405180910390fd5b600154610cbc906001600160a01b03163383613b58565b6000610ccb8460000154613bbb565b600185018190559050610cde8184615b0f565b600f6000828254610cef9190615b0f565b90915550610cfe905082613bd3565b5050505050565b6060600b8054610d1490615b6f565b80601f0160208091040260200160405190810160405280929190818152602001828054610d4090615b6f565b8015610d8d5780601f10610d6257610100808354040283529160200191610d8d565b820191906000526020600020905b815481529060010190602001808311610d7057829003601f168201915b5050505050905090565b6000600a8281548110610c0757634e487b7160e01b600052603260045260246000fd5b6000546001600160a01b03163314610de45760405162461bcd60e51b8152600401610c9c90615857565b828114610e2a5760405162461bcd60e51b8152602060048201526014602482015273092dcecc2d8d2c840c2e4e4c2f240d8cadccee8d60631b6044820152606401610c9c565b60005b83811015610cfe57610e6d858583818110610e5857634e487b7160e01b600052603260045260246000fd5b905060200201602081019061082d9190614dc5565b610e895760405162461bcd60e51b8152600401610c9c9061588c565b610efb858583818110610eac57634e487b7160e01b600052603260045260246000fd5b9050602002016020810190610ec19190614dc5565b848484818110610ee157634e487b7160e01b600052603260045260246000fd5b9050602002016020810190610ef69190615351565b613c2e565b80610f0581615baa565b915050610e2d565b606080610f18614b35565b836001600160a01b03166306fdde036040518163ffffffff1660e01b815260040160006040518083038186803b158015610f5157600080fd5b505afa158015610f65573d6000803e3d6000fd5b505050506040513d6000823e601f3d908101601f19168201604052610f8d9190810190615147565b846001600160a01b03166395d89b416040518163ffffffff1660e01b815260040160006040518083038186803b158015610fc657600080fd5b505afa158015610fda573d6000803e3d6000fd5b505050506040513d6000823e601f3d908101601f191682016040526110029190810190615147565b6001600160a01b0395861660009081526013602090815260409182902082516101208101845281546001600160701b0381168252600160701b81046001600160601b031693820193909352600160d01b830463ffffffff90811694820194909452600160f01b9283900461ffff9081166060830152600190920154998a166080820152600160a01b8a04841660a0820152600160c01b8a0490931660c0840152600160e01b89041660e083015290960460ff161515610100870152909590949350915050565b6000846110d481611e8b565b6110f05760405162461bcd60e51b8152600401610c9c9061588c565b6110f985611228565b6111155760405162461bcd60e51b8152600401610c9c90615804565b61111f8684612807565b61113b5760405162461bcd60e51b8152600401610c9c906158b8565b600080600061114c89898989613cce565b919450925090508061115e83856159ea565b61116891906159ea565b6001600160701b03169998505050505050505050565b6000546001600160a01b031633146111a85760405162461bcd60e51b8152600401610c9c90615857565b60085463ffffffff600160c01b909104811690821611156112025760405162461bcd60e51b8152602060048201526014602482015273125b9d985b1a590819dc9858d9481c195c9a5bd960621b6044820152606401610c9c565b6008805463ffffffff909216600160a01b0263ffffffff60a01b19909216919091179055565b6001600160a01b0316600090815260096020526040812054600190810b900b1390565b6004546001600160a01b03161561129a5760405162461bcd60e51b8152602060048201526013602482015272105b1c9958591e481a5b9a5d1a585b1a5e9959606a1b6044820152606401610c9c565b600480546001600160a01b038087166001600160a01b031992831617909255600180548684169083161790556002805485841690831617905560038054928416929091169190911790556112ed83613e83565b50505050565b6000826112ff81611e8b565b61131b5760405162461bcd60e51b8152600401610c9c9061588c565b600154604051638cc7104f60e01b81526001600160a01b0391821660048201523360248201526044810185905290851690638cc7104f90606401600060405180830381600087803b15801561136f57600080fd5b505af1158015611383573d6000803e3d6000fd5b50505050600191505b5092915050565b6000546001600160a01b031633146113bd5760405162461bcd60e51b8152600401610c9c90615857565b6008805461ffff909216600160e01b0261ffff60e01b19909216919091179055565b6003546001600160a01b0316331461142b5760405162461bcd60e51b815260206004820152600f60248201526e2737ba102137b93937bbaa37b5b2b760891b6044820152606401610c9c565b600081815260116020908152604080832081516101008101835281546001600160701b03808216835261ffff600160701b808404821697850188905263ffffffff600160801b8504811697860197909752600160a01b840487166060860152600160c01b840487166080860152600160e01b90930490951660a084015260019093015492831660c083015290910490911660e082015260148054919392909181106114e657634e487b7160e01b600052603260045260246000fd5b6000918252602090912001546001600160a01b031690508061151a5760405162461bcd60e51b8152600401610c9c906157b5565b606082015163ffffffff1642116001600160a01b03868116159086161580156115b157845160405163079cc67960e41b81526001600160a01b038a811660048301526001600160701b039092166024820152908516906379cc6790906044015b600060405180830381600087803b15801561159457600080fd5b505af11580156115a8573d6000803e3d6000fd5b505050506116d8565b81156115f85784516040516340c10f1960e01b81526001600160a01b0389811660048301526001600160701b039092166024820152908516906340c10f199060440161157a565b826116995784516040516333bebb7760e01b81526001600160a01b038a8116600483015289811660248301526001600160701b039092166044820152908516906333bebb7790606401602060405180830381600087803b15801561165b57600080fd5b505af115801561166f573d6000803e3d6000fd5b505050506040513d601f19601f820116820180604052508101906116939190614f00565b506116d8565b60405162461bcd60e51b81526020600482015260146024820152732737ba1030b63637bbb2b2103a3930b739b332b960611b6044820152606401610c9c565b5050505050505050565b6001546116fa906001600160a01b0316333084613f9a565b6000600f546000141561170e57508061171a565b61171782613b36565b90505b81600c600082825461172c9190615a15565b90915550506002546040516335313c2160e11b81523360048201526000916001600160a01b031690636a62784290602401602060405180830381600087803b15801561177757600080fd5b505af115801561178b573d6000803e3d6000fd5b505050506040513d601f19601f820116820180604052508101906117af9190615383565b6040805160608101825285815260208082018681524383850190815260008681526012909352938220925183555160018301559151600290910155600f80549293508492909190611801908490615a15565b9091555050505050565b6000611815613fd2565b6001600160701b0316600c5461182b9190615a15565b905090565b600f54600454600854600c54600d54600e546010805460609788976000978897889788978897889788978897889788979496600b96939563ffffffff600160a01b94859004811696948404811695600160c01b850482169561ffff600160e01b9687900416959394936001600160701b0380841694600160701b8504909116939190910416908c906118c190615b6f565b80601f01602080910402602001604051908101604052809291908181526020018280546118ed90615b6f565b801561193a5780601f1061190f5761010080835404028352916020019161193a565b820191906000526020600020905b81548152906001019060200180831161191d57829003601f168201915b50505050509b508a805461194d90615b6f565b80601f016020809104026020016040519081016040528092919081815260200182805461197990615b6f565b80156119c65780601f1061199b576101008083540402835291602001916119c6565b820191906000526020600020905b8154815290600101906020018083116119a957829003601f168201915b50505050509a509b509b509b509b509b509b509b509b509b509b509b509b50909192939495969798999a9b565b6000546001600160a01b03163314611a1d5760405162461bcd60e51b8152600401610c9c90615857565b6001600160a01b038116611a435760405162461bcd60e51b8152600401610c9c906157de565b600780546001600160a01b0319166001600160a01b0392909216919091179055565b601454606090819081908190806001600160401b03811115611a9757634e487b7160e01b600052604160045260246000fd5b604051908082528060200260200182016040528015611ac0578160200160208202803683370190505b509450806001600160401b03811115611ae957634e487b7160e01b600052604160045260246000fd5b604051908082528060200260200182016040528015611b1c57816020015b6060815260200190600190039081611b075790505b509350806001600160401b03811115611b4557634e487b7160e01b600052604160045260246000fd5b604051908082528060200260200182016040528015611b7857816020015b6060815260200190600190039081611b635790505b509250806001600160401b03811115611ba157634e487b7160e01b600052604160045260246000fd5b604051908082528060200260200182016040528015611bda57816020015b611bc7614b35565b815260200190600190039081611bbf5790505b50915060005b81811015611d0e57600060148281548110611c0b57634e487b7160e01b600052603260045260246000fd5b60009182526020822001546001600160a01b031691508080611c2c84610f0d565b925092509250838a8681518110611c5357634e487b7160e01b600052603260045260246000fd5b60200260200101906001600160a01b031690816001600160a01b03168152505082898681518110611c9457634e487b7160e01b600052603260045260246000fd5b602002602001018190525081888681518110611cc057634e487b7160e01b600052603260045260246000fd5b602002602001018190525080878681518110611cec57634e487b7160e01b600052603260045260246000fd5b6020026020010181905250505050508080611d0690615baa565b915050611be0565b505090919293565b6000546001600160a01b03163314611d405760405162461bcd60e51b8152600401610c9c90615857565b83611d4a81611e8b565b611d665760405162461bcd60e51b8152600401610c9c9061588c565b6001600160a01b038316611db15760405162461bcd60e51b815260206004820152601260248201527124b73b30b634b2102130b9b2902a37b5b2b760711b6044820152606401610c9c565b506001600160a01b0393841660009081526013602052604090208054600182018054949096166001600160a01b0319909416939093179094556001600160601b0316600160701b026001600160d01b03199091166001600160701b0390921691909117179055565b6000546001600160a01b03163314611e435760405162461bcd60e51b8152600401610c9c90615857565b6001600160a01b038116611e695760405162461bcd60e51b8152600401610c9c906157de565b600580546001600160a01b0319166001600160a01b0392909216919091179055565b6001600160a01b0316600090815260136020526040902054600160d01b900463ffffffff16151590565b6000546001600160a01b03163314611edf5760405162461bcd60e51b8152600401610c9c90615857565b82611ee981611e8b565b611f055760405162461bcd60e51b8152600401610c9c9061588c565b8163ffffffff168363ffffffff161115611f555760405162461bcd60e51b8152602060048201526011602482015270496e76616c6964206475726174696f6e7360781b6044820152606401610c9c565b506001600160a01b03929092166000908152601360205260409020600101805467ffffffffffffffff60a01b1916600160a01b63ffffffff9384160263ffffffff60c01b191617600160c01b9290931691909102919091179055565b6000546001600160a01b03163314611fdb5760405162461bcd60e51b8152600401610c9c90615857565b6001600160a01b0381166120015760405162461bcd60e51b8152600401610c9c906157de565b600880546001600160a01b0319166001600160a01b0392909216919091179055565b6000546001600160a01b0316331461204d5760405162461bcd60e51b8152600401610c9c90615857565b6001600160a01b0386166120985760405162461bcd60e51b815260206004820152601260248201527124b73b30b634b2102130b9b2902a37b5b2b760711b6044820152606401610c9c565b60145461ffff116120eb5760405162461bcd60e51b815260206004820152601d60248201527f43616e6e6f74207265676973746572206d6f72652073657276696365730000006044820152606401610c9c565b8263ffffffff168463ffffffff1611156121475760405162461bcd60e51b815260206004820152601b60248201527f496e76616c6964206d696e20616e64206d617820706572696f647300000000006044820152606401610c9c565b60008863ffffffff16116121915760405162461bcd60e51b8152602060048201526011602482015270496e76616c69642068616c66206c69666560781b6044820152606401610c9c565b6004546000906121a9906001600160a01b031661403a565b90506000600160009054906101000a90046001600160a01b03166001600160a01b03166395d89b416040518163ffffffff1660e01b815260040160006040518083038186803b1580156121fb57600080fd5b505afa15801561220f573d6000803e3d6000fd5b505050506040513d6000823e601f3d908101601f191682016040526122379190810190615147565b90506000818c60405160200161224e929190615542565b6040516020818303038152906040529050826001600160a01b031663077f224a8e83306040518463ffffffff1660e01b815260040161228f93929190615696565b600060405180830381600087803b1580156122a957600080fd5b505af11580156122bd573d6000803e3d6000fd5b5050505060006040518061012001604052808c6001600160701b03168152602001876001600160601b031681526020018d63ffffffff16815260200160148054905061ffff1681526020018b6001600160a01b031681526020018963ffffffff1681526020018863ffffffff1681526020018a61ffff16815260200186151581525090508060136000866001600160a01b03166001600160a01b0316815260200190815260200160002060008201518160000160006101000a8154816001600160701b0302191690836001600160701b03160217905550602082015181600001600e6101000a8154816001600160601b0302191690836001600160601b03160217905550604082015181600001601a6101000a81548163ffffffff021916908363ffffffff160217905550606082015181600001601e6101000a81548161ffff021916908361ffff16021790555060808201518160010160006101000a8154816001600160a01b0302191690836001600160a01b0316021790555060a08201518160010160146101000a81548163ffffffff021916908363ffffffff16021790555060c08201518160010160186101000a81548163ffffffff021916908363ffffffff16021790555060e082015181600101601c6101000a81548161ffff021916908361ffff16021790555061010082015181600101601e6101000a81548160ff0219169083151502179055509050506014849080600181540180825580915050600190039060005260206000200160009091909190916101000a8154816001600160a01b0302191690836001600160a01b03160217905550600560009054906101000a90046001600160a01b03166001600160a01b031663508ee32c856040518263ffffffff1660e01b815260040161256691906001600160a01b0391909116815260200190565b600060405180830381600087803b15801561258057600080fd5b505af1158015612594573d6000803e3d6000fd5b50505050836001600160a01b03167f18706585e986f622c9d914abfb256d563b9ea274cd5d49124e0518aa314b8c128d8d6040516125ed92919063ffffffff9290921682526001600160701b0316602082015260400190565b60405180910390a25050505050505050505050505050565b6000546001600160a01b0316331461262f5760405162461bcd60e51b8152600401610c9c90615857565b612638816140d7565b50565b6000818152601260205260409020600281015443116126b25760405162461bcd60e51b815260206004820152602d60248201527f43616e6e6f742061646420616e642072656d6f7665206c69717569646974792060448201526c696e2073616d6520626c6f636b60981b6064820152608401610c9c565b600181015460006126c282613b36565b90506126cc612860565b8111156127145760405162461bcd60e51b8152602060048201526016602482015275496e73756666696369656e74206c697175696469747960501b6044820152606401610c9c565b600254604051630852cd8d60e31b8152600481018690526001600160a01b03909116906342966c6890602401600060405180830381600087803b15801561275a57600080fd5b505af115801561276e573d6000803e3d6000fd5b505060015461278a92506001600160a01b031690503383613b58565b81600f600082825461279c9190615b0f565b909155506127ab905081613bd3565b50505060009081526012602052604081208181556001810182905560020155565b6000546001600160a01b031633146127f65760405162461bcd60e51b8152600401610c9c90615857565b612802600b8383614b81565b505050565b6001600160a01b0382166000908152601360205260408120600181015463ffffffff808516600160a01b90920416118015906128585750600181015463ffffffff600160c01b909104811690841611155b949350505050565b6000600d5461286d61180b565b61182b9190615b0f565b6000546001600160a01b031633146128a15760405162461bcd60e51b8152600401610c9c90615857565b6001600160a01b0381166128c75760405162461bcd60e51b8152600401610c9c906157de565b600680546001600160a01b0319166001600160a01b0392909216919091179055565b6000546001600160a01b031633146129135760405162461bcd60e51b8152600401610c9c90615857565b60085463ffffffff808316600160a01b90920416111561296c5760405162461bcd60e51b8152602060048201526014602482015273125b9d985b1a590819dc9858d9481c195c9a5bd960621b6044820152606401610c9c565b6008805463ffffffff909216600160c01b0263ffffffff60c01b19909216919091179055565b60606014805480602002602001604051908101604052809291908181526020018280548015610d8d57602002820191906000526020600020905b81546001600160a01b031681526001909101906020018083116129cc575050505050905090565b6000826129ff81611e8b565b612a1b5760405162461bcd60e51b8152600401610c9c9061588c565b61285884338561417e565b600081815260126020526040812080546001820154612a4490613b36565b612a4e9190615b0f565b9392505050565b6000546001600160a01b03163314612a7f5760405162461bcd60e51b8152600401610c9c90615857565b6001600160a01b038116612aa55760405162461bcd60e51b8152600401610c9c906157de565b61263881613e83565b6000546001600160a01b03163314612ad85760405162461bcd60e51b8152600401610c9c90615857565b81612ae281611e8b565b612afe5760405162461bcd60e51b8152600401610c9c9061588c565b6128028383613c2e565b612b1183611228565b612b2d5760405162461bcd60e51b8152600401610c9c90615804565b60008481526011602052604081208054601480549293929091600160701b900461ffff16908110612b6e57634e487b7160e01b600052603260045260246000fd5b6000918252602090912001546001600160a01b0316905080612ba25760405162461bcd60e51b8152600401610c9c906157b5565b612bac8184612807565b612bc85760405162461bcd60e51b8152600401610c9c906158b8565b81544290612be4908590600160a01b900463ffffffff16615a2d565b63ffffffff161015612c2b5760405162461bcd60e51b815260206004820152601060248201526f24b73b30b634b210323ab930ba34b7b760811b6044820152606401610c9c565b8154600d80546001600160701b0390921691600090612c4b908490615b0f565b909155505081546000908190612c6e90849089906001600160701b031688613cce565b508554600d80549395509193506001600160701b031691600090612c93908490615a15565b9091555060009050612ca582846159ea565b6001600160701b0316905086811115612cf65760405162461bcd60e51b8152602060048201526013602482015272536c69707061676520697320746f6f2062696760681b6044820152606401610c9c565b612d0b6001600160a01b038916333084613f9a565b60065460015460405163029b465d60e01b81526001600160a01b038b81166004830152602482018590529182166044820152600092919091169063029b465d90606401602060405180830381600087803b158015612d6857600080fd5b505af1158015612d7c573d6000803e3d6000fd5b505050506040513d601f19601f82011682018060405250810190612da09190615383565b9050600082612db8836001600160701b038716615a83565b612dc29190615a4c565b600854600154919250612de2916001600160a01b03908116911683613b58565b6000612dee8284615b0f565b9050612df981614273565b8754600160a01b900463ffffffff16612e128a82615a2d565b895463ffffffff60a01b1916600160a01b63ffffffff928316810291909117808c55600854612e4b939083900481169290910416615a2d565b895463ffffffff60c01b1916600160c01b63ffffffff928316810291909117808c55600854612e8893929004821691600160a01b90910416615a2d565b895463ffffffff91909116600160e01b026001600160e01b0390911617895560055460405163f8642f2960e01b8152600481018f90526001600160a01b039091169063f8642f2990602401600060405180830381600087803b158015612eed57600080fd5b505af1158015612f01573d6000803e3d6000fd5b50505050876001600160a01b03167f9853650269815e203c5c9e228db9ca05cc6037f2c2723c94ed3260cf98324c998e838c60000160149054906101000a900463ffffffff16604051612f6d9392919092835263ffffffff918216602084015216604082015260600190565b60405180910390a250505050505050505050505050565b6000546001600160a01b031615612fef5760405162461bcd60e51b815260206004820152602960248201527f496e697469616c697a61626c654f776e61626c653a20616c726561647920696e6044820152681a5d1a585b1a5e995960ba1b6064820152608401610c9c565b6001600160a01b0381166130595760405162461bcd60e51b815260206004820152602b60248201527f496e697469616c697a61626c654f776e61626c653a20696e76616c696420696e60448201526a34ba34b0b61037bbb732b960a91b6064820152608401610c9c565b600080546001600160a01b0319166001600160a01b03831690811782556040519091907f8be0079c531659141344cd1fd0a4f28419497f9722a3daafe3b4186f6b6457e0908290a350565b601080546130b190615b6f565b1590506130f65760405162461bcd60e51b8152602060048201526013602482015272105b1c9958591e481a5b9a5d1a585b1a5e9959606a1b6044820152606401610c9c565b6130ff81612f84565b8551613112906010906020890190614c05565b5061311f600b8686614b81565b50600580546001600160a01b03199081166001600160a01b0395861617909155600680548216938516939093179092556008805460078054939095169290931682179093556004805463ffffffff60a01b191660e160a61b1790556001600160c01b0319909116176102a360a61b1763ffffffff60c01b19166102a360c71b179055505050565b6131ca60405180606001604052806000815260200160008152602001600081525090565b50600090815260126020908152604091829020825160608101845281548152600182015492810192909252600201549181019190915290565b8461320d81611e8b565b6132295760405162461bcd60e51b8152600401610c9c9061588c565b61323285611228565b61324e5760405162461bcd60e51b8152600401610c9c90615804565b6132588683612807565b6132745760405162461bcd60e51b8152600401610c9c906158b8565b61327c612860565b846001600160701b031611156132cc5760405162461bcd60e51b8152602060048201526015602482015274496e73756666696369656e7420726573657276657360581b6044820152606401610c9c565b6000806000806132de8a8a8a89613cce565b9550909350915083905060006132f483856159ea565b6001600160701b0316905087856001600160701b0316826133159190615a15565b11156133595760405162461bcd60e51b8152602060048201526013602482015272536c69707061676520697320746f6f2062696760681b6044820152606401610c9c565b61336e6001600160a01b038b16333084613f9a565b60065460015460405163029b465d60e01b81526001600160a01b038d81166004830152602482018590529182166044820152600092919091169063029b465d90606401602060405180830381600087803b1580156133cb57600080fd5b505af11580156133df573d6000803e3d6000fd5b505050506040513d601f19601f820116820180604052508101906134039190615383565b905060008261341b836001600160701b038816615a83565b6134259190615a4c565b600854600154919250613445916001600160a01b03908116911683613b58565b8a6001600160701b0316600d60008282546134609190615a15565b90915550600090506134728284615b0f565b905061347d81614273565b50506003546134aa95506001600160a01b038c81169550339450169150506001600160701b038516613f9a565b4260006134b78583615a2d565b90506000600360009054906101000a90046001600160a01b03166001600160a01b031663caa0f92a6040518163ffffffff1660e01b8152600401602060405180830381600087803b15801561350b57600080fd5b505af115801561351f573d6000803e3d6000fd5b505050506040513d601f19601f820116820180604052508101906135439190615383565b60408051610100810182526001600160701b038b1681526001600160a01b038d166000908152601360209081529083902054600160f01b900461ffff169082015263ffffffff8681169282019290925284821660608201526008549293509160808301916135b991600160a01b90041685615a2d565b63ffffffff168152602001600860189054906101000a900463ffffffff16846135e29190615a2d565b63ffffffff168152602001856001600160701b031681526020016136058b613b09565b61ffff9081169091526000838152601160209081526040918290208451815492860151868501516060880151608089015160a08a01516001600160701b039586166001600160801b031998891617600160701b958b1686021767ffffffffffffffff60801b1916600160801b63ffffffff9586160263ffffffff60a01b191617600160a01b93851693909302929092176001600160c01b0316600160c01b918416919091026001600160e01b031617600160e01b929091169190910217835560c08701516001909301805460e0909801519390921696909316959095179316029190911790915560035490516335313c2160e11b815233600482015282916001600160a01b031690636a62784290602401602060405180830381600087803b15801561373057600080fd5b505af1158015613744573d6000803e3d6000fd5b505050506040513d601f19601f820116820180604052508101906137689190615383565b1461378357634e487b7160e01b600052600160045260246000fd5b60055460405163f8642f2960e01b8152600481018390526001600160a01b039091169063f8642f2990602401600060405180830381600087803b1580156137c957600080fd5b505af11580156137dd573d6000803e3d6000fd5b50506040805184815263ffffffff878116602083015286168183015290516001600160a01b038e1693507f9853650269815e203c5c9e228db9ca05cc6037f2c2723c94ed3260cf98324c9992509081900360600190a250505050505050505050565b61263881336142ef565b6000546001600160a01b031633146138735760405162461bcd60e51b8152600401610c9c90615857565b60008163ffffffff16116138bd5760405162461bcd60e51b8152602060048201526011602482015270496e76616c69642068616c66206c69666560781b6044820152606401610c9c565b6004805463ffffffff909216600160a01b0263ffffffff60a01b19909216919091179055565b6000546001600160a01b0316331461390d5760405162461bcd60e51b8152600401610c9c90615857565b6001600160a01b0381166139725760405162461bcd60e51b815260206004820152602660248201527f4f776e61626c653a206e6577206f776e657220697320746865207a65726f206160448201526564647265737360d01b6064820152608401610c9c565b600080546040516001600160a01b03808516939216917f8be0079c531659141344cd1fd0a4f28419497f9722a3daafe3b4186f6b6457e091a3600080546001600160a01b0319166001600160a01b0392909216919091179055565b6000546001600160a01b031633146139f75760405162461bcd60e51b8152600401610c9c90615857565b80613a0181611e8b565b613a1d5760405162461bcd60e51b8152600401610c9c9061588c565b6001600160a01b038216600090815260136020526040902060010154600160f01b900460ff1615613a9f5760405162461bcd60e51b815260206004820152602660248201527f50657270657475616c20506f77657220546f6b656e7320616c726561647920616044820152651b1b1bddd95960d21b6064820152608401610c9c565b506001600160a01b03166000908152601360205260409020600101805460ff60f01b1916600160f01b179055565b600083613ad981611e8b565b613af55760405162461bcd60e51b8152600401610c9c9061588c565b613b0085858561417e565b95945050505050565b6001600160a01b038116600090815260096020526040812054613b3090600190810b615aa2565b92915050565b6000600f5482613b4461180b565b613b4e9190615a83565b613b309190615a4c565b6040516001600160a01b03831660248201526044810182905261280290849063a9059cbb60e01b906064015b60408051601f198184030181529190526020810180516001600160e01b03166001600160e01b0319909316929092179091526145fc565b6000613bc561180b565b82600f54613b4e9190615a83565b80600c5410613bf95780600c6000828254613bee9190615b0f565b909155506126389050565b6000613c036146ce565b6001600160701b031690508181600c54613c1d9190615a15565b613c279190615b0f565b600c555050565b61138861ffff82161115613c925760405162461bcd60e51b815260206004820152602560248201527f4d6178696d756d2073657276696365206665652070657263656e7420746872656044820152641cda1bdb1960da1b6064820152608401610c9c565b6001600160a01b039091166000908152601360205260409020600101805461ffff909216600160e01b0261ffff60e01b19909216919091179055565b600554604051630641977d60e21b81526001600160a01b0386811660048301526001600160701b038516602483015263ffffffff8416604483015260009283928392839216906319065df49060640160206040518083038186803b158015613d3557600080fd5b505afa158015613d49573d6000803e3d6000fd5b505050506040513d601f19601f82011682018060405250810190613d6d9190615335565b90506000613d7b898361475a565b6006546001600160a01b038b81166000908152601360205260408082206001015490516314fdc96760e11b815290831660048201526001600160701b03871660248201528c83166044820152939450929116906329fb92ce9060640160206040518083038186803b158015613def57600080fd5b505afa158015613e03573d6000803e3d6000fd5b505050506040513d601f19601f82011682018060405250810190613e279190615383565b9050826001600160701b031681836001600160701b0316613e489190615a83565b613e529190615a4c565b9450613e676001600160701b03861682615b0f565b9550613e748a8a8a6147a2565b93505050509450945094915050565b6001600160a01b038116600090815260096020526040902054600190810b900b613f1b57600a8054600180820183557fc65a7bb8d6351c1cf70c95a316cc6a92839c986682d98bc35f958f4883f9d2a890910180546001600160a01b0319166001600160a01b039490941693841790559054600092835260096020526040909220805461ffff191661ffff9390920b92909216179055565b6001600160a01b038116600090815260096020526040812054600190810b900b1215612638576001600160a01b038116600090815260096020526040902054613f669060010b615be8565b6001600160a01b0382166000908152600960205260409020805460019290920b61ffff1661ffff1990921691909117905550565b6040516001600160a01b03808516602483015283166044820152606481018290526112ed9085906323b872dd60e01b90608401613b84565b600e5460009061401d9063ffffffff600160e01b82041690614007906001600160701b0380821691600160701b900416615ae7565b600454600160a01b900463ffffffff16426148b9565b600e5461182b9190600160701b90046001600160701b0316615ae7565b6000604051733d602d80600a3d3981f3363d3d373d3d3d363d7360601b81528260601b60148201526e5af43d82803e903d91602b57fd5bf360881b60288201526037816000f09150506001600160a01b0381166140d25760405162461bcd60e51b8152602060048201526016602482015275115490cc4c4d8dce8818dc99585d194819985a5b195960521b6044820152606401610c9c565b919050565b6001600160a01b038116600090815260096020526040902054600190810b900b6141335760405162461bcd60e51b815260206004820152600d60248201526c24b73b30b634b2103a37b5b2b760991b6044820152606401610c9c565b6001600160a01b038116600090815260096020526040812054600190810b900b1315612638576001600160a01b038116600090815260096020526040902054613f669060010b615be8565b6001600160a01b0383166000908152601360205260408120600190810154600160f01b900460ff161515146141f55760405162461bcd60e51b815260206004820152601760248201527f5772617070696e67206973206e6f7420616c6c6f7765640000000000000000006044820152606401610c9c565b60015460405163a1571a5760e01b81526001600160a01b0391821660048201523360248201528482166044820152606481018490529085169063a1571a5790608401600060405180830381600087803b15801561425157600080fd5b505af1158015614265573d6000803e3d6000fd5b506001979650505050505050565b61427b613fd2565b600e805463ffffffff4216600160e01b026dffffffffffffffffffffffffffff60701b9091166001600160701b039384161717808255839282916142c8918591600160701b9004166159ea565b92506101000a8154816001600160701b0302191690836001600160701b0316021790555050565b60008281526011602052604081208054601480549293929091600160701b900461ffff1690811061433057634e487b7160e01b600052603260045260246000fd5b6000918252602090912001546001600160a01b03169050806143645760405162461bcd60e51b8152600401610c9c906157b5565b6003546040516331a9108f60e11b8152600481018690526000916001600160a01b031690636352211e9060240160206040518083038186803b1580156143a957600080fd5b505afa1580156143bd573d6000803e3d6000fd5b505050506040513d601f19601f820116820180604052508101906143e19190614de1565b8354909150429063ffffffff808316600160c01b9092041610806144165750816001600160a01b0316856001600160a01b0316145b6144805760405162461bcd60e51b815260206004820152603560248201527f4f6e6c7920626f72726f7765722063616e2072657475726e2077697468696e20604482015274189bdc9c9bddd95c8819dc9858d9481c195c9a5bd9605a1b6064820152608401610c9c565b835463ffffffff808316600160e01b9092041610806144b05750816001600160a01b0316856001600160a01b0316145b806144c857506007546001600160a01b038681169116145b6145485760405162461bcd60e51b815260206004820152604560248201527f4f6e6c7920626f72726f776572206f7220656e74657270726973652063616e2060448201527f72657475726e2077697468696e20656e74657270726973652067726163652070606482015264195c9a5bd960da1b608482015260a401610c9c565b8354600d80546001600160701b0390921691600090614568908490615b0f565b9091555050600354604051633f34d4cf60e21b8152600481018890526001600160a01b0387811660248301529091169063fcd3533c90604401600060405180830381600087803b1580156145bb57600080fd5b505af11580156145cf573d6000803e3d6000fd5b505050600096875250506011602052505060408320928355505060010180546001600160801b0319169055565b6000614651826040518060400160405280602081526020017f5361666545524332303a206c6f772d6c6576656c2063616c6c206661696c6564815250856001600160a01b0316614a2a9092919063ffffffff16565b805190915015612802578080602001905181019061466f9190614f00565b6128025760405162461bcd60e51b815260206004820152602a60248201527f5361666545524332303a204552433230206f7065726174696f6e20646964206e6044820152691bdd081cdd58d8d9595960b21b6064820152608401610c9c565b60006146d8613fd2565b600e80546dffffffffffffffffffffffffffff191680825591925082918190614712908490600160701b90046001600160701b0316615ae7565b92506101000a8154816001600160701b0302191690836001600160701b0316021790555042600e601c6101000a81548163ffffffff021916908363ffffffff16021790555090565b6001600160a01b0382166000908152601360205260408120600101546127109061479890600160e01b900461ffff166001600160701b038516615a83565b612a4e9190615a4c565b6008546000908190612710906147cc90600160e01b900461ffff166001600160701b038616615a83565b6147d69190615a4c565b6006546001600160a01b038781166000908152601360205260408082206001810154905491516314fdc96760e11b81529084166004820152600160701b9091046001600160601b031660248201528883166044820152939450929116906329fb92ce9060640160206040518083038186803b15801561485457600080fd5b505afa158015614868573d6000803e3d6000fd5b505050506040513d601f19601f8201168201806040525081019061488c9190615383565b9050806001600160701b0316826001600160701b0316106148ad57816148af565b805b9695505050505050565b60008463ffffffff168263ffffffff1610156149085760405162461bcd60e51b815260206004820152600e60248201526d125b9d985b1a59081c195c9a5bd960921b6044820152606401610c9c565b6149128583615b26565b915061491e8383615a60565b63ffffffff16846001600160701b0316901c9350828261493e9190615bc5565b915063ffffffff8216158061495a57506001600160701b038416155b15614966575082612858565b60006001600160701b0385168163ffffffff8087169061499a90871671b17217f7d1cf79abc9e3b39803f2f6af40f3615a83565b6149a49190615a4c565b9050600160901b5b8215614a1d576149bc8385615a15565b9350806149c98385615a83565b6149d39190615a4c565b92506149e3600160901b82615a15565b90506149ef8385615b0f565b9350806149fc8385615a83565b614a069190615a4c565b9250614a16600160901b82615a15565b90506149ac565b5091979650505050505050565b6060612858848460008585843b614a835760405162461bcd60e51b815260206004820152601d60248201527f416464726573733a2063616c6c20746f206e6f6e2d636f6e74726163740000006044820152606401610c9c565b600080866001600160a01b03168587604051614a9f9190615526565b60006040518083038185875af1925050503d8060008114614adc576040519150601f19603f3d011682016040523d82523d6000602084013e614ae1565b606091505b5091509150614af1828286614afc565b979650505050505050565b60608315614b0b575081612a4e565b825115614b1b5782518084602001fd5b8160405162461bcd60e51b8152600401610c9c9190615683565b6040805161012081018252600080825260208201819052918101829052606081018290526080810182905260a0810182905260c0810182905260e0810182905261010081019190915290565b828054614b8d90615b6f565b90600052602060002090601f016020900481019282614baf5760008555614bf5565b82601f10614bc85782800160ff19823516178555614bf5565b82800160010185558215614bf5579182015b82811115614bf5578235825591602001919060010190614bda565b50614c01929150614c79565b5090565b828054614c1190615b6f565b90600052602060002090601f016020900481019282614c335760008555614bf5565b82601f10614c4c57805160ff1916838001178555614bf5565b82800160010185558215614bf5579182015b82811115614bf5578251825591602001919060010190614c5e565b5b80821115614c015760008155600101614c7a565b60008083601f840112614c9f578182fd5b5081356001600160401b03811115614cb5578182fd5b6020830191508360208260051b8501011115614cd057600080fd5b9250929050565b80356140d281615c5f565b80356140d281615c4a565b60008083601f840112614cfe578182fd5b5081356001600160401b03811115614d14578182fd5b602083019150836020828501011115614cd057600080fd5b600082601f830112614d3c578081fd5b8135614d4f614d4a826159c3565b615993565b818152846020838601011115614d63578283fd5b816020850160208301379081016020019190915292915050565b80356140d281615c6d565b803561ffff811681146140d257600080fd5b803563ffffffff811681146140d257600080fd5b80356001600160601b03811681146140d257600080fd5b600060208284031215614dd6578081fd5b8135612a4e81615c4a565b600060208284031215614df2578081fd5b8151612a4e81615c4a565b600080600060608486031215614e11578182fd5b8335614e1c81615c4a565b92506020840135614e2c81615c4a565b929592945050506040919091013590565b60008060008060808587031215614e52578081fd5b8435614e5d81615c4a565b93506020850135614e6d81615c4a565b92506040850135614e7d81615c4a565b91506060850135614e8d81615c4a565b939692955090935050565b60008060008060408587031215614ead578182fd5b84356001600160401b0380821115614ec3578384fd5b614ecf88838901614c8e565b90965094506020870135915080821115614ee7578384fd5b50614ef487828801614c8e565b95989497509550505050565b600060208284031215614f11578081fd5b8151612a4e81615c5f565b600080600060608486031215614e11578081fd5b600080600080600060a08688031215614f47578283fd5b8535614f5281615c4a565b94506020860135614f6281615c4a565b93506040860135614f7281615c6d565b925060608601359150614f8760808701614d9a565b90509295509295909350565b60008060008060808587031215614fa8578182fd5b8435614fb381615c4a565b93506020850135614fc381615c4a565b92506040850135614fd381615c6d565b9150614fe160608601614d9a565b905092959194509250565b60008060008060808587031215615001578182fd5b843561500c81615c4a565b9350602085013561501c81615c6d565b9250604085013561502c81615c4a565b9150614fe160608601614dae565b6000806040838503121561504c578182fd5b823561505781615c4a565b915061506560208401614d88565b90509250929050565b60008060408385031215615080578182fd5b823561508b81615c4a565b946020939093013593505050565b600080604083850312156150ab578182fd5b82356150b681615c4a565b915061506560208401614d9a565b6000806000606084860312156150d8578081fd5b83356150e381615c4a565b92506150f160208501614d9a565b91506150ff60408501614d9a565b90509250925092565b6000806020838503121561511a578182fd5b82356001600160401b0381111561512f578283fd5b61513b85828601614ced565b90969095509350505050565b600060208284031215615158578081fd5b81516001600160401b0381111561516d578182fd5b8201601f8101841361517d578182fd5b805161518b614d4a826159c3565b81815285602083850101111561519f578384fd5b613b00826020830160208601615b43565b60008060008060008060a087890312156151c8578384fd5b86356001600160401b03808211156151de578586fd5b6151ea8a838b01614d2c565b975060208901359150808211156151ff578586fd5b5061520c89828a01614ced565b909650945050604087013561522081615c4a565b9250606087013561523081615c4a565b9150608087013561524081615c4a565b809150509295509295509295565b6000806000806000806000806000806101408b8d03121561526d578788fd5b8a356001600160401b038082111561528357898afd5b61528f8e838f01614d2c565b9b5060208d01359150808211156152a457898afd5b506152b18d828e01614d2c565b9950506152c060408c01614d9a565b97506152ce60608c01614d7d565b96506152dc60808c01614ce2565b95506152ea60a08c01614d88565b94506152f860c08c01614d9a565b935061530660e08c01614d9a565b92506153156101008c01614dae565b91506153246101208c01614cd7565b90509295989b9194979a5092959850565b600060208284031215615346578081fd5b8151612a4e81615c6d565b600060208284031215615362578081fd5b612a4e82614d88565b60006020828403121561537c578081fd5b5035919050565b600060208284031215615394578081fd5b5051919050565b600080600080608085870312156153b0578182fd5b8435935060208501356153c281615c4a565b925060408501359150614fe160608601614d9a565b6000602082840312156153e8578081fd5b612a4e82614d9a565b600081518084526020808501808196508360051b81019150828601855b85811015614a1d578284038952615426848351615438565b9885019893509084019060010161540e565b60008151808452615450816020860160208601615b43565b601f01601f19169290920160200192915050565b6001600160701b0381511682526001600160601b036020820151166020830152604081015161549b604084018263ffffffff169052565b5060608101516154b1606084018261ffff169052565b5060808101516154cc60808401826001600160a01b03169052565b5060a08101516154e460a084018263ffffffff169052565b5060c08101516154fc60c084018263ffffffff169052565b5060e081015161551260e084018261ffff169052565b5061010081810151801515848301526112ed565b60008251615538818460208701615b43565b9190910192915050565b60008351615554818460208801615b43565b600160fd1b9083019081528351615572816001840160208801615b43565b01600101949350505050565b6080808252855190820181905260009060209060a0840190828901845b828110156155c05781516001600160a01b03168452928401929084019060010161559b565b505050838103828501526155d481886153f1565b905083810360408501526155e881876153f1565b84810360608601528551808252838701925090830190845b8181101561562757615613838551615464565b928401926101209290920191600101615600565b50909998505050505050505050565b6020808252825182820181905260009190848201906040850190845b818110156156775783516001600160a01b031683529284019291840191600101615652565b50909695505050505050565b602081526000612a4e6020830184615438565b6060815260006156a96060830186615438565b82810360208401526156bb8186615438565b91505060018060a01b0383166040830152949350505050565b60006101608083526156e881840187615438565b905082810360208401526156fc8186615438565b9150506128586040830184615464565b6101808152600061572161018083018f615438565b8281036020840152615733818f615438565b9150508b604083015263ffffffff808c166060840152808b166080840152808a1660a08401525061ffff881660c08301528660e0830152856101008301526001600160701b0385166101208301526157976101408301856001600160701b03169052565b63ffffffff83166101608301529d9c50505050505050505050505050565b6020808252600f908201526e125b9d985b1a59081d1bdad95b9259608a1b604082015260600190565b6020808252600c908201526b5a65726f206164647265737360a01b604082015260600190565b60208082526033908201527f496e746572657374207061796d656e7420746f6b656e2069732064697361626c6040820152721959081bdc881b9bdd081cdd5c1c1bdc9d1959606a1b606082015260800190565b6020808252818101527f4f776e61626c653a2063616c6c6572206973206e6f7420746865206f776e6572604082015260600190565b6020808252601290820152712ab735b737bbb7102837bbb2b92a37b5b2b760711b604082015260600190565b60208082526017908201527f4475726174696f6e206973206e6f7420616c6c6f776564000000000000000000604082015260600190565b6000610100820190506001600160701b03835116825261ffff6020840151166020830152604083015163ffffffff80821660408501528060608601511660608501525050608083015161594a608084018263ffffffff169052565b5060a083015161596260a084018263ffffffff169052565b5060c083015161597d60c08401826001600160701b03169052565b5060e083015161138c60e084018261ffff169052565b604051601f8201601f191681016001600160401b03811182821017156159bb576159bb615c34565b604052919050565b60006001600160401b038211156159dc576159dc615c34565b50601f01601f191660200190565b60006001600160701b03808316818516808303821115615a0c57615a0c615c08565b01949350505050565b60008219821115615a2857615a28615c08565b500190565b600063ffffffff808316818516808303821115615a0c57615a0c615c08565b600082615a5b57615a5b615c1e565b500490565b600063ffffffff80841680615a7757615a77615c1e565b92169190910492915050565b6000816000190483118215151615615a9d57615a9d615c08565b500290565b60008160010b8360010b82811281617fff1901831281151615615ac757615ac7615c08565b81617fff018313811615615add57615add615c08565b5090039392505050565b60006001600160701b0383811690831681811015615b0757615b07615c08565b039392505050565b600082821015615b2157615b21615c08565b500390565b600063ffffffff83811690831681811015615b0757615b07615c08565b60005b83811015615b5e578181015183820152602001615b46565b838111156112ed5750506000910152565b600181811c90821680615b8357607f821691505b60208210811415615ba457634e487b7160e01b600052602260045260246000fd5b50919050565b6000600019821415615bbe57615bbe615c08565b5060010190565b600063ffffffff80841680615bdc57615bdc615c1e565b92169190910692915050565b60008160010b617fff19811415615c0157615c01615c08565b9003919050565b634e487b7160e01b600052601160045260246000fd5b634e487b7160e01b600052601260045260246000fd5b634e487b7160e01b600052604160045260246000fd5b6001600160a01b038116811461263857600080fd5b801515811461263857600080fd5b6001600160701b038116811461263857600080fdfea2646970667358221220eae6469f4304d237640bf5791dd85fd5e9c7f7f5d9ec2c4cfef1789f5a6dcbfd64736f6c63430008040033",
  "linkReferences": {},
  "deployedLinkReferences": {}
}