{
  "_format": "hh-sol-artifact-1",
  "contractName": "Enterprise",
  "sourceName": "contracts/Enterprise.sol",
  "abi": [
    {
      "anonymous": false,
      "inputs": [
        {
          "indexed": true,
          "internalType": "address",
          "name": "powerToken",
          "type": "address"
        },
        {
          "indexed": false,
          "internalType": "uint256",
          "name": "tokenId",
          "type": "uint256"
        },
        {
          "indexed": false,
          "internalType": "uint32",
          "name": "from",
          "type": "uint32"
        },
        {
          "indexed": false,
          "internalType": "uint32",
          "name": "to",
          "type": "uint32"
        }
      ],
      "name": "Borrowed",
      "type": "event"
    },
    {
      "anonymous": false,
      "inputs": [
        {
          "indexed": true,
          "internalType": "address",
          "name": "previousOwner",
          "type": "address"
        },
        {
          "indexed": true,
          "internalType": "address",
          "name": "newOwner",
          "type": "address"
        }
      ],
      "name": "OwnershipTransferred",
      "type": "event"
    },
    {
      "anonymous": false,
      "inputs": [
        {
          "indexed": true,
          "internalType": "address",
          "name": "powerToken",
          "type": "address"
        },
        {
          "indexed": false,
          "internalType": "uint32",
          "name": "gapHalvingPeriod",
          "type": "uint32"
        },
        {
          "indexed": false,
          "internalType": "uint112",
          "name": "factor",
          "type": "uint112"
        }
      ],
      "name": "ServiceRegistered",
      "type": "event"
    },
    {
      "inputs": [
        {
          "internalType": "uint256",
          "name": "liquidityAmount",
          "type": "uint256"
        }
      ],
      "name": "addLiquidity",
      "outputs": [],
      "stateMutability": "nonpayable",
      "type": "function"
    },
    {
      "inputs": [
        {
          "internalType": "contract PowerToken",
          "name": "powerToken",
          "type": "address"
        },
        {
          "internalType": "contract IERC20",
          "name": "paymentToken",
          "type": "address"
        },
        {
          "internalType": "uint112",
          "name": "amount",
          "type": "uint112"
        },
        {
          "internalType": "uint32",
          "name": "duration",
          "type": "uint32"
        },
        {
          "internalType": "uint256",
          "name": "maxPayment",
          "type": "uint256"
        }
      ],
      "name": "borrow",
      "outputs": [],
      "stateMutability": "nonpayable",
      "type": "function"
    },
    {
      "inputs": [
        {
          "internalType": "uint256",
          "name": "tokenId",
          "type": "uint256"
        },
        {
          "internalType": "uint256",
          "name": "amount",
          "type": "uint256"
        }
      ],
      "name": "decreaseLiquidity",
      "outputs": [],
      "stateMutability": "nonpayable",
      "type": "function"
    },
    {
      "inputs": [
        {
          "internalType": "address",
          "name": "token",
          "type": "address"
        }
      ],
      "name": "disablePaymentToken",
      "outputs": [],
      "stateMutability": "nonpayable",
      "type": "function"
    },
    {
      "inputs": [
        {
          "internalType": "address",
          "name": "token",
          "type": "address"
        }
      ],
      "name": "enablePaymentToken",
      "outputs": [],
      "stateMutability": "nonpayable",
      "type": "function"
    },
    {
      "inputs": [
        {
          "internalType": "contract PowerToken",
          "name": "powerToken",
          "type": "address"
        },
        {
          "internalType": "contract IERC20",
          "name": "paymentToken",
          "type": "address"
        },
        {
          "internalType": "uint112",
          "name": "amount",
          "type": "uint112"
        },
        {
          "internalType": "uint32",
          "name": "duration",
          "type": "uint32"
        }
      ],
      "name": "estimateLoan",
      "outputs": [
        {
          "internalType": "uint256",
          "name": "",
          "type": "uint256"
        }
      ],
      "stateMutability": "view",
      "type": "function"
    },
    {
      "inputs": [],
      "name": "getAvailableReserve",
      "outputs": [
        {
          "internalType": "uint256",
          "name": "",
          "type": "uint256"
        }
      ],
      "stateMutability": "view",
      "type": "function"
    },
    {
      "inputs": [],
      "name": "getBaseUri",
      "outputs": [
        {
          "internalType": "string",
          "name": "",
          "type": "string"
        }
      ],
      "stateMutability": "view",
      "type": "function"
    },
    {
      "inputs": [],
      "name": "getBondingCurve",
      "outputs": [
        {
          "internalType": "uint256",
          "name": "pole",
          "type": "uint256"
        },
        {
          "internalType": "uint256",
          "name": "slope",
          "type": "uint256"
        }
      ],
      "stateMutability": "view",
      "type": "function"
    },
    {
      "inputs": [],
      "name": "getBorrowToken",
      "outputs": [
        {
          "internalType": "contract IBorrowToken",
          "name": "",
          "type": "address"
        }
      ],
      "stateMutability": "view",
      "type": "function"
    },
    {
      "inputs": [],
      "name": "getBorrowerLoanReturnGracePeriod",
      "outputs": [
        {
          "internalType": "uint32",
          "name": "",
          "type": "uint32"
        }
      ],
      "stateMutability": "view",
      "type": "function"
    },
    {
      "inputs": [],
      "name": "getConverter",
      "outputs": [
        {
          "internalType": "contract IConverter",
          "name": "",
          "type": "address"
        }
      ],
      "stateMutability": "view",
      "type": "function"
    },
    {
      "inputs": [],
      "name": "getEnterpriseCollector",
      "outputs": [
        {
          "internalType": "address",
          "name": "",
          "type": "address"
        }
      ],
      "stateMutability": "view",
      "type": "function"
    },
    {
      "inputs": [],
      "name": "getEnterpriseLoanCollectGracePeriod",
      "outputs": [
        {
          "internalType": "uint32",
          "name": "",
          "type": "uint32"
        }
      ],
      "stateMutability": "view",
      "type": "function"
    },
    {
      "inputs": [],
      "name": "getEnterpriseVault",
      "outputs": [
        {
          "internalType": "address",
          "name": "",
          "type": "address"
        }
      ],
      "stateMutability": "view",
      "type": "function"
    },
    {
      "inputs": [],
      "name": "getGCFeePercent",
      "outputs": [
        {
          "internalType": "uint16",
          "name": "",
          "type": "uint16"
        }
      ],
      "stateMutability": "view",
      "type": "function"
    },
    {
      "inputs": [],
      "name": "getInfo",
      "outputs": [
        {
          "internalType": "string",
          "name": "name",
          "type": "string"
        },
        {
          "internalType": "string",
          "name": "baseUri",
          "type": "string"
        },
        {
          "internalType": "uint256",
          "name": "totalShares",
          "type": "uint256"
        },
        {
          "internalType": "uint32",
          "name": "interestGapHalvingPeriod",
          "type": "uint32"
        },
        {
          "internalType": "uint32",
          "name": "borrowerLoanReturnGracePeriod",
          "type": "uint32"
        },
        {
          "internalType": "uint32",
          "name": "enterpriseLoanCollectGracePeriod",
          "type": "uint32"
        },
        {
          "internalType": "uint16",
          "name": "gcFeePercent",
          "type": "uint16"
        },
        {
          "internalType": "uint256",
          "name": "fixedReserve",
          "type": "uint256"
        },
        {
          "internalType": "uint256",
          "name": "usedReserve",
          "type": "uint256"
        },
        {
          "internalType": "uint112",
          "name": "streamingReserve",
          "type": "uint112"
        },
        {
          "internalType": "uint112",
          "name": "streamingReserveTarget",
          "type": "uint112"
        },
        {
          "internalType": "uint32",
          "name": "streamingReserveUpdated",
          "type": "uint32"
        }
      ],
      "stateMutability": "view",
      "type": "function"
    },
    {
      "inputs": [],
      "name": "getInterestGapHalvingPeriod",
      "outputs": [
        {
          "internalType": "uint32",
          "name": "",
          "type": "uint32"
        }
      ],
      "stateMutability": "view",
      "type": "function"
    },
    {
      "inputs": [],
      "name": "getInterestToken",
      "outputs": [
        {
          "internalType": "contract IInterestToken",
          "name": "",
          "type": "address"
        }
      ],
      "stateMutability": "view",
      "type": "function"
    },
    {
      "inputs": [
        {
          "internalType": "uint256",
          "name": "tokenId",
          "type": "uint256"
        }
      ],
      "name": "getLiquidityInfo",
      "outputs": [
        {
          "components": [
            {
              "internalType": "uint256",
              "name": "amount",
              "type": "uint256"
            },
            {
              "internalType": "uint256",
              "name": "shares",
              "type": "uint256"
            },
            {
              "internalType": "uint256",
              "name": "block",
              "type": "uint256"
            }
          ],
          "internalType": "struct EnterpriseStorage.LiquidityInfo",
          "name": "",
          "type": "tuple"
        }
      ],
      "stateMutability": "view",
      "type": "function"
    },
    {
      "inputs": [],
      "name": "getLiquidityToken",
      "outputs": [
        {
          "internalType": "contract IERC20Metadata",
          "name": "",
          "type": "address"
        }
      ],
      "stateMutability": "view",
      "type": "function"
    },
    {
      "inputs": [
        {
          "internalType": "uint256",
          "name": "tokenId",
          "type": "uint256"
        }
      ],
      "name": "getLoanInfo",
      "outputs": [
        {
          "components": [
            {
              "internalType": "uint112",
              "name": "amount",
              "type": "uint112"
            },
            {
              "internalType": "uint16",
              "name": "powerTokenIndex",
              "type": "uint16"
            },
            {
              "internalType": "uint32",
              "name": "borrowingTime",
              "type": "uint32"
            },
            {
              "internalType": "uint32",
              "name": "maturityTime",
              "type": "uint32"
            },
            {
              "internalType": "uint32",
              "name": "borrowerReturnGraceTime",
              "type": "uint32"
            },
            {
              "internalType": "uint32",
              "name": "enterpriseCollectGraceTime",
              "type": "uint32"
            },
            {
              "internalType": "uint112",
              "name": "gcFee",
              "type": "uint112"
            },
            {
              "internalType": "uint16",
              "name": "gcFeeTokenIndex",
              "type": "uint16"
            }
          ],
          "internalType": "struct EnterpriseStorage.LoanInfo",
          "name": "",
          "type": "tuple"
        }
      ],
      "stateMutability": "view",
      "type": "function"
    },
    {
      "inputs": [
        {
          "internalType": "uint256",
          "name": "tokenId",
          "type": "uint256"
        }
      ],
      "name": "getOwedInterest",
      "outputs": [
        {
          "internalType": "uint256",
          "name": "",
          "type": "uint256"
        }
      ],
      "stateMutability": "view",
      "type": "function"
    },
    {
      "inputs": [],
      "name": "getPowerTokens",
      "outputs": [
        {
          "internalType": "contract PowerToken[]",
          "name": "",
          "type": "address[]"
        }
      ],
      "stateMutability": "view",
      "type": "function"
    },
    {
      "inputs": [],
      "name": "getProxyAdmin",
      "outputs": [
        {
          "internalType": "contract ProxyAdmin",
          "name": "",
          "type": "address"
        }
      ],
      "stateMutability": "view",
      "type": "function"
    },
    {
      "inputs": [],
      "name": "getReserve",
      "outputs": [
        {
          "internalType": "uint256",
          "name": "",
          "type": "uint256"
        }
      ],
      "stateMutability": "view",
      "type": "function"
    },
    {
      "inputs": [],
      "name": "getUsedReserve",
      "outputs": [
        {
          "internalType": "uint256",
          "name": "",
          "type": "uint256"
        }
      ],
      "stateMutability": "view",
      "type": "function"
    },
    {
      "inputs": [
        {
          "internalType": "uint256",
          "name": "tokenId",
          "type": "uint256"
        },
        {
          "internalType": "uint256",
          "name": "amount",
          "type": "uint256"
        }
      ],
      "name": "increaseLiquidity",
      "outputs": [],
      "stateMutability": "nonpayable",
      "type": "function"
    },
    {
      "inputs": [
        {
          "internalType": "string",
          "name": "enterpriseName",
          "type": "string"
        },
        {
          "internalType": "string",
          "name": "baseUri",
          "type": "string"
        },
        {
          "internalType": "uint16",
          "name": "gcFeePercent",
          "type": "uint16"
        },
        {
          "internalType": "contract IConverter",
          "name": "converter",
          "type": "address"
        },
        {
          "internalType": "contract ProxyAdmin",
          "name": "proxyAdmin",
          "type": "address"
        },
        {
          "internalType": "address",
          "name": "owner",
          "type": "address"
        }
      ],
      "name": "initialize",
      "outputs": [],
      "stateMutability": "nonpayable",
      "type": "function"
    },
    {
      "inputs": [
        {
          "internalType": "address",
          "name": "initialOwner",
          "type": "address"
        }
      ],
      "name": "initialize",
      "outputs": [],
      "stateMutability": "nonpayable",
      "type": "function"
    },
    {
      "inputs": [
        {
          "internalType": "contract IERC20Metadata",
          "name": "liquidityToken",
          "type": "address"
        },
        {
          "internalType": "contract IInterestToken",
          "name": "interestToken",
          "type": "address"
        },
        {
          "internalType": "contract IBorrowToken",
          "name": "borrowToken",
          "type": "address"
        }
      ],
      "name": "initializeTokens",
      "outputs": [],
      "stateMutability": "nonpayable",
      "type": "function"
    },
    {
      "inputs": [
        {
          "internalType": "contract PowerToken",
          "name": "powerToken",
          "type": "address"
        }
      ],
      "name": "isRegisteredPowerToken",
      "outputs": [
        {
          "internalType": "bool",
          "name": "",
          "type": "bool"
        }
      ],
      "stateMutability": "view",
      "type": "function"
    },
    {
      "inputs": [
        {
          "internalType": "contract IERC20",
          "name": "token",
          "type": "address"
        }
      ],
      "name": "isSupportedPaymentToken",
      "outputs": [
        {
          "internalType": "bool",
          "name": "",
          "type": "bool"
        }
      ],
      "stateMutability": "view",
      "type": "function"
    },
    {
      "inputs": [
        {
          "internalType": "address",
          "name": "from",
          "type": "address"
        },
        {
          "internalType": "address",
          "name": "to",
          "type": "address"
        },
        {
          "internalType": "uint256",
          "name": "tokenId",
          "type": "uint256"
        }
      ],
      "name": "loanTransfer",
      "outputs": [],
      "stateMutability": "nonpayable",
      "type": "function"
    },
    {
      "inputs": [],
      "name": "owner",
      "outputs": [
        {
          "internalType": "address",
          "name": "",
          "type": "address"
        }
      ],
      "stateMutability": "view",
      "type": "function"
    },
    {
      "inputs": [
        {
          "internalType": "uint256",
          "name": "index",
          "type": "uint256"
        }
      ],
      "name": "paymentToken",
      "outputs": [
        {
          "internalType": "address",
          "name": "",
          "type": "address"
        }
      ],
      "stateMutability": "view",
      "type": "function"
    },
    {
      "inputs": [
        {
          "internalType": "contract IERC20",
          "name": "token",
          "type": "address"
        }
      ],
      "name": "paymentTokenIndex",
      "outputs": [
        {
          "internalType": "int16",
          "name": "",
          "type": "int16"
        }
      ],
      "stateMutability": "view",
      "type": "function"
    },
    {
      "inputs": [
        {
          "internalType": "uint256",
          "name": "tokenId",
          "type": "uint256"
        },
        {
          "internalType": "contract IERC20",
          "name": "paymentToken",
          "type": "address"
        },
        {
          "internalType": "uint32",
          "name": "duration",
          "type": "uint32"
        },
        {
          "internalType": "uint256",
          "name": "maxPayment",
          "type": "uint256"
        }
      ],
      "name": "reborrow",
      "outputs": [],
      "stateMutability": "nonpayable",
      "type": "function"
    },
    {
      "inputs": [
        {
          "internalType": "string",
          "name": "serviceName",
          "type": "string"
        },
        {
          "internalType": "string",
          "name": "symbol",
          "type": "string"
        },
        {
          "internalType": "uint32",
          "name": "gapHalvingPeriod",
          "type": "uint32"
        },
        {
          "internalType": "uint112",
          "name": "baseRate",
          "type": "uint112"
        },
        {
          "internalType": "contract IERC20Metadata",
          "name": "baseToken",
          "type": "address"
        },
        {
          "internalType": "uint16",
          "name": "serviceFeePercent",
          "type": "uint16"
        },
        {
          "internalType": "uint32",
          "name": "minLoanDuration",
          "type": "uint32"
        },
        {
          "internalType": "uint32",
          "name": "maxLoanDuration",
          "type": "uint32"
        },
        {
          "internalType": "uint96",
          "name": "minGCFee",
          "type": "uint96"
        },
        {
          "internalType": "bool",
          "name": "allowsPerpetualTokensForever",
          "type": "bool"
        }
      ],
      "name": "registerService",
      "outputs": [],
      "stateMutability": "nonpayable",
      "type": "function"
    },
    {
      "inputs": [
        {
          "internalType": "uint256",
          "name": "tokenId",
          "type": "uint256"
        }
      ],
      "name": "removeLiquidity",
      "outputs": [],
      "stateMutability": "nonpayable",
      "type": "function"
    },
    {
      "inputs": [
        {
          "internalType": "uint256",
          "name": "tokenId",
          "type": "uint256"
        }
      ],
      "name": "returnLoan",
      "outputs": [],
      "stateMutability": "nonpayable",
      "type": "function"
    },
    {
      "inputs": [
        {
          "internalType": "string",
          "name": "baseUri",
          "type": "string"
        }
      ],
      "name": "setBaseUri",
      "outputs": [],
      "stateMutability": "nonpayable",
      "type": "function"
    },
    {
      "inputs": [
        {
          "internalType": "uint256",
          "name": "pole",
          "type": "uint256"
        },
        {
          "internalType": "uint256",
          "name": "slope",
          "type": "uint256"
        }
      ],
      "name": "setBondingCurve",
      "outputs": [],
      "stateMutability": "nonpayable",
      "type": "function"
    },
    {
      "inputs": [
        {
          "internalType": "uint32",
          "name": "newPeriod",
          "type": "uint32"
        }
      ],
      "name": "setBorrowerLoanReturnGracePeriod",
      "outputs": [],
      "stateMutability": "nonpayable",
      "type": "function"
    },
    {
      "inputs": [
        {
          "internalType": "contract IConverter",
          "name": "newConverter",
          "type": "address"
        }
      ],
      "name": "setConverter",
      "outputs": [],
      "stateMutability": "nonpayable",
      "type": "function"
    },
    {
      "inputs": [
        {
          "internalType": "address",
          "name": "newCollector",
          "type": "address"
        }
      ],
      "name": "setEnterpriseCollector",
      "outputs": [],
      "stateMutability": "nonpayable",
      "type": "function"
    },
    {
      "inputs": [
        {
          "internalType": "uint32",
          "name": "newPeriod",
          "type": "uint32"
        }
      ],
      "name": "setEnterpriseLoanCollectGracePeriod",
      "outputs": [],
      "stateMutability": "nonpayable",
      "type": "function"
    },
    {
      "inputs": [
        {
          "internalType": "address",
          "name": "newVault",
          "type": "address"
        }
      ],
      "name": "setEnterpriseVault",
      "outputs": [],
      "stateMutability": "nonpayable",
      "type": "function"
    },
    {
      "inputs": [
        {
          "internalType": "uint16",
          "name": "newGcFeePercent",
          "type": "uint16"
        }
      ],
      "name": "setGcFeePercent",
      "outputs": [],
      "stateMutability": "nonpayable",
      "type": "function"
    },
    {
      "inputs": [
        {
          "internalType": "uint32",
          "name": "interestGapHalvingPeriod",
          "type": "uint32"
        }
      ],
      "name": "setInterestGapHalvingPeriod",
      "outputs": [],
      "stateMutability": "nonpayable",
      "type": "function"
    },
    {
      "inputs": [],
      "name": "shutdownEnterpriseForever",
      "outputs": [],
      "stateMutability": "nonpayable",
      "type": "function"
    },
    {
      "inputs": [
        {
          "internalType": "address",
          "name": "newOwner",
          "type": "address"
        }
      ],
      "name": "transferOwnership",
      "outputs": [],
      "stateMutability": "nonpayable",
      "type": "function"
    },
    {
      "inputs": [
        {
          "internalType": "address",
          "name": "implementation",
          "type": "address"
        }
      ],
      "name": "upgradeBorrowToken",
      "outputs": [],
      "stateMutability": "nonpayable",
      "type": "function"
    },
    {
      "inputs": [
        {
          "internalType": "address",
          "name": "implementation",
          "type": "address"
        }
      ],
      "name": "upgradeEnterprise",
      "outputs": [],
      "stateMutability": "nonpayable",
      "type": "function"
    },
    {
      "inputs": [
        {
          "internalType": "address",
          "name": "implementation",
          "type": "address"
        }
      ],
      "name": "upgradeInterestToken",
      "outputs": [],
      "stateMutability": "nonpayable",
      "type": "function"
    },
    {
      "inputs": [
        {
          "internalType": "contract PowerToken",
          "name": "powerToken",
          "type": "address"
        },
        {
          "internalType": "address",
          "name": "implementation",
          "type": "address"
        }
      ],
      "name": "upgradePowerToken",
      "outputs": [],
      "stateMutability": "nonpayable",
      "type": "function"
    },
    {
      "inputs": [
        {
          "internalType": "uint256",
          "name": "tokenId",
          "type": "uint256"
        }
      ],
      "name": "withdrawInterest",
      "outputs": [],
      "stateMutability": "nonpayable",
      "type": "function"
    }
  ],
  "bytecode": "0x608060405234801561001057600080fd5b50615596806100206000396000f3fe608060405234801561001057600080fd5b50600436106102925760003560e01c8062ca339b146102975780630714012c146102ac57806308669aab146102d55780630cac36b2146102e85780630e101b60146102fd5780630ea1dc9e1461031d5780632261b07f1461032e578063229304dc1461033f5780632b2f6095146103605780632e365ade146103735780632fb2067f146103865780633513e0dc146103a9578063449497ec146103bc5780634741efb3146103cf57806349bd4e89146103d7578063512a53bc146103ea57806351c6590a146103fd57806359bf5d39146104105780635a4598df146104185780635a9b0b891461043657806362c1f38814610456578063644e44df146104695780636815f3371461047a578063696f9c811461048d5780637791c42d146104a05780637b024363146104b15780638188d50d146104c457806389035b61146104d95780638b3240a0146105055780638c0114b01461050d5780638da5cb5b1461052057806390f55edd146105285780639ab711931461053b5780639c7aa7f81461054e5780639c8f9f2314610561578063a0bcfc7f14610574578063a0efd11814610587578063a554b26d1461059c578063aebb5041146105ad578063b19337a4146105b5578063b406bf6d146105c8578063b56de97e146105e9578063b96266fa146105fc578063bf3bb1a514610611578063bfd84fb414610624578063c1fc16d814610637578063c22947841461064a578063c4d66de81461065d578063c93d0b9214610670578063df57f2fa14610681578063e1a5fa49146106b6578063e9126154146106c9578063ef1f9f39146106dc578063f2fde38b146106ef578063faac38ef14610702578063fbac9a551461071d578063fcb2884e14610743575b600080fd5b6102aa6102a5366004614b38565b61074b565b005b6102bf6102ba366004614e5c565b6110af565b6040516102cc91906151a9565b60405180910390f35b6102aa6102e3366004614e5c565b611204565b6102f061138d565b6040516102cc91906150ba565b61031061030b366004614e5c565b61141f565b6040516102cc9190614fb1565b6001546001600160a01b0316610310565b6004546001600160a01b0316610310565b61035261034d366004614adf565b61145d565b6040519081526020016102cc565b6102aa61036e3660046149c9565b611586565b6102aa610381366004614ef2565b611642565b6103996103943660046149c9565b611703565b60405190151581526020016102cc565b6102aa6103b7366004614ed1565b611726565b6102aa6103ca366004614e24565b611808565b6102aa611876565b6102aa6103e5366004614ed1565b611947565b6102aa6103f8366004614a01565b611b3f565b6102aa61040b366004614e5c565b611dc6565b610352611f38565b600354600160a01b900463ffffffff165b6040516102cc9190615258565b61043e611f5d565b6040516102cc9c9b9a999897969594939291906150cd565b6102aa6104643660046149c9565b612120565b6000546001600160a01b0316610310565b6102aa610488366004614c4a565b6121cf565b6102aa61049b366004614ed1565b612331565b6006546001600160a01b0316610310565b6102aa6104bf3660046149c9565b6124f0565b600654600160a01b900463ffffffff16610429565b6103996104e73660046149c9565b6001600160a01b031660009081526013602052604090205460ff1690565b610310612577565b6102aa61051b366004614e8c565b612598565b610310612c5e565b6102aa6105363660046149c9565b612c74565b6102aa610549366004614cfc565b612d23565b6102aa61055c3660046149c9565b613203565b6102aa61056f366004614e5c565b61332a565b6102aa610582366004614b99565b613555565b600654600160c01b900463ffffffff16610429565b6005546001600160a01b0316610310565b6103526135b2565b6102aa6105c33660046149c9565b6135c9565b600654600160e01b900461ffff1660405161ffff90911681526020016102cc565b6102aa6105f7366004614ef2565b613678565b610604613738565b6040516102cc9190615000565b61035261061f366004614e5c565b613799565b6102aa6106323660046149c9565b6137de565b6102aa6106453660046149c9565b613874565b6102aa610658366004614aa7565b6138f5565b6102aa61066b3660046149c9565b6139fa565b6002546001600160a01b0316610310565b61069461068f366004614e5c565b613acf565b60408051825181526020808401519082015291810151908201526060016102cc565b6102aa6106c4366004614ef2565b613ba9565b6102aa6106d7366004614e5c565b613c59565b6102aa6106ea366004614a5d565b613eca565b6102aa6106fd3660046149c9565b613f54565b600e54600d54604080519283526020830191909152016102cc565b61073061072b3660046149c9565b614045565b60405160019190910b81526020016102cc565b600a54610352565b600354604080518082019091526002815261373560f01b602082015290600160c01b900460ff16156107995760405162461bcd60e51b815260040161079091906150ba565b60405180910390fd5b506001600160a01b03851660009081526013602090815260409182902054825180840190935260018352601b60f91b9183019190915260ff166107ef5760405162461bcd60e51b815260040161079091906150ba565b506107f984611703565b604051806040016040528060028152602001610d0d60f21b815250906108325760405162461bcd60e51b815260040161079091906150ba565b50604051636e4d898360e01b81526001600160a01b03861690636e4d89839061085f908590600401615258565b60206040518083038186803b15801561087757600080fd5b505afa15801561088b573d6000803e3d6000fd5b505050506040513d601f19601f820116820180604052508101906108af9190614a41565b60405180604001604052806002815260200161343560f01b815250906108e85760405162461bcd60e51b815260040161079091906150ba565b506040805180820190915260028152611b9b60f11b60208201526001600160701b0384166109295760405162461bcd60e51b815260040161079091906150ba565b506109326135b2565b836001600160701b03161115604051806040016040528060028152602001611a1b60f11b815250906109775760405162461bcd60e51b815260040161079091906150ba565b50600080600080886001600160a01b0316639d5513d78989896040518463ffffffff1660e01b81526004016109ae9392919061504d565b60606040518083038186803b1580156109c657600080fd5b505afa1580156109da573d6000803e3d6000fd5b505050506040513d601f19601f820116820180604052508101906109fe9190614de3565b955090935091508390506000610a1483856152c0565b6001600160701b0316905085856001600160701b031682610a3591906152eb565b111560405180604001604052806002815260200161343760f01b81525090610a705760405162461bcd60e51b815260040161079091906150ba565b50610a866001600160a01b038a16333084614072565b60008190508a6001600160a01b03166398acd7a66040518163ffffffff1660e01b815260040160206040518083038186803b158015610ac457600080fd5b505afa158015610ad8573d6000803e3d6000fd5b505050506040513d601f19601f82011682018060405250810190610afc91906149e5565b6001600160a01b03168a6001600160a01b031614610c46576004805460405163095ea7b360e01b81526001600160a01b03808e169363095ea7b393610b4693921691879101614fe7565b602060405180830381600087803b158015610b6057600080fd5b505af1158015610b74573d6000803e3d6000fd5b505050506040513d601f19601f82011682018060405250810190610b989190614a41565b50600460009054906101000a90046001600160a01b03166001600160a01b031663029b465d8b8460008054906101000a90046001600160a01b03166040518463ffffffff1660e01b8152600401610bf19392919061507d565b602060405180830381600087803b158015610c0b57600080fd5b505af1158015610c1f573d6000803e3d6000fd5b505050506040513d601f19601f82011682018060405250810190610c439190614e74565b90505b600082610c5c836001600160701b038816615342565b610c669190615322565b600654600054919250610c86916001600160a01b039081169116836140e3565b896001600160701b0316600a6000828254610ca191906152eb565b9091555060009050610cb382846153ce565b9050610cbe81614102565b5050600254610ceb95506001600160a01b038b81169550339450169150506001600160701b038516614072565b426000610cf88583615303565b90506000600260009054906101000a90046001600160a01b03166001600160a01b031663caa0f92a6040518163ffffffff1660e01b8152600401602060405180830381600087803b158015610d4c57600080fd5b505af1158015610d60573d6000803e3d6000fd5b505050506040513d601f19601f82011682018060405250810190610d849190614e74565b9050604051806101000160405280886001600160701b031681526020018a6001600160a01b03166381045ead6040518163ffffffff1660e01b815260040160206040518083038186803b158015610dda57600080fd5b505afa158015610dee573d6000803e3d6000fd5b505050506040513d601f19601f82011682018060405250810190610e129190614e40565b61ffff16815263ffffffff80861660208301528481166040830152600654606090920191610e4991600160a01b9091041685615303565b63ffffffff168152602001600660189054906101000a900463ffffffff1684610e729190615303565b63ffffffff168152602001856001600160701b03168152602001610e958a614045565b61ffff9081169091526000838152601160209081526040918290208451815492860151868501516060880151608089015160a08a01516001600160701b039586166001600160801b031998891617600160701b958b16860217600160801b600160c01b031916600160801b63ffffffff9586160263ffffffff60a01b191617600160a01b93851693909302929092176001600160c01b0316600160c01b918416919091026001600160e01b031617600160e01b929091169190910217835560c08701516001909301805460e0909801519390921696909316959095179316029190911790915560025490516335313c2160e11b815282916001600160a01b031690636a62784290610faa903390600401614fb1565b602060405180830381600087803b158015610fc457600080fd5b505af1158015610fd8573d6000803e3d6000fd5b505050506040513d601f19601f82011682018060405250810190610ffc9190614e74565b1461101757634e487b7160e01b600052600160045260246000fd5b60405163f8642f2960e01b8152600481018290526001600160a01b038a169063f8642f2990602401600060405180830381600087803b15801561105957600080fd5b505af115801561106d573d6000803e3d6000fd5b50505050886001600160a01b031660008051602061554183398151915282858560405161109c9392919061523c565b60405180910390a2505050505050505050565b6040805161010081018252600080825260208201819052818301819052606082018190526080820181905260a0820181905260c0820181905260e082015260025491516331a9108f60e11b81526004810184905290916001600160a01b031690636352211e9060240160206040518083038186803b15801561113057600080fd5b505afa158015611144573d6000803e3d6000fd5b505050506040513d601f19601f8201168201806040525081019061116891906149e5565b505060009081526011602090815260409182902082516101008101845281546001600160701b038082168352600160701b80830461ffff90811696850196909652600160801b830463ffffffff90811697850197909752600160a01b830487166060850152600160c01b830487166080850152600160e01b90920490951660a083015260019092015493841660c082015292041660e082015290565b6001546040516331a9108f60e11b815260048101839052829133916001600160a01b0390911690636352211e9060240160206040518083038186803b15801561124c57600080fd5b505afa158015611260573d6000803e3d6000fd5b505050506040513d601f19601f8201168201806040525081019061128491906149e5565b6001600160a01b031614604051806040016040528060018152602001603360f81b815250906112c65760405162461bcd60e51b815260040161079091906150ba565b506000828152601260205260408120600181015490916112e585613799565b90506112ef6135b2565b811115604051806040016040528060028152602001611a1b60f11b8152509061132b5760405162461bcd60e51b815260040161079091906150ba565b50600054611343906001600160a01b031633836140e3565b60006113528460000154614187565b60018501819055905061136581846153ce565b600c600082825461137691906153ce565b909155506113859050826141a9565b505050505050565b60606010805461139c90615411565b80601f01602080910402602001604051908101604052809291908181526020018280546113c890615411565b80156114155780601f106113ea57610100808354040283529160200191611415565b820191906000526020600020905b8154815290600101906020018083116113f857829003601f168201915b5050505050905090565b60006008828154811061144257634e487b7160e01b600052603260045260246000fd5b6000918252602090912001546001600160a01b031692915050565b600354604080518082019091526002815261373560f01b6020820152600091600160c01b900460ff16156114a45760405162461bcd60e51b815260040161079091906150ba565b506001600160a01b03851660009081526013602090815260409182902054825180840190935260018352601b60f91b9183019190915260ff166114fa5760405162461bcd60e51b815260040161079091906150ba565b50604051631466370160e01b81526001600160a01b0386169063146637019061152b9087908790879060040161504d565b60206040518083038186803b15801561154357600080fd5b505afa158015611557573d6000803e3d6000fd5b505050506040513d601f19601f8201168201806040525081019061157b9190614e74565b90505b949350505050565b3361158f612c5e565b6001600160a01b031614604051806040016040528060018152602001603360f81b815250906115d15760405162461bcd60e51b815260040161079091906150ba565b506115da612577565b60015460405163266a23b160e21b81526001600160a01b03928316926399a88ec49261160d9291169085906004016150a0565b600060405180830381600087803b15801561162757600080fd5b505af115801561163b573d6000803e3d6000fd5b5050505050565b3361164b612c5e565b6001600160a01b031614604051806040016040528060018152602001603360f81b8152509061168d5760405162461bcd60e51b815260040161079091906150ba565b506006546040805180820190915260028152610d8d60f21b60208201529063ffffffff600160c01b909104811690831611156116dc5760405162461bcd60e51b815260040161079091906150ba565b506006805463ffffffff909216600160a01b0263ffffffff60a01b19909216919091179055565b6001600160a01b0316600090815260076020526040812054600190810b900b1390565b3361172f612c5e565b6001600160a01b031614604051806040016040528060018152602001603360f81b815250906117715760405162461bcd60e51b815260040161079091906150ba565b50611781600a600360401b615322565b82111560405180604001604052806002815260200161373760f01b815250906117bd5760405162461bcd60e51b815260040161079091906150ba565b5060408051808201909152600281526106e760f31b6020820152600160401b8211156117fc5760405162461bcd60e51b815260040161079091906150ba565b50600e91909155600d55565b33611811612c5e565b6001600160a01b031614604051806040016040528060018152602001603360f81b815250906118535760405162461bcd60e51b815260040161079091906150ba565b506006805461ffff909216600160e01b0261ffff60e01b19909216919091179055565b600354604080518082019091526002815261373560f01b602082015290600160c01b900460ff16156118bb5760405162461bcd60e51b815260040161079091906150ba565b50336118c5612c5e565b6001600160a01b031614604051806040016040528060018152602001603360f81b815250906119075760405162461bcd60e51b815260040161079091906150ba565b5060038054600160c01b60ff60c01b199091161790556000600a55600b8054600160701b81046001600160701b03166001600160701b0319909116179055565b6001546040516331a9108f60e11b815260048101849052839133916001600160a01b0390911690636352211e9060240160206040518083038186803b15801561198f57600080fd5b505afa1580156119a3573d6000803e3d6000fd5b505050506040513d601f19601f820116820180604052508101906119c791906149e5565b6001600160a01b031614604051806040016040528060018152602001603360f81b81525090611a095760405162461bcd60e51b815260040161079091906150ba565b5060006012600085815260200190815260200160002090504381600201541060405180604001604052806002815260200161035360f41b81525090611a615760405162461bcd60e51b815260040161079091906150ba565b5080546040805180820190915260028152611a1b60f11b602082015290841115611a9e5760405162461bcd60e51b815260040161079091906150ba565b50611aa76135b2565b831115604051806040016040528060028152602001611a1b60f11b81525090611ae35760405162461bcd60e51b815260040161079091906150ba565b50600054611afb906001600160a01b031633856140e3565b6000611b0684614187565b90508160010154811115611b1b575060018101545b600182018054829003905581548490038255600c8054829003905561163b846141a9565b600280546040805180820190915291825261333960f01b60208301526001600160a01b03163314611b835760405162461bcd60e51b815260040161079091906150ba565b506000818152601160209081526040918290205482518084019093526002835261068760f31b918301919091526001600160701b03169081611bd85760405162461bcd60e51b815260040161079091906150ba565b5060008281526011602052604081205460148054600160a01b830463ffffffff164211936001600160a01b03898116159490891615939192600160701b90910461ffff16908110611c3957634e487b7160e01b600052603260045260246000fd5b6000918252602090912001546001600160a01b031690508115611cbb5760405163079cc67960e41b81526001600160a01b038216906379cc679090611c84908b908990600401614fc5565b600060405180830381600087803b158015611c9e57600080fd5b505af1158015611cb2573d6000803e3d6000fd5b50505050611dbc565b8215611cef576040516340c10f1960e01b81526001600160a01b038216906340c10f1990611c84908a908990600401614fc5565b83611d8c576040516333bebb7760e01b81526001600160a01b03898116600483015288811660248301526001600160701b03871660448301528216906333bebb7790606401602060405180830381600087803b158015611d4e57600080fd5b505af1158015611d62573d6000803e3d6000fd5b505050506040513d601f19601f82011682018060405250810190611d869190614a41565b50611dbc565b60408051808201825260028152611a9960f11b6020820152905162461bcd60e51b815261079091906004016150ba565b5050505050505050565b600354604080518082019091526002815261373560f01b602082015290600160c01b900460ff1615611e0b5760405162461bcd60e51b815260040161079091906150ba565b50600054611e24906001600160a01b0316333084614072565b6000600c54600014611e3e57611e3982614187565b611e40565b815b90508160096000828254611e5491906152eb565b90915550506001546040516335313c2160e11b81526000916001600160a01b031690636a62784290611e8a903390600401614fb1565b602060405180830381600087803b158015611ea457600080fd5b505af1158015611eb8573d6000803e3d6000fd5b505050506040513d601f19601f82011682018060405250810190611edc9190614e74565b6040805160608101825285815260208082018681524383850190815260008681526012909352938220925183555160018301559151600290910155600c80549293508492909190611f2e9084906152eb565b9091555050505050565b6000611f426141f3565b6001600160701b0316600954611f5891906152eb565b905090565b600c54600354600654600954600a54600b54600f805460609788976000978897889788978897889788978897889788979496601096939563ffffffff600160a01b94859004811696948404811695600160c01b850482169561ffff600160e01b9687900416959394936001600160701b0380841694600160701b8504909116939190910416908c90611fee90615411565b80601f016020809104026020016040519081016040528092919081815260200182805461201a90615411565b80156120675780601f1061203c57610100808354040283529160200191612067565b820191906000526020600020905b81548152906001019060200180831161204a57829003601f168201915b50505050509b508a805461207a90615411565b80601f01602080910402602001604051908101604052809291908181526020018280546120a690615411565b80156120f35780601f106120c8576101008083540402835291602001916120f3565b820191906000526020600020905b8154815290600101906020018083116120d657829003601f168201915b50505050509a509b509b509b509b509b509b509b509b509b509b509b509b50909192939495969798999a9b565b33612129612c5e565b6001600160a01b031614604051806040016040528060018152602001603360f81b8152509061216b5760405162461bcd60e51b815260040161079091906150ba565b50604080518082019091526002815261363160f01b60208201526001600160a01b0382166121ac5760405162461bcd60e51b815260040161079091906150ba565b50600580546001600160a01b0319166001600160a01b0392909216919091179055565b600f80546121dc90615411565b6040805180820190915260018152601960f91b60208201529150156122145760405162461bcd60e51b815260040161079091906150ba565b5061221e816139fa565b8160008051602061550183398151915280546001600160a01b03929092166001600160a01b03199283161790556003805490911633179055865161226990600f9060208a01906147c9565b506122766010878761484d565b5060068054600480546001600160a01b03199081166001600160a01b03888116919091179092556005805492861692909116821790556003805463ffffffff60a01b191660e160a61b179055600165ffff0000000160c01b0319909116600160e01b61ffff8816026001600160c01b03191617176102a360a61b1763ffffffff60c01b19166102a360c71b1790556123136064600560401b615322565b600e55612325600a600360401b615322565b600d5550505050505050565b600354604080518082019091526002815261373560f01b602082015290600160c01b900460ff16156123765760405162461bcd60e51b815260040161079091906150ba565b506001546040516331a9108f60e11b815260048101849052839133916001600160a01b0390911690636352211e9060240160206040518083038186803b1580156123bf57600080fd5b505afa1580156123d3573d6000803e3d6000fd5b505050506040513d601f19601f820116820180604052508101906123f791906149e5565b6001600160a01b031614604051806040016040528060018152602001603360f81b815250906124395760405162461bcd60e51b815260040161079091906150ba565b50600054612452906001600160a01b0316333085614072565b6000600c5460001461246c5761246783614187565b61246e565b825b9050826009600082825461248291906152eb565b909155505060008481526012602052604081208054909185918391906124a99084906152eb565b92505081905550818160010160008282546124c491906152eb565b9091555050436002820155600c80548391906000906124e49084906152eb565b90915550505050505050565b336124f9612c5e565b6001600160a01b031614604051806040016040528060018152602001603360f81b8152509061253b5760405162461bcd60e51b815260040161079091906150ba565b50612544612577565b60025460405163266a23b160e21b81526001600160a01b03928316926399a88ec49261160d9291169085906004016150a0565b60006000805160206155018339815191525b546001600160a01b0316919050565b600354604080518082019091526002815261373560f01b602082015290600160c01b900460ff16156125dd5760405162461bcd60e51b815260040161079091906150ba565b506125e783611703565b604051806040016040528060028152602001610d0d60f21b815250906126205760405162461bcd60e51b815260040161079091906150ba565b50600084815260116020908152604091829020805483518085019094526002845261068760f31b9284019290925291906001600160701b03166126765760405162461bcd60e51b815260040161079091906150ba565b50805460148054600092600160701b900461ffff169081106126a857634e487b7160e01b600052603260045260246000fd5b600091825260209091200154604051636e4d898360e01b81526001600160a01b0390911691508190636e4d8983906126e4908790600401615258565b60206040518083038186803b1580156126fc57600080fd5b505afa158015612710573d6000803e3d6000fd5b505050506040513d601f19601f820116820180604052508101906127349190614a41565b60405180604001604052806002815260200161343560f01b8152509061276d5760405162461bcd60e51b815260040161079091906150ba565b508154429061278a908690600160a01b900463ffffffff16615303565b63ffffffff16101560405180604001604052806002815260200161343960f01b815250906127cb5760405162461bcd60e51b815260040161079091906150ba565b508154600a80546001600160701b03909216916000906127ec9084906153ce565b90915550508154604051639d5513d760e01b815260009182916001600160a01b03851691639d5513d791612832918b916001600160701b03909116908b9060040161504d565b60606040518083038186803b15801561284a57600080fd5b505afa15801561285e573d6000803e3d6000fd5b505050506040513d601f19601f820116820180604052508101906128829190614de3565b508554600a80546001600160701b039092169091019055909250905060006128aa82846152c0565b6001600160701b031690508581111560405180604001604052806002815260200161343760f01b815250906128f25760405162461bcd60e51b815260040161079091906150ba565b506129086001600160a01b038916333084614072565b6000819050846001600160a01b03166398acd7a66040518163ffffffff1660e01b815260040160206040518083038186803b15801561294657600080fd5b505afa15801561295a573d6000803e3d6000fd5b505050506040513d601f19601f8201168201806040525081019061297e91906149e5565b6001600160a01b0316896001600160a01b031614612aa9576004805460405163095ea7b360e01b81526001600160a01b03808d169363095ea7b3936129c893921691879101614fe7565b602060405180830381600087803b1580156129e257600080fd5b505af11580156129f6573d6000803e3d6000fd5b505050506040513d601f19601f82011682018060405250810190612a1a9190614a41565b506004805460005460405163029b465d60e01b81526001600160a01b039283169363029b465d93612a54938f93899391909216910161507d565b602060405180830381600087803b158015612a6e57600080fd5b505af1158015612a82573d6000803e3d6000fd5b505050506040513d601f19601f82011682018060405250810190612aa69190614e74565b90505b600082612abf836001600160701b038716615342565b612ac99190615322565b600654600054919250612ae9916001600160a01b039081169116836140e3565b6000612af582846153ce565b9050612b0081614102565b8754600160a01b900463ffffffff16612b198b82615303565b895463ffffffff60a01b1916600160a01b63ffffffff928316810291909117808c55600654612b52939083900481169290910416615303565b895463ffffffff60c01b1916600160c01b63ffffffff928316810291909117808c55600654612b8f93929004821691600160a01b90910416615303565b895463ffffffff91909116600160e01b026001600160e01b0390911617895560405163f8642f2960e01b8152600481018e90526001600160a01b0389169063f8642f2990602401600060405180830381600087803b158015612bf057600080fd5b505af1158015612c04573d6000803e3d6000fd5b50505050876001600160a01b03166000805160206155418339815191528e838c60000160149054906101000a900463ffffffff16604051612c479392919061523c565b60405180910390a250505050505050505050505050565b60006000805160206154e1833981519152612589565b33612c7d612c5e565b6001600160a01b031614604051806040016040528060018152602001603360f81b81525090612cbf5760405162461bcd60e51b815260040161079091906150ba565b506040805180820190915260028152611b1960f11b60208201526001600160a01b038216612d005760405162461bcd60e51b815260040161079091906150ba565b50600680546001600160a01b0319166001600160a01b0392909216919091179055565b33612d2c612c5e565b6001600160a01b031614604051806040016040528060018152602001603360f81b81525090612d6e5760405162461bcd60e51b815260040161079091906150ba565b50600354604080518082019091526002815261373560f01b602082015290600160c01b900460ff1615612db45760405162461bcd60e51b815260040161079091906150ba565b50604080518082019091526002815261034360f41b60208201526001600160a01b038716612df55760405162461bcd60e51b815260040161079091906150ba565b50601454604080518082019091526002815261343160f01b60208201529061ffff11612e345760405162461bcd60e51b815260040161079091906150ba565b506003546000906001600160a01b031663c31011cc612e51612577565b6040518263ffffffff1660e01b8152600401612e6d9190614fb1565b602060405180830381600087803b158015612e8757600080fd5b505af1158015612e9b573d6000803e3d6000fd5b505050506040513d601f19601f82011682018060405250810190612ebf91906149e5565b905060008060009054906101000a90046001600160a01b03166001600160a01b03166395d89b416040518163ffffffff1660e01b815260040160006040518083038186803b158015612f1057600080fd5b505afa158015612f24573d6000803e3d6000fd5b505050506040513d6000823e601f3d908101601f19168201604052612f4c9190810190614bd8565b90506000818c604051602001612f63929190614f75565b6040516020818303038152906040529050826001600160a01b0316631624f6c68e8360008054906101000a90046001600160a01b03166001600160a01b031663313ce5676040518163ffffffff1660e01b815260040160206040518083038186803b158015612fd157600080fd5b505afa158015612fe5573d6000803e3d6000fd5b505050506040513d601f19601f820116820180604052508101906130099190614f0c565b6040518463ffffffff1660e01b815260040161302793929190615170565b600060405180830381600087803b15801561304157600080fd5b505af1158015613055573d6000803e3d6000fd5b505050505050806001600160a01b0316632ef0cf8b308a868d6014805490508d8c8c8f8c6040518b63ffffffff1660e01b81526004016131139a999897969594939291906001600160a01b039a8b1681526001600160701b039990991660208a01526001600160601b0397909716604089015263ffffffff958616606089015261ffff94851660808901529290971660a0870152831660c08601529490911660e0840152929092166101008201529015156101208201526101400190565b600060405180830381600087803b15801561312d57600080fd5b505af1158015613141573d6000803e3d6000fd5b50506014805460018082019092557fce6d7b5282bd9a3661ae061feed1dbda4e52ab073b1f9285be6e155d9c38d4ec0180546001600160a01b0319166001600160a01b038616908117909155600081815260136020908152604091829020805460ff1916909417909355805163ffffffff8f1681526001600160701b038e16938101939093529093507f18706585e986f622c9d914abfb256d563b9ea274cd5d49124e0518aa314b8c1292500160405180910390a25050505050505050505050565b3361320c612c5e565b6001600160a01b031614604051806040016040528060018152602001603360f81b8152509061324e5760405162461bcd60e51b815260040161079091906150ba565b506001600160a01b03811660009081526007602090815260409182902054825180840190935260028352611b9960f11b91830191909152600190810b900b6132a95760405162461bcd60e51b815260040161079091906150ba565b506001600160a01b038116600090815260076020526040812054600190810b900b1315613327576001600160a01b0381166000908152600760205260409020546132f59060010b61544c565b6001600160a01b0382166000908152600760205260409020805460019290920b61ffff1661ffff199092169190911790555b50565b6001546040516331a9108f60e11b815260048101839052829133916001600160a01b0390911690636352211e9060240160206040518083038186803b15801561337257600080fd5b505afa158015613386573d6000803e3d6000fd5b505050506040513d601f19601f820116820180604052508101906133aa91906149e5565b6001600160a01b031614604051806040016040528060018152602001603360f81b815250906133ec5760405162461bcd60e51b815260040161079091906150ba565b5060006012600084815260200190815260200160002090504381600201541060405180604001604052806002815260200161035360f41b815250906134445760405162461bcd60e51b815260040161079091906150ba565b50600181015460006134558261425b565b905061345f6135b2565b811115604051806040016040528060028152602001611a1b60f11b8152509061349b5760405162461bcd60e51b815260040161079091906150ba565b50600154604051630852cd8d60e31b8152600481018790526001600160a01b03909116906342966c6890602401600060405180830381600087803b1580156134e257600080fd5b505af11580156134f6573d6000803e3d6000fd5b505060005461351292506001600160a01b0316905033836140e3565b81600c600082825461352491906153ce565b909155506135339050816141a9565b5050506000918252506012602052604081208181556001810182905560020155565b3361355e612c5e565b6001600160a01b031614604051806040016040528060018152602001603360f81b815250906135a05760405162461bcd60e51b815260040161079091906150ba565b506135ad6010838361484d565b505050565b6000600a546135bf611f38565b611f5891906153ce565b336135d2612c5e565b6001600160a01b031614604051806040016040528060018152602001603360f81b815250906136145760405162461bcd60e51b815260040161079091906150ba565b50604080518082019091526002815261363360f01b60208201526001600160a01b0382166136555760405162461bcd60e51b815260040161079091906150ba565b50600480546001600160a01b0319166001600160a01b0392909216919091179055565b33613681612c5e565b6001600160a01b031614604051806040016040528060018152602001603360f81b815250906136c35760405162461bcd60e51b815260040161079091906150ba565b50600654604080518082019091526002815261363560f01b60208201529063ffffffff808416600160a01b9092041611156137115760405162461bcd60e51b815260040161079091906150ba565b506006805463ffffffff909216600160c01b0263ffffffff60c01b19909216919091179055565b6060601480548060200260200160405190810160405280929190818152602001828054801561141557602002820191906000526020600020905b81546001600160a01b03168152600190910190602001808311613772575050505050905090565b6000818152601260205260408120600181015482906137b79061425b565b82549091508111156137d45781546137cf90826153ce565b61157e565b6000949350505050565b336137e7612c5e565b6001600160a01b031614604051806040016040528060018152602001603360f81b815250906138295760405162461bcd60e51b815260040161079091906150ba565b50604080518082019091526002815261373160f01b60208201526001600160a01b03821661386a5760405162461bcd60e51b815260040161079091906150ba565b5061332781614273565b3361387d612c5e565b6001600160a01b031614604051806040016040528060018152602001603360f81b815250906138bf5760405162461bcd60e51b815260040161079091906150ba565b506138c8612577565b6001600160a01b03166399a88ec430836040518363ffffffff1660e01b815260040161160d9291906150a0565b336138fe612c5e565b6001600160a01b031614604051806040016040528060018152602001603360f81b815250906139405760405162461bcd60e51b815260040161079091906150ba565b506001600160a01b03821660009081526013602090815260409182902054825180840190935260018352601b60f91b9183019190915260ff166139965760405162461bcd60e51b815260040161079091906150ba565b5061399f612577565b6001600160a01b03166399a88ec483836040518363ffffffff1660e01b81526004016139cc9291906150a0565b600060405180830381600087803b1580156139e657600080fd5b505af1158015611385573d6000803e3d6000fd5b6000613a04612c5e565b6001600160a01b031614604051806040016040528060018152602001601960f91b81525090613a465760405162461bcd60e51b815260040161079091906150ba565b50604080518082019091526002815261373360f01b60208201526001600160a01b038216613a875760405162461bcd60e51b815260040161079091906150ba565b506000805160206154e183398151915280546001600160a01b0319166001600160a01b038316908117909155604051600090600080516020615521833981519152908290a350565b613af360405180606001604052806000815260200160008152602001600081525090565b6001546040516331a9108f60e11b8152600481018490526001600160a01b0390911690636352211e9060240160206040518083038186803b158015613b3757600080fd5b505afa158015613b4b573d6000803e3d6000fd5b505050506040513d601f19601f82011682018060405250810190613b6f91906149e5565b5050600090815260126020908152604091829020825160608101845281548152600182015492810192909252600201549181019190915290565b33613bb2612c5e565b6001600160a01b031614604051806040016040528060018152602001603360f81b81525090613bf45760405162461bcd60e51b815260040161079091906150ba565b506040805180820190915260028152611b1b60f11b602082015263ffffffff8216613c325760405162461bcd60e51b815260040161079091906150ba565b506003805463ffffffff909216600160a01b0263ffffffff60a01b19909216919091179055565b600081815260116020908152604091829020805483518085019094526002845261068760f31b9284019290925291906001600160701b0316613cae5760405162461bcd60e51b815260040161079091906150ba565b506002546040516331a9108f60e11b8152600481018490526000916001600160a01b031690636352211e9060240160206040518083038186803b158015613cf457600080fd5b505afa158015613d08573d6000803e3d6000fd5b505050506040513d601f19601f82011682018060405250810190613d2c91906149e5565b8254909150429063ffffffff808316600160c01b909204161080613d585750336001600160a01b038316145b60405180604001604052806002815260200161353360f01b81525090613d915760405162461bcd60e51b815260040161079091906150ba565b50825463ffffffff808316600160e01b909204161080613db95750336001600160a01b038316145b80613dce57506005546001600160a01b031633145b604051806040016040528060028152602001610d4d60f21b81525090613e075760405162461bcd60e51b815260040161079091906150ba565b50600354600160c01b900460ff16613e3f578254600a80546001600160701b0390921691600090613e399084906153ce565b90915550505b600254604051633f34d4cf60e21b8152600481018690523360248201526001600160a01b039091169063fcd3533c90604401600060405180830381600087803b158015613e8b57600080fd5b505af1158015613e9f573d6000803e3d6000fd5b50505060009485525050601160205250506040812090815560010180546001600160801b0319169055565b6000546040805180820190915260018152601960f91b6020820152906001600160a01b031615613f0d5760405162461bcd60e51b815260040161079091906150ba565b50600080546001600160a01b038086166001600160a01b0319928316179092556001805485841690831617905560028054928416929091169190911790556135ad83614273565b33613f5d612c5e565b6001600160a01b031614604051806040016040528060018152602001603360f81b81525090613f9f5760405162461bcd60e51b815260040161079091906150ba565b50604080518082019091526002815261373360f01b60208201526001600160a01b038216613fe05760405162461bcd60e51b815260040161079091906150ba565b50806001600160a01b0316613ff3612c5e565b6001600160a01b031660008051602061552183398151915260405160405180910390a36000805160206154e183398151915280546001600160a01b0319166001600160a01b0392909216919091179055565b6001600160a01b03811660009081526007602052604081205461406c90600190810b615361565b92915050565b6040516001600160a01b03808516602483015283166044820152606481018290526140dd9085906323b872dd60e01b906084015b60408051601f198184030181529190526020810180516001600160e01b03166001600160e01b031990931692909217909152614356565b50505050565b6135ad8363a9059cbb60e01b84846040516024016140a6929190614fe7565b61410a6141f3565b600b80546001600160701b0319166001600160701b03928316178082558392600e9161413f918591600160701b9004166152c0565b92506101000a8154816001600160701b0302191690836001600160701b0316021790555042600b601c6101000a81548163ffffffff021916908363ffffffff16021790555050565b6000614191611f38565b82600c5461419f9190615342565b61406c9190615322565b80600954106141be5760098054829003905550565b60006141c8614428565b6001600160701b0316905081816009546141e291906152eb565b6141ec91906153ce565b6009555050565b600b5460009061423e9063ffffffff600160e01b82041690614228906001600160701b0380821691600160701b9004166153a6565b600354600160a01b900463ffffffff16426144ae565b600b54611f589190600160701b90046001600160701b03166153a6565b6000600c5482614269611f38565b61419f9190615342565b6001600160a01b038116600090815260076020526040902054600190810b900b61430b5760088054600180820183557ff3f7a9fe364faab93b216da50a3214154f22a0a2b415b23a84c8169e8b636ee390910180546001600160a01b0319166001600160a01b039490941693841790559054600092835260076020526040909220805461ffff191661ffff9390920b92909216179055565b6001600160a01b038116600090815260076020526040812054600190810b900b1215613327576001600160a01b0381166000908152600760205260409020546132f59060010b61544c565b60006143ab826040518060400160405280602081526020017f5361666545524332303a206c6f772d6c6576656c2063616c6c206661696c6564815250856001600160a01b031661464f9092919063ffffffff16565b8051909150156135ad57808060200190518101906143c99190614a41565b6135ad5760405162461bcd60e51b815260206004820152602a60248201527f5361666545524332303a204552433230206f7065726174696f6e20646964206e6044820152691bdd081cdd58d8d9595960b21b6064820152608401610790565b60006144326141f3565b600b80546001600160701b0319168082559192508291600e90614466908490600160701b90046001600160701b03166153a6565b92506101000a8154816001600160701b0302191690836001600160701b0316021790555042600b601c6101000a81548163ffffffff021916908363ffffffff16021790555090565b60008463ffffffff168263ffffffff161015604051806040016040528060018152602001600760fb1b815250906144f85760405162461bcd60e51b815260040161079091906150ba565b5084820391508263ffffffff168263ffffffff168161452757634e487b7160e01b600052601260045260246000fd5b0463ffffffff16846001600160701b0316901c93508263ffffffff168263ffffffff168161456557634e487b7160e01b600052601260045260246000fd5b06915063ffffffff8216158061458257506001600160701b038416155b1561458e57508261157e565b60006001600160701b0385168163ffffffff86811690861671b17217f7d1cf79abc9e3b39803f2f6af40f302816145d557634e487b7160e01b600052601260045260246000fd5b049050600160901b5b82156146425792820192808284028161460757634e487b7160e01b600052601260045260246000fd5b0493849003939250600160901b01808284028161463457634e487b7160e01b600052601260045260246000fd5b049250600160901b016145de565b5091979650505050505050565b606061465e8484600085614668565b90505b9392505050565b6060824710156146c95760405162461bcd60e51b815260206004820152602660248201527f416464726573733a20696e73756666696369656e742062616c616e636520666f6044820152651c8818d85b1b60d21b6064820152608401610790565b843b6147175760405162461bcd60e51b815260206004820152601d60248201527f416464726573733a2063616c6c20746f206e6f6e2d636f6e74726163740000006044820152606401610790565b600080866001600160a01b031685876040516147339190614f59565b60006040518083038185875af1925050503d8060008114614770576040519150601f19603f3d011682016040523d82523d6000602084013e614775565b606091505b5091509150614785828286614790565b979650505050505050565b6060831561479f575081614661565b8251156147af5782518084602001fd5b8160405162461bcd60e51b815260040161079091906150ba565b8280546147d590615411565b90600052602060002090601f0160209004810192826147f7576000855561483d565b82601f1061481057805160ff191683800117855561483d565b8280016001018555821561483d579182015b8281111561483d578251825591602001919060010190614822565b506148499291506148c1565b5090565b82805461485990615411565b90600052602060002090601f01602090048101928261487b576000855561483d565b82601f106148945782800160ff1982351617855561483d565b8280016001018555821561483d579182015b8281111561483d5782358255916020019190600101906148a6565b5b8082111561484957600081556001016148c2565b80356148e1816154ad565b919050565b80356148e181615498565b60008083601f840112614902578182fd5b5081356001600160401b03811115614918578182fd5b60208301915083602082850101111561493057600080fd5b9250929050565b600082601f830112614947578081fd5b813561495a61495582615299565b615269565b81815284602083860101111561496e578283fd5b816020850160208301379081016020019190915292915050565b80356148e1816154bb565b80356148e1816154d0565b803563ffffffff811681146148e157600080fd5b80356001600160601b03811681146148e157600080fd5b6000602082840312156149da578081fd5b813561466181615498565b6000602082840312156149f6578081fd5b815161466181615498565b600080600060608486031215614a15578182fd5b8335614a2081615498565b92506020840135614a3081615498565b929592945050506040919091013590565b600060208284031215614a52578081fd5b8151614661816154ad565b600080600060608486031215614a71578081fd5b8335614a7c81615498565b92506020840135614a8c81615498565b91506040840135614a9c81615498565b809150509250925092565b60008060408385031215614ab9578182fd5b8235614ac481615498565b91506020830135614ad481615498565b809150509250929050565b60008060008060808587031215614af4578182fd5b8435614aff81615498565b93506020850135614b0f81615498565b92506040850135614b1f816154bb565b9150614b2d6060860161499e565b905092959194509250565b600080600080600060a08688031215614b4f578283fd5b8535614b5a81615498565b94506020860135614b6a81615498565b93506040860135614b7a816154bb565b9250614b886060870161499e565b949793965091946080013592915050565b60008060208385031215614bab578182fd5b82356001600160401b03811115614bc0578283fd5b614bcc858286016148f1565b90969095509350505050565b600060208284031215614be9578081fd5b81516001600160401b03811115614bfe578182fd5b8201601f81018413614c0e578182fd5b8051614c1c61495582615299565b818152856020838501011115614c30578384fd5b614c418260208301602086016153e5565b95945050505050565b600080600080600080600060c0888a031215614c64578485fd5b87356001600160401b0380821115614c7a578687fd5b614c868b838c01614937565b985060208a0135915080821115614c9b578687fd5b50614ca88a828b016148f1565b9097509550506040880135614cbc816154d0565b93506060880135614ccc81615498565b92506080880135614cdc81615498565b915060a0880135614cec81615498565b8091505092959891949750929550565b6000806000806000806000806000806101408b8d031215614d1b578384fd5b8a356001600160401b0380821115614d31578586fd5b614d3d8e838f01614937565b9b5060208d0135915080821115614d52578586fd5b50614d5f8d828e01614937565b995050614d6e60408c0161499e565b9750614d7c60608c01614988565b9650614d8a60808c016148e6565b9550614d9860a08c01614993565b9450614da660c08c0161499e565b9350614db460e08c0161499e565b9250614dc36101008c016149b2565b9150614dd26101208c016148d6565b90509295989b9194979a5092959850565b600080600060608486031215614df7578081fd5b8351614e02816154bb565b6020850151909350614e13816154bb565b6040850151909250614a9c816154bb565b600060208284031215614e35578081fd5b8135614661816154d0565b600060208284031215614e51578081fd5b8151614661816154d0565b600060208284031215614e6d578081fd5b5035919050565b600060208284031215614e85578081fd5b5051919050565b60008060008060808587031215614ea1578182fd5b843593506020850135614eb381615498565b9250614ec16040860161499e565b9396929550929360600135925050565b60008060408385031215614ee3578182fd5b50508035926020909101359150565b600060208284031215614f03578081fd5b6146618261499e565b600060208284031215614f1d578081fd5b815160ff81168114614661578182fd5b60008151808452614f458160208601602086016153e5565b601f01601f19169290920160200192915050565b60008251614f6b8184602087016153e5565b9190910192915050565b60008351614f878184602088016153e5565b600160fd1b9083019081528351614fa58160018401602088016153e5565b01600101949350505050565b6001600160a01b0391909116815260200190565b6001600160a01b039290921682526001600160701b0316602082015260400190565b6001600160a01b03929092168252602082015260400190565b6020808252825182820181905260009190848201906040850190845b818110156150415783516001600160a01b03168352928401929184019160010161501c565b50909695505050505050565b6001600160a01b039390931683526001600160701b0391909116602083015263ffffffff16604082015260600190565b6001600160a01b0393841681526020810192909252909116604082015260600190565b6001600160a01b0392831681529116602082015260400190565b6020815260006146616020830184614f2d565b610180815260006150e261018083018f614f2d565b82810360208401526150f4818f614f2d565b604084018e905263ffffffff8d811660608601528c811660808601528b1660a085015261ffff8a1660c085015260e0840189905261010084018890526001600160701b03878116610120860152861661014085015291506151529050565b63ffffffff83166101608301529d9c50505050505050505050505050565b6060815260006151836060830186614f2d565b82810360208401526151958186614f2d565b91505060ff83166040830152949350505050565b81516001600160701b0316815260208083015161ffff169082015260408083015163ffffffff9081169183019190915260608084015182169083015260808084015182169083015260a080840151918216908301526101008201905060c083015161521f60c08401826001600160701b03169052565b5060e083015161523560e084018261ffff169052565b5092915050565b92835263ffffffff918216602084015216604082015260600190565b63ffffffff91909116815260200190565b604051601f8201601f191681016001600160401b038111828210171561529157615291615482565b604052919050565b60006001600160401b038211156152b2576152b2615482565b50601f01601f191660200190565b60006001600160701b038281168482168083038211156152e2576152e261546c565b01949350505050565b600082198211156152fe576152fe61546c565b500190565b600063ffffffff8083168185168083038211156152e2576152e261546c565b60008261533d57634e487b7160e01b81526012600452602481fd5b500490565b600081600019048311821515161561535c5761535c61546c565b500290565b60008160010b8360010b82811281617fff19018312811516156153865761538661546c565b81617fff01831381161561539c5761539c61546c565b5090039392505050565b60006001600160701b03838116908316818110156153c6576153c661546c565b039392505050565b6000828210156153e0576153e061546c565b500390565b60005b838110156154005781810151838201526020016153e8565b838111156140dd5750506000910152565b600181811c9082168061542557607f821691505b6020821081141561544657634e487b7160e01b600052602260045260246000fd5b50919050565b60008160010b617fff198114156154655761546561546c565b9003919050565b634e487b7160e01b600052601160045260246000fd5b634e487b7160e01b600052604160045260246000fd5b6001600160a01b038116811461332757600080fd5b801515811461332757600080fd5b6001600160701b038116811461332757600080fd5b61ffff8116811461332757600080fdfe4f471908b72bb76dae5bd24599026e7bf3ddb256497722888ffa422f83729eded1248cccb5fef9131c731321e43e9a924840ffee7dc68c7d1d3e5cb7dedcae038be0079c531659141344cd1fd0a4f28419497f9722a3daafe3b4186f6b6457e09853650269815e203c5c9e228db9ca05cc6037f2c2723c94ed3260cf98324c99a264697066735822122047103da9696a77bb2cbb355367843093cb2df056a27725ddb70f1bf1e211e44364736f6c63430008040033",
  "linkReferences": {},
  "deployedLinkReferences": {}
}