{
  "_format": "hh-sol-artifact-1",
  "contractName": "Enterprise",
  "sourceName": "contracts/Enterprise.sol",
  "abi": [
    {
      "anonymous": false,
      "inputs": [
        {
          "indexed": false,
          "internalType": "string",
          "name": "baseUri",
          "type": "string"
        }
      ],
      "name": "BaseUriChanged",
      "type": "event"
    },
    {
      "anonymous": false,
      "inputs": [
        {
          "indexed": false,
          "internalType": "uint256",
          "name": "pole",
          "type": "uint256"
        },
        {
          "indexed": false,
          "internalType": "uint256",
          "name": "slope",
          "type": "uint256"
        }
      ],
      "name": "BondingChanged",
      "type": "event"
    },
    {
      "anonymous": false,
      "inputs": [
        {
          "indexed": false,
          "internalType": "address",
          "name": "converter",
          "type": "address"
        }
      ],
      "name": "ConverterChanged",
      "type": "event"
    },
    {
      "anonymous": false,
      "inputs": [
        {
          "indexed": false,
          "internalType": "address",
          "name": "collector",
          "type": "address"
        }
      ],
      "name": "EnterpriseCollectorChanged",
      "type": "event"
    },
    {
      "anonymous": false,
      "inputs": [
        {
          "indexed": false,
          "internalType": "uint32",
          "name": "period",
          "type": "uint32"
        }
      ],
      "name": "EnterpriseOnlyCollectionPeriodChanged",
      "type": "event"
    },
    {
      "anonymous": false,
      "inputs": [],
      "name": "EnterpriseShutdown",
      "type": "event"
    },
    {
      "anonymous": false,
      "inputs": [
        {
          "indexed": false,
          "internalType": "address",
          "name": "wallet",
          "type": "address"
        }
      ],
      "name": "EnterpriseWalletChanged",
      "type": "event"
    },
    {
      "anonymous": false,
      "inputs": [
        {
          "indexed": false,
          "internalType": "uint256",
          "name": "fixedReserve",
          "type": "uint256"
        }
      ],
      "name": "FixedReserveChanged",
      "type": "event"
    },
    {
      "anonymous": false,
      "inputs": [
        {
          "indexed": false,
          "internalType": "uint16",
          "name": "percent",
          "type": "uint16"
        }
      ],
      "name": "GcFeePercentChanged",
      "type": "event"
    },
    {
      "anonymous": false,
      "inputs": [
        {
          "indexed": true,
          "internalType": "address",
          "name": "previousOwner",
          "type": "address"
        },
        {
          "indexed": true,
          "internalType": "address",
          "name": "newOwner",
          "type": "address"
        }
      ],
      "name": "OwnershipTransferred",
      "type": "event"
    },
    {
      "anonymous": false,
      "inputs": [
        {
          "indexed": false,
          "internalType": "address",
          "name": "paymentToken",
          "type": "address"
        },
        {
          "indexed": false,
          "internalType": "bool",
          "name": "enabled",
          "type": "bool"
        }
      ],
      "name": "PaymentTokenChange",
      "type": "event"
    },
    {
      "anonymous": false,
      "inputs": [
        {
          "indexed": true,
          "internalType": "uint256",
          "name": "rentalTokenId",
          "type": "uint256"
        },
        {
          "indexed": true,
          "internalType": "address",
          "name": "renter",
          "type": "address"
        },
        {
          "indexed": false,
          "internalType": "address",
          "name": "paymentToken",
          "type": "address"
        },
        {
          "indexed": false,
          "internalType": "uint112",
          "name": "poolFee",
          "type": "uint112"
        },
        {
          "indexed": false,
          "internalType": "uint112",
          "name": "serviceFee",
          "type": "uint112"
        },
        {
          "indexed": false,
          "internalType": "uint32",
          "name": "endTime",
          "type": "uint32"
        },
        {
          "indexed": false,
          "internalType": "uint32",
          "name": "renterOnlyReturnTime",
          "type": "uint32"
        },
        {
          "indexed": false,
          "internalType": "uint32",
          "name": "enterpriseOnlyCollectionTime",
          "type": "uint32"
        }
      ],
      "name": "RentalPeriodExtended",
      "type": "event"
    },
    {
      "anonymous": false,
      "inputs": [
        {
          "indexed": true,
          "internalType": "uint256",
          "name": "rentalTokenId",
          "type": "uint256"
        },
        {
          "indexed": true,
          "internalType": "address",
          "name": "returner",
          "type": "address"
        },
        {
          "indexed": true,
          "internalType": "address",
          "name": "powerToken",
          "type": "address"
        },
        {
          "indexed": false,
          "internalType": "uint112",
          "name": "rentalAmount",
          "type": "uint112"
        },
        {
          "indexed": false,
          "internalType": "uint112",
          "name": "gcReward",
          "type": "uint112"
        },
        {
          "indexed": false,
          "internalType": "address",
          "name": "gcRewardToken",
          "type": "address"
        },
        {
          "indexed": false,
          "internalType": "uint256",
          "name": "totalReserve",
          "type": "uint256"
        },
        {
          "indexed": false,
          "internalType": "uint256",
          "name": "totalUsedReserve",
          "type": "uint256"
        }
      ],
      "name": "RentalReturned",
      "type": "event"
    },
    {
      "anonymous": false,
      "inputs": [
        {
          "indexed": true,
          "internalType": "uint256",
          "name": "rentalTokenId",
          "type": "uint256"
        },
        {
          "indexed": true,
          "internalType": "address",
          "name": "renter",
          "type": "address"
        },
        {
          "indexed": true,
          "internalType": "address",
          "name": "powerToken",
          "type": "address"
        },
        {
          "indexed": false,
          "internalType": "address",
          "name": "paymentToken",
          "type": "address"
        },
        {
          "indexed": false,
          "internalType": "uint112",
          "name": "rentalAmount",
          "type": "uint112"
        },
        {
          "indexed": false,
          "internalType": "uint112",
          "name": "poolFee",
          "type": "uint112"
        },
        {
          "indexed": false,
          "internalType": "uint112",
          "name": "serviceFee",
          "type": "uint112"
        },
        {
          "indexed": false,
          "internalType": "uint112",
          "name": "gcFee",
          "type": "uint112"
        },
        {
          "indexed": false,
          "internalType": "uint32",
          "name": "startTime",
          "type": "uint32"
        },
        {
          "indexed": false,
          "internalType": "uint32",
          "name": "endTime",
          "type": "uint32"
        },
        {
          "indexed": false,
          "internalType": "uint32",
          "name": "renterOnlyReturnTime",
          "type": "uint32"
        },
        {
          "indexed": false,
          "internalType": "uint32",
          "name": "enterpriseOnlyCollectionTime",
          "type": "uint32"
        },
        {
          "indexed": false,
          "internalType": "uint256",
          "name": "totalReserve",
          "type": "uint256"
        },
        {
          "indexed": false,
          "internalType": "uint256",
          "name": "totalUsedReserve",
          "type": "uint256"
        }
      ],
      "name": "Rented",
      "type": "event"
    },
    {
      "anonymous": false,
      "inputs": [
        {
          "indexed": false,
          "internalType": "uint32",
          "name": "period",
          "type": "uint32"
        }
      ],
      "name": "RenterOnlyReturnPeriodChanged",
      "type": "event"
    },
    {
      "anonymous": false,
      "inputs": [
        {
          "indexed": true,
          "internalType": "address",
          "name": "powerToken",
          "type": "address"
        }
      ],
      "name": "ServiceRegistered",
      "type": "event"
    },
    {
      "anonymous": false,
      "inputs": [
        {
          "indexed": true,
          "internalType": "uint256",
          "name": "stakeTokenId",
          "type": "uint256"
        },
        {
          "indexed": true,
          "internalType": "address",
          "name": "staker",
          "type": "address"
        },
        {
          "indexed": true,
          "internalType": "enum Enterprise.StakeOperation",
          "name": "operation",
          "type": "uint8"
        },
        {
          "indexed": false,
          "internalType": "uint256",
          "name": "amountDelta",
          "type": "uint256"
        },
        {
          "indexed": false,
          "internalType": "uint256",
          "name": "amount",
          "type": "uint256"
        },
        {
          "indexed": false,
          "internalType": "uint256",
          "name": "sharesDelta",
          "type": "uint256"
        },
        {
          "indexed": false,
          "internalType": "uint256",
          "name": "shares",
          "type": "uint256"
        },
        {
          "indexed": false,
          "internalType": "uint256",
          "name": "totalShares",
          "type": "uint256"
        },
        {
          "indexed": false,
          "internalType": "uint256",
          "name": "totalReserve",
          "type": "uint256"
        },
        {
          "indexed": false,
          "internalType": "uint256",
          "name": "totalUsedReserve",
          "type": "uint256"
        }
      ],
      "name": "StakeChanged",
      "type": "event"
    },
    {
      "anonymous": false,
      "inputs": [
        {
          "indexed": false,
          "internalType": "uint112",
          "name": "streamingReserve",
          "type": "uint112"
        },
        {
          "indexed": false,
          "internalType": "uint112",
          "name": "streamingReserveTarget",
          "type": "uint112"
        }
      ],
      "name": "StreamingReserveChanged",
      "type": "event"
    },
    {
      "anonymous": false,
      "inputs": [
        {
          "indexed": false,
          "internalType": "uint32",
          "name": "period",
          "type": "uint32"
        }
      ],
      "name": "StreamingReserveHalvingPeriodChanged",
      "type": "event"
    },
    {
      "inputs": [
        {
          "internalType": "uint256",
          "name": "stakeTokenId",
          "type": "uint256"
        }
      ],
      "name": "claimStakingReward",
      "outputs": [],
      "stateMutability": "nonpayable",
      "type": "function"
    },
    {
      "inputs": [
        {
          "internalType": "uint256",
          "name": "stakeTokenId",
          "type": "uint256"
        },
        {
          "internalType": "uint256",
          "name": "stakeAmountDelta",
          "type": "uint256"
        }
      ],
      "name": "decreaseStake",
      "outputs": [],
      "stateMutability": "nonpayable",
      "type": "function"
    },
    {
      "inputs": [
        {
          "internalType": "address",
          "name": "token",
          "type": "address"
        }
      ],
      "name": "disablePaymentToken",
      "outputs": [],
      "stateMutability": "nonpayable",
      "type": "function"
    },
    {
      "inputs": [
        {
          "internalType": "address",
          "name": "token",
          "type": "address"
        }
      ],
      "name": "enablePaymentToken",
      "outputs": [],
      "stateMutability": "nonpayable",
      "type": "function"
    },
    {
      "inputs": [
        {
          "internalType": "address",
          "name": "powerToken",
          "type": "address"
        },
        {
          "internalType": "address",
          "name": "paymentToken",
          "type": "address"
        },
        {
          "internalType": "uint112",
          "name": "rentalAmount",
          "type": "uint112"
        },
        {
          "internalType": "uint32",
          "name": "rentalPeriod",
          "type": "uint32"
        }
      ],
      "name": "estimateRentalFee",
      "outputs": [
        {
          "internalType": "uint256",
          "name": "",
          "type": "uint256"
        }
      ],
      "stateMutability": "view",
      "type": "function"
    },
    {
      "inputs": [
        {
          "internalType": "uint256",
          "name": "rentalTokenId",
          "type": "uint256"
        },
        {
          "internalType": "address",
          "name": "paymentToken",
          "type": "address"
        },
        {
          "internalType": "uint32",
          "name": "rentalPeriod",
          "type": "uint32"
        },
        {
          "internalType": "uint256",
          "name": "maxPayment",
          "type": "uint256"
        }
      ],
      "name": "extendRentalPeriod",
      "outputs": [],
      "stateMutability": "nonpayable",
      "type": "function"
    },
    {
      "inputs": [],
      "name": "getAvailableReserve",
      "outputs": [
        {
          "internalType": "uint256",
          "name": "",
          "type": "uint256"
        }
      ],
      "stateMutability": "view",
      "type": "function"
    },
    {
      "inputs": [],
      "name": "getBaseUri",
      "outputs": [
        {
          "internalType": "string",
          "name": "",
          "type": "string"
        }
      ],
      "stateMutability": "view",
      "type": "function"
    },
    {
      "inputs": [],
      "name": "getBondingCurve",
      "outputs": [
        {
          "internalType": "uint256",
          "name": "pole",
          "type": "uint256"
        },
        {
          "internalType": "uint256",
          "name": "slope",
          "type": "uint256"
        }
      ],
      "stateMutability": "view",
      "type": "function"
    },
    {
      "inputs": [],
      "name": "getConverter",
      "outputs": [
        {
          "internalType": "contract IConverter",
          "name": "",
          "type": "address"
        }
      ],
      "stateMutability": "view",
      "type": "function"
    },
    {
      "inputs": [],
      "name": "getEnterpriseCollector",
      "outputs": [
        {
          "internalType": "address",
          "name": "",
          "type": "address"
        }
      ],
      "stateMutability": "view",
      "type": "function"
    },
    {
      "inputs": [],
      "name": "getEnterpriseOnlyCollectionPeriod",
      "outputs": [
        {
          "internalType": "uint32",
          "name": "",
          "type": "uint32"
        }
      ],
      "stateMutability": "view",
      "type": "function"
    },
    {
      "inputs": [],
      "name": "getEnterpriseToken",
      "outputs": [
        {
          "internalType": "contract IERC20Metadata",
          "name": "",
          "type": "address"
        }
      ],
      "stateMutability": "view",
      "type": "function"
    },
    {
      "inputs": [],
      "name": "getEnterpriseWallet",
      "outputs": [
        {
          "internalType": "address",
          "name": "",
          "type": "address"
        }
      ],
      "stateMutability": "view",
      "type": "function"
    },
    {
      "inputs": [],
      "name": "getFactory",
      "outputs": [
        {
          "internalType": "address",
          "name": "",
          "type": "address"
        }
      ],
      "stateMutability": "view",
      "type": "function"
    },
    {
      "inputs": [],
      "name": "getGCFeePercent",
      "outputs": [
        {
          "internalType": "uint16",
          "name": "",
          "type": "uint16"
        }
      ],
      "stateMutability": "view",
      "type": "function"
    },
    {
      "inputs": [],
      "name": "getInfo",
      "outputs": [
        {
          "internalType": "string",
          "name": "name",
          "type": "string"
        },
        {
          "internalType": "string",
          "name": "baseUri",
          "type": "string"
        },
        {
          "internalType": "uint256",
          "name": "totalShares",
          "type": "uint256"
        },
        {
          "internalType": "uint32",
          "name": "streamingReserveHalvingPeriod",
          "type": "uint32"
        },
        {
          "internalType": "uint32",
          "name": "renterOnlyReturnPeriod",
          "type": "uint32"
        },
        {
          "internalType": "uint32",
          "name": "enterpriseOnlyCollectionPeriod",
          "type": "uint32"
        },
        {
          "internalType": "uint16",
          "name": "gcFeePercent",
          "type": "uint16"
        },
        {
          "internalType": "uint256",
          "name": "fixedReserve",
          "type": "uint256"
        },
        {
          "internalType": "uint256",
          "name": "usedReserve",
          "type": "uint256"
        },
        {
          "internalType": "uint112",
          "name": "streamingReserve",
          "type": "uint112"
        },
        {
          "internalType": "uint112",
          "name": "streamingReserveTarget",
          "type": "uint112"
        },
        {
          "internalType": "uint32",
          "name": "streamingReserveUpdated",
          "type": "uint32"
        }
      ],
      "stateMutability": "view",
      "type": "function"
    },
    {
      "inputs": [
        {
          "internalType": "uint256",
          "name": "index",
          "type": "uint256"
        }
      ],
      "name": "getPaymentToken",
      "outputs": [
        {
          "internalType": "address",
          "name": "",
          "type": "address"
        }
      ],
      "stateMutability": "view",
      "type": "function"
    },
    {
      "inputs": [
        {
          "internalType": "address",
          "name": "token",
          "type": "address"
        }
      ],
      "name": "getPaymentTokenIndex",
      "outputs": [
        {
          "internalType": "int16",
          "name": "",
          "type": "int16"
        }
      ],
      "stateMutability": "view",
      "type": "function"
    },
    {
      "inputs": [],
      "name": "getPowerTokens",
      "outputs": [
        {
          "internalType": "contract IPowerToken[]",
          "name": "",
          "type": "address[]"
        }
      ],
      "stateMutability": "view",
      "type": "function"
    },
    {
      "inputs": [],
      "name": "getProxyAdmin",
      "outputs": [
        {
          "internalType": "contract ProxyAdmin",
          "name": "",
          "type": "address"
        }
      ],
      "stateMutability": "view",
      "type": "function"
    },
    {
      "inputs": [
        {
          "internalType": "uint256",
          "name": "rentalTokenId",
          "type": "uint256"
        }
      ],
      "name": "getRentalAgreement",
      "outputs": [
        {
          "components": [
            {
              "internalType": "uint112",
              "name": "rentalAmount",
              "type": "uint112"
            },
            {
              "internalType": "uint16",
              "name": "powerTokenIndex",
              "type": "uint16"
            },
            {
              "internalType": "uint32",
              "name": "startTime",
              "type": "uint32"
            },
            {
              "internalType": "uint32",
              "name": "endTime",
              "type": "uint32"
            },
            {
              "internalType": "uint32",
              "name": "renterOnlyReturnTime",
              "type": "uint32"
            },
            {
              "internalType": "uint32",
              "name": "enterpriseOnlyCollectionTime",
              "type": "uint32"
            },
            {
              "internalType": "uint112",
              "name": "gcRewardAmount",
              "type": "uint112"
            },
            {
              "internalType": "uint16",
              "name": "gcRewardTokenIndex",
              "type": "uint16"
            }
          ],
          "internalType": "struct IEnterpriseStorage.RentalAgreement",
          "name": "",
          "type": "tuple"
        }
      ],
      "stateMutability": "view",
      "type": "function"
    },
    {
      "inputs": [],
      "name": "getRentalToken",
      "outputs": [
        {
          "internalType": "contract IRentalToken",
          "name": "",
          "type": "address"
        }
      ],
      "stateMutability": "view",
      "type": "function"
    },
    {
      "inputs": [],
      "name": "getRenterOnlyReturnPeriod",
      "outputs": [
        {
          "internalType": "uint32",
          "name": "",
          "type": "uint32"
        }
      ],
      "stateMutability": "view",
      "type": "function"
    },
    {
      "inputs": [],
      "name": "getReserve",
      "outputs": [
        {
          "internalType": "uint256",
          "name": "",
          "type": "uint256"
        }
      ],
      "stateMutability": "view",
      "type": "function"
    },
    {
      "inputs": [
        {
          "internalType": "uint256",
          "name": "stakeTokenId",
          "type": "uint256"
        }
      ],
      "name": "getStake",
      "outputs": [
        {
          "components": [
            {
              "internalType": "uint256",
              "name": "amount",
              "type": "uint256"
            },
            {
              "internalType": "uint256",
              "name": "shares",
              "type": "uint256"
            },
            {
              "internalType": "uint256",
              "name": "block",
              "type": "uint256"
            }
          ],
          "internalType": "struct EnterpriseStorage.Stake",
          "name": "",
          "type": "tuple"
        }
      ],
      "stateMutability": "view",
      "type": "function"
    },
    {
      "inputs": [],
      "name": "getStakeToken",
      "outputs": [
        {
          "internalType": "contract IStakeToken",
          "name": "",
          "type": "address"
        }
      ],
      "stateMutability": "view",
      "type": "function"
    },
    {
      "inputs": [
        {
          "internalType": "uint256",
          "name": "stakeTokenId",
          "type": "uint256"
        }
      ],
      "name": "getStakingReward",
      "outputs": [
        {
          "internalType": "uint256",
          "name": "",
          "type": "uint256"
        }
      ],
      "stateMutability": "view",
      "type": "function"
    },
    {
      "inputs": [],
      "name": "getStreamingReserveHalvingPeriod",
      "outputs": [
        {
          "internalType": "uint32",
          "name": "",
          "type": "uint32"
        }
      ],
      "stateMutability": "view",
      "type": "function"
    },
    {
      "inputs": [],
      "name": "getUsedReserve",
      "outputs": [
        {
          "internalType": "uint256",
          "name": "",
          "type": "uint256"
        }
      ],
      "stateMutability": "view",
      "type": "function"
    },
    {
      "inputs": [
        {
          "internalType": "uint256",
          "name": "stakeTokenId",
          "type": "uint256"
        },
        {
          "internalType": "uint256",
          "name": "stakeAmountDelta",
          "type": "uint256"
        }
      ],
      "name": "increaseStake",
      "outputs": [],
      "stateMutability": "nonpayable",
      "type": "function"
    },
    {
      "inputs": [
        {
          "internalType": "string",
          "name": "enterpriseName",
          "type": "string"
        },
        {
          "internalType": "string",
          "name": "baseUri",
          "type": "string"
        },
        {
          "internalType": "uint16",
          "name": "gcFeePercent",
          "type": "uint16"
        },
        {
          "internalType": "contract IConverter",
          "name": "converter",
          "type": "address"
        },
        {
          "internalType": "contract ProxyAdmin",
          "name": "proxyAdmin",
          "type": "address"
        },
        {
          "internalType": "address",
          "name": "owner",
          "type": "address"
        }
      ],
      "name": "initialize",
      "outputs": [],
      "stateMutability": "nonpayable",
      "type": "function"
    },
    {
      "inputs": [
        {
          "internalType": "address",
          "name": "initialOwner",
          "type": "address"
        }
      ],
      "name": "initialize",
      "outputs": [],
      "stateMutability": "nonpayable",
      "type": "function"
    },
    {
      "inputs": [
        {
          "internalType": "contract IERC20Metadata",
          "name": "enterpriseToken",
          "type": "address"
        },
        {
          "internalType": "contract IStakeToken",
          "name": "stakeToken",
          "type": "address"
        },
        {
          "internalType": "contract IRentalToken",
          "name": "rentalToken",
          "type": "address"
        }
      ],
      "name": "initializeTokens",
      "outputs": [],
      "stateMutability": "nonpayable",
      "type": "function"
    },
    {
      "inputs": [
        {
          "internalType": "address",
          "name": "powerToken",
          "type": "address"
        }
      ],
      "name": "isRegisteredPowerToken",
      "outputs": [
        {
          "internalType": "bool",
          "name": "",
          "type": "bool"
        }
      ],
      "stateMutability": "view",
      "type": "function"
    },
    {
      "inputs": [
        {
          "internalType": "address",
          "name": "token",
          "type": "address"
        }
      ],
      "name": "isSupportedPaymentToken",
      "outputs": [
        {
          "internalType": "bool",
          "name": "",
          "type": "bool"
        }
      ],
      "stateMutability": "view",
      "type": "function"
    },
    {
      "inputs": [],
      "name": "owner",
      "outputs": [
        {
          "internalType": "address",
          "name": "",
          "type": "address"
        }
      ],
      "stateMutability": "view",
      "type": "function"
    },
    {
      "inputs": [
        {
          "internalType": "string",
          "name": "serviceName",
          "type": "string"
        },
        {
          "internalType": "string",
          "name": "serviceSymbol",
          "type": "string"
        },
        {
          "internalType": "uint32",
          "name": "energyGapHalvingPeriod",
          "type": "uint32"
        },
        {
          "internalType": "uint112",
          "name": "baseRate",
          "type": "uint112"
        },
        {
          "internalType": "address",
          "name": "baseToken",
          "type": "address"
        },
        {
          "internalType": "uint16",
          "name": "serviceFeePercent",
          "type": "uint16"
        },
        {
          "internalType": "uint32",
          "name": "minRentalPeriod",
          "type": "uint32"
        },
        {
          "internalType": "uint32",
          "name": "maxRentalPeriod",
          "type": "uint32"
        },
        {
          "internalType": "uint96",
          "name": "minGCFee",
          "type": "uint96"
        },
        {
          "internalType": "bool",
          "name": "swappingEnabledForever",
          "type": "bool"
        }
      ],
      "name": "registerService",
      "outputs": [],
      "stateMutability": "nonpayable",
      "type": "function"
    },
    {
      "inputs": [
        {
          "internalType": "address",
          "name": "powerToken",
          "type": "address"
        },
        {
          "internalType": "address",
          "name": "paymentToken",
          "type": "address"
        },
        {
          "internalType": "uint112",
          "name": "rentalAmount",
          "type": "uint112"
        },
        {
          "internalType": "uint32",
          "name": "rentalPeriod",
          "type": "uint32"
        },
        {
          "internalType": "uint256",
          "name": "maxPayment",
          "type": "uint256"
        }
      ],
      "name": "rent",
      "outputs": [],
      "stateMutability": "nonpayable",
      "type": "function"
    },
    {
      "inputs": [
        {
          "internalType": "uint256",
          "name": "rentalTokenId",
          "type": "uint256"
        }
      ],
      "name": "returnRental",
      "outputs": [],
      "stateMutability": "nonpayable",
      "type": "function"
    },
    {
      "inputs": [
        {
          "internalType": "string",
          "name": "baseUri",
          "type": "string"
        }
      ],
      "name": "setBaseUri",
      "outputs": [],
      "stateMutability": "nonpayable",
      "type": "function"
    },
    {
      "inputs": [
        {
          "internalType": "uint256",
          "name": "pole",
          "type": "uint256"
        },
        {
          "internalType": "uint256",
          "name": "slope",
          "type": "uint256"
        }
      ],
      "name": "setBondingCurve",
      "outputs": [],
      "stateMutability": "nonpayable",
      "type": "function"
    },
    {
      "inputs": [
        {
          "internalType": "contract IConverter",
          "name": "newConverter",
          "type": "address"
        }
      ],
      "name": "setConverter",
      "outputs": [],
      "stateMutability": "nonpayable",
      "type": "function"
    },
    {
      "inputs": [
        {
          "internalType": "address",
          "name": "newCollector",
          "type": "address"
        }
      ],
      "name": "setEnterpriseCollector",
      "outputs": [],
      "stateMutability": "nonpayable",
      "type": "function"
    },
    {
      "inputs": [
        {
          "internalType": "uint32",
          "name": "newPeriod",
          "type": "uint32"
        }
      ],
      "name": "setEnterpriseOnlyCollectionPeriod",
      "outputs": [],
      "stateMutability": "nonpayable",
      "type": "function"
    },
    {
      "inputs": [
        {
          "internalType": "address",
          "name": "newWallet",
          "type": "address"
        }
      ],
      "name": "setEnterpriseWallet",
      "outputs": [],
      "stateMutability": "nonpayable",
      "type": "function"
    },
    {
      "inputs": [
        {
          "internalType": "uint16",
          "name": "newGcFeePercent",
          "type": "uint16"
        }
      ],
      "name": "setGcFeePercent",
      "outputs": [],
      "stateMutability": "nonpayable",
      "type": "function"
    },
    {
      "inputs": [
        {
          "internalType": "uint32",
          "name": "newPeriod",
          "type": "uint32"
        }
      ],
      "name": "setRenterOnlyReturnPeriod",
      "outputs": [],
      "stateMutability": "nonpayable",
      "type": "function"
    },
    {
      "inputs": [
        {
          "internalType": "uint32",
          "name": "streamingReserveHalvingPeriod",
          "type": "uint32"
        }
      ],
      "name": "setStreamingReserveHalvingPeriod",
      "outputs": [],
      "stateMutability": "nonpayable",
      "type": "function"
    },
    {
      "inputs": [],
      "name": "shutdownEnterpriseForever",
      "outputs": [],
      "stateMutability": "nonpayable",
      "type": "function"
    },
    {
      "inputs": [
        {
          "internalType": "uint256",
          "name": "stakeAmount",
          "type": "uint256"
        }
      ],
      "name": "stake",
      "outputs": [],
      "stateMutability": "nonpayable",
      "type": "function"
    },
    {
      "inputs": [
        {
          "internalType": "address",
          "name": "newOwner",
          "type": "address"
        }
      ],
      "name": "transferOwnership",
      "outputs": [],
      "stateMutability": "nonpayable",
      "type": "function"
    },
    {
      "inputs": [
        {
          "internalType": "address",
          "name": "from",
          "type": "address"
        },
        {
          "internalType": "address",
          "name": "to",
          "type": "address"
        },
        {
          "internalType": "uint256",
          "name": "rentalTokenId",
          "type": "uint256"
        }
      ],
      "name": "transferRental",
      "outputs": [],
      "stateMutability": "nonpayable",
      "type": "function"
    },
    {
      "inputs": [
        {
          "internalType": "uint256",
          "name": "stakeTokenId",
          "type": "uint256"
        }
      ],
      "name": "unstake",
      "outputs": [],
      "stateMutability": "nonpayable",
      "type": "function"
    },
    {
      "inputs": [
        {
          "internalType": "address",
          "name": "enterpriseFactory",
          "type": "address"
        },
        {
          "internalType": "address",
          "name": "enterpriseImplementation",
          "type": "address"
        },
        {
          "internalType": "address",
          "name": "rentalTokenImplementation",
          "type": "address"
        },
        {
          "internalType": "address",
          "name": "stakeTokenImplementation",
          "type": "address"
        },
        {
          "internalType": "address",
          "name": "powerTokenImplementation",
          "type": "address"
        },
        {
          "internalType": "address[]",
          "name": "powerTokens",
          "type": "address[]"
        }
      ],
      "name": "upgrade",
      "outputs": [],
      "stateMutability": "nonpayable",
      "type": "function"
    }
  ],
  "bytecode": "0x608060405234801561001057600080fd5b50615cf780620000216000396000f3fe608060405234801561001057600080fd5b506004361061027d5760003560e01c80630103f313146102825780630cac36b2146102ad57806318a8a6cf146102c25780632107730c146102e25780632261b07f146102f7578063239cd4a41461031157806324d86f00146103245780632e17de78146103375780632fb2067f1461034a5780633310df9e1461038b5780633513e0dc1461039e578063449497ec146103b15780634741efb3146103c4578063500a1564146103cc57806359bf5d39146103dd5780635a9b0b89146103f357806360f870871461041357806362c1f388146104245780636815f337146104375780636df0bb141461044a5780637c14d9911461045d5780637e6a7cbb146104705780638245ca1e1461048e57806388cc58e4146104a157806389035b61146104b25780638b3240a0146104de5780638da5cb5b146104e65780638fc49ad2146104ee578063960970c7146105015780639ab71193146105145780639c7aa7f8146105275780639f52673c1461053a578063a0bcfc7f1461054f578063a554b26d14610562578063a694fc3a14610573578063abfe35ad14610586578063aebb504114610599578063b19337a4146105a1578063b406bf6d146105b4578063b714ff53146105d5578063b96266fa146105e6578063bec10cde146105fb578063bfd84fb41461060e578063c4d66de814610621578063c852d20014610634578063c9a304cb14610647578063cdc2aebf1461065a578063ce325bf81461066d578063dccdc7d9146106a2578063dd9919e7146106b3578063ef1f9f39146106c8578063f2fde38b146106db578063f87c4261146106ee578063faac38ef14610701578063fcb2884e1461071c575b600080fd5b610295610290366004614eae565b610724565b60405160019190910b81526020015b60405180910390f35b6102b5610751565b6040516102a49190615652565b6102d56102d03660046153cd565b6107e3565b6040516102a49190615741565b6102f56102f0366004614eae565b610938565b005b6004546001600160a01b03165b6040516102a49190615522565b6102f561031f3660046153cd565b610a12565b6102f5610332366004615442565b610bea565b6102f56103453660046153cd565b610e6f565b61037b610358366004614eae565b6001600160a01b0316600090815260076020526040812054600190810b900b1390565b60405190151581526020016102a4565b6102f56103993660046153cd565b6110bf565b6102f56103ac366004615442565b6114b4565b6102f56103bf366004615395565b6115c1565b6102f561164b565b6001546001600160a01b0316610304565b6103e5611745565b6040519081526020016102a4565b6103fb61176a565b6040516102a49c9b9a99989796959493929190615665565b6000546001600160a01b0316610304565b6102f5610432366004614eae565b61192d565b6102f56104453660046151bb565b6119f3565b6102f5610458366004614ee6565b611d5e565b6102f561046b366004615463565b6120cb565b600654600160a01b900463ffffffff165b6040516102a4919061581e565b6103e561049c366004614fb3565b6121a2565b6003546001600160a01b0316610304565b61037b6104c0366004614eae565b6001600160a01b031660009081526013602052604090205460ff1690565b6103046122f8565b610304612319565b6102f56104fc36600461500c565b61232f565b6102f561050f36600461506d565b612a13565b6102f561052236600461526d565b612cfd565b6102f5610535366004614eae565b6131e7565b600654600160c01b900463ffffffff16610481565b6102f561055d366004615113565b61332d565b6005546001600160a01b0316610304565b6102f56105813660046153cd565b6133a5565b6103e56105943660046153cd565b61354f565b6103e561357d565b6102f56105af366004614eae565b613594565b600654600160e01b900461ffff1660405161ffff90911681526020016102a4565b6002546001600160a01b0316610304565b6105ee61365a565b6040516102a491906155bc565b6102f5610609366004615442565b6136bb565b6102f561061c366004614eae565b6138ac565b6102f561062f366004614eae565b613942565b6102f56106423660046153fd565b613a17565b6102f5610655366004615463565b613e27565b6103046106683660046153cd565b613efd565b61068061067b3660046153cd565b613f3b565b60408051825181526020808401519082015291810151908201526060016102a4565b6006546001600160a01b0316610304565b600354600160a01b900463ffffffff16610481565b6102f56106d63660046150c9565b614015565b6102f56106e9366004614eae565b6140e4565b6102f56106fc366004615463565b6141d5565b600e54600d54604080519283526020830191909152016102a4565b600a546103e5565b6001600160a01b03811660009081526007602052604081205461074b90600190810b615927565b92915050565b606060108054610760906159d7565b80601f016020809104026020016040519081016040528092919081815260200182805461078c906159d7565b80156107d95780601f106107ae576101008083540402835291602001916107d9565b820191906000526020600020905b8154815290600101906020018083116107bc57829003601f168201915b5050505050905090565b6040805161010081018252600080825260208201819052818301819052606082018190526080820181905260a0820181905260c0820181905260e082015260025491516331a9108f60e11b81526004810184905290916001600160a01b031690636352211e9060240160206040518083038186803b15801561086457600080fd5b505afa158015610878573d6000803e3d6000fd5b505050506040513d601f19601f8201168201806040525081019061089c9190614eca565b505060009081526011602090815260409182902082516101008101845281546001600160701b038082168352600160701b80830461ffff90811696850196909652600160801b830463ffffffff90811697850197909752600160a01b830487166060850152600160c01b830487166080850152600160e01b90920490951660a083015260019092015493841660c082015292041660e082015290565b33610941612319565b6001600160a01b031614604051806040016040528060018152602001603360f81b8152509061098c5760405162461bcd60e51b81526004016109839190615652565b60405180910390fd5b506040805180820190915260028152611b1960f11b60208201526001600160a01b0382166109cd5760405162461bcd60e51b81526004016109839190615652565b50600680546001600160a01b0319166001600160a01b038316179055604051600080516020615ca283398151915290610a07908390615522565b60405180910390a150565b6001546040516331a9108f60e11b815260048101839052829133916001600160a01b0390911690636352211e9060240160206040518083038186803b158015610a5a57600080fd5b505afa158015610a6e573d6000803e3d6000fd5b505050506040513d601f19601f82011682018060405250810190610a929190614eca565b6001600160a01b031614604051806040016040528060018152602001603360f81b81525090610ad45760405162461bcd60e51b81526004016109839190615652565b506000828152601260205260408120805460018201549192909190610af7611745565b90506000610b0683858461429b565b9050610b11826142cd565b811115604051806040016040528060028152602001611a1b60f11b81525090610b4d5760405162461bcd60e51b81526004016109839190615652565b50600054610b65906001600160a01b031633836142dd565b6000610b718584614333565b90506000610b7f8286615994565b9050610b8b838261434e565b600187018290556000336001600160a01b03168a600080516020615ae2833981519152868a8688600c548b8d610bc19190615994565b600a54604051610bd797969594939291906157ee565b60405180910390a4505050505050505050565b6001546040516331a9108f60e11b815260048101849052839133916001600160a01b0390911690636352211e9060240160206040518083038186803b158015610c3257600080fd5b505afa158015610c46573d6000803e3d6000fd5b505050506040513d601f19601f82011682018060405250810190610c6a9190614eca565b6001600160a01b031614604051806040016040528060018152602001603360f81b81525090610cac5760405162461bcd60e51b81526004016109839190615652565b50600083815260126020908152604091829020825160608101845281548152600182015481840152600291820154818501819052845180860190955291845261035360f41b928401929092529091904311610d1a5760405162461bcd60e51b81526004016109839190615652565b5080516040805180820190915260028152611a1b60f11b602082015290841115610d575760405162461bcd60e51b81526004016109839190615652565b506000610d62611745565b9050610d6d816142cd565b841115604051806040016040528060028152602001611a1b60f11b81525090610da95760405162461bcd60e51b81526004016109839190615652565b50600054610dc1906001600160a01b031633866142dd565b6000610dcd8583614333565b90508260200151811115610de2575060208201515b610dec858261434e565b6020838101805183900380825285518890038652600089815260129093526040909220600181019290925584519182905551600c5460049233928a92600080516020615ae2833981519152928b929091889190610e49858c615994565b600a54604051610e5f97969594939291906157ee565b60405180910390a4505050505050565b6001546040516331a9108f60e11b815260048101839052829133916001600160a01b0390911690636352211e9060240160206040518083038186803b158015610eb757600080fd5b505afa158015610ecb573d6000803e3d6000fd5b505050506040513d601f19601f82011682018060405250810190610eef9190614eca565b6001600160a01b031614604051806040016040528060018152602001603360f81b81525090610f315760405162461bcd60e51b81526004016109839190615652565b5060006012600084815260200190815260200160002090504381600201541060405180604001604052806002815260200161035360f41b81525090610f895760405162461bcd60e51b81526004016109839190615652565b5060018101546000610f99611745565b90506000610fa783836143d5565b9050610fb2826142cd565b811115604051806040016040528060028152602001611a1b60f11b81525090610fee5760405162461bcd60e51b81526004016109839190615652565b50600054611006906001600160a01b031633836142dd565b611010818461434e565b600154604051630852cd8d60e31b8152600481018890526001600160a01b03909116906342966c6890602401600060405180830381600087803b15801561105657600080fd5b505af115801561106a573d6000803e3d6000fd5b5050506000878152601260205260408120818155600181018290556002908101919091559050336001600160a01b031687600080516020615ae2833981519152846000886000600c54898b610e499190615994565b60008181526011602090815260409182902082516101008101845281546001600160701b0380821680845261ffff600160701b80850482168689015263ffffffff600160801b86048116878b0152600160a01b860481166060880152600160c01b860481166080880152600160e01b90950490941660a086015260019095015491821660c085015291900490921660e082015283518085019094526002845261068760f31b9284019290925290919061118b5760405162461bcd60e51b81526004016109839190615652565b506002546040516331a9108f60e11b8152600481018490526000916001600160a01b031690636352211e9060240160206040518083038186803b1580156111d157600080fd5b505afa1580156111e5573d6000803e3d6000fd5b505050506040513d601f19601f820116820180604052508101906112099190614eca565b905060004290508063ffffffff16836080015163ffffffff1610806112365750336001600160a01b038316145b60405180604001604052806002815260200161353360f01b8152509061126f5760405162461bcd60e51b81526004016109839190615652565b508063ffffffff168360a0015163ffffffff1610806112965750336001600160a01b038316145b806112ab57506005546001600160a01b031633145b604051806040016040528060028152602001610d4d60f21b815250906112e45760405162461bcd60e51b81526004016109839190615652565b50600354600160c01b900460ff1661131b5782600001516001600160701b0316600a60008282546113159190615994565b90915550505b6014836020015161ffff168154811061134457634e487b7160e01b600052603260045260246000fd5b9060005260206000200160009054906101000a90046001600160a01b03166001600160a01b0316336001600160a01b0316857fe8c3d212180d23288b990f9938fef98c64caec34bc128fccea9f7eea006ba73886600001518760c0015160088960e0015161ffff16815481106113ca57634e487b7160e01b600052603260045260246000fd5b6000918252602090912001546001600160a01b03166113e7611745565b600a54604080516001600160701b0396871681529490951660208501526001600160a01b0392909216838501526060830152608082015290519081900360a00190a4600254604051633f34d4cf60e21b8152600481018690523360248201526001600160a01b039091169063fcd3533c90604401600060405180830381600087803b15801561147557600080fd5b505af1158015611489573d6000803e3d6000fd5b50505060009485525050601160205250506040812090815560010180546001600160801b0319169055565b336114bd612319565b6001600160a01b031614604051806040016040528060018152602001603360f81b815250906114ff5760405162461bcd60e51b81526004016109839190615652565b5061150f600a600360401b6158e8565b82111560405180604001604052806002815260200161373760f01b8152509061154b5760405162461bcd60e51b81526004016109839190615652565b5060408051808201909152600281526106e760f31b6020820152600160401b82111561158a5760405162461bcd60e51b81526004016109839190615652565b50600e829055600d8190556040805183815260208101839052600080516020615b4283398151915291015b60405180910390a15050565b336115ca612319565b6001600160a01b031614604051806040016040528060018152602001603360f81b8152509061160c5760405162461bcd60e51b81526004016109839190615652565b506006805461ffff60e01b1916600160e01b61ffff841690810291909117909155604051908152600080516020615b8283398151915290602001610a07565b600354604080518082019091526002815261373560f01b602082015290600160c01b900460ff16156116905760405162461bcd60e51b81526004016109839190615652565b503361169a612319565b6001600160a01b031614604051806040016040528060018152602001603360f81b815250906116dc5760405162461bcd60e51b81526004016109839190615652565b5060038054600160c01b60ff60c01b199091161790556000600a819055600b8054600160701b81046001600160701b03166001600160701b03199091161790556040517f6f6348718c9a361558c634b516777b2b06bb2bf4140ad3d3bfaa44270fc2c0729190a1565b600061174f6143e5565b6001600160701b031660095461176591906158b1565b905090565b600c54600354600654600954600a54600b54600f805460609788976000978897889788978897889788978897889788979496601096939563ffffffff600160a01b94859004811696948404811695600160c01b850482169561ffff600160e01b9687900416959394936001600160701b0380841694600160701b8504909116939190910416908c906117fb906159d7565b80601f0160208091040260200160405190810160405280929190818152602001828054611827906159d7565b80156118745780601f1061184957610100808354040283529160200191611874565b820191906000526020600020905b81548152906001019060200180831161185757829003601f168201915b50505050509b508a8054611887906159d7565b80601f01602080910402602001604051908101604052809291908181526020018280546118b3906159d7565b80156119005780601f106118d557610100808354040283529160200191611900565b820191906000526020600020905b8154815290600101906020018083116118e357829003601f168201915b50505050509a509b509b509b509b509b509b509b509b509b509b509b509b50909192939495969798999a9b565b33611936612319565b6001600160a01b031614604051806040016040528060018152602001603360f81b815250906119785760405162461bcd60e51b81526004016109839190615652565b50604080518082019091526002815261363160f01b60208201526001600160a01b0382166119b95760405162461bcd60e51b81526004016109839190615652565b50600580546001600160a01b0319166001600160a01b038316179055604051600080516020615c2283398151915290610a07908390615522565b600f8054611a00906159d7565b6040805180820190915260018152601960f91b6020820152915015611a385760405162461bcd60e51b81526004016109839190615652565b50600087511160405180604001604052806002815260200161383160f01b81525090611a775760405162461bcd60e51b81526004016109839190615652565b50611a8181613942565b81600080516020615b6283398151915280546001600160a01b03929092166001600160a01b031992831617905560038054909116331790558651611acc90600f9060208a0190614cae565b50611ad960108787614d32565b5060068054600480546001600160a01b03199081166001600160a01b03888116919091179092556005805492861692909116821790556003805463ffffffff60a01b191661127560a71b179055600165ffff0000000160c01b0319909116600160e01b61ffff8816026001600160c01b03191617176102a360a61b1763ffffffff60c01b19166102a360c71b179055611b776064600560401b6158e8565b600e55611b89600a600360401b6158e8565b600d55604051600080516020615ac283398151915290611bac9088908890615623565b60405180910390a1600654604051600160e01b90910461ffff168152600080516020615b828339815191529060200160405180910390a1600454604051600080516020615bc283398151915291611c0e916001600160a01b0390911690615522565b60405180910390a1600654604051600080516020615ca283398151915291611c41916001600160a01b0390911690615522565b60405180910390a1600554604051600080516020615c2283398151915291611c74916001600160a01b0390911690615522565b60405180910390a1600080516020615ba2833981519152600360149054906101000a900463ffffffff16604051611cab919061581e565b60405180910390a1600080516020615b22833981519152600660149054906101000a900463ffffffff16604051611ce2919061581e565b60405180910390a1600080516020615c42833981519152600660189054906101000a900463ffffffff16604051611d19919061581e565b60405180910390a1600080516020615b42833981519152600e54600d54604051611d4d929190918252602082015260400190565b60405180910390a150505050505050565b33611d67612319565b6001600160a01b031614604051806040016040528060018152602001603360f81b81525090611da95760405162461bcd60e51b81526004016109839190615652565b50604080518082019091526002815261383360f01b60208201526001600160a01b038816611dea5760405162461bcd60e51b81526004016109839190615652565b50600380546001600160a01b0319166001600160a01b0389161790556000611e106122f8565b90506001600160a01b03871615611e825760405163266a23b160e21b81526001600160a01b038216906399a88ec490611e4f9030908b90600401615609565b600060405180830381600087803b158015611e6957600080fd5b505af1158015611e7d573d6000803e3d6000fd5b505050505b6001600160a01b03861615611ef85760025460405163266a23b160e21b81526001600160a01b03838116926399a88ec492611ec592909116908a90600401615609565b600060405180830381600087803b158015611edf57600080fd5b505af1158015611ef3573d6000803e3d6000fd5b505050505b6001600160a01b03851615611f6e5760015460405163266a23b160e21b81526001600160a01b03838116926399a88ec492611f3b92909116908990600401615609565b600060405180830381600087803b158015611f5557600080fd5b505af1158015611f69573d6000803e3d6000fd5b505050505b6001600160a01b038416156120c15760005b828110156120bf5760136000858584818110611fac57634e487b7160e01b600052603260045260246000fd5b9050602002016020810190611fc19190614eae565b6001600160a01b03168152602080820192909252604090810160002054815180830190925260018252601b60f91b928201929092529060ff166120175760405162461bcd60e51b81526004016109839190615652565b50816001600160a01b03166399a88ec485858481811061204757634e487b7160e01b600052603260045260246000fd5b905060200201602081019061205c9190614eae565b876040518363ffffffff1660e01b815260040161207a929190615609565b600060405180830381600087803b15801561209457600080fd5b505af11580156120a8573d6000803e3d6000fd5b5050505080806120b790615a12565b915050611f80565b505b5050505050505050565b336120d4612319565b6001600160a01b031614604051806040016040528060018152602001603360f81b815250906121165760405162461bcd60e51b81526004016109839190615652565b506006546040805180820190915260028152610d8d60f21b60208201529063ffffffff600160c01b909104811690831611156121655760405162461bcd60e51b81526004016109839190615652565b506006805463ffffffff60a01b1916600160a01b63ffffffff841602179055604051600080516020615b2283398151915290610a0790839061581e565b600354604080518082019091526002815261373560f01b6020820152600091600160c01b900460ff16156121e95760405162461bcd60e51b81526004016109839190615652565b506001600160a01b03851660009081526013602090815260409182902054825180840190935260018352601b60f91b9183019190915260ff1661223f5760405162461bcd60e51b81526004016109839190615652565b506000806000876001600160a01b031663ff1fb8868888886040518463ffffffff1660e01b815260040161227593929190615573565b60606040518083038186803b15801561228d57600080fd5b505afa1580156122a1573d6000803e3d6000fd5b505050506040513d601f19601f820116820180604052508101906122c59190615354565b91945092509050806122d78385615886565b6122e19190615886565b6001600160701b031693505050505b949350505050565b6000600080516020615b628339815191525b546001600160a01b0316919050565b6000600080516020615b0283398151915261230a565b600354604080518082019091526002815261373560f01b602082015290600160c01b900460ff16156123745760405162461bcd60e51b81526004016109839190615652565b506040805180820190915260028152611b9b60f11b60208201526001600160701b0384166123b55760405162461bcd60e51b81526004016109839190615652565b506001600160a01b03851660009081526013602090815260409182902054825180840190935260018352601b60f91b9183019190915260ff1661240b5760405162461bcd60e51b81526004016109839190615652565b5061241461357d565b836001600160701b03161115604051806040016040528060028152602001611a1b60f11b815250906124595760405162461bcd60e51b81526004016109839190615652565b506000806000876001600160a01b031663ff1fb8868888886040518463ffffffff1660e01b815260040161248f93929190615573565b60606040518083038186803b1580156124a757600080fd5b505afa1580156124bb573d6000803e3d6000fd5b505050506040513d601f19601f820116820180604052508101906124df9190615354565b9194509250905060006124f28385615886565b6001600160701b0316905084826001600160701b03168261251391906158b1565b111560405180604001604052806002815260200161343760f01b8152509061254e5760405162461bcd60e51b81526004016109839190615652565b506125648882856001600160701b03168761444d565b600254612589906001600160a01b038a8116913391166001600160701b0386166145e9565b866001600160701b0316600a60008282546125a491906158b1565b90915550600091506125b8905086426158c9565b6006549091506000906125d890600160a01b900463ffffffff16836158c9565b6006549091506000906125f890600160c01b900463ffffffff16846158c9565b90506000600260009054906101000a90046001600160a01b03166001600160a01b031663caa0f92a6040518163ffffffff1660e01b8152600401602060405180830381600087803b15801561264c57600080fd5b505af1158015612660573d6000803e3d6000fd5b505050506040513d601f19601f8201168201806040525081019061268491906153e5565b90506040518061010001604052808b6001600160701b031681526020018d6001600160a01b03166381045ead6040518163ffffffff1660e01b815260040160206040518083038186803b1580156126da57600080fd5b505afa1580156126ee573d6000803e3d6000fd5b505050506040513d601f19601f8201168201806040525081019061271291906153b1565b61ffff1681526020014263ffffffff1681526020018563ffffffff1681526020018463ffffffff1681526020018363ffffffff168152602001866001600160701b031681526020016127638d610724565b61ffff9081169091526000838152601160209081526040918290208451815492860151868501516060880151608089015160a08a01516001600160701b039586166001600160801b031998891617600160701b958b16860217600160801b600160c01b031916600160801b63ffffffff9586160263ffffffff60a01b191617600160a01b93851693909302929092176001600160c01b0316600160c01b918416919091026001600160e01b031617600160e01b929091169190910217835560c08701516001909301805460e0909801519390921696909316959095179316029190911790915560025490516335313c2160e11b815282916001600160a01b031690636a62784290612878903390600401615522565b602060405180830381600087803b15801561289257600080fd5b505af11580156128a6573d6000803e3d6000fd5b505050506040513d601f19601f820116820180604052508101906128ca91906153e5565b146128e557634e487b7160e01b600052600160045260246000fd5b604051635a85946560e01b8152600481018290526001600160a01b038d1690635a85946590602401600060405180830381600087803b15801561292757600080fd5b505af115801561293b573d6000803e3d6000fd5b505050508b6001600160a01b0316336001600160a01b0316827f59dee24cee42a5fd3c1be706cc8906676ac6950d523c17fa522275c74e7b9c758e8e8c8c8c428d8d8d612986611745565b600a54604080516001600160a01b03909c168c526001600160701b039a8b1660208d0152988a16988b019890985295881660608a015296909316608088015263ffffffff91821660a0880152811660c087015290811660e08601529092166101008401526101208301919091526101408201526101600160405180910390a4505050505050505050505050565b600280546040805180820190915291825261333960f01b60208301526001600160a01b03163314612a575760405162461bcd60e51b81526004016109839190615652565b5060008181526011602090815260409182902082516101008101845281546001600160701b0380821680845261ffff600160701b80850482168689015263ffffffff600160801b86048116878b0152600160a01b860481166060880152600160c01b860481166080880152600160e01b90950490941660a086015260019095015491821660c085015291900490921660e082015283518085019094526002845261068760f31b92840192909252909190612b245760405162461bcd60e51b81526004016109839190615652565b50606081015160208201516014805463ffffffff9093164211926001600160a01b0388811615939088161592600092909161ffff16908110612b7657634e487b7160e01b600052603260045260246000fd5b6000918252602090912001546001600160a01b031690508115612bf857845160405163079cc67960e41b81526001600160a01b038316916379cc679091612bc1918c91600401615551565b600060405180830381600087803b158015612bdb57600080fd5b505af1158015612bef573d6000803e3d6000fd5b505050506120c1565b8215612c2c5784516040516340c10f1960e01b81526001600160a01b038316916340c10f1991612bc1918b91600401615551565b83612ccd5784516040516333bebb7760e01b81526001600160a01b038a8116600483015289811660248301526001600160701b039092166044820152908216906333bebb7790606401602060405180830381600087803b158015612c8f57600080fd5b505af1158015612ca3573d6000803e3d6000fd5b505050506040513d601f19601f82011682018060405250810190612cc791906150ad565b506120c1565b60408051808201825260028152611a9960f11b6020820152905162461bcd60e51b81526109839190600401615652565b33612d06612319565b6001600160a01b031614604051806040016040528060018152602001603360f81b81525090612d485760405162461bcd60e51b81526004016109839190615652565b50600354604080518082019091526002815261373560f01b602082015290600160c01b900460ff1615612d8e5760405162461bcd60e51b81526004016109839190615652565b50604080518082019091526002815261034360f41b60208201526001600160a01b038716612dcf5760405162461bcd60e51b81526004016109839190615652565b50601454604080518082019091526002815261343160f01b60208201529061ffff11612e0e5760405162461bcd60e51b81526004016109839190615652565b506003546000906001600160a01b031663c31011cc612e2b6122f8565b6040518263ffffffff1660e01b8152600401612e479190615522565b602060405180830381600087803b158015612e6157600080fd5b505af1158015612e75573d6000803e3d6000fd5b505050506040513d601f19601f82011682018060405250810190612e999190614eca565b905060008060009054906101000a90046001600160a01b03166001600160a01b03166395d89b416040518163ffffffff1660e01b815260040160006040518083038186803b158015612eea57600080fd5b505afa158015612efe573d6000803e3d6000fd5b505050506040513d6000823e601f3d908101601f19168201604052612f269190810190615152565b90506000818c604051602001612f3d9291906154e6565b6040516020818303038152906040529050826001600160a01b0316631624f6c68e8360008054906101000a90046001600160a01b03166001600160a01b031663313ce5676040518163ffffffff1660e01b815260040160206040518083038186803b158015612fab57600080fd5b505afa158015612fbf573d6000803e3d6000fd5b505050506040513d601f19601f82011682018060405250810190612fe3919061547d565b6040518463ffffffff1660e01b815260040161300193929190615708565b600060405180830381600087803b15801561301b57600080fd5b505af115801561302f573d6000803e3d6000fd5b5050601454604051633a455d8160e11b81523060048201526001600160701b038e1660248201526001600160601b038916604482015263ffffffff8f16606482015261ffff90911660848201526001600160a01b038c811660a48301528616945063748abb02935060c40191506130a39050565b600060405180830381600087803b1580156130bd57600080fd5b505af11580156130d1573d6000803e3d6000fd5b50506040516319f17cdd60e21b815263ffffffff80891660048301528716602482015261ffff8916604482015284151560648201526001600160a01b03841692506367c5f3749150608401600060405180830381600087803b15801561313657600080fd5b505af115801561314a573d6000803e3d6000fd5b50506014805460018082019092557fce6d7b5282bd9a3661ae061feed1dbda4e52ab073b1f9285be6e155d9c38d4ec0180546001600160a01b0319166001600160a01b038616908117909155600081815260136020526040808220805460ff191690941790935591519093507f2fa31fbaacf5eaf61d648ea7528ada6efb69bfb06d2c3bd35ce511a820fce53e9250a25050505050505050505050565b336131f0612319565b6001600160a01b031614604051806040016040528060018152602001603360f81b815250906132325760405162461bcd60e51b81526004016109839190615652565b506001600160a01b03811660009081526007602090815260409182902054825180840190935260028352611b9960f11b91830191909152600190810b900b61328d5760405162461bcd60e51b81526004016109839190615652565b506001600160a01b038116600090815260076020526040812054600190810b900b131561332a576001600160a01b0381166000908152600760205260409020546132d99060010b615a2d565b6001600160a01b038216600090815260076020526040808220805460019490940b61ffff1661ffff19909416939093179092559051600080516020615c6283398151915291610a0791849190615536565b50565b33613336612319565b6001600160a01b031614604051806040016040528060018152602001603360f81b815250906133785760405162461bcd60e51b81526004016109839190615652565b5061338560108383614d32565b50600080516020615ac283398151915282826040516115b5929190615623565b600354604080518082019091526002815261373560f01b602082015290600160c01b900460ff16156133ea5760405162461bcd60e51b81526004016109839190615652565b50600054613403906001600160a01b03163330846145e9565b600061340d611745565b90506000600c5460001461342a576134258383614333565b61342c565b825b90506134388382614627565b6001546040516335313c2160e11b81526000916001600160a01b031690636a62784290613469903390600401615522565b602060405180830381600087803b15801561348357600080fd5b505af1158015613497573d6000803e3d6000fd5b505050506040513d601f19601f820116820180604052508101906134bb91906153e5565b60408051606081018252868152602080820186815243838501908152600086815260129093529390912091518255516001808301919091559151600290910155909150336001600160a01b031682600080516020615ae283398151915287888788600c548c8c61352b91906158b1565b600a5460405161354197969594939291906157ee565b60405180910390a450505050565b6000818152601260205260408120600181015481546135769190613571611745565b61429b565b9392505050565b6000600a5461358a611745565b6117659190615994565b3361359d612319565b6001600160a01b031614604051806040016040528060018152602001603360f81b815250906135df5760405162461bcd60e51b81526004016109839190615652565b50604080518082019091526002815261363360f01b60208201526001600160a01b0382166136205760405162461bcd60e51b81526004016109839190615652565b50600480546001600160a01b0319166001600160a01b038316179055604051600080516020615bc283398151915290610a07908390615522565b606060148054806020026020016040519081016040528092919081815260200182805480156107d957602002820191906000526020600020905b81546001600160a01b03168152600190910190602001808311613694575050505050905090565b600354604080518082019091526002815261373560f01b602082015290600160c01b900460ff16156137005760405162461bcd60e51b81526004016109839190615652565b506001546040516331a9108f60e11b815260048101849052839133916001600160a01b0390911690636352211e9060240160206040518083038186803b15801561374957600080fd5b505afa15801561375d573d6000803e3d6000fd5b505050506040513d601f19601f820116820180604052508101906137819190614eca565b6001600160a01b031614604051806040016040528060018152602001603360f81b815250906137c35760405162461bcd60e51b81526004016109839190615652565b506000546137dc906001600160a01b03163330856145e9565b60006137e6611745565b90506000600c54600014613803576137fe8483614333565b613805565b835b90506138118482614627565b6000858152601260205260408120805490919061382f9087906158b1565b9050600083836001015461384391906158b1565b8284556001840181905543600285015590506003336001600160a01b031689600080516020615ae28339815191528a868987600c548f8e61388491906158b1565b600a5460405161389a97969594939291906157ee565b60405180910390a45050505050505050565b336138b5612319565b6001600160a01b031614604051806040016040528060018152602001603360f81b815250906138f75760405162461bcd60e51b81526004016109839190615652565b50604080518082019091526002815261373160f01b60208201526001600160a01b0382166139385760405162461bcd60e51b81526004016109839190615652565b5061332a81614675565b600061394c612319565b6001600160a01b031614604051806040016040528060018152602001601960f91b8152509061398e5760405162461bcd60e51b81526004016109839190615652565b50604080518082019091526002815261373360f01b60208201526001600160a01b0382166139cf5760405162461bcd60e51b81526004016109839190615652565b50600080516020615b0283398151915280546001600160a01b0319166001600160a01b038316908117909155604051600090600080516020615c02833981519152908290a350565b600354604080518082019091526002815261373560f01b602082015290600160c01b900460ff1615613a5c5760405162461bcd60e51b81526004016109839190615652565b50600084815260116020908152604091829020805483518085019094526002845261068760f31b9284019290925291906001600160701b0316613ab25760405162461bcd60e51b81526004016109839190615652565b50805460148054600092600160701b900461ffff16908110613ae457634e487b7160e01b600052603260045260246000fd5b60009182526020909120015482546001600160a01b0390911691504290613b19908690600160a01b900463ffffffff166158c9565b63ffffffff16101560405180604001604052806002815260200161343960f01b81525090613b5a5760405162461bcd60e51b81526004016109839190615652565b50600a548254613b73906001600160701b031682615994565b600a5582546040516001627023bd60e11b0319815260009182916001600160a01b0386169163ff1fb88691613bba918c916001600160701b03909116908c90600401615573565b60606040518083038186803b158015613bd257600080fd5b505afa158015613be6573d6000803e3d6000fd5b505050506040513d601f19601f82011682018060405250810190613c0a9190615354565b50600a85905590925090506000613c218284615886565b6001600160701b031690508681111560405180604001604052806002815260200161343760f01b81525090613c695760405162461bcd60e51b81526004016109839190615652565b50613c7f8982846001600160701b03168661444d565b8554600090613c9c908a90600160a01b900463ffffffff166158c9565b600654909150600090613cbc90600160a01b900463ffffffff16836158c9565b600654909150600090613cdc90600160c01b900463ffffffff16846158c9565b8954600160a01b600160e01b031916600160a01b63ffffffff8681169190910263ffffffff60c01b191691909117600160c01b85831602176001600160e01b0316600160e01b91831691909102178a55604051635a85946560e01b8152600481018f90529091506001600160a01b03891690635a85946590602401600060405180830381600087803b158015613d7157600080fd5b505af1158015613d85573d6000803e3d6000fd5b50505050336001600160a01b03168d7f012ee01e680dee236f33567d88889822f7521f77a65adc92142abf5a2005d3ef8e8989888888604051613e10969594939291906001600160a01b039690961686526001600160701b03948516602087015292909316604085015263ffffffff908116606085015291821660808401521660a082015260c00190565b60405180910390a350505050505050505050505050565b33613e30612319565b6001600160a01b031614604051806040016040528060018152602001603360f81b81525090613e725760405162461bcd60e51b81526004016109839190615652565b50600654604080518082019091526002815261363560f01b60208201529063ffffffff808416600160a01b909204161115613ec05760405162461bcd60e51b81526004016109839190615652565b506006805463ffffffff60c01b1916600160c01b63ffffffff841602179055604051600080516020615c4283398151915290610a0790839061581e565b600060088281548110613f2057634e487b7160e01b600052603260045260246000fd5b6000918252602090912001546001600160a01b031692915050565b613f5f60405180606001604052806000815260200160008152602001600081525090565b6001546040516331a9108f60e11b8152600481018490526001600160a01b0390911690636352211e9060240160206040518083038186803b158015613fa357600080fd5b505afa158015613fb7573d6000803e3d6000fd5b505050506040513d601f19601f82011682018060405250810190613fdb9190614eca565b5050600090815260126020908152604091829020825160608101845281548152600182015492810192909252600201549181019190915290565b6000546040805180820190915260018152601960f91b6020820152906001600160a01b0316156140585760405162461bcd60e51b81526004016109839190615652565b506040805180820190915260018152603560f81b60208201526001600160a01b0384166140985760405162461bcd60e51b81526004016109839190615652565b50600080546001600160a01b038086166001600160a01b0319928316179092556001805485841690831617905560028054928416929091169190911790556140df83614675565b505050565b336140ed612319565b6001600160a01b031614604051806040016040528060018152602001603360f81b8152509061412f5760405162461bcd60e51b81526004016109839190615652565b50604080518082019091526002815261373360f01b60208201526001600160a01b0382166141705760405162461bcd60e51b81526004016109839190615652565b50806001600160a01b0316614183612319565b6001600160a01b0316600080516020615c0283398151915260405160405180910390a3600080516020615b0283398151915280546001600160a01b0319166001600160a01b0392909216919091179055565b336141de612319565b6001600160a01b031614604051806040016040528060018152602001603360f81b815250906142205760405162461bcd60e51b81526004016109839190615652565b506040805180820190915260028152611b1b60f11b602082015263ffffffff821661425e5760405162461bcd60e51b81526004016109839190615652565b506003805463ffffffff60a01b1916600160a01b63ffffffff841602179055604051600080516020615ba283398151915290610a0790839061581e565b6000806142a885846143d5565b9050838111156142c1576142bc8482615994565b6142c4565b60005b95945050505050565b6000600a548261074b9190615994565b6140df8363a9059cbb60e01b84846040516024016142fc9291906155a3565b60408051601f198184030181529190526020810180516001600160e01b03166001600160e01b0319909316929092179091526147c0565b60008183600c546143449190615908565b61357691906158e8565b6000600954905081600c60008282546143679190615994565b909155505082811061437b578290036143a9565b6000614385614892565b6001600160701b031690508361439b82846158b1565b6143a59190615994565b9150505b6009819055604051818152600080516020615c82833981519152906020015b60405180910390a1505050565b600c546000906143448484615908565b600b546000906144309063ffffffff600160e01b8204169061441a906001600160701b0380821691600160701b90041661596c565b600354600160a01b900463ffffffff1642614950565b600b546117659190600160701b90046001600160701b031661596c565b6144626001600160a01b0385163330866145e9565b6000546001600160a01b039081169083908390871683146145bd576004805460405163095ea7b360e01b81526001600160a01b03808b169363095ea7b3936144af939216918b91016155a3565b602060405180830381600087803b1580156144c957600080fd5b505af11580156144dd573d6000803e3d6000fd5b505050506040513d601f19601f8201168201806040525081019061450191906150ad565b506004805460405163029b465d60e01b81526001600160a01b038a8116938201939093526024810189905285831660448201526000929091169063029b465d90606401602060405180830381600087803b15801561455e57600080fd5b505af1158015614572573d6000803e3d6000fd5b505050506040513d601f19601f8201168201806040525081019061459691906153e5565b9050866145a38288615908565b6145ad91906158e8565b92506145b98382615994565b9150505b6006546145d7906001600160a01b038581169116846142dd565b6145e081614af1565b50505050505050565b6040516001600160a01b03808516602483015283166044820152606481018290526146219085906323b872dd60e01b906084016142fc565b50505050565b80600c600082825461463991906158b1565b909155505060095460009061464f9084906158b1565b6009819055604051818152909150600080516020615c82833981519152906020016143c8565b6001600160a01b038116600090815260076020526040902054600190810b900b61472b5760088054600181810183557ff3f7a9fe364faab93b216da50a3214154f22a0a2b415b23a84c8169e8b636ee390910180546001600160a01b0385166001600160a01b03199091168117909155915460009283526007602052604092839020805491830b61ffff1661ffff199092169190911790559051600080516020615c6283398151915291610a0791849190615536565b6001600160a01b038116600090815260076020526040812054600190810b900b121561332a576001600160a01b0381166000908152600760205260409020546147769060010b615a2d565b6001600160a01b03821660009081526007602052604090819020805461ffff191661ffff600194850b1617905551600080516020615c6283398151915291610a0791849190615536565b6000614815826040518060400160405280602081526020017f5361666545524332303a206c6f772d6c6576656c2063616c6c206661696c6564815250856001600160a01b0316614ba39092919063ffffffff16565b8051909150156140df578080602001905181019061483391906150ad565b6140df5760405162461bcd60e51b815260206004820152602a60248201527f5361666545524332303a204552433230206f7065726174696f6e20646964206e6044820152691bdd081cdd58d8d9595960b21b6064820152608401610983565b600061489c6143e5565b600b80546001600160701b0319168082559192508291600e906148d0908490600160701b90046001600160701b031661596c565b82546001600160701b039182166101009390930a928302928202191691909117909155600b805463ffffffff4216600160e01b026001600160e01b038216811792839055604051600080516020615be28339815191529550614945949182169282169290921792600160701b900416906157d4565b60405180910390a190565b60008463ffffffff168263ffffffff161015604051806040016040528060018152602001600760fb1b8152509061499a5760405162461bcd60e51b81526004016109839190615652565b5084820391508263ffffffff168263ffffffff16816149c957634e487b7160e01b600052601260045260246000fd5b0463ffffffff16846001600160701b0316901c93508263ffffffff168263ffffffff1681614a0757634e487b7160e01b600052601260045260246000fd5b06915063ffffffff82161580614a2457506001600160701b038416155b15614a305750826122f0565b60006001600160701b0385168163ffffffff86811690861671b17217f7d1cf79abc9e3b39803f2f6af40f30281614a7757634e487b7160e01b600052601260045260246000fd5b049050600160901b5b8215614ae457928201928082840281614aa957634e487b7160e01b600052601260045260246000fd5b0493849003939250600160901b018082840281614ad657634e487b7160e01b600052601260045260246000fd5b049250600160901b01614a80565b5091979650505050505050565b614af96143e5565b600b80546001600160701b0319166001600160701b03928316178082558392600e91614b2e918591600160701b900416615886565b82546001600160701b039182166101009390930a928302928202191691909117909155600b805463ffffffff4216600160e01b026001600160e01b038216811792839055604051600080516020615be28339815191529550610a07949182169282169290921792600160701b900416906157d4565b60606122f0848460008585843b614bfc5760405162461bcd60e51b815260206004820152601d60248201527f416464726573733a2063616c6c20746f206e6f6e2d636f6e74726163740000006044820152606401610983565b600080866001600160a01b03168587604051614c1891906154ca565b60006040518083038185875af1925050503d8060008114614c55576040519150601f19603f3d011682016040523d82523d6000602084013e614c5a565b606091505b5091509150614c6a828286614c75565b979650505050505050565b60608315614c84575081613576565b825115614c945782518084602001fd5b8160405162461bcd60e51b81526004016109839190615652565b828054614cba906159d7565b90600052602060002090601f016020900481019282614cdc5760008555614d22565b82601f10614cf557805160ff1916838001178555614d22565b82800160010185558215614d22579182015b82811115614d22578251825591602001919060010190614d07565b50614d2e929150614da6565b5090565b828054614d3e906159d7565b90600052602060002090601f016020900481019282614d605760008555614d22565b82601f10614d795782800160ff19823516178555614d22565b82800160010185558215614d22579182015b82811115614d22578235825591602001919060010190614d8b565b5b80821115614d2e5760008155600101614da7565b8035614dc681615a79565b919050565b8035614dc681615a8e565b60008083601f840112614de7578182fd5b5081356001600160401b03811115614dfd578182fd5b602083019150836020828501011115614e1557600080fd5b9250929050565b600082601f830112614e2c578081fd5b8135614e3f614e3a8261585f565b61582f565b818152846020838601011115614e53578283fd5b816020850160208301379081016020019190915292915050565b8035614dc681615a9c565b8035614dc681615ab1565b803563ffffffff81168114614dc657600080fd5b80356001600160601b0381168114614dc657600080fd5b600060208284031215614ebf578081fd5b813561357681615a79565b600060208284031215614edb578081fd5b815161357681615a79565b600080600080600080600060c0888a031215614f00578283fd5b8735614f0b81615a79565b96506020880135614f1b81615a79565b95506040880135614f2b81615a79565b94506060880135614f3b81615a79565b93506080880135614f4b81615a79565b925060a08801356001600160401b0380821115614f66578384fd5b818a0191508a601f830112614f79578384fd5b813581811115614f87578485fd5b8b60208260051b8501011115614f9b578485fd5b60208301945080935050505092959891949750929550565b60008060008060808587031215614fc8578384fd5b8435614fd381615a79565b93506020850135614fe381615a79565b92506040850135614ff381615a9c565b915061500160608601614e83565b905092959194509250565b600080600080600060a08688031215615023578283fd5b853561502e81615a79565b9450602086013561503e81615a79565b9350604086013561504e81615a9c565b925061505c60608701614e83565b949793965091946080013592915050565b600080600060608486031215615081578081fd5b833561508c81615a79565b9250602084013561509c81615a79565b929592945050506040919091013590565b6000602082840312156150be578081fd5b815161357681615a8e565b6000806000606084860312156150dd578081fd5b83356150e881615a79565b925060208401356150f881615a79565b9150604084013561510881615a79565b809150509250925092565b60008060208385031215615125578182fd5b82356001600160401b0381111561513a578283fd5b61514685828601614dd6565b90969095509350505050565b600060208284031215615163578081fd5b81516001600160401b03811115615178578182fd5b8201601f81018413615188578182fd5b8051615196614e3a8261585f565b8181528560208385010111156151aa578384fd5b6142c48260208301602086016159ab565b600080600080600080600060c0888a0312156151d5578081fd5b87356001600160401b03808211156151eb578283fd5b6151f78b838c01614e1c565b985060208a013591508082111561520c578283fd5b506152198a828b01614dd6565b909750955050604088013561522d81615ab1565b9350606088013561523d81615a79565b9250608088013561524d81615a79565b915060a088013561525d81615a79565b8091505092959891949750929550565b6000806000806000806000806000806101408b8d03121561528c578384fd5b8a356001600160401b03808211156152a2578586fd5b6152ae8e838f01614e1c565b9b5060208d01359150808211156152c3578586fd5b506152d08d828e01614e1c565b9950506152df60408c01614e83565b97506152ed60608c01614e6d565b96506152fb60808c01614dbb565b955061530960a08c01614e78565b945061531760c08c01614e83565b935061532560e08c01614e83565b92506153346101008c01614e97565b91506153436101208c01614dcb565b90509295989b9194979a5092959850565b600080600060608486031215615368578081fd5b835161537381615a9c565b602085015190935061538481615a9c565b604085015190925061510881615a9c565b6000602082840312156153a6578081fd5b813561357681615ab1565b6000602082840312156153c2578081fd5b815161357681615ab1565b6000602082840312156153de578081fd5b5035919050565b6000602082840312156153f6578081fd5b5051919050565b60008060008060808587031215615412578182fd5b84359350602085013561542481615a79565b925061543260408601614e83565b9396929550929360600135925050565b60008060408385031215615454578182fd5b50508035926020909101359150565b600060208284031215615474578081fd5b61357682614e83565b60006020828403121561548e578081fd5b815160ff81168114613576578182fd5b600081518084526154b68160208601602086016159ab565b601f01601f19169290920160200192915050565b600082516154dc8184602087016159ab565b9190910192915050565b600083516154f88184602088016159ab565b600160fd1b90830190815283516155168160018401602088016159ab565b01600101949350505050565b6001600160a01b0391909116815260200190565b6001600160a01b039290921682521515602082015260400190565b6001600160a01b039290921682526001600160701b0316602082015260400190565b6001600160a01b039390931683526001600160701b0391909116602083015263ffffffff16604082015260600190565b6001600160a01b03929092168252602082015260400190565b6020808252825182820181905260009190848201906040850190845b818110156155fd5783516001600160a01b0316835292840192918401916001016155d8565b50909695505050505050565b6001600160a01b0392831681529116602082015260400190565b60208152816020820152818360408301376000818301604090810191909152601f909201601f19160101919050565b602081526000613576602083018461549e565b6101808152600061567a61018083018f61549e565b828103602084015261568c818f61549e565b604084018e905263ffffffff8d811660608601528c811660808601528b1660a085015261ffff8a1660c085015260e0840189905261010084018890526001600160701b03878116610120860152861661014085015291506156ea9050565b63ffffffff83166101608301529d9c50505050505050505050505050565b60608152600061571b606083018661549e565b828103602084015261572d818661549e565b91505060ff83166040830152949350505050565b81516001600160701b0316815260208083015161ffff169082015260408083015163ffffffff9081169183019190915260608084015182169083015260808084015182169083015260a080840151918216908301526101008201905060c08301516157b760c08401826001600160701b03169052565b5060e08301516157cd60e084018261ffff169052565b5092915050565b6001600160701b0392831681529116602082015260400190565b968752602087019590955260408601939093526060850191909152608084015260a083015260c082015260e00190565b63ffffffff91909116815260200190565b604051601f8201601f191681016001600160401b038111828210171561585757615857615a63565b604052919050565b60006001600160401b0382111561587857615878615a63565b50601f01601f191660200190565b60006001600160701b038281168482168083038211156158a8576158a8615a4d565b01949350505050565b600082198211156158c4576158c4615a4d565b500190565b600063ffffffff8083168185168083038211156158a8576158a8615a4d565b60008261590357634e487b7160e01b81526012600452602481fd5b500490565b600081600019048311821515161561592257615922615a4d565b500290565b60008160010b8360010b82811281617fff190183128115161561594c5761594c615a4d565b81617fff01831381161561596257615962615a4d565b5090039392505050565b60006001600160701b038381169083168181101561598c5761598c615a4d565b039392505050565b6000828210156159a6576159a6615a4d565b500390565b60005b838110156159c65781810151838201526020016159ae565b838111156146215750506000910152565b600181811c908216806159eb57607f821691505b60208210811415615a0c57634e487b7160e01b600052602260045260246000fd5b50919050565b6000600019821415615a2657615a26615a4d565b5060010190565b60008160010b617fff19811415615a4657615a46615a4d565b9003919050565b634e487b7160e01b600052601160045260246000fd5b634e487b7160e01b600052604160045260246000fd5b6001600160a01b038116811461332a57600080fd5b801515811461332a57600080fd5b6001600160701b038116811461332a57600080fd5b61ffff8116811461332a57600080fdfe87cdeaffd8e70903d6ce7cc983fac3b09ca79e83818124c98e47a1d70f8027d603429b4bf882467b990034c9cdcf7d1c4c3f189e62ce27af5e9bd563659fa2864f471908b72bb76dae5bd24599026e7bf3ddb256497722888ffa422f83729ede745abdabfd9615abf44cc5ea5223a16cd377282452510a2de5121d44b8c097f1926b69b9f7735227079a308fce165b111b96e2983e70a86a381ee047675ff39fd1248cccb5fef9131c731321e43e9a924840ffee7dc68c7d1d3e5cb7dedcae0327894f6b9c469a3eddbe98dd0df54563b6437b20982876e0c2cd60c211a156469b2baf1f9580f11e84f351d1ac9c543726f7023ba5d6d278fc487898fac055b6befcd50991bb64333037879282220d78a901bb4809351643f56628af8a4656dfc8dfab451067f726e1077626e126c7f77149630cc1b0056cf60307a289a118298be0079c531659141344cd1fd0a4f28419497f9722a3daafe3b4186f6b6457e07aa9698a01d2094fb8a580e2c72a6fc3f3bfecfd4cbdc457461118c59a6fefe4d076b5bc77c447b04d82e76a12ec958bfe6d48418cce446aaf9ebeb3136638eb92a4dc1fa715a8cafb0cdc060f729eb1dfdddcbc9effbdc8d822cdf5ebcf4907a70de76be90dc9c5d9243b0bc73c3d963ba703a0a396f29134bf5b4e6197c180471e342623158b92281274ef7263e4f9a0e0b748c1c328113afbb58742c1789fa264697066735822122001e41aeee916c9eb602cc63a06ec5aa724e900241efe9e291c55272dbca7b02e64736f6c63430008040033",
  "linkReferences": {},
  "deployedLinkReferences": {}
}