{
  "_format": "hh-sol-artifact-1",
  "contractName": "Enterprise",
  "sourceName": "contracts/Enterprise.sol",
  "abi": [
    {
      "anonymous": false,
      "inputs": [
        {
          "indexed": true,
          "internalType": "address",
          "name": "powerToken",
          "type": "address"
        },
        {
          "indexed": false,
          "internalType": "uint256",
          "name": "tokenId",
          "type": "uint256"
        },
        {
          "indexed": false,
          "internalType": "uint32",
          "name": "from",
          "type": "uint32"
        },
        {
          "indexed": false,
          "internalType": "uint32",
          "name": "to",
          "type": "uint32"
        }
      ],
      "name": "Borrowed",
      "type": "event"
    },
    {
      "anonymous": false,
      "inputs": [
        {
          "indexed": true,
          "internalType": "address",
          "name": "previousOwner",
          "type": "address"
        },
        {
          "indexed": true,
          "internalType": "address",
          "name": "newOwner",
          "type": "address"
        }
      ],
      "name": "OwnershipTransferred",
      "type": "event"
    },
    {
      "anonymous": false,
      "inputs": [
        {
          "indexed": true,
          "internalType": "address",
          "name": "powerToken",
          "type": "address"
        },
        {
          "indexed": false,
          "internalType": "uint32",
          "name": "gapHalvingPeriod",
          "type": "uint32"
        },
        {
          "indexed": false,
          "internalType": "uint112",
          "name": "factor",
          "type": "uint112"
        }
      ],
      "name": "ServiceRegistered",
      "type": "event"
    },
    {
      "inputs": [
        {
          "internalType": "uint256",
          "name": "liquidityAmount",
          "type": "uint256"
        }
      ],
      "name": "addLiquidity",
      "outputs": [],
      "stateMutability": "nonpayable",
      "type": "function"
    },
    {
      "inputs": [
        {
          "internalType": "contract PowerToken",
          "name": "powerToken",
          "type": "address"
        },
        {
          "internalType": "contract IERC20",
          "name": "paymentToken",
          "type": "address"
        },
        {
          "internalType": "uint112",
          "name": "amount",
          "type": "uint112"
        },
        {
          "internalType": "uint32",
          "name": "duration",
          "type": "uint32"
        },
        {
          "internalType": "uint256",
          "name": "maxPayment",
          "type": "uint256"
        }
      ],
      "name": "borrow",
      "outputs": [],
      "stateMutability": "nonpayable",
      "type": "function"
    },
    {
      "inputs": [
        {
          "internalType": "uint256",
          "name": "tokenId",
          "type": "uint256"
        },
        {
          "internalType": "uint256",
          "name": "amount",
          "type": "uint256"
        }
      ],
      "name": "decreaseLiquidity",
      "outputs": [],
      "stateMutability": "nonpayable",
      "type": "function"
    },
    {
      "inputs": [
        {
          "internalType": "address",
          "name": "token",
          "type": "address"
        }
      ],
      "name": "disablePaymentToken",
      "outputs": [],
      "stateMutability": "nonpayable",
      "type": "function"
    },
    {
      "inputs": [
        {
          "internalType": "address",
          "name": "token",
          "type": "address"
        }
      ],
      "name": "enablePaymentToken",
      "outputs": [],
      "stateMutability": "nonpayable",
      "type": "function"
    },
    {
      "inputs": [
        {
          "internalType": "contract PowerToken",
          "name": "powerToken",
          "type": "address"
        },
        {
          "internalType": "contract IERC20",
          "name": "paymentToken",
          "type": "address"
        },
        {
          "internalType": "uint112",
          "name": "amount",
          "type": "uint112"
        },
        {
          "internalType": "uint32",
          "name": "duration",
          "type": "uint32"
        }
      ],
      "name": "estimateLoan",
      "outputs": [
        {
          "internalType": "uint256",
          "name": "",
          "type": "uint256"
        }
      ],
      "stateMutability": "view",
      "type": "function"
    },
    {
      "inputs": [],
      "name": "getAvailableReserve",
      "outputs": [
        {
          "internalType": "uint256",
          "name": "",
          "type": "uint256"
        }
      ],
      "stateMutability": "view",
      "type": "function"
    },
    {
      "inputs": [],
      "name": "getBaseUri",
      "outputs": [
        {
          "internalType": "string",
          "name": "",
          "type": "string"
        }
      ],
      "stateMutability": "view",
      "type": "function"
    },
    {
      "inputs": [],
      "name": "getBondingLambda",
      "outputs": [
        {
          "internalType": "uint256",
          "name": "",
          "type": "uint256"
        }
      ],
      "stateMutability": "view",
      "type": "function"
    },
    {
      "inputs": [],
      "name": "getBorrowToken",
      "outputs": [
        {
          "internalType": "contract IBorrowToken",
          "name": "",
          "type": "address"
        }
      ],
      "stateMutability": "view",
      "type": "function"
    },
    {
      "inputs": [],
      "name": "getBorrowerLoanReturnGracePeriod",
      "outputs": [
        {
          "internalType": "uint32",
          "name": "",
          "type": "uint32"
        }
      ],
      "stateMutability": "view",
      "type": "function"
    },
    {
      "inputs": [],
      "name": "getConverter",
      "outputs": [
        {
          "internalType": "contract IConverter",
          "name": "",
          "type": "address"
        }
      ],
      "stateMutability": "view",
      "type": "function"
    },
    {
      "inputs": [],
      "name": "getEnterpriseCollector",
      "outputs": [
        {
          "internalType": "address",
          "name": "",
          "type": "address"
        }
      ],
      "stateMutability": "view",
      "type": "function"
    },
    {
      "inputs": [],
      "name": "getEnterpriseLoanCollectGracePeriod",
      "outputs": [
        {
          "internalType": "uint32",
          "name": "",
          "type": "uint32"
        }
      ],
      "stateMutability": "view",
      "type": "function"
    },
    {
      "inputs": [],
      "name": "getEnterpriseVault",
      "outputs": [
        {
          "internalType": "address",
          "name": "",
          "type": "address"
        }
      ],
      "stateMutability": "view",
      "type": "function"
    },
    {
      "inputs": [],
      "name": "getGCFeePercent",
      "outputs": [
        {
          "internalType": "uint16",
          "name": "",
          "type": "uint16"
        }
      ],
      "stateMutability": "view",
      "type": "function"
    },
    {
      "inputs": [],
      "name": "getInfo",
      "outputs": [
        {
          "internalType": "string",
          "name": "name",
          "type": "string"
        },
        {
          "internalType": "string",
          "name": "baseUri",
          "type": "string"
        },
        {
          "internalType": "uint256",
          "name": "totalShares",
          "type": "uint256"
        },
        {
          "internalType": "uint32",
          "name": "interestGapHalvingPeriod",
          "type": "uint32"
        },
        {
          "internalType": "uint32",
          "name": "borrowerLoanReturnGracePeriod",
          "type": "uint32"
        },
        {
          "internalType": "uint32",
          "name": "enterpriseLoanCollectGracePeriod",
          "type": "uint32"
        },
        {
          "internalType": "uint16",
          "name": "gcFeePercent",
          "type": "uint16"
        },
        {
          "internalType": "uint256",
          "name": "fixedReserve",
          "type": "uint256"
        },
        {
          "internalType": "uint256",
          "name": "usedReserve",
          "type": "uint256"
        },
        {
          "internalType": "uint112",
          "name": "streamingReserve",
          "type": "uint112"
        },
        {
          "internalType": "uint112",
          "name": "streamingReserveTarget",
          "type": "uint112"
        },
        {
          "internalType": "uint32",
          "name": "streamingReserveUpdated",
          "type": "uint32"
        }
      ],
      "stateMutability": "view",
      "type": "function"
    },
    {
      "inputs": [],
      "name": "getInterestGapHalvingPeriod",
      "outputs": [
        {
          "internalType": "uint32",
          "name": "",
          "type": "uint32"
        }
      ],
      "stateMutability": "view",
      "type": "function"
    },
    {
      "inputs": [],
      "name": "getInterestToken",
      "outputs": [
        {
          "internalType": "contract IInterestToken",
          "name": "",
          "type": "address"
        }
      ],
      "stateMutability": "view",
      "type": "function"
    },
    {
      "inputs": [
        {
          "internalType": "uint256",
          "name": "tokenId",
          "type": "uint256"
        }
      ],
      "name": "getLiquidityInfo",
      "outputs": [
        {
          "components": [
            {
              "internalType": "uint256",
              "name": "amount",
              "type": "uint256"
            },
            {
              "internalType": "uint256",
              "name": "shares",
              "type": "uint256"
            },
            {
              "internalType": "uint256",
              "name": "block",
              "type": "uint256"
            }
          ],
          "internalType": "struct EnterpriseStorage.LiquidityInfo",
          "name": "",
          "type": "tuple"
        }
      ],
      "stateMutability": "view",
      "type": "function"
    },
    {
      "inputs": [],
      "name": "getLiquidityToken",
      "outputs": [
        {
          "internalType": "contract IERC20Metadata",
          "name": "",
          "type": "address"
        }
      ],
      "stateMutability": "view",
      "type": "function"
    },
    {
      "inputs": [
        {
          "internalType": "uint256",
          "name": "tokenId",
          "type": "uint256"
        }
      ],
      "name": "getLoanInfo",
      "outputs": [
        {
          "components": [
            {
              "internalType": "uint112",
              "name": "amount",
              "type": "uint112"
            },
            {
              "internalType": "uint16",
              "name": "powerTokenIndex",
              "type": "uint16"
            },
            {
              "internalType": "uint32",
              "name": "borrowingTime",
              "type": "uint32"
            },
            {
              "internalType": "uint32",
              "name": "maturityTime",
              "type": "uint32"
            },
            {
              "internalType": "uint32",
              "name": "borrowerReturnGraceTime",
              "type": "uint32"
            },
            {
              "internalType": "uint32",
              "name": "enterpriseCollectGraceTime",
              "type": "uint32"
            },
            {
              "internalType": "uint112",
              "name": "gcFee",
              "type": "uint112"
            },
            {
              "internalType": "uint16",
              "name": "gcFeeTokenIndex",
              "type": "uint16"
            }
          ],
          "internalType": "struct EnterpriseStorage.LoanInfo",
          "name": "",
          "type": "tuple"
        }
      ],
      "stateMutability": "view",
      "type": "function"
    },
    {
      "inputs": [
        {
          "internalType": "uint256",
          "name": "tokenId",
          "type": "uint256"
        }
      ],
      "name": "getOwedInterest",
      "outputs": [
        {
          "internalType": "uint256",
          "name": "",
          "type": "uint256"
        }
      ],
      "stateMutability": "view",
      "type": "function"
    },
    {
      "inputs": [],
      "name": "getPowerTokens",
      "outputs": [
        {
          "internalType": "contract PowerToken[]",
          "name": "",
          "type": "address[]"
        }
      ],
      "stateMutability": "view",
      "type": "function"
    },
    {
      "inputs": [],
      "name": "getProxyAdmin",
      "outputs": [
        {
          "internalType": "contract ProxyAdmin",
          "name": "",
          "type": "address"
        }
      ],
      "stateMutability": "view",
      "type": "function"
    },
    {
      "inputs": [],
      "name": "getReserve",
      "outputs": [
        {
          "internalType": "uint256",
          "name": "",
          "type": "uint256"
        }
      ],
      "stateMutability": "view",
      "type": "function"
    },
    {
      "inputs": [],
      "name": "getUsedReserve",
      "outputs": [
        {
          "internalType": "uint256",
          "name": "",
          "type": "uint256"
        }
      ],
      "stateMutability": "view",
      "type": "function"
    },
    {
      "inputs": [
        {
          "internalType": "uint256",
          "name": "tokenId",
          "type": "uint256"
        },
        {
          "internalType": "uint256",
          "name": "amount",
          "type": "uint256"
        }
      ],
      "name": "increaseLiquidity",
      "outputs": [],
      "stateMutability": "nonpayable",
      "type": "function"
    },
    {
      "inputs": [
        {
          "internalType": "string",
          "name": "enterpriseName",
          "type": "string"
        },
        {
          "internalType": "string",
          "name": "baseUri",
          "type": "string"
        },
        {
          "internalType": "uint16",
          "name": "gcFeePercent",
          "type": "uint16"
        },
        {
          "internalType": "contract IConverter",
          "name": "converter",
          "type": "address"
        },
        {
          "internalType": "contract ProxyAdmin",
          "name": "proxyAdmin",
          "type": "address"
        },
        {
          "internalType": "address",
          "name": "owner",
          "type": "address"
        }
      ],
      "name": "initialize",
      "outputs": [],
      "stateMutability": "nonpayable",
      "type": "function"
    },
    {
      "inputs": [
        {
          "internalType": "address",
          "name": "initialOwner",
          "type": "address"
        }
      ],
      "name": "initialize",
      "outputs": [],
      "stateMutability": "nonpayable",
      "type": "function"
    },
    {
      "inputs": [
        {
          "internalType": "contract IERC20Metadata",
          "name": "liquidityToken",
          "type": "address"
        },
        {
          "internalType": "contract IInterestToken",
          "name": "interestToken",
          "type": "address"
        },
        {
          "internalType": "contract IBorrowToken",
          "name": "borrowToken",
          "type": "address"
        }
      ],
      "name": "initializeTokens",
      "outputs": [],
      "stateMutability": "nonpayable",
      "type": "function"
    },
    {
      "inputs": [
        {
          "internalType": "contract PowerToken",
          "name": "powerToken",
          "type": "address"
        }
      ],
      "name": "isRegisteredPowerToken",
      "outputs": [
        {
          "internalType": "bool",
          "name": "",
          "type": "bool"
        }
      ],
      "stateMutability": "view",
      "type": "function"
    },
    {
      "inputs": [
        {
          "internalType": "contract IERC20",
          "name": "token",
          "type": "address"
        }
      ],
      "name": "isSupportedPaymentToken",
      "outputs": [
        {
          "internalType": "bool",
          "name": "",
          "type": "bool"
        }
      ],
      "stateMutability": "view",
      "type": "function"
    },
    {
      "inputs": [
        {
          "internalType": "address",
          "name": "from",
          "type": "address"
        },
        {
          "internalType": "address",
          "name": "to",
          "type": "address"
        },
        {
          "internalType": "uint256",
          "name": "tokenId",
          "type": "uint256"
        }
      ],
      "name": "loanTransfer",
      "outputs": [],
      "stateMutability": "nonpayable",
      "type": "function"
    },
    {
      "inputs": [],
      "name": "owner",
      "outputs": [
        {
          "internalType": "address",
          "name": "",
          "type": "address"
        }
      ],
      "stateMutability": "view",
      "type": "function"
    },
    {
      "inputs": [
        {
          "internalType": "uint256",
          "name": "index",
          "type": "uint256"
        }
      ],
      "name": "paymentToken",
      "outputs": [
        {
          "internalType": "address",
          "name": "",
          "type": "address"
        }
      ],
      "stateMutability": "view",
      "type": "function"
    },
    {
      "inputs": [
        {
          "internalType": "contract IERC20",
          "name": "token",
          "type": "address"
        }
      ],
      "name": "paymentTokenIndex",
      "outputs": [
        {
          "internalType": "int16",
          "name": "",
          "type": "int16"
        }
      ],
      "stateMutability": "view",
      "type": "function"
    },
    {
      "inputs": [
        {
          "internalType": "uint256",
          "name": "tokenId",
          "type": "uint256"
        },
        {
          "internalType": "contract IERC20",
          "name": "paymentToken",
          "type": "address"
        },
        {
          "internalType": "uint32",
          "name": "duration",
          "type": "uint32"
        },
        {
          "internalType": "uint256",
          "name": "maxPayment",
          "type": "uint256"
        }
      ],
      "name": "reborrow",
      "outputs": [],
      "stateMutability": "nonpayable",
      "type": "function"
    },
    {
      "inputs": [
        {
          "internalType": "string",
          "name": "serviceName",
          "type": "string"
        },
        {
          "internalType": "string",
          "name": "symbol",
          "type": "string"
        },
        {
          "internalType": "uint32",
          "name": "gapHalvingPeriod",
          "type": "uint32"
        },
        {
          "internalType": "uint112",
          "name": "baseRate",
          "type": "uint112"
        },
        {
          "internalType": "contract IERC20Metadata",
          "name": "baseToken",
          "type": "address"
        },
        {
          "internalType": "uint16",
          "name": "serviceFeePercent",
          "type": "uint16"
        },
        {
          "internalType": "uint32",
          "name": "minLoanDuration",
          "type": "uint32"
        },
        {
          "internalType": "uint32",
          "name": "maxLoanDuration",
          "type": "uint32"
        },
        {
          "internalType": "uint96",
          "name": "minGCFee",
          "type": "uint96"
        },
        {
          "internalType": "bool",
          "name": "allowsPerpetualTokensForever",
          "type": "bool"
        }
      ],
      "name": "registerService",
      "outputs": [],
      "stateMutability": "nonpayable",
      "type": "function"
    },
    {
      "inputs": [
        {
          "internalType": "uint256",
          "name": "tokenId",
          "type": "uint256"
        }
      ],
      "name": "removeLiquidity",
      "outputs": [],
      "stateMutability": "nonpayable",
      "type": "function"
    },
    {
      "inputs": [
        {
          "internalType": "uint256",
          "name": "tokenId",
          "type": "uint256"
        }
      ],
      "name": "returnLoan",
      "outputs": [],
      "stateMutability": "nonpayable",
      "type": "function"
    },
    {
      "inputs": [
        {
          "internalType": "string",
          "name": "baseUri",
          "type": "string"
        }
      ],
      "name": "setBaseUri",
      "outputs": [],
      "stateMutability": "nonpayable",
      "type": "function"
    },
    {
      "inputs": [
        {
          "internalType": "uint256",
          "name": "lambda",
          "type": "uint256"
        }
      ],
      "name": "setBondingLambda",
      "outputs": [],
      "stateMutability": "nonpayable",
      "type": "function"
    },
    {
      "inputs": [
        {
          "internalType": "uint32",
          "name": "newPeriod",
          "type": "uint32"
        }
      ],
      "name": "setBorrowerLoanReturnGracePeriod",
      "outputs": [],
      "stateMutability": "nonpayable",
      "type": "function"
    },
    {
      "inputs": [
        {
          "internalType": "contract IConverter",
          "name": "newConverter",
          "type": "address"
        }
      ],
      "name": "setConverter",
      "outputs": [],
      "stateMutability": "nonpayable",
      "type": "function"
    },
    {
      "inputs": [
        {
          "internalType": "address",
          "name": "newCollector",
          "type": "address"
        }
      ],
      "name": "setEnterpriseCollector",
      "outputs": [],
      "stateMutability": "nonpayable",
      "type": "function"
    },
    {
      "inputs": [
        {
          "internalType": "uint32",
          "name": "newPeriod",
          "type": "uint32"
        }
      ],
      "name": "setEnterpriseLoanCollectGracePeriod",
      "outputs": [],
      "stateMutability": "nonpayable",
      "type": "function"
    },
    {
      "inputs": [
        {
          "internalType": "address",
          "name": "newVault",
          "type": "address"
        }
      ],
      "name": "setEnterpriseVault",
      "outputs": [],
      "stateMutability": "nonpayable",
      "type": "function"
    },
    {
      "inputs": [
        {
          "internalType": "uint16",
          "name": "newGcFeePercent",
          "type": "uint16"
        }
      ],
      "name": "setGcFeePercent",
      "outputs": [],
      "stateMutability": "nonpayable",
      "type": "function"
    },
    {
      "inputs": [
        {
          "internalType": "uint32",
          "name": "interestGapHalvingPeriod",
          "type": "uint32"
        }
      ],
      "name": "setInterestGapHalvingPeriod",
      "outputs": [],
      "stateMutability": "nonpayable",
      "type": "function"
    },
    {
      "inputs": [],
      "name": "shutdownEnterpriseForever",
      "outputs": [],
      "stateMutability": "nonpayable",
      "type": "function"
    },
    {
      "inputs": [
        {
          "internalType": "address",
          "name": "newOwner",
          "type": "address"
        }
      ],
      "name": "transferOwnership",
      "outputs": [],
      "stateMutability": "nonpayable",
      "type": "function"
    },
    {
      "inputs": [
        {
          "internalType": "address",
          "name": "implementation",
          "type": "address"
        }
      ],
      "name": "upgradeBorrowToken",
      "outputs": [],
      "stateMutability": "nonpayable",
      "type": "function"
    },
    {
      "inputs": [
        {
          "internalType": "address",
          "name": "implementation",
          "type": "address"
        }
      ],
      "name": "upgradeEnterprise",
      "outputs": [],
      "stateMutability": "nonpayable",
      "type": "function"
    },
    {
      "inputs": [
        {
          "internalType": "address",
          "name": "implementation",
          "type": "address"
        }
      ],
      "name": "upgradeInterestToken",
      "outputs": [],
      "stateMutability": "nonpayable",
      "type": "function"
    },
    {
      "inputs": [
        {
          "internalType": "contract PowerToken",
          "name": "powerToken",
          "type": "address"
        },
        {
          "internalType": "address",
          "name": "implementation",
          "type": "address"
        }
      ],
      "name": "upgradePowerToken",
      "outputs": [],
      "stateMutability": "nonpayable",
      "type": "function"
    },
    {
      "inputs": [
        {
          "internalType": "uint256",
          "name": "tokenId",
          "type": "uint256"
        }
      ],
      "name": "withdrawInterest",
      "outputs": [],
      "stateMutability": "nonpayable",
      "type": "function"
    }
  ],
  "bytecode": "0x608060405234801561001057600080fd5b50615420806100206000396000f3fe608060405234801561001057600080fd5b50600436106102925760003560e01c8062ca339b146102975780630714012c146102ac57806308669aab146102d55780630cac36b2146102e85780630e101b60146102fd5780630ea1dc9e1461031d5780632261b07f1461032e578063229304dc1461033f5780632b2f6095146103605780632e365ade146103735780632ef02be3146103865780632fb2067f14610399578063449497ec146103bc5780634741efb3146103cf57806349bd4e89146103d7578063512a53bc146103ea57806351c6590a146103fd57806359bf5d39146104105780635a4598df146104185780635a9b0b891461043657806362c1f38814610456578063644e44df146104695780636815f3371461047a5780636936cc2d1461048d578063696f9c81146104955780637791c42d146104a85780637b024363146104b95780638188d50d146104cc57806389035b61146104e15780638b3240a01461050d5780638c0114b0146105155780638da5cb5b1461052857806390f55edd146105305780639ab71193146105435780639c7aa7f8146105565780639c8f9f2314610569578063a0bcfc7f1461057c578063a0efd1181461058f578063a554b26d146105a4578063aebb5041146105b5578063b19337a4146105bd578063b406bf6d146105d0578063b56de97e146105f1578063b96266fa14610604578063bf3bb1a514610619578063bfd84fb41461062c578063c1fc16d81461063f578063c229478414610652578063c4d66de814610665578063c93d0b9214610678578063df57f2fa14610689578063e1a5fa49146106be578063e9126154146106d1578063ef1f9f39146106e4578063f2fde38b146106f7578063fbac9a551461070a578063fcb2884e14610730575b600080fd5b6102aa6102a53660046149f7565b610738565b005b6102bf6102ba366004614d1b565b61109c565b6040516102cc9190615033565b60405180910390f35b6102aa6102e3366004614d1b565b6111f1565b6102f061137a565b6040516102cc9190614f58565b61031061030b366004614d1b565b61140c565b6040516102cc9190614e4f565b6001546001600160a01b0316610310565b6004546001600160a01b0316610310565b61035261034d36600461499e565b61144a565b6040519081526020016102cc565b6102aa61036e366004614888565b611573565b6102aa610381366004614db1565b61162f565b6102aa610394366004614d1b565b6116f0565b6103ac6103a7366004614888565b611741565b60405190151581526020016102cc565b6102aa6103ca366004614ce3565b611764565b6102aa6117d2565b6102aa6103e5366004614d90565b6118a3565b6102aa6103f83660046148c0565b611a9b565b6102aa61040b366004614d1b565b611d22565b610352611e94565b600354600160a01b900463ffffffff165b6040516102cc91906150e2565b61043e611eb9565b6040516102cc9c9b9a99989796959493929190614f90565b6102aa610464366004614888565b61207c565b6000546001600160a01b0316610310565b6102aa610488366004614b09565b61212b565b600d54610352565b6102aa6104a3366004614d90565b612275565b6006546001600160a01b0316610310565b6102aa6104c7366004614888565b612434565b600654600160a01b900463ffffffff16610429565b6103ac6104ef366004614888565b6001600160a01b031660009081526012602052604090205460ff1690565b6103106124bb565b6102aa610523366004614d4b565b6124dc565b610310612ba2565b6102aa61053e366004614888565b612bb8565b6102aa610551366004614bbb565b612c67565b6102aa610564366004614888565b6130c2565b6102aa610577366004614d1b565b6131e9565b6102aa61058a366004614a58565b613414565b600654600160c01b900463ffffffff16610429565b6005546001600160a01b0316610310565b610352613471565b6102aa6105cb366004614888565b613488565b600654600160e01b900461ffff1660405161ffff90911681526020016102cc565b6102aa6105ff366004614db1565b613537565b61060c6135f7565b6040516102cc9190614e9e565b610352610627366004614d1b565b613658565b6102aa61063a366004614888565b61369d565b6102aa61064d366004614888565b613733565b6102aa610660366004614966565b6137b4565b6102aa610673366004614888565b6138b9565b6002546001600160a01b0316610310565b61069c610697366004614d1b565b61398e565b60408051825181526020808401519082015291810151908201526060016102cc565b6102aa6106cc366004614db1565b613a68565b6102aa6106df366004614d1b565b613b18565b6102aa6106f236600461491c565b613d89565b6102aa610705366004614888565b613e13565b61071d610718366004614888565b613f04565b60405160019190910b81526020016102cc565b600a54610352565b600354604080518082019091526002815261373560f01b602082015290600160c01b900460ff16156107865760405162461bcd60e51b815260040161077d9190614f58565b60405180910390fd5b506001600160a01b03851660009081526012602090815260409182902054825180840190935260018352601b60f91b9183019190915260ff166107dc5760405162461bcd60e51b815260040161077d9190614f58565b506107e684611741565b604051806040016040528060028152602001610d0d60f21b8152509061081f5760405162461bcd60e51b815260040161077d9190614f58565b50604051636e4d898360e01b81526001600160a01b03861690636e4d89839061084c9085906004016150e2565b60206040518083038186803b15801561086457600080fd5b505afa158015610878573d6000803e3d6000fd5b505050506040513d601f19601f8201168201806040525081019061089c9190614900565b60405180604001604052806002815260200161343560f01b815250906108d55760405162461bcd60e51b815260040161077d9190614f58565b506040805180820190915260028152611b9b60f11b60208201526001600160701b0384166109165760405162461bcd60e51b815260040161077d9190614f58565b5061091f613471565b836001600160701b03161115604051806040016040528060028152602001611a1b60f11b815250906109645760405162461bcd60e51b815260040161077d9190614f58565b50600080600080886001600160a01b0316639d5513d78989896040518463ffffffff1660e01b815260040161099b93929190614eeb565b60606040518083038186803b1580156109b357600080fd5b505afa1580156109c7573d6000803e3d6000fd5b505050506040513d601f19601f820116820180604052508101906109eb9190614ca2565b955090935091508390506000610a01838561514a565b6001600160701b0316905085856001600160701b031682610a229190615175565b111560405180604001604052806002815260200161343760f01b81525090610a5d5760405162461bcd60e51b815260040161077d9190614f58565b50610a736001600160a01b038a16333084613f31565b60008190508a6001600160a01b03166398acd7a66040518163ffffffff1660e01b815260040160206040518083038186803b158015610ab157600080fd5b505afa158015610ac5573d6000803e3d6000fd5b505050506040513d601f19601f82011682018060405250810190610ae991906148a4565b6001600160a01b03168a6001600160a01b031614610c33576004805460405163095ea7b360e01b81526001600160a01b03808e169363095ea7b393610b3393921691879101614e85565b602060405180830381600087803b158015610b4d57600080fd5b505af1158015610b61573d6000803e3d6000fd5b505050506040513d601f19601f82011682018060405250810190610b859190614900565b50600460009054906101000a90046001600160a01b03166001600160a01b031663029b465d8b8460008054906101000a90046001600160a01b03166040518463ffffffff1660e01b8152600401610bde93929190614f1b565b602060405180830381600087803b158015610bf857600080fd5b505af1158015610c0c573d6000803e3d6000fd5b505050506040513d601f19601f82011682018060405250810190610c309190614d33565b90505b600082610c49836001600160701b0388166151cc565b610c5391906151ac565b600654600054919250610c73916001600160a01b03908116911683613fa2565b896001600160701b0316600a6000828254610c8e9190615175565b9091555060009050610ca08284615258565b9050610cab81613fc1565b5050600254610cd895506001600160a01b038b81169550339450169150506001600160701b038516613f31565b426000610ce5858361518d565b90506000600260009054906101000a90046001600160a01b03166001600160a01b031663caa0f92a6040518163ffffffff1660e01b8152600401602060405180830381600087803b158015610d3957600080fd5b505af1158015610d4d573d6000803e3d6000fd5b505050506040513d601f19601f82011682018060405250810190610d719190614d33565b9050604051806101000160405280886001600160701b031681526020018a6001600160a01b03166381045ead6040518163ffffffff1660e01b815260040160206040518083038186803b158015610dc757600080fd5b505afa158015610ddb573d6000803e3d6000fd5b505050506040513d601f19601f82011682018060405250810190610dff9190614cff565b61ffff16815263ffffffff80861660208301528481166040830152600654606090920191610e3691600160a01b909104168561518d565b63ffffffff168152602001600660189054906101000a900463ffffffff1684610e5f919061518d565b63ffffffff168152602001856001600160701b03168152602001610e828a613f04565b61ffff9081169091526000838152601060209081526040918290208451815492860151868501516060880151608089015160a08a01516001600160701b039586166001600160801b031998891617600160701b958b16860217600160801b600160c01b031916600160801b63ffffffff9586160263ffffffff60a01b191617600160a01b93851693909302929092176001600160c01b0316600160c01b918416919091026001600160e01b031617600160e01b929091169190910217835560c08701516001909301805460e0909801519390921696909316959095179316029190911790915560025490516335313c2160e11b815282916001600160a01b031690636a62784290610f97903390600401614e4f565b602060405180830381600087803b158015610fb157600080fd5b505af1158015610fc5573d6000803e3d6000fd5b505050506040513d601f19601f82011682018060405250810190610fe99190614d33565b1461100457634e487b7160e01b600052600160045260246000fd5b60405163f8642f2960e01b8152600481018290526001600160a01b038a169063f8642f2990602401600060405180830381600087803b15801561104657600080fd5b505af115801561105a573d6000803e3d6000fd5b50505050886001600160a01b03166000805160206153cb833981519152828585604051611089939291906150c6565b60405180910390a2505050505050505050565b6040805161010081018252600080825260208201819052818301819052606082018190526080820181905260a0820181905260c0820181905260e082015260025491516331a9108f60e11b81526004810184905290916001600160a01b031690636352211e9060240160206040518083038186803b15801561111d57600080fd5b505afa158015611131573d6000803e3d6000fd5b505050506040513d601f19601f8201168201806040525081019061115591906148a4565b505060009081526010602090815260409182902082516101008101845281546001600160701b038082168352600160701b80830461ffff90811696850196909652600160801b830463ffffffff90811697850197909752600160a01b830487166060850152600160c01b830487166080850152600160e01b90920490951660a083015260019092015493841660c082015292041660e082015290565b6001546040516331a9108f60e11b815260048101839052829133916001600160a01b0390911690636352211e9060240160206040518083038186803b15801561123957600080fd5b505afa15801561124d573d6000803e3d6000fd5b505050506040513d601f19601f8201168201806040525081019061127191906148a4565b6001600160a01b031614604051806040016040528060018152602001603360f81b815250906112b35760405162461bcd60e51b815260040161077d9190614f58565b506000828152601160205260408120600181015490916112d285613658565b90506112dc613471565b811115604051806040016040528060028152602001611a1b60f11b815250906113185760405162461bcd60e51b815260040161077d9190614f58565b50600054611330906001600160a01b03163383613fa2565b600061133f8460000154614046565b6001850181905590506113528184615258565b600c60008282546113639190615258565b90915550611372905082614068565b505050505050565b6060600f80546113899061529b565b80601f01602080910402602001604051908101604052809291908181526020018280546113b59061529b565b80156114025780601f106113d757610100808354040283529160200191611402565b820191906000526020600020905b8154815290600101906020018083116113e557829003601f168201915b5050505050905090565b60006008828154811061142f57634e487b7160e01b600052603260045260246000fd5b6000918252602090912001546001600160a01b031692915050565b600354604080518082019091526002815261373560f01b6020820152600091600160c01b900460ff16156114915760405162461bcd60e51b815260040161077d9190614f58565b506001600160a01b03851660009081526012602090815260409182902054825180840190935260018352601b60f91b9183019190915260ff166114e75760405162461bcd60e51b815260040161077d9190614f58565b50604051631466370160e01b81526001600160a01b0386169063146637019061151890879087908790600401614eeb565b60206040518083038186803b15801561153057600080fd5b505afa158015611544573d6000803e3d6000fd5b505050506040513d601f19601f820116820180604052508101906115689190614d33565b90505b949350505050565b3361157c612ba2565b6001600160a01b031614604051806040016040528060018152602001603360f81b815250906115be5760405162461bcd60e51b815260040161077d9190614f58565b506115c76124bb565b60015460405163266a23b160e21b81526001600160a01b03928316926399a88ec4926115fa929116908590600401614f3e565b600060405180830381600087803b15801561161457600080fd5b505af1158015611628573d6000803e3d6000fd5b5050505050565b33611638612ba2565b6001600160a01b031614604051806040016040528060018152602001603360f81b8152509061167a5760405162461bcd60e51b815260040161077d9190614f58565b506006546040805180820190915260028152610d8d60f21b60208201529063ffffffff600160c01b909104811690831611156116c95760405162461bcd60e51b815260040161077d9190614f58565b506006805463ffffffff909216600160a01b0263ffffffff60a01b19909216919091179055565b336116f9612ba2565b6001600160a01b031614604051806040016040528060018152602001603360f81b8152509061173b5760405162461bcd60e51b815260040161077d9190614f58565b50600d55565b6001600160a01b0316600090815260076020526040812054600190810b900b1390565b3361176d612ba2565b6001600160a01b031614604051806040016040528060018152602001603360f81b815250906117af5760405162461bcd60e51b815260040161077d9190614f58565b506006805461ffff909216600160e01b0261ffff60e01b19909216919091179055565b600354604080518082019091526002815261373560f01b602082015290600160c01b900460ff16156118175760405162461bcd60e51b815260040161077d9190614f58565b5033611821612ba2565b6001600160a01b031614604051806040016040528060018152602001603360f81b815250906118635760405162461bcd60e51b815260040161077d9190614f58565b5060038054600160c01b60ff60c01b199091161790556000600a55600b8054600160701b81046001600160701b03166001600160701b0319909116179055565b6001546040516331a9108f60e11b815260048101849052839133916001600160a01b0390911690636352211e9060240160206040518083038186803b1580156118eb57600080fd5b505afa1580156118ff573d6000803e3d6000fd5b505050506040513d601f19601f8201168201806040525081019061192391906148a4565b6001600160a01b031614604051806040016040528060018152602001603360f81b815250906119655760405162461bcd60e51b815260040161077d9190614f58565b5060006011600085815260200190815260200160002090504381600201541060405180604001604052806002815260200161035360f41b815250906119bd5760405162461bcd60e51b815260040161077d9190614f58565b5080546040805180820190915260028152611a1b60f11b6020820152908411156119fa5760405162461bcd60e51b815260040161077d9190614f58565b50611a03613471565b831115604051806040016040528060028152602001611a1b60f11b81525090611a3f5760405162461bcd60e51b815260040161077d9190614f58565b50600054611a57906001600160a01b03163385613fa2565b6000611a6284614046565b90508160010154811115611a77575060018101545b600182018054829003905581548490038255600c8054829003905561162884614068565b600280546040805180820190915291825261333960f01b60208301526001600160a01b03163314611adf5760405162461bcd60e51b815260040161077d9190614f58565b506000818152601060209081526040918290205482518084019093526002835261068760f31b918301919091526001600160701b03169081611b345760405162461bcd60e51b815260040161077d9190614f58565b5060008281526010602052604081205460138054600160a01b830463ffffffff164211936001600160a01b03898116159490891615939192600160701b90910461ffff16908110611b9557634e487b7160e01b600052603260045260246000fd5b6000918252602090912001546001600160a01b031690508115611c175760405163079cc67960e41b81526001600160a01b038216906379cc679090611be0908b908990600401614e63565b600060405180830381600087803b158015611bfa57600080fd5b505af1158015611c0e573d6000803e3d6000fd5b50505050611d18565b8215611c4b576040516340c10f1960e01b81526001600160a01b038216906340c10f1990611be0908a908990600401614e63565b83611ce8576040516333bebb7760e01b81526001600160a01b03898116600483015288811660248301526001600160701b03871660448301528216906333bebb7790606401602060405180830381600087803b158015611caa57600080fd5b505af1158015611cbe573d6000803e3d6000fd5b505050506040513d601f19601f82011682018060405250810190611ce29190614900565b50611d18565b60408051808201825260028152611a9960f11b6020820152905162461bcd60e51b815261077d9190600401614f58565b5050505050505050565b600354604080518082019091526002815261373560f01b602082015290600160c01b900460ff1615611d675760405162461bcd60e51b815260040161077d9190614f58565b50600054611d80906001600160a01b0316333084613f31565b6000600c54600014611d9a57611d9582614046565b611d9c565b815b90508160096000828254611db09190615175565b90915550506001546040516335313c2160e11b81526000916001600160a01b031690636a62784290611de6903390600401614e4f565b602060405180830381600087803b158015611e0057600080fd5b505af1158015611e14573d6000803e3d6000fd5b505050506040513d601f19601f82011682018060405250810190611e389190614d33565b6040805160608101825285815260208082018681524383850190815260008681526011909352938220925183555160018301559151600290910155600c80549293508492909190611e8a908490615175565b9091555050505050565b6000611e9e6140b2565b6001600160701b0316600954611eb49190615175565b905090565b600c54600354600654600954600a54600b54600e805460609788976000978897889788978897889788978897889788979496600f96939563ffffffff600160a01b94859004811696948404811695600160c01b850482169561ffff600160e01b9687900416959394936001600160701b0380841694600160701b8504909116939190910416908c90611f4a9061529b565b80601f0160208091040260200160405190810160405280929190818152602001828054611f769061529b565b8015611fc35780601f10611f9857610100808354040283529160200191611fc3565b820191906000526020600020905b815481529060010190602001808311611fa657829003601f168201915b50505050509b508a8054611fd69061529b565b80601f01602080910402602001604051908101604052809291908181526020018280546120029061529b565b801561204f5780601f106120245761010080835404028352916020019161204f565b820191906000526020600020905b81548152906001019060200180831161203257829003601f168201915b50505050509a509b509b509b509b509b509b509b509b509b509b509b509b50909192939495969798999a9b565b33612085612ba2565b6001600160a01b031614604051806040016040528060018152602001603360f81b815250906120c75760405162461bcd60e51b815260040161077d9190614f58565b50604080518082019091526002815261363160f01b60208201526001600160a01b0382166121085760405162461bcd60e51b815260040161077d9190614f58565b50600580546001600160a01b0319166001600160a01b0392909216919091179055565b600e80546121389061529b565b6040805180820190915260018152601960f91b60208201529150156121705760405162461bcd60e51b815260040161077d9190614f58565b5061217a816138b9565b8160008051602061538b83398151915280546001600160a01b03929092166001600160a01b0319928316179055600380549091163317905586516121c590600e9060208a0190614688565b506121d2600f878761470c565b5060068054600480546001600160a01b03199081166001600160a01b03978816179091556005805494909616931683179094556003805463ffffffff60a01b191660e160a61b179055600165ffff0000000160c01b0319909316600160e01b61ffff95909516949094026001600160c01b031916939093179092176102a360a61b1763ffffffff60c01b19166102a360c71b1790555050600160401b600d555050565b600354604080518082019091526002815261373560f01b602082015290600160c01b900460ff16156122ba5760405162461bcd60e51b815260040161077d9190614f58565b506001546040516331a9108f60e11b815260048101849052839133916001600160a01b0390911690636352211e9060240160206040518083038186803b15801561230357600080fd5b505afa158015612317573d6000803e3d6000fd5b505050506040513d601f19601f8201168201806040525081019061233b91906148a4565b6001600160a01b031614604051806040016040528060018152602001603360f81b8152509061237d5760405162461bcd60e51b815260040161077d9190614f58565b50600054612396906001600160a01b0316333085613f31565b6000600c546000146123b0576123ab83614046565b6123b2565b825b905082600960008282546123c69190615175565b909155505060008481526011602052604081208054909185918391906123ed908490615175565b92505081905550818160010160008282546124089190615175565b9091555050436002820155600c8054839190600090612428908490615175565b90915550505050505050565b3361243d612ba2565b6001600160a01b031614604051806040016040528060018152602001603360f81b8152509061247f5760405162461bcd60e51b815260040161077d9190614f58565b506124886124bb565b60025460405163266a23b160e21b81526001600160a01b03928316926399a88ec4926115fa929116908590600401614f3e565b600060008051602061538b8339815191525b546001600160a01b0316919050565b600354604080518082019091526002815261373560f01b602082015290600160c01b900460ff16156125215760405162461bcd60e51b815260040161077d9190614f58565b5061252b83611741565b604051806040016040528060028152602001610d0d60f21b815250906125645760405162461bcd60e51b815260040161077d9190614f58565b50600084815260106020908152604091829020805483518085019094526002845261068760f31b9284019290925291906001600160701b03166125ba5760405162461bcd60e51b815260040161077d9190614f58565b50805460138054600092600160701b900461ffff169081106125ec57634e487b7160e01b600052603260045260246000fd5b600091825260209091200154604051636e4d898360e01b81526001600160a01b0390911691508190636e4d8983906126289087906004016150e2565b60206040518083038186803b15801561264057600080fd5b505afa158015612654573d6000803e3d6000fd5b505050506040513d601f19601f820116820180604052508101906126789190614900565b60405180604001604052806002815260200161343560f01b815250906126b15760405162461bcd60e51b815260040161077d9190614f58565b50815442906126ce908690600160a01b900463ffffffff1661518d565b63ffffffff16101560405180604001604052806002815260200161343960f01b8152509061270f5760405162461bcd60e51b815260040161077d9190614f58565b508154600a80546001600160701b0390921691600090612730908490615258565b90915550508154604051639d5513d760e01b815260009182916001600160a01b03851691639d5513d791612776918b916001600160701b03909116908b90600401614eeb565b60606040518083038186803b15801561278e57600080fd5b505afa1580156127a2573d6000803e3d6000fd5b505050506040513d601f19601f820116820180604052508101906127c69190614ca2565b508554600a80546001600160701b039092169091019055909250905060006127ee828461514a565b6001600160701b031690508581111560405180604001604052806002815260200161343760f01b815250906128365760405162461bcd60e51b815260040161077d9190614f58565b5061284c6001600160a01b038916333084613f31565b6000819050846001600160a01b03166398acd7a66040518163ffffffff1660e01b815260040160206040518083038186803b15801561288a57600080fd5b505afa15801561289e573d6000803e3d6000fd5b505050506040513d601f19601f820116820180604052508101906128c291906148a4565b6001600160a01b0316896001600160a01b0316146129ed576004805460405163095ea7b360e01b81526001600160a01b03808d169363095ea7b39361290c93921691879101614e85565b602060405180830381600087803b15801561292657600080fd5b505af115801561293a573d6000803e3d6000fd5b505050506040513d601f19601f8201168201806040525081019061295e9190614900565b506004805460005460405163029b465d60e01b81526001600160a01b039283169363029b465d93612998938f938993919092169101614f1b565b602060405180830381600087803b1580156129b257600080fd5b505af11580156129c6573d6000803e3d6000fd5b505050506040513d601f19601f820116820180604052508101906129ea9190614d33565b90505b600082612a03836001600160701b0387166151cc565b612a0d91906151ac565b600654600054919250612a2d916001600160a01b03908116911683613fa2565b6000612a398284615258565b9050612a4481613fc1565b8754600160a01b900463ffffffff16612a5d8b8261518d565b895463ffffffff60a01b1916600160a01b63ffffffff928316810291909117808c55600654612a9693908390048116929091041661518d565b895463ffffffff60c01b1916600160c01b63ffffffff928316810291909117808c55600654612ad393929004821691600160a01b9091041661518d565b895463ffffffff91909116600160e01b026001600160e01b0390911617895560405163f8642f2960e01b8152600481018e90526001600160a01b0389169063f8642f2990602401600060405180830381600087803b158015612b3457600080fd5b505af1158015612b48573d6000803e3d6000fd5b50505050876001600160a01b03166000805160206153cb8339815191528e838c60000160149054906101000a900463ffffffff16604051612b8b939291906150c6565b60405180910390a250505050505050505050505050565b600060008051602061536b8339815191526124cd565b33612bc1612ba2565b6001600160a01b031614604051806040016040528060018152602001603360f81b81525090612c035760405162461bcd60e51b815260040161077d9190614f58565b506040805180820190915260028152611b1960f11b60208201526001600160a01b038216612c445760405162461bcd60e51b815260040161077d9190614f58565b50600680546001600160a01b0319166001600160a01b0392909216919091179055565b33612c70612ba2565b6001600160a01b031614604051806040016040528060018152602001603360f81b81525090612cb25760405162461bcd60e51b815260040161077d9190614f58565b50600354604080518082019091526002815261373560f01b602082015290600160c01b900460ff1615612cf85760405162461bcd60e51b815260040161077d9190614f58565b50604080518082019091526002815261034360f41b60208201526001600160a01b038716612d395760405162461bcd60e51b815260040161077d9190614f58565b50601354604080518082019091526002815261343160f01b60208201529061ffff11612d785760405162461bcd60e51b815260040161077d9190614f58565b506003546000906001600160a01b031663c31011cc612d956124bb565b6040518263ffffffff1660e01b8152600401612db19190614e4f565b602060405180830381600087803b158015612dcb57600080fd5b505af1158015612ddf573d6000803e3d6000fd5b505050506040513d601f19601f82011682018060405250810190612e0391906148a4565b905060008060009054906101000a90046001600160a01b03166001600160a01b03166395d89b416040518163ffffffff1660e01b815260040160006040518083038186803b158015612e5457600080fd5b505afa158015612e68573d6000803e3d6000fd5b505050506040513d6000823e601f3d908101601f19168201604052612e909190810190614a97565b90506000818c604051602001612ea7929190614e13565b6040516020818303038152906040529050826001600160a01b0316634cd88b768e836040518363ffffffff1660e01b8152600401612ee6929190614f6b565b600060405180830381600087803b158015612f0057600080fd5b505af1158015612f14573d6000803e3d6000fd5b505050505050806001600160a01b0316632ef0cf8b308a868d6013805490508d8c8c8f8c6040518b63ffffffff1660e01b8152600401612fd29a999897969594939291906001600160a01b039a8b1681526001600160701b039990991660208a01526001600160601b0397909716604089015263ffffffff958616606089015261ffff94851660808901529290971660a0870152831660c08601529490911660e0840152929092166101008201529015156101208201526101400190565b600060405180830381600087803b158015612fec57600080fd5b505af1158015613000573d6000803e3d6000fd5b50506013805460018082019092557f66de8ffda797e3de9c05e8fc57b3bf0ec28a930d40b0d285d93c06501cf6a0900180546001600160a01b0319166001600160a01b038616908117909155600081815260126020908152604091829020805460ff1916909417909355805163ffffffff8f1681526001600160701b038e16938101939093529093507f18706585e986f622c9d914abfb256d563b9ea274cd5d49124e0518aa314b8c1292500160405180910390a25050505050505050505050565b336130cb612ba2565b6001600160a01b031614604051806040016040528060018152602001603360f81b8152509061310d5760405162461bcd60e51b815260040161077d9190614f58565b506001600160a01b03811660009081526007602090815260409182902054825180840190935260028352611b9960f11b91830191909152600190810b900b6131685760405162461bcd60e51b815260040161077d9190614f58565b506001600160a01b038116600090815260076020526040812054600190810b900b13156131e6576001600160a01b0381166000908152600760205260409020546131b49060010b6152d6565b6001600160a01b0382166000908152600760205260409020805460019290920b61ffff1661ffff199092169190911790555b50565b6001546040516331a9108f60e11b815260048101839052829133916001600160a01b0390911690636352211e9060240160206040518083038186803b15801561323157600080fd5b505afa158015613245573d6000803e3d6000fd5b505050506040513d601f19601f8201168201806040525081019061326991906148a4565b6001600160a01b031614604051806040016040528060018152602001603360f81b815250906132ab5760405162461bcd60e51b815260040161077d9190614f58565b5060006011600084815260200190815260200160002090504381600201541060405180604001604052806002815260200161035360f41b815250906133035760405162461bcd60e51b815260040161077d9190614f58565b50600181015460006133148261411a565b905061331e613471565b811115604051806040016040528060028152602001611a1b60f11b8152509061335a5760405162461bcd60e51b815260040161077d9190614f58565b50600154604051630852cd8d60e31b8152600481018790526001600160a01b03909116906342966c6890602401600060405180830381600087803b1580156133a157600080fd5b505af11580156133b5573d6000803e3d6000fd5b50506000546133d192506001600160a01b031690503383613fa2565b81600c60008282546133e39190615258565b909155506133f2905081614068565b5050506000918252506011602052604081208181556001810182905560020155565b3361341d612ba2565b6001600160a01b031614604051806040016040528060018152602001603360f81b8152509061345f5760405162461bcd60e51b815260040161077d9190614f58565b5061346c600f838361470c565b505050565b6000600a5461347e611e94565b611eb49190615258565b33613491612ba2565b6001600160a01b031614604051806040016040528060018152602001603360f81b815250906134d35760405162461bcd60e51b815260040161077d9190614f58565b50604080518082019091526002815261363360f01b60208201526001600160a01b0382166135145760405162461bcd60e51b815260040161077d9190614f58565b50600480546001600160a01b0319166001600160a01b0392909216919091179055565b33613540612ba2565b6001600160a01b031614604051806040016040528060018152602001603360f81b815250906135825760405162461bcd60e51b815260040161077d9190614f58565b50600654604080518082019091526002815261363560f01b60208201529063ffffffff808416600160a01b9092041611156135d05760405162461bcd60e51b815260040161077d9190614f58565b506006805463ffffffff909216600160c01b0263ffffffff60c01b19909216919091179055565b6060601380548060200260200160405190810160405280929190818152602001828054801561140257602002820191906000526020600020905b81546001600160a01b03168152600190910190602001808311613631575050505050905090565b6000818152601160205260408120600181015482906136769061411a565b825490915081111561369357815461368e9082615258565b61156b565b6000949350505050565b336136a6612ba2565b6001600160a01b031614604051806040016040528060018152602001603360f81b815250906136e85760405162461bcd60e51b815260040161077d9190614f58565b50604080518082019091526002815261373160f01b60208201526001600160a01b0382166137295760405162461bcd60e51b815260040161077d9190614f58565b506131e681614132565b3361373c612ba2565b6001600160a01b031614604051806040016040528060018152602001603360f81b8152509061377e5760405162461bcd60e51b815260040161077d9190614f58565b506137876124bb565b6001600160a01b03166399a88ec430836040518363ffffffff1660e01b81526004016115fa929190614f3e565b336137bd612ba2565b6001600160a01b031614604051806040016040528060018152602001603360f81b815250906137ff5760405162461bcd60e51b815260040161077d9190614f58565b506001600160a01b03821660009081526012602090815260409182902054825180840190935260018352601b60f91b9183019190915260ff166138555760405162461bcd60e51b815260040161077d9190614f58565b5061385e6124bb565b6001600160a01b03166399a88ec483836040518363ffffffff1660e01b815260040161388b929190614f3e565b600060405180830381600087803b1580156138a557600080fd5b505af1158015611372573d6000803e3d6000fd5b60006138c3612ba2565b6001600160a01b031614604051806040016040528060018152602001601960f91b815250906139055760405162461bcd60e51b815260040161077d9190614f58565b50604080518082019091526002815261373360f01b60208201526001600160a01b0382166139465760405162461bcd60e51b815260040161077d9190614f58565b5060008051602061536b83398151915280546001600160a01b0319166001600160a01b0383169081179091556040516000906000805160206153ab833981519152908290a350565b6139b260405180606001604052806000815260200160008152602001600081525090565b6001546040516331a9108f60e11b8152600481018490526001600160a01b0390911690636352211e9060240160206040518083038186803b1580156139f657600080fd5b505afa158015613a0a573d6000803e3d6000fd5b505050506040513d601f19601f82011682018060405250810190613a2e91906148a4565b5050600090815260116020908152604091829020825160608101845281548152600182015492810192909252600201549181019190915290565b33613a71612ba2565b6001600160a01b031614604051806040016040528060018152602001603360f81b81525090613ab35760405162461bcd60e51b815260040161077d9190614f58565b506040805180820190915260028152611b1b60f11b602082015263ffffffff8216613af15760405162461bcd60e51b815260040161077d9190614f58565b506003805463ffffffff909216600160a01b0263ffffffff60a01b19909216919091179055565b600081815260106020908152604091829020805483518085019094526002845261068760f31b9284019290925291906001600160701b0316613b6d5760405162461bcd60e51b815260040161077d9190614f58565b506002546040516331a9108f60e11b8152600481018490526000916001600160a01b031690636352211e9060240160206040518083038186803b158015613bb357600080fd5b505afa158015613bc7573d6000803e3d6000fd5b505050506040513d601f19601f82011682018060405250810190613beb91906148a4565b8254909150429063ffffffff808316600160c01b909204161080613c175750336001600160a01b038316145b60405180604001604052806002815260200161353360f01b81525090613c505760405162461bcd60e51b815260040161077d9190614f58565b50825463ffffffff808316600160e01b909204161080613c785750336001600160a01b038316145b80613c8d57506005546001600160a01b031633145b604051806040016040528060028152602001610d4d60f21b81525090613cc65760405162461bcd60e51b815260040161077d9190614f58565b50600354600160c01b900460ff16613cfe578254600a80546001600160701b0390921691600090613cf8908490615258565b90915550505b600254604051633f34d4cf60e21b8152600481018690523360248201526001600160a01b039091169063fcd3533c90604401600060405180830381600087803b158015613d4a57600080fd5b505af1158015613d5e573d6000803e3d6000fd5b50505060009485525050601060205250506040812090815560010180546001600160801b0319169055565b6000546040805180820190915260018152601960f91b6020820152906001600160a01b031615613dcc5760405162461bcd60e51b815260040161077d9190614f58565b50600080546001600160a01b038086166001600160a01b03199283161790925560018054858416908316179055600280549284169290911691909117905561346c83614132565b33613e1c612ba2565b6001600160a01b031614604051806040016040528060018152602001603360f81b81525090613e5e5760405162461bcd60e51b815260040161077d9190614f58565b50604080518082019091526002815261373360f01b60208201526001600160a01b038216613e9f5760405162461bcd60e51b815260040161077d9190614f58565b50806001600160a01b0316613eb2612ba2565b6001600160a01b03166000805160206153ab83398151915260405160405180910390a360008051602061536b83398151915280546001600160a01b0319166001600160a01b0392909216919091179055565b6001600160a01b038116600090815260076020526040812054613f2b90600190810b6151eb565b92915050565b6040516001600160a01b0380851660248301528316604482015260648101829052613f9c9085906323b872dd60e01b906084015b60408051601f198184030181529190526020810180516001600160e01b03166001600160e01b031990931692909217909152614215565b50505050565b61346c8363a9059cbb60e01b8484604051602401613f65929190614e85565b613fc96140b2565b600b80546001600160701b0319166001600160701b03928316178082558392600e91613ffe918591600160701b90041661514a565b92506101000a8154816001600160701b0302191690836001600160701b0316021790555042600b601c6101000a81548163ffffffff021916908363ffffffff16021790555050565b6000614050611e94565b82600c5461405e91906151cc565b613f2b91906151ac565b806009541061407d5760098054829003905550565b60006140876142e7565b6001600160701b0316905081816009546140a19190615175565b6140ab9190615258565b6009555050565b600b546000906140fd9063ffffffff600160e01b820416906140e7906001600160701b0380821691600160701b900416615230565b600354600160a01b900463ffffffff164261436d565b600b54611eb49190600160701b90046001600160701b0316615230565b6000600c5482614128611e94565b61405e91906151cc565b6001600160a01b038116600090815260076020526040902054600190810b900b6141ca5760088054600180820183557ff3f7a9fe364faab93b216da50a3214154f22a0a2b415b23a84c8169e8b636ee390910180546001600160a01b0319166001600160a01b039490941693841790559054600092835260076020526040909220805461ffff191661ffff9390920b92909216179055565b6001600160a01b038116600090815260076020526040812054600190810b900b12156131e6576001600160a01b0381166000908152600760205260409020546131b49060010b6152d6565b600061426a826040518060400160405280602081526020017f5361666545524332303a206c6f772d6c6576656c2063616c6c206661696c6564815250856001600160a01b031661450e9092919063ffffffff16565b80519091501561346c57808060200190518101906142889190614900565b61346c5760405162461bcd60e51b815260206004820152602a60248201527f5361666545524332303a204552433230206f7065726174696f6e20646964206e6044820152691bdd081cdd58d8d9595960b21b606482015260840161077d565b60006142f16140b2565b600b80546001600160701b0319168082559192508291600e90614325908490600160701b90046001600160701b0316615230565b92506101000a8154816001600160701b0302191690836001600160701b0316021790555042600b601c6101000a81548163ffffffff021916908363ffffffff16021790555090565b60008463ffffffff168263ffffffff161015604051806040016040528060018152602001600760fb1b815250906143b75760405162461bcd60e51b815260040161077d9190614f58565b5084820391508263ffffffff168263ffffffff16816143e657634e487b7160e01b600052601260045260246000fd5b0463ffffffff16846001600160701b0316901c93508263ffffffff168263ffffffff168161442457634e487b7160e01b600052601260045260246000fd5b06915063ffffffff8216158061444157506001600160701b038416155b1561444d57508261156b565b60006001600160701b0385168163ffffffff86811690861671b17217f7d1cf79abc9e3b39803f2f6af40f3028161449457634e487b7160e01b600052601260045260246000fd5b049050600160901b5b8215614501579282019280828402816144c657634e487b7160e01b600052601260045260246000fd5b0493849003939250600160901b0180828402816144f357634e487b7160e01b600052601260045260246000fd5b049250600160901b0161449d565b5091979650505050505050565b606061451d8484600085614527565b90505b9392505050565b6060824710156145885760405162461bcd60e51b815260206004820152602660248201527f416464726573733a20696e73756666696369656e742062616c616e636520666f6044820152651c8818d85b1b60d21b606482015260840161077d565b843b6145d65760405162461bcd60e51b815260206004820152601d60248201527f416464726573733a2063616c6c20746f206e6f6e2d636f6e7472616374000000604482015260640161077d565b600080866001600160a01b031685876040516145f29190614df7565b60006040518083038185875af1925050503d806000811461462f576040519150601f19603f3d011682016040523d82523d6000602084013e614634565b606091505b509150915061464482828661464f565b979650505050505050565b6060831561465e575081614520565b82511561466e5782518084602001fd5b8160405162461bcd60e51b815260040161077d9190614f58565b8280546146949061529b565b90600052602060002090601f0160209004810192826146b657600085556146fc565b82601f106146cf57805160ff19168380011785556146fc565b828001600101855582156146fc579182015b828111156146fc5782518255916020019190600101906146e1565b50614708929150614780565b5090565b8280546147189061529b565b90600052602060002090601f01602090048101928261473a57600085556146fc565b82601f106147535782800160ff198235161785556146fc565b828001600101855582156146fc579182015b828111156146fc578235825591602001919060010190614765565b5b808211156147085760008155600101614781565b80356147a081615337565b919050565b80356147a081615322565b60008083601f8401126147c1578182fd5b5081356001600160401b038111156147d7578182fd5b6020830191508360208285010111156147ef57600080fd5b9250929050565b600082601f830112614806578081fd5b813561481961481482615123565b6150f3565b81815284602083860101111561482d578283fd5b816020850160208301379081016020019190915292915050565b80356147a081615345565b80356147a08161535a565b803563ffffffff811681146147a057600080fd5b80356001600160601b03811681146147a057600080fd5b600060208284031215614899578081fd5b813561452081615322565b6000602082840312156148b5578081fd5b815161452081615322565b6000806000606084860312156148d4578182fd5b83356148df81615322565b925060208401356148ef81615322565b929592945050506040919091013590565b600060208284031215614911578081fd5b815161452081615337565b600080600060608486031215614930578081fd5b833561493b81615322565b9250602084013561494b81615322565b9150604084013561495b81615322565b809150509250925092565b60008060408385031215614978578182fd5b823561498381615322565b9150602083013561499381615322565b809150509250929050565b600080600080608085870312156149b3578182fd5b84356149be81615322565b935060208501356149ce81615322565b925060408501356149de81615345565b91506149ec6060860161485d565b905092959194509250565b600080600080600060a08688031215614a0e578283fd5b8535614a1981615322565b94506020860135614a2981615322565b93506040860135614a3981615345565b9250614a476060870161485d565b949793965091946080013592915050565b60008060208385031215614a6a578182fd5b82356001600160401b03811115614a7f578283fd5b614a8b858286016147b0565b90969095509350505050565b600060208284031215614aa8578081fd5b81516001600160401b03811115614abd578182fd5b8201601f81018413614acd578182fd5b8051614adb61481482615123565b818152856020838501011115614aef578384fd5b614b0082602083016020860161526f565b95945050505050565b600080600080600080600060c0888a031215614b23578485fd5b87356001600160401b0380821115614b39578687fd5b614b458b838c016147f6565b985060208a0135915080821115614b5a578687fd5b50614b678a828b016147b0565b9097509550506040880135614b7b8161535a565b93506060880135614b8b81615322565b92506080880135614b9b81615322565b915060a0880135614bab81615322565b8091505092959891949750929550565b6000806000806000806000806000806101408b8d031215614bda578384fd5b8a356001600160401b0380821115614bf0578586fd5b614bfc8e838f016147f6565b9b5060208d0135915080821115614c11578586fd5b50614c1e8d828e016147f6565b995050614c2d60408c0161485d565b9750614c3b60608c01614847565b9650614c4960808c016147a5565b9550614c5760a08c01614852565b9450614c6560c08c0161485d565b9350614c7360e08c0161485d565b9250614c826101008c01614871565b9150614c916101208c01614795565b90509295989b9194979a5092959850565b600080600060608486031215614cb6578081fd5b8351614cc181615345565b6020850151909350614cd281615345565b604085015190925061495b81615345565b600060208284031215614cf4578081fd5b81356145208161535a565b600060208284031215614d10578081fd5b81516145208161535a565b600060208284031215614d2c578081fd5b5035919050565b600060208284031215614d44578081fd5b5051919050565b60008060008060808587031215614d60578182fd5b843593506020850135614d7281615322565b9250614d806040860161485d565b9396929550929360600135925050565b60008060408385031215614da2578182fd5b50508035926020909101359150565b600060208284031215614dc2578081fd5b6145208261485d565b60008151808452614de381602086016020860161526f565b601f01601f19169290920160200192915050565b60008251614e0981846020870161526f565b9190910192915050565b60008351614e2581846020880161526f565b600160fd1b9083019081528351614e4381600184016020880161526f565b01600101949350505050565b6001600160a01b0391909116815260200190565b6001600160a01b039290921682526001600160701b0316602082015260400190565b6001600160a01b03929092168252602082015260400190565b6020808252825182820181905260009190848201906040850190845b81811015614edf5783516001600160a01b031683529284019291840191600101614eba565b50909695505050505050565b6001600160a01b039390931683526001600160701b0391909116602083015263ffffffff16604082015260600190565b6001600160a01b0393841681526020810192909252909116604082015260600190565b6001600160a01b0392831681529116602082015260400190565b6020815260006145206020830184614dcb565b604081526000614f7e6040830185614dcb565b8281036020840152614b008185614dcb565b61018081526000614fa561018083018f614dcb565b8281036020840152614fb7818f614dcb565b604084018e905263ffffffff8d811660608601528c811660808601528b1660a085015261ffff8a1660c085015260e0840189905261010084018890526001600160701b03878116610120860152861661014085015291506150159050565b63ffffffff83166101608301529d9c50505050505050505050505050565b81516001600160701b0316815260208083015161ffff169082015260408083015163ffffffff9081169183019190915260608084015182169083015260808084015182169083015260a080840151918216908301526101008201905060c08301516150a960c08401826001600160701b03169052565b5060e08301516150bf60e084018261ffff169052565b5092915050565b92835263ffffffff918216602084015216604082015260600190565b63ffffffff91909116815260200190565b604051601f8201601f191681016001600160401b038111828210171561511b5761511b61530c565b604052919050565b60006001600160401b0382111561513c5761513c61530c565b50601f01601f191660200190565b60006001600160701b0382811684821680830382111561516c5761516c6152f6565b01949350505050565b60008219821115615188576151886152f6565b500190565b600063ffffffff80831681851680830382111561516c5761516c6152f6565b6000826151c757634e487b7160e01b81526012600452602481fd5b500490565b60008160001904831182151516156151e6576151e66152f6565b500290565b60008160010b8360010b82811281617fff1901831281151615615210576152106152f6565b81617fff018313811615615226576152266152f6565b5090039392505050565b60006001600160701b0383811690831681811015615250576152506152f6565b039392505050565b60008282101561526a5761526a6152f6565b500390565b60005b8381101561528a578181015183820152602001615272565b83811115613f9c5750506000910152565b600181811c908216806152af57607f821691505b602082108114156152d057634e487b7160e01b600052602260045260246000fd5b50919050565b60008160010b617fff198114156152ef576152ef6152f6565b9003919050565b634e487b7160e01b600052601160045260246000fd5b634e487b7160e01b600052604160045260246000fd5b6001600160a01b03811681146131e657600080fd5b80151581146131e657600080fd5b6001600160701b03811681146131e657600080fd5b61ffff811681146131e657600080fdfe4f471908b72bb76dae5bd24599026e7bf3ddb256497722888ffa422f83729eded1248cccb5fef9131c731321e43e9a924840ffee7dc68c7d1d3e5cb7dedcae038be0079c531659141344cd1fd0a4f28419497f9722a3daafe3b4186f6b6457e09853650269815e203c5c9e228db9ca05cc6037f2c2723c94ed3260cf98324c99a26469706673582212208184c1b867fc57e5c2263fde7920e0617fcc450aa56032b481f829ea21e737d264736f6c63430008040033",
  "linkReferences": {},
  "deployedLinkReferences": {}
}