{
  "_format": "hh-sol-artifact-1",
  "contractName": "Enterprise",
  "sourceName": "contracts/Enterprise.sol",
  "abi": [
    {
      "anonymous": false,
      "inputs": [
        {
          "indexed": true,
          "internalType": "address",
          "name": "powerToken",
          "type": "address"
        },
        {
          "indexed": false,
          "internalType": "uint256",
          "name": "tokenId",
          "type": "uint256"
        },
        {
          "indexed": false,
          "internalType": "uint32",
          "name": "from",
          "type": "uint32"
        },
        {
          "indexed": false,
          "internalType": "uint32",
          "name": "to",
          "type": "uint32"
        }
      ],
      "name": "Borrowed",
      "type": "event"
    },
    {
      "anonymous": false,
      "inputs": [
        {
          "indexed": true,
          "internalType": "address",
          "name": "previousOwner",
          "type": "address"
        },
        {
          "indexed": true,
          "internalType": "address",
          "name": "newOwner",
          "type": "address"
        }
      ],
      "name": "OwnershipTransferred",
      "type": "event"
    },
    {
      "anonymous": false,
      "inputs": [
        {
          "indexed": true,
          "internalType": "address",
          "name": "powerToken",
          "type": "address"
        },
        {
          "indexed": false,
          "internalType": "uint32",
          "name": "halfLife",
          "type": "uint32"
        },
        {
          "indexed": false,
          "internalType": "uint112",
          "name": "factor",
          "type": "uint112"
        }
      ],
      "name": "ServiceRegistered",
      "type": "event"
    },
    {
      "inputs": [
        {
          "internalType": "uint256",
          "name": "liquidityAmount",
          "type": "uint256"
        }
      ],
      "name": "addLiquidity",
      "outputs": [],
      "stateMutability": "nonpayable",
      "type": "function"
    },
    {
      "inputs": [
        {
          "internalType": "contract IPowerToken",
          "name": "powerToken",
          "type": "address"
        },
        {
          "internalType": "contract IERC20",
          "name": "paymentToken",
          "type": "address"
        },
        {
          "internalType": "uint112",
          "name": "amount",
          "type": "uint112"
        },
        {
          "internalType": "uint256",
          "name": "maximumPayment",
          "type": "uint256"
        },
        {
          "internalType": "uint32",
          "name": "duration",
          "type": "uint32"
        }
      ],
      "name": "borrow",
      "outputs": [],
      "stateMutability": "nonpayable",
      "type": "function"
    },
    {
      "inputs": [
        {
          "internalType": "address",
          "name": "token",
          "type": "address"
        }
      ],
      "name": "disablePaymentToken",
      "outputs": [],
      "stateMutability": "nonpayable",
      "type": "function"
    },
    {
      "inputs": [
        {
          "internalType": "address",
          "name": "token",
          "type": "address"
        }
      ],
      "name": "enablePaymentToken",
      "outputs": [],
      "stateMutability": "nonpayable",
      "type": "function"
    },
    {
      "inputs": [
        {
          "internalType": "contract IPowerToken",
          "name": "powerToken",
          "type": "address"
        },
        {
          "internalType": "contract IERC20",
          "name": "paymentToken",
          "type": "address"
        },
        {
          "internalType": "uint112",
          "name": "amount",
          "type": "uint112"
        },
        {
          "internalType": "uint32",
          "name": "duration",
          "type": "uint32"
        }
      ],
      "name": "estimateLoan",
      "outputs": [
        {
          "internalType": "uint256",
          "name": "",
          "type": "uint256"
        }
      ],
      "stateMutability": "view",
      "type": "function"
    },
    {
      "inputs": [],
      "name": "getAvailableReserve",
      "outputs": [
        {
          "internalType": "uint256",
          "name": "",
          "type": "uint256"
        }
      ],
      "stateMutability": "view",
      "type": "function"
    },
    {
      "inputs": [],
      "name": "getBaseUri",
      "outputs": [
        {
          "internalType": "string",
          "name": "",
          "type": "string"
        }
      ],
      "stateMutability": "view",
      "type": "function"
    },
    {
      "inputs": [],
      "name": "getBorrowToken",
      "outputs": [
        {
          "internalType": "contract IBorrowToken",
          "name": "",
          "type": "address"
        }
      ],
      "stateMutability": "view",
      "type": "function"
    },
    {
      "inputs": [],
      "name": "getBorrowerLoanReturnGracePeriod",
      "outputs": [
        {
          "internalType": "uint32",
          "name": "",
          "type": "uint32"
        }
      ],
      "stateMutability": "view",
      "type": "function"
    },
    {
      "inputs": [],
      "name": "getConverter",
      "outputs": [
        {
          "internalType": "contract IConverter",
          "name": "",
          "type": "address"
        }
      ],
      "stateMutability": "view",
      "type": "function"
    },
    {
      "inputs": [],
      "name": "getEnterpriseCollector",
      "outputs": [
        {
          "internalType": "address",
          "name": "",
          "type": "address"
        }
      ],
      "stateMutability": "view",
      "type": "function"
    },
    {
      "inputs": [],
      "name": "getEnterpriseLoanCollectGracePeriod",
      "outputs": [
        {
          "internalType": "uint32",
          "name": "",
          "type": "uint32"
        }
      ],
      "stateMutability": "view",
      "type": "function"
    },
    {
      "inputs": [],
      "name": "getEnterpriseVault",
      "outputs": [
        {
          "internalType": "address",
          "name": "",
          "type": "address"
        }
      ],
      "stateMutability": "view",
      "type": "function"
    },
    {
      "inputs": [],
      "name": "getEstimator",
      "outputs": [
        {
          "internalType": "contract IEstimator",
          "name": "",
          "type": "address"
        }
      ],
      "stateMutability": "view",
      "type": "function"
    },
    {
      "inputs": [],
      "name": "getGCFeePercent",
      "outputs": [
        {
          "internalType": "uint16",
          "name": "",
          "type": "uint16"
        }
      ],
      "stateMutability": "view",
      "type": "function"
    },
    {
      "inputs": [],
      "name": "getInfo",
      "outputs": [
        {
          "internalType": "string",
          "name": "name",
          "type": "string"
        },
        {
          "internalType": "string",
          "name": "baseUri",
          "type": "string"
        },
        {
          "internalType": "uint256",
          "name": "totalShares",
          "type": "uint256"
        },
        {
          "internalType": "uint32",
          "name": "interestHalfLife",
          "type": "uint32"
        },
        {
          "internalType": "uint32",
          "name": "borrowerLoanReturnGracePeriod",
          "type": "uint32"
        },
        {
          "internalType": "uint32",
          "name": "enterpriseLoanCollectGracePeriod",
          "type": "uint32"
        },
        {
          "internalType": "uint16",
          "name": "gcFeePercent",
          "type": "uint16"
        },
        {
          "internalType": "uint256",
          "name": "fixedReserve",
          "type": "uint256"
        },
        {
          "internalType": "uint256",
          "name": "usedReserve",
          "type": "uint256"
        },
        {
          "internalType": "uint112",
          "name": "streamingReserve",
          "type": "uint112"
        },
        {
          "internalType": "uint112",
          "name": "streamingReserveTarget",
          "type": "uint112"
        },
        {
          "internalType": "uint32",
          "name": "streamingReserveUpdated",
          "type": "uint32"
        }
      ],
      "stateMutability": "view",
      "type": "function"
    },
    {
      "inputs": [],
      "name": "getInterestHalfLife",
      "outputs": [
        {
          "internalType": "uint32",
          "name": "",
          "type": "uint32"
        }
      ],
      "stateMutability": "view",
      "type": "function"
    },
    {
      "inputs": [],
      "name": "getInterestToken",
      "outputs": [
        {
          "internalType": "contract IInterestToken",
          "name": "",
          "type": "address"
        }
      ],
      "stateMutability": "view",
      "type": "function"
    },
    {
      "inputs": [
        {
          "internalType": "uint256",
          "name": "tokenId",
          "type": "uint256"
        }
      ],
      "name": "getLiquidityInfo",
      "outputs": [
        {
          "components": [
            {
              "internalType": "uint256",
              "name": "amount",
              "type": "uint256"
            },
            {
              "internalType": "uint256",
              "name": "shares",
              "type": "uint256"
            },
            {
              "internalType": "uint256",
              "name": "block",
              "type": "uint256"
            }
          ],
          "internalType": "struct EnterpriseStorage.LiquidityInfo",
          "name": "",
          "type": "tuple"
        }
      ],
      "stateMutability": "view",
      "type": "function"
    },
    {
      "inputs": [],
      "name": "getLiquidityToken",
      "outputs": [
        {
          "internalType": "contract IERC20Metadata",
          "name": "",
          "type": "address"
        }
      ],
      "stateMutability": "view",
      "type": "function"
    },
    {
      "inputs": [
        {
          "internalType": "uint256",
          "name": "tokenId",
          "type": "uint256"
        }
      ],
      "name": "getLoanInfo",
      "outputs": [
        {
          "components": [
            {
              "internalType": "uint112",
              "name": "amount",
              "type": "uint112"
            },
            {
              "internalType": "uint16",
              "name": "powerTokenIndex",
              "type": "uint16"
            },
            {
              "internalType": "uint32",
              "name": "borrowingTime",
              "type": "uint32"
            },
            {
              "internalType": "uint32",
              "name": "maturityTime",
              "type": "uint32"
            },
            {
              "internalType": "uint32",
              "name": "borrowerReturnGraceTime",
              "type": "uint32"
            },
            {
              "internalType": "uint32",
              "name": "enterpriseCollectGraceTime",
              "type": "uint32"
            },
            {
              "internalType": "uint112",
              "name": "gcFee",
              "type": "uint112"
            },
            {
              "internalType": "uint16",
              "name": "gcFeeTokenIndex",
              "type": "uint16"
            }
          ],
          "internalType": "struct EnterpriseStorage.LoanInfo",
          "name": "",
          "type": "tuple"
        }
      ],
      "stateMutability": "view",
      "type": "function"
    },
    {
      "inputs": [
        {
          "internalType": "uint256",
          "name": "tokenId",
          "type": "uint256"
        }
      ],
      "name": "getOwedInterest",
      "outputs": [
        {
          "internalType": "uint256",
          "name": "",
          "type": "uint256"
        }
      ],
      "stateMutability": "view",
      "type": "function"
    },
    {
      "inputs": [
        {
          "internalType": "uint256",
          "name": "index",
          "type": "uint256"
        }
      ],
      "name": "getPowerToken",
      "outputs": [
        {
          "internalType": "contract IPowerToken",
          "name": "",
          "type": "address"
        }
      ],
      "stateMutability": "view",
      "type": "function"
    },
    {
      "inputs": [],
      "name": "getPowerTokenImpl",
      "outputs": [
        {
          "internalType": "address",
          "name": "",
          "type": "address"
        }
      ],
      "stateMutability": "view",
      "type": "function"
    },
    {
      "inputs": [
        {
          "internalType": "contract IPowerToken",
          "name": "powerToken",
          "type": "address"
        }
      ],
      "name": "getPowerTokenIndex",
      "outputs": [
        {
          "internalType": "uint16",
          "name": "",
          "type": "uint16"
        }
      ],
      "stateMutability": "view",
      "type": "function"
    },
    {
      "inputs": [],
      "name": "getPowerTokens",
      "outputs": [
        {
          "internalType": "contract IPowerToken[]",
          "name": "",
          "type": "address[]"
        }
      ],
      "stateMutability": "view",
      "type": "function"
    },
    {
      "inputs": [],
      "name": "getReserve",
      "outputs": [
        {
          "internalType": "uint256",
          "name": "",
          "type": "uint256"
        }
      ],
      "stateMutability": "view",
      "type": "function"
    },
    {
      "inputs": [
        {
          "internalType": "contract IPowerToken",
          "name": "powerToken",
          "type": "address"
        }
      ],
      "name": "getService",
      "outputs": [
        {
          "internalType": "string",
          "name": "name",
          "type": "string"
        },
        {
          "internalType": "string",
          "name": "symbol",
          "type": "string"
        },
        {
          "components": [
            {
              "internalType": "uint112",
              "name": "baseRate",
              "type": "uint112"
            },
            {
              "internalType": "uint112",
              "name": "minGCFee",
              "type": "uint112"
            },
            {
              "internalType": "uint32",
              "name": "halfLife",
              "type": "uint32"
            },
            {
              "internalType": "contract IERC20Metadata",
              "name": "baseToken",
              "type": "address"
            },
            {
              "internalType": "uint32",
              "name": "minLoanDuration",
              "type": "uint32"
            },
            {
              "internalType": "uint32",
              "name": "maxLoanDuration",
              "type": "uint32"
            },
            {
              "internalType": "uint16",
              "name": "serviceFeePercent",
              "type": "uint16"
            },
            {
              "internalType": "uint16",
              "name": "index",
              "type": "uint16"
            }
          ],
          "internalType": "struct EnterpriseStorage.ServiceConfig",
          "name": "config",
          "type": "tuple"
        }
      ],
      "stateMutability": "view",
      "type": "function"
    },
    {
      "inputs": [
        {
          "internalType": "contract IPowerToken",
          "name": "powerToken",
          "type": "address"
        }
      ],
      "name": "getServiceBaseRate",
      "outputs": [
        {
          "internalType": "uint112",
          "name": "",
          "type": "uint112"
        }
      ],
      "stateMutability": "view",
      "type": "function"
    },
    {
      "inputs": [
        {
          "internalType": "contract IPowerToken",
          "name": "powerToken",
          "type": "address"
        }
      ],
      "name": "getServiceBaseToken",
      "outputs": [
        {
          "internalType": "contract IERC20Metadata",
          "name": "",
          "type": "address"
        }
      ],
      "stateMutability": "view",
      "type": "function"
    },
    {
      "inputs": [
        {
          "internalType": "contract IPowerToken",
          "name": "powerToken",
          "type": "address"
        }
      ],
      "name": "getServiceFeePercent",
      "outputs": [
        {
          "internalType": "uint112",
          "name": "",
          "type": "uint112"
        }
      ],
      "stateMutability": "view",
      "type": "function"
    },
    {
      "inputs": [
        {
          "internalType": "contract IPowerToken",
          "name": "powerToken",
          "type": "address"
        }
      ],
      "name": "getServiceHalfLife",
      "outputs": [
        {
          "internalType": "uint32",
          "name": "",
          "type": "uint32"
        }
      ],
      "stateMutability": "view",
      "type": "function"
    },
    {
      "inputs": [
        {
          "internalType": "contract IPowerToken",
          "name": "powerToken",
          "type": "address"
        }
      ],
      "name": "getServiceMaxLoanDuration",
      "outputs": [
        {
          "internalType": "uint32",
          "name": "",
          "type": "uint32"
        }
      ],
      "stateMutability": "view",
      "type": "function"
    },
    {
      "inputs": [
        {
          "internalType": "contract IPowerToken",
          "name": "powerToken",
          "type": "address"
        }
      ],
      "name": "getServiceMinGCFee",
      "outputs": [
        {
          "internalType": "uint112",
          "name": "",
          "type": "uint112"
        }
      ],
      "stateMutability": "view",
      "type": "function"
    },
    {
      "inputs": [
        {
          "internalType": "contract IPowerToken",
          "name": "powerToken",
          "type": "address"
        }
      ],
      "name": "getServiceMinLoanDuration",
      "outputs": [
        {
          "internalType": "uint32",
          "name": "",
          "type": "uint32"
        }
      ],
      "stateMutability": "view",
      "type": "function"
    },
    {
      "inputs": [],
      "name": "getServices",
      "outputs": [
        {
          "internalType": "address[]",
          "name": "addresses",
          "type": "address[]"
        },
        {
          "internalType": "string[]",
          "name": "names",
          "type": "string[]"
        },
        {
          "internalType": "string[]",
          "name": "symbols",
          "type": "string[]"
        },
        {
          "components": [
            {
              "internalType": "uint112",
              "name": "baseRate",
              "type": "uint112"
            },
            {
              "internalType": "uint112",
              "name": "minGCFee",
              "type": "uint112"
            },
            {
              "internalType": "uint32",
              "name": "halfLife",
              "type": "uint32"
            },
            {
              "internalType": "contract IERC20Metadata",
              "name": "baseToken",
              "type": "address"
            },
            {
              "internalType": "uint32",
              "name": "minLoanDuration",
              "type": "uint32"
            },
            {
              "internalType": "uint32",
              "name": "maxLoanDuration",
              "type": "uint32"
            },
            {
              "internalType": "uint16",
              "name": "serviceFeePercent",
              "type": "uint16"
            },
            {
              "internalType": "uint16",
              "name": "index",
              "type": "uint16"
            }
          ],
          "internalType": "struct EnterpriseStorage.ServiceConfig[]",
          "name": "configs",
          "type": "tuple[]"
        }
      ],
      "stateMutability": "view",
      "type": "function"
    },
    {
      "inputs": [],
      "name": "getUsedReserve",
      "outputs": [
        {
          "internalType": "uint256",
          "name": "",
          "type": "uint256"
        }
      ],
      "stateMutability": "view",
      "type": "function"
    },
    {
      "inputs": [
        {
          "internalType": "address",
          "name": "initialOwner",
          "type": "address"
        }
      ],
      "name": "initialize",
      "outputs": [],
      "stateMutability": "nonpayable",
      "type": "function"
    },
    {
      "inputs": [
        {
          "internalType": "string",
          "name": "enterpriseName",
          "type": "string"
        },
        {
          "internalType": "string",
          "name": "baseUri",
          "type": "string"
        },
        {
          "internalType": "contract IEstimator",
          "name": "estimator",
          "type": "address"
        },
        {
          "internalType": "contract IConverter",
          "name": "converter",
          "type": "address"
        },
        {
          "internalType": "address",
          "name": "owner",
          "type": "address"
        }
      ],
      "name": "initialize",
      "outputs": [],
      "stateMutability": "nonpayable",
      "type": "function"
    },
    {
      "inputs": [
        {
          "internalType": "address",
          "name": "powerTokenImpl",
          "type": "address"
        },
        {
          "internalType": "contract IERC20Metadata",
          "name": "liquidityToken",
          "type": "address"
        },
        {
          "internalType": "contract IInterestToken",
          "name": "interestToken",
          "type": "address"
        },
        {
          "internalType": "contract IBorrowToken",
          "name": "borrowToken",
          "type": "address"
        }
      ],
      "name": "initializeTokens",
      "outputs": [],
      "stateMutability": "nonpayable",
      "type": "function"
    },
    {
      "inputs": [
        {
          "internalType": "contract IPowerToken",
          "name": "powerToken",
          "type": "address"
        }
      ],
      "name": "isRegisteredPowerToken",
      "outputs": [
        {
          "internalType": "bool",
          "name": "",
          "type": "bool"
        }
      ],
      "stateMutability": "view",
      "type": "function"
    },
    {
      "inputs": [
        {
          "internalType": "contract IPowerToken",
          "name": "powerToken",
          "type": "address"
        },
        {
          "internalType": "uint32",
          "name": "duration",
          "type": "uint32"
        }
      ],
      "name": "isServiceAllowedLoanDuration",
      "outputs": [
        {
          "internalType": "bool",
          "name": "",
          "type": "bool"
        }
      ],
      "stateMutability": "view",
      "type": "function"
    },
    {
      "inputs": [
        {
          "internalType": "contract IERC20",
          "name": "token",
          "type": "address"
        }
      ],
      "name": "isSupportedPaymentToken",
      "outputs": [
        {
          "internalType": "bool",
          "name": "",
          "type": "bool"
        }
      ],
      "stateMutability": "view",
      "type": "function"
    },
    {
      "inputs": [
        {
          "internalType": "address",
          "name": "from",
          "type": "address"
        },
        {
          "internalType": "address",
          "name": "to",
          "type": "address"
        },
        {
          "internalType": "uint256",
          "name": "tokenId",
          "type": "uint256"
        }
      ],
      "name": "loanTransfer",
      "outputs": [],
      "stateMutability": "nonpayable",
      "type": "function"
    },
    {
      "inputs": [],
      "name": "owner",
      "outputs": [
        {
          "internalType": "address",
          "name": "",
          "type": "address"
        }
      ],
      "stateMutability": "view",
      "type": "function"
    },
    {
      "inputs": [
        {
          "internalType": "uint256",
          "name": "index",
          "type": "uint256"
        }
      ],
      "name": "paymentToken",
      "outputs": [
        {
          "internalType": "address",
          "name": "",
          "type": "address"
        }
      ],
      "stateMutability": "view",
      "type": "function"
    },
    {
      "inputs": [
        {
          "internalType": "contract IERC20",
          "name": "token",
          "type": "address"
        }
      ],
      "name": "paymentTokenIndex",
      "outputs": [
        {
          "internalType": "int16",
          "name": "",
          "type": "int16"
        }
      ],
      "stateMutability": "view",
      "type": "function"
    },
    {
      "inputs": [
        {
          "internalType": "uint256",
          "name": "tokenId",
          "type": "uint256"
        },
        {
          "internalType": "contract IERC20",
          "name": "paymentToken",
          "type": "address"
        },
        {
          "internalType": "uint256",
          "name": "maximumPayment",
          "type": "uint256"
        },
        {
          "internalType": "uint32",
          "name": "duration",
          "type": "uint32"
        }
      ],
      "name": "reborrow",
      "outputs": [],
      "stateMutability": "nonpayable",
      "type": "function"
    },
    {
      "inputs": [
        {
          "internalType": "string",
          "name": "serviceName",
          "type": "string"
        },
        {
          "internalType": "string",
          "name": "symbol",
          "type": "string"
        },
        {
          "internalType": "uint32",
          "name": "halfLife",
          "type": "uint32"
        },
        {
          "internalType": "uint112",
          "name": "baseRate",
          "type": "uint112"
        },
        {
          "internalType": "contract IERC20Metadata",
          "name": "baseToken",
          "type": "address"
        },
        {
          "internalType": "uint16",
          "name": "serviceFeePercent",
          "type": "uint16"
        },
        {
          "internalType": "uint32",
          "name": "minLoanDuration",
          "type": "uint32"
        },
        {
          "internalType": "uint32",
          "name": "maxLoanDuration",
          "type": "uint32"
        },
        {
          "internalType": "uint112",
          "name": "minGCFee",
          "type": "uint112"
        }
      ],
      "name": "registerService",
      "outputs": [],
      "stateMutability": "nonpayable",
      "type": "function"
    },
    {
      "inputs": [
        {
          "internalType": "uint256",
          "name": "tokenId",
          "type": "uint256"
        }
      ],
      "name": "removeLiquidity",
      "outputs": [],
      "stateMutability": "nonpayable",
      "type": "function"
    },
    {
      "inputs": [
        {
          "internalType": "uint256",
          "name": "tokenId",
          "type": "uint256"
        }
      ],
      "name": "returnLoan",
      "outputs": [],
      "stateMutability": "nonpayable",
      "type": "function"
    },
    {
      "inputs": [
        {
          "internalType": "string",
          "name": "baseUri",
          "type": "string"
        }
      ],
      "name": "setBaseUri",
      "outputs": [],
      "stateMutability": "nonpayable",
      "type": "function"
    },
    {
      "inputs": [
        {
          "internalType": "uint32",
          "name": "newPeriod",
          "type": "uint32"
        }
      ],
      "name": "setBorrowerLoanReturnGracePeriod",
      "outputs": [],
      "stateMutability": "nonpayable",
      "type": "function"
    },
    {
      "inputs": [
        {
          "internalType": "contract IConverter",
          "name": "newConverter",
          "type": "address"
        }
      ],
      "name": "setConverter",
      "outputs": [],
      "stateMutability": "nonpayable",
      "type": "function"
    },
    {
      "inputs": [
        {
          "internalType": "address",
          "name": "newCollector",
          "type": "address"
        }
      ],
      "name": "setEnterpriseCollector",
      "outputs": [],
      "stateMutability": "nonpayable",
      "type": "function"
    },
    {
      "inputs": [
        {
          "internalType": "uint32",
          "name": "newPeriod",
          "type": "uint32"
        }
      ],
      "name": "setEnterpriseLoanCollectGracePeriod",
      "outputs": [],
      "stateMutability": "nonpayable",
      "type": "function"
    },
    {
      "inputs": [
        {
          "internalType": "address",
          "name": "newVault",
          "type": "address"
        }
      ],
      "name": "setEnterpriseVault",
      "outputs": [],
      "stateMutability": "nonpayable",
      "type": "function"
    },
    {
      "inputs": [
        {
          "internalType": "contract IEstimator",
          "name": "newEstimator",
          "type": "address"
        }
      ],
      "name": "setEstimator",
      "outputs": [],
      "stateMutability": "nonpayable",
      "type": "function"
    },
    {
      "inputs": [
        {
          "internalType": "uint16",
          "name": "newGcFeePercent",
          "type": "uint16"
        }
      ],
      "name": "setGcFeePercent",
      "outputs": [],
      "stateMutability": "nonpayable",
      "type": "function"
    },
    {
      "inputs": [
        {
          "internalType": "uint32",
          "name": "interestHalfLife",
          "type": "uint32"
        }
      ],
      "name": "setInterestHalfLife",
      "outputs": [],
      "stateMutability": "nonpayable",
      "type": "function"
    },
    {
      "inputs": [
        {
          "internalType": "contract IPowerToken",
          "name": "powerToken",
          "type": "address"
        },
        {
          "internalType": "uint112",
          "name": "baseRate",
          "type": "uint112"
        },
        {
          "internalType": "contract IERC20Metadata",
          "name": "baseToken",
          "type": "address"
        },
        {
          "internalType": "uint112",
          "name": "minGCFee",
          "type": "uint112"
        }
      ],
      "name": "setServiceBaseRate",
      "outputs": [],
      "stateMutability": "nonpayable",
      "type": "function"
    },
    {
      "inputs": [
        {
          "internalType": "contract IPowerToken",
          "name": "powerToken",
          "type": "address"
        },
        {
          "internalType": "uint16",
          "name": "newServiceFeePercent",
          "type": "uint16"
        }
      ],
      "name": "setServiceFeePercent",
      "outputs": [],
      "stateMutability": "nonpayable",
      "type": "function"
    },
    {
      "inputs": [
        {
          "internalType": "contract IPowerToken[]",
          "name": "powerToken",
          "type": "address[]"
        },
        {
          "internalType": "uint16[]",
          "name": "newServiceFeePercent",
          "type": "uint16[]"
        }
      ],
      "name": "setServiceFeePercentBatch",
      "outputs": [],
      "stateMutability": "nonpayable",
      "type": "function"
    },
    {
      "inputs": [
        {
          "internalType": "contract IPowerToken",
          "name": "powerToken",
          "type": "address"
        },
        {
          "internalType": "uint32",
          "name": "minLoanDuration",
          "type": "uint32"
        },
        {
          "internalType": "uint32",
          "name": "maxLoanDuration",
          "type": "uint32"
        }
      ],
      "name": "setServiceLoanDurationLimits",
      "outputs": [],
      "stateMutability": "nonpayable",
      "type": "function"
    },
    {
      "inputs": [
        {
          "internalType": "address",
          "name": "newOwner",
          "type": "address"
        }
      ],
      "name": "transferOwnership",
      "outputs": [],
      "stateMutability": "nonpayable",
      "type": "function"
    },
    {
      "inputs": [
        {
          "internalType": "contract IPowerToken",
          "name": "powerToken",
          "type": "address"
        },
        {
          "internalType": "uint256",
          "name": "amount",
          "type": "uint256"
        }
      ],
      "name": "unwrap",
      "outputs": [
        {
          "internalType": "bool",
          "name": "",
          "type": "bool"
        }
      ],
      "stateMutability": "nonpayable",
      "type": "function"
    },
    {
      "inputs": [
        {
          "internalType": "uint256",
          "name": "tokenId",
          "type": "uint256"
        }
      ],
      "name": "withdrawInterest",
      "outputs": [],
      "stateMutability": "nonpayable",
      "type": "function"
    },
    {
      "inputs": [
        {
          "internalType": "contract IPowerToken",
          "name": "powerToken",
          "type": "address"
        },
        {
          "internalType": "uint256",
          "name": "amount",
          "type": "uint256"
        }
      ],
      "name": "wrap",
      "outputs": [
        {
          "internalType": "bool",
          "name": "",
          "type": "bool"
        }
      ],
      "stateMutability": "nonpayable",
      "type": "function"
    },
    {
      "inputs": [
        {
          "internalType": "contract IPowerToken",
          "name": "powerToken",
          "type": "address"
        },
        {
          "internalType": "address",
          "name": "to",
          "type": "address"
        },
        {
          "internalType": "uint256",
          "name": "amount",
          "type": "uint256"
        }
      ],
      "name": "wrapTo",
      "outputs": [
        {
          "internalType": "bool",
          "name": "",
          "type": "bool"
        }
      ],
      "stateMutability": "nonpayable",
      "type": "function"
    }
  ],
  "bytecode": "0x60806040526004805463ffffffff60a01b191660e160a61b17905560088054600160a01b600160e01b031916650546000002a360a61b17905534801561004457600080fd5b506159a180620000556000396000f3fe608060405234801561001057600080fd5b50600436106104075760003560e01c80638e9fcf8111610220578063c20aa9bc11610130578063e9028683116100b8578063f4e28f9a11610087578063f4e28f9a14610b3c578063faaed4ad14610b75578063fbac9a5514610b88578063fc0915b114610bae578063fcb2884e14610bc157600080fd5b8063e902868314610aca578063e912615414610b03578063edc1a62814610b16578063f2fde38b14610b2957600080fd5b8063d1c82007116100ff578063d1c82007146109ff578063db0ed6a014610a38578063df57f2fa14610a4b578063e2b17a1614610a80578063e36eca0c14610a9357600080fd5b8063c20aa9bc146109b5578063c2fe50dd146109c8578063c4d66de8146109db578063c93d0b92146109ee57600080fd5b8063aebb5041116101b3578063b96266fa11610182578063b96266fa14610956578063bf1708801461096b578063bf376c7a1461097c578063bf3bb1a51461098f578063bfd84fb4146109a257600080fd5b8063aebb504114610906578063b19337a41461090e578063b406bf6d14610921578063b56de97e1461094357600080fd5b8063a0bcfc7f116101ef578063a0bcfc7f146108ba578063a0efd118146108cd578063a358426f146108e2578063a554b26d146108f557600080fd5b80638e9fcf811461086e57806390f55edd146108815780639c7aa7f8146108945780639c8f9f23146108a757600080fd5b806339f476931161031b578063644e44df116102ae5780638188d50d1161027d5780638188d50d146107ee57806383b9a0091461080357806389035b61146108145780638d6d50c9146108275780638da5cb5b1461085d57600080fd5b8063644e44df146107a157806375417851146107b25780637791c42d146107ca5780637eda9ff8146107db57600080fd5b806353c09124116102ea57806353c091241461073757806359bf5d39146107665780635a9b0b891461076e57806362c1f3881461078e57600080fd5b806339f47693146106eb578063449497ec146106fe578063512a53bc1461071157806351c6590a1461072457600080fd5b806315a523021161039e5780632b39a0ac1161036d5780632b39a0ac146106455780632e365ade1461067c5780632fb2067f1461068f5780633184fc64146106b257806337592148146106c557600080fd5b806315a52302146105a75780632261b07f146105c9578063229304dc146105da5780632457056e146105fb57600080fd5b80630e101b60116103da5780630e101b601461055d5780630ea1dc9e1461057057806311eec52914610581578063158bf4511461059457600080fd5b8063041960581461040c5780630714012c1461043c57806308669aab146105335780630cac36b214610548575b600080fd5b61041f61041a3660046150a0565b610bc9565b6040516001600160a01b0390911681526020015b60405180910390f35b61052661044a3660046150a0565b6040805161010081018252600080825260208201819052918101829052606081018290526080810182905260a0810182905260c0810182905260e08101919091525060009081526011602090815260409182902082516101008101845281546001600160701b038082168352600160701b80830461ffff90811696850196909652600160801b830463ffffffff90811697850197909752600160a01b830487166060850152600160c01b830487166080850152600160e01b90920490951660a083015260019092015493841660c082015292041660e082015290565b60405161043391906155e6565b6105466105413660046150a0565b610c07565b005b610550610cea565b604051610433919061537a565b61041f61056b3660046150a0565b610d7c565b6002546001600160a01b031661041f565b61054661058f366004614bcc565b610d9f565b6105466105a2366004614f91565b610ef2565b6105ba6105b5366004614af9565b61149f565b604051610433939291906153cb565b6006546001600160a01b031661041f565b6105ed6105e8366004614ccb565b611642565b604051908152602001610433565b61062d610609366004614af9565b6001600160a01b03166000908152601360205260409020546001600160701b031690565b6040516001600160701b039091168152602001610433565b61062d610653366004614af9565b6001600160a01b0316600090815260136020526040902060010154600160e01b900461ffff1690565b61054661068a36600461510c565b6116f8565b6106a261069d366004614af9565b6117a2565b6040519015158152602001610433565b6105466106c0366004614b71565b6117c5565b600454600160a01b900463ffffffff165b60405163ffffffff9091168152602001610433565b6106a26106f9366004614da8565b61186d565b61054661070c366004615086565b61190d565b61054661071f366004614b31565b611959565b6105466107323660046150a0565b611c75565b61041f610745366004614af9565b6001600160a01b039081166000908152601360205260409020600101541690565b6105ed611d9e565b610776611dc3565b6040516104339c9b9a99989796959493929190615403565b61054661079c366004614af9565b611f86565b6001546001600160a01b031661041f565b6107ba611ff8565b6040516104339493929190615275565b6008546001600160a01b031661041f565b6105466107e9366004614af9565b6122a9565b600854600160a01b900463ffffffff166106d6565b6004546001600160a01b031661041f565b6106a2610822366004614af9565b61231b565b6106d6610835366004614af9565b6001600160a01b0316600090815260136020526040902054600160e01b900463ffffffff1690565b6000546001600160a01b031661041f565b61054661087c366004614dfe565b612345565b61054661088f366004614af9565b612441565b6105466108a2366004614af9565b6124b3565b6105466108b53660046150a0565b6124e9565b6105466108c8366004614e42565b612679565b600854600160c01b900463ffffffff166106d6565b6106a26108f0366004614dd3565b6126b4565b6007546001600160a01b031661041f565b6105ed61270d565b61054661091c366004614af9565b612724565b600854600160e01b900461ffff165b60405161ffff9091168152602001610433565b61054661095136600461510c565b612796565b61095e61283f565b604051610433919061532d565b6005546001600160a01b031661041f565b6106a261098a366004614da8565b6128a0565b6105ed61099d3660046150a0565b6128d3565b6105466109b0366004614af9565b612902565b6105466109c3366004614d74565b61295b565b6105466109d63660046150d0565b6129b5565b6105466109e9366004614af9565b612e1a565b6003546001600160a01b031661041f565b6106d6610a0d366004614af9565b6001600160a01b0316600090815260136020526040902060010154600160a01b900463ffffffff1690565b610546610a46366004614ef3565b612f3a565b610a5e610a593660046150a0565b613006565b6040805182518152602080840151908201529181015190820152606001610433565b610546610a8e366004614c68565b613063565b610930610aa1366004614af9565b6001600160a01b0316600090815260136020526040902060010154600160f01b900461ffff1690565b61062d610ad8366004614af9565b6001600160a01b0316600090815260136020526040902054600160701b90046001600160701b031690565b610546610b113660046150a0565b6136a2565b610546610b2436600461510c565b613997565b610546610b37366004614af9565b6139e7565b6106d6610b4a366004614af9565b6001600160a01b0316600090815260136020526040902060010154600160c01b900463ffffffff1690565b6106a2610b83366004614c54565b613ad1565b610b9b610b96366004614af9565b613b78565b60405160019190910b8152602001610433565b610546610bbc366004614d24565b613ba5565b600d546105ed565b600060148281548110610bec57634e487b7160e01b600052603260045260246000fd5b6000918252602090912001546001600160a01b031692915050565b60008181526012602052604081206001810154815491929091610c2983613ca1565b610c339190615806565b9050610c3d61270d565b811115610c8a5760405162461bcd60e51b8152602060048201526016602482015275496e73756666696369656e74206c697175696469747960501b60448201526064015b60405180910390fd5b600154610ca1906001600160a01b03163383613cc3565b6000610cb08460000154613d26565b600185018190559050610cc38184615806565b600f6000828254610cd49190615806565b90915550610ce3905082613d3e565b5050505050565b6060600b8054610cf990615866565b80601f0160208091040260200160405190810160405280929190818152602001828054610d2590615866565b8015610d725780601f10610d4757610100808354040283529160200191610d72565b820191906000526020600020905b815481529060010190602001808311610d5557829003601f168201915b5050505050905090565b6000600a8281548110610bec57634e487b7160e01b600052603260045260246000fd5b6000546001600160a01b03163314610dc95760405162461bcd60e51b8152600401610c819061554e565b828114610e0f5760405162461bcd60e51b8152602060048201526014602482015273092dcecc2d8d2c840c2e4e4c2f240d8cadccee8d60631b6044820152606401610c81565b60005b83811015610ce357610e52858583818110610e3d57634e487b7160e01b600052603260045260246000fd5b90506020020160208101906108229190614af9565b610e6e5760405162461bcd60e51b8152600401610c8190615583565b610ee0858583818110610e9157634e487b7160e01b600052603260045260246000fd5b9050602002016020810190610ea69190614af9565b848484818110610ec657634e487b7160e01b600052603260045260246000fd5b9050602002016020810190610edb9190615086565b613d99565b80610eea816158a1565b915050610e12565b6000546001600160a01b03163314610f1c5760405162461bcd60e51b8152600401610c819061554e565b6001600160a01b038516610f675760405162461bcd60e51b815260206004820152601260248201527124b73b30b634b2102130b9b2902a37b5b2b760711b6044820152606401610c81565b60145461ffff11610fba5760405162461bcd60e51b815260206004820152601d60248201527f43616e6e6f74207265676973746572206d6f72652073657276696365730000006044820152606401610c81565b8163ffffffff168363ffffffff1611156110165760405162461bcd60e51b815260206004820152601b60248201527f496e76616c6964206d696e20616e64206d617820706572696f647300000000006044820152606401610c81565b60008763ffffffff16116110605760405162461bcd60e51b8152602060048201526011602482015270496e76616c69642068616c66206c69666560781b6044820152606401610c81565b600454600090611078906001600160a01b0316613e39565b90506000600160009054906101000a90046001600160a01b03166001600160a01b03166395d89b416040518163ffffffff1660e01b815260040160006040518083038186803b1580156110ca57600080fd5b505afa1580156110de573d6000803e3d6000fd5b505050506040513d6000823e601f3d908101601f191682016040526111069190810190614e81565b90506000818b60405160200161111d929190615239565b60408051601f19818403018152908290526303bf912560e11b825291506001600160a01b0384169063077f224a9061115d908f908590309060040161538d565b600060405180830381600087803b15801561117757600080fd5b505af115801561118b573d6000803e3d6000fd5b5050505060006040518061010001604052808b6001600160701b03168152602001866001600160701b031681526020018c63ffffffff1681526020018a6001600160a01b031681526020018863ffffffff1681526020018763ffffffff1681526020018961ffff16815260200160148054905061ffff1681525090508060136000866001600160a01b03166001600160a01b0316815260200190815260200160002060008201518160000160006101000a8154816001600160701b0302191690836001600160701b03160217905550602082015181600001600e6101000a8154816001600160701b0302191690836001600160701b03160217905550604082015181600001601c6101000a81548163ffffffff021916908363ffffffff16021790555060608201518160010160006101000a8154816001600160a01b0302191690836001600160a01b0316021790555060808201518160010160146101000a81548163ffffffff021916908363ffffffff16021790555060a08201518160010160186101000a81548163ffffffff021916908363ffffffff16021790555060c082015181600101601c6101000a81548161ffff021916908361ffff16021790555060e082015181600101601e6101000a81548161ffff021916908361ffff1602179055509050506014849080600181540180825580915050600190039060005260206000200160009091909190916101000a8154816001600160a01b0302191690836001600160a01b03160217905550600560009054906101000a90046001600160a01b03166001600160a01b031663508ee32c856040518263ffffffff1660e01b815260040161140b91906001600160a01b0391909116815260200190565b600060405180830381600087803b15801561142557600080fd5b505af1158015611439573d6000803e3d6000fd5b50506040805163ffffffff8f1681526001600160701b038e1660208201526001600160a01b03881693507f18706585e986f622c9d914abfb256d563b9ea274cd5d49124e0518aa314b8c129250015b60405180910390a250505050505050505050505050565b6060806114aa61489e565b836001600160a01b03166306fdde036040518163ffffffff1660e01b815260040160006040518083038186803b1580156114e357600080fd5b505afa1580156114f7573d6000803e3d6000fd5b505050506040513d6000823e601f3d908101601f1916820160405261151f9190810190614e81565b846001600160a01b03166395d89b416040518163ffffffff1660e01b815260040160006040518083038186803b15801561155857600080fd5b505afa15801561156c573d6000803e3d6000fd5b505050506040513d6000823e601f3d908101601f191682016040526115949190810190614e81565b6001600160a01b0395861660009081526013602090815260409182902082516101008101845281546001600160701b038082168352600160701b8204169382019390935263ffffffff600160e01b938490048116948201949094526001909101549889166060820152600160a01b890483166080820152600160c01b890490921660a083015261ffff908804811660c0830152600160f01b90970490961660e0870152909590949350915050565b60008461164e8161231b565b61166a5760405162461bcd60e51b8152600401610c8190615583565b611673856117a2565b61168f5760405162461bcd60e51b8152600401610c81906154fb565b61169986846126b4565b6116b55760405162461bcd60e51b8152600401610c81906155af565b60008060006116c689898989613ed6565b91945092509050806116d883856156e1565b6116e291906156e1565b6001600160701b03169998505050505050505050565b6000546001600160a01b031633146117225760405162461bcd60e51b8152600401610c819061554e565b60085463ffffffff600160c01b9091048116908216111561177c5760405162461bcd60e51b8152602060048201526014602482015273125b9d985b1a590819dc9858d9481c195c9a5bd960621b6044820152606401610c81565b6008805463ffffffff909216600160a01b0263ffffffff60a01b19909216919091179055565b6001600160a01b0316600090815260096020526040812054600190810b900b1390565b6004546001600160a01b0316156118145760405162461bcd60e51b8152602060048201526013602482015272105b1c9958591e481a5b9a5d1a585b1a5e9959606a1b6044820152606401610c81565b600480546001600160a01b038087166001600160a01b031992831617909255600180548684169083161790556002805485841690831617905560038054928416929091169190911790556118678361408b565b50505050565b6000826118798161231b565b6118955760405162461bcd60e51b8152600401610c8190615583565b600154604051638cc7104f60e01b81526001600160a01b0391821660048201523360248201526044810185905290851690638cc7104f90606401600060405180830381600087803b1580156118e957600080fd5b505af11580156118fd573d6000803e3d6000fd5b50505050600191505b5092915050565b6000546001600160a01b031633146119375760405162461bcd60e51b8152600401610c819061554e565b6008805461ffff909216600160e01b0261ffff60e01b19909216919091179055565b6003546001600160a01b031633146119a55760405162461bcd60e51b815260206004820152600f60248201526e2737ba102137b93937bbaa37b5b2b760891b6044820152606401610c81565b600081815260116020908152604080832081516101008101835281546001600160701b03808216835261ffff600160701b808404821697850188905263ffffffff600160801b8504811697860197909752600160a01b840487166060860152600160c01b840487166080860152600160e01b90930490951660a084015260019093015492831660c083015290910490911660e08201526014805491939290918110611a6057634e487b7160e01b600052603260045260246000fd5b6000918252602090912001546001600160a01b0316905080611a945760405162461bcd60e51b8152600401610c81906154ac565b606082015163ffffffff1642116001600160a01b038681161590861680159030148015611ac957611ac4876136a2565b611c6a565b8115611b4357855160405163079cc67960e41b81526001600160a01b038b811660048301526001600160701b039092166024820152908616906379cc6790906044015b600060405180830381600087803b158015611b2657600080fd5b505af1158015611b3a573d6000803e3d6000fd5b50505050611c6a565b8215611b8a5785516040516340c10f1960e01b81526001600160a01b038a811660048301526001600160701b039092166024820152908616906340c10f1990604401611b0c565b83611c2b5785516040516333bebb7760e01b81526001600160a01b038b811660048301528a811660248301526001600160701b039092166044820152908616906333bebb7790606401602060405180830381600087803b158015611bed57600080fd5b505af1158015611c01573d6000803e3d6000fd5b505050506040513d601f19601f82011682018060405250810190611c259190614c34565b50611c6a565b60405162461bcd60e51b81526020600482015260146024820152732737ba1030b63637bbb2b2103a3930b739b332b960611b6044820152606401610c81565b505050505050505050565b600154611c8d906001600160a01b03163330846141a2565b6000600f5460001415611ca1575080611cad565b611caa82613ca1565b90505b81600c6000828254611cbf919061570c565b90915550506002546040516335313c2160e11b81523360048201526000916001600160a01b031690636a62784290602401602060405180830381600087803b158015611d0a57600080fd5b505af1158015611d1e573d6000803e3d6000fd5b505050506040513d601f19601f82011682018060405250810190611d4291906150b8565b6040805160608101825285815260208082018681524383850190815260008681526012909352938220925183555160018301559151600290910155600f80549293508492909190611d9490849061570c565b9091555050505050565b6000611da86141da565b6001600160701b0316600c54611dbe919061570c565b905090565b600f54600454600854600c54600d54600e546010805460609788976000978897889788978897889788978897889788979496600b96939563ffffffff600160a01b94859004811696948404811695600160c01b850482169561ffff600160e01b9687900416959394936001600160701b0380841694600160701b8504909116939190910416908c90611e5490615866565b80601f0160208091040260200160405190810160405280929190818152602001828054611e8090615866565b8015611ecd5780601f10611ea257610100808354040283529160200191611ecd565b820191906000526020600020905b815481529060010190602001808311611eb057829003601f168201915b50505050509b508a8054611ee090615866565b80601f0160208091040260200160405190810160405280929190818152602001828054611f0c90615866565b8015611f595780601f10611f2e57610100808354040283529160200191611f59565b820191906000526020600020905b815481529060010190602001808311611f3c57829003601f168201915b50505050509a509b509b509b509b509b509b509b509b509b509b509b509b50909192939495969798999a9b565b6000546001600160a01b03163314611fb05760405162461bcd60e51b8152600401610c819061554e565b6001600160a01b038116611fd65760405162461bcd60e51b8152600401610c81906154d5565b600780546001600160a01b0319166001600160a01b0392909216919091179055565b601454606090819081908190806001600160401b0381111561202a57634e487b7160e01b600052604160045260246000fd5b604051908082528060200260200182016040528015612053578160200160208202803683370190505b509450806001600160401b0381111561207c57634e487b7160e01b600052604160045260246000fd5b6040519080825280602002602001820160405280156120af57816020015b606081526020019060019003908161209a5790505b509350806001600160401b038111156120d857634e487b7160e01b600052604160045260246000fd5b60405190808252806020026020018201604052801561210b57816020015b60608152602001906001900390816120f65790505b509250806001600160401b0381111561213457634e487b7160e01b600052604160045260246000fd5b60405190808252806020026020018201604052801561216d57816020015b61215a61489e565b8152602001906001900390816121525790505b50915060005b818110156122a15760006014828154811061219e57634e487b7160e01b600052603260045260246000fd5b60009182526020822001546001600160a01b0316915080806121bf8461149f565b925092509250838a86815181106121e657634e487b7160e01b600052603260045260246000fd5b60200260200101906001600160a01b031690816001600160a01b0316815250508289868151811061222757634e487b7160e01b600052603260045260246000fd5b60200260200101819052508188868151811061225357634e487b7160e01b600052603260045260246000fd5b60200260200101819052508087868151811061227f57634e487b7160e01b600052603260045260246000fd5b6020026020010181905250505050508080612299906158a1565b915050612173565b505090919293565b6000546001600160a01b031633146122d35760405162461bcd60e51b8152600401610c819061554e565b6001600160a01b0381166122f95760405162461bcd60e51b8152600401610c81906154d5565b600580546001600160a01b0319166001600160a01b0392909216919091179055565b6001600160a01b0316600090815260136020526040902054600160e01b900463ffffffff16151590565b6000546001600160a01b0316331461236f5760405162461bcd60e51b8152600401610c819061554e565b826123798161231b565b6123955760405162461bcd60e51b8152600401610c8190615583565b8163ffffffff168363ffffffff1611156123e55760405162461bcd60e51b8152602060048201526011602482015270496e76616c6964206475726174696f6e7360781b6044820152606401610c81565b506001600160a01b03929092166000908152601360205260409020600101805467ffffffffffffffff60a01b1916600160a01b63ffffffff9384160263ffffffff60c01b191617600160c01b9290931691909102919091179055565b6000546001600160a01b0316331461246b5760405162461bcd60e51b8152600401610c819061554e565b6001600160a01b0381166124915760405162461bcd60e51b8152600401610c81906154d5565b600880546001600160a01b0319166001600160a01b0392909216919091179055565b6000546001600160a01b031633146124dd5760405162461bcd60e51b8152600401610c819061554e565b6124e681614242565b50565b6000818152601260205260409020600281015443116125605760405162461bcd60e51b815260206004820152602d60248201527f43616e6e6f742061646420616e642072656d6f7665206c69717569646974792060448201526c696e2073616d6520626c6f636b60981b6064820152608401610c81565b6001810154600061257082613ca1565b905061257a61270d565b8111156125c25760405162461bcd60e51b8152602060048201526016602482015275496e73756666696369656e74206c697175696469747960501b6044820152606401610c81565b600254604051630852cd8d60e31b8152600481018690526001600160a01b03909116906342966c6890602401600060405180830381600087803b15801561260857600080fd5b505af115801561261c573d6000803e3d6000fd5b505060015461263892506001600160a01b031690503383613cc3565b61264181613d3e565b81600f60008282546126539190615806565b909155505050600092835250506012602052604081208181556001810182905560020155565b6000546001600160a01b031633146126a35760405162461bcd60e51b8152600401610c819061554e565b6126af600b83836148e2565b505050565b6001600160a01b0382166000908152601360205260408120600181015463ffffffff808516600160a01b90920416118015906127055750600181015463ffffffff600160c01b909104811690841611155b949350505050565b6000600d5461271a611d9e565b611dbe9190615806565b6000546001600160a01b0316331461274e5760405162461bcd60e51b8152600401610c819061554e565b6001600160a01b0381166127745760405162461bcd60e51b8152600401610c81906154d5565b600680546001600160a01b0319166001600160a01b0392909216919091179055565b6000546001600160a01b031633146127c05760405162461bcd60e51b8152600401610c819061554e565b60085463ffffffff808316600160a01b9092041611156128195760405162461bcd60e51b8152602060048201526014602482015273125b9d985b1a590819dc9858d9481c195c9a5bd960621b6044820152606401610c81565b6008805463ffffffff909216600160c01b0263ffffffff60c01b19909216919091179055565b60606014805480602002602001604051908101604052809291908181526020018280548015610d7257602002820191906000526020600020905b81546001600160a01b03168152600190910190602001808311612879575050505050905090565b6000826128ac8161231b565b6128c85760405162461bcd60e51b8152600401610c8190615583565b612705843385613ad1565b6000818152601260205260408120805460018201546128f190613ca1565b6128fb9190615806565b9392505050565b6000546001600160a01b0316331461292c5760405162461bcd60e51b8152600401610c819061554e565b6001600160a01b0381166129525760405162461bcd60e51b8152600401610c81906154d5565b6124e68161408b565b6000546001600160a01b031633146129855760405162461bcd60e51b8152600401610c819061554e565b8161298f8161231b565b6129ab5760405162461bcd60e51b8152600401610c8190615583565b6126af8383613d99565b6129be836117a2565b6129da5760405162461bcd60e51b8152600401610c81906154fb565b60008481526011602052604081208054601480549293929091600160701b900461ffff16908110612a1b57634e487b7160e01b600052603260045260246000fd5b6000918252602090912001546001600160a01b0316905080612a4f5760405162461bcd60e51b8152600401610c81906154ac565b612a5981846126b4565b612a755760405162461bcd60e51b8152600401610c81906155af565b81544290612a91908590600160a01b900463ffffffff16615724565b63ffffffff161015612ad85760405162461bcd60e51b815260206004820152601060248201526f24b73b30b634b210323ab930ba34b7b760811b6044820152606401610c81565b8154600d80546001600160701b0390921691600090612af8908490615806565b909155505081546000908190612b1b90849089906001600160701b031688613ed6565b508554600d80549395509193506001600160701b031691600090612b4090849061570c565b9091555060009050612b5282846156e1565b6001600160701b0316905086811115612ba35760405162461bcd60e51b8152602060048201526013602482015272536c69707061676520697320746f6f2062696760681b6044820152606401610c81565b612bb86001600160a01b0389163330846141a2565b60065460015460405163029b465d60e01b81526001600160a01b038b81166004830152602482018590529182166044820152600092919091169063029b465d90606401602060405180830381600087803b158015612c1557600080fd5b505af1158015612c29573d6000803e3d6000fd5b505050506040513d601f19601f82011682018060405250810190612c4d91906150b8565b9050600082612c65836001600160701b03871661577a565b612c6f9190615743565b600854600154919250612c8f916001600160a01b03908116911683613cc3565b6000612c9b8284615806565b9050612ca6816142e9565b8754600160a01b900463ffffffff16612cbf8a82615724565b895463ffffffff60a01b1916600160a01b63ffffffff928316810291909117808c55600854612cf8939083900481169290910416615724565b895463ffffffff60c01b1916600160c01b63ffffffff928316810291909117808c55600854612d3593929004821691600160a01b90910416615724565b895463ffffffff91909116600160e01b026001600160e01b0390911617895560055460405163f8642f2960e01b8152600481018f90526001600160a01b039091169063f8642f2990602401600060405180830381600087803b158015612d9a57600080fd5b505af1158015612dae573d6000803e3d6000fd5b50505050876001600160a01b03167f9853650269815e203c5c9e228db9ca05cc6037f2c2723c94ed3260cf98324c998e838c60000160149054906101000a900463ffffffff166040516114889392919092835263ffffffff918216602084015216604082015260600190565b6000546001600160a01b031615612e855760405162461bcd60e51b815260206004820152602960248201527f496e697469616c697a61626c654f776e61626c653a20616c726561647920696e6044820152681a5d1a585b1a5e995960ba1b6064820152608401610c81565b6001600160a01b038116612eef5760405162461bcd60e51b815260206004820152602b60248201527f496e697469616c697a61626c654f776e61626c653a20696e76616c696420696e60448201526a34ba34b0b61037bbb732b960a91b6064820152608401610c81565b600080546001600160a01b0319166001600160a01b03831690811782556040519091907f8be0079c531659141344cd1fd0a4f28419497f9722a3daafe3b4186f6b6457e0908290a350565b60108054612f4790615866565b159050612f8c5760405162461bcd60e51b8152602060048201526013602482015272105b1c9958591e481a5b9a5d1a585b1a5e9959606a1b6044820152606401610c81565b612f9581612e1a565b8551612fa8906010906020890190614966565b50612fb5600b86866148e2565b50600580546001600160a01b03199081166001600160a01b03958616179091556006805482169385169390931790925560088054831691909316908117909255600780549091169091179055505050565b61302a60405180606001604052806000815260200160008152602001600081525090565b50600090815260126020908152604091829020825160608101845281548152600182015492810192909252600201549181019190915290565b8461306d8161231b565b6130895760405162461bcd60e51b8152600401610c8190615583565b613092856117a2565b6130ae5760405162461bcd60e51b8152600401610c81906154fb565b6130b886836126b4565b6130d45760405162461bcd60e51b8152600401610c81906155af565b6130dc61270d565b846001600160701b0316111561312c5760405162461bcd60e51b8152602060048201526015602482015274496e73756666696369656e7420726573657276657360581b6044820152606401610c81565b60008060008061313e8a8a8a89613ed6565b95509093509150839050600061315483856156e1565b6001600160701b0316905087856001600160701b031682613175919061570c565b11156131b95760405162461bcd60e51b8152602060048201526013602482015272536c69707061676520697320746f6f2062696760681b6044820152606401610c81565b6131ce6001600160a01b038b163330846141a2565b60065460015460405163029b465d60e01b81526001600160a01b038d81166004830152602482018590529182166044820152600092919091169063029b465d90606401602060405180830381600087803b15801561322b57600080fd5b505af115801561323f573d6000803e3d6000fd5b505050506040513d601f19601f8201168201806040525081019061326391906150b8565b905060008261327b836001600160701b03881661577a565b6132859190615743565b6008546001549192506132a5916001600160a01b03908116911683613cc3565b8a6001600160701b0316600d60008282546132c0919061570c565b90915550600090506132d28284615806565b90506132dd816142e9565b505060035461330a95506001600160a01b038c81169550339450169150506001600160701b0385166141a2565b4260006133178583615724565b90506000600360009054906101000a90046001600160a01b03166001600160a01b031663caa0f92a6040518163ffffffff1660e01b8152600401602060405180830381600087803b15801561336b57600080fd5b505af115801561337f573d6000803e3d6000fd5b505050506040513d601f19601f820116820180604052508101906133a391906150b8565b60408051610100810182526001600160701b038b1681526001600160a01b038d166000908152601360209081529083902060010154600160f01b900461ffff169082015263ffffffff86811692820192909252848216606082015260085492935091608083019161341c91600160a01b90041685615724565b63ffffffff168152602001600860189054906101000a900463ffffffff16846134459190615724565b63ffffffff168152602001856001600160701b031681526020016134688b613b78565b61ffff9081169091526000838152601160209081526040918290208451815492860151868501516060880151608089015160a08a01516001600160701b039586166001600160801b031998891617600160701b958b1686021767ffffffffffffffff60801b1916600160801b63ffffffff9586160263ffffffff60a01b191617600160a01b93851693909302929092176001600160c01b0316600160c01b918416919091026001600160e01b031617600160e01b929091169190910217835560c08701516001909301805460e0909801519390921696909316959095179316029190911790915560035490516335313c2160e11b815233600482015282916001600160a01b031690636a62784290602401602060405180830381600087803b15801561359357600080fd5b505af11580156135a7573d6000803e3d6000fd5b505050506040513d601f19601f820116820180604052508101906135cb91906150b8565b146135e657634e487b7160e01b600052600160045260246000fd5b60055460405163f8642f2960e01b8152600481018390526001600160a01b039091169063f8642f2990602401600060405180830381600087803b15801561362c57600080fd5b505af1158015613640573d6000803e3d6000fd5b50506040805184815263ffffffff878116602083015286168183015290516001600160a01b038e1693507f9853650269815e203c5c9e228db9ca05cc6037f2c2723c94ed3260cf98324c9992509081900360600190a250505050505050505050565b60008181526011602052604081208054601480549293929091600160701b900461ffff169081106136e357634e487b7160e01b600052603260045260246000fd5b6000918252602090912001546001600160a01b03169050806137175760405162461bcd60e51b8152600401610c81906154ac565b6003546040516331a9108f60e11b8152600481018590526000916001600160a01b031690636352211e9060240160206040518083038186803b15801561375c57600080fd5b505afa158015613770573d6000803e3d6000fd5b505050506040513d601f19601f820116820180604052508101906137949190614b15565b8354909150429063ffffffff808316600160c01b9092041610806137c05750336001600160a01b038316145b61382a5760405162461bcd60e51b815260206004820152603560248201527f4f6e6c7920626f72726f7765722063616e2072657475726e2077697468696e20604482015274189bdc9c9bddd95c8819dc9858d9481c195c9a5bd9605a1b6064820152608401610c81565b835463ffffffff808316600160e01b9092041610806138515750336001600160a01b038316145b8061386657506007546001600160a01b031633145b6138e65760405162461bcd60e51b815260206004820152604560248201527f4f6e6c7920626f72726f776572206f7220656e74657270726973652063616e2060448201527f72657475726e2077697468696e20656e74657270726973652067726163652070606482015264195c9a5bd960da1b608482015260a401610c81565b8354600d80546001600160701b0390921691600090613906908490615806565b9091555050600354604051633f34d4cf60e21b8152600481018790523360248201526001600160a01b039091169063fcd3533c90604401600060405180830381600087803b15801561395757600080fd5b505af115801561396b573d6000803e3d6000fd5b5050506000958652505060116020525050604082209182555060010180546001600160801b0319169055565b6000546001600160a01b031633146139c15760405162461bcd60e51b8152600401610c819061554e565b6004805463ffffffff909216600160a01b0263ffffffff60a01b19909216919091179055565b6000546001600160a01b03163314613a115760405162461bcd60e51b8152600401610c819061554e565b6001600160a01b038116613a765760405162461bcd60e51b815260206004820152602660248201527f4f776e61626c653a206e6577206f776e657220697320746865207a65726f206160448201526564647265737360d01b6064820152608401610c81565b600080546040516001600160a01b03808516939216917f8be0079c531659141344cd1fd0a4f28419497f9722a3daafe3b4186f6b6457e091a3600080546001600160a01b0319166001600160a01b0392909216919091179055565b600083613add8161231b565b613af95760405162461bcd60e51b8152600401610c8190615583565b60015460405163a1571a5760e01b81526001600160a01b0391821660048201523360248201528582166044820152606481018590529086169063a1571a5790608401600060405180830381600087803b158015613b5557600080fd5b505af1158015613b69573d6000803e3d6000fd5b50600198975050505050505050565b6001600160a01b038116600090815260096020526040812054613b9f90600190810b615799565b92915050565b6000546001600160a01b03163314613bcf5760405162461bcd60e51b8152600401610c819061554e565b83613bd98161231b565b613bf55760405162461bcd60e51b8152600401610c8190615583565b6001600160a01b038316613c405760405162461bcd60e51b815260206004820152601260248201527124b73b30b634b2102130b9b2902a37b5b2b760711b6044820152606401610c81565b506001600160a01b0393841660009081526013602052604090208054600182018054949096166001600160a01b0319909416939093179094556001600160701b03908116600160701b026001600160e01b0319909216921691909117179055565b6000600f5482613caf611d9e565b613cb9919061577a565b613b9f9190615743565b6040516001600160a01b0383166024820152604481018290526126af90849063a9059cbb60e01b906064015b60408051601f198184030181529190526020810180516001600160e01b03166001600160e01b031990931692909217909152614365565b6000613d30611d9e565b82600f54613cb9919061577a565b80600c5410613d645780600c6000828254613d599190615806565b909155506124e69050565b6000613d6e614437565b6001600160701b031690508181600c54613d88919061570c565b613d929190615806565b600c555050565b61138861ffff82161115613dfd5760405162461bcd60e51b815260206004820152602560248201527f4d6178696d756d2073657276696365206665652070657263656e7420746872656044820152641cda1bdb1960da1b6064820152608401610c81565b6001600160a01b039091166000908152601360205260409020600101805461ffff909216600160e01b0261ffff60e01b19909216919091179055565b6000604051733d602d80600a3d3981f3363d3d373d3d3d363d7360601b81528260601b60148201526e5af43d82803e903d91602b57fd5bf360881b60288201526037816000f09150506001600160a01b038116613ed15760405162461bcd60e51b8152602060048201526016602482015275115490cc4c4d8dce8818dc99585d194819985a5b195960521b6044820152606401610c81565b919050565b600554604051630641977d60e21b81526001600160a01b0386811660048301526001600160701b038516602483015263ffffffff8416604483015260009283928392839216906319065df49060640160206040518083038186803b158015613f3d57600080fd5b505afa158015613f51573d6000803e3d6000fd5b505050506040513d601f19601f82011682018060405250810190613f75919061506a565b90506000613f8389836144c3565b6006546001600160a01b038b81166000908152601360205260408082206001015490516314fdc96760e11b815290831660048201526001600160701b03871660248201528c83166044820152939450929116906329fb92ce9060640160206040518083038186803b158015613ff757600080fd5b505afa15801561400b573d6000803e3d6000fd5b505050506040513d601f19601f8201168201806040525081019061402f91906150b8565b9050826001600160701b031681836001600160701b0316614050919061577a565b61405a9190615743565b945061406f6001600160701b03861682615806565b955061407c8a8a8a61450b565b93505050509450945094915050565b6001600160a01b038116600090815260096020526040902054600190810b900b61412357600a8054600180820183557fc65a7bb8d6351c1cf70c95a316cc6a92839c986682d98bc35f958f4883f9d2a890910180546001600160a01b0319166001600160a01b039490941693841790559054600092835260096020526040909220805461ffff191661ffff9390920b92909216179055565b6001600160a01b038116600090815260096020526040812054600190810b900b12156124e6576001600160a01b03811660009081526009602052604090205461416e9060010b6158df565b6001600160a01b0382166000908152600960205260409020805460019290920b61ffff1661ffff1990921691909117905550565b6040516001600160a01b03808516602483015283166044820152606481018290526118679085906323b872dd60e01b90608401613cef565b600e546000906142259063ffffffff600160e01b8204169061420f906001600160701b0380821691600160701b9004166157de565b600454600160a01b900463ffffffff1642614622565b600e54611dbe9190600160701b90046001600160701b03166157de565b6001600160a01b038116600090815260096020526040902054600190810b900b61429e5760405162461bcd60e51b815260206004820152600d60248201526c24b73b30b634b2103a37b5b2b760991b6044820152606401610c81565b6001600160a01b038116600090815260096020526040812054600190810b900b13156124e6576001600160a01b03811660009081526009602052604090205461416e9060010b6158df565b6142f16141da565b600e805463ffffffff4216600160e01b026dffffffffffffffffffffffffffff60701b9091166001600160701b0393841617178082558392829161433e918591600160701b9004166156e1565b92506101000a8154816001600160701b0302191690836001600160701b0316021790555050565b60006143ba826040518060400160405280602081526020017f5361666545524332303a206c6f772d6c6576656c2063616c6c206661696c6564815250856001600160a01b03166147939092919063ffffffff16565b8051909150156126af57808060200190518101906143d89190614c34565b6126af5760405162461bcd60e51b815260206004820152602a60248201527f5361666545524332303a204552433230206f7065726174696f6e20646964206e6044820152691bdd081cdd58d8d9595960b21b6064820152608401610c81565b60006144416141da565b600e80546dffffffffffffffffffffffffffff19168082559192508291819061447b908490600160701b90046001600160701b03166157de565b92506101000a8154816001600160701b0302191690836001600160701b0316021790555042600e601c6101000a81548163ffffffff021916908363ffffffff16021790555090565b6001600160a01b0382166000908152601360205260408120600101546127109061450190600160e01b900461ffff166001600160701b03851661577a565b6128fb9190615743565b60085460009081906127109061453590600160e01b900461ffff166001600160701b03861661577a565b61453f9190615743565b6006546001600160a01b038781166000908152601360205260408082206001810154905491516314fdc96760e11b81529084166004820152600160701b9091046001600160701b031660248201528883166044820152939450929116906329fb92ce9060640160206040518083038186803b1580156145bd57600080fd5b505afa1580156145d1573d6000803e3d6000fd5b505050506040513d601f19601f820116820180604052508101906145f591906150b8565b9050806001600160701b0316826001600160701b0316106146165781614618565b805b9695505050505050565b60008463ffffffff168263ffffffff1610156146715760405162461bcd60e51b815260206004820152600e60248201526d125b9d985b1a59081c195c9a5bd960921b6044820152606401610c81565b61467b858361581d565b91506146878383615757565b63ffffffff16846001600160701b0316901c935082826146a791906158bc565b915063ffffffff821615806146c357506001600160701b038416155b156146cf575082612705565b60006001600160701b0385168163ffffffff8087169061470390871671b17217f7d1cf79abc9e3b39803f2f6af40f361577a565b61470d9190615743565b9050600160901b5b821561478657614725838561570c565b935080614732838561577a565b61473c9190615743565b925061474c600160901b8261570c565b90506147588385615806565b935080614765838561577a565b61476f9190615743565b925061477f600160901b8261570c565b9050614715565b5091979650505050505050565b6060612705848460008585843b6147ec5760405162461bcd60e51b815260206004820152601d60248201527f416464726573733a2063616c6c20746f206e6f6e2d636f6e74726163740000006044820152606401610c81565b600080866001600160a01b03168587604051614808919061521d565b60006040518083038185875af1925050503d8060008114614845576040519150601f19603f3d011682016040523d82523d6000602084013e61484a565b606091505b509150915061485a828286614865565b979650505050505050565b606083156148745750816128fb565b8251156148845782518084602001fd5b8160405162461bcd60e51b8152600401610c81919061537a565b6040805161010081018252600080825260208201819052918101829052606081018290526080810182905260a0810182905260c0810182905260e081019190915290565b8280546148ee90615866565b90600052602060002090601f0160209004810192826149105760008555614956565b82601f106149295782800160ff19823516178555614956565b82800160010185558215614956579182015b8281111561495657823582559160200191906001019061493b565b506149629291506149da565b5090565b82805461497290615866565b90600052602060002090601f0160209004810192826149945760008555614956565b82601f106149ad57805160ff1916838001178555614956565b82800160010185558215614956579182015b828111156149565782518255916020019190600101906149bf565b5b8082111561496257600081556001016149db565b60008083601f840112614a00578182fd5b5081356001600160401b03811115614a16578182fd5b6020830191508360208260051b8501011115614a3157600080fd5b9250929050565b60008083601f840112614a49578182fd5b5081356001600160401b03811115614a5f578182fd5b602083019150836020828501011115614a3157600080fd5b600082601f830112614a87578081fd5b8135614a9a614a95826156ba565b61568a565b818152846020838601011115614aae578283fd5b816020850160208301379081016020019190915292915050565b8035613ed181615956565b803561ffff81168114613ed157600080fd5b803563ffffffff81168114613ed157600080fd5b600060208284031215614b0a578081fd5b81356128fb81615941565b600060208284031215614b26578081fd5b81516128fb81615941565b600080600060608486031215614b45578182fd5b8335614b5081615941565b92506020840135614b6081615941565b929592945050506040919091013590565b60008060008060808587031215614b86578081fd5b8435614b9181615941565b93506020850135614ba181615941565b92506040850135614bb181615941565b91506060850135614bc181615941565b939692955090935050565b60008060008060408587031215614be1578384fd5b84356001600160401b0380821115614bf7578586fd5b614c03888389016149ef565b90965094506020870135915080821115614c1b578384fd5b50614c28878288016149ef565b95989497509550505050565b600060208284031215614c45578081fd5b815180151581146128fb578182fd5b600080600060608486031215614b45578081fd5b600080600080600060a08688031215614c7f578283fd5b8535614c8a81615941565b94506020860135614c9a81615941565b93506040860135614caa81615956565b925060608601359150614cbf60808701614ae5565b90509295509295909350565b60008060008060808587031215614ce0578182fd5b8435614ceb81615941565b93506020850135614cfb81615941565b92506040850135614d0b81615956565b9150614d1960608601614ae5565b905092959194509250565b60008060008060808587031215614d39578182fd5b8435614d4481615941565b93506020850135614d5481615956565b92506040850135614d6481615941565b91506060850135614bc181615956565b60008060408385031215614d86578182fd5b8235614d9181615941565b9150614d9f60208401614ad3565b90509250929050565b60008060408385031215614dba578182fd5b8235614dc581615941565b946020939093013593505050565b60008060408385031215614de5578182fd5b8235614df081615941565b9150614d9f60208401614ae5565b600080600060608486031215614e12578081fd5b8335614e1d81615941565b9250614e2b60208501614ae5565b9150614e3960408501614ae5565b90509250925092565b60008060208385031215614e54578182fd5b82356001600160401b03811115614e69578283fd5b614e7585828601614a38565b90969095509350505050565b600060208284031215614e92578081fd5b81516001600160401b03811115614ea7578182fd5b8201601f81018413614eb7578182fd5b8051614ec5614a95826156ba565b818152856020838501011115614ed9578384fd5b614eea82602083016020860161583a565b95945050505050565b60008060008060008060a08789031215614f0b578384fd5b86356001600160401b0380821115614f21578586fd5b614f2d8a838b01614a77565b97506020890135915080821115614f42578586fd5b50614f4f89828a01614a38565b9096509450506040870135614f6381615941565b92506060870135614f7381615941565b91506080870135614f8381615941565b809150509295509295509295565b60008060008060008060008060006101208a8c031215614faf578687fd5b89356001600160401b0380821115614fc5578889fd5b614fd18d838e01614a77565b9a5060208c0135915080821115614fe6578889fd5b50614ff38c828d01614a77565b98505061500260408b01614ae5565b965060608a013561501281615956565b955060808a013561502281615941565b945061503060a08b01614ad3565b935061503e60c08b01614ae5565b925061504c60e08b01614ae5565b915061505b6101008b01614ac8565b90509295985092959850929598565b60006020828403121561507b578081fd5b81516128fb81615956565b600060208284031215615097578081fd5b6128fb82614ad3565b6000602082840312156150b1578081fd5b5035919050565b6000602082840312156150c9578081fd5b5051919050565b600080600080608085870312156150e5578182fd5b8435935060208501356150f781615941565b925060408501359150614d1960608601614ae5565b60006020828403121561511d578081fd5b6128fb82614ae5565b600081518084526020808501808196508360051b81019150828601855b8581101561478657828403895261515b84835161516d565b98850198935090840190600101615143565b6000815180845261518581602086016020860161583a565b601f01601f19169290920160200192915050565b6001600160701b0380825116835280602083015116602084015250604081015163ffffffff808216604085015260018060a01b0360608401511660608501528060808401511660808501528060a08401511660a0850152505060c081015161520760c084018261ffff169052565b5060e08101516126af60e084018261ffff169052565b6000825161522f81846020870161583a565b9190910192915050565b6000835161524b81846020880161583a565b600160fd1b908301908152835161526981600184016020880161583a565b01600101949350505050565b6080808252855190820181905260009060209060a0840190828901845b828110156152b75781516001600160a01b031684529284019290840190600101615292565b505050838103828501526152cb8188615126565b905083810360408501526152df8187615126565b84810360608601528551808252838701925090830190845b8181101561531e5761530a838551615199565b9284019261010092909201916001016152f7565b50909998505050505050505050565b6020808252825182820181905260009190848201906040850190845b8181101561536e5783516001600160a01b031683529284019291840191600101615349565b50909695505050505050565b6020815260006128fb602083018461516d565b6060815260006153a0606083018661516d565b82810360208401526153b2818661516d565b91505060018060a01b0383166040830152949350505050565b60006101408083526153df8184018761516d565b905082810360208401526153f3818661516d565b9150506127056040830184615199565b6101808152600061541861018083018f61516d565b828103602084015261542a818f61516d565b9150508b604083015263ffffffff808c166060840152808b166080840152808a1660a08401525061ffff881660c08301528660e0830152856101008301526001600160701b03851661012083015261548e6101408301856001600160701b03169052565b63ffffffff83166101608301529d9c50505050505050505050505050565b6020808252600f908201526e125b9d985b1a59081d1bdad95b9259608a1b604082015260600190565b6020808252600c908201526b5a65726f206164647265737360a01b604082015260600190565b60208082526033908201527f496e746572657374207061796d656e7420746f6b656e2069732064697361626c6040820152721959081bdc881b9bdd081cdd5c1c1bdc9d1959606a1b606082015260800190565b6020808252818101527f4f776e61626c653a2063616c6c6572206973206e6f7420746865206f776e6572604082015260600190565b6020808252601290820152712ab735b737bbb7102837bbb2b92a37b5b2b760711b604082015260600190565b60208082526017908201527f4475726174696f6e206973206e6f7420616c6c6f776564000000000000000000604082015260600190565b6000610100820190506001600160701b03835116825261ffff6020840151166020830152604083015163ffffffff808216604085015280606086015116606085015250506080830151615641608084018263ffffffff169052565b5060a083015161565960a084018263ffffffff169052565b5060c083015161567460c08401826001600160701b03169052565b5060e083015161190660e084018261ffff169052565b604051601f8201601f191681016001600160401b03811182821017156156b2576156b261592b565b604052919050565b60006001600160401b038211156156d3576156d361592b565b50601f01601f191660200190565b60006001600160701b03808316818516808303821115615703576157036158ff565b01949350505050565b6000821982111561571f5761571f6158ff565b500190565b600063ffffffff808316818516808303821115615703576157036158ff565b60008261575257615752615915565b500490565b600063ffffffff8084168061576e5761576e615915565b92169190910492915050565b6000816000190483118215151615615794576157946158ff565b500290565b60008160010b8360010b82811281617fff19018312811516156157be576157be6158ff565b81617fff0183138116156157d4576157d46158ff565b5090039392505050565b60006001600160701b03838116908316818110156157fe576157fe6158ff565b039392505050565b600082821015615818576158186158ff565b500390565b600063ffffffff838116908316818110156157fe576157fe6158ff565b60005b8381101561585557818101518382015260200161583d565b838111156118675750506000910152565b600181811c9082168061587a57607f821691505b6020821081141561589b57634e487b7160e01b600052602260045260246000fd5b50919050565b60006000198214156158b5576158b56158ff565b5060010190565b600063ffffffff808416806158d3576158d3615915565b92169190910692915050565b60008160010b617fff198114156158f8576158f86158ff565b9003919050565b634e487b7160e01b600052601160045260246000fd5b634e487b7160e01b600052601260045260246000fd5b634e487b7160e01b600052604160045260246000fd5b6001600160a01b03811681146124e657600080fd5b6001600160701b03811681146124e657600080fdfea2646970667358221220e74a5b62e1c4e1d3ea9f056d0f364f9cb329b26cdc7883ae2da3662969a68a3664736f6c63430008040033",
  "linkReferences": {},
  "deployedLinkReferences": {}
}