{
  "_format": "hh-sol-artifact-1",
  "contractName": "Enterprise",
  "sourceName": "contracts/Enterprise.sol",
  "abi": [
    {
      "anonymous": false,
      "inputs": [
        {
          "indexed": true,
          "internalType": "address",
          "name": "powerToken",
          "type": "address"
        },
        {
          "indexed": false,
          "internalType": "uint256",
          "name": "tokenId",
          "type": "uint256"
        },
        {
          "indexed": false,
          "internalType": "uint32",
          "name": "from",
          "type": "uint32"
        },
        {
          "indexed": false,
          "internalType": "uint32",
          "name": "to",
          "type": "uint32"
        }
      ],
      "name": "Borrowed",
      "type": "event"
    },
    {
      "anonymous": false,
      "inputs": [
        {
          "indexed": true,
          "internalType": "address",
          "name": "previousOwner",
          "type": "address"
        },
        {
          "indexed": true,
          "internalType": "address",
          "name": "newOwner",
          "type": "address"
        }
      ],
      "name": "OwnershipTransferred",
      "type": "event"
    },
    {
      "anonymous": false,
      "inputs": [
        {
          "indexed": true,
          "internalType": "address",
          "name": "powerToken",
          "type": "address"
        },
        {
          "indexed": false,
          "internalType": "uint32",
          "name": "halfLife",
          "type": "uint32"
        },
        {
          "indexed": false,
          "internalType": "uint112",
          "name": "factor",
          "type": "uint112"
        }
      ],
      "name": "ServiceRegistered",
      "type": "event"
    },
    {
      "inputs": [
        {
          "internalType": "uint256",
          "name": "liquidityAmount",
          "type": "uint256"
        }
      ],
      "name": "addLiquidity",
      "outputs": [],
      "stateMutability": "nonpayable",
      "type": "function"
    },
    {
      "inputs": [
        {
          "internalType": "contract IPowerToken",
          "name": "powerToken",
          "type": "address"
        },
        {
          "internalType": "contract IERC20",
          "name": "paymentToken",
          "type": "address"
        },
        {
          "internalType": "uint112",
          "name": "amount",
          "type": "uint112"
        },
        {
          "internalType": "uint256",
          "name": "maximumPayment",
          "type": "uint256"
        },
        {
          "internalType": "uint32",
          "name": "duration",
          "type": "uint32"
        }
      ],
      "name": "borrow",
      "outputs": [],
      "stateMutability": "nonpayable",
      "type": "function"
    },
    {
      "inputs": [
        {
          "internalType": "contract IPowerToken",
          "name": "powerToken",
          "type": "address"
        },
        {
          "internalType": "contract IERC20",
          "name": "paymentToken",
          "type": "address"
        },
        {
          "internalType": "uint112",
          "name": "amount",
          "type": "uint112"
        },
        {
          "internalType": "uint32",
          "name": "duration",
          "type": "uint32"
        }
      ],
      "name": "estimateLoan",
      "outputs": [
        {
          "internalType": "uint112",
          "name": "interest",
          "type": "uint112"
        },
        {
          "internalType": "uint112",
          "name": "lien",
          "type": "uint112"
        },
        {
          "internalType": "uint112",
          "name": "enterpriseFee",
          "type": "uint112"
        }
      ],
      "stateMutability": "view",
      "type": "function"
    },
    {
      "inputs": [],
      "name": "getAvailableReserve",
      "outputs": [
        {
          "internalType": "uint256",
          "name": "",
          "type": "uint256"
        }
      ],
      "stateMutability": "view",
      "type": "function"
    },
    {
      "inputs": [],
      "name": "getEnterpriseCollector",
      "outputs": [
        {
          "internalType": "address",
          "name": "",
          "type": "address"
        }
      ],
      "stateMutability": "view",
      "type": "function"
    },
    {
      "inputs": [],
      "name": "getEnterpriseFee",
      "outputs": [
        {
          "internalType": "uint256",
          "name": "",
          "type": "uint256"
        }
      ],
      "stateMutability": "view",
      "type": "function"
    },
    {
      "inputs": [],
      "name": "getEnterpriseVault",
      "outputs": [
        {
          "internalType": "address",
          "name": "",
          "type": "address"
        }
      ],
      "stateMutability": "view",
      "type": "function"
    },
    {
      "inputs": [],
      "name": "getInfo",
      "outputs": [
        {
          "internalType": "uint256",
          "name": "reserve",
          "type": "uint256"
        },
        {
          "internalType": "uint256",
          "name": "availableReserve",
          "type": "uint256"
        },
        {
          "internalType": "uint256",
          "name": "totalShares",
          "type": "uint256"
        },
        {
          "internalType": "string",
          "name": "name",
          "type": "string"
        },
        {
          "internalType": "address",
          "name": "loanEstimator",
          "type": "address"
        },
        {
          "internalType": "address",
          "name": "previousEstimator",
          "type": "address"
        },
        {
          "internalType": "uint32",
          "name": "loanEstimatorChangeTime",
          "type": "uint32"
        },
        {
          "internalType": "uint256",
          "name": "enterpriseFee",
          "type": "uint256"
        },
        {
          "internalType": "uint256",
          "name": "previousEnterpriseFee",
          "type": "uint256"
        },
        {
          "internalType": "uint32",
          "name": "enterpriseFeeChangeTime",
          "type": "uint32"
        }
      ],
      "stateMutability": "view",
      "type": "function"
    },
    {
      "inputs": [],
      "name": "getInterestToken",
      "outputs": [
        {
          "internalType": "contract IInterestToken",
          "name": "",
          "type": "address"
        }
      ],
      "stateMutability": "view",
      "type": "function"
    },
    {
      "inputs": [],
      "name": "getLiquidityToken",
      "outputs": [
        {
          "internalType": "contract IERC20",
          "name": "",
          "type": "address"
        }
      ],
      "stateMutability": "view",
      "type": "function"
    },
    {
      "inputs": [],
      "name": "getLoanCostEstimator",
      "outputs": [
        {
          "internalType": "contract ILoanCostEstimator",
          "name": "",
          "type": "address"
        }
      ],
      "stateMutability": "view",
      "type": "function"
    },
    {
      "inputs": [
        {
          "internalType": "uint256",
          "name": "tokenId",
          "type": "uint256"
        }
      ],
      "name": "getLoanInfo",
      "outputs": [
        {
          "components": [
            {
              "internalType": "uint112",
              "name": "amount",
              "type": "uint112"
            },
            {
              "internalType": "uint16",
              "name": "powerTokenIndex",
              "type": "uint16"
            },
            {
              "internalType": "uint32",
              "name": "borrowingTime",
              "type": "uint32"
            },
            {
              "internalType": "uint32",
              "name": "maturityTime",
              "type": "uint32"
            },
            {
              "internalType": "uint32",
              "name": "borrowerReturnGraceTime",
              "type": "uint32"
            },
            {
              "internalType": "uint32",
              "name": "enterpriseCollectGraceTime",
              "type": "uint32"
            },
            {
              "internalType": "uint112",
              "name": "lien",
              "type": "uint112"
            },
            {
              "internalType": "uint16",
              "name": "lienTokenIndex",
              "type": "uint16"
            }
          ],
          "internalType": "struct IEnterprise.LoanInfo",
          "name": "",
          "type": "tuple"
        }
      ],
      "stateMutability": "view",
      "type": "function"
    },
    {
      "inputs": [
        {
          "internalType": "uint256",
          "name": "index",
          "type": "uint256"
        }
      ],
      "name": "getPowerToken",
      "outputs": [
        {
          "internalType": "contract IPowerToken",
          "name": "",
          "type": "address"
        }
      ],
      "stateMutability": "view",
      "type": "function"
    },
    {
      "inputs": [
        {
          "internalType": "contract IPowerToken",
          "name": "powerToken",
          "type": "address"
        }
      ],
      "name": "getPowerTokenIndex",
      "outputs": [
        {
          "internalType": "int256",
          "name": "",
          "type": "int256"
        }
      ],
      "stateMutability": "view",
      "type": "function"
    },
    {
      "inputs": [],
      "name": "getPowerTokens",
      "outputs": [
        {
          "internalType": "contract IPowerToken[]",
          "name": "",
          "type": "address[]"
        }
      ],
      "stateMutability": "view",
      "type": "function"
    },
    {
      "inputs": [],
      "name": "getPowerTokensInfo",
      "outputs": [
        {
          "internalType": "address[]",
          "name": "addresses",
          "type": "address[]"
        },
        {
          "internalType": "string[]",
          "name": "names",
          "type": "string[]"
        },
        {
          "internalType": "string[]",
          "name": "symbols",
          "type": "string[]"
        },
        {
          "internalType": "uint32[]",
          "name": "halfLifes",
          "type": "uint32[]"
        }
      ],
      "stateMutability": "view",
      "type": "function"
    },
    {
      "inputs": [],
      "name": "getReserve",
      "outputs": [
        {
          "internalType": "uint256",
          "name": "",
          "type": "uint256"
        }
      ],
      "stateMutability": "view",
      "type": "function"
    },
    {
      "inputs": [
        {
          "internalType": "string",
          "name": "enterpriseName",
          "type": "string"
        },
        {
          "internalType": "address",
          "name": "liquidityToken",
          "type": "address"
        },
        {
          "internalType": "string",
          "name": "baseUri",
          "type": "string"
        },
        {
          "internalType": "address",
          "name": "interestTokenImpl",
          "type": "address"
        },
        {
          "internalType": "address",
          "name": "borrowTokenImpl",
          "type": "address"
        },
        {
          "internalType": "address",
          "name": "owner",
          "type": "address"
        }
      ],
      "name": "initialize",
      "outputs": [],
      "stateMutability": "nonpayable",
      "type": "function"
    },
    {
      "inputs": [
        {
          "internalType": "address",
          "name": "initialOwner",
          "type": "address"
        }
      ],
      "name": "initialize",
      "outputs": [],
      "stateMutability": "nonpayable",
      "type": "function"
    },
    {
      "inputs": [
        {
          "internalType": "uint256",
          "name": "enterpriseFee",
          "type": "uint256"
        },
        {
          "internalType": "address",
          "name": "powerTokenImpl",
          "type": "address"
        },
        {
          "internalType": "uint32",
          "name": "borrowerLoanReturnGracePeriod",
          "type": "uint32"
        },
        {
          "internalType": "uint32",
          "name": "enterpriseLoanCollectGracePeriod",
          "type": "uint32"
        },
        {
          "internalType": "contract ILoanCostEstimator",
          "name": "estimator",
          "type": "address"
        },
        {
          "internalType": "contract IConverter",
          "name": "converter",
          "type": "address"
        }
      ],
      "name": "initialize2",
      "outputs": [],
      "stateMutability": "nonpayable",
      "type": "function"
    },
    {
      "inputs": [
        {
          "internalType": "address",
          "name": "from",
          "type": "address"
        },
        {
          "internalType": "address",
          "name": "to",
          "type": "address"
        },
        {
          "internalType": "uint256",
          "name": "tokenId",
          "type": "uint256"
        }
      ],
      "name": "loanTransfer",
      "outputs": [],
      "stateMutability": "nonpayable",
      "type": "function"
    },
    {
      "inputs": [],
      "name": "owner",
      "outputs": [
        {
          "internalType": "address",
          "name": "",
          "type": "address"
        }
      ],
      "stateMutability": "view",
      "type": "function"
    },
    {
      "inputs": [
        {
          "internalType": "uint256",
          "name": "tokenId",
          "type": "uint256"
        },
        {
          "internalType": "contract IERC20",
          "name": "paymentToken",
          "type": "address"
        },
        {
          "internalType": "uint256",
          "name": "maximumPayment",
          "type": "uint256"
        },
        {
          "internalType": "uint32",
          "name": "duration",
          "type": "uint32"
        }
      ],
      "name": "reborrow",
      "outputs": [],
      "stateMutability": "nonpayable",
      "type": "function"
    },
    {
      "inputs": [
        {
          "internalType": "string",
          "name": "serviceName",
          "type": "string"
        },
        {
          "internalType": "string",
          "name": "symbol",
          "type": "string"
        },
        {
          "internalType": "uint32",
          "name": "halfLife",
          "type": "uint32"
        },
        {
          "internalType": "uint112",
          "name": "factor",
          "type": "uint112"
        },
        {
          "internalType": "uint32",
          "name": "minLoanDuration",
          "type": "uint32"
        },
        {
          "internalType": "uint32",
          "name": "maxLoanDuration",
          "type": "uint32"
        }
      ],
      "name": "registerService",
      "outputs": [],
      "stateMutability": "nonpayable",
      "type": "function"
    },
    {
      "inputs": [
        {
          "internalType": "uint256",
          "name": "sharesAmount",
          "type": "uint256"
        }
      ],
      "name": "removeLiquidity",
      "outputs": [],
      "stateMutability": "nonpayable",
      "type": "function"
    },
    {
      "inputs": [
        {
          "internalType": "uint256",
          "name": "tokenId",
          "type": "uint256"
        }
      ],
      "name": "returnLoan",
      "outputs": [],
      "stateMutability": "nonpayable",
      "type": "function"
    },
    {
      "inputs": [
        {
          "internalType": "uint256",
          "name": "newFee",
          "type": "uint256"
        }
      ],
      "name": "scheduleEnterpriseFee",
      "outputs": [],
      "stateMutability": "nonpayable",
      "type": "function"
    },
    {
      "inputs": [
        {
          "internalType": "contract ILoanCostEstimator",
          "name": "newEstimator",
          "type": "address"
        }
      ],
      "name": "scheduleLoanCostEstimator",
      "outputs": [],
      "stateMutability": "nonpayable",
      "type": "function"
    },
    {
      "inputs": [
        {
          "internalType": "address",
          "name": "newCollector",
          "type": "address"
        }
      ],
      "name": "setEnterpriseCollector",
      "outputs": [],
      "stateMutability": "nonpayable",
      "type": "function"
    },
    {
      "inputs": [
        {
          "internalType": "uint32",
          "name": "newPeriod",
          "type": "uint32"
        }
      ],
      "name": "setEnterpriseFeeGracePeriod",
      "outputs": [],
      "stateMutability": "nonpayable",
      "type": "function"
    },
    {
      "inputs": [
        {
          "internalType": "address",
          "name": "newVault",
          "type": "address"
        }
      ],
      "name": "setEnterpriseVault",
      "outputs": [],
      "stateMutability": "nonpayable",
      "type": "function"
    },
    {
      "inputs": [
        {
          "internalType": "uint256",
          "name": "index",
          "type": "uint256"
        }
      ],
      "name": "supportedInterestTokens",
      "outputs": [
        {
          "internalType": "address",
          "name": "",
          "type": "address"
        }
      ],
      "stateMutability": "view",
      "type": "function"
    },
    {
      "inputs": [
        {
          "internalType": "address",
          "name": "token",
          "type": "address"
        }
      ],
      "name": "supportedInterestTokensIndex",
      "outputs": [
        {
          "internalType": "int16",
          "name": "",
          "type": "int16"
        }
      ],
      "stateMutability": "view",
      "type": "function"
    },
    {
      "inputs": [
        {
          "internalType": "address",
          "name": "newOwner",
          "type": "address"
        }
      ],
      "name": "transferOwnership",
      "outputs": [],
      "stateMutability": "nonpayable",
      "type": "function"
    },
    {
      "inputs": [
        {
          "internalType": "contract IPowerToken",
          "name": "powerToken",
          "type": "address"
        },
        {
          "internalType": "uint256",
          "name": "amount",
          "type": "uint256"
        }
      ],
      "name": "unwrap",
      "outputs": [
        {
          "internalType": "bool",
          "name": "",
          "type": "bool"
        }
      ],
      "stateMutability": "nonpayable",
      "type": "function"
    },
    {
      "inputs": [
        {
          "internalType": "contract IPowerToken",
          "name": "powerToken",
          "type": "address"
        },
        {
          "internalType": "uint256",
          "name": "amount",
          "type": "uint256"
        }
      ],
      "name": "wrap",
      "outputs": [
        {
          "internalType": "bool",
          "name": "",
          "type": "bool"
        }
      ],
      "stateMutability": "nonpayable",
      "type": "function"
    },
    {
      "inputs": [
        {
          "internalType": "contract IPowerToken",
          "name": "powerToken",
          "type": "address"
        },
        {
          "internalType": "address",
          "name": "to",
          "type": "address"
        },
        {
          "internalType": "uint256",
          "name": "amount",
          "type": "uint256"
        }
      ],
      "name": "wrapTo",
      "outputs": [
        {
          "internalType": "bool",
          "name": "",
          "type": "bool"
        }
      ],
      "stateMutability": "nonpayable",
      "type": "function"
    }
  ],
  "bytecode": "0x6080604052600d805463ffffffff60a01b19166102a360a71b17905534801561002757600080fd5b506142e1806100376000396000f3fe608060405234801561001057600080fd5b50600436106102775760003560e01c80638da5cb5b11610160578063c2fe50dd116100d8578063e91261541161008c578063f9894d7911610071578063f9894d7914610517578063faaed4ad1461052a578063fec0dea01461053d57610277565b8063e9126154146104f1578063f2fde38b1461050457610277565b8063d08670b0116100bd578063d08670b0146104b8578063e2b17a16146104cb578063e36eca0c146104de57610277565b8063c2fe50dd14610492578063c4d66de8146104a557610277565b8063a554b26d1161012f578063aebb504111610114578063aebb504114610462578063b96266fa1461046a578063bf376c7a1461047f57610277565b8063a554b26d14610447578063a64b90d31461044f57610277565b80638da5cb5b146103f957806390f55edd1461040157806399e2946b146104145780639c8f9f231461043457610277565b806351c6590a116101f3578063644e44df116101c257806376dc0f60116101a757806376dc0f60146103d65780637791c42d146103de5780638619344b146103e657610277565b8063644e44df146103bb57806372b42778146103c357610277565b806351c6590a1461036257806359bf5d39146103755780635a9b0b891461038a57806362c1f388146103a857610277565b8063229304dc1161024a57806339f476931161022f57806339f47693146103175780633d4df89714610337578063512a53bc1461034f57610277565b8063229304dc146102e257806324da47641461030457610277565b8063041960581461027c5780630714012c146102a55780630ea1dc9e146102c557806316fc54bf146102cd575b600080fd5b61028f61028a36600461355c565b610545565b60405161029c9190613849565b60405180910390f35b6102b86102b336600461355c565b610571565b60405161029c9190613fd8565b61028f610621565b6102e06102db36600461358c565b610631565b005b6102f56102f03660046132fb565b610781565b60405161029c93929190614067565b6102e06103123660046134a2565b610909565b61032a610325366004613356565b610b74565b60405161029c91906139c4565b61033f610c38565b60405161029c94939291906138c4565b6102e061035d366004613220565b610f8a565b6102e061037036600461355c565b61123a565b61037d6112f7565b60405161029c9190613a92565b6103926112fd565b60405161029c9a999897969594939291906140a1565b6102e06103b63660046131e8565b611410565b61028f6114b7565b6102e06103d13660046131e8565b6114c6565b61037d6115d4565b61028f6115fe565b61028f6103f436600461355c565b61160d565b61028f61161c565b6102e061040f3660046131e8565b61162b565b6104276104223660046131e8565b6116d2565b60405161029c9190613a84565b6102e061044236600461355c565b6116f0565b61028f6117b8565b6102e061045d3660046133f4565b6117c7565b61037d611ab9565b610472611abf565b60405161029c9190613977565b61032a61048d366004613356565b611b21565b6102e06104a03660046135d6565b611b6b565b6102e06104b33660046131e8565b611e8f565b6102e06104c636600461355c565b611f22565b6102e06104d9366004613294565b611fd1565b61037d6104ec3660046131e8565b612608565b6102e06104ff36600461355c565b612652565b6102e06105123660046131e8565b6128c0565b6102e0610525366004613614565b6129bf565b61032a610538366004613280565b612a44565b61028f612b09565b60006014828154811061055457fe5b6000918252602090912001546001600160a01b031690505b919050565b6105796130b2565b5060009081526012602090815260409182902082516101008101845281546001600160701b038082168352600160701b80830461ffff90811696850196909652700100000000000000000000000000000000830463ffffffff90811697850197909752600160a01b830487166060850152600160c01b830487166080850152600160e01b90920490951660a083015260019092015493841660c082015292041660e082015290565b6002546001600160a01b03165b90565b6004546001600160a01b03166106625760405162461bcd60e51b815260040161065990613efc565b60405180910390fd5b8263ffffffff168463ffffffff16111561068e5760405162461bcd60e51b815260040161065990613f33565b600480546001600160a01b0319166001600160a01b0387161790556008869055600d805463ffffffff60c01b198116600160c01b600160a01b90920463ffffffff908116420116919091021790556106e461161c565b600d80546001600160a01b0319166001600160a01b039290921691909117905561070c61161c565b600e805463ffffffff958616600160c01b0263ffffffff60c01b1996909716600160a01b0263ffffffff60a01b196001600160a01b039485166001600160a01b03199384161716179590951695909517909455600a805492851692841692909217909155600c80549190931691161790555050565b6001600160a01b0384166000908152601360205260408120548190819087906107bc5760405162461bcd60e51b815260040161065990613ec5565b60006107c6612b09565b6040517f19065df40000000000000000000000000000000000000000000000000000000081529091506001600160a01b038216906319065df490610812908c908b908b90600401613a54565b60206040518083038186803b15801561082a57600080fd5b505afa15801561083e573d6000803e3d6000fd5b505050506040513d601f19601f820116820180604052508101906108629190613540565b945061086c6115d4565b856001600160701b0316029250806001600160a01b031663465603a18a8a8a8a6040518563ffffffff1660e01b81526004016108ab9493929190613a1d565b60206040518083038186803b1580156108c357600080fd5b505afa1580156108d7573d6000803e3d6000fd5b505050506040513d601f19601f820116820180604052508101906108fb9190613540565b935050509450945094915050565b6000546001600160a01b03163314610968576040805162461bcd60e51b815260206004820181905260248201527f4f776e61626c653a2063616c6c6572206973206e6f7420746865206f776e6572604482015290519081900360640190fd5b60145461ffff1161098b5760405162461bcd60e51b815260040161065990613e31565b600154604080516395d89b4160e01b815290516000926001600160a01b0316916395d89b419160048083019286929190829003018186803b1580156109cf57600080fd5b505afa1580156109e3573d6000803e3d6000fd5b505050506040513d6000823e601f3d908101601f19168201604052610a0b9190810190613381565b905060008187604051602001610a229291906136ea565b60408051601f19818403018152919052600454909150600090610a4d906001600160a01b0316612b45565b6040517ff26b3a750000000000000000000000000000000000000000000000000000000081529091506001600160a01b0382169063f26b3a7590610a9f908c9086908c908c908c908c90600401613b03565b600060405180830381600087803b158015610ab957600080fd5b505af1158015610acd573d6000803e3d6000fd5b5050601480546001810182557fce6d7b5282bd9a3661ae061feed1dbda4e52ab073b1f9285be6e155d9c38d4ec0180546001600160a01b0319166001600160a01b03861690811790915590546000828152601360205260409081902091909155519092507f18706585e986f622c9d914abfb256d563b9ea274cd5d49124e0518aa314b8c129150610b61908a908a9061413f565b60405180910390a2505050505050505050565b6001600160a01b0382166000908152601360205260408120548390610bab5760405162461bcd60e51b815260040161065990613ec5565b6001546040517f8cc7104f0000000000000000000000000000000000000000000000000000000081526001600160a01b0386811692638cc7104f92610bfa9290911690339088906004016139f9565b600060405180830381600087803b158015610c1457600080fd5b505af1158015610c28573d6000803e3d6000fd5b50505050600191505b5092915050565b6014546060908190819081908067ffffffffffffffff81118015610c5b57600080fd5b50604051908082528060200260200182016040528015610c85578160200160208202803683370190505b5094508067ffffffffffffffff81118015610c9f57600080fd5b50604051908082528060200260200182016040528015610cd357816020015b6060815260200190600190039081610cbe5790505b5093508067ffffffffffffffff81118015610ced57600080fd5b50604051908082528060200260200182016040528015610d2157816020015b6060815260200190600190039081610d0c5790505b5092508067ffffffffffffffff81118015610d3b57600080fd5b50604051908082528060200260200182016040528015610d65578160200160208202803683370190505b50915060005b81811015610f8257600060148281548110610d8257fe5b9060005260206000200160009054906101000a90046001600160a01b0316905080878381518110610daf57fe5b60200260200101906001600160a01b031690816001600160a01b031681525050806001600160a01b03166306fdde036040518163ffffffff1660e01b815260040160006040518083038186803b158015610e0857600080fd5b505afa158015610e1c573d6000803e3d6000fd5b505050506040513d6000823e601f3d908101601f19168201604052610e449190810190613381565b868381518110610e5057fe5b6020026020010181905250806001600160a01b03166395d89b416040518163ffffffff1660e01b815260040160006040518083038186803b158015610e9457600080fd5b505afa158015610ea8573d6000803e3d6000fd5b505050506040513d6000823e601f3d908101601f19168201604052610ed09190810190613381565b858381518110610edc57fe5b6020026020010181905250806001600160a01b0316637983a29d6040518163ffffffff1660e01b815260040160206040518083038186803b158015610f2057600080fd5b505afa158015610f34573d6000803e3d6000fd5b505050506040513d601f19601f82011682018060405250810190610f589190613630565b848381518110610f6457fe5b63ffffffff9092166020928302919091019091015250600101610d6b565b505090919293565b6003546001600160a01b03163314610fb45760405162461bcd60e51b815260040161065990613bd0565b600081815260126020908152604080832081516101008101835281546001600160701b03808216835261ffff600160701b808404821697850188905263ffffffff7001000000000000000000000000000000008504811697860197909752600160a01b840487166060860152600160c01b840487166080860152600160e01b90930490951660a084015260019093015492831660c083015290910490911660e0820152601480549193929091811061106857fe5b6000918252602090912001546001600160a01b031690508061109c5760405162461bcd60e51b815260040161065990613c07565b606082015163ffffffff1642116001600160a01b0386811615908616801590301480156110d1576110cc87612652565b61122f565b811561113c57855160405163079cc67960e41b81526001600160a01b038716916379cc679091611105918d916004016138a2565b600060405180830381600087803b15801561111f57600080fd5b505af1158015611133573d6000803e3d6000fd5b5050505061122f565b82156111705785516040516340c10f1960e01b81526001600160a01b038716916340c10f1991611105918d916004016138a2565b836112175785516040517f33bebb770000000000000000000000000000000000000000000000000000000081526001600160a01b038716916333bebb77916111bf918d918d9190600401613876565b602060405180830381600087803b1580156111d957600080fd5b505af11580156111ed573d6000803e3d6000fd5b505050506040513d601f19601f820116820180604052508101906112119190613260565b5061122f565b60405162461bcd60e51b815260040161065990613c3e565b505050505050505050565b600154611252906001600160a01b0316333084612c00565b60058054820190556006805482019055600754600090611273575080611286565b60055482600754028161128257fe5b0490505b6002546040516340c10f1960e01b81526001600160a01b03909116906340c10f19906112b8903390859060040161385d565b600060405180830381600087803b1580156112d257600080fd5b505af11580156112e6573d6000803e3d6000fd5b505060078054909301909255505050565b60055490565b600554600654600754600a54600b54600d54600854600954600f8054604080516020601f6002600019600187161561010002019095169490940493840181900481028201810190925282815260009b8c9b8c9b60609b8d9b8c9b8c9b8c9b8c9b8c9b989a9799969890976001600160a01b0396871697959096169563ffffffff600160e01b860481169694959394600160c01b90940416929189918301828280156113e95780601f106113be576101008083540402835291602001916113e9565b820191906000526020600020905b8154815290600101906020018083116113cc57829003601f168201915b50505050509650995099509950995099509950995099509950995090919293949596979899565b6000546001600160a01b0316331461146f576040805162461bcd60e51b815260206004820181905260248201527f4f776e61626c653a2063616c6c6572206973206e6f7420746865206f776e6572604482015290519081900360640190fd5b6001600160a01b0381166114955760405162461bcd60e51b815260040161065990613c75565b600d80546001600160a01b0319166001600160a01b0392909216919091179055565b6001546001600160a01b031690565b6000546001600160a01b03163314611525576040805162461bcd60e51b815260206004820181905260248201527f4f776e61626c653a2063616c6c6572206973206e6f7420746865206f776e6572604482015290519081900360640190fd5b6001600160a01b03811661154b5760405162461bcd60e51b815260040161065990613c75565b600d5442600160e01b90910463ffffffff161161158557600a54600b80546001600160a01b0319166001600160a01b039092169190911790555b600a80546001600160a01b039092166001600160a01b0319909216919091179055600d80544263ffffffff600160a01b830481169190910116600160e01b026001600160e01b03909116179055565b600d54600090600160c01b900463ffffffff164210156115f7575060095461062e565b5060085490565b600e546001600160a01b031690565b60006011828154811061055457fe5b6000546001600160a01b031690565b6000546001600160a01b0316331461168a576040805162461bcd60e51b815260206004820181905260248201527f4f776e61626c653a2063616c6c6572206973206e6f7420746865206f776e6572604482015290519081900360640190fd5b6001600160a01b0381166116b05760405162461bcd60e51b815260040161065990613c75565b600e80546001600160a01b0319166001600160a01b0392909216919091179055565b6001600160a01b031660009081526010602052604090205460010b90565b600060075482600554028161170157fe5b0490506006548111156117265760405162461bcd60e51b815260040161065990613b99565b60025460405163079cc67960e41b81526001600160a01b03909116906379cc679090611758903390869060040161385d565b600060405180830381600087803b15801561177257600080fd5b505af1158015611786573d6000803e3d6000fd5b50506001546117a292506001600160a01b031690503383612c79565b6005805482900390556006805491909103905550565b600d546001600160a01b031690565b6001546001600160a01b0316156117f05760405162461bcd60e51b815260040161065990613d77565b6001600160a01b0385166118165760405162461bcd60e51b815260040161065990613d09565b61181f81611e8f565b600180546001600160a01b0319166001600160a01b038781169190911791829055604080516395d89b4160e01b81529051600093909216916395d89b41916004808201928692909190829003018186803b15801561187c57600080fd5b505afa158015611890573d6000803e3d6000fd5b505050506040513d6000823e601f3d908101601f191682016040526118b89190810190613381565b87519091506118ce90600f9060208a01906130f6565b506118d886612ce9565b6000816040516020016118eb9190613742565b604051602081830303815290604052905060008260405160200161190f9190613811565b6040516020818303038152906040529050611932866001600160a01b0316612b45565b600280546001600160a01b0319166001600160a01b0392831617908190556040517f4cd88b76000000000000000000000000000000000000000000000000000000008152911690634cd88b769061198f9085908590600401613a9b565b600060405180830381600087803b1580156119a957600080fd5b505af11580156119bd573d6000803e3d6000fd5b5050505050506000816040516020016119d69190613787565b60405160208183030381529060405290506000826040516020016119fa91906137cc565b6040516020818303038152906040529050611a1d856001600160a01b0316612b45565b600380546001600160a01b0319166001600160a01b0392831617908190556040517fa6487c5300000000000000000000000000000000000000000000000000000000815291169063a6487c5390611a7c90859085908c90600401613ac0565b600060405180830381600087803b158015611a9657600080fd5b505af1158015611aaa573d6000803e3d6000fd5b50505050505050505050505050565b60065490565b60606014805480602002602001604051908101604052809291908181526020018280548015611b1757602002820191906000526020600020905b81546001600160a01b03168152600190910190602001808311611af9575b5050505050905090565b6001600160a01b0382166000908152601360205260408120548390611b585760405162461bcd60e51b815260040161065990613ec5565b611b63843385612a44565b949350505050565b6001600160a01b038316600090815260106020526040812054600190810b900b13611ba85760405162461bcd60e51b815260040161065990613cac565b60008481526012602052604081208054601480549293929091600160701b900461ffff16908110611bd557fe5b6000918252602090912001546001600160a01b0316905080611c095760405162461bcd60e51b815260040161065990613c07565b604051636e4d898360e01b81526001600160a01b03821690636e4d898390611c3590869060040161412e565b60206040518083038186803b158015611c4d57600080fd5b505afa158015611c61573d6000803e3d6000fd5b505050506040513d601f19601f82011682018060405250810190611c859190613260565b611ca15760405162461bcd60e51b815260040161065990613fa1565b815442600160a01b90910463ffffffff9081168501161015611cd55760405162461bcd60e51b815260040161065990613b62565b815460009081908190611cf59085908a906001600160701b031689610781565b92509250925086836001600160701b03161115611d245760405162461bcd60e51b815260040161065990613f6a565b611d426001600160a01b03891633306001600160701b038716612c00565b60008560000160149054906101000a900463ffffffff169050868660000160149054906101000a900463ffffffff16018660000160146101000a81548163ffffffff021916908363ffffffff160217905550600e60149054906101000a900463ffffffff168660000160149054906101000a900463ffffffff16018660000160186101000a81548163ffffffff021916908363ffffffff160217905550600e60189054906101000a900463ffffffff168660000160149054906101000a900463ffffffff160186600001601c6101000a81548163ffffffff021916908363ffffffff160217905550846001600160a01b03167f9853650269815e203c5c9e228db9ca05cc6037f2c2723c94ed3260cf98324c998b838960000160149054906101000a900463ffffffff16604051611e7b93929190614112565b60405180910390a250505050505050505050565b6000546001600160a01b031615611ed75760405162461bcd60e51b81526004018080602001828103825260298152602001806142596029913960400191505060405180910390fd5b600080546001600160a01b0319166001600160a01b03831690811782556040519091907f8be0079c531659141344cd1fd0a4f28419497f9722a3daafe3b4186f6b6457e0908290a350565b6000546001600160a01b03163314611f81576040805162461bcd60e51b815260206004820181905260248201527f4f776e61626c653a2063616c6c6572206973206e6f7420746865206f776e6572604482015290519081900360640190fd5b600d5442600160c01b90910463ffffffff1611611f9f576008546009555b600855600d80544263ffffffff600160a01b830481169190910116600160c01b0263ffffffff60c01b19909116179055565b6001600160a01b03851660009081526013602052604090205485906120085760405162461bcd60e51b815260040161065990613ec5565b6001600160a01b038516600090815260106020526040812054600190810b900b136120455760405162461bcd60e51b815260040161065990613cac565b604051636e4d898360e01b81526001600160a01b03871690636e4d89839061207190859060040161412e565b60206040518083038186803b15801561208957600080fd5b505afa15801561209d573d6000803e3d6000fd5b505050506040513d601f19601f820116820180604052508101906120c19190613260565b6120dd5760405162461bcd60e51b815260040161065990613fa1565b600654846001600160701b031611156121085760405162461bcd60e51b815260040161065990613d40565b6000612112612b09565b6001600160a01b03166319065df48887866040518463ffffffff1660e01b815260040161214193929190613a54565b60206040518083038186803b15801561215957600080fd5b505afa15801561216d573d6000803e3d6000fd5b505050506040513d601f19601f820116820180604052508101906121919190613540565b5060008060006121a38a8a8a89610781565b9250925092508193508681838501016001600160701b031611156121d95760405162461bcd60e51b815260040161065990613f6a565b6121f76001600160a01b038a1633306001600160701b038716612c00565b60035461221a906001600160a01b038b811691166001600160701b038516612c79565b5050600680546001600160701b038881169091039216919091019055600354604080517f8ada066e00000000000000000000000000000000000000000000000000000000815290514292868401926000926001600160a01b0390921691638ada066e9160048082019260209290919082900301818787803b15801561229e57600080fd5b505af11580156122b2573d6000803e3d6000fd5b505050506040513d601f19601f820116820180604052508101906122d69190613574565b9050604051806101000160405280896001600160701b031681526020016001601360008e6001600160a01b03166001600160a01b03168152602001908152602001600020540361ffff1681526020018463ffffffff1681526020018363ffffffff168152602001600e60149054906101000a900463ffffffff16840163ffffffff168152602001600e60189054906101000a900463ffffffff16840163ffffffff168152602001856001600160701b031681526020016001601060008d6001600160a01b03166001600160a01b0316815260200190815260200160002060009054906101000a900460010b0361ffff168152506012600083815260200190815260200160002060008201518160000160006101000a8154816001600160701b0302191690836001600160701b03160217905550602082015181600001600e6101000a81548161ffff021916908361ffff16021790555060408201518160000160106101000a81548163ffffffff021916908363ffffffff16021790555060608201518160000160146101000a81548163ffffffff021916908363ffffffff16021790555060808201518160000160186101000a81548163ffffffff021916908363ffffffff16021790555060a082015181600001601c6101000a81548163ffffffff021916908363ffffffff16021790555060c08201518160010160006101000a8154816001600160701b0302191690836001600160701b0316021790555060e082015181600101600e6101000a81548161ffff021916908361ffff160217905550905050896001600160a01b03167f9853650269815e203c5c9e228db9ca05cc6037f2c2723c94ed3260cf98324c9982858560405161255893929190614112565b60405180910390a26003546040517f6a6278420000000000000000000000000000000000000000000000000000000081526001600160a01b0390911690636a627842906125a9903390600401613849565b602060405180830381600087803b1580156125c357600080fd5b505af11580156125d7573d6000803e3d6000fd5b505050506040513d601f19601f820116820180604052508101906125fb9190613574565b5050505050505050505050565b6001600160a01b03811660009081526013602052604081205415612648576001600160a01b0382166000908152601360205260409020546000190161264c565b6000195b92915050565b60008181526012602052604081208054601480549293929091600160701b900461ffff1690811061267f57fe5b6000918252602090912001546001600160a01b03169050806126b35760405162461bcd60e51b815260040161065990613c07565b6003546040517f6352211e0000000000000000000000000000000000000000000000000000000081526000916001600160a01b031690636352211e906126fd908790600401613a92565b60206040518083038186803b15801561271557600080fd5b505afa158015612729573d6000803e3d6000fd5b505050506040513d601f19601f8201168201806040525081019061274d9190613204565b8354909150429063ffffffff808316600160c01b9092041610806127795750336001600160a01b038316145b6127955760405162461bcd60e51b815260040161065990613e68565b835463ffffffff808316600160e01b9092041610806127bc5750336001600160a01b038316145b806127d15750600d546001600160a01b031633145b6127ed5760405162461bcd60e51b815260040161065990613dae565b8354600680546001600160701b0390921690910190556003546040517ffcd3533c0000000000000000000000000000000000000000000000000000000081526001600160a01b039091169063fcd3533c9061284e908890339060040161408a565b600060405180830381600087803b15801561286857600080fd5b505af115801561287c573d6000803e3d6000fd5b5050506000958652505060126020525050604082209182555060010180547fffffffffffffffffffffffffffffffff00000000000000000000000000000000169055565b6000546001600160a01b0316331461291f576040805162461bcd60e51b815260206004820181905260248201527f4f776e61626c653a2063616c6c6572206973206e6f7420746865206f776e6572604482015290519081900360640190fd5b6001600160a01b0381166129645760405162461bcd60e51b815260040180806020018281038252602681526020018061420d6026913960400191505060405180910390fd5b600080546040516001600160a01b03808516939216917f8be0079c531659141344cd1fd0a4f28419497f9722a3daafe3b4186f6b6457e091a3600080546001600160a01b0319166001600160a01b0392909216919091179055565b6000546001600160a01b03163314612a1e576040805162461bcd60e51b815260206004820181905260248201527f4f776e61626c653a2063616c6c6572206973206e6f7420746865206f776e6572604482015290519081900360640190fd5b600d805463ffffffff909216600160a01b0263ffffffff60a01b19909216919091179055565b6001600160a01b0383166000908152601360205260408120548490612a7b5760405162461bcd60e51b815260040161065990613ec5565b6001546040517fa1571a570000000000000000000000000000000000000000000000000000000081526001600160a01b038781169263a1571a5792612acc92909116903390899089906004016139cf565b600060405180830381600087803b158015612ae657600080fd5b505af1158015612afa573d6000803e3d6000fd5b50600198975050505050505050565b600d54600090600160e01b900463ffffffff16421015612b355750600b546001600160a01b031661062e565b50600a546001600160a01b031690565b60006040517f3d602d80600a3d3981f3363d3d373d3d3d363d7300000000000000000000000081528260601b60148201527f5af43d82803e903d91602b57fd5bf3000000000000000000000000000000000060288201526037816000f09150506001600160a01b03811661056c576040805162461bcd60e51b815260206004820152601660248201527f455243313136373a20637265617465206661696c656400000000000000000000604482015290519081900360640190fd5b604080516001600160a01b0380861660248301528416604482015260648082018490528251808303909101815260849091019091526020810180516001600160e01b03167f23b872dd00000000000000000000000000000000000000000000000000000000179052612c73908590612de3565b50505050565b604080516001600160a01b038416602482015260448082018490528251808303909101815260649091019091526020810180516001600160e01b03167fa9059cbb00000000000000000000000000000000000000000000000000000000179052612ce4908490612de3565b505050565b6001600160a01b038116600090815260106020526040902054600190810b900b612d835760118054600180820183557f31ecc21a745e3968a04e9570e4425bc18fa8019c68028196b546d1669c200c6890910180546001600160a01b0319166001600160a01b0385169081179091559154600092835260106020526040909220805461ffff191661ffff9390920b92909216179055612de0565b6001600160a01b038116600090815260106020526040812054600190810b900b1215612de0576001600160a01b03811660009081526010602052604081208054600181810b90930390920b61ffff1661ffff199092169190911790555b50565b6000612e38826040518060400160405280602081526020017f5361666545524332303a206c6f772d6c6576656c2063616c6c206661696c6564815250856001600160a01b0316612e949092919063ffffffff16565b805190915015612ce457808060200190516020811015612e5757600080fd5b5051612ce45760405162461bcd60e51b815260040180806020018281038252602a815260200180614282602a913960400191505060405180910390fd5b6060612ea38484600085612ead565b90505b9392505050565b606082471015612eee5760405162461bcd60e51b81526004018080602001828103825260268152602001806142336026913960400191505060405180910390fd5b612ef785613008565b612f48576040805162461bcd60e51b815260206004820152601d60248201527f416464726573733a2063616c6c20746f206e6f6e2d636f6e7472616374000000604482015290519081900360640190fd5b600080866001600160a01b031685876040518082805190602001908083835b60208310612f865780518252601f199092019160209182019101612f67565b6001836020036101000a03801982511681845116808217855250505050505090500191505060006040518083038185875af1925050503d8060008114612fe8576040519150601f19603f3d011682016040523d82523d6000602084013e612fed565b606091505b5091509150612ffd82828661300e565b979650505050505050565b3b151590565b6060831561301d575081612ea6565b82511561302d5782518084602001fd5b8160405162461bcd60e51b81526004018080602001828103825283818151815260200191508051906020019080838360005b8381101561307757818101518382015260200161305f565b50505050905090810190601f1680156130a45780820380516001836020036101000a031916815260200191505b509250505060405180910390fd5b6040805161010081018252600080825260208201819052918101829052606081018290526080810182905260a0810182905260c0810182905260e081019190915290565b828054600181600116156101000203166002900490600052602060002090601f01602090048101928261312c5760008555613172565b82601f1061314557805160ff1916838001178555613172565b82800160010185558215613172579182015b82811115613172578251825591602001919060010190613157565b5061317e929150613182565b5090565b5b8082111561317e5760008155600101613183565b600082601f8301126131a7578081fd5b81356131ba6131b582614182565b61415e565b8181528460208386010111156131ce578283fd5b816020850160208301379081016020019190915292915050565b6000602082840312156131f9578081fd5b8135612ea6816141d0565b600060208284031215613215578081fd5b8151612ea6816141d0565b600080600060608486031215613234578182fd5b833561323f816141d0565b9250602084013561324f816141d0565b929592945050506040919091013590565b600060208284031215613271578081fd5b81518015158114612ea6578182fd5b600080600060608486031215613234578283fd5b600080600080600060a086880312156132ab578081fd5b85356132b6816141d0565b945060208601356132c6816141d0565b935060408601356132d6816141e5565b92506060860135915060808601356132ed816141fa565b809150509295509295909350565b60008060008060808587031215613310578384fd5b843561331b816141d0565b9350602085013561332b816141d0565b9250604085013561333b816141e5565b9150606085013561334b816141fa565b939692955090935050565b60008060408385031215613368578182fd5b8235613373816141d0565b946020939093013593505050565b600060208284031215613392578081fd5b815167ffffffffffffffff8111156133a8578182fd5b8201601f810184136133b8578182fd5b80516133c66131b582614182565b8181528560208385010111156133da578384fd5b6133eb8260208301602086016141a4565b95945050505050565b60008060008060008060c0878903121561340c578384fd5b863567ffffffffffffffff80821115613423578586fd5b61342f8a838b01613197565b975060208901359150613441826141d0565b90955060408801359080821115613456578586fd5b5061346389828a01613197565b9450506060870135613474816141d0565b92506080870135613484816141d0565b915060a0870135613494816141d0565b809150509295509295509295565b60008060008060008060c087890312156134ba578384fd5b863567ffffffffffffffff808211156134d1578586fd5b6134dd8a838b01613197565b975060208901359150808211156134f2578586fd5b506134ff89828a01613197565b9550506040870135613510816141fa565b93506060870135613520816141e5565b92506080870135613530816141fa565b915060a0870135613494816141fa565b600060208284031215613551578081fd5b8151612ea6816141e5565b60006020828403121561356d578081fd5b5035919050565b600060208284031215613585578081fd5b5051919050565b60008060008060008060c087890312156135a4578384fd5b8635955060208701356135b6816141d0565b945060408701356135c6816141fa565b93506060870135613474816141fa565b600080600080608085870312156135eb578182fd5b8435935060208501356135fd816141d0565b925060408501359150606085013561334b816141fa565b600060208284031215613625578081fd5b8135612ea6816141fa565b600060208284031215613641578081fd5b8151612ea6816141fa565b6000815180845260208085018081965082840281019150828601855b8581101561369257828403895261368084835161369f565b98850198935090840190600101613668565b5091979650505050505050565b600081518084526136b78160208601602086016141a4565b601f01601f19169290920160200192915050565b6001600160701b03169052565b61ffff169052565b63ffffffff169052565b600083516136fc8184602088016141a4565b7f200000000000000000000000000000000000000000000000000000000000000090830190815283516137368160018401602088016141a4565b01600101949350505050565b60007f496e7465726573742042656172696e67200000000000000000000000000000008252825161377a8160118501602087016141a4565b9190910160110192915050565b60007f426f72726f772000000000000000000000000000000000000000000000000000825282516137bf8160078501602087016141a4565b9190910160070192915050565b60007f6200000000000000000000000000000000000000000000000000000000000000825282516138048160018501602087016141a4565b9190910160010192915050565b60007f6900000000000000000000000000000000000000000000000000000000000000825282516138048160018501602087016141a4565b6001600160a01b0391909116815260200190565b6001600160a01b03929092168252602082015260400190565b6001600160a01b0393841681529190921660208201526001600160701b03909116604082015260600190565b6001600160a01b039290921682526001600160701b0316602082015260400190565b6080808252855190820181905260009060209060a0840190828901845b828110156139065781516001600160a01b0316845292840192908401906001016138e1565b5050508381038285015261391a818861364c565b9050838103604085015261392e818761364c565b84810360608601528551808252838701925090830190845b8181101561396857835163ffffffff1683529284019291840191600101613946565b50909998505050505050505050565b6020808252825182820181905260009190848201906040850190845b818110156139b85783516001600160a01b031683529284019291840191600101613993565b50909695505050505050565b901515815260200190565b6001600160a01b039485168152928416602084015292166040820152606081019190915260800190565b6001600160a01b039384168152919092166020820152604081019190915260600190565b6001600160a01b0394851681529290931660208301526001600160701b0316604082015263ffffffff909116606082015260800190565b6001600160a01b039390931683526001600160701b0391909116602083015263ffffffff16604082015260600190565b60019190910b815260200190565b90815260200190565b600060408252613aae604083018561369f565b82810360208401526133eb818561369f565b600060608252613ad3606083018661369f565b8281036020840152613ae5818661369f565b90508281036040840152613af9818561369f565b9695505050505050565b600060c08252613b1660c083018961369f565b8281036020840152613b28818961369f565b63ffffffff97881660408501526001600160701b039690961660608401525050918416608083015290921660a09092019190915292915050565b60208082526010908201527f496e76616c6964206475726174696f6e00000000000000000000000000000000604082015260600190565b60208082526016908201527f496e73756666696369656e74206c697175696469747900000000000000000000604082015260600190565b6020808252600f908201527f4e6f7420426f72726f77546f6b656e0000000000000000000000000000000000604082015260600190565b6020808252600f908201527f496e76616c696420746f6b656e49640000000000000000000000000000000000604082015260600190565b60208082526014908201527f4e6f7420616c6c6f776564207472616e73666572000000000000000000000000604082015260600190565b6020808252600c908201527f5a65726f20616464726573730000000000000000000000000000000000000000604082015260600190565b60208082526033908201527f496e746572657374207061796d656e7420746f6b656e2069732064697361626c60408201527f6564206f72206e6f7420737570706f7274656400000000000000000000000000606082015260800190565b6020808252601f908201527f496e76616c6964206c697175696469747920746f6b656e206164647265737300604082015260600190565b60208082526015908201527f496e73756666696369656e742072657365727665730000000000000000000000604082015260600190565b6020808252601c908201527f436f6e747261637420616c726561647920696e697469616c697a656400000000604082015260600190565b60208082526045908201527f4f6e6c7920626f72726f776572206f7220656e74657270726973652063616e2060408201527f72657475726e2077697468696e20656e7465727072697365206772616365207060608201527f6572696f64000000000000000000000000000000000000000000000000000000608082015260a00190565b6020808252601d908201527f43616e6e6f74207265676973746572206d6f7265207365727669636573000000604082015260600190565b60208082526035908201527f4f6e6c7920626f72726f7765722063616e2072657475726e2077697468696e2060408201527f626f72726f77657220677261636520706572696f640000000000000000000000606082015260800190565b60208082526012908201527f556e6b6e6f776e20506f776572546f6b656e0000000000000000000000000000604082015260600190565b60208082526013908201527f416c726561647920696e697469616c697a656400000000000000000000000000604082015260600190565b60208082526015908201527f496e76616c696420677261636520706572696f64730000000000000000000000604082015260600190565b60208082526013908201527f536c69707061676520697320746f6f2062696700000000000000000000000000604082015260600190565b60208082526017908201527f4475726174696f6e206973206e6f7420616c6c6f776564000000000000000000604082015260600190565b6000610100820190506001600160701b03835116825261ffff6020840151166020830152604083015163ffffffff80821660408501528060608601511660608501525050608083015161402e60808401826136e0565b5060a083015161404160a08401826136e0565b5060c083015161405460c08401826136cb565b5060e0830151610c3160e08401826136d8565b6001600160701b0393841681529183166020830152909116604082015260600190565b9182526001600160a01b0316602082015260400190565b60006101408c83528b60208401528a60408401528060608401526140c78184018b61369f565b6001600160a01b03998a1660808501529790981660a08301525063ffffffff94851660c082015260e08101939093526101008301919091529091166101209091015295945050505050565b92835263ffffffff918216602084015216604082015260600190565b63ffffffff91909116815260200190565b63ffffffff9290921682526001600160701b0316602082015260400190565b60405181810167ffffffffffffffff8111828210171561417a57fe5b604052919050565b600067ffffffffffffffff82111561419657fe5b50601f01601f191660200190565b60005b838110156141bf5781810151838201526020016141a7565b83811115612c735750506000910152565b6001600160a01b0381168114612de057600080fd5b6001600160701b0381168114612de057600080fd5b63ffffffff81168114612de057600080fdfe4f776e61626c653a206e6577206f776e657220697320746865207a65726f2061646472657373416464726573733a20696e73756666696369656e742062616c616e636520666f722063616c6c496e697469616c697a61626c654f776e61626c653a20616c726561647920696e697469616c697a65645361666545524332303a204552433230206f7065726174696f6e20646964206e6f742073756363656564a2646970667358221220697b006dc69ffc5eb9db298589d7202bde7fbfec6956dbb073adecdd1fcbc21a64736f6c63430007060033",
  "linkReferences": {},
  "deployedLinkReferences": {}
}