{
  "address": "0x93Dc01F4C24698EaAF7777F391Cc75F8FcbbF5C5",
  "abi": [
    {
      "inputs": [
        {
          "internalType": "contract IERC20",
          "name": "source",
          "type": "address"
        },
        {
          "internalType": "uint256",
          "name": "amount",
          "type": "uint256"
        },
        {
          "internalType": "contract IERC20",
          "name": "target",
          "type": "address"
        }
      ],
      "name": "convert",
      "outputs": [
        {
          "internalType": "uint256",
          "name": "",
          "type": "uint256"
        }
      ],
      "stateMutability": "pure",
      "type": "function"
    },
    {
      "inputs": [
        {
          "internalType": "contract IERC20",
          "name": "source",
          "type": "address"
        },
        {
          "internalType": "uint256",
          "name": "amount",
          "type": "uint256"
        },
        {
          "internalType": "contract IERC20",
          "name": "target",
          "type": "address"
        }
      ],
      "name": "estimateConvert",
      "outputs": [
        {
          "internalType": "uint256",
          "name": "",
          "type": "uint256"
        }
      ],
      "stateMutability": "pure",
      "type": "function"
    }
  ],
  "transactionHash": "0x3e52e2a8c83007b03006db72c7f73616f73cca105533b5f11f2a393621c62e22",
  "args": [],
  "solcInputHash": "52eae5ff4d3912a1c8dd4ea7d11d5b34",
  "bytecode": "0x608060405234801561001057600080fd5b506101a2806100206000396000f3fe608060405234801561001057600080fd5b50600436106100365760003560e01c8063029b465d1461003b57806329fb92ce1461003b575b600080fd5b61004e6100493660046100de565b610060565b60405190815260200160405180910390f35b6000816001600160a01b0316846001600160a01b03161460405180604001604052806002815260200161199b60f11b815250906100b95760405162461bcd60e51b81526004016100b09190610119565b60405180910390fd5b50919392505050565b80356001600160a01b03811681146100d957600080fd5b919050565b6000806000606084860312156100f2578283fd5b6100fb846100c2565b925060208401359150610110604085016100c2565b90509250925092565b6000602080835283518082850152825b8181101561014557858101830151858201604001528201610129565b818111156101565783604083870101525b50601f01601f191692909201604001939250505056fea2646970667358221220e191cd3cbed9c105c8ce82653ad189099f7ba95bc6491f0cb2fdf2bf113d7e5564736f6c63430008040033",
  "devdoc": {
    "kind": "dev",
    "methods": {
      "convert(address,uint256,address)": {
        "details": "Converts `source` tokens to `target` tokens. Converted tokens must be on `msg.sender` address after exiting this function"
      }
    },
    "version": 1
  },
  "userdoc": {
    "kind": "user",
    "methods": {
      "estimateConvert(address,uint256,address)": {
        "notice": "Estimates conversion of `source` currency into `target` currency"
      }
    },
    "notice": "Noop converter",
    "version": 1
  },
  "storageLayout": {
    "storage": [],
    "types": null
  }
}