{
  "_format": "hh-sol-artifact-1",
  "contractName": "Errors",
  "sourceName": "contracts/libs/Errors.sol",
  "abi": [
    {
      "inputs": [],
      "name": "ALREADY_INITIALIZED",
      "outputs": [
        {
          "internalType": "string",
          "name": "",
          "type": "string"
        }
      ],
      "stateMutability": "view",
      "type": "function"
    },
    {
      "inputs": [],
      "name": "CALLER_NOT_ENTERPRISE",
      "outputs": [
        {
          "internalType": "string",
          "name": "",
          "type": "string"
        }
      ],
      "stateMutability": "view",
      "type": "function"
    },
    {
      "inputs": [],
      "name": "CALLER_NOT_OWNER",
      "outputs": [
        {
          "internalType": "string",
          "name": "",
          "type": "string"
        }
      ],
      "stateMutability": "view",
      "type": "function"
    },
    {
      "inputs": [],
      "name": "DC_UNSUPPORTED_PAIR",
      "outputs": [
        {
          "internalType": "string",
          "name": "",
          "type": "string"
        }
      ],
      "stateMutability": "view",
      "type": "function"
    },
    {
      "inputs": [],
      "name": "DE_INVALID_ENTERPRISE_ADDRESS",
      "outputs": [
        {
          "internalType": "string",
          "name": "",
          "type": "string"
        }
      ],
      "stateMutability": "view",
      "type": "function"
    },
    {
      "inputs": [],
      "name": "DE_LABMDA_NOT_GT_0",
      "outputs": [
        {
          "internalType": "string",
          "name": "",
          "type": "string"
        }
      ],
      "stateMutability": "view",
      "type": "function"
    },
    {
      "inputs": [],
      "name": "EF_INVALID_BORROW_TOKEN_IMPLEMENTATION_ADDRESS",
      "outputs": [
        {
          "internalType": "string",
          "name": "",
          "type": "string"
        }
      ],
      "stateMutability": "view",
      "type": "function"
    },
    {
      "inputs": [],
      "name": "EF_INVALID_ENTERPRISE_IMPLEMENTATION_ADDRESS",
      "outputs": [
        {
          "internalType": "string",
          "name": "",
          "type": "string"
        }
      ],
      "stateMutability": "view",
      "type": "function"
    },
    {
      "inputs": [],
      "name": "EF_INVALID_INTEREST_TOKEN_IMPLEMENTATION_ADDRESS",
      "outputs": [
        {
          "internalType": "string",
          "name": "",
          "type": "string"
        }
      ],
      "stateMutability": "view",
      "type": "function"
    },
    {
      "inputs": [],
      "name": "EF_INVALID_POWER_TOKEN_IMPLEMENTATION_ADDRESS",
      "outputs": [
        {
          "internalType": "string",
          "name": "",
          "type": "string"
        }
      ],
      "stateMutability": "view",
      "type": "function"
    },
    {
      "inputs": [],
      "name": "EO_INVALID_ENTERPRISE_ADDRESS",
      "outputs": [
        {
          "internalType": "string",
          "name": "",
          "type": "string"
        }
      ],
      "stateMutability": "view",
      "type": "function"
    },
    {
      "inputs": [],
      "name": "ERC20_APPROVE_FROM_THE_ZERO_ADDRESS",
      "outputs": [
        {
          "internalType": "string",
          "name": "",
          "type": "string"
        }
      ],
      "stateMutability": "view",
      "type": "function"
    },
    {
      "inputs": [],
      "name": "ERC20_APPROVE_TO_THE_ZERO_ADDRESS",
      "outputs": [
        {
          "internalType": "string",
          "name": "",
          "type": "string"
        }
      ],
      "stateMutability": "view",
      "type": "function"
    },
    {
      "inputs": [],
      "name": "ERC20_BURN_AMOUNT_EXCEEDS_BALANCE",
      "outputs": [
        {
          "internalType": "string",
          "name": "",
          "type": "string"
        }
      ],
      "stateMutability": "view",
      "type": "function"
    },
    {
      "inputs": [],
      "name": "ERC20_BURN_FROM_THE_ZERO_ADDRESS",
      "outputs": [
        {
          "internalType": "string",
          "name": "",
          "type": "string"
        }
      ],
      "stateMutability": "view",
      "type": "function"
    },
    {
      "inputs": [],
      "name": "ERC20_DECREASED_ALLOWANCE_BELOW_ZERO",
      "outputs": [
        {
          "internalType": "string",
          "name": "",
          "type": "string"
        }
      ],
      "stateMutability": "view",
      "type": "function"
    },
    {
      "inputs": [],
      "name": "ERC20_INVALID_PERIOD",
      "outputs": [
        {
          "internalType": "string",
          "name": "",
          "type": "string"
        }
      ],
      "stateMutability": "view",
      "type": "function"
    },
    {
      "inputs": [],
      "name": "ERC20_MINT_TO_THE_ZERO_ADDRESS",
      "outputs": [
        {
          "internalType": "string",
          "name": "",
          "type": "string"
        }
      ],
      "stateMutability": "view",
      "type": "function"
    },
    {
      "inputs": [],
      "name": "ERC20_TRANSFER_AMOUNT_EXCEEDS_ALLOWANCE",
      "outputs": [
        {
          "internalType": "string",
          "name": "",
          "type": "string"
        }
      ],
      "stateMutability": "view",
      "type": "function"
    },
    {
      "inputs": [],
      "name": "ERC20_TRANSFER_AMOUNT_EXCEEDS_BALANCE",
      "outputs": [
        {
          "internalType": "string",
          "name": "",
          "type": "string"
        }
      ],
      "stateMutability": "view",
      "type": "function"
    },
    {
      "inputs": [],
      "name": "ERC20_TRANSFER_FROM_THE_ZERO_ADDRESS",
      "outputs": [
        {
          "internalType": "string",
          "name": "",
          "type": "string"
        }
      ],
      "stateMutability": "view",
      "type": "function"
    },
    {
      "inputs": [],
      "name": "ERC20_TRANSFER_TO_THE_ZERO_ADDRESS",
      "outputs": [
        {
          "internalType": "string",
          "name": "",
          "type": "string"
        }
      ],
      "stateMutability": "view",
      "type": "function"
    },
    {
      "inputs": [],
      "name": "ERC721ENUM_GLOBAL_INDEX_OUT_OF_BOUNDS",
      "outputs": [
        {
          "internalType": "string",
          "name": "",
          "type": "string"
        }
      ],
      "stateMutability": "view",
      "type": "function"
    },
    {
      "inputs": [],
      "name": "ERC721ENUM_OWNER_INDEX_OUT_OF_BOUNDS",
      "outputs": [
        {
          "internalType": "string",
          "name": "",
          "type": "string"
        }
      ],
      "stateMutability": "view",
      "type": "function"
    },
    {
      "inputs": [],
      "name": "ERC721META_URI_QUERY_FOR_NONEXISTENT_TOKEN",
      "outputs": [
        {
          "internalType": "string",
          "name": "",
          "type": "string"
        }
      ],
      "stateMutability": "view",
      "type": "function"
    },
    {
      "inputs": [],
      "name": "ERC721_APPROVAL_TO_CURRENT_OWNER",
      "outputs": [
        {
          "internalType": "string",
          "name": "",
          "type": "string"
        }
      ],
      "stateMutability": "view",
      "type": "function"
    },
    {
      "inputs": [],
      "name": "ERC721_APPROVED_QUERY_FOR_NONEXISTENT_TOKEN",
      "outputs": [
        {
          "internalType": "string",
          "name": "",
          "type": "string"
        }
      ],
      "stateMutability": "view",
      "type": "function"
    },
    {
      "inputs": [],
      "name": "ERC721_APPROVE_CALLER_IS_NOT_OWNER_NOR_APPROVED_FOR_ALL",
      "outputs": [
        {
          "internalType": "string",
          "name": "",
          "type": "string"
        }
      ],
      "stateMutability": "view",
      "type": "function"
    },
    {
      "inputs": [],
      "name": "ERC721_APPROVE_TO_CALLER",
      "outputs": [
        {
          "internalType": "string",
          "name": "",
          "type": "string"
        }
      ],
      "stateMutability": "view",
      "type": "function"
    },
    {
      "inputs": [],
      "name": "ERC721_BALANCE_QUERY_FOR_THE_ZERO_ADDRESS",
      "outputs": [
        {
          "internalType": "string",
          "name": "",
          "type": "string"
        }
      ],
      "stateMutability": "view",
      "type": "function"
    },
    {
      "inputs": [],
      "name": "ERC721_MINT_TO_THE_ZERO_ADDRESS",
      "outputs": [
        {
          "internalType": "string",
          "name": "",
          "type": "string"
        }
      ],
      "stateMutability": "view",
      "type": "function"
    },
    {
      "inputs": [],
      "name": "ERC721_OPERATOR_QUERY_FOR_NONEXISTENT_TOKEN",
      "outputs": [
        {
          "internalType": "string",
          "name": "",
          "type": "string"
        }
      ],
      "stateMutability": "view",
      "type": "function"
    },
    {
      "inputs": [],
      "name": "ERC721_OWNER_QUERY_FOR_NONEXISTENT_TOKEN",
      "outputs": [
        {
          "internalType": "string",
          "name": "",
          "type": "string"
        }
      ],
      "stateMutability": "view",
      "type": "function"
    },
    {
      "inputs": [],
      "name": "ERC721_TOKEN_ALREADY_MINTED",
      "outputs": [
        {
          "internalType": "string",
          "name": "",
          "type": "string"
        }
      ],
      "stateMutability": "view",
      "type": "function"
    },
    {
      "inputs": [],
      "name": "ERC721_TRANSFER_CALLER_IS_NOT_OWNER_NOR_APPROVED",
      "outputs": [
        {
          "internalType": "string",
          "name": "",
          "type": "string"
        }
      ],
      "stateMutability": "view",
      "type": "function"
    },
    {
      "inputs": [],
      "name": "ERC721_TRANSFER_OF_TOKEN_THAT_IS_NOT_OWN",
      "outputs": [
        {
          "internalType": "string",
          "name": "",
          "type": "string"
        }
      ],
      "stateMutability": "view",
      "type": "function"
    },
    {
      "inputs": [],
      "name": "ERC721_TRANSFER_TO_NON_ERC721RECEIVER_IMPLEMENTER",
      "outputs": [
        {
          "internalType": "string",
          "name": "",
          "type": "string"
        }
      ],
      "stateMutability": "view",
      "type": "function"
    },
    {
      "inputs": [],
      "name": "ERC721_TRANSFER_TO_THE_ZERO_ADDRESS",
      "outputs": [
        {
          "internalType": "string",
          "name": "",
          "type": "string"
        }
      ],
      "stateMutability": "view",
      "type": "function"
    },
    {
      "inputs": [],
      "name": "ES_INTEREST_HALF_LIFE_NOT_GT_0",
      "outputs": [
        {
          "internalType": "string",
          "name": "",
          "type": "string"
        }
      ],
      "stateMutability": "view",
      "type": "function"
    },
    {
      "inputs": [],
      "name": "ES_INVALID_BASE_TOKEN_ADDRESS",
      "outputs": [
        {
          "internalType": "string",
          "name": "",
          "type": "string"
        }
      ],
      "stateMutability": "view",
      "type": "function"
    },
    {
      "inputs": [],
      "name": "ES_INVALID_BORROWER_LOAN_RETURN_GRACE_PERIOD",
      "outputs": [
        {
          "internalType": "string",
          "name": "",
          "type": "string"
        }
      ],
      "stateMutability": "view",
      "type": "function"
    },
    {
      "inputs": [],
      "name": "ES_INVALID_COLLECTOR_ADDRESS",
      "outputs": [
        {
          "internalType": "string",
          "name": "",
          "type": "string"
        }
      ],
      "stateMutability": "view",
      "type": "function"
    },
    {
      "inputs": [],
      "name": "ES_INVALID_CONVERTER_ADDRESS",
      "outputs": [
        {
          "internalType": "string",
          "name": "",
          "type": "string"
        }
      ],
      "stateMutability": "view",
      "type": "function"
    },
    {
      "inputs": [],
      "name": "ES_INVALID_ENTERPRISE_LOAN_COLLECT_GRACE_PERIOD",
      "outputs": [
        {
          "internalType": "string",
          "name": "",
          "type": "string"
        }
      ],
      "stateMutability": "view",
      "type": "function"
    },
    {
      "inputs": [],
      "name": "ES_INVALID_ESTIMATOR_ADDRESS",
      "outputs": [
        {
          "internalType": "string",
          "name": "",
          "type": "string"
        }
      ],
      "stateMutability": "view",
      "type": "function"
    },
    {
      "inputs": [],
      "name": "ES_INVALID_LOAN_DURATION_RANGE",
      "outputs": [
        {
          "internalType": "string",
          "name": "",
          "type": "string"
        }
      ],
      "stateMutability": "view",
      "type": "function"
    },
    {
      "inputs": [],
      "name": "ES_INVALID_PAYMENT_TOKEN_ADDRESS",
      "outputs": [
        {
          "internalType": "string",
          "name": "",
          "type": "string"
        }
      ],
      "stateMutability": "view",
      "type": "function"
    },
    {
      "inputs": [],
      "name": "ES_INVALID_VAULT_ADDRESS",
      "outputs": [
        {
          "internalType": "string",
          "name": "",
          "type": "string"
        }
      ],
      "stateMutability": "view",
      "type": "function"
    },
    {
      "inputs": [],
      "name": "ES_MAX_SERVICE_FEE_PERCENT_EXCEEDED",
      "outputs": [
        {
          "internalType": "string",
          "name": "",
          "type": "string"
        }
      ],
      "stateMutability": "view",
      "type": "function"
    },
    {
      "inputs": [],
      "name": "ES_PERPETUAL_TOKENS_ALREADY_ALLOWED",
      "outputs": [
        {
          "internalType": "string",
          "name": "",
          "type": "string"
        }
      ],
      "stateMutability": "view",
      "type": "function"
    },
    {
      "inputs": [],
      "name": "ES_UNREGISTERED_PAYMENT_TOKEN",
      "outputs": [
        {
          "internalType": "string",
          "name": "",
          "type": "string"
        }
      ],
      "stateMutability": "view",
      "type": "function"
    },
    {
      "inputs": [],
      "name": "EXP_INVALID_PERIOD",
      "outputs": [
        {
          "internalType": "string",
          "name": "",
          "type": "string"
        }
      ],
      "stateMutability": "view",
      "type": "function"
    },
    {
      "inputs": [],
      "name": "E_CALLER_NOT_BORROW_TOKEN",
      "outputs": [
        {
          "internalType": "string",
          "name": "",
          "type": "string"
        }
      ],
      "stateMutability": "view",
      "type": "function"
    },
    {
      "inputs": [],
      "name": "E_FLASH_LIQUIDITY_REMOVAL",
      "outputs": [
        {
          "internalType": "string",
          "name": "",
          "type": "string"
        }
      ],
      "stateMutability": "view",
      "type": "function"
    },
    {
      "inputs": [],
      "name": "E_INSUFFICIENT_LIQUIDITY",
      "outputs": [
        {
          "internalType": "string",
          "name": "",
          "type": "string"
        }
      ],
      "stateMutability": "view",
      "type": "function"
    },
    {
      "inputs": [],
      "name": "E_INVALID_BASE_TOKEN_ADDRESS",
      "outputs": [
        {
          "internalType": "string",
          "name": "",
          "type": "string"
        }
      ],
      "stateMutability": "view",
      "type": "function"
    },
    {
      "inputs": [],
      "name": "E_INVALID_CALLER_WITHIN_BORROWER_GRACE_PERIOD",
      "outputs": [
        {
          "internalType": "string",
          "name": "",
          "type": "string"
        }
      ],
      "stateMutability": "view",
      "type": "function"
    },
    {
      "inputs": [],
      "name": "E_INVALID_CALLER_WITHIN_ENTERPRISE_GRACE_PERIOD",
      "outputs": [
        {
          "internalType": "string",
          "name": "",
          "type": "string"
        }
      ],
      "stateMutability": "view",
      "type": "function"
    },
    {
      "inputs": [],
      "name": "E_INVALID_LOAN_DURATION",
      "outputs": [
        {
          "internalType": "string",
          "name": "",
          "type": "string"
        }
      ],
      "stateMutability": "view",
      "type": "function"
    },
    {
      "inputs": [],
      "name": "E_INVALID_LOAN_DURATION_RANGE",
      "outputs": [
        {
          "internalType": "string",
          "name": "",
          "type": "string"
        }
      ],
      "stateMutability": "view",
      "type": "function"
    },
    {
      "inputs": [],
      "name": "E_INVALID_LOAN_TOKEN_ID",
      "outputs": [
        {
          "internalType": "string",
          "name": "",
          "type": "string"
        }
      ],
      "stateMutability": "view",
      "type": "function"
    },
    {
      "inputs": [],
      "name": "E_LOAN_COST_SLIPPAGE",
      "outputs": [
        {
          "internalType": "string",
          "name": "",
          "type": "string"
        }
      ],
      "stateMutability": "view",
      "type": "function"
    },
    {
      "inputs": [],
      "name": "E_LOAN_DURATION_OUT_OF_RANGE",
      "outputs": [
        {
          "internalType": "string",
          "name": "",
          "type": "string"
        }
      ],
      "stateMutability": "view",
      "type": "function"
    },
    {
      "inputs": [],
      "name": "E_LOAN_TRANSFER_NOT_ALLOWED",
      "outputs": [
        {
          "internalType": "string",
          "name": "",
          "type": "string"
        }
      ],
      "stateMutability": "view",
      "type": "function"
    },
    {
      "inputs": [],
      "name": "E_SERVICE_HALF_LIFE_NOT_GT_0",
      "outputs": [
        {
          "internalType": "string",
          "name": "",
          "type": "string"
        }
      ],
      "stateMutability": "view",
      "type": "function"
    },
    {
      "inputs": [],
      "name": "E_SERVICE_LIMIT_REACHED",
      "outputs": [
        {
          "internalType": "string",
          "name": "",
          "type": "string"
        }
      ],
      "stateMutability": "view",
      "type": "function"
    },
    {
      "inputs": [],
      "name": "E_UNSUPPORTED_INTEREST_PAYMENT_TOKEN",
      "outputs": [
        {
          "internalType": "string",
          "name": "",
          "type": "string"
        }
      ],
      "stateMutability": "view",
      "type": "function"
    },
    {
      "inputs": [],
      "name": "E_WRAPPING_NOT_ALLOWED",
      "outputs": [
        {
          "internalType": "string",
          "name": "",
          "type": "string"
        }
      ],
      "stateMutability": "view",
      "type": "function"
    },
    {
      "inputs": [],
      "name": "INVALID_ADDRESS",
      "outputs": [
        {
          "internalType": "string",
          "name": "",
          "type": "string"
        }
      ],
      "stateMutability": "view",
      "type": "function"
    },
    {
      "inputs": [],
      "name": "INVALID_ARRAY_LENGTH",
      "outputs": [
        {
          "internalType": "string",
          "name": "",
          "type": "string"
        }
      ],
      "stateMutability": "view",
      "type": "function"
    },
    {
      "inputs": [],
      "name": "IO_INVALID_OWNER_ADDRESS",
      "outputs": [
        {
          "internalType": "string",
          "name": "",
          "type": "string"
        }
      ],
      "stateMutability": "view",
      "type": "function"
    },
    {
      "inputs": [],
      "name": "NOT_INITIALIZED",
      "outputs": [
        {
          "internalType": "string",
          "name": "",
          "type": "string"
        }
      ],
      "stateMutability": "view",
      "type": "function"
    },
    {
      "inputs": [],
      "name": "PT_INSUFFICIENT_AVAILABLE_BALANCE",
      "outputs": [
        {
          "internalType": "string",
          "name": "",
          "type": "string"
        }
      ],
      "stateMutability": "view",
      "type": "function"
    },
    {
      "inputs": [],
      "name": "UNREGISTERED_POWER_TOKEN",
      "outputs": [
        {
          "internalType": "string",
          "name": "",
          "type": "string"
        }
      ],
      "stateMutability": "view",
      "type": "function"
    }
  ],
  "bytecode": "0x610d7d61003a600b82828239805160001a60731461002d57634e487b7160e01b600052600060045260246000fd5b30600052607381538281f3fe73000000000000000000000000000000000000000030146080604052600436106103585760003560e01c806302099fc11461035d5780630438c35614610394578063079756fb146103b55780630c6c5152146103d657806316c5e3d9146103f757806317e707cb146104185780631c1f953d146104395780631e59b9461461045a5780631ea040b71461047b5780632287ea961461049c57806326b186a9146104bd57806327a0cc0f146104de5780632a945fb9146104ff578063339aa0cc1461052057806335c550d41461054157806337321ece1461056257806338664ae61461058357806339c696a4146105a45780633da3f98c146105c55780633fd63db8146105e5578063439a74c91461060657806346cbdecd146106265780634b14d74a146106475780634c325dbc1461066857806350c4c338146106895780635511b2eb146106aa57806355647ffb146106cb5780635619a375146106ec5780635963709b1461070d5780636851f6521461072d57806368a9ca381461074e5780636ca080571461076f5780636da0bb291461078f5780636da4b9dc146107b05780636df71915146107d157806375f8b80e146107f2578063773dffbd1461081357806379661fa5146108345780637a0551a8146108555780637e7c64831461087657806380f74e821461089757806388c86d0d146108b8578063896526c7146108d95780639074f3d5146108fa57806399c423a31461091b5780639cac33c21461093c5780639ece14571461095d578063a2d800651461097e578063a2e3ffa31461099f578063a4686f4f146109bf578063a80a8815146109e0578063b0e105b614610a01578063b25b4ff914610a22578063b98fcca514610a43578063bd431b6314610a64578063bf3dd0c914610a85578063c118d7ce14610aa6578063c6a335ff14610ac7578063c70611ca14610ae7578063ca8ecbc514610b08578063d113d6b414610b28578063da670ab014610b48578063dbc8623b14610b69578063df9d8ad014610b8a578063dff949ba14610bab578063e02be1aa14610bcc578063e9a8d1e414610bed578063ec4ddaa314610c0e578063ee0f1d2614610c2f578063ef09f2a714610c50578063ef155a8a14610c71578063f752156414610c92578063fa175a0a14610cb2578063fdc131ab14610cd3575b600080fd5b61037e60405180604001604052806002815260200161033360f41b81525081565b60405161038b9190610cf4565b60405180910390f35b61037e604051806040016040528060028152602001611a1b60f11b81525081565b61037e60405180604001604052806002815260200161066760f31b81525081565b61037e60405180604001604052806002815260200161032360f41b81525081565b61037e60405180604001604052806002815260200161036360f41b81525081565b61037e60405180604001604052806002815260200161191960f11b81525081565b61037e60405180604001604052806002815260200161343560f01b81525081565b61037e60405180604001604052806002815260200161343760f01b81525081565b61037e604051806040016040528060028152602001610d4d60f21b81525081565b61037e604051806040016040528060028152602001611a1960f11b81525081565b61037e60405180604001604052806002815260200161363760f01b81525081565b61037e60405180604001604052806002815260200161323360f01b81525081565b61037e60405180604001604052806002815260200161343360f01b81525081565b61037e60405180604001604052806002815260200161313760f01b81525081565b61037e60405180604001604052806002815260200161199b60f11b81525081565b61037e60405180604001604052806002815260200161068760f31b81525081565b61037e604051806040016040528060028152602001611a9b60f11b81525081565b61037e60405180604001604052806002815260200161333360f01b81525081565b61037e604051806040016040528060018152602001603160f81b81525081565b61037e60405180604001604052806002815260200161333560f01b81525081565b61037e604051806040016040528060018152602001601960f91b81525081565b61037e60405180604001604052806002815260200161333160f01b81525081565b61037e60405180604001604052806002815260200161323760f01b81525081565b61037e60405180604001604052806002815260200161333760f01b81525081565b61037e60405180604001604052806002815260200161353160f01b81525081565b61037e604051806040016040528060028152602001610d8d60f21b81525081565b61037e60405180604001604052806002815260200161064760f31b81525081565b61037e60405180604001604052806002815260200161343960f01b81525081565b61037e604051806040016040528060018152602001603560f81b81525081565b61037e60405180604001604052806002815260200161313160f01b81525081565b61037e60405180604001604052806002815260200161313960f01b81525081565b61037e604051806040016040528060018152602001600d60fa1b81525081565b61037e60405180604001604052806002815260200161191b60f11b81525081565b61037e60405180604001604052806002815260200161031360f41b81525081565b61037e60405180604001604052806002815260200161363560f01b81525081565b61037e60405180604001604052806002815260200161373160f01b81525081565b61037e604051806040016040528060028152602001610c8d60f21b81525081565b61037e60405180604001604052806002815260200161363360f01b81525081565b61037e60405180604001604052806002815260200161363960f01b81525081565b61037e604051806040016040528060028152602001611b1b60f11b81525081565b61037e604051806040016040528060028152602001610ccd60f21b81525081565b61037e60405180604001604052806002815260200161353560f01b81525081565b61037e604051806040016040528060028152602001611b9960f11b81525081565b61037e60405180604001604052806002815260200161313560f01b81525081565b61037e60405180604001604052806002815260200161323960f01b81525081565b61037e60405180604001604052806002815260200161353760f01b81525081565b61037e6040518060400160405280600281526020016106c760f31b81525081565b61037e60405180604001604052806002815260200161343160f01b81525081565b61037e604051806040016040528060018152602001603360f81b81525081565b61037e604051806040016040528060028152602001610c4d60f21b81525081565b61037e60405180604001604052806002815260200161353960f01b81525081565b61037e60405180604001604052806002815260200161062760f31b81525081565b61037e60405180604001604052806002815260200161323560f01b81525081565b61037e60405180604001604052806002815260200161373360f01b81525081565b61037e60405180604001604052806002815260200161189960f11b81525081565b61037e60405180604001604052806002815260200161323160f01b81525081565b61037e6040518060400160405280600281526020016106a760f31b81525081565b61037e604051806040016040528060018152602001603760f81b81525081565b61037e604051806040016040528060028152602001611b1960f11b81525081565b61037e604051806040016040528060018152602001603960f81b81525081565b61037e604051806040016040528060018152602001601b60f91b81525081565b61037e60405180604001604052806002815260200161034360f41b81525081565b61037e604051806040016040528060028152602001610dcd60f21b81525081565b61037e60405180604001604052806002815260200161353360f01b81525081565b61037e60405180604001604052806002815260200161037360f41b81525081565b61037e60405180604001604052806002815260200161333960f01b81525081565b61037e604051806040016040528060028152602001610d0d60f21b81525081565b61037e60405180604001604052806002815260200161035360f41b81525081565b61037e60405180604001604052806002815260200161199960f11b81525081565b61037e60405180604001604052806002815260200161313360f01b81525081565b61037e60405180604001604052806002815260200161363160f01b81525081565b61037e604051806040016040528060018152602001600760fb1b81525081565b61037e604051806040016040528060028152602001611a9960f11b81525081565b61037e60405180604001604052806002815260200161189b60f11b81525081565b6000602080835283518082850152825b81811015610d2057858101830151858201604001528201610d04565b81811115610d315783604083870101525b50601f01601f191692909201604001939250505056fea26469706673582212204fab08158a3f6af29eac47f2001b48f6deb30cff87a56d95bf5634e48dbe981d64736f6c63430008040033",
  "linkReferences": {},
  "deployedLinkReferences": {}
}