{
  "_format": "hh-sol-artifact-1",
  "contractName": "PowerToken",
  "sourceName": "contracts/PowerToken.sol",
  "abi": [
    {
      "anonymous": false,
      "inputs": [
        {
          "indexed": true,
          "internalType": "address",
          "name": "owner",
          "type": "address"
        },
        {
          "indexed": true,
          "internalType": "address",
          "name": "spender",
          "type": "address"
        },
        {
          "indexed": false,
          "internalType": "uint256",
          "name": "value",
          "type": "uint256"
        }
      ],
      "name": "Approval",
      "type": "event"
    },
    {
      "anonymous": false,
      "inputs": [
        {
          "indexed": true,
          "internalType": "address",
          "name": "from",
          "type": "address"
        },
        {
          "indexed": true,
          "internalType": "address",
          "name": "to",
          "type": "address"
        },
        {
          "indexed": false,
          "internalType": "uint256",
          "name": "value",
          "type": "uint256"
        }
      ],
      "name": "Transfer",
      "type": "event"
    },
    {
      "inputs": [
        {
          "internalType": "address",
          "name": "owner",
          "type": "address"
        },
        {
          "internalType": "address",
          "name": "spender",
          "type": "address"
        }
      ],
      "name": "allowance",
      "outputs": [
        {
          "internalType": "uint256",
          "name": "",
          "type": "uint256"
        }
      ],
      "stateMutability": "view",
      "type": "function"
    },
    {
      "inputs": [
        {
          "internalType": "address",
          "name": "spender",
          "type": "address"
        },
        {
          "internalType": "uint256",
          "name": "amount",
          "type": "uint256"
        }
      ],
      "name": "approve",
      "outputs": [
        {
          "internalType": "bool",
          "name": "",
          "type": "bool"
        }
      ],
      "stateMutability": "nonpayable",
      "type": "function"
    },
    {
      "inputs": [
        {
          "internalType": "address",
          "name": "account",
          "type": "address"
        }
      ],
      "name": "availableBalanceOf",
      "outputs": [
        {
          "internalType": "uint256",
          "name": "",
          "type": "uint256"
        }
      ],
      "stateMutability": "view",
      "type": "function"
    },
    {
      "inputs": [
        {
          "internalType": "address",
          "name": "account",
          "type": "address"
        }
      ],
      "name": "balanceOf",
      "outputs": [
        {
          "internalType": "uint256",
          "name": "",
          "type": "uint256"
        }
      ],
      "stateMutability": "view",
      "type": "function"
    },
    {
      "inputs": [
        {
          "internalType": "address",
          "name": "account",
          "type": "address"
        },
        {
          "internalType": "uint256",
          "name": "value",
          "type": "uint256"
        }
      ],
      "name": "burnFrom",
      "outputs": [],
      "stateMutability": "nonpayable",
      "type": "function"
    },
    {
      "inputs": [],
      "name": "decimals",
      "outputs": [
        {
          "internalType": "uint8",
          "name": "",
          "type": "uint8"
        }
      ],
      "stateMutability": "view",
      "type": "function"
    },
    {
      "inputs": [
        {
          "internalType": "address",
          "name": "spender",
          "type": "address"
        },
        {
          "internalType": "uint256",
          "name": "subtractedValue",
          "type": "uint256"
        }
      ],
      "name": "decreaseAllowance",
      "outputs": [
        {
          "internalType": "bool",
          "name": "",
          "type": "bool"
        }
      ],
      "stateMutability": "nonpayable",
      "type": "function"
    },
    {
      "inputs": [
        {
          "internalType": "address",
          "name": "who",
          "type": "address"
        },
        {
          "internalType": "uint32",
          "name": "timestamp",
          "type": "uint32"
        }
      ],
      "name": "energyAt",
      "outputs": [
        {
          "internalType": "uint112",
          "name": "",
          "type": "uint112"
        }
      ],
      "stateMutability": "view",
      "type": "function"
    },
    {
      "inputs": [
        {
          "internalType": "address",
          "name": "from",
          "type": "address"
        },
        {
          "internalType": "address",
          "name": "to",
          "type": "address"
        },
        {
          "internalType": "uint256",
          "name": "amount",
          "type": "uint256"
        }
      ],
      "name": "forceTransfer",
      "outputs": [
        {
          "internalType": "bool",
          "name": "",
          "type": "bool"
        }
      ],
      "stateMutability": "nonpayable",
      "type": "function"
    },
    {
      "inputs": [],
      "name": "getEnterprise",
      "outputs": [
        {
          "internalType": "contract Enterprise",
          "name": "",
          "type": "address"
        }
      ],
      "stateMutability": "view",
      "type": "function"
    },
    {
      "inputs": [
        {
          "internalType": "address",
          "name": "spender",
          "type": "address"
        },
        {
          "internalType": "uint256",
          "name": "addedValue",
          "type": "uint256"
        }
      ],
      "name": "increaseAllowance",
      "outputs": [
        {
          "internalType": "bool",
          "name": "",
          "type": "bool"
        }
      ],
      "stateMutability": "nonpayable",
      "type": "function"
    },
    {
      "inputs": [
        {
          "internalType": "string",
          "name": "name",
          "type": "string"
        },
        {
          "internalType": "string",
          "name": "symbol",
          "type": "string"
        },
        {
          "internalType": "contract Enterprise",
          "name": "enterprise",
          "type": "address"
        }
      ],
      "name": "initialize",
      "outputs": [],
      "stateMutability": "nonpayable",
      "type": "function"
    },
    {
      "inputs": [
        {
          "internalType": "string",
          "name": "name_",
          "type": "string"
        },
        {
          "internalType": "string",
          "name": "symbol_",
          "type": "string"
        }
      ],
      "name": "initialize",
      "outputs": [],
      "stateMutability": "nonpayable",
      "type": "function"
    },
    {
      "inputs": [
        {
          "internalType": "contract Enterprise",
          "name": "enterprise",
          "type": "address"
        }
      ],
      "name": "initialize",
      "outputs": [],
      "stateMutability": "nonpayable",
      "type": "function"
    },
    {
      "inputs": [
        {
          "internalType": "address",
          "name": "to",
          "type": "address"
        },
        {
          "internalType": "uint256",
          "name": "value",
          "type": "uint256"
        }
      ],
      "name": "mint",
      "outputs": [],
      "stateMutability": "nonpayable",
      "type": "function"
    },
    {
      "inputs": [],
      "name": "name",
      "outputs": [
        {
          "internalType": "string",
          "name": "",
          "type": "string"
        }
      ],
      "stateMutability": "view",
      "type": "function"
    },
    {
      "inputs": [],
      "name": "symbol",
      "outputs": [
        {
          "internalType": "string",
          "name": "",
          "type": "string"
        }
      ],
      "stateMutability": "view",
      "type": "function"
    },
    {
      "inputs": [],
      "name": "totalSupply",
      "outputs": [
        {
          "internalType": "uint256",
          "name": "",
          "type": "uint256"
        }
      ],
      "stateMutability": "view",
      "type": "function"
    },
    {
      "inputs": [
        {
          "internalType": "address",
          "name": "recipient",
          "type": "address"
        },
        {
          "internalType": "uint256",
          "name": "amount",
          "type": "uint256"
        }
      ],
      "name": "transfer",
      "outputs": [
        {
          "internalType": "bool",
          "name": "",
          "type": "bool"
        }
      ],
      "stateMutability": "nonpayable",
      "type": "function"
    },
    {
      "inputs": [
        {
          "internalType": "address",
          "name": "sender",
          "type": "address"
        },
        {
          "internalType": "address",
          "name": "recipient",
          "type": "address"
        },
        {
          "internalType": "uint256",
          "name": "amount",
          "type": "uint256"
        }
      ],
      "name": "transferFrom",
      "outputs": [
        {
          "internalType": "bool",
          "name": "",
          "type": "bool"
        }
      ],
      "stateMutability": "nonpayable",
      "type": "function"
    },
    {
      "inputs": [
        {
          "internalType": "contract IERC20",
          "name": "liquidityToken",
          "type": "address"
        },
        {
          "internalType": "address",
          "name": "account",
          "type": "address"
        },
        {
          "internalType": "uint256",
          "name": "amount",
          "type": "uint256"
        }
      ],
      "name": "unwrap",
      "outputs": [],
      "stateMutability": "nonpayable",
      "type": "function"
    },
    {
      "inputs": [
        {
          "internalType": "contract IERC20",
          "name": "liquidityToken",
          "type": "address"
        },
        {
          "internalType": "address",
          "name": "from",
          "type": "address"
        },
        {
          "internalType": "address",
          "name": "to",
          "type": "address"
        },
        {
          "internalType": "uint256",
          "name": "amount",
          "type": "uint256"
        }
      ],
      "name": "wrap",
      "outputs": [],
      "stateMutability": "nonpayable",
      "type": "function"
    }
  ],
  "bytecode": "0x608060405234801561001057600080fd5b50611a32806100206000396000f3fe608060405234801561001057600080fd5b50600436106101125760003560e01c806306fdde0314610117578063077f224a14610135578063095ea7b31461014a57806318160ddd1461016d57806323b872dd1461017f57806325d998bb14610192578063313ce567146101a557806333bebb77146101b457806339509351146101c757806340c10f19146101da5780634cd88b76146101ed5780635370028e1461020057806370a082311461022b57806379cc67901461023e5780638cc7104f1461025157806395d89b4114610264578063a1571a571461026c578063a457c2d71461027f578063a9059cbb14610292578063c4d66de8146102a5578063dd62ed3e146102b8578063e298a2fd146102f1575b600080fd5b61011f610306565b60405161012c919061186a565b60405180910390f35b6101486101433660046117aa565b610398565b005b61015d61015836600461166e565b6103b0565b604051901515815260200161012c565b6002545b60405190815260200161012c565b61015d61018d36600461162e565b6103c6565b6101716101a03660046115da565b610460565b6040516012815260200161012c565b61015d6101c236600461162e565b61049b565b61015d6101d536600461166e565b6104f9565b6101486101e836600461166e565b610530565b6101486101fb36600461174a565b610585565b61021361020e366004611699565b6105f2565b6040516001600160701b03909116815260200161012c565b6101716102393660046115da565b610658565b61014861024c36600461166e565b610673565b61014861025f366004611736565b6106c4565b61011f610729565b61014861027a3660046116e6565b610738565b61015d61028d36600461166e565b6107a4565b61015d6102a036600461166e565b610812565b6101486102b33660046115da565b610821565b6101716102c63660046115f6565b6001600160a01b03918216600090815260016020908152604080832093909416825291909152205490565b6102f96108c8565b60405161012c9190611856565b6060600380546103159061194b565b80601f01602080910402602001604051908101604052809291908181526020018280546103419061194b565b801561038e5780601f106103635761010080835404028352916020019161038e565b820191906000526020600020905b81548152906001019060200180831161037157829003601f168201915b5050505050905090565b6103a181610821565b6103ab8383610585565b505050565b60006103bd3384846108d7565b50600192915050565b60006103d584848460006109bb565b6001600160a01b03841660009081526001602090815260408083203384528252918290205482518084019093526002835261031360f41b91830191909152908382101561043e5760405162461bcd60e51b8152600401610435919061186a565b60405180910390fd5b50610453853361044e8685611908565b6108d7565b60019150505b9392505050565b6001600160a01b0381166000908152600660205260408120546001600160701b031661048b83610658565b6104959190611908565b92915050565b6005546040805180820190915260018152600d60fa1b60208201526000916001600160a01b031633146104e15760405162461bcd60e51b8152600401610435919061186a565b506104ef84848460016109bb565b5060019392505050565b3360008181526001602090815260408083206001600160a01b038716845290915281205490916103bd91859061044e9086906118c8565b6005546040805180820190915260018152600d60fa1b6020820152906001600160a01b031633146105745760405162461bcd60e51b8152600401610435919061186a565b5061058182826001610b29565b5050565b600380546105929061194b565b6040805180820190915260018152601960f91b60208201529150156105ca5760405162461bcd60e51b8152600401610435919061186a565b5081516105de9060039060208501906114bb565b5080516103ab9060049060208401906114bb565b6001600160a01b0382166000908152600660209081526040808320815160608101835290546001600160701b038082168352600160701b82041693820193909352600160e01b90920463ffffffff1690820152610650818585610be7565b949350505050565b6001600160a01b031660009081526020819052604090205490565b6005546040805180820190915260018152600d60fa1b6020820152906001600160a01b031633146106b75760405162461bcd60e51b8152600401610435919061186a565b5061058182826001610ce8565b6005546040805180820190915260018152600d60fa1b6020820152906001600160a01b031633146107085760405162461bcd60e51b8152600401610435919061186a565b5061071582826000610ce8565b6103ab6001600160a01b0384168383610dff565b6060600480546103159061194b565b6005546040805180820190915260018152600d60fa1b6020820152906001600160a01b0316331461077c5760405162461bcd60e51b8152600401610435919061186a565b506107926001600160a01b038516843084610e62565b61079e82826000610b29565b50505050565b3360009081526001602090815260408083206001600160a01b038616845282528083205481518083019092526002825261313160f01b92820192909252838210156108025760405162461bcd60e51b8152600401610435919061186a565b506104ef338561044e8685611908565b60006103bd33848460006109bb565b6005546040805180820190915260018152601960f91b6020820152906001600160a01b0316156108645760405162461bcd60e51b8152600401610435919061186a565b50604080518082019091526002815261353960f01b60208201526001600160a01b0382166108a55760405162461bcd60e51b8152600401610435919061186a565b50600580546001600160a01b0319166001600160a01b0392909216919091179055565b6005546001600160a01b031690565b604080518082019091526002815261062760f31b60208201526001600160a01b0384166109175760405162461bcd60e51b8152600401610435919061186a565b50604080518082019091526002815261313960f01b60208201526001600160a01b0383166109585760405162461bcd60e51b8152600401610435919061186a565b506001600160a01b0383811660008181526001602090815260408083209487168084529482529182902085905590518481527f8c5be1e5ebec7d5bd14f71427d1e84f3dd0314c0f7b2291e5b200ac8c7c3b92591015b60405180910390a3505050565b604080518082019091526002815261189960f11b60208201526001600160a01b0385166109fb5760405162461bcd60e51b8152600401610435919061186a565b50604080518082019091526002815261313360f01b60208201526001600160a01b038416610a3c5760405162461bcd60e51b8152600401610435919061186a565b50610a4984848484610e9a565b6001600160a01b0384166000908152602081815260409182902054825180840190935260028352610c4d60f21b918301919091529083821015610a9f5760405162461bcd60e51b8152600401610435919061186a565b50610aaa8382611908565b6001600160a01b038087166000908152602081905260408082209390935590861681529081208054859290610ae09084906118c8565b92505081905550836001600160a01b0316856001600160a01b03166000805160206119dd83398151915285604051610b1a91815260200190565b60405180910390a35050505050565b604080518082019091526002815261313560f01b60208201526001600160a01b038416610b695760405162461bcd60e51b8152600401610435919061186a565b50610b776000848484610e9a565b8160026000828254610b8991906118c8565b90915550506001600160a01b03831660009081526020819052604081208054849290610bb69084906118c8565b90915550506040518281526001600160a01b038416906000906000805160206119dd833981519152906020016109ae565b600080610bf384610658565b905084602001516001600160701b0316816001600160701b03161115610cc657610cb48560400151866020015183610c2b91906118e0565b610c336108c8565b6001600160a01b0316638d6d50c9306040518263ffffffff1660e01b8152600401610c5e9190611856565b60206040518083038186803b158015610c7657600080fd5b505afa158015610c8a573d6000803e3d6000fd5b505050506040513d601f19601f82011682018060405250810190610cae919061181e565b8661113d565b610cbe90826118e0565b915050610459565b610cde8560400151828760200151610c2b91906118e0565b610cbe908261189d565b604080518082019091526002815261189b60f11b60208201526001600160a01b038416610d285760405162461bcd60e51b8152600401610435919061186a565b50610d368360008484610e9a565b6001600160a01b038316600090815260208181526040918290205482518084019093526002835261313760f01b918301919091529083821015610d8c5760405162461bcd60e51b8152600401610435919061186a565b50610d978382611908565b6001600160a01b03851660009081526020819052604081209190915560028054859290610dc5908490611908565b90915550506040518381526000906001600160a01b038616906000805160206119dd8339815191529060200160405180910390a350505050565b6040516001600160a01b0383166024820152604481018290526103ab90849063a9059cbb60e01b906064015b60408051601f198184030181529190526020810180516001600160e01b03166001600160e01b0319909316929092179091526112de565b6040516001600160a01b038085166024830152831660448201526064810182905261079e9085906323b872dd60e01b90608401610e2b565b426001600160a01b03851615611018576001600160a01b038516600090815260066020908152604091829020825160608101845290546001600160701b038082168352600160701b82041692820192909252600160e01b90910463ffffffff1691810191909152610f0c818784610be7565b6001600160701b0316602082015263ffffffff8216604082015282610f8b5780516001600160701b031684610f4088610658565b610f4a9190611908565b1015604051806040016040528060028152602001610dcd60f21b81525090610f855760405162461bcd60e51b8152600401610435919061186a565b50610faa565b8381600001818151610f9d91906118e0565b6001600160701b03169052505b6001600160a01b0386166000908152600660209081526040918290208351815492850151939094015163ffffffff16600160e01b026001600160e01b036001600160701b03948516600160701b026001600160e01b0319909416949095169390931791909117929092161790555b6001600160a01b03841615611136576001600160a01b038416600090815260066020908152604091829020825160608101845290546001600160701b038082168352600160701b82041692820192909252600160e01b90910463ffffffff1691810191909152611089818684610be7565b6001600160701b0316602082015263ffffffff8216604082015282156110c85783816000018181516110bb919061189d565b6001600160701b03169052505b6001600160a01b0385166000908152600660209081526040918290208351815492850151939094015163ffffffff16600160e01b026001600160e01b036001600160701b03948516600160701b026001600160e01b0319909416949095169390931791909117929092161790555b5050505050565b60008463ffffffff168263ffffffff161015604051806040016040528060018152602001600760fb1b815250906111875760405162461bcd60e51b8152600401610435919061186a565b5084820391508263ffffffff168263ffffffff16816111b657634e487b7160e01b600052601260045260246000fd5b0463ffffffff16846001600160701b0316901c93508263ffffffff168263ffffffff16816111f457634e487b7160e01b600052601260045260246000fd5b06915063ffffffff8216158061121157506001600160701b038416155b1561121d575082610650565b60006001600160701b0385168163ffffffff86811690861671b17217f7d1cf79abc9e3b39803f2f6af40f3028161126457634e487b7160e01b600052601260045260246000fd5b049050600160901b5b82156112d15792820192808284028161129657634e487b7160e01b600052601260045260246000fd5b0493849003939250600160901b0180828402816112c357634e487b7160e01b600052601260045260246000fd5b049250600160901b0161126d565b5091979650505050505050565b6000611333826040518060400160405280602081526020017f5361666545524332303a206c6f772d6c6576656c2063616c6c206661696c6564815250856001600160a01b03166113b09092919063ffffffff16565b8051909150156103ab578080602001905181019061135191906116c6565b6103ab5760405162461bcd60e51b815260206004820152602a60248201527f5361666545524332303a204552433230206f7065726174696f6e20646964206e6044820152691bdd081cdd58d8d9595960b21b6064820152608401610435565b6060610650848460008585843b6114095760405162461bcd60e51b815260206004820152601d60248201527f416464726573733a2063616c6c20746f206e6f6e2d636f6e74726163740000006044820152606401610435565b600080866001600160a01b03168587604051611425919061183a565b60006040518083038185875af1925050503d8060008114611462576040519150601f19603f3d011682016040523d82523d6000602084013e611467565b606091505b5091509150611477828286611482565b979650505050505050565b60608315611491575081610459565b8251156114a15782518084602001fd5b8160405162461bcd60e51b8152600401610435919061186a565b8280546114c79061194b565b90600052602060002090601f0160209004810192826114e9576000855561152f565b82601f1061150257805160ff191683800117855561152f565b8280016001018555821561152f579182015b8281111561152f578251825591602001919060010190611514565b5061153b92915061153f565b5090565b5b8082111561153b5760008155600101611540565b600082601f830112611564578081fd5b81356001600160401b038082111561157e5761157e61199c565b604051601f8301601f19908116603f011681019082821181831017156115a6576115a661199c565b816040528381528660208588010111156115be578485fd5b8360208701602083013792830160200193909352509392505050565b6000602082840312156115eb578081fd5b8135610459816119b2565b60008060408385031215611608578081fd5b8235611613816119b2565b91506020830135611623816119b2565b809150509250929050565b600080600060608486031215611642578081fd5b833561164d816119b2565b9250602084013561165d816119b2565b929592945050506040919091013590565b60008060408385031215611680578182fd5b823561168b816119b2565b946020939093013593505050565b600080604083850312156116ab578182fd5b82356116b6816119b2565b91506020830135611623816119ca565b6000602082840312156116d7578081fd5b81518015158114610459578182fd5b600080600080608085870312156116fb578081fd5b8435611706816119b2565b93506020850135611716816119b2565b92506040850135611726816119b2565b9396929550929360600135925050565b600080600060608486031215611642578283fd5b6000806040838503121561175c578182fd5b82356001600160401b0380821115611772578384fd5b61177e86838701611554565b93506020850135915080821115611793578283fd5b506117a085828601611554565b9150509250929050565b6000806000606084860312156117be578283fd5b83356001600160401b03808211156117d4578485fd5b6117e087838801611554565b945060208601359150808211156117f5578384fd5b5061180286828701611554565b9250506040840135611813816119b2565b809150509250925092565b60006020828403121561182f578081fd5b8151610459816119ca565b6000825161184c81846020870161191f565b9190910192915050565b6001600160a01b0391909116815260200190565b602081526000825180602084015261188981604085016020870161191f565b601f01601f19169190910160400192915050565b60006001600160701b038281168482168083038211156118bf576118bf611986565b01949350505050565b600082198211156118db576118db611986565b500190565b60006001600160701b038381169083168181101561190057611900611986565b039392505050565b60008282101561191a5761191a611986565b500390565b60005b8381101561193a578181015183820152602001611922565b8381111561079e5750506000910152565b600181811c9082168061195f57607f821691505b6020821081141561198057634e487b7160e01b600052602260045260246000fd5b50919050565b634e487b7160e01b600052601160045260246000fd5b634e487b7160e01b600052604160045260246000fd5b6001600160a01b03811681146119c757600080fd5b50565b63ffffffff811681146119c757600080fdfeddf252ad1be2c89b69c2b068fc378daa952ba7f163c4a11628f55a4df523b3efa26469706673582212206047e7d28c3f65f8915d13d638de146b793083b6a2ac10e4feaea3eac855c01964736f6c63430008040033",
  "linkReferences": {},
  "deployedLinkReferences": {}
}