{
  "_format": "hh-sol-artifact-1",
  "contractName": "PowerToken",
  "sourceName": "contracts/PowerToken.sol",
  "abi": [
    {
      "anonymous": false,
      "inputs": [
        {
          "indexed": true,
          "internalType": "address",
          "name": "owner",
          "type": "address"
        },
        {
          "indexed": true,
          "internalType": "address",
          "name": "spender",
          "type": "address"
        },
        {
          "indexed": false,
          "internalType": "uint256",
          "name": "value",
          "type": "uint256"
        }
      ],
      "name": "Approval",
      "type": "event"
    },
    {
      "anonymous": false,
      "inputs": [
        {
          "indexed": true,
          "internalType": "address",
          "name": "from",
          "type": "address"
        },
        {
          "indexed": true,
          "internalType": "address",
          "name": "to",
          "type": "address"
        },
        {
          "indexed": false,
          "internalType": "uint256",
          "name": "value",
          "type": "uint256"
        }
      ],
      "name": "Transfer",
      "type": "event"
    },
    {
      "inputs": [],
      "name": "allowPerpetualForever",
      "outputs": [],
      "stateMutability": "nonpayable",
      "type": "function"
    },
    {
      "inputs": [
        {
          "internalType": "address",
          "name": "owner",
          "type": "address"
        },
        {
          "internalType": "address",
          "name": "spender",
          "type": "address"
        }
      ],
      "name": "allowance",
      "outputs": [
        {
          "internalType": "uint256",
          "name": "",
          "type": "uint256"
        }
      ],
      "stateMutability": "view",
      "type": "function"
    },
    {
      "inputs": [],
      "name": "allowsPerpetual",
      "outputs": [
        {
          "internalType": "bool",
          "name": "",
          "type": "bool"
        }
      ],
      "stateMutability": "view",
      "type": "function"
    },
    {
      "inputs": [
        {
          "internalType": "address",
          "name": "spender",
          "type": "address"
        },
        {
          "internalType": "uint256",
          "name": "amount",
          "type": "uint256"
        }
      ],
      "name": "approve",
      "outputs": [
        {
          "internalType": "bool",
          "name": "",
          "type": "bool"
        }
      ],
      "stateMutability": "nonpayable",
      "type": "function"
    },
    {
      "inputs": [
        {
          "internalType": "address",
          "name": "account",
          "type": "address"
        }
      ],
      "name": "availableBalanceOf",
      "outputs": [
        {
          "internalType": "uint256",
          "name": "",
          "type": "uint256"
        }
      ],
      "stateMutability": "view",
      "type": "function"
    },
    {
      "inputs": [
        {
          "internalType": "address",
          "name": "account",
          "type": "address"
        }
      ],
      "name": "balanceOf",
      "outputs": [
        {
          "internalType": "uint256",
          "name": "",
          "type": "uint256"
        }
      ],
      "stateMutability": "view",
      "type": "function"
    },
    {
      "inputs": [],
      "name": "baseRate",
      "outputs": [
        {
          "internalType": "uint112",
          "name": "",
          "type": "uint112"
        }
      ],
      "stateMutability": "view",
      "type": "function"
    },
    {
      "inputs": [],
      "name": "baseToken",
      "outputs": [
        {
          "internalType": "contract IERC20Metadata",
          "name": "",
          "type": "address"
        }
      ],
      "stateMutability": "view",
      "type": "function"
    },
    {
      "inputs": [
        {
          "internalType": "address",
          "name": "account",
          "type": "address"
        },
        {
          "internalType": "uint256",
          "name": "value",
          "type": "uint256"
        }
      ],
      "name": "burnFrom",
      "outputs": [],
      "stateMutability": "nonpayable",
      "type": "function"
    },
    {
      "inputs": [],
      "name": "decimals",
      "outputs": [
        {
          "internalType": "uint8",
          "name": "",
          "type": "uint8"
        }
      ],
      "stateMutability": "view",
      "type": "function"
    },
    {
      "inputs": [
        {
          "internalType": "address",
          "name": "spender",
          "type": "address"
        },
        {
          "internalType": "uint256",
          "name": "subtractedValue",
          "type": "uint256"
        }
      ],
      "name": "decreaseAllowance",
      "outputs": [
        {
          "internalType": "bool",
          "name": "",
          "type": "bool"
        }
      ],
      "stateMutability": "nonpayable",
      "type": "function"
    },
    {
      "inputs": [
        {
          "internalType": "address",
          "name": "who",
          "type": "address"
        },
        {
          "internalType": "uint32",
          "name": "timestamp",
          "type": "uint32"
        }
      ],
      "name": "energyAt",
      "outputs": [
        {
          "internalType": "uint112",
          "name": "",
          "type": "uint112"
        }
      ],
      "stateMutability": "view",
      "type": "function"
    },
    {
      "inputs": [
        {
          "internalType": "contract IERC20",
          "name": "paymentToken",
          "type": "address"
        },
        {
          "internalType": "uint112",
          "name": "amount",
          "type": "uint112"
        },
        {
          "internalType": "uint32",
          "name": "duration",
          "type": "uint32"
        }
      ],
      "name": "estimateLoan",
      "outputs": [
        {
          "internalType": "uint256",
          "name": "",
          "type": "uint256"
        }
      ],
      "stateMutability": "view",
      "type": "function"
    },
    {
      "inputs": [
        {
          "internalType": "contract IERC20",
          "name": "paymentToken",
          "type": "address"
        },
        {
          "internalType": "uint112",
          "name": "amount",
          "type": "uint112"
        },
        {
          "internalType": "uint32",
          "name": "duration",
          "type": "uint32"
        }
      ],
      "name": "estimateLoanDetailed",
      "outputs": [
        {
          "internalType": "uint112",
          "name": "interest",
          "type": "uint112"
        },
        {
          "internalType": "uint112",
          "name": "serviceFee",
          "type": "uint112"
        },
        {
          "internalType": "uint112",
          "name": "gcFee",
          "type": "uint112"
        }
      ],
      "stateMutability": "view",
      "type": "function"
    },
    {
      "inputs": [
        {
          "internalType": "address",
          "name": "from",
          "type": "address"
        },
        {
          "internalType": "address",
          "name": "to",
          "type": "address"
        },
        {
          "internalType": "uint256",
          "name": "amount",
          "type": "uint256"
        }
      ],
      "name": "forceTransfer",
      "outputs": [
        {
          "internalType": "bool",
          "name": "",
          "type": "bool"
        }
      ],
      "stateMutability": "nonpayable",
      "type": "function"
    },
    {
      "inputs": [],
      "name": "gapHalvingPeriod",
      "outputs": [
        {
          "internalType": "uint32",
          "name": "",
          "type": "uint32"
        }
      ],
      "stateMutability": "view",
      "type": "function"
    },
    {
      "inputs": [],
      "name": "getEnterprise",
      "outputs": [
        {
          "internalType": "contract Enterprise",
          "name": "",
          "type": "address"
        }
      ],
      "stateMutability": "view",
      "type": "function"
    },
    {
      "inputs": [],
      "name": "getInfo",
      "outputs": [
        {
          "internalType": "string",
          "name": "name",
          "type": "string"
        },
        {
          "internalType": "string",
          "name": "symbol",
          "type": "string"
        },
        {
          "internalType": "uint112",
          "name": "baseRate",
          "type": "uint112"
        },
        {
          "internalType": "uint96",
          "name": "minGCFee",
          "type": "uint96"
        },
        {
          "internalType": "uint32",
          "name": "gapHalvingPeriod",
          "type": "uint32"
        },
        {
          "internalType": "uint16",
          "name": "index",
          "type": "uint16"
        },
        {
          "internalType": "contract IERC20Metadata",
          "name": "baseToken",
          "type": "address"
        },
        {
          "internalType": "uint32",
          "name": "minLoanDuration",
          "type": "uint32"
        },
        {
          "internalType": "uint32",
          "name": "maxLoanDuration",
          "type": "uint32"
        },
        {
          "internalType": "uint16",
          "name": "serviceFeePercent",
          "type": "uint16"
        },
        {
          "internalType": "bool",
          "name": "allowsPerpetual",
          "type": "bool"
        }
      ],
      "stateMutability": "view",
      "type": "function"
    },
    {
      "inputs": [
        {
          "internalType": "address",
          "name": "spender",
          "type": "address"
        },
        {
          "internalType": "uint256",
          "name": "addedValue",
          "type": "uint256"
        }
      ],
      "name": "increaseAllowance",
      "outputs": [
        {
          "internalType": "bool",
          "name": "",
          "type": "bool"
        }
      ],
      "stateMutability": "nonpayable",
      "type": "function"
    },
    {
      "inputs": [],
      "name": "index",
      "outputs": [
        {
          "internalType": "uint16",
          "name": "",
          "type": "uint16"
        }
      ],
      "stateMutability": "view",
      "type": "function"
    },
    {
      "inputs": [
        {
          "internalType": "contract Enterprise",
          "name": "enterprise_",
          "type": "address"
        },
        {
          "internalType": "uint112",
          "name": "baseRate_",
          "type": "uint112"
        },
        {
          "internalType": "uint96",
          "name": "minGCFee_",
          "type": "uint96"
        },
        {
          "internalType": "uint32",
          "name": "gapHalvingPeriod_",
          "type": "uint32"
        },
        {
          "internalType": "uint16",
          "name": "index_",
          "type": "uint16"
        },
        {
          "internalType": "contract IERC20Metadata",
          "name": "baseToken_",
          "type": "address"
        },
        {
          "internalType": "uint32",
          "name": "minLoanDuration_",
          "type": "uint32"
        },
        {
          "internalType": "uint32",
          "name": "maxLoanDuration_",
          "type": "uint32"
        },
        {
          "internalType": "uint16",
          "name": "serviceFeePercent_",
          "type": "uint16"
        },
        {
          "internalType": "bool",
          "name": "allowsPerpetual_",
          "type": "bool"
        }
      ],
      "name": "initialize",
      "outputs": [],
      "stateMutability": "nonpayable",
      "type": "function"
    },
    {
      "inputs": [
        {
          "internalType": "string",
          "name": "name_",
          "type": "string"
        },
        {
          "internalType": "string",
          "name": "symbol_",
          "type": "string"
        }
      ],
      "name": "initialize",
      "outputs": [],
      "stateMutability": "nonpayable",
      "type": "function"
    },
    {
      "inputs": [
        {
          "internalType": "contract Enterprise",
          "name": "enterprise",
          "type": "address"
        }
      ],
      "name": "initialize",
      "outputs": [],
      "stateMutability": "nonpayable",
      "type": "function"
    },
    {
      "inputs": [
        {
          "internalType": "uint32",
          "name": "duration",
          "type": "uint32"
        }
      ],
      "name": "isAllowedLoanDuration",
      "outputs": [
        {
          "internalType": "bool",
          "name": "",
          "type": "bool"
        }
      ],
      "stateMutability": "view",
      "type": "function"
    },
    {
      "inputs": [],
      "name": "lambda",
      "outputs": [
        {
          "internalType": "uint256",
          "name": "",
          "type": "uint256"
        }
      ],
      "stateMutability": "view",
      "type": "function"
    },
    {
      "inputs": [],
      "name": "maxLoanDuration",
      "outputs": [
        {
          "internalType": "uint32",
          "name": "",
          "type": "uint32"
        }
      ],
      "stateMutability": "view",
      "type": "function"
    },
    {
      "inputs": [],
      "name": "minGCFee",
      "outputs": [
        {
          "internalType": "uint96",
          "name": "",
          "type": "uint96"
        }
      ],
      "stateMutability": "view",
      "type": "function"
    },
    {
      "inputs": [],
      "name": "minLoanDuration",
      "outputs": [
        {
          "internalType": "uint32",
          "name": "",
          "type": "uint32"
        }
      ],
      "stateMutability": "view",
      "type": "function"
    },
    {
      "inputs": [
        {
          "internalType": "address",
          "name": "to",
          "type": "address"
        },
        {
          "internalType": "uint256",
          "name": "value",
          "type": "uint256"
        }
      ],
      "name": "mint",
      "outputs": [],
      "stateMutability": "nonpayable",
      "type": "function"
    },
    {
      "inputs": [],
      "name": "name",
      "outputs": [
        {
          "internalType": "string",
          "name": "",
          "type": "string"
        }
      ],
      "stateMutability": "view",
      "type": "function"
    },
    {
      "inputs": [
        {
          "internalType": "uint256",
          "name": "tokenId",
          "type": "uint256"
        }
      ],
      "name": "notifyNewLoan",
      "outputs": [],
      "stateMutability": "nonpayable",
      "type": "function"
    },
    {
      "inputs": [],
      "name": "serviceFeePercent",
      "outputs": [
        {
          "internalType": "uint16",
          "name": "",
          "type": "uint16"
        }
      ],
      "stateMutability": "view",
      "type": "function"
    },
    {
      "inputs": [
        {
          "internalType": "uint112",
          "name": "baseRate_",
          "type": "uint112"
        },
        {
          "internalType": "contract IERC20Metadata",
          "name": "baseToken_",
          "type": "address"
        },
        {
          "internalType": "uint96",
          "name": "minGCFee_",
          "type": "uint96"
        }
      ],
      "name": "setBaseRate",
      "outputs": [],
      "stateMutability": "nonpayable",
      "type": "function"
    },
    {
      "inputs": [
        {
          "internalType": "uint32",
          "name": "minLoanDuration_",
          "type": "uint32"
        },
        {
          "internalType": "uint32",
          "name": "maxLoanDuration_",
          "type": "uint32"
        }
      ],
      "name": "setLoanDurationLimits",
      "outputs": [],
      "stateMutability": "nonpayable",
      "type": "function"
    },
    {
      "inputs": [
        {
          "internalType": "uint16",
          "name": "newServiceFeePercent",
          "type": "uint16"
        }
      ],
      "name": "setServiceFeePercent",
      "outputs": [],
      "stateMutability": "nonpayable",
      "type": "function"
    },
    {
      "inputs": [
        {
          "internalType": "address",
          "name": "",
          "type": "address"
        }
      ],
      "name": "states",
      "outputs": [
        {
          "internalType": "uint112",
          "name": "lockedBalance",
          "type": "uint112"
        },
        {
          "internalType": "uint112",
          "name": "energy",
          "type": "uint112"
        },
        {
          "internalType": "uint32",
          "name": "timestamp",
          "type": "uint32"
        }
      ],
      "stateMutability": "view",
      "type": "function"
    },
    {
      "inputs": [],
      "name": "symbol",
      "outputs": [
        {
          "internalType": "string",
          "name": "",
          "type": "string"
        }
      ],
      "stateMutability": "view",
      "type": "function"
    },
    {
      "inputs": [],
      "name": "totalSupply",
      "outputs": [
        {
          "internalType": "uint256",
          "name": "",
          "type": "uint256"
        }
      ],
      "stateMutability": "view",
      "type": "function"
    },
    {
      "inputs": [
        {
          "internalType": "address",
          "name": "recipient",
          "type": "address"
        },
        {
          "internalType": "uint256",
          "name": "amount",
          "type": "uint256"
        }
      ],
      "name": "transfer",
      "outputs": [
        {
          "internalType": "bool",
          "name": "",
          "type": "bool"
        }
      ],
      "stateMutability": "nonpayable",
      "type": "function"
    },
    {
      "inputs": [
        {
          "internalType": "address",
          "name": "sender",
          "type": "address"
        },
        {
          "internalType": "address",
          "name": "recipient",
          "type": "address"
        },
        {
          "internalType": "uint256",
          "name": "amount",
          "type": "uint256"
        }
      ],
      "name": "transferFrom",
      "outputs": [
        {
          "internalType": "bool",
          "name": "",
          "type": "bool"
        }
      ],
      "stateMutability": "nonpayable",
      "type": "function"
    },
    {
      "inputs": [
        {
          "internalType": "uint256",
          "name": "amount",
          "type": "uint256"
        }
      ],
      "name": "unwrap",
      "outputs": [
        {
          "internalType": "bool",
          "name": "",
          "type": "bool"
        }
      ],
      "stateMutability": "nonpayable",
      "type": "function"
    },
    {
      "inputs": [
        {
          "internalType": "uint256",
          "name": "amount",
          "type": "uint256"
        }
      ],
      "name": "wrap",
      "outputs": [
        {
          "internalType": "bool",
          "name": "",
          "type": "bool"
        }
      ],
      "stateMutability": "nonpayable",
      "type": "function"
    },
    {
      "inputs": [
        {
          "internalType": "address",
          "name": "to",
          "type": "address"
        },
        {
          "internalType": "uint256",
          "name": "amount",
          "type": "uint256"
        }
      ],
      "name": "wrapTo",
      "outputs": [
        {
          "internalType": "bool",
          "name": "",
          "type": "bool"
        }
      ],
      "stateMutability": "nonpayable",
      "type": "function"
    }
  ],
  "bytecode": "0x608060405234801561001057600080fd5b506139b2806100206000396000f3fe608060405234801561001057600080fd5b50600436106101f95760003560e01c806302a22337146101fe57806306fdde0314610273578063095ea7b3146102885780630d148ab6146102ab57806314663701146102c057806318160ddd146102e15780631f68f20a146102e957806323b872dd1461031457806325d998bb14610327578063272564861461033a5780632986c0e5146103425780632ef0cf8b1461036a578063313ce5671461037d57806333bebb771461038c578063395093511461039f57806340c10f19146103b25780634522a06e146103c55780634cd88b76146103f15780635370028e1461040457806353e6ccff146104175780635a9b0b891461042e5780636e4d89831461044d57806370a0823114610460578063759c8be31461047357806379cc67901461048657806395d89b4114610499578063995bc51e146104a15780639d5513d7146104b65780639f126fbe146104f3578063a457c2d714610506578063a4be77ee14610519578063a9059cbb14610530578063b53594ca14610543578063c043435214610557578063c4d66de81461056a578063c55dae631461057d578063dad0be611461059d578063dd62ed3e146105a6578063de0e9a3e146105df578063e298a2fd146105f2578063e8e2b23b146105fa578063ea598cb01461062c578063f8642f291461063f575b600080fd5b61024261020c36600461307e565b6004602052600090815260409020546001600160701b0380821691600160701b810490911690600160e01b900463ffffffff1683565b604080516001600160701b03948516815293909216602084015263ffffffff16908201526060015b60405180910390f35b61027b610650565b60405161026a9190613535565b61029b61029636600461312e565b6106e2565b604051901515815260200161026a565b6102be6102b93660046133df565b6106f9565b005b6102d36102ce366004613271565b610824565b60405190815260200161026a565b6007546102d3565b6001546102fc906001600160701b031681565b6040516001600160701b03909116815260200161026a565b61029b6103223660046130ee565b610867565b6102d361033536600461307e565b6108f6565b6102be61092b565b60015461035790600160f01b900461ffff1681565b60405161ffff909116815260200161026a565b6102be6103783660046131a2565b610a44565b6040516012815260200161026a565b61029b61039a3660046130ee565b610c47565b61029b6103ad36600461312e565b610ca4565b6102be6103c036600461312e565b610cdb565b6002546103dc90600160a01b900463ffffffff1681565b60405163ffffffff909116815260200161026a565b6102be6103ff366004613324565b610d30565b6102fc610412366004613159565b610da2565b6001546103dc90600160d01b900463ffffffff1681565b610436610e08565b60405161026a9b9a99989796959493929190613548565b61029b61045b366004613447565b61131f565b6102d361046e36600461307e565b611359565b6102be6104813660046133a0565b611374565b6102be61049436600461312e565b6114cd565b61027b61151e565b60025461035790600160e01b900461ffff1681565b6104c96104c4366004613271565b61152d565b604080516001600160701b039485168152928416602084015292169181019190915260600161026a565b61029b61050136600461312e565b61154c565b61029b61051436600461312e565b611558565b6002546103dc90600160c01b900463ffffffff1681565b61029b61053e36600461312e565b6115c6565b60025461029b90600160f01b900460ff1681565b6102be61056536600461347f565b6115d5565b6102be61057836600461307e565b61171d565b600254610590906001600160a01b031681565b60405161026a9190613521565b6102d360035481565b6102d36105b43660046130b6565b6001600160a01b03918216600090815260066020908152604080832093909416825291909152205490565b61029b6105ed366004613417565b6117c4565b610590611867565b60015461061490600160701b90046001600160601b031681565b6040516001600160601b03909116815260200161026a565b61029b61063a366004613417565b611876565b6102be61064d366004613417565b50565b60606008805461065f90613868565b80601f016020809104026020016040519081016040528092919081815260200182805461068b90613868565b80156106d85780601f106106ad576101008083540402835291602001916106d8565b820191906000526020600020905b8154815290600101906020018083116106bb57829003601f168201915b5050505050905090565b60006106ef338484611882565b5060015b92915050565b60005460408051638da5cb5b60e01b8152905133926001600160a01b031691638da5cb5b916004808301926020929190829003018186803b15801561073d57600080fd5b505afa158015610751573d6000803e3d6000fd5b505050506040513d601f19601f82011682018060405250810190610775919061309a565b6001600160a01b031614604051806040016040528060018152602001603360f81b815250906107c05760405162461bcd60e51b81526004016107b79190613535565b60405180910390fd5b50604080518082019091526002815261363760f01b602082015261138861ffff831611156108015760405162461bcd60e51b81526004016107b79190613535565b506002805461ffff909216600160e01b0261ffff60e01b19909216919091179055565b600080600080610835878787611966565b9194509250905080610847838561364c565b610851919061364c565b6001600160701b031693505050505b9392505050565b60006108768484846000611c15565b6001600160a01b03841660009081526006602090815260408083203384528252918290205482518084019093526002835261031360f41b9183019190915290838210156108d65760405162461bcd60e51b81526004016107b79190613535565b506108eb85336108e68685613825565b611882565b506001949350505050565b6001600160a01b0381166000908152600460205260408120546001600160701b031661092183611359565b6106f39190613825565b60005460408051638da5cb5b60e01b8152905133926001600160a01b031691638da5cb5b916004808301926020929190829003018186803b15801561096f57600080fd5b505afa158015610983573d6000803e3d6000fd5b505050506040513d601f19601f820116820180604052508101906109a7919061309a565b6001600160a01b031614604051806040016040528060018152602001603360f81b815250906109e95760405162461bcd60e51b81526004016107b79190613535565b50600280546040805180820190915291825261037360f41b6020830152600160f01b900460ff1615610a2e5760405162461bcd60e51b81526004016107b79190613535565b506002805460ff60f01b1916600160f01b179055565b6001805460408051808201909152918252601960f91b6020830152600160d01b900463ffffffff1615610a8a5760405162461bcd60e51b81526004016107b79190613535565b50604080518082019091526002815261343360f01b602082015263ffffffff8816610ac85760405162461bcd60e51b81526004016107b79190613535565b50604080518082019091526002815261363760f01b602082015261138861ffff84161115610b095760405162461bcd60e51b81526004016107b79190613535565b506002805460408051808201909152918252611a1960f11b602083015263ffffffff600160c01b82048116600160a01b909204161115610b5c5760405162461bcd60e51b81526004016107b79190613535565b50610b668a61171d565b600180546001600160701b039a909a166001600160d01b0319909a1699909917600160701b6001600160601b039990991698909802979097176001600160d01b0316600160d01b63ffffffff978816026001600160f01b031617600160f01b61ffff968716810291909117909855600280546001600160a01b03959095166001600160c01b031990951694909417600160a01b938716939093029290921765ffffffffffff60c01b1916600160c01b919095160261ffff60e01b191693909317600160e01b93909216929092021760ff60f01b191691151590920217905550565b600080546040805180820190915260018152600d60fa1b6020820152906001600160a01b03163314610c8c5760405162461bcd60e51b81526004016107b79190613535565b50610c9a8484846001611c15565b5060019392505050565b3360008181526006602090815260408083206001600160a01b038716845290915281205490916106ef9185906108e6908690613677565b6000546040805180820190915260018152600d60fa1b6020820152906001600160a01b03163314610d1f5760405162461bcd60e51b81526004016107b79190613535565b50610d2c82826001611d85565b5050565b60088054610d3d90613868565b6040805180820190915260018152601960f91b6020820152915015610d755760405162461bcd60e51b81526004016107b79190613535565b508151610d89906008906020850190612f94565b508051610d9d906009906020840190612f94565b505050565b6001600160a01b0382166000908152600460209081526040808320815160608101835290546001600160701b038082168352600160701b82041693820193909352600160e01b90920463ffffffff1690820152610e00818585611e43565b949350505050565b6060806000806000806000806000806000306001600160a01b03166306fdde036040518163ffffffff1660e01b815260040160006040518083038186803b158015610e5257600080fd5b505afa158015610e66573d6000803e3d6000fd5b505050506040513d6000823e601f3d908101601f19168201604052610e8e91908101906132bb565b306001600160a01b03166395d89b416040518163ffffffff1660e01b815260040160006040518083038186803b158015610ec757600080fd5b505afa158015610edb573d6000803e3d6000fd5b505050506040513d6000823e601f3d908101601f19168201604052610f0391908101906132bb565b306001600160a01b0316631f68f20a6040518163ffffffff1660e01b815260040160206040518083038186803b158015610f3c57600080fd5b505afa158015610f50573d6000803e3d6000fd5b505050506040513d601f19601f82011682018060405250810190610f749190613384565b306001600160a01b031663e8e2b23b6040518163ffffffff1660e01b815260040160206040518083038186803b158015610fad57600080fd5b505afa158015610fc1573d6000803e3d6000fd5b505050506040513d601f19601f82011682018060405250810190610fe591906134bd565b306001600160a01b03166353e6ccff6040518163ffffffff1660e01b815260040160206040518083038186803b15801561101e57600080fd5b505afa158015611032573d6000803e3d6000fd5b505050506040513d601f19601f820116820180604052508101906110569190613463565b306001600160a01b0316632986c0e56040518163ffffffff1660e01b815260040160206040518083038186803b15801561108f57600080fd5b505afa1580156110a3573d6000803e3d6000fd5b505050506040513d601f19601f820116820180604052508101906110c791906133fb565b306001600160a01b031663c55dae636040518163ffffffff1660e01b815260040160206040518083038186803b15801561110057600080fd5b505afa158015611114573d6000803e3d6000fd5b505050506040513d601f19601f82011682018060405250810190611138919061309a565b306001600160a01b0316634522a06e6040518163ffffffff1660e01b815260040160206040518083038186803b15801561117157600080fd5b505afa158015611185573d6000803e3d6000fd5b505050506040513d601f19601f820116820180604052508101906111a99190613463565b306001600160a01b031663a4be77ee6040518163ffffffff1660e01b815260040160206040518083038186803b1580156111e257600080fd5b505afa1580156111f6573d6000803e3d6000fd5b505050506040513d601f19601f8201168201806040525081019061121a9190613463565b306001600160a01b031663995bc51e6040518163ffffffff1660e01b815260040160206040518083038186803b15801561125357600080fd5b505afa158015611267573d6000803e3d6000fd5b505050506040513d601f19601f8201168201806040525081019061128b91906133fb565b306001600160a01b031663b53594ca6040518163ffffffff1660e01b815260040160206040518083038186803b1580156112c457600080fd5b505afa1580156112d8573d6000803e3d6000fd5b505050506040513d601f19601f820116820180604052508101906112fc9190613186565b9a509a509a509a509a509a509a509a509a509a509a50909192939495969798999a565b60025460009063ffffffff808416600160a01b90920416118015906106f3575050600254600160c01b900463ffffffff9081169116111590565b6001600160a01b031660009081526005602052604090205490565b60005460408051638da5cb5b60e01b8152905133926001600160a01b031691638da5cb5b916004808301926020929190829003018186803b1580156113b857600080fd5b505afa1580156113cc573d6000803e3d6000fd5b505050506040513d601f19601f820116820180604052508101906113f0919061309a565b6001600160a01b031614604051806040016040528060018152602001603360f81b815250906114325760405162461bcd60e51b81526004016107b79190613535565b5060028054604080518082019091529182526106c760f31b60208301526001600160a01b03166114755760405162461bcd60e51b81526004016107b79190613535565b5060018054600280546001600160a01b039095166001600160a01b0319909516949094179093556001600160601b03909116600160701b026001600160d01b03199092166001600160701b0390931692909217179055565b6000546040805180820190915260018152600d60fa1b6020820152906001600160a01b031633146115115760405162461bcd60e51b81526004016107b79190613535565b50610d2c82826001611ed1565b60606009805461065f90613868565b600080600061153d868686611966565b92509250925093509350939050565b60006108608383611fea565b3360009081526006602090815260408083206001600160a01b038616845282528083205481518083019092526002825261313160f01b92820192909252838210156115b65760405162461bcd60e51b81526004016107b79190613535565b50610c9a33856108e68685613825565b60006106ef3384846000611c15565b60005460408051638da5cb5b60e01b8152905133926001600160a01b031691638da5cb5b916004808301926020929190829003018186803b15801561161957600080fd5b505afa15801561162d573d6000803e3d6000fd5b505050506040513d601f19601f82011682018060405250810190611651919061309a565b6001600160a01b031614604051806040016040528060018152602001603360f81b815250906116935760405162461bcd60e51b81526004016107b79190613535565b508063ffffffff168263ffffffff16111560405180604001604052806002815260200161363960f01b815250906116dd5760405162461bcd60e51b81526004016107b79190613535565b5060028054600160a01b600160e01b031916600160a01b63ffffffff9485160263ffffffff60c01b191617600160c01b9290931691909102919091179055565b6000546040805180820190915260018152601960f91b6020820152906001600160a01b0316156117605760405162461bcd60e51b81526004016107b79190613535565b50604080518082019091526002815261353960f01b60208201526001600160a01b0382166117a15760405162461bcd60e51b81526004016107b79190613535565b50600080546001600160a01b0319166001600160a01b0392909216919091179055565b60006117d233836000611ed1565b61185f33836117df611867565b6001600160a01b031663644e44df6040518163ffffffff1660e01b815260040160206040518083038186803b15801561181757600080fd5b505afa15801561182b573d6000803e3d6000fd5b505050506040513d601f19601f8201168201806040525081019061184f919061309a565b6001600160a01b031691906120d8565b506001919050565b6000546001600160a01b031690565b60006106f33383611fea565b604080518082019091526002815261062760f31b60208201526001600160a01b0384166118c25760405162461bcd60e51b81526004016107b79190613535565b50604080518082019091526002815261313960f01b60208201526001600160a01b0383166119035760405162461bcd60e51b81526004016107b79190613535565b506001600160a01b0383811660008181526006602090815260408083209487168084529482529182902085905590518481527f8c5be1e5ebec7d5bd14f71427d1e84f3dd0314c0f7b2291e5b200ac8c7c3b92591015b60405180910390a3505050565b6000806000611973611867565b6001600160a01b0316632fb2067f876040518263ffffffff1660e01b815260040161199e9190613521565b60206040518083038186803b1580156119b657600080fd5b505afa1580156119ca573d6000803e3d6000fd5b505050506040513d601f19601f820116820180604052508101906119ee9190613186565b604051806040016040528060028152602001610d0d60f21b81525090611a275760405162461bcd60e51b81526004016107b79190613535565b50611a318461131f565b60405180604001604052806002815260200161343560f01b81525090611a6a5760405162461bcd60e51b81526004016107b79190613535565b506000611a77868661213b565b60025490915060009061271090611aa290600160e01b900461ffff166001600160701b03851661379d565b611aac919061368f565b90506000611ab8611867565b6001600160a01b0316632261b07f6040518163ffffffff1660e01b815260040160206040518083038186803b158015611af057600080fd5b505afa158015611b04573d6000803e3d6000fd5b505050506040513d601f19601f82011682018060405250810190611b28919061309a565b6002546040516314fdc96760e11b81526001600160a01b0391821660048201526001600160701b03861660248201528b821660448201529116906329fb92ce9060640160206040518083038186803b158015611b8357600080fd5b505afa158015611b97573d6000803e3d6000fd5b505050506040513d601f19601f82011682018060405250810190611bbb919061342f565b9050826001600160701b031681836001600160701b0316611bdc919061379d565b611be6919061368f565b9450611bfb6001600160701b03861682613825565b9550611c078989612493565b935050505093509350939050565b604080518082019091526002815261189960f11b60208201526001600160a01b038516611c555760405162461bcd60e51b81526004016107b79190613535565b50604080518082019091526002815261313360f01b60208201526001600160a01b038416611c965760405162461bcd60e51b81526004016107b79190613535565b50611ca38484848461266c565b6001600160a01b03841660009081526005602090815260409182902054825180840190935260028352610c4d60f21b918301919091529083821015611cfb5760405162461bcd60e51b81526004016107b79190613535565b50611d068382613825565b6001600160a01b038087166000908152600560205260408082209390935590861681529081208054859290611d3c908490613677565b92505081905550836001600160a01b0316856001600160a01b031660008051602061395d83398151915285604051611d7691815260200190565b60405180910390a35050505050565b604080518082019091526002815261313560f01b60208201526001600160a01b038416611dc55760405162461bcd60e51b81526004016107b79190613535565b50611dd3600084848461266c565b8160076000828254611de59190613677565b90915550506001600160a01b03831660009081526005602052604081208054849290611e12908490613677565b90915550506040518281526001600160a01b0384169060009060008051602061395d83398151915290602001611959565b600080611e4f84611359565b905084602001516001600160701b0316816001600160701b03161115611eaf57611e9d8560400151866020015183611e8791906137fd565b600154600160d01b900463ffffffff168661290f565b611ea790826137fd565b915050610860565b611ec78560400151828760200151611e8791906137fd565b611ea7908261364c565b604080518082019091526002815261189b60f11b60208201526001600160a01b038416611f115760405162461bcd60e51b81526004016107b79190613535565b50611f1f836000848461266c565b6001600160a01b0383166000908152600560209081526040918290205482518084019093526002835261313760f01b918301919091529083821015611f775760405162461bcd60e51b81526004016107b79190613535565b50611f828382613825565b6001600160a01b03851660009081526005602052604081209190915560078054859290611fb0908490613825565b90915550506040518381526000906001600160a01b0386169060008051602061395d8339815191529060200160405180910390a350505050565b60006002601e9054906101000a900460ff161515600115151460405180604001604052806002815260200161353160f01b8152509061203c5760405162461bcd60e51b81526004016107b79190613535565b506120cc33308461204b611867565b6001600160a01b031663644e44df6040518163ffffffff1660e01b815260040160206040518083038186803b15801561208357600080fd5b505afa158015612097573d6000803e3d6000fd5b505050506040513d601f19601f820116820180604052508101906120bb919061309a565b6001600160a01b0316929190612ab0565b6106ef83836000611d85565b6040516001600160a01b038316602482015260448101829052610d9d90849063a9059cbb60e01b906064015b60408051601f198184030181529190526020810180516001600160e01b03166001600160e01b031990931692909217909152612aee565b600080612146611867565b6001600160a01b031663aebb50416040518163ffffffff1660e01b815260040160206040518083038186803b15801561217e57600080fd5b505afa158015612192573d6000803e3d6000fd5b505050506040513d601f19601f820116820180604052508101906121b6919061342f565b9050836001600160701b031681116121d8576001600160701b039150506106f3565b6002546040805163313ce56760e01b815290516000926001600160a01b03169163313ce567916004808301926020929190829003018186803b15801561221d57600080fd5b505afa158015612231573d6000803e3d6000fd5b505050506040513d601f19601f82011682018060405250810190612255919061349c565b61225d611867565b6001600160a01b031663644e44df6040518163ffffffff1660e01b815260040160206040518083038186803b15801561229557600080fd5b505afa1580156122a9573d6000803e3d6000fd5b505050506040513d601f19601f820116820180604052508101906122cd919061309a565b6001600160a01b031663313ce5676040518163ffffffff1660e01b815260040160206040518083038186803b15801561230557600080fd5b505afa158015612319573d6000803e3d6000fd5b505050506040513d601f19601f8201168201806040525081019061233d919061349c565b61234791906137bc565b905060008463ffffffff166123dc876001600160701b0316612367611867565b6001600160a01b0316636936cc2d6040518163ffffffff1660e01b815260040160206040518083038186803b15801561239f57600080fd5b505afa1580156123b3573d6000803e3d6000fd5b505050506040513d601f19601f820116820180604052508101906123d7919061342f565b612bc0565b6123e6919061379d565b905060008260000b131561242a57604061240183600a6136f2565b600154612417906001600160701b03168461379d565b612421919061368f565b901c905061248a565b60008260000b121561246c576040612441836138a3565b61244c90600a6136f2565b600154612462906001600160701b03168461379d565b612421919061379d565b600154604090612485906001600160701b03168361379d565b901c90505b95945050505050565b6000806127106124a1611867565b6001600160a01b031663b406bf6d6040518163ffffffff1660e01b815260040160206040518083038186803b1580156124d957600080fd5b505afa1580156124ed573d6000803e3d6000fd5b505050506040513d601f19601f8201168201806040525081019061251191906133fb565b6125289061ffff166001600160701b03861661379d565b612532919061368f565b9050600061253e611867565b6001600160a01b0316632261b07f6040518163ffffffff1660e01b815260040160206040518083038186803b15801561257657600080fd5b505afa15801561258a573d6000803e3d6000fd5b505050506040513d601f19601f820116820180604052508101906125ae919061309a565b6002546001546040516314fdc96760e11b81526001600160a01b039283166004820152600160701b9091046001600160601b0316602482015287821660448201529116906329fb92ce9060640160206040518083038186803b15801561261357600080fd5b505afa158015612627573d6000803e3d6000fd5b505050506040513d601f19601f8201168201806040525081019061264b919061342f565b9050806001600160701b0316826001600160701b031610610e00578161248a565b426001600160a01b038516156127ea576001600160a01b038516600090815260046020908152604091829020825160608101845290546001600160701b038082168352600160701b82041692820192909252600160e01b90910463ffffffff16918101919091526126de818784611e43565b6001600160701b0316602082015263ffffffff821660408201528261275d5780516001600160701b03168461271288611359565b61271c9190613825565b1015604051806040016040528060028152602001610dcd60f21b815250906127575760405162461bcd60e51b81526004016107b79190613535565b5061277c565b838160000181815161276f91906137fd565b6001600160701b03169052505b6001600160a01b0386166000908152600460209081526040918290208351815492850151939094015163ffffffff16600160e01b026001600160e01b036001600160701b03948516600160701b026001600160e01b0319909416949095169390931791909117929092161790555b6001600160a01b03841615612908576001600160a01b038416600090815260046020908152604091829020825160608101845290546001600160701b038082168352600160701b82041692820192909252600160e01b90910463ffffffff169181019190915261285b818684611e43565b6001600160701b0316602082015263ffffffff82166040820152821561289a57838160000181815161288d919061364c565b6001600160701b03169052505b6001600160a01b0385166000908152600460209081526040918290208351815492850151939094015163ffffffff16600160e01b026001600160e01b036001600160701b03948516600160701b026001600160e01b0319909416949095169390931791909117929092161790555b5050505050565b60008463ffffffff168263ffffffff161015604051806040016040528060018152602001600760fb1b815250906129595760405162461bcd60e51b81526004016107b79190613535565b5084820391508263ffffffff168263ffffffff168161298857634e487b7160e01b600052601260045260246000fd5b0463ffffffff16846001600160701b0316901c93508263ffffffff168263ffffffff16816129c657634e487b7160e01b600052601260045260246000fd5b06915063ffffffff821615806129e357506001600160701b038416155b156129ef575082610e00565b60006001600160701b0385168163ffffffff86811690861671b17217f7d1cf79abc9e3b39803f2f6af40f30281612a3657634e487b7160e01b600052601260045260246000fd5b049050600160901b5b8215612aa357928201928082840281612a6857634e487b7160e01b600052601260045260246000fd5b0493849003939250600160901b018082840281612a9557634e487b7160e01b600052601260045260246000fd5b049250600160901b01612a3f565b5091979650505050505050565b6040516001600160a01b0380851660248301528316604482015260648101829052612ae89085906323b872dd60e01b90608401612104565b50505050565b6000612b43826040518060400160405280602081526020017f5361666545524332303a206c6f772d6c6576656c2063616c6c206661696c6564815250856001600160a01b0316612ce29092919063ffffffff16565b805190915015610d9d5780806020019051810190612b619190613186565b610d9d5760405162461bcd60e51b815260206004820152602a60248201527f5361666545524332303a204552433230206f7065726174696f6e20646964206e6044820152691bdd081cdd58d8d9595960b21b60648201526084016107b7565b600080612bcb611867565b6001600160a01b031663fcb2884e6040518163ffffffff1660e01b815260040160206040518083038186803b158015612c0357600080fd5b505afa158015612c17573d6000803e3d6000fd5b505050506040513d601f19601f82011682018060405250810190612c3b919061342f565b90506000612c47611867565b6001600160a01b03166359bf5d396040518163ffffffff1660e01b815260040160206040518083038186803b158015612c7f57600080fd5b505afa158015612c93573d6000803e3d6000fd5b505050506040513d601f19601f82011682018060405250810190612cb7919061342f565b9050612cc4828583612cf1565b612cd8612cd18785613677565b8684612cf1565b61248a9190613825565b6060610e008484600085612d2a565b60006040612d16612d028685613825565b612d1090604086901b61368f565b85612e52565b612d20908661379d565b901c949350505050565b606082471015612d8b5760405162461bcd60e51b815260206004820152602660248201527f416464726573733a20696e73756666696369656e742062616c616e636520666f6044820152651c8818d85b1b60d21b60648201526084016107b7565b843b612dd95760405162461bcd60e51b815260206004820152601d60248201527f416464726573733a2063616c6c20746f206e6f6e2d636f6e747261637400000060448201526064016107b7565b600080866001600160a01b03168587604051612df59190613505565b60006040518083038185875af1925050503d8060008114612e32576040519150601f19603f3d011682016040523d82523d6000602084013e612e37565b606091505b5091509150612e47828286612e81565b979650505050505050565b60006040612e5f84612eba565b612e72906001600160801b03168461379d565b610860911c600160401b613677565b60608315612e90575081610860565b825115612ea05782518084602001fd5b8160405162461bcd60e51b81526004016107b79190613535565b60008082600f0b13612ecb57600080fd5b6000600f83900b600160401b8112612ee5576040918201911d5b600160201b8112612ef8576020918201911d5b620100008112612f0a576010918201911d5b6101008112612f1b576008918201911d5b60108112612f2b576004918201911d5b60048112612f3b576002918201911d5b60028112612f4a576001820191505b603f19820160401b600f85900b607f8490031b6001603f1b5b6000811315612f895790800260ff81901c8281029390930192607f011c9060011d612f63565b509095945050505050565b828054612fa090613868565b90600052602060002090601f016020900481019282612fc25760008555613008565b82601f10612fdb57805160ff1916838001178555613008565b82800160010185558215613008579182015b82811115613008578251825591602001919060010190612fed565b50613014929150613018565b5090565b5b808211156130145760008155600101613019565b600082601f83011261303d578081fd5b813561305061304b82613625565b6135f5565b818152846020838601011115613064578283fd5b816020850160208301379081016020019190915292915050565b60006020828403121561308f578081fd5b8135610860816138ed565b6000602082840312156130ab578081fd5b8151610860816138ed565b600080604083850312156130c8578081fd5b82356130d3816138ed565b915060208301356130e3816138ed565b809150509250929050565b600080600060608486031215613102578081fd5b833561310d816138ed565b9250602084013561311d816138ed565b929592945050506040919091013590565b60008060408385031215613140578182fd5b823561314b816138ed565b946020939093013593505050565b6000806040838503121561316b578182fd5b8235613176816138ed565b915060208301356130e381613935565b600060208284031215613197578081fd5b815161086081613902565b6000806000806000806000806000806101408b8d0312156131c1578788fd5b8a356131cc816138ed565b995060208b01356131dc81613910565b985060408b01356131ec81613947565b975060608b01356131fc81613935565b965060808b013561320c81613925565b955060a08b013561321c816138ed565b945060c08b013561322c81613935565b935060e08b013561323c81613935565b92506101008b013561324d81613925565b91506101208b013561325e81613902565b809150509295989b9194979a5092959850565b600080600060608486031215613285578081fd5b8335613290816138ed565b925060208401356132a081613910565b915060408401356132b081613935565b809150509250925092565b6000602082840312156132cc578081fd5b81516001600160401b038111156132e1578182fd5b8201601f810184136132f1578182fd5b80516132ff61304b82613625565b818152856020838501011115613313578384fd5b61248a82602083016020860161383c565b60008060408385031215613336578182fd5b82356001600160401b038082111561334c578384fd5b6133588683870161302d565b9350602085013591508082111561336d578283fd5b5061337a8582860161302d565b9150509250929050565b600060208284031215613395578081fd5b815161086081613910565b6000806000606084860312156133b4578081fd5b83356133bf81613910565b925060208401356133cf816138ed565b915060408401356132b081613947565b6000602082840312156133f0578081fd5b813561086081613925565b60006020828403121561340c578081fd5b815161086081613925565b600060208284031215613428578081fd5b5035919050565b600060208284031215613440578081fd5b5051919050565b600060208284031215613458578081fd5b813561086081613935565b600060208284031215613474578081fd5b815161086081613935565b60008060408385031215613491578182fd5b823561317681613935565b6000602082840312156134ad578081fd5b815160ff81168114610860578182fd5b6000602082840312156134ce578081fd5b815161086081613947565b600081518084526134f181602086016020860161383c565b601f01601f19169290920160200192915050565b6000825161351781846020870161383c565b9190910192915050565b6001600160a01b0391909116815260200190565b60208152600061086060208301846134d9565b600061016080835261355c8184018f6134d9565b90508281036020840152613570818e6134d9565b6001600160701b038d1660408501526001600160601b038c16606085015263ffffffff8b8116608086015261ffff8b1660a08601526001600160a01b038a1660c0860152881660e085015291506135c49050565b63ffffffff851661010083015261ffff84166101208301528215156101408301529c9b505050505050505050505050565b604051601f8201601f191681016001600160401b038111828210171561361d5761361d6138d7565b604052919050565b60006001600160401b0382111561363e5761363e6138d7565b50601f01601f191660200190565b60006001600160701b0382811684821680830382111561366e5761366e6138c1565b01949350505050565b6000821982111561368a5761368a6138c1565b500190565b6000826136aa57634e487b7160e01b81526012600452602481fd5b500490565b600181815b808511156136ea5781600019048211156136d0576136d06138c1565b808516156136dd57918102915b93841c93908002906136b4565b509250929050565b600061086060ff84168360008261370b575060016106f3565b81613718575060006106f3565b816001811461372e576002811461373857613754565b60019150506106f3565b60ff841115613749576137496138c1565b50506001821b6106f3565b5060208310610133831016604e8410600b8410161715613777575081810a6106f3565b61378183836136af565b8060001904821115613795576137956138c1565b029392505050565b60008160001904831182151516156137b7576137b76138c1565b500290565b600081810b83820b8281128015607f198301841216156137de576137de6138c1565b81607f0183138116156137f3576137f36138c1565b5090039392505050565b60006001600160701b038381169083168181101561381d5761381d6138c1565b039392505050565b600082821015613837576138376138c1565b500390565b60005b8381101561385757818101518382015260200161383f565b83811115612ae85750506000910152565b600181811c9082168061387c57607f821691505b6020821081141561389d57634e487b7160e01b600052602260045260246000fd5b50919050565b600081810b607f198114156138ba576138ba6138c1565b9003919050565b634e487b7160e01b600052601160045260246000fd5b634e487b7160e01b600052604160045260246000fd5b6001600160a01b038116811461064d57600080fd5b801515811461064d57600080fd5b6001600160701b038116811461064d57600080fd5b61ffff8116811461064d57600080fd5b63ffffffff8116811461064d57600080fd5b6001600160601b038116811461064d57600080fdfeddf252ad1be2c89b69c2b068fc378daa952ba7f163c4a11628f55a4df523b3efa26469706673582212201adabed3027335a84554d83c7092f05f2266656efa5dc6ccc8dcb2388b69004d64736f6c63430008040033",
  "linkReferences": {},
  "deployedLinkReferences": {}
}