{
  "_format": "hh-sol-artifact-1",
  "contractName": "PowerToken",
  "sourceName": "contracts/PowerToken.sol",
  "abi": [
    {
      "anonymous": false,
      "inputs": [
        {
          "indexed": true,
          "internalType": "address",
          "name": "owner",
          "type": "address"
        },
        {
          "indexed": true,
          "internalType": "address",
          "name": "spender",
          "type": "address"
        },
        {
          "indexed": false,
          "internalType": "uint256",
          "name": "value",
          "type": "uint256"
        }
      ],
      "name": "Approval",
      "type": "event"
    },
    {
      "anonymous": false,
      "inputs": [
        {
          "indexed": false,
          "internalType": "uint112",
          "name": "baseRate",
          "type": "uint112"
        },
        {
          "indexed": false,
          "internalType": "address",
          "name": "baseToken",
          "type": "address"
        },
        {
          "indexed": false,
          "internalType": "uint96",
          "name": "minGCFee",
          "type": "uint96"
        }
      ],
      "name": "BaseRateChanged",
      "type": "event"
    },
    {
      "anonymous": false,
      "inputs": [
        {
          "indexed": false,
          "internalType": "uint32",
          "name": "minRentalPeriod",
          "type": "uint32"
        },
        {
          "indexed": false,
          "internalType": "uint32",
          "name": "maxRentalPeriod",
          "type": "uint32"
        }
      ],
      "name": "RentalPeriodLimitsChanged",
      "type": "event"
    },
    {
      "anonymous": false,
      "inputs": [
        {
          "indexed": false,
          "internalType": "uint16",
          "name": "percent",
          "type": "uint16"
        }
      ],
      "name": "ServiceFeePercentChanged",
      "type": "event"
    },
    {
      "anonymous": false,
      "inputs": [],
      "name": "SwappingEnabled",
      "type": "event"
    },
    {
      "anonymous": false,
      "inputs": [
        {
          "indexed": true,
          "internalType": "address",
          "name": "from",
          "type": "address"
        },
        {
          "indexed": true,
          "internalType": "address",
          "name": "to",
          "type": "address"
        },
        {
          "indexed": false,
          "internalType": "uint256",
          "name": "value",
          "type": "uint256"
        }
      ],
      "name": "Transfer",
      "type": "event"
    },
    {
      "anonymous": false,
      "inputs": [],
      "name": "TransferEnabled",
      "type": "event"
    },
    {
      "inputs": [
        {
          "internalType": "address",
          "name": "owner",
          "type": "address"
        },
        {
          "internalType": "address",
          "name": "spender",
          "type": "address"
        }
      ],
      "name": "allowance",
      "outputs": [
        {
          "internalType": "uint256",
          "name": "",
          "type": "uint256"
        }
      ],
      "stateMutability": "view",
      "type": "function"
    },
    {
      "inputs": [
        {
          "internalType": "address",
          "name": "spender",
          "type": "address"
        },
        {
          "internalType": "uint256",
          "name": "amount",
          "type": "uint256"
        }
      ],
      "name": "approve",
      "outputs": [
        {
          "internalType": "bool",
          "name": "",
          "type": "bool"
        }
      ],
      "stateMutability": "nonpayable",
      "type": "function"
    },
    {
      "inputs": [
        {
          "internalType": "address",
          "name": "account",
          "type": "address"
        }
      ],
      "name": "availableBalanceOf",
      "outputs": [
        {
          "internalType": "uint256",
          "name": "",
          "type": "uint256"
        }
      ],
      "stateMutability": "view",
      "type": "function"
    },
    {
      "inputs": [
        {
          "internalType": "address",
          "name": "account",
          "type": "address"
        }
      ],
      "name": "balanceOf",
      "outputs": [
        {
          "internalType": "uint256",
          "name": "",
          "type": "uint256"
        }
      ],
      "stateMutability": "view",
      "type": "function"
    },
    {
      "inputs": [
        {
          "internalType": "address",
          "name": "account",
          "type": "address"
        },
        {
          "internalType": "uint256",
          "name": "value",
          "type": "uint256"
        }
      ],
      "name": "burnFrom",
      "outputs": [],
      "stateMutability": "nonpayable",
      "type": "function"
    },
    {
      "inputs": [],
      "name": "decimals",
      "outputs": [
        {
          "internalType": "uint8",
          "name": "",
          "type": "uint8"
        }
      ],
      "stateMutability": "view",
      "type": "function"
    },
    {
      "inputs": [
        {
          "internalType": "address",
          "name": "spender",
          "type": "address"
        },
        {
          "internalType": "uint256",
          "name": "subtractedValue",
          "type": "uint256"
        }
      ],
      "name": "decreaseAllowance",
      "outputs": [
        {
          "internalType": "bool",
          "name": "",
          "type": "bool"
        }
      ],
      "stateMutability": "nonpayable",
      "type": "function"
    },
    {
      "inputs": [],
      "name": "enableSwappingForever",
      "outputs": [],
      "stateMutability": "nonpayable",
      "type": "function"
    },
    {
      "inputs": [],
      "name": "enableTransferForever",
      "outputs": [],
      "stateMutability": "nonpayable",
      "type": "function"
    },
    {
      "inputs": [
        {
          "internalType": "address",
          "name": "who",
          "type": "address"
        },
        {
          "internalType": "uint32",
          "name": "timestamp",
          "type": "uint32"
        }
      ],
      "name": "energyAt",
      "outputs": [
        {
          "internalType": "uint112",
          "name": "",
          "type": "uint112"
        }
      ],
      "stateMutability": "view",
      "type": "function"
    },
    {
      "inputs": [
        {
          "internalType": "address",
          "name": "paymentToken",
          "type": "address"
        },
        {
          "internalType": "uint112",
          "name": "rentalAmount",
          "type": "uint112"
        },
        {
          "internalType": "uint32",
          "name": "rentalPeriod",
          "type": "uint32"
        }
      ],
      "name": "estimateRentalFee",
      "outputs": [
        {
          "internalType": "uint112",
          "name": "poolFee",
          "type": "uint112"
        },
        {
          "internalType": "uint112",
          "name": "serviceFee",
          "type": "uint112"
        },
        {
          "internalType": "uint112",
          "name": "gcFee",
          "type": "uint112"
        }
      ],
      "stateMutability": "view",
      "type": "function"
    },
    {
      "inputs": [
        {
          "internalType": "address",
          "name": "from",
          "type": "address"
        },
        {
          "internalType": "address",
          "name": "to",
          "type": "address"
        },
        {
          "internalType": "uint256",
          "name": "amount",
          "type": "uint256"
        }
      ],
      "name": "forceTransfer",
      "outputs": [
        {
          "internalType": "bool",
          "name": "",
          "type": "bool"
        }
      ],
      "stateMutability": "nonpayable",
      "type": "function"
    },
    {
      "inputs": [],
      "name": "getBaseRate",
      "outputs": [
        {
          "internalType": "uint112",
          "name": "",
          "type": "uint112"
        }
      ],
      "stateMutability": "view",
      "type": "function"
    },
    {
      "inputs": [],
      "name": "getBaseToken",
      "outputs": [
        {
          "internalType": "contract IERC20Metadata",
          "name": "",
          "type": "address"
        }
      ],
      "stateMutability": "view",
      "type": "function"
    },
    {
      "inputs": [],
      "name": "getEnterprise",
      "outputs": [
        {
          "internalType": "contract IEnterprise",
          "name": "",
          "type": "address"
        }
      ],
      "stateMutability": "view",
      "type": "function"
    },
    {
      "inputs": [],
      "name": "getGapHalvingPeriod",
      "outputs": [
        {
          "internalType": "uint32",
          "name": "",
          "type": "uint32"
        }
      ],
      "stateMutability": "view",
      "type": "function"
    },
    {
      "inputs": [],
      "name": "getIndex",
      "outputs": [
        {
          "internalType": "uint16",
          "name": "",
          "type": "uint16"
        }
      ],
      "stateMutability": "view",
      "type": "function"
    },
    {
      "inputs": [],
      "name": "getInfo",
      "outputs": [
        {
          "internalType": "string",
          "name": "name",
          "type": "string"
        },
        {
          "internalType": "string",
          "name": "symbol",
          "type": "string"
        },
        {
          "internalType": "uint112",
          "name": "baseRate",
          "type": "uint112"
        },
        {
          "internalType": "uint96",
          "name": "minGCFee",
          "type": "uint96"
        },
        {
          "internalType": "uint32",
          "name": "energyGapHalvingPeriod",
          "type": "uint32"
        },
        {
          "internalType": "uint16",
          "name": "index",
          "type": "uint16"
        },
        {
          "internalType": "contract IERC20Metadata",
          "name": "baseToken",
          "type": "address"
        },
        {
          "internalType": "uint32",
          "name": "minRentalPeriod",
          "type": "uint32"
        },
        {
          "internalType": "uint32",
          "name": "maxRentalPeriod",
          "type": "uint32"
        },
        {
          "internalType": "uint16",
          "name": "serviceFeePercent",
          "type": "uint16"
        },
        {
          "internalType": "bool",
          "name": "swappingEnabled",
          "type": "bool"
        },
        {
          "internalType": "bool",
          "name": "transferEnabled",
          "type": "bool"
        }
      ],
      "stateMutability": "view",
      "type": "function"
    },
    {
      "inputs": [],
      "name": "getMaxRentalPeriod",
      "outputs": [
        {
          "internalType": "uint32",
          "name": "",
          "type": "uint32"
        }
      ],
      "stateMutability": "view",
      "type": "function"
    },
    {
      "inputs": [],
      "name": "getMinGCFee",
      "outputs": [
        {
          "internalType": "uint96",
          "name": "",
          "type": "uint96"
        }
      ],
      "stateMutability": "view",
      "type": "function"
    },
    {
      "inputs": [],
      "name": "getMinRentalPeriod",
      "outputs": [
        {
          "internalType": "uint32",
          "name": "",
          "type": "uint32"
        }
      ],
      "stateMutability": "view",
      "type": "function"
    },
    {
      "inputs": [],
      "name": "getServiceFeePercent",
      "outputs": [
        {
          "internalType": "uint16",
          "name": "",
          "type": "uint16"
        }
      ],
      "stateMutability": "view",
      "type": "function"
    },
    {
      "inputs": [
        {
          "internalType": "address",
          "name": "account",
          "type": "address"
        }
      ],
      "name": "getState",
      "outputs": [
        {
          "components": [
            {
              "internalType": "uint112",
              "name": "lockedBalance",
              "type": "uint112"
            },
            {
              "internalType": "uint112",
              "name": "energy",
              "type": "uint112"
            },
            {
              "internalType": "uint32",
              "name": "timestamp",
              "type": "uint32"
            }
          ],
          "internalType": "struct PowerTokenStorage.State",
          "name": "",
          "type": "tuple"
        }
      ],
      "stateMutability": "view",
      "type": "function"
    },
    {
      "inputs": [
        {
          "internalType": "address",
          "name": "spender",
          "type": "address"
        },
        {
          "internalType": "uint256",
          "name": "addedValue",
          "type": "uint256"
        }
      ],
      "name": "increaseAllowance",
      "outputs": [
        {
          "internalType": "bool",
          "name": "",
          "type": "bool"
        }
      ],
      "stateMutability": "nonpayable",
      "type": "function"
    },
    {
      "inputs": [
        {
          "internalType": "string",
          "name": "name_",
          "type": "string"
        },
        {
          "internalType": "string",
          "name": "symbol_",
          "type": "string"
        },
        {
          "internalType": "uint8",
          "name": "decimals_",
          "type": "uint8"
        }
      ],
      "name": "initialize",
      "outputs": [],
      "stateMutability": "nonpayable",
      "type": "function"
    },
    {
      "inputs": [
        {
          "internalType": "contract IEnterprise",
          "name": "enterprise",
          "type": "address"
        },
        {
          "internalType": "uint112",
          "name": "baseRate",
          "type": "uint112"
        },
        {
          "internalType": "uint96",
          "name": "minGCFee",
          "type": "uint96"
        },
        {
          "internalType": "uint32",
          "name": "energyGapHalvingPeriod",
          "type": "uint32"
        },
        {
          "internalType": "uint16",
          "name": "index",
          "type": "uint16"
        },
        {
          "internalType": "contract IERC20Metadata",
          "name": "baseToken",
          "type": "address"
        }
      ],
      "name": "initialize",
      "outputs": [],
      "stateMutability": "nonpayable",
      "type": "function"
    },
    {
      "inputs": [
        {
          "internalType": "contract IEnterprise",
          "name": "enterprise",
          "type": "address"
        }
      ],
      "name": "initialize",
      "outputs": [],
      "stateMutability": "nonpayable",
      "type": "function"
    },
    {
      "inputs": [
        {
          "internalType": "uint32",
          "name": "minRentalPeriod",
          "type": "uint32"
        },
        {
          "internalType": "uint32",
          "name": "maxRentalPeriod",
          "type": "uint32"
        },
        {
          "internalType": "uint16",
          "name": "serviceFeePercent",
          "type": "uint16"
        },
        {
          "internalType": "bool",
          "name": "swappingEnabled",
          "type": "bool"
        }
      ],
      "name": "initialize2",
      "outputs": [],
      "stateMutability": "nonpayable",
      "type": "function"
    },
    {
      "inputs": [
        {
          "internalType": "uint32",
          "name": "period",
          "type": "uint32"
        }
      ],
      "name": "isAllowedRentalPeriod",
      "outputs": [
        {
          "internalType": "bool",
          "name": "",
          "type": "bool"
        }
      ],
      "stateMutability": "view",
      "type": "function"
    },
    {
      "inputs": [],
      "name": "isSwappingEnabled",
      "outputs": [
        {
          "internalType": "bool",
          "name": "",
          "type": "bool"
        }
      ],
      "stateMutability": "view",
      "type": "function"
    },
    {
      "inputs": [],
      "name": "isTransferEnabled",
      "outputs": [
        {
          "internalType": "bool",
          "name": "",
          "type": "bool"
        }
      ],
      "stateMutability": "view",
      "type": "function"
    },
    {
      "inputs": [
        {
          "internalType": "address",
          "name": "to",
          "type": "address"
        },
        {
          "internalType": "uint256",
          "name": "value",
          "type": "uint256"
        }
      ],
      "name": "mint",
      "outputs": [],
      "stateMutability": "nonpayable",
      "type": "function"
    },
    {
      "inputs": [],
      "name": "name",
      "outputs": [
        {
          "internalType": "string",
          "name": "",
          "type": "string"
        }
      ],
      "stateMutability": "view",
      "type": "function"
    },
    {
      "inputs": [
        {
          "internalType": "uint256",
          "name": "rentalTokenId",
          "type": "uint256"
        }
      ],
      "name": "notifyNewRental",
      "outputs": [],
      "stateMutability": "nonpayable",
      "type": "function"
    },
    {
      "inputs": [
        {
          "internalType": "uint112",
          "name": "baseRate",
          "type": "uint112"
        },
        {
          "internalType": "contract IERC20Metadata",
          "name": "baseToken",
          "type": "address"
        },
        {
          "internalType": "uint96",
          "name": "minGCFee",
          "type": "uint96"
        }
      ],
      "name": "setBaseRate",
      "outputs": [],
      "stateMutability": "nonpayable",
      "type": "function"
    },
    {
      "inputs": [
        {
          "internalType": "uint32",
          "name": "minRentalPeriod",
          "type": "uint32"
        },
        {
          "internalType": "uint32",
          "name": "maxRentalPeriod",
          "type": "uint32"
        }
      ],
      "name": "setRentalPeriodLimits",
      "outputs": [],
      "stateMutability": "nonpayable",
      "type": "function"
    },
    {
      "inputs": [
        {
          "internalType": "uint16",
          "name": "newServiceFeePercent",
          "type": "uint16"
        }
      ],
      "name": "setServiceFeePercent",
      "outputs": [],
      "stateMutability": "nonpayable",
      "type": "function"
    },
    {
      "inputs": [
        {
          "internalType": "uint256",
          "name": "amount",
          "type": "uint256"
        }
      ],
      "name": "swapIn",
      "outputs": [
        {
          "internalType": "bool",
          "name": "",
          "type": "bool"
        }
      ],
      "stateMutability": "nonpayable",
      "type": "function"
    },
    {
      "inputs": [
        {
          "internalType": "uint256",
          "name": "amount",
          "type": "uint256"
        }
      ],
      "name": "swapOut",
      "outputs": [
        {
          "internalType": "bool",
          "name": "",
          "type": "bool"
        }
      ],
      "stateMutability": "nonpayable",
      "type": "function"
    },
    {
      "inputs": [],
      "name": "symbol",
      "outputs": [
        {
          "internalType": "string",
          "name": "",
          "type": "string"
        }
      ],
      "stateMutability": "view",
      "type": "function"
    },
    {
      "inputs": [],
      "name": "totalSupply",
      "outputs": [
        {
          "internalType": "uint256",
          "name": "",
          "type": "uint256"
        }
      ],
      "stateMutability": "view",
      "type": "function"
    },
    {
      "inputs": [
        {
          "internalType": "address",
          "name": "recipient",
          "type": "address"
        },
        {
          "internalType": "uint256",
          "name": "amount",
          "type": "uint256"
        }
      ],
      "name": "transfer",
      "outputs": [
        {
          "internalType": "bool",
          "name": "",
          "type": "bool"
        }
      ],
      "stateMutability": "nonpayable",
      "type": "function"
    },
    {
      "inputs": [
        {
          "internalType": "address",
          "name": "sender",
          "type": "address"
        },
        {
          "internalType": "address",
          "name": "recipient",
          "type": "address"
        },
        {
          "internalType": "uint256",
          "name": "amount",
          "type": "uint256"
        }
      ],
      "name": "transferFrom",
      "outputs": [
        {
          "internalType": "bool",
          "name": "",
          "type": "bool"
        }
      ],
      "stateMutability": "nonpayable",
      "type": "function"
    }
  ],
  "bytecode": "0x608060405234801561001057600080fd5b506138df806100206000396000f3fe608060405234801561001057600080fd5b50600436106101f95760003560e01c806306fdde03146101fe578063095ea7b31461021c5780630aff9d191461023f5780630d148ab61461026a5780631624f6c61461027f57806318160ddd146102925780631bab58f5146102a457806323b872dd1461035457806325d998bb14610367578063313ce5671461037a57806333bebb771461038f57806335528ee0146103a257806339509351146103aa57806340c10f19146103bd57806342bb702e146103d05780634aa5028b146103f65780635370028e146104085780635a859465146104335780635a9b0b8914610444578063659262a01461046457806367c5f3741461046c5780636dfbee1b1461047f5780636e4dba76146104a157806370005557146104b457806370a08231146104c7578063748abb02146104da57806374d945d9146104ed578063759c726514610500578063759c8be31461051357806379cc67901461052657806381045ead1461053957806395d89b411461054c57806398acd7a614610554578063a457c2d71461056e578063a9059cbb14610581578063b655d0c414610594578063c4d66de8146105a5578063cca5dcb6146105b8578063d29cc7c0146105ca578063dd62ed3e146105df578063e298a2fd14610618578063fcc4b67d14610620578063ff1fb88614610635575b600080fd5b610206610672565b60405161021391906133b8565b60405180910390f35b61022f61022a36600461301b565b610704565b6040519015158152602001610213565b600154600160701b90046001600160601b03166040516001600160601b039091168152602001610213565b61027d610278366004613229565b61071b565b005b61027d61028d36600461317a565b610868565b6006545b604051908152602001610213565b61031e6102b2366004612f27565b6040805160608082018352600080835260208084018290529284018190526001600160a01b03949094168452600382529282902082519384018352546001600160701b038082168552600160701b82041691840191909152600160e01b900463ffffffff169082015290565b6040805182516001600160701b039081168252602080850151909116908201529181015163ffffffff1690820152606001610213565b61022f610362366004612f97565b6108ee565b610296610375366004612f27565b61097f565b60095460405160ff9091168152602001610213565b61022f61039d366004612f97565b6109b4565b61027d610a11565b61022f6103b836600461301b565b610b41565b61027d6103cb36600461301b565b610b78565b600154600160d01b900463ffffffff165b60405163ffffffff9091168152602001610213565b600254600160f01b900460ff1661022f565b61041b610416366004613046565b610bcd565b6040516001600160701b039091168152602001610213565b61027d610441366004613261565b50565b61044c610c33565b6040516102139c9b9a999897969594939291906133cb565b61027d610dbf565b61027d61047a3660046132e9565b610f03565b600254600160e01b900461ffff165b60405161ffff9091168152602001610213565b61027d6104af3660046132ce565b6110b3565b61022f6104c23660046132b4565b611226565b6102966104d5366004612f27565b611260565b61027d6104e8366004613096565b61127b565b61022f6104fb366004613261565b6113b0565b61022f61050e366004613261565b611453565b61027d6105213660046131ee565b611536565b61027d61053436600461301b565b6116b0565b600154600160f01b900461ffff1661048e565b610206611701565b6002546001600160a01b03165b60405161021391906133a4565b61022f61057c36600461301b565b611710565b61022f61058f36600461301b565b61177e565b6001546001600160701b031661041b565b61027d6105b3366004612f27565b61178d565b600254600160f81b900460ff1661022f565b600254600160c01b900463ffffffff166103e1565b6102966105ed366004612f5f565b6001600160a01b03918216600090815260056020908152604080832093909416825291909152205490565b610561611834565b600254600160a01b900463ffffffff166103e1565b610648610643366004612fd7565b611843565b604080516001600160701b0394851681529284166020840152921691810191909152606001610213565b60606007805461068190613742565b80601f01602080910402602001604051908101604052809291908181526020018280546106ad90613742565b80156106fa5780601f106106cf576101008083540402835291602001916106fa565b820191906000526020600020905b8154815290600101906020018083116106dd57829003601f168201915b5050505050905090565b6000610711338484611aba565b5060015b92915050565b60005460408051638da5cb5b60e01b8152905133926001600160a01b031691638da5cb5b916004808301926020929190829003018186803b15801561075f57600080fd5b505afa158015610773573d6000803e3d6000fd5b505050506040513d601f19601f820116820180604052508101906107979190612f43565b6001600160a01b031614604051806040016040528060018152602001603360f81b815250906107e25760405162461bcd60e51b81526004016107d991906133b8565b60405180910390fd5b50604080518082019091526002815261363760f01b602082015261138861ffff831611156108235760405162461bcd60e51b81526004016107d991906133b8565b506002805461ffff60e01b1916600160e01b61ffff84169081029190911790915560405190815260008051602061386a8339815191529060200160405180910390a150565b6007805461087590613742565b6040805180820190915260018152601960f91b60208201529150156108ad5760405162461bcd60e51b81526004016107d991906133b8565b5082516108c1906007906020860190612df6565b5081516108d5906008906020850190612df6565b506009805460ff191660ff929092169190911790555050565b60006108fd8484846000611b9e565b6001600160a01b03841660009081526005602090815260408083203384528252918290205482518084019093526002835261031360f41b91830191909152908382101561095d5760405162461bcd60e51b81526004016107d991906133b8565b50610972853361096d86856136ff565b611aba565b60019150505b9392505050565b6001600160a01b0381166000908152600360205260408120546001600160701b03166109aa83611260565b61071591906136ff565b600080546040805180820190915260018152600d60fa1b6020820152906001600160a01b031633146109f95760405162461bcd60e51b81526004016107d991906133b8565b50610a078484846001611b9e565b5060019392505050565b60005460408051638da5cb5b60e01b8152905133926001600160a01b031691638da5cb5b916004808301926020929190829003018186803b158015610a5557600080fd5b505afa158015610a69573d6000803e3d6000fd5b505050506040513d601f19601f82011682018060405250810190610a8d9190612f43565b6001600160a01b031614604051806040016040528060018152602001603360f81b81525090610acf5760405162461bcd60e51b81526004016107d991906133b8565b50600280546040805180820190915291825261037360f41b6020830152600160f01b900460ff1615610b145760405162461bcd60e51b81526004016107d991906133b8565b506002805460ff60f01b1916600160f01b17905560405160008051602061380a83398151915290600090a1565b3360008181526005602090815260408083206001600160a01b0387168452909152812054909161071191859061096d908690613551565b6000546040805180820190915260018152600d60fa1b6020820152906001600160a01b03163314610bbc5760405162461bcd60e51b81526004016107d991906133b8565b50610bc982826001611d0e565b5050565b6001600160a01b0382166000908152600360209081526040808320815160608101835290546001600160701b038082168352600160701b82041693820193909352600160e01b90920463ffffffff1690820152610c2b818585611dcc565b949350505050565b606080600080600080600080600080600080306001600160a01b03166306fdde036040518163ffffffff1660e01b815260040160006040518083038186803b158015610c7e57600080fd5b505afa158015610c92573d6000803e3d6000fd5b505050506040513d6000823e601f3d908101601f19168201604052610cba9190810190613111565b306001600160a01b03166395d89b416040518163ffffffff1660e01b815260040160006040518083038186803b158015610cf357600080fd5b505afa158015610d07573d6000803e3d6000fd5b505050506040513d6000823e601f3d908101601f19168201604052610d2f9190810190613111565b600154600254929f919e506001600160701b0381169d506001600160601b03600160701b8204169c5063ffffffff600160d01b820481169c5061ffff600160f01b9283900481169c506001600160a01b0385169b50600160a01b850482169a50600160c01b85049091169850600160e01b840416965060ff90830481169550600160f81b90920490911692509050565b60005460408051638da5cb5b60e01b8152905133926001600160a01b031691638da5cb5b916004808301926020929190829003018186803b158015610e0357600080fd5b505afa158015610e17573d6000803e3d6000fd5b505050506040513d601f19601f82011682018060405250810190610e3b9190612f43565b6001600160a01b031614604051806040016040528060018152602001603360f81b81525090610e7d5760405162461bcd60e51b81526004016107d991906133b8565b50600280546040805180820190915291825261373960f01b6020830152600160f81b900460ff1615610ec25760405162461bcd60e51b81526004016107d991906133b8565b50600280546001600160f81b0316600160f81b1790556040517f75fce015c314a132947a3e42f6ab79ab8e05397dabf35b4d742dea228bbadc2d90600090a1565b6002546040805180820190915260018152601960f91b602082015290600160c01b900463ffffffff1615610f4a5760405162461bcd60e51b81526004016107d991906133b8565b506040805180820190915260028152611c1960f11b602082015263ffffffff8416610f885760405162461bcd60e51b81526004016107d991906133b8565b508263ffffffff168463ffffffff16111560405180604001604052806002815260200161363960f01b81525090610fd25760405162461bcd60e51b81526004016107d991906133b8565b5060028054600160a01b600160e01b031916600160a01b63ffffffff8781169190910263ffffffff60c01b191691909117600160c01b918616919091021762ffffff60e01b1916600160e01b61ffff85160260ff60f01b191617600160f01b8315150217905560405160008051602061386a8339815191529061106090849061ffff91909116815260200190565b60405180910390a160008051602061382a83398151915284846040516110879291906134b8565b60405180910390a180156110ad5760405160008051602061380a83398151915290600090a15b50505050565b60005460408051638da5cb5b60e01b8152905133926001600160a01b031691638da5cb5b916004808301926020929190829003018186803b1580156110f757600080fd5b505afa15801561110b573d6000803e3d6000fd5b505050506040513d601f19601f8201168201806040525081019061112f9190612f43565b6001600160a01b031614604051806040016040528060018152602001603360f81b815250906111715760405162461bcd60e51b81526004016107d991906133b8565b508063ffffffff168263ffffffff16111560405180604001604052806002815260200161363960f01b815250906111bb5760405162461bcd60e51b81526004016107d991906133b8565b506002805463ffffffff838116600160c01b0263ffffffff60c01b19918616600160a01b0291909116600160a01b600160e01b03199092169190911717905560405160008051602061382a8339815191529061121a90849084906134b8565b60405180910390a15050565b60025460009063ffffffff808416600160a01b9092041611801590610715575050600254600160c01b900463ffffffff9081169116111590565b6001600160a01b031660009081526004602052604090205490565b6001805460408051808201909152918252601960f91b6020830152600160d01b900463ffffffff16156112c15760405162461bcd60e51b81526004016107d991906133b8565b50604080518082019091526002815261343360f01b602082015263ffffffff84166112ff5760405162461bcd60e51b81526004016107d991906133b8565b506113098661178d565b600180546001600160701b0387166001600160d01b031990911617600160701b6001600160601b03871602176001600160d01b0316600160d01b63ffffffff8616026001600160f01b031617600160f01b61ffff851602179055600280546001600160a01b0319166001600160a01b03831617905560405160008051602061388a833981519152906113a090879084908890613485565b60405180910390a1505050505050565b60006113be33836000611e5a565b61144b33836113cb611834565b6001600160a01b03166360f870876040518163ffffffff1660e01b815260040160206040518083038186803b15801561140357600080fd5b505afa158015611417573d6000803e3d6000fd5b505050506040513d601f19601f8201168201806040525081019061143b9190612f43565b6001600160a01b03169190611f73565b506001919050565b600280546040805180820190915291825261353160f01b602083015260009190600160f01b900460ff1661149a5760405162461bcd60e51b81526004016107d991906133b8565b5061152a3330846114a9611834565b6001600160a01b03166360f870876040518163ffffffff1660e01b815260040160206040518083038186803b1580156114e157600080fd5b505afa1580156114f5573d6000803e3d6000fd5b505050506040513d601f19601f820116820180604052508101906115199190612f43565b6001600160a01b0316929190611fdb565b61144b33836000611d0e565b60005460408051638da5cb5b60e01b8152905133926001600160a01b031691638da5cb5b916004808301926020929190829003018186803b15801561157a57600080fd5b505afa15801561158e573d6000803e3d6000fd5b505050506040513d601f19601f820116820180604052508101906115b29190612f43565b6001600160a01b031614604051806040016040528060018152602001603360f81b815250906115f45760405162461bcd60e51b81526004016107d991906133b8565b5060028054604080518082019091529182526106c760f31b60208301526001600160a01b03166116375760405162461bcd60e51b81526004016107d991906133b8565b5060018054600280546001600160a01b0319166001600160a01b0386161790556001600160701b0385166001600160d01b031990911617600160701b6001600160601b0384160217905560405160008051602061388a833981519152906116a390859085908590613485565b60405180910390a1505050565b6000546040805180820190915260018152600d60fa1b6020820152906001600160a01b031633146116f45760405162461bcd60e51b81526004016107d991906133b8565b50610bc982826001611e5a565b60606008805461068190613742565b3360009081526005602090815260408083206001600160a01b038616845282528083205481518083019092526002825261313160f01b928201929092528382101561176e5760405162461bcd60e51b81526004016107d991906133b8565b50610a07338561096d86856136ff565b60006107113384846000611b9e565b6000546040805180820190915260018152601960f91b6020820152906001600160a01b0316156117d05760405162461bcd60e51b81526004016107d991906133b8565b50604080518082019091526002815261353960f01b60208201526001600160a01b0382166118115760405162461bcd60e51b81526004016107d991906133b8565b50600080546001600160a01b0319166001600160a01b0392909216919091179055565b6000546001600160a01b031690565b6000806000611850611834565b6001600160a01b0316632fb2067f876040518263ffffffff1660e01b815260040161187b91906133a4565b60206040518083038186803b15801561189357600080fd5b505afa1580156118a7573d6000803e3d6000fd5b505050506040513d601f19601f820116820180604052508101906118cb919061307a565b604051806040016040528060028152602001610d0d60f21b815250906119045760405162461bcd60e51b81526004016107d991906133b8565b5061190e84611226565b60405180604001604052806002815260200161343560f01b815250906119475760405162461bcd60e51b81526004016107d991906133b8565b5060006119548686612013565b90506000611960611834565b6001600160a01b0316632261b07f6040518163ffffffff1660e01b815260040160206040518083038186803b15801561199857600080fd5b505afa1580156119ac573d6000803e3d6000fd5b505050506040513d601f19601f820116820180604052508101906119d09190612f43565b6002546040516314fdc96760e11b81526001600160a01b0391821660048201526001600160701b03851660248201528a821660448201529116906329fb92ce9060640160206040518083038186803b158015611a2b57600080fd5b505afa158015611a3f573d6000803e3d6000fd5b505050506040513d601f19601f82011682018060405250810190611a639190613279565b60025490915061271090611a8290600160e01b900461ffff1683613677565b611a8c9190613569565b9350611aa16001600160701b038516826136ff565b9450611aad8882612375565b9250505093509350939050565b604080518082019091526002815261062760f31b60208201526001600160a01b038416611afa5760405162461bcd60e51b81526004016107d991906133b8565b50604080518082019091526002815261313960f01b60208201526001600160a01b038316611b3b5760405162461bcd60e51b81526004016107d991906133b8565b506001600160a01b0383811660008181526005602090815260408083209487168084529482529182902085905590518481527f8c5be1e5ebec7d5bd14f71427d1e84f3dd0314c0f7b2291e5b200ac8c7c3b92591015b60405180910390a3505050565b604080518082019091526002815261189960f11b60208201526001600160a01b038516611bde5760405162461bcd60e51b81526004016107d991906133b8565b50604080518082019091526002815261313360f01b60208201526001600160a01b038416611c1f5760405162461bcd60e51b81526004016107d991906133b8565b50611c2c84848484612550565b6001600160a01b03841660009081526004602090815260409182902054825180840190935260028352610c4d60f21b918301919091529083821015611c845760405162461bcd60e51b81526004016107d991906133b8565b50611c8f83826136ff565b6001600160a01b038087166000908152600460205260408082209390935590861681529081208054859290611cc5908490613551565b92505081905550836001600160a01b0316856001600160a01b031660008051602061384a83398151915285604051611cff91815260200190565b60405180910390a35050505050565b604080518082019091526002815261313560f01b60208201526001600160a01b038416611d4e5760405162461bcd60e51b81526004016107d991906133b8565b50611d5c6000848484612550565b8160066000828254611d6e9190613551565b90915550506001600160a01b03831660009081526004602052604081208054849290611d9b908490613551565b90915550506040518281526001600160a01b0384169060009060008051602061384a83398151915290602001611b91565b600080611dd884611260565b905084602001516001600160701b0316816001600160701b03161115611e3857611e268560400151866020015183611e1091906136d7565b600154600160d01b900463ffffffff1686612848565b611e3090826136d7565b915050610978565b611e508560400151828760200151611e1091906136d7565b611e309082613526565b604080518082019091526002815261189b60f11b60208201526001600160a01b038416611e9a5760405162461bcd60e51b81526004016107d991906133b8565b50611ea88360008484612550565b6001600160a01b0383166000908152600460209081526040918290205482518084019093526002835261313760f01b918301919091529083821015611f005760405162461bcd60e51b81526004016107d991906133b8565b50611f0b83826136ff565b6001600160a01b03851660009081526004602052604081209190915560068054859290611f399084906136ff565b90915550506040518381526000906001600160a01b0386169060008051602061384a8339815191529060200160405180910390a350505050565b6040516001600160a01b038316602482015260448101829052611fd690849063a9059cbb60e01b906064015b60408051601f198184030181529190526020810180516001600160e01b03166001600160e01b0319909316929092179091526129e9565b505050565b6040516001600160a01b03808516602483015283166044820152606481018290526110ad9085906323b872dd60e01b90608401611f9f565b60008061201e611834565b6001600160a01b031663aebb50416040518163ffffffff1660e01b815260040160206040518083038186803b15801561205657600080fd5b505afa15801561206a573d6000803e3d6000fd5b505050506040513d601f19601f8201168201806040525081019061208e9190613279565b9050836001600160701b031681116120b0576001600160701b03915050610715565b6002546040805163313ce56760e01b815290516000926001600160a01b03169163313ce567916004808301926020929190829003018186803b1580156120f557600080fd5b505afa158015612109573d6000803e3d6000fd5b505050506040513d601f19601f8201168201806040525081019061212d9190613340565b612135611834565b6001600160a01b03166360f870876040518163ffffffff1660e01b815260040160206040518083038186803b15801561216d57600080fd5b505afa158015612181573d6000803e3d6000fd5b505050506040513d601f19601f820116820180604052508101906121a59190612f43565b6001600160a01b031663313ce5676040518163ffffffff1660e01b815260040160206040518083038186803b1580156121dd57600080fd5b505afa1580156121f1573d6000803e3d6000fd5b505050506040513d601f19601f820116820180604052508101906122159190613340565b61221f9190613696565b905060008061222c611834565b6001600160a01b031663faac38ef6040518163ffffffff1660e01b8152600401604080518083038186803b15801561226357600080fd5b505afa158015612277573d6000803e3d6000fd5b505050506040513d601f19601f8201168201806040525081019061229b9190613291565b9150915060008663ffffffff166122bc896001600160701b03168585612abb565b6122c69190613677565b905060008460000b131561230a5760406122e185600a6135cc565b6001546122f7906001600160701b031684613677565b6123019190613569565b901c905061236a565b60008460000b121561234c5760406123218561377d565b61232c90600a6135cc565b600154612342906001600160701b031684613677565b6123019190613677565b600154604090612365906001600160701b031683613677565b901c90505b979650505050505050565b600080612710612383611834565b6001600160a01b031663b406bf6d6040518163ffffffff1660e01b815260040160206040518083038186803b1580156123bb57600080fd5b505afa1580156123cf573d6000803e3d6000fd5b505050506040513d601f19601f820116820180604052508101906123f39190613245565b6124019061ffff1685613677565b61240b9190613569565b90506000612417611834565b6001600160a01b0316632261b07f6040518163ffffffff1660e01b815260040160206040518083038186803b15801561244f57600080fd5b505afa158015612463573d6000803e3d6000fd5b505050506040513d601f19601f820116820180604052508101906124879190612f43565b6002546001546040516314fdc96760e11b81526001600160a01b039283166004820152600160701b9091046001600160601b0316602482015287821660448201529116906329fb92ce9060640160206040518083038186803b1580156124ec57600080fd5b505afa158015612500573d6000803e3d6000fd5b505050506040513d601f19601f820116820180604052508101906125249190613279565b9050806001600160701b0316826001600160701b0316106125455781612547565b805b95945050505050565b6001600160a01b03848116159084161581806125695750805b8061257d5750600254600160f81b900460ff165b60405180604001604052806002815260200161038360f41b815250906125b65760405162461bcd60e51b81526004016107d991906133b8565b50428261272b576001600160a01b038716600090815260036020908152604091829020825160608101845290546001600160701b038082168352600160701b82041692820192909252600160e01b90910463ffffffff169181019190915261261f818984611dcc565b6001600160701b0316602082015263ffffffff821660408201528461269e5780516001600160701b0316866126538a611260565b61265d91906136ff565b1015604051806040016040528060028152602001610dcd60f21b815250906126985760405162461bcd60e51b81526004016107d991906133b8565b506126bd565b85816000018181516126b091906136d7565b6001600160701b03169052505b6001600160a01b0388166000908152600360209081526040918290208351815492850151939094015163ffffffff16600160e01b026001600160e01b036001600160701b03948516600160701b026001600160e01b0319909416949095169390931791909117929092161790555b8161283f576001600160a01b038616600090815260036020908152604091829020825160608101845290546001600160701b038082168352600160701b82041692820192909252600160e01b90910463ffffffff1691810191909152612792818884611dcc565b6001600160701b0316602082015263ffffffff8216604082015284156127d15785816000018181516127c49190613526565b6001600160701b03169052505b6001600160a01b0387166000908152600360209081526040918290208351815492850151939094015163ffffffff16600160e01b026001600160e01b036001600160701b03948516600160701b026001600160e01b0319909416949095169390931791909117929092161790555b50505050505050565b60008463ffffffff168263ffffffff161015604051806040016040528060018152602001600760fb1b815250906128925760405162461bcd60e51b81526004016107d991906133b8565b5084820391508263ffffffff168263ffffffff16816128c157634e487b7160e01b600052601260045260246000fd5b0463ffffffff16846001600160701b0316901c93508263ffffffff168263ffffffff16816128ff57634e487b7160e01b600052601260045260246000fd5b06915063ffffffff8216158061291c57506001600160701b038416155b15612928575082610c2b565b60006001600160701b0385168163ffffffff86811690861671b17217f7d1cf79abc9e3b39803f2f6af40f3028161296f57634e487b7160e01b600052601260045260246000fd5b049050600160901b5b82156129dc579282019280828402816129a157634e487b7160e01b600052601260045260246000fd5b0493849003939250600160901b0180828402816129ce57634e487b7160e01b600052601260045260246000fd5b049250600160901b01612978565b5091979650505050505050565b6000612a3e826040518060400160405280602081526020017f5361666545524332303a206c6f772d6c6576656c2063616c6c206661696c6564815250856001600160a01b0316612bf29092919063ffffffff16565b805190915015611fd65780806020019051810190612a5c919061307a565b611fd65760405162461bcd60e51b815260206004820152602a60248201527f5361666545524332303a204552433230206f7065726174696f6e20646964206e6044820152691bdd081cdd58d8d9595960b21b60648201526084016107d9565b600080612ac6611834565b6001600160a01b031663fcb2884e6040518163ffffffff1660e01b815260040160206040518083038186803b158015612afe57600080fd5b505afa158015612b12573d6000803e3d6000fd5b505050506040513d601f19601f82011682018060405250810190612b369190613279565b90506000612b42611834565b6001600160a01b03166359bf5d396040518163ffffffff1660e01b815260040160206040518083038186803b158015612b7a57600080fd5b505afa158015612b8e573d6000803e3d6000fd5b505050506040513d601f19601f82011682018060405250810190612bb29190613279565b9050612bc082868684612c01565b612bde612bd66001600160801b03891685613551565b878785612c01565b612be891906136ff565b9695505050505050565b6060610c2b8484600085612c44565b60006040612c2f8382612c1489836136ff565b612c1f92911b613569565b6001600160801b03168686612d61565b612c399087613677565b901c95945050505050565b606082471015612ca55760405162461bcd60e51b815260206004820152602660248201527f416464726573733a20696e73756666696369656e742062616c616e636520666f6044820152651c8818d85b1b60d21b60648201526084016107d9565b843b612cf35760405162461bcd60e51b815260206004820152601d60248201527f416464726573733a2063616c6c20746f206e6f6e2d636f6e747261637400000060448201526064016107d9565b600080866001600160a01b03168587604051612d0f9190613388565b60006040518083038185875af1925050503d8060008114612d4c576040519150601f19603f3d011682016040523d82523d6000602084013e612d51565b606091505b509150915061236a828286612dbd565b6000828411612d7857506001600160801b03610978565b612d8682600160401b6136ff565b612d9084866136ff565b83612d9f86600160401b6136ff565b612da99190613677565b612db39190613569565b610c2b9190613551565b60608315612dcc575081610978565b825115612ddc5782518084602001fd5b8160405162461bcd60e51b81526004016107d991906133b8565b828054612e0290613742565b90600052602060002090601f016020900481019282612e245760008555612e6a565b82601f10612e3d57805160ff1916838001178555612e6a565b82800160010185558215612e6a579182015b82811115612e6a578251825591602001919060010190612e4f565b50612e76929150612e7a565b5090565b5b80821115612e765760008155600101612e7b565b600082601f830112612e9f578081fd5b8135612eb2612ead826134ff565b6134cf565b818152846020838601011115612ec6578283fd5b816020850160208301379081016020019190915292915050565b80356001600160701b0381168114612ef757600080fd5b919050565b803563ffffffff81168114612ef757600080fd5b80356001600160601b0381168114612ef757600080fd5b600060208284031215612f38578081fd5b8135610978816137c7565b600060208284031215612f54578081fd5b8151610978816137c7565b60008060408385031215612f71578081fd5b8235612f7c816137c7565b91506020830135612f8c816137c7565b809150509250929050565b600080600060608486031215612fab578081fd5b8335612fb6816137c7565b92506020840135612fc6816137c7565b929592945050506040919091013590565b600080600060608486031215612feb578283fd5b8335612ff6816137c7565b925061300460208501612ee0565b915061301260408501612efc565b90509250925092565b6000806040838503121561302d578182fd5b8235613038816137c7565b946020939093013593505050565b60008060408385031215613058578182fd5b8235613063816137c7565b915061307160208401612efc565b90509250929050565b60006020828403121561308b578081fd5b8151610978816137dc565b60008060008060008060c087890312156130ae578384fd5b86356130b9816137c7565b95506130c760208801612ee0565b94506130d560408801612f10565b93506130e360608801612efc565b925060808701356130f3816137ea565b915060a0870135613103816137c7565b809150509295509295509295565b600060208284031215613122578081fd5b81516001600160401b03811115613137578182fd5b8201601f81018413613147578182fd5b8051613155612ead826134ff565b818152856020838501011115613169578384fd5b612547826020830160208601613716565b60008060006060848603121561318e578081fd5b83356001600160401b03808211156131a4578283fd5b6131b087838801612e8f565b945060208601359150808211156131c5578283fd5b506131d286828701612e8f565b92505060408401356131e3816137fa565b809150509250925092565b600080600060608486031215613202578081fd5b61320b84612ee0565b9250602084013561321b816137c7565b915061301260408501612f10565b60006020828403121561323a578081fd5b8135610978816137ea565b600060208284031215613256578081fd5b8151610978816137ea565b600060208284031215613272578081fd5b5035919050565b60006020828403121561328a578081fd5b5051919050565b600080604083850312156132a3578182fd5b505080516020909101519092909150565b6000602082840312156132c5578081fd5b61097882612efc565b600080604083850312156132e0578182fd5b61306383612efc565b600080600080608085870312156132fe578182fd5b61330785612efc565b935061331560208601612efc565b92506040850135613325816137ea565b91506060850135613335816137dc565b939692955090935050565b600060208284031215613351578081fd5b8151610978816137fa565b60008151808452613374816020860160208601613716565b601f01601f19169290920160200192915050565b6000825161339a818460208701613716565b9190910192915050565b6001600160a01b0391909116815260200190565b602081526000610978602083018461335c565b610180815260006133e061018083018f61335c565b82810360208401526133f2818f61335c565b6001600160701b038e1660408501526001600160601b038d16606085015263ffffffff8c16608085015261ffff8b1660a08501526001600160a01b038a1660c0850152915061343e9050565b63ffffffff871660e083015263ffffffff861661010083015261ffff85166101208301528315156101408301528215156101608301529d9c50505050505050505050505050565b6001600160701b039390931683526001600160a01b039190911660208301526001600160601b0316604082015260600190565b63ffffffff92831681529116602082015260400190565b604051601f8201601f191681016001600160401b03811182821017156134f7576134f76137b1565b604052919050565b60006001600160401b03821115613518576135186137b1565b50601f01601f191660200190565b60006001600160701b038281168482168083038211156135485761354861379b565b01949350505050565b600082198211156135645761356461379b565b500190565b60008261358457634e487b7160e01b81526012600452602481fd5b500490565b600181815b808511156135c45781600019048211156135aa576135aa61379b565b808516156135b757918102915b93841c939080029061358e565b509250929050565b600061097860ff8416836000826135e557506001610715565b816135f257506000610715565b816001811461360857600281146136125761362e565b6001915050610715565b60ff8411156136235761362361379b565b50506001821b610715565b5060208310610133831016604e8410600b8410161715613651575081810a610715565b61365b8383613589565b806000190482111561366f5761366f61379b565b029392505050565b60008160001904831182151516156136915761369161379b565b500290565b600081810b83820b8281128015607f198301841216156136b8576136b861379b565b81607f0183138116156136cd576136cd61379b565b5090039392505050565b60006001600160701b03838116908316818110156136f7576136f761379b565b039392505050565b6000828210156137115761371161379b565b500390565b60005b83811015613731578181015183820152602001613719565b838111156110ad5750506000910152565b600181811c9082168061375657607f821691505b6020821081141561377757634e487b7160e01b600052602260045260246000fd5b50919050565b600081810b607f198114156137945761379461379b565b9003919050565b634e487b7160e01b600052601160045260246000fd5b634e487b7160e01b600052604160045260246000fd5b6001600160a01b038116811461044157600080fd5b801515811461044157600080fd5b61ffff8116811461044157600080fd5b60ff8116811461044157600080fdfe4f8e8d44a98a830b5142e61afa1cc8dacbf21291bcd657e26d2c7780e2c7fac461db23004a2218e8ecbda348735cc62eaaf3ca857e2705615a8d91acf6d7b817ddf252ad1be2c89b69c2b068fc378daa952ba7f163c4a11628f55a4df523b3ef7b5d5b53df75c87d5bea0f0535cd81a355db537ee2ca5dcea9849433d99847b92833a6b2910014b082775316936860d808d821fc59634fa08bc19c19427fa99da264697066735822122059d9f85b274ef4c038b0e02a9300a633b6c12d54783e3292540c1cc9b6381ce964736f6c63430008040033",
  "linkReferences": {},
  "deployedLinkReferences": {}
}