{
  "_format": "hh-sol-artifact-1",
  "contractName": "PowerToken",
  "sourceName": "contracts/PowerToken.sol",
  "abi": [
    {
      "anonymous": false,
      "inputs": [
        {
          "indexed": true,
          "internalType": "address",
          "name": "owner",
          "type": "address"
        },
        {
          "indexed": true,
          "internalType": "address",
          "name": "spender",
          "type": "address"
        },
        {
          "indexed": false,
          "internalType": "uint256",
          "name": "value",
          "type": "uint256"
        }
      ],
      "name": "Approval",
      "type": "event"
    },
    {
      "anonymous": false,
      "inputs": [
        {
          "indexed": true,
          "internalType": "address",
          "name": "previousOwner",
          "type": "address"
        },
        {
          "indexed": true,
          "internalType": "address",
          "name": "newOwner",
          "type": "address"
        }
      ],
      "name": "OwnershipTransferred",
      "type": "event"
    },
    {
      "anonymous": false,
      "inputs": [
        {
          "indexed": true,
          "internalType": "address",
          "name": "from",
          "type": "address"
        },
        {
          "indexed": true,
          "internalType": "address",
          "name": "to",
          "type": "address"
        },
        {
          "indexed": false,
          "internalType": "uint256",
          "name": "value",
          "type": "uint256"
        }
      ],
      "name": "Transfer",
      "type": "event"
    },
    {
      "inputs": [
        {
          "internalType": "address",
          "name": "owner",
          "type": "address"
        },
        {
          "internalType": "address",
          "name": "spender",
          "type": "address"
        }
      ],
      "name": "allowance",
      "outputs": [
        {
          "internalType": "uint256",
          "name": "",
          "type": "uint256"
        }
      ],
      "stateMutability": "view",
      "type": "function"
    },
    {
      "inputs": [
        {
          "internalType": "address",
          "name": "spender",
          "type": "address"
        },
        {
          "internalType": "uint256",
          "name": "amount",
          "type": "uint256"
        }
      ],
      "name": "approve",
      "outputs": [
        {
          "internalType": "bool",
          "name": "",
          "type": "bool"
        }
      ],
      "stateMutability": "nonpayable",
      "type": "function"
    },
    {
      "inputs": [
        {
          "internalType": "address",
          "name": "account",
          "type": "address"
        }
      ],
      "name": "availableBalanceOf",
      "outputs": [
        {
          "internalType": "uint256",
          "name": "",
          "type": "uint256"
        }
      ],
      "stateMutability": "view",
      "type": "function"
    },
    {
      "inputs": [
        {
          "internalType": "address",
          "name": "account",
          "type": "address"
        }
      ],
      "name": "balanceOf",
      "outputs": [
        {
          "internalType": "uint256",
          "name": "",
          "type": "uint256"
        }
      ],
      "stateMutability": "view",
      "type": "function"
    },
    {
      "inputs": [
        {
          "internalType": "address",
          "name": "account",
          "type": "address"
        },
        {
          "internalType": "uint256",
          "name": "value",
          "type": "uint256"
        }
      ],
      "name": "burnFrom",
      "outputs": [],
      "stateMutability": "nonpayable",
      "type": "function"
    },
    {
      "inputs": [],
      "name": "decimals",
      "outputs": [
        {
          "internalType": "uint8",
          "name": "",
          "type": "uint8"
        }
      ],
      "stateMutability": "view",
      "type": "function"
    },
    {
      "inputs": [
        {
          "internalType": "address",
          "name": "spender",
          "type": "address"
        },
        {
          "internalType": "uint256",
          "name": "subtractedValue",
          "type": "uint256"
        }
      ],
      "name": "decreaseAllowance",
      "outputs": [
        {
          "internalType": "bool",
          "name": "",
          "type": "bool"
        }
      ],
      "stateMutability": "nonpayable",
      "type": "function"
    },
    {
      "inputs": [
        {
          "internalType": "address",
          "name": "who",
          "type": "address"
        },
        {
          "internalType": "uint32",
          "name": "timestamp",
          "type": "uint32"
        }
      ],
      "name": "energyAt",
      "outputs": [
        {
          "internalType": "uint112",
          "name": "",
          "type": "uint112"
        }
      ],
      "stateMutability": "view",
      "type": "function"
    },
    {
      "inputs": [
        {
          "internalType": "address",
          "name": "from",
          "type": "address"
        },
        {
          "internalType": "address",
          "name": "to",
          "type": "address"
        },
        {
          "internalType": "uint256",
          "name": "amount",
          "type": "uint256"
        }
      ],
      "name": "forceTransfer",
      "outputs": [
        {
          "internalType": "bool",
          "name": "",
          "type": "bool"
        }
      ],
      "stateMutability": "nonpayable",
      "type": "function"
    },
    {
      "inputs": [
        {
          "internalType": "address",
          "name": "spender",
          "type": "address"
        },
        {
          "internalType": "uint256",
          "name": "addedValue",
          "type": "uint256"
        }
      ],
      "name": "increaseAllowance",
      "outputs": [
        {
          "internalType": "bool",
          "name": "",
          "type": "bool"
        }
      ],
      "stateMutability": "nonpayable",
      "type": "function"
    },
    {
      "inputs": [
        {
          "internalType": "string",
          "name": "name",
          "type": "string"
        },
        {
          "internalType": "string",
          "name": "symbol",
          "type": "string"
        },
        {
          "internalType": "contract Enterprise",
          "name": "enterprise",
          "type": "address"
        }
      ],
      "name": "initialize",
      "outputs": [],
      "stateMutability": "nonpayable",
      "type": "function"
    },
    {
      "inputs": [
        {
          "internalType": "string",
          "name": "name_",
          "type": "string"
        },
        {
          "internalType": "string",
          "name": "symbol_",
          "type": "string"
        }
      ],
      "name": "initialize",
      "outputs": [],
      "stateMutability": "nonpayable",
      "type": "function"
    },
    {
      "inputs": [
        {
          "internalType": "address",
          "name": "initialOwner",
          "type": "address"
        }
      ],
      "name": "initialize",
      "outputs": [],
      "stateMutability": "nonpayable",
      "type": "function"
    },
    {
      "inputs": [
        {
          "internalType": "address",
          "name": "to",
          "type": "address"
        },
        {
          "internalType": "uint256",
          "name": "value",
          "type": "uint256"
        }
      ],
      "name": "mint",
      "outputs": [],
      "stateMutability": "nonpayable",
      "type": "function"
    },
    {
      "inputs": [],
      "name": "name",
      "outputs": [
        {
          "internalType": "string",
          "name": "",
          "type": "string"
        }
      ],
      "stateMutability": "view",
      "type": "function"
    },
    {
      "inputs": [],
      "name": "owner",
      "outputs": [
        {
          "internalType": "address",
          "name": "",
          "type": "address"
        }
      ],
      "stateMutability": "view",
      "type": "function"
    },
    {
      "inputs": [],
      "name": "symbol",
      "outputs": [
        {
          "internalType": "string",
          "name": "",
          "type": "string"
        }
      ],
      "stateMutability": "view",
      "type": "function"
    },
    {
      "inputs": [],
      "name": "totalSupply",
      "outputs": [
        {
          "internalType": "uint256",
          "name": "",
          "type": "uint256"
        }
      ],
      "stateMutability": "view",
      "type": "function"
    },
    {
      "inputs": [
        {
          "internalType": "address",
          "name": "recipient",
          "type": "address"
        },
        {
          "internalType": "uint256",
          "name": "amount",
          "type": "uint256"
        }
      ],
      "name": "transfer",
      "outputs": [
        {
          "internalType": "bool",
          "name": "",
          "type": "bool"
        }
      ],
      "stateMutability": "nonpayable",
      "type": "function"
    },
    {
      "inputs": [
        {
          "internalType": "address",
          "name": "sender",
          "type": "address"
        },
        {
          "internalType": "address",
          "name": "recipient",
          "type": "address"
        },
        {
          "internalType": "uint256",
          "name": "amount",
          "type": "uint256"
        }
      ],
      "name": "transferFrom",
      "outputs": [
        {
          "internalType": "bool",
          "name": "",
          "type": "bool"
        }
      ],
      "stateMutability": "nonpayable",
      "type": "function"
    },
    {
      "inputs": [
        {
          "internalType": "address",
          "name": "newOwner",
          "type": "address"
        }
      ],
      "name": "transferOwnership",
      "outputs": [],
      "stateMutability": "nonpayable",
      "type": "function"
    },
    {
      "inputs": [
        {
          "internalType": "contract IERC20",
          "name": "liquidityToken",
          "type": "address"
        },
        {
          "internalType": "address",
          "name": "account",
          "type": "address"
        },
        {
          "internalType": "uint256",
          "name": "amount",
          "type": "uint256"
        }
      ],
      "name": "unwrap",
      "outputs": [],
      "stateMutability": "nonpayable",
      "type": "function"
    },
    {
      "inputs": [
        {
          "internalType": "contract IERC20",
          "name": "liquidityToken",
          "type": "address"
        },
        {
          "internalType": "address",
          "name": "from",
          "type": "address"
        },
        {
          "internalType": "address",
          "name": "to",
          "type": "address"
        },
        {
          "internalType": "uint256",
          "name": "amount",
          "type": "uint256"
        }
      ],
      "name": "wrap",
      "outputs": [],
      "stateMutability": "nonpayable",
      "type": "function"
    }
  ],
  "bytecode": "0x608060405234801561001057600080fd5b506120fe806100206000396000f3fe608060405234801561001057600080fd5b506004361061018d5760003560e01c80635370028e116100e3578063a1571a571161008c578063c4d66de811610066578063c4d66de814610351578063dd62ed3e14610364578063f2fde38b1461039d57600080fd5b8063a1571a5714610318578063a457c2d71461032b578063a9059cbb1461033e57600080fd5b80638cc7104f116100bd5780638cc7104f146102e25780638da5cb5b146102f557806395d89b411461031057600080fd5b80635370028e1461027b57806370a08231146102a657806379cc6790146102cf57600080fd5b806325d998bb11610145578063395093511161011f578063395093511461024257806340c10f19146102555780634cd88b761461026857600080fd5b806325d998bb1461020d578063313ce5671461022057806333bebb771461022f57600080fd5b8063095ea7b311610176578063095ea7b3146101c557806318160ddd146101e857806323b872dd146101fa57600080fd5b806306fdde0314610192578063077f224a146101b0575b600080fd5b61019a6103b0565b6040516101a79190611eaa565b60405180910390f35b6101c36101be366004611dfd565b610442565b005b6101d86101d3366004611cc0565b61053a565b60405190151581526020016101a7565b6002545b6040519081526020016101a7565b6101d8610208366004611c80565b610550565b6101ec61021b366004611c2c565b61061a565b604051601281526020016101a7565b6101d861023d366004611c80565b610655565b6101d8610250366004611cc0565b6106c9565b6101c3610263366004611cc0565b610700565b6101c3610276366004611d9c565b61076a565b61028e610289366004611ceb565b6107f2565b6040516001600160701b0390911681526020016101a7565b6101ec6102b4366004611c2c565b6001600160a01b031660009081526020819052604090205490565b6101c36102dd366004611cc0565b610858565b6101c36102f0366004611d88565b6108be565b6005546040516001600160a01b0390911681526020016101a7565b61019a610938565b6101c3610326366004611d38565b610947565b6101d8610339366004611cc0565b6109c8565b6101d861034c366004611cc0565b610a71565b6101c361035f366004611c2c565b610a80565b6101ec610372366004611c48565b6001600160a01b03918216600090815260016020908152604080832093909416825291909152205490565b6101c36103ab366004611c2c565b610b58565b6060600380546103bf90611ffe565b80601f01602080910402602001604051908101604052809291908181526020018280546103eb90611ffe565b80156104385780601f1061040d57610100808354040283529160200191610438565b820191906000526020600020905b81548152906001019060200180831161041b57829003601f168201915b5050505050905090565b6007546001600160a01b0316156104a05760405162461bcd60e51b815260206004820152601360248201527f416c726561647920696e697469616c697a65640000000000000000000000000060448201526064015b60405180910390fd5b6001600160a01b0381166104f65760405162461bcd60e51b815260206004820152601260248201527f496e76616c696420656e746572707269736500000000000000000000000000006044820152606401610497565b6104ff81610a80565b610509838361076a565b6007805473ffffffffffffffffffffffffffffffffffffffff19166001600160a01b03929092169190911790555050565b6000610547338484610c97565b50600192915050565b600061055f8484846000610df0565b6001600160a01b0384166000908152600160209081526040808320338452909152902054828110156105f95760405162461bcd60e51b815260206004820152602860248201527f45524332303a207472616e7366657220616d6f756e742065786365656473206160448201527f6c6c6f77616e63650000000000000000000000000000000000000000000000006064820152608401610497565b61060d85336106088685611f9e565b610c97565b60019150505b9392505050565b6001600160a01b03811660009081526006602090815260408083208054928490529083205490916001600160701b0316906106139190611f9e565b6005546000906001600160a01b031633146106b25760405162461bcd60e51b815260206004820181905260248201527f4f776e61626c653a2063616c6c6572206973206e6f7420746865206f776e65726044820152606401610497565b6106bf8484846001610df0565b5060019392505050565b3360008181526001602090815260408083206001600160a01b03871684529091528120549091610547918590610608908690611f08565b6005546001600160a01b0316331461075a5760405162461bcd60e51b815260206004820181905260248201527f4f776e61626c653a2063616c6c6572206973206e6f7420746865206f776e65726044820152606401610497565b6107668282600161101e565b5050565b6003805461077790611ffe565b1590506107c65760405162461bcd60e51b815260206004820152601360248201527f416c726561647920696e697469616c697a6564000000000000000000000000006044820152606401610497565b81516107d9906003906020850190611b0c565b5080516107ed906004906020840190611b0c565b505050565b6001600160a01b0382166000908152600660209081526040808320815160608101835290546001600160701b038082168352600160701b82041693820193909352600160e01b90920463ffffffff1690820152610850818585611103565b949350505050565b6005546001600160a01b031633146108b25760405162461bcd60e51b815260206004820181905260248201527f4f776e61626c653a2063616c6c6572206973206e6f7420746865206f776e65726044820152606401610497565b61076682826001611220565b6005546001600160a01b031633146109185760405162461bcd60e51b815260206004820181905260248201527f4f776e61626c653a2063616c6c6572206973206e6f7420746865206f776e65726044820152606401610497565b61092482826000611220565b6107ed6001600160a01b03841683836113bc565b6060600480546103bf90611ffe565b6005546001600160a01b031633146109a15760405162461bcd60e51b815260206004820181905260248201527f4f776e61626c653a2063616c6c6572206973206e6f7420746865206f776e65726044820152606401610497565b6109b66001600160a01b038516843084611450565b6109c28282600061101e565b50505050565b3360009081526001602090815260408083206001600160a01b038616845290915281205482811015610a625760405162461bcd60e51b815260206004820152602560248201527f45524332303a2064656372656173656420616c6c6f77616e63652062656c6f7760448201527f207a65726f0000000000000000000000000000000000000000000000000000006064820152608401610497565b6106bf33856106088685611f9e565b60006105473384846000610df0565b6005546001600160a01b031615610aff5760405162461bcd60e51b815260206004820152602960248201527f496e697469616c697a61626c654f776e61626c653a20616c726561647920696e60448201527f697469616c697a656400000000000000000000000000000000000000000000006064820152608401610497565b6005805473ffffffffffffffffffffffffffffffffffffffff19166001600160a01b0383169081179091556040516000907f8be0079c531659141344cd1fd0a4f28419497f9722a3daafe3b4186f6b6457e0908290a350565b6005546001600160a01b03163314610bb25760405162461bcd60e51b815260206004820181905260248201527f4f776e61626c653a2063616c6c6572206973206e6f7420746865206f776e65726044820152606401610497565b6001600160a01b038116610c2e5760405162461bcd60e51b815260206004820152602660248201527f4f776e61626c653a206e6577206f776e657220697320746865207a65726f206160448201527f64647265737300000000000000000000000000000000000000000000000000006064820152608401610497565b6005546040516001600160a01b038084169216907f8be0079c531659141344cd1fd0a4f28419497f9722a3daafe3b4186f6b6457e090600090a36005805473ffffffffffffffffffffffffffffffffffffffff19166001600160a01b0392909216919091179055565b6001600160a01b038316610d125760405162461bcd60e51b8152602060048201526024808201527f45524332303a20617070726f76652066726f6d20746865207a65726f2061646460448201527f72657373000000000000000000000000000000000000000000000000000000006064820152608401610497565b6001600160a01b038216610d8e5760405162461bcd60e51b815260206004820152602260248201527f45524332303a20617070726f766520746f20746865207a65726f20616464726560448201527f73730000000000000000000000000000000000000000000000000000000000006064820152608401610497565b6001600160a01b0383811660008181526001602090815260408083209487168084529482529182902085905590518481527f8c5be1e5ebec7d5bd14f71427d1e84f3dd0314c0f7b2291e5b200ac8c7c3b92591015b60405180910390a3505050565b6001600160a01b038416610e6c5760405162461bcd60e51b815260206004820152602560248201527f45524332303a207472616e736665722066726f6d20746865207a65726f20616460448201527f64726573730000000000000000000000000000000000000000000000000000006064820152608401610497565b6001600160a01b038316610ee85760405162461bcd60e51b815260206004820152602360248201527f45524332303a207472616e7366657220746f20746865207a65726f206164647260448201527f65737300000000000000000000000000000000000000000000000000000000006064820152608401610497565b610ef4848484846114a1565b6001600160a01b03841660009081526020819052604090205482811015610f835760405162461bcd60e51b815260206004820152602660248201527f45524332303a207472616e7366657220616d6f756e742065786365656473206260448201527f616c616e636500000000000000000000000000000000000000000000000000006064820152608401610497565b610f8d8382611f9e565b6001600160a01b038087166000908152602081905260408082209390935590861681529081208054859290610fc3908490611f08565b92505081905550836001600160a01b0316856001600160a01b03167fddf252ad1be2c89b69c2b068fc378daa952ba7f163c4a11628f55a4df523b3ef8560405161100f91815260200190565b60405180910390a35050505050565b6001600160a01b0383166110745760405162461bcd60e51b815260206004820152601f60248201527f45524332303a206d696e7420746f20746865207a65726f2061646472657373006044820152606401610497565b61108160008484846114a1565b81600260008282546110939190611f08565b90915550506001600160a01b038316600090815260208190526040812080548492906110c0908490611f08565b90915550506040518281526001600160a01b038416906000907fddf252ad1be2c89b69c2b068fc378daa952ba7f163c4a11628f55a4df523b3ef90602001610de3565b6001600160a01b03821660009081526020819052604081205484602001516001600160701b0316816001600160701b031611156111fe576111ec85604001518660200151836111529190611f76565b6007546040517f8d6d50c90000000000000000000000000000000000000000000000000000000081523060048201526001600160a01b0390911690638d6d50c99060240160206040518083038186803b1580156111ae57600080fd5b505afa1580156111c2573d6000803e3d6000fd5b505050506040513d601f19601f820116820180604052508101906111e69190611e72565b8661179c565b6111f69082611f76565b915050610613565b61121685604001518287602001516111529190611f76565b6111f69082611edd565b6001600160a01b03831661129c5760405162461bcd60e51b815260206004820152602160248201527f45524332303a206275726e2066726f6d20746865207a65726f2061646472657360448201527f73000000000000000000000000000000000000000000000000000000000000006064820152608401610497565b6112a983600084846114a1565b6001600160a01b038316600090815260208190526040902054828110156113385760405162461bcd60e51b815260206004820152602260248201527f45524332303a206275726e20616d6f756e7420657863656564732062616c616e60448201527f63650000000000000000000000000000000000000000000000000000000000006064820152608401610497565b6113428382611f9e565b6001600160a01b03851660009081526020819052604081209190915560028054859290611370908490611f9e565b90915550506040518381526000906001600160a01b038616907fddf252ad1be2c89b69c2b068fc378daa952ba7f163c4a11628f55a4df523b3ef9060200160405180910390a350505050565b6040516001600160a01b0383166024820152604481018290526107ed9084907fa9059cbb00000000000000000000000000000000000000000000000000000000906064015b60408051601f198184030181529190526020810180516001600160e01b03167fffffffff000000000000000000000000000000000000000000000000000000009093169290921790915261191c565b6040516001600160a01b03808516602483015283166044820152606481018290526109c29085907f23b872dd0000000000000000000000000000000000000000000000000000000090608401611401565b426001600160a01b0385161561165f576001600160a01b038516600090815260066020908152604091829020825160608101845290546001600160701b038082168352600160701b82041692820192909252600160e01b90910463ffffffff1691810191909152611513818784611103565b6001600160701b0316602082015263ffffffff82166040820152826115ba5780516001600160701b03168461155d886001600160a01b031660009081526020819052604090205490565b6115679190611f9e565b10156115b55760405162461bcd60e51b815260206004820152601e60248201527f496e73756666756369656e7420617661696c61626c652062616c616e636500006044820152606401610497565b6115d9565b83816000018181516115cc9190611f76565b6001600160701b03169052505b6001600160a01b0386166000908152600660209081526040918290208351815492850151939094015163ffffffff16600160e01b026001600160e01b036001600160701b03948516600160701b027fffffffff00000000000000000000000000000000000000000000000000000000909416949095169390931791909117929092161790555b6001600160a01b03841615611795576001600160a01b038416600090815260066020908152604091829020825160608101845290546001600160701b038082168352600160701b82041692820192909252600160e01b90910463ffffffff16918101919091526116d0818684611103565b6001600160701b0316602082015263ffffffff82166040820152821561170f5783816000018181516117029190611edd565b6001600160701b03169052505b6001600160a01b0385166000908152600660209081526040918290208351815492850151939094015163ffffffff16600160e01b026001600160e01b036001600160701b03948516600160701b027fffffffff00000000000000000000000000000000000000000000000000000000909416949095169390931791909117929092161790555b5050505050565b60008463ffffffff168263ffffffff1610156117fa5760405162461bcd60e51b815260206004820152600e60248201527f496e76616c696420706572696f640000000000000000000000000000000000006044820152606401610497565b6118048583611fb5565b91506118108383611f34565b63ffffffff16846001600160701b0316901c935082826118309190612039565b915063ffffffff8216158061184c57506001600160701b038416155b15611858575082610850565b60006001600160701b0385168163ffffffff8087169061188c90871671b17217f7d1cf79abc9e3b39803f2f6af40f3611f57565b6118969190611f20565b9050600160901b5b821561190f576118ae8385611f08565b9350806118bb8385611f57565b6118c59190611f20565b92506118d5600160901b82611f08565b90506118e18385611f9e565b9350806118ee8385611f57565b6118f89190611f20565b9250611908600160901b82611f08565b905061189e565b5091979650505050505050565b6000611971826040518060400160405280602081526020017f5361666545524332303a206c6f772d6c6576656c2063616c6c206661696c6564815250856001600160a01b0316611a019092919063ffffffff16565b8051909150156107ed578080602001905181019061198f9190611d18565b6107ed5760405162461bcd60e51b815260206004820152602a60248201527f5361666545524332303a204552433230206f7065726174696f6e20646964206e60448201527f6f742073756363656564000000000000000000000000000000000000000000006064820152608401610497565b6060610850848460008585843b611a5a5760405162461bcd60e51b815260206004820152601d60248201527f416464726573733a2063616c6c20746f206e6f6e2d636f6e74726163740000006044820152606401610497565b600080866001600160a01b03168587604051611a769190611e8e565b60006040518083038185875af1925050503d8060008114611ab3576040519150601f19603f3d011682016040523d82523d6000602084013e611ab8565b606091505b5091509150611ac8828286611ad3565b979650505050505050565b60608315611ae2575081610613565b825115611af25782518084602001fd5b8160405162461bcd60e51b81526004016104979190611eaa565b828054611b1890611ffe565b90600052602060002090601f016020900481019282611b3a5760008555611b80565b82601f10611b5357805160ff1916838001178555611b80565b82800160010185558215611b80579182015b82811115611b80578251825591602001919060010190611b65565b50611b8c929150611b90565b5090565b5b80821115611b8c5760008155600101611b91565b600082601f830112611bb5578081fd5b813567ffffffffffffffff80821115611bd057611bd0612088565b604051601f8301601f19908116603f01168101908282118183101715611bf857611bf8612088565b81604052838152866020858801011115611c10578485fd5b8360208701602083013792830160200193909352509392505050565b600060208284031215611c3d578081fd5b81356106138161209e565b60008060408385031215611c5a578081fd5b8235611c658161209e565b91506020830135611c758161209e565b809150509250929050565b600080600060608486031215611c94578081fd5b8335611c9f8161209e565b92506020840135611caf8161209e565b929592945050506040919091013590565b60008060408385031215611cd2578182fd5b8235611cdd8161209e565b946020939093013593505050565b60008060408385031215611cfd578182fd5b8235611d088161209e565b91506020830135611c75816120b6565b600060208284031215611d29578081fd5b81518015158114610613578182fd5b60008060008060808587031215611d4d578081fd5b8435611d588161209e565b93506020850135611d688161209e565b92506040850135611d788161209e565b9396929550929360600135925050565b600080600060608486031215611c94578283fd5b60008060408385031215611dae578182fd5b823567ffffffffffffffff80821115611dc5578384fd5b611dd186838701611ba5565b93506020850135915080821115611de6578283fd5b50611df385828601611ba5565b9150509250929050565b600080600060608486031215611e11578283fd5b833567ffffffffffffffff80821115611e28578485fd5b611e3487838801611ba5565b94506020860135915080821115611e49578384fd5b50611e5686828701611ba5565b9250506040840135611e678161209e565b809150509250925092565b600060208284031215611e83578081fd5b8151610613816120b6565b60008251611ea0818460208701611fd2565b9190910192915050565b6020815260008251806020840152611ec9816040850160208701611fd2565b601f01601f19169190910160400192915050565b60006001600160701b03808316818516808303821115611eff57611eff61205c565b01949350505050565b60008219821115611f1b57611f1b61205c565b500190565b600082611f2f57611f2f612072565b500490565b600063ffffffff80841680611f4b57611f4b612072565b92169190910492915050565b6000816000190483118215151615611f7157611f7161205c565b500290565b60006001600160701b0383811690831681811015611f9657611f9661205c565b039392505050565b600082821015611fb057611fb061205c565b500390565b600063ffffffff83811690831681811015611f9657611f9661205c565b60005b83811015611fed578181015183820152602001611fd5565b838111156109c25750506000910152565b600181811c9082168061201257607f821691505b6020821081141561203357634e487b7160e01b600052602260045260246000fd5b50919050565b600063ffffffff8084168061205057612050612072565b92169190910692915050565b634e487b7160e01b600052601160045260246000fd5b634e487b7160e01b600052601260045260246000fd5b634e487b7160e01b600052604160045260246000fd5b6001600160a01b03811681146120b357600080fd5b50565b63ffffffff811681146120b357600080fdfea2646970667358221220b005874a452f7bf7c616b55d3a347cd0c0b67ab84cca54a230b00297fb58b99164736f6c63430008040033",
  "linkReferences": {},
  "deployedLinkReferences": {}
}