{
  "_format": "hh-sol-artifact-1",
  "contractName": "PowerToken",
  "sourceName": "contracts/PowerToken.sol",
  "abi": [
    {
      "anonymous": false,
      "inputs": [
        {
          "indexed": true,
          "internalType": "address",
          "name": "owner",
          "type": "address"
        },
        {
          "indexed": true,
          "internalType": "address",
          "name": "spender",
          "type": "address"
        },
        {
          "indexed": false,
          "internalType": "uint256",
          "name": "value",
          "type": "uint256"
        }
      ],
      "name": "Approval",
      "type": "event"
    },
    {
      "anonymous": false,
      "inputs": [
        {
          "indexed": true,
          "internalType": "address",
          "name": "previousOwner",
          "type": "address"
        },
        {
          "indexed": true,
          "internalType": "address",
          "name": "newOwner",
          "type": "address"
        }
      ],
      "name": "OwnershipTransferred",
      "type": "event"
    },
    {
      "anonymous": false,
      "inputs": [
        {
          "indexed": true,
          "internalType": "address",
          "name": "from",
          "type": "address"
        },
        {
          "indexed": true,
          "internalType": "address",
          "name": "to",
          "type": "address"
        },
        {
          "indexed": false,
          "internalType": "uint256",
          "name": "value",
          "type": "uint256"
        }
      ],
      "name": "Transfer",
      "type": "event"
    },
    {
      "inputs": [
        {
          "internalType": "address",
          "name": "owner",
          "type": "address"
        },
        {
          "internalType": "address",
          "name": "spender",
          "type": "address"
        }
      ],
      "name": "allowance",
      "outputs": [
        {
          "internalType": "uint256",
          "name": "",
          "type": "uint256"
        }
      ],
      "stateMutability": "view",
      "type": "function"
    },
    {
      "inputs": [
        {
          "internalType": "address",
          "name": "spender",
          "type": "address"
        },
        {
          "internalType": "uint256",
          "name": "amount",
          "type": "uint256"
        }
      ],
      "name": "approve",
      "outputs": [
        {
          "internalType": "bool",
          "name": "",
          "type": "bool"
        }
      ],
      "stateMutability": "nonpayable",
      "type": "function"
    },
    {
      "inputs": [
        {
          "internalType": "address",
          "name": "account",
          "type": "address"
        }
      ],
      "name": "availableBalanceOf",
      "outputs": [
        {
          "internalType": "uint256",
          "name": "",
          "type": "uint256"
        }
      ],
      "stateMutability": "view",
      "type": "function"
    },
    {
      "inputs": [
        {
          "internalType": "address",
          "name": "account",
          "type": "address"
        }
      ],
      "name": "balanceOf",
      "outputs": [
        {
          "internalType": "uint256",
          "name": "",
          "type": "uint256"
        }
      ],
      "stateMutability": "view",
      "type": "function"
    },
    {
      "inputs": [
        {
          "internalType": "address",
          "name": "account",
          "type": "address"
        },
        {
          "internalType": "uint256",
          "name": "value",
          "type": "uint256"
        }
      ],
      "name": "burnFrom",
      "outputs": [],
      "stateMutability": "nonpayable",
      "type": "function"
    },
    {
      "inputs": [],
      "name": "decimals",
      "outputs": [
        {
          "internalType": "uint8",
          "name": "",
          "type": "uint8"
        }
      ],
      "stateMutability": "view",
      "type": "function"
    },
    {
      "inputs": [
        {
          "internalType": "address",
          "name": "spender",
          "type": "address"
        },
        {
          "internalType": "uint256",
          "name": "subtractedValue",
          "type": "uint256"
        }
      ],
      "name": "decreaseAllowance",
      "outputs": [
        {
          "internalType": "bool",
          "name": "",
          "type": "bool"
        }
      ],
      "stateMutability": "nonpayable",
      "type": "function"
    },
    {
      "inputs": [
        {
          "internalType": "address",
          "name": "who",
          "type": "address"
        },
        {
          "internalType": "uint32",
          "name": "timestamp",
          "type": "uint32"
        }
      ],
      "name": "energyAt",
      "outputs": [
        {
          "internalType": "uint112",
          "name": "",
          "type": "uint112"
        }
      ],
      "stateMutability": "view",
      "type": "function"
    },
    {
      "inputs": [
        {
          "internalType": "address",
          "name": "from",
          "type": "address"
        },
        {
          "internalType": "address",
          "name": "to",
          "type": "address"
        },
        {
          "internalType": "uint256",
          "name": "amount",
          "type": "uint256"
        }
      ],
      "name": "forceTransfer",
      "outputs": [
        {
          "internalType": "bool",
          "name": "",
          "type": "bool"
        }
      ],
      "stateMutability": "nonpayable",
      "type": "function"
    },
    {
      "inputs": [],
      "name": "getFactor",
      "outputs": [
        {
          "internalType": "uint112",
          "name": "",
          "type": "uint112"
        }
      ],
      "stateMutability": "view",
      "type": "function"
    },
    {
      "inputs": [],
      "name": "getHalfLife",
      "outputs": [
        {
          "internalType": "uint32",
          "name": "",
          "type": "uint32"
        }
      ],
      "stateMutability": "view",
      "type": "function"
    },
    {
      "inputs": [],
      "name": "getLastDeal",
      "outputs": [
        {
          "internalType": "uint32",
          "name": "",
          "type": "uint32"
        }
      ],
      "stateMutability": "view",
      "type": "function"
    },
    {
      "inputs": [],
      "name": "getMaxLoanPeriod",
      "outputs": [
        {
          "internalType": "uint32",
          "name": "",
          "type": "uint32"
        }
      ],
      "stateMutability": "view",
      "type": "function"
    },
    {
      "inputs": [],
      "name": "getMinLoanPeriod",
      "outputs": [
        {
          "internalType": "uint32",
          "name": "",
          "type": "uint32"
        }
      ],
      "stateMutability": "view",
      "type": "function"
    },
    {
      "inputs": [
        {
          "internalType": "address",
          "name": "spender",
          "type": "address"
        },
        {
          "internalType": "uint256",
          "name": "addedValue",
          "type": "uint256"
        }
      ],
      "name": "increaseAllowance",
      "outputs": [
        {
          "internalType": "bool",
          "name": "",
          "type": "bool"
        }
      ],
      "stateMutability": "nonpayable",
      "type": "function"
    },
    {
      "inputs": [
        {
          "internalType": "string",
          "name": "name_",
          "type": "string"
        },
        {
          "internalType": "string",
          "name": "symbol_",
          "type": "string"
        }
      ],
      "name": "initialize",
      "outputs": [],
      "stateMutability": "nonpayable",
      "type": "function"
    },
    {
      "inputs": [
        {
          "internalType": "address",
          "name": "initialOwner",
          "type": "address"
        }
      ],
      "name": "initialize",
      "outputs": [],
      "stateMutability": "nonpayable",
      "type": "function"
    },
    {
      "inputs": [
        {
          "internalType": "string",
          "name": "name",
          "type": "string"
        },
        {
          "internalType": "string",
          "name": "symbol",
          "type": "string"
        },
        {
          "internalType": "uint32",
          "name": "halfLife",
          "type": "uint32"
        },
        {
          "internalType": "uint112",
          "name": "factor",
          "type": "uint112"
        },
        {
          "internalType": "uint32",
          "name": "minLoanPeriod",
          "type": "uint32"
        },
        {
          "internalType": "uint32",
          "name": "maxLoanPeriod",
          "type": "uint32"
        }
      ],
      "name": "initialize",
      "outputs": [],
      "stateMutability": "nonpayable",
      "type": "function"
    },
    {
      "inputs": [
        {
          "internalType": "uint32",
          "name": "duration",
          "type": "uint32"
        }
      ],
      "name": "isAllowedLoanDuration",
      "outputs": [
        {
          "internalType": "bool",
          "name": "",
          "type": "bool"
        }
      ],
      "stateMutability": "view",
      "type": "function"
    },
    {
      "inputs": [
        {
          "internalType": "address",
          "name": "to",
          "type": "address"
        },
        {
          "internalType": "uint256",
          "name": "value",
          "type": "uint256"
        }
      ],
      "name": "mint",
      "outputs": [],
      "stateMutability": "nonpayable",
      "type": "function"
    },
    {
      "inputs": [],
      "name": "name",
      "outputs": [
        {
          "internalType": "string",
          "name": "",
          "type": "string"
        }
      ],
      "stateMutability": "view",
      "type": "function"
    },
    {
      "inputs": [],
      "name": "owner",
      "outputs": [
        {
          "internalType": "address",
          "name": "",
          "type": "address"
        }
      ],
      "stateMutability": "view",
      "type": "function"
    },
    {
      "inputs": [],
      "name": "symbol",
      "outputs": [
        {
          "internalType": "string",
          "name": "",
          "type": "string"
        }
      ],
      "stateMutability": "view",
      "type": "function"
    },
    {
      "inputs": [],
      "name": "totalSupply",
      "outputs": [
        {
          "internalType": "uint256",
          "name": "",
          "type": "uint256"
        }
      ],
      "stateMutability": "view",
      "type": "function"
    },
    {
      "inputs": [
        {
          "internalType": "address",
          "name": "recipient",
          "type": "address"
        },
        {
          "internalType": "uint256",
          "name": "amount",
          "type": "uint256"
        }
      ],
      "name": "transfer",
      "outputs": [
        {
          "internalType": "bool",
          "name": "",
          "type": "bool"
        }
      ],
      "stateMutability": "nonpayable",
      "type": "function"
    },
    {
      "inputs": [
        {
          "internalType": "address",
          "name": "sender",
          "type": "address"
        },
        {
          "internalType": "address",
          "name": "recipient",
          "type": "address"
        },
        {
          "internalType": "uint256",
          "name": "amount",
          "type": "uint256"
        }
      ],
      "name": "transferFrom",
      "outputs": [
        {
          "internalType": "bool",
          "name": "",
          "type": "bool"
        }
      ],
      "stateMutability": "nonpayable",
      "type": "function"
    },
    {
      "inputs": [
        {
          "internalType": "address",
          "name": "newOwner",
          "type": "address"
        }
      ],
      "name": "transferOwnership",
      "outputs": [],
      "stateMutability": "nonpayable",
      "type": "function"
    },
    {
      "inputs": [
        {
          "internalType": "contract IERC20",
          "name": "liquidityToken",
          "type": "address"
        },
        {
          "internalType": "address",
          "name": "account",
          "type": "address"
        },
        {
          "internalType": "uint256",
          "name": "amount",
          "type": "uint256"
        }
      ],
      "name": "unwrap",
      "outputs": [],
      "stateMutability": "nonpayable",
      "type": "function"
    },
    {
      "inputs": [
        {
          "internalType": "contract IERC20",
          "name": "liquidityToken",
          "type": "address"
        },
        {
          "internalType": "address",
          "name": "from",
          "type": "address"
        },
        {
          "internalType": "address",
          "name": "to",
          "type": "address"
        },
        {
          "internalType": "uint256",
          "name": "amount",
          "type": "uint256"
        }
      ],
      "name": "wrap",
      "outputs": [],
      "stateMutability": "nonpayable",
      "type": "function"
    }
  ],
  "bytecode": "0x608060405234801561001057600080fd5b506122e5806100206000396000f3fe608060405234801561001057600080fd5b50600436106101cf5760003560e01c80636e4d89831161010457806395d89b41116100a2578063c4d66de811610071578063c4d66de8146106dc578063dd62ed3e14610702578063f26b3a7514610730578063f2fde38b14610882576101cf565b806395d89b4114610640578063a1571a5714610648578063a457c2d714610684578063a9059cbb146106b0576101cf565b806379cc6790116100de57806379cc6790146105b2578063884fe7b8146105de5780638cc7104f146105e65780638da5cb5b1461061c576101cf565b80636e4d89831461056157806370a08231146105845780637983a29d146105aa576101cf565b806333bebb771161017157806340c10f191161014b57806340c10f19146103b05780634cd88b76146103de5780635184cc431461050b5780635370028e1461052f576101cf565b806333bebb7714610346578063395093511461037c5780633e42db13146103a8576101cf565b806318160ddd116101ad57806318160ddd146102b257806323b872dd146102cc57806325d998bb14610302578063313ce56714610328576101cf565b806306fdde03146101d4578063095ea7b3146102515780631136b3f214610291575b600080fd5b6101dc6108a8565b6040805160208082528351818301528351919283929083019185019080838360005b838110156102165781810151838201526020016101fe565b50505050905090810190601f1680156102435780820380516001836020036101000a031916815260200191505b509250505060405180910390f35b61027d6004803603604081101561026757600080fd5b506001600160a01b03813516906020013561093e565b604080519115158252519081900360200190f35b610299610954565b6040805163ffffffff9092168252519081900360200190f35b6102ba610967565b60408051918252519081900360200190f35b61027d600480360360608110156102e257600080fd5b506001600160a01b0381358116916020810135909116906040013561096d565b6102ba6004803603602081101561031857600080fd5b50356001600160a01b03166109d9565b610330610a0f565b6040805160ff9092168252519081900360200190f35b61027d6004803603606081101561035c57600080fd5b506001600160a01b03813581169160208101359091169060400135610a18565b61027d6004803603604081101561039257600080fd5b506001600160a01b038135169060200135610a8c565b610299610ac2565b6103dc600480360360408110156103c657600080fd5b506001600160a01b038135169060200135610ad5565b005b6103dc600480360360408110156103f457600080fd5b81019060208101813564010000000081111561040f57600080fd5b82018360208201111561042157600080fd5b8035906020019184600183028401116401000000008311171561044357600080fd5b91908080601f016020809104026020016040519081016040528093929190818152602001838380828437600092019190915250929594936020810193503591505064010000000081111561049657600080fd5b8201836020820111156104a857600080fd5b803590602001918460018302840111640100000000831117156104ca57600080fd5b91908080601f016020809104026020016040519081016040528093929190818152602001838380828437600092019190915250929550610b49945050505050565b610513610bea565b604080516001600160701b039092168252519081900360200190f35b6105136004803603604081101561054557600080fd5b5080356001600160a01b0316906020013563ffffffff16610bf9565b61027d6004803603602081101561057757600080fd5b503563ffffffff16610c5f565b6102ba6004803603602081101561059a57600080fd5b50356001600160a01b0316610c9d565b610299610cb8565b6103dc600480360360408110156105c857600080fd5b506001600160a01b038135169060200135610ccb565b610299610d3b565b6103dc600480360360608110156105fc57600080fd5b506001600160a01b03813581169160208101359091169060400135610d4e565b610624610dd7565b604080516001600160a01b039092168252519081900360200190f35b6101dc610deb565b6103dc6004803603608081101561065e57600080fd5b506001600160a01b03813581169160208101358216916040820135169060600135610e4c565b61027d6004803603604081101561069a57600080fd5b506001600160a01b038135169060200135610ed7565b61027d600480360360408110156106c657600080fd5b506001600160a01b038135169060200135610f26565b6103dc600480360360208110156106f257600080fd5b50356001600160a01b0316610f35565b6102ba6004803603604081101561071857600080fd5b506001600160a01b0381358116916020013516610fe3565b6103dc600480360360c081101561074657600080fd5b81019060208101813564010000000081111561076157600080fd5b82018360208201111561077357600080fd5b8035906020019184600183028401116401000000008311171561079557600080fd5b91908080601f01602080910402602001604051908101604052809392919081815260200183838082843760009201919091525092959493602081019350359150506401000000008111156107e857600080fd5b8201836020820111156107fa57600080fd5b8035906020019184600183028401116401000000008311171561081c57600080fd5b91908080601f0160208091040260200160405190810160405280939291908181526020018383808284376000920191909152509295505063ffffffff8335811694506001600160701b03602085013516936040810135821693506060013516905061100e565b6103dc6004803603602081101561089857600080fd5b50356001600160a01b03166111c3565b60038054604080516020601f60026000196101006001881615020190951694909404938401819004810282018101909252828152606093909290918301828280156109345780601f1061090957610100808354040283529160200191610934565b820191906000526020600020905b81548152906001019060200180831161091757829003601f168201915b5050505050905090565b600061094b3384846112e0565b50600192915050565b600854600160e01b900463ffffffff1690565b60025490565b600061097c84848460006113cc565b6109ce84336109c9856040518060600160405280602881526020016121a6602891396001600160a01b038a1660009081526001602090815260408083203384529091529020549190611529565b6112e0565b5060015b9392505050565b6001600160a01b038116600090815260066020526040812080546109d2906001600160701b0316610a0985610c9d565b906115c0565b60055460ff1690565b60055460009061010090046001600160a01b03163314610a7f576040805162461bcd60e51b815260206004820181905260248201527f4f776e61626c653a2063616c6c6572206973206e6f7420746865206f776e6572604482015290519081900360640190fd5b6109ce84848460016113cc565b3360008181526001602090815260408083206001600160a01b0387168452909152812054909161094b9185906109c9908661161d565b600854600160a01b900463ffffffff1690565b60055461010090046001600160a01b03163314610b39576040805162461bcd60e51b815260206004820181905260248201527f4f776e61626c653a2063616c6c6572206973206e6f7420746865206f776e6572604482015290519081900360640190fd5b610b4582826001611677565b5050565b6003546002600019610100600184161502019091160415610bb1576040805162461bcd60e51b815260206004820152601360248201527f416c726561647920696e697469616c697a656400000000000000000000000000604482015290519081900360640190fd5b8151610bc4906003906020850190612051565b508051610bd8906004906020840190612051565b50506005805460ff1916601217905550565b6007546001600160701b031690565b6001600160a01b0382166000908152600660209081526040808320815160608101835290546001600160701b038082168352600160701b82041693820193909352600160e01b90920463ffffffff1690820152610c57818585611769565b949350505050565b60085460009063ffffffff808416600160c01b9092041611801590610c97575060085463ffffffff600160e01b909104811690831611155b92915050565b6001600160a01b031660009081526020819052604090205490565b600554600160a81b900463ffffffff1690565b60055461010090046001600160a01b03163314610d2f576040805162461bcd60e51b815260206004820181905260248201527f4f776e61626c653a2063616c6c6572206973206e6f7420746865206f776e6572604482015290519081900360640190fd5b610b45828260016117f6565b600854600160c01b900463ffffffff1690565b60055461010090046001600160a01b03163314610db2576040805162461bcd60e51b815260206004820181905260248201527f4f776e61626c653a2063616c6c6572206973206e6f7420746865206f776e6572604482015290519081900360640190fd5b610dbe828260006117f6565b610dd26001600160a01b03841683836118f4565b505050565b60055461010090046001600160a01b031690565b60048054604080516020601f60026000196101006001881615020190951694909404938401819004810282018101909252828152606093909290918301828280156109345780601f1061090957610100808354040283529160200191610934565b60055461010090046001600160a01b03163314610eb0576040805162461bcd60e51b815260206004820181905260248201527f4f776e61626c653a2063616c6c6572206973206e6f7420746865206f776e6572604482015290519081900360640190fd5b610ec56001600160a01b03851684308461195f565b610ed182826000611677565b50505050565b600061094b33846109c98560405180606001604052806025815260200161228b602591393360009081526001602090815260408083206001600160a01b038d1684529091529020549190611529565b600061094b33848460006113cc565b60055461010090046001600160a01b031615610f825760405162461bcd60e51b81526004018080602001828103825260298152602001806121ce6029913960400191505060405180910390fd5b6005805474ffffffffffffffffffffffffffffffffffffffff0019166101006001600160a01b038416908102919091179091556040516000907f8be0079c531659141344cd1fd0a4f28419497f9722a3daafe3b4186f6b6457e0908290a350565b6001600160a01b03918216600090815260016020908152604080832093909416825291909152205490565b600854600160a01b900463ffffffff1615611070576040805162461bcd60e51b815260206004820152601360248201527f416c726561647920696e697469616c697a656400000000000000000000000000604482015290519081900360640190fd5b8063ffffffff168263ffffffff1611156110d1576040805162461bcd60e51b815260206004820152601b60248201527f496e76616c6964206d696e20616e64206d617820706572696f64730000000000604482015290519081900360640190fd5b600580547fffffffffffffff00000000ffffffffffffffffffffffffffffffffffffffffff16600160a81b63ffffffff878116919091029190911790915560088054600780546dffffffffffffffffffffffffffff19166001600160701b0388161790557fffffffffffffffff00000000ffffffffffffffffffffffffffffffffffffffff16600160a01b42841602177fffffffff00000000ffffffffffffffffffffffffffffffffffffffffffffffff16600160c01b85841602176001600160e01b0316600160e01b928416929092029190911790556111b133610f35565b6111bb8686610b49565b505050505050565b60055461010090046001600160a01b03163314611227576040805162461bcd60e51b815260206004820181905260248201527f4f776e61626c653a2063616c6c6572206973206e6f7420746865206f776e6572604482015290519081900360640190fd5b6001600160a01b03811661126c5760405162461bcd60e51b81526004018080602001828103825260268152602001806121386026913960400191505060405180910390fd5b6005546040516001600160a01b0380841692610100900416907f8be0079c531659141344cd1fd0a4f28419497f9722a3daafe3b4186f6b6457e090600090a3600580546001600160a01b039092166101000274ffffffffffffffffffffffffffffffffffffffff0019909216919091179055565b6001600160a01b0383166113255760405162461bcd60e51b815260040180806020018281038252602481526020018061223d6024913960400191505060405180910390fd5b6001600160a01b03821661136a5760405162461bcd60e51b815260040180806020018281038252602281526020018061215e6022913960400191505060405180910390fd5b6001600160a01b03808416600081815260016020908152604080832094871680845294825291829020859055815185815291517f8c5be1e5ebec7d5bd14f71427d1e84f3dd0314c0f7b2291e5b200ac8c7c3b9259281900390910190a3505050565b6001600160a01b0384166114115760405162461bcd60e51b81526004018080602001828103825260258152602001806122186025913960400191505060405180910390fd5b6001600160a01b0383166114565760405162461bcd60e51b81526004018080602001828103825260238152602001806120f36023913960400191505060405180910390fd5b611462848484846119d2565b61149f82604051806060016040528060268152602001612180602691396001600160a01b0387166000908152602081905260409020549190611529565b6001600160a01b0380861660009081526020819052604080822093909355908516815220546114ce908361161d565b6001600160a01b038085166000818152602081815260409182902094909455805186815290519193928816927fddf252ad1be2c89b69c2b068fc378daa952ba7f163c4a11628f55a4df523b3ef92918290030190a350505050565b600081848411156115b85760405162461bcd60e51b81526004018080602001828103825283818151815260200191508051906020019080838360005b8381101561157d578181015183820152602001611565565b50505050905090810190601f1680156115aa5780820380516001836020036101000a031916815260200191505b509250505060405180910390fd5b505050900390565b600082821115611617576040805162461bcd60e51b815260206004820152601e60248201527f536166654d6174683a207375627472616374696f6e206f766572666c6f770000604482015290519081900360640190fd5b50900390565b6000828201838110156109d2576040805162461bcd60e51b815260206004820152601b60248201527f536166654d6174683a206164646974696f6e206f766572666c6f770000000000604482015290519081900360640190fd5b6001600160a01b0383166116d2576040805162461bcd60e51b815260206004820152601f60248201527f45524332303a206d696e7420746f20746865207a65726f206164647265737300604482015290519081900360640190fd5b6116df60008484846119d2565b6002546116ec908361161d565b6002556001600160a01b038316600090815260208190526040902054611712908361161d565b6001600160a01b0384166000818152602081815260408083209490945583518681529351929391927fddf252ad1be2c89b69c2b068fc378daa952ba7f163c4a11628f55a4df523b3ef9281900390910190a3505050565b60008061177584610c9d565b905084602001516001600160701b0316816001600160701b031611156117c6576117bd856040015186602001518303600560159054906101000a900463ffffffff1686611cba565b900390506109d2565b6117ee856040015182876020015103600560159054906101000a900463ffffffff1686611cba565b0190506109d2565b6001600160a01b03831661183b5760405162461bcd60e51b81526004018080602001828103825260218152602001806121f76021913960400191505060405180910390fd5b61184883600084846119d2565b61188582604051806060016040528060228152602001612116602291396001600160a01b0386166000908152602081905260409020549190611529565b6001600160a01b0384166000908152602081905260409020556002546118ab90836115c0565b6002556040805183815290516000916001600160a01b038616917fddf252ad1be2c89b69c2b068fc378daa952ba7f163c4a11628f55a4df523b3ef9181900360200190a3505050565b604080516001600160a01b038416602482015260448082018490528251808303909101815260649091019091526020810180516001600160e01b03167fa9059cbb00000000000000000000000000000000000000000000000000000000179052610dd2908490611e0f565b604080516001600160a01b0380861660248301528416604482015260648082018490528251808303909101815260849091019091526020810180516001600160e01b03167f23b872dd00000000000000000000000000000000000000000000000000000000179052610ed1908590611e0f565b426001600160a01b03851615611b7b576001600160a01b038516600090815260066020908152604091829020825160608101845290546001600160701b038082168352600160701b82041692820192909252600160e01b90910463ffffffff1691810191909152611a44818784611769565b6001600160701b0316602082015263ffffffff8216604082015282611ad35780516001600160701b0316611a7b85610a0989610c9d565b1015611ace576040805162461bcd60e51b815260206004820152601e60248201527f496e73756666756369656e7420617661696c61626c652062616c616e63650000604482015290519081900360640190fd5b611ae4565b80518490036001600160701b031681525b6001600160a01b0386166000908152600660209081526040918290208351815492850151939094015163ffffffff16600160e01b026001600160e01b036001600160701b03948516600160701b027fffffffff0000000000000000000000000000ffffffffffffffffffffffffffff959096166dffffffffffffffffffffffffffff19909416939093179390931693909317161790555b6001600160a01b03841615611cb3576001600160a01b038416600090815260066020908152604091829020825160608101845290546001600160701b038082168352600160701b82041692820192909252600160e01b90910463ffffffff1691810191909152611bec818684611769565b6001600160701b0316602082015263ffffffff821660408201528215611c1c57805184016001600160701b031681525b6001600160a01b0385166000908152600660209081526040918290208351815492850151939094015163ffffffff16600160e01b026001600160e01b036001600160701b03948516600160701b027fffffffff0000000000000000000000000000ffffffffffffffffffffffffffff959096166dffffffffffffffffffffffffffff19909416939093179390931693909317161790555b5050505050565b60008463ffffffff168263ffffffff161015611d1d576040805162461bcd60e51b815260206004820152600e60248201527f496e76616c696420706572696f64000000000000000000000000000000000000604482015290519081900360640190fd5b84820391508263ffffffff168263ffffffff1681611d3757fe5b0463ffffffff16846001600160701b0316901c93508263ffffffff168263ffffffff1681611d6157fe5b06915063ffffffff82161580611d7e57506001600160701b038416155b15611d8a575082610c57565b60006001600160701b0385168163ffffffff86811690861671b17217f7d1cf79abc9e3b39803f2f6af40f30281611dbd57fe5b049050600160901b5b8215611e0257928201928082840281611ddb57fe5b0493849003939250600160901b018082840281611df457fe5b049250600160901b01611dc6565b5091979650505050505050565b6000611e64826040518060400160405280602081526020017f5361666545524332303a206c6f772d6c6576656c2063616c6c206661696c6564815250856001600160a01b0316611ec09092919063ffffffff16565b805190915015610dd257808060200190516020811015611e8357600080fd5b5051610dd25760405162461bcd60e51b815260040180806020018281038252602a815260200180612261602a913960400191505060405180910390fd5b6060610c57848460008585611ed485611fe5565b611f25576040805162461bcd60e51b815260206004820152601d60248201527f416464726573733a2063616c6c20746f206e6f6e2d636f6e7472616374000000604482015290519081900360640190fd5b600080866001600160a01b031685876040518082805190602001908083835b60208310611f635780518252601f199092019160209182019101611f44565b6001836020036101000a03801982511681845116808217855250505050505090500191505060006040518083038185875af1925050503d8060008114611fc5576040519150601f19603f3d011682016040523d82523d6000602084013e611fca565b606091505b5091509150611fda828286611feb565b979650505050505050565b3b151590565b60608315611ffa5750816109d2565b82511561200a5782518084602001fd5b60405162461bcd60e51b815260206004820181815284516024840152845185939192839260440191908501908083836000831561157d578181015183820152602001611565565b828054600181600116156101000203166002900490600052602060002090601f01602090048101928261208757600085556120cd565b82601f106120a057805160ff19168380011785556120cd565b828001600101855582156120cd579182015b828111156120cd5782518255916020019190600101906120b2565b506120d99291506120dd565b5090565b5b808211156120d957600081556001016120de56fe45524332303a207472616e7366657220746f20746865207a65726f206164647265737345524332303a206275726e20616d6f756e7420657863656564732062616c616e63654f776e61626c653a206e6577206f776e657220697320746865207a65726f206164647265737345524332303a20617070726f766520746f20746865207a65726f206164647265737345524332303a207472616e7366657220616d6f756e7420657863656564732062616c616e636545524332303a207472616e7366657220616d6f756e74206578636565647320616c6c6f77616e6365496e697469616c697a61626c654f776e61626c653a20616c726561647920696e697469616c697a656445524332303a206275726e2066726f6d20746865207a65726f206164647265737345524332303a207472616e736665722066726f6d20746865207a65726f206164647265737345524332303a20617070726f76652066726f6d20746865207a65726f20616464726573735361666545524332303a204552433230206f7065726174696f6e20646964206e6f74207375636365656445524332303a2064656372656173656420616c6c6f77616e63652062656c6f77207a65726fa264697066735822122012725e9eb0ba7253539772640f8104bfff532e96e15116c0b70ba2c7b4a332b664736f6c63430007060033",
  "linkReferences": {},
  "deployedLinkReferences": {}
}