{
  "_format": "hh-sol-artifact-1",
  "contractName": "PowerToken",
  "sourceName": "contracts/PowerToken.sol",
  "abi": [
    {
      "anonymous": false,
      "inputs": [
        {
          "indexed": true,
          "internalType": "address",
          "name": "owner",
          "type": "address"
        },
        {
          "indexed": true,
          "internalType": "address",
          "name": "spender",
          "type": "address"
        },
        {
          "indexed": false,
          "internalType": "uint256",
          "name": "value",
          "type": "uint256"
        }
      ],
      "name": "Approval",
      "type": "event"
    },
    {
      "anonymous": false,
      "inputs": [
        {
          "indexed": false,
          "internalType": "uint112",
          "name": "baseRate",
          "type": "uint112"
        },
        {
          "indexed": false,
          "internalType": "address",
          "name": "baseToken",
          "type": "address"
        },
        {
          "indexed": false,
          "internalType": "uint96",
          "name": "minGCFee",
          "type": "uint96"
        }
      ],
      "name": "BaseRateChanged",
      "type": "event"
    },
    {
      "anonymous": false,
      "inputs": [
        {
          "indexed": false,
          "internalType": "uint32",
          "name": "minDuration",
          "type": "uint32"
        },
        {
          "indexed": false,
          "internalType": "uint32",
          "name": "maxDuration",
          "type": "uint32"
        }
      ],
      "name": "LoanDurationLimitsChanged",
      "type": "event"
    },
    {
      "anonymous": false,
      "inputs": [
        {
          "indexed": false,
          "internalType": "uint16",
          "name": "percent",
          "type": "uint16"
        }
      ],
      "name": "ServiceFeePercentChanged",
      "type": "event"
    },
    {
      "anonymous": false,
      "inputs": [
        {
          "indexed": true,
          "internalType": "address",
          "name": "from",
          "type": "address"
        },
        {
          "indexed": true,
          "internalType": "address",
          "name": "to",
          "type": "address"
        },
        {
          "indexed": false,
          "internalType": "uint256",
          "name": "value",
          "type": "uint256"
        }
      ],
      "name": "Transfer",
      "type": "event"
    },
    {
      "anonymous": false,
      "inputs": [],
      "name": "TransfersEnabled",
      "type": "event"
    },
    {
      "anonymous": false,
      "inputs": [],
      "name": "WrappingEnabled",
      "type": "event"
    },
    {
      "inputs": [
        {
          "internalType": "address",
          "name": "owner",
          "type": "address"
        },
        {
          "internalType": "address",
          "name": "spender",
          "type": "address"
        }
      ],
      "name": "allowance",
      "outputs": [
        {
          "internalType": "uint256",
          "name": "",
          "type": "uint256"
        }
      ],
      "stateMutability": "view",
      "type": "function"
    },
    {
      "inputs": [
        {
          "internalType": "address",
          "name": "spender",
          "type": "address"
        },
        {
          "internalType": "uint256",
          "name": "amount",
          "type": "uint256"
        }
      ],
      "name": "approve",
      "outputs": [
        {
          "internalType": "bool",
          "name": "",
          "type": "bool"
        }
      ],
      "stateMutability": "nonpayable",
      "type": "function"
    },
    {
      "inputs": [
        {
          "internalType": "address",
          "name": "account",
          "type": "address"
        }
      ],
      "name": "availableBalanceOf",
      "outputs": [
        {
          "internalType": "uint256",
          "name": "",
          "type": "uint256"
        }
      ],
      "stateMutability": "view",
      "type": "function"
    },
    {
      "inputs": [
        {
          "internalType": "address",
          "name": "account",
          "type": "address"
        }
      ],
      "name": "balanceOf",
      "outputs": [
        {
          "internalType": "uint256",
          "name": "",
          "type": "uint256"
        }
      ],
      "stateMutability": "view",
      "type": "function"
    },
    {
      "inputs": [
        {
          "internalType": "address",
          "name": "account",
          "type": "address"
        },
        {
          "internalType": "uint256",
          "name": "value",
          "type": "uint256"
        }
      ],
      "name": "burnFrom",
      "outputs": [],
      "stateMutability": "nonpayable",
      "type": "function"
    },
    {
      "inputs": [],
      "name": "decimals",
      "outputs": [
        {
          "internalType": "uint8",
          "name": "",
          "type": "uint8"
        }
      ],
      "stateMutability": "view",
      "type": "function"
    },
    {
      "inputs": [
        {
          "internalType": "address",
          "name": "spender",
          "type": "address"
        },
        {
          "internalType": "uint256",
          "name": "subtractedValue",
          "type": "uint256"
        }
      ],
      "name": "decreaseAllowance",
      "outputs": [
        {
          "internalType": "bool",
          "name": "",
          "type": "bool"
        }
      ],
      "stateMutability": "nonpayable",
      "type": "function"
    },
    {
      "inputs": [],
      "name": "enableTransfersForever",
      "outputs": [],
      "stateMutability": "nonpayable",
      "type": "function"
    },
    {
      "inputs": [],
      "name": "enableWrappingForever",
      "outputs": [],
      "stateMutability": "nonpayable",
      "type": "function"
    },
    {
      "inputs": [
        {
          "internalType": "address",
          "name": "who",
          "type": "address"
        },
        {
          "internalType": "uint32",
          "name": "timestamp",
          "type": "uint32"
        }
      ],
      "name": "energyAt",
      "outputs": [
        {
          "internalType": "uint112",
          "name": "",
          "type": "uint112"
        }
      ],
      "stateMutability": "view",
      "type": "function"
    },
    {
      "inputs": [
        {
          "internalType": "address",
          "name": "paymentToken",
          "type": "address"
        },
        {
          "internalType": "uint112",
          "name": "amount",
          "type": "uint112"
        },
        {
          "internalType": "uint32",
          "name": "duration",
          "type": "uint32"
        }
      ],
      "name": "estimateLoan",
      "outputs": [
        {
          "internalType": "uint256",
          "name": "",
          "type": "uint256"
        }
      ],
      "stateMutability": "view",
      "type": "function"
    },
    {
      "inputs": [
        {
          "internalType": "address",
          "name": "paymentToken",
          "type": "address"
        },
        {
          "internalType": "uint112",
          "name": "amount",
          "type": "uint112"
        },
        {
          "internalType": "uint32",
          "name": "duration",
          "type": "uint32"
        }
      ],
      "name": "estimateLoanDetailed",
      "outputs": [
        {
          "internalType": "uint112",
          "name": "interest",
          "type": "uint112"
        },
        {
          "internalType": "uint112",
          "name": "serviceFee",
          "type": "uint112"
        },
        {
          "internalType": "uint112",
          "name": "gcFee",
          "type": "uint112"
        }
      ],
      "stateMutability": "view",
      "type": "function"
    },
    {
      "inputs": [
        {
          "internalType": "address",
          "name": "from",
          "type": "address"
        },
        {
          "internalType": "address",
          "name": "to",
          "type": "address"
        },
        {
          "internalType": "uint256",
          "name": "amount",
          "type": "uint256"
        }
      ],
      "name": "forceTransfer",
      "outputs": [
        {
          "internalType": "bool",
          "name": "",
          "type": "bool"
        }
      ],
      "stateMutability": "nonpayable",
      "type": "function"
    },
    {
      "inputs": [],
      "name": "getAllowsPerpetual",
      "outputs": [
        {
          "internalType": "bool",
          "name": "",
          "type": "bool"
        }
      ],
      "stateMutability": "view",
      "type": "function"
    },
    {
      "inputs": [],
      "name": "getBaseRate",
      "outputs": [
        {
          "internalType": "uint112",
          "name": "",
          "type": "uint112"
        }
      ],
      "stateMutability": "view",
      "type": "function"
    },
    {
      "inputs": [],
      "name": "getBaseToken",
      "outputs": [
        {
          "internalType": "contract IERC20Metadata",
          "name": "",
          "type": "address"
        }
      ],
      "stateMutability": "view",
      "type": "function"
    },
    {
      "inputs": [],
      "name": "getEnterprise",
      "outputs": [
        {
          "internalType": "contract IEnterprise",
          "name": "",
          "type": "address"
        }
      ],
      "stateMutability": "view",
      "type": "function"
    },
    {
      "inputs": [],
      "name": "getGapHalvingPeriod",
      "outputs": [
        {
          "internalType": "uint32",
          "name": "",
          "type": "uint32"
        }
      ],
      "stateMutability": "view",
      "type": "function"
    },
    {
      "inputs": [],
      "name": "getIndex",
      "outputs": [
        {
          "internalType": "uint16",
          "name": "",
          "type": "uint16"
        }
      ],
      "stateMutability": "view",
      "type": "function"
    },
    {
      "inputs": [],
      "name": "getInfo",
      "outputs": [
        {
          "internalType": "string",
          "name": "name",
          "type": "string"
        },
        {
          "internalType": "string",
          "name": "symbol",
          "type": "string"
        },
        {
          "internalType": "uint112",
          "name": "baseRate",
          "type": "uint112"
        },
        {
          "internalType": "uint96",
          "name": "minGCFee",
          "type": "uint96"
        },
        {
          "internalType": "uint32",
          "name": "gapHalvingPeriod",
          "type": "uint32"
        },
        {
          "internalType": "uint16",
          "name": "index",
          "type": "uint16"
        },
        {
          "internalType": "contract IERC20Metadata",
          "name": "baseToken",
          "type": "address"
        },
        {
          "internalType": "uint32",
          "name": "minLoanDuration",
          "type": "uint32"
        },
        {
          "internalType": "uint32",
          "name": "maxLoanDuration",
          "type": "uint32"
        },
        {
          "internalType": "uint16",
          "name": "serviceFeePercent",
          "type": "uint16"
        },
        {
          "internalType": "bool",
          "name": "wrappingEnabled",
          "type": "bool"
        },
        {
          "internalType": "bool",
          "name": "transfersEnabled",
          "type": "bool"
        }
      ],
      "stateMutability": "view",
      "type": "function"
    },
    {
      "inputs": [],
      "name": "getMaxLoanDuration",
      "outputs": [
        {
          "internalType": "uint32",
          "name": "",
          "type": "uint32"
        }
      ],
      "stateMutability": "view",
      "type": "function"
    },
    {
      "inputs": [],
      "name": "getMinGCFee",
      "outputs": [
        {
          "internalType": "uint96",
          "name": "",
          "type": "uint96"
        }
      ],
      "stateMutability": "view",
      "type": "function"
    },
    {
      "inputs": [],
      "name": "getMinLoanDuration",
      "outputs": [
        {
          "internalType": "uint32",
          "name": "",
          "type": "uint32"
        }
      ],
      "stateMutability": "view",
      "type": "function"
    },
    {
      "inputs": [],
      "name": "getServiceFeePercent",
      "outputs": [
        {
          "internalType": "uint16",
          "name": "",
          "type": "uint16"
        }
      ],
      "stateMutability": "view",
      "type": "function"
    },
    {
      "inputs": [
        {
          "internalType": "address",
          "name": "account",
          "type": "address"
        }
      ],
      "name": "getState",
      "outputs": [
        {
          "components": [
            {
              "internalType": "uint112",
              "name": "lockedBalance",
              "type": "uint112"
            },
            {
              "internalType": "uint112",
              "name": "energy",
              "type": "uint112"
            },
            {
              "internalType": "uint32",
              "name": "timestamp",
              "type": "uint32"
            }
          ],
          "internalType": "struct PowerTokenStorage.State",
          "name": "",
          "type": "tuple"
        }
      ],
      "stateMutability": "view",
      "type": "function"
    },
    {
      "inputs": [
        {
          "internalType": "address",
          "name": "spender",
          "type": "address"
        },
        {
          "internalType": "uint256",
          "name": "addedValue",
          "type": "uint256"
        }
      ],
      "name": "increaseAllowance",
      "outputs": [
        {
          "internalType": "bool",
          "name": "",
          "type": "bool"
        }
      ],
      "stateMutability": "nonpayable",
      "type": "function"
    },
    {
      "inputs": [
        {
          "internalType": "string",
          "name": "name_",
          "type": "string"
        },
        {
          "internalType": "string",
          "name": "symbol_",
          "type": "string"
        },
        {
          "internalType": "uint8",
          "name": "decimals_",
          "type": "uint8"
        }
      ],
      "name": "initialize",
      "outputs": [],
      "stateMutability": "nonpayable",
      "type": "function"
    },
    {
      "inputs": [
        {
          "internalType": "contract IEnterprise",
          "name": "enterprise",
          "type": "address"
        },
        {
          "internalType": "uint112",
          "name": "baseRate",
          "type": "uint112"
        },
        {
          "internalType": "uint96",
          "name": "minGCFee",
          "type": "uint96"
        },
        {
          "internalType": "uint32",
          "name": "gapHalvingPeriod",
          "type": "uint32"
        },
        {
          "internalType": "uint16",
          "name": "index",
          "type": "uint16"
        },
        {
          "internalType": "contract IERC20Metadata",
          "name": "baseToken",
          "type": "address"
        }
      ],
      "name": "initialize",
      "outputs": [],
      "stateMutability": "nonpayable",
      "type": "function"
    },
    {
      "inputs": [
        {
          "internalType": "contract IEnterprise",
          "name": "enterprise",
          "type": "address"
        }
      ],
      "name": "initialize",
      "outputs": [],
      "stateMutability": "nonpayable",
      "type": "function"
    },
    {
      "inputs": [
        {
          "internalType": "uint32",
          "name": "minLoanDuration",
          "type": "uint32"
        },
        {
          "internalType": "uint32",
          "name": "maxLoanDuration",
          "type": "uint32"
        },
        {
          "internalType": "uint16",
          "name": "serviceFeePercent",
          "type": "uint16"
        },
        {
          "internalType": "bool",
          "name": "wrappingEnabled",
          "type": "bool"
        },
        {
          "internalType": "bool",
          "name": "transersEnabled",
          "type": "bool"
        }
      ],
      "name": "initialize2",
      "outputs": [],
      "stateMutability": "nonpayable",
      "type": "function"
    },
    {
      "inputs": [
        {
          "internalType": "uint32",
          "name": "duration",
          "type": "uint32"
        }
      ],
      "name": "isAllowedLoanDuration",
      "outputs": [
        {
          "internalType": "bool",
          "name": "",
          "type": "bool"
        }
      ],
      "stateMutability": "view",
      "type": "function"
    },
    {
      "inputs": [
        {
          "internalType": "address",
          "name": "to",
          "type": "address"
        },
        {
          "internalType": "uint256",
          "name": "value",
          "type": "uint256"
        }
      ],
      "name": "mint",
      "outputs": [],
      "stateMutability": "nonpayable",
      "type": "function"
    },
    {
      "inputs": [],
      "name": "name",
      "outputs": [
        {
          "internalType": "string",
          "name": "",
          "type": "string"
        }
      ],
      "stateMutability": "view",
      "type": "function"
    },
    {
      "inputs": [
        {
          "internalType": "uint256",
          "name": "borrowTokenId",
          "type": "uint256"
        }
      ],
      "name": "notifyNewLoan",
      "outputs": [],
      "stateMutability": "nonpayable",
      "type": "function"
    },
    {
      "inputs": [
        {
          "internalType": "uint112",
          "name": "baseRate",
          "type": "uint112"
        },
        {
          "internalType": "contract IERC20Metadata",
          "name": "baseToken",
          "type": "address"
        },
        {
          "internalType": "uint96",
          "name": "minGCFee",
          "type": "uint96"
        }
      ],
      "name": "setBaseRate",
      "outputs": [],
      "stateMutability": "nonpayable",
      "type": "function"
    },
    {
      "inputs": [
        {
          "internalType": "uint32",
          "name": "minLoanDuration",
          "type": "uint32"
        },
        {
          "internalType": "uint32",
          "name": "maxLoanDuration",
          "type": "uint32"
        }
      ],
      "name": "setLoanDurationLimits",
      "outputs": [],
      "stateMutability": "nonpayable",
      "type": "function"
    },
    {
      "inputs": [
        {
          "internalType": "uint16",
          "name": "newServiceFeePercent",
          "type": "uint16"
        }
      ],
      "name": "setServiceFeePercent",
      "outputs": [],
      "stateMutability": "nonpayable",
      "type": "function"
    },
    {
      "inputs": [],
      "name": "symbol",
      "outputs": [
        {
          "internalType": "string",
          "name": "",
          "type": "string"
        }
      ],
      "stateMutability": "view",
      "type": "function"
    },
    {
      "inputs": [],
      "name": "totalSupply",
      "outputs": [
        {
          "internalType": "uint256",
          "name": "",
          "type": "uint256"
        }
      ],
      "stateMutability": "view",
      "type": "function"
    },
    {
      "inputs": [
        {
          "internalType": "address",
          "name": "recipient",
          "type": "address"
        },
        {
          "internalType": "uint256",
          "name": "amount",
          "type": "uint256"
        }
      ],
      "name": "transfer",
      "outputs": [
        {
          "internalType": "bool",
          "name": "",
          "type": "bool"
        }
      ],
      "stateMutability": "nonpayable",
      "type": "function"
    },
    {
      "inputs": [
        {
          "internalType": "address",
          "name": "sender",
          "type": "address"
        },
        {
          "internalType": "address",
          "name": "recipient",
          "type": "address"
        },
        {
          "internalType": "uint256",
          "name": "amount",
          "type": "uint256"
        }
      ],
      "name": "transferFrom",
      "outputs": [
        {
          "internalType": "bool",
          "name": "",
          "type": "bool"
        }
      ],
      "stateMutability": "nonpayable",
      "type": "function"
    },
    {
      "inputs": [
        {
          "internalType": "uint256",
          "name": "amount",
          "type": "uint256"
        }
      ],
      "name": "unwrap",
      "outputs": [
        {
          "internalType": "bool",
          "name": "",
          "type": "bool"
        }
      ],
      "stateMutability": "nonpayable",
      "type": "function"
    },
    {
      "inputs": [
        {
          "internalType": "uint256",
          "name": "amount",
          "type": "uint256"
        }
      ],
      "name": "wrap",
      "outputs": [
        {
          "internalType": "bool",
          "name": "",
          "type": "bool"
        }
      ],
      "stateMutability": "nonpayable",
      "type": "function"
    },
    {
      "inputs": [
        {
          "internalType": "address",
          "name": "to",
          "type": "address"
        },
        {
          "internalType": "uint256",
          "name": "amount",
          "type": "uint256"
        }
      ],
      "name": "wrapTo",
      "outputs": [
        {
          "internalType": "bool",
          "name": "",
          "type": "bool"
        }
      ],
      "stateMutability": "nonpayable",
      "type": "function"
    }
  ],
  "bytecode": "0x608060405234801561001057600080fd5b506139a2806100206000396000f3fe608060405234801561001057600080fd5b50600436106102045760003560e01c806306fdde0314610209578063095ea7b3146102275780630aff9d191461024a5780630d148ab61461027557806311d1e9821461028a57806313e7e63b1461029257806314663701146102b85780631624f6c6146102d957806318160ddd146102ec5780631bab58f5146102f457806323b872dd146103a457806325d998bb146103b7578063313ce567146103ca57806333bebb77146103df57806339509351146103f257806340c10f191461040557806342bb702e146104185780634c11045a1461042d5780635370028e146104355780635932f4ff146104605780635a9b0b89146104755780636dfbee1b146104955780636e4d8983146104b757806370a08231146104ca578063748abb02146104dd578063759c8be3146104f057806379cc67901461050357806381045ead14610516578063927c9d871461052957806395d89b411461053b57806398acd7a6146105435780639a97db451461055d5780639d5513d7146105705780639f126fbe146105ad578063a457c2d7146105c0578063a9059cbb146105d3578063b655d0c4146105e6578063c0434352146105f7578063c4d66de81461060a578063dd62ed3e1461061d578063de0e9a3e14610656578063e298a2fd14610669578063ea598cb014610671578063f8642f2914610684575b600080fd5b610211610695565b60405161021e919061345b565b60405180910390f35b61023a6102353660046130a9565b610727565b604051901515815260200161021e565b600654600160701b90046001600160601b03166040516001600160601b03909116815260200161021e565b6102886102833660046132b7565b61073e565b005b610288610890565b600754600160a01b900463ffffffff165b60405163ffffffff909116815260200161021e565b6102cb6102c6366004613065565b6109c6565b60405190815260200161021e565b6102886102e7366004613208565b610a09565b6002546102cb565b61036e610302366004612fb5565b6040805160608082018352600080835260208084018290529284018190526001600160a01b03949094168452600882529282902082519384018352546001600160701b038082168552600160701b82041691840191909152600160e01b900463ffffffff169082015290565b6040805182516001600160701b039081168252602080850151909116908201529181015163ffffffff169082015260600161021e565b61023a6103b2366004613025565b610a8f565b6102cb6103c5366004612fb5565b610b1e565b60055460405160ff909116815260200161021e565b61023a6103ed366004613025565b610b53565b61023a6104003660046130a9565b610bb6565b6102886104133660046130a9565b610bed565b600654600160d01b900463ffffffff166102a3565b610288610c47565b6104486104433660046130d4565b610d7f565b6040516001600160701b03909116815260200161021e565b600754600160c01b900463ffffffff166102a3565b61047d610de5565b60405161021e9c9b9a9998979695949392919061346e565b600754600160e01b900461ffff165b60405161ffff909116815260200161021e565b61023a6104c5366004613342565b610f71565b6102cb6104d8366004612fb5565b610fab565b6102886104eb366004613124565b610fc6565b6102886104fe36600461327c565b6110fc565b6102886105113660046130a9565b61127c565b600654600160f01b900461ffff166104a4565b600754600160f01b900460ff1661023a565b6102116112d2565b6007546001600160a01b03165b60405161021e9190613447565b61028861056b366004613377565b6112e1565b61058361057e366004613065565b61143b565b604080516001600160701b039485168152928416602084015292169181019190915260600161021e565b61023a6105bb3660046130a9565b61145a565b61023a6105ce3660046130a9565b611466565b61023a6105e13660046130a9565b6114d4565b6006546001600160701b0316610448565b61028861060536600461335c565b6114e3565b610288610618366004612fb5565b61165b565b6102cb61062b366004612fed565b6001600160a01b03918216600090815260016020908152604080832093909416825291909152205490565b61023a6106643660046132ef565b61170d565b6105506117b0565b61023a61067f3660046132ef565b6117c4565b6102886106923660046132ef565b50565b6060600380546106a4906137e5565b80601f01602080910402602001604051908101604052809291908181526020018280546106d0906137e5565b801561071d5780601f106106f25761010080835404028352916020019161071d565b820191906000526020600020905b81548152906001019060200180831161070057829003601f168201915b5050505050905090565b60006107343384846117d0565b5060015b92915050565b60055460408051638da5cb5b60e01b81529051339261010090046001600160a01b031691638da5cb5b916004808301926020929190829003018186803b15801561078757600080fd5b505afa15801561079b573d6000803e3d6000fd5b505050506040513d601f19601f820116820180604052508101906107bf9190612fd1565b6001600160a01b031614604051806040016040528060018152602001603360f81b8152509061080a5760405162461bcd60e51b8152600401610801919061345b565b60405180910390fd5b50604080518082019091526002815261363760f01b602082015261138861ffff8316111561084b5760405162461bcd60e51b8152600401610801919061345b565b506007805461ffff60e01b1916600160e01b61ffff84169081029190911790915560405190815260008051602061390d8339815191529060200160405180910390a150565b60055460408051638da5cb5b60e01b81529051339261010090046001600160a01b031691638da5cb5b916004808301926020929190829003018186803b1580156108d957600080fd5b505afa1580156108ed573d6000803e3d6000fd5b505050506040513d601f19601f820116820180604052508101906109119190612fd1565b6001600160a01b031614604051806040016040528060018152602001603360f81b815250906109535760405162461bcd60e51b8152600401610801919061345b565b50600754604080518082019091526002815261037360f41b602082015290600160f01b900460ff16156109995760405162461bcd60e51b8152600401610801919061345b565b506007805460ff60f01b1916600160f01b17905560405160008051602061392d83398151915290600090a1565b6000806000806109d78787876118b4565b91945092509050806109e983856135c9565b6109f391906135c9565b6001600160701b031693505050505b9392505050565b60038054610a16906137e5565b6040805180820190915260018152601960f91b6020820152915015610a4e5760405162461bcd60e51b8152600401610801919061345b565b508251610a62906003906020860190612e84565b508151610a76906004906020850190612e84565b506005805460ff191660ff929092169190911790555050565b6000610a9e8484846000611b2b565b6001600160a01b03841660009081526001602090815260408083203384528252918290205482518084019093526002835261031360f41b918301919091529083821015610afe5760405162461bcd60e51b8152600401610801919061345b565b50610b138533610b0e86856137a2565b6117d0565b506001949350505050565b6001600160a01b0381166000908152600860205260408120546001600160701b0316610b4983610fab565b61073891906137a2565b6005546040805180820190915260018152600d60fa1b602082015260009161010090046001600160a01b03163314610b9e5760405162461bcd60e51b8152600401610801919061345b565b50610bac8484846001611b2b565b5060019392505050565b3360008181526001602090815260408083206001600160a01b03871684529091528120549091610734918590610b0e9086906135f4565b6005546040805180820190915260018152600d60fa1b60208201529061010090046001600160a01b03163314610c365760405162461bcd60e51b8152600401610801919061345b565b50610c4382826001611c99565b5050565b60055460408051638da5cb5b60e01b81529051339261010090046001600160a01b031691638da5cb5b916004808301926020929190829003018186803b158015610c9057600080fd5b505afa158015610ca4573d6000803e3d6000fd5b505050506040513d601f19601f82011682018060405250810190610cc89190612fd1565b6001600160a01b031614604051806040016040528060018152602001603360f81b81525090610d0a5760405162461bcd60e51b8152600401610801919061345b565b50600754604080518082019091526002815261373960f01b602082015290600160f81b900460ff1615610d505760405162461bcd60e51b8152600401610801919061345b565b50600780546001600160f81b0316600160f81b1790556040516000805160206138ad83398151915290600090a1565b6001600160a01b0382166000908152600860209081526040808320815160608101835290546001600160701b038082168352600160701b82041693820193909352600160e01b90920463ffffffff1690820152610ddd818585611d57565b949350505050565b606080600080600080600080600080600080306001600160a01b03166306fdde036040518163ffffffff1660e01b815260040160006040518083038186803b158015610e3057600080fd5b505afa158015610e44573d6000803e3d6000fd5b505050506040513d6000823e601f3d908101601f19168201604052610e6c919081019061319f565b306001600160a01b03166395d89b416040518163ffffffff1660e01b815260040160006040518083038186803b158015610ea557600080fd5b505afa158015610eb9573d6000803e3d6000fd5b505050506040513d6000823e601f3d908101601f19168201604052610ee1919081019061319f565b600654600754929f919e506001600160701b0381169d506001600160601b03600160701b8204169c5063ffffffff600160d01b820481169c5061ffff600160f01b9283900481169c506001600160a01b0385169b50600160a01b850482169a50600160c01b85049091169850600160e01b840416965060ff90830481169550600160f81b90920490911692509050565b60075460009063ffffffff808416600160a01b9092041611801590610738575050600754600160c01b900463ffffffff9081169116111590565b6001600160a01b031660009081526020819052604090205490565b6006546040805180820190915260018152601960f91b602082015290600160d01b900463ffffffff161561100d5760405162461bcd60e51b8152600401610801919061345b565b50604080518082019091526002815261343360f01b602082015263ffffffff841661104b5760405162461bcd60e51b8152600401610801919061345b565b506110558661165b565b600680546001600160701b0387166001600160d01b031990911617600160701b6001600160601b03871602176001600160d01b0316600160d01b63ffffffff8616026001600160f01b031617600160f01b61ffff851602179055600780546001600160a01b0319166001600160a01b03831617905560405160008051602061394d833981519152906110ec90879084908890613528565b60405180910390a1505050505050565b60055460408051638da5cb5b60e01b81529051339261010090046001600160a01b031691638da5cb5b916004808301926020929190829003018186803b15801561114557600080fd5b505afa158015611159573d6000803e3d6000fd5b505050506040513d601f19601f8201168201806040525081019061117d9190612fd1565b6001600160a01b031614604051806040016040528060018152602001603360f81b815250906111bf5760405162461bcd60e51b8152600401610801919061345b565b5060075460408051808201909152600281526106c760f31b6020820152906001600160a01b03166112035760405162461bcd60e51b8152600401610801919061345b565b5060068054600780546001600160a01b0319166001600160a01b0386161790556001600160701b0385166001600160d01b031990911617600160701b6001600160601b0384160217905560405160008051602061394d8339815191529061126f90859085908590613528565b60405180910390a1505050565b6005546040805180820190915260018152600d60fa1b60208201529061010090046001600160a01b031633146112c55760405162461bcd60e51b8152600401610801919061345b565b50610c4382826001611de5565b6060600480546106a4906137e5565b6007546040805180820190915260018152601960f91b602082015290600160c01b900463ffffffff16156113285760405162461bcd60e51b8152600401610801919061345b565b5060078054600160a01b600160e01b031916600160a01b63ffffffff8881169190910263ffffffff60c01b191691909117600160c01b918716919091021762ffffff60e01b1916600160e01b61ffff86160260ff60f01b191617600160f01b84151502176001600160f81b0316600160f81b8315150217905560405160008051602061390d833981519152906113c990859061ffff91909116815260200190565b60405180910390a16000805160206138cd83398151915285856040516113f092919061355b565b60405180910390a181156114165760405160008051602061392d83398151915290600090a15b8015611434576040516000805160206138ad83398151915290600090a15b5050505050565b600080600061144b8686866118b4565b92509250925093509350939050565b6000610a028383611efc565b3360009081526001602090815260408083206001600160a01b038616845282528083205481518083019092526002825261313160f01b92820192909252838210156114c45760405162461bcd60e51b8152600401610801919061345b565b50610bac3385610b0e86856137a2565b60006107343384846000611b2b565b60055460408051638da5cb5b60e01b81529051339261010090046001600160a01b031691638da5cb5b916004808301926020929190829003018186803b15801561152c57600080fd5b505afa158015611540573d6000803e3d6000fd5b505050506040513d601f19601f820116820180604052508101906115649190612fd1565b6001600160a01b031614604051806040016040528060018152602001603360f81b815250906115a65760405162461bcd60e51b8152600401610801919061345b565b508063ffffffff168263ffffffff16111560405180604001604052806002815260200161363960f01b815250906115f05760405162461bcd60e51b8152600401610801919061345b565b506007805463ffffffff838116600160c01b0263ffffffff60c01b19918616600160a01b0291909116600160a01b600160e01b0319909216919091171790556040516000805160206138cd8339815191529061164f908490849061355b565b60405180910390a15050565b6005546040805180820190915260018152601960f91b60208201529061010090046001600160a01b0316156116a35760405162461bcd60e51b8152600401610801919061345b565b50604080518082019091526002815261353960f01b60208201526001600160a01b0382166116e45760405162461bcd60e51b8152600401610801919061345b565b50600580546001600160a01b0390921661010002610100600160a81b0319909216919091179055565b600061171b33836000611de5565b6117a833836117286117b0565b6001600160a01b031663644e44df6040518163ffffffff1660e01b815260040160206040518083038186803b15801561176057600080fd5b505afa158015611774573d6000803e3d6000fd5b505050506040513d601f19601f820116820180604052508101906117989190612fd1565b6001600160a01b03169190611fde565b506001919050565b60055461010090046001600160a01b031690565b60006107383383611efc565b604080518082019091526002815261062760f31b60208201526001600160a01b0384166118105760405162461bcd60e51b8152600401610801919061345b565b50604080518082019091526002815261313960f01b60208201526001600160a01b0383166118515760405162461bcd60e51b8152600401610801919061345b565b506001600160a01b0383811660008181526001602090815260408083209487168084529482529182902085905590518481527f8c5be1e5ebec7d5bd14f71427d1e84f3dd0314c0f7b2291e5b200ac8c7c3b92591015b60405180910390a3505050565b60008060006118c16117b0565b6001600160a01b0316632fb2067f876040518263ffffffff1660e01b81526004016118ec9190613447565b60206040518083038186803b15801561190457600080fd5b505afa158015611918573d6000803e3d6000fd5b505050506040513d601f19601f8201168201806040525081019061193c9190613108565b604051806040016040528060028152602001610d0d60f21b815250906119755760405162461bcd60e51b8152600401610801919061345b565b5061197f84610f71565b60405180604001604052806002815260200161343560f01b815250906119b85760405162461bcd60e51b8152600401610801919061345b565b5060006119c58686612046565b905060006119d16117b0565b6001600160a01b0316632261b07f6040518163ffffffff1660e01b815260040160206040518083038186803b158015611a0957600080fd5b505afa158015611a1d573d6000803e3d6000fd5b505050506040513d601f19601f82011682018060405250810190611a419190612fd1565b6007546040516314fdc96760e11b81526001600160a01b0391821660048201526001600160701b03851660248201528a821660448201529116906329fb92ce9060640160206040518083038186803b158015611a9c57600080fd5b505afa158015611ab0573d6000803e3d6000fd5b505050506040513d601f19601f82011682018060405250810190611ad49190613307565b60075490915061271090611af390600160e01b900461ffff168361371a565b611afd919061360c565b9350611b126001600160701b038516826137a2565b9450611b1e88826123a8565b9250505093509350939050565b604080518082019091526002815261189960f11b60208201526001600160a01b038516611b6b5760405162461bcd60e51b8152600401610801919061345b565b50604080518082019091526002815261313360f01b60208201526001600160a01b038416611bac5760405162461bcd60e51b8152600401610801919061345b565b50611bb984848484612583565b6001600160a01b0384166000908152602081815260409182902054825180840190935260028352610c4d60f21b918301919091529083821015611c0f5760405162461bcd60e51b8152600401610801919061345b565b50611c1a83826137a2565b6001600160a01b038087166000908152602081905260408082209390935590861681529081208054859290611c509084906135f4565b92505081905550836001600160a01b0316856001600160a01b03166000805160206138ed83398151915285604051611c8a91815260200190565b60405180910390a35050505050565b604080518082019091526002815261313560f01b60208201526001600160a01b038416611cd95760405162461bcd60e51b8152600401610801919061345b565b50611ce76000848484612583565b8160026000828254611cf991906135f4565b90915550506001600160a01b03831660009081526020819052604081208054849290611d269084906135f4565b90915550506040518281526001600160a01b038416906000906000805160206138ed833981519152906020016118a7565b600080611d6384610fab565b905084602001516001600160701b0316816001600160701b03161115611dc357611db18560400151866020015183611d9b919061377a565b600654600160d01b900463ffffffff1686612898565b611dbb908261377a565b915050610a02565b611ddb8560400151828760200151611d9b919061377a565b611dbb90826135c9565b604080518082019091526002815261189b60f11b60208201526001600160a01b038416611e255760405162461bcd60e51b8152600401610801919061345b565b50611e338360008484612583565b6001600160a01b038316600090815260208181526040918290205482518084019093526002835261313760f01b918301919091529083821015611e895760405162461bcd60e51b8152600401610801919061345b565b50611e9483826137a2565b6001600160a01b03851660009081526020819052604081209190915560028054859290611ec29084906137a2565b90915550506040518381526000906001600160a01b038616906000805160206138ed8339815191529060200160405180910390a350505050565b600754604080518082019091526002815261353160f01b6020820152600091600160f01b900460ff16611f425760405162461bcd60e51b8152600401610801919061345b565b50611fd2333084611f516117b0565b6001600160a01b031663644e44df6040518163ffffffff1660e01b815260040160206040518083038186803b158015611f8957600080fd5b505afa158015611f9d573d6000803e3d6000fd5b505050506040513d601f19601f82011682018060405250810190611fc19190612fd1565b6001600160a01b0316929190612a39565b61073483836000611c99565b6040516001600160a01b03831660248201526044810182905261204190849063a9059cbb60e01b906064015b60408051601f198184030181529190526020810180516001600160e01b03166001600160e01b031990931692909217909152612a77565b505050565b6000806120516117b0565b6001600160a01b031663aebb50416040518163ffffffff1660e01b815260040160206040518083038186803b15801561208957600080fd5b505afa15801561209d573d6000803e3d6000fd5b505050506040513d601f19601f820116820180604052508101906120c19190613307565b9050836001600160701b031681116120e3576001600160701b03915050610738565b6007546040805163313ce56760e01b815290516000926001600160a01b03169163313ce567916004808301926020929190829003018186803b15801561212857600080fd5b505afa15801561213c573d6000803e3d6000fd5b505050506040513d601f19601f8201168201806040525081019061216091906133e3565b6121686117b0565b6001600160a01b031663644e44df6040518163ffffffff1660e01b815260040160206040518083038186803b1580156121a057600080fd5b505afa1580156121b4573d6000803e3d6000fd5b505050506040513d601f19601f820116820180604052508101906121d89190612fd1565b6001600160a01b031663313ce5676040518163ffffffff1660e01b815260040160206040518083038186803b15801561221057600080fd5b505afa158015612224573d6000803e3d6000fd5b505050506040513d601f19601f8201168201806040525081019061224891906133e3565b6122529190613739565b905060008061225f6117b0565b6001600160a01b031663faac38ef6040518163ffffffff1660e01b8152600401604080518083038186803b15801561229657600080fd5b505afa1580156122aa573d6000803e3d6000fd5b505050506040513d601f19601f820116820180604052508101906122ce919061331f565b9150915060008663ffffffff166122ef896001600160701b03168585612b49565b6122f9919061371a565b905060008460000b131561233d57604061231485600a61366f565b60065461232a906001600160701b03168461371a565b612334919061360c565b901c905061239d565b60008460000b121561237f57604061235485613820565b61235f90600a61366f565b600654612375906001600160701b03168461371a565b612334919061371a565b600654604090612398906001600160701b03168361371a565b901c90505b979650505050505050565b6000806127106123b66117b0565b6001600160a01b031663b406bf6d6040518163ffffffff1660e01b815260040160206040518083038186803b1580156123ee57600080fd5b505afa158015612402573d6000803e3d6000fd5b505050506040513d601f19601f8201168201806040525081019061242691906132d3565b6124349061ffff168561371a565b61243e919061360c565b9050600061244a6117b0565b6001600160a01b0316632261b07f6040518163ffffffff1660e01b815260040160206040518083038186803b15801561248257600080fd5b505afa158015612496573d6000803e3d6000fd5b505050506040513d601f19601f820116820180604052508101906124ba9190612fd1565b6007546006546040516314fdc96760e11b81526001600160a01b039283166004820152600160701b9091046001600160601b0316602482015287821660448201529116906329fb92ce9060640160206040518083038186803b15801561251f57600080fd5b505afa158015612533573d6000803e3d6000fd5b505050506040513d601f19601f820116820180604052508101906125579190613307565b9050806001600160701b0316826001600160701b031610612578578161257a565b805b95945050505050565b6001600160a01b03841615806125a057506001600160a01b038316155b806125a85750805b806125bc5750600754600160f81b900460ff165b60405180604001604052806002815260200161038360f41b815250906125f55760405162461bcd60e51b8152600401610801919061345b565b50426001600160a01b03851615612774576001600160a01b038516600090815260086020908152604091829020825160608101845290546001600160701b038082168352600160701b82041692820192909252600160e01b90910463ffffffff1691810191909152612668818784611d57565b6001600160701b0316602082015263ffffffff82166040820152826126e75780516001600160701b03168461269c88610fab565b6126a691906137a2565b1015604051806040016040528060028152602001610dcd60f21b815250906126e15760405162461bcd60e51b8152600401610801919061345b565b50612706565b83816000018181516126f9919061377a565b6001600160701b03169052505b6001600160a01b0386166000908152600860209081526040918290208351815492850151939094015163ffffffff16600160e01b026001600160e01b036001600160701b03948516600160701b026001600160e01b0319909416949095169390931791909117929092161790555b6001600160a01b03841615611434576001600160a01b038416600090815260086020908152604091829020825160608101845290546001600160701b038082168352600160701b82041692820192909252600160e01b90910463ffffffff16918101919091526127e5818684611d57565b6001600160701b0316602082015263ffffffff82166040820152821561282457838160000181815161281791906135c9565b6001600160701b03169052505b6001600160a01b0385166000908152600860209081526040918290208351815492850151939094015163ffffffff16600160e01b026001600160e01b036001600160701b03948516600160701b026001600160e01b0319909416949095169390931791909117929092161790555050505050565b60008463ffffffff168263ffffffff161015604051806040016040528060018152602001600760fb1b815250906128e25760405162461bcd60e51b8152600401610801919061345b565b5084820391508263ffffffff168263ffffffff168161291157634e487b7160e01b600052601260045260246000fd5b0463ffffffff16846001600160701b0316901c93508263ffffffff168263ffffffff168161294f57634e487b7160e01b600052601260045260246000fd5b06915063ffffffff8216158061296c57506001600160701b038416155b15612978575082610ddd565b60006001600160701b0385168163ffffffff86811690861671b17217f7d1cf79abc9e3b39803f2f6af40f302816129bf57634e487b7160e01b600052601260045260246000fd5b049050600160901b5b8215612a2c579282019280828402816129f157634e487b7160e01b600052601260045260246000fd5b0493849003939250600160901b018082840281612a1e57634e487b7160e01b600052601260045260246000fd5b049250600160901b016129c8565b5091979650505050505050565b6040516001600160a01b0380851660248301528316604482015260648101829052612a719085906323b872dd60e01b9060840161200a565b50505050565b6000612acc826040518060400160405280602081526020017f5361666545524332303a206c6f772d6c6576656c2063616c6c206661696c6564815250856001600160a01b0316612c809092919063ffffffff16565b8051909150156120415780806020019051810190612aea9190613108565b6120415760405162461bcd60e51b815260206004820152602a60248201527f5361666545524332303a204552433230206f7065726174696f6e20646964206e6044820152691bdd081cdd58d8d9595960b21b6064820152608401610801565b600080612b546117b0565b6001600160a01b031663fcb2884e6040518163ffffffff1660e01b815260040160206040518083038186803b158015612b8c57600080fd5b505afa158015612ba0573d6000803e3d6000fd5b505050506040513d601f19601f82011682018060405250810190612bc49190613307565b90506000612bd06117b0565b6001600160a01b03166359bf5d396040518163ffffffff1660e01b815260040160206040518083038186803b158015612c0857600080fd5b505afa158015612c1c573d6000803e3d6000fd5b505050506040513d601f19601f82011682018060405250810190612c409190613307565b9050612c4e82868684612c8f565b612c6c612c646001600160801b038916856135f4565b878785612c8f565b612c7691906137a2565b9695505050505050565b6060610ddd8484600085612cd2565b60006040612cbd8382612ca289836137a2565b612cad92911b61360c565b6001600160801b03168686612def565b612cc7908761371a565b901c95945050505050565b606082471015612d335760405162461bcd60e51b815260206004820152602660248201527f416464726573733a20696e73756666696369656e742062616c616e636520666f6044820152651c8818d85b1b60d21b6064820152608401610801565b843b612d815760405162461bcd60e51b815260206004820152601d60248201527f416464726573733a2063616c6c20746f206e6f6e2d636f6e74726163740000006044820152606401610801565b600080866001600160a01b03168587604051612d9d919061342b565b60006040518083038185875af1925050503d8060008114612dda576040519150601f19603f3d011682016040523d82523d6000602084013e612ddf565b606091505b509150915061239d828286612e4b565b6000828411612e0657506001600160801b03610a02565b612e1482600160401b6137a2565b612e1e84866137a2565b83612e2d86600160401b6137a2565b612e37919061371a565b612e41919061360c565b610ddd91906135f4565b60608315612e5a575081610a02565b825115612e6a5782518084602001fd5b8160405162461bcd60e51b8152600401610801919061345b565b828054612e90906137e5565b90600052602060002090601f016020900481019282612eb25760008555612ef8565b82601f10612ecb57805160ff1916838001178555612ef8565b82800160010185558215612ef8579182015b82811115612ef8578251825591602001919060010190612edd565b50612f04929150612f08565b5090565b5b80821115612f045760008155600101612f09565b600082601f830112612f2d578081fd5b8135612f40612f3b826135a2565b613572565b818152846020838601011115612f54578283fd5b816020850160208301379081016020019190915292915050565b80356001600160701b0381168114612f8557600080fd5b919050565b803563ffffffff81168114612f8557600080fd5b80356001600160601b0381168114612f8557600080fd5b600060208284031215612fc6578081fd5b8135610a028161386a565b600060208284031215612fe2578081fd5b8151610a028161386a565b60008060408385031215612fff578081fd5b823561300a8161386a565b9150602083013561301a8161386a565b809150509250929050565b600080600060608486031215613039578081fd5b83356130448161386a565b925060208401356130548161386a565b929592945050506040919091013590565b600080600060608486031215613079578283fd5b83356130848161386a565b925061309260208501612f6e565b91506130a060408501612f8a565b90509250925092565b600080604083850312156130bb578182fd5b82356130c68161386a565b946020939093013593505050565b600080604083850312156130e6578182fd5b82356130f18161386a565b91506130ff60208401612f8a565b90509250929050565b600060208284031215613119578081fd5b8151610a028161387f565b60008060008060008060c0878903121561313c578384fd5b86356131478161386a565b955061315560208801612f6e565b945061316360408801612f9e565b935061317160608801612f8a565b925060808701356131818161388d565b915060a08701356131918161386a565b809150509295509295509295565b6000602082840312156131b0578081fd5b81516001600160401b038111156131c5578182fd5b8201601f810184136131d5578182fd5b80516131e3612f3b826135a2565b8181528560208385010111156131f7578384fd5b61257a8260208301602086016137b9565b60008060006060848603121561321c578081fd5b83356001600160401b0380821115613232578283fd5b61323e87838801612f1d565b94506020860135915080821115613253578283fd5b5061326086828701612f1d565b92505060408401356132718161389d565b809150509250925092565b600080600060608486031215613290578081fd5b61329984612f6e565b925060208401356132a98161386a565b91506130a060408501612f9e565b6000602082840312156132c8578081fd5b8135610a028161388d565b6000602082840312156132e4578081fd5b8151610a028161388d565b600060208284031215613300578081fd5b5035919050565b600060208284031215613318578081fd5b5051919050565b60008060408385031215613331578182fd5b505080516020909101519092909150565b600060208284031215613353578081fd5b610a0282612f8a565b6000806040838503121561336e578182fd5b6130f183612f8a565b600080600080600060a0868803121561338e578283fd5b61339786612f8a565b94506133a560208701612f8a565b935060408601356133b58161388d565b925060608601356133c58161387f565b915060808601356133d58161387f565b809150509295509295909350565b6000602082840312156133f4578081fd5b8151610a028161389d565b600081518084526134178160208601602086016137b9565b601f01601f19169290920160200192915050565b6000825161343d8184602087016137b9565b9190910192915050565b6001600160a01b0391909116815260200190565b602081526000610a0260208301846133ff565b6101808152600061348361018083018f6133ff565b8281036020840152613495818f6133ff565b6001600160701b038e1660408501526001600160601b038d16606085015263ffffffff8c16608085015261ffff8b1660a08501526001600160a01b038a1660c085015291506134e19050565b63ffffffff871660e083015263ffffffff861661010083015261ffff85166101208301528315156101408301528215156101608301529d9c50505050505050505050505050565b6001600160701b039390931683526001600160a01b039190911660208301526001600160601b0316604082015260600190565b63ffffffff92831681529116602082015260400190565b604051601f8201601f191681016001600160401b038111828210171561359a5761359a613854565b604052919050565b60006001600160401b038211156135bb576135bb613854565b50601f01601f191660200190565b60006001600160701b038281168482168083038211156135eb576135eb61383e565b01949350505050565b600082198211156136075761360761383e565b500190565b60008261362757634e487b7160e01b81526012600452602481fd5b500490565b600181815b8085111561366757816000190482111561364d5761364d61383e565b8085161561365a57918102915b93841c9390800290613631565b509250929050565b6000610a0260ff84168360008261368857506001610738565b8161369557506000610738565b81600181146136ab57600281146136b5576136d1565b6001915050610738565b60ff8411156136c6576136c661383e565b50506001821b610738565b5060208310610133831016604e8410600b84101617156136f4575081810a610738565b6136fe838361362c565b80600019048211156137125761371261383e565b029392505050565b60008160001904831182151516156137345761373461383e565b500290565b600081810b83820b8281128015607f1983018412161561375b5761375b61383e565b81607f0183138116156137705761377061383e565b5090039392505050565b60006001600160701b038381169083168181101561379a5761379a61383e565b039392505050565b6000828210156137b4576137b461383e565b500390565b60005b838110156137d45781810151838201526020016137bc565b83811115612a715750506000910152565b600181811c908216806137f957607f821691505b6020821081141561381a57634e487b7160e01b600052602260045260246000fd5b50919050565b600081810b607f198114156138375761383761383e565b9003919050565b634e487b7160e01b600052601160045260246000fd5b634e487b7160e01b600052604160045260246000fd5b6001600160a01b038116811461069257600080fd5b801515811461069257600080fd5b61ffff8116811461069257600080fd5b60ff8116811461069257600080fdfeeadb24812ab3c9a55c774958184293ebdb6c7f6a2dbab11f397d80c86feb65d31ff66a89a0dcb0d94c8284280cbf0fb7190e7d935e15b6b48513e08b84fd9c7bddf252ad1be2c89b69c2b068fc378daa952ba7f163c4a11628f55a4df523b3ef7b5d5b53df75c87d5bea0f0535cd81a355db537ee2ca5dcea9849433d99847b9dfece24f40d1e9a11dfa12d687382e8836c79a50268209551fe53b0333ed793c2833a6b2910014b082775316936860d808d821fc59634fa08bc19c19427fa99da264697066735822122088d9a7c625df3e1c4b8746054c783212086b5c8c0f4a7ba5b64435adf970e2c164736f6c63430008040033",
  "linkReferences": {},
  "deployedLinkReferences": {}
}