{
  "_format": "hh-sol-artifact-1",
  "contractName": "PowerToken",
  "sourceName": "contracts/PowerToken.sol",
  "abi": [
    {
      "anonymous": false,
      "inputs": [
        {
          "indexed": true,
          "internalType": "address",
          "name": "owner",
          "type": "address"
        },
        {
          "indexed": true,
          "internalType": "address",
          "name": "spender",
          "type": "address"
        },
        {
          "indexed": false,
          "internalType": "uint256",
          "name": "value",
          "type": "uint256"
        }
      ],
      "name": "Approval",
      "type": "event"
    },
    {
      "anonymous": false,
      "inputs": [
        {
          "indexed": true,
          "internalType": "address",
          "name": "from",
          "type": "address"
        },
        {
          "indexed": true,
          "internalType": "address",
          "name": "to",
          "type": "address"
        },
        {
          "indexed": false,
          "internalType": "uint256",
          "name": "value",
          "type": "uint256"
        }
      ],
      "name": "Transfer",
      "type": "event"
    },
    {
      "inputs": [
        {
          "internalType": "address",
          "name": "owner",
          "type": "address"
        },
        {
          "internalType": "address",
          "name": "spender",
          "type": "address"
        }
      ],
      "name": "allowance",
      "outputs": [
        {
          "internalType": "uint256",
          "name": "",
          "type": "uint256"
        }
      ],
      "stateMutability": "view",
      "type": "function"
    },
    {
      "inputs": [
        {
          "internalType": "address",
          "name": "spender",
          "type": "address"
        },
        {
          "internalType": "uint256",
          "name": "amount",
          "type": "uint256"
        }
      ],
      "name": "approve",
      "outputs": [
        {
          "internalType": "bool",
          "name": "",
          "type": "bool"
        }
      ],
      "stateMutability": "nonpayable",
      "type": "function"
    },
    {
      "inputs": [
        {
          "internalType": "address",
          "name": "account",
          "type": "address"
        }
      ],
      "name": "availableBalanceOf",
      "outputs": [
        {
          "internalType": "uint256",
          "name": "",
          "type": "uint256"
        }
      ],
      "stateMutability": "view",
      "type": "function"
    },
    {
      "inputs": [
        {
          "internalType": "address",
          "name": "account",
          "type": "address"
        }
      ],
      "name": "balanceOf",
      "outputs": [
        {
          "internalType": "uint256",
          "name": "",
          "type": "uint256"
        }
      ],
      "stateMutability": "view",
      "type": "function"
    },
    {
      "inputs": [
        {
          "internalType": "address",
          "name": "account",
          "type": "address"
        },
        {
          "internalType": "uint256",
          "name": "value",
          "type": "uint256"
        }
      ],
      "name": "burnFrom",
      "outputs": [],
      "stateMutability": "nonpayable",
      "type": "function"
    },
    {
      "inputs": [],
      "name": "decimals",
      "outputs": [
        {
          "internalType": "uint8",
          "name": "",
          "type": "uint8"
        }
      ],
      "stateMutability": "view",
      "type": "function"
    },
    {
      "inputs": [
        {
          "internalType": "address",
          "name": "spender",
          "type": "address"
        },
        {
          "internalType": "uint256",
          "name": "subtractedValue",
          "type": "uint256"
        }
      ],
      "name": "decreaseAllowance",
      "outputs": [
        {
          "internalType": "bool",
          "name": "",
          "type": "bool"
        }
      ],
      "stateMutability": "nonpayable",
      "type": "function"
    },
    {
      "inputs": [
        {
          "internalType": "address",
          "name": "who",
          "type": "address"
        },
        {
          "internalType": "uint32",
          "name": "timestamp",
          "type": "uint32"
        }
      ],
      "name": "energyAt",
      "outputs": [
        {
          "internalType": "uint112",
          "name": "",
          "type": "uint112"
        }
      ],
      "stateMutability": "view",
      "type": "function"
    },
    {
      "inputs": [
        {
          "internalType": "address",
          "name": "from",
          "type": "address"
        },
        {
          "internalType": "address",
          "name": "to",
          "type": "address"
        },
        {
          "internalType": "uint256",
          "name": "amount",
          "type": "uint256"
        }
      ],
      "name": "forceTransfer",
      "outputs": [
        {
          "internalType": "bool",
          "name": "",
          "type": "bool"
        }
      ],
      "stateMutability": "nonpayable",
      "type": "function"
    },
    {
      "inputs": [],
      "name": "getEnterprise",
      "outputs": [
        {
          "internalType": "contract Enterprise",
          "name": "",
          "type": "address"
        }
      ],
      "stateMutability": "view",
      "type": "function"
    },
    {
      "inputs": [
        {
          "internalType": "address",
          "name": "spender",
          "type": "address"
        },
        {
          "internalType": "uint256",
          "name": "addedValue",
          "type": "uint256"
        }
      ],
      "name": "increaseAllowance",
      "outputs": [
        {
          "internalType": "bool",
          "name": "",
          "type": "bool"
        }
      ],
      "stateMutability": "nonpayable",
      "type": "function"
    },
    {
      "inputs": [
        {
          "internalType": "string",
          "name": "name",
          "type": "string"
        },
        {
          "internalType": "string",
          "name": "symbol",
          "type": "string"
        },
        {
          "internalType": "contract Enterprise",
          "name": "enterprise",
          "type": "address"
        }
      ],
      "name": "initialize",
      "outputs": [],
      "stateMutability": "nonpayable",
      "type": "function"
    },
    {
      "inputs": [
        {
          "internalType": "string",
          "name": "name_",
          "type": "string"
        },
        {
          "internalType": "string",
          "name": "symbol_",
          "type": "string"
        }
      ],
      "name": "initialize",
      "outputs": [],
      "stateMutability": "nonpayable",
      "type": "function"
    },
    {
      "inputs": [
        {
          "internalType": "contract Enterprise",
          "name": "enterprise",
          "type": "address"
        }
      ],
      "name": "initialize",
      "outputs": [],
      "stateMutability": "nonpayable",
      "type": "function"
    },
    {
      "inputs": [
        {
          "internalType": "address",
          "name": "to",
          "type": "address"
        },
        {
          "internalType": "uint256",
          "name": "value",
          "type": "uint256"
        }
      ],
      "name": "mint",
      "outputs": [],
      "stateMutability": "nonpayable",
      "type": "function"
    },
    {
      "inputs": [],
      "name": "name",
      "outputs": [
        {
          "internalType": "string",
          "name": "",
          "type": "string"
        }
      ],
      "stateMutability": "view",
      "type": "function"
    },
    {
      "inputs": [],
      "name": "symbol",
      "outputs": [
        {
          "internalType": "string",
          "name": "",
          "type": "string"
        }
      ],
      "stateMutability": "view",
      "type": "function"
    },
    {
      "inputs": [],
      "name": "totalSupply",
      "outputs": [
        {
          "internalType": "uint256",
          "name": "",
          "type": "uint256"
        }
      ],
      "stateMutability": "view",
      "type": "function"
    },
    {
      "inputs": [
        {
          "internalType": "address",
          "name": "recipient",
          "type": "address"
        },
        {
          "internalType": "uint256",
          "name": "amount",
          "type": "uint256"
        }
      ],
      "name": "transfer",
      "outputs": [
        {
          "internalType": "bool",
          "name": "",
          "type": "bool"
        }
      ],
      "stateMutability": "nonpayable",
      "type": "function"
    },
    {
      "inputs": [
        {
          "internalType": "address",
          "name": "sender",
          "type": "address"
        },
        {
          "internalType": "address",
          "name": "recipient",
          "type": "address"
        },
        {
          "internalType": "uint256",
          "name": "amount",
          "type": "uint256"
        }
      ],
      "name": "transferFrom",
      "outputs": [
        {
          "internalType": "bool",
          "name": "",
          "type": "bool"
        }
      ],
      "stateMutability": "nonpayable",
      "type": "function"
    },
    {
      "inputs": [
        {
          "internalType": "contract IERC20",
          "name": "liquidityToken",
          "type": "address"
        },
        {
          "internalType": "address",
          "name": "account",
          "type": "address"
        },
        {
          "internalType": "uint256",
          "name": "amount",
          "type": "uint256"
        }
      ],
      "name": "unwrap",
      "outputs": [],
      "stateMutability": "nonpayable",
      "type": "function"
    },
    {
      "inputs": [
        {
          "internalType": "contract IERC20",
          "name": "liquidityToken",
          "type": "address"
        },
        {
          "internalType": "address",
          "name": "from",
          "type": "address"
        },
        {
          "internalType": "address",
          "name": "to",
          "type": "address"
        },
        {
          "internalType": "uint256",
          "name": "amount",
          "type": "uint256"
        }
      ],
      "name": "wrap",
      "outputs": [],
      "stateMutability": "nonpayable",
      "type": "function"
    }
  ],
  "bytecode": "0x608060405234801561001057600080fd5b50611c23806100206000396000f3fe608060405234801561001057600080fd5b50600436106101125760003560e01c806306fdde0314610117578063077f224a14610135578063095ea7b31461014a57806318160ddd1461016d57806323b872dd1461017f57806325d998bb14610192578063313ce567146101a557806333bebb77146101b457806339509351146101c757806340c10f19146101da5780634cd88b76146101ed5780635370028e1461020057806370a082311461022b57806379cc67901461023e5780638cc7104f1461025157806395d89b4114610264578063a1571a571461026c578063a457c2d71461027f578063a9059cbb14610292578063c4d66de8146102a5578063dd62ed3e146102b8578063e298a2fd146102f1575b600080fd5b61011f610306565b60405161012c91906119db565b60405180910390f35b610148610143366004611819565b610398565b005b61015d6101583660046116f7565b6103b0565b604051901515815260200161012c565b6002545b60405190815260200161012c565b61015d61018d3660046116b7565b6103c6565b6101716101a0366004611663565b610460565b6040516012815260200161012c565b61015d6101c23660046116b7565b61049b565b61015d6101d53660046116f7565b6104f9565b6101486101e83660046116f7565b610530565b6101486101fb3660046117b9565b610585565b61021361020e366004611722565b6105f2565b6040516001600160701b03909116815260200161012c565b610171610239366004611663565b610658565b61014861024c3660046116f7565b610673565b61014861025f3660046116b7565b6106c4565b61011f610729565b61014861027a366004611769565b610738565b61015d61028d3660046116f7565b6107a4565b61015d6102a03660046116f7565b610812565b6101486102b3366004611663565b610821565b6101716102c636600461167f565b6001600160a01b03918216600090815260016020908152604080832093909416825291909152205490565b6102f96108c8565b60405161012c91906119c7565b60606003805461031590611b3c565b80601f016020809104026020016040519081016040528092919081815260200182805461034190611b3c565b801561038e5780601f106103635761010080835404028352916020019161038e565b820191906000526020600020905b81548152906001019060200180831161037157829003601f168201915b5050505050905090565b6103a181610821565b6103ab8383610585565b505050565b60006103bd3384846108d7565b50600192915050565b60006103d584848460006109bb565b6001600160a01b03841660009081526001602090815260408083203384528252918290205482518084019093526002835261031360f41b91830191909152908382101561043e5760405162461bcd60e51b815260040161043591906119db565b60405180910390fd5b50610453853361044e8685611af9565b6108d7565b60019150505b9392505050565b6001600160a01b0381166000908152600660205260408120546001600160701b031661048b83610658565b6104959190611af9565b92915050565b6005546040805180820190915260018152600d60fa1b60208201526000916001600160a01b031633146104e15760405162461bcd60e51b815260040161043591906119db565b506104ef84848460016109bb565b5060019392505050565b3360008181526001602090815260408083206001600160a01b038716845290915281205490916103bd91859061044e908690611ab9565b6005546040805180820190915260018152600d60fa1b6020820152906001600160a01b031633146105745760405162461bcd60e51b815260040161043591906119db565b5061058182826001610b29565b5050565b6003805461059290611b3c565b6040805180820190915260018152601960f91b60208201529150156105ca5760405162461bcd60e51b815260040161043591906119db565b5081516105de9060039060208501906114cb565b5080516103ab9060049060208401906114cb565b6001600160a01b0382166000908152600660209081526040808320815160608101835290546001600160701b038082168352600160701b82041693820193909352600160e01b90920463ffffffff1690820152610650818585610be7565b949350505050565b6001600160a01b031660009081526020819052604090205490565b6005546040805180820190915260018152600d60fa1b6020820152906001600160a01b031633146106b75760405162461bcd60e51b815260040161043591906119db565b5061058182826001610cf8565b6005546040805180820190915260018152600d60fa1b6020820152906001600160a01b031633146107085760405162461bcd60e51b815260040161043591906119db565b5061071582826000610cf8565b6103ab6001600160a01b0384168383610e0f565b60606004805461031590611b3c565b6005546040805180820190915260018152600d60fa1b6020820152906001600160a01b0316331461077c5760405162461bcd60e51b815260040161043591906119db565b506107926001600160a01b038516843084610e72565b61079e82826000610b29565b50505050565b3360009081526001602090815260408083206001600160a01b038616845282528083205481518083019092526002825261313160f01b92820192909252838210156108025760405162461bcd60e51b815260040161043591906119db565b506104ef338561044e8685611af9565b60006103bd33848460006109bb565b6005546040805180820190915260018152601960f91b6020820152906001600160a01b0316156108645760405162461bcd60e51b815260040161043591906119db565b50604080518082019091526002815261353960f01b60208201526001600160a01b0382166108a55760405162461bcd60e51b815260040161043591906119db565b50600580546001600160a01b0319166001600160a01b0392909216919091179055565b6005546001600160a01b031690565b604080518082019091526002815261062760f31b60208201526001600160a01b0384166109175760405162461bcd60e51b815260040161043591906119db565b50604080518082019091526002815261313960f01b60208201526001600160a01b0383166109585760405162461bcd60e51b815260040161043591906119db565b506001600160a01b0383811660008181526001602090815260408083209487168084529482529182902085905590518481527f8c5be1e5ebec7d5bd14f71427d1e84f3dd0314c0f7b2291e5b200ac8c7c3b92591015b60405180910390a3505050565b604080518082019091526002815261189960f11b60208201526001600160a01b0385166109fb5760405162461bcd60e51b815260040161043591906119db565b50604080518082019091526002815261313360f01b60208201526001600160a01b038416610a3c5760405162461bcd60e51b815260040161043591906119db565b50610a4984848484610eaa565b6001600160a01b0384166000908152602081815260409182902054825180840190935260028352610c4d60f21b918301919091529083821015610a9f5760405162461bcd60e51b815260040161043591906119db565b50610aaa8382611af9565b6001600160a01b038087166000908152602081905260408082209390935590861681529081208054859290610ae0908490611ab9565b92505081905550836001600160a01b0316856001600160a01b0316600080516020611bce83398151915285604051610b1a91815260200190565b60405180910390a35050505050565b604080518082019091526002815261313560f01b60208201526001600160a01b038416610b695760405162461bcd60e51b815260040161043591906119db565b50610b776000848484610eaa565b8160026000828254610b899190611ab9565b90915550506001600160a01b03831660009081526020819052604081208054849290610bb6908490611ab9565b90915550506040518281526001600160a01b03841690600090600080516020611bce833981519152906020016109ae565b600080610bf384610658565b90506000610bff6108c8565b6001600160a01b03166315a52302306040518263ffffffff1660e01b8152600401610c2a91906119c7565b60006040518083038186803b158015610c4257600080fd5b505afa158015610c56573d6000803e3d6000fd5b505050506040513d6000823e601f3d908101601f19168201604052610c7e919081019061188d565b9250505085602001516001600160701b0316826001600160701b03161115610cd657610cc38660400151876020015184610cb89190611ad1565b83604001518761114d565b610ccd9083611ad1565b92505050610459565b610cee8660400151838860200151610cb89190611ad1565b610ccd9083611a8e565b604080518082019091526002815261189b60f11b60208201526001600160a01b038416610d385760405162461bcd60e51b815260040161043591906119db565b50610d468360008484610eaa565b6001600160a01b038316600090815260208181526040918290205482518084019093526002835261313760f01b918301919091529083821015610d9c5760405162461bcd60e51b815260040161043591906119db565b50610da78382611af9565b6001600160a01b03851660009081526020819052604081209190915560028054859290610dd5908490611af9565b90915550506040518381526000906001600160a01b03861690600080516020611bce8339815191529060200160405180910390a350505050565b6040516001600160a01b0383166024820152604481018290526103ab90849063a9059cbb60e01b906064015b60408051601f198184030181529190526020810180516001600160e01b03166001600160e01b0319909316929092179091526112ee565b6040516001600160a01b038085166024830152831660448201526064810182905261079e9085906323b872dd60e01b90608401610e3b565b426001600160a01b03851615611028576001600160a01b038516600090815260066020908152604091829020825160608101845290546001600160701b038082168352600160701b82041692820192909252600160e01b90910463ffffffff1691810191909152610f1c818784610be7565b6001600160701b0316602082015263ffffffff8216604082015282610f9b5780516001600160701b031684610f5088610658565b610f5a9190611af9565b1015604051806040016040528060028152602001610dcd60f21b81525090610f955760405162461bcd60e51b815260040161043591906119db565b50610fba565b8381600001818151610fad9190611ad1565b6001600160701b03169052505b6001600160a01b0386166000908152600660209081526040918290208351815492850151939094015163ffffffff16600160e01b026001600160e01b036001600160701b03948516600160701b026001600160e01b0319909416949095169390931791909117929092161790555b6001600160a01b03841615611146576001600160a01b038416600090815260066020908152604091829020825160608101845290546001600160701b038082168352600160701b82041692820192909252600160e01b90910463ffffffff1691810191909152611099818684610be7565b6001600160701b0316602082015263ffffffff8216604082015282156110d85783816000018181516110cb9190611a8e565b6001600160701b03169052505b6001600160a01b0385166000908152600660209081526040918290208351815492850151939094015163ffffffff16600160e01b026001600160e01b036001600160701b03948516600160701b026001600160e01b0319909416949095169390931791909117929092161790555b5050505050565b60008463ffffffff168263ffffffff161015604051806040016040528060018152602001600760fb1b815250906111975760405162461bcd60e51b815260040161043591906119db565b5084820391508263ffffffff168263ffffffff16816111c657634e487b7160e01b600052601260045260246000fd5b0463ffffffff16846001600160701b0316901c93508263ffffffff168263ffffffff168161120457634e487b7160e01b600052601260045260246000fd5b06915063ffffffff8216158061122157506001600160701b038416155b1561122d575082610650565b60006001600160701b0385168163ffffffff86811690861671b17217f7d1cf79abc9e3b39803f2f6af40f3028161127457634e487b7160e01b600052601260045260246000fd5b049050600160901b5b82156112e1579282019280828402816112a657634e487b7160e01b600052601260045260246000fd5b0493849003939250600160901b0180828402816112d357634e487b7160e01b600052601260045260246000fd5b049250600160901b0161127d565b5091979650505050505050565b6000611343826040518060400160405280602081526020017f5361666545524332303a206c6f772d6c6576656c2063616c6c206661696c6564815250856001600160a01b03166113c09092919063ffffffff16565b8051909150156103ab5780806020019051810190611361919061174f565b6103ab5760405162461bcd60e51b815260206004820152602a60248201527f5361666545524332303a204552433230206f7065726174696f6e20646964206e6044820152691bdd081cdd58d8d9595960b21b6064820152608401610435565b6060610650848460008585843b6114195760405162461bcd60e51b815260206004820152601d60248201527f416464726573733a2063616c6c20746f206e6f6e2d636f6e74726163740000006044820152606401610435565b600080866001600160a01b0316858760405161143591906119ab565b60006040518083038185875af1925050503d8060008114611472576040519150601f19603f3d011682016040523d82523d6000602084013e611477565b606091505b5091509150611487828286611492565b979650505050505050565b606083156114a1575081610459565b8251156114b15782518084602001fd5b8160405162461bcd60e51b815260040161043591906119db565b8280546114d790611b3c565b90600052602060002090601f0160209004810192826114f9576000855561153f565b82601f1061151257805160ff191683800117855561153f565b8280016001018555821561153f579182015b8281111561153f578251825591602001919060010190611524565b5061154b92915061154f565b5090565b5b8082111561154b5760008155600101611550565b8051801515811461157457600080fd5b919050565b805161157481611ba3565b600082601f830112611594578081fd5b81356115a76115a282611a67565b611a37565b8181528460208386010111156115bb578283fd5b816020850160208301379081016020019190915292915050565b600082601f8301126115e5578081fd5b81516115f36115a282611a67565b818152846020838601011115611607578283fd5b610650826020830160208701611b10565b80516001600160701b038116811461157457600080fd5b805161ffff8116811461157457600080fd5b805161157481611bbb565b80516001600160601b038116811461157457600080fd5b600060208284031215611674578081fd5b813561045981611ba3565b60008060408385031215611691578081fd5b823561169c81611ba3565b915060208301356116ac81611ba3565b809150509250929050565b6000806000606084860312156116cb578081fd5b83356116d681611ba3565b925060208401356116e681611ba3565b929592945050506040919091013590565b60008060408385031215611709578182fd5b823561171481611ba3565b946020939093013593505050565b60008060408385031215611734578182fd5b823561173f81611ba3565b915060208301356116ac81611bbb565b600060208284031215611760578081fd5b61045982611564565b6000806000806080858703121561177e578081fd5b843561178981611ba3565b9350602085013561179981611ba3565b925060408501356117a981611ba3565b9396929550929360600135925050565b600080604083850312156117cb578182fd5b82356001600160401b03808211156117e1578384fd5b6117ed86838701611584565b93506020850135915080821115611802578283fd5b5061180f85828601611584565b9150509250929050565b60008060006060848603121561182d578081fd5b83356001600160401b0380821115611843578283fd5b61184f87838801611584565b94506020860135915080821115611864578283fd5b5061187186828701611584565b925050604084013561188281611ba3565b809150509250925092565b60008060008385036101608112156118a3578182fd5b84516001600160401b03808211156118b9578384fd5b6118c5888389016115d5565b955060208701519150808211156118da578384fd5b506118e7878288016115d5565b93505061012080603f19830112156118fd578283fd5b611905611a0e565b915061191360408701611618565b82526119216060870161164c565b602083015261193260808701611641565b604083015261194360a0870161162f565b606083015261195460c08701611579565b608083015261196560e08701611641565b60a0830152610100611978818801611641565b60c084015261198882880161162f565b60e084015261199a6101408801611564565b818401525050809150509250925092565b600082516119bd818460208701611b10565b9190910192915050565b6001600160a01b0391909116815260200190565b60208152600082518060208401526119fa816040850160208701611b10565b601f01601f19169190910160400192915050565b60405161012081016001600160401b0381118282101715611a3157611a31611b8d565b60405290565b604051601f8201601f191681016001600160401b0381118282101715611a5f57611a5f611b8d565b604052919050565b60006001600160401b03821115611a8057611a80611b8d565b50601f01601f191660200190565b60006001600160701b03828116848216808303821115611ab057611ab0611b77565b01949350505050565b60008219821115611acc57611acc611b77565b500190565b60006001600160701b0383811690831681811015611af157611af1611b77565b039392505050565b600082821015611b0b57611b0b611b77565b500390565b60005b83811015611b2b578181015183820152602001611b13565b8381111561079e5750506000910152565b600181811c90821680611b5057607f821691505b60208210811415611b7157634e487b7160e01b600052602260045260246000fd5b50919050565b634e487b7160e01b600052601160045260246000fd5b634e487b7160e01b600052604160045260246000fd5b6001600160a01b0381168114611bb857600080fd5b50565b63ffffffff81168114611bb857600080fdfeddf252ad1be2c89b69c2b068fc378daa952ba7f163c4a11628f55a4df523b3efa26469706673582212200d0f1ff94eacf3a4f02c9a5ae153f77483df4918743a4c5fe1872ad2c4bd92b264736f6c63430008040033",
  "linkReferences": {},
  "deployedLinkReferences": {}
}