{
  "_format": "hh-sol-artifact-1",
  "contractName": "PowerToken",
  "sourceName": "contracts/PowerToken.sol",
  "abi": [
    {
      "anonymous": false,
      "inputs": [
        {
          "indexed": true,
          "internalType": "address",
          "name": "owner",
          "type": "address"
        },
        {
          "indexed": true,
          "internalType": "address",
          "name": "spender",
          "type": "address"
        },
        {
          "indexed": false,
          "internalType": "uint256",
          "name": "value",
          "type": "uint256"
        }
      ],
      "name": "Approval",
      "type": "event"
    },
    {
      "anonymous": false,
      "inputs": [
        {
          "indexed": false,
          "internalType": "uint112",
          "name": "baseRate",
          "type": "uint112"
        },
        {
          "indexed": false,
          "internalType": "address",
          "name": "baseToken",
          "type": "address"
        },
        {
          "indexed": false,
          "internalType": "uint96",
          "name": "minGCFee",
          "type": "uint96"
        }
      ],
      "name": "BaseRateChanged",
      "type": "event"
    },
    {
      "anonymous": false,
      "inputs": [
        {
          "indexed": false,
          "internalType": "uint32",
          "name": "minDuration",
          "type": "uint32"
        },
        {
          "indexed": false,
          "internalType": "uint32",
          "name": "maxDuration",
          "type": "uint32"
        }
      ],
      "name": "LoanDurationLimitsChanged",
      "type": "event"
    },
    {
      "anonymous": false,
      "inputs": [],
      "name": "PerpetualAllowed",
      "type": "event"
    },
    {
      "anonymous": false,
      "inputs": [
        {
          "indexed": false,
          "internalType": "uint16",
          "name": "percent",
          "type": "uint16"
        }
      ],
      "name": "ServiceFeePercentChanged",
      "type": "event"
    },
    {
      "anonymous": false,
      "inputs": [
        {
          "indexed": true,
          "internalType": "address",
          "name": "from",
          "type": "address"
        },
        {
          "indexed": true,
          "internalType": "address",
          "name": "to",
          "type": "address"
        },
        {
          "indexed": false,
          "internalType": "uint256",
          "name": "value",
          "type": "uint256"
        }
      ],
      "name": "Transfer",
      "type": "event"
    },
    {
      "inputs": [],
      "name": "allowPerpetualForever",
      "outputs": [],
      "stateMutability": "nonpayable",
      "type": "function"
    },
    {
      "inputs": [
        {
          "internalType": "address",
          "name": "owner",
          "type": "address"
        },
        {
          "internalType": "address",
          "name": "spender",
          "type": "address"
        }
      ],
      "name": "allowance",
      "outputs": [
        {
          "internalType": "uint256",
          "name": "",
          "type": "uint256"
        }
      ],
      "stateMutability": "view",
      "type": "function"
    },
    {
      "inputs": [
        {
          "internalType": "address",
          "name": "spender",
          "type": "address"
        },
        {
          "internalType": "uint256",
          "name": "amount",
          "type": "uint256"
        }
      ],
      "name": "approve",
      "outputs": [
        {
          "internalType": "bool",
          "name": "",
          "type": "bool"
        }
      ],
      "stateMutability": "nonpayable",
      "type": "function"
    },
    {
      "inputs": [
        {
          "internalType": "address",
          "name": "account",
          "type": "address"
        }
      ],
      "name": "availableBalanceOf",
      "outputs": [
        {
          "internalType": "uint256",
          "name": "",
          "type": "uint256"
        }
      ],
      "stateMutability": "view",
      "type": "function"
    },
    {
      "inputs": [
        {
          "internalType": "address",
          "name": "account",
          "type": "address"
        }
      ],
      "name": "balanceOf",
      "outputs": [
        {
          "internalType": "uint256",
          "name": "",
          "type": "uint256"
        }
      ],
      "stateMutability": "view",
      "type": "function"
    },
    {
      "inputs": [
        {
          "internalType": "address",
          "name": "account",
          "type": "address"
        },
        {
          "internalType": "uint256",
          "name": "value",
          "type": "uint256"
        }
      ],
      "name": "burnFrom",
      "outputs": [],
      "stateMutability": "nonpayable",
      "type": "function"
    },
    {
      "inputs": [],
      "name": "decimals",
      "outputs": [
        {
          "internalType": "uint8",
          "name": "",
          "type": "uint8"
        }
      ],
      "stateMutability": "view",
      "type": "function"
    },
    {
      "inputs": [
        {
          "internalType": "address",
          "name": "spender",
          "type": "address"
        },
        {
          "internalType": "uint256",
          "name": "subtractedValue",
          "type": "uint256"
        }
      ],
      "name": "decreaseAllowance",
      "outputs": [
        {
          "internalType": "bool",
          "name": "",
          "type": "bool"
        }
      ],
      "stateMutability": "nonpayable",
      "type": "function"
    },
    {
      "inputs": [
        {
          "internalType": "address",
          "name": "who",
          "type": "address"
        },
        {
          "internalType": "uint32",
          "name": "timestamp",
          "type": "uint32"
        }
      ],
      "name": "energyAt",
      "outputs": [
        {
          "internalType": "uint112",
          "name": "",
          "type": "uint112"
        }
      ],
      "stateMutability": "view",
      "type": "function"
    },
    {
      "inputs": [
        {
          "internalType": "contract IERC20",
          "name": "paymentToken",
          "type": "address"
        },
        {
          "internalType": "uint112",
          "name": "amount",
          "type": "uint112"
        },
        {
          "internalType": "uint32",
          "name": "duration",
          "type": "uint32"
        }
      ],
      "name": "estimateLoan",
      "outputs": [
        {
          "internalType": "uint256",
          "name": "",
          "type": "uint256"
        }
      ],
      "stateMutability": "view",
      "type": "function"
    },
    {
      "inputs": [
        {
          "internalType": "contract IERC20",
          "name": "paymentToken",
          "type": "address"
        },
        {
          "internalType": "uint112",
          "name": "amount",
          "type": "uint112"
        },
        {
          "internalType": "uint32",
          "name": "duration",
          "type": "uint32"
        }
      ],
      "name": "estimateLoanDetailed",
      "outputs": [
        {
          "internalType": "uint112",
          "name": "interest",
          "type": "uint112"
        },
        {
          "internalType": "uint112",
          "name": "serviceFee",
          "type": "uint112"
        },
        {
          "internalType": "uint112",
          "name": "gcFee",
          "type": "uint112"
        }
      ],
      "stateMutability": "view",
      "type": "function"
    },
    {
      "inputs": [
        {
          "internalType": "address",
          "name": "from",
          "type": "address"
        },
        {
          "internalType": "address",
          "name": "to",
          "type": "address"
        },
        {
          "internalType": "uint256",
          "name": "amount",
          "type": "uint256"
        }
      ],
      "name": "forceTransfer",
      "outputs": [
        {
          "internalType": "bool",
          "name": "",
          "type": "bool"
        }
      ],
      "stateMutability": "nonpayable",
      "type": "function"
    },
    {
      "inputs": [],
      "name": "getAllowsPerpetual",
      "outputs": [
        {
          "internalType": "bool",
          "name": "",
          "type": "bool"
        }
      ],
      "stateMutability": "view",
      "type": "function"
    },
    {
      "inputs": [],
      "name": "getBaseRate",
      "outputs": [
        {
          "internalType": "uint112",
          "name": "",
          "type": "uint112"
        }
      ],
      "stateMutability": "view",
      "type": "function"
    },
    {
      "inputs": [],
      "name": "getBaseToken",
      "outputs": [
        {
          "internalType": "contract IERC20Metadata",
          "name": "",
          "type": "address"
        }
      ],
      "stateMutability": "view",
      "type": "function"
    },
    {
      "inputs": [],
      "name": "getEnterprise",
      "outputs": [
        {
          "internalType": "contract Enterprise",
          "name": "",
          "type": "address"
        }
      ],
      "stateMutability": "view",
      "type": "function"
    },
    {
      "inputs": [],
      "name": "getGapHalvingPeriod",
      "outputs": [
        {
          "internalType": "uint32",
          "name": "",
          "type": "uint32"
        }
      ],
      "stateMutability": "view",
      "type": "function"
    },
    {
      "inputs": [],
      "name": "getIndex",
      "outputs": [
        {
          "internalType": "uint16",
          "name": "",
          "type": "uint16"
        }
      ],
      "stateMutability": "view",
      "type": "function"
    },
    {
      "inputs": [],
      "name": "getInfo",
      "outputs": [
        {
          "internalType": "string",
          "name": "name",
          "type": "string"
        },
        {
          "internalType": "string",
          "name": "symbol",
          "type": "string"
        },
        {
          "internalType": "uint112",
          "name": "baseRate",
          "type": "uint112"
        },
        {
          "internalType": "uint96",
          "name": "minGCFee",
          "type": "uint96"
        },
        {
          "internalType": "uint32",
          "name": "gapHalvingPeriod",
          "type": "uint32"
        },
        {
          "internalType": "uint16",
          "name": "index",
          "type": "uint16"
        },
        {
          "internalType": "contract IERC20Metadata",
          "name": "baseToken",
          "type": "address"
        },
        {
          "internalType": "uint32",
          "name": "minLoanDuration",
          "type": "uint32"
        },
        {
          "internalType": "uint32",
          "name": "maxLoanDuration",
          "type": "uint32"
        },
        {
          "internalType": "uint16",
          "name": "serviceFeePercent",
          "type": "uint16"
        },
        {
          "internalType": "bool",
          "name": "allowsPerpetual",
          "type": "bool"
        }
      ],
      "stateMutability": "view",
      "type": "function"
    },
    {
      "inputs": [],
      "name": "getMaxLoanDuration",
      "outputs": [
        {
          "internalType": "uint32",
          "name": "",
          "type": "uint32"
        }
      ],
      "stateMutability": "view",
      "type": "function"
    },
    {
      "inputs": [],
      "name": "getMinGCFee",
      "outputs": [
        {
          "internalType": "uint96",
          "name": "",
          "type": "uint96"
        }
      ],
      "stateMutability": "view",
      "type": "function"
    },
    {
      "inputs": [],
      "name": "getMinLoanDuration",
      "outputs": [
        {
          "internalType": "uint32",
          "name": "",
          "type": "uint32"
        }
      ],
      "stateMutability": "view",
      "type": "function"
    },
    {
      "inputs": [],
      "name": "getServiceFeePercent",
      "outputs": [
        {
          "internalType": "uint16",
          "name": "",
          "type": "uint16"
        }
      ],
      "stateMutability": "view",
      "type": "function"
    },
    {
      "inputs": [
        {
          "internalType": "address",
          "name": "account",
          "type": "address"
        }
      ],
      "name": "getState",
      "outputs": [
        {
          "components": [
            {
              "internalType": "uint112",
              "name": "lockedBalance",
              "type": "uint112"
            },
            {
              "internalType": "uint112",
              "name": "energy",
              "type": "uint112"
            },
            {
              "internalType": "uint32",
              "name": "timestamp",
              "type": "uint32"
            }
          ],
          "internalType": "struct PowerTokenStorage.State",
          "name": "",
          "type": "tuple"
        }
      ],
      "stateMutability": "view",
      "type": "function"
    },
    {
      "inputs": [
        {
          "internalType": "address",
          "name": "spender",
          "type": "address"
        },
        {
          "internalType": "uint256",
          "name": "addedValue",
          "type": "uint256"
        }
      ],
      "name": "increaseAllowance",
      "outputs": [
        {
          "internalType": "bool",
          "name": "",
          "type": "bool"
        }
      ],
      "stateMutability": "nonpayable",
      "type": "function"
    },
    {
      "inputs": [
        {
          "internalType": "string",
          "name": "name_",
          "type": "string"
        },
        {
          "internalType": "string",
          "name": "symbol_",
          "type": "string"
        },
        {
          "internalType": "uint8",
          "name": "decimals_",
          "type": "uint8"
        }
      ],
      "name": "initialize",
      "outputs": [],
      "stateMutability": "nonpayable",
      "type": "function"
    },
    {
      "inputs": [
        {
          "internalType": "contract Enterprise",
          "name": "enterprise",
          "type": "address"
        },
        {
          "internalType": "uint112",
          "name": "baseRate",
          "type": "uint112"
        },
        {
          "internalType": "uint96",
          "name": "minGCFee",
          "type": "uint96"
        },
        {
          "internalType": "uint32",
          "name": "gapHalvingPeriod",
          "type": "uint32"
        },
        {
          "internalType": "uint16",
          "name": "index",
          "type": "uint16"
        },
        {
          "internalType": "contract IERC20Metadata",
          "name": "baseToken",
          "type": "address"
        },
        {
          "internalType": "uint32",
          "name": "minLoanDuration",
          "type": "uint32"
        },
        {
          "internalType": "uint32",
          "name": "maxLoanDuration",
          "type": "uint32"
        },
        {
          "internalType": "uint16",
          "name": "serviceFeePercent",
          "type": "uint16"
        },
        {
          "internalType": "bool",
          "name": "allowsPerpetual",
          "type": "bool"
        }
      ],
      "name": "initialize",
      "outputs": [],
      "stateMutability": "nonpayable",
      "type": "function"
    },
    {
      "inputs": [
        {
          "internalType": "contract Enterprise",
          "name": "enterprise",
          "type": "address"
        }
      ],
      "name": "initialize",
      "outputs": [],
      "stateMutability": "nonpayable",
      "type": "function"
    },
    {
      "inputs": [
        {
          "internalType": "uint32",
          "name": "duration",
          "type": "uint32"
        }
      ],
      "name": "isAllowedLoanDuration",
      "outputs": [
        {
          "internalType": "bool",
          "name": "",
          "type": "bool"
        }
      ],
      "stateMutability": "view",
      "type": "function"
    },
    {
      "inputs": [
        {
          "internalType": "address",
          "name": "to",
          "type": "address"
        },
        {
          "internalType": "uint256",
          "name": "value",
          "type": "uint256"
        }
      ],
      "name": "mint",
      "outputs": [],
      "stateMutability": "nonpayable",
      "type": "function"
    },
    {
      "inputs": [],
      "name": "name",
      "outputs": [
        {
          "internalType": "string",
          "name": "",
          "type": "string"
        }
      ],
      "stateMutability": "view",
      "type": "function"
    },
    {
      "inputs": [
        {
          "internalType": "uint256",
          "name": "borrowTokenId",
          "type": "uint256"
        }
      ],
      "name": "notifyNewLoan",
      "outputs": [],
      "stateMutability": "nonpayable",
      "type": "function"
    },
    {
      "inputs": [
        {
          "internalType": "uint112",
          "name": "baseRate",
          "type": "uint112"
        },
        {
          "internalType": "contract IERC20Metadata",
          "name": "baseToken",
          "type": "address"
        },
        {
          "internalType": "uint96",
          "name": "minGCFee",
          "type": "uint96"
        }
      ],
      "name": "setBaseRate",
      "outputs": [],
      "stateMutability": "nonpayable",
      "type": "function"
    },
    {
      "inputs": [
        {
          "internalType": "uint32",
          "name": "minLoanDuration",
          "type": "uint32"
        },
        {
          "internalType": "uint32",
          "name": "maxLoanDuration",
          "type": "uint32"
        }
      ],
      "name": "setLoanDurationLimits",
      "outputs": [],
      "stateMutability": "nonpayable",
      "type": "function"
    },
    {
      "inputs": [
        {
          "internalType": "uint16",
          "name": "newServiceFeePercent",
          "type": "uint16"
        }
      ],
      "name": "setServiceFeePercent",
      "outputs": [],
      "stateMutability": "nonpayable",
      "type": "function"
    },
    {
      "inputs": [],
      "name": "symbol",
      "outputs": [
        {
          "internalType": "string",
          "name": "",
          "type": "string"
        }
      ],
      "stateMutability": "view",
      "type": "function"
    },
    {
      "inputs": [],
      "name": "totalSupply",
      "outputs": [
        {
          "internalType": "uint256",
          "name": "",
          "type": "uint256"
        }
      ],
      "stateMutability": "view",
      "type": "function"
    },
    {
      "inputs": [
        {
          "internalType": "address",
          "name": "recipient",
          "type": "address"
        },
        {
          "internalType": "uint256",
          "name": "amount",
          "type": "uint256"
        }
      ],
      "name": "transfer",
      "outputs": [
        {
          "internalType": "bool",
          "name": "",
          "type": "bool"
        }
      ],
      "stateMutability": "nonpayable",
      "type": "function"
    },
    {
      "inputs": [
        {
          "internalType": "address",
          "name": "sender",
          "type": "address"
        },
        {
          "internalType": "address",
          "name": "recipient",
          "type": "address"
        },
        {
          "internalType": "uint256",
          "name": "amount",
          "type": "uint256"
        }
      ],
      "name": "transferFrom",
      "outputs": [
        {
          "internalType": "bool",
          "name": "",
          "type": "bool"
        }
      ],
      "stateMutability": "nonpayable",
      "type": "function"
    },
    {
      "inputs": [
        {
          "internalType": "uint256",
          "name": "amount",
          "type": "uint256"
        }
      ],
      "name": "unwrap",
      "outputs": [
        {
          "internalType": "bool",
          "name": "",
          "type": "bool"
        }
      ],
      "stateMutability": "nonpayable",
      "type": "function"
    },
    {
      "inputs": [
        {
          "internalType": "uint256",
          "name": "amount",
          "type": "uint256"
        }
      ],
      "name": "wrap",
      "outputs": [
        {
          "internalType": "bool",
          "name": "",
          "type": "bool"
        }
      ],
      "stateMutability": "nonpayable",
      "type": "function"
    },
    {
      "inputs": [
        {
          "internalType": "address",
          "name": "to",
          "type": "address"
        },
        {
          "internalType": "uint256",
          "name": "amount",
          "type": "uint256"
        }
      ],
      "name": "wrapTo",
      "outputs": [
        {
          "internalType": "bool",
          "name": "",
          "type": "bool"
        }
      ],
      "stateMutability": "nonpayable",
      "type": "function"
    }
  ],
  "bytecode": "0x608060405234801561001057600080fd5b506137cc806100206000396000f3fe608060405234801561001057600080fd5b50600436106101ee5760003560e01c806306fdde03146101f3578063095ea7b3146102115780630aff9d19146102345780630d148ab61461025f57806313e7e63b14610274578063146637011461029a5780631624f6c6146102bb57806318160ddd146102ce5780631bab58f5146102d657806323b872dd1461038657806325d998bb1461039957806327256486146103ac5780632ef0cf8b146103b4578063313ce567146103c757806333bebb77146103dc57806339509351146103ef57806340c10f191461040257806342bb702e146104155780635370028e1461042a5780635932f4ff146104555780635a9b0b891461046a5780636dfbee1b146104895780636e4d8983146104ab57806370a08231146104be578063759c8be3146104d157806379cc6790146104e457806381045ead146104f7578063927c9d871461050a57806395d89b411461051c57806398acd7a6146105245780639d5513d71461053e5780639f126fbe1461057b578063a457c2d71461058e578063a9059cbb146105a1578063b655d0c4146105b4578063c0434352146105c5578063c4d66de8146105d8578063dd62ed3e146105eb578063de0e9a3e14610624578063e298a2fd14610637578063ea598cb01461063f578063f8642f2914610652575b600080fd5b6101fb610663565b60405161020891906132b2565b60405180910390f35b61022461021f366004612ede565b6106f5565b6040519015158152602001610208565b600154600160701b90046001600160601b03166040516001600160601b039091168152602001610208565b61027261026d36600461317a565b61070c565b005b600254600160a01b900463ffffffff165b60405163ffffffff9091168152602001610208565b6102ad6102a836600461301e565b610859565b604051908152602001610208565b6102726102c93660046130cb565b61089c565b6006546102ad565b6103506102e4366004612e2e565b6040805160608082018352600080835260208084018290529284018190526001600160a01b03949094168452600382529282902082519384018352546001600160701b038082168552600160701b82041691840191909152600160e01b900463ffffffff169082015290565b6040805182516001600160701b039081168252602080850151909116908201529181015163ffffffff1690820152606001610208565b610224610394366004612e9e565b610922565b6102ad6103a7366004612e2e565b6109b1565b6102726109e6565b6102726103c2366004612f59565b610b16565b60095460405160ff9091168152602001610208565b6102246103ea366004612e9e565b610e03565b6102246103fd366004612ede565b610e60565b610272610410366004612ede565b610e97565b600154600160d01b900463ffffffff16610285565b61043d610438366004612f09565b610eec565b6040516001600160701b039091168152602001610208565b600254600160c01b900463ffffffff16610285565b610472610f52565b6040516102089b9a999897969594939291906132c5565b600254600160e01b900461ffff165b60405161ffff9091168152602001610208565b6102246104b9366004613205565b6110d1565b6102ad6104cc366004612e2e565b61110b565b6102726104df36600461313f565b611126565b6102726104f2366004612ede565b6112a0565b600154600160f01b900461ffff16610498565b600254600160f01b900460ff16610224565b6101fb6112f1565b6002546001600160a01b03165b604051610208919061329e565b61055161054c36600461301e565b611300565b604080516001600160701b0394851681529284166020840152921691810191909152606001610208565b610224610589366004612ede565b61131f565b61022461059c366004612ede565b61132b565b6102246105af366004612ede565b611399565b6001546001600160701b031661043d565b6102726105d336600461321f565b6113a8565b6102726105e6366004612e2e565b61151b565b6102ad6105f9366004612e66565b6001600160a01b03918216600090815260056020908152604080832093909416825291909152205490565b6102246106323660046131b2565b6115c2565b610531611665565b61022461064d3660046131b2565b611674565b6102726106603660046131b2565b50565b6060600780546106729061362f565b80601f016020809104026020016040519081016040528092919081815260200182805461069e9061362f565b80156106eb5780601f106106c0576101008083540402835291602001916106eb565b820191906000526020600020905b8154815290600101906020018083116106ce57829003601f168201915b5050505050905090565b6000610702338484611680565b5060015b92915050565b60005460408051638da5cb5b60e01b8152905133926001600160a01b031691638da5cb5b916004808301926020929190829003018186803b15801561075057600080fd5b505afa158015610764573d6000803e3d6000fd5b505050506040513d601f19601f820116820180604052508101906107889190612e4a565b6001600160a01b031614604051806040016040528060018152602001603360f81b815250906107d35760405162461bcd60e51b81526004016107ca91906132b2565b60405180910390fd5b50604080518082019091526002815261363760f01b602082015261138861ffff831611156108145760405162461bcd60e51b81526004016107ca91906132b2565b506002805461ffff60e01b1916600160e01b61ffff8416908102919091179091556040519081526000805160206137578339815191529060200160405180910390a150565b60008060008061086a878787611764565b919450925090508061087c8385613413565b6108869190613413565b6001600160701b031693505050505b9392505050565b600780546108a99061362f565b6040805180820190915260018152601960f91b60208201529150156108e15760405162461bcd60e51b81526004016107ca91906132b2565b5082516108f5906007906020860190612cfd565b508151610909906008906020850190612cfd565b506009805460ff191660ff929092169190911790555050565b60006109318484846000611a08565b6001600160a01b03841660009081526005602090815260408083203384528252918290205482518084019093526002835261031360f41b9183019190915290838210156109915760405162461bcd60e51b81526004016107ca91906132b2565b506109a685336109a186856135ec565b611680565b506001949350505050565b6001600160a01b0381166000908152600360205260408120546001600160701b03166109dc8361110b565b61070691906135ec565b60005460408051638da5cb5b60e01b8152905133926001600160a01b031691638da5cb5b916004808301926020929190829003018186803b158015610a2a57600080fd5b505afa158015610a3e573d6000803e3d6000fd5b505050506040513d601f19601f82011682018060405250810190610a629190612e4a565b6001600160a01b031614604051806040016040528060018152602001603360f81b81525090610aa45760405162461bcd60e51b81526004016107ca91906132b2565b50600280546040805180820190915291825261037360f41b6020830152600160f01b900460ff1615610ae95760405162461bcd60e51b81526004016107ca91906132b2565b506002805460ff60f01b1916600160f01b1790556040516000805160206136f783398151915290600090a1565b6001805460408051808201909152918252601960f91b6020830152600160d01b900463ffffffff1615610b5c5760405162461bcd60e51b81526004016107ca91906132b2565b50604080518082019091526002815261343360f01b602082015263ffffffff8816610b9a5760405162461bcd60e51b81526004016107ca91906132b2565b50604080518082019091526002815261363760f01b602082015261138861ffff84161115610bdb5760405162461bcd60e51b81526004016107ca91906132b2565b506002805460408051808201909152918252611a1960f11b602083015263ffffffff600160c01b82048116600160a01b909204161115610c2e5760405162461bcd60e51b81526004016107ca91906132b2565b50610c388a61151b565b88600160006101000a8154816001600160701b0302191690836001600160701b03160217905550876001600e6101000a8154816001600160601b0302191690836001600160601b03160217905550866001601a6101000a81548163ffffffff021916908363ffffffff160217905550856001601e6101000a81548161ffff021916908361ffff16021790555084600260006101000a8154816001600160a01b0302191690836001600160a01b0316021790555083600260146101000a81548163ffffffff021916908363ffffffff16021790555082600260186101000a81548163ffffffff021916908363ffffffff160217905550816002601c6101000a81548161ffff021916908361ffff160217905550806002601e6101000a81548160ff02191690831515021790555060008051602061377783398151915289868a604051610d8593929190613372565b60405180910390a160405161ffff831681526000805160206137578339815191529060200160405180910390a16000805160206137178339815191528484604051610dd19291906133a5565b60405180910390a18015610df7576040516000805160206136f783398151915290600090a15b50505050505050505050565b600080546040805180820190915260018152600d60fa1b6020820152906001600160a01b03163314610e485760405162461bcd60e51b81526004016107ca91906132b2565b50610e568484846001611a08565b5060019392505050565b3360008181526005602090815260408083206001600160a01b038716845290915281205490916107029185906109a190869061343e565b6000546040805180820190915260018152600d60fa1b6020820152906001600160a01b03163314610edb5760405162461bcd60e51b81526004016107ca91906132b2565b50610ee882826001611b78565b5050565b6001600160a01b0382166000908152600360209081526040808320815160608101835290546001600160701b038082168352600160701b82041693820193909352600160e01b90920463ffffffff1690820152610f4a818585611c36565b949350505050565b6060806000806000806000806000806000306001600160a01b03166306fdde036040518163ffffffff1660e01b815260040160006040518083038186803b158015610f9c57600080fd5b505afa158015610fb0573d6000803e3d6000fd5b505050506040513d6000823e601f3d908101601f19168201604052610fd89190810190613062565b306001600160a01b03166395d89b416040518163ffffffff1660e01b815260040160006040518083038186803b15801561101157600080fd5b505afa158015611025573d6000803e3d6000fd5b505050506040513d6000823e601f3d908101601f1916820160405261104d9190810190613062565b600154600254929e919d506001600160701b0381169c50600160701b81046001600160601b03169b50600160d01b810463ffffffff9081169b50600160f01b9182900461ffff9081169b506001600160a01b0385169a50600160a01b850482169950600160c01b85049091169750600160e01b840416955090910460ff1692509050565b60025460009063ffffffff808416600160a01b9092041611801590610706575050600254600160c01b900463ffffffff9081169116111590565b6001600160a01b031660009081526004602052604090205490565b60005460408051638da5cb5b60e01b8152905133926001600160a01b031691638da5cb5b916004808301926020929190829003018186803b15801561116a57600080fd5b505afa15801561117e573d6000803e3d6000fd5b505050506040513d601f19601f820116820180604052508101906111a29190612e4a565b6001600160a01b031614604051806040016040528060018152602001603360f81b815250906111e45760405162461bcd60e51b81526004016107ca91906132b2565b5060028054604080518082019091529182526106c760f31b60208301526001600160a01b03166112275760405162461bcd60e51b81526004016107ca91906132b2565b5060018054600280546001600160a01b0319166001600160a01b0386161790556001600160701b0385166001600160d01b031990911617600160701b6001600160601b038416021790556040516000805160206137778339815191529061129390859085908590613372565b60405180910390a1505050565b6000546040805180820190915260018152600d60fa1b6020820152906001600160a01b031633146112e45760405162461bcd60e51b81526004016107ca91906132b2565b50610ee882826001611cc4565b6060600880546106729061362f565b6000806000611310868686611764565b92509250925093509350939050565b60006108958383611ddd565b3360009081526005602090815260408083206001600160a01b038616845282528083205481518083019092526002825261313160f01b92820192909252838210156113895760405162461bcd60e51b81526004016107ca91906132b2565b50610e5633856109a186856135ec565b60006107023384846000611a08565b60005460408051638da5cb5b60e01b8152905133926001600160a01b031691638da5cb5b916004808301926020929190829003018186803b1580156113ec57600080fd5b505afa158015611400573d6000803e3d6000fd5b505050506040513d601f19601f820116820180604052508101906114249190612e4a565b6001600160a01b031614604051806040016040528060018152602001603360f81b815250906114665760405162461bcd60e51b81526004016107ca91906132b2565b508063ffffffff168263ffffffff16111560405180604001604052806002815260200161363960f01b815250906114b05760405162461bcd60e51b81526004016107ca91906132b2565b506002805463ffffffff838116600160c01b0263ffffffff60c01b19918616600160a01b0291909116600160a01b600160e01b0319909216919091171790556040516000805160206137178339815191529061150f90849084906133a5565b60405180910390a15050565b6000546040805180820190915260018152601960f91b6020820152906001600160a01b03161561155e5760405162461bcd60e51b81526004016107ca91906132b2565b50604080518082019091526002815261353960f01b60208201526001600160a01b03821661159f5760405162461bcd60e51b81526004016107ca91906132b2565b50600080546001600160a01b0319166001600160a01b0392909216919091179055565b60006115d033836000611cc4565b61165d33836115dd611665565b6001600160a01b031663644e44df6040518163ffffffff1660e01b815260040160206040518083038186803b15801561161557600080fd5b505afa158015611629573d6000803e3d6000fd5b505050506040513d601f19601f8201168201806040525081019061164d9190612e4a565b6001600160a01b03169190611ec0565b506001919050565b6000546001600160a01b031690565b60006107063383611ddd565b604080518082019091526002815261062760f31b60208201526001600160a01b0384166116c05760405162461bcd60e51b81526004016107ca91906132b2565b50604080518082019091526002815261313960f01b60208201526001600160a01b0383166117015760405162461bcd60e51b81526004016107ca91906132b2565b506001600160a01b0383811660008181526005602090815260408083209487168084529482529182902085905590518481527f8c5be1e5ebec7d5bd14f71427d1e84f3dd0314c0f7b2291e5b200ac8c7c3b92591015b60405180910390a3505050565b6000806000611771611665565b6001600160a01b0316632fb2067f876040518263ffffffff1660e01b815260040161179c919061329e565b60206040518083038186803b1580156117b457600080fd5b505afa1580156117c8573d6000803e3d6000fd5b505050506040513d601f19601f820116820180604052508101906117ec9190612f3d565b604051806040016040528060028152602001610d0d60f21b815250906118255760405162461bcd60e51b81526004016107ca91906132b2565b5061182f846110d1565b60405180604001604052806002815260200161343560f01b815250906118685760405162461bcd60e51b81526004016107ca91906132b2565b5060006118758686611f28565b600254909150600090612710906118a090600160e01b900461ffff166001600160701b038516613564565b6118aa9190613456565b905060006118b6611665565b6001600160a01b0316632261b07f6040518163ffffffff1660e01b815260040160206040518083038186803b1580156118ee57600080fd5b505afa158015611902573d6000803e3d6000fd5b505050506040513d601f19601f820116820180604052508101906119269190612e4a565b6002546040516314fdc96760e11b81526001600160a01b0391821660048201526001600160701b03861660248201528b821660448201529116906329fb92ce9060640160206040518083038186803b15801561198157600080fd5b505afa158015611995573d6000803e3d6000fd5b505050506040513d601f19601f820116820180604052508101906119b991906131ca565b90506001600160701b0383166119cf8284613564565b6119d99190613456565b94506119ee6001600160701b038616826135ec565b95506119fa898961228a565b935050505093509350939050565b604080518082019091526002815261189960f11b60208201526001600160a01b038516611a485760405162461bcd60e51b81526004016107ca91906132b2565b50604080518082019091526002815261313360f01b60208201526001600160a01b038416611a895760405162461bcd60e51b81526004016107ca91906132b2565b50611a968484848461246e565b6001600160a01b03841660009081526004602090815260409182902054825180840190935260028352610c4d60f21b918301919091529083821015611aee5760405162461bcd60e51b81526004016107ca91906132b2565b50611af983826135ec565b6001600160a01b038087166000908152600460205260408082209390935590861681529081208054859290611b2f90849061343e565b92505081905550836001600160a01b0316856001600160a01b031660008051602061373783398151915285604051611b6991815260200190565b60405180910390a35050505050565b604080518082019091526002815261313560f01b60208201526001600160a01b038416611bb85760405162461bcd60e51b81526004016107ca91906132b2565b50611bc6600084848461246e565b8160066000828254611bd8919061343e565b90915550506001600160a01b03831660009081526004602052604081208054849290611c0590849061343e565b90915550506040518281526001600160a01b0384169060009060008051602061373783398151915290602001611757565b600080611c428461110b565b905084602001516001600160701b0316816001600160701b03161115611ca257611c908560400151866020015183611c7a91906135c4565b600154600160d01b900463ffffffff1686612711565b611c9a90826135c4565b915050610895565b611cba8560400151828760200151611c7a91906135c4565b611c9a9082613413565b604080518082019091526002815261189b60f11b60208201526001600160a01b038416611d045760405162461bcd60e51b81526004016107ca91906132b2565b50611d12836000848461246e565b6001600160a01b0383166000908152600460209081526040918290205482518084019093526002835261313760f01b918301919091529083821015611d6a5760405162461bcd60e51b81526004016107ca91906132b2565b50611d7583826135ec565b6001600160a01b03851660009081526004602052604081209190915560068054859290611da39084906135ec565b90915550506040518381526000906001600160a01b038616906000805160206137378339815191529060200160405180910390a350505050565b600280546040805180820190915291825261353160f01b602083015260009190600160f01b900460ff16611e245760405162461bcd60e51b81526004016107ca91906132b2565b50611eb4333084611e33611665565b6001600160a01b031663644e44df6040518163ffffffff1660e01b815260040160206040518083038186803b158015611e6b57600080fd5b505afa158015611e7f573d6000803e3d6000fd5b505050506040513d601f19601f82011682018060405250810190611ea39190612e4a565b6001600160a01b03169291906128b2565b61070283836000611b78565b6040516001600160a01b038316602482015260448101829052611f2390849063a9059cbb60e01b906064015b60408051601f198184030181529190526020810180516001600160e01b03166001600160e01b0319909316929092179091526128f0565b505050565b600080611f33611665565b6001600160a01b031663aebb50416040518163ffffffff1660e01b815260040160206040518083038186803b158015611f6b57600080fd5b505afa158015611f7f573d6000803e3d6000fd5b505050506040513d601f19601f82011682018060405250810190611fa391906131ca565b9050836001600160701b03168111611fc5576001600160701b03915050610706565b6002546040805163313ce56760e01b815290516000926001600160a01b03169163313ce567916004808301926020929190829003018186803b15801561200a57600080fd5b505afa15801561201e573d6000803e3d6000fd5b505050506040513d601f19601f82011682018060405250810190612042919061323a565b61204a611665565b6001600160a01b031663644e44df6040518163ffffffff1660e01b815260040160206040518083038186803b15801561208257600080fd5b505afa158015612096573d6000803e3d6000fd5b505050506040513d601f19601f820116820180604052508101906120ba9190612e4a565b6001600160a01b031663313ce5676040518163ffffffff1660e01b815260040160206040518083038186803b1580156120f257600080fd5b505afa158015612106573d6000803e3d6000fd5b505050506040513d601f19601f8201168201806040525081019061212a919061323a565b6121349190613583565b9050600080612141611665565b6001600160a01b031663faac38ef6040518163ffffffff1660e01b8152600401604080518083038186803b15801561217857600080fd5b505afa15801561218c573d6000803e3d6000fd5b505050506040513d601f19601f820116820180604052508101906121b091906131e2565b9150915060008663ffffffff166121d1896001600160701b031685856129c2565b6121db9190613564565b905060008460000b131561221f5760406121f685600a6134b9565b60015461220c906001600160701b031684613564565b6122169190613456565b901c905061227f565b60008460000b12156122615760406122368561366a565b61224190600a6134b9565b600154612257906001600160701b031684613564565b6122169190613564565b60015460409061227a906001600160701b031683613564565b901c90505b979650505050505050565b600080612710612298611665565b6001600160a01b031663b406bf6d6040518163ffffffff1660e01b815260040160206040518083038186803b1580156122d057600080fd5b505afa1580156122e4573d6000803e3d6000fd5b505050506040513d601f19601f820116820180604052508101906123089190613196565b61231f9061ffff166001600160701b038616613564565b6123299190613456565b90506000612335611665565b6001600160a01b0316632261b07f6040518163ffffffff1660e01b815260040160206040518083038186803b15801561236d57600080fd5b505afa158015612381573d6000803e3d6000fd5b505050506040513d601f19601f820116820180604052508101906123a59190612e4a565b6002546001546040516314fdc96760e11b81526001600160a01b039283166004820152600160701b9091046001600160601b0316602482015287821660448201529116906329fb92ce9060640160206040518083038186803b15801561240a57600080fd5b505afa15801561241e573d6000803e3d6000fd5b505050506040513d601f19601f8201168201806040525081019061244291906131ca565b9050806001600160701b0316826001600160701b0316106124635781612465565b805b95945050505050565b426001600160a01b038516156125ec576001600160a01b038516600090815260036020908152604091829020825160608101845290546001600160701b038082168352600160701b82041692820192909252600160e01b90910463ffffffff16918101919091526124e0818784611c36565b6001600160701b0316602082015263ffffffff821660408201528261255f5780516001600160701b0316846125148861110b565b61251e91906135ec565b1015604051806040016040528060028152602001610dcd60f21b815250906125595760405162461bcd60e51b81526004016107ca91906132b2565b5061257e565b838160000181815161257191906135c4565b6001600160701b03169052505b6001600160a01b0386166000908152600360209081526040918290208351815492850151939094015163ffffffff16600160e01b026001600160e01b036001600160701b03948516600160701b026001600160e01b0319909416949095169390931791909117929092161790555b6001600160a01b0384161561270a576001600160a01b038416600090815260036020908152604091829020825160608101845290546001600160701b038082168352600160701b82041692820192909252600160e01b90910463ffffffff169181019190915261265d818684611c36565b6001600160701b0316602082015263ffffffff82166040820152821561269c57838160000181815161268f9190613413565b6001600160701b03169052505b6001600160a01b0385166000908152600360209081526040918290208351815492850151939094015163ffffffff16600160e01b026001600160e01b036001600160701b03948516600160701b026001600160e01b0319909416949095169390931791909117929092161790555b5050505050565b60008463ffffffff168263ffffffff161015604051806040016040528060018152602001600760fb1b8152509061275b5760405162461bcd60e51b81526004016107ca91906132b2565b5084820391508263ffffffff168263ffffffff168161278a57634e487b7160e01b600052601260045260246000fd5b0463ffffffff16846001600160701b0316901c93508263ffffffff168263ffffffff16816127c857634e487b7160e01b600052601260045260246000fd5b06915063ffffffff821615806127e557506001600160701b038416155b156127f1575082610f4a565b60006001600160701b0385168163ffffffff86811690861671b17217f7d1cf79abc9e3b39803f2f6af40f3028161283857634e487b7160e01b600052601260045260246000fd5b049050600160901b5b82156128a55792820192808284028161286a57634e487b7160e01b600052601260045260246000fd5b0493849003939250600160901b01808284028161289757634e487b7160e01b600052601260045260246000fd5b049250600160901b01612841565b5091979650505050505050565b6040516001600160a01b03808516602483015283166044820152606481018290526128ea9085906323b872dd60e01b90608401611eec565b50505050565b6000612945826040518060400160405280602081526020017f5361666545524332303a206c6f772d6c6576656c2063616c6c206661696c6564815250856001600160a01b0316612af99092919063ffffffff16565b805190915015611f2357808060200190518101906129639190612f3d565b611f235760405162461bcd60e51b815260206004820152602a60248201527f5361666545524332303a204552433230206f7065726174696f6e20646964206e6044820152691bdd081cdd58d8d9595960b21b60648201526084016107ca565b6000806129cd611665565b6001600160a01b031663fcb2884e6040518163ffffffff1660e01b815260040160206040518083038186803b158015612a0557600080fd5b505afa158015612a19573d6000803e3d6000fd5b505050506040513d601f19601f82011682018060405250810190612a3d91906131ca565b90506000612a49611665565b6001600160a01b03166359bf5d396040518163ffffffff1660e01b815260040160206040518083038186803b158015612a8157600080fd5b505afa158015612a95573d6000803e3d6000fd5b505050506040513d601f19601f82011682018060405250810190612ab991906131ca565b9050612ac782868684612b08565b612ae5612add6001600160801b0389168561343e565b878785612b08565b612aef91906135ec565b9695505050505050565b6060610f4a8484600085612b4b565b60006040612b368382612b1b89836135ec565b612b2692911b613456565b6001600160801b03168686612c68565b612b409087613564565b901c95945050505050565b606082471015612bac5760405162461bcd60e51b815260206004820152602660248201527f416464726573733a20696e73756666696369656e742062616c616e636520666f6044820152651c8818d85b1b60d21b60648201526084016107ca565b843b612bfa5760405162461bcd60e51b815260206004820152601d60248201527f416464726573733a2063616c6c20746f206e6f6e2d636f6e747261637400000060448201526064016107ca565b600080866001600160a01b03168587604051612c169190613282565b60006040518083038185875af1925050503d8060008114612c53576040519150601f19603f3d011682016040523d82523d6000602084013e612c58565b606091505b509150915061227f828286612cc4565b6000828411612c7f57506001600160801b03610895565b612c8d82600160401b6135ec565b612c9784866135ec565b83612ca686600160401b6135ec565b612cb09190613564565b612cba9190613456565b610f4a919061343e565b60608315612cd3575081610895565b825115612ce35782518084602001fd5b8160405162461bcd60e51b81526004016107ca91906132b2565b828054612d099061362f565b90600052602060002090601f016020900481019282612d2b5760008555612d71565b82601f10612d4457805160ff1916838001178555612d71565b82800160010185558215612d71579182015b82811115612d71578251825591602001919060010190612d56565b50612d7d929150612d81565b5090565b5b80821115612d7d5760008155600101612d82565b600082601f830112612da6578081fd5b8135612db9612db4826133ec565b6133bc565b818152846020838601011115612dcd578283fd5b816020850160208301379081016020019190915292915050565b80356001600160701b0381168114612dfe57600080fd5b919050565b803563ffffffff81168114612dfe57600080fd5b80356001600160601b0381168114612dfe57600080fd5b600060208284031215612e3f578081fd5b8135610895816136b4565b600060208284031215612e5b578081fd5b8151610895816136b4565b60008060408385031215612e78578081fd5b8235612e83816136b4565b91506020830135612e93816136b4565b809150509250929050565b600080600060608486031215612eb2578081fd5b8335612ebd816136b4565b92506020840135612ecd816136b4565b929592945050506040919091013590565b60008060408385031215612ef0578182fd5b8235612efb816136b4565b946020939093013593505050565b60008060408385031215612f1b578182fd5b8235612f26816136b4565b9150612f3460208401612e03565b90509250929050565b600060208284031215612f4e578081fd5b8151610895816136c9565b6000806000806000806000806000806101408b8d031215612f78578788fd5b8a35612f83816136b4565b9950612f9160208c01612de7565b9850612f9f60408c01612e17565b9750612fad60608c01612e03565b965060808b0135612fbd816136d7565b955060a08b0135612fcd816136b4565b9450612fdb60c08c01612e03565b9350612fe960e08c01612e03565b92506101008b0135612ffa816136d7565b91506101208b013561300b816136c9565b809150509295989b9194979a5092959850565b600080600060608486031215613032578081fd5b833561303d816136b4565b925061304b60208501612de7565b915061305960408501612e03565b90509250925092565b600060208284031215613073578081fd5b81516001600160401b03811115613088578182fd5b8201601f81018413613098578182fd5b80516130a6612db4826133ec565b8181528560208385010111156130ba578384fd5b612465826020830160208601613603565b6000806000606084860312156130df578081fd5b83356001600160401b03808211156130f5578283fd5b61310187838801612d96565b94506020860135915080821115613116578283fd5b5061312386828701612d96565b9250506040840135613134816136e7565b809150509250925092565b600080600060608486031215613153578081fd5b61315c84612de7565b9250602084013561316c816136b4565b915061305960408501612e17565b60006020828403121561318b578081fd5b8135610895816136d7565b6000602082840312156131a7578081fd5b8151610895816136d7565b6000602082840312156131c3578081fd5b5035919050565b6000602082840312156131db578081fd5b5051919050565b600080604083850312156131f4578182fd5b505080516020909101519092909150565b600060208284031215613216578081fd5b61089582612e03565b60008060408385031215613231578182fd5b612f2683612e03565b60006020828403121561324b578081fd5b8151610895816136e7565b6000815180845261326e816020860160208601613603565b601f01601f19169290920160200192915050565b60008251613294818460208701613603565b9190910192915050565b6001600160a01b0391909116815260200190565b6020815260006108956020830184613256565b60006101608083526132d98184018f613256565b905082810360208401526132ed818e613256565b6001600160701b038d1660408501526001600160601b038c16606085015263ffffffff8b8116608086015261ffff8b1660a08601526001600160a01b038a1660c0860152881660e085015291506133419050565b63ffffffff851661010083015261ffff84166101208301528215156101408301529c9b505050505050505050505050565b6001600160701b039390931683526001600160a01b039190911660208301526001600160601b0316604082015260600190565b63ffffffff92831681529116602082015260400190565b604051601f8201601f191681016001600160401b03811182821017156133e4576133e461369e565b604052919050565b60006001600160401b038211156134055761340561369e565b50601f01601f191660200190565b60006001600160701b0382811684821680830382111561343557613435613688565b01949350505050565b6000821982111561345157613451613688565b500190565b60008261347157634e487b7160e01b81526012600452602481fd5b500490565b600181815b808511156134b157816000190482111561349757613497613688565b808516156134a457918102915b93841c939080029061347b565b509250929050565b600061089560ff8416836000826134d257506001610706565b816134df57506000610706565b81600181146134f557600281146134ff5761351b565b6001915050610706565b60ff84111561351057613510613688565b50506001821b610706565b5060208310610133831016604e8410600b841016171561353e575081810a610706565b6135488383613476565b806000190482111561355c5761355c613688565b029392505050565b600081600019048311821515161561357e5761357e613688565b500290565b600081810b83820b8281128015607f198301841216156135a5576135a5613688565b81607f0183138116156135ba576135ba613688565b5090039392505050565b60006001600160701b03838116908316818110156135e4576135e4613688565b039392505050565b6000828210156135fe576135fe613688565b500390565b60005b8381101561361e578181015183820152602001613606565b838111156128ea5750506000910152565b600181811c9082168061364357607f821691505b6020821081141561366457634e487b7160e01b600052602260045260246000fd5b50919050565b600081810b607f1981141561368157613681613688565b9003919050565b634e487b7160e01b600052601160045260246000fd5b634e487b7160e01b600052604160045260246000fd5b6001600160a01b038116811461066057600080fd5b801515811461066057600080fd5b61ffff8116811461066057600080fd5b60ff8116811461066057600080fdfe772fb13db6d1f0f35034c4b28dbbb01644e39d7e8b38de2a93b3c9d1fbb1ad4a1ff66a89a0dcb0d94c8284280cbf0fb7190e7d935e15b6b48513e08b84fd9c7bddf252ad1be2c89b69c2b068fc378daa952ba7f163c4a11628f55a4df523b3ef7b5d5b53df75c87d5bea0f0535cd81a355db537ee2ca5dcea9849433d99847b92833a6b2910014b082775316936860d808d821fc59634fa08bc19c19427fa99da2646970667358221220800068cae4df96c45fb81bbde9c54d14b229875bd0d8da7dc3d7b24b2f14b46464736f6c63430008040033",
  "linkReferences": {},
  "deployedLinkReferences": {}
}