{
  "_format": "hh-sol-artifact-1",
  "contractName": "PowerToken",
  "sourceName": "contracts/PowerToken.sol",
  "abi": [
    {
      "anonymous": false,
      "inputs": [
        {
          "indexed": true,
          "internalType": "address",
          "name": "owner",
          "type": "address"
        },
        {
          "indexed": true,
          "internalType": "address",
          "name": "spender",
          "type": "address"
        },
        {
          "indexed": false,
          "internalType": "uint256",
          "name": "value",
          "type": "uint256"
        }
      ],
      "name": "Approval",
      "type": "event"
    },
    {
      "anonymous": false,
      "inputs": [
        {
          "indexed": true,
          "internalType": "address",
          "name": "from",
          "type": "address"
        },
        {
          "indexed": true,
          "internalType": "address",
          "name": "to",
          "type": "address"
        },
        {
          "indexed": false,
          "internalType": "uint256",
          "name": "value",
          "type": "uint256"
        }
      ],
      "name": "Transfer",
      "type": "event"
    },
    {
      "inputs": [],
      "name": "allowPerpetualForever",
      "outputs": [],
      "stateMutability": "nonpayable",
      "type": "function"
    },
    {
      "inputs": [
        {
          "internalType": "address",
          "name": "owner",
          "type": "address"
        },
        {
          "internalType": "address",
          "name": "spender",
          "type": "address"
        }
      ],
      "name": "allowance",
      "outputs": [
        {
          "internalType": "uint256",
          "name": "",
          "type": "uint256"
        }
      ],
      "stateMutability": "view",
      "type": "function"
    },
    {
      "inputs": [
        {
          "internalType": "address",
          "name": "spender",
          "type": "address"
        },
        {
          "internalType": "uint256",
          "name": "amount",
          "type": "uint256"
        }
      ],
      "name": "approve",
      "outputs": [
        {
          "internalType": "bool",
          "name": "",
          "type": "bool"
        }
      ],
      "stateMutability": "nonpayable",
      "type": "function"
    },
    {
      "inputs": [
        {
          "internalType": "address",
          "name": "account",
          "type": "address"
        }
      ],
      "name": "availableBalanceOf",
      "outputs": [
        {
          "internalType": "uint256",
          "name": "",
          "type": "uint256"
        }
      ],
      "stateMutability": "view",
      "type": "function"
    },
    {
      "inputs": [
        {
          "internalType": "address",
          "name": "account",
          "type": "address"
        }
      ],
      "name": "balanceOf",
      "outputs": [
        {
          "internalType": "uint256",
          "name": "",
          "type": "uint256"
        }
      ],
      "stateMutability": "view",
      "type": "function"
    },
    {
      "inputs": [
        {
          "internalType": "address",
          "name": "account",
          "type": "address"
        },
        {
          "internalType": "uint256",
          "name": "value",
          "type": "uint256"
        }
      ],
      "name": "burnFrom",
      "outputs": [],
      "stateMutability": "nonpayable",
      "type": "function"
    },
    {
      "inputs": [],
      "name": "decimals",
      "outputs": [
        {
          "internalType": "uint8",
          "name": "",
          "type": "uint8"
        }
      ],
      "stateMutability": "view",
      "type": "function"
    },
    {
      "inputs": [
        {
          "internalType": "address",
          "name": "spender",
          "type": "address"
        },
        {
          "internalType": "uint256",
          "name": "subtractedValue",
          "type": "uint256"
        }
      ],
      "name": "decreaseAllowance",
      "outputs": [
        {
          "internalType": "bool",
          "name": "",
          "type": "bool"
        }
      ],
      "stateMutability": "nonpayable",
      "type": "function"
    },
    {
      "inputs": [
        {
          "internalType": "address",
          "name": "who",
          "type": "address"
        },
        {
          "internalType": "uint32",
          "name": "timestamp",
          "type": "uint32"
        }
      ],
      "name": "energyAt",
      "outputs": [
        {
          "internalType": "uint112",
          "name": "",
          "type": "uint112"
        }
      ],
      "stateMutability": "view",
      "type": "function"
    },
    {
      "inputs": [
        {
          "internalType": "contract IERC20",
          "name": "paymentToken",
          "type": "address"
        },
        {
          "internalType": "uint112",
          "name": "amount",
          "type": "uint112"
        },
        {
          "internalType": "uint32",
          "name": "duration",
          "type": "uint32"
        }
      ],
      "name": "estimateLoan",
      "outputs": [
        {
          "internalType": "uint256",
          "name": "",
          "type": "uint256"
        }
      ],
      "stateMutability": "view",
      "type": "function"
    },
    {
      "inputs": [
        {
          "internalType": "contract IERC20",
          "name": "paymentToken",
          "type": "address"
        },
        {
          "internalType": "uint112",
          "name": "amount",
          "type": "uint112"
        },
        {
          "internalType": "uint32",
          "name": "duration",
          "type": "uint32"
        }
      ],
      "name": "estimateLoanDetailed",
      "outputs": [
        {
          "internalType": "uint112",
          "name": "interest",
          "type": "uint112"
        },
        {
          "internalType": "uint112",
          "name": "serviceFee",
          "type": "uint112"
        },
        {
          "internalType": "uint112",
          "name": "gcFee",
          "type": "uint112"
        }
      ],
      "stateMutability": "view",
      "type": "function"
    },
    {
      "inputs": [
        {
          "internalType": "address",
          "name": "from",
          "type": "address"
        },
        {
          "internalType": "address",
          "name": "to",
          "type": "address"
        },
        {
          "internalType": "uint256",
          "name": "amount",
          "type": "uint256"
        }
      ],
      "name": "forceTransfer",
      "outputs": [
        {
          "internalType": "bool",
          "name": "",
          "type": "bool"
        }
      ],
      "stateMutability": "nonpayable",
      "type": "function"
    },
    {
      "inputs": [],
      "name": "getAllowsPerpetual",
      "outputs": [
        {
          "internalType": "bool",
          "name": "",
          "type": "bool"
        }
      ],
      "stateMutability": "view",
      "type": "function"
    },
    {
      "inputs": [],
      "name": "getBaseRate",
      "outputs": [
        {
          "internalType": "uint112",
          "name": "",
          "type": "uint112"
        }
      ],
      "stateMutability": "view",
      "type": "function"
    },
    {
      "inputs": [],
      "name": "getBaseToken",
      "outputs": [
        {
          "internalType": "contract IERC20Metadata",
          "name": "",
          "type": "address"
        }
      ],
      "stateMutability": "view",
      "type": "function"
    },
    {
      "inputs": [],
      "name": "getEnterprise",
      "outputs": [
        {
          "internalType": "contract Enterprise",
          "name": "",
          "type": "address"
        }
      ],
      "stateMutability": "view",
      "type": "function"
    },
    {
      "inputs": [],
      "name": "getGapHalvingPeriod",
      "outputs": [
        {
          "internalType": "uint32",
          "name": "",
          "type": "uint32"
        }
      ],
      "stateMutability": "view",
      "type": "function"
    },
    {
      "inputs": [],
      "name": "getIndex",
      "outputs": [
        {
          "internalType": "uint16",
          "name": "",
          "type": "uint16"
        }
      ],
      "stateMutability": "view",
      "type": "function"
    },
    {
      "inputs": [],
      "name": "getInfo",
      "outputs": [
        {
          "internalType": "string",
          "name": "name",
          "type": "string"
        },
        {
          "internalType": "string",
          "name": "symbol",
          "type": "string"
        },
        {
          "internalType": "uint112",
          "name": "baseRate",
          "type": "uint112"
        },
        {
          "internalType": "uint96",
          "name": "minGCFee",
          "type": "uint96"
        },
        {
          "internalType": "uint32",
          "name": "gapHalvingPeriod",
          "type": "uint32"
        },
        {
          "internalType": "uint16",
          "name": "index",
          "type": "uint16"
        },
        {
          "internalType": "contract IERC20Metadata",
          "name": "baseToken",
          "type": "address"
        },
        {
          "internalType": "uint32",
          "name": "minLoanDuration",
          "type": "uint32"
        },
        {
          "internalType": "uint32",
          "name": "maxLoanDuration",
          "type": "uint32"
        },
        {
          "internalType": "uint16",
          "name": "serviceFeePercent",
          "type": "uint16"
        },
        {
          "internalType": "bool",
          "name": "allowsPerpetual",
          "type": "bool"
        }
      ],
      "stateMutability": "view",
      "type": "function"
    },
    {
      "inputs": [],
      "name": "getLambda",
      "outputs": [
        {
          "internalType": "uint256",
          "name": "",
          "type": "uint256"
        }
      ],
      "stateMutability": "view",
      "type": "function"
    },
    {
      "inputs": [],
      "name": "getMaxLoanDuration",
      "outputs": [
        {
          "internalType": "uint32",
          "name": "",
          "type": "uint32"
        }
      ],
      "stateMutability": "view",
      "type": "function"
    },
    {
      "inputs": [],
      "name": "getMinGCFee",
      "outputs": [
        {
          "internalType": "uint96",
          "name": "",
          "type": "uint96"
        }
      ],
      "stateMutability": "view",
      "type": "function"
    },
    {
      "inputs": [],
      "name": "getMinLoanDuration",
      "outputs": [
        {
          "internalType": "uint32",
          "name": "",
          "type": "uint32"
        }
      ],
      "stateMutability": "view",
      "type": "function"
    },
    {
      "inputs": [],
      "name": "getServiceFeePercent",
      "outputs": [
        {
          "internalType": "uint16",
          "name": "",
          "type": "uint16"
        }
      ],
      "stateMutability": "view",
      "type": "function"
    },
    {
      "inputs": [
        {
          "internalType": "address",
          "name": "account",
          "type": "address"
        }
      ],
      "name": "getState",
      "outputs": [
        {
          "components": [
            {
              "internalType": "uint112",
              "name": "lockedBalance",
              "type": "uint112"
            },
            {
              "internalType": "uint112",
              "name": "energy",
              "type": "uint112"
            },
            {
              "internalType": "uint32",
              "name": "timestamp",
              "type": "uint32"
            }
          ],
          "internalType": "struct PowerTokenStorage.State",
          "name": "",
          "type": "tuple"
        }
      ],
      "stateMutability": "view",
      "type": "function"
    },
    {
      "inputs": [
        {
          "internalType": "address",
          "name": "spender",
          "type": "address"
        },
        {
          "internalType": "uint256",
          "name": "addedValue",
          "type": "uint256"
        }
      ],
      "name": "increaseAllowance",
      "outputs": [
        {
          "internalType": "bool",
          "name": "",
          "type": "bool"
        }
      ],
      "stateMutability": "nonpayable",
      "type": "function"
    },
    {
      "inputs": [
        {
          "internalType": "string",
          "name": "name_",
          "type": "string"
        },
        {
          "internalType": "string",
          "name": "symbol_",
          "type": "string"
        },
        {
          "internalType": "uint8",
          "name": "decimals_",
          "type": "uint8"
        }
      ],
      "name": "initialize",
      "outputs": [],
      "stateMutability": "nonpayable",
      "type": "function"
    },
    {
      "inputs": [
        {
          "internalType": "contract Enterprise",
          "name": "enterprise",
          "type": "address"
        },
        {
          "internalType": "uint112",
          "name": "baseRate",
          "type": "uint112"
        },
        {
          "internalType": "uint96",
          "name": "minGCFee",
          "type": "uint96"
        },
        {
          "internalType": "uint32",
          "name": "gapHalvingPeriod",
          "type": "uint32"
        },
        {
          "internalType": "uint16",
          "name": "index",
          "type": "uint16"
        },
        {
          "internalType": "contract IERC20Metadata",
          "name": "baseToken",
          "type": "address"
        },
        {
          "internalType": "uint32",
          "name": "minLoanDuration",
          "type": "uint32"
        },
        {
          "internalType": "uint32",
          "name": "maxLoanDuration",
          "type": "uint32"
        },
        {
          "internalType": "uint16",
          "name": "serviceFeePercent",
          "type": "uint16"
        },
        {
          "internalType": "bool",
          "name": "allowsPerpetual",
          "type": "bool"
        }
      ],
      "name": "initialize",
      "outputs": [],
      "stateMutability": "nonpayable",
      "type": "function"
    },
    {
      "inputs": [
        {
          "internalType": "contract Enterprise",
          "name": "enterprise",
          "type": "address"
        }
      ],
      "name": "initialize",
      "outputs": [],
      "stateMutability": "nonpayable",
      "type": "function"
    },
    {
      "inputs": [
        {
          "internalType": "uint32",
          "name": "duration",
          "type": "uint32"
        }
      ],
      "name": "isAllowedLoanDuration",
      "outputs": [
        {
          "internalType": "bool",
          "name": "",
          "type": "bool"
        }
      ],
      "stateMutability": "view",
      "type": "function"
    },
    {
      "inputs": [
        {
          "internalType": "address",
          "name": "to",
          "type": "address"
        },
        {
          "internalType": "uint256",
          "name": "value",
          "type": "uint256"
        }
      ],
      "name": "mint",
      "outputs": [],
      "stateMutability": "nonpayable",
      "type": "function"
    },
    {
      "inputs": [],
      "name": "name",
      "outputs": [
        {
          "internalType": "string",
          "name": "",
          "type": "string"
        }
      ],
      "stateMutability": "view",
      "type": "function"
    },
    {
      "inputs": [
        {
          "internalType": "uint256",
          "name": "tokenId",
          "type": "uint256"
        }
      ],
      "name": "notifyNewLoan",
      "outputs": [],
      "stateMutability": "nonpayable",
      "type": "function"
    },
    {
      "inputs": [
        {
          "internalType": "uint112",
          "name": "baseRate",
          "type": "uint112"
        },
        {
          "internalType": "contract IERC20Metadata",
          "name": "baseToken",
          "type": "address"
        },
        {
          "internalType": "uint96",
          "name": "minGCFee",
          "type": "uint96"
        }
      ],
      "name": "setBaseRate",
      "outputs": [],
      "stateMutability": "nonpayable",
      "type": "function"
    },
    {
      "inputs": [
        {
          "internalType": "uint256",
          "name": "lambda",
          "type": "uint256"
        }
      ],
      "name": "setLambda",
      "outputs": [],
      "stateMutability": "nonpayable",
      "type": "function"
    },
    {
      "inputs": [
        {
          "internalType": "uint32",
          "name": "minLoanDuration",
          "type": "uint32"
        },
        {
          "internalType": "uint32",
          "name": "maxLoanDuration",
          "type": "uint32"
        }
      ],
      "name": "setLoanDurationLimits",
      "outputs": [],
      "stateMutability": "nonpayable",
      "type": "function"
    },
    {
      "inputs": [
        {
          "internalType": "uint16",
          "name": "newServiceFeePercent",
          "type": "uint16"
        }
      ],
      "name": "setServiceFeePercent",
      "outputs": [],
      "stateMutability": "nonpayable",
      "type": "function"
    },
    {
      "inputs": [],
      "name": "symbol",
      "outputs": [
        {
          "internalType": "string",
          "name": "",
          "type": "string"
        }
      ],
      "stateMutability": "view",
      "type": "function"
    },
    {
      "inputs": [],
      "name": "totalSupply",
      "outputs": [
        {
          "internalType": "uint256",
          "name": "",
          "type": "uint256"
        }
      ],
      "stateMutability": "view",
      "type": "function"
    },
    {
      "inputs": [
        {
          "internalType": "address",
          "name": "recipient",
          "type": "address"
        },
        {
          "internalType": "uint256",
          "name": "amount",
          "type": "uint256"
        }
      ],
      "name": "transfer",
      "outputs": [
        {
          "internalType": "bool",
          "name": "",
          "type": "bool"
        }
      ],
      "stateMutability": "nonpayable",
      "type": "function"
    },
    {
      "inputs": [
        {
          "internalType": "address",
          "name": "sender",
          "type": "address"
        },
        {
          "internalType": "address",
          "name": "recipient",
          "type": "address"
        },
        {
          "internalType": "uint256",
          "name": "amount",
          "type": "uint256"
        }
      ],
      "name": "transferFrom",
      "outputs": [
        {
          "internalType": "bool",
          "name": "",
          "type": "bool"
        }
      ],
      "stateMutability": "nonpayable",
      "type": "function"
    },
    {
      "inputs": [
        {
          "internalType": "uint256",
          "name": "amount",
          "type": "uint256"
        }
      ],
      "name": "unwrap",
      "outputs": [
        {
          "internalType": "bool",
          "name": "",
          "type": "bool"
        }
      ],
      "stateMutability": "nonpayable",
      "type": "function"
    },
    {
      "inputs": [
        {
          "internalType": "uint256",
          "name": "amount",
          "type": "uint256"
        }
      ],
      "name": "wrap",
      "outputs": [
        {
          "internalType": "bool",
          "name": "",
          "type": "bool"
        }
      ],
      "stateMutability": "nonpayable",
      "type": "function"
    },
    {
      "inputs": [
        {
          "internalType": "address",
          "name": "to",
          "type": "address"
        },
        {
          "internalType": "uint256",
          "name": "amount",
          "type": "uint256"
        }
      ],
      "name": "wrapTo",
      "outputs": [
        {
          "internalType": "bool",
          "name": "",
          "type": "bool"
        }
      ],
      "stateMutability": "nonpayable",
      "type": "function"
    }
  ],
  "bytecode": "0x608060405234801561001057600080fd5b5061369e806100206000396000f3fe608060405234801561001057600080fd5b50600436106102045760003560e01c806306fdde0314610209578063095ea7b3146102275780630aff9d191461024a5780630d148ab61461027557806313e7e63b1461028a57806314663701146102b05780631624f6c6146102d157806318160ddd146102e45780631bab58f5146102ec57806323b872dd1461039c57806325d998bb146103af57806327256486146103c25780632ef0cf8b146103ca578063313ce567146103dd57806333bebb77146103f2578063395093511461040557806340c10f191461041857806342bb702e1461042b5780635370028e146104405780635932f4ff1461046b5780635a9b0b89146104805780636dfbee1b1461049f5780636e4d8983146104c157806370a08231146104d4578063759c8be3146104e757806379cc6790146104fa57806381045ead1461050d578063927c9d871461052057806395d89b411461053257806398acd7a61461053a5780639d5513d7146105545780639f126fbe14610591578063a457c2d7146105a4578063a9059cbb146105b7578063b655d0c4146105ca578063c0434352146105db578063c1ea019e146105ee578063c4d66de8146105f6578063dd62ed3e14610609578063de0e9a3e14610642578063e298a2fd14610655578063ea598cb01461065d578063ed082fca14610670578063f8642f2914610683575b600080fd5b610211610694565b60405161021e919061324e565b60405180910390f35b61023a610235366004612e7a565b610726565b604051901515815260200161021e565b600154600160701b90046001600160601b03166040516001600160601b03909116815260200161021e565b610288610283366004613116565b61073d565b005b600254600160a01b900463ffffffff165b60405163ffffffff909116815260200161021e565b6102c36102be366004612fba565b610868565b60405190815260200161021e565b6102886102df366004613067565b6108ab565b6007546102c3565b6103666102fa366004612dca565b6040805160608082018352600080835260208084018290529284018190526001600160a01b03949094168452600482529282902082519384018352546001600160701b038082168552600160701b82041691840191909152600160e01b900463ffffffff169082015290565b6040805182516001600160701b039081168252602080850151909116908201529181015163ffffffff169082015260600161021e565b61023a6103aa366004612e3a565b610931565b6102c36103bd366004612dca565b6109c0565b6102886109f5565b6102886103d8366004612ef5565b610b0e565b600a5460405160ff909116815260200161021e565b61023a610400366004612e3a565b610d11565b61023a610413366004612e7a565b610d6e565b610288610426366004612e7a565b610da5565b600154600160d01b900463ffffffff1661029b565b61045361044e366004612ea5565b610dfa565b6040516001600160701b03909116815260200161021e565b600254600160c01b900463ffffffff1661029b565b610488610e60565b60405161021e9b9a99989796959493929190613261565b600254600160e01b900461ffff165b60405161ffff909116815260200161021e565b61023a6104cf3660046131a1565b610fdf565b6102c36104e2366004612dca565b611019565b6102886104f53660046130db565b611034565b610288610508366004612e7a565b61118d565b600154600160f01b900461ffff166104ae565b600254600160f01b900460ff1661023a565b6102116111de565b6002546001600160a01b03165b60405161021e919061323a565b610567610562366004612fba565b6111ed565b604080516001600160701b039485168152928416602084015292169181019190915260600161021e565b61023a61059f366004612e7a565b61120c565b61023a6105b2366004612e7a565b611218565b61023a6105c5366004612e7a565b611286565b6001546001600160701b0316610453565b6102886105e93660046131bb565b611295565b6003546102c3565b610288610604366004612dca565b6113dd565b6102c3610617366004612e02565b6001600160a01b03918216600090815260066020908152604080832093909416825291909152205490565b61023a61065036600461314e565b611484565b610547611527565b61023a61066b36600461314e565b611536565b61028861067e36600461314e565b611542565b61028861069136600461314e565b50565b6060600880546106a390613581565b80601f01602080910402602001604051908101604052809291908181526020018280546106cf90613581565b801561071c5780601f106106f15761010080835404028352916020019161071c565b820191906000526020600020905b8154815290600101906020018083116106ff57829003601f168201915b5050505050905090565b6000610733338484611606565b5060015b92915050565b60005460408051638da5cb5b60e01b8152905133926001600160a01b031691638da5cb5b916004808301926020929190829003018186803b15801561078157600080fd5b505afa158015610795573d6000803e3d6000fd5b505050506040513d601f19601f820116820180604052508101906107b99190612de6565b6001600160a01b031614604051806040016040528060018152602001603360f81b815250906108045760405162461bcd60e51b81526004016107fb919061324e565b60405180910390fd5b50604080518082019091526002815261363760f01b602082015261138861ffff831611156108455760405162461bcd60e51b81526004016107fb919061324e565b506002805461ffff909216600160e01b0261ffff60e01b19909216919091179055565b6000806000806108798787876116ea565b919450925090508061088b8385613365565b6108959190613365565b6001600160701b031693505050505b9392505050565b600880546108b890613581565b6040805180820190915260018152601960f91b60208201529150156108f05760405162461bcd60e51b81526004016107fb919061324e565b508251610904906008906020860190612c99565b508151610918906009906020850190612c99565b50600a805460ff191660ff929092169190911790555050565b60006109408484846000611999565b6001600160a01b03841660009081526006602090815260408083203384528252918290205482518084019093526002835261031360f41b9183019190915290838210156109a05760405162461bcd60e51b81526004016107fb919061324e565b506109b585336109b0868561353e565b611606565b506001949350505050565b6001600160a01b0381166000908152600460205260408120546001600160701b03166109eb83611019565b610737919061353e565b60005460408051638da5cb5b60e01b8152905133926001600160a01b031691638da5cb5b916004808301926020929190829003018186803b158015610a3957600080fd5b505afa158015610a4d573d6000803e3d6000fd5b505050506040513d601f19601f82011682018060405250810190610a719190612de6565b6001600160a01b031614604051806040016040528060018152602001603360f81b81525090610ab35760405162461bcd60e51b81526004016107fb919061324e565b50600280546040805180820190915291825261037360f41b6020830152600160f01b900460ff1615610af85760405162461bcd60e51b81526004016107fb919061324e565b506002805460ff60f01b1916600160f01b179055565b6001805460408051808201909152918252601960f91b6020830152600160d01b900463ffffffff1615610b545760405162461bcd60e51b81526004016107fb919061324e565b50604080518082019091526002815261343360f01b602082015263ffffffff8816610b925760405162461bcd60e51b81526004016107fb919061324e565b50604080518082019091526002815261363760f01b602082015261138861ffff84161115610bd35760405162461bcd60e51b81526004016107fb919061324e565b506002805460408051808201909152918252611a1960f11b602083015263ffffffff600160c01b82048116600160a01b909204161115610c265760405162461bcd60e51b81526004016107fb919061324e565b50610c308a6113dd565b600180546001600160701b039a909a166001600160d01b0319909a1699909917600160701b6001600160601b039990991698909802979097176001600160d01b0316600160d01b63ffffffff978816026001600160f01b031617600160f01b61ffff968716810291909117909855600280546001600160a01b03959095166001600160c01b031990951694909417600160a01b938716939093029290921765ffffffffffff60c01b1916600160c01b919095160261ffff60e01b191693909317600160e01b93909216929092021760ff60f01b191691151590920217905550565b600080546040805180820190915260018152600d60fa1b6020820152906001600160a01b03163314610d565760405162461bcd60e51b81526004016107fb919061324e565b50610d648484846001611999565b5060019392505050565b3360008181526006602090815260408083206001600160a01b038716845290915281205490916107339185906109b0908690613390565b6000546040805180820190915260018152600d60fa1b6020820152906001600160a01b03163314610de95760405162461bcd60e51b81526004016107fb919061324e565b50610df682826001611b09565b5050565b6001600160a01b0382166000908152600460209081526040808320815160608101835290546001600160701b038082168352600160701b82041693820193909352600160e01b90920463ffffffff1690820152610e58818585611bc7565b949350505050565b6060806000806000806000806000806000306001600160a01b03166306fdde036040518163ffffffff1660e01b815260040160006040518083038186803b158015610eaa57600080fd5b505afa158015610ebe573d6000803e3d6000fd5b505050506040513d6000823e601f3d908101601f19168201604052610ee69190810190612ffe565b306001600160a01b03166395d89b416040518163ffffffff1660e01b815260040160006040518083038186803b158015610f1f57600080fd5b505afa158015610f33573d6000803e3d6000fd5b505050506040513d6000823e601f3d908101601f19168201604052610f5b9190810190612ffe565b600154600254929e919d506001600160701b0381169c50600160701b81046001600160601b03169b50600160d01b810463ffffffff9081169b50600160f01b9182900461ffff9081169b506001600160a01b0385169a50600160a01b850482169950600160c01b85049091169750600160e01b840416955090910460ff1692509050565b60025460009063ffffffff808416600160a01b9092041611801590610737575050600254600160c01b900463ffffffff9081169116111590565b6001600160a01b031660009081526005602052604090205490565b60005460408051638da5cb5b60e01b8152905133926001600160a01b031691638da5cb5b916004808301926020929190829003018186803b15801561107857600080fd5b505afa15801561108c573d6000803e3d6000fd5b505050506040513d601f19601f820116820180604052508101906110b09190612de6565b6001600160a01b031614604051806040016040528060018152602001603360f81b815250906110f25760405162461bcd60e51b81526004016107fb919061324e565b5060028054604080518082019091529182526106c760f31b60208301526001600160a01b03166111355760405162461bcd60e51b81526004016107fb919061324e565b5060018054600280546001600160a01b039095166001600160a01b0319909516949094179093556001600160601b03909116600160701b026001600160d01b03199092166001600160701b0390931692909217179055565b6000546040805180820190915260018152600d60fa1b6020820152906001600160a01b031633146111d15760405162461bcd60e51b81526004016107fb919061324e565b50610df682826001611c55565b6060600980546106a390613581565b60008060006111fd8686866116ea565b92509250925093509350939050565b60006108a48383611d6e565b3360009081526006602090815260408083206001600160a01b038616845282528083205481518083019092526002825261313160f01b92820192909252838210156112765760405162461bcd60e51b81526004016107fb919061324e565b50610d6433856109b0868561353e565b60006107333384846000611999565b60005460408051638da5cb5b60e01b8152905133926001600160a01b031691638da5cb5b916004808301926020929190829003018186803b1580156112d957600080fd5b505afa1580156112ed573d6000803e3d6000fd5b505050506040513d601f19601f820116820180604052508101906113119190612de6565b6001600160a01b031614604051806040016040528060018152602001603360f81b815250906113535760405162461bcd60e51b81526004016107fb919061324e565b508063ffffffff168263ffffffff16111560405180604001604052806002815260200161363960f01b8152509061139d5760405162461bcd60e51b81526004016107fb919061324e565b5060028054600160a01b600160e01b031916600160a01b63ffffffff9485160263ffffffff60c01b191617600160c01b9290931691909102919091179055565b6000546040805180820190915260018152601960f91b6020820152906001600160a01b0316156114205760405162461bcd60e51b81526004016107fb919061324e565b50604080518082019091526002815261353960f01b60208201526001600160a01b0382166114615760405162461bcd60e51b81526004016107fb919061324e565b50600080546001600160a01b0319166001600160a01b0392909216919091179055565b600061149233836000611c55565b61151f338361149f611527565b6001600160a01b031663644e44df6040518163ffffffff1660e01b815260040160206040518083038186803b1580156114d757600080fd5b505afa1580156114eb573d6000803e3d6000fd5b505050506040513d601f19601f8201168201806040525081019061150f9190612de6565b6001600160a01b03169190611e5c565b506001919050565b6000546001600160a01b031690565b60006107373383611d6e565b60005460408051638da5cb5b60e01b8152905133926001600160a01b031691638da5cb5b916004808301926020929190829003018186803b15801561158657600080fd5b505afa15801561159a573d6000803e3d6000fd5b505050506040513d601f19601f820116820180604052508101906115be9190612de6565b6001600160a01b031614604051806040016040528060018152602001603360f81b815250906116005760405162461bcd60e51b81526004016107fb919061324e565b50600355565b604080518082019091526002815261062760f31b60208201526001600160a01b0384166116465760405162461bcd60e51b81526004016107fb919061324e565b50604080518082019091526002815261313960f01b60208201526001600160a01b0383166116875760405162461bcd60e51b81526004016107fb919061324e565b506001600160a01b0383811660008181526006602090815260408083209487168084529482529182902085905590518481527f8c5be1e5ebec7d5bd14f71427d1e84f3dd0314c0f7b2291e5b200ac8c7c3b92591015b60405180910390a3505050565b60008060006116f7611527565b6001600160a01b0316632fb2067f876040518263ffffffff1660e01b8152600401611722919061323a565b60206040518083038186803b15801561173a57600080fd5b505afa15801561174e573d6000803e3d6000fd5b505050506040513d601f19601f820116820180604052508101906117729190612ed9565b604051806040016040528060028152602001610d0d60f21b815250906117ab5760405162461bcd60e51b81526004016107fb919061324e565b506117b584610fdf565b60405180604001604052806002815260200161343560f01b815250906117ee5760405162461bcd60e51b81526004016107fb919061324e565b5060006117fb8686611ec4565b6002549091506000906127109061182690600160e01b900461ffff166001600160701b0385166134b6565b61183091906133a8565b9050600061183c611527565b6001600160a01b0316632261b07f6040518163ffffffff1660e01b815260040160206040518083038186803b15801561187457600080fd5b505afa158015611888573d6000803e3d6000fd5b505050506040513d601f19601f820116820180604052508101906118ac9190612de6565b6002546040516314fdc96760e11b81526001600160a01b0391821660048201526001600160701b03861660248201528b821660448201529116906329fb92ce9060640160206040518083038186803b15801561190757600080fd5b505afa15801561191b573d6000803e3d6000fd5b505050506040513d601f19601f8201168201806040525081019061193f9190613166565b9050826001600160701b031681836001600160701b031661196091906134b6565b61196a91906133a8565b945061197f6001600160701b0386168261353e565b955061198b8989612226565b935050505093509350939050565b604080518082019091526002815261189960f11b60208201526001600160a01b0385166119d95760405162461bcd60e51b81526004016107fb919061324e565b50604080518082019091526002815261313360f01b60208201526001600160a01b038416611a1a5760405162461bcd60e51b81526004016107fb919061324e565b50611a278484848461240a565b6001600160a01b03841660009081526005602090815260409182902054825180840190935260028352610c4d60f21b918301919091529083821015611a7f5760405162461bcd60e51b81526004016107fb919061324e565b50611a8a838261353e565b6001600160a01b038087166000908152600560205260408082209390935590861681529081208054859290611ac0908490613390565b92505081905550836001600160a01b0316856001600160a01b031660008051602061364983398151915285604051611afa91815260200190565b60405180910390a35050505050565b604080518082019091526002815261313560f01b60208201526001600160a01b038416611b495760405162461bcd60e51b81526004016107fb919061324e565b50611b57600084848461240a565b8160076000828254611b699190613390565b90915550506001600160a01b03831660009081526005602052604081208054849290611b96908490613390565b90915550506040518281526001600160a01b03841690600090600080516020613649833981519152906020016116dd565b600080611bd384611019565b905084602001516001600160701b0316816001600160701b03161115611c3357611c218560400151866020015183611c0b9190613516565b600154600160d01b900463ffffffff16866126ad565b611c2b9082613516565b9150506108a4565b611c4b8560400151828760200151611c0b9190613516565b611c2b9082613365565b604080518082019091526002815261189b60f11b60208201526001600160a01b038416611c955760405162461bcd60e51b81526004016107fb919061324e565b50611ca3836000848461240a565b6001600160a01b0383166000908152600560209081526040918290205482518084019093526002835261313760f01b918301919091529083821015611cfb5760405162461bcd60e51b81526004016107fb919061324e565b50611d06838261353e565b6001600160a01b03851660009081526005602052604081209190915560078054859290611d3490849061353e565b90915550506040518381526000906001600160a01b038616906000805160206136498339815191529060200160405180910390a350505050565b60006002601e9054906101000a900460ff161515600115151460405180604001604052806002815260200161353160f01b81525090611dc05760405162461bcd60e51b81526004016107fb919061324e565b50611e50333084611dcf611527565b6001600160a01b031663644e44df6040518163ffffffff1660e01b815260040160206040518083038186803b158015611e0757600080fd5b505afa158015611e1b573d6000803e3d6000fd5b505050506040513d601f19601f82011682018060405250810190611e3f9190612de6565b6001600160a01b031692919061284e565b61073383836000611b09565b6040516001600160a01b038316602482015260448101829052611ebf90849063a9059cbb60e01b906064015b60408051601f198184030181529190526020810180516001600160e01b03166001600160e01b03199093169290921790915261288c565b505050565b600080611ecf611527565b6001600160a01b031663aebb50416040518163ffffffff1660e01b815260040160206040518083038186803b158015611f0757600080fd5b505afa158015611f1b573d6000803e3d6000fd5b505050506040513d601f19601f82011682018060405250810190611f3f9190613166565b9050836001600160701b03168111611f61576001600160701b03915050610737565b6002546040805163313ce56760e01b815290516000926001600160a01b03169163313ce567916004808301926020929190829003018186803b158015611fa657600080fd5b505afa158015611fba573d6000803e3d6000fd5b505050506040513d601f19601f82011682018060405250810190611fde91906131d6565b611fe6611527565b6001600160a01b031663644e44df6040518163ffffffff1660e01b815260040160206040518083038186803b15801561201e57600080fd5b505afa158015612032573d6000803e3d6000fd5b505050506040513d601f19601f820116820180604052508101906120569190612de6565b6001600160a01b031663313ce5676040518163ffffffff1660e01b815260040160206040518083038186803b15801561208e57600080fd5b505afa1580156120a2573d6000803e3d6000fd5b505050506040513d601f19601f820116820180604052508101906120c691906131d6565b6120d091906134d5565b90506000806120dd611527565b6001600160a01b031663faac38ef6040518163ffffffff1660e01b8152600401604080518083038186803b15801561211457600080fd5b505afa158015612128573d6000803e3d6000fd5b505050506040513d601f19601f8201168201806040525081019061214c919061317e565b9150915060008663ffffffff1661216d896001600160701b0316858561295e565b61217791906134b6565b905060008460000b13156121bb57604061219285600a61340b565b6001546121a8906001600160701b0316846134b6565b6121b291906133a8565b901c905061221b565b60008460000b12156121fd5760406121d2856135bc565b6121dd90600a61340b565b6001546121f3906001600160701b0316846134b6565b6121b291906134b6565b600154604090612216906001600160701b0316836134b6565b901c90505b979650505050505050565b600080612710612234611527565b6001600160a01b031663b406bf6d6040518163ffffffff1660e01b815260040160206040518083038186803b15801561226c57600080fd5b505afa158015612280573d6000803e3d6000fd5b505050506040513d601f19601f820116820180604052508101906122a49190613132565b6122bb9061ffff166001600160701b0386166134b6565b6122c591906133a8565b905060006122d1611527565b6001600160a01b0316632261b07f6040518163ffffffff1660e01b815260040160206040518083038186803b15801561230957600080fd5b505afa15801561231d573d6000803e3d6000fd5b505050506040513d601f19601f820116820180604052508101906123419190612de6565b6002546001546040516314fdc96760e11b81526001600160a01b039283166004820152600160701b9091046001600160601b0316602482015287821660448201529116906329fb92ce9060640160206040518083038186803b1580156123a657600080fd5b505afa1580156123ba573d6000803e3d6000fd5b505050506040513d601f19601f820116820180604052508101906123de9190613166565b9050806001600160701b0316826001600160701b0316106123ff5781612401565b805b95945050505050565b426001600160a01b03851615612588576001600160a01b038516600090815260046020908152604091829020825160608101845290546001600160701b038082168352600160701b82041692820192909252600160e01b90910463ffffffff169181019190915261247c818784611bc7565b6001600160701b0316602082015263ffffffff82166040820152826124fb5780516001600160701b0316846124b088611019565b6124ba919061353e565b1015604051806040016040528060028152602001610dcd60f21b815250906124f55760405162461bcd60e51b81526004016107fb919061324e565b5061251a565b838160000181815161250d9190613516565b6001600160701b03169052505b6001600160a01b0386166000908152600460209081526040918290208351815492850151939094015163ffffffff16600160e01b026001600160e01b036001600160701b03948516600160701b026001600160e01b0319909416949095169390931791909117929092161790555b6001600160a01b038416156126a6576001600160a01b038416600090815260046020908152604091829020825160608101845290546001600160701b038082168352600160701b82041692820192909252600160e01b90910463ffffffff16918101919091526125f9818684611bc7565b6001600160701b0316602082015263ffffffff82166040820152821561263857838160000181815161262b9190613365565b6001600160701b03169052505b6001600160a01b0385166000908152600460209081526040918290208351815492850151939094015163ffffffff16600160e01b026001600160e01b036001600160701b03948516600160701b026001600160e01b0319909416949095169390931791909117929092161790555b5050505050565b60008463ffffffff168263ffffffff161015604051806040016040528060018152602001600760fb1b815250906126f75760405162461bcd60e51b81526004016107fb919061324e565b5084820391508263ffffffff168263ffffffff168161272657634e487b7160e01b600052601260045260246000fd5b0463ffffffff16846001600160701b0316901c93508263ffffffff168263ffffffff168161276457634e487b7160e01b600052601260045260246000fd5b06915063ffffffff8216158061278157506001600160701b038416155b1561278d575082610e58565b60006001600160701b0385168163ffffffff86811690861671b17217f7d1cf79abc9e3b39803f2f6af40f302816127d457634e487b7160e01b600052601260045260246000fd5b049050600160901b5b82156128415792820192808284028161280657634e487b7160e01b600052601260045260246000fd5b0493849003939250600160901b01808284028161283357634e487b7160e01b600052601260045260246000fd5b049250600160901b016127dd565b5091979650505050505050565b6040516001600160a01b03808516602483015283166044820152606481018290526128869085906323b872dd60e01b90608401611e88565b50505050565b60006128e1826040518060400160405280602081526020017f5361666545524332303a206c6f772d6c6576656c2063616c6c206661696c6564815250856001600160a01b0316612a959092919063ffffffff16565b805190915015611ebf57808060200190518101906128ff9190612ed9565b611ebf5760405162461bcd60e51b815260206004820152602a60248201527f5361666545524332303a204552433230206f7065726174696f6e20646964206e6044820152691bdd081cdd58d8d9595960b21b60648201526084016107fb565b600080612969611527565b6001600160a01b031663fcb2884e6040518163ffffffff1660e01b815260040160206040518083038186803b1580156129a157600080fd5b505afa1580156129b5573d6000803e3d6000fd5b505050506040513d601f19601f820116820180604052508101906129d99190613166565b905060006129e5611527565b6001600160a01b03166359bf5d396040518163ffffffff1660e01b815260040160206040518083038186803b158015612a1d57600080fd5b505afa158015612a31573d6000803e3d6000fd5b505050506040513d601f19601f82011682018060405250810190612a559190613166565b9050612a6382868684612aa4565b612a81612a796001600160801b03891685613390565b878785612aa4565b612a8b919061353e565b9695505050505050565b6060610e588484600085612ae7565b60006040612ad28382612ab7898361353e565b612ac292911b6133a8565b6001600160801b03168686612c04565b612adc90876134b6565b901c95945050505050565b606082471015612b485760405162461bcd60e51b815260206004820152602660248201527f416464726573733a20696e73756666696369656e742062616c616e636520666f6044820152651c8818d85b1b60d21b60648201526084016107fb565b843b612b965760405162461bcd60e51b815260206004820152601d60248201527f416464726573733a2063616c6c20746f206e6f6e2d636f6e747261637400000060448201526064016107fb565b600080866001600160a01b03168587604051612bb2919061321e565b60006040518083038185875af1925050503d8060008114612bef576040519150601f19603f3d011682016040523d82523d6000602084013e612bf4565b606091505b509150915061221b828286612c60565b6000828411612c1b57506001600160801b036108a4565b612c2982600160401b61353e565b612c33848661353e565b83612c4286600160401b61353e565b612c4c91906134b6565b612c5691906133a8565b610e589190613390565b60608315612c6f5750816108a4565b825115612c7f5782518084602001fd5b8160405162461bcd60e51b81526004016107fb919061324e565b828054612ca590613581565b90600052602060002090601f016020900481019282612cc75760008555612d0d565b82601f10612ce057805160ff1916838001178555612d0d565b82800160010185558215612d0d579182015b82811115612d0d578251825591602001919060010190612cf2565b50612d19929150612d1d565b5090565b5b80821115612d195760008155600101612d1e565b600082601f830112612d42578081fd5b8135612d55612d508261333e565b61330e565b818152846020838601011115612d69578283fd5b816020850160208301379081016020019190915292915050565b80356001600160701b0381168114612d9a57600080fd5b919050565b803563ffffffff81168114612d9a57600080fd5b80356001600160601b0381168114612d9a57600080fd5b600060208284031215612ddb578081fd5b81356108a481613606565b600060208284031215612df7578081fd5b81516108a481613606565b60008060408385031215612e14578081fd5b8235612e1f81613606565b91506020830135612e2f81613606565b809150509250929050565b600080600060608486031215612e4e578081fd5b8335612e5981613606565b92506020840135612e6981613606565b929592945050506040919091013590565b60008060408385031215612e8c578182fd5b8235612e9781613606565b946020939093013593505050565b60008060408385031215612eb7578182fd5b8235612ec281613606565b9150612ed060208401612d9f565b90509250929050565b600060208284031215612eea578081fd5b81516108a48161361b565b6000806000806000806000806000806101408b8d031215612f14578788fd5b8a35612f1f81613606565b9950612f2d60208c01612d83565b9850612f3b60408c01612db3565b9750612f4960608c01612d9f565b965060808b0135612f5981613629565b955060a08b0135612f6981613606565b9450612f7760c08c01612d9f565b9350612f8560e08c01612d9f565b92506101008b0135612f9681613629565b91506101208b0135612fa78161361b565b809150509295989b9194979a5092959850565b600080600060608486031215612fce578081fd5b8335612fd981613606565b9250612fe760208501612d83565b9150612ff560408501612d9f565b90509250925092565b60006020828403121561300f578081fd5b81516001600160401b03811115613024578182fd5b8201601f81018413613034578182fd5b8051613042612d508261333e565b818152856020838501011115613056578384fd5b612401826020830160208601613555565b60008060006060848603121561307b578081fd5b83356001600160401b0380821115613091578283fd5b61309d87838801612d32565b945060208601359150808211156130b2578283fd5b506130bf86828701612d32565b92505060408401356130d081613639565b809150509250925092565b6000806000606084860312156130ef578081fd5b6130f884612d83565b9250602084013561310881613606565b9150612ff560408501612db3565b600060208284031215613127578081fd5b81356108a481613629565b600060208284031215613143578081fd5b81516108a481613629565b60006020828403121561315f578081fd5b5035919050565b600060208284031215613177578081fd5b5051919050565b60008060408385031215613190578182fd5b505080516020909101519092909150565b6000602082840312156131b2578081fd5b6108a482612d9f565b600080604083850312156131cd578182fd5b612ec283612d9f565b6000602082840312156131e7578081fd5b81516108a481613639565b6000815180845261320a816020860160208601613555565b601f01601f19169290920160200192915050565b60008251613230818460208701613555565b9190910192915050565b6001600160a01b0391909116815260200190565b6020815260006108a460208301846131f2565b60006101608083526132758184018f6131f2565b90508281036020840152613289818e6131f2565b6001600160701b038d1660408501526001600160601b038c16606085015263ffffffff8b8116608086015261ffff8b1660a08601526001600160a01b038a1660c0860152881660e085015291506132dd9050565b63ffffffff851661010083015261ffff84166101208301528215156101408301529c9b505050505050505050505050565b604051601f8201601f191681016001600160401b0381118282101715613336576133366135f0565b604052919050565b60006001600160401b03821115613357576133576135f0565b50601f01601f191660200190565b60006001600160701b03828116848216808303821115613387576133876135da565b01949350505050565b600082198211156133a3576133a36135da565b500190565b6000826133c357634e487b7160e01b81526012600452602481fd5b500490565b600181815b808511156134035781600019048211156133e9576133e96135da565b808516156133f657918102915b93841c93908002906133cd565b509250929050565b60006108a460ff84168360008261342457506001610737565b8161343157506000610737565b816001811461344757600281146134515761346d565b6001915050610737565b60ff841115613462576134626135da565b50506001821b610737565b5060208310610133831016604e8410600b8410161715613490575081810a610737565b61349a83836133c8565b80600019048211156134ae576134ae6135da565b029392505050565b60008160001904831182151516156134d0576134d06135da565b500290565b600081810b83820b8281128015607f198301841216156134f7576134f76135da565b81607f01831381161561350c5761350c6135da565b5090039392505050565b60006001600160701b0383811690831681811015613536576135366135da565b039392505050565b600082821015613550576135506135da565b500390565b60005b83811015613570578181015183820152602001613558565b838111156128865750506000910152565b600181811c9082168061359557607f821691505b602082108114156135b657634e487b7160e01b600052602260045260246000fd5b50919050565b600081810b607f198114156135d3576135d36135da565b9003919050565b634e487b7160e01b600052601160045260246000fd5b634e487b7160e01b600052604160045260246000fd5b6001600160a01b038116811461069157600080fd5b801515811461069157600080fd5b61ffff8116811461069157600080fd5b60ff8116811461069157600080fdfeddf252ad1be2c89b69c2b068fc378daa952ba7f163c4a11628f55a4df523b3efa2646970667358221220dac2ce36a3fd5f5cdbea038eeb0bedcd91124c6660871547e72ff08bf851948164736f6c63430008040033",
  "linkReferences": {},
  "deployedLinkReferences": {}
}