{
  "_format": "hh-sol-artifact-1",
  "contractName": "PowerToken",
  "sourceName": "contracts/PowerToken.sol",
  "abi": [
    {
      "anonymous": false,
      "inputs": [
        {
          "indexed": true,
          "internalType": "address",
          "name": "owner",
          "type": "address"
        },
        {
          "indexed": true,
          "internalType": "address",
          "name": "spender",
          "type": "address"
        },
        {
          "indexed": false,
          "internalType": "uint256",
          "name": "value",
          "type": "uint256"
        }
      ],
      "name": "Approval",
      "type": "event"
    },
    {
      "anonymous": false,
      "inputs": [
        {
          "indexed": false,
          "internalType": "uint112",
          "name": "baseRate",
          "type": "uint112"
        },
        {
          "indexed": false,
          "internalType": "address",
          "name": "baseToken",
          "type": "address"
        },
        {
          "indexed": false,
          "internalType": "uint96",
          "name": "minGCFee",
          "type": "uint96"
        }
      ],
      "name": "BaseRateChanged",
      "type": "event"
    },
    {
      "anonymous": false,
      "inputs": [
        {
          "indexed": false,
          "internalType": "uint32",
          "name": "minDuration",
          "type": "uint32"
        },
        {
          "indexed": false,
          "internalType": "uint32",
          "name": "maxDuration",
          "type": "uint32"
        }
      ],
      "name": "LoanDurationLimitsChanged",
      "type": "event"
    },
    {
      "anonymous": false,
      "inputs": [],
      "name": "PerpetualAllowed",
      "type": "event"
    },
    {
      "anonymous": false,
      "inputs": [
        {
          "indexed": false,
          "internalType": "uint16",
          "name": "percent",
          "type": "uint16"
        }
      ],
      "name": "ServiceFeePercentChanged",
      "type": "event"
    },
    {
      "anonymous": false,
      "inputs": [
        {
          "indexed": true,
          "internalType": "address",
          "name": "from",
          "type": "address"
        },
        {
          "indexed": true,
          "internalType": "address",
          "name": "to",
          "type": "address"
        },
        {
          "indexed": false,
          "internalType": "uint256",
          "name": "value",
          "type": "uint256"
        }
      ],
      "name": "Transfer",
      "type": "event"
    },
    {
      "anonymous": false,
      "inputs": [],
      "name": "TransfersAllowed",
      "type": "event"
    },
    {
      "inputs": [],
      "name": "allowPerpetualForever",
      "outputs": [],
      "stateMutability": "nonpayable",
      "type": "function"
    },
    {
      "inputs": [],
      "name": "allowTransferForever",
      "outputs": [],
      "stateMutability": "nonpayable",
      "type": "function"
    },
    {
      "inputs": [
        {
          "internalType": "address",
          "name": "owner",
          "type": "address"
        },
        {
          "internalType": "address",
          "name": "spender",
          "type": "address"
        }
      ],
      "name": "allowance",
      "outputs": [
        {
          "internalType": "uint256",
          "name": "",
          "type": "uint256"
        }
      ],
      "stateMutability": "view",
      "type": "function"
    },
    {
      "inputs": [
        {
          "internalType": "address",
          "name": "spender",
          "type": "address"
        },
        {
          "internalType": "uint256",
          "name": "amount",
          "type": "uint256"
        }
      ],
      "name": "approve",
      "outputs": [
        {
          "internalType": "bool",
          "name": "",
          "type": "bool"
        }
      ],
      "stateMutability": "nonpayable",
      "type": "function"
    },
    {
      "inputs": [
        {
          "internalType": "address",
          "name": "account",
          "type": "address"
        }
      ],
      "name": "availableBalanceOf",
      "outputs": [
        {
          "internalType": "uint256",
          "name": "",
          "type": "uint256"
        }
      ],
      "stateMutability": "view",
      "type": "function"
    },
    {
      "inputs": [
        {
          "internalType": "address",
          "name": "account",
          "type": "address"
        }
      ],
      "name": "balanceOf",
      "outputs": [
        {
          "internalType": "uint256",
          "name": "",
          "type": "uint256"
        }
      ],
      "stateMutability": "view",
      "type": "function"
    },
    {
      "inputs": [
        {
          "internalType": "address",
          "name": "account",
          "type": "address"
        },
        {
          "internalType": "uint256",
          "name": "value",
          "type": "uint256"
        }
      ],
      "name": "burnFrom",
      "outputs": [],
      "stateMutability": "nonpayable",
      "type": "function"
    },
    {
      "inputs": [],
      "name": "decimals",
      "outputs": [
        {
          "internalType": "uint8",
          "name": "",
          "type": "uint8"
        }
      ],
      "stateMutability": "view",
      "type": "function"
    },
    {
      "inputs": [
        {
          "internalType": "address",
          "name": "spender",
          "type": "address"
        },
        {
          "internalType": "uint256",
          "name": "subtractedValue",
          "type": "uint256"
        }
      ],
      "name": "decreaseAllowance",
      "outputs": [
        {
          "internalType": "bool",
          "name": "",
          "type": "bool"
        }
      ],
      "stateMutability": "nonpayable",
      "type": "function"
    },
    {
      "inputs": [
        {
          "internalType": "address",
          "name": "who",
          "type": "address"
        },
        {
          "internalType": "uint32",
          "name": "timestamp",
          "type": "uint32"
        }
      ],
      "name": "energyAt",
      "outputs": [
        {
          "internalType": "uint112",
          "name": "",
          "type": "uint112"
        }
      ],
      "stateMutability": "view",
      "type": "function"
    },
    {
      "inputs": [
        {
          "internalType": "contract IERC20",
          "name": "paymentToken",
          "type": "address"
        },
        {
          "internalType": "uint112",
          "name": "amount",
          "type": "uint112"
        },
        {
          "internalType": "uint32",
          "name": "duration",
          "type": "uint32"
        }
      ],
      "name": "estimateLoan",
      "outputs": [
        {
          "internalType": "uint256",
          "name": "",
          "type": "uint256"
        }
      ],
      "stateMutability": "view",
      "type": "function"
    },
    {
      "inputs": [
        {
          "internalType": "contract IERC20",
          "name": "paymentToken",
          "type": "address"
        },
        {
          "internalType": "uint112",
          "name": "amount",
          "type": "uint112"
        },
        {
          "internalType": "uint32",
          "name": "duration",
          "type": "uint32"
        }
      ],
      "name": "estimateLoanDetailed",
      "outputs": [
        {
          "internalType": "uint112",
          "name": "interest",
          "type": "uint112"
        },
        {
          "internalType": "uint112",
          "name": "serviceFee",
          "type": "uint112"
        },
        {
          "internalType": "uint112",
          "name": "gcFee",
          "type": "uint112"
        }
      ],
      "stateMutability": "view",
      "type": "function"
    },
    {
      "inputs": [
        {
          "internalType": "address",
          "name": "from",
          "type": "address"
        },
        {
          "internalType": "address",
          "name": "to",
          "type": "address"
        },
        {
          "internalType": "uint256",
          "name": "amount",
          "type": "uint256"
        }
      ],
      "name": "forceTransfer",
      "outputs": [
        {
          "internalType": "bool",
          "name": "",
          "type": "bool"
        }
      ],
      "stateMutability": "nonpayable",
      "type": "function"
    },
    {
      "inputs": [],
      "name": "getAllowsPerpetual",
      "outputs": [
        {
          "internalType": "bool",
          "name": "",
          "type": "bool"
        }
      ],
      "stateMutability": "view",
      "type": "function"
    },
    {
      "inputs": [],
      "name": "getBaseRate",
      "outputs": [
        {
          "internalType": "uint112",
          "name": "",
          "type": "uint112"
        }
      ],
      "stateMutability": "view",
      "type": "function"
    },
    {
      "inputs": [],
      "name": "getBaseToken",
      "outputs": [
        {
          "internalType": "contract IERC20Metadata",
          "name": "",
          "type": "address"
        }
      ],
      "stateMutability": "view",
      "type": "function"
    },
    {
      "inputs": [],
      "name": "getEnterprise",
      "outputs": [
        {
          "internalType": "contract Enterprise",
          "name": "",
          "type": "address"
        }
      ],
      "stateMutability": "view",
      "type": "function"
    },
    {
      "inputs": [],
      "name": "getGapHalvingPeriod",
      "outputs": [
        {
          "internalType": "uint32",
          "name": "",
          "type": "uint32"
        }
      ],
      "stateMutability": "view",
      "type": "function"
    },
    {
      "inputs": [],
      "name": "getIndex",
      "outputs": [
        {
          "internalType": "uint16",
          "name": "",
          "type": "uint16"
        }
      ],
      "stateMutability": "view",
      "type": "function"
    },
    {
      "inputs": [],
      "name": "getInfo",
      "outputs": [
        {
          "internalType": "string",
          "name": "name",
          "type": "string"
        },
        {
          "internalType": "string",
          "name": "symbol",
          "type": "string"
        },
        {
          "internalType": "uint112",
          "name": "baseRate",
          "type": "uint112"
        },
        {
          "internalType": "uint96",
          "name": "minGCFee",
          "type": "uint96"
        },
        {
          "internalType": "uint32",
          "name": "gapHalvingPeriod",
          "type": "uint32"
        },
        {
          "internalType": "uint16",
          "name": "index",
          "type": "uint16"
        },
        {
          "internalType": "contract IERC20Metadata",
          "name": "baseToken",
          "type": "address"
        },
        {
          "internalType": "uint32",
          "name": "minLoanDuration",
          "type": "uint32"
        },
        {
          "internalType": "uint32",
          "name": "maxLoanDuration",
          "type": "uint32"
        },
        {
          "internalType": "uint16",
          "name": "serviceFeePercent",
          "type": "uint16"
        },
        {
          "internalType": "bool",
          "name": "allowsPerpetual",
          "type": "bool"
        }
      ],
      "stateMutability": "view",
      "type": "function"
    },
    {
      "inputs": [],
      "name": "getMaxLoanDuration",
      "outputs": [
        {
          "internalType": "uint32",
          "name": "",
          "type": "uint32"
        }
      ],
      "stateMutability": "view",
      "type": "function"
    },
    {
      "inputs": [],
      "name": "getMinGCFee",
      "outputs": [
        {
          "internalType": "uint96",
          "name": "",
          "type": "uint96"
        }
      ],
      "stateMutability": "view",
      "type": "function"
    },
    {
      "inputs": [],
      "name": "getMinLoanDuration",
      "outputs": [
        {
          "internalType": "uint32",
          "name": "",
          "type": "uint32"
        }
      ],
      "stateMutability": "view",
      "type": "function"
    },
    {
      "inputs": [],
      "name": "getServiceFeePercent",
      "outputs": [
        {
          "internalType": "uint16",
          "name": "",
          "type": "uint16"
        }
      ],
      "stateMutability": "view",
      "type": "function"
    },
    {
      "inputs": [
        {
          "internalType": "address",
          "name": "account",
          "type": "address"
        }
      ],
      "name": "getState",
      "outputs": [
        {
          "components": [
            {
              "internalType": "uint112",
              "name": "lockedBalance",
              "type": "uint112"
            },
            {
              "internalType": "uint112",
              "name": "energy",
              "type": "uint112"
            },
            {
              "internalType": "uint32",
              "name": "timestamp",
              "type": "uint32"
            }
          ],
          "internalType": "struct PowerTokenStorage.State",
          "name": "",
          "type": "tuple"
        }
      ],
      "stateMutability": "view",
      "type": "function"
    },
    {
      "inputs": [
        {
          "internalType": "address",
          "name": "spender",
          "type": "address"
        },
        {
          "internalType": "uint256",
          "name": "addedValue",
          "type": "uint256"
        }
      ],
      "name": "increaseAllowance",
      "outputs": [
        {
          "internalType": "bool",
          "name": "",
          "type": "bool"
        }
      ],
      "stateMutability": "nonpayable",
      "type": "function"
    },
    {
      "inputs": [
        {
          "internalType": "string",
          "name": "name_",
          "type": "string"
        },
        {
          "internalType": "string",
          "name": "symbol_",
          "type": "string"
        },
        {
          "internalType": "uint8",
          "name": "decimals_",
          "type": "uint8"
        }
      ],
      "name": "initialize",
      "outputs": [],
      "stateMutability": "nonpayable",
      "type": "function"
    },
    {
      "inputs": [
        {
          "internalType": "contract Enterprise",
          "name": "enterprise",
          "type": "address"
        },
        {
          "internalType": "uint112",
          "name": "baseRate",
          "type": "uint112"
        },
        {
          "internalType": "uint96",
          "name": "minGCFee",
          "type": "uint96"
        },
        {
          "internalType": "uint32",
          "name": "gapHalvingPeriod",
          "type": "uint32"
        },
        {
          "internalType": "uint16",
          "name": "index",
          "type": "uint16"
        },
        {
          "internalType": "contract IERC20Metadata",
          "name": "baseToken",
          "type": "address"
        }
      ],
      "name": "initialize",
      "outputs": [],
      "stateMutability": "nonpayable",
      "type": "function"
    },
    {
      "inputs": [
        {
          "internalType": "contract Enterprise",
          "name": "enterprise",
          "type": "address"
        }
      ],
      "name": "initialize",
      "outputs": [],
      "stateMutability": "nonpayable",
      "type": "function"
    },
    {
      "inputs": [
        {
          "internalType": "uint32",
          "name": "minLoanDuration",
          "type": "uint32"
        },
        {
          "internalType": "uint32",
          "name": "maxLoanDuration",
          "type": "uint32"
        },
        {
          "internalType": "uint16",
          "name": "serviceFeePercent",
          "type": "uint16"
        },
        {
          "internalType": "bool",
          "name": "allowsPerpetual",
          "type": "bool"
        },
        {
          "internalType": "bool",
          "name": "allowsTransfer",
          "type": "bool"
        }
      ],
      "name": "initialize2",
      "outputs": [],
      "stateMutability": "nonpayable",
      "type": "function"
    },
    {
      "inputs": [
        {
          "internalType": "uint32",
          "name": "duration",
          "type": "uint32"
        }
      ],
      "name": "isAllowedLoanDuration",
      "outputs": [
        {
          "internalType": "bool",
          "name": "",
          "type": "bool"
        }
      ],
      "stateMutability": "view",
      "type": "function"
    },
    {
      "inputs": [
        {
          "internalType": "address",
          "name": "to",
          "type": "address"
        },
        {
          "internalType": "uint256",
          "name": "value",
          "type": "uint256"
        }
      ],
      "name": "mint",
      "outputs": [],
      "stateMutability": "nonpayable",
      "type": "function"
    },
    {
      "inputs": [],
      "name": "name",
      "outputs": [
        {
          "internalType": "string",
          "name": "",
          "type": "string"
        }
      ],
      "stateMutability": "view",
      "type": "function"
    },
    {
      "inputs": [
        {
          "internalType": "uint256",
          "name": "borrowTokenId",
          "type": "uint256"
        }
      ],
      "name": "notifyNewLoan",
      "outputs": [],
      "stateMutability": "nonpayable",
      "type": "function"
    },
    {
      "inputs": [
        {
          "internalType": "uint112",
          "name": "baseRate",
          "type": "uint112"
        },
        {
          "internalType": "contract IERC20Metadata",
          "name": "baseToken",
          "type": "address"
        },
        {
          "internalType": "uint96",
          "name": "minGCFee",
          "type": "uint96"
        }
      ],
      "name": "setBaseRate",
      "outputs": [],
      "stateMutability": "nonpayable",
      "type": "function"
    },
    {
      "inputs": [
        {
          "internalType": "uint32",
          "name": "minLoanDuration",
          "type": "uint32"
        },
        {
          "internalType": "uint32",
          "name": "maxLoanDuration",
          "type": "uint32"
        }
      ],
      "name": "setLoanDurationLimits",
      "outputs": [],
      "stateMutability": "nonpayable",
      "type": "function"
    },
    {
      "inputs": [
        {
          "internalType": "uint16",
          "name": "newServiceFeePercent",
          "type": "uint16"
        }
      ],
      "name": "setServiceFeePercent",
      "outputs": [],
      "stateMutability": "nonpayable",
      "type": "function"
    },
    {
      "inputs": [],
      "name": "symbol",
      "outputs": [
        {
          "internalType": "string",
          "name": "",
          "type": "string"
        }
      ],
      "stateMutability": "view",
      "type": "function"
    },
    {
      "inputs": [],
      "name": "totalSupply",
      "outputs": [
        {
          "internalType": "uint256",
          "name": "",
          "type": "uint256"
        }
      ],
      "stateMutability": "view",
      "type": "function"
    },
    {
      "inputs": [
        {
          "internalType": "address",
          "name": "recipient",
          "type": "address"
        },
        {
          "internalType": "uint256",
          "name": "amount",
          "type": "uint256"
        }
      ],
      "name": "transfer",
      "outputs": [
        {
          "internalType": "bool",
          "name": "",
          "type": "bool"
        }
      ],
      "stateMutability": "nonpayable",
      "type": "function"
    },
    {
      "inputs": [
        {
          "internalType": "address",
          "name": "sender",
          "type": "address"
        },
        {
          "internalType": "address",
          "name": "recipient",
          "type": "address"
        },
        {
          "internalType": "uint256",
          "name": "amount",
          "type": "uint256"
        }
      ],
      "name": "transferFrom",
      "outputs": [
        {
          "internalType": "bool",
          "name": "",
          "type": "bool"
        }
      ],
      "stateMutability": "nonpayable",
      "type": "function"
    },
    {
      "inputs": [
        {
          "internalType": "uint256",
          "name": "amount",
          "type": "uint256"
        }
      ],
      "name": "unwrap",
      "outputs": [
        {
          "internalType": "bool",
          "name": "",
          "type": "bool"
        }
      ],
      "stateMutability": "nonpayable",
      "type": "function"
    },
    {
      "inputs": [
        {
          "internalType": "uint256",
          "name": "amount",
          "type": "uint256"
        }
      ],
      "name": "wrap",
      "outputs": [
        {
          "internalType": "bool",
          "name": "",
          "type": "bool"
        }
      ],
      "stateMutability": "nonpayable",
      "type": "function"
    },
    {
      "inputs": [
        {
          "internalType": "address",
          "name": "to",
          "type": "address"
        },
        {
          "internalType": "uint256",
          "name": "amount",
          "type": "uint256"
        }
      ],
      "name": "wrapTo",
      "outputs": [
        {
          "internalType": "bool",
          "name": "",
          "type": "bool"
        }
      ],
      "stateMutability": "nonpayable",
      "type": "function"
    }
  ],
  "bytecode": "0x608060405234801561001057600080fd5b5061394f806100206000396000f3fe608060405234801561001057600080fd5b50600436106102045760003560e01c806306fdde0314610209578063095ea7b3146102275780630aff9d191461024a5780630d148ab61461027557806313e7e63b1461028a57806314663701146102b05780631624f6c6146102d157806318160ddd146102e45780631b730d7e146102ec5780631bab58f5146102f457806323b872dd146103a457806325d998bb146103b757806327256486146103ca578063313ce567146103d257806333bebb77146103e757806339509351146103fa57806340c10f191461040d57806342bb702e146104205780635370028e146104355780635932f4ff146104605780635a9b0b89146104755780636dfbee1b146104945780636e4d8983146104b657806370a08231146104c9578063748abb02146104dc578063759c8be3146104ef57806379cc67901461050257806381045ead14610515578063927c9d871461052857806395d89b411461053a57806398acd7a6146105425780639a97db451461055c5780639d5513d71461056f5780639f126fbe146105ac578063a457c2d7146105bf578063a9059cbb146105d2578063b655d0c4146105e5578063c0434352146105f6578063c4d66de814610609578063dd62ed3e1461061c578063de0e9a3e14610655578063e298a2fd14610668578063ea598cb014610670578063f8642f2914610683575b600080fd5b610211610694565b60405161021e9190613415565b60405180910390f35b61023a61023536600461301f565b610726565b604051901515815260200161021e565b600154600160701b90046001600160601b03166040516001600160601b03909116815260200161021e565b610288610283366004613271565b61073d565b005b600254600160a01b900463ffffffff165b60405163ffffffff909116815260200161021e565b6102c36102be366004613115565b61088a565b60405190815260200161021e565b6102886102df3660046131c2565b6108cd565b6006546102c3565b610288610953565b61036e610302366004612f6f565b6040805160608082018352600080835260208084018290529284018190526001600160a01b03949094168452600382529282902082519384018352546001600160701b038082168552600160701b82041691840191909152600160e01b900463ffffffff169082015290565b6040805182516001600160701b039081168252602080850151909116908201529181015163ffffffff169082015260600161021e565b61023a6103b2366004612fdf565b610a85565b6102c36103c5366004612f6f565b610b14565b610288610b49565b60095460405160ff909116815260200161021e565b61023a6103f5366004612fdf565b610c79565b61023a61040836600461301f565b610cd6565b61028861041b36600461301f565b610d0d565b600154600160d01b900463ffffffff1661029b565b61044861044336600461304a565b610d62565b6040516001600160701b03909116815260200161021e565b600254600160c01b900463ffffffff1661029b565b61047d610dc8565b60405161021e9b9a99989796959493929190613428565b600254600160e01b900461ffff165b60405161ffff909116815260200161021e565b61023a6104c43660046132fc565b610f47565b6102c36104d7366004612f6f565b610f81565b6102886104ea36600461309a565b610f9c565b6102886104fd366004613236565b6110d1565b61028861051036600461301f565b61124b565b600154600160f01b900461ffff166104a3565b600254600160f01b900460ff1661023a565b61021161129c565b6002546001600160a01b03165b60405161021e9190613401565b61028861056a366004613331565b6112ab565b61058261057d366004613115565b611405565b604080516001600160701b039485168152928416602084015292169181019190915260600161021e565b61023a6105ba36600461301f565b611424565b61023a6105cd36600461301f565b611430565b61023a6105e036600461301f565b61149e565b6001546001600160701b0316610448565b610288610604366004613316565b6114ad565b610288610617366004612f6f565b611620565b6102c361062a366004612fa7565b6001600160a01b03918216600090815260056020908152604080832093909416825291909152205490565b61023a6106633660046132a9565b6116c7565b61054f61176a565b61023a61067e3660046132a9565b611779565b6102886106913660046132a9565b50565b6060600780546106a390613792565b80601f01602080910402602001604051908101604052809291908181526020018280546106cf90613792565b801561071c5780601f106106f15761010080835404028352916020019161071c565b820191906000526020600020905b8154815290600101906020018083116106ff57829003601f168201915b5050505050905090565b6000610733338484611785565b5060015b92915050565b60005460408051638da5cb5b60e01b8152905133926001600160a01b031691638da5cb5b916004808301926020929190829003018186803b15801561078157600080fd5b505afa158015610795573d6000803e3d6000fd5b505050506040513d601f19601f820116820180604052508101906107b99190612f8b565b6001600160a01b031614604051806040016040528060018152602001603360f81b815250906108045760405162461bcd60e51b81526004016107fb9190613415565b60405180910390fd5b50604080518082019091526002815261363760f01b602082015261138861ffff831611156108455760405162461bcd60e51b81526004016107fb9190613415565b506002805461ffff60e01b1916600160e01b61ffff8416908102919091179091556040519081526000805160206138da8339815191529060200160405180910390a150565b60008060008061089b878787611869565b91945092509050806108ad8385613576565b6108b79190613576565b6001600160701b031693505050505b9392505050565b600780546108da90613792565b6040805180820190915260018152601960f91b60208201529150156109125760405162461bcd60e51b81526004016107fb9190613415565b508251610926906007906020860190612e3e565b50815161093a906008906020850190612e3e565b506009805460ff191660ff929092169190911790555050565b60005460408051638da5cb5b60e01b8152905133926001600160a01b031691638da5cb5b916004808301926020929190829003018186803b15801561099757600080fd5b505afa1580156109ab573d6000803e3d6000fd5b505050506040513d601f19601f820116820180604052508101906109cf9190612f8b565b6001600160a01b031614604051806040016040528060018152602001603360f81b81525090610a115760405162461bcd60e51b81526004016107fb9190613415565b50600280546040805180820190915291825261373960f01b6020830152600160f81b900460ff1615610a565760405162461bcd60e51b81526004016107fb9190613415565b50600280546001600160f81b0316600160f81b17905560405160008051602061389a83398151915290600090a1565b6000610a948484846000611ae0565b6001600160a01b03841660009081526005602090815260408083203384528252918290205482518084019093526002835261031360f41b918301919091529083821015610af45760405162461bcd60e51b81526004016107fb9190613415565b50610b098533610b04868561374f565b611785565b506001949350505050565b6001600160a01b0381166000908152600360205260408120546001600160701b0316610b3f83610f81565b610737919061374f565b60005460408051638da5cb5b60e01b8152905133926001600160a01b031691638da5cb5b916004808301926020929190829003018186803b158015610b8d57600080fd5b505afa158015610ba1573d6000803e3d6000fd5b505050506040513d601f19601f82011682018060405250810190610bc59190612f8b565b6001600160a01b031614604051806040016040528060018152602001603360f81b81525090610c075760405162461bcd60e51b81526004016107fb9190613415565b50600280546040805180820190915291825261037360f41b6020830152600160f01b900460ff1615610c4c5760405162461bcd60e51b81526004016107fb9190613415565b506002805460ff60f01b1916600160f01b17905560405160008051602061385a83398151915290600090a1565b600080546040805180820190915260018152600d60fa1b6020820152906001600160a01b03163314610cbe5760405162461bcd60e51b81526004016107fb9190613415565b50610ccc8484846001611ae0565b5060019392505050565b3360008181526005602090815260408083206001600160a01b03871684529091528120549091610733918590610b049086906135a1565b6000546040805180820190915260018152600d60fa1b6020820152906001600160a01b03163314610d515760405162461bcd60e51b81526004016107fb9190613415565b50610d5e82826001611c50565b5050565b6001600160a01b0382166000908152600360209081526040808320815160608101835290546001600160701b038082168352600160701b82041693820193909352600160e01b90920463ffffffff1690820152610dc0818585611d0e565b949350505050565b6060806000806000806000806000806000306001600160a01b03166306fdde036040518163ffffffff1660e01b815260040160006040518083038186803b158015610e1257600080fd5b505afa158015610e26573d6000803e3d6000fd5b505050506040513d6000823e601f3d908101601f19168201604052610e4e9190810190613159565b306001600160a01b03166395d89b416040518163ffffffff1660e01b815260040160006040518083038186803b158015610e8757600080fd5b505afa158015610e9b573d6000803e3d6000fd5b505050506040513d6000823e601f3d908101601f19168201604052610ec39190810190613159565b600154600254929e919d506001600160701b0381169c50600160701b81046001600160601b03169b50600160d01b810463ffffffff9081169b50600160f01b9182900461ffff9081169b506001600160a01b0385169a50600160a01b850482169950600160c01b85049091169750600160e01b840416955090910460ff1692509050565b60025460009063ffffffff808416600160a01b9092041611801590610737575050600254600160c01b900463ffffffff9081169116111590565b6001600160a01b031660009081526004602052604090205490565b6001805460408051808201909152918252601960f91b6020830152600160d01b900463ffffffff1615610fe25760405162461bcd60e51b81526004016107fb9190613415565b50604080518082019091526002815261343360f01b602082015263ffffffff84166110205760405162461bcd60e51b81526004016107fb9190613415565b5061102a86611620565b600180546001600160701b0387166001600160d01b031990911617600160701b6001600160601b03871602176001600160d01b0316600160d01b63ffffffff8616026001600160f01b031617600160f01b61ffff851602179055600280546001600160a01b0319166001600160a01b0383161790556040516000805160206138fa833981519152906110c1908790849088906134d5565b60405180910390a1505050505050565b60005460408051638da5cb5b60e01b8152905133926001600160a01b031691638da5cb5b916004808301926020929190829003018186803b15801561111557600080fd5b505afa158015611129573d6000803e3d6000fd5b505050506040513d601f19601f8201168201806040525081019061114d9190612f8b565b6001600160a01b031614604051806040016040528060018152602001603360f81b8152509061118f5760405162461bcd60e51b81526004016107fb9190613415565b5060028054604080518082019091529182526106c760f31b60208301526001600160a01b03166111d25760405162461bcd60e51b81526004016107fb9190613415565b5060018054600280546001600160a01b0319166001600160a01b0386161790556001600160701b0385166001600160d01b031990911617600160701b6001600160601b038416021790556040516000805160206138fa8339815191529061123e908590859085906134d5565b60405180910390a1505050565b6000546040805180820190915260018152600d60fa1b6020820152906001600160a01b0316331461128f5760405162461bcd60e51b81526004016107fb9190613415565b50610d5e82826001611d9c565b6060600880546106a390613792565b6002546040805180820190915260018152601960f91b602082015290600160c01b900463ffffffff16156112f25760405162461bcd60e51b81526004016107fb9190613415565b5060028054600160a01b600160e01b031916600160a01b63ffffffff8881169190910263ffffffff60c01b191691909117600160c01b918716919091021762ffffff60e01b1916600160e01b61ffff86160260ff60f01b191617600160f01b84151502176001600160f81b0316600160f81b831515021790556040516000805160206138da8339815191529061139390859061ffff91909116815260200190565b60405180910390a160008051602061387a83398151915285856040516113ba929190613508565b60405180910390a181156113e05760405160008051602061385a83398151915290600090a15b80156113fe5760405160008051602061389a83398151915290600090a15b5050505050565b6000806000611415868686611869565b92509250925093509350939050565b60006108c68383611eb5565b3360009081526005602090815260408083206001600160a01b038616845282528083205481518083019092526002825261313160f01b928201929092528382101561148e5760405162461bcd60e51b81526004016107fb9190613415565b50610ccc3385610b04868561374f565b60006107333384846000611ae0565b60005460408051638da5cb5b60e01b8152905133926001600160a01b031691638da5cb5b916004808301926020929190829003018186803b1580156114f157600080fd5b505afa158015611505573d6000803e3d6000fd5b505050506040513d601f19601f820116820180604052508101906115299190612f8b565b6001600160a01b031614604051806040016040528060018152602001603360f81b8152509061156b5760405162461bcd60e51b81526004016107fb9190613415565b508063ffffffff168263ffffffff16111560405180604001604052806002815260200161363960f01b815250906115b55760405162461bcd60e51b81526004016107fb9190613415565b506002805463ffffffff838116600160c01b0263ffffffff60c01b19918616600160a01b0291909116600160a01b600160e01b03199092169190911717905560405160008051602061387a833981519152906116149084908490613508565b60405180910390a15050565b6000546040805180820190915260018152601960f91b6020820152906001600160a01b0316156116635760405162461bcd60e51b81526004016107fb9190613415565b50604080518082019091526002815261353960f01b60208201526001600160a01b0382166116a45760405162461bcd60e51b81526004016107fb9190613415565b50600080546001600160a01b0319166001600160a01b0392909216919091179055565b60006116d533836000611d9c565b61176233836116e261176a565b6001600160a01b031663644e44df6040518163ffffffff1660e01b815260040160206040518083038186803b15801561171a57600080fd5b505afa15801561172e573d6000803e3d6000fd5b505050506040513d601f19601f820116820180604052508101906117529190612f8b565b6001600160a01b03169190611f98565b506001919050565b6000546001600160a01b031690565b60006107373383611eb5565b604080518082019091526002815261062760f31b60208201526001600160a01b0384166117c55760405162461bcd60e51b81526004016107fb9190613415565b50604080518082019091526002815261313960f01b60208201526001600160a01b0383166118065760405162461bcd60e51b81526004016107fb9190613415565b506001600160a01b0383811660008181526005602090815260408083209487168084529482529182902085905590518481527f8c5be1e5ebec7d5bd14f71427d1e84f3dd0314c0f7b2291e5b200ac8c7c3b92591015b60405180910390a3505050565b600080600061187661176a565b6001600160a01b0316632fb2067f876040518263ffffffff1660e01b81526004016118a19190613401565b60206040518083038186803b1580156118b957600080fd5b505afa1580156118cd573d6000803e3d6000fd5b505050506040513d601f19601f820116820180604052508101906118f1919061307e565b604051806040016040528060028152602001610d0d60f21b8152509061192a5760405162461bcd60e51b81526004016107fb9190613415565b5061193484610f47565b60405180604001604052806002815260200161343560f01b8152509061196d5760405162461bcd60e51b81526004016107fb9190613415565b50600061197a8686612000565b9050600061198661176a565b6001600160a01b0316632261b07f6040518163ffffffff1660e01b815260040160206040518083038186803b1580156119be57600080fd5b505afa1580156119d2573d6000803e3d6000fd5b505050506040513d601f19601f820116820180604052508101906119f69190612f8b565b6002546040516314fdc96760e11b81526001600160a01b0391821660048201526001600160701b03851660248201528a821660448201529116906329fb92ce9060640160206040518083038186803b158015611a5157600080fd5b505afa158015611a65573d6000803e3d6000fd5b505050506040513d601f19601f82011682018060405250810190611a8991906132c1565b60025490915061271090611aa890600160e01b900461ffff16836136c7565b611ab291906135b9565b9350611ac76001600160701b0385168261374f565b9450611ad38882612362565b9250505093509350939050565b604080518082019091526002815261189960f11b60208201526001600160a01b038516611b205760405162461bcd60e51b81526004016107fb9190613415565b50604080518082019091526002815261313360f01b60208201526001600160a01b038416611b615760405162461bcd60e51b81526004016107fb9190613415565b50611b6e8484848461253d565b6001600160a01b03841660009081526004602090815260409182902054825180840190935260028352610c4d60f21b918301919091529083821015611bc65760405162461bcd60e51b81526004016107fb9190613415565b50611bd1838261374f565b6001600160a01b038087166000908152600460205260408082209390935590861681529081208054859290611c079084906135a1565b92505081905550836001600160a01b0316856001600160a01b03166000805160206138ba83398151915285604051611c4191815260200190565b60405180910390a35050505050565b604080518082019091526002815261313560f01b60208201526001600160a01b038416611c905760405162461bcd60e51b81526004016107fb9190613415565b50611c9e600084848461253d565b8160066000828254611cb091906135a1565b90915550506001600160a01b03831660009081526004602052604081208054849290611cdd9084906135a1565b90915550506040518281526001600160a01b038416906000906000805160206138ba8339815191529060200161185c565b600080611d1a84610f81565b905084602001516001600160701b0316816001600160701b03161115611d7a57611d688560400151866020015183611d529190613727565b600154600160d01b900463ffffffff1686612852565b611d729082613727565b9150506108c6565b611d928560400151828760200151611d529190613727565b611d729082613576565b604080518082019091526002815261189b60f11b60208201526001600160a01b038416611ddc5760405162461bcd60e51b81526004016107fb9190613415565b50611dea836000848461253d565b6001600160a01b0383166000908152600460209081526040918290205482518084019093526002835261313760f01b918301919091529083821015611e425760405162461bcd60e51b81526004016107fb9190613415565b50611e4d838261374f565b6001600160a01b03851660009081526004602052604081209190915560068054859290611e7b90849061374f565b90915550506040518381526000906001600160a01b038616906000805160206138ba8339815191529060200160405180910390a350505050565b600280546040805180820190915291825261353160f01b602083015260009190600160f01b900460ff16611efc5760405162461bcd60e51b81526004016107fb9190613415565b50611f8c333084611f0b61176a565b6001600160a01b031663644e44df6040518163ffffffff1660e01b815260040160206040518083038186803b158015611f4357600080fd5b505afa158015611f57573d6000803e3d6000fd5b505050506040513d601f19601f82011682018060405250810190611f7b9190612f8b565b6001600160a01b03169291906129f3565b61073383836000611c50565b6040516001600160a01b038316602482015260448101829052611ffb90849063a9059cbb60e01b906064015b60408051601f198184030181529190526020810180516001600160e01b03166001600160e01b031990931692909217909152612a31565b505050565b60008061200b61176a565b6001600160a01b031663aebb50416040518163ffffffff1660e01b815260040160206040518083038186803b15801561204357600080fd5b505afa158015612057573d6000803e3d6000fd5b505050506040513d601f19601f8201168201806040525081019061207b91906132c1565b9050836001600160701b0316811161209d576001600160701b03915050610737565b6002546040805163313ce56760e01b815290516000926001600160a01b03169163313ce567916004808301926020929190829003018186803b1580156120e257600080fd5b505afa1580156120f6573d6000803e3d6000fd5b505050506040513d601f19601f8201168201806040525081019061211a919061339d565b61212261176a565b6001600160a01b031663644e44df6040518163ffffffff1660e01b815260040160206040518083038186803b15801561215a57600080fd5b505afa15801561216e573d6000803e3d6000fd5b505050506040513d601f19601f820116820180604052508101906121929190612f8b565b6001600160a01b031663313ce5676040518163ffffffff1660e01b815260040160206040518083038186803b1580156121ca57600080fd5b505afa1580156121de573d6000803e3d6000fd5b505050506040513d601f19601f82011682018060405250810190612202919061339d565b61220c91906136e6565b905060008061221961176a565b6001600160a01b031663faac38ef6040518163ffffffff1660e01b8152600401604080518083038186803b15801561225057600080fd5b505afa158015612264573d6000803e3d6000fd5b505050506040513d601f19601f8201168201806040525081019061228891906132d9565b9150915060008663ffffffff166122a9896001600160701b03168585612b03565b6122b391906136c7565b905060008460000b13156122f75760406122ce85600a61361c565b6001546122e4906001600160701b0316846136c7565b6122ee91906135b9565b901c9050612357565b60008460000b121561233957604061230e856137cd565b61231990600a61361c565b60015461232f906001600160701b0316846136c7565b6122ee91906136c7565b600154604090612352906001600160701b0316836136c7565b901c90505b979650505050505050565b60008061271061237061176a565b6001600160a01b031663b406bf6d6040518163ffffffff1660e01b815260040160206040518083038186803b1580156123a857600080fd5b505afa1580156123bc573d6000803e3d6000fd5b505050506040513d601f19601f820116820180604052508101906123e0919061328d565b6123ee9061ffff16856136c7565b6123f891906135b9565b9050600061240461176a565b6001600160a01b0316632261b07f6040518163ffffffff1660e01b815260040160206040518083038186803b15801561243c57600080fd5b505afa158015612450573d6000803e3d6000fd5b505050506040513d601f19601f820116820180604052508101906124749190612f8b565b6002546001546040516314fdc96760e11b81526001600160a01b039283166004820152600160701b9091046001600160601b0316602482015287821660448201529116906329fb92ce9060640160206040518083038186803b1580156124d957600080fd5b505afa1580156124ed573d6000803e3d6000fd5b505050506040513d601f19601f8201168201806040525081019061251191906132c1565b9050806001600160701b0316826001600160701b0316106125325781612534565b805b95945050505050565b6001600160a01b038416158061255a57506001600160a01b038316155b806125625750805b806125765750600254600160f81b900460ff165b60405180604001604052806002815260200161038360f41b815250906125af5760405162461bcd60e51b81526004016107fb9190613415565b50426001600160a01b0385161561272e576001600160a01b038516600090815260036020908152604091829020825160608101845290546001600160701b038082168352600160701b82041692820192909252600160e01b90910463ffffffff1691810191909152612622818784611d0e565b6001600160701b0316602082015263ffffffff82166040820152826126a15780516001600160701b03168461265688610f81565b612660919061374f565b1015604051806040016040528060028152602001610dcd60f21b8152509061269b5760405162461bcd60e51b81526004016107fb9190613415565b506126c0565b83816000018181516126b39190613727565b6001600160701b03169052505b6001600160a01b0386166000908152600360209081526040918290208351815492850151939094015163ffffffff16600160e01b026001600160e01b036001600160701b03948516600160701b026001600160e01b0319909416949095169390931791909117929092161790555b6001600160a01b038416156113fe576001600160a01b038416600090815260036020908152604091829020825160608101845290546001600160701b038082168352600160701b82041692820192909252600160e01b90910463ffffffff169181019190915261279f818684611d0e565b6001600160701b0316602082015263ffffffff8216604082015282156127de5783816000018181516127d19190613576565b6001600160701b03169052505b6001600160a01b0385166000908152600360209081526040918290208351815492850151939094015163ffffffff16600160e01b026001600160e01b036001600160701b03948516600160701b026001600160e01b0319909416949095169390931791909117929092161790555050505050565b60008463ffffffff168263ffffffff161015604051806040016040528060018152602001600760fb1b8152509061289c5760405162461bcd60e51b81526004016107fb9190613415565b5084820391508263ffffffff168263ffffffff16816128cb57634e487b7160e01b600052601260045260246000fd5b0463ffffffff16846001600160701b0316901c93508263ffffffff168263ffffffff168161290957634e487b7160e01b600052601260045260246000fd5b06915063ffffffff8216158061292657506001600160701b038416155b15612932575082610dc0565b60006001600160701b0385168163ffffffff86811690861671b17217f7d1cf79abc9e3b39803f2f6af40f3028161297957634e487b7160e01b600052601260045260246000fd5b049050600160901b5b82156129e6579282019280828402816129ab57634e487b7160e01b600052601260045260246000fd5b0493849003939250600160901b0180828402816129d857634e487b7160e01b600052601260045260246000fd5b049250600160901b01612982565b5091979650505050505050565b6040516001600160a01b0380851660248301528316604482015260648101829052612a2b9085906323b872dd60e01b90608401611fc4565b50505050565b6000612a86826040518060400160405280602081526020017f5361666545524332303a206c6f772d6c6576656c2063616c6c206661696c6564815250856001600160a01b0316612c3a9092919063ffffffff16565b805190915015611ffb5780806020019051810190612aa4919061307e565b611ffb5760405162461bcd60e51b815260206004820152602a60248201527f5361666545524332303a204552433230206f7065726174696f6e20646964206e6044820152691bdd081cdd58d8d9595960b21b60648201526084016107fb565b600080612b0e61176a565b6001600160a01b031663fcb2884e6040518163ffffffff1660e01b815260040160206040518083038186803b158015612b4657600080fd5b505afa158015612b5a573d6000803e3d6000fd5b505050506040513d601f19601f82011682018060405250810190612b7e91906132c1565b90506000612b8a61176a565b6001600160a01b03166359bf5d396040518163ffffffff1660e01b815260040160206040518083038186803b158015612bc257600080fd5b505afa158015612bd6573d6000803e3d6000fd5b505050506040513d601f19601f82011682018060405250810190612bfa91906132c1565b9050612c0882868684612c49565b612c26612c1e6001600160801b038916856135a1565b878785612c49565b612c30919061374f565b9695505050505050565b6060610dc08484600085612c8c565b60006040612c778382612c5c898361374f565b612c6792911b6135b9565b6001600160801b03168686612da9565b612c8190876136c7565b901c95945050505050565b606082471015612ced5760405162461bcd60e51b815260206004820152602660248201527f416464726573733a20696e73756666696369656e742062616c616e636520666f6044820152651c8818d85b1b60d21b60648201526084016107fb565b843b612d3b5760405162461bcd60e51b815260206004820152601d60248201527f416464726573733a2063616c6c20746f206e6f6e2d636f6e747261637400000060448201526064016107fb565b600080866001600160a01b03168587604051612d5791906133e5565b60006040518083038185875af1925050503d8060008114612d94576040519150601f19603f3d011682016040523d82523d6000602084013e612d99565b606091505b5091509150612357828286612e05565b6000828411612dc057506001600160801b036108c6565b612dce82600160401b61374f565b612dd8848661374f565b83612de786600160401b61374f565b612df191906136c7565b612dfb91906135b9565b610dc091906135a1565b60608315612e145750816108c6565b825115612e245782518084602001fd5b8160405162461bcd60e51b81526004016107fb9190613415565b828054612e4a90613792565b90600052602060002090601f016020900481019282612e6c5760008555612eb2565b82601f10612e8557805160ff1916838001178555612eb2565b82800160010185558215612eb2579182015b82811115612eb2578251825591602001919060010190612e97565b50612ebe929150612ec2565b5090565b5b80821115612ebe5760008155600101612ec3565b600082601f830112612ee7578081fd5b8135612efa612ef58261354f565b61351f565b818152846020838601011115612f0e578283fd5b816020850160208301379081016020019190915292915050565b80356001600160701b0381168114612f3f57600080fd5b919050565b803563ffffffff81168114612f3f57600080fd5b80356001600160601b0381168114612f3f57600080fd5b600060208284031215612f80578081fd5b81356108c681613817565b600060208284031215612f9c578081fd5b81516108c681613817565b60008060408385031215612fb9578081fd5b8235612fc481613817565b91506020830135612fd481613817565b809150509250929050565b600080600060608486031215612ff3578081fd5b8335612ffe81613817565b9250602084013561300e81613817565b929592945050506040919091013590565b60008060408385031215613031578182fd5b823561303c81613817565b946020939093013593505050565b6000806040838503121561305c578182fd5b823561306781613817565b915061307560208401612f44565b90509250929050565b60006020828403121561308f578081fd5b81516108c68161382c565b60008060008060008060c087890312156130b2578384fd5b86356130bd81613817565b95506130cb60208801612f28565b94506130d960408801612f58565b93506130e760608801612f44565b925060808701356130f78161383a565b915060a087013561310781613817565b809150509295509295509295565b600080600060608486031215613129578081fd5b833561313481613817565b925061314260208501612f28565b915061315060408501612f44565b90509250925092565b60006020828403121561316a578081fd5b81516001600160401b0381111561317f578182fd5b8201601f8101841361318f578182fd5b805161319d612ef58261354f565b8181528560208385010111156131b1578384fd5b612534826020830160208601613766565b6000806000606084860312156131d6578081fd5b83356001600160401b03808211156131ec578283fd5b6131f887838801612ed7565b9450602086013591508082111561320d578283fd5b5061321a86828701612ed7565b925050604084013561322b8161384a565b809150509250925092565b60008060006060848603121561324a578081fd5b61325384612f28565b9250602084013561326381613817565b915061315060408501612f58565b600060208284031215613282578081fd5b81356108c68161383a565b60006020828403121561329e578081fd5b81516108c68161383a565b6000602082840312156132ba578081fd5b5035919050565b6000602082840312156132d2578081fd5b5051919050565b600080604083850312156132eb578182fd5b505080516020909101519092909150565b60006020828403121561330d578081fd5b6108c682612f44565b60008060408385031215613328578182fd5b61306783612f44565b600080600080600060a08688031215613348578283fd5b61335186612f44565b945061335f60208701612f44565b9350604086013561336f8161383a565b9250606086013561337f8161382c565b9150608086013561338f8161382c565b809150509295509295909350565b6000602082840312156133ae578081fd5b81516108c68161384a565b600081518084526133d1816020860160208601613766565b601f01601f19169290920160200192915050565b600082516133f7818460208701613766565b9190910192915050565b6001600160a01b0391909116815260200190565b6020815260006108c660208301846133b9565b600061016080835261343c8184018f6133b9565b90508281036020840152613450818e6133b9565b6001600160701b038d1660408501526001600160601b038c16606085015263ffffffff8b8116608086015261ffff8b1660a08601526001600160a01b038a1660c0860152881660e085015291506134a49050565b63ffffffff851661010083015261ffff84166101208301528215156101408301529c9b505050505050505050505050565b6001600160701b039390931683526001600160a01b039190911660208301526001600160601b0316604082015260600190565b63ffffffff92831681529116602082015260400190565b604051601f8201601f191681016001600160401b038111828210171561354757613547613801565b604052919050565b60006001600160401b0382111561356857613568613801565b50601f01601f191660200190565b60006001600160701b03828116848216808303821115613598576135986137eb565b01949350505050565b600082198211156135b4576135b46137eb565b500190565b6000826135d457634e487b7160e01b81526012600452602481fd5b500490565b600181815b808511156136145781600019048211156135fa576135fa6137eb565b8085161561360757918102915b93841c93908002906135de565b509250929050565b60006108c660ff84168360008261363557506001610737565b8161364257506000610737565b816001811461365857600281146136625761367e565b6001915050610737565b60ff841115613673576136736137eb565b50506001821b610737565b5060208310610133831016604e8410600b84101617156136a1575081810a610737565b6136ab83836135d9565b80600019048211156136bf576136bf6137eb565b029392505050565b60008160001904831182151516156136e1576136e16137eb565b500290565b600081810b83820b8281128015607f19830184121615613708576137086137eb565b81607f01831381161561371d5761371d6137eb565b5090039392505050565b60006001600160701b0383811690831681811015613747576137476137eb565b039392505050565b600082821015613761576137616137eb565b500390565b60005b83811015613781578181015183820152602001613769565b83811115612a2b5750506000910152565b600181811c908216806137a657607f821691505b602082108114156137c757634e487b7160e01b600052602260045260246000fd5b50919050565b600081810b607f198114156137e4576137e46137eb565b9003919050565b634e487b7160e01b600052601160045260246000fd5b634e487b7160e01b600052604160045260246000fd5b6001600160a01b038116811461069157600080fd5b801515811461069157600080fd5b61ffff8116811461069157600080fd5b60ff8116811461069157600080fdfe772fb13db6d1f0f35034c4b28dbbb01644e39d7e8b38de2a93b3c9d1fbb1ad4a1ff66a89a0dcb0d94c8284280cbf0fb7190e7d935e15b6b48513e08b84fd9c7b2db8a095b698dea1e350f87ea8a3715a27054d8804d208742273b0cf28ba0753ddf252ad1be2c89b69c2b068fc378daa952ba7f163c4a11628f55a4df523b3ef7b5d5b53df75c87d5bea0f0535cd81a355db537ee2ca5dcea9849433d99847b92833a6b2910014b082775316936860d808d821fc59634fa08bc19c19427fa99da264697066735822122010160af0cfe966558fae9affb3dd77e6cd7bba5c5c51fd9687e36c56e18f90cd64736f6c63430008040033",
  "linkReferences": {},
  "deployedLinkReferences": {}
}