{
  "_format": "hh-sol-artifact-1",
  "contractName": "PowerToken",
  "sourceName": "contracts/PowerToken.sol",
  "abi": [
    {
      "anonymous": false,
      "inputs": [
        {
          "indexed": true,
          "internalType": "address",
          "name": "owner",
          "type": "address"
        },
        {
          "indexed": true,
          "internalType": "address",
          "name": "spender",
          "type": "address"
        },
        {
          "indexed": false,
          "internalType": "uint256",
          "name": "value",
          "type": "uint256"
        }
      ],
      "name": "Approval",
      "type": "event"
    },
    {
      "anonymous": false,
      "inputs": [
        {
          "indexed": false,
          "internalType": "uint112",
          "name": "baseRate",
          "type": "uint112"
        },
        {
          "indexed": false,
          "internalType": "address",
          "name": "baseToken",
          "type": "address"
        },
        {
          "indexed": false,
          "internalType": "uint96",
          "name": "minGCFee",
          "type": "uint96"
        }
      ],
      "name": "BaseRateChanged",
      "type": "event"
    },
    {
      "anonymous": false,
      "inputs": [
        {
          "indexed": false,
          "internalType": "uint32",
          "name": "minDuration",
          "type": "uint32"
        },
        {
          "indexed": false,
          "internalType": "uint32",
          "name": "maxDuration",
          "type": "uint32"
        }
      ],
      "name": "LoanDurationLimitsChanged",
      "type": "event"
    },
    {
      "anonymous": false,
      "inputs": [
        {
          "indexed": false,
          "internalType": "uint16",
          "name": "percent",
          "type": "uint16"
        }
      ],
      "name": "ServiceFeePercentChanged",
      "type": "event"
    },
    {
      "anonymous": false,
      "inputs": [
        {
          "indexed": true,
          "internalType": "address",
          "name": "from",
          "type": "address"
        },
        {
          "indexed": true,
          "internalType": "address",
          "name": "to",
          "type": "address"
        },
        {
          "indexed": false,
          "internalType": "uint256",
          "name": "value",
          "type": "uint256"
        }
      ],
      "name": "Transfer",
      "type": "event"
    },
    {
      "anonymous": false,
      "inputs": [],
      "name": "TransfersEnabled",
      "type": "event"
    },
    {
      "anonymous": false,
      "inputs": [],
      "name": "WrappingEnabled",
      "type": "event"
    },
    {
      "inputs": [
        {
          "internalType": "address",
          "name": "owner",
          "type": "address"
        },
        {
          "internalType": "address",
          "name": "spender",
          "type": "address"
        }
      ],
      "name": "allowance",
      "outputs": [
        {
          "internalType": "uint256",
          "name": "",
          "type": "uint256"
        }
      ],
      "stateMutability": "view",
      "type": "function"
    },
    {
      "inputs": [
        {
          "internalType": "address",
          "name": "spender",
          "type": "address"
        },
        {
          "internalType": "uint256",
          "name": "amount",
          "type": "uint256"
        }
      ],
      "name": "approve",
      "outputs": [
        {
          "internalType": "bool",
          "name": "",
          "type": "bool"
        }
      ],
      "stateMutability": "nonpayable",
      "type": "function"
    },
    {
      "inputs": [
        {
          "internalType": "address",
          "name": "account",
          "type": "address"
        }
      ],
      "name": "availableBalanceOf",
      "outputs": [
        {
          "internalType": "uint256",
          "name": "",
          "type": "uint256"
        }
      ],
      "stateMutability": "view",
      "type": "function"
    },
    {
      "inputs": [
        {
          "internalType": "address",
          "name": "account",
          "type": "address"
        }
      ],
      "name": "balanceOf",
      "outputs": [
        {
          "internalType": "uint256",
          "name": "",
          "type": "uint256"
        }
      ],
      "stateMutability": "view",
      "type": "function"
    },
    {
      "inputs": [
        {
          "internalType": "address",
          "name": "account",
          "type": "address"
        },
        {
          "internalType": "uint256",
          "name": "value",
          "type": "uint256"
        }
      ],
      "name": "burnFrom",
      "outputs": [],
      "stateMutability": "nonpayable",
      "type": "function"
    },
    {
      "inputs": [],
      "name": "decimals",
      "outputs": [
        {
          "internalType": "uint8",
          "name": "",
          "type": "uint8"
        }
      ],
      "stateMutability": "view",
      "type": "function"
    },
    {
      "inputs": [
        {
          "internalType": "address",
          "name": "spender",
          "type": "address"
        },
        {
          "internalType": "uint256",
          "name": "subtractedValue",
          "type": "uint256"
        }
      ],
      "name": "decreaseAllowance",
      "outputs": [
        {
          "internalType": "bool",
          "name": "",
          "type": "bool"
        }
      ],
      "stateMutability": "nonpayable",
      "type": "function"
    },
    {
      "inputs": [],
      "name": "enableTransfersForever",
      "outputs": [],
      "stateMutability": "nonpayable",
      "type": "function"
    },
    {
      "inputs": [],
      "name": "enableWrappingForever",
      "outputs": [],
      "stateMutability": "nonpayable",
      "type": "function"
    },
    {
      "inputs": [
        {
          "internalType": "address",
          "name": "who",
          "type": "address"
        },
        {
          "internalType": "uint32",
          "name": "timestamp",
          "type": "uint32"
        }
      ],
      "name": "energyAt",
      "outputs": [
        {
          "internalType": "uint112",
          "name": "",
          "type": "uint112"
        }
      ],
      "stateMutability": "view",
      "type": "function"
    },
    {
      "inputs": [
        {
          "internalType": "address",
          "name": "paymentToken",
          "type": "address"
        },
        {
          "internalType": "uint112",
          "name": "amount",
          "type": "uint112"
        },
        {
          "internalType": "uint32",
          "name": "duration",
          "type": "uint32"
        }
      ],
      "name": "estimateLoan",
      "outputs": [
        {
          "internalType": "uint256",
          "name": "",
          "type": "uint256"
        }
      ],
      "stateMutability": "view",
      "type": "function"
    },
    {
      "inputs": [
        {
          "internalType": "address",
          "name": "paymentToken",
          "type": "address"
        },
        {
          "internalType": "uint112",
          "name": "amount",
          "type": "uint112"
        },
        {
          "internalType": "uint32",
          "name": "duration",
          "type": "uint32"
        }
      ],
      "name": "estimateLoanDetailed",
      "outputs": [
        {
          "internalType": "uint112",
          "name": "interest",
          "type": "uint112"
        },
        {
          "internalType": "uint112",
          "name": "serviceFee",
          "type": "uint112"
        },
        {
          "internalType": "uint112",
          "name": "gcFee",
          "type": "uint112"
        }
      ],
      "stateMutability": "view",
      "type": "function"
    },
    {
      "inputs": [
        {
          "internalType": "address",
          "name": "from",
          "type": "address"
        },
        {
          "internalType": "address",
          "name": "to",
          "type": "address"
        },
        {
          "internalType": "uint256",
          "name": "amount",
          "type": "uint256"
        }
      ],
      "name": "forceTransfer",
      "outputs": [
        {
          "internalType": "bool",
          "name": "",
          "type": "bool"
        }
      ],
      "stateMutability": "nonpayable",
      "type": "function"
    },
    {
      "inputs": [],
      "name": "getAllowsPerpetual",
      "outputs": [
        {
          "internalType": "bool",
          "name": "",
          "type": "bool"
        }
      ],
      "stateMutability": "view",
      "type": "function"
    },
    {
      "inputs": [],
      "name": "getBaseRate",
      "outputs": [
        {
          "internalType": "uint112",
          "name": "",
          "type": "uint112"
        }
      ],
      "stateMutability": "view",
      "type": "function"
    },
    {
      "inputs": [],
      "name": "getBaseToken",
      "outputs": [
        {
          "internalType": "contract IERC20Metadata",
          "name": "",
          "type": "address"
        }
      ],
      "stateMutability": "view",
      "type": "function"
    },
    {
      "inputs": [],
      "name": "getEnterprise",
      "outputs": [
        {
          "internalType": "contract IEnterprise",
          "name": "",
          "type": "address"
        }
      ],
      "stateMutability": "view",
      "type": "function"
    },
    {
      "inputs": [],
      "name": "getGapHalvingPeriod",
      "outputs": [
        {
          "internalType": "uint32",
          "name": "",
          "type": "uint32"
        }
      ],
      "stateMutability": "view",
      "type": "function"
    },
    {
      "inputs": [],
      "name": "getIndex",
      "outputs": [
        {
          "internalType": "uint16",
          "name": "",
          "type": "uint16"
        }
      ],
      "stateMutability": "view",
      "type": "function"
    },
    {
      "inputs": [],
      "name": "getInfo",
      "outputs": [
        {
          "internalType": "string",
          "name": "name",
          "type": "string"
        },
        {
          "internalType": "string",
          "name": "symbol",
          "type": "string"
        },
        {
          "internalType": "uint112",
          "name": "baseRate",
          "type": "uint112"
        },
        {
          "internalType": "uint96",
          "name": "minGCFee",
          "type": "uint96"
        },
        {
          "internalType": "uint32",
          "name": "gapHalvingPeriod",
          "type": "uint32"
        },
        {
          "internalType": "uint16",
          "name": "index",
          "type": "uint16"
        },
        {
          "internalType": "contract IERC20Metadata",
          "name": "baseToken",
          "type": "address"
        },
        {
          "internalType": "uint32",
          "name": "minLoanDuration",
          "type": "uint32"
        },
        {
          "internalType": "uint32",
          "name": "maxLoanDuration",
          "type": "uint32"
        },
        {
          "internalType": "uint16",
          "name": "serviceFeePercent",
          "type": "uint16"
        },
        {
          "internalType": "bool",
          "name": "wrappingEnabled",
          "type": "bool"
        },
        {
          "internalType": "bool",
          "name": "transfersEnabled",
          "type": "bool"
        }
      ],
      "stateMutability": "view",
      "type": "function"
    },
    {
      "inputs": [],
      "name": "getMaxLoanDuration",
      "outputs": [
        {
          "internalType": "uint32",
          "name": "",
          "type": "uint32"
        }
      ],
      "stateMutability": "view",
      "type": "function"
    },
    {
      "inputs": [],
      "name": "getMinGCFee",
      "outputs": [
        {
          "internalType": "uint96",
          "name": "",
          "type": "uint96"
        }
      ],
      "stateMutability": "view",
      "type": "function"
    },
    {
      "inputs": [],
      "name": "getMinLoanDuration",
      "outputs": [
        {
          "internalType": "uint32",
          "name": "",
          "type": "uint32"
        }
      ],
      "stateMutability": "view",
      "type": "function"
    },
    {
      "inputs": [],
      "name": "getServiceFeePercent",
      "outputs": [
        {
          "internalType": "uint16",
          "name": "",
          "type": "uint16"
        }
      ],
      "stateMutability": "view",
      "type": "function"
    },
    {
      "inputs": [
        {
          "internalType": "address",
          "name": "account",
          "type": "address"
        }
      ],
      "name": "getState",
      "outputs": [
        {
          "components": [
            {
              "internalType": "uint112",
              "name": "lockedBalance",
              "type": "uint112"
            },
            {
              "internalType": "uint112",
              "name": "energy",
              "type": "uint112"
            },
            {
              "internalType": "uint32",
              "name": "timestamp",
              "type": "uint32"
            }
          ],
          "internalType": "struct PowerTokenStorage.State",
          "name": "",
          "type": "tuple"
        }
      ],
      "stateMutability": "view",
      "type": "function"
    },
    {
      "inputs": [
        {
          "internalType": "address",
          "name": "spender",
          "type": "address"
        },
        {
          "internalType": "uint256",
          "name": "addedValue",
          "type": "uint256"
        }
      ],
      "name": "increaseAllowance",
      "outputs": [
        {
          "internalType": "bool",
          "name": "",
          "type": "bool"
        }
      ],
      "stateMutability": "nonpayable",
      "type": "function"
    },
    {
      "inputs": [
        {
          "internalType": "string",
          "name": "name_",
          "type": "string"
        },
        {
          "internalType": "string",
          "name": "symbol_",
          "type": "string"
        },
        {
          "internalType": "uint8",
          "name": "decimals_",
          "type": "uint8"
        }
      ],
      "name": "initialize",
      "outputs": [],
      "stateMutability": "nonpayable",
      "type": "function"
    },
    {
      "inputs": [
        {
          "internalType": "contract IEnterprise",
          "name": "enterprise",
          "type": "address"
        },
        {
          "internalType": "uint112",
          "name": "baseRate",
          "type": "uint112"
        },
        {
          "internalType": "uint96",
          "name": "minGCFee",
          "type": "uint96"
        },
        {
          "internalType": "uint32",
          "name": "gapHalvingPeriod",
          "type": "uint32"
        },
        {
          "internalType": "uint16",
          "name": "index",
          "type": "uint16"
        },
        {
          "internalType": "contract IERC20Metadata",
          "name": "baseToken",
          "type": "address"
        }
      ],
      "name": "initialize",
      "outputs": [],
      "stateMutability": "nonpayable",
      "type": "function"
    },
    {
      "inputs": [
        {
          "internalType": "contract IEnterprise",
          "name": "enterprise",
          "type": "address"
        }
      ],
      "name": "initialize",
      "outputs": [],
      "stateMutability": "nonpayable",
      "type": "function"
    },
    {
      "inputs": [
        {
          "internalType": "uint32",
          "name": "minLoanDuration",
          "type": "uint32"
        },
        {
          "internalType": "uint32",
          "name": "maxLoanDuration",
          "type": "uint32"
        },
        {
          "internalType": "uint16",
          "name": "serviceFeePercent",
          "type": "uint16"
        },
        {
          "internalType": "bool",
          "name": "wrappingEnabled",
          "type": "bool"
        }
      ],
      "name": "initialize2",
      "outputs": [],
      "stateMutability": "nonpayable",
      "type": "function"
    },
    {
      "inputs": [
        {
          "internalType": "uint32",
          "name": "duration",
          "type": "uint32"
        }
      ],
      "name": "isAllowedLoanDuration",
      "outputs": [
        {
          "internalType": "bool",
          "name": "",
          "type": "bool"
        }
      ],
      "stateMutability": "view",
      "type": "function"
    },
    {
      "inputs": [],
      "name": "isTransfersEnabled",
      "outputs": [
        {
          "internalType": "bool",
          "name": "",
          "type": "bool"
        }
      ],
      "stateMutability": "view",
      "type": "function"
    },
    {
      "inputs": [],
      "name": "isWrappingEnabled",
      "outputs": [
        {
          "internalType": "bool",
          "name": "",
          "type": "bool"
        }
      ],
      "stateMutability": "view",
      "type": "function"
    },
    {
      "inputs": [
        {
          "internalType": "address",
          "name": "to",
          "type": "address"
        },
        {
          "internalType": "uint256",
          "name": "value",
          "type": "uint256"
        }
      ],
      "name": "mint",
      "outputs": [],
      "stateMutability": "nonpayable",
      "type": "function"
    },
    {
      "inputs": [],
      "name": "name",
      "outputs": [
        {
          "internalType": "string",
          "name": "",
          "type": "string"
        }
      ],
      "stateMutability": "view",
      "type": "function"
    },
    {
      "inputs": [
        {
          "internalType": "uint256",
          "name": "borrowTokenId",
          "type": "uint256"
        }
      ],
      "name": "notifyNewLoan",
      "outputs": [],
      "stateMutability": "nonpayable",
      "type": "function"
    },
    {
      "inputs": [
        {
          "internalType": "uint112",
          "name": "baseRate",
          "type": "uint112"
        },
        {
          "internalType": "contract IERC20Metadata",
          "name": "baseToken",
          "type": "address"
        },
        {
          "internalType": "uint96",
          "name": "minGCFee",
          "type": "uint96"
        }
      ],
      "name": "setBaseRate",
      "outputs": [],
      "stateMutability": "nonpayable",
      "type": "function"
    },
    {
      "inputs": [
        {
          "internalType": "uint32",
          "name": "minLoanDuration",
          "type": "uint32"
        },
        {
          "internalType": "uint32",
          "name": "maxLoanDuration",
          "type": "uint32"
        }
      ],
      "name": "setLoanDurationLimits",
      "outputs": [],
      "stateMutability": "nonpayable",
      "type": "function"
    },
    {
      "inputs": [
        {
          "internalType": "uint16",
          "name": "newServiceFeePercent",
          "type": "uint16"
        }
      ],
      "name": "setServiceFeePercent",
      "outputs": [],
      "stateMutability": "nonpayable",
      "type": "function"
    },
    {
      "inputs": [],
      "name": "symbol",
      "outputs": [
        {
          "internalType": "string",
          "name": "",
          "type": "string"
        }
      ],
      "stateMutability": "view",
      "type": "function"
    },
    {
      "inputs": [],
      "name": "totalSupply",
      "outputs": [
        {
          "internalType": "uint256",
          "name": "",
          "type": "uint256"
        }
      ],
      "stateMutability": "view",
      "type": "function"
    },
    {
      "inputs": [
        {
          "internalType": "address",
          "name": "recipient",
          "type": "address"
        },
        {
          "internalType": "uint256",
          "name": "amount",
          "type": "uint256"
        }
      ],
      "name": "transfer",
      "outputs": [
        {
          "internalType": "bool",
          "name": "",
          "type": "bool"
        }
      ],
      "stateMutability": "nonpayable",
      "type": "function"
    },
    {
      "inputs": [
        {
          "internalType": "address",
          "name": "sender",
          "type": "address"
        },
        {
          "internalType": "address",
          "name": "recipient",
          "type": "address"
        },
        {
          "internalType": "uint256",
          "name": "amount",
          "type": "uint256"
        }
      ],
      "name": "transferFrom",
      "outputs": [
        {
          "internalType": "bool",
          "name": "",
          "type": "bool"
        }
      ],
      "stateMutability": "nonpayable",
      "type": "function"
    },
    {
      "inputs": [
        {
          "internalType": "uint256",
          "name": "amount",
          "type": "uint256"
        }
      ],
      "name": "unwrap",
      "outputs": [
        {
          "internalType": "bool",
          "name": "",
          "type": "bool"
        }
      ],
      "stateMutability": "nonpayable",
      "type": "function"
    },
    {
      "inputs": [
        {
          "internalType": "uint256",
          "name": "amount",
          "type": "uint256"
        }
      ],
      "name": "wrap",
      "outputs": [
        {
          "internalType": "bool",
          "name": "",
          "type": "bool"
        }
      ],
      "stateMutability": "nonpayable",
      "type": "function"
    },
    {
      "inputs": [
        {
          "internalType": "address",
          "name": "to",
          "type": "address"
        },
        {
          "internalType": "uint256",
          "name": "amount",
          "type": "uint256"
        }
      ],
      "name": "wrapTo",
      "outputs": [
        {
          "internalType": "bool",
          "name": "",
          "type": "bool"
        }
      ],
      "stateMutability": "nonpayable",
      "type": "function"
    }
  ],
  "bytecode": "0x608060405234801561001057600080fd5b5061395c806100206000396000f3fe608060405234801561001057600080fd5b506004361061021a5760003560e01c806306fdde031461021f578063095ea7b31461023d5780630a17e62c146102605780630aff9d19146102725780630d148ab61461029d57806311d1e982146102b257806313e7e63b146102ba57806314663701146102e05780631624f6c61461030157806318160ddd146103145780631bab58f51461031c57806323b872dd146103cc57806325d998bb146103df578063313ce567146103f257806333bebb7714610407578063395093511461041a57806340c10f191461042d57806342bb702e146104405780634b4440f1146104555780634c11045a146104685780635370028e146104705780635932f4ff1461049b5780635a9b0b89146104b057806367c5f374146104d05780636dfbee1b146104e35780636e4d89831461050557806370a0823114610518578063748abb021461052b578063759c8be31461053e57806379cc67901461055157806381045ead14610564578063927c9d871461045557806395d89b411461057757806398acd7a61461057f5780639d5513d7146105995780639f126fbe146105d6578063a457c2d7146105e9578063a9059cbb146105fc578063b655d0c41461060f578063c043435214610620578063c4d66de814610633578063dd62ed3e14610646578063de0e9a3e1461067f578063e298a2fd14610692578063ea598cb01461069a578063f8642f29146106ad575b600080fd5b6102276106be565b6040516102349190613435565b60405180910390f35b61025061024b366004613098565b610750565b6040519015158152602001610234565b600754600160f81b900460ff16610250565b600654600160701b90046001600160601b03166040516001600160601b039091168152602001610234565b6102b06102ab3660046132a6565b610767565b005b6102b06108b9565b600754600160a01b900463ffffffff165b60405163ffffffff9091168152602001610234565b6102f36102ee366004613054565b6109ef565b604051908152602001610234565b6102b061030f3660046131f7565b610a32565b6002546102f3565b61039661032a366004612fa4565b6040805160608082018352600080835260208084018290529284018190526001600160a01b03949094168452600882529282902082519384018352546001600160701b038082168552600160701b82041691840191909152600160e01b900463ffffffff169082015290565b6040805182516001600160701b039081168252602080850151909116908201529181015163ffffffff1690820152606001610234565b6102506103da366004613014565b610ab8565b6102f36103ed366004612fa4565b610b47565b60055460405160ff9091168152602001610234565b610250610415366004613014565b610b7c565b610250610428366004613098565b610bdf565b6102b061043b366004613098565b610c16565b600654600160d01b900463ffffffff166102cb565b610250600754600160f01b900460ff1690565b6102b0610c70565b61048361047e3660046130c3565b610dba565b6040516001600160701b039091168152602001610234565b600754600160c01b900463ffffffff166102cb565b6104b8610e20565b6040516102349c9b9a99989796959493929190613448565b6102b06104de366004613366565b610fac565b600754600160e01b900461ffff165b60405161ffff9091168152602001610234565b610250610513366004613331565b6110dd565b6102f3610526366004612fa4565b611117565b6102b0610539366004613113565b611132565b6102b061054c36600461326b565b611268565b6102b061055f366004613098565b6113e8565b600654600160f01b900461ffff166104f2565b61022761143e565b6007546001600160a01b03165b6040516102349190613421565b6105ac6105a7366004613054565b61144d565b604080516001600160701b0394851681529284166020840152921691810191909152606001610234565b6102506105e4366004613098565b61146c565b6102506105f7366004613098565b611478565b61025061060a366004613098565b6114e6565b6006546001600160701b0316610483565b6102b061062e36600461334b565b6114f5565b6102b0610641366004612fa4565b61166d565b6102f3610654366004612fdc565b6001600160a01b03918216600090815260016020908152604080832093909416825291909152205490565b61025061068d3660046132de565b61171f565b61058c6117c2565b6102506106a83660046132de565b6117d6565b6102b06106bb3660046132de565b50565b6060600380546106cd906137bf565b80601f01602080910402602001604051908101604052809291908181526020018280546106f9906137bf565b80156107465780601f1061071b57610100808354040283529160200191610746565b820191906000526020600020905b81548152906001019060200180831161072957829003601f168201915b5050505050905090565b600061075d3384846117e2565b5060015b92915050565b60055460408051638da5cb5b60e01b81529051339261010090046001600160a01b031691638da5cb5b916004808301926020929190829003018186803b1580156107b057600080fd5b505afa1580156107c4573d6000803e3d6000fd5b505050506040513d601f19601f820116820180604052508101906107e89190612fc0565b6001600160a01b031614604051806040016040528060018152602001603360f81b815250906108335760405162461bcd60e51b815260040161082a9190613435565b60405180910390fd5b50604080518082019091526002815261363760f01b602082015261138861ffff831611156108745760405162461bcd60e51b815260040161082a9190613435565b506007805461ffff60e01b1916600160e01b61ffff8416908102919091179091556040519081526000805160206138c78339815191529060200160405180910390a150565b60055460408051638da5cb5b60e01b81529051339261010090046001600160a01b031691638da5cb5b916004808301926020929190829003018186803b15801561090257600080fd5b505afa158015610916573d6000803e3d6000fd5b505050506040513d601f19601f8201168201806040525081019061093a9190612fc0565b6001600160a01b031614604051806040016040528060018152602001603360f81b8152509061097c5760405162461bcd60e51b815260040161082a9190613435565b50600754604080518082019091526002815261037360f41b602082015290600160f01b900460ff16156109c25760405162461bcd60e51b815260040161082a9190613435565b506007805460ff60f01b1916600160f01b1790556040516000805160206138e783398151915290600090a1565b600080600080610a008787876118c6565b9194509250905080610a1283856135a3565b610a1c91906135a3565b6001600160701b031693505050505b9392505050565b60038054610a3f906137bf565b6040805180820190915260018152601960f91b6020820152915015610a775760405162461bcd60e51b815260040161082a9190613435565b508251610a8b906003906020860190612e73565b508151610a9f906004906020850190612e73565b506005805460ff191660ff929092169190911790555050565b6000610ac78484846000611b3d565b6001600160a01b03841660009081526001602090815260408083203384528252918290205482518084019093526002835261031360f41b918301919091529083821015610b275760405162461bcd60e51b815260040161082a9190613435565b50610b3c8533610b37868561377c565b6117e2565b506001949350505050565b6001600160a01b0381166000908152600860205260408120546001600160701b0316610b7283611117565b610761919061377c565b6005546040805180820190915260018152600d60fa1b602082015260009161010090046001600160a01b03163314610bc75760405162461bcd60e51b815260040161082a9190613435565b50610bd58484846001611b3d565b5060019392505050565b3360008181526001602090815260408083206001600160a01b0387168452909152812054909161075d918590610b379086906135ce565b6005546040805180820190915260018152600d60fa1b60208201529061010090046001600160a01b03163314610c5f5760405162461bcd60e51b815260040161082a9190613435565b50610c6c82826001611cab565b5050565b60055460408051638da5cb5b60e01b81529051339261010090046001600160a01b031691638da5cb5b916004808301926020929190829003018186803b158015610cb957600080fd5b505afa158015610ccd573d6000803e3d6000fd5b505050506040513d601f19601f82011682018060405250810190610cf19190612fc0565b6001600160a01b031614604051806040016040528060018152602001603360f81b81525090610d335760405162461bcd60e51b815260040161082a9190613435565b50600754604080518082019091526002815261373960f01b602082015290600160f81b900460ff1615610d795760405162461bcd60e51b815260040161082a9190613435565b50600780546001600160f81b0316600160f81b1790556040517feadb24812ab3c9a55c774958184293ebdb6c7f6a2dbab11f397d80c86feb65d390600090a1565b6001600160a01b0382166000908152600860209081526040808320815160608101835290546001600160701b038082168352600160701b82041693820193909352600160e01b90920463ffffffff1690820152610e18818585611d69565b949350505050565b606080600080600080600080600080600080306001600160a01b03166306fdde036040518163ffffffff1660e01b815260040160006040518083038186803b158015610e6b57600080fd5b505afa158015610e7f573d6000803e3d6000fd5b505050506040513d6000823e601f3d908101601f19168201604052610ea7919081019061318e565b306001600160a01b03166395d89b416040518163ffffffff1660e01b815260040160006040518083038186803b158015610ee057600080fd5b505afa158015610ef4573d6000803e3d6000fd5b505050506040513d6000823e601f3d908101601f19168201604052610f1c919081019061318e565b600654600754929f919e506001600160701b0381169d506001600160601b03600160701b8204169c5063ffffffff600160d01b820481169c5061ffff600160f01b9283900481169c506001600160a01b0385169b50600160a01b850482169a50600160c01b85049091169850600160e01b840416965060ff90830481169550600160f81b90920490911692509050565b6007546040805180820190915260018152601960f91b602082015290600160c01b900463ffffffff1615610ff35760405162461bcd60e51b815260040161082a9190613435565b5060078054600160a01b600160e01b031916600160a01b63ffffffff8781169190910263ffffffff60c01b191691909117600160c01b918616919091021762ffffff60e01b1916600160e01b61ffff85160260ff60f01b191617600160f01b83151502176001600160f81b031690556040516000805160206138c78339815191529061108a90849061ffff91909116815260200190565b60405180910390a160008051602061388783398151915284846040516110b1929190613535565b60405180910390a180156110d7576040516000805160206138e783398151915290600090a15b50505050565b60075460009063ffffffff808416600160a01b9092041611801590610761575050600754600160c01b900463ffffffff9081169116111590565b6001600160a01b031660009081526020819052604090205490565b6006546040805180820190915260018152601960f91b602082015290600160d01b900463ffffffff16156111795760405162461bcd60e51b815260040161082a9190613435565b50604080518082019091526002815261343360f01b602082015263ffffffff84166111b75760405162461bcd60e51b815260040161082a9190613435565b506111c18661166d565b600680546001600160701b0387166001600160d01b031990911617600160701b6001600160601b03871602176001600160d01b0316600160d01b63ffffffff8616026001600160f01b031617600160f01b61ffff851602179055600780546001600160a01b0319166001600160a01b0383161790556040516000805160206139078339815191529061125890879084908890613502565b60405180910390a1505050505050565b60055460408051638da5cb5b60e01b81529051339261010090046001600160a01b031691638da5cb5b916004808301926020929190829003018186803b1580156112b157600080fd5b505afa1580156112c5573d6000803e3d6000fd5b505050506040513d601f19601f820116820180604052508101906112e99190612fc0565b6001600160a01b031614604051806040016040528060018152602001603360f81b8152509061132b5760405162461bcd60e51b815260040161082a9190613435565b5060075460408051808201909152600281526106c760f31b6020820152906001600160a01b031661136f5760405162461bcd60e51b815260040161082a9190613435565b5060068054600780546001600160a01b0319166001600160a01b0386161790556001600160701b0385166001600160d01b031990911617600160701b6001600160601b03841602179055604051600080516020613907833981519152906113db90859085908590613502565b60405180910390a1505050565b6005546040805180820190915260018152600d60fa1b60208201529061010090046001600160a01b031633146114315760405162461bcd60e51b815260040161082a9190613435565b50610c6c82826001611df7565b6060600480546106cd906137bf565b600080600061145d8686866118c6565b92509250925093509350939050565b6000610a2b8383611f0e565b3360009081526001602090815260408083206001600160a01b038616845282528083205481518083019092526002825261313160f01b92820192909252838210156114d65760405162461bcd60e51b815260040161082a9190613435565b50610bd53385610b37868561377c565b600061075d3384846000611b3d565b60055460408051638da5cb5b60e01b81529051339261010090046001600160a01b031691638da5cb5b916004808301926020929190829003018186803b15801561153e57600080fd5b505afa158015611552573d6000803e3d6000fd5b505050506040513d601f19601f820116820180604052508101906115769190612fc0565b6001600160a01b031614604051806040016040528060018152602001603360f81b815250906115b85760405162461bcd60e51b815260040161082a9190613435565b508063ffffffff168263ffffffff16111560405180604001604052806002815260200161363960f01b815250906116025760405162461bcd60e51b815260040161082a9190613435565b506007805463ffffffff838116600160c01b0263ffffffff60c01b19918616600160a01b0291909116600160a01b600160e01b031990921691909117179055604051600080516020613887833981519152906116619084908490613535565b60405180910390a15050565b6005546040805180820190915260018152601960f91b60208201529061010090046001600160a01b0316156116b55760405162461bcd60e51b815260040161082a9190613435565b50604080518082019091526002815261353960f01b60208201526001600160a01b0382166116f65760405162461bcd60e51b815260040161082a9190613435565b50600580546001600160a01b0390921661010002610100600160a81b0319909216919091179055565b600061172d33836000611df7565b6117ba338361173a6117c2565b6001600160a01b031663644e44df6040518163ffffffff1660e01b815260040160206040518083038186803b15801561177257600080fd5b505afa158015611786573d6000803e3d6000fd5b505050506040513d601f19601f820116820180604052508101906117aa9190612fc0565b6001600160a01b03169190611ff0565b506001919050565b60055461010090046001600160a01b031690565b60006107613383611f0e565b604080518082019091526002815261062760f31b60208201526001600160a01b0384166118225760405162461bcd60e51b815260040161082a9190613435565b50604080518082019091526002815261313960f01b60208201526001600160a01b0383166118635760405162461bcd60e51b815260040161082a9190613435565b506001600160a01b0383811660008181526001602090815260408083209487168084529482529182902085905590518481527f8c5be1e5ebec7d5bd14f71427d1e84f3dd0314c0f7b2291e5b200ac8c7c3b92591015b60405180910390a3505050565b60008060006118d36117c2565b6001600160a01b0316632fb2067f876040518263ffffffff1660e01b81526004016118fe9190613421565b60206040518083038186803b15801561191657600080fd5b505afa15801561192a573d6000803e3d6000fd5b505050506040513d601f19601f8201168201806040525081019061194e91906130f7565b604051806040016040528060028152602001610d0d60f21b815250906119875760405162461bcd60e51b815260040161082a9190613435565b50611991846110dd565b60405180604001604052806002815260200161343560f01b815250906119ca5760405162461bcd60e51b815260040161082a9190613435565b5060006119d78686612058565b905060006119e36117c2565b6001600160a01b0316632261b07f6040518163ffffffff1660e01b815260040160206040518083038186803b158015611a1b57600080fd5b505afa158015611a2f573d6000803e3d6000fd5b505050506040513d601f19601f82011682018060405250810190611a539190612fc0565b6007546040516314fdc96760e11b81526001600160a01b0391821660048201526001600160701b03851660248201528a821660448201529116906329fb92ce9060640160206040518083038186803b158015611aae57600080fd5b505afa158015611ac2573d6000803e3d6000fd5b505050506040513d601f19601f82011682018060405250810190611ae691906132f6565b60075490915061271090611b0590600160e01b900461ffff16836136f4565b611b0f91906135e6565b9350611b246001600160701b0385168261377c565b9450611b3088826123ba565b9250505093509350939050565b604080518082019091526002815261189960f11b60208201526001600160a01b038516611b7d5760405162461bcd60e51b815260040161082a9190613435565b50604080518082019091526002815261313360f01b60208201526001600160a01b038416611bbe5760405162461bcd60e51b815260040161082a9190613435565b50611bcb84848484612595565b6001600160a01b0384166000908152602081815260409182902054825180840190935260028352610c4d60f21b918301919091529083821015611c215760405162461bcd60e51b815260040161082a9190613435565b50611c2c838261377c565b6001600160a01b038087166000908152602081905260408082209390935590861681529081208054859290611c629084906135ce565b92505081905550836001600160a01b0316856001600160a01b03166000805160206138a783398151915285604051611c9c91815260200190565b60405180910390a35050505050565b604080518082019091526002815261313560f01b60208201526001600160a01b038416611ceb5760405162461bcd60e51b815260040161082a9190613435565b50611cf96000848484612595565b8160026000828254611d0b91906135ce565b90915550506001600160a01b03831660009081526020819052604081208054849290611d389084906135ce565b90915550506040518281526001600160a01b038416906000906000805160206138a7833981519152906020016118b9565b600080611d7584611117565b905084602001516001600160701b0316816001600160701b03161115611dd557611dc38560400151866020015183611dad9190613754565b600654600160d01b900463ffffffff168661288d565b611dcd9082613754565b915050610a2b565b611ded8560400151828760200151611dad9190613754565b611dcd90826135a3565b604080518082019091526002815261189b60f11b60208201526001600160a01b038416611e375760405162461bcd60e51b815260040161082a9190613435565b50611e458360008484612595565b6001600160a01b038316600090815260208181526040918290205482518084019093526002835261313760f01b918301919091529083821015611e9b5760405162461bcd60e51b815260040161082a9190613435565b50611ea6838261377c565b6001600160a01b03851660009081526020819052604081209190915560028054859290611ed490849061377c565b90915550506040518381526000906001600160a01b038616906000805160206138a78339815191529060200160405180910390a350505050565b600754604080518082019091526002815261353160f01b6020820152600091600160f01b900460ff16611f545760405162461bcd60e51b815260040161082a9190613435565b50611fe4333084611f636117c2565b6001600160a01b031663644e44df6040518163ffffffff1660e01b815260040160206040518083038186803b158015611f9b57600080fd5b505afa158015611faf573d6000803e3d6000fd5b505050506040513d601f19601f82011682018060405250810190611fd39190612fc0565b6001600160a01b0316929190612a2e565b61075d83836000611cab565b6040516001600160a01b03831660248201526044810182905261205390849063a9059cbb60e01b906064015b60408051601f198184030181529190526020810180516001600160e01b03166001600160e01b031990931692909217909152612a66565b505050565b6000806120636117c2565b6001600160a01b031663aebb50416040518163ffffffff1660e01b815260040160206040518083038186803b15801561209b57600080fd5b505afa1580156120af573d6000803e3d6000fd5b505050506040513d601f19601f820116820180604052508101906120d391906132f6565b9050836001600160701b031681116120f5576001600160701b03915050610761565b6007546040805163313ce56760e01b815290516000926001600160a01b03169163313ce567916004808301926020929190829003018186803b15801561213a57600080fd5b505afa15801561214e573d6000803e3d6000fd5b505050506040513d601f19601f8201168201806040525081019061217291906133bd565b61217a6117c2565b6001600160a01b031663644e44df6040518163ffffffff1660e01b815260040160206040518083038186803b1580156121b257600080fd5b505afa1580156121c6573d6000803e3d6000fd5b505050506040513d601f19601f820116820180604052508101906121ea9190612fc0565b6001600160a01b031663313ce5676040518163ffffffff1660e01b815260040160206040518083038186803b15801561222257600080fd5b505afa158015612236573d6000803e3d6000fd5b505050506040513d601f19601f8201168201806040525081019061225a91906133bd565b6122649190613713565b90506000806122716117c2565b6001600160a01b031663faac38ef6040518163ffffffff1660e01b8152600401604080518083038186803b1580156122a857600080fd5b505afa1580156122bc573d6000803e3d6000fd5b505050506040513d601f19601f820116820180604052508101906122e0919061330e565b9150915060008663ffffffff16612301896001600160701b03168585612b38565b61230b91906136f4565b905060008460000b131561234f57604061232685600a613649565b60065461233c906001600160701b0316846136f4565b61234691906135e6565b901c90506123af565b60008460000b1215612391576040612366856137fa565b61237190600a613649565b600654612387906001600160701b0316846136f4565b61234691906136f4565b6006546040906123aa906001600160701b0316836136f4565b901c90505b979650505050505050565b6000806127106123c86117c2565b6001600160a01b031663b406bf6d6040518163ffffffff1660e01b815260040160206040518083038186803b15801561240057600080fd5b505afa158015612414573d6000803e3d6000fd5b505050506040513d601f19601f8201168201806040525081019061243891906132c2565b6124469061ffff16856136f4565b61245091906135e6565b9050600061245c6117c2565b6001600160a01b0316632261b07f6040518163ffffffff1660e01b815260040160206040518083038186803b15801561249457600080fd5b505afa1580156124a8573d6000803e3d6000fd5b505050506040513d601f19601f820116820180604052508101906124cc9190612fc0565b6007546006546040516314fdc96760e11b81526001600160a01b039283166004820152600160701b9091046001600160601b0316602482015287821660448201529116906329fb92ce9060640160206040518083038186803b15801561253157600080fd5b505afa158015612545573d6000803e3d6000fd5b505050506040513d601f19601f8201168201806040525081019061256991906132f6565b9050806001600160701b0316826001600160701b03161061258a578161258c565b805b95945050505050565b6001600160a01b03848116159084161581806125ae5750805b806125c25750600754600160f81b900460ff165b60405180604001604052806002815260200161038360f41b815250906125fb5760405162461bcd60e51b815260040161082a9190613435565b504282612770576001600160a01b038716600090815260086020908152604091829020825160608101845290546001600160701b038082168352600160701b82041692820192909252600160e01b90910463ffffffff1691810191909152612664818984611d69565b6001600160701b0316602082015263ffffffff82166040820152846126e35780516001600160701b0316866126988a611117565b6126a2919061377c565b1015604051806040016040528060028152602001610dcd60f21b815250906126dd5760405162461bcd60e51b815260040161082a9190613435565b50612702565b85816000018181516126f59190613754565b6001600160701b03169052505b6001600160a01b0388166000908152600860209081526040918290208351815492850151939094015163ffffffff16600160e01b026001600160e01b036001600160701b03948516600160701b026001600160e01b0319909416949095169390931791909117929092161790555b81612884576001600160a01b038616600090815260086020908152604091829020825160608101845290546001600160701b038082168352600160701b82041692820192909252600160e01b90910463ffffffff16918101919091526127d7818884611d69565b6001600160701b0316602082015263ffffffff82166040820152841561281657858160000181815161280991906135a3565b6001600160701b03169052505b6001600160a01b0387166000908152600860209081526040918290208351815492850151939094015163ffffffff16600160e01b026001600160e01b036001600160701b03948516600160701b026001600160e01b0319909416949095169390931791909117929092161790555b50505050505050565b60008463ffffffff168263ffffffff161015604051806040016040528060018152602001600760fb1b815250906128d75760405162461bcd60e51b815260040161082a9190613435565b5084820391508263ffffffff168263ffffffff168161290657634e487b7160e01b600052601260045260246000fd5b0463ffffffff16846001600160701b0316901c93508263ffffffff168263ffffffff168161294457634e487b7160e01b600052601260045260246000fd5b06915063ffffffff8216158061296157506001600160701b038416155b1561296d575082610e18565b60006001600160701b0385168163ffffffff86811690861671b17217f7d1cf79abc9e3b39803f2f6af40f302816129b457634e487b7160e01b600052601260045260246000fd5b049050600160901b5b8215612a21579282019280828402816129e657634e487b7160e01b600052601260045260246000fd5b0493849003939250600160901b018082840281612a1357634e487b7160e01b600052601260045260246000fd5b049250600160901b016129bd565b5091979650505050505050565b6040516001600160a01b03808516602483015283166044820152606481018290526110d79085906323b872dd60e01b9060840161201c565b6000612abb826040518060400160405280602081526020017f5361666545524332303a206c6f772d6c6576656c2063616c6c206661696c6564815250856001600160a01b0316612c6f9092919063ffffffff16565b8051909150156120535780806020019051810190612ad991906130f7565b6120535760405162461bcd60e51b815260206004820152602a60248201527f5361666545524332303a204552433230206f7065726174696f6e20646964206e6044820152691bdd081cdd58d8d9595960b21b606482015260840161082a565b600080612b436117c2565b6001600160a01b031663fcb2884e6040518163ffffffff1660e01b815260040160206040518083038186803b158015612b7b57600080fd5b505afa158015612b8f573d6000803e3d6000fd5b505050506040513d601f19601f82011682018060405250810190612bb391906132f6565b90506000612bbf6117c2565b6001600160a01b03166359bf5d396040518163ffffffff1660e01b815260040160206040518083038186803b158015612bf757600080fd5b505afa158015612c0b573d6000803e3d6000fd5b505050506040513d601f19601f82011682018060405250810190612c2f91906132f6565b9050612c3d82868684612c7e565b612c5b612c536001600160801b038916856135ce565b878785612c7e565b612c65919061377c565b9695505050505050565b6060610e188484600085612cc1565b60006040612cac8382612c91898361377c565b612c9c92911b6135e6565b6001600160801b03168686612dde565b612cb690876136f4565b901c95945050505050565b606082471015612d225760405162461bcd60e51b815260206004820152602660248201527f416464726573733a20696e73756666696369656e742062616c616e636520666f6044820152651c8818d85b1b60d21b606482015260840161082a565b843b612d705760405162461bcd60e51b815260206004820152601d60248201527f416464726573733a2063616c6c20746f206e6f6e2d636f6e7472616374000000604482015260640161082a565b600080866001600160a01b03168587604051612d8c9190613405565b60006040518083038185875af1925050503d8060008114612dc9576040519150601f19603f3d011682016040523d82523d6000602084013e612dce565b606091505b50915091506123af828286612e3a565b6000828411612df557506001600160801b03610a2b565b612e0382600160401b61377c565b612e0d848661377c565b83612e1c86600160401b61377c565b612e2691906136f4565b612e3091906135e6565b610e1891906135ce565b60608315612e49575081610a2b565b825115612e595782518084602001fd5b8160405162461bcd60e51b815260040161082a9190613435565b828054612e7f906137bf565b90600052602060002090601f016020900481019282612ea15760008555612ee7565b82601f10612eba57805160ff1916838001178555612ee7565b82800160010185558215612ee7579182015b82811115612ee7578251825591602001919060010190612ecc565b50612ef3929150612ef7565b5090565b5b80821115612ef35760008155600101612ef8565b600082601f830112612f1c578081fd5b8135612f2f612f2a8261357c565b61354c565b818152846020838601011115612f43578283fd5b816020850160208301379081016020019190915292915050565b80356001600160701b0381168114612f7457600080fd5b919050565b803563ffffffff81168114612f7457600080fd5b80356001600160601b0381168114612f7457600080fd5b600060208284031215612fb5578081fd5b8135610a2b81613844565b600060208284031215612fd1578081fd5b8151610a2b81613844565b60008060408385031215612fee578081fd5b8235612ff981613844565b9150602083013561300981613844565b809150509250929050565b600080600060608486031215613028578081fd5b833561303381613844565b9250602084013561304381613844565b929592945050506040919091013590565b600080600060608486031215613068578283fd5b833561307381613844565b925061308160208501612f5d565b915061308f60408501612f79565b90509250925092565b600080604083850312156130aa578182fd5b82356130b581613844565b946020939093013593505050565b600080604083850312156130d5578182fd5b82356130e081613844565b91506130ee60208401612f79565b90509250929050565b600060208284031215613108578081fd5b8151610a2b81613859565b60008060008060008060c0878903121561312b578384fd5b863561313681613844565b955061314460208801612f5d565b945061315260408801612f8d565b935061316060608801612f79565b9250608087013561317081613867565b915060a087013561318081613844565b809150509295509295509295565b60006020828403121561319f578081fd5b81516001600160401b038111156131b4578182fd5b8201601f810184136131c4578182fd5b80516131d2612f2a8261357c565b8181528560208385010111156131e6578384fd5b61258c826020830160208601613793565b60008060006060848603121561320b578081fd5b83356001600160401b0380821115613221578283fd5b61322d87838801612f0c565b94506020860135915080821115613242578283fd5b5061324f86828701612f0c565b925050604084013561326081613877565b809150509250925092565b60008060006060848603121561327f578081fd5b61328884612f5d565b9250602084013561329881613844565b915061308f60408501612f8d565b6000602082840312156132b7578081fd5b8135610a2b81613867565b6000602082840312156132d3578081fd5b8151610a2b81613867565b6000602082840312156132ef578081fd5b5035919050565b600060208284031215613307578081fd5b5051919050565b60008060408385031215613320578182fd5b505080516020909101519092909150565b600060208284031215613342578081fd5b610a2b82612f79565b6000806040838503121561335d578182fd5b6130e083612f79565b6000806000806080858703121561337b578182fd5b61338485612f79565b935061339260208601612f79565b925060408501356133a281613867565b915060608501356133b281613859565b939692955090935050565b6000602082840312156133ce578081fd5b8151610a2b81613877565b600081518084526133f1816020860160208601613793565b601f01601f19169290920160200192915050565b60008251613417818460208701613793565b9190910192915050565b6001600160a01b0391909116815260200190565b602081526000610a2b60208301846133d9565b6101808152600061345d61018083018f6133d9565b828103602084015261346f818f6133d9565b6001600160701b038e1660408501526001600160601b038d16606085015263ffffffff8c16608085015261ffff8b1660a08501526001600160a01b038a1660c085015291506134bb9050565b63ffffffff871660e083015263ffffffff861661010083015261ffff85166101208301528315156101408301528215156101608301529d9c50505050505050505050505050565b6001600160701b039390931683526001600160a01b039190911660208301526001600160601b0316604082015260600190565b63ffffffff92831681529116602082015260400190565b604051601f8201601f191681016001600160401b03811182821017156135745761357461382e565b604052919050565b60006001600160401b038211156135955761359561382e565b50601f01601f191660200190565b60006001600160701b038281168482168083038211156135c5576135c5613818565b01949350505050565b600082198211156135e1576135e1613818565b500190565b60008261360157634e487b7160e01b81526012600452602481fd5b500490565b600181815b8085111561364157816000190482111561362757613627613818565b8085161561363457918102915b93841c939080029061360b565b509250929050565b6000610a2b60ff84168360008261366257506001610761565b8161366f57506000610761565b8160018114613685576002811461368f576136ab565b6001915050610761565b60ff8411156136a0576136a0613818565b50506001821b610761565b5060208310610133831016604e8410600b84101617156136ce575081810a610761565b6136d88383613606565b80600019048211156136ec576136ec613818565b029392505050565b600081600019048311821515161561370e5761370e613818565b500290565b600081810b83820b8281128015607f1983018412161561373557613735613818565b81607f01831381161561374a5761374a613818565b5090039392505050565b60006001600160701b038381169083168181101561377457613774613818565b039392505050565b60008282101561378e5761378e613818565b500390565b60005b838110156137ae578181015183820152602001613796565b838111156110d75750506000910152565b600181811c908216806137d357607f821691505b602082108114156137f457634e487b7160e01b600052602260045260246000fd5b50919050565b600081810b607f1981141561381157613811613818565b9003919050565b634e487b7160e01b600052601160045260246000fd5b634e487b7160e01b600052604160045260246000fd5b6001600160a01b03811681146106bb57600080fd5b80151581146106bb57600080fd5b61ffff811681146106bb57600080fd5b60ff811681146106bb57600080fdfe1ff66a89a0dcb0d94c8284280cbf0fb7190e7d935e15b6b48513e08b84fd9c7bddf252ad1be2c89b69c2b068fc378daa952ba7f163c4a11628f55a4df523b3ef7b5d5b53df75c87d5bea0f0535cd81a355db537ee2ca5dcea9849433d99847b9dfece24f40d1e9a11dfa12d687382e8836c79a50268209551fe53b0333ed793c2833a6b2910014b082775316936860d808d821fc59634fa08bc19c19427fa99da2646970667358221220f5087ca876e8db9b1b5bb0edf7ad77daa7950bf4b26943f8f14fd7824c7b2aa964736f6c63430008040033",
  "linkReferences": {},
  "deployedLinkReferences": {}
}