{
  "_format": "hh-sol-artifact-1",
  "contractName": "PowerToken",
  "sourceName": "contracts/PowerToken.sol",
  "abi": [
    {
      "anonymous": false,
      "inputs": [
        {
          "indexed": true,
          "internalType": "address",
          "name": "owner",
          "type": "address"
        },
        {
          "indexed": true,
          "internalType": "address",
          "name": "spender",
          "type": "address"
        },
        {
          "indexed": false,
          "internalType": "uint256",
          "name": "value",
          "type": "uint256"
        }
      ],
      "name": "Approval",
      "type": "event"
    },
    {
      "anonymous": false,
      "inputs": [
        {
          "indexed": true,
          "internalType": "address",
          "name": "previousOwner",
          "type": "address"
        },
        {
          "indexed": true,
          "internalType": "address",
          "name": "newOwner",
          "type": "address"
        }
      ],
      "name": "OwnershipTransferred",
      "type": "event"
    },
    {
      "anonymous": false,
      "inputs": [
        {
          "indexed": true,
          "internalType": "address",
          "name": "from",
          "type": "address"
        },
        {
          "indexed": true,
          "internalType": "address",
          "name": "to",
          "type": "address"
        },
        {
          "indexed": false,
          "internalType": "uint256",
          "name": "value",
          "type": "uint256"
        }
      ],
      "name": "Transfer",
      "type": "event"
    },
    {
      "inputs": [
        {
          "internalType": "address",
          "name": "owner",
          "type": "address"
        },
        {
          "internalType": "address",
          "name": "spender",
          "type": "address"
        }
      ],
      "name": "allowance",
      "outputs": [
        {
          "internalType": "uint256",
          "name": "",
          "type": "uint256"
        }
      ],
      "stateMutability": "view",
      "type": "function"
    },
    {
      "inputs": [
        {
          "internalType": "address",
          "name": "spender",
          "type": "address"
        },
        {
          "internalType": "uint256",
          "name": "amount",
          "type": "uint256"
        }
      ],
      "name": "approve",
      "outputs": [
        {
          "internalType": "bool",
          "name": "",
          "type": "bool"
        }
      ],
      "stateMutability": "nonpayable",
      "type": "function"
    },
    {
      "inputs": [
        {
          "internalType": "address",
          "name": "account",
          "type": "address"
        }
      ],
      "name": "availableBalanceOf",
      "outputs": [
        {
          "internalType": "uint256",
          "name": "",
          "type": "uint256"
        }
      ],
      "stateMutability": "view",
      "type": "function"
    },
    {
      "inputs": [
        {
          "internalType": "address",
          "name": "account",
          "type": "address"
        }
      ],
      "name": "balanceOf",
      "outputs": [
        {
          "internalType": "uint256",
          "name": "",
          "type": "uint256"
        }
      ],
      "stateMutability": "view",
      "type": "function"
    },
    {
      "inputs": [
        {
          "internalType": "address",
          "name": "account",
          "type": "address"
        },
        {
          "internalType": "uint256",
          "name": "value",
          "type": "uint256"
        }
      ],
      "name": "burnFrom",
      "outputs": [],
      "stateMutability": "nonpayable",
      "type": "function"
    },
    {
      "inputs": [],
      "name": "decimals",
      "outputs": [
        {
          "internalType": "uint8",
          "name": "",
          "type": "uint8"
        }
      ],
      "stateMutability": "view",
      "type": "function"
    },
    {
      "inputs": [
        {
          "internalType": "address",
          "name": "spender",
          "type": "address"
        },
        {
          "internalType": "uint256",
          "name": "subtractedValue",
          "type": "uint256"
        }
      ],
      "name": "decreaseAllowance",
      "outputs": [
        {
          "internalType": "bool",
          "name": "",
          "type": "bool"
        }
      ],
      "stateMutability": "nonpayable",
      "type": "function"
    },
    {
      "inputs": [
        {
          "internalType": "address",
          "name": "who",
          "type": "address"
        },
        {
          "internalType": "uint32",
          "name": "timestamp",
          "type": "uint32"
        }
      ],
      "name": "energyAt",
      "outputs": [
        {
          "internalType": "uint112",
          "name": "",
          "type": "uint112"
        }
      ],
      "stateMutability": "view",
      "type": "function"
    },
    {
      "inputs": [
        {
          "internalType": "address",
          "name": "from",
          "type": "address"
        },
        {
          "internalType": "address",
          "name": "to",
          "type": "address"
        },
        {
          "internalType": "uint256",
          "name": "amount",
          "type": "uint256"
        }
      ],
      "name": "forceTransfer",
      "outputs": [
        {
          "internalType": "bool",
          "name": "",
          "type": "bool"
        }
      ],
      "stateMutability": "nonpayable",
      "type": "function"
    },
    {
      "inputs": [
        {
          "internalType": "address",
          "name": "spender",
          "type": "address"
        },
        {
          "internalType": "uint256",
          "name": "addedValue",
          "type": "uint256"
        }
      ],
      "name": "increaseAllowance",
      "outputs": [
        {
          "internalType": "bool",
          "name": "",
          "type": "bool"
        }
      ],
      "stateMutability": "nonpayable",
      "type": "function"
    },
    {
      "inputs": [
        {
          "internalType": "string",
          "name": "name",
          "type": "string"
        },
        {
          "internalType": "string",
          "name": "symbol",
          "type": "string"
        },
        {
          "internalType": "contract EnterpriseConfigurator",
          "name": "configurator",
          "type": "address"
        }
      ],
      "name": "initialize",
      "outputs": [],
      "stateMutability": "nonpayable",
      "type": "function"
    },
    {
      "inputs": [
        {
          "internalType": "string",
          "name": "name_",
          "type": "string"
        },
        {
          "internalType": "string",
          "name": "symbol_",
          "type": "string"
        }
      ],
      "name": "initialize",
      "outputs": [],
      "stateMutability": "nonpayable",
      "type": "function"
    },
    {
      "inputs": [
        {
          "internalType": "address",
          "name": "initialOwner",
          "type": "address"
        }
      ],
      "name": "initialize",
      "outputs": [],
      "stateMutability": "nonpayable",
      "type": "function"
    },
    {
      "inputs": [
        {
          "internalType": "address",
          "name": "to",
          "type": "address"
        },
        {
          "internalType": "uint256",
          "name": "value",
          "type": "uint256"
        }
      ],
      "name": "mint",
      "outputs": [],
      "stateMutability": "nonpayable",
      "type": "function"
    },
    {
      "inputs": [],
      "name": "name",
      "outputs": [
        {
          "internalType": "string",
          "name": "",
          "type": "string"
        }
      ],
      "stateMutability": "view",
      "type": "function"
    },
    {
      "inputs": [],
      "name": "owner",
      "outputs": [
        {
          "internalType": "address",
          "name": "",
          "type": "address"
        }
      ],
      "stateMutability": "view",
      "type": "function"
    },
    {
      "inputs": [],
      "name": "symbol",
      "outputs": [
        {
          "internalType": "string",
          "name": "",
          "type": "string"
        }
      ],
      "stateMutability": "view",
      "type": "function"
    },
    {
      "inputs": [],
      "name": "totalSupply",
      "outputs": [
        {
          "internalType": "uint256",
          "name": "",
          "type": "uint256"
        }
      ],
      "stateMutability": "view",
      "type": "function"
    },
    {
      "inputs": [
        {
          "internalType": "address",
          "name": "recipient",
          "type": "address"
        },
        {
          "internalType": "uint256",
          "name": "amount",
          "type": "uint256"
        }
      ],
      "name": "transfer",
      "outputs": [
        {
          "internalType": "bool",
          "name": "",
          "type": "bool"
        }
      ],
      "stateMutability": "nonpayable",
      "type": "function"
    },
    {
      "inputs": [
        {
          "internalType": "address",
          "name": "sender",
          "type": "address"
        },
        {
          "internalType": "address",
          "name": "recipient",
          "type": "address"
        },
        {
          "internalType": "uint256",
          "name": "amount",
          "type": "uint256"
        }
      ],
      "name": "transferFrom",
      "outputs": [
        {
          "internalType": "bool",
          "name": "",
          "type": "bool"
        }
      ],
      "stateMutability": "nonpayable",
      "type": "function"
    },
    {
      "inputs": [
        {
          "internalType": "address",
          "name": "newOwner",
          "type": "address"
        }
      ],
      "name": "transferOwnership",
      "outputs": [],
      "stateMutability": "nonpayable",
      "type": "function"
    },
    {
      "inputs": [
        {
          "internalType": "contract IERC20",
          "name": "liquidityToken",
          "type": "address"
        },
        {
          "internalType": "address",
          "name": "account",
          "type": "address"
        },
        {
          "internalType": "uint256",
          "name": "amount",
          "type": "uint256"
        }
      ],
      "name": "unwrap",
      "outputs": [],
      "stateMutability": "nonpayable",
      "type": "function"
    },
    {
      "inputs": [
        {
          "internalType": "contract IERC20",
          "name": "liquidityToken",
          "type": "address"
        },
        {
          "internalType": "address",
          "name": "from",
          "type": "address"
        },
        {
          "internalType": "address",
          "name": "to",
          "type": "address"
        },
        {
          "internalType": "uint256",
          "name": "amount",
          "type": "uint256"
        }
      ],
      "name": "wrap",
      "outputs": [],
      "stateMutability": "nonpayable",
      "type": "function"
    }
  ],
  "bytecode": "0x608060405234801561001057600080fd5b50612174806100206000396000f3fe608060405234801561001057600080fd5b506004361061018d5760003560e01c80635370028e116100e3578063a1571a571161008c578063c4d66de811610066578063c4d66de81461076e578063dd62ed3e14610794578063f2fde38b146107c25761018d565b8063a1571a57146106da578063a457c2d714610716578063a9059cbb146107425761018d565b80638cc7104f116100bd5780638cc7104f146106785780638da5cb5b146106ae57806395d89b41146106d25761018d565b80635370028e146105d857806370a082311461062657806379cc67901461064c5761018d565b806325d998bb11610145578063395093511161011f578063395093511461045357806340c10f191461047f5780634cd88b76146104ab5761018d565b806325d998bb146103d9578063313ce567146103ff57806333bebb771461041d5761018d565b8063095ea7b311610176578063095ea7b31461034957806318160ddd1461038957806323b872dd146103a35761018d565b806306fdde0314610192578063077f224a1461020f575b600080fd5b61019a6107e8565b6040805160208082528351818301528351919283929083019185019080838360005b838110156101d45781810151838201526020016101bc565b50505050905090810190601f1680156102015780820380516001836020036101000a031916815260200191505b509250505060405180910390f35b6103476004803603606081101561022557600080fd5b81019060208101813564010000000081111561024057600080fd5b82018360208201111561025257600080fd5b8035906020019184600183028401116401000000008311171561027457600080fd5b91908080601f01602080910402602001604051908101604052809392919081815260200183838082843760009201919091525092959493602081019350359150506401000000008111156102c757600080fd5b8201836020820111156102d957600080fd5b803590602001918460018302840111640100000000831117156102fb57600080fd5b91908080601f016020809104026020016040519081016040528093929190818152602001838380828437600092019190915250929550505090356001600160a01b0316915061087e9050565b005b6103756004803603604081101561035f57600080fd5b506001600160a01b038135169060200135610986565b604080519115158252519081900360200190f35b61039161099c565b60408051918252519081900360200190f35b610375600480360360608110156103b957600080fd5b506001600160a01b038135811691602081013590911690604001356109a2565b610391600480360360208110156103ef57600080fd5b50356001600160a01b0316610a0e565b610407610a44565b6040805160ff9092168252519081900360200190f35b6103756004803603606081101561043357600080fd5b506001600160a01b03813581169160208101359091169060400135610a4d565b6103756004803603604081101561046957600080fd5b506001600160a01b038135169060200135610ac1565b6103476004803603604081101561049557600080fd5b506001600160a01b038135169060200135610af7565b610347600480360360408110156104c157600080fd5b8101906020810181356401000000008111156104dc57600080fd5b8201836020820111156104ee57600080fd5b8035906020019184600183028401116401000000008311171561051057600080fd5b91908080601f016020809104026020016040519081016040528093929190818152602001838380828437600092019190915250929594936020810193503591505064010000000081111561056357600080fd5b82018360208201111561057557600080fd5b8035906020019184600183028401116401000000008311171561059757600080fd5b91908080601f016020809104026020016040519081016040528093929190818152602001838380828437600092019190915250929550610b6b945050505050565b61060a600480360360408110156105ee57600080fd5b5080356001600160a01b0316906020013563ffffffff16610c0c565b604080516001600160701b039092168252519081900360200190f35b6103916004803603602081101561063c57600080fd5b50356001600160a01b0316610c72565b6103476004803603604081101561066257600080fd5b506001600160a01b038135169060200135610c8d565b6103476004803603606081101561068e57600080fd5b506001600160a01b03813581169160208101359091169060400135610cfd565b6106b6610d86565b604080516001600160a01b039092168252519081900360200190f35b61019a610d9a565b610347600480360360808110156106f057600080fd5b506001600160a01b03813581169160208101358216916040820135169060600135610dfb565b6103756004803603604081101561072c57600080fd5b506001600160a01b038135169060200135610e86565b6103756004803603604081101561075857600080fd5b506001600160a01b038135169060200135610ed5565b6103476004803603602081101561078457600080fd5b50356001600160a01b0316610ee4565b610391600480360360408110156107aa57600080fd5b506001600160a01b0381358116916020013516610f92565b610347600480360360208110156107d857600080fd5b50356001600160a01b0316610fbd565b60038054604080516020601f60026000196101006001881615020190951694909404938401819004810282018101909252828152606093909290918301828280156108745780601f1061084957610100808354040283529160200191610874565b820191906000526020600020905b81548152906001019060200180831161085757829003601f168201915b5050505050905090565b6007546001600160a01b0316156108dc576040805162461bcd60e51b815260206004820152601360248201527f416c726561647920696e697469616c697a656400000000000000000000000000604482015290519081900360640190fd5b6001600160a01b038116610937576040805162461bcd60e51b815260206004820152601460248201527f496e76616c696420636f6e666967757261746f72000000000000000000000000604482015290519081900360640190fd5b61094033610ee4565b61094a8383610b6b565b600780547fffffffffffffffffffffffff0000000000000000000000000000000000000000166001600160a01b03929092169190911790555050565b60006109933384846110da565b50600192915050565b60025490565b60006109b184848460006111c6565b610a0384336109fe85604051806060016040528060288152602001612035602891396001600160a01b038a1660009081526001602090815260408083203384529091529020549190611323565b6110da565b5060015b9392505050565b6001600160a01b03811660009081526006602052604081208054610a07906001600160701b0316610a3e85610c72565b906113ba565b60055460ff1690565b60055460009061010090046001600160a01b03163314610ab4576040805162461bcd60e51b815260206004820181905260248201527f4f776e61626c653a2063616c6c6572206973206e6f7420746865206f776e6572604482015290519081900360640190fd5b610a0384848460016111c6565b3360008181526001602090815260408083206001600160a01b038716845290915281205490916109939185906109fe9086611417565b60055461010090046001600160a01b03163314610b5b576040805162461bcd60e51b815260206004820181905260248201527f4f776e61626c653a2063616c6c6572206973206e6f7420746865206f776e6572604482015290519081900360640190fd5b610b6782826001611471565b5050565b6003546002600019610100600184161502019091160415610bd3576040805162461bcd60e51b815260206004820152601360248201527f416c726561647920696e697469616c697a656400000000000000000000000000604482015290519081900360640190fd5b8151610be6906003906020850190611ee0565b508051610bfa906004906020840190611ee0565b50506005805460ff1916601217905550565b6001600160a01b0382166000908152600660209081526040808320815160608101835290546001600160701b038082168352600160701b82041693820193909352600160e01b90920463ffffffff1690820152610c6a818585611563565b949350505050565b6001600160a01b031660009081526020819052604090205490565b60055461010090046001600160a01b03163314610cf1576040805162461bcd60e51b815260206004820181905260248201527f4f776e61626c653a2063616c6c6572206973206e6f7420746865206f776e6572604482015290519081900360640190fd5b610b6782826001611685565b60055461010090046001600160a01b03163314610d61576040805162461bcd60e51b815260206004820181905260248201527f4f776e61626c653a2063616c6c6572206973206e6f7420746865206f776e6572604482015290519081900360640190fd5b610d6d82826000611685565b610d816001600160a01b0384168383611783565b505050565b60055461010090046001600160a01b031690565b60048054604080516020601f60026000196101006001881615020190951694909404938401819004810282018101909252828152606093909290918301828280156108745780601f1061084957610100808354040283529160200191610874565b60055461010090046001600160a01b03163314610e5f576040805162461bcd60e51b815260206004820181905260248201527f4f776e61626c653a2063616c6c6572206973206e6f7420746865206f776e6572604482015290519081900360640190fd5b610e746001600160a01b0385168430846117ee565b610e8082826000611471565b50505050565b600061099333846109fe8560405180606001604052806025815260200161211a602591393360009081526001602090815260408083206001600160a01b038d1684529091529020549190611323565b600061099333848460006111c6565b60055461010090046001600160a01b031615610f315760405162461bcd60e51b815260040180806020018281038252602981526020018061205d6029913960400191505060405180910390fd5b6005805474ffffffffffffffffffffffffffffffffffffffff0019166101006001600160a01b038416908102919091179091556040516000907f8be0079c531659141344cd1fd0a4f28419497f9722a3daafe3b4186f6b6457e0908290a350565b6001600160a01b03918216600090815260016020908152604080832093909416825291909152205490565b60055461010090046001600160a01b03163314611021576040805162461bcd60e51b815260206004820181905260248201527f4f776e61626c653a2063616c6c6572206973206e6f7420746865206f776e6572604482015290519081900360640190fd5b6001600160a01b0381166110665760405162461bcd60e51b8152600401808060200182810382526026815260200180611fc76026913960400191505060405180910390fd5b6005546040516001600160a01b0380841692610100900416907f8be0079c531659141344cd1fd0a4f28419497f9722a3daafe3b4186f6b6457e090600090a3600580546001600160a01b039092166101000274ffffffffffffffffffffffffffffffffffffffff0019909216919091179055565b6001600160a01b03831661111f5760405162461bcd60e51b81526004018080602001828103825260248152602001806120cc6024913960400191505060405180910390fd5b6001600160a01b0382166111645760405162461bcd60e51b8152600401808060200182810382526022815260200180611fed6022913960400191505060405180910390fd5b6001600160a01b03808416600081815260016020908152604080832094871680845294825291829020859055815185815291517f8c5be1e5ebec7d5bd14f71427d1e84f3dd0314c0f7b2291e5b200ac8c7c3b9259281900390910190a3505050565b6001600160a01b03841661120b5760405162461bcd60e51b81526004018080602001828103825260258152602001806120a76025913960400191505060405180910390fd5b6001600160a01b0383166112505760405162461bcd60e51b8152600401808060200182810382526023815260200180611f826023913960400191505060405180910390fd5b61125c84848484611861565b6112998260405180606001604052806026815260200161200f602691396001600160a01b0387166000908152602081905260409020549190611323565b6001600160a01b0380861660009081526020819052604080822093909355908516815220546112c89083611417565b6001600160a01b038085166000818152602081815260409182902094909455805186815290519193928816927fddf252ad1be2c89b69c2b068fc378daa952ba7f163c4a11628f55a4df523b3ef92918290030190a350505050565b600081848411156113b25760405162461bcd60e51b81526004018080602001828103825283818151815260200191508051906020019080838360005b8381101561137757818101518382015260200161135f565b50505050905090810190601f1680156113a45780820380516001836020036101000a031916815260200191505b509250505060405180910390fd5b505050900390565b600082821115611411576040805162461bcd60e51b815260206004820152601e60248201527f536166654d6174683a207375627472616374696f6e206f766572666c6f770000604482015290519081900360640190fd5b50900390565b600082820183811015610a07576040805162461bcd60e51b815260206004820152601b60248201527f536166654d6174683a206164646974696f6e206f766572666c6f770000000000604482015290519081900360640190fd5b6001600160a01b0383166114cc576040805162461bcd60e51b815260206004820152601f60248201527f45524332303a206d696e7420746f20746865207a65726f206164647265737300604482015290519081900360640190fd5b6114d96000848484611861565b6002546114e69083611417565b6002556001600160a01b03831660009081526020819052604090205461150c9083611417565b6001600160a01b0384166000818152602081815260408083209490945583518681529351929391927fddf252ad1be2c89b69c2b068fc378daa952ba7f163c4a11628f55a4df523b3ef9281900390910190a3505050565b60008061156f84610c72565b905084602001516001600160701b0316816001600160701b03161115611623576040808601516020808801516007548451638fcfd8b360e01b8152306004820152945161161a95928703936001600160a01b0390921692638fcfd8b3926024808301939192829003018186803b1580156115e857600080fd5b505afa1580156115fc573d6000803e3d6000fd5b505050506040513d602081101561161257600080fd5b505186611b49565b90039050610a07565b6040808601516020808801516007548451638fcfd8b360e01b8152306004820152945161167d9592879003936001600160a01b0390921692638fcfd8b3926024808301939192829003018186803b1580156115e857600080fd5b019050610a07565b6001600160a01b0383166116ca5760405162461bcd60e51b81526004018080602001828103825260218152602001806120866021913960400191505060405180910390fd5b6116d78360008484611861565b61171482604051806060016040528060228152602001611fa5602291396001600160a01b0386166000908152602081905260409020549190611323565b6001600160a01b03841660009081526020819052604090205560025461173a90836113ba565b6002556040805183815290516000916001600160a01b038616917fddf252ad1be2c89b69c2b068fc378daa952ba7f163c4a11628f55a4df523b3ef9181900360200190a3505050565b604080516001600160a01b038416602482015260448082018490528251808303909101815260649091019091526020810180516001600160e01b03167fa9059cbb00000000000000000000000000000000000000000000000000000000179052610d81908490611c9e565b604080516001600160a01b0380861660248301528416604482015260648082018490528251808303909101815260849091019091526020810180516001600160e01b03167f23b872dd00000000000000000000000000000000000000000000000000000000179052610e80908590611c9e565b426001600160a01b03851615611a0a576001600160a01b038516600090815260066020908152604091829020825160608101845290546001600160701b038082168352600160701b82041692820192909252600160e01b90910463ffffffff16918101919091526118d3818784611563565b6001600160701b0316602082015263ffffffff82166040820152826119625780516001600160701b031661190a85610a3e89610c72565b101561195d576040805162461bcd60e51b815260206004820152601e60248201527f496e73756666756369656e7420617661696c61626c652062616c616e63650000604482015290519081900360640190fd5b611973565b80518490036001600160701b031681525b6001600160a01b0386166000908152600660209081526040918290208351815492850151939094015163ffffffff16600160e01b026001600160e01b036001600160701b03948516600160701b027fffffffff0000000000000000000000000000ffffffffffffffffffffffffffff959096166dffffffffffffffffffffffffffff19909416939093179390931693909317161790555b6001600160a01b03841615611b42576001600160a01b038416600090815260066020908152604091829020825160608101845290546001600160701b038082168352600160701b82041692820192909252600160e01b90910463ffffffff1691810191909152611a7b818684611563565b6001600160701b0316602082015263ffffffff821660408201528215611aab57805184016001600160701b031681525b6001600160a01b0385166000908152600660209081526040918290208351815492850151939094015163ffffffff16600160e01b026001600160e01b036001600160701b03948516600160701b027fffffffff0000000000000000000000000000ffffffffffffffffffffffffffff959096166dffffffffffffffffffffffffffff19909416939093179390931693909317161790555b5050505050565b60008463ffffffff168263ffffffff161015611bac576040805162461bcd60e51b815260206004820152600e60248201527f496e76616c696420706572696f64000000000000000000000000000000000000604482015290519081900360640190fd5b84820391508263ffffffff168263ffffffff1681611bc657fe5b0463ffffffff16846001600160701b0316901c93508263ffffffff168263ffffffff1681611bf057fe5b06915063ffffffff82161580611c0d57506001600160701b038416155b15611c19575082610c6a565b60006001600160701b0385168163ffffffff86811690861671b17217f7d1cf79abc9e3b39803f2f6af40f30281611c4c57fe5b049050600160901b5b8215611c9157928201928082840281611c6a57fe5b0493849003939250600160901b018082840281611c8357fe5b049250600160901b01611c55565b5091979650505050505050565b6000611cf3826040518060400160405280602081526020017f5361666545524332303a206c6f772d6c6576656c2063616c6c206661696c6564815250856001600160a01b0316611d4f9092919063ffffffff16565b805190915015610d8157808060200190516020811015611d1257600080fd5b5051610d815760405162461bcd60e51b815260040180806020018281038252602a8152602001806120f0602a913960400191505060405180910390fd5b6060610c6a848460008585611d6385611e74565b611db4576040805162461bcd60e51b815260206004820152601d60248201527f416464726573733a2063616c6c20746f206e6f6e2d636f6e7472616374000000604482015290519081900360640190fd5b600080866001600160a01b031685876040518082805190602001908083835b60208310611df25780518252601f199092019160209182019101611dd3565b6001836020036101000a03801982511681845116808217855250505050505090500191505060006040518083038185875af1925050503d8060008114611e54576040519150601f19603f3d011682016040523d82523d6000602084013e611e59565b606091505b5091509150611e69828286611e7a565b979650505050505050565b3b151590565b60608315611e89575081610a07565b825115611e995782518084602001fd5b60405162461bcd60e51b815260206004820181815284516024840152845185939192839260440191908501908083836000831561137757818101518382015260200161135f565b828054600181600116156101000203166002900490600052602060002090601f016020900481019282611f165760008555611f5c565b82601f10611f2f57805160ff1916838001178555611f5c565b82800160010185558215611f5c579182015b82811115611f5c578251825591602001919060010190611f41565b50611f68929150611f6c565b5090565b5b80821115611f685760008155600101611f6d56fe45524332303a207472616e7366657220746f20746865207a65726f206164647265737345524332303a206275726e20616d6f756e7420657863656564732062616c616e63654f776e61626c653a206e6577206f776e657220697320746865207a65726f206164647265737345524332303a20617070726f766520746f20746865207a65726f206164647265737345524332303a207472616e7366657220616d6f756e7420657863656564732062616c616e636545524332303a207472616e7366657220616d6f756e74206578636565647320616c6c6f77616e6365496e697469616c697a61626c654f776e61626c653a20616c726561647920696e697469616c697a656445524332303a206275726e2066726f6d20746865207a65726f206164647265737345524332303a207472616e736665722066726f6d20746865207a65726f206164647265737345524332303a20617070726f76652066726f6d20746865207a65726f20616464726573735361666545524332303a204552433230206f7065726174696f6e20646964206e6f74207375636365656445524332303a2064656372656173656420616c6c6f77616e63652062656c6f77207a65726fa2646970667358221220ae3f98df430a0280dded5c3e5f527a40caaae555a1911e3cd30e6fb11e8f1dca64736f6c63430007060033",
  "linkReferences": {},
  "deployedLinkReferences": {}
}