{
  "_format": "hh-sol-artifact-1",
  "contractName": "PowerToken",
  "sourceName": "contracts/PowerToken.sol",
  "abi": [
    {
      "anonymous": false,
      "inputs": [
        {
          "indexed": true,
          "internalType": "address",
          "name": "owner",
          "type": "address"
        },
        {
          "indexed": true,
          "internalType": "address",
          "name": "spender",
          "type": "address"
        },
        {
          "indexed": false,
          "internalType": "uint256",
          "name": "value",
          "type": "uint256"
        }
      ],
      "name": "Approval",
      "type": "event"
    },
    {
      "anonymous": false,
      "inputs": [
        {
          "indexed": true,
          "internalType": "address",
          "name": "from",
          "type": "address"
        },
        {
          "indexed": true,
          "internalType": "address",
          "name": "to",
          "type": "address"
        },
        {
          "indexed": false,
          "internalType": "uint256",
          "name": "value",
          "type": "uint256"
        }
      ],
      "name": "Transfer",
      "type": "event"
    },
    {
      "inputs": [],
      "name": "allowPerpetualForever",
      "outputs": [],
      "stateMutability": "nonpayable",
      "type": "function"
    },
    {
      "inputs": [
        {
          "internalType": "address",
          "name": "owner",
          "type": "address"
        },
        {
          "internalType": "address",
          "name": "spender",
          "type": "address"
        }
      ],
      "name": "allowance",
      "outputs": [
        {
          "internalType": "uint256",
          "name": "",
          "type": "uint256"
        }
      ],
      "stateMutability": "view",
      "type": "function"
    },
    {
      "inputs": [
        {
          "internalType": "address",
          "name": "spender",
          "type": "address"
        },
        {
          "internalType": "uint256",
          "name": "amount",
          "type": "uint256"
        }
      ],
      "name": "approve",
      "outputs": [
        {
          "internalType": "bool",
          "name": "",
          "type": "bool"
        }
      ],
      "stateMutability": "nonpayable",
      "type": "function"
    },
    {
      "inputs": [
        {
          "internalType": "address",
          "name": "account",
          "type": "address"
        }
      ],
      "name": "availableBalanceOf",
      "outputs": [
        {
          "internalType": "uint256",
          "name": "",
          "type": "uint256"
        }
      ],
      "stateMutability": "view",
      "type": "function"
    },
    {
      "inputs": [
        {
          "internalType": "address",
          "name": "account",
          "type": "address"
        }
      ],
      "name": "balanceOf",
      "outputs": [
        {
          "internalType": "uint256",
          "name": "",
          "type": "uint256"
        }
      ],
      "stateMutability": "view",
      "type": "function"
    },
    {
      "inputs": [
        {
          "internalType": "address",
          "name": "account",
          "type": "address"
        },
        {
          "internalType": "uint256",
          "name": "value",
          "type": "uint256"
        }
      ],
      "name": "burnFrom",
      "outputs": [],
      "stateMutability": "nonpayable",
      "type": "function"
    },
    {
      "inputs": [],
      "name": "decimals",
      "outputs": [
        {
          "internalType": "uint8",
          "name": "",
          "type": "uint8"
        }
      ],
      "stateMutability": "view",
      "type": "function"
    },
    {
      "inputs": [
        {
          "internalType": "address",
          "name": "spender",
          "type": "address"
        },
        {
          "internalType": "uint256",
          "name": "subtractedValue",
          "type": "uint256"
        }
      ],
      "name": "decreaseAllowance",
      "outputs": [
        {
          "internalType": "bool",
          "name": "",
          "type": "bool"
        }
      ],
      "stateMutability": "nonpayable",
      "type": "function"
    },
    {
      "inputs": [
        {
          "internalType": "address",
          "name": "who",
          "type": "address"
        },
        {
          "internalType": "uint32",
          "name": "timestamp",
          "type": "uint32"
        }
      ],
      "name": "energyAt",
      "outputs": [
        {
          "internalType": "uint112",
          "name": "",
          "type": "uint112"
        }
      ],
      "stateMutability": "view",
      "type": "function"
    },
    {
      "inputs": [
        {
          "internalType": "contract IERC20",
          "name": "paymentToken",
          "type": "address"
        },
        {
          "internalType": "uint112",
          "name": "amount",
          "type": "uint112"
        },
        {
          "internalType": "uint32",
          "name": "duration",
          "type": "uint32"
        }
      ],
      "name": "estimateLoan",
      "outputs": [
        {
          "internalType": "uint256",
          "name": "",
          "type": "uint256"
        }
      ],
      "stateMutability": "view",
      "type": "function"
    },
    {
      "inputs": [
        {
          "internalType": "contract IERC20",
          "name": "paymentToken",
          "type": "address"
        },
        {
          "internalType": "uint112",
          "name": "amount",
          "type": "uint112"
        },
        {
          "internalType": "uint32",
          "name": "duration",
          "type": "uint32"
        }
      ],
      "name": "estimateLoanDetailed",
      "outputs": [
        {
          "internalType": "uint112",
          "name": "interest",
          "type": "uint112"
        },
        {
          "internalType": "uint112",
          "name": "serviceFee",
          "type": "uint112"
        },
        {
          "internalType": "uint112",
          "name": "gcFee",
          "type": "uint112"
        }
      ],
      "stateMutability": "view",
      "type": "function"
    },
    {
      "inputs": [
        {
          "internalType": "address",
          "name": "from",
          "type": "address"
        },
        {
          "internalType": "address",
          "name": "to",
          "type": "address"
        },
        {
          "internalType": "uint256",
          "name": "amount",
          "type": "uint256"
        }
      ],
      "name": "forceTransfer",
      "outputs": [
        {
          "internalType": "bool",
          "name": "",
          "type": "bool"
        }
      ],
      "stateMutability": "nonpayable",
      "type": "function"
    },
    {
      "inputs": [],
      "name": "getAllowsPerpetual",
      "outputs": [
        {
          "internalType": "bool",
          "name": "",
          "type": "bool"
        }
      ],
      "stateMutability": "view",
      "type": "function"
    },
    {
      "inputs": [],
      "name": "getBaseRate",
      "outputs": [
        {
          "internalType": "uint112",
          "name": "",
          "type": "uint112"
        }
      ],
      "stateMutability": "view",
      "type": "function"
    },
    {
      "inputs": [],
      "name": "getBaseToken",
      "outputs": [
        {
          "internalType": "contract IERC20Metadata",
          "name": "",
          "type": "address"
        }
      ],
      "stateMutability": "view",
      "type": "function"
    },
    {
      "inputs": [],
      "name": "getEnterprise",
      "outputs": [
        {
          "internalType": "contract Enterprise",
          "name": "",
          "type": "address"
        }
      ],
      "stateMutability": "view",
      "type": "function"
    },
    {
      "inputs": [],
      "name": "getGapHalvingPeriod",
      "outputs": [
        {
          "internalType": "uint32",
          "name": "",
          "type": "uint32"
        }
      ],
      "stateMutability": "view",
      "type": "function"
    },
    {
      "inputs": [],
      "name": "getIndex",
      "outputs": [
        {
          "internalType": "uint16",
          "name": "",
          "type": "uint16"
        }
      ],
      "stateMutability": "view",
      "type": "function"
    },
    {
      "inputs": [],
      "name": "getInfo",
      "outputs": [
        {
          "internalType": "string",
          "name": "name",
          "type": "string"
        },
        {
          "internalType": "string",
          "name": "symbol",
          "type": "string"
        },
        {
          "internalType": "uint112",
          "name": "baseRate",
          "type": "uint112"
        },
        {
          "internalType": "uint96",
          "name": "minGCFee",
          "type": "uint96"
        },
        {
          "internalType": "uint32",
          "name": "gapHalvingPeriod",
          "type": "uint32"
        },
        {
          "internalType": "uint16",
          "name": "index",
          "type": "uint16"
        },
        {
          "internalType": "contract IERC20Metadata",
          "name": "baseToken",
          "type": "address"
        },
        {
          "internalType": "uint32",
          "name": "minLoanDuration",
          "type": "uint32"
        },
        {
          "internalType": "uint32",
          "name": "maxLoanDuration",
          "type": "uint32"
        },
        {
          "internalType": "uint16",
          "name": "serviceFeePercent",
          "type": "uint16"
        },
        {
          "internalType": "bool",
          "name": "allowsPerpetual",
          "type": "bool"
        }
      ],
      "stateMutability": "view",
      "type": "function"
    },
    {
      "inputs": [],
      "name": "getLambda",
      "outputs": [
        {
          "internalType": "uint256",
          "name": "",
          "type": "uint256"
        }
      ],
      "stateMutability": "view",
      "type": "function"
    },
    {
      "inputs": [],
      "name": "getMaxLoanDuration",
      "outputs": [
        {
          "internalType": "uint32",
          "name": "",
          "type": "uint32"
        }
      ],
      "stateMutability": "view",
      "type": "function"
    },
    {
      "inputs": [],
      "name": "getMinGCFee",
      "outputs": [
        {
          "internalType": "uint96",
          "name": "",
          "type": "uint96"
        }
      ],
      "stateMutability": "view",
      "type": "function"
    },
    {
      "inputs": [],
      "name": "getMinLoanDuration",
      "outputs": [
        {
          "internalType": "uint32",
          "name": "",
          "type": "uint32"
        }
      ],
      "stateMutability": "view",
      "type": "function"
    },
    {
      "inputs": [],
      "name": "getServiceFeePercent",
      "outputs": [
        {
          "internalType": "uint16",
          "name": "",
          "type": "uint16"
        }
      ],
      "stateMutability": "view",
      "type": "function"
    },
    {
      "inputs": [
        {
          "internalType": "address",
          "name": "account",
          "type": "address"
        }
      ],
      "name": "getState",
      "outputs": [
        {
          "components": [
            {
              "internalType": "uint112",
              "name": "lockedBalance",
              "type": "uint112"
            },
            {
              "internalType": "uint112",
              "name": "energy",
              "type": "uint112"
            },
            {
              "internalType": "uint32",
              "name": "timestamp",
              "type": "uint32"
            }
          ],
          "internalType": "struct PowerTokenStorage.State",
          "name": "",
          "type": "tuple"
        }
      ],
      "stateMutability": "view",
      "type": "function"
    },
    {
      "inputs": [
        {
          "internalType": "address",
          "name": "spender",
          "type": "address"
        },
        {
          "internalType": "uint256",
          "name": "addedValue",
          "type": "uint256"
        }
      ],
      "name": "increaseAllowance",
      "outputs": [
        {
          "internalType": "bool",
          "name": "",
          "type": "bool"
        }
      ],
      "stateMutability": "nonpayable",
      "type": "function"
    },
    {
      "inputs": [
        {
          "internalType": "contract Enterprise",
          "name": "enterprise",
          "type": "address"
        },
        {
          "internalType": "uint112",
          "name": "baseRate",
          "type": "uint112"
        },
        {
          "internalType": "uint96",
          "name": "minGCFee",
          "type": "uint96"
        },
        {
          "internalType": "uint32",
          "name": "gapHalvingPeriod",
          "type": "uint32"
        },
        {
          "internalType": "uint16",
          "name": "index",
          "type": "uint16"
        },
        {
          "internalType": "contract IERC20Metadata",
          "name": "baseToken",
          "type": "address"
        },
        {
          "internalType": "uint32",
          "name": "minLoanDuration",
          "type": "uint32"
        },
        {
          "internalType": "uint32",
          "name": "maxLoanDuration",
          "type": "uint32"
        },
        {
          "internalType": "uint16",
          "name": "serviceFeePercent",
          "type": "uint16"
        },
        {
          "internalType": "bool",
          "name": "allowsPerpetual",
          "type": "bool"
        }
      ],
      "name": "initialize",
      "outputs": [],
      "stateMutability": "nonpayable",
      "type": "function"
    },
    {
      "inputs": [
        {
          "internalType": "string",
          "name": "name_",
          "type": "string"
        },
        {
          "internalType": "string",
          "name": "symbol_",
          "type": "string"
        }
      ],
      "name": "initialize",
      "outputs": [],
      "stateMutability": "nonpayable",
      "type": "function"
    },
    {
      "inputs": [
        {
          "internalType": "contract Enterprise",
          "name": "enterprise",
          "type": "address"
        }
      ],
      "name": "initialize",
      "outputs": [],
      "stateMutability": "nonpayable",
      "type": "function"
    },
    {
      "inputs": [
        {
          "internalType": "uint32",
          "name": "duration",
          "type": "uint32"
        }
      ],
      "name": "isAllowedLoanDuration",
      "outputs": [
        {
          "internalType": "bool",
          "name": "",
          "type": "bool"
        }
      ],
      "stateMutability": "view",
      "type": "function"
    },
    {
      "inputs": [
        {
          "internalType": "address",
          "name": "to",
          "type": "address"
        },
        {
          "internalType": "uint256",
          "name": "value",
          "type": "uint256"
        }
      ],
      "name": "mint",
      "outputs": [],
      "stateMutability": "nonpayable",
      "type": "function"
    },
    {
      "inputs": [],
      "name": "name",
      "outputs": [
        {
          "internalType": "string",
          "name": "",
          "type": "string"
        }
      ],
      "stateMutability": "view",
      "type": "function"
    },
    {
      "inputs": [
        {
          "internalType": "uint256",
          "name": "tokenId",
          "type": "uint256"
        }
      ],
      "name": "notifyNewLoan",
      "outputs": [],
      "stateMutability": "nonpayable",
      "type": "function"
    },
    {
      "inputs": [
        {
          "internalType": "uint112",
          "name": "baseRate",
          "type": "uint112"
        },
        {
          "internalType": "contract IERC20Metadata",
          "name": "baseToken",
          "type": "address"
        },
        {
          "internalType": "uint96",
          "name": "minGCFee",
          "type": "uint96"
        }
      ],
      "name": "setBaseRate",
      "outputs": [],
      "stateMutability": "nonpayable",
      "type": "function"
    },
    {
      "inputs": [
        {
          "internalType": "uint32",
          "name": "minLoanDuration",
          "type": "uint32"
        },
        {
          "internalType": "uint32",
          "name": "maxLoanDuration",
          "type": "uint32"
        }
      ],
      "name": "setLoanDurationLimits",
      "outputs": [],
      "stateMutability": "nonpayable",
      "type": "function"
    },
    {
      "inputs": [
        {
          "internalType": "uint16",
          "name": "newServiceFeePercent",
          "type": "uint16"
        }
      ],
      "name": "setServiceFeePercent",
      "outputs": [],
      "stateMutability": "nonpayable",
      "type": "function"
    },
    {
      "inputs": [],
      "name": "symbol",
      "outputs": [
        {
          "internalType": "string",
          "name": "",
          "type": "string"
        }
      ],
      "stateMutability": "view",
      "type": "function"
    },
    {
      "inputs": [],
      "name": "totalSupply",
      "outputs": [
        {
          "internalType": "uint256",
          "name": "",
          "type": "uint256"
        }
      ],
      "stateMutability": "view",
      "type": "function"
    },
    {
      "inputs": [
        {
          "internalType": "address",
          "name": "recipient",
          "type": "address"
        },
        {
          "internalType": "uint256",
          "name": "amount",
          "type": "uint256"
        }
      ],
      "name": "transfer",
      "outputs": [
        {
          "internalType": "bool",
          "name": "",
          "type": "bool"
        }
      ],
      "stateMutability": "nonpayable",
      "type": "function"
    },
    {
      "inputs": [
        {
          "internalType": "address",
          "name": "sender",
          "type": "address"
        },
        {
          "internalType": "address",
          "name": "recipient",
          "type": "address"
        },
        {
          "internalType": "uint256",
          "name": "amount",
          "type": "uint256"
        }
      ],
      "name": "transferFrom",
      "outputs": [
        {
          "internalType": "bool",
          "name": "",
          "type": "bool"
        }
      ],
      "stateMutability": "nonpayable",
      "type": "function"
    },
    {
      "inputs": [
        {
          "internalType": "uint256",
          "name": "amount",
          "type": "uint256"
        }
      ],
      "name": "unwrap",
      "outputs": [
        {
          "internalType": "bool",
          "name": "",
          "type": "bool"
        }
      ],
      "stateMutability": "nonpayable",
      "type": "function"
    },
    {
      "inputs": [
        {
          "internalType": "uint256",
          "name": "amount",
          "type": "uint256"
        }
      ],
      "name": "wrap",
      "outputs": [
        {
          "internalType": "bool",
          "name": "",
          "type": "bool"
        }
      ],
      "stateMutability": "nonpayable",
      "type": "function"
    },
    {
      "inputs": [
        {
          "internalType": "address",
          "name": "to",
          "type": "address"
        },
        {
          "internalType": "uint256",
          "name": "amount",
          "type": "uint256"
        }
      ],
      "name": "wrapTo",
      "outputs": [
        {
          "internalType": "bool",
          "name": "",
          "type": "bool"
        }
      ],
      "stateMutability": "nonpayable",
      "type": "function"
    }
  ],
  "bytecode": "0x608060405234801561001057600080fd5b506135e0806100206000396000f3fe608060405234801561001057600080fd5b50600436106101f95760003560e01c806306fdde03146101fe578063095ea7b31461021c5780630aff9d191461023f5780630d148ab61461026a57806313e7e63b1461027f57806314663701146102a557806318160ddd146102c65780631bab58f5146102ce57806323b872dd1461037e57806325d998bb1461039157806327256486146103a45780632ef0cf8b146103ac578063313ce567146103bf57806333bebb77146103ce57806339509351146103e157806340c10f19146103f457806342bb702e146104075780634cd88b761461041c5780635370028e1461042f5780635932f4ff1461045a5780635a9b0b891461046f5780636dfbee1b1461048e5780636e4d8983146104b057806370a08231146104c3578063759c8be3146104d657806379cc6790146104e957806381045ead146104fc578063927c9d871461050f57806395d89b411461052157806398acd7a6146105295780639d5513d7146105435780639f126fbe14610580578063a457c2d714610593578063a9059cbb146105a6578063b655d0c4146105b9578063c0434352146105ca578063c1ea019e146105dd578063c4d66de8146105e5578063dd62ed3e146105f8578063de0e9a3e14610631578063e298a2fd14610644578063ea598cb01461064c578063f8642f291461065f575b600080fd5b610206610670565b604051610213919061319f565b60405180910390f35b61022f61022a366004612dfd565b610702565b6040519015158152602001610213565b600154600160701b90046001600160601b03166040516001600160601b039091168152602001610213565b61027d610278366004613085565b610719565b005b600254600160a01b900463ffffffff165b60405163ffffffff9091168152602001610213565b6102b86102b3366004612f3d565b610844565b604051908152602001610213565b6007546102b8565b6103486102dc366004612d4d565b6040805160608082018352600080835260208084018290529284018190526001600160a01b03949094168452600482529282902082519384018352546001600160701b038082168552600160701b82041691840191909152600160e01b900463ffffffff169082015290565b6040805182516001600160701b039081168252602080850151909116908201529181015163ffffffff1690820152606001610213565b61022f61038c366004612dbd565b610887565b6102b861039f366004612d4d565b610916565b61027d61094b565b61027d6103ba366004612e78565b610a64565b60405160128152602001610213565b61022f6103dc366004612dbd565b610c67565b61022f6103ef366004612dfd565b610cc4565b61027d610402366004612dfd565b610cfb565b600154600160d01b900463ffffffff16610290565b61027d61042a366004612fea565b610d50565b61044261043d366004612e28565b610dc2565b6040516001600160701b039091168152602001610213565b600254600160c01b900463ffffffff16610290565b610477610e28565b6040516102139b9a999897969594939291906131b2565b600254600160e01b900461ffff165b60405161ffff9091168152602001610213565b61022f6104be3660046130ed565b610fa7565b6102b86104d1366004612d4d565b610fe1565b61027d6104e436600461304a565b610ffc565b61027d6104f7366004612dfd565b611155565b600154600160f01b900461ffff1661049d565b600254600160f01b900460ff1661022f565b6102066111a6565b6002546001600160a01b03165b604051610213919061318b565b610556610551366004612f3d565b6111b5565b604080516001600160701b0394851681529284166020840152921691810191909152606001610213565b61022f61058e366004612dfd565b6111d4565b61022f6105a1366004612dfd565b6111e0565b61022f6105b4366004612dfd565b61124e565b6001546001600160701b0316610442565b61027d6105d8366004613107565b61125d565b6003546102b8565b61027d6105f3366004612d4d565b6113a5565b6102b8610606366004612d85565b6001600160a01b03918216600090815260066020908152604080832093909416825291909152205490565b61022f61063f3660046130bd565b61144c565b6105366114ef565b61022f61065a3660046130bd565b6114fe565b61027d61066d3660046130bd565b50565b60606008805461067f906134d2565b80601f01602080910402602001604051908101604052809291908181526020018280546106ab906134d2565b80156106f85780601f106106cd576101008083540402835291602001916106f8565b820191906000526020600020905b8154815290600101906020018083116106db57829003601f168201915b5050505050905090565b600061070f33848461150a565b5060015b92915050565b60005460408051638da5cb5b60e01b8152905133926001600160a01b031691638da5cb5b916004808301926020929190829003018186803b15801561075d57600080fd5b505afa158015610771573d6000803e3d6000fd5b505050506040513d601f19601f820116820180604052508101906107959190612d69565b6001600160a01b031614604051806040016040528060018152602001603360f81b815250906107e05760405162461bcd60e51b81526004016107d7919061319f565b60405180910390fd5b50604080518082019091526002815261363760f01b602082015261138861ffff831611156108215760405162461bcd60e51b81526004016107d7919061319f565b506002805461ffff909216600160e01b0261ffff60e01b19909216919091179055565b6000806000806108558787876115ee565b919450925090508061086783856132b6565b61087191906132b6565b6001600160701b031693505050505b9392505050565b6000610896848484600061189d565b6001600160a01b03841660009081526006602090815260408083203384528252918290205482518084019093526002835261031360f41b9183019190915290838210156108f65760405162461bcd60e51b81526004016107d7919061319f565b5061090b8533610906868561348f565b61150a565b506001949350505050565b6001600160a01b0381166000908152600460205260408120546001600160701b031661094183610fe1565b610713919061348f565b60005460408051638da5cb5b60e01b8152905133926001600160a01b031691638da5cb5b916004808301926020929190829003018186803b15801561098f57600080fd5b505afa1580156109a3573d6000803e3d6000fd5b505050506040513d601f19601f820116820180604052508101906109c79190612d69565b6001600160a01b031614604051806040016040528060018152602001603360f81b81525090610a095760405162461bcd60e51b81526004016107d7919061319f565b50600280546040805180820190915291825261037360f41b6020830152600160f01b900460ff1615610a4e5760405162461bcd60e51b81526004016107d7919061319f565b506002805460ff60f01b1916600160f01b179055565b6001805460408051808201909152918252601960f91b6020830152600160d01b900463ffffffff1615610aaa5760405162461bcd60e51b81526004016107d7919061319f565b50604080518082019091526002815261343360f01b602082015263ffffffff8816610ae85760405162461bcd60e51b81526004016107d7919061319f565b50604080518082019091526002815261363760f01b602082015261138861ffff84161115610b295760405162461bcd60e51b81526004016107d7919061319f565b506002805460408051808201909152918252611a1960f11b602083015263ffffffff600160c01b82048116600160a01b909204161115610b7c5760405162461bcd60e51b81526004016107d7919061319f565b50610b868a6113a5565b600180546001600160701b039a909a166001600160d01b0319909a1699909917600160701b6001600160601b039990991698909802979097176001600160d01b0316600160d01b63ffffffff978816026001600160f01b031617600160f01b61ffff968716810291909117909855600280546001600160a01b03959095166001600160c01b031990951694909417600160a01b938716939093029290921765ffffffffffff60c01b1916600160c01b919095160261ffff60e01b191693909317600160e01b93909216929092021760ff60f01b191691151590920217905550565b600080546040805180820190915260018152600d60fa1b6020820152906001600160a01b03163314610cac5760405162461bcd60e51b81526004016107d7919061319f565b50610cba848484600161189d565b5060019392505050565b3360008181526006602090815260408083206001600160a01b0387168452909152812054909161070f9185906109069086906132e1565b6000546040805180820190915260018152600d60fa1b6020820152906001600160a01b03163314610d3f5760405162461bcd60e51b81526004016107d7919061319f565b50610d4c82826001611a0d565b5050565b60088054610d5d906134d2565b6040805180820190915260018152601960f91b6020820152915015610d955760405162461bcd60e51b81526004016107d7919061319f565b508151610da9906008906020850190612c1c565b508051610dbd906009906020840190612c1c565b505050565b6001600160a01b0382166000908152600460209081526040808320815160608101835290546001600160701b038082168352600160701b82041693820193909352600160e01b90920463ffffffff1690820152610e20818585611acb565b949350505050565b6060806000806000806000806000806000306001600160a01b03166306fdde036040518163ffffffff1660e01b815260040160006040518083038186803b158015610e7257600080fd5b505afa158015610e86573d6000803e3d6000fd5b505050506040513d6000823e601f3d908101601f19168201604052610eae9190810190612f81565b306001600160a01b03166395d89b416040518163ffffffff1660e01b815260040160006040518083038186803b158015610ee757600080fd5b505afa158015610efb573d6000803e3d6000fd5b505050506040513d6000823e601f3d908101601f19168201604052610f239190810190612f81565b600154600254929e919d506001600160701b0381169c50600160701b81046001600160601b03169b50600160d01b810463ffffffff9081169b50600160f01b9182900461ffff9081169b506001600160a01b0385169a50600160a01b850482169950600160c01b85049091169750600160e01b840416955090910460ff1692509050565b60025460009063ffffffff808416600160a01b9092041611801590610713575050600254600160c01b900463ffffffff9081169116111590565b6001600160a01b031660009081526005602052604090205490565b60005460408051638da5cb5b60e01b8152905133926001600160a01b031691638da5cb5b916004808301926020929190829003018186803b15801561104057600080fd5b505afa158015611054573d6000803e3d6000fd5b505050506040513d601f19601f820116820180604052508101906110789190612d69565b6001600160a01b031614604051806040016040528060018152602001603360f81b815250906110ba5760405162461bcd60e51b81526004016107d7919061319f565b5060028054604080518082019091529182526106c760f31b60208301526001600160a01b03166110fd5760405162461bcd60e51b81526004016107d7919061319f565b5060018054600280546001600160a01b039095166001600160a01b0319909516949094179093556001600160601b03909116600160701b026001600160d01b03199092166001600160701b0390931692909217179055565b6000546040805180820190915260018152600d60fa1b6020820152906001600160a01b031633146111995760405162461bcd60e51b81526004016107d7919061319f565b50610d4c82826001611b59565b60606009805461067f906134d2565b60008060006111c58686866115ee565b92509250925093509350939050565b60006108808383611c72565b3360009081526006602090815260408083206001600160a01b038616845282528083205481518083019092526002825261313160f01b928201929092528382101561123e5760405162461bcd60e51b81526004016107d7919061319f565b50610cba3385610906868561348f565b600061070f338484600061189d565b60005460408051638da5cb5b60e01b8152905133926001600160a01b031691638da5cb5b916004808301926020929190829003018186803b1580156112a157600080fd5b505afa1580156112b5573d6000803e3d6000fd5b505050506040513d601f19601f820116820180604052508101906112d99190612d69565b6001600160a01b031614604051806040016040528060018152602001603360f81b8152509061131b5760405162461bcd60e51b81526004016107d7919061319f565b508063ffffffff168263ffffffff16111560405180604001604052806002815260200161363960f01b815250906113655760405162461bcd60e51b81526004016107d7919061319f565b5060028054600160a01b600160e01b031916600160a01b63ffffffff9485160263ffffffff60c01b191617600160c01b9290931691909102919091179055565b6000546040805180820190915260018152601960f91b6020820152906001600160a01b0316156113e85760405162461bcd60e51b81526004016107d7919061319f565b50604080518082019091526002815261353960f01b60208201526001600160a01b0382166114295760405162461bcd60e51b81526004016107d7919061319f565b50600080546001600160a01b0319166001600160a01b0392909216919091179055565b600061145a33836000611b59565b6114e733836114676114ef565b6001600160a01b031663644e44df6040518163ffffffff1660e01b815260040160206040518083038186803b15801561149f57600080fd5b505afa1580156114b3573d6000803e3d6000fd5b505050506040513d601f19601f820116820180604052508101906114d79190612d69565b6001600160a01b03169190611d60565b506001919050565b6000546001600160a01b031690565b60006107133383611c72565b604080518082019091526002815261062760f31b60208201526001600160a01b03841661154a5760405162461bcd60e51b81526004016107d7919061319f565b50604080518082019091526002815261313960f01b60208201526001600160a01b03831661158b5760405162461bcd60e51b81526004016107d7919061319f565b506001600160a01b0383811660008181526006602090815260408083209487168084529482529182902085905590518481527f8c5be1e5ebec7d5bd14f71427d1e84f3dd0314c0f7b2291e5b200ac8c7c3b92591015b60405180910390a3505050565b60008060006115fb6114ef565b6001600160a01b0316632fb2067f876040518263ffffffff1660e01b8152600401611626919061318b565b60206040518083038186803b15801561163e57600080fd5b505afa158015611652573d6000803e3d6000fd5b505050506040513d601f19601f820116820180604052508101906116769190612e5c565b604051806040016040528060028152602001610d0d60f21b815250906116af5760405162461bcd60e51b81526004016107d7919061319f565b506116b984610fa7565b60405180604001604052806002815260200161343560f01b815250906116f25760405162461bcd60e51b81526004016107d7919061319f565b5060006116ff8686611dc3565b6002549091506000906127109061172a90600160e01b900461ffff166001600160701b038516613407565b61173491906132f9565b905060006117406114ef565b6001600160a01b0316632261b07f6040518163ffffffff1660e01b815260040160206040518083038186803b15801561177857600080fd5b505afa15801561178c573d6000803e3d6000fd5b505050506040513d601f19601f820116820180604052508101906117b09190612d69565b6002546040516314fdc96760e11b81526001600160a01b0391821660048201526001600160701b03861660248201528b821660448201529116906329fb92ce9060640160206040518083038186803b15801561180b57600080fd5b505afa15801561181f573d6000803e3d6000fd5b505050506040513d601f19601f8201168201806040525081019061184391906130d5565b9050826001600160701b031681836001600160701b03166118649190613407565b61186e91906132f9565b94506118836001600160701b0386168261348f565b955061188f898961211b565b935050505093509350939050565b604080518082019091526002815261189960f11b60208201526001600160a01b0385166118dd5760405162461bcd60e51b81526004016107d7919061319f565b50604080518082019091526002815261313360f01b60208201526001600160a01b03841661191e5760405162461bcd60e51b81526004016107d7919061319f565b5061192b848484846122f4565b6001600160a01b03841660009081526005602090815260409182902054825180840190935260028352610c4d60f21b9183019190915290838210156119835760405162461bcd60e51b81526004016107d7919061319f565b5061198e838261348f565b6001600160a01b0380871660009081526005602052604080822093909355908616815290812080548592906119c49084906132e1565b92505081905550836001600160a01b0316856001600160a01b031660008051602061358b833981519152856040516119fe91815260200190565b60405180910390a35050505050565b604080518082019091526002815261313560f01b60208201526001600160a01b038416611a4d5760405162461bcd60e51b81526004016107d7919061319f565b50611a5b60008484846122f4565b8160076000828254611a6d91906132e1565b90915550506001600160a01b03831660009081526005602052604081208054849290611a9a9084906132e1565b90915550506040518281526001600160a01b0384169060009060008051602061358b833981519152906020016115e1565b600080611ad784610fe1565b905084602001516001600160701b0316816001600160701b03161115611b3757611b258560400151866020015183611b0f9190613467565b600154600160d01b900463ffffffff1686612597565b611b2f9082613467565b915050610880565b611b4f8560400151828760200151611b0f9190613467565b611b2f90826132b6565b604080518082019091526002815261189b60f11b60208201526001600160a01b038416611b995760405162461bcd60e51b81526004016107d7919061319f565b50611ba783600084846122f4565b6001600160a01b0383166000908152600560209081526040918290205482518084019093526002835261313760f01b918301919091529083821015611bff5760405162461bcd60e51b81526004016107d7919061319f565b50611c0a838261348f565b6001600160a01b03851660009081526005602052604081209190915560078054859290611c3890849061348f565b90915550506040518381526000906001600160a01b0386169060008051602061358b8339815191529060200160405180910390a350505050565b60006002601e9054906101000a900460ff161515600115151460405180604001604052806002815260200161353160f01b81525090611cc45760405162461bcd60e51b81526004016107d7919061319f565b50611d54333084611cd36114ef565b6001600160a01b031663644e44df6040518163ffffffff1660e01b815260040160206040518083038186803b158015611d0b57600080fd5b505afa158015611d1f573d6000803e3d6000fd5b505050506040513d601f19601f82011682018060405250810190611d439190612d69565b6001600160a01b0316929190612738565b61070f83836000611a0d565b6040516001600160a01b038316602482015260448101829052610dbd90849063a9059cbb60e01b906064015b60408051601f198184030181529190526020810180516001600160e01b03166001600160e01b031990931692909217909152612776565b600080611dce6114ef565b6001600160a01b031663aebb50416040518163ffffffff1660e01b815260040160206040518083038186803b158015611e0657600080fd5b505afa158015611e1a573d6000803e3d6000fd5b505050506040513d601f19601f82011682018060405250810190611e3e91906130d5565b9050836001600160701b03168111611e60576001600160701b03915050610713565b6002546040805163313ce56760e01b815290516000926001600160a01b03169163313ce567916004808301926020929190829003018186803b158015611ea557600080fd5b505afa158015611eb9573d6000803e3d6000fd5b505050506040513d601f19601f82011682018060405250810190611edd9190613122565b611ee56114ef565b6001600160a01b031663644e44df6040518163ffffffff1660e01b815260040160206040518083038186803b158015611f1d57600080fd5b505afa158015611f31573d6000803e3d6000fd5b505050506040513d601f19601f82011682018060405250810190611f559190612d69565b6001600160a01b031663313ce5676040518163ffffffff1660e01b815260040160206040518083038186803b158015611f8d57600080fd5b505afa158015611fa1573d6000803e3d6000fd5b505050506040513d601f19601f82011682018060405250810190611fc59190613122565b611fcf9190613426565b905060008463ffffffff16612064876001600160701b0316611fef6114ef565b6001600160a01b0316636936cc2d6040518163ffffffff1660e01b815260040160206040518083038186803b15801561202757600080fd5b505afa15801561203b573d6000803e3d6000fd5b505050506040513d601f19601f8201168201806040525081019061205f91906130d5565b612848565b61206e9190613407565b905060008260000b13156120b257604061208983600a61335c565b60015461209f906001600160701b031684613407565b6120a991906132f9565b901c9050612112565b60008260000b12156120f45760406120c98361350d565b6120d490600a61335c565b6001546120ea906001600160701b031684613407565b6120a99190613407565b60015460409061210d906001600160701b031683613407565b901c90505b95945050505050565b6000806127106121296114ef565b6001600160a01b031663b406bf6d6040518163ffffffff1660e01b815260040160206040518083038186803b15801561216157600080fd5b505afa158015612175573d6000803e3d6000fd5b505050506040513d601f19601f8201168201806040525081019061219991906130a1565b6121b09061ffff166001600160701b038616613407565b6121ba91906132f9565b905060006121c66114ef565b6001600160a01b0316632261b07f6040518163ffffffff1660e01b815260040160206040518083038186803b1580156121fe57600080fd5b505afa158015612212573d6000803e3d6000fd5b505050506040513d601f19601f820116820180604052508101906122369190612d69565b6002546001546040516314fdc96760e11b81526001600160a01b039283166004820152600160701b9091046001600160601b0316602482015287821660448201529116906329fb92ce9060640160206040518083038186803b15801561229b57600080fd5b505afa1580156122af573d6000803e3d6000fd5b505050506040513d601f19601f820116820180604052508101906122d391906130d5565b9050806001600160701b0316826001600160701b031610610e205781612112565b426001600160a01b03851615612472576001600160a01b038516600090815260046020908152604091829020825160608101845290546001600160701b038082168352600160701b82041692820192909252600160e01b90910463ffffffff1691810191909152612366818784611acb565b6001600160701b0316602082015263ffffffff82166040820152826123e55780516001600160701b03168461239a88610fe1565b6123a4919061348f565b1015604051806040016040528060028152602001610dcd60f21b815250906123df5760405162461bcd60e51b81526004016107d7919061319f565b50612404565b83816000018181516123f79190613467565b6001600160701b03169052505b6001600160a01b0386166000908152600460209081526040918290208351815492850151939094015163ffffffff16600160e01b026001600160e01b036001600160701b03948516600160701b026001600160e01b0319909416949095169390931791909117929092161790555b6001600160a01b03841615612590576001600160a01b038416600090815260046020908152604091829020825160608101845290546001600160701b038082168352600160701b82041692820192909252600160e01b90910463ffffffff16918101919091526124e3818684611acb565b6001600160701b0316602082015263ffffffff82166040820152821561252257838160000181815161251591906132b6565b6001600160701b03169052505b6001600160a01b0385166000908152600460209081526040918290208351815492850151939094015163ffffffff16600160e01b026001600160e01b036001600160701b03948516600160701b026001600160e01b0319909416949095169390931791909117929092161790555b5050505050565b60008463ffffffff168263ffffffff161015604051806040016040528060018152602001600760fb1b815250906125e15760405162461bcd60e51b81526004016107d7919061319f565b5084820391508263ffffffff168263ffffffff168161261057634e487b7160e01b600052601260045260246000fd5b0463ffffffff16846001600160701b0316901c93508263ffffffff168263ffffffff168161264e57634e487b7160e01b600052601260045260246000fd5b06915063ffffffff8216158061266b57506001600160701b038416155b15612677575082610e20565b60006001600160701b0385168163ffffffff86811690861671b17217f7d1cf79abc9e3b39803f2f6af40f302816126be57634e487b7160e01b600052601260045260246000fd5b049050600160901b5b821561272b579282019280828402816126f057634e487b7160e01b600052601260045260246000fd5b0493849003939250600160901b01808284028161271d57634e487b7160e01b600052601260045260246000fd5b049250600160901b016126c7565b5091979650505050505050565b6040516001600160a01b03808516602483015283166044820152606481018290526127709085906323b872dd60e01b90608401611d8c565b50505050565b60006127cb826040518060400160405280602081526020017f5361666545524332303a206c6f772d6c6576656c2063616c6c206661696c6564815250856001600160a01b031661296a9092919063ffffffff16565b805190915015610dbd57808060200190518101906127e99190612e5c565b610dbd5760405162461bcd60e51b815260206004820152602a60248201527f5361666545524332303a204552433230206f7065726174696f6e20646964206e6044820152691bdd081cdd58d8d9595960b21b60648201526084016107d7565b6000806128536114ef565b6001600160a01b031663fcb2884e6040518163ffffffff1660e01b815260040160206040518083038186803b15801561288b57600080fd5b505afa15801561289f573d6000803e3d6000fd5b505050506040513d601f19601f820116820180604052508101906128c391906130d5565b905060006128cf6114ef565b6001600160a01b03166359bf5d396040518163ffffffff1660e01b815260040160206040518083038186803b15801561290757600080fd5b505afa15801561291b573d6000803e3d6000fd5b505050506040513d601f19601f8201168201806040525081019061293f91906130d5565b905061294c828583612979565b61296061295987856132e1565b8684612979565b612112919061348f565b6060610e2084846000856129b2565b6000604061299e61298a868561348f565b61299890604086901b6132f9565b85612ada565b6129a89086613407565b901c949350505050565b606082471015612a135760405162461bcd60e51b815260206004820152602660248201527f416464726573733a20696e73756666696369656e742062616c616e636520666f6044820152651c8818d85b1b60d21b60648201526084016107d7565b843b612a615760405162461bcd60e51b815260206004820152601d60248201527f416464726573733a2063616c6c20746f206e6f6e2d636f6e747261637400000060448201526064016107d7565b600080866001600160a01b03168587604051612a7d919061316f565b60006040518083038185875af1925050503d8060008114612aba576040519150601f19603f3d011682016040523d82523d6000602084013e612abf565b606091505b5091509150612acf828286612b09565b979650505050505050565b60006040612ae784612b42565b612afa906001600160801b031684613407565b610880911c600160401b6132e1565b60608315612b18575081610880565b825115612b285782518084602001fd5b8160405162461bcd60e51b81526004016107d7919061319f565b60008082600f0b13612b5357600080fd5b6000600f83900b600160401b8112612b6d576040918201911d5b600160201b8112612b80576020918201911d5b620100008112612b92576010918201911d5b6101008112612ba3576008918201911d5b60108112612bb3576004918201911d5b60048112612bc3576002918201911d5b60028112612bd2576001820191505b603f19820160401b600f85900b607f8490031b6001603f1b5b6000811315612c115790800260ff81901c8281029390930192607f011c9060011d612beb565b509095945050505050565b828054612c28906134d2565b90600052602060002090601f016020900481019282612c4a5760008555612c90565b82601f10612c6357805160ff1916838001178555612c90565b82800160010185558215612c90579182015b82811115612c90578251825591602001919060010190612c75565b50612c9c929150612ca0565b5090565b5b80821115612c9c5760008155600101612ca1565b600082601f830112612cc5578081fd5b8135612cd8612cd38261328f565b61325f565b818152846020838601011115612cec578283fd5b816020850160208301379081016020019190915292915050565b80356001600160701b0381168114612d1d57600080fd5b919050565b803563ffffffff81168114612d1d57600080fd5b80356001600160601b0381168114612d1d57600080fd5b600060208284031215612d5e578081fd5b813561088081613557565b600060208284031215612d7a578081fd5b815161088081613557565b60008060408385031215612d97578081fd5b8235612da281613557565b91506020830135612db281613557565b809150509250929050565b600080600060608486031215612dd1578081fd5b8335612ddc81613557565b92506020840135612dec81613557565b929592945050506040919091013590565b60008060408385031215612e0f578182fd5b8235612e1a81613557565b946020939093013593505050565b60008060408385031215612e3a578182fd5b8235612e4581613557565b9150612e5360208401612d22565b90509250929050565b600060208284031215612e6d578081fd5b81516108808161356c565b6000806000806000806000806000806101408b8d031215612e97578788fd5b8a35612ea281613557565b9950612eb060208c01612d06565b9850612ebe60408c01612d36565b9750612ecc60608c01612d22565b965060808b0135612edc8161357a565b955060a08b0135612eec81613557565b9450612efa60c08c01612d22565b9350612f0860e08c01612d22565b92506101008b0135612f198161357a565b91506101208b0135612f2a8161356c565b809150509295989b9194979a5092959850565b600080600060608486031215612f51578081fd5b8335612f5c81613557565b9250612f6a60208501612d06565b9150612f7860408501612d22565b90509250925092565b600060208284031215612f92578081fd5b81516001600160401b03811115612fa7578182fd5b8201601f81018413612fb7578182fd5b8051612fc5612cd38261328f565b818152856020838501011115612fd9578384fd5b6121128260208301602086016134a6565b60008060408385031215612ffc578182fd5b82356001600160401b0380821115613012578384fd5b61301e86838701612cb5565b93506020850135915080821115613033578283fd5b5061304085828601612cb5565b9150509250929050565b60008060006060848603121561305e578081fd5b61306784612d06565b9250602084013561307781613557565b9150612f7860408501612d36565b600060208284031215613096578081fd5b81356108808161357a565b6000602082840312156130b2578081fd5b81516108808161357a565b6000602082840312156130ce578081fd5b5035919050565b6000602082840312156130e6578081fd5b5051919050565b6000602082840312156130fe578081fd5b61088082612d22565b60008060408385031215613119578182fd5b612e4583612d22565b600060208284031215613133578081fd5b815160ff81168114610880578182fd5b6000815180845261315b8160208601602086016134a6565b601f01601f19169290920160200192915050565b600082516131818184602087016134a6565b9190910192915050565b6001600160a01b0391909116815260200190565b6020815260006108806020830184613143565b60006101608083526131c68184018f613143565b905082810360208401526131da818e613143565b6001600160701b038d1660408501526001600160601b038c16606085015263ffffffff8b8116608086015261ffff8b1660a08601526001600160a01b038a1660c0860152881660e0850152915061322e9050565b63ffffffff851661010083015261ffff84166101208301528215156101408301529c9b505050505050505050505050565b604051601f8201601f191681016001600160401b038111828210171561328757613287613541565b604052919050565b60006001600160401b038211156132a8576132a8613541565b50601f01601f191660200190565b60006001600160701b038281168482168083038211156132d8576132d861352b565b01949350505050565b600082198211156132f4576132f461352b565b500190565b60008261331457634e487b7160e01b81526012600452602481fd5b500490565b600181815b8085111561335457816000190482111561333a5761333a61352b565b8085161561334757918102915b93841c939080029061331e565b509250929050565b600061088060ff84168360008261337557506001610713565b8161338257506000610713565b816001811461339857600281146133a2576133be565b6001915050610713565b60ff8411156133b3576133b361352b565b50506001821b610713565b5060208310610133831016604e8410600b84101617156133e1575081810a610713565b6133eb8383613319565b80600019048211156133ff576133ff61352b565b029392505050565b60008160001904831182151516156134215761342161352b565b500290565b600081810b83820b8281128015607f198301841216156134485761344861352b565b81607f01831381161561345d5761345d61352b565b5090039392505050565b60006001600160701b03838116908316818110156134875761348761352b565b039392505050565b6000828210156134a1576134a161352b565b500390565b60005b838110156134c15781810151838201526020016134a9565b838111156127705750506000910152565b600181811c908216806134e657607f821691505b6020821081141561350757634e487b7160e01b600052602260045260246000fd5b50919050565b600081810b607f198114156135245761352461352b565b9003919050565b634e487b7160e01b600052601160045260246000fd5b634e487b7160e01b600052604160045260246000fd5b6001600160a01b038116811461066d57600080fd5b801515811461066d57600080fd5b61ffff8116811461066d57600080fdfeddf252ad1be2c89b69c2b068fc378daa952ba7f163c4a11628f55a4df523b3efa26469706673582212206408bbe918fe9a4d08b787438d43211f7e81384fc5bff2b0b5f2b6828f7c0aaa64736f6c63430008040033",
  "linkReferences": {},
  "deployedLinkReferences": {}
}