{
  "_format": "hh-sol-artifact-1",
  "contractName": "EnterpriseFactory",
  "sourceName": "contracts/EnterpriseFactory.sol",
  "abi": [
    {
      "inputs": [
        {
          "internalType": "address",
          "name": "enterpriseImpl",
          "type": "address"
        },
        {
          "internalType": "address",
          "name": "powerTokenImpl",
          "type": "address"
        },
        {
          "internalType": "address",
          "name": "interestTokenImpl",
          "type": "address"
        },
        {
          "internalType": "address",
          "name": "borrowTokenImpl",
          "type": "address"
        },
        {
          "internalType": "address",
          "name": "configuratorImpl",
          "type": "address"
        }
      ],
      "stateMutability": "nonpayable",
      "type": "constructor"
    },
    {
      "anonymous": false,
      "inputs": [
        {
          "indexed": true,
          "internalType": "address",
          "name": "creator",
          "type": "address"
        },
        {
          "indexed": true,
          "internalType": "address",
          "name": "liquidityToken",
          "type": "address"
        },
        {
          "indexed": false,
          "internalType": "string",
          "name": "name",
          "type": "string"
        },
        {
          "indexed": false,
          "internalType": "string",
          "name": "baseUri",
          "type": "string"
        },
        {
          "indexed": false,
          "internalType": "address",
          "name": "deployed",
          "type": "address"
        }
      ],
      "name": "EnterpriseDeployed",
      "type": "event"
    },
    {
      "inputs": [
        {
          "internalType": "string",
          "name": "name",
          "type": "string"
        },
        {
          "internalType": "contract IERC20Metadata",
          "name": "liquidityToken",
          "type": "address"
        },
        {
          "internalType": "string",
          "name": "baseUri",
          "type": "string"
        },
        {
          "internalType": "uint32",
          "name": "borrowerLoanReturnGracePeriod",
          "type": "uint32"
        },
        {
          "internalType": "uint32",
          "name": "enterpriseLoanCollectGracePeriod",
          "type": "uint32"
        },
        {
          "internalType": "address",
          "name": "estimator",
          "type": "address"
        },
        {
          "internalType": "contract IConverter",
          "name": "converter",
          "type": "address"
        }
      ],
      "name": "deploy",
      "outputs": [
        {
          "internalType": "contract IEnterprise",
          "name": "",
          "type": "address"
        }
      ],
      "stateMutability": "nonpayable",
      "type": "function"
    },
    {
      "inputs": [],
      "name": "getBorrowTokenImpl",
      "outputs": [
        {
          "internalType": "address",
          "name": "",
          "type": "address"
        }
      ],
      "stateMutability": "view",
      "type": "function"
    },
    {
      "inputs": [],
      "name": "getEnterpriseImpl",
      "outputs": [
        {
          "internalType": "address",
          "name": "",
          "type": "address"
        }
      ],
      "stateMutability": "view",
      "type": "function"
    },
    {
      "inputs": [],
      "name": "getInterestTokenImpl",
      "outputs": [
        {
          "internalType": "address",
          "name": "",
          "type": "address"
        }
      ],
      "stateMutability": "view",
      "type": "function"
    },
    {
      "inputs": [],
      "name": "getPowerTokenImpl",
      "outputs": [
        {
          "internalType": "address",
          "name": "",
          "type": "address"
        }
      ],
      "stateMutability": "view",
      "type": "function"
    }
  ],
  "bytecode": "0x6101206040523480156200001257600080fd5b506040516200107238038062001072833981016040819052620000359162000246565b6001600160a01b038516620000915760405162461bcd60e51b815260206004820152601a60248201527f496e76616c696420456e7465727072697365206164647265737300000000000060448201526064015b60405180910390fd5b6001600160a01b038416620000e95760405162461bcd60e51b815260206004820152601a60248201527f496e76616c696420506f776572546f6b656e2061646472657373000000000000604482015260640162000088565b6001600160a01b038316620001415760405162461bcd60e51b815260206004820152601d60248201527f496e76616c696420496e746572657374546f6b656e2061646472657373000000604482015260640162000088565b6001600160a01b038216620001995760405162461bcd60e51b815260206004820152601b60248201527f496e76616c696420426f72726f77546f6b656e20616464726573730000000000604482015260640162000088565b6001600160a01b038116620001f15760405162461bcd60e51b815260206004820152601c60248201527f496e76616c696420436f6e666967757261746f72206164647265737300000000604482015260640162000088565b6001600160601b0319606095861b811660805293851b841660a05291841b831660c052831b821660e05290911b1661010052620002b5565b80516001600160a01b03811681146200024157600080fd5b919050565b600080600080600060a086880312156200025e578081fd5b620002698662000229565b9450620002796020870162000229565b9350620002896040870162000229565b9250620002996060870162000229565b9150620002a96080870162000229565b90509295509295909350565b60805160601c60a05160601c60c05160601c60e05160601c6101005160601c610d50620003226000396000610187015260008181609d01526107b101526000818161010f01526106ac01526000818160e901526103b601526000818160c3015261013b0152610d506000f3fe608060405234801561001057600080fd5b50600436106100675760003560e01c806382f934091161005057806382f93409146100c157806383b9a009146100e7578063d2c598b51461010d57600080fd5b806355b4e2d81461006c578063628329551461009b575b600080fd5b61007f61007a3660046108c7565b610133565b6040516001600160a01b03909116815260200160405180910390f35b7f000000000000000000000000000000000000000000000000000000000000000061007f565b7f000000000000000000000000000000000000000000000000000000000000000061007f565b7f000000000000000000000000000000000000000000000000000000000000000061007f565b7f000000000000000000000000000000000000000000000000000000000000000061007f565b6000806101687f00000000000000000000000000000000000000000000000000000000000000006001600160a01b0316610583565b9050600061017e856001600160a01b0316610583565b905060006101b47f00000000000000000000000000000000000000000000000000000000000000006001600160a01b0316610583565b905060006102368c6001600160a01b03166395d89b416040518163ffffffff1660e01b815260040160006040518083038186803b1580156101f457600080fd5b505afa158015610208573d6000803e3d6000fd5b505050506040513d6000823e601f3d908101601f191682016040526102309190810190610990565b8561065c565b905060006102f28d6001600160a01b03166395d89b416040518163ffffffff1660e01b815260040160006040518083038186803b15801561027657600080fd5b505afa15801561028a573d6000803e3d6000fd5b505050506040513d6000823e601f3d908101601f191682016040526102b29190810190610990565b8d8d8080601f0160208091040260200160405190810160405280939291908181526020018383808284376000920191909152508892508a91506107619050565b6040517f1459457a0000000000000000000000000000000000000000000000000000000081526001600160a01b0387811660048301528f811660248301528481166044830152808316606483015233608483015291925090841690631459457a9060a401600060405180830381600087803b15801561037057600080fd5b505af1158015610384573d6000803e3d6000fd5b50506040517f9f6348ce0000000000000000000000000000000000000000000000000000000081526001600160a01b037f00000000000000000000000000000000000000000000000000000000000000008116600483015263ffffffff8e811660248401528d16604483015287811660648301528a8116608483015286169450639f6348ce935060a40191506104179050565b600060405180830381600087803b15801561043157600080fd5b505af1158015610445573d6000803e3d6000fd5b50505050826001600160a01b0316637ab4339d8e8e846040518463ffffffff1660e01b815260040161047993929190610b95565b600060405180830381600087803b15801561049357600080fd5b505af11580156104a7573d6000803e3d6000fd5b50506040517fc4d66de80000000000000000000000000000000000000000000000000000000081526001600160a01b0386811660048301528516925063c4d66de89150602401600060405180830381600087803b15801561050757600080fd5b505af115801561051b573d6000803e3d6000fd5b505050508a6001600160a01b0316336001600160a01b03167faf94cde051ff1210197fe31203f2210a396ffd110ab74cf8014d6bfd600842d58f8f8e8e8960405161056a959493929190610bc2565b60405180910390a350909b9a5050505050505050505050565b60006040517f3d602d80600a3d3981f3363d3d373d3d3d363d7300000000000000000000000081528260601b60148201527f5af43d82803e903d91602b57fd5bf3000000000000000000000000000000000060288201526037816000f09150506001600160a01b038116610657576040517f08c379a000000000000000000000000000000000000000000000000000000000815260206004820152601660248201527f455243313136373a20637265617465206661696c656400000000000000000000604482015260640160405180910390fd5b919050565b600080836040516020016106709190610a8e565b60405160208183030381529060405290506000846040516020016106949190610b5d565b604051602081830303815290604052905060006106d97f00000000000000000000000000000000000000000000000000000000000000006001600160a01b0316610583565b6040517f077f224a0000000000000000000000000000000000000000000000000000000081529091506001600160a01b0382169063077f224a9061072590869086908a90600401610c05565b600060405180830381600087803b15801561073f57600080fd5b505af1158015610753573d6000803e3d6000fd5b509298975050505050505050565b600080856040516020016107759190610ad3565b60405160208183030381529060405290506000866040516020016107999190610b18565b604051602081830303815290604052905060006107de7f00000000000000000000000000000000000000000000000000000000000000006001600160a01b0316610583565b6040517fd6d0faee0000000000000000000000000000000000000000000000000000000081529091506001600160a01b0382169063d6d0faee9061082e90869086908c908c908c90600401610c44565b600060405180830381600087803b15801561084857600080fd5b505af115801561085c573d6000803e3d6000fd5b50929a9950505050505050505050565b60008083601f84011261087d578182fd5b50813567ffffffffffffffff811115610894578182fd5b6020830191508360208285010111156108ac57600080fd5b9250929050565b803563ffffffff8116811461065757600080fd5b600080600080600080600080600060e08a8c0312156108e4578485fd5b893567ffffffffffffffff808211156108fb578687fd5b6109078d838e0161086c565b909b50995060208c0135915061091c82610d02565b90975060408b01359080821115610931578687fd5b5061093e8c828d0161086c565b9097509550610951905060608b016108b3565b935061095f60808b016108b3565b925060a08a013561096f81610d02565b915060c08a013561097f81610d02565b809150509295985092959850929598565b6000602082840312156109a1578081fd5b815167ffffffffffffffff808211156109b8578283fd5b818401915084601f8301126109cb578283fd5b8151818111156109dd576109dd610cd3565b604051601f8201601f19908116603f01168101908382118183101715610a0557610a05610cd3565b81604052828152876020848701011115610a1d578586fd5b610a2e836020830160208801610ca3565b979650505050505050565b81835281816020850137506000828201602090810191909152601f909101601f19169091010190565b60008151808452610a7a816020860160208601610ca3565b601f01601f19169290920160200192915050565b7f496e7465726573742042656172696e6720000000000000000000000000000000815260008251610ac6816011850160208701610ca3565b9190910160110192915050565b7f426f72726f772000000000000000000000000000000000000000000000000000815260008251610b0b816007850160208701610ca3565b9190910160070192915050565b7f6200000000000000000000000000000000000000000000000000000000000000815260008251610b50816001850160208701610ca3565b9190910160010192915050565b7f6900000000000000000000000000000000000000000000000000000000000000815260008251610b50816001850160208701610ca3565b604081526000610ba9604083018587610a39565b90506001600160a01b0383166020830152949350505050565b606081526000610bd6606083018789610a39565b8281036020840152610be9818688610a39565b9150506001600160a01b03831660408301529695505050505050565b606081526000610c186060830186610a62565b8281036020840152610c2a8186610a62565b9150506001600160a01b0383166040830152949350505050565b60a081526000610c5760a0830188610a62565b8281036020840152610c698188610a62565b90508281036040840152610c7d8187610a62565b9150506001600160a01b0380851660608401528084166080840152509695505050505050565b60005b83811015610cbe578181015183820152602001610ca6565b83811115610ccd576000848401525b50505050565b7f4e487b7100000000000000000000000000000000000000000000000000000000600052604160045260246000fd5b6001600160a01b0381168114610d1757600080fd5b5056fea2646970667358221220c9fe9ff185358de99466a9c92188ae95fbef2dbfe6f65504c278510f347b0e4964736f6c63430008040033",
  "linkReferences": {},
  "deployedLinkReferences": {}
}