{
  "_format": "hh-sol-artifact-1",
  "contractName": "EnterpriseFactory",
  "sourceName": "contracts/EnterpriseFactory.sol",
  "abi": [
    {
      "inputs": [
        {
          "internalType": "address",
          "name": "enterpriseImpl",
          "type": "address"
        },
        {
          "internalType": "address",
          "name": "powerTokenImpl",
          "type": "address"
        },
        {
          "internalType": "address",
          "name": "interestTokenImpl",
          "type": "address"
        },
        {
          "internalType": "address",
          "name": "borrowTokenImpl",
          "type": "address"
        }
      ],
      "stateMutability": "nonpayable",
      "type": "constructor"
    },
    {
      "anonymous": false,
      "inputs": [
        {
          "indexed": true,
          "internalType": "address",
          "name": "creator",
          "type": "address"
        },
        {
          "indexed": true,
          "internalType": "address",
          "name": "liquidityToken",
          "type": "address"
        },
        {
          "indexed": false,
          "internalType": "string",
          "name": "name",
          "type": "string"
        },
        {
          "indexed": false,
          "internalType": "string",
          "name": "baseUri",
          "type": "string"
        },
        {
          "indexed": false,
          "internalType": "address",
          "name": "deployed",
          "type": "address"
        }
      ],
      "name": "EnterpriseDeployed",
      "type": "event"
    },
    {
      "inputs": [
        {
          "internalType": "string",
          "name": "name",
          "type": "string"
        },
        {
          "internalType": "contract IERC20Metadata",
          "name": "liquidityToken",
          "type": "address"
        },
        {
          "internalType": "string",
          "name": "baseUri",
          "type": "string"
        },
        {
          "internalType": "address",
          "name": "estimatorImpl",
          "type": "address"
        },
        {
          "internalType": "contract IConverter",
          "name": "converter",
          "type": "address"
        }
      ],
      "name": "deploy",
      "outputs": [
        {
          "internalType": "contract Enterprise",
          "name": "",
          "type": "address"
        }
      ],
      "stateMutability": "nonpayable",
      "type": "function"
    },
    {
      "inputs": [],
      "name": "getBorrowTokenImpl",
      "outputs": [
        {
          "internalType": "address",
          "name": "",
          "type": "address"
        }
      ],
      "stateMutability": "view",
      "type": "function"
    },
    {
      "inputs": [],
      "name": "getEnterpriseImpl",
      "outputs": [
        {
          "internalType": "address",
          "name": "",
          "type": "address"
        }
      ],
      "stateMutability": "view",
      "type": "function"
    },
    {
      "inputs": [],
      "name": "getInterestTokenImpl",
      "outputs": [
        {
          "internalType": "address",
          "name": "",
          "type": "address"
        }
      ],
      "stateMutability": "view",
      "type": "function"
    },
    {
      "inputs": [],
      "name": "getPowerTokenImpl",
      "outputs": [
        {
          "internalType": "address",
          "name": "",
          "type": "address"
        }
      ],
      "stateMutability": "view",
      "type": "function"
    }
  ],
  "bytecode": "0x61010060405234801561001157600080fd5b50604051610cc4380380610cc4833981016040819052610030916101d8565b6001600160a01b03841661008b5760405162461bcd60e51b815260206004820152601a60248201527f496e76616c696420456e7465727072697365206164647265737300000000000060448201526064015b60405180910390fd5b6001600160a01b0383166100e15760405162461bcd60e51b815260206004820152601a60248201527f496e76616c696420506f776572546f6b656e20616464726573730000000000006044820152606401610082565b6001600160a01b0382166101375760405162461bcd60e51b815260206004820152601d60248201527f496e76616c696420496e746572657374546f6b656e20616464726573730000006044820152606401610082565b6001600160a01b03811661018d5760405162461bcd60e51b815260206004820152601b60248201527f496e76616c696420426f72726f77546f6b656e206164647265737300000000006044820152606401610082565b6001600160601b0319606094851b811660805292841b831660a05290831b821660c05290911b1660e05261022b565b80516001600160a01b03811681146101d357600080fd5b919050565b600080600080608085870312156101ed578384fd5b6101f6856101bc565b9350610204602086016101bc565b9250610212604086016101bc565b9150610220606086016101bc565b905092959194509250565b60805160601c60a05160601c60c05160601c60e05160601c610a3c61028860003960008181608d015261060d01526000818160ff015261052101526000818160d901526102f401526000818160b3015261012b0152610a3c6000f3fe608060405234801561001057600080fd5b50600436106100575760003560e01c80632f20ad8a1461005c578063628329551461008b57806382f93409146100b157806383b9a009146100d7578063d2c598b5146100fd575b600080fd5b61006f61006a366004610681565b610123565b6040516001600160a01b03909116815260200160405180910390f35b7f000000000000000000000000000000000000000000000000000000000000000061006f565b7f000000000000000000000000000000000000000000000000000000000000000061006f565b7f000000000000000000000000000000000000000000000000000000000000000061006f565b7f000000000000000000000000000000000000000000000000000000000000000061006f565b6000806101587f00000000000000000000000000000000000000000000000000000000000000006001600160a01b0316610430565b9050600061016e856001600160a01b0316610430565b905060006101f0896001600160a01b03166395d89b416040518163ffffffff1660e01b815260040160006040518083038186803b1580156101ae57600080fd5b505afa1580156101c2573d6000803e3d6000fd5b505050506040513d6000823e601f3d908101601f191682016040526101ea9190810190610729565b846104d1565b905060006102728a6001600160a01b03166395d89b416040518163ffffffff1660e01b815260040160006040518083038186803b15801561023057600080fd5b505afa158015610244573d6000803e3d6000fd5b505050506040513d6000823e601f3d908101601f1916820160405261026c9190810190610729565b856105bd565b6040516306d876b560e51b81529091506001600160a01b0385169063db0ed6a0906102ad908f908f908e908e908a908e903390600401610916565b600060405180830381600087803b1580156102c757600080fd5b505af11580156102db573d6000803e3d6000fd5b5050604051630c613f1960e21b81526001600160a01b037f0000000000000000000000000000000000000000000000000000000000000000811660048301528d811660248301528581166044830152848116606483015287169250633184fc649150608401600060405180830381600087803b15801561035a57600080fd5b505af115801561036e573d6000803e3d6000fd5b505060405163189acdbd60e31b81526001600160a01b0387811660048301528616925063c4d66de89150602401600060405180830381600087803b1580156103b557600080fd5b505af11580156103c9573d6000803e3d6000fd5b50505050896001600160a01b0316336001600160a01b03167faf94cde051ff1210197fe31203f2210a396ffd110ab74cf8014d6bfd600842d58e8e8d8d8a6040516104189594939291906108d4565b60405180910390a350919a9950505050505050505050565b6000604051733d602d80600a3d3981f3363d3d373d3d3d363d7360601b81528260601b60148201526e5af43d82803e903d91602b57fd5bf360881b60288201526037816000f09150506001600160a01b0381166104cc5760405162461bcd60e51b8152602060048201526016602482015275115490cc4c4d8dce8818dc99585d194819985a5b195960521b604482015260640160405180910390fd5b919050565b600080836040516020016104e59190610827565b604051602081830303815290604052905060008460405160200161050991906108b8565b6040516020818303038152906040529050600061054e7f00000000000000000000000000000000000000000000000000000000000000006001600160a01b0316610430565b6040516303bf912560e11b81529091506001600160a01b0382169063077f224a9061058190869086908a9060040161096a565b600060405180830381600087803b15801561059b57600080fd5b505af11580156105af573d6000803e3d6000fd5b509298975050505050505050565b600080836040516020016105d19190610860565b60405160208183030381529060405290506000846040516020016105f5919061088f565b6040516020818303038152906040529050600061054e7f00000000000000000000000000000000000000000000000000000000000000006001600160a01b0316610430565b60008083601f84011261064b578182fd5b50813567ffffffffffffffff811115610662578182fd5b60208301915083602082850101111561067a57600080fd5b9250929050565b600080600080600080600060a0888a03121561069b578283fd5b873567ffffffffffffffff808211156106b2578485fd5b6106be8b838c0161063a565b909950975060208a013591506106d3826109ee565b909550604089013590808211156106e8578485fd5b506106f58a828b0161063a565b9095509350506060880135610709816109ee565b91506080880135610719816109ee565b8091505092959891949750929550565b60006020828403121561073a578081fd5b815167ffffffffffffffff80821115610751578283fd5b818401915084601f830112610764578283fd5b815181811115610776576107766109d8565b604051601f8201601f19908116603f0116810190838211818310171561079e5761079e6109d8565b816040528281528760208487010111156107b6578586fd5b6107c78360208301602088016109a8565b979650505050505050565b81835281816020850137506000828201602090810191909152601f909101601f19169091010190565b600081518084526108138160208601602086016109a8565b601f01601f19169290920160200192915050565b70024b73a32b932b9ba102132b0b934b7339607d1b8152600082516108538160118501602087016109a8565b9190910160110192915050565b6602137b93937bb960cd1b8152600082516108828160078501602087016109a8565b9190910160070192915050565b603160f91b8152600082516108ab8160018501602087016109a8565b9190910160010192915050565b606960f81b8152600082516108ab8160018501602087016109a8565b6060815260006108e86060830187896107d2565b82810360208401526108fb8186886107d2565b91505060018060a01b03831660408301529695505050505050565b60a08152600061092a60a08301898b6107d2565b828103602084015261093d81888a6107d2565b6001600160a01b039687166040850152948616606084015250509216608090920191909152949350505050565b60608152600061097d60608301866107fb565b828103602084015261098f81866107fb565b91505060018060a01b0383166040830152949350505050565b60005b838110156109c35781810151838201526020016109ab565b838111156109d2576000848401525b50505050565b634e487b7160e01b600052604160045260246000fd5b6001600160a01b0381168114610a0357600080fd5b5056fea264697066735822122071f2f169c18b854b4a971e80241ebb0e272cac3de3f1affc57c30e392140ab1364736f6c63430008040033",
  "linkReferences": {},
  "deployedLinkReferences": {}
}