{
  "_format": "hh-sol-artifact-1",
  "contractName": "EnterpriseFactory",
  "sourceName": "contracts/EnterpriseFactory.sol",
  "abi": [
    {
      "inputs": [
        {
          "internalType": "address",
          "name": "enterpriseImpl",
          "type": "address"
        },
        {
          "internalType": "address",
          "name": "powerTokenImpl",
          "type": "address"
        },
        {
          "internalType": "address",
          "name": "interestTokenImpl",
          "type": "address"
        },
        {
          "internalType": "address",
          "name": "borrowTokenImpl",
          "type": "address"
        }
      ],
      "stateMutability": "nonpayable",
      "type": "constructor"
    },
    {
      "anonymous": false,
      "inputs": [
        {
          "indexed": true,
          "internalType": "address",
          "name": "creator",
          "type": "address"
        },
        {
          "indexed": true,
          "internalType": "address",
          "name": "liquidityToken",
          "type": "address"
        },
        {
          "indexed": false,
          "internalType": "string",
          "name": "name",
          "type": "string"
        },
        {
          "indexed": false,
          "internalType": "string",
          "name": "baseUri",
          "type": "string"
        },
        {
          "indexed": false,
          "internalType": "address",
          "name": "deployed",
          "type": "address"
        }
      ],
      "name": "EnterpriseDeployed",
      "type": "event"
    },
    {
      "inputs": [
        {
          "internalType": "string",
          "name": "name",
          "type": "string"
        },
        {
          "internalType": "contract IERC20Metadata",
          "name": "liquidityToken",
          "type": "address"
        },
        {
          "internalType": "string",
          "name": "baseUri",
          "type": "string"
        },
        {
          "internalType": "address",
          "name": "estimatorImpl",
          "type": "address"
        },
        {
          "internalType": "contract IConverter",
          "name": "converter",
          "type": "address"
        }
      ],
      "name": "deploy",
      "outputs": [
        {
          "internalType": "contract Enterprise",
          "name": "",
          "type": "address"
        }
      ],
      "stateMutability": "nonpayable",
      "type": "function"
    },
    {
      "inputs": [],
      "name": "getBorrowTokenImpl",
      "outputs": [
        {
          "internalType": "address",
          "name": "",
          "type": "address"
        }
      ],
      "stateMutability": "view",
      "type": "function"
    },
    {
      "inputs": [],
      "name": "getEnterpriseImpl",
      "outputs": [
        {
          "internalType": "address",
          "name": "",
          "type": "address"
        }
      ],
      "stateMutability": "view",
      "type": "function"
    },
    {
      "inputs": [],
      "name": "getInterestTokenImpl",
      "outputs": [
        {
          "internalType": "address",
          "name": "",
          "type": "address"
        }
      ],
      "stateMutability": "view",
      "type": "function"
    },
    {
      "inputs": [],
      "name": "getPowerTokenImpl",
      "outputs": [
        {
          "internalType": "address",
          "name": "",
          "type": "address"
        }
      ],
      "stateMutability": "view",
      "type": "function"
    }
  ],
  "bytecode": "0x61010060405234801561001157600080fd5b5060405162000de938038062000de9833981016040819052610032916101da565b6001600160a01b03841661008d5760405162461bcd60e51b815260206004820152601a60248201527f496e76616c696420456e7465727072697365206164647265737300000000000060448201526064015b60405180910390fd5b6001600160a01b0383166100e35760405162461bcd60e51b815260206004820152601a60248201527f496e76616c696420506f776572546f6b656e20616464726573730000000000006044820152606401610084565b6001600160a01b0382166101395760405162461bcd60e51b815260206004820152601d60248201527f496e76616c696420496e746572657374546f6b656e20616464726573730000006044820152606401610084565b6001600160a01b03811661018f5760405162461bcd60e51b815260206004820152601b60248201527f496e76616c696420426f72726f77546f6b656e206164647265737300000000006044820152606401610084565b6001600160601b0319606094851b811660805292841b831660a05290831b821660c05290911b1660e05261022d565b80516001600160a01b03811681146101d557600080fd5b919050565b600080600080608085870312156101ef578384fd5b6101f8856101be565b9350610206602086016101be565b9250610214604086016101be565b9150610222606086016101be565b905092959194509250565b60805160601c60a05160601c60c05160601c60e05160601c610b5d6200028c60003960008181609d01526106b901526000818161010f01526105b401526000818160e9015261033601526000818160c3015261013b0152610b5d6000f3fe608060405234801561001057600080fd5b50600436106100675760003560e01c806382f934091161005057806382f93409146100c157806383b9a009146100e7578063d2c598b51461010d57600080fd5b80632f20ad8a1461006c578063628329551461009b575b600080fd5b61007f61007a36600461072d565b610133565b6040516001600160a01b03909116815260200160405180910390f35b7f000000000000000000000000000000000000000000000000000000000000000061007f565b7f000000000000000000000000000000000000000000000000000000000000000061007f565b7f000000000000000000000000000000000000000000000000000000000000000061007f565b7f000000000000000000000000000000000000000000000000000000000000000061007f565b6000806101687f00000000000000000000000000000000000000000000000000000000000000006001600160a01b031661048b565b9050600061017e856001600160a01b031661048b565b90506000610200896001600160a01b03166395d89b416040518163ffffffff1660e01b815260040160006040518083038186803b1580156101be57600080fd5b505afa1580156101d2573d6000803e3d6000fd5b505050506040513d6000823e601f3d908101601f191682016040526101fa91908101906107d5565b84610564565b905060006102828a6001600160a01b03166395d89b416040518163ffffffff1660e01b815260040160006040518083038186803b15801561024057600080fd5b505afa158015610254573d6000803e3d6000fd5b505050506040513d6000823e601f3d908101601f1916820160405261027c91908101906107d5565b85610669565b6040517fdb0ed6a00000000000000000000000000000000000000000000000000000000081529091506001600160a01b0385169063db0ed6a0906102d6908f908f908e908e908a908e903390600401610a1d565b600060405180830381600087803b1580156102f057600080fd5b505af1158015610304573d6000803e3d6000fd5b50506040517f3184fc640000000000000000000000000000000000000000000000000000000081526001600160a01b037f0000000000000000000000000000000000000000000000000000000000000000811660048301528d811660248301528581166044830152848116606483015287169250633184fc649150608401600060405180830381600087803b15801561039c57600080fd5b505af11580156103b0573d6000803e3d6000fd5b50506040517fc4d66de80000000000000000000000000000000000000000000000000000000081526001600160a01b0387811660048301528616925063c4d66de89150602401600060405180830381600087803b15801561041057600080fd5b505af1158015610424573d6000803e3d6000fd5b50505050896001600160a01b0316336001600160a01b03167faf94cde051ff1210197fe31203f2210a396ffd110ab74cf8014d6bfd600842d58e8e8d8d8a6040516104739594939291906109da565b60405180910390a350919a9950505050505050505050565b60006040517f3d602d80600a3d3981f3363d3d373d3d3d363d7300000000000000000000000081528260601b60148201527f5af43d82803e903d91602b57fd5bf3000000000000000000000000000000000060288201526037816000f09150506001600160a01b03811661055f576040517f08c379a000000000000000000000000000000000000000000000000000000000815260206004820152601660248201527f455243313136373a20637265617465206661696c656400000000000000000000604482015260640160405180910390fd5b919050565b6000808360405160200161057891906108d3565b604051602081830303815290604052905060008460405160200161059c91906109a2565b604051602081830303815290604052905060006105e17f00000000000000000000000000000000000000000000000000000000000000006001600160a01b031661048b565b6040517f077f224a0000000000000000000000000000000000000000000000000000000081529091506001600160a01b0382169063077f224a9061062d90869086908a90600401610a71565b600060405180830381600087803b15801561064757600080fd5b505af115801561065b573d6000803e3d6000fd5b509298975050505050505050565b6000808360405160200161067d9190610918565b60405160208183030381529060405290506000846040516020016106a1919061095d565b604051602081830303815290604052905060006105e17f00000000000000000000000000000000000000000000000000000000000000006001600160a01b031661048b565b60008083601f8401126106f7578182fd5b50813567ffffffffffffffff81111561070e578182fd5b60208301915083602082850101111561072657600080fd5b9250929050565b600080600080600080600060a0888a031215610747578283fd5b873567ffffffffffffffff8082111561075e578485fd5b61076a8b838c016106e6565b909950975060208a0135915061077f82610b0f565b90955060408901359080821115610794578485fd5b506107a18a828b016106e6565b90955093505060608801356107b581610b0f565b915060808801356107c581610b0f565b8091505092959891949750929550565b6000602082840312156107e6578081fd5b815167ffffffffffffffff808211156107fd578283fd5b818401915084601f830112610810578283fd5b81518181111561082257610822610ae0565b604051601f8201601f19908116603f0116810190838211818310171561084a5761084a610ae0565b81604052828152876020848701011115610862578586fd5b610873836020830160208801610ab0565b979650505050505050565b81835281816020850137506000828201602090810191909152601f909101601f19169091010190565b600081518084526108bf816020860160208601610ab0565b601f01601f19169290920160200192915050565b7f496e7465726573742042656172696e672000000000000000000000000000000081526000825161090b816011850160208701610ab0565b9190910160110192915050565b7f426f72726f772000000000000000000000000000000000000000000000000000815260008251610950816007850160208701610ab0565b9190910160070192915050565b7f6200000000000000000000000000000000000000000000000000000000000000815260008251610995816001850160208701610ab0565b9190910160010192915050565b7f6900000000000000000000000000000000000000000000000000000000000000815260008251610995816001850160208701610ab0565b6060815260006109ee60608301878961087e565b8281036020840152610a0181868861087e565b9150506001600160a01b03831660408301529695505050505050565b60a081526000610a3160a08301898b61087e565b8281036020840152610a4481888a61087e565b6001600160a01b039687166040850152948616606084015250509216608090920191909152949350505050565b606081526000610a8460608301866108a7565b8281036020840152610a9681866108a7565b9150506001600160a01b0383166040830152949350505050565b60005b83811015610acb578181015183820152602001610ab3565b83811115610ada576000848401525b50505050565b7f4e487b7100000000000000000000000000000000000000000000000000000000600052604160045260246000fd5b6001600160a01b0381168114610b2457600080fd5b5056fea264697066735822122092b8ecc48e9cc9fcd95f09529c6109dc938476678063c152c48d16ec879a2c9a64736f6c63430008040033",
  "linkReferences": {},
  "deployedLinkReferences": {}
}