{
  "_format": "hh-sol-artifact-1",
  "contractName": "EnterpriseFactory",
  "sourceName": "contracts/EnterpriseFactory.sol",
  "abi": [
    {
      "inputs": [
        {
          "internalType": "address",
          "name": "enterpriseImpl",
          "type": "address"
        },
        {
          "internalType": "address",
          "name": "powerTokenImpl",
          "type": "address"
        },
        {
          "internalType": "address",
          "name": "interestTokenImpl",
          "type": "address"
        },
        {
          "internalType": "address",
          "name": "borrowTokenImpl",
          "type": "address"
        }
      ],
      "stateMutability": "nonpayable",
      "type": "constructor"
    },
    {
      "anonymous": false,
      "inputs": [
        {
          "indexed": true,
          "internalType": "address",
          "name": "creator",
          "type": "address"
        },
        {
          "indexed": true,
          "internalType": "address",
          "name": "liquidityToken",
          "type": "address"
        },
        {
          "indexed": false,
          "internalType": "string",
          "name": "name",
          "type": "string"
        },
        {
          "indexed": false,
          "internalType": "string",
          "name": "baseUri",
          "type": "string"
        },
        {
          "indexed": false,
          "internalType": "address",
          "name": "deployed",
          "type": "address"
        }
      ],
      "name": "EnterpriseDeployed",
      "type": "event"
    },
    {
      "inputs": [
        {
          "internalType": "string",
          "name": "name",
          "type": "string"
        },
        {
          "internalType": "address",
          "name": "liquidityToken",
          "type": "address"
        },
        {
          "internalType": "uint256",
          "name": "enterpriseFee",
          "type": "uint256"
        },
        {
          "internalType": "string",
          "name": "baseUri",
          "type": "string"
        },
        {
          "internalType": "uint32",
          "name": "borrowerLoanReturnGracePeriod",
          "type": "uint32"
        },
        {
          "internalType": "uint32",
          "name": "enterpriseLoanCollectGracePeriod",
          "type": "uint32"
        },
        {
          "internalType": "contract ILoanCostEstimator",
          "name": "estimator",
          "type": "address"
        },
        {
          "internalType": "contract IConverter",
          "name": "converter",
          "type": "address"
        }
      ],
      "name": "deploy",
      "outputs": [
        {
          "internalType": "contract IEnterprise",
          "name": "",
          "type": "address"
        }
      ],
      "stateMutability": "nonpayable",
      "type": "function"
    },
    {
      "inputs": [],
      "name": "getBorrowTokenImpl",
      "outputs": [
        {
          "internalType": "address",
          "name": "",
          "type": "address"
        }
      ],
      "stateMutability": "view",
      "type": "function"
    },
    {
      "inputs": [],
      "name": "getEnterpriseImpl",
      "outputs": [
        {
          "internalType": "address",
          "name": "",
          "type": "address"
        }
      ],
      "stateMutability": "view",
      "type": "function"
    },
    {
      "inputs": [],
      "name": "getInterestTokenImpl",
      "outputs": [
        {
          "internalType": "address",
          "name": "",
          "type": "address"
        }
      ],
      "stateMutability": "view",
      "type": "function"
    },
    {
      "inputs": [],
      "name": "getPowerTokenImpl",
      "outputs": [
        {
          "internalType": "address",
          "name": "",
          "type": "address"
        }
      ],
      "stateMutability": "view",
      "type": "function"
    }
  ],
  "bytecode": "0x61010060405234801561001157600080fd5b506040516108dc3803806108dc8339818101604052608081101561003457600080fd5b50805160208201516040830151606090930151919290916001600160a01b0384166100a6576040805162461bcd60e51b815260206004820152601a60248201527f496e76616c696420456e74657270726973652061646472657373000000000000604482015290519081900360640190fd5b6001600160a01b038316610101576040805162461bcd60e51b815260206004820152601a60248201527f496e76616c696420506f776572546f6b656e2061646472657373000000000000604482015290519081900360640190fd5b6001600160a01b03821661015c576040805162461bcd60e51b815260206004820152601d60248201527f496e76616c696420496e746572657374546f6b656e2061646472657373000000604482015290519081900360640190fd5b6001600160a01b0381166101b7576040805162461bcd60e51b815260206004820152601b60248201527f496e76616c696420426f72726f77546f6b656e20616464726573730000000000604482015290519081900360640190fd5b6001600160601b0319606094851b811660805292841b831660a05290831b821660c05290911b1660e05260805160601c60a05160601c60c05160601c60e05160601c6106a66102366000398061027c528061050852508061025b52806105745250806103b552806105505250806101af528061052c52506106a66000f3fe608060405234801561001057600080fd5b50600436106100675760003560e01c806382f934091161005057806382f934091461018f57806383b9a00914610197578063d2c598b51461019f57610067565b806329168ba31461006c5780636283295514610187575b600080fd5b61016b600480360361010081101561008357600080fd5b81019060208101813564010000000081111561009e57600080fd5b8201836020820111156100b057600080fd5b803590602001918460018302840111640100000000831117156100d257600080fd5b919390926001600160a01b0383351692602081013592919060608101906040013564010000000081111561010557600080fd5b82018360208201111561011757600080fd5b8035906020019184600183028401116401000000008311171561013957600080fd5b919350915063ffffffff81358116916020810135909116906001600160a01b03604082013581169160600135166101a7565b604080516001600160a01b039092168252519081900360200190f35b61016b610506565b61016b61052a565b61016b61054e565b61016b610572565b6000806101dc7f00000000000000000000000000000000000000000000000000000000000000006001600160a01b0316610596565b9050836001600160a01b031663c4d66de8826040518263ffffffff1660e01b815260040180826001600160a01b03168152602001915050600060405180830381600087803b15801561022d57600080fd5b505af1158015610241573d6000803e3d6000fd5b50505050806001600160a01b031663a64b90d38d8d8d8c8c7f00000000000000000000000000000000000000000000000000000000000000007f0000000000000000000000000000000000000000000000000000000000000000336040518963ffffffff1660e01b81526004018080602001886001600160a01b0316815260200180602001866001600160a01b03168152602001856001600160a01b03168152602001846001600160a01b0316815260200183810383528b8b82818152602001925080828437600083820152601f01601f191690910184810383528881526020019050888880828437600081840152601f19601f8201169050808301925050509a5050505050505050505050600060405180830381600087803b15801561036757600080fd5b505af115801561037b573d6000803e3d6000fd5b5050604080517f16fc54bf000000000000000000000000000000000000000000000000000000008152600481018d90526001600160a01b037f00000000000000000000000000000000000000000000000000000000000000008116602483015263ffffffff8b811660448401528a166064830152888116608483015287811660a4830152915191851693506316fc54bf925060c48082019260009290919082900301818387803b15801561042e57600080fd5b505af1158015610442573d6000803e3d6000fd5b50505050896001600160a01b0316336001600160a01b03167faf94cde051ff1210197fe31203f2210a396ffd110ab74cf8014d6bfd600842d58e8e8c8c87604051808060200180602001846001600160a01b031681526020018381038352888882818152602001925080828437600083820152601f01601f191690910184810383528681526020019050868680828437600083820152604051601f909101601f1916909201829003995090975050505050505050a39b9a5050505050505050505050565b7f000000000000000000000000000000000000000000000000000000000000000090565b7f000000000000000000000000000000000000000000000000000000000000000090565b7f000000000000000000000000000000000000000000000000000000000000000090565b7f000000000000000000000000000000000000000000000000000000000000000090565b60006040517f3d602d80600a3d3981f3363d3d373d3d3d363d7300000000000000000000000081528260601b60148201527f5af43d82803e903d91602b57fd5bf3000000000000000000000000000000000060288201526037816000f09150506001600160a01b03811661066b57604080517f08c379a000000000000000000000000000000000000000000000000000000000815260206004820152601660248201527f455243313136373a20637265617465206661696c656400000000000000000000604482015290519081900360640190fd5b91905056fea26469706673582212206771972f49909e8a4efec2d71313e9d3f1ba8fa1022835b0691d17d9a4358b4364736f6c63430007060033",
  "linkReferences": {},
  "deployedLinkReferences": {}
}