{
  "_format": "hh-sol-artifact-1",
  "contractName": "EnterpriseFactory",
  "sourceName": "contracts/EnterpriseFactory.sol",
  "abi": [
    {
      "inputs": [
        {
          "internalType": "address",
          "name": "enterpriseImpl",
          "type": "address"
        },
        {
          "internalType": "address",
          "name": "powerTokenImpl",
          "type": "address"
        },
        {
          "internalType": "address",
          "name": "interestTokenImpl",
          "type": "address"
        },
        {
          "internalType": "address",
          "name": "borrowTokenImpl",
          "type": "address"
        },
        {
          "internalType": "address",
          "name": "configuratorImpl",
          "type": "address"
        }
      ],
      "stateMutability": "nonpayable",
      "type": "constructor"
    },
    {
      "anonymous": false,
      "inputs": [
        {
          "indexed": true,
          "internalType": "address",
          "name": "creator",
          "type": "address"
        },
        {
          "indexed": true,
          "internalType": "address",
          "name": "liquidityToken",
          "type": "address"
        },
        {
          "indexed": false,
          "internalType": "string",
          "name": "name",
          "type": "string"
        },
        {
          "indexed": false,
          "internalType": "string",
          "name": "baseUri",
          "type": "string"
        },
        {
          "indexed": false,
          "internalType": "address",
          "name": "deployed",
          "type": "address"
        }
      ],
      "name": "EnterpriseDeployed",
      "type": "event"
    },
    {
      "inputs": [
        {
          "internalType": "string",
          "name": "name",
          "type": "string"
        },
        {
          "internalType": "contract IERC20Detailed",
          "name": "liquidityToken",
          "type": "address"
        },
        {
          "internalType": "string",
          "name": "baseUri",
          "type": "string"
        },
        {
          "internalType": "uint32",
          "name": "borrowerLoanReturnGracePeriod",
          "type": "uint32"
        },
        {
          "internalType": "uint32",
          "name": "enterpriseLoanCollectGracePeriod",
          "type": "uint32"
        },
        {
          "internalType": "contract ILoanCostEstimator",
          "name": "estimator",
          "type": "address"
        },
        {
          "internalType": "contract IConverter",
          "name": "converter",
          "type": "address"
        }
      ],
      "name": "deploy",
      "outputs": [
        {
          "internalType": "contract IEnterprise",
          "name": "",
          "type": "address"
        }
      ],
      "stateMutability": "nonpayable",
      "type": "function"
    },
    {
      "inputs": [],
      "name": "getBorrowTokenImpl",
      "outputs": [
        {
          "internalType": "address",
          "name": "",
          "type": "address"
        }
      ],
      "stateMutability": "view",
      "type": "function"
    },
    {
      "inputs": [],
      "name": "getEnterpriseImpl",
      "outputs": [
        {
          "internalType": "address",
          "name": "",
          "type": "address"
        }
      ],
      "stateMutability": "view",
      "type": "function"
    },
    {
      "inputs": [],
      "name": "getInterestTokenImpl",
      "outputs": [
        {
          "internalType": "address",
          "name": "",
          "type": "address"
        }
      ],
      "stateMutability": "view",
      "type": "function"
    },
    {
      "inputs": [],
      "name": "getPowerTokenImpl",
      "outputs": [
        {
          "internalType": "address",
          "name": "",
          "type": "address"
        }
      ],
      "stateMutability": "view",
      "type": "function"
    }
  ],
  "bytecode": "0x61012060405234801561001157600080fd5b506040516110b43803806110b4833981810160405260a081101561003457600080fd5b508051602082015160408301516060840151608090940151929391929091906001600160a01b0385166100ae576040805162461bcd60e51b815260206004820152601a60248201527f496e76616c696420456e74657270726973652061646472657373000000000000604482015290519081900360640190fd5b6001600160a01b038416610109576040805162461bcd60e51b815260206004820152601a60248201527f496e76616c696420506f776572546f6b656e2061646472657373000000000000604482015290519081900360640190fd5b6001600160a01b038316610164576040805162461bcd60e51b815260206004820152601d60248201527f496e76616c696420496e746572657374546f6b656e2061646472657373000000604482015290519081900360640190fd5b6001600160a01b0382166101bf576040805162461bcd60e51b815260206004820152601b60248201527f496e76616c696420426f72726f77546f6b656e20616464726573730000000000604482015290519081900360640190fd5b6001600160a01b03811661021a576040805162461bcd60e51b815260206004820152601c60248201527f496e76616c696420436f6e666967757261746f72206164647265737300000000604482015290519081900360640190fd5b6001600160601b0319606095861b811660805293851b841660a05291841b831660c052831b821660e05290911b166101005260805160601c60a05160601c60c05160601c60e05160601c6101005160601c610e066102ae600039806103065250806106c25280610be552508061072e5280610958525080610448528061070a5250806101a652806106e65250610e066000f3fe608060405234801561001057600080fd5b50600436106100675760003560e01c806382f934091161005057806382f934091461018657806383b9a0091461018e578063d2c598b51461019657610067565b806355b4e2d81461006c578063628329551461017e575b600080fd5b610162600480360360e081101561008257600080fd5b81019060208101813564010000000081111561009d57600080fd5b8201836020820111156100af57600080fd5b803590602001918460018302840111640100000000831117156100d157600080fd5b919390926001600160a01b03833516926040810190602001356401000000008111156100fc57600080fd5b82018360208201111561010e57600080fd5b8035906020019184600183028401116401000000008311171561013057600080fd5b919350915063ffffffff81358116916020810135909116906001600160a01b036040820135811691606001351661019e565b604080516001600160a01b039092168252519081900360200190f35b6101626106c0565b6101626106e4565b610162610708565b61016261072c565b6000806101d37f00000000000000000000000000000000000000000000000000000000000000006001600160a01b0316610750565b90506000896001600160a01b03166395d89b416040518163ffffffff1660e01b815260040160006040518083038186803b15801561021057600080fd5b505afa158015610224573d6000803e3d6000fd5b505050506040513d6000823e601f3d908101601f19168201604052602081101561024d57600080fd5b810190808051604051939291908464010000000082111561026d57600080fd5b90830190602082018581111561028257600080fd5b825164010000000081118282018810171561029c57600080fd5b82525081516020918201929091019080838360005b838110156102c95781810151838201526020016102b1565b50505050905090810190601f1680156102f65780820380516001836020036101000a031916815260200191505b50604052505050905060006103337f00000000000000000000000000000000000000000000000000000000000000006001600160a01b0316610750565b905060006103408361082a565b90506000610388848d8d8080601f0160208091040260200160405190810160405280939291908181526020018383808284376000920191909152508892508a9150610ab79050565b9050826001600160a01b0316631459457a868f8585336040518663ffffffff1660e01b815260040180866001600160a01b03168152602001856001600160a01b03168152602001846001600160a01b03168152602001836001600160a01b03168152602001826001600160a01b0316815260200195505050505050600060405180830381600087803b15801561041d57600080fd5b505af1158015610431573d6000803e3d6000fd5b505050505050806001600160a01b0316639f6348ce7f00000000000000000000000000000000000000000000000000000000000000008a8a8a8a6040518663ffffffff1660e01b815260040180866001600160a01b031681526020018563ffffffff1681526020018463ffffffff168152602001836001600160a01b03168152602001826001600160a01b0316815260200195505050505050600060405180830381600087803b1580156104e457600080fd5b505af11580156104f8573d6000803e3d6000fd5b50505050826001600160a01b0316637ab4339d8e8e846040518463ffffffff1660e01b81526004018080602001836001600160a01b031681526020018281038252858582818152602001925080828437600081840152601f19601f820116905080830192505050945050505050600060405180830381600087803b15801561057f57600080fd5b505af1158015610593573d6000803e3d6000fd5b50505050856001600160a01b031663c4d66de8846040518263ffffffff1660e01b815260040180826001600160a01b03168152602001915050600060405180830381600087803b1580156105e657600080fd5b505af11580156105fa573d6000803e3d6000fd5b505050508a6001600160a01b0316336001600160a01b03167faf94cde051ff1210197fe31203f2210a396ffd110ab74cf8014d6bfd600842d58f8f8e8e89604051808060200180602001846001600160a01b031681526020018381038352888882818152602001925080828437600083820152601f01601f191690910184810383528681526020019050868680828437600083820152604051601f909101601f1916909201829003995090975050505050505050a350909b9a5050505050505050505050565b7f000000000000000000000000000000000000000000000000000000000000000090565b7f000000000000000000000000000000000000000000000000000000000000000090565b7f000000000000000000000000000000000000000000000000000000000000000090565b7f000000000000000000000000000000000000000000000000000000000000000090565b60006040517f3d602d80600a3d3981f3363d3d373d3d3d363d7300000000000000000000000081528260601b60148201527f5af43d82803e903d91602b57fd5bf3000000000000000000000000000000000060288201526037816000f09150506001600160a01b03811661082557604080517f08c379a000000000000000000000000000000000000000000000000000000000815260206004820152601660248201527f455243313136373a20637265617465206661696c656400000000000000000000604482015290519081900360640190fd5b919050565b6000808260405160200180807f496e7465726573742042656172696e672000000000000000000000000000000081525060110182805190602001908083835b602083106108885780518252601f199092019160209182019101610869565b6001836020036101000a038019825116818451168082178552505050505050905001915050604051602081830303815290604052905060008360405160200180807f690000000000000000000000000000000000000000000000000000000000000081525060010182805190602001908083835b6020831061091b5780518252601f1990920191602091820191016108fc565b6001836020036101000a038019825116818451168082178552505050505050905001915050604051602081830303815290604052905060006109857f00000000000000000000000000000000000000000000000000000000000000006001600160a01b0316610750565b9050806001600160a01b0316634cd88b7684846040518363ffffffff1660e01b8152600401808060200180602001838103835285818151815260200191508051906020019080838360005b838110156109e85781810151838201526020016109d0565b50505050905090810190601f168015610a155780820380516001836020036101000a031916815260200191505b50838103825284518152845160209182019186019080838360005b83811015610a48578181015183820152602001610a30565b50505050905090810190601f168015610a755780820380516001836020036101000a031916815260200191505b50945050505050600060405180830381600087803b158015610a9657600080fd5b505af1158015610aaa573d6000803e3d6000fd5b5092979650505050505050565b6000808560405160200180807f426f72726f77200000000000000000000000000000000000000000000000000081525060070182805190602001908083835b60208310610b155780518252601f199092019160209182019101610af6565b6001836020036101000a038019825116818451168082178552505050505050905001915050604051602081830303815290604052905060008660405160200180807f620000000000000000000000000000000000000000000000000000000000000081525060010182805190602001908083835b60208310610ba85780518252601f199092019160209182019101610b89565b6001836020036101000a03801982511681845116808217855250505050505090500191505060405160208183030381529060405290506000610c127f00000000000000000000000000000000000000000000000000000000000000006001600160a01b0316610750565b9050806001600160a01b031663d6d0faee84848a8a8a6040518663ffffffff1660e01b815260040180806020018060200180602001866001600160a01b03168152602001856001600160a01b03168152602001848103845289818151815260200191508051906020019080838360005b83811015610c9a578181015183820152602001610c82565b50505050905090810190601f168015610cc75780820380516001836020036101000a031916815260200191505b5084810383528851815288516020918201918a019080838360005b83811015610cfa578181015183820152602001610ce2565b50505050905090810190601f168015610d275780820380516001836020036101000a031916815260200191505b50848103825287518152875160209182019189019080838360005b83811015610d5a578181015183820152602001610d42565b50505050905090810190601f168015610d875780820380516001836020036101000a031916815260200191505b5098505050505050505050600060405180830381600087803b158015610dac57600080fd5b505af1158015610dc0573d6000803e3d6000fd5b50929a995050505050505050505056fea26469706673582212203c7fc375ef2fdcc56a1a036c0a20da59977e563c758f1e92d13902c27f30a97264736f6c63430007060033",
  "linkReferences": {},
  "deployedLinkReferences": {}
}