{
  "_format": "hh-sol-artifact-1",
  "contractName": "DefaultLoanCostEstimator",
  "sourceName": "contracts/DefaultLoanCostEstimator.sol",
  "abi": [
    {
      "inputs": [
        {
          "internalType": "contract IPowerToken",
          "name": "powerToken",
          "type": "address"
        },
        {
          "internalType": "uint112",
          "name": "amount",
          "type": "uint112"
        },
        {
          "internalType": "uint32",
          "name": "duration",
          "type": "uint32"
        }
      ],
      "name": "estimateCost",
      "outputs": [
        {
          "internalType": "uint112",
          "name": "",
          "type": "uint112"
        }
      ],
      "stateMutability": "view",
      "type": "function"
    },
    {
      "inputs": [
        {
          "internalType": "contract IEnterprise",
          "name": "enterprise",
          "type": "address"
        }
      ],
      "name": "initialize",
      "outputs": [],
      "stateMutability": "nonpayable",
      "type": "function"
    },
    {
      "inputs": [
        {
          "internalType": "uint256",
          "name": "tokenId",
          "type": "uint256"
        }
      ],
      "name": "notifyNewLoan",
      "outputs": [],
      "stateMutability": "nonpayable",
      "type": "function"
    }
  ],
  "bytecode": "0x608060405234801561001057600080fd5b50610b69806100206000396000f3fe608060405234801561001057600080fd5b50600436106100415760003560e01c806319065df414610046578063c4d66de81461007c578063f8642f2914610091575b600080fd5b610059610054366004610985565b6100a2565b6040516dffffffffffffffffffffffffffff909116815260200160405180910390f35b61008f61008a366004610969565b6106e3565b005b61008f61009f3660046109f3565b50565b60008054604080517faebb5041000000000000000000000000000000000000000000000000000000008152905183926001600160a01b03169163aebb5041916004808301926020929190829003018186803b15801561010057600080fd5b505afa158015610114573d6000803e3d6000fd5b505050506040513d601f19601f820116820180604052508101906101389190610a0b565b9050836dffffffffffffffffffffffffffff168111610168576dffffffffffffffffffffffffffff9150506106dc565b60008060009054906101000a90046001600160a01b03166001600160a01b0316639b7ae5ec6040518163ffffffff1660e01b815260040160206040518083038186803b1580156101b757600080fd5b505afa1580156101cb573d6000803e3d6000fd5b505050506040513d601f19601f820116820180604052508101906101ef919061094d565b6040517f9ba7a8c00000000000000000000000000000000000000000000000000000000081526001600160a01b038881166004830152919250600091831690639ba7a8c09060240160206040518083038186803b15801561024f57600080fd5b505afa158015610263573d6000803e3d6000fd5b505050506040513d601f19601f8201168201806040525081019061028791906109d7565b6dffffffffffffffffffffffffffff168563ffffffff16876dffffffffffffffffffffffffffff166102b99190610ab6565b6102c39190610ab6565b90506103046040518060400160405280600481526020017f4241534500000000000000000000000000000000000000000000000000000000815250826107d1565b60008060009054906101000a90046001600160a01b03166001600160a01b03166359bf5d396040518163ffffffff1660e01b815260040160206040518083038186803b15801561035357600080fd5b505afa158015610367573d6000803e3d6000fd5b505050506040513d601f19601f8201168201806040525081019061038b9190610a0b565b905060006103a3606468050000000000000000610a96565b9050680100000000000000006802000000000000000060008460406103d86dffffffffffffffffffffffffffff8e168b610ad5565b6103e392911b610a96565b9050838110156103f05750825b61042f6040518060400160405280600481526020017f5820202000000000000000000000000000000000000000000000000000000000815250826107d1565b61046e6040518060400160405280600481526020017f4f4e452000000000000000000000000000000000000000000000000000000000815250846107d1565b6104ad6040518060400160405280600481526020017f5230202000000000000000000000000000000000000000000000000000000000815250856107d1565b60408051808201909152600481527f4f2d52300000000000000000000000000000000000000000000000000000000060208201526104f4906104ef8686610ad5565b6107d1565b60006105008285610ad5565b1561052b5761050f8285610ad5565b604061051b8787610ad5565b61052692911b610a96565b61053d565b6f7fffffffffffffffffffffffffffffff5b90506105906040518060400160405280600481526020017f4420202000000000000000000000000000000000000000000000000000000000815250826fffffffffffffffffffffffffffffffff166107d1565b600061059b82610848565b90506105ee6040518060400160405280600481526020017f4620202000000000000000000000000000000000000000000000000000000000815250826fffffffffffffffffffffffffffffffff166107d1565b6000604061060e6fffffffffffffffffffffffffffffffff841687610ab6565b901c90506106636040518060400160405280600481526020017f4c46202000000000000000000000000000000000000000000000000000000000815250826fffffffffffffffffffffffffffffffff166107d1565b600061067382604089901b610a96565b90506106b46040518060400160405280600481526020017f4446202000000000000000000000000000000000000000000000000000000000815250826107d1565b60808a6106c18984610a7e565b6106cb9190610ab6565b901c9c505050505050505050505050505b9392505050565b6001600160a01b03811661073e5760405162461bcd60e51b815260206004820152600c60248201527f5a65726f2061646472657373000000000000000000000000000000000000000060448201526064015b60405180910390fd5b6000546001600160a01b0316156107975760405162461bcd60e51b815260206004820152601360248201527f416c726561647920696e697469616c697a6564000000000000000000000000006044820152606401610735565b600080547fffffffffffffffffffffffff0000000000000000000000000000000000000000166001600160a01b0392909216919091179055565b61084482826040516024016107e7929190610a23565b60408051601f198184030181529190526020810180517bffffffffffffffffffffffffffffffffffffffffffffffffffffffff167f9710a9d00000000000000000000000000000000000000000000000000000000017905261092c565b5050565b60008082600f0b1361085957600080fd5b6000600f83900b680100000000000000008112610878576040918201911d5b640100000000811261088c576020918201911d5b62010000811261089e576010918201911d5b61010081126108af576008918201911d5b601081126108bf576004918201911d5b600481126108cf576002918201911d5b600281126108de576001820191505b603f19820160401b600f85900b607f8490031b6780000000000000005b60008113156109215790800260ff81901c8281029390930192607f011c9060011d6108fb565b509095945050505050565b80516a636f6e736f6c652e6c6f67602083016000808483855afa5050505050565b60006020828403121561095e578081fd5b81516106dc81610b02565b60006020828403121561097a578081fd5b81356106dc81610b02565b600080600060608486031215610999578182fd5b83356109a481610b02565b925060208401356109b481610b17565b9150604084013563ffffffff811681146109cc578182fd5b809150509250925092565b6000602082840312156109e8578081fd5b81516106dc81610b17565b600060208284031215610a04578081fd5b5035919050565b600060208284031215610a1c578081fd5b5051919050565b6040815260008351806040840152815b81811015610a505760208187018101516060868401015201610a33565b81811115610a615782606083860101525b50602083019390935250601f91909101601f191601606001919050565b60008219821115610a9157610a91610aec565b500190565b600082610ab157634e487b7160e01b81526012600452602481fd5b500490565b6000816000190483118215151615610ad057610ad0610aec565b500290565b600082821015610ae757610ae7610aec565b500390565b634e487b7160e01b600052601160045260246000fd5b6001600160a01b038116811461009f57600080fd5b6dffffffffffffffffffffffffffff8116811461009f57600080fdfea26469706673582212204b5225075c0889524197155a7953bde82d545595d09ba6fccf6dee3eeedaec3164736f6c63430008040033",
  "linkReferences": {},
  "deployedLinkReferences": {}
}