{
  "_format": "hh-sol-artifact-1",
  "contractName": "DefaultLoanCostEstimator",
  "sourceName": "contracts/DefaultLoanCostEstimator.sol",
  "abi": [
    {
      "inputs": [
        {
          "internalType": "contract IPowerToken",
          "name": "powerToken",
          "type": "address"
        },
        {
          "internalType": "uint112",
          "name": "amount",
          "type": "uint112"
        },
        {
          "internalType": "uint32",
          "name": "duration",
          "type": "uint32"
        }
      ],
      "name": "estimateCost",
      "outputs": [
        {
          "internalType": "uint112",
          "name": "",
          "type": "uint112"
        }
      ],
      "stateMutability": "view",
      "type": "function"
    },
    {
      "inputs": [
        {
          "internalType": "contract IPowerToken",
          "name": "powerToken",
          "type": "address"
        },
        {
          "internalType": "contract IERC20",
          "name": "paymentToken",
          "type": "address"
        },
        {
          "internalType": "uint112",
          "name": "amount",
          "type": "uint112"
        },
        {
          "internalType": "uint32",
          "name": "duration",
          "type": "uint32"
        }
      ],
      "name": "estimateLien",
      "outputs": [
        {
          "internalType": "uint112",
          "name": "",
          "type": "uint112"
        }
      ],
      "stateMutability": "view",
      "type": "function"
    },
    {
      "inputs": [
        {
          "internalType": "contract IEnterprise",
          "name": "enterprise",
          "type": "address"
        }
      ],
      "name": "initialize",
      "outputs": [],
      "stateMutability": "nonpayable",
      "type": "function"
    },
    {
      "inputs": [
        {
          "internalType": "uint256",
          "name": "tokenId",
          "type": "uint256"
        }
      ],
      "name": "notifyNewLoan",
      "outputs": [],
      "stateMutability": "nonpayable",
      "type": "function"
    }
  ],
  "bytecode": "0x608060405234801561001057600080fd5b5061031e806100206000396000f3fe608060405234801561001057600080fd5b506004361061004c5760003560e01c806319065df414610051578063465603a1146100bc578063c4d66de81461010f578063f8642f2914610137575b600080fd5b6100996004803603606081101561006757600080fd5b5080356001600160a01b03169060208101356dffffffffffffffffffffffffffff16906040013563ffffffff16610154565b604080516dffffffffffffffffffffffffffff9092168252519081900360200190f35b610099600480360360808110156100d257600080fd5b5080356001600160a01b039081169160208101359091169060408101356dffffffffffffffffffffffffffff16906060013563ffffffff166101e8565b6101356004803603602081101561012557600080fd5b50356001600160a01b03166101f2565b005b6101356004803603602081101561014d57600080fd5b50356102e5565b600080846001600160a01b0316635184cc436040518163ffffffff1660e01b815260040160206040518083038186803b15801561019057600080fd5b505afa1580156101a4573d6000803e3d6000fd5b505050506040513d60208110156101ba57600080fd5b50516dffffffffffffffffffffffffffff85811663ffffffff86160291811691909102169150509392505050565b6000949350505050565b6001600160a01b03811661024d576040805162461bcd60e51b815260206004820152600c60248201527f5a65726f20616464726573730000000000000000000000000000000000000000604482015290519081900360640190fd5b6000546001600160a01b0316156102ab576040805162461bcd60e51b815260206004820152601360248201527f416c726561647920696e697469616c697a656400000000000000000000000000604482015290519081900360640190fd5b600080547fffffffffffffffffffffffff0000000000000000000000000000000000000000166001600160a01b0392909216919091179055565b5056fea2646970667358221220baa2802ebf2dbc9cb39703e20b19003241bcb8134087d0be425a0974c689e8b064736f6c63430007060033",
  "linkReferences": {},
  "deployedLinkReferences": {}
}