{
  "_format": "hh-sol-artifact-1",
  "contractName": "DefaultLoanCostEstimator",
  "sourceName": "contracts/DefaultLoanCostEstimator.sol",
  "abi": [
    {
      "inputs": [
        {
          "internalType": "contract IPowerToken",
          "name": "powerToken",
          "type": "address"
        },
        {
          "internalType": "uint112",
          "name": "amount",
          "type": "uint112"
        },
        {
          "internalType": "uint32",
          "name": "duration",
          "type": "uint32"
        }
      ],
      "name": "estimateCost",
      "outputs": [
        {
          "internalType": "uint112",
          "name": "",
          "type": "uint112"
        }
      ],
      "stateMutability": "view",
      "type": "function"
    },
    {
      "inputs": [
        {
          "internalType": "contract IPowerToken",
          "name": "",
          "type": "address"
        },
        {
          "internalType": "contract IERC20",
          "name": "paymentToken",
          "type": "address"
        },
        {
          "internalType": "uint112",
          "name": "amount",
          "type": "uint112"
        },
        {
          "internalType": "uint32",
          "name": "",
          "type": "uint32"
        }
      ],
      "name": "estimateLien",
      "outputs": [
        {
          "internalType": "uint112",
          "name": "",
          "type": "uint112"
        }
      ],
      "stateMutability": "view",
      "type": "function"
    },
    {
      "inputs": [
        {
          "internalType": "contract IEnterprise",
          "name": "enterprise",
          "type": "address"
        }
      ],
      "name": "initialize",
      "outputs": [],
      "stateMutability": "nonpayable",
      "type": "function"
    },
    {
      "inputs": [
        {
          "internalType": "uint256",
          "name": "tokenId",
          "type": "uint256"
        }
      ],
      "name": "notifyNewLoan",
      "outputs": [],
      "stateMutability": "nonpayable",
      "type": "function"
    }
  ],
  "bytecode": "0x608060405234801561001057600080fd5b50610804806100206000396000f3fe608060405234801561001057600080fd5b506004361061004c5760003560e01c806319065df414610051578063465603a1146100bc578063c4d66de81461010f578063f8642f2914610137575b600080fd5b6100996004803603606081101561006757600080fd5b5080356001600160a01b03169060208101356dffffffffffffffffffffffffffff16906040013563ffffffff16610154565b604080516dffffffffffffffffffffffffffff9092168252519081900360200190f35b610099600480360360808110156100d257600080fd5b5080356001600160a01b039081169160208101359091169060408101356dffffffffffffffffffffffffffff16906060013563ffffffff16610416565b6101356004803603602081101561012557600080fd5b50356001600160a01b0316610545565b005b6101356004803603602081101561014d57600080fd5b5035610638565b60008054604080516326deb97b60e21b8152905183926001600160a01b031691639b7ae5ec916004808301926020929190829003018186803b15801561019957600080fd5b505afa1580156101ad573d6000803e3d6000fd5b505050506040513d60208110156101c357600080fd5b5051604080517f689418690000000000000000000000000000000000000000000000000000000081526001600160a01b038881166004830152915192935060009291841691636894186991602480820192602092909190829003018186803b15801561022e57600080fd5b505afa158015610242573d6000803e3d6000fd5b505050506040513d602081101561025857600080fd5b505160008054604080517f59bf5d3900000000000000000000000000000000000000000000000000000000815290516dffffffffffffffffffffffffffff8a811663ffffffff8b1602951694909402945091926001600160a01b03909116916359bf5d39916004808301926020929190829003018186803b1580156102dc57600080fd5b505afa1580156102f0573d6000803e3d6000fd5b505050506040513d602081101561030657600080fd5b505160008054604080517faebb5041000000000000000000000000000000000000000000000000000000008152905193945091926001600160a01b039091169163aebb5041916004808301926020929190829003018186803b15801561036b57600080fd5b505afa15801561037f573d6000803e3d6000fd5b505050506040513d602081101561039557600080fd5b50519050670ccccccccccccccc6801000000000000000068020000000000000000600085604086901b816103c557fe5b04905060006103e382850386860360401b816103dd57fe5b0461063b565b90506040888580600f85900b8702841c81851b816103fd57fe5b04010202901c99505050505050505050505b9392505050565b60008054604080516326deb97b60e21b8152905183926001600160a01b031691639b7ae5ec916004808301926020929190829003018186803b15801561045b57600080fd5b505afa15801561046f573d6000803e3d6000fd5b505050506040513d602081101561048557600080fd5b5051604080517ff9770bc300000000000000000000000000000000000000000000000000000000815281519293506000926001600160a01b0385169263f9770bc39260048082019391829003018186803b1580156104e257600080fd5b505afa1580156104f6573d6000803e3d6000fd5b505050506040513d604081101561050c57600080fd5b5051905060006105396dffffffffffffffffffffffffffff871663ffffffff808516906127109061071f16565b98975050505050505050565b6001600160a01b0381166105a0576040805162461bcd60e51b815260206004820152600c60248201527f5a65726f20616464726573730000000000000000000000000000000000000000604482015290519081900360640190fd5b6000546001600160a01b0316156105fe576040805162461bcd60e51b815260206004820152601360248201527f416c726561647920696e697469616c697a656400000000000000000000000000604482015290519081900360640190fd5b600080547fffffffffffffffffffffffff0000000000000000000000000000000000000000166001600160a01b0392909216919091179055565b50565b60008082600f0b1361064c57600080fd5b6000600f83900b68010000000000000000811261066b576040918201911d5b640100000000811261067f576020918201911d5b620100008112610691576010918201911d5b61010081126106a2576008918201911d5b601081126106b2576004918201911d5b600481126106c2576002918201911d5b600281126106d1576001820191505b603f19820160401b600f85900b607f8490031b6780000000000000005b60008113156107145790800260ff81901c8281029390930192607f011c9060011d6106ee565b509095945050505050565b600080821161072d57600080fd5b600080600019858709868602925082811090839003039050806107555750829004905061040f565b83811061076157600080fd5b6000848688096000868103871696879004966002600389028118808a02820302808a02820302808a02820302808a02820302808a02820302808a0290910302918190038190046001018684119095039490940291909403929092049190911791909102915050939250505056fea26469706673582212202a94948acb9b63758175adefb219791a198e9e39ebcad76e5296b06427c46ea264736f6c63430007060033",
  "linkReferences": {},
  "deployedLinkReferences": {}
}