{
  "_format": "hh-sol-artifact-1",
  "contractName": "ERC20",
  "sourceName": "contracts/token/ERC20.sol",
  "abi": [
    {
      "anonymous": false,
      "inputs": [
        {
          "indexed": true,
          "internalType": "address",
          "name": "owner",
          "type": "address"
        },
        {
          "indexed": true,
          "internalType": "address",
          "name": "spender",
          "type": "address"
        },
        {
          "indexed": false,
          "internalType": "uint256",
          "name": "value",
          "type": "uint256"
        }
      ],
      "name": "Approval",
      "type": "event"
    },
    {
      "anonymous": false,
      "inputs": [
        {
          "indexed": true,
          "internalType": "address",
          "name": "from",
          "type": "address"
        },
        {
          "indexed": true,
          "internalType": "address",
          "name": "to",
          "type": "address"
        },
        {
          "indexed": false,
          "internalType": "uint256",
          "name": "value",
          "type": "uint256"
        }
      ],
      "name": "Transfer",
      "type": "event"
    },
    {
      "inputs": [
        {
          "internalType": "address",
          "name": "owner",
          "type": "address"
        },
        {
          "internalType": "address",
          "name": "spender",
          "type": "address"
        }
      ],
      "name": "allowance",
      "outputs": [
        {
          "internalType": "uint256",
          "name": "",
          "type": "uint256"
        }
      ],
      "stateMutability": "view",
      "type": "function"
    },
    {
      "inputs": [
        {
          "internalType": "address",
          "name": "spender",
          "type": "address"
        },
        {
          "internalType": "uint256",
          "name": "amount",
          "type": "uint256"
        }
      ],
      "name": "approve",
      "outputs": [
        {
          "internalType": "bool",
          "name": "",
          "type": "bool"
        }
      ],
      "stateMutability": "nonpayable",
      "type": "function"
    },
    {
      "inputs": [
        {
          "internalType": "address",
          "name": "account",
          "type": "address"
        }
      ],
      "name": "balanceOf",
      "outputs": [
        {
          "internalType": "uint256",
          "name": "",
          "type": "uint256"
        }
      ],
      "stateMutability": "view",
      "type": "function"
    },
    {
      "inputs": [],
      "name": "decimals",
      "outputs": [
        {
          "internalType": "uint8",
          "name": "",
          "type": "uint8"
        }
      ],
      "stateMutability": "view",
      "type": "function"
    },
    {
      "inputs": [
        {
          "internalType": "address",
          "name": "spender",
          "type": "address"
        },
        {
          "internalType": "uint256",
          "name": "subtractedValue",
          "type": "uint256"
        }
      ],
      "name": "decreaseAllowance",
      "outputs": [
        {
          "internalType": "bool",
          "name": "",
          "type": "bool"
        }
      ],
      "stateMutability": "nonpayable",
      "type": "function"
    },
    {
      "inputs": [
        {
          "internalType": "address",
          "name": "spender",
          "type": "address"
        },
        {
          "internalType": "uint256",
          "name": "addedValue",
          "type": "uint256"
        }
      ],
      "name": "increaseAllowance",
      "outputs": [
        {
          "internalType": "bool",
          "name": "",
          "type": "bool"
        }
      ],
      "stateMutability": "nonpayable",
      "type": "function"
    },
    {
      "inputs": [
        {
          "internalType": "string",
          "name": "name_",
          "type": "string"
        },
        {
          "internalType": "string",
          "name": "symbol_",
          "type": "string"
        }
      ],
      "name": "initialize",
      "outputs": [],
      "stateMutability": "nonpayable",
      "type": "function"
    },
    {
      "inputs": [],
      "name": "name",
      "outputs": [
        {
          "internalType": "string",
          "name": "",
          "type": "string"
        }
      ],
      "stateMutability": "view",
      "type": "function"
    },
    {
      "inputs": [],
      "name": "symbol",
      "outputs": [
        {
          "internalType": "string",
          "name": "",
          "type": "string"
        }
      ],
      "stateMutability": "view",
      "type": "function"
    },
    {
      "inputs": [],
      "name": "totalSupply",
      "outputs": [
        {
          "internalType": "uint256",
          "name": "",
          "type": "uint256"
        }
      ],
      "stateMutability": "view",
      "type": "function"
    },
    {
      "inputs": [
        {
          "internalType": "address",
          "name": "recipient",
          "type": "address"
        },
        {
          "internalType": "uint256",
          "name": "amount",
          "type": "uint256"
        }
      ],
      "name": "transfer",
      "outputs": [
        {
          "internalType": "bool",
          "name": "",
          "type": "bool"
        }
      ],
      "stateMutability": "nonpayable",
      "type": "function"
    },
    {
      "inputs": [
        {
          "internalType": "address",
          "name": "sender",
          "type": "address"
        },
        {
          "internalType": "address",
          "name": "recipient",
          "type": "address"
        },
        {
          "internalType": "uint256",
          "name": "amount",
          "type": "uint256"
        }
      ],
      "name": "transferFrom",
      "outputs": [
        {
          "internalType": "bool",
          "name": "",
          "type": "bool"
        }
      ],
      "stateMutability": "nonpayable",
      "type": "function"
    }
  ],
  "bytecode": "0x608060405234801561001057600080fd5b50610bf8806100206000396000f3fe608060405234801561001057600080fd5b50600436106100d45760003560e01c80634cd88b7611610081578063a457c2d71161005b578063a457c2d7146101a7578063a9059cbb146101ba578063dd62ed3e146101cd57600080fd5b80634cd88b761461016157806370a082311461017657806395d89b411461019f57600080fd5b806323b872dd116100b257806323b872dd1461012c578063313ce5671461013f578063395093511461014e57600080fd5b806306fdde03146100d9578063095ea7b3146100f757806318160ddd1461011a575b600080fd5b6100e1610206565b6040516100ee9190610ad9565b60405180910390f35b61010a610105366004610a4f565b610298565b60405190151581526020016100ee565b6002545b6040519081526020016100ee565b61010a61013a366004610a14565b6102ae565b604051601281526020016100ee565b61010a61015c366004610a4f565b61037b565b61017461016f366004610a78565b6103b2565b005b61011e6101843660046109c1565b6001600160a01b031660009081526020819052604090205490565b6100e161043a565b61010a6101b5366004610a4f565b610449565b61010a6101c8366004610a4f565b6104fc565b61011e6101db3660046109e2565b6001600160a01b03918216600090815260016020908152604080832093909416825291909152205490565b60606003805461021590610b5b565b80601f016020809104026020016040519081016040528092919081815260200182805461024190610b5b565b801561028e5780601f106102635761010080835404028352916020019161028e565b820191906000526020600020905b81548152906001019060200180831161027157829003601f168201915b5050505050905090565b60006102a533848461050b565b50600192915050565b60006102bd8484846000610663565b6001600160a01b03841660009081526001602090815260408083203384529091529020548281101561035c5760405162461bcd60e51b815260206004820152602860248201527f45524332303a207472616e7366657220616d6f756e742065786365656473206160448201527f6c6c6f77616e636500000000000000000000000000000000000000000000000060648201526084015b60405180910390fd5b610370853361036b8685610b44565b61050b565b506001949350505050565b3360008181526001602090815260408083206001600160a01b038716845290915281205490916102a591859061036b908690610b2c565b600380546103bf90610b5b565b15905061040e5760405162461bcd60e51b815260206004820152601360248201527f416c726561647920696e697469616c697a6564000000000000000000000000006044820152606401610353565b8151610421906003906020850190610885565b508051610435906004906020840190610885565b505050565b60606004805461021590610b5b565b3360009081526001602090815260408083206001600160a01b0386168452909152812054828110156104e35760405162461bcd60e51b815260206004820152602560248201527f45524332303a2064656372656173656420616c6c6f77616e63652062656c6f7760448201527f207a65726f0000000000000000000000000000000000000000000000000000006064820152608401610353565b6104f2338561036b8685610b44565b5060019392505050565b60006102a53384846000610663565b6001600160a01b0383166105865760405162461bcd60e51b8152602060048201526024808201527f45524332303a20617070726f76652066726f6d20746865207a65726f2061646460448201527f72657373000000000000000000000000000000000000000000000000000000006064820152608401610353565b6001600160a01b0382166106025760405162461bcd60e51b815260206004820152602260248201527f45524332303a20617070726f766520746f20746865207a65726f20616464726560448201527f73730000000000000000000000000000000000000000000000000000000000006064820152608401610353565b6001600160a01b0383811660008181526001602090815260408083209487168084529482529182902085905590518481527f8c5be1e5ebec7d5bd14f71427d1e84f3dd0314c0f7b2291e5b200ac8c7c3b925910160405180910390a3505050565b6001600160a01b0384166106df5760405162461bcd60e51b815260206004820152602560248201527f45524332303a207472616e736665722066726f6d20746865207a65726f20616460448201527f64726573730000000000000000000000000000000000000000000000000000006064820152608401610353565b6001600160a01b03831661075b5760405162461bcd60e51b815260206004820152602360248201527f45524332303a207472616e7366657220746f20746865207a65726f206164647260448201527f65737300000000000000000000000000000000000000000000000000000000006064820152608401610353565b6001600160a01b038416600090815260208190526040902054828110156107ea5760405162461bcd60e51b815260206004820152602660248201527f45524332303a207472616e7366657220616d6f756e742065786365656473206260448201527f616c616e636500000000000000000000000000000000000000000000000000006064820152608401610353565b6107f48382610b44565b6001600160a01b03808716600090815260208190526040808220939093559086168152908120805485929061082a908490610b2c565b92505081905550836001600160a01b0316856001600160a01b03167fddf252ad1be2c89b69c2b068fc378daa952ba7f163c4a11628f55a4df523b3ef8560405161087691815260200190565b60405180910390a35050505050565b82805461089190610b5b565b90600052602060002090601f0160209004810192826108b357600085556108f9565b82601f106108cc57805160ff19168380011785556108f9565b828001600101855582156108f9579182015b828111156108f95782518255916020019190600101906108de565b50610905929150610909565b5090565b5b80821115610905576000815560010161090a565b80356001600160a01b038116811461093557600080fd5b919050565b600082601f83011261094a578081fd5b813567ffffffffffffffff8082111561096557610965610bac565b604051601f8301601f19908116603f0116810190828211818310171561098d5761098d610bac565b816040528381528660208588010111156109a5578485fd5b8360208701602083013792830160200193909352509392505050565b6000602082840312156109d2578081fd5b6109db8261091e565b9392505050565b600080604083850312156109f4578081fd5b6109fd8361091e565b9150610a0b6020840161091e565b90509250929050565b600080600060608486031215610a28578081fd5b610a318461091e565b9250610a3f6020850161091e565b9150604084013590509250925092565b60008060408385031215610a61578182fd5b610a6a8361091e565b946020939093013593505050565b60008060408385031215610a8a578182fd5b823567ffffffffffffffff80821115610aa1578384fd5b610aad8683870161093a565b93506020850135915080821115610ac2578283fd5b50610acf8582860161093a565b9150509250929050565b6000602080835283518082850152825b81811015610b0557858101830151858201604001528201610ae9565b81811115610b165783604083870101525b50601f01601f1916929092016040019392505050565b60008219821115610b3f57610b3f610b96565b500190565b600082821015610b5657610b56610b96565b500390565b600181811c90821680610b6f57607f821691505b60208210811415610b9057634e487b7160e01b600052602260045260246000fd5b50919050565b634e487b7160e01b600052601160045260246000fd5b634e487b7160e01b600052604160045260246000fdfea264697066735822122023ce0def87e42299460822b779c80d242ca1b3bde955984951899a125273713864736f6c63430008040033",
  "linkReferences": {},
  "deployedLinkReferences": {}
}