{
  "address": "0xDf7a764d604064D5609EfAf9a96cCC5828bCf0e9",
  "abi": [
    {
      "anonymous": false,
      "inputs": [
        {
          "indexed": true,
          "internalType": "address",
          "name": "owner",
          "type": "address"
        },
        {
          "indexed": true,
          "internalType": "address",
          "name": "spender",
          "type": "address"
        },
        {
          "indexed": false,
          "internalType": "uint256",
          "name": "value",
          "type": "uint256"
        }
      ],
      "name": "Approval",
      "type": "event"
    },
    {
      "anonymous": false,
      "inputs": [
        {
          "indexed": false,
          "internalType": "uint112",
          "name": "baseRate",
          "type": "uint112"
        },
        {
          "indexed": false,
          "internalType": "address",
          "name": "baseToken",
          "type": "address"
        },
        {
          "indexed": false,
          "internalType": "uint96",
          "name": "minGCFee",
          "type": "uint96"
        }
      ],
      "name": "BaseRateChanged",
      "type": "event"
    },
    {
      "anonymous": false,
      "inputs": [
        {
          "indexed": false,
          "internalType": "uint32",
          "name": "minDuration",
          "type": "uint32"
        },
        {
          "indexed": false,
          "internalType": "uint32",
          "name": "maxDuration",
          "type": "uint32"
        }
      ],
      "name": "LoanDurationLimitsChanged",
      "type": "event"
    },
    {
      "anonymous": false,
      "inputs": [
        {
          "indexed": false,
          "internalType": "uint16",
          "name": "percent",
          "type": "uint16"
        }
      ],
      "name": "ServiceFeePercentChanged",
      "type": "event"
    },
    {
      "anonymous": false,
      "inputs": [
        {
          "indexed": true,
          "internalType": "address",
          "name": "from",
          "type": "address"
        },
        {
          "indexed": true,
          "internalType": "address",
          "name": "to",
          "type": "address"
        },
        {
          "indexed": false,
          "internalType": "uint256",
          "name": "value",
          "type": "uint256"
        }
      ],
      "name": "Transfer",
      "type": "event"
    },
    {
      "anonymous": false,
      "inputs": [],
      "name": "TransfersEnabled",
      "type": "event"
    },
    {
      "anonymous": false,
      "inputs": [],
      "name": "WrappingEnabled",
      "type": "event"
    },
    {
      "inputs": [
        {
          "internalType": "address",
          "name": "owner",
          "type": "address"
        },
        {
          "internalType": "address",
          "name": "spender",
          "type": "address"
        }
      ],
      "name": "allowance",
      "outputs": [
        {
          "internalType": "uint256",
          "name": "",
          "type": "uint256"
        }
      ],
      "stateMutability": "view",
      "type": "function"
    },
    {
      "inputs": [
        {
          "internalType": "address",
          "name": "spender",
          "type": "address"
        },
        {
          "internalType": "uint256",
          "name": "amount",
          "type": "uint256"
        }
      ],
      "name": "approve",
      "outputs": [
        {
          "internalType": "bool",
          "name": "",
          "type": "bool"
        }
      ],
      "stateMutability": "nonpayable",
      "type": "function"
    },
    {
      "inputs": [
        {
          "internalType": "address",
          "name": "account",
          "type": "address"
        }
      ],
      "name": "availableBalanceOf",
      "outputs": [
        {
          "internalType": "uint256",
          "name": "",
          "type": "uint256"
        }
      ],
      "stateMutability": "view",
      "type": "function"
    },
    {
      "inputs": [
        {
          "internalType": "address",
          "name": "account",
          "type": "address"
        }
      ],
      "name": "balanceOf",
      "outputs": [
        {
          "internalType": "uint256",
          "name": "",
          "type": "uint256"
        }
      ],
      "stateMutability": "view",
      "type": "function"
    },
    {
      "inputs": [
        {
          "internalType": "address",
          "name": "account",
          "type": "address"
        },
        {
          "internalType": "uint256",
          "name": "value",
          "type": "uint256"
        }
      ],
      "name": "burnFrom",
      "outputs": [],
      "stateMutability": "nonpayable",
      "type": "function"
    },
    {
      "inputs": [],
      "name": "decimals",
      "outputs": [
        {
          "internalType": "uint8",
          "name": "",
          "type": "uint8"
        }
      ],
      "stateMutability": "view",
      "type": "function"
    },
    {
      "inputs": [
        {
          "internalType": "address",
          "name": "spender",
          "type": "address"
        },
        {
          "internalType": "uint256",
          "name": "subtractedValue",
          "type": "uint256"
        }
      ],
      "name": "decreaseAllowance",
      "outputs": [
        {
          "internalType": "bool",
          "name": "",
          "type": "bool"
        }
      ],
      "stateMutability": "nonpayable",
      "type": "function"
    },
    {
      "inputs": [],
      "name": "enableTransfersForever",
      "outputs": [],
      "stateMutability": "nonpayable",
      "type": "function"
    },
    {
      "inputs": [],
      "name": "enableWrappingForever",
      "outputs": [],
      "stateMutability": "nonpayable",
      "type": "function"
    },
    {
      "inputs": [
        {
          "internalType": "address",
          "name": "who",
          "type": "address"
        },
        {
          "internalType": "uint32",
          "name": "timestamp",
          "type": "uint32"
        }
      ],
      "name": "energyAt",
      "outputs": [
        {
          "internalType": "uint112",
          "name": "",
          "type": "uint112"
        }
      ],
      "stateMutability": "view",
      "type": "function"
    },
    {
      "inputs": [
        {
          "internalType": "address",
          "name": "paymentToken",
          "type": "address"
        },
        {
          "internalType": "uint112",
          "name": "amount",
          "type": "uint112"
        },
        {
          "internalType": "uint32",
          "name": "duration",
          "type": "uint32"
        }
      ],
      "name": "estimateLoan",
      "outputs": [
        {
          "internalType": "uint256",
          "name": "",
          "type": "uint256"
        }
      ],
      "stateMutability": "view",
      "type": "function"
    },
    {
      "inputs": [
        {
          "internalType": "address",
          "name": "paymentToken",
          "type": "address"
        },
        {
          "internalType": "uint112",
          "name": "amount",
          "type": "uint112"
        },
        {
          "internalType": "uint32",
          "name": "duration",
          "type": "uint32"
        }
      ],
      "name": "estimateLoanDetailed",
      "outputs": [
        {
          "internalType": "uint112",
          "name": "interest",
          "type": "uint112"
        },
        {
          "internalType": "uint112",
          "name": "serviceFee",
          "type": "uint112"
        },
        {
          "internalType": "uint112",
          "name": "gcFee",
          "type": "uint112"
        }
      ],
      "stateMutability": "view",
      "type": "function"
    },
    {
      "inputs": [
        {
          "internalType": "address",
          "name": "from",
          "type": "address"
        },
        {
          "internalType": "address",
          "name": "to",
          "type": "address"
        },
        {
          "internalType": "uint256",
          "name": "amount",
          "type": "uint256"
        }
      ],
      "name": "forceTransfer",
      "outputs": [
        {
          "internalType": "bool",
          "name": "",
          "type": "bool"
        }
      ],
      "stateMutability": "nonpayable",
      "type": "function"
    },
    {
      "inputs": [],
      "name": "getBaseRate",
      "outputs": [
        {
          "internalType": "uint112",
          "name": "",
          "type": "uint112"
        }
      ],
      "stateMutability": "view",
      "type": "function"
    },
    {
      "inputs": [],
      "name": "getBaseToken",
      "outputs": [
        {
          "internalType": "contract IERC20Metadata",
          "name": "",
          "type": "address"
        }
      ],
      "stateMutability": "view",
      "type": "function"
    },
    {
      "inputs": [],
      "name": "getEnterprise",
      "outputs": [
        {
          "internalType": "contract IEnterprise",
          "name": "",
          "type": "address"
        }
      ],
      "stateMutability": "view",
      "type": "function"
    },
    {
      "inputs": [],
      "name": "getGapHalvingPeriod",
      "outputs": [
        {
          "internalType": "uint32",
          "name": "",
          "type": "uint32"
        }
      ],
      "stateMutability": "view",
      "type": "function"
    },
    {
      "inputs": [],
      "name": "getIndex",
      "outputs": [
        {
          "internalType": "uint16",
          "name": "",
          "type": "uint16"
        }
      ],
      "stateMutability": "view",
      "type": "function"
    },
    {
      "inputs": [],
      "name": "getInfo",
      "outputs": [
        {
          "internalType": "string",
          "name": "name",
          "type": "string"
        },
        {
          "internalType": "string",
          "name": "symbol",
          "type": "string"
        },
        {
          "internalType": "uint112",
          "name": "baseRate",
          "type": "uint112"
        },
        {
          "internalType": "uint96",
          "name": "minGCFee",
          "type": "uint96"
        },
        {
          "internalType": "uint32",
          "name": "gapHalvingPeriod",
          "type": "uint32"
        },
        {
          "internalType": "uint16",
          "name": "index",
          "type": "uint16"
        },
        {
          "internalType": "contract IERC20Metadata",
          "name": "baseToken",
          "type": "address"
        },
        {
          "internalType": "uint32",
          "name": "minLoanDuration",
          "type": "uint32"
        },
        {
          "internalType": "uint32",
          "name": "maxLoanDuration",
          "type": "uint32"
        },
        {
          "internalType": "uint16",
          "name": "serviceFeePercent",
          "type": "uint16"
        },
        {
          "internalType": "bool",
          "name": "wrappingEnabled",
          "type": "bool"
        },
        {
          "internalType": "bool",
          "name": "transfersEnabled",
          "type": "bool"
        }
      ],
      "stateMutability": "view",
      "type": "function"
    },
    {
      "inputs": [],
      "name": "getMaxLoanDuration",
      "outputs": [
        {
          "internalType": "uint32",
          "name": "",
          "type": "uint32"
        }
      ],
      "stateMutability": "view",
      "type": "function"
    },
    {
      "inputs": [],
      "name": "getMinGCFee",
      "outputs": [
        {
          "internalType": "uint96",
          "name": "",
          "type": "uint96"
        }
      ],
      "stateMutability": "view",
      "type": "function"
    },
    {
      "inputs": [],
      "name": "getMinLoanDuration",
      "outputs": [
        {
          "internalType": "uint32",
          "name": "",
          "type": "uint32"
        }
      ],
      "stateMutability": "view",
      "type": "function"
    },
    {
      "inputs": [],
      "name": "getServiceFeePercent",
      "outputs": [
        {
          "internalType": "uint16",
          "name": "",
          "type": "uint16"
        }
      ],
      "stateMutability": "view",
      "type": "function"
    },
    {
      "inputs": [
        {
          "internalType": "address",
          "name": "account",
          "type": "address"
        }
      ],
      "name": "getState",
      "outputs": [
        {
          "components": [
            {
              "internalType": "uint112",
              "name": "lockedBalance",
              "type": "uint112"
            },
            {
              "internalType": "uint112",
              "name": "energy",
              "type": "uint112"
            },
            {
              "internalType": "uint32",
              "name": "timestamp",
              "type": "uint32"
            }
          ],
          "internalType": "struct PowerTokenStorage.State",
          "name": "",
          "type": "tuple"
        }
      ],
      "stateMutability": "view",
      "type": "function"
    },
    {
      "inputs": [
        {
          "internalType": "address",
          "name": "spender",
          "type": "address"
        },
        {
          "internalType": "uint256",
          "name": "addedValue",
          "type": "uint256"
        }
      ],
      "name": "increaseAllowance",
      "outputs": [
        {
          "internalType": "bool",
          "name": "",
          "type": "bool"
        }
      ],
      "stateMutability": "nonpayable",
      "type": "function"
    },
    {
      "inputs": [
        {
          "internalType": "string",
          "name": "name_",
          "type": "string"
        },
        {
          "internalType": "string",
          "name": "symbol_",
          "type": "string"
        },
        {
          "internalType": "uint8",
          "name": "decimals_",
          "type": "uint8"
        }
      ],
      "name": "initialize",
      "outputs": [],
      "stateMutability": "nonpayable",
      "type": "function"
    },
    {
      "inputs": [
        {
          "internalType": "contract IEnterprise",
          "name": "enterprise",
          "type": "address"
        },
        {
          "internalType": "uint112",
          "name": "baseRate",
          "type": "uint112"
        },
        {
          "internalType": "uint96",
          "name": "minGCFee",
          "type": "uint96"
        },
        {
          "internalType": "uint32",
          "name": "gapHalvingPeriod",
          "type": "uint32"
        },
        {
          "internalType": "uint16",
          "name": "index",
          "type": "uint16"
        },
        {
          "internalType": "contract IERC20Metadata",
          "name": "baseToken",
          "type": "address"
        }
      ],
      "name": "initialize",
      "outputs": [],
      "stateMutability": "nonpayable",
      "type": "function"
    },
    {
      "inputs": [
        {
          "internalType": "contract IEnterprise",
          "name": "enterprise",
          "type": "address"
        }
      ],
      "name": "initialize",
      "outputs": [],
      "stateMutability": "nonpayable",
      "type": "function"
    },
    {
      "inputs": [
        {
          "internalType": "uint32",
          "name": "minLoanDuration",
          "type": "uint32"
        },
        {
          "internalType": "uint32",
          "name": "maxLoanDuration",
          "type": "uint32"
        },
        {
          "internalType": "uint16",
          "name": "serviceFeePercent",
          "type": "uint16"
        },
        {
          "internalType": "bool",
          "name": "wrappingEnabled",
          "type": "bool"
        }
      ],
      "name": "initialize2",
      "outputs": [],
      "stateMutability": "nonpayable",
      "type": "function"
    },
    {
      "inputs": [
        {
          "internalType": "uint32",
          "name": "duration",
          "type": "uint32"
        }
      ],
      "name": "isAllowedLoanDuration",
      "outputs": [
        {
          "internalType": "bool",
          "name": "",
          "type": "bool"
        }
      ],
      "stateMutability": "view",
      "type": "function"
    },
    {
      "inputs": [],
      "name": "isTransfersEnabled",
      "outputs": [
        {
          "internalType": "bool",
          "name": "",
          "type": "bool"
        }
      ],
      "stateMutability": "view",
      "type": "function"
    },
    {
      "inputs": [],
      "name": "isWrappingEnabled",
      "outputs": [
        {
          "internalType": "bool",
          "name": "",
          "type": "bool"
        }
      ],
      "stateMutability": "view",
      "type": "function"
    },
    {
      "inputs": [
        {
          "internalType": "address",
          "name": "to",
          "type": "address"
        },
        {
          "internalType": "uint256",
          "name": "value",
          "type": "uint256"
        }
      ],
      "name": "mint",
      "outputs": [],
      "stateMutability": "nonpayable",
      "type": "function"
    },
    {
      "inputs": [],
      "name": "name",
      "outputs": [
        {
          "internalType": "string",
          "name": "",
          "type": "string"
        }
      ],
      "stateMutability": "view",
      "type": "function"
    },
    {
      "inputs": [
        {
          "internalType": "uint256",
          "name": "borrowTokenId",
          "type": "uint256"
        }
      ],
      "name": "notifyNewLoan",
      "outputs": [],
      "stateMutability": "nonpayable",
      "type": "function"
    },
    {
      "inputs": [
        {
          "internalType": "uint112",
          "name": "baseRate",
          "type": "uint112"
        },
        {
          "internalType": "contract IERC20Metadata",
          "name": "baseToken",
          "type": "address"
        },
        {
          "internalType": "uint96",
          "name": "minGCFee",
          "type": "uint96"
        }
      ],
      "name": "setBaseRate",
      "outputs": [],
      "stateMutability": "nonpayable",
      "type": "function"
    },
    {
      "inputs": [
        {
          "internalType": "uint32",
          "name": "minLoanDuration",
          "type": "uint32"
        },
        {
          "internalType": "uint32",
          "name": "maxLoanDuration",
          "type": "uint32"
        }
      ],
      "name": "setLoanDurationLimits",
      "outputs": [],
      "stateMutability": "nonpayable",
      "type": "function"
    },
    {
      "inputs": [
        {
          "internalType": "uint16",
          "name": "newServiceFeePercent",
          "type": "uint16"
        }
      ],
      "name": "setServiceFeePercent",
      "outputs": [],
      "stateMutability": "nonpayable",
      "type": "function"
    },
    {
      "inputs": [],
      "name": "symbol",
      "outputs": [
        {
          "internalType": "string",
          "name": "",
          "type": "string"
        }
      ],
      "stateMutability": "view",
      "type": "function"
    },
    {
      "inputs": [],
      "name": "totalSupply",
      "outputs": [
        {
          "internalType": "uint256",
          "name": "",
          "type": "uint256"
        }
      ],
      "stateMutability": "view",
      "type": "function"
    },
    {
      "inputs": [
        {
          "internalType": "address",
          "name": "recipient",
          "type": "address"
        },
        {
          "internalType": "uint256",
          "name": "amount",
          "type": "uint256"
        }
      ],
      "name": "transfer",
      "outputs": [
        {
          "internalType": "bool",
          "name": "",
          "type": "bool"
        }
      ],
      "stateMutability": "nonpayable",
      "type": "function"
    },
    {
      "inputs": [
        {
          "internalType": "address",
          "name": "sender",
          "type": "address"
        },
        {
          "internalType": "address",
          "name": "recipient",
          "type": "address"
        },
        {
          "internalType": "uint256",
          "name": "amount",
          "type": "uint256"
        }
      ],
      "name": "transferFrom",
      "outputs": [
        {
          "internalType": "bool",
          "name": "",
          "type": "bool"
        }
      ],
      "stateMutability": "nonpayable",
      "type": "function"
    },
    {
      "inputs": [
        {
          "internalType": "uint256",
          "name": "amount",
          "type": "uint256"
        }
      ],
      "name": "unwrap",
      "outputs": [
        {
          "internalType": "bool",
          "name": "",
          "type": "bool"
        }
      ],
      "stateMutability": "nonpayable",
      "type": "function"
    },
    {
      "inputs": [
        {
          "internalType": "uint256",
          "name": "amount",
          "type": "uint256"
        }
      ],
      "name": "wrap",
      "outputs": [
        {
          "internalType": "bool",
          "name": "",
          "type": "bool"
        }
      ],
      "stateMutability": "nonpayable",
      "type": "function"
    },
    {
      "inputs": [
        {
          "internalType": "address",
          "name": "to",
          "type": "address"
        },
        {
          "internalType": "uint256",
          "name": "amount",
          "type": "uint256"
        }
      ],
      "name": "wrapTo",
      "outputs": [
        {
          "internalType": "bool",
          "name": "",
          "type": "bool"
        }
      ],
      "stateMutability": "nonpayable",
      "type": "function"
    }
  ],
  "transactionHash": "0x9d035f15f76d094ff2a402bcd9e2cab5737d5a30c77688da6b15aae55d5e177a",
  "args": [],
  "solcInputHash": "88761d21b41e330d5f310a622c6b9af1",
  "bytecode": "0x608060405234801561001057600080fd5b50613997806100206000396000f3fe608060405234801561001057600080fd5b506004361061020f5760003560e01c806306fdde0314610214578063095ea7b3146102325780630a17e62c146102555780630aff9d19146102675780630d148ab61461029257806311d1e982146102a757806313e7e63b146102af57806314663701146102d55780631624f6c6146102f657806318160ddd146103095780631bab58f51461031157806323b872dd146103c157806325d998bb146103d4578063313ce567146103e757806333bebb77146103fc578063395093511461040f57806340c10f191461042257806342bb702e146104355780634b4440f11461044a5780634c11045a1461045c5780635370028e146104645780635932f4ff1461048f5780635a9b0b89146104a457806367c5f374146104c45780636dfbee1b146104d75780636e4d8983146104f957806370a082311461050c578063748abb021461051f578063759c8be31461053257806379cc67901461054557806381045ead1461055857806395d89b411461056b57806398acd7a6146105735780639d5513d71461058d5780639f126fbe146105ca578063a457c2d7146105dd578063a9059cbb146105f0578063b655d0c414610603578063c043435214610614578063c4d66de814610627578063dd62ed3e1461063a578063de0e9a3e14610673578063e298a2fd14610686578063ea598cb01461068e578063f8642f29146106a1575b600080fd5b61021c6106b2565b6040516102299190613470565b60405180910390f35b6102456102403660046130d3565b610744565b6040519015158152602001610229565b600254600160f81b900460ff16610245565b600154600160701b90046001600160601b03166040516001600160601b039091168152602001610229565b6102a56102a03660046132e1565b61075b565b005b6102a56108a8565b600254600160a01b900463ffffffff165b60405163ffffffff9091168152602001610229565b6102e86102e336600461308f565b6109d8565b604051908152602001610229565b6102a5610304366004613232565b610a1b565b6006546102e8565b61038b61031f366004612fdf565b6040805160608082018352600080835260208084018290529284018190526001600160a01b03949094168452600382529282902082519384018352546001600160701b038082168552600160701b82041691840191909152600160e01b900463ffffffff169082015290565b6040805182516001600160701b039081168252602080850151909116908201529181015163ffffffff1690820152606001610229565b6102456103cf36600461304f565b610aa1565b6102e86103e2366004612fdf565b610b30565b60095460405160ff9091168152602001610229565b61024561040a36600461304f565b610b65565b61024561041d3660046130d3565b610bc2565b6102a56104303660046130d3565b610bf9565b600154600160d01b900463ffffffff166102c0565b600254600160f01b900460ff16610245565b6102a5610c4e565b6104776104723660046130fe565b610d92565b6040516001600160701b039091168152602001610229565b600254600160c01b900463ffffffff166102c0565b6104ac610df8565b6040516102299c9b9a99989796959493929190613483565b6102a56104d23660046133a1565b610f84565b600254600160e01b900461ffff165b60405161ffff9091168152602001610229565b61024561050736600461336c565b611134565b6102e861051a366004612fdf565b61116e565b6102a561052d36600461314e565b611189565b6102a56105403660046132a6565b6112be565b6102a56105533660046130d3565b611438565b600154600160f01b900461ffff166104e6565b61021c611489565b6002546001600160a01b03165b604051610229919061345c565b6105a061059b36600461308f565b611498565b604080516001600160701b0394851681529284166020840152921691810191909152606001610229565b6102456105d83660046130d3565b6114b7565b6102456105eb3660046130d3565b6114c3565b6102456105fe3660046130d3565b611531565b6001546001600160701b0316610477565b6102a5610622366004613386565b611540565b6102a5610635366004612fdf565b6116b3565b6102e8610648366004613017565b6001600160a01b03918216600090815260056020908152604080832093909416825291909152205490565b610245610681366004613319565b61175a565b6105806117fd565b61024561069c366004613319565b61180c565b6102a56106af366004613319565b50565b6060600780546106c1906137fa565b80601f01602080910402602001604051908101604052809291908181526020018280546106ed906137fa565b801561073a5780601f1061070f5761010080835404028352916020019161073a565b820191906000526020600020905b81548152906001019060200180831161071d57829003601f168201915b5050505050905090565b6000610751338484611818565b5060015b92915050565b60005460408051638da5cb5b60e01b8152905133926001600160a01b031691638da5cb5b916004808301926020929190829003018186803b15801561079f57600080fd5b505afa1580156107b3573d6000803e3d6000fd5b505050506040513d601f19601f820116820180604052508101906107d79190612ffb565b6001600160a01b031614604051806040016040528060018152602001603360f81b815250906108225760405162461bcd60e51b81526004016108199190613470565b60405180910390fd5b50604080518082019091526002815261363760f01b602082015261138861ffff831611156108635760405162461bcd60e51b81526004016108199190613470565b506002805461ffff60e01b1916600160e01b61ffff8416908102919091179091556040519081526000805160206139028339815191529060200160405180910390a150565b60005460408051638da5cb5b60e01b8152905133926001600160a01b031691638da5cb5b916004808301926020929190829003018186803b1580156108ec57600080fd5b505afa158015610900573d6000803e3d6000fd5b505050506040513d601f19601f820116820180604052508101906109249190612ffb565b6001600160a01b031614604051806040016040528060018152602001603360f81b815250906109665760405162461bcd60e51b81526004016108199190613470565b50600280546040805180820190915291825261037360f41b6020830152600160f01b900460ff16156109ab5760405162461bcd60e51b81526004016108199190613470565b506002805460ff60f01b1916600160f01b17905560405160008051602061392283398151915290600090a1565b6000806000806109e98787876118fc565b91945092509050806109fb83856135de565b610a0591906135de565b6001600160701b031693505050505b9392505050565b60078054610a28906137fa565b6040805180820190915260018152601960f91b6020820152915015610a605760405162461bcd60e51b81526004016108199190613470565b508251610a74906007906020860190612eae565b508151610a88906008906020850190612eae565b506009805460ff191660ff929092169190911790555050565b6000610ab08484846000611b73565b6001600160a01b03841660009081526005602090815260408083203384528252918290205482518084019093526002835261031360f41b918301919091529083821015610b105760405162461bcd60e51b81526004016108199190613470565b50610b258533610b2086856137b7565b611818565b506001949350505050565b6001600160a01b0381166000908152600360205260408120546001600160701b0316610b5b8361116e565b61075591906137b7565b600080546040805180820190915260018152600d60fa1b6020820152906001600160a01b03163314610baa5760405162461bcd60e51b81526004016108199190613470565b50610bb88484846001611b73565b5060019392505050565b3360008181526005602090815260408083206001600160a01b03871684529091528120549091610751918590610b20908690613609565b6000546040805180820190915260018152600d60fa1b6020820152906001600160a01b03163314610c3d5760405162461bcd60e51b81526004016108199190613470565b50610c4a82826001611ce3565b5050565b60005460408051638da5cb5b60e01b8152905133926001600160a01b031691638da5cb5b916004808301926020929190829003018186803b158015610c9257600080fd5b505afa158015610ca6573d6000803e3d6000fd5b505050506040513d601f19601f82011682018060405250810190610cca9190612ffb565b6001600160a01b031614604051806040016040528060018152602001603360f81b81525090610d0c5760405162461bcd60e51b81526004016108199190613470565b50600280546040805180820190915291825261373960f01b6020830152600160f81b900460ff1615610d515760405162461bcd60e51b81526004016108199190613470565b50600280546001600160f81b0316600160f81b1790556040517feadb24812ab3c9a55c774958184293ebdb6c7f6a2dbab11f397d80c86feb65d390600090a1565b6001600160a01b0382166000908152600360209081526040808320815160608101835290546001600160701b038082168352600160701b82041693820193909352600160e01b90920463ffffffff1690820152610df0818585611da1565b949350505050565b606080600080600080600080600080600080306001600160a01b03166306fdde036040518163ffffffff1660e01b815260040160006040518083038186803b158015610e4357600080fd5b505afa158015610e57573d6000803e3d6000fd5b505050506040513d6000823e601f3d908101601f19168201604052610e7f91908101906131c9565b306001600160a01b03166395d89b416040518163ffffffff1660e01b815260040160006040518083038186803b158015610eb857600080fd5b505afa158015610ecc573d6000803e3d6000fd5b505050506040513d6000823e601f3d908101601f19168201604052610ef491908101906131c9565b600154600254929f919e506001600160701b0381169d506001600160601b03600160701b8204169c5063ffffffff600160d01b820481169c5061ffff600160f01b9283900481169c506001600160a01b0385169b50600160a01b850482169a50600160c01b85049091169850600160e01b840416965060ff90830481169550600160f81b90920490911692509050565b6002546040805180820190915260018152601960f91b602082015290600160c01b900463ffffffff1615610fcb5760405162461bcd60e51b81526004016108199190613470565b506040805180820190915260028152611c1960f11b602082015263ffffffff84166110095760405162461bcd60e51b81526004016108199190613470565b508263ffffffff168463ffffffff16111560405180604001604052806002815260200161363960f01b815250906110535760405162461bcd60e51b81526004016108199190613470565b5060028054600160a01b600160e01b031916600160a01b63ffffffff8781169190910263ffffffff60c01b191691909117600160c01b918616919091021762ffffff60e01b1916600160e01b61ffff85160260ff60f01b191617600160f01b83151502179055604051600080516020613902833981519152906110e190849061ffff91909116815260200190565b60405180910390a16000805160206138c28339815191528484604051611108929190613570565b60405180910390a1801561112e5760405160008051602061392283398151915290600090a15b50505050565b60025460009063ffffffff808416600160a01b9092041611801590610755575050600254600160c01b900463ffffffff9081169116111590565b6001600160a01b031660009081526004602052604090205490565b6001805460408051808201909152918252601960f91b6020830152600160d01b900463ffffffff16156111cf5760405162461bcd60e51b81526004016108199190613470565b50604080518082019091526002815261343360f01b602082015263ffffffff841661120d5760405162461bcd60e51b81526004016108199190613470565b50611217866116b3565b600180546001600160701b0387166001600160d01b031990911617600160701b6001600160601b03871602176001600160d01b0316600160d01b63ffffffff8616026001600160f01b031617600160f01b61ffff851602179055600280546001600160a01b0319166001600160a01b038316179055604051600080516020613942833981519152906112ae9087908490889061353d565b60405180910390a1505050505050565b60005460408051638da5cb5b60e01b8152905133926001600160a01b031691638da5cb5b916004808301926020929190829003018186803b15801561130257600080fd5b505afa158015611316573d6000803e3d6000fd5b505050506040513d601f19601f8201168201806040525081019061133a9190612ffb565b6001600160a01b031614604051806040016040528060018152602001603360f81b8152509061137c5760405162461bcd60e51b81526004016108199190613470565b5060028054604080518082019091529182526106c760f31b60208301526001600160a01b03166113bf5760405162461bcd60e51b81526004016108199190613470565b5060018054600280546001600160a01b0319166001600160a01b0386161790556001600160701b0385166001600160d01b031990911617600160701b6001600160601b038416021790556040516000805160206139428339815191529061142b9085908590859061353d565b60405180910390a1505050565b6000546040805180820190915260018152600d60fa1b6020820152906001600160a01b0316331461147c5760405162461bcd60e51b81526004016108199190613470565b50610c4a82826001611e2f565b6060600880546106c1906137fa565b60008060006114a88686866118fc565b92509250925093509350939050565b6000610a148383611f48565b3360009081526005602090815260408083206001600160a01b038616845282528083205481518083019092526002825261313160f01b92820192909252838210156115215760405162461bcd60e51b81526004016108199190613470565b50610bb83385610b2086856137b7565b60006107513384846000611b73565b60005460408051638da5cb5b60e01b8152905133926001600160a01b031691638da5cb5b916004808301926020929190829003018186803b15801561158457600080fd5b505afa158015611598573d6000803e3d6000fd5b505050506040513d601f19601f820116820180604052508101906115bc9190612ffb565b6001600160a01b031614604051806040016040528060018152602001603360f81b815250906115fe5760405162461bcd60e51b81526004016108199190613470565b508063ffffffff168263ffffffff16111560405180604001604052806002815260200161363960f01b815250906116485760405162461bcd60e51b81526004016108199190613470565b506002805463ffffffff838116600160c01b0263ffffffff60c01b19918616600160a01b0291909116600160a01b600160e01b0319909216919091171790556040516000805160206138c2833981519152906116a79084908490613570565b60405180910390a15050565b6000546040805180820190915260018152601960f91b6020820152906001600160a01b0316156116f65760405162461bcd60e51b81526004016108199190613470565b50604080518082019091526002815261353960f01b60208201526001600160a01b0382166117375760405162461bcd60e51b81526004016108199190613470565b50600080546001600160a01b0319166001600160a01b0392909216919091179055565b600061176833836000611e2f565b6117f533836117756117fd565b6001600160a01b031663644e44df6040518163ffffffff1660e01b815260040160206040518083038186803b1580156117ad57600080fd5b505afa1580156117c1573d6000803e3d6000fd5b505050506040513d601f19601f820116820180604052508101906117e59190612ffb565b6001600160a01b0316919061202b565b506001919050565b6000546001600160a01b031690565b60006107553383611f48565b604080518082019091526002815261062760f31b60208201526001600160a01b0384166118585760405162461bcd60e51b81526004016108199190613470565b50604080518082019091526002815261313960f01b60208201526001600160a01b0383166118995760405162461bcd60e51b81526004016108199190613470565b506001600160a01b0383811660008181526005602090815260408083209487168084529482529182902085905590518481527f8c5be1e5ebec7d5bd14f71427d1e84f3dd0314c0f7b2291e5b200ac8c7c3b92591015b60405180910390a3505050565b60008060006119096117fd565b6001600160a01b0316632fb2067f876040518263ffffffff1660e01b8152600401611934919061345c565b60206040518083038186803b15801561194c57600080fd5b505afa158015611960573d6000803e3d6000fd5b505050506040513d601f19601f820116820180604052508101906119849190613132565b604051806040016040528060028152602001610d0d60f21b815250906119bd5760405162461bcd60e51b81526004016108199190613470565b506119c784611134565b60405180604001604052806002815260200161343560f01b81525090611a005760405162461bcd60e51b81526004016108199190613470565b506000611a0d8686612093565b90506000611a196117fd565b6001600160a01b0316632261b07f6040518163ffffffff1660e01b815260040160206040518083038186803b158015611a5157600080fd5b505afa158015611a65573d6000803e3d6000fd5b505050506040513d601f19601f82011682018060405250810190611a899190612ffb565b6002546040516314fdc96760e11b81526001600160a01b0391821660048201526001600160701b03851660248201528a821660448201529116906329fb92ce9060640160206040518083038186803b158015611ae457600080fd5b505afa158015611af8573d6000803e3d6000fd5b505050506040513d601f19601f82011682018060405250810190611b1c9190613331565b60025490915061271090611b3b90600160e01b900461ffff168361372f565b611b459190613621565b9350611b5a6001600160701b038516826137b7565b9450611b6688826123f5565b9250505093509350939050565b604080518082019091526002815261189960f11b60208201526001600160a01b038516611bb35760405162461bcd60e51b81526004016108199190613470565b50604080518082019091526002815261313360f01b60208201526001600160a01b038416611bf45760405162461bcd60e51b81526004016108199190613470565b50611c01848484846125d0565b6001600160a01b03841660009081526004602090815260409182902054825180840190935260028352610c4d60f21b918301919091529083821015611c595760405162461bcd60e51b81526004016108199190613470565b50611c6483826137b7565b6001600160a01b038087166000908152600460205260408082209390935590861681529081208054859290611c9a908490613609565b92505081905550836001600160a01b0316856001600160a01b03166000805160206138e283398151915285604051611cd491815260200190565b60405180910390a35050505050565b604080518082019091526002815261313560f01b60208201526001600160a01b038416611d235760405162461bcd60e51b81526004016108199190613470565b50611d3160008484846125d0565b8160066000828254611d439190613609565b90915550506001600160a01b03831660009081526004602052604081208054849290611d70908490613609565b90915550506040518281526001600160a01b038416906000906000805160206138e2833981519152906020016118ef565b600080611dad8461116e565b905084602001516001600160701b0316816001600160701b03161115611e0d57611dfb8560400151866020015183611de5919061378f565b600154600160d01b900463ffffffff16866128c8565b611e05908261378f565b915050610a14565b611e258560400151828760200151611de5919061378f565b611e0590826135de565b604080518082019091526002815261189b60f11b60208201526001600160a01b038416611e6f5760405162461bcd60e51b81526004016108199190613470565b50611e7d83600084846125d0565b6001600160a01b0383166000908152600460209081526040918290205482518084019093526002835261313760f01b918301919091529083821015611ed55760405162461bcd60e51b81526004016108199190613470565b50611ee083826137b7565b6001600160a01b03851660009081526004602052604081209190915560068054859290611f0e9084906137b7565b90915550506040518381526000906001600160a01b038616906000805160206138e28339815191529060200160405180910390a350505050565b600280546040805180820190915291825261353160f01b602083015260009190600160f01b900460ff16611f8f5760405162461bcd60e51b81526004016108199190613470565b5061201f333084611f9e6117fd565b6001600160a01b031663644e44df6040518163ffffffff1660e01b815260040160206040518083038186803b158015611fd657600080fd5b505afa158015611fea573d6000803e3d6000fd5b505050506040513d601f19601f8201168201806040525081019061200e9190612ffb565b6001600160a01b0316929190612a69565b61075183836000611ce3565b6040516001600160a01b03831660248201526044810182905261208e90849063a9059cbb60e01b906064015b60408051601f198184030181529190526020810180516001600160e01b03166001600160e01b031990931692909217909152612aa1565b505050565b60008061209e6117fd565b6001600160a01b031663aebb50416040518163ffffffff1660e01b815260040160206040518083038186803b1580156120d657600080fd5b505afa1580156120ea573d6000803e3d6000fd5b505050506040513d601f19601f8201168201806040525081019061210e9190613331565b9050836001600160701b03168111612130576001600160701b03915050610755565b6002546040805163313ce56760e01b815290516000926001600160a01b03169163313ce567916004808301926020929190829003018186803b15801561217557600080fd5b505afa158015612189573d6000803e3d6000fd5b505050506040513d601f19601f820116820180604052508101906121ad91906133f8565b6121b56117fd565b6001600160a01b031663644e44df6040518163ffffffff1660e01b815260040160206040518083038186803b1580156121ed57600080fd5b505afa158015612201573d6000803e3d6000fd5b505050506040513d601f19601f820116820180604052508101906122259190612ffb565b6001600160a01b031663313ce5676040518163ffffffff1660e01b815260040160206040518083038186803b15801561225d57600080fd5b505afa158015612271573d6000803e3d6000fd5b505050506040513d601f19601f8201168201806040525081019061229591906133f8565b61229f919061374e565b90506000806122ac6117fd565b6001600160a01b031663faac38ef6040518163ffffffff1660e01b8152600401604080518083038186803b1580156122e357600080fd5b505afa1580156122f7573d6000803e3d6000fd5b505050506040513d601f19601f8201168201806040525081019061231b9190613349565b9150915060008663ffffffff1661233c896001600160701b03168585612b73565b612346919061372f565b905060008460000b131561238a57604061236185600a613684565b600154612377906001600160701b03168461372f565b6123819190613621565b901c90506123ea565b60008460000b12156123cc5760406123a185613835565b6123ac90600a613684565b6001546123c2906001600160701b03168461372f565b612381919061372f565b6001546040906123e5906001600160701b03168361372f565b901c90505b979650505050505050565b6000806127106124036117fd565b6001600160a01b031663b406bf6d6040518163ffffffff1660e01b815260040160206040518083038186803b15801561243b57600080fd5b505afa15801561244f573d6000803e3d6000fd5b505050506040513d601f19601f8201168201806040525081019061247391906132fd565b6124819061ffff168561372f565b61248b9190613621565b905060006124976117fd565b6001600160a01b0316632261b07f6040518163ffffffff1660e01b815260040160206040518083038186803b1580156124cf57600080fd5b505afa1580156124e3573d6000803e3d6000fd5b505050506040513d601f19601f820116820180604052508101906125079190612ffb565b6002546001546040516314fdc96760e11b81526001600160a01b039283166004820152600160701b9091046001600160601b0316602482015287821660448201529116906329fb92ce9060640160206040518083038186803b15801561256c57600080fd5b505afa158015612580573d6000803e3d6000fd5b505050506040513d601f19601f820116820180604052508101906125a49190613331565b9050806001600160701b0316826001600160701b0316106125c557816125c7565b805b95945050505050565b6001600160a01b03848116159084161581806125e95750805b806125fd5750600254600160f81b900460ff165b60405180604001604052806002815260200161038360f41b815250906126365760405162461bcd60e51b81526004016108199190613470565b5042826127ab576001600160a01b038716600090815260036020908152604091829020825160608101845290546001600160701b038082168352600160701b82041692820192909252600160e01b90910463ffffffff169181019190915261269f818984611da1565b6001600160701b0316602082015263ffffffff821660408201528461271e5780516001600160701b0316866126d38a61116e565b6126dd91906137b7565b1015604051806040016040528060028152602001610dcd60f21b815250906127185760405162461bcd60e51b81526004016108199190613470565b5061273d565b8581600001818151612730919061378f565b6001600160701b03169052505b6001600160a01b0388166000908152600360209081526040918290208351815492850151939094015163ffffffff16600160e01b026001600160e01b036001600160701b03948516600160701b026001600160e01b0319909416949095169390931791909117929092161790555b816128bf576001600160a01b038616600090815260036020908152604091829020825160608101845290546001600160701b038082168352600160701b82041692820192909252600160e01b90910463ffffffff1691810191909152612812818884611da1565b6001600160701b0316602082015263ffffffff82166040820152841561285157858160000181815161284491906135de565b6001600160701b03169052505b6001600160a01b0387166000908152600360209081526040918290208351815492850151939094015163ffffffff16600160e01b026001600160e01b036001600160701b03948516600160701b026001600160e01b0319909416949095169390931791909117929092161790555b50505050505050565b60008463ffffffff168263ffffffff161015604051806040016040528060018152602001600760fb1b815250906129125760405162461bcd60e51b81526004016108199190613470565b5084820391508263ffffffff168263ffffffff168161294157634e487b7160e01b600052601260045260246000fd5b0463ffffffff16846001600160701b0316901c93508263ffffffff168263ffffffff168161297f57634e487b7160e01b600052601260045260246000fd5b06915063ffffffff8216158061299c57506001600160701b038416155b156129a8575082610df0565b60006001600160701b0385168163ffffffff86811690861671b17217f7d1cf79abc9e3b39803f2f6af40f302816129ef57634e487b7160e01b600052601260045260246000fd5b049050600160901b5b8215612a5c57928201928082840281612a2157634e487b7160e01b600052601260045260246000fd5b0493849003939250600160901b018082840281612a4e57634e487b7160e01b600052601260045260246000fd5b049250600160901b016129f8565b5091979650505050505050565b6040516001600160a01b038085166024830152831660448201526064810182905261112e9085906323b872dd60e01b90608401612057565b6000612af6826040518060400160405280602081526020017f5361666545524332303a206c6f772d6c6576656c2063616c6c206661696c6564815250856001600160a01b0316612caa9092919063ffffffff16565b80519091501561208e5780806020019051810190612b149190613132565b61208e5760405162461bcd60e51b815260206004820152602a60248201527f5361666545524332303a204552433230206f7065726174696f6e20646964206e6044820152691bdd081cdd58d8d9595960b21b6064820152608401610819565b600080612b7e6117fd565b6001600160a01b031663fcb2884e6040518163ffffffff1660e01b815260040160206040518083038186803b158015612bb657600080fd5b505afa158015612bca573d6000803e3d6000fd5b505050506040513d601f19601f82011682018060405250810190612bee9190613331565b90506000612bfa6117fd565b6001600160a01b03166359bf5d396040518163ffffffff1660e01b815260040160206040518083038186803b158015612c3257600080fd5b505afa158015612c46573d6000803e3d6000fd5b505050506040513d601f19601f82011682018060405250810190612c6a9190613331565b9050612c7882868684612cb9565b612c96612c8e6001600160801b03891685613609565b878785612cb9565b612ca091906137b7565b9695505050505050565b6060610df08484600085612cfc565b60006040612ce78382612ccc89836137b7565b612cd792911b613621565b6001600160801b03168686612e19565b612cf1908761372f565b901c95945050505050565b606082471015612d5d5760405162461bcd60e51b815260206004820152602660248201527f416464726573733a20696e73756666696369656e742062616c616e636520666f6044820152651c8818d85b1b60d21b6064820152608401610819565b843b612dab5760405162461bcd60e51b815260206004820152601d60248201527f416464726573733a2063616c6c20746f206e6f6e2d636f6e74726163740000006044820152606401610819565b600080866001600160a01b03168587604051612dc79190613440565b60006040518083038185875af1925050503d8060008114612e04576040519150601f19603f3d011682016040523d82523d6000602084013e612e09565b606091505b50915091506123ea828286612e75565b6000828411612e3057506001600160801b03610a14565b612e3e82600160401b6137b7565b612e4884866137b7565b83612e5786600160401b6137b7565b612e61919061372f565b612e6b9190613621565b610df09190613609565b60608315612e84575081610a14565b825115612e945782518084602001fd5b8160405162461bcd60e51b81526004016108199190613470565b828054612eba906137fa565b90600052602060002090601f016020900481019282612edc5760008555612f22565b82601f10612ef557805160ff1916838001178555612f22565b82800160010185558215612f22579182015b82811115612f22578251825591602001919060010190612f07565b50612f2e929150612f32565b5090565b5b80821115612f2e5760008155600101612f33565b600082601f830112612f57578081fd5b8135612f6a612f65826135b7565b613587565b818152846020838601011115612f7e578283fd5b816020850160208301379081016020019190915292915050565b80356001600160701b0381168114612faf57600080fd5b919050565b803563ffffffff81168114612faf57600080fd5b80356001600160601b0381168114612faf57600080fd5b600060208284031215612ff0578081fd5b8135610a148161387f565b60006020828403121561300c578081fd5b8151610a148161387f565b60008060408385031215613029578081fd5b82356130348161387f565b915060208301356130448161387f565b809150509250929050565b600080600060608486031215613063578081fd5b833561306e8161387f565b9250602084013561307e8161387f565b929592945050506040919091013590565b6000806000606084860312156130a3578283fd5b83356130ae8161387f565b92506130bc60208501612f98565b91506130ca60408501612fb4565b90509250925092565b600080604083850312156130e5578182fd5b82356130f08161387f565b946020939093013593505050565b60008060408385031215613110578182fd5b823561311b8161387f565b915061312960208401612fb4565b90509250929050565b600060208284031215613143578081fd5b8151610a1481613894565b60008060008060008060c08789031215613166578384fd5b86356131718161387f565b955061317f60208801612f98565b945061318d60408801612fc8565b935061319b60608801612fb4565b925060808701356131ab816138a2565b915060a08701356131bb8161387f565b809150509295509295509295565b6000602082840312156131da578081fd5b81516001600160401b038111156131ef578182fd5b8201601f810184136131ff578182fd5b805161320d612f65826135b7565b818152856020838501011115613221578384fd5b6125c78260208301602086016137ce565b600080600060608486031215613246578081fd5b83356001600160401b038082111561325c578283fd5b61326887838801612f47565b9450602086013591508082111561327d578283fd5b5061328a86828701612f47565b925050604084013561329b816138b2565b809150509250925092565b6000806000606084860312156132ba578081fd5b6132c384612f98565b925060208401356132d38161387f565b91506130ca60408501612fc8565b6000602082840312156132f2578081fd5b8135610a14816138a2565b60006020828403121561330e578081fd5b8151610a14816138a2565b60006020828403121561332a578081fd5b5035919050565b600060208284031215613342578081fd5b5051919050565b6000806040838503121561335b578182fd5b505080516020909101519092909150565b60006020828403121561337d578081fd5b610a1482612fb4565b60008060408385031215613398578182fd5b61311b83612fb4565b600080600080608085870312156133b6578182fd5b6133bf85612fb4565b93506133cd60208601612fb4565b925060408501356133dd816138a2565b915060608501356133ed81613894565b939692955090935050565b600060208284031215613409578081fd5b8151610a14816138b2565b6000815180845261342c8160208601602086016137ce565b601f01601f19169290920160200192915050565b600082516134528184602087016137ce565b9190910192915050565b6001600160a01b0391909116815260200190565b602081526000610a146020830184613414565b6101808152600061349861018083018f613414565b82810360208401526134aa818f613414565b6001600160701b038e1660408501526001600160601b038d16606085015263ffffffff8c16608085015261ffff8b1660a08501526001600160a01b038a1660c085015291506134f69050565b63ffffffff871660e083015263ffffffff861661010083015261ffff85166101208301528315156101408301528215156101608301529d9c50505050505050505050505050565b6001600160701b039390931683526001600160a01b039190911660208301526001600160601b0316604082015260600190565b63ffffffff92831681529116602082015260400190565b604051601f8201601f191681016001600160401b03811182821017156135af576135af613869565b604052919050565b60006001600160401b038211156135d0576135d0613869565b50601f01601f191660200190565b60006001600160701b0382811684821680830382111561360057613600613853565b01949350505050565b6000821982111561361c5761361c613853565b500190565b60008261363c57634e487b7160e01b81526012600452602481fd5b500490565b600181815b8085111561367c57816000190482111561366257613662613853565b8085161561366f57918102915b93841c9390800290613646565b509250929050565b6000610a1460ff84168360008261369d57506001610755565b816136aa57506000610755565b81600181146136c057600281146136ca576136e6565b6001915050610755565b60ff8411156136db576136db613853565b50506001821b610755565b5060208310610133831016604e8410600b8410161715613709575081810a610755565b6137138383613641565b806000190482111561372757613727613853565b029392505050565b600081600019048311821515161561374957613749613853565b500290565b600081810b83820b8281128015607f1983018412161561377057613770613853565b81607f01831381161561378557613785613853565b5090039392505050565b60006001600160701b03838116908316818110156137af576137af613853565b039392505050565b6000828210156137c9576137c9613853565b500390565b60005b838110156137e95781810151838201526020016137d1565b8381111561112e5750506000910152565b600181811c9082168061380e57607f821691505b6020821081141561382f57634e487b7160e01b600052602260045260246000fd5b50919050565b600081810b607f1981141561384c5761384c613853565b9003919050565b634e487b7160e01b600052601160045260246000fd5b634e487b7160e01b600052604160045260246000fd5b6001600160a01b03811681146106af57600080fd5b80151581146106af57600080fd5b61ffff811681146106af57600080fd5b60ff811681146106af57600080fdfe1ff66a89a0dcb0d94c8284280cbf0fb7190e7d935e15b6b48513e08b84fd9c7bddf252ad1be2c89b69c2b068fc378daa952ba7f163c4a11628f55a4df523b3ef7b5d5b53df75c87d5bea0f0535cd81a355db537ee2ca5dcea9849433d99847b9dfece24f40d1e9a11dfa12d687382e8836c79a50268209551fe53b0333ed793c2833a6b2910014b082775316936860d808d821fc59634fa08bc19c19427fa99da264697066735822122058fcf1865c0eb1e5adf1e1bf0633080983c1d77ad7ffc1e3513fc9862301bb3f64736f6c63430008040033",
  "devdoc": {
    "kind": "dev",
    "methods": {
      "allowance(address,address)": {
        "details": "See {IERC20-allowance}."
      },
      "approve(address,uint256)": {
        "details": "See {IERC20-approve}. Requirements: - `spender` cannot be the zero address."
      },
      "balanceOf(address)": {
        "details": "See {IERC20-balanceOf}."
      },
      "decimals()": {
        "details": "Returns the number of decimals used to get its user representation. For example, if `decimals` equals `2`, a balance of `505` tokens should be displayed to a user as `5,05` (`505 / 10 ** 2`). Tokens usually opt for a value of 18, imitating the relationship between Ether and Wei. This is the value {ERC20} uses, unless this function is overridden; NOTE: This information is only used for _display_ purposes: it in no way affects any of the arithmetic of the contract, including {IERC20-balanceOf} and {IERC20-transfer}."
      },
      "decreaseAllowance(address,uint256)": {
        "details": "Atomically decreases the allowance granted to `spender` by the caller. This is an alternative to {approve} that can be used as a mitigation for problems described in {IERC20-approve}. Emits an {Approval} event indicating the updated allowance. Requirements: - `spender` cannot be the zero address. - `spender` must have allowance for the caller of at least `subtractedValue`."
      },
      "estimateLoanDetailed(address,uint112,uint32)": {
        "details": "Estimates loan cost divided into 3 parts:  1) Pool interest  2) Service operational fee  3) Loan return lien"
      },
      "getEnterprise()": {
        "details": "Returns the address of the current enterprise."
      },
      "increaseAllowance(address,uint256)": {
        "details": "Atomically increases the allowance granted to `spender` by the caller. This is an alternative to {approve} that can be used as a mitigation for problems described in {IERC20-approve}. Emits an {Approval} event indicating the updated allowance. Requirements: - `spender` cannot be the zero address."
      },
      "initialize(address)": {
        "details": "Initializes the enterprise of the contract. The inheritor of this contract *MUST* ensure this method is not called twice."
      },
      "initialize(string,string,uint8)": {
        "details": "Sets the values for {name} and {symbol}. The defaut value of {decimals} is 18. To select a different value for {decimals} you should overload it. All two of these values are immutable: they can only be set once during construction."
      },
      "name()": {
        "details": "Returns the name of the token."
      },
      "symbol()": {
        "details": "Returns the symbol of the token, usually a shorter version of the name."
      },
      "totalSupply()": {
        "details": "See {IERC20-totalSupply}."
      },
      "transfer(address,uint256)": {
        "details": "See {IERC20-transfer}. Requirements: - `recipient` cannot be the zero address. - the caller must have a balance of at least `amount`."
      },
      "transferFrom(address,address,uint256)": {
        "details": "See {IERC20-transferFrom}. Emits an {Approval} event indicating the updated allowance. This is not required by the EIP. See the note at the beginning of {ERC20}. Requirements: - `sender` and `recipient` cannot be the zero address. - `sender` must have a balance of at least `amount`. - the caller must have allowance for ``sender``'s tokens of at least `amount`."
      },
      "wrap(uint256)": {
        "details": "Wraps liquidity tokens to perpetual PowerTokens One must approve sufficient amount of liquidity tokens to corresponding PowerToken address before calling this function"
      },
      "wrapTo(address,uint256)": {
        "details": "Wraps liquidity tokens to perpetual PowerTokens One must approve sufficient amount of liquidity tokens to corresponding PowerToken address before calling this function"
      }
    },
    "version": 1
  },
  "userdoc": {
    "kind": "user",
    "methods": {},
    "version": 1
  },
  "storageLayout": {
    "storage": [
      {
        "astId": 5986,
        "contract": "contracts/PowerToken.sol:PowerToken",
        "label": "_enterprise",
        "offset": 0,
        "slot": "0",
        "type": "t_contract(IEnterprise)9187"
      },
      {
        "astId": 8655,
        "contract": "contracts/PowerToken.sol:PowerToken",
        "label": "_baseRate",
        "offset": 0,
        "slot": "1",
        "type": "t_uint112"
      },
      {
        "astId": 8657,
        "contract": "contracts/PowerToken.sol:PowerToken",
        "label": "_minGCFee",
        "offset": 14,
        "slot": "1",
        "type": "t_uint96"
      },
      {
        "astId": 8659,
        "contract": "contracts/PowerToken.sol:PowerToken",
        "label": "_gapHalvingPeriod",
        "offset": 26,
        "slot": "1",
        "type": "t_uint32"
      },
      {
        "astId": 8661,
        "contract": "contracts/PowerToken.sol:PowerToken",
        "label": "_index",
        "offset": 30,
        "slot": "1",
        "type": "t_uint16"
      },
      {
        "astId": 8664,
        "contract": "contracts/PowerToken.sol:PowerToken",
        "label": "_baseToken",
        "offset": 0,
        "slot": "2",
        "type": "t_contract(IERC20Metadata)1516"
      },
      {
        "astId": 8666,
        "contract": "contracts/PowerToken.sol:PowerToken",
        "label": "_minLoanDuration",
        "offset": 20,
        "slot": "2",
        "type": "t_uint32"
      },
      {
        "astId": 8668,
        "contract": "contracts/PowerToken.sol:PowerToken",
        "label": "_maxLoanDuration",
        "offset": 24,
        "slot": "2",
        "type": "t_uint32"
      },
      {
        "astId": 8670,
        "contract": "contracts/PowerToken.sol:PowerToken",
        "label": "_serviceFeePercent",
        "offset": 28,
        "slot": "2",
        "type": "t_uint16"
      },
      {
        "astId": 8672,
        "contract": "contracts/PowerToken.sol:PowerToken",
        "label": "_wrappingEnabled",
        "offset": 30,
        "slot": "2",
        "type": "t_bool"
      },
      {
        "astId": 8674,
        "contract": "contracts/PowerToken.sol:PowerToken",
        "label": "_transfersEnabled",
        "offset": 31,
        "slot": "2",
        "type": "t_bool"
      },
      {
        "astId": 8679,
        "contract": "contracts/PowerToken.sol:PowerToken",
        "label": "_states",
        "offset": 0,
        "slot": "3",
        "type": "t_mapping(t_address,t_struct(State)8653_storage)"
      },
      {
        "astId": 10255,
        "contract": "contracts/PowerToken.sol:PowerToken",
        "label": "_balances",
        "offset": 0,
        "slot": "4",
        "type": "t_mapping(t_address,t_uint256)"
      },
      {
        "astId": 10261,
        "contract": "contracts/PowerToken.sol:PowerToken",
        "label": "_allowances",
        "offset": 0,
        "slot": "5",
        "type": "t_mapping(t_address,t_mapping(t_address,t_uint256))"
      },
      {
        "astId": 10263,
        "contract": "contracts/PowerToken.sol:PowerToken",
        "label": "_totalSupply",
        "offset": 0,
        "slot": "6",
        "type": "t_uint256"
      },
      {
        "astId": 10265,
        "contract": "contracts/PowerToken.sol:PowerToken",
        "label": "_name",
        "offset": 0,
        "slot": "7",
        "type": "t_string_storage"
      },
      {
        "astId": 10267,
        "contract": "contracts/PowerToken.sol:PowerToken",
        "label": "_symbol",
        "offset": 0,
        "slot": "8",
        "type": "t_string_storage"
      },
      {
        "astId": 10269,
        "contract": "contracts/PowerToken.sol:PowerToken",
        "label": "_decimals",
        "offset": 0,
        "slot": "9",
        "type": "t_uint8"
      }
    ],
    "types": {
      "t_address": {
        "encoding": "inplace",
        "label": "address",
        "numberOfBytes": "20"
      },
      "t_bool": {
        "encoding": "inplace",
        "label": "bool",
        "numberOfBytes": "1"
      },
      "t_contract(IERC20Metadata)1516": {
        "encoding": "inplace",
        "label": "contract IERC20Metadata",
        "numberOfBytes": "20"
      },
      "t_contract(IEnterprise)9187": {
        "encoding": "inplace",
        "label": "contract IEnterprise",
        "numberOfBytes": "20"
      },
      "t_mapping(t_address,t_mapping(t_address,t_uint256))": {
        "encoding": "mapping",
        "key": "t_address",
        "label": "mapping(address => mapping(address => uint256))",
        "numberOfBytes": "32",
        "value": "t_mapping(t_address,t_uint256)"
      },
      "t_mapping(t_address,t_struct(State)8653_storage)": {
        "encoding": "mapping",
        "key": "t_address",
        "label": "mapping(address => struct PowerTokenStorage.State)",
        "numberOfBytes": "32",
        "value": "t_struct(State)8653_storage"
      },
      "t_mapping(t_address,t_uint256)": {
        "encoding": "mapping",
        "key": "t_address",
        "label": "mapping(address => uint256)",
        "numberOfBytes": "32",
        "value": "t_uint256"
      },
      "t_string_storage": {
        "encoding": "bytes",
        "label": "string",
        "numberOfBytes": "32"
      },
      "t_struct(State)8653_storage": {
        "encoding": "inplace",
        "label": "struct PowerTokenStorage.State",
        "members": [
          {
            "astId": 8648,
            "contract": "contracts/PowerToken.sol:PowerToken",
            "label": "lockedBalance",
            "offset": 0,
            "slot": "0",
            "type": "t_uint112"
          },
          {
            "astId": 8650,
            "contract": "contracts/PowerToken.sol:PowerToken",
            "label": "energy",
            "offset": 14,
            "slot": "0",
            "type": "t_uint112"
          },
          {
            "astId": 8652,
            "contract": "contracts/PowerToken.sol:PowerToken",
            "label": "timestamp",
            "offset": 28,
            "slot": "0",
            "type": "t_uint32"
          }
        ],
        "numberOfBytes": "32"
      },
      "t_uint112": {
        "encoding": "inplace",
        "label": "uint112",
        "numberOfBytes": "14"
      },
      "t_uint16": {
        "encoding": "inplace",
        "label": "uint16",
        "numberOfBytes": "2"
      },
      "t_uint256": {
        "encoding": "inplace",
        "label": "uint256",
        "numberOfBytes": "32"
      },
      "t_uint32": {
        "encoding": "inplace",
        "label": "uint32",
        "numberOfBytes": "4"
      },
      "t_uint8": {
        "encoding": "inplace",
        "label": "uint8",
        "numberOfBytes": "1"
      },
      "t_uint96": {
        "encoding": "inplace",
        "label": "uint96",
        "numberOfBytes": "12"
      }
    }
  }
}