{
  "_format": "hh-sol-artifact-1",
  "contractName": "RentingPool",
  "sourceName": "contracts/iq/RentingPool.sol",
  "abi": [
    {
      "inputs": [
        {
          "internalType": "contract ERC20",
          "name": "liquidityToken_",
          "type": "address"
        },
        {
          "internalType": "string",
          "name": "baseUri_",
          "type": "string"
        }
      ],
      "stateMutability": "nonpayable",
      "type": "constructor"
    },
    {
      "anonymous": false,
      "inputs": [
        {
          "indexed": true,
          "internalType": "address",
          "name": "powerToken",
          "type": "address"
        },
        {
          "indexed": false,
          "internalType": "uint256",
          "name": "tokenId",
          "type": "uint256"
        }
      ],
      "name": "Borrowed",
      "type": "event"
    },
    {
      "anonymous": false,
      "inputs": [
        {
          "indexed": true,
          "internalType": "address",
          "name": "previousOwner",
          "type": "address"
        },
        {
          "indexed": true,
          "internalType": "address",
          "name": "newOwner",
          "type": "address"
        }
      ],
      "name": "OwnershipTransferred",
      "type": "event"
    },
    {
      "anonymous": false,
      "inputs": [
        {
          "indexed": true,
          "internalType": "address",
          "name": "powerToken",
          "type": "address"
        },
        {
          "indexed": false,
          "internalType": "uint32",
          "name": "halfLife",
          "type": "uint32"
        },
        {
          "indexed": false,
          "internalType": "uint112",
          "name": "factor",
          "type": "uint112"
        },
        {
          "indexed": false,
          "internalType": "uint32",
          "name": "interestRateHalvingPeriod",
          "type": "uint32"
        }
      ],
      "name": "ServiceRegistered",
      "type": "event"
    },
    {
      "inputs": [],
      "name": "availableReserve",
      "outputs": [
        {
          "internalType": "uint256",
          "name": "",
          "type": "uint256"
        }
      ],
      "stateMutability": "view",
      "type": "function"
    },
    {
      "inputs": [],
      "name": "baseUri",
      "outputs": [
        {
          "internalType": "string",
          "name": "",
          "type": "string"
        }
      ],
      "stateMutability": "view",
      "type": "function"
    },
    {
      "inputs": [
        {
          "internalType": "contract PowerToken",
          "name": "_powerToken",
          "type": "address"
        },
        {
          "internalType": "contract ERC20",
          "name": "_interestPaymentToken",
          "type": "address"
        },
        {
          "internalType": "uint112",
          "name": "_amount",
          "type": "uint112"
        },
        {
          "internalType": "uint256",
          "name": "_maximumInterest",
          "type": "uint256"
        },
        {
          "internalType": "uint32",
          "name": "_duration",
          "type": "uint32"
        },
        {
          "internalType": "uint8",
          "name": "_refundCurvature",
          "type": "uint8"
        }
      ],
      "name": "borrow",
      "outputs": [],
      "stateMutability": "nonpayable",
      "type": "function"
    },
    {
      "inputs": [
        {
          "internalType": "contract PowerToken",
          "name": "_powerToken",
          "type": "address"
        },
        {
          "internalType": "uint256",
          "name": "_tokenId",
          "type": "uint256"
        },
        {
          "internalType": "uint112",
          "name": "_amount",
          "type": "uint112"
        }
      ],
      "name": "burn",
      "outputs": [],
      "stateMutability": "nonpayable",
      "type": "function"
    },
    {
      "inputs": [
        {
          "internalType": "address",
          "name": "",
          "type": "address"
        }
      ],
      "name": "collectedInterest",
      "outputs": [
        {
          "internalType": "uint112",
          "name": "",
          "type": "uint112"
        }
      ],
      "stateMutability": "view",
      "type": "function"
    },
    {
      "inputs": [
        {
          "internalType": "contract PowerToken",
          "name": "_powerToken",
          "type": "address"
        },
        {
          "internalType": "contract ERC20",
          "name": "_interestPaymentToken",
          "type": "address"
        },
        {
          "internalType": "uint112",
          "name": "_amount",
          "type": "uint112"
        },
        {
          "internalType": "uint32",
          "name": "_duration",
          "type": "uint32"
        },
        {
          "internalType": "uint8",
          "name": "_refundCurvature",
          "type": "uint8"
        },
        {
          "internalType": "uint32",
          "name": "_estimateAtTimestamp",
          "type": "uint32"
        }
      ],
      "name": "estimateBorrow",
      "outputs": [
        {
          "internalType": "uint112",
          "name": "",
          "type": "uint112"
        }
      ],
      "stateMutability": "view",
      "type": "function"
    },
    {
      "inputs": [
        {
          "internalType": "contract PowerToken",
          "name": "_powerToken",
          "type": "address"
        },
        {
          "internalType": "address",
          "name": "_tokenHolder",
          "type": "address"
        },
        {
          "internalType": "uint256",
          "name": "_tokenId",
          "type": "uint256"
        },
        {
          "internalType": "uint112",
          "name": "_amountToBurn",
          "type": "uint112"
        },
        {
          "internalType": "uint32",
          "name": "_estimateAt",
          "type": "uint32"
        }
      ],
      "name": "estimateRefund",
      "outputs": [
        {
          "internalType": "address",
          "name": "paymentToken",
          "type": "address"
        },
        {
          "internalType": "uint112",
          "name": "amount",
          "type": "uint112"
        }
      ],
      "stateMutability": "view",
      "type": "function"
    },
    {
      "inputs": [],
      "name": "iToken",
      "outputs": [
        {
          "internalType": "contract InterestToken",
          "name": "",
          "type": "address"
        }
      ],
      "stateMutability": "view",
      "type": "function"
    },
    {
      "inputs": [
        {
          "internalType": "contract PowerToken",
          "name": "_token",
          "type": "address"
        },
        {
          "internalType": "uint32",
          "name": "_duration",
          "type": "uint32"
        }
      ],
      "name": "isAllowedLoanDuration",
      "outputs": [
        {
          "internalType": "bool",
          "name": "",
          "type": "bool"
        }
      ],
      "stateMutability": "view",
      "type": "function"
    },
    {
      "inputs": [
        {
          "internalType": "contract PowerToken",
          "name": "_token",
          "type": "address"
        },
        {
          "internalType": "uint8",
          "name": "curvature",
          "type": "uint8"
        }
      ],
      "name": "isAllowedRefundCurvatures",
      "outputs": [
        {
          "internalType": "bool",
          "name": "",
          "type": "bool"
        }
      ],
      "stateMutability": "view",
      "type": "function"
    },
    {
      "inputs": [
        {
          "internalType": "uint256",
          "name": "_liquidityAmount",
          "type": "uint256"
        },
        {
          "internalType": "uint32",
          "name": "_halfWithdrawPeriod",
          "type": "uint32"
        }
      ],
      "name": "lend",
      "outputs": [],
      "stateMutability": "nonpayable",
      "type": "function"
    },
    {
      "inputs": [],
      "name": "liquidityToken",
      "outputs": [
        {
          "internalType": "contract ERC20",
          "name": "",
          "type": "address"
        }
      ],
      "stateMutability": "view",
      "type": "function"
    },
    {
      "inputs": [],
      "name": "owner",
      "outputs": [
        {
          "internalType": "address",
          "name": "",
          "type": "address"
        }
      ],
      "stateMutability": "view",
      "type": "function"
    },
    {
      "inputs": [
        {
          "internalType": "string",
          "name": "_name",
          "type": "string"
        },
        {
          "internalType": "string",
          "name": "_symbol",
          "type": "string"
        },
        {
          "internalType": "uint32",
          "name": "_halfLife",
          "type": "uint32"
        },
        {
          "internalType": "uint112",
          "name": "_factor",
          "type": "uint112"
        },
        {
          "internalType": "uint32",
          "name": "_interestRateHalvingPeriod",
          "type": "uint32"
        },
        {
          "internalType": "uint32[]",
          "name": "_allowedLoanDurations",
          "type": "uint32[]"
        },
        {
          "internalType": "uint8[]",
          "name": "_allowedRefundCurvatures",
          "type": "uint8[]"
        }
      ],
      "name": "registerService",
      "outputs": [],
      "stateMutability": "nonpayable",
      "type": "function"
    },
    {
      "inputs": [],
      "name": "renounceOwnership",
      "outputs": [],
      "stateMutability": "nonpayable",
      "type": "function"
    },
    {
      "inputs": [],
      "name": "reserve",
      "outputs": [
        {
          "internalType": "uint256",
          "name": "",
          "type": "uint256"
        }
      ],
      "stateMutability": "view",
      "type": "function"
    },
    {
      "inputs": [
        {
          "internalType": "contract PowerToken",
          "name": "",
          "type": "address"
        }
      ],
      "name": "services",
      "outputs": [
        {
          "internalType": "uint256",
          "name": "borrowed",
          "type": "uint256"
        },
        {
          "internalType": "uint112",
          "name": "factor",
          "type": "uint112"
        },
        {
          "internalType": "uint32",
          "name": "lastDeal",
          "type": "uint32"
        },
        {
          "internalType": "uint32",
          "name": "interestRateHalvingPeriod",
          "type": "uint32"
        }
      ],
      "stateMutability": "view",
      "type": "function"
    },
    {
      "inputs": [
        {
          "internalType": "address",
          "name": "",
          "type": "address"
        },
        {
          "internalType": "uint32",
          "name": "",
          "type": "uint32"
        },
        {
          "internalType": "uint8",
          "name": "",
          "type": "uint8"
        }
      ],
      "name": "states",
      "outputs": [
        {
          "internalType": "uint112",
          "name": "plannedBalance",
          "type": "uint112"
        },
        {
          "internalType": "uint32",
          "name": "timestamp",
          "type": "uint32"
        }
      ],
      "stateMutability": "view",
      "type": "function"
    },
    {
      "inputs": [
        {
          "internalType": "uint256",
          "name": "",
          "type": "uint256"
        }
      ],
      "name": "supportedInterestTokens",
      "outputs": [
        {
          "internalType": "address",
          "name": "",
          "type": "address"
        }
      ],
      "stateMutability": "view",
      "type": "function"
    },
    {
      "inputs": [
        {
          "internalType": "address",
          "name": "",
          "type": "address"
        }
      ],
      "name": "supportedInterestTokensIndex",
      "outputs": [
        {
          "internalType": "int16",
          "name": "",
          "type": "int16"
        }
      ],
      "stateMutability": "view",
      "type": "function"
    },
    {
      "inputs": [],
      "name": "totalShares",
      "outputs": [
        {
          "internalType": "uint256",
          "name": "",
          "type": "uint256"
        }
      ],
      "stateMutability": "view",
      "type": "function"
    },
    {
      "inputs": [
        {
          "internalType": "address",
          "name": "newOwner",
          "type": "address"
        }
      ],
      "name": "transferOwnership",
      "outputs": [],
      "stateMutability": "nonpayable",
      "type": "function"
    },
    {
      "inputs": [
        {
          "internalType": "uint256",
          "name": "_sharesAmount",
          "type": "uint256"
        },
        {
          "internalType": "uint256",
          "name": "_tokenId",
          "type": "uint256"
        },
        {
          "internalType": "address",
          "name": "_interestToken",
          "type": "address"
        }
      ],
      "name": "withdrawLiquidity",
      "outputs": [],
      "stateMutability": "nonpayable",
      "type": "function"
    }
  ],
  "bytecode": "0x60806040523480156200001157600080fd5b5060405162006ff438038062006ff4833981810160405260408110156200003757600080fd5b8151602083018051604051929492938301929190846401000000008211156200005f57600080fd5b9083019060208201858111156200007557600080fd5b82516401000000008111828201881017156200009057600080fd5b82525081516020918201929091019080838360005b83811015620000bf578181015183820152602001620000a5565b50505050905090810190601f168015620000ed5780820380516001836020036101000a031916815260200191505b506040525050506000620001066200056e60201b60201c565b600080546001600160a01b0319166001600160a01b0383169081178255604051929350917f8be0079c531659141344cd1fd0a4f28419497f9722a3daafe3b4186f6b6457e0908290a350600180546001600160a01b0319166001600160a01b0384161790558051620001809060069060208401906200066f565b506200018c8262000572565b6000826001600160a01b03166395d89b416040518163ffffffff1660e01b815260040160006040518083038186803b158015620001c857600080fd5b505afa158015620001dd573d6000803e3d6000fd5b505050506040513d6000823e601f3d908101601f1916820160405260208110156200020757600080fd5b81019080805160405193929190846401000000008211156200022857600080fd5b9083019060208201858111156200023e57600080fd5b82516401000000008111828201881017156200025957600080fd5b82525081516020918201929091019080838360005b83811015620002885781810151838201526020016200026e565b50505050905090810190601f168015620002b65780820380516001836020036101000a031916815260200191505b506040525050509050600081604051602001808070024b73a32b932b9ba102132b0b934b7339607d1b81525060110182805190602001908083835b60208310620003125780518252601f199092019160209182019101620002f1565b6001836020036101000a03801982511681845116808217855250505050505090500191505060405160208183030381529060405290506000826040516020018080606960f81b81525060010182805190602001908083835b602083106200038b5780518252601f1990920191602091820191016200036a565b6001836020036101000a038019825116818451168082178552505050505050905001915050604051602081830303815290604052905030828286604051620003d39062000704565b80856001600160a01b03168152602001806020018060200180602001848103845287818151815260200191508051906020019080838360005b83811015620004265781810151838201526020016200040c565b50505050905090810190601f168015620004545780820380516001836020036101000a031916815260200191505b50848103835286518152865160209182019188019080838360005b83811015620004895781810151838201526020016200046f565b50505050905090810190601f168015620004b75780820380516001836020036101000a031916815260200191505b50848103825285518152855160209182019187019080838360005b83811015620004ec578181015183820152602001620004d2565b50505050905090810190601f1680156200051a5780820380516001836020036101000a031916815260200191505b50975050505050505050604051809103906000f08015801562000541573d6000803e3d6000fd5b50600280546001600160a01b0319166001600160a01b039290921691909117905550620007299350505050565b3390565b6001600160a01b038116600090815260096020526040902054600190810b900b6200060e57600a8054600180820183557fc65a7bb8d6351c1cf70c95a316cc6a92839c986682d98bc35f958f4883f9d2a890910180546001600160a01b0319166001600160a01b0385169081179091559154600092835260096020526040909220805461ffff191661ffff9390920b929092161790556200066c565b6001600160a01b038116600090815260096020526040812054600190810b900b12156200066c576001600160a01b03811660009081526009602052604081208054600181810b90930390920b61ffff1661ffff199092169190911790555b50565b828054600181600116156101000203166002900490600052602060002090601f016020900481019282620006a75760008555620006f2565b82601f10620006c257805160ff1916838001178555620006f2565b82800160010185558215620006f2579182015b82811115620006f2578251825591602001919060010190620006d5565b506200070092915062000712565b5090565b61187f806200577583390190565b5b8082111562000700576000815560010162000713565b61503c80620007396000396000f3fe60806040523480156200001157600080fd5b5060043610620001b45760003560e01c80638619344b11620000f9578063a0cffa591162000099578063cd3293de116200006f578063cd3293de146200086c578063ec46bd7d1462000876578063f2fde38b14620008dc57620001b4565b8063a0cffa5914620007c5578063a25587c2146200080e578063b424df80146200083a57620001b4565b806396082ac211620000cf57806396082ac2146200049957806399e2946b14620007035780639abc8320146200074357620001b4565b80638619344b146200043a5780638da5cb5b146200045a57806395e17d84146200046457620001b4565b806343cd8f7e11620001655780636d966d01116200013b5780636d966d011462000375578063715018a614620003d257806382e0d63714620003dc57620001b4565b806343cd8f7e14620003215780635e9f9613146200032b5780635fa1e118146200033557620001b4565b806330bb0637116200019b57806330bb0637146200027e5780633a98ef3914620002df578063408cfe2414620002fb57620001b4565b80630e619aeb14620001b957806326399b6814620001fe575b600080fd5b620001e260048036036020811015620001d157600080fd5b50356001600160a01b031662000905565b604080516001600160701b039092168252519081900360200190f35b62000253600480360360a08110156200021657600080fd5b5080356001600160a01b039081169160208101359091169060408101359060608101356001600160701b0316906080013563ffffffff1662000920565b604080516001600160a01b0390931683526001600160701b0390911660208301528051918290030190f35b620001e2600480360360c08110156200029657600080fd5b506001600160a01b0381358116916020810135909116906001600160701b036040820135169063ffffffff606082013581169160ff6080820135169160a0909101351662000a5e565b620002e962000ff2565b60408051918252519081900360200190f35b6200030562000ff8565b604080516001600160a01b039092168252519081900360200190f35b6200030562001007565b620002e962001016565b62000373600480360360608110156200034d57600080fd5b5080356001600160a01b031690602081013590604001356001600160701b03166200101c565b005b6200039e600480360360208110156200038d57600080fd5b50356001600160a01b03166200122c565b604080519485526001600160701b03909316602085015263ffffffff91821684840152166060830152519081900360800190f35b620003736200126a565b62000373600480360360c0811015620003f457600080fd5b5080356001600160a01b039081169160208101359091169060408101356001600160701b031690606081013590608081013563ffffffff169060a0013560ff166200133a565b62000305600480360360208110156200045257600080fd5b503562001713565b620003056200173e565b62000373600480360360608110156200047c57600080fd5b50803590602081013590604001356001600160a01b03166200174d565b62000373600480360360e0811015620004b157600080fd5b810190602081018135640100000000811115620004cd57600080fd5b820183602082011115620004e057600080fd5b803590602001918460018302840111640100000000831117156200050357600080fd5b91908080601f01602080910402602001604051908101604052809392919081815260200183838082843760009201919091525092959493602081019350359150506401000000008111156200055757600080fd5b8201836020820111156200056a57600080fd5b803590602001918460018302840111640100000000831117156200058d57600080fd5b91908080601f016020809104026020016040519081016040528093929190818152602001838380828437600092019190915250929563ffffffff85358116966001600160701b0360208801351696604081013590921695509193509091506080810190606001356401000000008111156200060757600080fd5b8201836020820111156200061a57600080fd5b803590602001918460208302840111640100000000831117156200063d57600080fd5b91908080602002602001604051908101604052809392919081815260200183836020028082843760009201919091525092959493602081019350359150506401000000008111156200068e57600080fd5b820183602082011115620006a157600080fd5b80359060200191846020830284011164010000000083111715620006c457600080fd5b9190808060200260200160405190810160405280939291908181526020018383602002808284376000920191909152509295506200198b945050505050565b6200072c600480360360208110156200071b57600080fd5b50356001600160a01b031662001f0c565b6040805160019290920b8252519081900360200190f35b6200074d62001f21565b6040805160208082528351818301528351919283929083019185019080838360005b83811015620007895781810151838201526020016200076f565b50505050905090810190601f168015620007b75780820380516001836020036101000a031916815260200191505b509250505060405180910390f35b620007fa60048036036040811015620007dd57600080fd5b5080356001600160a01b0316906020013563ffffffff1662001fb3565b604080519115158252519081900360200190f35b62000373600480360360408110156200082657600080fd5b508035906020013563ffffffff166200203e565b620007fa600480360360408110156200085257600080fd5b5080356001600160a01b0316906020013560ff1662002183565b620002e9620021fc565b620008b4600480360360608110156200088e57600080fd5b5080356001600160a01b031690602081013563ffffffff16906040013560ff1662002202565b604080516001600160701b03909316835263ffffffff90911660208301528051918290030190f35b6200037360048036036020811015620008f457600080fd5b50356001600160a01b03166200223d565b600b602052600090815260409020546001600160701b031681565b6000806000806000806000620009368a62002365565b94509450945094509450600a6001830361ffff16815481106200095557fe5b9060005260206000200160009054906101000a90046001600160a01b0316965060008c6001600160a01b031662fdd58e8d8d6040518363ffffffff1660e01b815260040180836001600160a01b031681526020018281526020019250505060206040518083038186803b158015620009cc57600080fd5b505afa158015620009e1573d6000803e3d6000fd5b505050506040513d6020811015620009f857600080fd5b505190508062000a1357506000955062000a54945050505050565b808a62000a3888858860ff168b8b0363ffffffff168162000a3057fe5b048e62002500565b026001600160701b03168162000a4a57fe5b0496505050505050505b9550959350505050565b600062000a6c878562001fb3565b62000abe576040805162461bcd60e51b815260206004820152601460248201527f4475726174696f6e206e6f7420616c6c6f776564000000000000000000000000604482015290519081900360640190fd5b62000aca878462002183565b62000b1c576040805162461bcd60e51b815260206004820152601560248201527f437572766174757265206e6f7420616c6c6f7765640000000000000000000000604482015290519081900360640190fd5b600454856001600160701b0316111562000b7d576040805162461bcd60e51b815260206004820152601a60248201527f546f6f206c6f7720617661696c61626c65207265736572766573000000000000604482015290519081900360640190fd5b6001600160a01b03871660009081526007602090815260408083208151815460e09481028201850190935260c0810183815290939192849284919084018282801562000c1557602002820191906000526020600020906000905b82829054906101000a900463ffffffff1663ffffffff168152602001906004019060208260030104928301926001038202915080841162000bd75790505b505050505081526020016001820180548060200260200160405190810160405280929190818152602001828054801562000c8d57602002820191906000526020600020906000905b825461010083900a900460ff1681526020600192830181810494850194909303909202910180841162000c5d5790505b505050918352505060028201546020808301919091526003909201546001600160701b0380821660408085019190915263ffffffff600160701b840481166060860152600160901b9093049092166080909301929092528051808201909152600681527f416d6f756e7400000000000000000000000000000000000000000000000000009281019290925291925062000d2891881662002662565b62000d6f6040518060400160405280600881526020017f4475726174696f6e0000000000000000000000000000000000000000000000008152508663ffffffff1662002662565b62000dbd6040518060400160405280600681526020017f466163746f72000000000000000000000000000000000000000000000000000081525082606001516001600160701b031662002662565b62000e016040518060400160405280600f81526020017f526566756e6443757276617475726500000000000000000000000000000000008152508560ff1662002662565b62000e626040518060400160405280600381526020017f4d756c000000000000000000000000000000000000000000000000000000000081525082606001516001600160701b03168763ffffffff16896001600160701b0316020262002662565b60008460700360ff1682606001516001600160701b03168763ffffffff16896001600160701b03160202901c905062000eda6040518060400160405280600281526020017f4330000000000000000000000000000000000000000000000000000000000000815250826001600160701b031662002662565b62000f256040518060400160405280600881526020017f6c6173744465616c000000000000000000000000000000000000000000000000815250836080015163ffffffff1662002662565b62000f706040518060400160405280600281526020017f48500000000000000000000000000000000000000000000000000000000000008152508360a0015163ffffffff1662002662565b600062000f888360800151838560a001518862002500565b90506000886001600160701b031660045403600354836001600160701b0316028162000fb057fe5b04905060006001600160701b03821162000fcb578162000fd4565b6001600160701b035b905062000fe2818c62002732565b9c9b505050505050505050505050565b60055481565b6002546001600160a01b031681565b6001546001600160a01b031681565b60045481565b6000836001600160a01b031662fdd58e33856040518363ffffffff1660e01b815260040180836001600160a01b031681526020018281526020019250505060206040518083038186803b1580156200107357600080fd5b505afa15801562001088573d6000803e3d6000fd5b505050506040513d60208110156200109f57600080fd5b505190506001600160701b03821681101562001102576040805162461bcd60e51b815260206004820152601c60248201527f43616e2774206275726e206d6f726520746861742062616c616e636500000000604482015290519081900360640190fd5b60008062001114863387874262000920565b91509150600062001125866200278a565b80546dffffffffffffffffffffffffffff1981166001600160701b039182168590038216178255600480548883169081019091556001600160a01b038a8116600090815260076020526040902060020180549290920390915591925062001193918516903390851662002a3b565b604080517ff5298aca000000000000000000000000000000000000000000000000000000008152336004820152602481018890526001600160701b038416604482015290516001600160a01b0389169163f5298aca91606480830192600092919082900301818387803b1580156200120a57600080fd5b505af11580156200121f573d6000803e3d6000fd5b5050505050505050505050565b600760205260009081526040902060028101546003909101546001600160701b0381169063ffffffff600160701b8204811691600160901b90041684565b6200127462002aad565b6001600160a01b0316620012876200173e565b6001600160a01b031614620012e3576040805162461bcd60e51b815260206004820181905260248201527f4f776e61626c653a2063616c6c6572206973206e6f7420746865206f776e6572604482015290519081900360640190fd5b600080546040516001600160a01b03909116907f8be0079c531659141344cd1fd0a4f28419497f9722a3daafe3b4186f6b6457e0908390a36000805473ffffffffffffffffffffffffffffffffffffffff19169055565b6001600160a01b038516600090815260096020526040812054600190810b900b13620013985760405162461bcd60e51b815260040180806020018281038252603381526020018062004f7f6033913960400191505060405180910390fd5b620013a4868362001fb3565b620013f6576040805162461bcd60e51b815260206004820152601460248201527f4475726174696f6e206e6f7420616c6c6f776564000000000000000000000000604482015290519081900360640190fd5b62001402868262002183565b62001454576040805162461bcd60e51b815260206004820152601560248201527f437572766174757265206e6f7420616c6c6f7765640000000000000000000000604482015290519081900360640190fd5b600454846001600160701b03161115620014b5576040805162461bcd60e51b815260206004820152601560248201527f496e73756666696369656e742072657365727665730000000000000000000000604482015290519081900360640190fd5b6000620014c787878786864262000a5e565b905083816001600160701b0316111562001528576040805162461bcd60e51b815260206004820152601060248201527f536c69707061676520746f6f2062696700000000000000000000000000000000604482015290519081900360640190fd5b620015726040518060400160405280600881526020017f496e746572657374000000000000000000000000000000000000000000000000815250826001600160701b031662002662565b620015926001600160a01b03871633306001600160701b03851662002ab1565b600480546001600160701b038716908190039091556001600160a01b03808916600090815260076020908152604080832060020180549095019094559189168152600990915290812054620015f390429086820190869060010b8662002b2c565b604080517f731133e9000000000000000000000000000000000000000000000000000000008152336004820152602481018390526001600160701b03891660448201526080606482015260006084820181905291519293506001600160a01b038b169263731133e99260a48084019391929182900301818387803b1580156200167b57600080fd5b505af115801562001690573d6000803e3d6000fd5b505050506000620016a1826200278a565b80546001600160701b038082168601166dffffffffffffffffffffffffffff199091161781556040805184815290519192506001600160a01b038b16917fac59582e5396aca512fa873a2047e7f4c80f8f55d4a06cb34a78a0187f62719f9181900360200190a2505050505050505050565b600a81815481106200172457600080fd5b6000918252602090912001546001600160a01b0316905081565b6000546001600160a01b031690565b600254604080517efdd58e0000000000000000000000000000000000000000000000000000000081523360048201526024810185905290516000926001600160a01b03169162fdd58e916044808301926020929190829003018186803b158015620017b757600080fd5b505afa158015620017cc573d6000803e3d6000fd5b505050506040513d6020811015620017e357600080fd5b50519050838110156200183d576040805162461bcd60e51b815260206004820152601460248201527f496e73756666696369656e742062616c616e6365000000000000000000000000604482015290519081900360640190fd5b620018806040518060400160405280600e81526020017f546f74616c205368617265733a2000000000000000000000000000000000000081525060055462002662565b6000600554856200189062002b6e565b02816200189957fe5b60015491900491506001600160a01b0384811691161462001901576040805162461bcd60e51b815260206004820152601160248201527f4e6f7420737570706f7274656420796574000000000000000000000000000000604482015290519081900360640190fd5b60045481111562001959576040805162461bcd60e51b815260206004820152601660248201527f496e73756666696369656e74206c697175696469747900000000000000000000604482015290519081900360640190fd5b60015462001972906001600160a01b0316338362002a3b565b6003805482900390556004805491909103905550505050565b600154604080517f95d89b4100000000000000000000000000000000000000000000000000000000815290516000926001600160a01b0316916395d89b419160048083019286929190829003018186803b158015620019e957600080fd5b505afa158015620019fe573d6000803e3d6000fd5b505050506040513d6000823e601f3d908101601f19168201604052602081101562001a2857600080fd5b810190808051604051939291908464010000000082111562001a4957600080fd5b90830190602082018581111562001a5f57600080fd5b825164010000000081118282018810171562001a7a57600080fd5b82525081516020918201929091019080838360005b8381101562001aa957818101518382015260200162001a8f565b50505050905090810190601f16801562001ad75780820380516001836020036101000a031916815260200191505b506040525050509050600081886040516020018083805190602001908083835b6020831062001b185780518252601f19909201916020918201910162001af7565b6001836020036101000a038019825116818451168082178552505050505050905001807f200000000000000000000000000000000000000000000000000000000000000081525060010182805190602001908083835b6020831062001b8f5780518252601f19909201916020918201910162001b6e565b6001836020036101000a0380198251168184511680821785525050505050509050019250505060405160208183030381529060405290506000898260068a60405162001bdb9062002ef3565b808060200180602001806020018563ffffffff168152602001848103845288818151815260200191508051906020019080838360005b8381101562001c2b57818101518382015260200162001c11565b50505050905090810190601f16801562001c595780820380516001836020036101000a031916815260200191505b50848103835287518152875160209182019189019080838360005b8381101562001c8e57818101518382015260200162001c74565b50505050905090810190601f16801562001cbc5780820380516001836020036101000a031916815260200191505b5084810382528654600260001961010060018416150201909116048082526020909101908790801562001d335780601f1062001d075761010080835404028352916020019162001d33565b820191906000526020600020905b81548152906001019060200180831162001d1557829003601f168201915b5050975050505050505050604051809103906000f08015801562001d5b573d6000803e3d6000fd5b506001600160a01b0381166000908152600760209081526040909120875192935062001d8c92909188019062002f01565b506001600160a01b0381166000908152600760209081526040909120855162001dbe9260019092019187019062002fb7565b508660076000836001600160a01b03166001600160a01b0316815260200190815260200160002060030160006101000a8154816001600160701b0302191690836001600160701b031602179055508560076000836001600160a01b03166001600160a01b0316815260200190815260200160002060030160126101000a81548163ffffffff021916908363ffffffff1602179055504260076000836001600160a01b03166001600160a01b03168152602001908152602001600020600301600e6101000a81548163ffffffff021916908363ffffffff160217905550806001600160a01b03167f9a57b384ed8b33098a5a53cb7b380bc8d9aebeecdabb44f362a2d91d8ce7aed7898989604051808463ffffffff168152602001836001600160701b031681526020018263ffffffff168152602001935050505060405180910390a250505050505050505050565b60096020526000908152604090205460010b81565b6006805460408051602060026001851615610100026000190190941693909304601f8101849004840282018401909252818152929183018282801562001fab5780601f1062001f7f5761010080835404028352916020019162001fab565b820191906000526020600020905b81548152906001019060200180831162001f8d57829003601f168201915b505050505081565b6001600160a01b03821660009081526007602052604081208054825b8181101562002030578463ffffffff1683600001828154811062001fef57fe5b6000918252602090912060088204015460079091166004026101000a900463ffffffff16141562002027576001935050505062002038565b60010162001fcf565b506000925050505b92915050565b60015462002058906001600160a01b031633308562002ab1565b6003805483019055600480548301905560006200207462002b6e565b90506000600554600014156200208c5750826200209e565b818460055402816200209a57fe5b0490505b60408051808201909152600c81527f4e6577205368617265733a200000000000000000000000000000000000000000602082015263ffffffff841690620020e6908362002662565b600254604080517f156e29f6000000000000000000000000000000000000000000000000000000008152336004820152602481018490526044810185905290516001600160a01b039092169163156e29f69160648082019260009290919082900301818387803b1580156200215a57600080fd5b505af11580156200216f573d6000803e3d6000fd5b505060058054909401909355505050505050565b6001600160a01b03821660009081526007602052604081206001810154825b8181101562002030578460ff16836001018281548110620021bf57fe5b60009182526020918290209181049091015460ff601f9092166101000a9004161415620021f3576001935050505062002038565b600101620021a2565b60035481565b60086020908152600093845260408085208252928452828420905282529020546001600160701b03811690600160701b900463ffffffff1682565b6200224762002aad565b6001600160a01b03166200225a6200173e565b6001600160a01b031614620022b6576040805162461bcd60e51b815260206004820181905260248201527f4f776e61626c653a2063616c6c6572206973206e6f7420746865206f776e6572604482015290519081900360640190fd5b6001600160a01b038116620022fd5760405162461bcd60e51b815260040180806020018281038252602681526020018062004f336026913960400191505060405180910390fd5b600080546040516001600160a01b03808516939216917f8be0079c531659141344cd1fd0a4f28419497f9722a3daafe3b4186f6b6457e091a36000805473ffffffffffffffffffffffffffffffffffffffff19166001600160a01b0392909216919091179055565b60e081901c60c082901c63ffffffff1660b883901c60ff1660a884901c61ffff166001600160701b03851684620023e3576040805162461bcd60e51b815260206004820152600c60248201527f496e76616c69642066726f6d0000000000000000000000000000000000000000604482015290519081900360640190fd5b60008463ffffffff16116200243f576040805162461bcd60e51b815260206004820152600a60248201527f496e76616c696420746f00000000000000000000000000000000000000000000604482015290519081900360640190fd5b60008360ff161162002498576040805162461bcd60e51b815260206004820152601160248201527f496e76616c696420637572766174757265000000000000000000000000000000604482015290519081900360640190fd5b6000816001600160701b031611620024f7576040805162461bcd60e51b815260206004820152601060248201527f496e76616c696420696e74657265737400000000000000000000000000000000604482015290519081900360640190fd5b91939590929450565b60008463ffffffff168263ffffffff16101562002564576040805162461bcd60e51b815260206004820152600e60248201527f496e76616c696420706572696f64000000000000000000000000000000000000604482015290519081900360640190fd5b84820391508263ffffffff168263ffffffff16816200257f57fe5b0463ffffffff16846001600160701b0316901c93508263ffffffff168263ffffffff1681620025aa57fe5b06915063ffffffff82161580620025c857506001600160701b038416155b15620025d65750826200265a565b60006001600160701b0385168163ffffffff86811690861671b17217f7d1cf79abc9e3b39803f2f6af40f302816200260a57fe5b049050600160901b5b821562002653579282019280828402816200262a57fe5b0493849003939250600160901b0180828402816200264457fe5b049250600160901b0162002613565b5091925050505b949350505050565b6200272e82826040516024018080602001838152602001828103825284818151815260200191508051906020019080838360005b83811015620026b057818101518382015260200162002696565b50505050905090810190601f168015620026de5780820380516001836020036101000a031916815260200191505b5060408051601f198184030181529190526020810180516001600160e01b03167f9710a9d000000000000000000000000000000000000000000000000000000000179052935062002bea92505050565b5050565b6001546000906001600160a01b03838116911614620027835760405162461bcd60e51b815260040180806020018281038252602b81526020018062004fb2602b913960400191505060405180910390fd5b5090919050565b60008060008060006200279d8662002365565b509350935093509350620027ed6040518060400160405280600481526020017f46726f6d000000000000000000000000000000000000000000000000000000008152508563ffffffff1662002662565b620028346040518060400160405280600281526020017f546f0000000000000000000000000000000000000000000000000000000000008152508463ffffffff1662002662565b620028786040518060400160405280600981526020017f43757276617475726500000000000000000000000000000000000000000000008152508360ff1662002662565b620028bd6040518060400160405280600a81526020017f546f6b656e496e646578000000000000000000000000000000000000000000008152508261ffff1662002662565b6000600a6001830361ffff1681548110620028d457fe5b60009182526020808320909101546001600160a01b031680835260088252604080842063ffffffff8a8a0381811680885292865283872060ff8b1680895296529286208054909c509396509194936200294c93600160701b8104909316926001600160701b031691816200294457fe5b044262002500565b88546001546001600160701b039091169190910391506001600160a01b03848116911614156200299957600380546001600160701b038316908101909155600480549091019055620029d8565b6001600160a01b0383166000908152600b6020526040902080546001600160701b038082168401166dffffffffffffffffffffffffffff199091161790555b87546dffffffffffffffffffffffffffff1981166001600160701b039182169290920316177fffffffffffffffffffffffffffff00000000ffffffffffffffffffffffffffff16600160701b4263ffffffff160217875550949695505050505050565b604080516001600160a01b038416602482015260448082018490528251808303909101815260649091019091526020810180516001600160e01b03167fa9059cbb0000000000000000000000000000000000000000000000000000000017905262002aa890849062002c0b565b505050565b3390565b604080516001600160a01b0380861660248301528416604482015260648082018490528251808303909101815260849091019091526020810180516001600160e01b03167f23b872dd0000000000000000000000000000000000000000000000000000000017905262002b2690859062002c0b565b50505050565b6000816001600160701b031660a88461ffff16901b60b88660ff16901b60c08863ffffffff16901b60e08a63ffffffff16901b17171717905095945050505050565b600354600a5460005b8181101562002be5576000600a828154811062002b9057fe5b60009182526020808320909101546001600160a01b0316808352600b90915260409091205490915062002bcd906001600160701b03168262002732565b6001600160701b031693909301925060010162002b77565b505090565b80516a636f6e736f6c652e6c6f67602083016000808483855afa5050505050565b600062002c62826040518060400160405280602081526020017f5361666545524332303a206c6f772d6c6576656c2063616c6c206661696c6564815250856001600160a01b031662002cc29092919063ffffffff16565b80519091501562002aa85780806020019051602081101562002c8357600080fd5b505162002aa85760405162461bcd60e51b815260040180806020018281038252602a81526020018062004fdd602a913960400191505060405180910390fd5b606062002cd3848460008562002cdd565b90505b9392505050565b60608247101562002d205760405162461bcd60e51b815260040180806020018281038252602681526020018062004f596026913960400191505060405180910390fd5b62002d2b8562002e43565b62002d7d576040805162461bcd60e51b815260206004820152601d60248201527f416464726573733a2063616c6c20746f206e6f6e2d636f6e7472616374000000604482015290519081900360640190fd5b600080866001600160a01b031685876040518082805190602001908083835b6020831062002dbd5780518252601f19909201916020918201910162002d9c565b6001836020036101000a03801982511681845116808217855250505050505090500191505060006040518083038185875af1925050503d806000811462002e21576040519150601f19603f3d011682016040523d82523d6000602084013e62002e26565b606091505b509150915062002e3882828662002e49565b979650505050505050565b3b151590565b6060831562002e5a57508162002cd6565b82511562002e6b5782518084602001fd5b8160405162461bcd60e51b81526004018080602001828103825283818151815260200191508051906020019080838360005b8381101562002eb757818101518382015260200162002e9d565b50505050905090810190601f16801562002ee55780820380516001836020036101000a031916815260200191505b509250505060405180910390fd5b611ecb806200306883390190565b8280548282559060005260206000209060070160089004810192821562002fa55791602002820160005b8382111562002f7157835183826101000a81548163ffffffff021916908363ffffffff160217905550926020019260040160208160030104928301926001030262002f2b565b801562002fa35782816101000a81549063ffffffff021916905560040160208160030104928301926001030262002f71565b505b5062002fb392915062003050565b5090565b82805482825590600052602060002090601f0160209004810192821562002fa55791602002820160005b838211156200302157835183826101000a81548160ff021916908360ff160217905550926020019260010160208160000104928301926001030262002fe1565b801562002fa35782816101000a81549060ff021916905560010160208160000104928301926001030262003021565b5b8082111562002fb357600081556001016200305156fe60806040523480156200001157600080fd5b5060405162001ecb38038062001ecb833981810160405260808110156200003757600080fd5b81019080805160405193929190846401000000008211156200005857600080fd5b9083019060208201858111156200006e57600080fd5b82516401000000008111828201881017156200008957600080fd5b82525081516020918201929091019080838360005b83811015620000b85781810151838201526020016200009e565b50505050905090810190601f168015620000e65780820380516001836020036101000a031916815260200191505b50604052602001805160405193929190846401000000008211156200010a57600080fd5b9083019060208201858111156200012057600080fd5b82516401000000008111828201881017156200013b57600080fd5b82525081516020918201929091019080838360005b838110156200016a57818101518382015260200162000150565b50505050905090810190601f168015620001985780820380516001836020036101000a031916815260200191505b5060405260200180516040519392919084640100000000821115620001bc57600080fd5b908301906020820185811115620001d257600080fd5b8251640100000000811182820188101715620001ed57600080fd5b82525081516020918201929091019080838360005b838110156200021c57818101518382015260200162000202565b50505050905090810190601f1680156200024a5780820380516001836020036101000a031916815260200191505b50604052602090810151865190935086925085918591620002729160009190860190620002d9565b50815162000288906001906020850190620002d9565b5080516200029e906002906020840190620002d9565b5050600380546001600160a01b0319163317905550506006805463ffffffff90921663ffffffff199092169190911790555062000385915050565b828054600181600116156101000203166002900490600052602060002090601f0160209004810192826200031157600085556200035c565b82601f106200032c57805160ff19168380011785556200035c565b828001600101855582156200035c579182015b828111156200035c5782518255916020019190600101906200033f565b506200036a9291506200036e565b5090565b5b808211156200036a57600081556001016200036f565b611b3680620003956000396000f3fe608060405234801561001057600080fd5b50600436106100e95760003560e01c80637bc90d1c1161008c578063a22cb46511610066578063a22cb465146105c9578063e985e9c5146105f7578063f242432a14610639578063f5298aca146106ce576100e9565b80637bc90d1c1461057c5780638da5cb5b1461059d57806395d89b41146105c1576100e9565b80632eb2c2d6116100c85780632eb2c2d6146101c65780634e1273f4146102f55780635370028e1461046c578063731133e9146104ba576100e9565b8062fdd58e146100ee57806306fdde031461012c5780630e89341c146101a9575b600080fd5b61011a6004803603604081101561010457600080fd5b506001600160a01b038135169060200135610700565b60408051918252519081900360200190f35b610134610772565b6040805160208082528351818301528351919283929083019185019080838360005b8381101561016e578181015183820152602001610156565b50505050905090810190601f16801561019b5780820380516001836020036101000a031916815260200191505b509250505060405180910390f35b610134600480360360208110156101bf57600080fd5b5035610800565b6102f3600480360360a08110156101dc57600080fd5b6001600160a01b03823581169260208101359091169181019060608101604082013564010000000081111561021057600080fd5b82018360208201111561022257600080fd5b8035906020019184602083028401116401000000008311171561024457600080fd5b91939092909160208101903564010000000081111561026257600080fd5b82018360208201111561027457600080fd5b8035906020019184602083028401116401000000008311171561029657600080fd5b9193909290916020810190356401000000008111156102b457600080fd5b8201836020820111156102c657600080fd5b803590602001918460018302840111640100000000831117156102e857600080fd5b509092509050610895565b005b61041c6004803603604081101561030b57600080fd5b81019060208101813564010000000081111561032657600080fd5b82018360208201111561033857600080fd5b8035906020019184602083028401116401000000008311171561035a57600080fd5b91908080602002602001604051908101604052809392919081815260200183836020028082843760009201919091525092959493602081019350359150506401000000008111156103aa57600080fd5b8201836020820111156103bc57600080fd5b803590602001918460208302840111640100000000831117156103de57600080fd5b919080806020026020016040519081016040528093929190818152602001838360200280828437600092019190915250929550610b35945050505050565b60408051602080825283518183015283519192839290830191858101910280838360005b83811015610458578181015183820152602001610440565b505050509050019250505060405180910390f35b61049e6004803603604081101561048257600080fd5b5080356001600160a01b0316906020013563ffffffff16610c21565b604080516001600160701b039092168252519081900360200190f35b6102f3600480360360808110156104d057600080fd5b6001600160a01b03823516916020810135916040820135919081019060808101606082013564010000000081111561050757600080fd5b82018360208201111561051957600080fd5b8035906020019184600183028401116401000000008311171561053b57600080fd5b91908080601f016020809104026020016040519081016040528093929190818152602001838380828437600092019190915250929550610c86945050505050565b610584610cef565b6040805163ffffffff9092168252519081900360200190f35b6105a5610cfb565b604080516001600160a01b039092168252519081900360200190f35b610134610d0a565b6102f3600480360360408110156105df57600080fd5b506001600160a01b0381351690602001351515610d64565b6106256004803603604081101561060d57600080fd5b506001600160a01b0381358116916020013516610e1a565b604080519115158252519081900360200190f35b6102f3600480360360a081101561064f57600080fd5b6001600160a01b03823581169260208101359091169160408201359160608101359181019060a08101608082013564010000000081111561068f57600080fd5b8201836020820111156106a157600080fd5b803590602001918460018302840111640100000000831117156106c357600080fd5b509092509050610e48565b6102f3600480360360608110156106e457600080fd5b506001600160a01b03813516906020810135906040013561102d565b60006001600160a01b0383166107475760405162461bcd60e51b815260040180806020018281038252602b815260200180611990602b913960400191505060405180910390fd5b5060008181526004602090815260408083206001600160a01b03861684529091529020545b92915050565b6000805460408051602060026001851615610100026000190190941693909304601f810184900484028201840190925281815292918301828280156107f85780601f106107cd576101008083540402835291602001916107f8565b820191906000526020600020905b8154815290600101906020018083116107db57829003601f168201915b505050505081565b60028054604080516020601f60001961010060018716150201909416859004938401819004810282018101909252828152606093909290918301828280156108895780601f1061085e57610100808354040283529160200191610889565b820191906000526020600020905b81548152906001019060200180831161086c57829003601f168201915b50505050509050919050565b6001600160a01b0387166108da5760405162461bcd60e51b81526004018080602001828103825260258152602001806119bb6025913960400191505060405180910390fd5b8483146109185760405162461bcd60e51b8152600401808060200182810382526029815260200180611a4d6029913960400191505060405180910390fd5b6001600160a01b03881633148061095757506001600160a01b038816600090815260056020908152604080832033845290915290205460ff1615156001145b6109925760405162461bcd60e51b815260040180806020018281038252602f8152602001806119e0602f913960400191505060405180910390fd5b60005b858110156109d5576109cd89898989858181106109ae57fe5b905060200201358888868181106109c157fe5b9050602002013561108b565b600101610995565b50866001600160a01b0316886001600160a01b0316336001600160a01b03167f4a39dc06d4c0dbc64b70af90fd698a233a518aa5d07e595d983b8c0526c8f7fb898989896040518080602001806020018381038352878782818152602001925060200280828437600083820152601f01601f19169091018481038352858152602090810191508690860280828437600083820152604051601f909101601f19169092018290039850909650505050505050a4610b2b33898989898080602002602001604051908101604052809392919081815260200183836020028082843760009201919091525050604080516020808d0282810182019093528c82529093508c92508b91829185019084908082843760009201919091525050604080516020601f8c018190048102820181019092528a815292508a91508990819084018382808284376000920191909152506110d292505050565b5050505050505050565b60608151835114610b775760405162461bcd60e51b8152600401808060200182810382526029815260200180611a9f6029913960400191505060405180910390fd5b6000835167ffffffffffffffff81118015610b9157600080fd5b50604051908082528060200260200182016040528015610bbb578160200160208202803683370190505b50905060005b8451811015610c1957610bfa858281518110610bd957fe5b6020026020010151858381518110610bed57fe5b6020026020010151610700565b828281518110610c0657fe5b6020908102919091010152600101610bc1565b509392505050565b6001600160a01b0382166000908152600760209081526040808320815160608101835290546001600160701b038082168352600160701b82041693820193909352600160e01b90920463ffffffff1690820152610c7e81846112db565b949350505050565b6003546001600160a01b03163314610cd4576040805162461bcd60e51b815260206004820152600c60248201526b2737ba1030b71037bbb732b960a11b604482015290519081900360640190fd5b610ce98484846001600160701b03168461135b565b50505050565b60065463ffffffff1681565b6003546001600160a01b031681565b60018054604080516020600284861615610100026000190190941693909304601f810184900484028201840190925281815292918301828280156107f85780601f106107cd576101008083540402835291602001916107f8565b336001600160a01b0383161415610dac5760405162461bcd60e51b8152600401808060200182810382526029815260200180611a766029913960400191505060405180910390fd5b3360008181526005602090815260408083206001600160a01b03871680855290835292819020805460ff1916861515908117909155815190815290519293927f17307eab39ab6107e8899845ad3d59bd9653f200f220920489ca2b5937696c31929181900390910190a35050565b6001600160a01b03918216600090815260056020908152604080832093909416825291909152205460ff1690565b6001600160701b038310610ea3576040805162461bcd60e51b815260206004820152601360248201527f56616c7565206f7574206f6620626f756e647300000000000000000000000000604482015290519081900360640190fd5b6001600160a01b038516610efe576040805162461bcd60e51b815260206004820152601560248201527f5f746f206d757374206265206e6f6e2d7a65726f2e0000000000000000000000604482015290519081900360640190fd5b6001600160a01b038616331480610f3d57506001600160a01b038616600090815260056020908152604080832033845290915290205460ff1615156001145b610f785760405162461bcd60e51b815260040180806020018281038252602f8152602001806119e0602f913960400191505060405180910390fd5b610f848686868661108b565b846001600160a01b0316866001600160a01b0316336001600160a01b03167fc3d58168c5ae7397731d063d5bbf3d657854427343f4c083240f7aacaa2d0f628787604051808381526020018281526020019250505060405180910390a4611025338787878787878080601f0160208091040260200160405190810160405280939291908181526020018383808284376000920191909152506113d892505050565b505050505050565b6003546001600160a01b0316331461107b576040805162461bcd60e51b815260206004820152600c60248201526b2737ba1030b71037bbb732b960a11b604482015290519081900360640190fd5b611086838383611565565b505050565b611097848484846115f5565b60009182526004602090815260408084206001600160a01b039687168552909152808320805483900390559290931681522080549091019055565b6110e4846001600160a01b0316611834565b156110255763bc197c8160e01b6001600160e01b031916846001600160a01b031663bc197c8188888787876040518663ffffffff1660e01b815260040180866001600160a01b03168152602001856001600160a01b03168152602001806020018060200180602001848103845287818151815260200191508051906020019060200280838360005b8381101561118457818101518382015260200161116c565b50505050905001848103835286818151815260200191508051906020019060200280838360005b838110156111c35781810151838201526020016111ab565b50505050905001848103825285818151815260200191508051906020019080838360005b838110156111ff5781810151838201526020016111e7565b50505050905090810190601f16801561122c5780820380516001836020036101000a031916815260200191505b5098505050505050505050602060405180830381600087803b15801561125157600080fd5b505af1158015611265573d6000803e3d6000fd5b505050506040513d602081101561127b57600080fd5b50517fffffffff0000000000000000000000000000000000000000000000000000000016146110255760405162461bcd60e51b815260040180806020018281038252603e815260200180611a0f603e913960400191505060405180910390fd5b600082602001516001600160701b031683600001516001600160701b0316111561132d5760408301516020840151845160065461132393929091039063ffffffff168561183a565b835103905061076c565b60408301518351602085015160065461135193929091039063ffffffff168561183a565b835101905061076c565b61136860008585856115f5565b60008381526004602090815260408083206001600160a01b0388168085529083528184208054870190558151878152928301869052815190939233927fc3d58168c5ae7397731d063d5bbf3d657854427343f4c083240f7aacaa2d0f6292918290030190a4610ce9336000868686865b6113ea846001600160a01b0316611834565b156110255763f23a6e6160e01b6001600160e01b031916846001600160a01b031663f23a6e6188888787876040518663ffffffff1660e01b815260040180866001600160a01b03168152602001856001600160a01b0316815260200184815260200183815260200180602001828103825283818151815260200191508051906020019080838360005b8381101561148b578181015183820152602001611473565b50505050905090810190601f1680156114b85780820380516001836020036101000a031916815260200191505b509650505050505050602060405180830381600087803b1580156114db57600080fd5b505af11580156114ef573d6000803e3d6000fd5b505050506040513d602081101561150557600080fd5b50517fffffffff0000000000000000000000000000000000000000000000000000000016146110255760405162461bcd60e51b8152600401808060200182810382526039815260200180611ac86039913960400191505060405180910390fd5b61157283600084846115f5565b60008281526004602090815260408083206001600160a01b0387168085529083528184208054869003905581518681529283018590528151909233927fc3d58168c5ae7397731d063d5bbf3d657854427343f4c083240f7aacaa2d0f6292918290030190a4611086338460008585604051806020016040528060008152506113d8565b426001600160a01b03851615611712576001600160a01b038516600090815260076020908152604091829020825160608101845290546001600160701b038082168352600160701b82041692820192909252600160e01b90910463ffffffff169181019190915261166681836112db565b6001600160701b03908116602083810191825263ffffffff85811660408087019182528651899003861687526001600160a01b038c166000908152600790945290922094518554935192516dffffffffffffffffffffffffffff19909416908516177fffffffff0000000000000000000000000000ffffffffffffffffffffffffffff16600160701b9290941691909102929092176001600160e01b0316600160e01b91909216021790555b6001600160a01b0384161561182d576001600160a01b038416600090815260076020908152604091829020825160608101845290546001600160701b038082168352600160701b82041692820192909252600160e01b90910463ffffffff169181019190915261178281836112db565b6001600160701b03908116602083810191825263ffffffff858116604080870191825286518901861687526001600160a01b038b166000908152600790945290922094518554935192516dffffffffffffffffffffffffffff19909416908516177fffffffff0000000000000000000000000000ffffffffffffffffffffffffffff16600160701b9290941691909102929092176001600160e01b0316600160e01b91909216021790555b5050505050565b3b151590565b60008463ffffffff168263ffffffff16101561189d576040805162461bcd60e51b815260206004820152600e60248201527f496e76616c696420706572696f64000000000000000000000000000000000000604482015290519081900360640190fd5b84820391508263ffffffff168263ffffffff16816118b757fe5b0463ffffffff16846001600160701b0316901c93508263ffffffff168263ffffffff16816118e157fe5b06915063ffffffff821615806118fe57506001600160701b038416155b1561190a575082610c7e565b60006001600160701b0385168163ffffffff86811690861671b17217f7d1cf79abc9e3b39803f2f6af40f3028161193d57fe5b049050600160901b5b82156119825792820192808284028161195b57fe5b0493849003939250600160901b01808284028161197457fe5b049250600160901b01611946565b509197965050505050505056fe455243313135353a2062616c616e636520717565727920666f7220746865207a65726f206164647265737364657374696e6174696f6e2061646472657373206d757374206265206e6f6e2d7a65726f2e4e656564206f70657261746f7220617070726f76616c20666f7220337264207061727479207472616e73666572732e636f6e74726163742072657475726e656420616e20756e6b6e6f776e2076616c75652066726f6d206f6e45524331313535426174636852656365697665645f69647320616e64205f76616c756573206172726179206c656e677468206d757374206d617463682e455243313135353a2073657474696e6720617070726f76616c2073746174757320666f722073656c66455243313135353a206163636f756e747320616e6420696473206c656e677468206d69736d61746368636f6e74726163742072657475726e656420616e20756e6b6e6f776e2076616c75652066726f6d206f6e455243313135355265636569766564a26469706673582212205adb432ae255c934ef22928ed72edcc9161e28b53771c1f2a437a550083588b464736f6c634300070600334f776e61626c653a206e6577206f776e657220697320746865207a65726f2061646472657373416464726573733a20696e73756666696369656e742062616c616e636520666f722063616c6c496e746572657374207061796d656e7420746f6b656e2069732064697361626c6564206f72206e6f7420737570706f727465644f74686572207061796d656e74206f7074696f6e7320617265206e6f7420737570706f72746564207965745361666545524332303a204552433230206f7065726174696f6e20646964206e6f742073756363656564a264697066735822122009951631bf670da9da6d2d75658c9a9593ba8d4ac827249fd5a7c425e4bfc63364736f6c6343000706003360806040523480156200001157600080fd5b506040516200187f3803806200187f833981810160405260808110156200003757600080fd5b8151602083018051604051929492938301929190846401000000008211156200005f57600080fd5b9083019060208201858111156200007557600080fd5b82516401000000008111828201881017156200009057600080fd5b82525081516020918201929091019080838360005b83811015620000bf578181015183820152602001620000a5565b50505050905090810190601f168015620000ed5780820380516001836020036101000a031916815260200191505b50604052602001805160405193929190846401000000008211156200011157600080fd5b9083019060208201858111156200012757600080fd5b82516401000000008111828201881017156200014257600080fd5b82525081516020918201929091019080838360005b838110156200017157818101518382015260200162000157565b50505050905090810190601f1680156200019f5780820380516001836020036101000a031916815260200191505b5060405260200180516040519392919084640100000000821115620001c357600080fd5b908301906020820185811115620001d957600080fd5b8251640100000000811182820188101715620001f457600080fd5b82525081516020918201929091019080838360005b838110156200022357818101518382015260200162000209565b50505050905090810190601f168015620002515780820380516001836020036101000a031916815260200191505b50604052505050828282826000908051906020019062000273929190620002dc565b50815162000289906001906020850190620002dc565b5080516200029f906002906020840190620002dc565b505060038054336001600160a01b031991821617909155600680549091166001600160a01b03979097169690961790955550620003889350505050565b828054600181600116156101000203166002900490600052602060002090601f0160209004810192826200031457600085556200035f565b82601f106200032f57805160ff19168380011785556200035f565b828001600101855582156200035f579182015b828111156200035f57825182559160200191906001019062000342565b506200036d92915062000371565b5090565b5b808211156200036d576000815560010162000372565b6114e780620003986000396000f3fe608060405234801561001057600080fd5b50600436106100e95760003560e01c80637082d2031161008c578063a22cb46511610066578063a22cb46514610504578063e985e9c514610532578063ece6211214610574578063f242432a1461057c576100e9565b80637082d203146104a65780638da5cb5b146104d857806395d89b41146104fc576100e9565b8063156e29f6116100c8578063156e29f6146101c65780632eb2c2d6146101fa5780634e1273f414610327578063679aefce1461049e576100e9565b8062fdd58e146100ee57806306fdde031461012c5780630e89341c146101a9575b600080fd5b61011a6004803603604081101561010457600080fd5b506001600160a01b038135169060200135610611565b60408051918252519081900360200190f35b610134610680565b6040805160208082528351818301528351919283929083019185019080838360005b8381101561016e578181015183820152602001610156565b50505050905090810190601f16801561019b5780820380516001836020036101000a031916815260200191505b509250505060405180910390f35b610134600480360360208110156101bf57600080fd5b503561070e565b6101f8600480360360608110156101dc57600080fd5b506001600160a01b0381351690602081013590604001356107a3565b005b6101f8600480360360a081101561021057600080fd5b6001600160a01b03823581169260208101359091169181019060608101604082013564010000000081111561024457600080fd5b82018360208201111561025657600080fd5b8035906020019184602083028401116401000000008311171561027857600080fd5b91939092909160208101903564010000000081111561029657600080fd5b8201836020820111156102a857600080fd5b803590602001918460208302840111640100000000831117156102ca57600080fd5b9193909290916020810190356401000000008111156102e857600080fd5b8201836020820111156102fa57600080fd5b8035906020019184600183028401116401000000008311171561031c57600080fd5b5090925090506107d3565b61044e6004803603604081101561033d57600080fd5b81019060208101813564010000000081111561035857600080fd5b82018360208201111561036a57600080fd5b8035906020019184602083028401116401000000008311171561038c57600080fd5b91908080602002602001604051908101604052809392919081815260200183836020028082843760009201919091525092959493602081019350359150506401000000008111156103dc57600080fd5b8201836020820111156103ee57600080fd5b8035906020019184602083028401116401000000008311171561041057600080fd5b919080806020026020016040519081016040528093929190818152602001838360200280828437600092019190915250929550610a73945050505050565b60408051602080825283518183015283519192839290830191858101910280838360005b8381101561048a578181015183820152602001610472565b505050509050019250505060405180910390f35b61011a610b5f565b6101f8600480360360608110156104bc57600080fd5b506001600160a01b0381351690602081013590604001356107ce565b6104e0610b64565b604080516001600160a01b039092168252519081900360200190f35b610134610b73565b6101f86004803603604081101561051a57600080fd5b506001600160a01b0381351690602001351515610bcd565b6105606004803603604081101561054857600080fd5b506001600160a01b0381358116916020013516610c83565b604080519115158252519081900360200190f35b6104e0610cb1565b6101f8600480360360a081101561059257600080fd5b6001600160a01b03823581169260208101359091169160408201359160608101359181019060a0810160808201356401000000008111156105d257600080fd5b8201836020820111156105e457600080fd5b8035906020019184600183028401116401000000008311171561060657600080fd5b509092509050610cc0565b60006001600160a01b0383166106585760405162461bcd60e51b815260040180806020018281038252602b815260200180611341602b913960400191505060405180910390fd5b5060009081526004602090815260408083206001600160a01b03949094168352929052205490565b6000805460408051602060026001851615610100026000190190941693909304601f810184900484028201840190925281815292918301828280156107065780601f106106db57610100808354040283529160200191610706565b820191906000526020600020905b8154815290600101906020018083116106e957829003601f168201915b505050505081565b60028054604080516020601f60001961010060018716150201909416859004938401819004810282018101909252828152606093909290918301828280156107975780601f1061076c57610100808354040283529160200191610797565b820191906000526020600020905b81548152906001019060200180831161077a57829003601f168201915b50505050509050919050565b6107ce8383836dffffffffffffffffffffffffffff1660405180602001604052806000815250610eac565b505050565b6001600160a01b0387166108185760405162461bcd60e51b815260040180806020018281038252602581526020018061136c6025913960400191505060405180910390fd5b8483146108565760405162461bcd60e51b81526004018080602001828103825260298152602001806113fe6029913960400191505060405180910390fd5b6001600160a01b03881633148061089557506001600160a01b038816600090815260056020908152604080832033845290915290205460ff1615156001145b6108d05760405162461bcd60e51b815260040180806020018281038252602f815260200180611391602f913960400191505060405180910390fd5b60005b858110156109135761090b89898989858181106108ec57fe5b905060200201358888868181106108ff57fe5b90506020020135610f33565b6001016108d3565b50866001600160a01b0316886001600160a01b0316336001600160a01b03167f4a39dc06d4c0dbc64b70af90fd698a233a518aa5d07e595d983b8c0526c8f7fb898989896040518080602001806020018381038352878782818152602001925060200280828437600083820152601f01601f19169091018481038352858152602090810191508690860280828437600083820152604051601f909101601f19169092018290039850909650505050505050a4610a6933898989898080602002602001604051908101604052809392919081815260200183836020028082843760009201919091525050604080516020808d0282810182019093528c82529093508c92508b91829185019084908082843760009201919091525050604080516020601f8c018190048102820181019092528a815292508a9150899081908401838280828437600092019190915250610f7a92505050565b5050505050505050565b60608151835114610ab55760405162461bcd60e51b81526004018080602001828103825260298152602001806114506029913960400191505060405180910390fd5b6000835167ffffffffffffffff81118015610acf57600080fd5b50604051908082528060200260200182016040528015610af9578160200160208202803683370190505b50905060005b8451811015610b5757610b38858281518110610b1757fe5b6020026020010151858381518110610b2b57fe5b6020026020010151610611565b828281518110610b4457fe5b6020908102919091010152600101610aff565b509392505050565b600090565b6003546001600160a01b031681565b60018054604080516020600284861615610100026000190190941693909304601f810184900484028201840190925281815292918301828280156107065780601f106106db57610100808354040283529160200191610706565b336001600160a01b0383161415610c155760405162461bcd60e51b81526004018080602001828103825260298152602001806114276029913960400191505060405180910390fd5b3360008181526005602090815260408083206001600160a01b03871680855290835292819020805460ff1916861515908117909155815190815290519293927f17307eab39ab6107e8899845ad3d59bd9653f200f220920489ca2b5937696c31929181900390910190a35050565b6001600160a01b03918216600090815260056020908152604080832093909416825291909152205460ff1690565b6006546001600160a01b031681565b6dffffffffffffffffffffffffffff8310610d22576040805162461bcd60e51b815260206004820152601360248201527f56616c7565206f7574206f6620626f756e647300000000000000000000000000604482015290519081900360640190fd5b6001600160a01b038516610d7d576040805162461bcd60e51b815260206004820152601560248201527f5f746f206d757374206265206e6f6e2d7a65726f2e0000000000000000000000604482015290519081900360640190fd5b6001600160a01b038616331480610dbc57506001600160a01b038616600090815260056020908152604080832033845290915290205460ff1615156001145b610df75760405162461bcd60e51b815260040180806020018281038252602f815260200180611391602f913960400191505060405180910390fd5b610e0386868686610f33565b846001600160a01b0316866001600160a01b0316336001600160a01b03167fc3d58168c5ae7397731d063d5bbf3d657854427343f4c083240f7aacaa2d0f628787604051808381526020018281526020019250505060405180910390a4610ea4338787878787878080601f01602080910402602001604051908101604052809392919081815260200183838082843760009201919091525061119892505050565b505050505050565b610eb96000858585610f2d565b60008381526004602090815260408083206001600160a01b0388168085529083528184208054870190558151878152928301869052815190939233927fc3d58168c5ae7397731d063d5bbf3d657854427343f4c083240f7aacaa2d0f6292918290030190a4610f2d33600086868686611198565b50505050565b610f3f84848484610f2d565b60009182526004602090815260408084206001600160a01b039687168552909152808320805483900390559290931681522080549091019055565b610f8c846001600160a01b031661133a565b15610ea45763bc197c8160e01b7bffffffffffffffffffffffffffffffffffffffffffffffffffffffff1916846001600160a01b031663bc197c8188888787876040518663ffffffff1660e01b815260040180866001600160a01b03168152602001856001600160a01b03168152602001806020018060200180602001848103845287818151815260200191508051906020019060200280838360005b83811015611041578181015183820152602001611029565b50505050905001848103835286818151815260200191508051906020019060200280838360005b83811015611080578181015183820152602001611068565b50505050905001848103825285818151815260200191508051906020019080838360005b838110156110bc5781810151838201526020016110a4565b50505050905090810190601f1680156110e95780820380516001836020036101000a031916815260200191505b5098505050505050505050602060405180830381600087803b15801561110e57600080fd5b505af1158015611122573d6000803e3d6000fd5b505050506040513d602081101561113857600080fd5b50517fffffffff000000000000000000000000000000000000000000000000000000001614610ea45760405162461bcd60e51b815260040180806020018281038252603e8152602001806113c0603e913960400191505060405180910390fd5b6111aa846001600160a01b031661133a565b15610ea45763f23a6e6160e01b7bffffffffffffffffffffffffffffffffffffffffffffffffffffffff1916846001600160a01b031663f23a6e6188888787876040518663ffffffff1660e01b815260040180866001600160a01b03168152602001856001600160a01b0316815260200184815260200183815260200180602001828103825283818151815260200191508051906020019080838360005b83811015611260578181015183820152602001611248565b50505050905090810190601f16801561128d5780820380516001836020036101000a031916815260200191505b509650505050505050602060405180830381600087803b1580156112b057600080fd5b505af11580156112c4573d6000803e3d6000fd5b505050506040513d60208110156112da57600080fd5b50517fffffffff000000000000000000000000000000000000000000000000000000001614610ea45760405162461bcd60e51b81526004018080602001828103825260398152602001806114796039913960400191505060405180910390fd5b3b15159056fe455243313135353a2062616c616e636520717565727920666f7220746865207a65726f206164647265737364657374696e6174696f6e2061646472657373206d757374206265206e6f6e2d7a65726f2e4e656564206f70657261746f7220617070726f76616c20666f7220337264207061727479207472616e73666572732e636f6e74726163742072657475726e656420616e20756e6b6e6f776e2076616c75652066726f6d206f6e45524331313535426174636852656365697665645f69647320616e64205f76616c756573206172726179206c656e677468206d757374206d617463682e455243313135353a2073657474696e6720617070726f76616c2073746174757320666f722073656c66455243313135353a206163636f756e747320616e6420696473206c656e677468206d69736d61746368636f6e74726163742072657475726e656420616e20756e6b6e6f776e2076616c75652066726f6d206f6e455243313135355265636569766564a264697066735822122043d6155f08ba10bf713a6b47825981f803b8716ae7ff4966435e8c70088de8df64736f6c63430007060033",
  "linkReferences": {},
  "deployedLinkReferences": {}
}