{
  "_format": "hh-sol-artifact-1",
  "contractName": "DefaultEstimator",
  "sourceName": "contracts/DefaultEstimator.sol",
  "abi": [
    {
      "inputs": [
        {
          "internalType": "contract IPowerToken",
          "name": "powerToken",
          "type": "address"
        },
        {
          "internalType": "uint112",
          "name": "amount",
          "type": "uint112"
        },
        {
          "internalType": "uint32",
          "name": "duration",
          "type": "uint32"
        }
      ],
      "name": "estimateCost",
      "outputs": [
        {
          "internalType": "uint112",
          "name": "",
          "type": "uint112"
        }
      ],
      "stateMutability": "view",
      "type": "function"
    },
    {
      "inputs": [
        {
          "internalType": "contract Enterprise",
          "name": "enterprise",
          "type": "address"
        }
      ],
      "name": "initialize",
      "outputs": [],
      "stateMutability": "nonpayable",
      "type": "function"
    },
    {
      "inputs": [
        {
          "internalType": "contract IPowerToken",
          "name": "powerToken",
          "type": "address"
        }
      ],
      "name": "initializeService",
      "outputs": [],
      "stateMutability": "nonpayable",
      "type": "function"
    },
    {
      "inputs": [
        {
          "internalType": "uint256",
          "name": "tokenId",
          "type": "uint256"
        }
      ],
      "name": "notifyNewLoan",
      "outputs": [],
      "stateMutability": "nonpayable",
      "type": "function"
    },
    {
      "inputs": [
        {
          "internalType": "contract IPowerToken",
          "name": "powerToken",
          "type": "address"
        },
        {
          "internalType": "uint256",
          "name": "lambda",
          "type": "uint256"
        }
      ],
      "name": "setLambda",
      "outputs": [],
      "stateMutability": "nonpayable",
      "type": "function"
    }
  ],
  "bytecode": "0x608060405234801561001057600080fd5b506109ea806100206000396000f3fe608060405234801561001057600080fd5b50600436106100575760003560e01c806319065df41461005c578063508ee32c1461008b5780639994deb2146100a0578063c4d66de8146100b3578063f8642f29146100c6575b600080fd5b61006f61006a36600461083d565b6100d7565b6040516001600160701b03909116815260200160405180910390f35b61009e610099366004610821565b610256565b005b61009e6100ae36600461088f565b610384565b61009e6100c1366004610821565b6104b4565b61009e6100d43660046108d6565b50565b600080546040805163aebb504160e01b8152905183926001600160a01b03169163aebb5041916004808301926020929190829003018186803b15801561011c57600080fd5b505afa158015610130573d6000803e3d6000fd5b505050506040513d601f19601f8201168201806040525081019061015491906108ee565b9050836001600160701b03168111610176576001600160701b0391505061024f565b6000805460405163122b82b760e11b81526001600160a01b03888116600483015290911690632457056e9060240160206040518083038186803b1580156101bc57600080fd5b505afa1580156101d0573d6000803e3d6000fd5b505050506040513d601f19601f820116820180604052508101906101f491906108ba565b6001600160a01b038716600090815260016020526040808220546001600160701b0393841694509263ffffffff8816908590610232908b168661056a565b61023c919061093e565b610246919061093e565b901c9450505050505b9392505050565b6000546001600160a01b03166102a55760405162461bcd60e51b815260206004820152600f60248201526e139bdd081a5b9a5d1a585b1a5e9959608a1b60448201526064015b60405180910390fd5b6000546040516389035b6160e01b81526001600160a01b038381166004830152909116906389035b619060240160206040518083038186803b1580156102ea57600080fd5b505afa1580156102fe573d6000803e3d6000fd5b505050506040513d601f19601f820116820180604052508101906103229190610801565b6103645760405162461bcd60e51b81526020600482015260136024820152722ab735b737bbb7102837bbb2b9102a37b5b2b760691b604482015260640161029c565b6001600160a01b03166000908152600160205260409020600160401b9055565b60008054906101000a90046001600160a01b03166001600160a01b0316638da5cb5b6040518163ffffffff1660e01b815260040160206040518083038186803b1580156103d057600080fd5b505afa1580156103e4573d6000803e3d6000fd5b505050506040513d601f19601f8201168201806040525081019061040891906107e5565b6001600160a01b0316336001600160a01b0316146104575760405162461bcd60e51b815260206004820152600c60248201526b2737ba1030b71037bbb732b960a11b604482015260640161029c565b600081116104985760405162461bcd60e51b815260206004820152600e60248201526d43616e6e6f74206265207a65726f60901b604482015260640161029c565b6001600160a01b03909116600090815260016020526040902055565b6001600160a01b0381166104f95760405162461bcd60e51b815260206004820152600c60248201526b5a65726f206164647265737360a01b604482015260640161029c565b6000546001600160a01b0316156105485760405162461bcd60e51b8152602060048201526013602482015272105b1c9958591e481a5b9a5d1a585b1a5e9959606a1b604482015260640161029c565b600080546001600160a01b0319166001600160a01b0392909216919091179055565b6000805460408051637e59442760e11b8152905183926001600160a01b03169163fcb2884e916004808301926020929190829003018186803b1580156105af57600080fd5b505afa1580156105c3573d6000803e3d6000fd5b505050506040513d601f19601f820116820180604052508101906105e791906108ee565b90506105f38184610618565b6106066106008684610906565b85610618565b610610919061095d565b949350505050565b60008054604080516359bf5d3960e01b8152905183926001600160a01b0316916359bf5d39916004808301926020929190829003018186803b15801561065d57600080fd5b505afa158015610671573d6000803e3d6000fd5b505050506040513d601f19601f8201168201806040525081019061069591906108ee565b905060406106ba6106a6868461095d565b6106b490604085901b61091e565b856106ce565b6106c4908661093e565b901c949350505050565b600060406106db84610706565b6106f7906fffffffffffffffffffffffffffffffff168461093e565b61024f911c600160401b610906565b60008082600f0b1361071757600080fd5b6000600f83900b600160401b8112610731576040918201911d5b6401000000008112610745576020918201911d5b620100008112610757576010918201911d5b6101008112610768576008918201911d5b60108112610778576004918201911d5b60048112610788576002918201911d5b60028112610797576001820191505b603f19820160401b600f85900b607f8490031b6780000000000000005b60008113156107da5790800260ff81901c8281029390930192607f011c9060011d6107b4565b509095945050505050565b6000602082840312156107f6578081fd5b815161024f8161098a565b600060208284031215610812578081fd5b8151801515811461024f578182fd5b600060208284031215610832578081fd5b813561024f8161098a565b600080600060608486031215610851578182fd5b833561085c8161098a565b9250602084013561086c8161099f565b9150604084013563ffffffff81168114610884578182fd5b809150509250925092565b600080604083850312156108a1578182fd5b82356108ac8161098a565b946020939093013593505050565b6000602082840312156108cb578081fd5b815161024f8161099f565b6000602082840312156108e7578081fd5b5035919050565b6000602082840312156108ff578081fd5b5051919050565b6000821982111561091957610919610974565b500190565b60008261093957634e487b7160e01b81526012600452602481fd5b500490565b600081600019048311821515161561095857610958610974565b500290565b60008282101561096f5761096f610974565b500390565b634e487b7160e01b600052601160045260246000fd5b6001600160a01b03811681146100d457600080fd5b6001600160701b03811681146100d457600080fdfea26469706673582212206aa802e929dc94f766b00ba6742a6d460a9a5107e0100eafe0dfb6af059fe15864736f6c63430008040033",
  "linkReferences": {},
  "deployedLinkReferences": {}
}