{
  "_format": "hh-sol-artifact-1",
  "contractName": "DefaultEstimator",
  "sourceName": "contracts/DefaultEstimator.sol",
  "abi": [
    {
      "inputs": [
        {
          "internalType": "contract IPowerToken",
          "name": "powerToken",
          "type": "address"
        },
        {
          "internalType": "uint112",
          "name": "amount",
          "type": "uint112"
        },
        {
          "internalType": "uint32",
          "name": "duration",
          "type": "uint32"
        }
      ],
      "name": "estimateCost",
      "outputs": [
        {
          "internalType": "uint112",
          "name": "",
          "type": "uint112"
        }
      ],
      "stateMutability": "view",
      "type": "function"
    },
    {
      "inputs": [
        {
          "internalType": "contract Enterprise",
          "name": "enterprise",
          "type": "address"
        }
      ],
      "name": "initialize",
      "outputs": [],
      "stateMutability": "nonpayable",
      "type": "function"
    },
    {
      "inputs": [
        {
          "internalType": "contract IPowerToken",
          "name": "powerToken",
          "type": "address"
        }
      ],
      "name": "initializeService",
      "outputs": [],
      "stateMutability": "nonpayable",
      "type": "function"
    },
    {
      "inputs": [
        {
          "internalType": "uint256",
          "name": "tokenId",
          "type": "uint256"
        }
      ],
      "name": "notifyNewLoan",
      "outputs": [],
      "stateMutability": "nonpayable",
      "type": "function"
    },
    {
      "inputs": [
        {
          "internalType": "contract IPowerToken",
          "name": "powerToken",
          "type": "address"
        },
        {
          "internalType": "uint256",
          "name": "lambda",
          "type": "uint256"
        }
      ],
      "name": "setLambda",
      "outputs": [],
      "stateMutability": "nonpayable",
      "type": "function"
    }
  ],
  "bytecode": "0x608060405234801561001057600080fd5b50610fe7806100206000396000f3fe608060405234801561001057600080fd5b50600436106100575760003560e01c806319065df41461005c578063508ee32c1461008b5780639994deb2146100a0578063c4d66de8146100b3578063f8642f29146100c6575b600080fd5b61006f61006a366004610b0a565b6100d7565b6040516001600160701b03909116815260200160405180910390f35b61009e610099366004610aee565b610465565b005b61009e6100ae366004610b54565b61058a565b61009e6100c1366004610aee565b6106af565b61009e6100d4366004610c9d565b50565b600080546040805163aebb504160e01b8152905183926001600160a01b03169163aebb5041916004808301926020929190829003018186803b15801561011c57600080fd5b505afa158015610130573d6000803e3d6000fd5b505050506040513d601f19601f820116820180604052508101906101549190610cb5565b9050836001600160701b03168111610176576001600160701b0391505061045e565b60008054604051630ad2918160e11b81526001600160a01b03909116906315a52302906101a7908990600401610cee565b60006040518083038186803b1580156101bf57600080fd5b505afa1580156101d3573d6000803e3d6000fd5b505050506040513d6000823e601f3d908101601f191682016040526101fb9190810190610b7f565b92505050600081608001516001600160a01b031663313ce5676040518163ffffffff1660e01b815260040160206040518083038186803b15801561023e57600080fd5b505afa158015610252573d6000803e3d6000fd5b505050506040513d601f19601f820116820180604052508101906102769190610ccd565b60008054906101000a90046001600160a01b03166001600160a01b031663644e44df6040518163ffffffff1660e01b815260040160206040518083038186803b1580156102c257600080fd5b505afa1580156102d6573d6000803e3d6000fd5b505050506040513d601f19601f820116820180604052508101906102fa9190610ab8565b6001600160a01b031663313ce5676040518163ffffffff1660e01b815260040160206040518083038186803b15801561033257600080fd5b505afa158015610346573d6000803e3d6000fd5b505050506040513d601f19601f8201168201806040525081019061036a9190610ccd565b6103749190610ea3565b6001600160a01b0388166000908152600160205260408120549192509063ffffffff8716906103ad906001600160701b038a1690610756565b6103b79190610e84565b905060008260000b13156103fa5760406103d283600a610dd9565b84516103e7906001600160701b031684610e84565b6103f19190610d76565b901c9050610458565b60008260000b121561043b57604061041183610f2b565b61041c90600a610dd9565b8451610431906001600160701b031684610e84565b6103f19190610e84565b8251604090610453906001600160701b031683610e84565b901c90505b93505050505b9392505050565b6000546040805180820190915260018152603160f81b6020820152906001600160a01b03166104b05760405162461bcd60e51b81526004016104a79190610d02565b60405180910390fd5b506000546040516389035b6160e01b81526001600160a01b03909116906389035b61906104e1908490600401610cee565b60206040518083038186803b1580156104f957600080fd5b505afa15801561050d573d6000803e3d6000fd5b505050506040513d601f19601f820116820180604052508101906105319190610ad4565b604051806040016040528060018152602001601b60f91b815250906105695760405162461bcd60e51b81526004016104a79190610d02565b506001600160a01b03166000908152600160205260409020600160401b9055565b60008054906101000a90046001600160a01b03166001600160a01b0316638da5cb5b6040518163ffffffff1660e01b815260040160206040518083038186803b1580156105d657600080fd5b505afa1580156105ea573d6000803e3d6000fd5b505050506040513d601f19601f8201168201806040525081019061060e9190610ab8565b6001600160a01b0316336001600160a01b031614604051806040016040528060018152602001603360f81b8152509061065a5760405162461bcd60e51b81526004016104a79190610d02565b50604080518082019091526002815261066760f31b6020820152816106925760405162461bcd60e51b81526004016104a79190610d02565b506001600160a01b03909116600090815260016020526040902055565b604080518082019091526002815261333760f01b60208201526001600160a01b0382166106ef5760405162461bcd60e51b81526004016104a79190610d02565b506000546040805180820190915260018152601960f91b6020820152906001600160a01b0316156107335760405162461bcd60e51b81526004016104a79190610d02565b50600080546001600160a01b0319166001600160a01b0392909216919091179055565b6000805460408051637e59442760e11b8152905183926001600160a01b03169163fcb2884e916004808301926020929190829003018186803b15801561079b57600080fd5b505afa1580156107af573d6000803e3d6000fd5b505050506040513d601f19601f820116820180604052508101906107d39190610cb5565b905060008060009054906101000a90046001600160a01b03166001600160a01b03166359bf5d396040518163ffffffff1660e01b815260040160206040518083038186803b15801561082457600080fd5b505afa158015610838573d6000803e3d6000fd5b505050506040513d601f19601f8201168201806040525081019061085c9190610cb5565b9050610869828583610892565b61087d6108768785610d5e565b8684610892565b6108879190610ee4565b925050505b92915050565b600060406108b76108a38685610ee4565b6108b190604086901b610d76565b856108cb565b6108c19086610e84565b901c949350505050565b600060406108d8846108fa565b6108eb906001600160801b031684610e84565b61045e911c600160401b610d5e565b60008082600f0b1361090b57600080fd5b6000600f83900b600160401b8112610925576040918201911d5b600160201b8112610938576020918201911d5b62010000811261094a576010918201911d5b610100811261095b576008918201911d5b6010811261096b576004918201911d5b6004811261097b576002918201911d5b6002811261098a576001820191505b603f19820160401b600f85900b607f8490031b6001603f1b5b60008113156109c95790800260ff81901c8281029390930192607f011c9060011d6109a3565b509095945050505050565b805180151581146109e457600080fd5b919050565b80516109e481610f75565b600082601f830112610a04578081fd5b81516001600160401b0380821115610a1e57610a1e610f5f565b604051601f8301601f19908116603f01168101908282118183101715610a4657610a46610f5f565b81604052838152866020858801011115610a5e578485fd5b610a6f846020830160208901610efb565b9695505050505050565b80516109e481610f8a565b805161ffff811681146109e457600080fd5b80516109e481610f9f565b80516001600160601b03811681146109e457600080fd5b600060208284031215610ac9578081fd5b815161045e81610f75565b600060208284031215610ae5578081fd5b61045e826109d4565b600060208284031215610aff578081fd5b813561045e81610f75565b600080600060608486031215610b1e578182fd5b8335610b2981610f75565b92506020840135610b3981610f8a565b91506040840135610b4981610f9f565b809150509250925092565b60008060408385031215610b66578182fd5b8235610b7181610f75565b946020939093013593505050565b6000806000838503610160811215610b95578384fd5b84516001600160401b0380821115610bab578586fd5b610bb7888389016109f4565b95506020870151915080821115610bcc578485fd5b50610bd9878288016109f4565b93505061012080603f1983011215610bef578283fd5b610bf7610d35565b9150610c0560408701610a79565b8252610c1360608701610aa1565b6020830152610c2460808701610a96565b6040830152610c3560a08701610a84565b6060830152610c4660c087016109e9565b6080830152610c5760e08701610a96565b60a0830152610100610c6a818801610a96565b60c0840152610c7a828801610a84565b60e0840152610c8c61014088016109d4565b818401525050809150509250925092565b600060208284031215610cae578081fd5b5035919050565b600060208284031215610cc6578081fd5b5051919050565b600060208284031215610cde578081fd5b815160ff8116811461045e578182fd5b6001600160a01b0391909116815260200190565b6020815260008251806020840152610d21816040850160208701610efb565b601f01601f19169190910160400192915050565b60405161012081016001600160401b0381118282101715610d5857610d58610f5f565b60405290565b60008219821115610d7157610d71610f49565b500190565b600082610d9157634e487b7160e01b81526012600452602481fd5b500490565b600181815b80851115610dd1578160001904821115610db757610db7610f49565b80851615610dc457918102915b93841c9390800290610d9b565b509250929050565b600061045e60ff841683600082610df25750600161088c565b81610dff5750600061088c565b8160018114610e155760028114610e1f57610e3b565b600191505061088c565b60ff841115610e3057610e30610f49565b50506001821b61088c565b5060208310610133831016604e8410600b8410161715610e5e575081810a61088c565b610e688383610d96565b8060001904821115610e7c57610e7c610f49565b029392505050565b6000816000190483118215151615610e9e57610e9e610f49565b500290565b600081810b83820b8281128015607f19830184121615610ec557610ec5610f49565b81607f018313811615610eda57610eda610f49565b5090039392505050565b600082821015610ef657610ef6610f49565b500390565b60005b83811015610f16578181015183820152602001610efe565b83811115610f25576000848401525b50505050565b600081810b607f19811415610f4257610f42610f49565b9003919050565b634e487b7160e01b600052601160045260246000fd5b634e487b7160e01b600052604160045260246000fd5b6001600160a01b03811681146100d457600080fd5b6001600160701b03811681146100d457600080fd5b63ffffffff811681146100d457600080fdfea26469706673582212201d4415fd63aef56a3e0bdb5442070e512a65be89ff3d1fdfeac6d129865d10ac64736f6c63430008040033",
  "linkReferences": {},
  "deployedLinkReferences": {}
}