{
  "_format": "hh-sol-artifact-1",
  "contractName": "ERC1155Base",
  "sourceName": "contracts/iq/ERC1155Base.sol",
  "abi": [
    {
      "anonymous": false,
      "inputs": [
        {
          "indexed": true,
          "internalType": "address",
          "name": "_owner",
          "type": "address"
        },
        {
          "indexed": true,
          "internalType": "address",
          "name": "_operator",
          "type": "address"
        },
        {
          "indexed": false,
          "internalType": "bool",
          "name": "_approved",
          "type": "bool"
        }
      ],
      "name": "ApprovalForAll",
      "type": "event"
    },
    {
      "anonymous": false,
      "inputs": [
        {
          "indexed": true,
          "internalType": "address",
          "name": "_operator",
          "type": "address"
        },
        {
          "indexed": true,
          "internalType": "address",
          "name": "_from",
          "type": "address"
        },
        {
          "indexed": true,
          "internalType": "address",
          "name": "_to",
          "type": "address"
        },
        {
          "indexed": false,
          "internalType": "uint256[]",
          "name": "_ids",
          "type": "uint256[]"
        },
        {
          "indexed": false,
          "internalType": "uint256[]",
          "name": "_values",
          "type": "uint256[]"
        }
      ],
      "name": "TransferBatch",
      "type": "event"
    },
    {
      "anonymous": false,
      "inputs": [
        {
          "indexed": true,
          "internalType": "address",
          "name": "_operator",
          "type": "address"
        },
        {
          "indexed": true,
          "internalType": "address",
          "name": "_from",
          "type": "address"
        },
        {
          "indexed": true,
          "internalType": "address",
          "name": "_to",
          "type": "address"
        },
        {
          "indexed": false,
          "internalType": "uint256",
          "name": "_id",
          "type": "uint256"
        },
        {
          "indexed": false,
          "internalType": "uint256",
          "name": "_value",
          "type": "uint256"
        }
      ],
      "name": "TransferSingle",
      "type": "event"
    },
    {
      "anonymous": false,
      "inputs": [
        {
          "indexed": false,
          "internalType": "string",
          "name": "_value",
          "type": "string"
        },
        {
          "indexed": true,
          "internalType": "uint256",
          "name": "_id",
          "type": "uint256"
        }
      ],
      "name": "URI",
      "type": "event"
    },
    {
      "inputs": [
        {
          "internalType": "address",
          "name": "account",
          "type": "address"
        },
        {
          "internalType": "uint256",
          "name": "id",
          "type": "uint256"
        }
      ],
      "name": "balanceOf",
      "outputs": [
        {
          "internalType": "uint256",
          "name": "",
          "type": "uint256"
        }
      ],
      "stateMutability": "view",
      "type": "function"
    },
    {
      "inputs": [
        {
          "internalType": "address[]",
          "name": "accounts",
          "type": "address[]"
        },
        {
          "internalType": "uint256[]",
          "name": "ids",
          "type": "uint256[]"
        }
      ],
      "name": "balanceOfBatch",
      "outputs": [
        {
          "internalType": "uint256[]",
          "name": "",
          "type": "uint256[]"
        }
      ],
      "stateMutability": "view",
      "type": "function"
    },
    {
      "inputs": [
        {
          "internalType": "address",
          "name": "account",
          "type": "address"
        },
        {
          "internalType": "address",
          "name": "operator",
          "type": "address"
        }
      ],
      "name": "isApprovedForAll",
      "outputs": [
        {
          "internalType": "bool",
          "name": "",
          "type": "bool"
        }
      ],
      "stateMutability": "view",
      "type": "function"
    },
    {
      "inputs": [],
      "name": "name",
      "outputs": [
        {
          "internalType": "string",
          "name": "",
          "type": "string"
        }
      ],
      "stateMutability": "view",
      "type": "function"
    },
    {
      "inputs": [],
      "name": "owner",
      "outputs": [
        {
          "internalType": "address",
          "name": "",
          "type": "address"
        }
      ],
      "stateMutability": "view",
      "type": "function"
    },
    {
      "inputs": [
        {
          "internalType": "address",
          "name": "_from",
          "type": "address"
        },
        {
          "internalType": "address",
          "name": "_to",
          "type": "address"
        },
        {
          "internalType": "uint256[]",
          "name": "_ids",
          "type": "uint256[]"
        },
        {
          "internalType": "uint256[]",
          "name": "_values",
          "type": "uint256[]"
        },
        {
          "internalType": "bytes",
          "name": "_data",
          "type": "bytes"
        }
      ],
      "name": "safeBatchTransferFrom",
      "outputs": [],
      "stateMutability": "nonpayable",
      "type": "function"
    },
    {
      "inputs": [
        {
          "internalType": "address",
          "name": "_from",
          "type": "address"
        },
        {
          "internalType": "address",
          "name": "_to",
          "type": "address"
        },
        {
          "internalType": "uint256",
          "name": "_id",
          "type": "uint256"
        },
        {
          "internalType": "uint256",
          "name": "_value",
          "type": "uint256"
        },
        {
          "internalType": "bytes",
          "name": "_data",
          "type": "bytes"
        }
      ],
      "name": "safeTransferFrom",
      "outputs": [],
      "stateMutability": "nonpayable",
      "type": "function"
    },
    {
      "inputs": [
        {
          "internalType": "address",
          "name": "operator",
          "type": "address"
        },
        {
          "internalType": "bool",
          "name": "approved",
          "type": "bool"
        }
      ],
      "name": "setApprovalForAll",
      "outputs": [],
      "stateMutability": "nonpayable",
      "type": "function"
    },
    {
      "inputs": [],
      "name": "symbol",
      "outputs": [
        {
          "internalType": "string",
          "name": "",
          "type": "string"
        }
      ],
      "stateMutability": "view",
      "type": "function"
    },
    {
      "inputs": [
        {
          "internalType": "uint256",
          "name": "",
          "type": "uint256"
        }
      ],
      "name": "uri",
      "outputs": [
        {
          "internalType": "string",
          "name": "",
          "type": "string"
        }
      ],
      "stateMutability": "view",
      "type": "function"
    }
  ],
  "bytecode": "0x608060405234801561001057600080fd5b50611382806100206000396000f3fe608060405234801561001057600080fd5b50600436106100bd5760003560e01c80638da5cb5b11610076578063a22cb4651161005b578063a22cb4651461046c578063e985e9c51461049a578063f242432a146104dc576100bd565b80638da5cb5b1461044057806395d89b4114610464576100bd565b80630e89341c116100a75780630e89341c1461017d5780632eb2c2d61461019a5780634e1273f4146102c9576100bd565b8062fdd58e146100c257806306fdde0314610100575b600080fd5b6100ee600480360360408110156100d857600080fd5b506001600160a01b038135169060200135610571565b60408051918252519081900360200190f35b6101086105e0565b6040805160208082528351818301528351919283929083019185019080838360005b8381101561014257818101518382015260200161012a565b50505050905090810190601f16801561016f5780820380516001836020036101000a031916815260200191505b509250505060405180910390f35b6101086004803603602081101561019357600080fd5b503561066e565b6102c7600480360360a08110156101b057600080fd5b6001600160a01b0382358116926020810135909116918101906060810160408201356401000000008111156101e457600080fd5b8201836020820111156101f657600080fd5b8035906020019184602083028401116401000000008311171561021857600080fd5b91939092909160208101903564010000000081111561023657600080fd5b82018360208201111561024857600080fd5b8035906020019184602083028401116401000000008311171561026a57600080fd5b91939092909160208101903564010000000081111561028857600080fd5b82018360208201111561029a57600080fd5b803590602001918460018302840111640100000000831117156102bc57600080fd5b509092509050610703565b005b6103f0600480360360408110156102df57600080fd5b8101906020810181356401000000008111156102fa57600080fd5b82018360208201111561030c57600080fd5b8035906020019184602083028401116401000000008311171561032e57600080fd5b919080806020026020016040519081016040528093929190818152602001838360200280828437600092019190915250929594936020810193503591505064010000000081111561037e57600080fd5b82018360208201111561039057600080fd5b803590602001918460208302840111640100000000831117156103b257600080fd5b9190808060200260200160405190810160405280939291908181526020018383602002808284376000920191909152509295506109a3945050505050565b60408051602080825283518183015283519192839290830191858101910280838360005b8381101561042c578181015183820152602001610414565b505050509050019250505060405180910390f35b610448610a8f565b604080516001600160a01b039092168252519081900360200190f35b610108610a9e565b6102c76004803603604081101561048257600080fd5b506001600160a01b0381351690602001351515610af8565b6104c8600480360360408110156104b057600080fd5b506001600160a01b0381358116916020013516610bae565b604080519115158252519081900360200190f35b6102c7600480360360a08110156104f257600080fd5b6001600160a01b03823581169260208101359091169160408201359160608101359181019060a08101608082013564010000000081111561053257600080fd5b82018360208201111561054457600080fd5b8035906020019184600183028401116401000000008311171561056657600080fd5b509092509050610bdc565b60006001600160a01b0383166105b85760405162461bcd60e51b815260040180806020018281038252602b8152602001806111dc602b913960400191505060405180910390fd5b5060009081526004602090815260408083206001600160a01b03949094168352929052205490565b6000805460408051602060026001851615610100026000190190941693909304601f810184900484028201840190925281815292918301828280156106665780601f1061063b57610100808354040283529160200191610666565b820191906000526020600020905b81548152906001019060200180831161064957829003601f168201915b505050505081565b60028054604080516020601f60001961010060018716150201909416859004938401819004810282018101909252828152606093909290918301828280156106f75780601f106106cc576101008083540402835291602001916106f7565b820191906000526020600020905b8154815290600101906020018083116106da57829003601f168201915b50505050509050919050565b6001600160a01b0387166107485760405162461bcd60e51b81526004018080602001828103825260258152602001806112076025913960400191505060405180910390fd5b8483146107865760405162461bcd60e51b81526004018080602001828103825260298152602001806112996029913960400191505060405180910390fd5b6001600160a01b0388163314806107c557506001600160a01b038816600090815260056020908152604080832033845290915290205460ff1615156001145b6108005760405162461bcd60e51b815260040180806020018281038252602f81526020018061122c602f913960400191505060405180910390fd5b60005b858110156108435761083b898989898581811061081c57fe5b9050602002013588888681811061082f57fe5b90506020020135610dc8565b600101610803565b50866001600160a01b0316886001600160a01b0316336001600160a01b03167f4a39dc06d4c0dbc64b70af90fd698a233a518aa5d07e595d983b8c0526c8f7fb898989896040518080602001806020018381038352878782818152602001925060200280828437600083820152601f01601f19169091018481038352858152602090810191508690860280828437600083820152604051601f909101601f19169092018290039850909650505050505050a461099933898989898080602002602001604051908101604052809392919081815260200183836020028082843760009201919091525050604080516020808d0282810182019093528c82529093508c92508b91829185019084908082843760009201919091525050604080516020601f8c018190048102820181019092528a815292508a9150899081908401838280828437600092019190915250610e0f92505050565b5050505050505050565b606081518351146109e55760405162461bcd60e51b81526004018080602001828103825260298152602001806112eb6029913960400191505060405180910390fd5b6000835167ffffffffffffffff811180156109ff57600080fd5b50604051908082528060200260200182016040528015610a29578160200160208202803683370190505b50905060005b8451811015610a8757610a68858281518110610a4757fe5b6020026020010151858381518110610a5b57fe5b6020026020010151610571565b828281518110610a7457fe5b6020908102919091010152600101610a2f565b509392505050565b6003546001600160a01b031681565b60018054604080516020600284861615610100026000190190941693909304601f810184900484028201840190925281815292918301828280156106665780601f1061063b57610100808354040283529160200191610666565b336001600160a01b0383161415610b405760405162461bcd60e51b81526004018080602001828103825260298152602001806112c26029913960400191505060405180910390fd5b3360008181526005602090815260408083206001600160a01b03871680855290835292819020805460ff1916861515908117909155815190815290519293927f17307eab39ab6107e8899845ad3d59bd9653f200f220920489ca2b5937696c31929181900390910190a35050565b6001600160a01b03918216600090815260056020908152604080832093909416825291909152205460ff1690565b6dffffffffffffffffffffffffffff8310610c3e576040805162461bcd60e51b815260206004820152601360248201527f56616c7565206f7574206f6620626f756e647300000000000000000000000000604482015290519081900360640190fd5b6001600160a01b038516610c99576040805162461bcd60e51b815260206004820152601560248201527f5f746f206d757374206265206e6f6e2d7a65726f2e0000000000000000000000604482015290519081900360640190fd5b6001600160a01b038616331480610cd857506001600160a01b038616600090815260056020908152604080832033845290915290205460ff1615156001145b610d135760405162461bcd60e51b815260040180806020018281038252602f81526020018061122c602f913960400191505060405180910390fd5b610d1f86868686610dc8565b846001600160a01b0316866001600160a01b0316336001600160a01b03167fc3d58168c5ae7397731d063d5bbf3d657854427343f4c083240f7aacaa2d0f628787604051808381526020018281526020019250505060405180910390a4610dc0338787878787878080601f01602080910402602001604051908101604052809392919081815260200183838082843760009201919091525061102d92505050565b505050505050565b610dd4848484846111cf565b60009182526004602090815260408084206001600160a01b039687168552909152808320805483900390559290931681522080549091019055565b610e21846001600160a01b03166111d5565b15610dc05763bc197c8160e01b7bffffffffffffffffffffffffffffffffffffffffffffffffffffffff1916846001600160a01b031663bc197c8188888787876040518663ffffffff1660e01b815260040180866001600160a01b03168152602001856001600160a01b03168152602001806020018060200180602001848103845287818151815260200191508051906020019060200280838360005b83811015610ed6578181015183820152602001610ebe565b50505050905001848103835286818151815260200191508051906020019060200280838360005b83811015610f15578181015183820152602001610efd565b50505050905001848103825285818151815260200191508051906020019080838360005b83811015610f51578181015183820152602001610f39565b50505050905090810190601f168015610f7e5780820380516001836020036101000a031916815260200191505b5098505050505050505050602060405180830381600087803b158015610fa357600080fd5b505af1158015610fb7573d6000803e3d6000fd5b505050506040513d6020811015610fcd57600080fd5b50517fffffffff000000000000000000000000000000000000000000000000000000001614610dc05760405162461bcd60e51b815260040180806020018281038252603e81526020018061125b603e913960400191505060405180910390fd5b61103f846001600160a01b03166111d5565b15610dc05763f23a6e6160e01b7bffffffffffffffffffffffffffffffffffffffffffffffffffffffff1916846001600160a01b031663f23a6e6188888787876040518663ffffffff1660e01b815260040180866001600160a01b03168152602001856001600160a01b0316815260200184815260200183815260200180602001828103825283818151815260200191508051906020019080838360005b838110156110f55781810151838201526020016110dd565b50505050905090810190601f1680156111225780820380516001836020036101000a031916815260200191505b509650505050505050602060405180830381600087803b15801561114557600080fd5b505af1158015611159573d6000803e3d6000fd5b505050506040513d602081101561116f57600080fd5b50517fffffffff000000000000000000000000000000000000000000000000000000001614610dc05760405162461bcd60e51b81526004018080602001828103825260398152602001806113146039913960400191505060405180910390fd5b50505050565b3b15159056fe455243313135353a2062616c616e636520717565727920666f7220746865207a65726f206164647265737364657374696e6174696f6e2061646472657373206d757374206265206e6f6e2d7a65726f2e4e656564206f70657261746f7220617070726f76616c20666f7220337264207061727479207472616e73666572732e636f6e74726163742072657475726e656420616e20756e6b6e6f776e2076616c75652066726f6d206f6e45524331313535426174636852656365697665645f69647320616e64205f76616c756573206172726179206c656e677468206d757374206d617463682e455243313135353a2073657474696e6720617070726f76616c2073746174757320666f722073656c66455243313135353a206163636f756e747320616e6420696473206c656e677468206d69736d61746368636f6e74726163742072657475726e656420616e20756e6b6e6f776e2076616c75652066726f6d206f6e455243313135355265636569766564a2646970667358221220252f76576db5b1248e868f9a3f361818c026433a58a3b9fc386ccb6f8c29bc1564736f6c63430007060033",
  "linkReferences": {},
  "deployedLinkReferences": {}
}