{
  "_format": "hh-sol-artifact-1",
  "contractName": "ExpMathMock",
  "sourceName": "contracts/mocks/ExpMathMock.sol",
  "abi": [
    {
      "inputs": [],
      "name": "gas",
      "outputs": [
        {
          "internalType": "uint256",
          "name": "",
          "type": "uint256"
        }
      ],
      "stateMutability": "view",
      "type": "function"
    },
    {
      "inputs": [
        {
          "internalType": "uint32",
          "name": "t0",
          "type": "uint32"
        },
        {
          "internalType": "uint112",
          "name": "c0",
          "type": "uint112"
        },
        {
          "internalType": "uint32",
          "name": "t12",
          "type": "uint32"
        },
        {
          "internalType": "uint32",
          "name": "t",
          "type": "uint32"
        }
      ],
      "name": "halfLife",
      "outputs": [
        {
          "internalType": "uint112",
          "name": "",
          "type": "uint112"
        }
      ],
      "stateMutability": "pure",
      "type": "function"
    },
    {
      "inputs": [
        {
          "internalType": "uint32",
          "name": "t0",
          "type": "uint32"
        },
        {
          "internalType": "uint112",
          "name": "c0",
          "type": "uint112"
        },
        {
          "internalType": "uint32",
          "name": "t12",
          "type": "uint32"
        },
        {
          "internalType": "uint32",
          "name": "t",
          "type": "uint32"
        }
      ],
      "name": "measure",
      "outputs": [],
      "stateMutability": "nonpayable",
      "type": "function"
    },
    {
      "inputs": [],
      "name": "result",
      "outputs": [
        {
          "internalType": "uint112",
          "name": "",
          "type": "uint112"
        }
      ],
      "stateMutability": "view",
      "type": "function"
    }
  ],
  "bytecode": "0x608060405234801561001057600080fd5b50610307806100206000396000f3fe608060405234801561001057600080fd5b506004361061004c5760003560e01c806365372147146100515780636ca7c2161461007557806380756ef21461008f5780639d4483a8146100d1575b600080fd5b610059610115565b604080516001600160701b039092168252519081900360200190f35b61007d610124565b60408051918252519081900360200190f35b610059600480360360808110156100a557600080fd5b5063ffffffff81358116916001600160701b03602082013516916040820135811691606001351661012a565b610113600480360360808110156100e757600080fd5b5063ffffffff81358116916001600160701b036020820135169160408201358116916060013516610143565b005b6000546001600160701b031681565b60015481565b60006101388585858561018b565b90505b949350505050565b60005a905060006101568686868661012a565b90505a909103600155600080546dffffffffffffffffffffffffffff19166001600160701b0390921691909117905550505050565b60008463ffffffff168263ffffffff1610156101df576040805162461bcd60e51b815260206004820152600e60248201526d125b9d985b1a59081c195c9a5bd960921b604482015290519081900360640190fd5b84820391508263ffffffff168263ffffffff16816101f957fe5b0463ffffffff16846001600160701b0316901c93508263ffffffff168263ffffffff168161022357fe5b06915063ffffffff8216158061024057506001600160701b038416155b1561024c57508261013b565b60006001600160701b0385168163ffffffff86811690861671b17217f7d1cf79abc9e3b39803f2f6af40f3028161027f57fe5b049050600160901b5b82156102c45792820192808284028161029d57fe5b0493849003939250600160901b0180828402816102b657fe5b049250600160901b01610288565b509197965050505050505056fea26469706673582212203fbcdd66c63afa199cde045af6e5c7d92e818699306f4fbdca2ac0b0f3ab91ef64736f6c63430007060033",
  "linkReferences": {},
  "deployedLinkReferences": {}
}