{
  "_format": "hh-sol-artifact-1",
  "contractName": "ExpMathMock",
  "sourceName": "contracts/mocks/ExpMathMock.sol",
  "abi": [
    {
      "inputs": [],
      "name": "gas",
      "outputs": [
        {
          "internalType": "uint256",
          "name": "",
          "type": "uint256"
        }
      ],
      "stateMutability": "view",
      "type": "function"
    },
    {
      "inputs": [
        {
          "internalType": "uint32",
          "name": "t0",
          "type": "uint32"
        },
        {
          "internalType": "uint112",
          "name": "c0",
          "type": "uint112"
        },
        {
          "internalType": "uint32",
          "name": "t12",
          "type": "uint32"
        },
        {
          "internalType": "uint32",
          "name": "t",
          "type": "uint32"
        }
      ],
      "name": "halfLife",
      "outputs": [
        {
          "internalType": "uint112",
          "name": "",
          "type": "uint112"
        }
      ],
      "stateMutability": "pure",
      "type": "function"
    },
    {
      "inputs": [
        {
          "internalType": "uint32",
          "name": "t0",
          "type": "uint32"
        },
        {
          "internalType": "uint112",
          "name": "c0",
          "type": "uint112"
        },
        {
          "internalType": "uint32",
          "name": "t12",
          "type": "uint32"
        },
        {
          "internalType": "uint32",
          "name": "t",
          "type": "uint32"
        }
      ],
      "name": "measure",
      "outputs": [],
      "stateMutability": "nonpayable",
      "type": "function"
    },
    {
      "inputs": [],
      "name": "result",
      "outputs": [
        {
          "internalType": "uint112",
          "name": "",
          "type": "uint112"
        }
      ],
      "stateMutability": "view",
      "type": "function"
    }
  ],
  "bytecode": "0x608060405234801561001057600080fd5b50610368806100206000396000f3fe608060405234801561001057600080fd5b506004361061004c5760003560e01c806365372147146100515780636ca7c2161461007c57806380756ef2146100965780639d4483a8146100df575b600080fd5b61005961012a565b604080516dffffffffffffffffffffffffffff9092168252519081900360200190f35b610084610140565b60408051918252519081900360200190f35b610059600480360360808110156100ac57600080fd5b5063ffffffff81358116916dffffffffffffffffffffffffffff6020820135169160408201358116916060013516610146565b610128600480360360808110156100f557600080fd5b5063ffffffff81358116916dffffffffffffffffffffffffffff602082013516916040820135811691606001351661015f565b005b6000546dffffffffffffffffffffffffffff1681565b60015481565b6000610154858585856101ae565b90505b949350505050565b60005a9050600061017286868686610146565b90505a909103600155600080546dffffffffffffffffffffffffffff19166dffffffffffffffffffffffffffff90921691909117905550505050565b60008463ffffffff168263ffffffff16101561022b57604080517f08c379a000000000000000000000000000000000000000000000000000000000815260206004820152600e60248201527f496e76616c696420706572696f64000000000000000000000000000000000000604482015290519081900360640190fd5b84820391508263ffffffff168263ffffffff168161024557fe5b0463ffffffff16846dffffffffffffffffffffffffffff16901c93508263ffffffff168263ffffffff168161027657fe5b06915063ffffffff8216158061029a57506dffffffffffffffffffffffffffff8416155b156102a6575082610157565b60006dffffffffffffffffffffffffffff85168163ffffffff86811690861671b17217f7d1cf79abc9e3b39803f2f6af40f302816102e057fe5b049050600160901b5b8215610325579282019280828402816102fe57fe5b0493849003939250600160901b01808284028161031757fe5b049250600160901b016102e9565b509197965050505050505056fea2646970667358221220a460619340b7934cc8497cf18d9264fd7c6fa7840e64a8e79a2983b23e892f8d64736f6c63430007060033",
  "linkReferences": {},
  "deployedLinkReferences": {}
}