{
  "_format": "hh-sol-artifact-1",
  "contractName": "ERC1155",
  "sourceName": "contracts/facets/erc1155/ERC1155.sol",
  "abi": [
    {
      "anonymous": false,
      "inputs": [
        {
          "indexed": true,
          "internalType": "address",
          "name": "_owner",
          "type": "address"
        },
        {
          "indexed": true,
          "internalType": "address",
          "name": "_operator",
          "type": "address"
        },
        {
          "indexed": false,
          "internalType": "bool",
          "name": "_approved",
          "type": "bool"
        }
      ],
      "name": "ApprovalForAll",
      "type": "event"
    },
    {
      "anonymous": false,
      "inputs": [
        {
          "indexed": true,
          "internalType": "address",
          "name": "_operator",
          "type": "address"
        },
        {
          "indexed": true,
          "internalType": "address",
          "name": "_from",
          "type": "address"
        },
        {
          "indexed": true,
          "internalType": "address",
          "name": "_to",
          "type": "address"
        },
        {
          "indexed": false,
          "internalType": "uint256[]",
          "name": "_ids",
          "type": "uint256[]"
        },
        {
          "indexed": false,
          "internalType": "uint256[]",
          "name": "_values",
          "type": "uint256[]"
        }
      ],
      "name": "TransferBatch",
      "type": "event"
    },
    {
      "anonymous": false,
      "inputs": [
        {
          "indexed": true,
          "internalType": "address",
          "name": "_operator",
          "type": "address"
        },
        {
          "indexed": true,
          "internalType": "address",
          "name": "_from",
          "type": "address"
        },
        {
          "indexed": true,
          "internalType": "address",
          "name": "_to",
          "type": "address"
        },
        {
          "indexed": false,
          "internalType": "uint256",
          "name": "_id",
          "type": "uint256"
        },
        {
          "indexed": false,
          "internalType": "uint256",
          "name": "_value",
          "type": "uint256"
        }
      ],
      "name": "TransferSingle",
      "type": "event"
    },
    {
      "anonymous": false,
      "inputs": [
        {
          "indexed": false,
          "internalType": "string",
          "name": "_value",
          "type": "string"
        },
        {
          "indexed": true,
          "internalType": "uint256",
          "name": "_id",
          "type": "uint256"
        }
      ],
      "name": "URI",
      "type": "event"
    },
    {
      "inputs": [
        {
          "internalType": "address",
          "name": "_owner",
          "type": "address"
        },
        {
          "internalType": "uint256",
          "name": "_id",
          "type": "uint256"
        }
      ],
      "name": "balanceOf",
      "outputs": [
        {
          "internalType": "uint256",
          "name": "",
          "type": "uint256"
        }
      ],
      "stateMutability": "view",
      "type": "function"
    },
    {
      "inputs": [
        {
          "internalType": "address[]",
          "name": "_owners",
          "type": "address[]"
        },
        {
          "internalType": "uint256[]",
          "name": "_ids",
          "type": "uint256[]"
        }
      ],
      "name": "balanceOfBatch",
      "outputs": [
        {
          "internalType": "uint256[]",
          "name": "",
          "type": "uint256[]"
        }
      ],
      "stateMutability": "view",
      "type": "function"
    },
    {
      "inputs": [],
      "name": "initialize",
      "outputs": [],
      "stateMutability": "nonpayable",
      "type": "function"
    },
    {
      "inputs": [
        {
          "internalType": "address",
          "name": "_owner",
          "type": "address"
        },
        {
          "internalType": "address",
          "name": "_operator",
          "type": "address"
        }
      ],
      "name": "isApprovedForAll",
      "outputs": [
        {
          "internalType": "bool",
          "name": "",
          "type": "bool"
        }
      ],
      "stateMutability": "view",
      "type": "function"
    },
    {
      "inputs": [
        {
          "internalType": "address",
          "name": "_from",
          "type": "address"
        },
        {
          "internalType": "address",
          "name": "_to",
          "type": "address"
        },
        {
          "internalType": "uint256[]",
          "name": "_ids",
          "type": "uint256[]"
        },
        {
          "internalType": "uint256[]",
          "name": "_values",
          "type": "uint256[]"
        },
        {
          "internalType": "bytes",
          "name": "_data",
          "type": "bytes"
        }
      ],
      "name": "safeBatchTransferFrom",
      "outputs": [],
      "stateMutability": "nonpayable",
      "type": "function"
    },
    {
      "inputs": [
        {
          "internalType": "address",
          "name": "_from",
          "type": "address"
        },
        {
          "internalType": "address",
          "name": "_to",
          "type": "address"
        },
        {
          "internalType": "uint256",
          "name": "_id",
          "type": "uint256"
        },
        {
          "internalType": "uint256",
          "name": "_value",
          "type": "uint256"
        },
        {
          "internalType": "bytes",
          "name": "_data",
          "type": "bytes"
        }
      ],
      "name": "safeTransferFrom",
      "outputs": [],
      "stateMutability": "nonpayable",
      "type": "function"
    },
    {
      "inputs": [
        {
          "internalType": "address",
          "name": "_operator",
          "type": "address"
        },
        {
          "internalType": "bool",
          "name": "_approved",
          "type": "bool"
        }
      ],
      "name": "setApprovalForAll",
      "outputs": [],
      "stateMutability": "nonpayable",
      "type": "function"
    }
  ],
  "bytecode": "0x608060405234801561001057600080fd5b50611138806100206000396000f3fe608060405234801561001057600080fd5b506004361061007c5760003560e01c80638129fc1c1161005b5780638129fc1c14610300578063a22cb46514610308578063e985e9c514610336578063f242432a146103785761007c565b8062fdd58e146100815780632eb2c2d6146100bf5780634e1273f4146101ee575b600080fd5b6100ad6004803603604081101561009757600080fd5b506001600160a01b03813516906020013561040d565b60408051918252519081900360200190f35b6101ec600480360360a08110156100d557600080fd5b6001600160a01b03823581169260208101359091169181019060608101604082013564010000000081111561010957600080fd5b82018360208201111561011b57600080fd5b8035906020019184602083028401116401000000008311171561013d57600080fd5b91939092909160208101903564010000000081111561015b57600080fd5b82018360208201111561016d57600080fd5b8035906020019184602083028401116401000000008311171561018f57600080fd5b9193909290916020810190356401000000008111156101ad57600080fd5b8201836020820111156101bf57600080fd5b803590602001918460018302840111640100000000831117156101e157600080fd5b509092509050610442565b005b6102b06004803603604081101561020457600080fd5b81019060208101813564010000000081111561021f57600080fd5b82018360208201111561023157600080fd5b8035906020019184602083028401116401000000008311171561025357600080fd5b91939092909160208101903564010000000081111561027157600080fd5b82018360208201111561028357600080fd5b803590602001918460208302840111640100000000831117156102a557600080fd5b5090925090506107fe565b60408051602080825283518183015283519192839290830191858101910280838360005b838110156102ec5781810151838201526020016102d4565b505050509050019250505060405180910390f35b6101ec6108f6565b6101ec6004803603604081101561031e57600080fd5b506001600160a01b0381351690602001351515610940565b6103646004803603604081101561034c57600080fd5b506001600160a01b03813581169160200135166109bc565b604080519115158252519081900360200190f35b6101ec600480360360a081101561038e57600080fd5b6001600160a01b03823581169260208101359091169160408201359160608101359181019060a0810160808201356401000000008111156103ce57600080fd5b8201836020820111156103e057600080fd5b8035906020019184600183028401116401000000008311171561040257600080fd5b5090925090506109fb565b600080610418610c07565b6000848152602091825260408082206001600160a01b038816835290925220549150505b92915050565b600061044c610c07565b90506001600160a01b0388166104935760405162461bcd60e51b815260040180806020018281038252602581526020018061100f6025913960400191505060405180910390fd5b8584146104d15760405162461bcd60e51b81526004018080602001828103825260298152602001806110a16029913960400191505060405180910390fd5b6001600160a01b03891633148061051257506001600160a01b03891660009081526001808301602090815260408084203385529091529091205460ff161515145b61054d5760405162461bcd60e51b815260040180806020018281038252602f815260200180611034602f913960400191505060405180910390fd5b60005b8681101561068657600088888381811061056657fe5b905060200201359050600087878481811061057d57fe5b9050602002013590506105d18185600001600085815260200190815260200160002060008f6001600160a01b03166001600160a01b0316815260200190815260200160002054610c2b90919063ffffffff16565b84600001600084815260200190815260200160002060008e6001600160a01b03166001600160a01b031681526020019081526020016000208190555061065884600001600084815260200190815260200160002060008d6001600160a01b03166001600160a01b031681526020019081526020016000205482610c3d90919063ffffffff16565b6000928352602085815260408085206001600160a01b038f1686529091529092209190915550600101610550565b50876001600160a01b0316896001600160a01b0316336001600160a01b03167f4a39dc06d4c0dbc64b70af90fd698a233a518aa5d07e595d983b8c0526c8f7fb8a8a8a8a6040518080602001806020018381038352878782818152602001925060200280828437600083820152601f01601f19169091018481038352858152602090810191508690860280828437600083820152604051601f909101601f19169092018290039850909650505050505050a461074a886001600160a01b0316610c4a565b156107f3576107f3338a8a8a8a8080602002602001604051908101604052809392919081815260200183836020028082843760009201919091525050604080516020808e0282810182019093528d82529093508d92508c91829185019084908082843760009201919091525050604080516020601f8d018190048102820181019092528b815292508b91508a9081908401838280828437600092019190915250610c5092505050565b505050505050505050565b6060600061080a610c07565b905084831461081857600080fd5b60008567ffffffffffffffff8111801561083157600080fd5b5060405190808252806020026020018201604052801561085b578160200160208202803683370190505b50905060005b868110156108eb5782600087878481811061087857fe5b905060200201358152602001908152602001600020600089898481811061089b57fe5b905060200201356001600160a01b03166001600160a01b03166001600160a01b03168152602001908152602001600020548282815181106108d857fe5b6020908102919091010152600101610861565b509695505050505050565b6000610900610e5f565b7fd9b67a26000000000000000000000000000000000000000000000000000000006000908152600390910160205260409020805460ff1916600117905550565b600061094a610c07565b33600081815260018301602090815260408083206001600160a01b03891680855290835292819020805460ff19168815159081179091558151908152905194955091937f17307eab39ab6107e8899845ad3d59bd9653f200f220920489ca2b5937696c319281900390910190a3505050565b6000806109c7610c07565b6001600160a01b03948516600090815260019190910160209081526040808320959096168252939093525050205460ff1690565b6000610a05610c07565b90506001600160a01b038616610a62576040805162461bcd60e51b815260206004820152601560248201527f5f746f206d757374206265206e6f6e2d7a65726f2e0000000000000000000000604482015290519081900360640190fd5b6001600160a01b038716331480610aa357506001600160a01b03871660009081526001808301602090815260408084203385529091529091205460ff161515145b610ade5760405162461bcd60e51b815260040180806020018281038252602f815260200180611034602f913960400191505060405180910390fd5b6000858152602082815260408083206001600160a01b038b168452909152902054610b099085610c2b565b6000868152602083815260408083206001600160a01b038c81168552925280832093909355881681522054610b3f908590610c3d565b6000868152602083815260408083206001600160a01b03808c16808652918452938290209490945580518981529182018890528051928b169233927fc3d58168c5ae7397731d063d5bbf3d657854427343f4c083240f7aacaa2d0f6292908290030190a4610bb5866001600160a01b0316610c4a565b15610bfe57610bfe338888888888888080601f016020809104026020016040519081016040528093929190818152602001838380828437600092019190915250610e8392505050565b50505050505050565b7f27b80c39eaec9c44143bb86545037fefe1bfed0d54fd275b14504f734e7cfd3790565b600082821115610c3757fe5b50900390565b8181018281101561043c57fe5b3b151590565b63bc197c8160e01b7bffffffffffffffffffffffffffffffffffffffffffffffffffffffff1916846001600160a01b031663bc197c8188888787876040518663ffffffff1660e01b815260040180866001600160a01b03168152602001856001600160a01b03168152602001806020018060200180602001848103845287818151815260200191508051906020019060200280838360005b83811015610d00578181015183820152602001610ce8565b50505050905001848103835286818151815260200191508051906020019060200280838360005b83811015610d3f578181015183820152602001610d27565b50505050905001848103825285818151815260200191508051906020019080838360005b83811015610d7b578181015183820152602001610d63565b50505050905090810190601f168015610da85780820380516001836020036101000a031916815260200191505b5098505050505050505050602060405180830381600087803b158015610dcd57600080fd5b505af1158015610de1573d6000803e3d6000fd5b505050506040513d6020811015610df757600080fd5b50517fffffffff000000000000000000000000000000000000000000000000000000001614610e575760405162461bcd60e51b815260040180806020018281038252603e815260200180611063603e913960400191505060405180910390fd5b505050505050565b7fc8fcad8db84d3cc18b4c41d551ea0ee66dd599cde068d998e57d5e09332c131c90565b63f23a6e6160e01b7bffffffffffffffffffffffffffffffffffffffffffffffffffffffff1916846001600160a01b031663f23a6e6188888787876040518663ffffffff1660e01b815260040180866001600160a01b03168152602001856001600160a01b0316815260200184815260200183815260200180602001828103825283818151815260200191508051906020019080838360005b83811015610f34578181015183820152602001610f1c565b50505050905090810190601f168015610f615780820380516001836020036101000a031916815260200191505b509650505050505050602060405180830381600087803b158015610f8457600080fd5b505af1158015610f98573d6000803e3d6000fd5b505050506040513d6020811015610fae57600080fd5b50517fffffffff000000000000000000000000000000000000000000000000000000001614610e575760405162461bcd60e51b81526004018080602001828103825260398152602001806110ca6039913960400191505060405180910390fdfe64657374696e6174696f6e2061646472657373206d757374206265206e6f6e2d7a65726f2e4e656564206f70657261746f7220617070726f76616c20666f7220337264207061727479207472616e73666572732e636f6e74726163742072657475726e656420616e20756e6b6e6f776e2076616c75652066726f6d206f6e45524331313535426174636852656365697665645f69647320616e64205f76616c756573206172726179206c656e677468206d757374206d617463682e636f6e74726163742072657475726e656420616e20756e6b6e6f776e2076616c75652066726f6d206f6e455243313135355265636569766564a2646970667358221220882fae57445f4ec1072d40d83bad3b04dec63e5c1f4aac1d968e641c6415879464736f6c63430007060033",
  "linkReferences": {},
  "deployedLinkReferences": {}
}