{
  "_format": "hh-sol-artifact-1",
  "contractName": "ERC1155",
  "sourceName": "contracts/facets/erc1155/ERC1155.sol",
  "abi": [
    {
      "anonymous": false,
      "inputs": [
        {
          "indexed": true,
          "internalType": "address",
          "name": "_owner",
          "type": "address"
        },
        {
          "indexed": true,
          "internalType": "address",
          "name": "_operator",
          "type": "address"
        },
        {
          "indexed": false,
          "internalType": "bool",
          "name": "_approved",
          "type": "bool"
        }
      ],
      "name": "ApprovalForAll",
      "type": "event"
    },
    {
      "anonymous": false,
      "inputs": [
        {
          "indexed": true,
          "internalType": "address",
          "name": "_operator",
          "type": "address"
        },
        {
          "indexed": true,
          "internalType": "address",
          "name": "_from",
          "type": "address"
        },
        {
          "indexed": true,
          "internalType": "address",
          "name": "_to",
          "type": "address"
        },
        {
          "indexed": false,
          "internalType": "uint256[]",
          "name": "_ids",
          "type": "uint256[]"
        },
        {
          "indexed": false,
          "internalType": "uint256[]",
          "name": "_values",
          "type": "uint256[]"
        }
      ],
      "name": "TransferBatch",
      "type": "event"
    },
    {
      "anonymous": false,
      "inputs": [
        {
          "indexed": true,
          "internalType": "address",
          "name": "_operator",
          "type": "address"
        },
        {
          "indexed": true,
          "internalType": "address",
          "name": "_from",
          "type": "address"
        },
        {
          "indexed": true,
          "internalType": "address",
          "name": "_to",
          "type": "address"
        },
        {
          "indexed": false,
          "internalType": "uint256",
          "name": "_id",
          "type": "uint256"
        },
        {
          "indexed": false,
          "internalType": "uint256",
          "name": "_value",
          "type": "uint256"
        }
      ],
      "name": "TransferSingle",
      "type": "event"
    },
    {
      "anonymous": false,
      "inputs": [
        {
          "indexed": false,
          "internalType": "string",
          "name": "_value",
          "type": "string"
        },
        {
          "indexed": true,
          "internalType": "uint256",
          "name": "_id",
          "type": "uint256"
        }
      ],
      "name": "URI",
      "type": "event"
    },
    {
      "inputs": [
        {
          "internalType": "address",
          "name": "_owner",
          "type": "address"
        },
        {
          "internalType": "uint256",
          "name": "_id",
          "type": "uint256"
        }
      ],
      "name": "balanceOf",
      "outputs": [
        {
          "internalType": "uint256",
          "name": "",
          "type": "uint256"
        }
      ],
      "stateMutability": "view",
      "type": "function"
    },
    {
      "inputs": [
        {
          "internalType": "address[]",
          "name": "_owners",
          "type": "address[]"
        },
        {
          "internalType": "uint256[]",
          "name": "_ids",
          "type": "uint256[]"
        }
      ],
      "name": "balanceOfBatch",
      "outputs": [
        {
          "internalType": "uint256[]",
          "name": "",
          "type": "uint256[]"
        }
      ],
      "stateMutability": "view",
      "type": "function"
    },
    {
      "inputs": [],
      "name": "initialize",
      "outputs": [],
      "stateMutability": "nonpayable",
      "type": "function"
    },
    {
      "inputs": [
        {
          "internalType": "address",
          "name": "_owner",
          "type": "address"
        },
        {
          "internalType": "address",
          "name": "_operator",
          "type": "address"
        }
      ],
      "name": "isApprovedForAll",
      "outputs": [
        {
          "internalType": "bool",
          "name": "",
          "type": "bool"
        }
      ],
      "stateMutability": "view",
      "type": "function"
    },
    {
      "inputs": [
        {
          "internalType": "address",
          "name": "_from",
          "type": "address"
        },
        {
          "internalType": "address",
          "name": "_to",
          "type": "address"
        },
        {
          "internalType": "uint256[]",
          "name": "_ids",
          "type": "uint256[]"
        },
        {
          "internalType": "uint256[]",
          "name": "_values",
          "type": "uint256[]"
        },
        {
          "internalType": "bytes",
          "name": "_data",
          "type": "bytes"
        }
      ],
      "name": "safeBatchTransferFrom",
      "outputs": [],
      "stateMutability": "nonpayable",
      "type": "function"
    },
    {
      "inputs": [
        {
          "internalType": "address",
          "name": "_from",
          "type": "address"
        },
        {
          "internalType": "address",
          "name": "_to",
          "type": "address"
        },
        {
          "internalType": "uint256",
          "name": "_id",
          "type": "uint256"
        },
        {
          "internalType": "uint256",
          "name": "_value",
          "type": "uint256"
        },
        {
          "internalType": "bytes",
          "name": "_data",
          "type": "bytes"
        }
      ],
      "name": "safeTransferFrom",
      "outputs": [],
      "stateMutability": "nonpayable",
      "type": "function"
    },
    {
      "inputs": [
        {
          "internalType": "address",
          "name": "_operator",
          "type": "address"
        },
        {
          "internalType": "bool",
          "name": "_approved",
          "type": "bool"
        }
      ],
      "name": "setApprovalForAll",
      "outputs": [],
      "stateMutability": "nonpayable",
      "type": "function"
    }
  ],
  "bytecode": "0x608060405234801561001057600080fd5b506110b1806100206000396000f3fe608060405234801561001057600080fd5b506004361061007c5760003560e01c80638129fc1c1161005b5780638129fc1c146102f6578063a22cb465146102fe578063e985e9c51461032c578063f242432a1461036e5761007c565b8062fdd58e146100815780632eb2c2d6146100bf5780634e1273f4146101e8575b600080fd5b6100ad6004803603604081101561009757600080fd5b506001600160a01b038135169060200135610401565b60408051918252519081900360200190f35b6101e6600480360360a08110156100d557600080fd5b6001600160a01b038235811692602081013590911691810190606081016040820135600160201b81111561010857600080fd5b82018360208201111561011a57600080fd5b803590602001918460208302840111600160201b8311171561013b57600080fd5b919390929091602081019035600160201b81111561015857600080fd5b82018360208201111561016a57600080fd5b803590602001918460208302840111600160201b8311171561018b57600080fd5b919390929091602081019035600160201b8111156101a857600080fd5b8201836020820111156101ba57600080fd5b803590602001918460018302840111600160201b831117156101db57600080fd5b509092509050610436565b005b6102a6600480360360408110156101fe57600080fd5b810190602081018135600160201b81111561021857600080fd5b82018360208201111561022a57600080fd5b803590602001918460208302840111600160201b8311171561024b57600080fd5b919390929091602081019035600160201b81111561026857600080fd5b82018360208201111561027a57600080fd5b803590602001918460208302840111600160201b8311171561029b57600080fd5b5090925090506107f2565b60408051602080825283518183015283519192839290830191858101910280838360005b838110156102e25781810151838201526020016102ca565b505050509050019250505060405180910390f35b6101e66108ea565b6101e66004803603604081101561031457600080fd5b506001600160a01b038135169060200135151561091b565b61035a6004803603604081101561034257600080fd5b506001600160a01b0381358116916020013516610997565b604080519115158252519081900360200190f35b6101e6600480360360a081101561038457600080fd5b6001600160a01b03823581169260208101359091169160408201359160608101359181019060a081016080820135600160201b8111156103c357600080fd5b8201836020820111156103d557600080fd5b803590602001918460018302840111600160201b831117156103f657600080fd5b5090925090506109d6565b60008061040c610bda565b6000848152602091825260408082206001600160a01b038816835290925220549150505b92915050565b6000610440610bda565b90506001600160a01b0388166104875760405162461bcd60e51b8152600401808060200182810382526025815260200180610f886025913960400191505060405180910390fd5b8584146104c55760405162461bcd60e51b815260040180806020018281038252602981526020018061101a6029913960400191505060405180910390fd5b6001600160a01b03891633148061050657506001600160a01b03891660009081526001808301602090815260408084203385529091529091205460ff161515145b6105415760405162461bcd60e51b815260040180806020018281038252602f815260200180610fad602f913960400191505060405180910390fd5b60005b8681101561067a57600088888381811061055a57fe5b905060200201359050600087878481811061057157fe5b9050602002013590506105c58185600001600085815260200190815260200160002060008f6001600160a01b03166001600160a01b0316815260200190815260200160002054610bfe90919063ffffffff16565b84600001600084815260200190815260200160002060008e6001600160a01b03166001600160a01b031681526020019081526020016000208190555061064c84600001600084815260200190815260200160002060008d6001600160a01b03166001600160a01b031681526020019081526020016000205482610c1090919063ffffffff16565b6000928352602085815260408085206001600160a01b038f1686529091529092209190915550600101610544565b50876001600160a01b0316896001600160a01b0316336001600160a01b03167f4a39dc06d4c0dbc64b70af90fd698a233a518aa5d07e595d983b8c0526c8f7fb8a8a8a8a6040518080602001806020018381038352878782818152602001925060200280828437600083820152601f01601f19169091018481038352858152602090810191508690860280828437600083820152604051601f909101601f19169092018290039850909650505050505050a461073e886001600160a01b0316610c1d565b156107e7576107e7338a8a8a8a8080602002602001604051908101604052809392919081815260200183836020028082843760009201919091525050604080516020808e0282810182019093528d82529093508d92508c91829185019084908082843760009201919091525050604080516020601f8d018190048102820181019092528b815292508b91508a9081908401838280828437600092019190915250610c2392505050565b505050505050505050565b606060006107fe610bda565b905084831461080c57600080fd5b60008567ffffffffffffffff8111801561082557600080fd5b5060405190808252806020026020018201604052801561084f578160200160208202803683370190505b50905060005b868110156108df5782600087878481811061086c57fe5b905060200201358152602001908152602001600020600089898481811061088f57fe5b905060200201356001600160a01b03166001600160a01b03166001600160a01b03168152602001908152602001600020548282815181106108cc57fe5b6020908102919091010152600101610855565b509695505050505050565b60006108f4610e05565b636cdb3d1360e11b6000908152600390910160205260409020805460ff1916600117905550565b6000610925610bda565b33600081815260018301602090815260408083206001600160a01b03891680855290835292819020805460ff19168815159081179091558151908152905194955091937f17307eab39ab6107e8899845ad3d59bd9653f200f220920489ca2b5937696c319281900390910190a3505050565b6000806109a2610bda565b6001600160a01b03948516600090815260019190910160209081526040808320959096168252939093525050205460ff1690565b60006109e0610bda565b90506001600160a01b038616610a35576040805162461bcd60e51b81526020600482015260156024820152742fba379036bab9ba103132903737b716bd32b9379760591b604482015290519081900360640190fd5b6001600160a01b038716331480610a7657506001600160a01b03871660009081526001808301602090815260408084203385529091529091205460ff161515145b610ab15760405162461bcd60e51b815260040180806020018281038252602f815260200180610fad602f913960400191505060405180910390fd5b6000858152602082815260408083206001600160a01b038b168452909152902054610adc9085610bfe565b6000868152602083815260408083206001600160a01b038c81168552925280832093909355881681522054610b12908590610c10565b6000868152602083815260408083206001600160a01b03808c16808652918452938290209490945580518981529182018890528051928b169233927fc3d58168c5ae7397731d063d5bbf3d657854427343f4c083240f7aacaa2d0f6292908290030190a4610b88866001600160a01b0316610c1d565b15610bd157610bd1338888888888888080601f016020809104026020016040519081016040528093929190818152602001838380828437600092019190915250610e2992505050565b50505050505050565b7f27b80c39eaec9c44143bb86545037fefe1bfed0d54fd275b14504f734e7cfd3790565b600082821115610c0a57fe5b50900390565b8181018281101561043057fe5b3b151590565b63bc197c8160e01b6001600160e01b031916846001600160a01b031663bc197c8188888787876040518663ffffffff1660e01b815260040180866001600160a01b03168152602001856001600160a01b03168152602001806020018060200180602001848103845287818151815260200191508051906020019060200280838360005b83811015610cbe578181015183820152602001610ca6565b50505050905001848103835286818151815260200191508051906020019060200280838360005b83811015610cfd578181015183820152602001610ce5565b50505050905001848103825285818151815260200191508051906020019080838360005b83811015610d39578181015183820152602001610d21565b50505050905090810190601f168015610d665780820380516001836020036101000a031916815260200191505b5098505050505050505050602060405180830381600087803b158015610d8b57600080fd5b505af1158015610d9f573d6000803e3d6000fd5b505050506040513d6020811015610db557600080fd5b50516001600160e01b03191614610dfd5760405162461bcd60e51b815260040180806020018281038252603e815260200180610fdc603e913960400191505060405180910390fd5b505050505050565b7fc8fcad8db84d3cc18b4c41d551ea0ee66dd599cde068d998e57d5e09332c131c90565b63f23a6e6160e01b6001600160e01b031916846001600160a01b031663f23a6e6188888787876040518663ffffffff1660e01b815260040180866001600160a01b03168152602001856001600160a01b0316815260200184815260200183815260200180602001828103825283818151815260200191508051906020019080838360005b83811015610ec5578181015183820152602001610ead565b50505050905090810190601f168015610ef25780820380516001836020036101000a031916815260200191505b509650505050505050602060405180830381600087803b158015610f1557600080fd5b505af1158015610f29573d6000803e3d6000fd5b505050506040513d6020811015610f3f57600080fd5b50516001600160e01b03191614610dfd5760405162461bcd60e51b81526004018080602001828103825260398152602001806110436039913960400191505060405180910390fdfe64657374696e6174696f6e2061646472657373206d757374206265206e6f6e2d7a65726f2e4e656564206f70657261746f7220617070726f76616c20666f7220337264207061727479207472616e73666572732e636f6e74726163742072657475726e656420616e20756e6b6e6f776e2076616c75652066726f6d206f6e45524331313535426174636852656365697665645f69647320616e64205f76616c756573206172726179206c656e677468206d757374206d617463682e636f6e74726163742072657475726e656420616e20756e6b6e6f776e2076616c75652066726f6d206f6e455243313135355265636569766564a26469706673582212207902eafdbb1463e4ca02658f662819ff73e3e8035f97fa6b799b2a90a70dcb0364736f6c63430007060033",
  "linkReferences": {},
  "deployedLinkReferences": {}
}