{
  "_format": "hh-sol-artifact-1",
  "contractName": "InterestToken",
  "sourceName": "contracts/InterestToken.sol",
  "abi": [
    {
      "anonymous": false,
      "inputs": [
        {
          "indexed": true,
          "internalType": "address",
          "name": "owner",
          "type": "address"
        },
        {
          "indexed": true,
          "internalType": "address",
          "name": "spender",
          "type": "address"
        },
        {
          "indexed": false,
          "internalType": "uint256",
          "name": "value",
          "type": "uint256"
        }
      ],
      "name": "Approval",
      "type": "event"
    },
    {
      "anonymous": false,
      "inputs": [
        {
          "indexed": true,
          "internalType": "address",
          "name": "previousOwner",
          "type": "address"
        },
        {
          "indexed": true,
          "internalType": "address",
          "name": "newOwner",
          "type": "address"
        }
      ],
      "name": "OwnershipTransferred",
      "type": "event"
    },
    {
      "anonymous": false,
      "inputs": [
        {
          "indexed": true,
          "internalType": "address",
          "name": "from",
          "type": "address"
        },
        {
          "indexed": true,
          "internalType": "address",
          "name": "to",
          "type": "address"
        },
        {
          "indexed": false,
          "internalType": "uint256",
          "name": "value",
          "type": "uint256"
        }
      ],
      "name": "Transfer",
      "type": "event"
    },
    {
      "inputs": [],
      "name": "DOMAIN_SEPARATOR",
      "outputs": [
        {
          "internalType": "bytes32",
          "name": "",
          "type": "bytes32"
        }
      ],
      "stateMutability": "view",
      "type": "function"
    },
    {
      "inputs": [],
      "name": "PERMIT_TYPEHASH",
      "outputs": [
        {
          "internalType": "bytes32",
          "name": "",
          "type": "bytes32"
        }
      ],
      "stateMutability": "view",
      "type": "function"
    },
    {
      "inputs": [
        {
          "internalType": "address",
          "name": "owner",
          "type": "address"
        },
        {
          "internalType": "address",
          "name": "spender",
          "type": "address"
        }
      ],
      "name": "allowance",
      "outputs": [
        {
          "internalType": "uint256",
          "name": "",
          "type": "uint256"
        }
      ],
      "stateMutability": "view",
      "type": "function"
    },
    {
      "inputs": [
        {
          "internalType": "address",
          "name": "spender",
          "type": "address"
        },
        {
          "internalType": "uint256",
          "name": "amount",
          "type": "uint256"
        }
      ],
      "name": "approve",
      "outputs": [
        {
          "internalType": "bool",
          "name": "",
          "type": "bool"
        }
      ],
      "stateMutability": "nonpayable",
      "type": "function"
    },
    {
      "inputs": [
        {
          "internalType": "address",
          "name": "account",
          "type": "address"
        }
      ],
      "name": "balanceOf",
      "outputs": [
        {
          "internalType": "uint256",
          "name": "",
          "type": "uint256"
        }
      ],
      "stateMutability": "view",
      "type": "function"
    },
    {
      "inputs": [
        {
          "internalType": "address",
          "name": "account",
          "type": "address"
        },
        {
          "internalType": "uint256",
          "name": "amount",
          "type": "uint256"
        }
      ],
      "name": "burnFrom",
      "outputs": [],
      "stateMutability": "nonpayable",
      "type": "function"
    },
    {
      "inputs": [],
      "name": "decimals",
      "outputs": [
        {
          "internalType": "uint8",
          "name": "",
          "type": "uint8"
        }
      ],
      "stateMutability": "pure",
      "type": "function"
    },
    {
      "inputs": [
        {
          "internalType": "address",
          "name": "spender",
          "type": "address"
        },
        {
          "internalType": "uint256",
          "name": "subtractedValue",
          "type": "uint256"
        }
      ],
      "name": "decreaseAllowance",
      "outputs": [
        {
          "internalType": "bool",
          "name": "",
          "type": "bool"
        }
      ],
      "stateMutability": "nonpayable",
      "type": "function"
    },
    {
      "inputs": [
        {
          "internalType": "address",
          "name": "spender",
          "type": "address"
        },
        {
          "internalType": "uint256",
          "name": "addedValue",
          "type": "uint256"
        }
      ],
      "name": "increaseAllowance",
      "outputs": [
        {
          "internalType": "bool",
          "name": "",
          "type": "bool"
        }
      ],
      "stateMutability": "nonpayable",
      "type": "function"
    },
    {
      "inputs": [
        {
          "internalType": "string",
          "name": "name_",
          "type": "string"
        },
        {
          "internalType": "string",
          "name": "symbol_",
          "type": "string"
        }
      ],
      "name": "initialize",
      "outputs": [],
      "stateMutability": "nonpayable",
      "type": "function"
    },
    {
      "inputs": [
        {
          "internalType": "address",
          "name": "initialOwner",
          "type": "address"
        }
      ],
      "name": "initialize",
      "outputs": [],
      "stateMutability": "nonpayable",
      "type": "function"
    },
    {
      "inputs": [
        {
          "internalType": "address",
          "name": "to",
          "type": "address"
        },
        {
          "internalType": "uint256",
          "name": "amount",
          "type": "uint256"
        }
      ],
      "name": "mint",
      "outputs": [],
      "stateMutability": "nonpayable",
      "type": "function"
    },
    {
      "inputs": [],
      "name": "name",
      "outputs": [
        {
          "internalType": "string",
          "name": "",
          "type": "string"
        }
      ],
      "stateMutability": "view",
      "type": "function"
    },
    {
      "inputs": [
        {
          "internalType": "address",
          "name": "",
          "type": "address"
        }
      ],
      "name": "nonces",
      "outputs": [
        {
          "internalType": "uint256",
          "name": "",
          "type": "uint256"
        }
      ],
      "stateMutability": "view",
      "type": "function"
    },
    {
      "inputs": [],
      "name": "owner",
      "outputs": [
        {
          "internalType": "address",
          "name": "",
          "type": "address"
        }
      ],
      "stateMutability": "view",
      "type": "function"
    },
    {
      "inputs": [
        {
          "internalType": "address",
          "name": "owner",
          "type": "address"
        },
        {
          "internalType": "address",
          "name": "spender",
          "type": "address"
        },
        {
          "internalType": "uint256",
          "name": "value",
          "type": "uint256"
        },
        {
          "internalType": "uint256",
          "name": "deadline",
          "type": "uint256"
        },
        {
          "internalType": "uint8",
          "name": "v",
          "type": "uint8"
        },
        {
          "internalType": "bytes32",
          "name": "r",
          "type": "bytes32"
        },
        {
          "internalType": "bytes32",
          "name": "s",
          "type": "bytes32"
        }
      ],
      "name": "permit",
      "outputs": [],
      "stateMutability": "nonpayable",
      "type": "function"
    },
    {
      "inputs": [],
      "name": "symbol",
      "outputs": [
        {
          "internalType": "string",
          "name": "",
          "type": "string"
        }
      ],
      "stateMutability": "view",
      "type": "function"
    },
    {
      "inputs": [],
      "name": "totalSupply",
      "outputs": [
        {
          "internalType": "uint256",
          "name": "",
          "type": "uint256"
        }
      ],
      "stateMutability": "view",
      "type": "function"
    },
    {
      "inputs": [
        {
          "internalType": "address",
          "name": "recipient",
          "type": "address"
        },
        {
          "internalType": "uint256",
          "name": "amount",
          "type": "uint256"
        }
      ],
      "name": "transfer",
      "outputs": [
        {
          "internalType": "bool",
          "name": "",
          "type": "bool"
        }
      ],
      "stateMutability": "nonpayable",
      "type": "function"
    },
    {
      "inputs": [
        {
          "internalType": "address",
          "name": "sender",
          "type": "address"
        },
        {
          "internalType": "address",
          "name": "recipient",
          "type": "address"
        },
        {
          "internalType": "uint256",
          "name": "amount",
          "type": "uint256"
        }
      ],
      "name": "transferFrom",
      "outputs": [
        {
          "internalType": "bool",
          "name": "",
          "type": "bool"
        }
      ],
      "stateMutability": "nonpayable",
      "type": "function"
    },
    {
      "inputs": [
        {
          "internalType": "address",
          "name": "newOwner",
          "type": "address"
        }
      ],
      "name": "transferOwnership",
      "outputs": [],
      "stateMutability": "nonpayable",
      "type": "function"
    }
  ],
  "bytecode": "0x608060405234801561001057600080fd5b506116df806100206000396000f3fe608060405234801561001057600080fd5b50600436106101775760003560e01c806370a08231116100d8578063a457c2d71161008c578063d505accf11610066578063d505accf14610314578063dd62ed3e14610327578063f2fde38b1461036057600080fd5b8063a457c2d7146102db578063a9059cbb146102ee578063c4d66de81461030157600080fd5b80637ecebe00116100bd5780637ecebe00146102985780638da5cb5b146102b857806395d89b41146102d357600080fd5b806370a082311461025c57806379cc67901461028557600080fd5b8063313ce5671161012f5780633950935111610114578063395093511461022157806340c10f19146102345780634cd88b761461024957600080fd5b8063313ce567146102095780633644e5151461021857600080fd5b806318160ddd1161016057806318160ddd146101bd57806323b872dd146101cf57806330adf81f146101e257600080fd5b806306fdde031461017c578063095ea7b31461019a575b600080fd5b610184610373565b60405161019191906115a5565b60405180910390f35b6101ad6101a8366004611480565b610405565b6040519015158152602001610191565b6003545b604051908152602001610191565b6101ad6101dd3660046113d4565b61041b565b6101c17f6e71edae12b1b97f4d1f60370fef10105fa2faae0126114a169c64845d6126c981565b60405160128152602001610191565b6101c160065481565b6101ad61022f366004611480565b6104e6565b610247610242366004611480565b61051d565b005b6102476102573660046114a9565b610585565b6101c161026a366004611381565b6001600160a01b031660009081526001602052604090205490565b610247610293366004611480565b6106e4565b6101c16102a6366004611381565b60076020526000908152604090205481565b6000546040516001600160a01b039091168152602001610191565b610184610748565b6101ad6102e9366004611480565b610757565b6101ad6102fc366004611480565b61080a565b61024761030f366004611381565b610817565b61024761032236600461140f565b6108ee565b6101c16103353660046113a2565b6001600160a01b03918216600090815260026020908152604080832093909416825291909152205490565b61024761036e366004611381565b610b28565b60606004805461038290611627565b80601f01602080910402602001604051908101604052809291908181526020018280546103ae90611627565b80156103fb5780601f106103d0576101008083540402835291602001916103fb565b820191906000526020600020905b8154815290600101906020018083116103de57829003601f168201915b5050505050905090565b6000610412338484610c66565b50600192915050565b6000610428848484610dbf565b6001600160a01b0384166000908152600260209081526040808320338452909152902054828110156104c75760405162461bcd60e51b815260206004820152602860248201527f45524332303a207472616e7366657220616d6f756e742065786365656473206160448201527f6c6c6f77616e636500000000000000000000000000000000000000000000000060648201526084015b60405180910390fd5b6104db85336104d68685611610565b610c66565b506001949350505050565b3360008181526002602090815260408083206001600160a01b038716845290915281205490916104129185906104d69086906115f8565b6000546001600160a01b031633146105775760405162461bcd60e51b815260206004820181905260248201527f4f776e61626c653a2063616c6c6572206973206e6f7420746865206f776e657260448201526064016104be565b6105818282610fe0565b5050565b6004805461059290611627565b1590506105e15760405162461bcd60e51b815260206004820152601c60248201527f436f6e747261637420616c726561647920696e697469616c697a65640000000060448201526064016104be565b6105ea33610817565b81516105fd906004906020850190611245565b508051610611906005906020840190611245565b5060405146907f8b73c3c69bb8fe3d512ecc4cf759cc79239f7b179b0ffacaa9a75d522b39400f906106459060049061150a565b604080519182900382208282018252600183527f31000000000000000000000000000000000000000000000000000000000000006020938401528151928301939093528101919091527fc89efdaa54c0f20c7adf612882df0950f5a951637e0307cdcb4c672f298b8bc66060820152608081018290523060a082015260c00160408051601f198184030181529190528051602090910120600655505050565b6000546001600160a01b0316331461073e5760405162461bcd60e51b815260206004820181905260248201527f4f776e61626c653a2063616c6c6572206973206e6f7420746865206f776e657260448201526064016104be565b61058182826110bf565b60606005805461038290611627565b3360009081526002602090815260408083206001600160a01b0386168452909152812054828110156107f15760405162461bcd60e51b815260206004820152602560248201527f45524332303a2064656372656173656420616c6c6f77616e63652062656c6f7760448201527f207a65726f00000000000000000000000000000000000000000000000000000060648201526084016104be565b61080033856104d68685611610565b5060019392505050565b6000610412338484610dbf565b6000546001600160a01b0316156108965760405162461bcd60e51b815260206004820152602960248201527f496e697469616c697a61626c654f776e61626c653a20616c726561647920696e60448201527f697469616c697a6564000000000000000000000000000000000000000000000060648201526084016104be565b6000805473ffffffffffffffffffffffffffffffffffffffff19166001600160a01b03831690811782556040519091907f8be0079c531659141344cd1fd0a4f28419497f9722a3daafe3b4186f6b6457e0908290a350565b4284101561093e5760405162461bcd60e51b815260206004820152601660248201527f496e746572657374546f6b656e3a20455850495245440000000000000000000060448201526064016104be565b6006546001600160a01b038816600090815260076020526040812080549192917f6e71edae12b1b97f4d1f60370fef10105fa2faae0126114a169c64845d6126c9918b918b918b91908761099183611662565b909155506040805160208101969096526001600160a01b0394851690860152929091166060840152608083015260a082015260c0810187905260e00160405160208183030381529060405280519060200120604051602001610a259291907f190100000000000000000000000000000000000000000000000000000000000081526002810192909252602282015260420190565b60408051601f198184030181528282528051602091820120600080855291840180845281905260ff88169284019290925260608301869052608083018590529092509060019060a0016020604051602081039080840390855afa158015610a90573d6000803e3d6000fd5b5050604051601f1901519150506001600160a01b03811615801590610ac65750886001600160a01b0316816001600160a01b0316145b610b125760405162461bcd60e51b815260206004820181905260248201527f496e746572657374546f6b656e3a20494e56414c49445f5349474e415455524560448201526064016104be565b610b1d898989610c66565b505050505050505050565b6000546001600160a01b03163314610b825760405162461bcd60e51b815260206004820181905260248201527f4f776e61626c653a2063616c6c6572206973206e6f7420746865206f776e657260448201526064016104be565b6001600160a01b038116610bfe5760405162461bcd60e51b815260206004820152602660248201527f4f776e61626c653a206e6577206f776e657220697320746865207a65726f206160448201527f646472657373000000000000000000000000000000000000000000000000000060648201526084016104be565b600080546040516001600160a01b03808516939216917f8be0079c531659141344cd1fd0a4f28419497f9722a3daafe3b4186f6b6457e091a36000805473ffffffffffffffffffffffffffffffffffffffff19166001600160a01b0392909216919091179055565b6001600160a01b038316610ce15760405162461bcd60e51b8152602060048201526024808201527f45524332303a20617070726f76652066726f6d20746865207a65726f2061646460448201527f726573730000000000000000000000000000000000000000000000000000000060648201526084016104be565b6001600160a01b038216610d5d5760405162461bcd60e51b815260206004820152602260248201527f45524332303a20617070726f766520746f20746865207a65726f20616464726560448201527f737300000000000000000000000000000000000000000000000000000000000060648201526084016104be565b6001600160a01b0383811660008181526002602090815260408083209487168084529482529182902085905590518481527f8c5be1e5ebec7d5bd14f71427d1e84f3dd0314c0f7b2291e5b200ac8c7c3b92591015b60405180910390a3505050565b6001600160a01b038316610e3b5760405162461bcd60e51b815260206004820152602560248201527f45524332303a207472616e736665722066726f6d20746865207a65726f20616460448201527f647265737300000000000000000000000000000000000000000000000000000060648201526084016104be565b6001600160a01b038216610eb75760405162461bcd60e51b815260206004820152602360248201527f45524332303a207472616e7366657220746f20746865207a65726f206164647260448201527f657373000000000000000000000000000000000000000000000000000000000060648201526084016104be565b6001600160a01b03831660009081526001602052604090205481811015610f465760405162461bcd60e51b815260206004820152602660248201527f45524332303a207472616e7366657220616d6f756e742065786365656473206260448201527f616c616e6365000000000000000000000000000000000000000000000000000060648201526084016104be565b610f508282611610565b6001600160a01b038086166000908152600160205260408082209390935590851681529081208054849290610f869084906115f8565b92505081905550826001600160a01b0316846001600160a01b03167fddf252ad1be2c89b69c2b068fc378daa952ba7f163c4a11628f55a4df523b3ef84604051610fd291815260200190565b60405180910390a350505050565b6001600160a01b0382166110365760405162461bcd60e51b815260206004820152601f60248201527f45524332303a206d696e7420746f20746865207a65726f20616464726573730060448201526064016104be565b806003600082825461104891906115f8565b90915550506001600160a01b038216600090815260016020526040812080548392906110759084906115f8565b90915550506040518181526001600160a01b038316906000907fddf252ad1be2c89b69c2b068fc378daa952ba7f163c4a11628f55a4df523b3ef9060200160405180910390a35050565b6001600160a01b03821661113b5760405162461bcd60e51b815260206004820152602160248201527f45524332303a206275726e2066726f6d20746865207a65726f2061646472657360448201527f730000000000000000000000000000000000000000000000000000000000000060648201526084016104be565b6001600160a01b038216600090815260016020526040902054818110156111ca5760405162461bcd60e51b815260206004820152602260248201527f45524332303a206275726e20616d6f756e7420657863656564732062616c616e60448201527f636500000000000000000000000000000000000000000000000000000000000060648201526084016104be565b6111d48282611610565b6001600160a01b03841660009081526001602052604081209190915560038054849290611202908490611610565b90915550506040518281526000906001600160a01b038516907fddf252ad1be2c89b69c2b068fc378daa952ba7f163c4a11628f55a4df523b3ef90602001610db2565b82805461125190611627565b90600052602060002090601f01602090048101928261127357600085556112b9565b82601f1061128c57805160ff19168380011785556112b9565b828001600101855582156112b9579182015b828111156112b957825182559160200191906001019061129e565b506112c59291506112c9565b5090565b5b808211156112c557600081556001016112ca565b80356001600160a01b03811681146112f557600080fd5b919050565b600082601f83011261130a578081fd5b813567ffffffffffffffff8082111561132557611325611693565b604051601f8301601f19908116603f0116810190828211818310171561134d5761134d611693565b81604052838152866020858801011115611365578485fd5b8360208701602083013792830160200193909352509392505050565b600060208284031215611392578081fd5b61139b826112de565b9392505050565b600080604083850312156113b4578081fd5b6113bd836112de565b91506113cb602084016112de565b90509250929050565b6000806000606084860312156113e8578081fd5b6113f1846112de565b92506113ff602085016112de565b9150604084013590509250925092565b600080600080600080600060e0888a031215611429578283fd5b611432886112de565b9650611440602089016112de565b95506040880135945060608801359350608088013560ff81168114611463578384fd5b9699959850939692959460a0840135945060c09093013592915050565b60008060408385031215611492578182fd5b61149b836112de565b946020939093013593505050565b600080604083850312156114bb578182fd5b823567ffffffffffffffff808211156114d2578384fd5b6114de868387016112fa565b935060208501359150808211156114f3578283fd5b50611500858286016112fa565b9150509250929050565b600080835482600182811c91508083168061152657607f831692505b602080841082141561154657634e487b7160e01b87526022600452602487fd5b81801561155a576001811461156b57611597565b60ff19861689528489019650611597565b60008a815260209020885b8681101561158f5781548b820152908501908301611576565b505084890196505b509498975050505050505050565b6000602080835283518082850152825b818110156115d1578581018301518582016040015282016115b5565b818111156115e25783604083870101525b50601f01601f1916929092016040019392505050565b6000821982111561160b5761160b61167d565b500190565b6000828210156116225761162261167d565b500390565b600181811c9082168061163b57607f821691505b6020821081141561165c57634e487b7160e01b600052602260045260246000fd5b50919050565b60006000198214156116765761167661167d565b5060010190565b634e487b7160e01b600052601160045260246000fd5b634e487b7160e01b600052604160045260246000fdfea2646970667358221220b2279cb8e7f482ad64c342e150e06a02beeb12194b89346a9e48d75e1192951c64736f6c63430008040033",
  "linkReferences": {},
  "deployedLinkReferences": {}
}