{
  "_format": "hh-sol-artifact-1",
  "contractName": "InterestToken",
  "sourceName": "contracts/InterestToken.sol",
  "abi": [
    {
      "anonymous": false,
      "inputs": [
        {
          "indexed": true,
          "internalType": "address",
          "name": "owner",
          "type": "address"
        },
        {
          "indexed": true,
          "internalType": "address",
          "name": "spender",
          "type": "address"
        },
        {
          "indexed": false,
          "internalType": "uint256",
          "name": "value",
          "type": "uint256"
        }
      ],
      "name": "Approval",
      "type": "event"
    },
    {
      "anonymous": false,
      "inputs": [
        {
          "indexed": true,
          "internalType": "address",
          "name": "previousOwner",
          "type": "address"
        },
        {
          "indexed": true,
          "internalType": "address",
          "name": "newOwner",
          "type": "address"
        }
      ],
      "name": "OwnershipTransferred",
      "type": "event"
    },
    {
      "anonymous": false,
      "inputs": [
        {
          "indexed": true,
          "internalType": "address",
          "name": "from",
          "type": "address"
        },
        {
          "indexed": true,
          "internalType": "address",
          "name": "to",
          "type": "address"
        },
        {
          "indexed": false,
          "internalType": "uint256",
          "name": "value",
          "type": "uint256"
        }
      ],
      "name": "Transfer",
      "type": "event"
    },
    {
      "inputs": [],
      "name": "DOMAIN_SEPARATOR",
      "outputs": [
        {
          "internalType": "bytes32",
          "name": "",
          "type": "bytes32"
        }
      ],
      "stateMutability": "view",
      "type": "function"
    },
    {
      "inputs": [],
      "name": "PERMIT_TYPEHASH",
      "outputs": [
        {
          "internalType": "bytes32",
          "name": "",
          "type": "bytes32"
        }
      ],
      "stateMutability": "view",
      "type": "function"
    },
    {
      "inputs": [
        {
          "internalType": "address",
          "name": "owner",
          "type": "address"
        },
        {
          "internalType": "address",
          "name": "spender",
          "type": "address"
        }
      ],
      "name": "allowance",
      "outputs": [
        {
          "internalType": "uint256",
          "name": "",
          "type": "uint256"
        }
      ],
      "stateMutability": "view",
      "type": "function"
    },
    {
      "inputs": [
        {
          "internalType": "address",
          "name": "spender",
          "type": "address"
        },
        {
          "internalType": "uint256",
          "name": "amount",
          "type": "uint256"
        }
      ],
      "name": "approve",
      "outputs": [
        {
          "internalType": "bool",
          "name": "",
          "type": "bool"
        }
      ],
      "stateMutability": "nonpayable",
      "type": "function"
    },
    {
      "inputs": [
        {
          "internalType": "address",
          "name": "account",
          "type": "address"
        }
      ],
      "name": "balanceOf",
      "outputs": [
        {
          "internalType": "uint256",
          "name": "",
          "type": "uint256"
        }
      ],
      "stateMutability": "view",
      "type": "function"
    },
    {
      "inputs": [
        {
          "internalType": "address",
          "name": "account",
          "type": "address"
        },
        {
          "internalType": "uint256",
          "name": "amount",
          "type": "uint256"
        }
      ],
      "name": "burnFrom",
      "outputs": [],
      "stateMutability": "nonpayable",
      "type": "function"
    },
    {
      "inputs": [],
      "name": "decimals",
      "outputs": [
        {
          "internalType": "uint8",
          "name": "",
          "type": "uint8"
        }
      ],
      "stateMutability": "view",
      "type": "function"
    },
    {
      "inputs": [
        {
          "internalType": "address",
          "name": "spender",
          "type": "address"
        },
        {
          "internalType": "uint256",
          "name": "subtractedValue",
          "type": "uint256"
        }
      ],
      "name": "decreaseAllowance",
      "outputs": [
        {
          "internalType": "bool",
          "name": "",
          "type": "bool"
        }
      ],
      "stateMutability": "nonpayable",
      "type": "function"
    },
    {
      "inputs": [
        {
          "internalType": "address",
          "name": "spender",
          "type": "address"
        },
        {
          "internalType": "uint256",
          "name": "addedValue",
          "type": "uint256"
        }
      ],
      "name": "increaseAllowance",
      "outputs": [
        {
          "internalType": "bool",
          "name": "",
          "type": "bool"
        }
      ],
      "stateMutability": "nonpayable",
      "type": "function"
    },
    {
      "inputs": [
        {
          "internalType": "string",
          "name": "name_",
          "type": "string"
        },
        {
          "internalType": "string",
          "name": "symbol_",
          "type": "string"
        }
      ],
      "name": "initialize",
      "outputs": [],
      "stateMutability": "nonpayable",
      "type": "function"
    },
    {
      "inputs": [
        {
          "internalType": "address",
          "name": "initialOwner",
          "type": "address"
        }
      ],
      "name": "initialize",
      "outputs": [],
      "stateMutability": "nonpayable",
      "type": "function"
    },
    {
      "inputs": [
        {
          "internalType": "address",
          "name": "to",
          "type": "address"
        },
        {
          "internalType": "uint256",
          "name": "amount",
          "type": "uint256"
        }
      ],
      "name": "mint",
      "outputs": [],
      "stateMutability": "nonpayable",
      "type": "function"
    },
    {
      "inputs": [],
      "name": "name",
      "outputs": [
        {
          "internalType": "string",
          "name": "",
          "type": "string"
        }
      ],
      "stateMutability": "view",
      "type": "function"
    },
    {
      "inputs": [
        {
          "internalType": "address",
          "name": "",
          "type": "address"
        }
      ],
      "name": "nonces",
      "outputs": [
        {
          "internalType": "uint256",
          "name": "",
          "type": "uint256"
        }
      ],
      "stateMutability": "view",
      "type": "function"
    },
    {
      "inputs": [],
      "name": "owner",
      "outputs": [
        {
          "internalType": "address",
          "name": "",
          "type": "address"
        }
      ],
      "stateMutability": "view",
      "type": "function"
    },
    {
      "inputs": [
        {
          "internalType": "address",
          "name": "owner",
          "type": "address"
        },
        {
          "internalType": "address",
          "name": "spender",
          "type": "address"
        },
        {
          "internalType": "uint256",
          "name": "value",
          "type": "uint256"
        },
        {
          "internalType": "uint256",
          "name": "deadline",
          "type": "uint256"
        },
        {
          "internalType": "uint8",
          "name": "v",
          "type": "uint8"
        },
        {
          "internalType": "bytes32",
          "name": "r",
          "type": "bytes32"
        },
        {
          "internalType": "bytes32",
          "name": "s",
          "type": "bytes32"
        }
      ],
      "name": "permit",
      "outputs": [],
      "stateMutability": "nonpayable",
      "type": "function"
    },
    {
      "inputs": [],
      "name": "symbol",
      "outputs": [
        {
          "internalType": "string",
          "name": "",
          "type": "string"
        }
      ],
      "stateMutability": "view",
      "type": "function"
    },
    {
      "inputs": [],
      "name": "totalSupply",
      "outputs": [
        {
          "internalType": "uint256",
          "name": "",
          "type": "uint256"
        }
      ],
      "stateMutability": "view",
      "type": "function"
    },
    {
      "inputs": [
        {
          "internalType": "address",
          "name": "recipient",
          "type": "address"
        },
        {
          "internalType": "uint256",
          "name": "amount",
          "type": "uint256"
        }
      ],
      "name": "transfer",
      "outputs": [
        {
          "internalType": "bool",
          "name": "",
          "type": "bool"
        }
      ],
      "stateMutability": "nonpayable",
      "type": "function"
    },
    {
      "inputs": [
        {
          "internalType": "address",
          "name": "sender",
          "type": "address"
        },
        {
          "internalType": "address",
          "name": "recipient",
          "type": "address"
        },
        {
          "internalType": "uint256",
          "name": "amount",
          "type": "uint256"
        }
      ],
      "name": "transferFrom",
      "outputs": [
        {
          "internalType": "bool",
          "name": "",
          "type": "bool"
        }
      ],
      "stateMutability": "nonpayable",
      "type": "function"
    },
    {
      "inputs": [
        {
          "internalType": "address",
          "name": "newOwner",
          "type": "address"
        }
      ],
      "name": "transferOwnership",
      "outputs": [],
      "stateMutability": "nonpayable",
      "type": "function"
    }
  ],
  "bytecode": "0x608060405234801561001057600080fd5b5061171f806100206000396000f3fe608060405234801561001057600080fd5b50600436106101775760003560e01c806370a08231116100d8578063a457c2d71161008c578063d505accf11610066578063d505accf14610560578063dd62ed3e146105b1578063f2fde38b146105df57610177565b8063a457c2d7146104e2578063a9059cbb1461050e578063c4d66de81461053a57610177565b80637ecebe00116100bd5780637ecebe00146104905780638da5cb5b146104b657806395d89b41146104da57610177565b806370a082311461043e57806379cc67901461046457610177565b8063313ce5671161012f578063395093511161011457806339509351146102b757806340c10f19146102e35780634cd88b761461031157610177565b8063313ce567146102915780633644e515146102af57610177565b806318160ddd1161016057806318160ddd1461023957806323b872dd1461025357806330adf81f1461028957610177565b806306fdde031461017c578063095ea7b3146101f9575b600080fd5b610184610605565b6040805160208082528351818301528351919283929083019185019080838360005b838110156101be5781810151838201526020016101a6565b50505050905090810190601f1680156101eb5780820380516001836020036101000a031916815260200191505b509250505060405180910390f35b6102256004803603604081101561020f57600080fd5b506001600160a01b03813516906020013561069b565b604080519115158252519081900360200190f35b6102416106b1565b60408051918252519081900360200190f35b6102256004803603606081101561026957600080fd5b506001600160a01b038135811691602081013590911690604001356106b7565b610241610720565b610299610744565b6040805160ff9092168252519081900360200190f35b61024161074d565b610225600480360360408110156102cd57600080fd5b506001600160a01b038135169060200135610753565b61030f600480360360408110156102f957600080fd5b506001600160a01b038135169060200135610789565b005b61030f6004803603604081101561032757600080fd5b81019060208101813564010000000081111561034257600080fd5b82018360208201111561035457600080fd5b8035906020019184600183028401116401000000008311171561037657600080fd5b91908080601f01602080910402602001604051908101604052809392919081815260200183838082843760009201919091525092959493602081019350359150506401000000008111156103c957600080fd5b8201836020820111156103db57600080fd5b803590602001918460018302840111640100000000831117156103fd57600080fd5b91908080601f0160208091040260200160405190810160405280939291908181526020018383808284376000920191909152509295506107f6945050505050565b6102416004803603602081101561045457600080fd5b50356001600160a01b03166109c3565b61030f6004803603604081101561047a57600080fd5b506001600160a01b0381351690602001356109de565b610241600480360360208110156104a657600080fd5b50356001600160a01b0316610a47565b6104be610a59565b604080516001600160a01b039092168252519081900360200190f35b610184610a68565b610225600480360360408110156104f857600080fd5b506001600160a01b038135169060200135610ac9565b6102256004803603604081101561052457600080fd5b506001600160a01b038135169060200135610b18565b61030f6004803603602081101561055057600080fd5b50356001600160a01b0316610b25565b61030f600480360360e081101561057657600080fd5b506001600160a01b03813581169160208101359091169060408101359060608101359060ff6080820135169060a08101359060c00135610bc5565b610241600480360360408110156105c757600080fd5b506001600160a01b0381358116916020013516610ded565b61030f600480360360208110156105f557600080fd5b50356001600160a01b0316610e18565b60048054604080516020601f60026000196101006001881615020190951694909404938401819004810282018101909252828152606093909290918301828280156106915780601f1061066657610100808354040283529160200191610691565b820191906000526020600020905b81548152906001019060200180831161067457829003601f168201915b5050505050905090565b60006106a8338484610f24565b50600192915050565b60035490565b60006106c4848484611010565b61071684336107118560405180606001604052806028815260200161160a602891396001600160a01b038a166000908152600260209081526040808320338452909152902054919061116d565b610f24565b5060019392505050565b7f6e71edae12b1b97f4d1f60370fef10105fa2faae0126114a169c64845d6126c981565b60065460ff1690565b60075481565b3360008181526002602090815260408083206001600160a01b038716845290915281205490916106a89185906107119086611204565b6000546001600160a01b031633146107e8576040805162461bcd60e51b815260206004820181905260248201527f4f776e61626c653a2063616c6c6572206973206e6f7420746865206f776e6572604482015290519081900360640190fd5b6107f28282611265565b5050565b600454600260001961010060018416150201909116041561085e576040805162461bcd60e51b815260206004820152601c60248201527f436f6e747261637420616c726561647920696e697469616c697a656400000000604482015290519081900360640190fd5b61086733610b25565b815161087a9060049060208501906114b5565b50805161088e9060059060208401906114b5565b506006805460ff191660121790556040516004805446927f8b73c3c69bb8fe3d512ecc4cf759cc79239f7b179b0ffacaa9a75d522b39400f9291819083906002600019600183161561010002019091160480156109225780601f10610900576101008083540402835291820191610922565b820191906000526020600020905b81548152906001019060200180831161090e575b5050604080519182900382208282018252600183527f3100000000000000000000000000000000000000000000000000000000000000602093840152815180840196909652858201527fc89efdaa54c0f20c7adf612882df0950f5a951637e0307cdcb4c672f298b8bc6606086015260808501959095523060a0808601919091528551808603909101815260c0909401909452505080519101206007555050565b6001600160a01b031660009081526001602052604090205490565b6000546001600160a01b03163314610a3d576040805162461bcd60e51b815260206004820181905260248201527f4f776e61626c653a2063616c6c6572206973206e6f7420746865206f776e6572604482015290519081900360640190fd5b6107f28282611357565b60086020526000908152604090205481565b6000546001600160a01b031690565b60058054604080516020601f60026000196101006001881615020190951694909404938401819004810282018101909252828152606093909290918301828280156106915780601f1061066657610100808354040283529160200191610691565b60006106a83384610711856040518060600160405280602581526020016116c5602591393360009081526002602090815260408083206001600160a01b038d168452909152902054919061116d565b60006106a8338484611010565b6000546001600160a01b031615610b6d5760405162461bcd60e51b81526004018080602001828103825260298152602001806116326029913960400191505060405180910390fd5b6000805473ffffffffffffffffffffffffffffffffffffffff19166001600160a01b03831690811782556040519091907f8be0079c531659141344cd1fd0a4f28419497f9722a3daafe3b4186f6b6457e0908290a350565b42841015610c1a576040805162461bcd60e51b815260206004820152601660248201527f496e746572657374546f6b656e3a204558504952454400000000000000000000604482015290519081900360640190fd5b6007546001600160a01b0380891660008181526008602090815260408083208054600180820190925582517f6e71edae12b1b97f4d1f60370fef10105fa2faae0126114a169c64845d6126c98186015280840196909652958d166060860152608085018c905260a085019590955260c08085018b90528151808603909101815260e0850182528051908301207f19010000000000000000000000000000000000000000000000000000000000006101008601526101028501969096526101228085019690965280518085039096018652610142840180825286519683019690962095839052610162840180825286905260ff89166101828501526101a284018890526101c28401879052519193926101e280820193601f1981019281900390910190855afa158015610d50573d6000803e3d6000fd5b5050604051601f1901519150506001600160a01b03811615801590610d865750886001600160a01b0316816001600160a01b0316145b610dd7576040805162461bcd60e51b815260206004820181905260248201527f496e746572657374546f6b656e3a20494e56414c49445f5349474e4154555245604482015290519081900360640190fd5b610de2898989610f24565b505050505050505050565b6001600160a01b03918216600090815260026020908152604080832093909416825291909152205490565b6000546001600160a01b03163314610e77576040805162461bcd60e51b815260206004820181905260248201527f4f776e61626c653a2063616c6c6572206973206e6f7420746865206f776e6572604482015290519081900360640190fd5b6001600160a01b038116610ebc5760405162461bcd60e51b815260040180806020018281038252602681526020018061159c6026913960400191505060405180910390fd5b600080546040516001600160a01b03808516939216917f8be0079c531659141344cd1fd0a4f28419497f9722a3daafe3b4186f6b6457e091a36000805473ffffffffffffffffffffffffffffffffffffffff19166001600160a01b0392909216919091179055565b6001600160a01b038316610f695760405162461bcd60e51b81526004018080602001828103825260248152602001806116a16024913960400191505060405180910390fd5b6001600160a01b038216610fae5760405162461bcd60e51b81526004018080602001828103825260228152602001806115c26022913960400191505060405180910390fd5b6001600160a01b03808416600081815260026020908152604080832094871680845294825291829020859055815185815291517f8c5be1e5ebec7d5bd14f71427d1e84f3dd0314c0f7b2291e5b200ac8c7c3b9259281900390910190a3505050565b6001600160a01b0383166110555760405162461bcd60e51b815260040180806020018281038252602581526020018061167c6025913960400191505060405180910390fd5b6001600160a01b03821661109a5760405162461bcd60e51b81526004018080602001828103825260238152602001806115576023913960400191505060405180910390fd5b6110a5838383611453565b6110e2816040518060600160405280602681526020016115e4602691396001600160a01b038616600090815260016020526040902054919061116d565b6001600160a01b0380851660009081526001602052604080822093909355908416815220546111119082611204565b6001600160a01b0380841660008181526001602090815260409182902094909455805185815290519193928716927fddf252ad1be2c89b69c2b068fc378daa952ba7f163c4a11628f55a4df523b3ef92918290030190a3505050565b600081848411156111fc5760405162461bcd60e51b81526004018080602001828103825283818151815260200191508051906020019080838360005b838110156111c15781810151838201526020016111a9565b50505050905090810190601f1680156111ee5780820380516001836020036101000a031916815260200191505b509250505060405180910390fd5b505050900390565b60008282018381101561125e576040805162461bcd60e51b815260206004820152601b60248201527f536166654d6174683a206164646974696f6e206f766572666c6f770000000000604482015290519081900360640190fd5b9392505050565b6001600160a01b0382166112c0576040805162461bcd60e51b815260206004820152601f60248201527f45524332303a206d696e7420746f20746865207a65726f206164647265737300604482015290519081900360640190fd5b6112cc60008383611453565b6003546112d99082611204565b6003556001600160a01b0382166000908152600160205260409020546112ff9082611204565b6001600160a01b03831660008181526001602090815260408083209490945583518581529351929391927fddf252ad1be2c89b69c2b068fc378daa952ba7f163c4a11628f55a4df523b3ef9281900390910190a35050565b6001600160a01b03821661139c5760405162461bcd60e51b815260040180806020018281038252602181526020018061165b6021913960400191505060405180910390fd5b6113a882600083611453565b6113e58160405180606001604052806022815260200161157a602291396001600160a01b038516600090815260016020526040902054919061116d565b6001600160a01b03831660009081526001602052604090205560035461140b9082611458565b6003556040805182815290516000916001600160a01b038516917fddf252ad1be2c89b69c2b068fc378daa952ba7f163c4a11628f55a4df523b3ef9181900360200190a35050565b505050565b6000828211156114af576040805162461bcd60e51b815260206004820152601e60248201527f536166654d6174683a207375627472616374696f6e206f766572666c6f770000604482015290519081900360640190fd5b50900390565b828054600181600116156101000203166002900490600052602060002090601f0160209004810192826114eb5760008555611531565b82601f1061150457805160ff1916838001178555611531565b82800160010185558215611531579182015b82811115611531578251825591602001919060010190611516565b5061153d929150611541565b5090565b5b8082111561153d576000815560010161154256fe45524332303a207472616e7366657220746f20746865207a65726f206164647265737345524332303a206275726e20616d6f756e7420657863656564732062616c616e63654f776e61626c653a206e6577206f776e657220697320746865207a65726f206164647265737345524332303a20617070726f766520746f20746865207a65726f206164647265737345524332303a207472616e7366657220616d6f756e7420657863656564732062616c616e636545524332303a207472616e7366657220616d6f756e74206578636565647320616c6c6f77616e6365496e697469616c697a61626c654f776e61626c653a20616c726561647920696e697469616c697a656445524332303a206275726e2066726f6d20746865207a65726f206164647265737345524332303a207472616e736665722066726f6d20746865207a65726f206164647265737345524332303a20617070726f76652066726f6d20746865207a65726f206164647265737345524332303a2064656372656173656420616c6c6f77616e63652062656c6f77207a65726fa26469706673582212206e8ecc0e7bab8da9fe865def0d81ae0e6845fe731265951c0d5a10318115b3c964736f6c63430007060033",
  "linkReferences": {},
  "deployedLinkReferences": {}
}