{
  "_format": "hh-sol-artifact-1",
  "contractName": "InterestToken",
  "sourceName": "contracts/InterestToken.sol",
  "abi": [
    {
      "anonymous": false,
      "inputs": [
        {
          "indexed": true,
          "internalType": "address",
          "name": "owner",
          "type": "address"
        },
        {
          "indexed": true,
          "internalType": "address",
          "name": "spender",
          "type": "address"
        },
        {
          "indexed": false,
          "internalType": "uint256",
          "name": "value",
          "type": "uint256"
        }
      ],
      "name": "Approval",
      "type": "event"
    },
    {
      "anonymous": false,
      "inputs": [
        {
          "indexed": true,
          "internalType": "address",
          "name": "previousOwner",
          "type": "address"
        },
        {
          "indexed": true,
          "internalType": "address",
          "name": "newOwner",
          "type": "address"
        }
      ],
      "name": "OwnershipTransferred",
      "type": "event"
    },
    {
      "anonymous": false,
      "inputs": [
        {
          "indexed": true,
          "internalType": "address",
          "name": "from",
          "type": "address"
        },
        {
          "indexed": true,
          "internalType": "address",
          "name": "to",
          "type": "address"
        },
        {
          "indexed": false,
          "internalType": "uint256",
          "name": "value",
          "type": "uint256"
        }
      ],
      "name": "Transfer",
      "type": "event"
    },
    {
      "inputs": [],
      "name": "DOMAIN_SEPARATOR",
      "outputs": [
        {
          "internalType": "bytes32",
          "name": "",
          "type": "bytes32"
        }
      ],
      "stateMutability": "view",
      "type": "function"
    },
    {
      "inputs": [],
      "name": "PERMIT_TYPEHASH",
      "outputs": [
        {
          "internalType": "bytes32",
          "name": "",
          "type": "bytes32"
        }
      ],
      "stateMutability": "view",
      "type": "function"
    },
    {
      "inputs": [
        {
          "internalType": "address",
          "name": "owner",
          "type": "address"
        },
        {
          "internalType": "address",
          "name": "spender",
          "type": "address"
        }
      ],
      "name": "allowance",
      "outputs": [
        {
          "internalType": "uint256",
          "name": "",
          "type": "uint256"
        }
      ],
      "stateMutability": "view",
      "type": "function"
    },
    {
      "inputs": [
        {
          "internalType": "address",
          "name": "spender",
          "type": "address"
        },
        {
          "internalType": "uint256",
          "name": "amount",
          "type": "uint256"
        }
      ],
      "name": "approve",
      "outputs": [
        {
          "internalType": "bool",
          "name": "",
          "type": "bool"
        }
      ],
      "stateMutability": "nonpayable",
      "type": "function"
    },
    {
      "inputs": [
        {
          "internalType": "address",
          "name": "account",
          "type": "address"
        }
      ],
      "name": "balanceOf",
      "outputs": [
        {
          "internalType": "uint256",
          "name": "",
          "type": "uint256"
        }
      ],
      "stateMutability": "view",
      "type": "function"
    },
    {
      "inputs": [
        {
          "internalType": "address",
          "name": "account",
          "type": "address"
        },
        {
          "internalType": "uint256",
          "name": "amount",
          "type": "uint256"
        }
      ],
      "name": "burnFrom",
      "outputs": [],
      "stateMutability": "nonpayable",
      "type": "function"
    },
    {
      "inputs": [],
      "name": "decimals",
      "outputs": [
        {
          "internalType": "uint8",
          "name": "",
          "type": "uint8"
        }
      ],
      "stateMutability": "pure",
      "type": "function"
    },
    {
      "inputs": [
        {
          "internalType": "address",
          "name": "spender",
          "type": "address"
        },
        {
          "internalType": "uint256",
          "name": "subtractedValue",
          "type": "uint256"
        }
      ],
      "name": "decreaseAllowance",
      "outputs": [
        {
          "internalType": "bool",
          "name": "",
          "type": "bool"
        }
      ],
      "stateMutability": "nonpayable",
      "type": "function"
    },
    {
      "inputs": [
        {
          "internalType": "address",
          "name": "spender",
          "type": "address"
        },
        {
          "internalType": "uint256",
          "name": "addedValue",
          "type": "uint256"
        }
      ],
      "name": "increaseAllowance",
      "outputs": [
        {
          "internalType": "bool",
          "name": "",
          "type": "bool"
        }
      ],
      "stateMutability": "nonpayable",
      "type": "function"
    },
    {
      "inputs": [
        {
          "internalType": "string",
          "name": "name_",
          "type": "string"
        },
        {
          "internalType": "string",
          "name": "symbol_",
          "type": "string"
        },
        {
          "internalType": "address",
          "name": "owner",
          "type": "address"
        }
      ],
      "name": "initialize",
      "outputs": [],
      "stateMutability": "nonpayable",
      "type": "function"
    },
    {
      "inputs": [
        {
          "internalType": "address",
          "name": "initialOwner",
          "type": "address"
        }
      ],
      "name": "initialize",
      "outputs": [],
      "stateMutability": "nonpayable",
      "type": "function"
    },
    {
      "inputs": [
        {
          "internalType": "address",
          "name": "to",
          "type": "address"
        },
        {
          "internalType": "uint256",
          "name": "amount",
          "type": "uint256"
        }
      ],
      "name": "mint",
      "outputs": [],
      "stateMutability": "nonpayable",
      "type": "function"
    },
    {
      "inputs": [],
      "name": "name",
      "outputs": [
        {
          "internalType": "string",
          "name": "",
          "type": "string"
        }
      ],
      "stateMutability": "view",
      "type": "function"
    },
    {
      "inputs": [
        {
          "internalType": "address",
          "name": "",
          "type": "address"
        }
      ],
      "name": "nonces",
      "outputs": [
        {
          "internalType": "uint256",
          "name": "",
          "type": "uint256"
        }
      ],
      "stateMutability": "view",
      "type": "function"
    },
    {
      "inputs": [],
      "name": "owner",
      "outputs": [
        {
          "internalType": "address",
          "name": "",
          "type": "address"
        }
      ],
      "stateMutability": "view",
      "type": "function"
    },
    {
      "inputs": [
        {
          "internalType": "address",
          "name": "owner",
          "type": "address"
        },
        {
          "internalType": "address",
          "name": "spender",
          "type": "address"
        },
        {
          "internalType": "uint256",
          "name": "value",
          "type": "uint256"
        },
        {
          "internalType": "uint256",
          "name": "deadline",
          "type": "uint256"
        },
        {
          "internalType": "uint8",
          "name": "v",
          "type": "uint8"
        },
        {
          "internalType": "bytes32",
          "name": "r",
          "type": "bytes32"
        },
        {
          "internalType": "bytes32",
          "name": "s",
          "type": "bytes32"
        }
      ],
      "name": "permit",
      "outputs": [],
      "stateMutability": "nonpayable",
      "type": "function"
    },
    {
      "inputs": [],
      "name": "symbol",
      "outputs": [
        {
          "internalType": "string",
          "name": "",
          "type": "string"
        }
      ],
      "stateMutability": "view",
      "type": "function"
    },
    {
      "inputs": [],
      "name": "totalSupply",
      "outputs": [
        {
          "internalType": "uint256",
          "name": "",
          "type": "uint256"
        }
      ],
      "stateMutability": "view",
      "type": "function"
    },
    {
      "inputs": [
        {
          "internalType": "address",
          "name": "recipient",
          "type": "address"
        },
        {
          "internalType": "uint256",
          "name": "amount",
          "type": "uint256"
        }
      ],
      "name": "transfer",
      "outputs": [
        {
          "internalType": "bool",
          "name": "",
          "type": "bool"
        }
      ],
      "stateMutability": "nonpayable",
      "type": "function"
    },
    {
      "inputs": [
        {
          "internalType": "address",
          "name": "sender",
          "type": "address"
        },
        {
          "internalType": "address",
          "name": "recipient",
          "type": "address"
        },
        {
          "internalType": "uint256",
          "name": "amount",
          "type": "uint256"
        }
      ],
      "name": "transferFrom",
      "outputs": [
        {
          "internalType": "bool",
          "name": "",
          "type": "bool"
        }
      ],
      "stateMutability": "nonpayable",
      "type": "function"
    },
    {
      "inputs": [
        {
          "internalType": "address",
          "name": "newOwner",
          "type": "address"
        }
      ],
      "name": "transferOwnership",
      "outputs": [],
      "stateMutability": "nonpayable",
      "type": "function"
    }
  ],
  "bytecode": "0x608060405234801561001057600080fd5b506116f0806100206000396000f3fe608060405234801561001057600080fd5b50600436106101775760003560e01c806370a08231116100d8578063a457c2d71161008c578063d505accf11610066578063d505accf14610314578063dd62ed3e14610327578063f2fde38b1461036057600080fd5b8063a457c2d7146102db578063a9059cbb146102ee578063c4d66de81461030157600080fd5b80637ecebe00116100bd5780637ecebe00146102985780638da5cb5b146102b857806395d89b41146102d357600080fd5b806370a082311461025c57806379cc67901461028557600080fd5b806330adf81f1161012f5780633644e515116101145780633644e5151461022d578063395093511461023657806340c10f191461024957600080fd5b806330adf81f146101f7578063313ce5671461021e57600080fd5b8063095ea7b311610160578063095ea7b3146101af57806318160ddd146101d257806323b872dd146101e457600080fd5b806306fdde031461017c578063077f224a1461019a575b600080fd5b610184610373565b60405161019191906115b6565b60405180910390f35b6101ad6101a83660046114aa565b610405565b005b6101c26101bd366004611481565b61056a565b6040519015158152602001610191565b6003545b604051908152602001610191565b6101c26101f23660046113d5565b610580565b6101d67f6e71edae12b1b97f4d1f60370fef10105fa2faae0126114a169c64845d6126c981565b60405160128152602001610191565b6101d660065481565b6101c2610244366004611481565b610646565b6101ad610257366004611481565b61067d565b6101d661026a366004611382565b6001600160a01b031660009081526001602052604090205490565b6101ad610293366004611481565b6106e5565b6101d66102a6366004611382565b60076020526000908152604090205481565b6000546040516001600160a01b039091168152602001610191565b610184610749565b6101c26102e9366004611481565b610758565b6101c26102fc366004611481565b61080b565b6101ad61030f366004611382565b610818565b6101ad610322366004611410565b6108ef565b6101d66103353660046113a3565b6001600160a01b03918216600090815260026020908152604080832093909416825291909152205490565b6101ad61036e366004611382565b610b29565b60606004805461038290611638565b80601f01602080910402602001604051908101604052809291908181526020018280546103ae90611638565b80156103fb5780601f106103d0576101008083540402835291602001916103fb565b820191906000526020600020905b8154815290600101906020018083116103de57829003601f168201915b5050505050905090565b6004805461041290611638565b1590506104665760405162461bcd60e51b815260206004820152601c60248201527f436f6e747261637420616c726561647920696e697469616c697a65640000000060448201526064015b60405180910390fd5b61046f81610818565b8251610482906004906020860190611246565b508151610496906005906020850190611246565b5060405146907f8b73c3c69bb8fe3d512ecc4cf759cc79239f7b179b0ffacaa9a75d522b39400f906104ca9060049061151b565b604080519182900382208282018252600183527f31000000000000000000000000000000000000000000000000000000000000006020938401528151928301939093528101919091527fc89efdaa54c0f20c7adf612882df0950f5a951637e0307cdcb4c672f298b8bc66060820152608081018290523060a082015260c00160408051601f19818403018152919052805160209091012060065550505050565b6000610577338484610c67565b50600192915050565b600061058d848484610dc0565b6001600160a01b0384166000908152600260209081526040808320338452909152902054828110156106275760405162461bcd60e51b815260206004820152602860248201527f45524332303a207472616e7366657220616d6f756e742065786365656473206160448201527f6c6c6f77616e6365000000000000000000000000000000000000000000000000606482015260840161045d565b61063b85336106368685611621565b610c67565b506001949350505050565b3360008181526002602090815260408083206001600160a01b03871684529091528120549091610577918590610636908690611609565b6000546001600160a01b031633146106d75760405162461bcd60e51b815260206004820181905260248201527f4f776e61626c653a2063616c6c6572206973206e6f7420746865206f776e6572604482015260640161045d565b6106e18282610fe1565b5050565b6000546001600160a01b0316331461073f5760405162461bcd60e51b815260206004820181905260248201527f4f776e61626c653a2063616c6c6572206973206e6f7420746865206f776e6572604482015260640161045d565b6106e182826110c0565b60606005805461038290611638565b3360009081526002602090815260408083206001600160a01b0386168452909152812054828110156107f25760405162461bcd60e51b815260206004820152602560248201527f45524332303a2064656372656173656420616c6c6f77616e63652062656c6f7760448201527f207a65726f000000000000000000000000000000000000000000000000000000606482015260840161045d565b61080133856106368685611621565b5060019392505050565b6000610577338484610dc0565b6000546001600160a01b0316156108975760405162461bcd60e51b815260206004820152602960248201527f496e697469616c697a61626c654f776e61626c653a20616c726561647920696e60448201527f697469616c697a65640000000000000000000000000000000000000000000000606482015260840161045d565b6000805473ffffffffffffffffffffffffffffffffffffffff19166001600160a01b03831690811782556040519091907f8be0079c531659141344cd1fd0a4f28419497f9722a3daafe3b4186f6b6457e0908290a350565b4284101561093f5760405162461bcd60e51b815260206004820152601660248201527f496e746572657374546f6b656e3a204558504952454400000000000000000000604482015260640161045d565b6006546001600160a01b038816600090815260076020526040812080549192917f6e71edae12b1b97f4d1f60370fef10105fa2faae0126114a169c64845d6126c9918b918b918b91908761099283611673565b909155506040805160208101969096526001600160a01b0394851690860152929091166060840152608083015260a082015260c0810187905260e00160405160208183030381529060405280519060200120604051602001610a269291907f190100000000000000000000000000000000000000000000000000000000000081526002810192909252602282015260420190565b60408051601f198184030181528282528051602091820120600080855291840180845281905260ff88169284019290925260608301869052608083018590529092509060019060a0016020604051602081039080840390855afa158015610a91573d6000803e3d6000fd5b5050604051601f1901519150506001600160a01b03811615801590610ac75750886001600160a01b0316816001600160a01b0316145b610b135760405162461bcd60e51b815260206004820181905260248201527f496e746572657374546f6b656e3a20494e56414c49445f5349474e4154555245604482015260640161045d565b610b1e898989610c67565b505050505050505050565b6000546001600160a01b03163314610b835760405162461bcd60e51b815260206004820181905260248201527f4f776e61626c653a2063616c6c6572206973206e6f7420746865206f776e6572604482015260640161045d565b6001600160a01b038116610bff5760405162461bcd60e51b815260206004820152602660248201527f4f776e61626c653a206e6577206f776e657220697320746865207a65726f206160448201527f6464726573730000000000000000000000000000000000000000000000000000606482015260840161045d565b600080546040516001600160a01b03808516939216917f8be0079c531659141344cd1fd0a4f28419497f9722a3daafe3b4186f6b6457e091a36000805473ffffffffffffffffffffffffffffffffffffffff19166001600160a01b0392909216919091179055565b6001600160a01b038316610ce25760405162461bcd60e51b8152602060048201526024808201527f45524332303a20617070726f76652066726f6d20746865207a65726f2061646460448201527f7265737300000000000000000000000000000000000000000000000000000000606482015260840161045d565b6001600160a01b038216610d5e5760405162461bcd60e51b815260206004820152602260248201527f45524332303a20617070726f766520746f20746865207a65726f20616464726560448201527f7373000000000000000000000000000000000000000000000000000000000000606482015260840161045d565b6001600160a01b0383811660008181526002602090815260408083209487168084529482529182902085905590518481527f8c5be1e5ebec7d5bd14f71427d1e84f3dd0314c0f7b2291e5b200ac8c7c3b92591015b60405180910390a3505050565b6001600160a01b038316610e3c5760405162461bcd60e51b815260206004820152602560248201527f45524332303a207472616e736665722066726f6d20746865207a65726f20616460448201527f6472657373000000000000000000000000000000000000000000000000000000606482015260840161045d565b6001600160a01b038216610eb85760405162461bcd60e51b815260206004820152602360248201527f45524332303a207472616e7366657220746f20746865207a65726f206164647260448201527f6573730000000000000000000000000000000000000000000000000000000000606482015260840161045d565b6001600160a01b03831660009081526001602052604090205481811015610f475760405162461bcd60e51b815260206004820152602660248201527f45524332303a207472616e7366657220616d6f756e742065786365656473206260448201527f616c616e63650000000000000000000000000000000000000000000000000000606482015260840161045d565b610f518282611621565b6001600160a01b038086166000908152600160205260408082209390935590851681529081208054849290610f87908490611609565b92505081905550826001600160a01b0316846001600160a01b03167fddf252ad1be2c89b69c2b068fc378daa952ba7f163c4a11628f55a4df523b3ef84604051610fd391815260200190565b60405180910390a350505050565b6001600160a01b0382166110375760405162461bcd60e51b815260206004820152601f60248201527f45524332303a206d696e7420746f20746865207a65726f206164647265737300604482015260640161045d565b80600360008282546110499190611609565b90915550506001600160a01b03821660009081526001602052604081208054839290611076908490611609565b90915550506040518181526001600160a01b038316906000907fddf252ad1be2c89b69c2b068fc378daa952ba7f163c4a11628f55a4df523b3ef9060200160405180910390a35050565b6001600160a01b03821661113c5760405162461bcd60e51b815260206004820152602160248201527f45524332303a206275726e2066726f6d20746865207a65726f2061646472657360448201527f7300000000000000000000000000000000000000000000000000000000000000606482015260840161045d565b6001600160a01b038216600090815260016020526040902054818110156111cb5760405162461bcd60e51b815260206004820152602260248201527f45524332303a206275726e20616d6f756e7420657863656564732062616c616e60448201527f6365000000000000000000000000000000000000000000000000000000000000606482015260840161045d565b6111d58282611621565b6001600160a01b03841660009081526001602052604081209190915560038054849290611203908490611621565b90915550506040518281526000906001600160a01b038516907fddf252ad1be2c89b69c2b068fc378daa952ba7f163c4a11628f55a4df523b3ef90602001610db3565b82805461125290611638565b90600052602060002090601f01602090048101928261127457600085556112ba565b82601f1061128d57805160ff19168380011785556112ba565b828001600101855582156112ba579182015b828111156112ba57825182559160200191906001019061129f565b506112c69291506112ca565b5090565b5b808211156112c657600081556001016112cb565b80356001600160a01b03811681146112f657600080fd5b919050565b600082601f83011261130b578081fd5b813567ffffffffffffffff80821115611326576113266116a4565b604051601f8301601f19908116603f0116810190828211818310171561134e5761134e6116a4565b81604052838152866020858801011115611366578485fd5b8360208701602083013792830160200193909352509392505050565b600060208284031215611393578081fd5b61139c826112df565b9392505050565b600080604083850312156113b5578081fd5b6113be836112df565b91506113cc602084016112df565b90509250929050565b6000806000606084860312156113e9578081fd5b6113f2846112df565b9250611400602085016112df565b9150604084013590509250925092565b600080600080600080600060e0888a03121561142a578283fd5b611433886112df565b9650611441602089016112df565b95506040880135945060608801359350608088013560ff81168114611464578384fd5b9699959850939692959460a0840135945060c09093013592915050565b60008060408385031215611493578182fd5b61149c836112df565b946020939093013593505050565b6000806000606084860312156114be578283fd5b833567ffffffffffffffff808211156114d5578485fd5b6114e1878388016112fb565b945060208601359150808211156114f6578384fd5b50611503868287016112fb565b925050611512604085016112df565b90509250925092565b600080835482600182811c91508083168061153757607f831692505b602080841082141561155757634e487b7160e01b87526022600452602487fd5b81801561156b576001811461157c576115a8565b60ff198616895284890196506115a8565b60008a815260209020885b868110156115a05781548b820152908501908301611587565b505084890196505b509498975050505050505050565b6000602080835283518082850152825b818110156115e2578581018301518582016040015282016115c6565b818111156115f35783604083870101525b50601f01601f1916929092016040019392505050565b6000821982111561161c5761161c61168e565b500190565b6000828210156116335761163361168e565b500390565b600181811c9082168061164c57607f821691505b6020821081141561166d57634e487b7160e01b600052602260045260246000fd5b50919050565b60006000198214156116875761168761168e565b5060010190565b634e487b7160e01b600052601160045260246000fd5b634e487b7160e01b600052604160045260246000fdfea26469706673582212209f9bd0bd0b7110be27de9697c0997f5d2b563620dbe0bd580d0c3b0cb4e5a55464736f6c63430008040033",
  "linkReferences": {},
  "deployedLinkReferences": {}
}