{
  "_format": "hh-sol-artifact-1",
  "contractName": "InterestToken",
  "sourceName": "contracts/InterestToken.sol",
  "abi": [
    {
      "anonymous": false,
      "inputs": [
        {
          "indexed": true,
          "internalType": "address",
          "name": "owner",
          "type": "address"
        },
        {
          "indexed": true,
          "internalType": "address",
          "name": "approved",
          "type": "address"
        },
        {
          "indexed": true,
          "internalType": "uint256",
          "name": "tokenId",
          "type": "uint256"
        }
      ],
      "name": "Approval",
      "type": "event"
    },
    {
      "anonymous": false,
      "inputs": [
        {
          "indexed": true,
          "internalType": "address",
          "name": "owner",
          "type": "address"
        },
        {
          "indexed": true,
          "internalType": "address",
          "name": "operator",
          "type": "address"
        },
        {
          "indexed": false,
          "internalType": "bool",
          "name": "approved",
          "type": "bool"
        }
      ],
      "name": "ApprovalForAll",
      "type": "event"
    },
    {
      "anonymous": false,
      "inputs": [
        {
          "indexed": true,
          "internalType": "address",
          "name": "previousOwner",
          "type": "address"
        },
        {
          "indexed": true,
          "internalType": "address",
          "name": "newOwner",
          "type": "address"
        }
      ],
      "name": "OwnershipTransferred",
      "type": "event"
    },
    {
      "anonymous": false,
      "inputs": [
        {
          "indexed": true,
          "internalType": "address",
          "name": "from",
          "type": "address"
        },
        {
          "indexed": true,
          "internalType": "address",
          "name": "to",
          "type": "address"
        },
        {
          "indexed": true,
          "internalType": "uint256",
          "name": "tokenId",
          "type": "uint256"
        }
      ],
      "name": "Transfer",
      "type": "event"
    },
    {
      "inputs": [
        {
          "internalType": "address",
          "name": "to",
          "type": "address"
        },
        {
          "internalType": "uint256",
          "name": "tokenId",
          "type": "uint256"
        }
      ],
      "name": "approve",
      "outputs": [],
      "stateMutability": "nonpayable",
      "type": "function"
    },
    {
      "inputs": [
        {
          "internalType": "address",
          "name": "owner",
          "type": "address"
        }
      ],
      "name": "balanceOf",
      "outputs": [
        {
          "internalType": "uint256",
          "name": "",
          "type": "uint256"
        }
      ],
      "stateMutability": "view",
      "type": "function"
    },
    {
      "inputs": [
        {
          "internalType": "uint256",
          "name": "tokenId",
          "type": "uint256"
        }
      ],
      "name": "burn",
      "outputs": [],
      "stateMutability": "nonpayable",
      "type": "function"
    },
    {
      "inputs": [
        {
          "internalType": "uint256",
          "name": "tokenId",
          "type": "uint256"
        }
      ],
      "name": "getApproved",
      "outputs": [
        {
          "internalType": "address",
          "name": "",
          "type": "address"
        }
      ],
      "stateMutability": "view",
      "type": "function"
    },
    {
      "inputs": [],
      "name": "getCounter",
      "outputs": [
        {
          "internalType": "uint256",
          "name": "",
          "type": "uint256"
        }
      ],
      "stateMutability": "view",
      "type": "function"
    },
    {
      "inputs": [
        {
          "internalType": "string",
          "name": "name_",
          "type": "string"
        },
        {
          "internalType": "string",
          "name": "symbol_",
          "type": "string"
        },
        {
          "internalType": "contract IEnterprise",
          "name": "enterprise",
          "type": "address"
        }
      ],
      "name": "initialize",
      "outputs": [],
      "stateMutability": "nonpayable",
      "type": "function"
    },
    {
      "inputs": [
        {
          "internalType": "string",
          "name": "name_",
          "type": "string"
        },
        {
          "internalType": "string",
          "name": "symbol_",
          "type": "string"
        }
      ],
      "name": "initialize",
      "outputs": [],
      "stateMutability": "nonpayable",
      "type": "function"
    },
    {
      "inputs": [
        {
          "internalType": "address",
          "name": "initialOwner",
          "type": "address"
        }
      ],
      "name": "initialize",
      "outputs": [],
      "stateMutability": "nonpayable",
      "type": "function"
    },
    {
      "inputs": [
        {
          "internalType": "address",
          "name": "owner",
          "type": "address"
        },
        {
          "internalType": "address",
          "name": "operator",
          "type": "address"
        }
      ],
      "name": "isApprovedForAll",
      "outputs": [
        {
          "internalType": "bool",
          "name": "",
          "type": "bool"
        }
      ],
      "stateMutability": "view",
      "type": "function"
    },
    {
      "inputs": [
        {
          "internalType": "address",
          "name": "to",
          "type": "address"
        }
      ],
      "name": "mint",
      "outputs": [
        {
          "internalType": "uint256",
          "name": "",
          "type": "uint256"
        }
      ],
      "stateMutability": "nonpayable",
      "type": "function"
    },
    {
      "inputs": [],
      "name": "name",
      "outputs": [
        {
          "internalType": "string",
          "name": "",
          "type": "string"
        }
      ],
      "stateMutability": "view",
      "type": "function"
    },
    {
      "inputs": [],
      "name": "owner",
      "outputs": [
        {
          "internalType": "address",
          "name": "",
          "type": "address"
        }
      ],
      "stateMutability": "view",
      "type": "function"
    },
    {
      "inputs": [
        {
          "internalType": "uint256",
          "name": "tokenId",
          "type": "uint256"
        }
      ],
      "name": "ownerOf",
      "outputs": [
        {
          "internalType": "address",
          "name": "",
          "type": "address"
        }
      ],
      "stateMutability": "view",
      "type": "function"
    },
    {
      "inputs": [
        {
          "internalType": "address",
          "name": "from",
          "type": "address"
        },
        {
          "internalType": "address",
          "name": "to",
          "type": "address"
        },
        {
          "internalType": "uint256",
          "name": "tokenId",
          "type": "uint256"
        }
      ],
      "name": "safeTransferFrom",
      "outputs": [],
      "stateMutability": "nonpayable",
      "type": "function"
    },
    {
      "inputs": [
        {
          "internalType": "address",
          "name": "from",
          "type": "address"
        },
        {
          "internalType": "address",
          "name": "to",
          "type": "address"
        },
        {
          "internalType": "uint256",
          "name": "tokenId",
          "type": "uint256"
        },
        {
          "internalType": "bytes",
          "name": "_data",
          "type": "bytes"
        }
      ],
      "name": "safeTransferFrom",
      "outputs": [],
      "stateMutability": "nonpayable",
      "type": "function"
    },
    {
      "inputs": [
        {
          "internalType": "address",
          "name": "operator",
          "type": "address"
        },
        {
          "internalType": "bool",
          "name": "approved",
          "type": "bool"
        }
      ],
      "name": "setApprovalForAll",
      "outputs": [],
      "stateMutability": "nonpayable",
      "type": "function"
    },
    {
      "inputs": [
        {
          "internalType": "bytes4",
          "name": "interfaceId",
          "type": "bytes4"
        }
      ],
      "name": "supportsInterface",
      "outputs": [
        {
          "internalType": "bool",
          "name": "",
          "type": "bool"
        }
      ],
      "stateMutability": "view",
      "type": "function"
    },
    {
      "inputs": [],
      "name": "symbol",
      "outputs": [
        {
          "internalType": "string",
          "name": "",
          "type": "string"
        }
      ],
      "stateMutability": "view",
      "type": "function"
    },
    {
      "inputs": [
        {
          "internalType": "uint256",
          "name": "index",
          "type": "uint256"
        }
      ],
      "name": "tokenByIndex",
      "outputs": [
        {
          "internalType": "uint256",
          "name": "",
          "type": "uint256"
        }
      ],
      "stateMutability": "view",
      "type": "function"
    },
    {
      "inputs": [
        {
          "internalType": "address",
          "name": "owner",
          "type": "address"
        },
        {
          "internalType": "uint256",
          "name": "index",
          "type": "uint256"
        }
      ],
      "name": "tokenOfOwnerByIndex",
      "outputs": [
        {
          "internalType": "uint256",
          "name": "",
          "type": "uint256"
        }
      ],
      "stateMutability": "view",
      "type": "function"
    },
    {
      "inputs": [
        {
          "internalType": "uint256",
          "name": "tokenId",
          "type": "uint256"
        }
      ],
      "name": "tokenURI",
      "outputs": [
        {
          "internalType": "string",
          "name": "",
          "type": "string"
        }
      ],
      "stateMutability": "view",
      "type": "function"
    },
    {
      "inputs": [],
      "name": "totalSupply",
      "outputs": [
        {
          "internalType": "uint256",
          "name": "",
          "type": "uint256"
        }
      ],
      "stateMutability": "view",
      "type": "function"
    },
    {
      "inputs": [
        {
          "internalType": "address",
          "name": "from",
          "type": "address"
        },
        {
          "internalType": "address",
          "name": "to",
          "type": "address"
        },
        {
          "internalType": "uint256",
          "name": "tokenId",
          "type": "uint256"
        }
      ],
      "name": "transferFrom",
      "outputs": [],
      "stateMutability": "nonpayable",
      "type": "function"
    },
    {
      "inputs": [
        {
          "internalType": "address",
          "name": "newOwner",
          "type": "address"
        }
      ],
      "name": "transferOwnership",
      "outputs": [],
      "stateMutability": "nonpayable",
      "type": "function"
    }
  ],
  "bytecode": "0x608060405234801561001057600080fd5b50612373806100206000396000f3fe608060405234801561001057600080fd5b50600436106101985760003560e01c80636352211e116100e3578063a22cb4651161008c578063c87b56dd11610066578063c87b56dd14610344578063e985e9c514610357578063f2fde38b1461039357600080fd5b8063a22cb4651461030b578063b88d4fde1461031e578063c4d66de81461033157600080fd5b80638ada066e116100bd5780638ada066e146102ea5780638da5cb5b146102f257806395d89b411461030357600080fd5b80636352211e146102b15780636a627842146102c457806370a08231146102d757600080fd5b806323b872dd1161014557806342966c681161011f57806342966c68146102785780634cd88b761461028b5780634f6ccce71461029e57600080fd5b806323b872dd1461023f5780632f745c591461025257806342842e0e1461026557600080fd5b8063081812fc11610176578063081812fc146101ef578063095ea7b31461021a57806318160ddd1461022d57600080fd5b806301ffc9a71461019d57806306fdde03146101c5578063077f224a146101da575b600080fd5b6101b06101ab366004611efe565b6103a6565b60405190151581526020015b60405180910390f35b6101cd6103ea565b6040516101bc919061218b565b6101ed6101e8366004612026565b61047c565b005b6102026101fd36600461209b565b6104b3565b6040516001600160a01b0390911681526020016101bc565b6101ed610228366004611ed3565b61054d565b6009545b6040519081526020016101bc565b6101ed61024d366004611de5565b61067f565b610231610260366004611ed3565b610706565b6101ed610273366004611de5565b6107ae565b6101ed61028636600461209b565b6107c9565b6101ed610299366004611fc5565b61082f565b6102316102ac36600461209b565b6108b2565b6102026102bf36600461209b565b610964565b6102316102d2366004611d91565b6109ef565b6102316102e5366004611d91565b610a75565b600b54610231565b6006546001600160a01b0316610202565b6101cd610b0f565b6101ed610319366004611ea2565b610b1e565b6101ed61032c366004611e25565b610be3565b6101ed61033f366004611d91565b610c71565b6101cd61035236600461209b565b610d3c565b6101b0610365366004611dad565b6001600160a01b03918216600090815260056020908152604080832093909416825291909152205460ff1690565b6101ed6103a1366004611d91565b610e25565b60006001600160e01b031982167f780e9d630000000000000000000000000000000000000000000000000000000014806103e457506103e482610f57565b92915050565b6060600080546103f990612266565b80601f016020809104026020016040519081016040528092919081815260200182805461042590612266565b80156104725780601f1061044757610100808354040283529160200191610472565b820191906000526020600020905b81548152906001019060200180831161045557829003601f168201915b5050505050905090565b61048581610c71565b61048f838361082f565b600c80546001600160a01b0319166001600160a01b03929092169190911790555050565b6000818152600260205260408120546001600160a01b03166105315760405162461bcd60e51b815260206004820152602c60248201527f4552433732313a20617070726f76656420717565727920666f72206e6f6e657860448201526b34b9ba32b73a103a37b5b2b760a11b60648201526084015b60405180910390fd5b506000908152600460205260409020546001600160a01b031690565b600061055882610964565b9050806001600160a01b0316836001600160a01b031614156105e25760405162461bcd60e51b815260206004820152602160248201527f4552433732313a20617070726f76616c20746f2063757272656e74206f776e6560448201527f72000000000000000000000000000000000000000000000000000000000000006064820152608401610528565b336001600160a01b03821614806105fe57506105fe8133610365565b6106705760405162461bcd60e51b815260206004820152603860248201527f4552433732313a20617070726f76652063616c6c6572206973206e6f74206f7760448201527f6e6572206e6f7220617070726f76656420666f7220616c6c00000000000000006064820152608401610528565b61067a8383610ff2565b505050565b6106893382611060565b6106fb5760405162461bcd60e51b815260206004820152603160248201527f4552433732313a207472616e736665722063616c6c6572206973206e6f74206f60448201527f776e6572206e6f7220617070726f7665640000000000000000000000000000006064820152608401610528565b61067a838383611157565b600061071183610a75565b82106107855760405162461bcd60e51b815260206004820152602b60248201527f455243373231456e756d657261626c653a206f776e657220696e646578206f7560448201527f74206f6620626f756e64730000000000000000000000000000000000000000006064820152608401610528565b506001600160a01b03919091166000908152600760209081526040808320938352929052205490565b61067a83838360405180602001604052806000815250610be3565b6006546001600160a01b031633146108235760405162461bcd60e51b815260206004820181905260248201527f4f776e61626c653a2063616c6c6572206973206e6f7420746865206f776e65726044820152606401610528565b61082c8161132f565b50565b6000805461083c90612266565b15905061088b5760405162461bcd60e51b815260206004820152601360248201527f416c726561647920696e697469616c697a6564000000000000000000000000006044820152606401610528565b815161089e906000906020850190611c9b565b50805161067a906001906020840190611c9b565b60006108bd60095490565b82106109315760405162461bcd60e51b815260206004820152602c60248201527f455243373231456e756d657261626c653a20676c6f62616c20696e646578206f60448201527f7574206f6620626f756e647300000000000000000000000000000000000000006064820152608401610528565b6009828154811061095257634e487b7160e01b600052603260045260246000fd5b90600052602060002001549050919050565b6000818152600260205260408120546001600160a01b0316806103e45760405162461bcd60e51b815260206004820152602960248201527f4552433732313a206f776e657220717565727920666f72206e6f6e657869737460448201527f656e7420746f6b656e00000000000000000000000000000000000000000000006064820152608401610528565b6006546000906001600160a01b03163314610a4c5760405162461bcd60e51b815260206004820181905260248201527f4f776e61626c653a2063616c6c6572206973206e6f7420746865206f776e65726044820152606401610528565b600b54610a5983826113d6565b600b8054906000610a69836122a1565b90915550909392505050565b60006001600160a01b038216610af35760405162461bcd60e51b815260206004820152602a60248201527f4552433732313a2062616c616e636520717565727920666f7220746865207a6560448201527f726f2061646472657373000000000000000000000000000000000000000000006064820152608401610528565b506001600160a01b031660009081526003602052604090205490565b6060600180546103f990612266565b6001600160a01b038216331415610b775760405162461bcd60e51b815260206004820152601960248201527f4552433732313a20617070726f766520746f2063616c6c6572000000000000006044820152606401610528565b3360008181526005602090815260408083206001600160a01b03871680855290835292819020805460ff191686151590811790915590519081529192917f17307eab39ab6107e8899845ad3d59bd9653f200f220920489ca2b5937696c31910160405180910390a35050565b610bed3383611060565b610c5f5760405162461bcd60e51b815260206004820152603160248201527f4552433732313a207472616e736665722063616c6c6572206973206e6f74206f60448201527f776e6572206e6f7220617070726f7665640000000000000000000000000000006064820152608401610528565b610c6b848484846113f4565b50505050565b6006546001600160a01b031615610cf05760405162461bcd60e51b815260206004820152602960248201527f496e697469616c697a61626c654f776e61626c653a20616c726561647920696e60448201527f697469616c697a656400000000000000000000000000000000000000000000006064820152608401610528565b600680546001600160a01b0319166001600160a01b0383169081179091556040516000907f8be0079c531659141344cd1fd0a4f28419497f9722a3daafe3b4186f6b6457e0908290a350565b6000818152600260205260409020546060906001600160a01b0316610dc95760405162461bcd60e51b815260206004820152602f60248201527f4552433732314d657461646174613a2055524920717565727920666f72206e6f60448201527f6e6578697374656e7420746f6b656e00000000000000000000000000000000006064820152608401610528565b6000610dd3611472565b90506000815111610df35760405180602001604052806000815250610e1e565b80610dfd846115b7565b604051602001610e0e9291906120df565b6040516020818303038152906040525b9392505050565b6006546001600160a01b03163314610e7f5760405162461bcd60e51b815260206004820181905260248201527f4f776e61626c653a2063616c6c6572206973206e6f7420746865206f776e65726044820152606401610528565b6001600160a01b038116610efb5760405162461bcd60e51b815260206004820152602660248201527f4f776e61626c653a206e6577206f776e657220697320746865207a65726f206160448201527f64647265737300000000000000000000000000000000000000000000000000006064820152608401610528565b6006546040516001600160a01b038084169216907f8be0079c531659141344cd1fd0a4f28419497f9722a3daafe3b4186f6b6457e090600090a3600680546001600160a01b0319166001600160a01b0392909216919091179055565b60006001600160e01b031982167f80ac58cd000000000000000000000000000000000000000000000000000000001480610fba57506001600160e01b031982167f5b5e139f00000000000000000000000000000000000000000000000000000000145b806103e457507f01ffc9a7000000000000000000000000000000000000000000000000000000006001600160e01b03198316146103e4565b600081815260046020526040902080546001600160a01b0319166001600160a01b038416908117909155819061102782610964565b6001600160a01b03167f8c5be1e5ebec7d5bd14f71427d1e84f3dd0314c0f7b2291e5b200ac8c7c3b92560405160405180910390a45050565b6000818152600260205260408120546001600160a01b03166110d95760405162461bcd60e51b815260206004820152602c60248201527f4552433732313a206f70657261746f7220717565727920666f72206e6f6e657860448201526b34b9ba32b73a103a37b5b2b760a11b6064820152608401610528565b60006110e483610964565b9050806001600160a01b0316846001600160a01b0316148061111f5750836001600160a01b0316611114846104b3565b6001600160a01b0316145b8061114f57506001600160a01b0380821660009081526005602090815260408083209388168352929052205460ff165b949350505050565b826001600160a01b031661116a82610964565b6001600160a01b0316146111e65760405162461bcd60e51b815260206004820152602960248201527f4552433732313a207472616e73666572206f6620746f6b656e2074686174206960448201527f73206e6f74206f776e00000000000000000000000000000000000000000000006064820152608401610528565b6001600160a01b0382166112615760405162461bcd60e51b8152602060048201526024808201527f4552433732313a207472616e7366657220746f20746865207a65726f2061646460448201527f72657373000000000000000000000000000000000000000000000000000000006064820152608401610528565b61126c838383611705565b611277600082610ff2565b6001600160a01b03831660009081526003602052604081208054600192906112a0908490612223565b90915550506001600160a01b03821660009081526003602052604081208054600192906112ce9084906121f7565b909155505060008181526002602052604080822080546001600160a01b0319166001600160a01b0386811691821790925591518493918716917fddf252ad1be2c89b69c2b068fc378daa952ba7f163c4a11628f55a4df523b3ef91a4505050565b600061133a82610964565b905061134881600084611705565b611353600083610ff2565b6001600160a01b038116600090815260036020526040812080546001929061137c908490612223565b909155505060008281526002602052604080822080546001600160a01b0319169055518391906001600160a01b038416907fddf252ad1be2c89b69c2b068fc378daa952ba7f163c4a11628f55a4df523b3ef908390a45050565b6113f08282604051806020016040528060008152506117bd565b5050565b6113ff848484611157565b61140b8484848461183b565b610c6b5760405162461bcd60e51b815260206004820152603260248201527f4552433732313a207472616e7366657220746f206e6f6e20455243373231526560448201527131b2b4bb32b91034b6b83632b6b2b73a32b960711b6064820152608401610528565b60606000600c60009054906101000a90046001600160a01b03166001600160a01b0316639b7ae5ec6040518163ffffffff1660e01b815260040160206040518083038186803b1580156114c457600080fd5b505afa1580156114d8573d6000803e3d6000fd5b505050506040513d601f19601f820116820180604052508101906114fc9190611f36565b6001600160a01b0316630cac36b26040518163ffffffff1660e01b815260040160006040518083038186803b15801561153457600080fd5b505afa158015611548573d6000803e3d6000fd5b505050506040513d6000823e601f3d908101601f191682016040526115709190810190611f52565b9050600081511161159057604051806020016040528060008152506115b1565b806040516020016115a1919061210e565b6040516020818303038152906040525b91505090565b6060816115f757505060408051808201909152600181527f3000000000000000000000000000000000000000000000000000000000000000602082015290565b8160005b8115611621578061160b816122a1565b915061161a9050600a8361220f565b91506115fb565b60008167ffffffffffffffff81111561164a57634e487b7160e01b600052604160045260246000fd5b6040519080825280601f01601f191660200182016040528015611674576020820181803683370190505b5090505b841561114f57611689600183612223565b9150611696600a866122bc565b6116a19060306121f7565b60f81b8183815181106116c457634e487b7160e01b600052603260045260246000fd5b60200101907effffffffffffffffffffffffffffffffffffffffffffffffffffffffffffff1916908160001a9053506116fe600a8661220f565b9450611678565b6001600160a01b0383166117605761175b81600980546000838152600a60205260408120829055600182018355919091527f6e1540171b6c0c960b71a7020d9f60077f6af931a8bbf590da0223dacf75c7af0155565b611783565b816001600160a01b0316836001600160a01b031614611783576117838382611993565b6001600160a01b03821661179a5761067a81611a30565b826001600160a01b0316826001600160a01b03161461067a5761067a8282611b09565b6117c78383611b4d565b6117d4600084848461183b565b61067a5760405162461bcd60e51b815260206004820152603260248201527f4552433732313a207472616e7366657220746f206e6f6e20455243373231526560448201527131b2b4bb32b91034b6b83632b6b2b73a32b960711b6064820152608401610528565b60006001600160a01b0384163b1561198857604051630a85bd0160e11b81526001600160a01b0385169063150b7a029061187f90339089908890889060040161214f565b602060405180830381600087803b15801561189957600080fd5b505af19250505080156118c9575060408051601f3d908101601f191682019092526118c691810190611f1a565b60015b61196e573d8080156118f7576040519150601f19603f3d011682016040523d82523d6000602084013e6118fc565b606091505b5080516119665760405162461bcd60e51b815260206004820152603260248201527f4552433732313a207472616e7366657220746f206e6f6e20455243373231526560448201527131b2b4bb32b91034b6b83632b6b2b73a32b960711b6064820152608401610528565b805181602001fd5b6001600160e01b031916630a85bd0160e11b14905061114f565b506001949350505050565b600060016119a084610a75565b6119aa9190612223565b6000838152600860205260409020549091508082146119fd576001600160a01b03841660009081526007602090815260408083208584528252808320548484528184208190558352600890915290208190555b5060009182526008602090815260408084208490556001600160a01b039094168352600781528383209183525290812055565b600954600090611a4290600190612223565b6000838152600a602052604081205460098054939450909284908110611a7857634e487b7160e01b600052603260045260246000fd5b906000526020600020015490508060098381548110611aa757634e487b7160e01b600052603260045260246000fd5b6000918252602080832090910192909255828152600a90915260408082208490558582528120556009805480611aed57634e487b7160e01b600052603160045260246000fd5b6001900381819060005260206000200160009055905550505050565b6000611b1483610a75565b6001600160a01b039093166000908152600760209081526040808320868452825280832085905593825260089052919091209190915550565b6001600160a01b038216611ba35760405162461bcd60e51b815260206004820181905260248201527f4552433732313a206d696e7420746f20746865207a65726f20616464726573736044820152606401610528565b6000818152600260205260409020546001600160a01b031615611c085760405162461bcd60e51b815260206004820152601c60248201527f4552433732313a20746f6b656e20616c7265616479206d696e746564000000006044820152606401610528565b611c1460008383611705565b6001600160a01b0382166000908152600360205260408120805460019290611c3d9084906121f7565b909155505060008181526002602052604080822080546001600160a01b0319166001600160a01b03861690811790915590518392907fddf252ad1be2c89b69c2b068fc378daa952ba7f163c4a11628f55a4df523b3ef908290a45050565b828054611ca790612266565b90600052602060002090601f016020900481019282611cc95760008555611d0f565b82601f10611ce257805160ff1916838001178555611d0f565b82800160010185558215611d0f579182015b82811115611d0f578251825591602001919060010190611cf4565b50611d1b929150611d1f565b5090565b5b80821115611d1b5760008155600101611d20565b6000611d47611d42846121cf565b61219e565b9050828152838383011115611d5b57600080fd5b828260208301376000602084830101529392505050565b600082601f830112611d82578081fd5b610e1e83833560208501611d34565b600060208284031215611da2578081fd5b8135610e1e81612312565b60008060408385031215611dbf578081fd5b8235611dca81612312565b91506020830135611dda81612312565b809150509250929050565b600080600060608486031215611df9578081fd5b8335611e0481612312565b92506020840135611e1481612312565b929592945050506040919091013590565b60008060008060808587031215611e3a578081fd5b8435611e4581612312565b93506020850135611e5581612312565b925060408501359150606085013567ffffffffffffffff811115611e77578182fd5b8501601f81018713611e87578182fd5b611e9687823560208401611d34565b91505092959194509250565b60008060408385031215611eb4578182fd5b8235611ebf81612312565b915060208301358015158114611dda578182fd5b60008060408385031215611ee5578182fd5b8235611ef081612312565b946020939093013593505050565b600060208284031215611f0f578081fd5b8135610e1e81612327565b600060208284031215611f2b578081fd5b8151610e1e81612327565b600060208284031215611f47578081fd5b8151610e1e81612312565b600060208284031215611f63578081fd5b815167ffffffffffffffff811115611f79578182fd5b8201601f81018413611f89578182fd5b8051611f97611d42826121cf565b818152856020838501011115611fab578384fd5b611fbc82602083016020860161223a565b95945050505050565b60008060408385031215611fd7578182fd5b823567ffffffffffffffff80821115611fee578384fd5b611ffa86838701611d72565b9350602085013591508082111561200f578283fd5b5061201c85828601611d72565b9150509250929050565b60008060006060848603121561203a578081fd5b833567ffffffffffffffff80821115612051578283fd5b61205d87838801611d72565b94506020860135915080821115612072578283fd5b5061207f86828701611d72565b925050604084013561209081612312565b809150509250925092565b6000602082840312156120ac578081fd5b5035919050565b600081518084526120cb81602086016020860161223a565b601f01601f19169290920160200192915050565b600083516120f181846020880161223a565b83519083019061210581836020880161223a565b01949350505050565b6000825161212081846020870161223a565b7f696e7465726573742f0000000000000000000000000000000000000000000000920191825250600901919050565b60006001600160a01b0380871683528086166020840152508360408301526080606083015261218160808301846120b3565b9695505050505050565b602081526000610e1e60208301846120b3565b604051601f8201601f1916810167ffffffffffffffff811182821017156121c7576121c76122fc565b604052919050565b600067ffffffffffffffff8211156121e9576121e96122fc565b50601f01601f191660200190565b6000821982111561220a5761220a6122d0565b500190565b60008261221e5761221e6122e6565b500490565b600082821015612235576122356122d0565b500390565b60005b8381101561225557818101518382015260200161223d565b83811115610c6b5750506000910152565b600181811c9082168061227a57607f821691505b6020821081141561229b57634e487b7160e01b600052602260045260246000fd5b50919050565b60006000198214156122b5576122b56122d0565b5060010190565b6000826122cb576122cb6122e6565b500690565b634e487b7160e01b600052601160045260246000fd5b634e487b7160e01b600052601260045260246000fd5b634e487b7160e01b600052604160045260246000fd5b6001600160a01b038116811461082c57600080fd5b6001600160e01b03198116811461082c57600080fdfea26469706673582212204ad47af2168f0a3851f7f22ee07f68e860d74693bfd7efa94391e600a9c6ee5764736f6c63430008040033",
  "linkReferences": {},
  "deployedLinkReferences": {}
}