{
  "_format": "hh-sol-artifact-1",
  "contractName": "BorrowToken",
  "sourceName": "contracts/iq/BorrowToken.sol",
  "abi": [
    {
      "anonymous": false,
      "inputs": [
        {
          "indexed": true,
          "internalType": "address",
          "name": "owner",
          "type": "address"
        },
        {
          "indexed": true,
          "internalType": "address",
          "name": "approved",
          "type": "address"
        },
        {
          "indexed": true,
          "internalType": "uint256",
          "name": "tokenId",
          "type": "uint256"
        }
      ],
      "name": "Approval",
      "type": "event"
    },
    {
      "anonymous": false,
      "inputs": [
        {
          "indexed": true,
          "internalType": "address",
          "name": "owner",
          "type": "address"
        },
        {
          "indexed": true,
          "internalType": "address",
          "name": "operator",
          "type": "address"
        },
        {
          "indexed": false,
          "internalType": "bool",
          "name": "approved",
          "type": "bool"
        }
      ],
      "name": "ApprovalForAll",
      "type": "event"
    },
    {
      "anonymous": false,
      "inputs": [
        {
          "indexed": true,
          "internalType": "address",
          "name": "previousOwner",
          "type": "address"
        },
        {
          "indexed": true,
          "internalType": "address",
          "name": "newOwner",
          "type": "address"
        }
      ],
      "name": "OwnershipTransferred",
      "type": "event"
    },
    {
      "anonymous": false,
      "inputs": [
        {
          "indexed": true,
          "internalType": "address",
          "name": "from",
          "type": "address"
        },
        {
          "indexed": true,
          "internalType": "address",
          "name": "to",
          "type": "address"
        },
        {
          "indexed": true,
          "internalType": "uint256",
          "name": "tokenId",
          "type": "uint256"
        }
      ],
      "name": "Transfer",
      "type": "event"
    },
    {
      "inputs": [
        {
          "internalType": "address",
          "name": "newOwner",
          "type": "address"
        }
      ],
      "name": "addOwner",
      "outputs": [],
      "stateMutability": "nonpayable",
      "type": "function"
    },
    {
      "inputs": [
        {
          "internalType": "address",
          "name": "to",
          "type": "address"
        },
        {
          "internalType": "uint256",
          "name": "tokenId",
          "type": "uint256"
        }
      ],
      "name": "approve",
      "outputs": [],
      "stateMutability": "nonpayable",
      "type": "function"
    },
    {
      "inputs": [
        {
          "internalType": "address",
          "name": "owner",
          "type": "address"
        }
      ],
      "name": "balanceOf",
      "outputs": [
        {
          "internalType": "uint256",
          "name": "",
          "type": "uint256"
        }
      ],
      "stateMutability": "view",
      "type": "function"
    },
    {
      "inputs": [],
      "name": "baseURI",
      "outputs": [
        {
          "internalType": "string",
          "name": "",
          "type": "string"
        }
      ],
      "stateMutability": "view",
      "type": "function"
    },
    {
      "inputs": [
        {
          "internalType": "uint256",
          "name": "tokenId",
          "type": "uint256"
        }
      ],
      "name": "burn",
      "outputs": [],
      "stateMutability": "nonpayable",
      "type": "function"
    },
    {
      "inputs": [
        {
          "internalType": "uint256",
          "name": "tokenId",
          "type": "uint256"
        }
      ],
      "name": "getApproved",
      "outputs": [
        {
          "internalType": "address",
          "name": "",
          "type": "address"
        }
      ],
      "stateMutability": "view",
      "type": "function"
    },
    {
      "inputs": [
        {
          "internalType": "contract IEnterprise",
          "name": "enterprise",
          "type": "address"
        },
        {
          "internalType": "string",
          "name": "name",
          "type": "string"
        },
        {
          "internalType": "string",
          "name": "symbol",
          "type": "string"
        },
        {
          "internalType": "string",
          "name": "baseUri",
          "type": "string"
        },
        {
          "internalType": "address",
          "name": "owner",
          "type": "address"
        }
      ],
      "name": "initialize",
      "outputs": [],
      "stateMutability": "nonpayable",
      "type": "function"
    },
    {
      "inputs": [
        {
          "internalType": "string",
          "name": "name_",
          "type": "string"
        },
        {
          "internalType": "string",
          "name": "symbol_",
          "type": "string"
        }
      ],
      "name": "initialize",
      "outputs": [],
      "stateMutability": "nonpayable",
      "type": "function"
    },
    {
      "inputs": [
        {
          "internalType": "address",
          "name": "initialOwner",
          "type": "address"
        }
      ],
      "name": "initialize",
      "outputs": [],
      "stateMutability": "nonpayable",
      "type": "function"
    },
    {
      "inputs": [
        {
          "internalType": "address",
          "name": "owner",
          "type": "address"
        },
        {
          "internalType": "address",
          "name": "operator",
          "type": "address"
        }
      ],
      "name": "isApprovedForAll",
      "outputs": [
        {
          "internalType": "bool",
          "name": "",
          "type": "bool"
        }
      ],
      "stateMutability": "view",
      "type": "function"
    },
    {
      "inputs": [
        {
          "internalType": "address",
          "name": "account",
          "type": "address"
        }
      ],
      "name": "isOwner",
      "outputs": [
        {
          "internalType": "bool",
          "name": "",
          "type": "bool"
        }
      ],
      "stateMutability": "view",
      "type": "function"
    },
    {
      "inputs": [
        {
          "internalType": "address",
          "name": "to",
          "type": "address"
        }
      ],
      "name": "mint",
      "outputs": [
        {
          "internalType": "uint256",
          "name": "",
          "type": "uint256"
        }
      ],
      "stateMutability": "nonpayable",
      "type": "function"
    },
    {
      "inputs": [],
      "name": "name",
      "outputs": [
        {
          "internalType": "string",
          "name": "",
          "type": "string"
        }
      ],
      "stateMutability": "view",
      "type": "function"
    },
    {
      "inputs": [
        {
          "internalType": "uint256",
          "name": "tokenId",
          "type": "uint256"
        }
      ],
      "name": "ownerOf",
      "outputs": [
        {
          "internalType": "address",
          "name": "",
          "type": "address"
        }
      ],
      "stateMutability": "view",
      "type": "function"
    },
    {
      "inputs": [],
      "name": "renounceOwnership",
      "outputs": [],
      "stateMutability": "nonpayable",
      "type": "function"
    },
    {
      "inputs": [
        {
          "internalType": "address",
          "name": "from",
          "type": "address"
        },
        {
          "internalType": "address",
          "name": "to",
          "type": "address"
        },
        {
          "internalType": "uint256",
          "name": "tokenId",
          "type": "uint256"
        }
      ],
      "name": "safeTransferFrom",
      "outputs": [],
      "stateMutability": "nonpayable",
      "type": "function"
    },
    {
      "inputs": [
        {
          "internalType": "address",
          "name": "from",
          "type": "address"
        },
        {
          "internalType": "address",
          "name": "to",
          "type": "address"
        },
        {
          "internalType": "uint256",
          "name": "tokenId",
          "type": "uint256"
        },
        {
          "internalType": "bytes",
          "name": "_data",
          "type": "bytes"
        }
      ],
      "name": "safeTransferFrom",
      "outputs": [],
      "stateMutability": "nonpayable",
      "type": "function"
    },
    {
      "inputs": [
        {
          "internalType": "address",
          "name": "operator",
          "type": "address"
        },
        {
          "internalType": "bool",
          "name": "approved",
          "type": "bool"
        }
      ],
      "name": "setApprovalForAll",
      "outputs": [],
      "stateMutability": "nonpayable",
      "type": "function"
    },
    {
      "inputs": [
        {
          "internalType": "bytes4",
          "name": "interfaceId",
          "type": "bytes4"
        }
      ],
      "name": "supportsInterface",
      "outputs": [
        {
          "internalType": "bool",
          "name": "",
          "type": "bool"
        }
      ],
      "stateMutability": "view",
      "type": "function"
    },
    {
      "inputs": [],
      "name": "symbol",
      "outputs": [
        {
          "internalType": "string",
          "name": "",
          "type": "string"
        }
      ],
      "stateMutability": "view",
      "type": "function"
    },
    {
      "inputs": [
        {
          "internalType": "uint256",
          "name": "index",
          "type": "uint256"
        }
      ],
      "name": "tokenByIndex",
      "outputs": [
        {
          "internalType": "uint256",
          "name": "",
          "type": "uint256"
        }
      ],
      "stateMutability": "view",
      "type": "function"
    },
    {
      "inputs": [
        {
          "internalType": "address",
          "name": "owner",
          "type": "address"
        },
        {
          "internalType": "uint256",
          "name": "index",
          "type": "uint256"
        }
      ],
      "name": "tokenOfOwnerByIndex",
      "outputs": [
        {
          "internalType": "uint256",
          "name": "",
          "type": "uint256"
        }
      ],
      "stateMutability": "view",
      "type": "function"
    },
    {
      "inputs": [
        {
          "internalType": "uint256",
          "name": "tokenId",
          "type": "uint256"
        }
      ],
      "name": "tokenURI",
      "outputs": [
        {
          "internalType": "string",
          "name": "",
          "type": "string"
        }
      ],
      "stateMutability": "view",
      "type": "function"
    },
    {
      "inputs": [],
      "name": "totalSupply",
      "outputs": [
        {
          "internalType": "uint256",
          "name": "",
          "type": "uint256"
        }
      ],
      "stateMutability": "view",
      "type": "function"
    },
    {
      "inputs": [
        {
          "internalType": "address",
          "name": "from",
          "type": "address"
        },
        {
          "internalType": "address",
          "name": "to",
          "type": "address"
        },
        {
          "internalType": "uint256",
          "name": "tokenId",
          "type": "uint256"
        }
      ],
      "name": "transferFrom",
      "outputs": [],
      "stateMutability": "nonpayable",
      "type": "function"
    },
    {
      "inputs": [
        {
          "internalType": "address",
          "name": "currentOwner",
          "type": "address"
        },
        {
          "internalType": "address",
          "name": "newOwner",
          "type": "address"
        }
      ],
      "name": "transferOwnership",
      "outputs": [],
      "stateMutability": "nonpayable",
      "type": "function"
    }
  ],
  "bytecode": "0x60806040526001600d5534801561001557600080fd5b506100266301ffc9a760e01b61002b565b6100af565b6001600160e01b0319808216141561008a576040805162461bcd60e51b815260206004820152601c60248201527f4552433136353a20696e76616c696420696e7465726661636520696400000000604482015290519081900360640190fd5b6001600160e01b0319166000908152602081905260409020805460ff19166001179055565b612c3e80620000bf6000396000f3fe608060405234801561001057600080fd5b50600436106101ae5760003560e01c80636352211e116100ee578063715018a611610097578063b88d4fde11610071578063b88d4fde1461035d578063c4d66de814610370578063c87b56dd14610383578063e985e9c514610396576101ae565b8063715018a61461033a57806395d89b4114610342578063a22cb4651461034a576101ae565b80636d435421116100c85780636d435421146103015780637065cb481461031457806370a0823114610327576101ae565b80636352211e146102d35780636a627842146102e65780636c0360eb146102f9576101ae565b806323b872dd1161015b57806342842e0e1161013557806342842e0e1461028757806342966c681461029a5780634cd88b76146102ad5780634f6ccce7146102c0576101ae565b806323b872dd1461024e5780632f54bf6e146102615780632f745c5914610274576101ae565b806308277dda1161018c57806308277dda14610211578063095ea7b31461022657806318160ddd14610239576101ae565b806301ffc9a7146101b357806306fdde03146101dc578063081812fc146101f1575b600080fd5b6101c66101c136600461267e565b6103a9565b6040516101d391906128d1565b60405180910390f35b6101e46103cc565b6040516101d391906128dc565b6102046101ff36600461283f565b610462565b6040516101d39190612857565b61022461021f3660046126a6565b6104c4565b005b610224610234366004612637565b610514565b6102416105ea565b6040516101d39190612966565b61022461025c36600461254d565b6105fb565b6101c661026f3660046124f9565b610652565b610241610282366004612637565b610670565b61022461029536600461254d565b61069b565b6102246102a836600461283f565b6106b6565b6102246102bb366004612752565b61072c565b6102416102ce36600461283f565b61083b565b6102046102e136600461283f565b610851565b6102416102f43660046124f9565b610879565b6101e46108fe565b61022461030f366004612515565b61095f565b6102246103223660046124f9565b610ae4565b6102416103353660046124f9565b610bf8565b610224610c60565b6101e4610d17565b61022461035836600461260a565b610d78565b61022461036b36600461258d565b610e7d565b61022461037e3660046124f9565b610edb565b6101e461039136600461283f565b610f6e565b6101c66103a4366004612515565b6111ef565b6001600160e01b0319811660009081526020819052604090205460ff165b919050565b60088054604080516020601f60026000196101006001881615020190951694909404938401819004810282018101909252828152606093909290918301828280156104585780601f1061042d57610100808354040283529160200191610458565b820191906000526020600020905b81548152906001019060200180831161043b57829003601f168201915b5050505050905090565b600061046d8261121d565b6104a85760405162461bcd60e51b815260040180806020018281038252602c815260200180612b0a602c913960400191505060405180910390fd5b506000908152600660205260409020546001600160a01b031690565b6104cd81610edb565b6104d7848461072c565b6104e08261122a565b5050600c805473ffffffffffffffffffffffffffffffffffffffff19166001600160a01b0394909416939093179092555050565b600061051f82610851565b9050806001600160a01b0316836001600160a01b031614156105725760405162461bcd60e51b8152600401808060200182810382526021815260200180612bb76021913960400191505060405180910390fd5b806001600160a01b031661058461123d565b6001600160a01b031614806105a057506105a0816103a461123d565b6105db5760405162461bcd60e51b8152600401808060200182810382526038815260200180612a5d6038913960400191505060405180910390fd5b6105e58383611241565b505050565b60006105f660046112bc565b905090565b61060c61060661123d565b826112c7565b6106475760405162461bcd60e51b8152600401808060200182810382526031815260200180612bd86031913960400191505060405180910390fd5b6105e583838361136b565b6001600160a01b031660009081526001602052604090205460ff1690565b6001600160a01b038216600090815260036020526040812061069290836114b7565b90505b92915050565b6105e583838360405180602001604052806000815250610e7d565b3360009081526001602081905260409091205460ff16151514610720576040805162461bcd60e51b815260206004820181905260248201527f4f776e61626c653a2063616c6c6572206973206e6f7420746865206f776e6572604482015290519081900360640190fd5b610729816114c3565b50565b6008546002600019610100600184161502019091160415610794576040805162461bcd60e51b815260206004820152601b60248201527f436f6e747261637420616c726561647920696e7469616c697a65640000000000604482015290519081900360640190fd5b81516107a7906008906020850190612381565b5080516107bb906009906020840190612381565b506107e57f80ac58cd00000000000000000000000000000000000000000000000000000000611590565b61080e7f5b5e139f00000000000000000000000000000000000000000000000000000000611590565b6108377f780e9d6300000000000000000000000000000000000000000000000000000000611590565b5050565b600080610849600484611614565b509392505050565b600061069582604051806060016040528060298152602001612abf6029913960049190611630565b33600090815260016020819052604082205460ff161515146108e2576040805162461bcd60e51b815260206004820181905260248201527f4f776e61626c653a2063616c6c6572206973206e6f7420746865206f776e6572604482015290519081900360640190fd5b600d546108ef8382611647565b600d8054600101905592915050565b600b8054604080516020601f60026000196101006001881615020190951694909404938401819004810282018101909252828152606093909290918301828280156104585780601f1061042d57610100808354040283529160200191610458565b3360009081526001602081905260409091205460ff161515146109c9576040805162461bcd60e51b815260206004820181905260248201527f4f776e61626c653a2063616c6c6572206973206e6f7420746865206f776e6572604482015290519081900360640190fd5b6001600160a01b038116610a0e5760405162461bcd60e51b81526004018080602001828103825260268152602001806129e76026913960400191505060405180910390fd5b610a1782610652565b610a68576040805162461bcd60e51b815260206004820152600c60248201527f4e6f7420616e206f776e65720000000000000000000000000000000000000000604482015290519081900360640190fd5b806001600160a01b0316826001600160a01b03167f8be0079c531659141344cd1fd0a4f28419497f9722a3daafe3b4186f6b6457e060405160405180910390a36001600160a01b039182166000908152600160208190526040808320805460ff1990811690915593909416825292902080549091169091179055565b3360009081526001602081905260409091205460ff16151514610b4e576040805162461bcd60e51b815260206004820181905260248201527f4f776e61626c653a2063616c6c6572206973206e6f7420746865206f776e6572604482015290519081900360640190fd5b6001600160a01b038116610b935760405162461bcd60e51b81526004018080602001828103825260268152602001806129e76026913960400191505060405180910390fd5b6040516001600160a01b038216906000907f8be0079c531659141344cd1fd0a4f28419497f9722a3daafe3b4186f6b6457e0908290a36001600160a01b03166000908152600160208190526040909120805460ff191682179055600280549091019055565b60006001600160a01b038216610c3f5760405162461bcd60e51b815260040180806020018281038252602a815260200180612a95602a913960400191505060405180910390fd5b6001600160a01b0382166000908152600360205260409020610695906112bc565b3360009081526001602081905260409091205460ff16151514610cca576040805162461bcd60e51b815260206004820181905260248201527f4f776e61626c653a2063616c6c6572206973206e6f7420746865206f776e6572604482015290519081900360640190fd5b6002805460001901905533600081815260016020526040808220805460ff19169055519091907f8be0079c531659141344cd1fd0a4f28419497f9722a3daafe3b4186f6b6457e0908390a3565b60098054604080516020601f60026000196101006001881615020190951694909404938401819004810282018101909252828152606093909290918301828280156104585780601f1061042d57610100808354040283529160200191610458565b610d8061123d565b6001600160a01b0316826001600160a01b03161415610de6576040805162461bcd60e51b815260206004820152601960248201527f4552433732313a20617070726f766520746f2063616c6c657200000000000000604482015290519081900360640190fd5b8060076000610df361123d565b6001600160a01b03908116825260208083019390935260409182016000908120918716808252919093529120805460ff191692151592909217909155610e3761123d565b6001600160a01b03167f17307eab39ab6107e8899845ad3d59bd9653f200f220920489ca2b5937696c318360405180821515815260200191505060405180910390a35050565b610e8e610e8861123d565b836112c7565b610ec95760405162461bcd60e51b8152600401808060200182810382526031815260200180612bd86031913960400191505060405180910390fd5b610ed584848484611661565b50505050565b60025415610f1a5760405162461bcd60e51b8152600401808060200182810382526029815260200180612b366029913960400191505060405180910390fd5b6001600160a01b0381166000818152600160208190526040808320805460ff191683179055600291909155517f8be0079c531659141344cd1fd0a4f28419497f9722a3daafe3b4186f6b6457e0908290a350565b6060610f798261121d565b610fb45760405162461bcd60e51b815260040180806020018281038252602f815260200180612b88602f913960400191505060405180910390fd5b6000828152600a602090815260408083208054825160026001831615610100026000190190921691909104601f8101859004850282018501909352828152929091908301828280156110475780601f1061101c57610100808354040283529160200191611047565b820191906000526020600020905b81548152906001019060200180831161102a57829003601f168201915b5050505050905060006110586108fe565b905080516000141561106c575090506103c7565b81511561112d5780826040516020018083805190602001908083835b602083106110a75780518252601f199092019160209182019101611088565b51815160209384036101000a600019018019909216911617905285519190930192850191508083835b602083106110ef5780518252601f1990920191602091820191016110d0565b6001836020036101000a03801982511681845116808217855250505050505090500192505050604051602081830303815290604052925050506103c7565b80611137856116b3565b6040516020018083805190602001908083835b602083106111695780518252601f19909201916020918201910161114a565b51815160209384036101000a600019018019909216911617905285519190930192850191508083835b602083106111b15780518252601f199092019160209182019101611192565b6001836020036101000a0380198251168184511680821785525050505050509050019250505060405160208183030381529060405292505050919050565b6001600160a01b03918216600090815260076020908152604080832093909416825291909152205460ff1690565b60006106956004836117c2565b805161083790600b906020840190612381565b3390565b6000818152600660205260409020805473ffffffffffffffffffffffffffffffffffffffff19166001600160a01b038416908117909155819061128382610851565b6001600160a01b03167f8c5be1e5ebec7d5bd14f71427d1e84f3dd0314c0f7b2291e5b200ac8c7c3b92560405160405180910390a45050565b6000610695826117ce565b60006112d28261121d565b61130d5760405162461bcd60e51b815260040180806020018281038252602c815260200180612a31602c913960400191505060405180910390fd5b600061131883610851565b9050806001600160a01b0316846001600160a01b031614806113535750836001600160a01b031661134884610462565b6001600160a01b0316145b80611363575061136381856111ef565b949350505050565b826001600160a01b031661137e82610851565b6001600160a01b0316146113c35760405162461bcd60e51b8152600401808060200182810382526029815260200180612b5f6029913960400191505060405180910390fd5b6001600160a01b0382166114085760405162461bcd60e51b8152600401808060200182810382526024815260200180612a0d6024913960400191505060405180910390fd5b6114138383836117d2565b61141e600082611241565b6001600160a01b03831660009081526003602052604090206114409082611a68565b506001600160a01b03821660009081526003602052604090206114639082611a74565b5061147060048284611a80565b5080826001600160a01b0316846001600160a01b03167fddf252ad1be2c89b69c2b068fc378daa952ba7f163c4a11628f55a4df523b3ef60405160405180910390a4505050565b60006106928383611a96565b60006114ce82610851565b90506114dc816000846117d2565b6114e7600083611241565b6000828152600a60205260409020546002600019610100600184161502019091160415611525576000828152600a602052604081206115259161240d565b6001600160a01b03811660009081526003602052604090206115479083611a68565b50611553600483611afa565b5060405182906000906001600160a01b038416907fddf252ad1be2c89b69c2b068fc378daa952ba7f163c4a11628f55a4df523b3ef908390a45050565b6001600160e01b031980821614156115ef576040805162461bcd60e51b815260206004820152601c60248201527f4552433136353a20696e76616c696420696e7465726661636520696400000000604482015290519081900360640190fd5b6001600160e01b0319166000908152602081905260409020805460ff19166001179055565b60008080806116238686611b06565b9097909650945050505050565b600061163d848484611b81565b90505b9392505050565b610837828260405180602001604052806000815250611c4b565b61166c84848461136b565b61167884848484611c9d565b610ed55760405162461bcd60e51b81526004018080602001828103825260328152602001806129b56032913960400191505060405180910390fd5b6060816116f4575060408051808201909152600181527f300000000000000000000000000000000000000000000000000000000000000060208201526103c7565b8160005b811561170c57600101600a820491506116f8565b60008167ffffffffffffffff8111801561172557600080fd5b506040519080825280601f01601f191660200182016040528015611750576020820181803683370190505b50859350905060001982015b83156117b957600a840660300160f81b8282806001900393508151811061177f57fe5b60200101907effffffffffffffffffffffffffffffffffffffffffffffffffffffffffffff1916908160001a905350600a8404935061175c565b50949350505050565b60006106928383611e2f565b5490565b600c546040517f0e1373680000000000000000000000000000000000000000000000000000000081526000916001600160a01b031690630e1373689061181c908590600401612966565b60806040518083038186803b15801561183457600080fd5b505afa158015611848573d6000803e3d6000fd5b505050506040513d601f19601f8201168201806040525081019061186c91906127b3565b9050806040015163ffffffff16421115806118945750600c546001600160a01b038481169116145b806118a657506001600160a01b038316155b6118cb5760405162461bcd60e51b81526004016118c29061292f565b60405180910390fd5b600c546001600160a01b038481169116141561196157600c546040517fd3ee5e8b0000000000000000000000000000000000000000000000000000000081526001600160a01b039091169063d3ee5e8b9061192a908590600401612966565b600060405180830381600087803b15801561194457600080fd5b505af1158015611958573d6000803e3d6000fd5b50505050610ed5565b6001600160a01b0383166119c057805160608201516040517f404d61110000000000000000000000000000000000000000000000000000000081526001600160a01b039092169163404d61119161192a9188919060019060040161289e565b805160608201516040517fbeabacc80000000000000000000000000000000000000000000000000000000081526001600160a01b039092169163beabacc891611a0f918891889160040161286b565b602060405180830381600087803b158015611a2957600080fd5b505af1158015611a3d573d6000803e3d6000fd5b505050506040513d601f19601f82011682018060405250810190611a619190612662565b5050505050565b60006106928383611e47565b60006106928383611f0d565b600061163d84846001600160a01b038516611f57565b81546000908210611ad85760405162461bcd60e51b81526004018080602001828103825260228152602001806129936022913960400191505060405180910390fd5b826000018281548110611ae757fe5b9060005260206000200154905092915050565b60006106928383611fee565b815460009081908310611b4a5760405162461bcd60e51b8152600401808060200182810382526022815260200180612ae86022913960400191505060405180910390fd5b6000846000018481548110611b5b57fe5b906000526020600020906002020190508060000154816001015492509250509250929050565b60008281526001840160205260408120548281611c1c5760405162461bcd60e51b81526004018080602001828103825283818151815260200191508051906020019080838360005b83811015611be1578181015183820152602001611bc9565b50505050905090810190601f168015611c0e5780820380516001836020036101000a031916815260200191505b509250505060405180910390fd5b50846000016001820381548110611c2f57fe5b9060005260206000209060020201600101549150509392505050565b611c5583836120c2565b611c626000848484611c9d565b6105e55760405162461bcd60e51b81526004018080602001828103825260328152602001806129b56032913960400191505060405180910390fd5b6000611cb1846001600160a01b03166121f0565b611cbd57506001611363565b6000611df5630a85bd0160e11b611cd261123d565b88878760405160240180856001600160a01b03168152602001846001600160a01b0316815260200183815260200180602001828103825283818151815260200191508051906020019080838360005b83811015611d39578181015183820152602001611d21565b50505050905090810190601f168015611d665780820380516001836020036101000a031916815260200191505b5095505050505050604051602081830303815290604052907bffffffffffffffffffffffffffffffffffffffffffffffffffffffff19166020820180517bffffffffffffffffffffffffffffffffffffffffffffffffffffffff83818316178352505050506040518060600160405280603281526020016129b5603291396001600160a01b03881691906121f6565b90506000818060200190516020811015611e0e57600080fd5b50516001600160e01b031916630a85bd0160e11b1492505050949350505050565b60009081526001919091016020526040902054151590565b60008181526001830160205260408120548015611f035783546000198083019190810190600090879083908110611e7a57fe5b9060005260206000200154905080876000018481548110611e9757fe5b600091825260208083209091019290925582815260018981019092526040902090840190558654879080611ec757fe5b60019003818190600052602060002001600090559055866001016000878152602001908152602001600020600090556001945050505050610695565b6000915050610695565b6000611f198383611e2f565b611f4f57508154600181810184556000848152602080822090930184905584548482528286019093526040902091909155610695565b506000610695565b600082815260018401602052604081205480611fbc575050604080518082018252838152602080820184815286546001818101895560008981528481209551600290930290950191825591519082015586548684528188019092529290912055611640565b82856000016001830381548110611fcf57fe5b9060005260206000209060020201600101819055506000915050611640565b60008181526001830160205260408120548015611f03578354600019808301919081019060009087908390811061202157fe5b906000526020600020906002020190508087600001848154811061204157fe5b60009182526020808320845460029093020191825560019384015491840191909155835482528983019052604090209084019055865487908061208057fe5b60008281526020808220600260001990940193840201828155600190810183905592909355888152898201909252604082209190915594506106959350505050565b6001600160a01b03821661211d576040805162461bcd60e51b815260206004820181905260248201527f4552433732313a206d696e7420746f20746865207a65726f2061646472657373604482015290519081900360640190fd5b6121268161121d565b15612178576040805162461bcd60e51b815260206004820152601c60248201527f4552433732313a20746f6b656e20616c7265616479206d696e74656400000000604482015290519081900360640190fd5b612184600083836117d2565b6001600160a01b03821660009081526003602052604090206121a69082611a74565b506121b360048284611a80565b5060405181906001600160a01b038416906000907fddf252ad1be2c89b69c2b068fc378daa952ba7f163c4a11628f55a4df523b3ef908290a45050565b3b151590565b606061163d84846000858561220a856121f0565b61225b576040805162461bcd60e51b815260206004820152601d60248201527f416464726573733a2063616c6c20746f206e6f6e2d636f6e7472616374000000604482015290519081900360640190fd5b600080866001600160a01b031685876040518082805190602001908083835b602083106122995780518252601f19909201916020918201910161227a565b6001836020036101000a03801982511681845116808217855250505050505090500191505060006040518083038185875af1925050503d80600081146122fb576040519150601f19603f3d011682016040523d82523d6000602084013e612300565b606091505b509150915061231082828661231b565b979650505050505050565b6060831561232a575081611640565b82511561233a5782518084602001fd5b60405162461bcd60e51b8152602060048201818152845160248401528451859391928392604401919085019080838360008315611be1578181015183820152602001611bc9565b828054600181600116156101000203166002900490600052602060002090601f0160209004810192826123b757600085556123fd565b82601f106123d057805160ff19168380011785556123fd565b828001600101855582156123fd579182015b828111156123fd5782518255916020019190600101906123e2565b5061240992915061244d565b5090565b50805460018160011615610100020316600290046000825580601f106124335750610729565b601f01602090049060005260206000209081019061072991905b5b80821115612409576000815560010161244e565b600067ffffffffffffffff8084111561247757fe5b604051601f8501601f19168101602001828111828210171561249557fe5b6040528481529150818385018610156124ad57600080fd5b8484602083013760006020868301015250509392505050565b600082601f8301126124d6578081fd5b61069283833560208501612462565b805163ffffffff811681146103c757600080fd5b60006020828403121561250a578081fd5b81356116408161296f565b60008060408385031215612527578081fd5b82356125328161296f565b915060208301356125428161296f565b809150509250929050565b600080600060608486031215612561578081fd5b833561256c8161296f565b9250602084013561257c8161296f565b929592945050506040919091013590565b600080600080608085870312156125a2578081fd5b84356125ad8161296f565b935060208501356125bd8161296f565b925060408501359150606085013567ffffffffffffffff8111156125df578182fd5b8501601f810187136125ef578182fd5b6125fe87823560208401612462565b91505092959194509250565b6000806040838503121561261c578182fd5b82356126278161296f565b9150602083013561254281612984565b60008060408385031215612649578182fd5b82356126548161296f565b946020939093013593505050565b600060208284031215612673578081fd5b815161164081612984565b60006020828403121561268f578081fd5b81356001600160e01b031981168114611640578182fd5b600080600080600060a086880312156126bd578081fd5b85356126c88161296f565b9450602086013567ffffffffffffffff808211156126e4578283fd5b6126f089838a016124c6565b95506040880135915080821115612705578283fd5b61271189838a016124c6565b94506060880135915080821115612726578283fd5b50612733888289016124c6565b92505060808601356127448161296f565b809150509295509295909350565b60008060408385031215612764578182fd5b823567ffffffffffffffff8082111561277b578384fd5b612787868387016124c6565b9350602085013591508082111561279c578283fd5b506127a9858286016124c6565b9150509250929050565b6000608082840312156127c4578081fd5b6040516080810181811067ffffffffffffffff821117156127e157fe5b60405282516127ef8161296f565b81526127fd602084016124e5565b602082015261280e604084016124e5565b604082015260608301516dffffffffffffffffffffffffffff81168114612833578283fd5b60608201529392505050565b600060208284031215612850578081fd5b5035919050565b6001600160a01b0391909116815260200190565b6001600160a01b0393841681529190921660208201526dffffffffffffffffffffffffffff909116604082015260600190565b6001600160a01b039390931683526dffffffffffffffffffffffffffff9190911660208301521515604082015260600190565b901515815260200190565b6000602080835283518082850152825b81811015612908578581018301518582016040015282016128ec565b818111156129195783604083870101525b50601f01601f1916929092016040019392505050565b6020808252601e908201527f43616e6e6f74207472616e73666572206578706972656420746f6b656e730000604082015260600190565b90815260200190565b6001600160a01b038116811461072957600080fd5b801515811461072957600080fdfe456e756d657261626c655365743a20696e646578206f7574206f6620626f756e64734552433732313a207472616e7366657220746f206e6f6e20455243373231526563656976657220696d706c656d656e7465724f776e61626c653a206e6577206f776e657220697320746865207a65726f20616464726573734552433732313a207472616e7366657220746f20746865207a65726f20616464726573734552433732313a206f70657261746f7220717565727920666f72206e6f6e6578697374656e7420746f6b656e4552433732313a20617070726f76652063616c6c6572206973206e6f74206f776e6572206e6f7220617070726f76656420666f7220616c6c4552433732313a2062616c616e636520717565727920666f7220746865207a65726f20616464726573734552433732313a206f776e657220717565727920666f72206e6f6e6578697374656e7420746f6b656e456e756d657261626c654d61703a20696e646578206f7574206f6620626f756e64734552433732313a20617070726f76656420717565727920666f72206e6f6e6578697374656e7420746f6b656e496e697469616c697a61626c654f776e61626c653a20616c726561647920696e697469616c697a65644552433732313a207472616e73666572206f6620746f6b656e2074686174206973206e6f74206f776e4552433732314d657461646174613a2055524920717565727920666f72206e6f6e6578697374656e7420746f6b656e4552433732313a20617070726f76616c20746f2063757272656e74206f776e65724552433732313a207472616e736665722063616c6c6572206973206e6f74206f776e6572206e6f7220617070726f766564a26469706673582212209f7f5140c864ca833df070b735c553aa9c57ee01da2ddcc55d899478e772900c64736f6c63430007060033",
  "linkReferences": {},
  "deployedLinkReferences": {}
}