{
  "_format": "hh-sol-artifact-1",
  "contractName": "BorrowToken",
  "sourceName": "contracts/iq/BorrowToken.sol",
  "abi": [
    {
      "anonymous": false,
      "inputs": [
        {
          "indexed": true,
          "internalType": "address",
          "name": "owner",
          "type": "address"
        },
        {
          "indexed": true,
          "internalType": "address",
          "name": "approved",
          "type": "address"
        },
        {
          "indexed": true,
          "internalType": "uint256",
          "name": "tokenId",
          "type": "uint256"
        }
      ],
      "name": "Approval",
      "type": "event"
    },
    {
      "anonymous": false,
      "inputs": [
        {
          "indexed": true,
          "internalType": "address",
          "name": "owner",
          "type": "address"
        },
        {
          "indexed": true,
          "internalType": "address",
          "name": "operator",
          "type": "address"
        },
        {
          "indexed": false,
          "internalType": "bool",
          "name": "approved",
          "type": "bool"
        }
      ],
      "name": "ApprovalForAll",
      "type": "event"
    },
    {
      "anonymous": false,
      "inputs": [
        {
          "indexed": true,
          "internalType": "address",
          "name": "previousOwner",
          "type": "address"
        },
        {
          "indexed": true,
          "internalType": "address",
          "name": "newOwner",
          "type": "address"
        }
      ],
      "name": "OwnershipTransferred",
      "type": "event"
    },
    {
      "anonymous": false,
      "inputs": [
        {
          "indexed": true,
          "internalType": "address",
          "name": "from",
          "type": "address"
        },
        {
          "indexed": true,
          "internalType": "address",
          "name": "to",
          "type": "address"
        },
        {
          "indexed": true,
          "internalType": "uint256",
          "name": "tokenId",
          "type": "uint256"
        }
      ],
      "name": "Transfer",
      "type": "event"
    },
    {
      "inputs": [
        {
          "internalType": "address",
          "name": "newOwner",
          "type": "address"
        }
      ],
      "name": "addOwner",
      "outputs": [],
      "stateMutability": "nonpayable",
      "type": "function"
    },
    {
      "inputs": [
        {
          "internalType": "address",
          "name": "to",
          "type": "address"
        },
        {
          "internalType": "uint256",
          "name": "tokenId",
          "type": "uint256"
        }
      ],
      "name": "approve",
      "outputs": [],
      "stateMutability": "nonpayable",
      "type": "function"
    },
    {
      "inputs": [
        {
          "internalType": "address",
          "name": "owner",
          "type": "address"
        }
      ],
      "name": "balanceOf",
      "outputs": [
        {
          "internalType": "uint256",
          "name": "",
          "type": "uint256"
        }
      ],
      "stateMutability": "view",
      "type": "function"
    },
    {
      "inputs": [],
      "name": "baseURI",
      "outputs": [
        {
          "internalType": "string",
          "name": "",
          "type": "string"
        }
      ],
      "stateMutability": "view",
      "type": "function"
    },
    {
      "inputs": [
        {
          "internalType": "uint256",
          "name": "tokenId",
          "type": "uint256"
        }
      ],
      "name": "burn",
      "outputs": [],
      "stateMutability": "nonpayable",
      "type": "function"
    },
    {
      "inputs": [
        {
          "internalType": "uint256",
          "name": "tokenId",
          "type": "uint256"
        }
      ],
      "name": "getApproved",
      "outputs": [
        {
          "internalType": "address",
          "name": "",
          "type": "address"
        }
      ],
      "stateMutability": "view",
      "type": "function"
    },
    {
      "inputs": [
        {
          "internalType": "string",
          "name": "name_",
          "type": "string"
        },
        {
          "internalType": "string",
          "name": "symbol_",
          "type": "string"
        }
      ],
      "name": "initialize",
      "outputs": [],
      "stateMutability": "nonpayable",
      "type": "function"
    },
    {
      "inputs": [
        {
          "internalType": "contract IEnterprise",
          "name": "enterprise",
          "type": "address"
        },
        {
          "internalType": "string",
          "name": "name",
          "type": "string"
        },
        {
          "internalType": "string",
          "name": "symbol",
          "type": "string"
        },
        {
          "internalType": "string",
          "name": "baseUri",
          "type": "string"
        }
      ],
      "name": "initialize",
      "outputs": [],
      "stateMutability": "nonpayable",
      "type": "function"
    },
    {
      "inputs": [
        {
          "internalType": "address",
          "name": "initialOwner",
          "type": "address"
        }
      ],
      "name": "initialize",
      "outputs": [],
      "stateMutability": "nonpayable",
      "type": "function"
    },
    {
      "inputs": [
        {
          "internalType": "address",
          "name": "owner",
          "type": "address"
        },
        {
          "internalType": "address",
          "name": "operator",
          "type": "address"
        }
      ],
      "name": "isApprovedForAll",
      "outputs": [
        {
          "internalType": "bool",
          "name": "",
          "type": "bool"
        }
      ],
      "stateMutability": "view",
      "type": "function"
    },
    {
      "inputs": [
        {
          "internalType": "address",
          "name": "account",
          "type": "address"
        }
      ],
      "name": "isOwner",
      "outputs": [
        {
          "internalType": "bool",
          "name": "",
          "type": "bool"
        }
      ],
      "stateMutability": "view",
      "type": "function"
    },
    {
      "inputs": [
        {
          "internalType": "address",
          "name": "to",
          "type": "address"
        }
      ],
      "name": "mint",
      "outputs": [
        {
          "internalType": "uint256",
          "name": "",
          "type": "uint256"
        }
      ],
      "stateMutability": "nonpayable",
      "type": "function"
    },
    {
      "inputs": [],
      "name": "name",
      "outputs": [
        {
          "internalType": "string",
          "name": "",
          "type": "string"
        }
      ],
      "stateMutability": "view",
      "type": "function"
    },
    {
      "inputs": [
        {
          "internalType": "uint256",
          "name": "tokenId",
          "type": "uint256"
        }
      ],
      "name": "ownerOf",
      "outputs": [
        {
          "internalType": "address",
          "name": "",
          "type": "address"
        }
      ],
      "stateMutability": "view",
      "type": "function"
    },
    {
      "inputs": [],
      "name": "renounceOwnership",
      "outputs": [],
      "stateMutability": "nonpayable",
      "type": "function"
    },
    {
      "inputs": [
        {
          "internalType": "address",
          "name": "from",
          "type": "address"
        },
        {
          "internalType": "address",
          "name": "to",
          "type": "address"
        },
        {
          "internalType": "uint256",
          "name": "tokenId",
          "type": "uint256"
        }
      ],
      "name": "safeTransferFrom",
      "outputs": [],
      "stateMutability": "nonpayable",
      "type": "function"
    },
    {
      "inputs": [
        {
          "internalType": "address",
          "name": "from",
          "type": "address"
        },
        {
          "internalType": "address",
          "name": "to",
          "type": "address"
        },
        {
          "internalType": "uint256",
          "name": "tokenId",
          "type": "uint256"
        },
        {
          "internalType": "bytes",
          "name": "_data",
          "type": "bytes"
        }
      ],
      "name": "safeTransferFrom",
      "outputs": [],
      "stateMutability": "nonpayable",
      "type": "function"
    },
    {
      "inputs": [
        {
          "internalType": "address",
          "name": "operator",
          "type": "address"
        },
        {
          "internalType": "bool",
          "name": "approved",
          "type": "bool"
        }
      ],
      "name": "setApprovalForAll",
      "outputs": [],
      "stateMutability": "nonpayable",
      "type": "function"
    },
    {
      "inputs": [
        {
          "internalType": "bytes4",
          "name": "interfaceId",
          "type": "bytes4"
        }
      ],
      "name": "supportsInterface",
      "outputs": [
        {
          "internalType": "bool",
          "name": "",
          "type": "bool"
        }
      ],
      "stateMutability": "view",
      "type": "function"
    },
    {
      "inputs": [],
      "name": "symbol",
      "outputs": [
        {
          "internalType": "string",
          "name": "",
          "type": "string"
        }
      ],
      "stateMutability": "view",
      "type": "function"
    },
    {
      "inputs": [
        {
          "internalType": "uint256",
          "name": "index",
          "type": "uint256"
        }
      ],
      "name": "tokenByIndex",
      "outputs": [
        {
          "internalType": "uint256",
          "name": "",
          "type": "uint256"
        }
      ],
      "stateMutability": "view",
      "type": "function"
    },
    {
      "inputs": [
        {
          "internalType": "address",
          "name": "owner",
          "type": "address"
        },
        {
          "internalType": "uint256",
          "name": "index",
          "type": "uint256"
        }
      ],
      "name": "tokenOfOwnerByIndex",
      "outputs": [
        {
          "internalType": "uint256",
          "name": "",
          "type": "uint256"
        }
      ],
      "stateMutability": "view",
      "type": "function"
    },
    {
      "inputs": [
        {
          "internalType": "uint256",
          "name": "tokenId",
          "type": "uint256"
        }
      ],
      "name": "tokenURI",
      "outputs": [
        {
          "internalType": "string",
          "name": "",
          "type": "string"
        }
      ],
      "stateMutability": "view",
      "type": "function"
    },
    {
      "inputs": [],
      "name": "totalSupply",
      "outputs": [
        {
          "internalType": "uint256",
          "name": "",
          "type": "uint256"
        }
      ],
      "stateMutability": "view",
      "type": "function"
    },
    {
      "inputs": [
        {
          "internalType": "address",
          "name": "from",
          "type": "address"
        },
        {
          "internalType": "address",
          "name": "to",
          "type": "address"
        },
        {
          "internalType": "uint256",
          "name": "tokenId",
          "type": "uint256"
        }
      ],
      "name": "transferFrom",
      "outputs": [],
      "stateMutability": "nonpayable",
      "type": "function"
    },
    {
      "inputs": [
        {
          "internalType": "address",
          "name": "currentOwner",
          "type": "address"
        },
        {
          "internalType": "address",
          "name": "newOwner",
          "type": "address"
        }
      ],
      "name": "transferOwnership",
      "outputs": [],
      "stateMutability": "nonpayable",
      "type": "function"
    }
  ],
  "bytecode": "0x60806040526001600d5534801561001557600080fd5b506100266301ffc9a760e01b61002b565b6100af565b6001600160e01b0319808216141561008a576040805162461bcd60e51b815260206004820152601c60248201527f4552433136353a20696e76616c696420696e7465726661636520696400000000604482015290519081900360640190fd5b6001600160e01b0319166000908152602081905260409020805460ff19166001179055565b612c1c80620000bf6000396000f3fe608060405234801561001057600080fd5b50600436106101ae5760003560e01c80636352211e116100ee578063715018a611610097578063b88d4fde11610071578063b88d4fde1461035d578063c4d66de814610370578063c87b56dd14610383578063e985e9c514610396576101ae565b8063715018a61461033a57806395d89b4114610342578063a22cb4651461034a576101ae565b80636d435421116100c85780636d435421146103015780637065cb481461031457806370a0823114610327576101ae565b80636352211e146102d35780636a627842146102e65780636c0360eb146102f9576101ae565b80632f54bf6e1161015b57806342966c681161013557806342966c68146102875780634cd88b761461029a5780634f6ccce7146102ad5780635f1e6f6d146102c0576101ae565b80632f54bf6e1461024e5780632f745c591461026157806342842e0e14610274576101ae565b8063095ea7b31161018c578063095ea7b31461021157806318160ddd1461022657806323b872dd1461023b576101ae565b806301ffc9a7146101b357806306fdde03146101dc578063081812fc146101f1575b600080fd5b6101c66101c136600461267d565b6103a9565b6040516101d391906128af565b60405180910390f35b6101e46103cc565b6040516101d391906128ba565b6102046101ff36600461281d565b610462565b6040516101d39190612835565b61022461021f366004612636565b6104c4565b005b61022e61059a565b6040516101d39190612944565b61022461024936600461254c565b6105ab565b6101c661025c3660046124f8565b610602565b61022e61026f366004612636565b610620565b61022461028236600461254c565b61064b565b61022461029536600461281d565b610666565b6102246102a8366004612730565b6106dc565b61022e6102bb36600461281d565b6107eb565b6102246102ce3660046126a5565b610801565b6102046102e136600461281d565b610850565b61022e6102f43660046124f8565b610878565b6101e46108fd565b61022461030f366004612514565b61095e565b6102246103223660046124f8565b610ae3565b61022e6103353660046124f8565b610bf7565b610224610c5f565b6101e4610d16565b610224610358366004612609565b610d77565b61022461036b36600461258c565b610e7c565b61022461037e3660046124f8565b610eda565b6101e461039136600461281d565b610f6d565b6101c66103a4366004612514565b6111ee565b6001600160e01b0319811660009081526020819052604090205460ff165b919050565b60088054604080516020601f60026000196101006001881615020190951694909404938401819004810282018101909252828152606093909290918301828280156104585780601f1061042d57610100808354040283529160200191610458565b820191906000526020600020905b81548152906001019060200180831161043b57829003601f168201915b5050505050905090565b600061046d8261121c565b6104a85760405162461bcd60e51b815260040180806020018281038252602c815260200180612ae8602c913960400191505060405180910390fd5b506000908152600660205260409020546001600160a01b031690565b60006104cf82610850565b9050806001600160a01b0316836001600160a01b031614156105225760405162461bcd60e51b8152600401808060200182810382526021815260200180612b956021913960400191505060405180910390fd5b806001600160a01b0316610534611229565b6001600160a01b031614806105505750610550816103a4611229565b61058b5760405162461bcd60e51b8152600401808060200182810382526038815260200180612a3b6038913960400191505060405180910390fd5b610595838361122d565b505050565b60006105a660046112a8565b905090565b6105bc6105b6611229565b826112b3565b6105f75760405162461bcd60e51b8152600401808060200182810382526031815260200180612bb66031913960400191505060405180910390fd5b610595838383611357565b6001600160a01b031660009081526001602052604090205460ff1690565b6001600160a01b038216600090815260036020526040812061064290836114a3565b90505b92915050565b61059583838360405180602001604052806000815250610e7c565b3360009081526001602081905260409091205460ff161515146106d0576040805162461bcd60e51b815260206004820181905260248201527f4f776e61626c653a2063616c6c6572206973206e6f7420746865206f776e6572604482015290519081900360640190fd5b6106d9816114af565b50565b6008546002600019610100600184161502019091160415610744576040805162461bcd60e51b815260206004820152601b60248201527f436f6e747261637420616c726561647920696e7469616c697a65640000000000604482015290519081900360640190fd5b8151610757906008906020850190612380565b50805161076b906009906020840190612380565b506107957f80ac58cd0000000000000000000000000000000000000000000000000000000061157c565b6107be7f5b5e139f0000000000000000000000000000000000000000000000000000000061157c565b6107e77f780e9d630000000000000000000000000000000000000000000000000000000061157c565b5050565b6000806107f9600484611600565b509392505050565b61080a84610eda565b61081483836106dc565b61081d8161161c565b5050600c805473ffffffffffffffffffffffffffffffffffffffff19166001600160a01b03939093169290921790915550565b600061064582604051806060016040528060298152602001612a9d602991396004919061162f565b33600090815260016020819052604082205460ff161515146108e1576040805162461bcd60e51b815260206004820181905260248201527f4f776e61626c653a2063616c6c6572206973206e6f7420746865206f776e6572604482015290519081900360640190fd5b600d546108ee8382611646565b600d8054600101905592915050565b600b8054604080516020601f60026000196101006001881615020190951694909404938401819004810282018101909252828152606093909290918301828280156104585780601f1061042d57610100808354040283529160200191610458565b3360009081526001602081905260409091205460ff161515146109c8576040805162461bcd60e51b815260206004820181905260248201527f4f776e61626c653a2063616c6c6572206973206e6f7420746865206f776e6572604482015290519081900360640190fd5b6001600160a01b038116610a0d5760405162461bcd60e51b81526004018080602001828103825260268152602001806129c56026913960400191505060405180910390fd5b610a1682610602565b610a67576040805162461bcd60e51b815260206004820152600c60248201527f4e6f7420616e206f776e65720000000000000000000000000000000000000000604482015290519081900360640190fd5b806001600160a01b0316826001600160a01b03167f8be0079c531659141344cd1fd0a4f28419497f9722a3daafe3b4186f6b6457e060405160405180910390a36001600160a01b039182166000908152600160208190526040808320805460ff1990811690915593909416825292902080549091169091179055565b3360009081526001602081905260409091205460ff16151514610b4d576040805162461bcd60e51b815260206004820181905260248201527f4f776e61626c653a2063616c6c6572206973206e6f7420746865206f776e6572604482015290519081900360640190fd5b6001600160a01b038116610b925760405162461bcd60e51b81526004018080602001828103825260268152602001806129c56026913960400191505060405180910390fd5b6040516001600160a01b038216906000907f8be0079c531659141344cd1fd0a4f28419497f9722a3daafe3b4186f6b6457e0908290a36001600160a01b03166000908152600160208190526040909120805460ff191682179055600280549091019055565b60006001600160a01b038216610c3e5760405162461bcd60e51b815260040180806020018281038252602a815260200180612a73602a913960400191505060405180910390fd5b6001600160a01b0382166000908152600360205260409020610645906112a8565b3360009081526001602081905260409091205460ff16151514610cc9576040805162461bcd60e51b815260206004820181905260248201527f4f776e61626c653a2063616c6c6572206973206e6f7420746865206f776e6572604482015290519081900360640190fd5b6002805460001901905533600081815260016020526040808220805460ff19169055519091907f8be0079c531659141344cd1fd0a4f28419497f9722a3daafe3b4186f6b6457e0908390a3565b60098054604080516020601f60026000196101006001881615020190951694909404938401819004810282018101909252828152606093909290918301828280156104585780601f1061042d57610100808354040283529160200191610458565b610d7f611229565b6001600160a01b0316826001600160a01b03161415610de5576040805162461bcd60e51b815260206004820152601960248201527f4552433732313a20617070726f766520746f2063616c6c657200000000000000604482015290519081900360640190fd5b8060076000610df2611229565b6001600160a01b03908116825260208083019390935260409182016000908120918716808252919093529120805460ff191692151592909217909155610e36611229565b6001600160a01b03167f17307eab39ab6107e8899845ad3d59bd9653f200f220920489ca2b5937696c318360405180821515815260200191505060405180910390a35050565b610e8d610e87611229565b836112b3565b610ec85760405162461bcd60e51b8152600401808060200182810382526031815260200180612bb66031913960400191505060405180910390fd5b610ed484848484611660565b50505050565b60025415610f195760405162461bcd60e51b8152600401808060200182810382526029815260200180612b146029913960400191505060405180910390fd5b6001600160a01b0381166000818152600160208190526040808320805460ff191683179055600291909155517f8be0079c531659141344cd1fd0a4f28419497f9722a3daafe3b4186f6b6457e0908290a350565b6060610f788261121c565b610fb35760405162461bcd60e51b815260040180806020018281038252602f815260200180612b66602f913960400191505060405180910390fd5b6000828152600a602090815260408083208054825160026001831615610100026000190190921691909104601f8101859004850282018501909352828152929091908301828280156110465780601f1061101b57610100808354040283529160200191611046565b820191906000526020600020905b81548152906001019060200180831161102957829003601f168201915b5050505050905060006110576108fd565b905080516000141561106b575090506103c7565b81511561112c5780826040516020018083805190602001908083835b602083106110a65780518252601f199092019160209182019101611087565b51815160209384036101000a600019018019909216911617905285519190930192850191508083835b602083106110ee5780518252601f1990920191602091820191016110cf565b6001836020036101000a03801982511681845116808217855250505050505090500192505050604051602081830303815290604052925050506103c7565b80611136856116b2565b6040516020018083805190602001908083835b602083106111685780518252601f199092019160209182019101611149565b51815160209384036101000a600019018019909216911617905285519190930192850191508083835b602083106111b05780518252601f199092019160209182019101611191565b6001836020036101000a0380198251168184511680821785525050505050509050019250505060405160208183030381529060405292505050919050565b6001600160a01b03918216600090815260076020908152604080832093909416825291909152205460ff1690565b60006106456004836117c1565b3390565b6000818152600660205260409020805473ffffffffffffffffffffffffffffffffffffffff19166001600160a01b038416908117909155819061126f82610850565b6001600160a01b03167f8c5be1e5ebec7d5bd14f71427d1e84f3dd0314c0f7b2291e5b200ac8c7c3b92560405160405180910390a45050565b6000610645826117cd565b60006112be8261121c565b6112f95760405162461bcd60e51b815260040180806020018281038252602c815260200180612a0f602c913960400191505060405180910390fd5b600061130483610850565b9050806001600160a01b0316846001600160a01b0316148061133f5750836001600160a01b031661133484610462565b6001600160a01b0316145b8061134f575061134f81856111ee565b949350505050565b826001600160a01b031661136a82610850565b6001600160a01b0316146113af5760405162461bcd60e51b8152600401808060200182810382526029815260200180612b3d6029913960400191505060405180910390fd5b6001600160a01b0382166113f45760405162461bcd60e51b81526004018080602001828103825260248152602001806129eb6024913960400191505060405180910390fd5b6113ff8383836117d1565b61140a60008261122d565b6001600160a01b038316600090815260036020526040902061142c9082611a67565b506001600160a01b038216600090815260036020526040902061144f9082611a73565b5061145c60048284611a7f565b5080826001600160a01b0316846001600160a01b03167fddf252ad1be2c89b69c2b068fc378daa952ba7f163c4a11628f55a4df523b3ef60405160405180910390a4505050565b60006106428383611a95565b60006114ba82610850565b90506114c8816000846117d1565b6114d360008361122d565b6000828152600a60205260409020546002600019610100600184161502019091160415611511576000828152600a602052604081206115119161240c565b6001600160a01b03811660009081526003602052604090206115339083611a67565b5061153f600483611af9565b5060405182906000906001600160a01b038416907fddf252ad1be2c89b69c2b068fc378daa952ba7f163c4a11628f55a4df523b3ef908390a45050565b6001600160e01b031980821614156115db576040805162461bcd60e51b815260206004820152601c60248201527f4552433136353a20696e76616c696420696e7465726661636520696400000000604482015290519081900360640190fd5b6001600160e01b0319166000908152602081905260409020805460ff19166001179055565b600080808061160f8686611b05565b9097909650945050505050565b80516107e790600b906020840190612380565b600061163c848484611b80565b90505b9392505050565b6107e7828260405180602001604052806000815250611c4a565b61166b848484611357565b61167784848484611c9c565b610ed45760405162461bcd60e51b81526004018080602001828103825260328152602001806129936032913960400191505060405180910390fd5b6060816116f3575060408051808201909152600181527f300000000000000000000000000000000000000000000000000000000000000060208201526103c7565b8160005b811561170b57600101600a820491506116f7565b60008167ffffffffffffffff8111801561172457600080fd5b506040519080825280601f01601f19166020018201604052801561174f576020820181803683370190505b50859350905060001982015b83156117b857600a840660300160f81b8282806001900393508151811061177e57fe5b60200101907effffffffffffffffffffffffffffffffffffffffffffffffffffffffffffff1916908160001a905350600a8404935061175b565b50949350505050565b60006106428383611e2e565b5490565b600c546040517f0e1373680000000000000000000000000000000000000000000000000000000081526000916001600160a01b031690630e1373689061181b908590600401612944565b60806040518083038186803b15801561183357600080fd5b505afa158015611847573d6000803e3d6000fd5b505050506040513d601f19601f8201168201806040525081019061186b9190612791565b9050806040015163ffffffff16421115806118935750600c546001600160a01b038481169116145b806118a557506001600160a01b038316155b6118ca5760405162461bcd60e51b81526004016118c19061290d565b60405180910390fd5b600c546001600160a01b038481169116141561196057600c546040517fd3ee5e8b0000000000000000000000000000000000000000000000000000000081526001600160a01b039091169063d3ee5e8b90611929908590600401612944565b600060405180830381600087803b15801561194357600080fd5b505af1158015611957573d6000803e3d6000fd5b50505050610ed4565b6001600160a01b0383166119bf57805160608201516040517f404d61110000000000000000000000000000000000000000000000000000000081526001600160a01b039092169163404d6111916119299188919060019060040161287c565b805160608201516040517fbeabacc80000000000000000000000000000000000000000000000000000000081526001600160a01b039092169163beabacc891611a0e9188918891600401612849565b602060405180830381600087803b158015611a2857600080fd5b505af1158015611a3c573d6000803e3d6000fd5b505050506040513d601f19601f82011682018060405250810190611a609190612661565b5050505050565b60006106428383611e46565b60006106428383611f0c565b600061163c84846001600160a01b038516611f56565b81546000908210611ad75760405162461bcd60e51b81526004018080602001828103825260228152602001806129716022913960400191505060405180910390fd5b826000018281548110611ae657fe5b9060005260206000200154905092915050565b60006106428383611fed565b815460009081908310611b495760405162461bcd60e51b8152600401808060200182810382526022815260200180612ac66022913960400191505060405180910390fd5b6000846000018481548110611b5a57fe5b906000526020600020906002020190508060000154816001015492509250509250929050565b60008281526001840160205260408120548281611c1b5760405162461bcd60e51b81526004018080602001828103825283818151815260200191508051906020019080838360005b83811015611be0578181015183820152602001611bc8565b50505050905090810190601f168015611c0d5780820380516001836020036101000a031916815260200191505b509250505060405180910390fd5b50846000016001820381548110611c2e57fe5b9060005260206000209060020201600101549150509392505050565b611c5483836120c1565b611c616000848484611c9c565b6105955760405162461bcd60e51b81526004018080602001828103825260328152602001806129936032913960400191505060405180910390fd5b6000611cb0846001600160a01b03166121ef565b611cbc5750600161134f565b6000611df4630a85bd0160e11b611cd1611229565b88878760405160240180856001600160a01b03168152602001846001600160a01b0316815260200183815260200180602001828103825283818151815260200191508051906020019080838360005b83811015611d38578181015183820152602001611d20565b50505050905090810190601f168015611d655780820380516001836020036101000a031916815260200191505b5095505050505050604051602081830303815290604052907bffffffffffffffffffffffffffffffffffffffffffffffffffffffff19166020820180517bffffffffffffffffffffffffffffffffffffffffffffffffffffffff8381831617835250505050604051806060016040528060328152602001612993603291396001600160a01b03881691906121f5565b90506000818060200190516020811015611e0d57600080fd5b50516001600160e01b031916630a85bd0160e11b1492505050949350505050565b60009081526001919091016020526040902054151590565b60008181526001830160205260408120548015611f025783546000198083019190810190600090879083908110611e7957fe5b9060005260206000200154905080876000018481548110611e9657fe5b600091825260208083209091019290925582815260018981019092526040902090840190558654879080611ec657fe5b60019003818190600052602060002001600090559055866001016000878152602001908152602001600020600090556001945050505050610645565b6000915050610645565b6000611f188383611e2e565b611f4e57508154600181810184556000848152602080822090930184905584548482528286019093526040902091909155610645565b506000610645565b600082815260018401602052604081205480611fbb57505060408051808201825283815260208082018481528654600181810189556000898152848120955160029093029095019182559151908201558654868452818801909252929091205561163f565b82856000016001830381548110611fce57fe5b906000526020600020906002020160010181905550600091505061163f565b60008181526001830160205260408120548015611f02578354600019808301919081019060009087908390811061202057fe5b906000526020600020906002020190508087600001848154811061204057fe5b60009182526020808320845460029093020191825560019384015491840191909155835482528983019052604090209084019055865487908061207f57fe5b60008281526020808220600260001990940193840201828155600190810183905592909355888152898201909252604082209190915594506106459350505050565b6001600160a01b03821661211c576040805162461bcd60e51b815260206004820181905260248201527f4552433732313a206d696e7420746f20746865207a65726f2061646472657373604482015290519081900360640190fd5b6121258161121c565b15612177576040805162461bcd60e51b815260206004820152601c60248201527f4552433732313a20746f6b656e20616c7265616479206d696e74656400000000604482015290519081900360640190fd5b612183600083836117d1565b6001600160a01b03821660009081526003602052604090206121a59082611a73565b506121b260048284611a7f565b5060405181906001600160a01b038416906000907fddf252ad1be2c89b69c2b068fc378daa952ba7f163c4a11628f55a4df523b3ef908290a45050565b3b151590565b606061163c848460008585612209856121ef565b61225a576040805162461bcd60e51b815260206004820152601d60248201527f416464726573733a2063616c6c20746f206e6f6e2d636f6e7472616374000000604482015290519081900360640190fd5b600080866001600160a01b031685876040518082805190602001908083835b602083106122985780518252601f199092019160209182019101612279565b6001836020036101000a03801982511681845116808217855250505050505090500191505060006040518083038185875af1925050503d80600081146122fa576040519150601f19603f3d011682016040523d82523d6000602084013e6122ff565b606091505b509150915061230f82828661231a565b979650505050505050565b6060831561232957508161163f565b8251156123395782518084602001fd5b60405162461bcd60e51b8152602060048201818152845160248401528451859391928392604401919085019080838360008315611be0578181015183820152602001611bc8565b828054600181600116156101000203166002900490600052602060002090601f0160209004810192826123b657600085556123fc565b82601f106123cf57805160ff19168380011785556123fc565b828001600101855582156123fc579182015b828111156123fc5782518255916020019190600101906123e1565b5061240892915061244c565b5090565b50805460018160011615610100020316600290046000825580601f1061243257506106d9565b601f0160209004906000526020600020908101906106d991905b5b80821115612408576000815560010161244d565b600067ffffffffffffffff8084111561247657fe5b604051601f8501601f19168101602001828111828210171561249457fe5b6040528481529150818385018610156124ac57600080fd5b8484602083013760006020868301015250509392505050565b600082601f8301126124d5578081fd5b61064283833560208501612461565b805163ffffffff811681146103c757600080fd5b600060208284031215612509578081fd5b813561163f8161294d565b60008060408385031215612526578081fd5b82356125318161294d565b915060208301356125418161294d565b809150509250929050565b600080600060608486031215612560578081fd5b833561256b8161294d565b9250602084013561257b8161294d565b929592945050506040919091013590565b600080600080608085870312156125a1578081fd5b84356125ac8161294d565b935060208501356125bc8161294d565b925060408501359150606085013567ffffffffffffffff8111156125de578182fd5b8501601f810187136125ee578182fd5b6125fd87823560208401612461565b91505092959194509250565b6000806040838503121561261b578182fd5b82356126268161294d565b9150602083013561254181612962565b60008060408385031215612648578182fd5b82356126538161294d565b946020939093013593505050565b600060208284031215612672578081fd5b815161163f81612962565b60006020828403121561268e578081fd5b81356001600160e01b03198116811461163f578182fd5b600080600080608085870312156126ba578384fd5b84356126c58161294d565b9350602085013567ffffffffffffffff808211156126e1578485fd5b6126ed888389016124c5565b94506040870135915080821115612702578384fd5b61270e888389016124c5565b93506060870135915080821115612723578283fd5b506125fd878288016124c5565b60008060408385031215612742578182fd5b823567ffffffffffffffff80821115612759578384fd5b612765868387016124c5565b9350602085013591508082111561277a578283fd5b50612787858286016124c5565b9150509250929050565b6000608082840312156127a2578081fd5b6040516080810181811067ffffffffffffffff821117156127bf57fe5b60405282516127cd8161294d565b81526127db602084016124e4565b60208201526127ec604084016124e4565b604082015260608301516dffffffffffffffffffffffffffff81168114612811578283fd5b60608201529392505050565b60006020828403121561282e578081fd5b5035919050565b6001600160a01b0391909116815260200190565b6001600160a01b0393841681529190921660208201526dffffffffffffffffffffffffffff909116604082015260600190565b6001600160a01b039390931683526dffffffffffffffffffffffffffff9190911660208301521515604082015260600190565b901515815260200190565b6000602080835283518082850152825b818110156128e6578581018301518582016040015282016128ca565b818111156128f75783604083870101525b50601f01601f1916929092016040019392505050565b6020808252601e908201527f43616e6e6f74207472616e73666572206578706972656420746f6b656e730000604082015260600190565b90815260200190565b6001600160a01b03811681146106d957600080fd5b80151581146106d957600080fdfe456e756d657261626c655365743a20696e646578206f7574206f6620626f756e64734552433732313a207472616e7366657220746f206e6f6e20455243373231526563656976657220696d706c656d656e7465724f776e61626c653a206e6577206f776e657220697320746865207a65726f20616464726573734552433732313a207472616e7366657220746f20746865207a65726f20616464726573734552433732313a206f70657261746f7220717565727920666f72206e6f6e6578697374656e7420746f6b656e4552433732313a20617070726f76652063616c6c6572206973206e6f74206f776e6572206e6f7220617070726f76656420666f7220616c6c4552433732313a2062616c616e636520717565727920666f7220746865207a65726f20616464726573734552433732313a206f776e657220717565727920666f72206e6f6e6578697374656e7420746f6b656e456e756d657261626c654d61703a20696e646578206f7574206f6620626f756e64734552433732313a20617070726f76656420717565727920666f72206e6f6e6578697374656e7420746f6b656e496e697469616c697a61626c654f776e61626c653a20616c726561647920696e697469616c697a65644552433732313a207472616e73666572206f6620746f6b656e2074686174206973206e6f74206f776e4552433732314d657461646174613a2055524920717565727920666f72206e6f6e6578697374656e7420746f6b656e4552433732313a20617070726f76616c20746f2063757272656e74206f776e65724552433732313a207472616e736665722063616c6c6572206973206e6f74206f776e6572206e6f7220617070726f766564a26469706673582212203e64c64e580fb80499d8d85205754e2c286c73f983e6eae5b8e6390bdc2faafb64736f6c63430007060033",
  "linkReferences": {},
  "deployedLinkReferences": {}
}