{
  "_format": "hh-sol-artifact-1",
  "contractName": "EnterpriseFactory",
  "sourceName": "contracts/iq/EnterpriseFactory.sol",
  "abi": [
    {
      "anonymous": false,
      "inputs": [
        {
          "indexed": true,
          "internalType": "address",
          "name": "liquidityToken",
          "type": "address"
        },
        {
          "indexed": false,
          "internalType": "string",
          "name": "name",
          "type": "string"
        },
        {
          "indexed": false,
          "internalType": "string",
          "name": "baseUrl",
          "type": "string"
        },
        {
          "indexed": false,
          "internalType": "address",
          "name": "deployed",
          "type": "address"
        }
      ],
      "name": "EnterpriseDeployed",
      "type": "event"
    },
    {
      "inputs": [
        {
          "internalType": "string",
          "name": "name",
          "type": "string"
        },
        {
          "internalType": "address",
          "name": "liquidityToken",
          "type": "address"
        },
        {
          "internalType": "string",
          "name": "baseUrl",
          "type": "string"
        }
      ],
      "name": "deploy",
      "outputs": [],
      "stateMutability": "nonpayable",
      "type": "function"
    }
  ],
  "bytecode": "0x608060405234801561001057600080fd5b50616c8c806100206000396000f3fe608060405234801561001057600080fd5b506004361061002b5760003560e01c8063f0aa39a214610030575b600080fd5b6100ff6004803603606081101561004657600080fd5b81019060208101813564010000000081111561006157600080fd5b82018360208201111561007357600080fd5b8035906020019184600183028401116401000000008311171561009557600080fd5b919390926001600160a01b03833516926040810190602001356401000000008111156100c057600080fd5b8201836020820111156100d257600080fd5b803590602001918460018302840111640100000000831117156100f457600080fd5b509092509050610101565b005b600085858585856040516101149061024b565b6001600160a01b038416602082015260608082528101859052806040810160808201888880828437600083820152601f01601f1916909101848103835285815260200190508585808284376000838201819052604051601f909201601f19169093018190039a509850909650505050505050f080158015610199573d6000803e3d6000fd5b509050836001600160a01b03167f82b20733eb6f4b1e4df5b0347f76b7acc9485809c847021f26e1c7af248028068787868686604051808060200180602001846001600160a01b031681526020018381038352888882818152602001925080828437600083820152601f01601f191690910184810383528681526020019050868680828437600083820152604051601f909101601f1916909201829003995090975050505050505050a2505050505050565b6169fe806102598339019056fe60c06040523480156200001157600080fd5b50604051620069fe380380620069fe833981810160405260608110156200003757600080fd5b81019080805160405193929190846401000000008211156200005857600080fd5b9083019060208201858111156200006e57600080fd5b82516401000000008111828201881017156200008957600080fd5b82525081516020918201929091019080838360005b83811015620000b85781810151838201526020016200009e565b50505050905090810190601f168015620000e65780820380516001836020036101000a031916815260200191505b506040818152602083015192018051929491939192846401000000008211156200010f57600080fd5b9083019060208201858111156200012557600080fd5b82516401000000008111828201881017156200014057600080fd5b82525081516020918201929091019080838360005b838110156200016f57818101518382015260200162000155565b50505050905090810190601f1680156200019d5780820380516001836020036101000a031916815260200191505b506040525050506000620001b66200061c60201b60201c565b600080546001600160a01b0319166001600160a01b0383169081178255604051929350917f8be0079c531659141344cd1fd0a4f28419497f9722a3daafe3b4186f6b6457e0908290a3506001600160601b0319606083901b166080528051620002279060049060208401906200071d565b5082516200023d9060059060208601906200071d565b50620002498262000620565b6000826001600160a01b03166395d89b416040518163ffffffff1660e01b815260040160006040518083038186803b1580156200028557600080fd5b505afa1580156200029a573d6000803e3d6000fd5b505050506040513d6000823e601f3d908101601f191682016040526020811015620002c457600080fd5b8101908080516040519392919084640100000000821115620002e557600080fd5b908301906020820185811115620002fb57600080fd5b82516401000000008111828201881017156200031657600080fd5b82525081516020918201929091019080838360005b83811015620003455781810151838201526020016200032b565b50505050905090810190601f168015620003735780820380516001836020036101000a031916815260200191505b506040525050509050600081604051602001808070024b73a32b932b9ba102132b0b934b7339607d1b81525060110182805190602001908083835b60208310620003cf5780518252601f199092019160209182019101620003ae565b6001836020036101000a03801982511681845116808217855250505050505090500191505060405160208183030381529060405290506000826040516020018080606960f81b81525060010182805190602001908083835b60208310620004485780518252601f19909201916020918201910162000427565b6001836020036101000a0380198251168184511680821785525050505050509050019150506040516020818303038152906040529050308282866040516200049090620007b2565b80856001600160a01b03168152602001806020018060200180602001848103845287818151815260200191508051906020019080838360005b83811015620004e3578181015183820152602001620004c9565b50505050905090810190601f168015620005115780820380516001836020036101000a031916815260200191505b50848103835286518152865160209182019188019080838360005b83811015620005465781810151838201526020016200052c565b50505050905090810190601f168015620005745780820380516001836020036101000a031916815260200191505b50848103825285518152855160209182019187019080838360005b83811015620005a95781810151838201526020016200058f565b50505050905090810190601f168015620005d75780820380516001836020036101000a031916815260200191505b50975050505050505050604051809103906000f080158015620005fe573d6000803e3d6000fd5b5060601b6001600160601b03191660a05250620007d7945050505050565b3390565b6001600160a01b038116600090815260086020526040902054600190810b900b620006bc5760098054600180820183557f6e1540171b6c0c960b71a7020d9f60077f6af931a8bbf590da0223dacf75c7af90910180546001600160a01b0319166001600160a01b0385169081179091559154600092835260086020526040909220805461ffff191661ffff9390920b929092161790556200071a565b6001600160a01b038116600090815260086020526040812054600190810b900b12156200071a576001600160a01b03811660009081526008602052604081208054600181810b90930390920b61ffff1661ffff199092169190911790555b50565b828054600181600116156101000203166002900490600052602060002090601f016020900481019282620007555760008555620007a0565b82601f106200077057805160ff1916838001178555620007a0565b82800160010185558215620007a0579182015b82811115620007a057825182559160200191906001019062000783565b50620007ae929150620007c0565b5090565b6117f9806200520583390190565b5b80821115620007ae5760008155600101620007c1565b60805160601c60a05160601c6149dc6200082960003980610dcc528061148d5280611dc5525080610df0528061159b528061167352806116b85280611d2152806122c052806123f252506149dc6000f3fe60806040523480156200001157600080fd5b5060043610620001785760003560e01c80638619344b11620000d5578063a0cffa591162000087578063a0cffa59146200078b578063a25587c214620007d4578063b424df801462000800578063cd3293de1462000832578063ec46bd7d146200083c578063f2fde38b14620008a25762000178565b80638619344b14620004805780638da5cb5b14620004a057806395e17d8414620004aa57806396082ac214620004df57806399e2946b14620007415780639abc832014620007815762000178565b806343cd8f7e116200012f57806343cd8f7e14620003675780635e9f961314620003715780635fa1e118146200037b5780636d966d0114620003bb578063715018a6146200041857806382e0d63714620004225762000178565b806306fdde03146200017d5780630e619aeb14620001ff57806326399b68146200024457806330bb063714620002c45780633a98ef391462000325578063408cfe241462000341575b600080fd5b62000187620008cb565b6040805160208082528351818301528351919283929083019185019080838360005b83811015620001c3578181015183820152602001620001a9565b50505050905090810190601f168015620001f15780820380516001836020036101000a031916815260200191505b509250505060405180910390f35b62000228600480360360208110156200021757600080fd5b50356001600160a01b03166200095d565b604080516001600160701b039092168252519081900360200190f35b62000299600480360360a08110156200025c57600080fd5b5080356001600160a01b039081169160208101359091169060408101359060608101356001600160701b0316906080013563ffffffff1662000978565b604080516001600160a01b0390931683526001600160701b0390911660208301528051918290030190f35b62000228600480360360c0811015620002dc57600080fd5b506001600160a01b0381358116916020810135909116906001600160701b036040820135169063ffffffff606082013581169160ff6080820135169160a0909101351662000ab6565b6200032f62000dc4565b60408051918252519081900360200190f35b6200034b62000dca565b604080516001600160a01b039092168252519081900360200190f35b6200034b62000dee565b6200032f62000e12565b620003b9600480360360608110156200039357600080fd5b5080356001600160a01b031690602081013590604001356001600160701b031662000e18565b005b620003e460048036036020811015620003d357600080fd5b50356001600160a01b031662001006565b604080519485526001600160701b03909316602085015263ffffffff91821684840152166060830152519081900360800190f35b620003b962001044565b620003b9600480360360c08110156200043a57600080fd5b5080356001600160a01b039081169160208101359091169060408101356001600160701b031690606081013590608081013563ffffffff169060a0013560ff1662001107565b6200034b600480360360208110156200049857600080fd5b50356200144f565b6200034b6200147a565b620003b960048036036060811015620004c257600080fd5b50803590602081013590604001356001600160a01b031662001489565b620003b9600480360360e0811015620004f757600080fd5b810190602081018135600160201b8111156200051257600080fd5b8201836020820111156200052557600080fd5b803590602001918460018302840111600160201b831117156200054757600080fd5b91908080601f0160208091040260200160405190810160405280939291908181526020018383808284376000920191909152509295949360208101935035915050600160201b8111156200059a57600080fd5b820183602082011115620005ad57600080fd5b803590602001918460018302840111600160201b83111715620005cf57600080fd5b91908080601f016020809104026020016040519081016040528093929190818152602001838380828437600092019190915250929563ffffffff85358116966001600160701b036020880135169660408101359092169550919350909150608081019060600135600160201b8111156200064857600080fd5b8201836020820111156200065b57600080fd5b803590602001918460208302840111600160201b831117156200067d57600080fd5b9190808060200260200160405190810160405280939291908181526020018383602002808284376000920191909152509295949360208101935035915050600160201b811115620006cd57600080fd5b820183602082011115620006e057600080fd5b803590602001918460208302840111600160201b831117156200070257600080fd5b919080806020026020016040519081016040528093929190818152602001838360200280828437600092019190915250929550620016b4945050505050565b6200076a600480360360208110156200075957600080fd5b50356001600160a01b031662001c15565b6040805160019290920b8252519081900360200190f35b6200018762001c2a565b620007c060048036036040811015620007a357600080fd5b5080356001600160a01b0316906020013563ffffffff1662001c88565b604080519115158252519081900360200190f35b620003b960048036036040811015620007ec57600080fd5b508035906020013563ffffffff1662001d13565b620007c0600480360360408110156200081857600080fd5b5080356001600160a01b0316906020013560ff1662001e36565b6200032f62001eaf565b6200087a600480360360608110156200085457600080fd5b5080356001600160a01b031690602081013563ffffffff16906040013560ff1662001eb5565b604080516001600160701b03909316835263ffffffff90911660208301528051918290030190f35b620003b960048036036020811015620008ba57600080fd5b50356001600160a01b031662001ef0565b6005805460408051602060026001851615610100026000190190941693909304601f81018490048402820184019092528181529291830182828015620009555780601f10620009295761010080835404028352916020019162000955565b820191906000526020600020905b8154815290600101906020018083116200093757829003601f168201915b505050505081565b600a602052600090815260409020546001600160701b031681565b60008060008060008060006200098e8a6200200b565b9450945094509450945060096001830361ffff1681548110620009ad57fe5b9060005260206000200160009054906101000a90046001600160a01b0316965060008c6001600160a01b031662fdd58e8d8d6040518363ffffffff1660e01b815260040180836001600160a01b031681526020018281526020019250505060206040518083038186803b15801562000a2457600080fd5b505afa15801562000a39573d6000803e3d6000fd5b505050506040513d602081101562000a5057600080fd5b505190508062000a6b57506000955062000aac945050505050565b808a62000a9088858860ff168b8b0363ffffffff168162000a8857fe5b048e62002169565b026001600160701b03168162000aa257fe5b0496505050505050505b9550959350505050565b600062000ac4878562001c88565b62000b0d576040805162461bcd60e51b8152602060048201526014602482015273111d5c985d1a5bdb881b9bdd08185b1b1bddd95960621b604482015290519081900360640190fd5b62000b19878462001e36565b62000b63576040805162461bcd60e51b815260206004820152601560248201527410dd5c9d985d1d5c99481b9bdd08185b1b1bddd959605a1b604482015290519081900360640190fd5b600254856001600160701b0316111562000bc4576040805162461bcd60e51b815260206004820152601a60248201527f546f6f206c6f7720617661696c61626c65207265736572766573000000000000604482015290519081900360640190fd5b6001600160a01b03871660009081526006602090815260408083208151815460e09481028201850190935260c0810183815290939192849284919084018282801562000c5c57602002820191906000526020600020906000905b82829054906101000a900463ffffffff1663ffffffff168152602001906004019060208260030104928301926001038202915080841162000c1e5790505b505050505081526020016001820180548060200260200160405190810160405280929190818152602001828054801562000cd457602002820191906000526020600020906000905b825461010083900a900460ff1681526020600192830181810494850194909303909202910180841162000ca45790505b5050509183525050600282015460208201526003909101546001600160701b038082166040840152600160701b820463ffffffff908116606080860191909152600160901b9093048116608094850152918401519284015160a0850151949550928116918916908a160202607087900360ff161c9160009162000d5a9184908862002169565b90506000886001600160701b031660025403600154836001600160701b0316028162000d8257fe5b04905060006001600160701b03821162000d9d578162000da6565b6001600160701b035b905062000db4818c620022bc565b9c9b505050505050505050505050565b60035481565b7f000000000000000000000000000000000000000000000000000000000000000081565b7f000000000000000000000000000000000000000000000000000000000000000081565b60025481565b6000836001600160a01b031662fdd58e33856040518363ffffffff1660e01b815260040180836001600160a01b031681526020018281526020019250505060206040518083038186803b15801562000e6f57600080fd5b505afa15801562000e84573d6000803e3d6000fd5b505050506040513d602081101562000e9b57600080fd5b505190506001600160701b03821681101562000efe576040805162461bcd60e51b815260206004820152601c60248201527f43616e2774206275726e206d6f726520746861742062616c616e636500000000604482015290519081900360640190fd5b60008062000f10863387874262000978565b91509150600062000f218662002337565b80546001600160701b031981166001600160701b0391821685900382161782556002805488831690810182556001600160a01b038b81166000908152600660205260409020909201805491909103905591925062000f869185169033908516620024c5565b60408051637a94c56560e11b8152336004820152602481018890526001600160701b038416604482015290516001600160a01b0389169163f5298aca91606480830192600092919082900301818387803b15801562000fe457600080fd5b505af115801562000ff9573d6000803e3d6000fd5b5050505050505050505050565b600660205260009081526040902060028101546003909101546001600160701b0381169063ffffffff600160701b8204811691600160901b90041684565b6200104e6200251e565b6001600160a01b0316620010616200147a565b6001600160a01b031614620010bd576040805162461bcd60e51b815260206004820181905260248201527f4f776e61626c653a2063616c6c6572206973206e6f7420746865206f776e6572604482015290519081900360640190fd5b600080546040516001600160a01b03909116907f8be0079c531659141344cd1fd0a4f28419497f9722a3daafe3b4186f6b6457e0908390a3600080546001600160a01b0319169055565b6001600160a01b038516600090815260086020526040812054600190810b900b13620011655760405162461bcd60e51b81526004018080602001828103825260338152602001806200491f6033913960400191505060405180910390fd5b62001171868362001c88565b620011ba576040805162461bcd60e51b8152602060048201526014602482015273111d5c985d1a5bdb881b9bdd08185b1b1bddd95960621b604482015290519081900360640190fd5b620011c6868262001e36565b62001210576040805162461bcd60e51b815260206004820152601560248201527410dd5c9d985d1d5c99481b9bdd08185b1b1bddd959605a1b604482015290519081900360640190fd5b600254846001600160701b0316111562001269576040805162461bcd60e51b8152602060048201526015602482015274496e73756666696369656e7420726573657276657360581b604482015290519081900360640190fd5b60006200127b87878786864262000ab6565b905083816001600160701b03161115620012cf576040805162461bcd60e51b815260206004820152601060248201526f536c69707061676520746f6f2062696760801b604482015290519081900360640190fd5b620012ef6001600160a01b03871633306001600160701b03851662002522565b600280546001600160701b0387169081900382556001600160a01b03808a166000908152600660209081526040808320909501805490940190935590891681526008909152908120546200134f90429086820190869060010b8662002584565b6040805163731133e960e01b8152336004820152602481018390526001600160701b03891660448201526080606482015260006084820181905291519293506001600160a01b038b169263731133e99260a48084019391929182900301818387803b158015620013be57600080fd5b505af1158015620013d3573d6000803e3d6000fd5b505050506000620013e48262002337565b80546001600160701b038082168601166001600160701b03199091161781556040805184815290519192506001600160a01b038b16917fac59582e5396aca512fa873a2047e7f4c80f8f55d4a06cb34a78a0187f62719f9181900360200190a2505050505050505050565b600981815481106200146057600080fd5b6000918252602090912001546001600160a01b0316905081565b6000546001600160a01b031690565b60007f00000000000000000000000000000000000000000000000000000000000000006001600160a01b031662fdd58e33856040518363ffffffff1660e01b815260040180836001600160a01b031681526020018281526020019250505060206040518083038186803b1580156200150057600080fd5b505afa15801562001515573d6000803e3d6000fd5b505050506040513d60208110156200152c57600080fd5b50519050838110156200157d576040805162461bcd60e51b8152602060048201526014602482015273496e73756666696369656e742062616c616e636560601b604482015290519081900360640190fd5b6000600354856200158d620025c6565b02816200159657fe5b0490507f00000000000000000000000000000000000000000000000000000000000000006001600160a01b0316836001600160a01b03161462001614576040805162461bcd60e51b8152602060048201526011602482015270139bdd081cdd5c1c1bdc9d1959081e595d607a1b604482015290519081900360640190fd5b60025481111562001665576040805162461bcd60e51b8152602060048201526016602482015275496e73756666696369656e74206c697175696469747960501b604482015290519081900360640190fd5b6200169b6001600160a01b037f0000000000000000000000000000000000000000000000000000000000000000163383620024c5565b6001805482900390556002805491909103905550505050565b60007f00000000000000000000000000000000000000000000000000000000000000006001600160a01b03166395d89b416040518163ffffffff1660e01b815260040160006040518083038186803b1580156200171057600080fd5b505afa15801562001725573d6000803e3d6000fd5b505050506040513d6000823e601f3d908101601f1916820160405260208110156200174f57600080fd5b8101908080516040519392919084600160201b8211156200176f57600080fd5b9083019060208201858111156200178557600080fd5b8251600160201b8111828201881017156200179f57600080fd5b82525081516020918201929091019080838360005b83811015620017ce578181015183820152602001620017b4565b50505050905090810190601f168015620017fc5780820380516001836020036101000a031916815260200191505b506040525050509050600081886040516020018083805190602001908083835b602083106200183d5780518252601f1990920191602091820191016200181c565b6001836020036101000a03801982511681845116808217855250505050505090500180600160fd1b81525060010182805190602001908083835b60208310620018985780518252601f19909201916020918201910162001877565b6001836020036101000a0380198251168184511680821785525050505050509050019250505060405160208183030381529060405290506000898260048a604051620018e4906200292a565b808060200180602001806020018563ffffffff168152602001848103845288818151815260200191508051906020019080838360005b83811015620019345781810151838201526020016200191a565b50505050905090810190601f168015620019625780820380516001836020036101000a031916815260200191505b50848103835287518152875160209182019189019080838360005b83811015620019975781810151838201526020016200197d565b50505050905090810190601f168015620019c55780820380516001836020036101000a031916815260200191505b5084810382528654600260001961010060018416150201909116048082526020909101908790801562001a3c5780601f1062001a105761010080835404028352916020019162001a3c565b820191906000526020600020905b81548152906001019060200180831162001a1e57829003601f168201915b5050975050505050505050604051809103906000f08015801562001a64573d6000803e3d6000fd5b506001600160a01b0381166000908152600660209081526040909120875192935062001a9592909188019062002938565b506001600160a01b0381166000908152600660209081526040909120855162001ac792600190920191870190620029ee565b508660066000836001600160a01b03166001600160a01b0316815260200190815260200160002060030160006101000a8154816001600160701b0302191690836001600160701b031602179055508560066000836001600160a01b03166001600160a01b0316815260200190815260200160002060030160126101000a81548163ffffffff021916908363ffffffff1602179055504260066000836001600160a01b03166001600160a01b03168152602001908152602001600020600301600e6101000a81548163ffffffff021916908363ffffffff160217905550806001600160a01b03167f9a57b384ed8b33098a5a53cb7b380bc8d9aebeecdabb44f362a2d91d8ce7aed7898989604051808463ffffffff168152602001836001600160701b031681526020018263ffffffff168152602001935050505060405180910390a250505050505050505050565b60086020526000908152604090205460010b81565b6004805460408051602060026001851615610100026000190190941693909304601f81018490048402820184019092528181529291830182828015620009555780601f10620009295761010080835404028352916020019162000955565b6001600160a01b03821660009081526006602052604081208054825b8181101562001d05578463ffffffff1683600001828154811062001cc457fe5b6000918252602090912060088204015460079091166004026101000a900463ffffffff16141562001cfc576001935050505062001d0d565b60010162001ca4565b506000925050505b92915050565b62001d4a6001600160a01b037f00000000000000000000000000000000000000000000000000000000000000001633308562002522565b60018054830190556002805483019055600062001d66620025c6565b905060006003546000141562001d7e57508262001d90565b8184600354028162001d8c57fe5b0490505b60408051630ab714fb60e11b815233600482015263ffffffff8516602482018190526044820184905291516001600160a01b037f0000000000000000000000000000000000000000000000000000000000000000169163156e29f691606480830192600092919082900301818387803b15801562001e0d57600080fd5b505af115801562001e22573d6000803e3d6000fd5b505060038054909401909355505050505050565b6001600160a01b03821660009081526006602052604081206001810154825b8181101562001d05578460ff1683600101828154811062001e7257fe5b60009182526020918290209181049091015460ff601f9092166101000a900416141562001ea6576001935050505062001d0d565b60010162001e55565b60015481565b60076020908152600093845260408085208252928452828420905282529020546001600160701b03811690600160701b900463ffffffff1682565b62001efa6200251e565b6001600160a01b031662001f0d6200147a565b6001600160a01b03161462001f69576040805162461bcd60e51b815260206004820181905260248201527f4f776e61626c653a2063616c6c6572206973206e6f7420746865206f776e6572604482015290519081900360640190fd5b6001600160a01b03811662001fb05760405162461bcd60e51b8152600401808060200182810382526026815260200180620048d36026913960400191505060405180910390fd5b600080546040516001600160a01b03808516939216917f8be0079c531659141344cd1fd0a4f28419497f9722a3daafe3b4186f6b6457e091a3600080546001600160a01b0319166001600160a01b0392909216919091179055565b60e081901c60c082901c63ffffffff1660b883901c60ff1660a884901c61ffff166001600160701b0385168462002078576040805162461bcd60e51b815260206004820152600c60248201526b496e76616c69642066726f6d60a01b604482015290519081900360640190fd5b60008463ffffffff1611620020c1576040805162461bcd60e51b815260206004820152600a602482015269496e76616c696420746f60b01b604482015290519081900360640190fd5b60008360ff16116200210e576040805162461bcd60e51b8152602060048201526011602482015270496e76616c69642063757276617475726560781b604482015290519081900360640190fd5b6000816001600160701b03161162002160576040805162461bcd60e51b815260206004820152601060248201526f125b9d985b1a59081a5b9d195c995cdd60821b604482015290519081900360640190fd5b91939590929450565b60008463ffffffff168263ffffffff161015620021be576040805162461bcd60e51b815260206004820152600e60248201526d125b9d985b1a59081c195c9a5bd960921b604482015290519081900360640190fd5b84820391508263ffffffff168263ffffffff1681620021d957fe5b0463ffffffff16846001600160701b0316901c93508263ffffffff168263ffffffff16816200220457fe5b06915063ffffffff821615806200222257506001600160701b038416155b1562002230575082620022b4565b60006001600160701b0385168163ffffffff86811690861671b17217f7d1cf79abc9e3b39803f2f6af40f302816200226457fe5b049050600160901b5b8215620022ad579282019280828402816200228457fe5b0493849003939250600160901b0180828402816200229e57fe5b049250600160901b016200226d565b5091925050505b949350505050565b60007f00000000000000000000000000000000000000000000000000000000000000006001600160a01b0316826001600160a01b031614620023305760405162461bcd60e51b815260040180806020018281038252602b81526020018062004952602b913960400191505060405180910390fd5b5090919050565b60008060008060006200234a866200200b565b509350935093509350600060096001830361ffff16815481106200236a57fe5b60009182526020808320909101546001600160a01b031680835260078252604080842063ffffffff8a8a0381811680885292865283872060ff8b1680895296529286208054909c50939650919493620023e293600160701b8104909316926001600160701b03169181620023da57fe5b044262002169565b88546001600160701b03160390507f00000000000000000000000000000000000000000000000000000000000000006001600160a01b0390811690841614156200244957600180546001600160701b03831690810190915560028054909101905562002481565b6001600160a01b0383166000908152600a6020526040902080546001600160701b038082168401166001600160701b03199091161790555b87546001600160701b031981166001600160701b0391821692909203161763ffffffff60701b1916600160701b4263ffffffff160217875550949695505050505050565b604080516001600160a01b038416602482015260448082018490528251808303909101815260649091019091526020810180516001600160e01b031663a9059cbb60e01b1790526200251990849062002642565b505050565b3390565b604080516001600160a01b0380861660248301528416604482015260648082018490528251808303909101815260849091019091526020810180516001600160e01b03166323b872dd60e01b1790526200257e90859062002642565b50505050565b6000816001600160701b031660a88461ffff16901b60b88660ff16901b60c08863ffffffff16901b60e08a63ffffffff16901b17171717905095945050505050565b60015460095460005b818110156200263d57600060098281548110620025e857fe5b60009182526020808320909101546001600160a01b0316808352600a90915260409091205490915062002625906001600160701b031682620022bc565b6001600160701b0316939093019250600101620025cf565b505090565b600062002699826040518060400160405280602081526020017f5361666545524332303a206c6f772d6c6576656c2063616c6c206661696c6564815250856001600160a01b0316620026f99092919063ffffffff16565b8051909150156200251957808060200190516020811015620026ba57600080fd5b5051620025195760405162461bcd60e51b815260040180806020018281038252602a8152602001806200497d602a913960400191505060405180910390fd5b60606200270a848460008562002714565b90505b9392505050565b606082471015620027575760405162461bcd60e51b8152600401808060200182810382526026815260200180620048f96026913960400191505060405180910390fd5b62002762856200287a565b620027b4576040805162461bcd60e51b815260206004820152601d60248201527f416464726573733a2063616c6c20746f206e6f6e2d636f6e7472616374000000604482015290519081900360640190fd5b600080866001600160a01b031685876040518082805190602001908083835b60208310620027f45780518252601f199092019160209182019101620027d3565b6001836020036101000a03801982511681845116808217855250505050505090500191505060006040518083038185875af1925050503d806000811462002858576040519150601f19603f3d011682016040523d82523d6000602084013e6200285d565b606091505b50915091506200286f82828662002880565b979650505050505050565b3b151590565b60608315620028915750816200270d565b825115620028a25782518084602001fd5b8160405162461bcd60e51b81526004018080602001828103825283818151815260200191508051906020019080838360005b83811015620028ee578181015183820152602001620028d4565b50505050905090810190601f1680156200291c5780820380516001836020036101000a031916815260200191505b509250505060405180910390fd5b611e348062002a9f83390190565b82805482825590600052602060002090600701600890048101928215620029dc5791602002820160005b83821115620029a857835183826101000a81548163ffffffff021916908363ffffffff160217905550926020019260040160208160030104928301926001030262002962565b8015620029da5782816101000a81549063ffffffff0219169055600401602081600301049283019260010302620029a8565b505b50620029ea92915062002a87565b5090565b82805482825590600052602060002090601f01602090048101928215620029dc5791602002820160005b8382111562002a5857835183826101000a81548160ff021916908360ff160217905550926020019260010160208160000104928301926001030262002a18565b8015620029da5782816101000a81549060ff021916905560010160208160000104928301926001030262002a58565b5b80821115620029ea576000815560010162002a8856fe60806040523480156200001157600080fd5b5060405162001e3438038062001e34833981810160405260808110156200003757600080fd5b81019080805160405193929190846401000000008211156200005857600080fd5b9083019060208201858111156200006e57600080fd5b82516401000000008111828201881017156200008957600080fd5b82525081516020918201929091019080838360005b83811015620000b85781810151838201526020016200009e565b50505050905090810190601f168015620000e65780820380516001836020036101000a031916815260200191505b50604052602001805160405193929190846401000000008211156200010a57600080fd5b9083019060208201858111156200012057600080fd5b82516401000000008111828201881017156200013b57600080fd5b82525081516020918201929091019080838360005b838110156200016a57818101518382015260200162000150565b50505050905090810190601f168015620001985780820380516001836020036101000a031916815260200191505b5060405260200180516040519392919084640100000000821115620001bc57600080fd5b908301906020820185811115620001d257600080fd5b8251640100000000811182820188101715620001ed57600080fd5b82525081516020918201929091019080838360005b838110156200021c57818101518382015260200162000202565b50505050905090810190601f1680156200024a5780820380516001836020036101000a031916815260200191505b50604052602090810151865190935086925085918591620002729160009190860190620002d9565b50815162000288906001906020850190620002d9565b5080516200029e906002906020840190620002d9565b5050600380546001600160a01b0319163317905550506006805463ffffffff90921663ffffffff199092169190911790555062000385915050565b828054600181600116156101000203166002900490600052602060002090601f0160209004810192826200031157600085556200035c565b82601f106200032c57805160ff19168380011785556200035c565b828001600101855582156200035c579182015b828111156200035c5782518255916020019190600101906200033f565b506200036a9291506200036e565b5090565b5b808211156200036a57600081556001016200036f565b611a9f80620003956000396000f3fe608060405234801561001057600080fd5b50600436106100e95760003560e01c80637bc90d1c1161008c578063a22cb46511610066578063a22cb465146105bd578063e985e9c5146105eb578063f242432a1461062d578063f5298aca146106c0576100e9565b80637bc90d1c146105705780638da5cb5b1461059157806395d89b41146105b5576100e9565b80632eb2c2d6116100c85780632eb2c2d6146101c65780634e1273f4146102ef5780635370028e14610462578063731133e9146104b0576100e9565b8062fdd58e146100ee57806306fdde031461012c5780630e89341c146101a9575b600080fd5b61011a6004803603604081101561010457600080fd5b506001600160a01b0381351690602001356106f2565b60408051918252519081900360200190f35b610134610764565b6040805160208082528351818301528351919283929083019185019080838360005b8381101561016e578181015183820152602001610156565b50505050905090810190601f16801561019b5780820380516001836020036101000a031916815260200191505b509250505060405180910390f35b610134600480360360208110156101bf57600080fd5b50356107f2565b6102ed600480360360a08110156101dc57600080fd5b6001600160a01b038235811692602081013590911691810190606081016040820135600160201b81111561020f57600080fd5b82018360208201111561022157600080fd5b803590602001918460208302840111600160201b8311171561024257600080fd5b919390929091602081019035600160201b81111561025f57600080fd5b82018360208201111561027157600080fd5b803590602001918460208302840111600160201b8311171561029257600080fd5b919390929091602081019035600160201b8111156102af57600080fd5b8201836020820111156102c157600080fd5b803590602001918460018302840111600160201b831117156102e257600080fd5b509092509050610887565b005b6104126004803603604081101561030557600080fd5b810190602081018135600160201b81111561031f57600080fd5b82018360208201111561033157600080fd5b803590602001918460208302840111600160201b8311171561035257600080fd5b9190808060200260200160405190810160405280939291908181526020018383602002808284376000920191909152509295949360208101935035915050600160201b8111156103a157600080fd5b8201836020820111156103b357600080fd5b803590602001918460208302840111600160201b831117156103d457600080fd5b919080806020026020016040519081016040528093929190818152602001838360200280828437600092019190915250929550610b27945050505050565b60408051602080825283518183015283519192839290830191858101910280838360005b8381101561044e578181015183820152602001610436565b505050509050019250505060405180910390f35b6104946004803603604081101561047857600080fd5b5080356001600160a01b0316906020013563ffffffff16610c13565b604080516001600160701b039092168252519081900360200190f35b6102ed600480360360808110156104c657600080fd5b6001600160a01b038235169160208101359160408201359190810190608081016060820135600160201b8111156104fc57600080fd5b82018360208201111561050e57600080fd5b803590602001918460018302840111600160201b8311171561052f57600080fd5b91908080601f016020809104026020016040519081016040528093929190818152602001838380828437600092019190915250929550610c78945050505050565b610578610ce1565b6040805163ffffffff9092168252519081900360200190f35b610599610ced565b604080516001600160a01b039092168252519081900360200190f35b610134610cfc565b6102ed600480360360408110156105d357600080fd5b506001600160a01b0381351690602001351515610d56565b6106196004803603604081101561060157600080fd5b506001600160a01b0381358116916020013516610e0c565b604080519115158252519081900360200190f35b6102ed600480360360a081101561064357600080fd5b6001600160a01b03823581169260208101359091169160408201359160608101359181019060a081016080820135600160201b81111561068257600080fd5b82018360208201111561069457600080fd5b803590602001918460018302840111600160201b831117156106b557600080fd5b509092509050610e3a565b6102ed600480360360608110156106d657600080fd5b506001600160a01b03813516906020810135906040013561100d565b60006001600160a01b0383166107395760405162461bcd60e51b815260040180806020018281038252602b8152602001806118f9602b913960400191505060405180910390fd5b5060008181526004602090815260408083206001600160a01b03861684529091529020545b92915050565b6000805460408051602060026001851615610100026000190190941693909304601f810184900484028201840190925281815292918301828280156107ea5780601f106107bf576101008083540402835291602001916107ea565b820191906000526020600020905b8154815290600101906020018083116107cd57829003601f168201915b505050505081565b60028054604080516020601f600019610100600187161502019094168590049384018190048102820181019092528281526060939092909183018282801561087b5780601f106108505761010080835404028352916020019161087b565b820191906000526020600020905b81548152906001019060200180831161085e57829003601f168201915b50505050509050919050565b6001600160a01b0387166108cc5760405162461bcd60e51b81526004018080602001828103825260258152602001806119246025913960400191505060405180910390fd5b84831461090a5760405162461bcd60e51b81526004018080602001828103825260298152602001806119b66029913960400191505060405180910390fd5b6001600160a01b03881633148061094957506001600160a01b038816600090815260056020908152604080832033845290915290205460ff1615156001145b6109845760405162461bcd60e51b815260040180806020018281038252602f815260200180611949602f913960400191505060405180910390fd5b60005b858110156109c7576109bf89898989858181106109a057fe5b905060200201358888868181106109b357fe5b9050602002013561106b565b600101610987565b50866001600160a01b0316886001600160a01b0316336001600160a01b03167f4a39dc06d4c0dbc64b70af90fd698a233a518aa5d07e595d983b8c0526c8f7fb898989896040518080602001806020018381038352878782818152602001925060200280828437600083820152601f01601f19169091018481038352858152602090810191508690860280828437600083820152604051601f909101601f19169092018290039850909650505050505050a4610b1d33898989898080602002602001604051908101604052809392919081815260200183836020028082843760009201919091525050604080516020808d0282810182019093528c82529093508c92508b91829185019084908082843760009201919091525050604080516020601f8c018190048102820181019092528a815292508a91508990819084018382808284376000920191909152506110b292505050565b5050505050505050565b60608151835114610b695760405162461bcd60e51b8152600401808060200182810382526029815260200180611a086029913960400191505060405180910390fd5b6000835167ffffffffffffffff81118015610b8357600080fd5b50604051908082528060200260200182016040528015610bad578160200160208202803683370190505b50905060005b8451811015610c0b57610bec858281518110610bcb57fe5b6020026020010151858381518110610bdf57fe5b60200260200101516106f2565b828281518110610bf857fe5b6020908102919091010152600101610bb3565b509392505050565b6001600160a01b0382166000908152600760209081526040808320815160608101835290546001600160701b038082168352600160701b82041693820193909352600160e01b90920463ffffffff1690820152610c7081846112a3565b949350505050565b6003546001600160a01b03163314610cc6576040805162461bcd60e51b815260206004820152600c60248201526b2737ba1030b71037bbb732b960a11b604482015290519081900360640190fd5b610cdb8484846001600160701b031684611323565b50505050565b60065463ffffffff1681565b6003546001600160a01b031681565b60018054604080516020600284861615610100026000190190941693909304601f810184900484028201840190925281815292918301828280156107ea5780601f106107bf576101008083540402835291602001916107ea565b336001600160a01b0383161415610d9e5760405162461bcd60e51b81526004018080602001828103825260298152602001806119df6029913960400191505060405180910390fd5b3360008181526005602090815260408083206001600160a01b03871680855290835292819020805460ff1916861515908117909155815190815290519293927f17307eab39ab6107e8899845ad3d59bd9653f200f220920489ca2b5937696c31929181900390910190a35050565b6001600160a01b03918216600090815260056020908152604080832093909416825291909152205460ff1690565b6001600160701b038310610e8b576040805162461bcd60e51b815260206004820152601360248201527256616c7565206f7574206f6620626f756e647360681b604482015290519081900360640190fd5b6001600160a01b038516610ede576040805162461bcd60e51b81526020600482015260156024820152742fba379036bab9ba103132903737b716bd32b9379760591b604482015290519081900360640190fd5b6001600160a01b038616331480610f1d57506001600160a01b038616600090815260056020908152604080832033845290915290205460ff1615156001145b610f585760405162461bcd60e51b815260040180806020018281038252602f815260200180611949602f913960400191505060405180910390fd5b610f648686868661106b565b846001600160a01b0316866001600160a01b0316336001600160a01b03167fc3d58168c5ae7397731d063d5bbf3d657854427343f4c083240f7aacaa2d0f628787604051808381526020018281526020019250505060405180910390a4611005338787878787878080601f0160208091040260200160405190810160405280939291908181526020018383808284376000920191909152506113a092505050565b505050505050565b6003546001600160a01b0316331461105b576040805162461bcd60e51b815260206004820152600c60248201526b2737ba1030b71037bbb732b960a11b604482015290519081900360640190fd5b611066838383611515565b505050565b611077848484846115a5565b60009182526004602090815260408084206001600160a01b039687168552909152808320805483900390559290931681522080549091019055565b6110c4846001600160a01b03166117ac565b156110055763bc197c8160e01b6001600160e01b031916846001600160a01b031663bc197c8188888787876040518663ffffffff1660e01b815260040180866001600160a01b03168152602001856001600160a01b03168152602001806020018060200180602001848103845287818151815260200191508051906020019060200280838360005b8381101561116457818101518382015260200161114c565b50505050905001848103835286818151815260200191508051906020019060200280838360005b838110156111a357818101518382015260200161118b565b50505050905001848103825285818151815260200191508051906020019080838360005b838110156111df5781810151838201526020016111c7565b50505050905090810190601f16801561120c5780820380516001836020036101000a031916815260200191505b5098505050505050505050602060405180830381600087803b15801561123157600080fd5b505af1158015611245573d6000803e3d6000fd5b505050506040513d602081101561125b57600080fd5b50516001600160e01b031916146110055760405162461bcd60e51b815260040180806020018281038252603e815260200180611978603e913960400191505060405180910390fd5b600082602001516001600160701b031683600001516001600160701b031611156112f5576040830151602084015184516006546112eb93929091039063ffffffff16856117b2565b835103905061075e565b60408301518351602085015160065461131993929091039063ffffffff16856117b2565b835101905061075e565b61133060008585856115a5565b60008381526004602090815260408083206001600160a01b0388168085529083528184208054870190558151878152928301869052815190939233927fc3d58168c5ae7397731d063d5bbf3d657854427343f4c083240f7aacaa2d0f6292918290030190a4610cdb336000868686865b6113b2846001600160a01b03166117ac565b156110055763f23a6e6160e01b6001600160e01b031916846001600160a01b031663f23a6e6188888787876040518663ffffffff1660e01b815260040180866001600160a01b03168152602001856001600160a01b0316815260200184815260200183815260200180602001828103825283818151815260200191508051906020019080838360005b8381101561145357818101518382015260200161143b565b50505050905090810190601f1680156114805780820380516001836020036101000a031916815260200191505b509650505050505050602060405180830381600087803b1580156114a357600080fd5b505af11580156114b7573d6000803e3d6000fd5b505050506040513d60208110156114cd57600080fd5b50516001600160e01b031916146110055760405162461bcd60e51b8152600401808060200182810382526039815260200180611a316039913960400191505060405180910390fd5b61152283600084846115a5565b60008281526004602090815260408083206001600160a01b0387168085529083528184208054869003905581518681529283018590528151909233927fc3d58168c5ae7397731d063d5bbf3d657854427343f4c083240f7aacaa2d0f6292918290030190a4611066338460008585604051806020016040528060008152506113a0565b426001600160a01b038516156116a6576001600160a01b038516600090815260076020908152604091829020825160608101845290546001600160701b038082168352600160701b82041692820192909252600160e01b90910463ffffffff169181019190915261161681836112a3565b6001600160701b03908116602083810191825263ffffffff85811660408087019182528651899003861687526001600160a01b038c166000908152600790945290922094518554935192516001600160701b031990941690851617600160701b600160e01b031916600160701b9290941691909102929092176001600160e01b0316600160e01b91909216021790555b6001600160a01b038416156117a5576001600160a01b038416600090815260076020908152604091829020825160608101845290546001600160701b038082168352600160701b82041692820192909252600160e01b90910463ffffffff169181019190915261171681836112a3565b6001600160701b03908116602083810191825263ffffffff858116604080870191825286518901861687526001600160a01b038b166000908152600790945290922094518554935192516001600160701b031990941690851617600160701b600160e01b031916600160701b9290941691909102929092176001600160e01b0316600160e01b91909216021790555b5050505050565b3b151590565b60008463ffffffff168263ffffffff161015611806576040805162461bcd60e51b815260206004820152600e60248201526d125b9d985b1a59081c195c9a5bd960921b604482015290519081900360640190fd5b84820391508263ffffffff168263ffffffff168161182057fe5b0463ffffffff16846001600160701b0316901c93508263ffffffff168263ffffffff168161184a57fe5b06915063ffffffff8216158061186757506001600160701b038416155b15611873575082610c70565b60006001600160701b0385168163ffffffff86811690861671b17217f7d1cf79abc9e3b39803f2f6af40f302816118a657fe5b049050600160901b5b82156118eb579282019280828402816118c457fe5b0493849003939250600160901b0180828402816118dd57fe5b049250600160901b016118af565b509197965050505050505056fe455243313135353a2062616c616e636520717565727920666f7220746865207a65726f206164647265737364657374696e6174696f6e2061646472657373206d757374206265206e6f6e2d7a65726f2e4e656564206f70657261746f7220617070726f76616c20666f7220337264207061727479207472616e73666572732e636f6e74726163742072657475726e656420616e20756e6b6e6f776e2076616c75652066726f6d206f6e45524331313535426174636852656365697665645f69647320616e64205f76616c756573206172726179206c656e677468206d757374206d617463682e455243313135353a2073657474696e6720617070726f76616c2073746174757320666f722073656c66455243313135353a206163636f756e747320616e6420696473206c656e677468206d69736d61746368636f6e74726163742072657475726e656420616e20756e6b6e6f776e2076616c75652066726f6d206f6e455243313135355265636569766564a2646970667358221220a6c04f906f50d540323bea762ee0d9999c9c6147e93c0fd9c81743eabce3b4c164736f6c634300070600334f776e61626c653a206e6577206f776e657220697320746865207a65726f2061646472657373416464726573733a20696e73756666696369656e742062616c616e636520666f722063616c6c496e746572657374207061796d656e7420746f6b656e2069732064697361626c6564206f72206e6f7420737570706f727465644f74686572207061796d656e74206f7074696f6e7320617265206e6f7420737570706f72746564207965745361666545524332303a204552433230206f7065726174696f6e20646964206e6f742073756363656564a264697066735822122072e3bc84ac8bf1cbb871c725f6e61a7e045bda862e289b27af58451656f89ada64736f6c6343000706003360806040523480156200001157600080fd5b50604051620017f9380380620017f9833981810160405260808110156200003757600080fd5b8151602083018051604051929492938301929190846401000000008211156200005f57600080fd5b9083019060208201858111156200007557600080fd5b82516401000000008111828201881017156200009057600080fd5b82525081516020918201929091019080838360005b83811015620000bf578181015183820152602001620000a5565b50505050905090810190601f168015620000ed5780820380516001836020036101000a031916815260200191505b50604052602001805160405193929190846401000000008211156200011157600080fd5b9083019060208201858111156200012757600080fd5b82516401000000008111828201881017156200014257600080fd5b82525081516020918201929091019080838360005b838110156200017157818101518382015260200162000157565b50505050905090810190601f1680156200019f5780820380516001836020036101000a031916815260200191505b5060405260200180516040519392919084640100000000821115620001c357600080fd5b908301906020820185811115620001d957600080fd5b8251640100000000811182820188101715620001f457600080fd5b82525081516020918201929091019080838360005b838110156200022357818101518382015260200162000209565b50505050905090810190601f168015620002515780820380516001836020036101000a031916815260200191505b50604052505050828282826000908051906020019062000273929190620002dc565b50815162000289906001906020850190620002dc565b5080516200029f906002906020840190620002dc565b505060038054336001600160a01b031991821617909155600680549091166001600160a01b03979097169690961790955550620003889350505050565b828054600181600116156101000203166002900490600052602060002090601f0160209004810192826200031457600085556200035f565b82601f106200032f57805160ff19168380011785556200035f565b828001600101855582156200035f579182015b828111156200035f57825182559160200191906001019062000342565b506200036d92915062000371565b5090565b5b808211156200036d576000815560010162000372565b61146180620003986000396000f3fe608060405234801561001057600080fd5b50600436106100e95760003560e01c80637082d2031161008c57806395d89b411161006657806395d89b41146104fa578063a22cb46514610502578063e985e9c514610530578063f242432a14610572576100e9565b80637082d2031461049c5780638da5cb5b146104ce5780639478a8c0146104f2576100e9565b8063156e29f6116100c8578063156e29f6146101c65780632eb2c2d6146101fa5780634e1273f414610321578063679aefce14610494576100e9565b8062fdd58e146100ee57806306fdde031461012c5780630e89341c146101a9575b600080fd5b61011a6004803603604081101561010457600080fd5b506001600160a01b038135169060200135610605565b60408051918252519081900360200190f35b610134610674565b6040805160208082528351818301528351919283929083019185019080838360005b8381101561016e578181015183820152602001610156565b50505050905090810190601f16801561019b5780820380516001836020036101000a031916815260200191505b509250505060405180910390f35b610134600480360360208110156101bf57600080fd5b5035610702565b6101f8600480360360608110156101dc57600080fd5b506001600160a01b038135169060208101359060400135610797565b005b6101f8600480360360a081101561021057600080fd5b6001600160a01b038235811692602081013590911691810190606081016040820135600160201b81111561024357600080fd5b82018360208201111561025557600080fd5b803590602001918460208302840111600160201b8311171561027657600080fd5b919390929091602081019035600160201b81111561029357600080fd5b8201836020820111156102a557600080fd5b803590602001918460208302840111600160201b831117156102c657600080fd5b919390929091602081019035600160201b8111156102e357600080fd5b8201836020820111156102f557600080fd5b803590602001918460018302840111600160201b8311171561031657600080fd5b5090925090506107c0565b6104446004803603604081101561033757600080fd5b810190602081018135600160201b81111561035157600080fd5b82018360208201111561036357600080fd5b803590602001918460208302840111600160201b8311171561038457600080fd5b9190808060200260200160405190810160405280939291908181526020018383602002808284376000920191909152509295949360208101935035915050600160201b8111156103d357600080fd5b8201836020820111156103e557600080fd5b803590602001918460208302840111600160201b8311171561040657600080fd5b919080806020026020016040519081016040528093929190818152602001838360200280828437600092019190915250929550610a60945050505050565b60408051602080825283518183015283519192839290830191858101910280838360005b83811015610480578181015183820152602001610468565b505050509050019250505060405180910390f35b61011a610b4c565b6101f8600480360360608110156104b257600080fd5b506001600160a01b0381351690602081013590604001356107bb565b6104d6610b51565b604080516001600160a01b039092168252519081900360200190f35b6104d6610b60565b610134610b6f565b6101f86004803603604081101561051857600080fd5b506001600160a01b0381351690602001351515610bc9565b61055e6004803603604081101561054657600080fd5b506001600160a01b0381358116916020013516610c7f565b604080519115158252519081900360200190f35b6101f8600480360360a081101561058857600080fd5b6001600160a01b03823581169260208101359091169160408201359160608101359181019060a081016080820135600160201b8111156105c757600080fd5b8201836020820111156105d957600080fd5b803590602001918460018302840111600160201b831117156105fa57600080fd5b509092509050610cad565b60006001600160a01b03831661064c5760405162461bcd60e51b815260040180806020018281038252602b8152602001806112bb602b913960400191505060405180910390fd5b5060009081526004602090815260408083206001600160a01b03949094168352929052205490565b6000805460408051602060026001851615610100026000190190941693909304601f810184900484028201840190925281815292918301828280156106fa5780601f106106cf576101008083540402835291602001916106fa565b820191906000526020600020905b8154815290600101906020018083116106dd57829003601f168201915b505050505081565b60028054604080516020601f600019610100600187161502019094168590049384018190048102820181019092528281526060939092909183018282801561078b5780601f106107605761010080835404028352916020019161078b565b820191906000526020600020905b81548152906001019060200180831161076e57829003601f168201915b50505050509050919050565b6107bb8383836001600160701b031660405180602001604052806000815250610e80565b505050565b6001600160a01b0387166108055760405162461bcd60e51b81526004018080602001828103825260258152602001806112e66025913960400191505060405180910390fd5b8483146108435760405162461bcd60e51b81526004018080602001828103825260298152602001806113786029913960400191505060405180910390fd5b6001600160a01b03881633148061088257506001600160a01b038816600090815260056020908152604080832033845290915290205460ff1615156001145b6108bd5760405162461bcd60e51b815260040180806020018281038252602f81526020018061130b602f913960400191505060405180910390fd5b60005b85811015610900576108f889898989858181106108d957fe5b905060200201358888868181106108ec57fe5b90506020020135610f07565b6001016108c0565b50866001600160a01b0316886001600160a01b0316336001600160a01b03167f4a39dc06d4c0dbc64b70af90fd698a233a518aa5d07e595d983b8c0526c8f7fb898989896040518080602001806020018381038352878782818152602001925060200280828437600083820152601f01601f19169091018481038352858152602090810191508690860280828437600083820152604051601f909101601f19169092018290039850909650505050505050a4610a5633898989898080602002602001604051908101604052809392919081815260200183836020028082843760009201919091525050604080516020808d0282810182019093528c82529093508c92508b91829185019084908082843760009201919091525050604080516020601f8c018190048102820181019092528a815292508a9150899081908401838280828437600092019190915250610f4e92505050565b5050505050505050565b60608151835114610aa25760405162461bcd60e51b81526004018080602001828103825260298152602001806113ca6029913960400191505060405180910390fd5b6000835167ffffffffffffffff81118015610abc57600080fd5b50604051908082528060200260200182016040528015610ae6578160200160208202803683370190505b50905060005b8451811015610b4457610b25858281518110610b0457fe5b6020026020010151858381518110610b1857fe5b6020026020010151610605565b828281518110610b3157fe5b6020908102919091010152600101610aec565b509392505050565b600090565b6003546001600160a01b031681565b6006546001600160a01b031681565b60018054604080516020600284861615610100026000190190941693909304601f810184900484028201840190925281815292918301828280156106fa5780601f106106cf576101008083540402835291602001916106fa565b336001600160a01b0383161415610c115760405162461bcd60e51b81526004018080602001828103825260298152602001806113a16029913960400191505060405180910390fd5b3360008181526005602090815260408083206001600160a01b03871680855290835292819020805460ff1916861515908117909155815190815290519293927f17307eab39ab6107e8899845ad3d59bd9653f200f220920489ca2b5937696c31929181900390910190a35050565b6001600160a01b03918216600090815260056020908152604080832093909416825291909152205460ff1690565b6001600160701b038310610cfe576040805162461bcd60e51b815260206004820152601360248201527256616c7565206f7574206f6620626f756e647360681b604482015290519081900360640190fd5b6001600160a01b038516610d51576040805162461bcd60e51b81526020600482015260156024820152742fba379036bab9ba103132903737b716bd32b9379760591b604482015290519081900360640190fd5b6001600160a01b038616331480610d9057506001600160a01b038616600090815260056020908152604080832033845290915290205460ff1615156001145b610dcb5760405162461bcd60e51b815260040180806020018281038252602f81526020018061130b602f913960400191505060405180910390fd5b610dd786868686610f07565b846001600160a01b0316866001600160a01b0316336001600160a01b03167fc3d58168c5ae7397731d063d5bbf3d657854427343f4c083240f7aacaa2d0f628787604051808381526020018281526020019250505060405180910390a4610e78338787878787878080601f01602080910402602001604051908101604052809392919081815260200183838082843760009201919091525061113f92505050565b505050505050565b610e8d6000858585610f01565b60008381526004602090815260408083206001600160a01b0388168085529083528184208054870190558151878152928301869052815190939233927fc3d58168c5ae7397731d063d5bbf3d657854427343f4c083240f7aacaa2d0f6292918290030190a4610f013360008686868661113f565b50505050565b610f1384848484610f01565b60009182526004602090815260408084206001600160a01b039687168552909152808320805483900390559290931681522080549091019055565b610f60846001600160a01b03166112b4565b15610e785763bc197c8160e01b6001600160e01b031916846001600160a01b031663bc197c8188888787876040518663ffffffff1660e01b815260040180866001600160a01b03168152602001856001600160a01b03168152602001806020018060200180602001848103845287818151815260200191508051906020019060200280838360005b83811015611000578181015183820152602001610fe8565b50505050905001848103835286818151815260200191508051906020019060200280838360005b8381101561103f578181015183820152602001611027565b50505050905001848103825285818151815260200191508051906020019080838360005b8381101561107b578181015183820152602001611063565b50505050905090810190601f1680156110a85780820380516001836020036101000a031916815260200191505b5098505050505050505050602060405180830381600087803b1580156110cd57600080fd5b505af11580156110e1573d6000803e3d6000fd5b505050506040513d60208110156110f757600080fd5b50516001600160e01b03191614610e785760405162461bcd60e51b815260040180806020018281038252603e81526020018061133a603e913960400191505060405180910390fd5b611151846001600160a01b03166112b4565b15610e785763f23a6e6160e01b6001600160e01b031916846001600160a01b031663f23a6e6188888787876040518663ffffffff1660e01b815260040180866001600160a01b03168152602001856001600160a01b0316815260200184815260200183815260200180602001828103825283818151815260200191508051906020019080838360005b838110156111f25781810151838201526020016111da565b50505050905090810190601f16801561121f5780820380516001836020036101000a031916815260200191505b509650505050505050602060405180830381600087803b15801561124257600080fd5b505af1158015611256573d6000803e3d6000fd5b505050506040513d602081101561126c57600080fd5b50516001600160e01b03191614610e785760405162461bcd60e51b81526004018080602001828103825260398152602001806113f36039913960400191505060405180910390fd5b3b15159056fe455243313135353a2062616c616e636520717565727920666f7220746865207a65726f206164647265737364657374696e6174696f6e2061646472657373206d757374206265206e6f6e2d7a65726f2e4e656564206f70657261746f7220617070726f76616c20666f7220337264207061727479207472616e73666572732e636f6e74726163742072657475726e656420616e20756e6b6e6f776e2076616c75652066726f6d206f6e45524331313535426174636852656365697665645f69647320616e64205f76616c756573206172726179206c656e677468206d757374206d617463682e455243313135353a2073657474696e6720617070726f76616c2073746174757320666f722073656c66455243313135353a206163636f756e747320616e6420696473206c656e677468206d69736d61746368636f6e74726163742072657475726e656420616e20756e6b6e6f776e2076616c75652066726f6d206f6e455243313135355265636569766564a264697066735822122072e041e1658edb9ba78153a0af8a5a72aa3ccdaf3b1e83fb745502d48ba117ac64736f6c63430007060033a2646970667358221220dcf7e3fe352ccf17b9318c08c8991b3f4ad6427438ad71b977af03847530d4ae64736f6c63430007060033",
  "linkReferences": {},
  "deployedLinkReferences": {}
}