{
  "_format": "hh-sol-artifact-1",
  "contractName": "EnterpriseFactory",
  "sourceName": "contracts/iq/EnterpriseFactory.sol",
  "abi": [
    {
      "inputs": [
        {
          "internalType": "address",
          "name": "enterpriseImpl",
          "type": "address"
        },
        {
          "internalType": "address",
          "name": "powerTokenImpl",
          "type": "address"
        },
        {
          "internalType": "address",
          "name": "interestTokenImpl",
          "type": "address"
        },
        {
          "internalType": "address",
          "name": "borrowTokenImpl",
          "type": "address"
        }
      ],
      "stateMutability": "nonpayable",
      "type": "constructor"
    },
    {
      "anonymous": false,
      "inputs": [
        {
          "indexed": true,
          "internalType": "address",
          "name": "creator",
          "type": "address"
        },
        {
          "indexed": true,
          "internalType": "address",
          "name": "liquidityToken",
          "type": "address"
        },
        {
          "indexed": false,
          "internalType": "string",
          "name": "name",
          "type": "string"
        },
        {
          "indexed": false,
          "internalType": "string",
          "name": "baseUri",
          "type": "string"
        },
        {
          "indexed": false,
          "internalType": "address",
          "name": "deployed",
          "type": "address"
        }
      ],
      "name": "EnterpriseDeployed",
      "type": "event"
    },
    {
      "inputs": [
        {
          "internalType": "string",
          "name": "name",
          "type": "string"
        },
        {
          "internalType": "address",
          "name": "liquidityToken",
          "type": "address"
        },
        {
          "internalType": "string",
          "name": "baseUri",
          "type": "string"
        }
      ],
      "name": "deploy",
      "outputs": [],
      "stateMutability": "nonpayable",
      "type": "function"
    },
    {
      "inputs": [],
      "name": "getBorrowTokenImpl",
      "outputs": [
        {
          "internalType": "address",
          "name": "",
          "type": "address"
        }
      ],
      "stateMutability": "view",
      "type": "function"
    },
    {
      "inputs": [],
      "name": "getEnterpriseImpl",
      "outputs": [
        {
          "internalType": "address",
          "name": "",
          "type": "address"
        }
      ],
      "stateMutability": "view",
      "type": "function"
    },
    {
      "inputs": [],
      "name": "getInterestTokenImpl",
      "outputs": [
        {
          "internalType": "address",
          "name": "",
          "type": "address"
        }
      ],
      "stateMutability": "view",
      "type": "function"
    },
    {
      "inputs": [],
      "name": "getPowerTokenImpl",
      "outputs": [
        {
          "internalType": "address",
          "name": "",
          "type": "address"
        }
      ],
      "stateMutability": "view",
      "type": "function"
    }
  ],
  "bytecode": "0x61010060405234801561001157600080fd5b506040516107a93803806107a98339818101604052608081101561003457600080fd5b50805160208201516040830151606090930151919290916001600160a01b0384166100a6576040805162461bcd60e51b815260206004820152601a60248201527f496e76616c696420456e74657270726973652061646472657373000000000000604482015290519081900360640190fd5b6001600160a01b038316610101576040805162461bcd60e51b815260206004820152601a60248201527f496e76616c696420506f776572546f6b656e2061646472657373000000000000604482015290519081900360640190fd5b6001600160a01b03821661015c576040805162461bcd60e51b815260206004820152601d60248201527f496e76616c696420496e746572657374546f6b656e2061646472657373000000604482015290519081900360640190fd5b6001600160a01b0381166101b7576040805162461bcd60e51b815260206004820152601b60248201527f496e76616c696420426f72726f77546f6b656e20616464726573730000000000604482015290519081900360640190fd5b6001600160601b0319606094851b811660805292841b831660a05290831b821660c05290911b1660e05260805160601c60a05160601c60c05160601c60e05160601c6105736102366000398061017b52806102975250806101e752806102555250806101c3528061027652508061019f528061021052506105736000f3fe608060405234801561001057600080fd5b50600436106100675760003560e01c806383b9a0091161005057806383b9a00914610098578063d2c598b5146100a0578063f0aa39a2146100a857610067565b8063628329551461006c57806382f9340914610090575b600080fd5b610074610179565b604080516001600160a01b039092168252519081900360200190f35b61007461019d565b6100746101c1565b6100746101e5565b610177600480360360608110156100be57600080fd5b8101906020810181356401000000008111156100d957600080fd5b8201836020820111156100eb57600080fd5b8035906020019184600183028401116401000000008311171561010d57600080fd5b919390926001600160a01b038335169260408101906020013564010000000081111561013857600080fd5b82018360208201111561014a57600080fd5b8035906020019184600183028401116401000000008311171561016c57600080fd5b509092509050610209565b005b7f000000000000000000000000000000000000000000000000000000000000000090565b7f000000000000000000000000000000000000000000000000000000000000000090565b7f000000000000000000000000000000000000000000000000000000000000000090565b7f000000000000000000000000000000000000000000000000000000000000000090565b600061023d7f00000000000000000000000000000000000000000000000000000000000000006001600160a01b0316610463565b9050806001600160a01b03166320e6021387878787877f00000000000000000000000000000000000000000000000000000000000000007f00000000000000000000000000000000000000000000000000000000000000007f0000000000000000000000000000000000000000000000000000000000000000336040518a63ffffffff1660e01b81526004018080602001896001600160a01b0316815260200180602001876001600160a01b03168152602001866001600160a01b03168152602001856001600160a01b03168152602001846001600160a01b0316815260200183810383528c8c82818152602001925080828437600083820152601f01601f191690910184810383528981526020019050898980828437600081840152601f19601f8201169050808301925050509b505050505050505050505050600060405180830381600087803b15801561039257600080fd5b505af11580156103a6573d6000803e3d6000fd5b50505050836001600160a01b0316336001600160a01b03167faf94cde051ff1210197fe31203f2210a396ffd110ab74cf8014d6bfd600842d58888878787604051808060200180602001846001600160a01b031681526020018381038352888882818152602001925080828437600083820152601f01601f191690910184810383528681526020019050868680828437600083820152604051601f909101601f1916909201829003995090975050505050505050a3505050505050565b60006040517f3d602d80600a3d3981f3363d3d373d3d3d363d7300000000000000000000000081528260601b60148201527f5af43d82803e903d91602b57fd5bf3000000000000000000000000000000000060288201526037816000f09150506001600160a01b03811661053857604080517f08c379a000000000000000000000000000000000000000000000000000000000815260206004820152601660248201527f455243313136373a20637265617465206661696c656400000000000000000000604482015290519081900360640190fd5b91905056fea26469706673582212209c23f89711bbdf99b1f68a679590fb16c5cc1adf27f7c11439bd339ba51d082b64736f6c63430007060033",
  "linkReferences": {},
  "deployedLinkReferences": {}
}