{
  "_format": "hh-sol-artifact-1",
  "contractName": "PowerTokenStorage",
  "sourceName": "contracts/PowerTokenStorage.sol",
  "abi": [
    {
      "inputs": [],
      "name": "allowPerpetualForever",
      "outputs": [],
      "stateMutability": "nonpayable",
      "type": "function"
    },
    {
      "inputs": [],
      "name": "allowsPerpetual",
      "outputs": [
        {
          "internalType": "bool",
          "name": "",
          "type": "bool"
        }
      ],
      "stateMutability": "view",
      "type": "function"
    },
    {
      "inputs": [],
      "name": "baseRate",
      "outputs": [
        {
          "internalType": "uint112",
          "name": "",
          "type": "uint112"
        }
      ],
      "stateMutability": "view",
      "type": "function"
    },
    {
      "inputs": [],
      "name": "baseToken",
      "outputs": [
        {
          "internalType": "contract IERC20Metadata",
          "name": "",
          "type": "address"
        }
      ],
      "stateMutability": "view",
      "type": "function"
    },
    {
      "inputs": [],
      "name": "gapHalvingPeriod",
      "outputs": [
        {
          "internalType": "uint32",
          "name": "",
          "type": "uint32"
        }
      ],
      "stateMutability": "view",
      "type": "function"
    },
    {
      "inputs": [],
      "name": "getEnterprise",
      "outputs": [
        {
          "internalType": "contract Enterprise",
          "name": "",
          "type": "address"
        }
      ],
      "stateMutability": "view",
      "type": "function"
    },
    {
      "inputs": [],
      "name": "index",
      "outputs": [
        {
          "internalType": "uint16",
          "name": "",
          "type": "uint16"
        }
      ],
      "stateMutability": "view",
      "type": "function"
    },
    {
      "inputs": [
        {
          "internalType": "contract Enterprise",
          "name": "enterprise_",
          "type": "address"
        },
        {
          "internalType": "uint112",
          "name": "baseRate_",
          "type": "uint112"
        },
        {
          "internalType": "uint96",
          "name": "minGCFee_",
          "type": "uint96"
        },
        {
          "internalType": "uint32",
          "name": "gapHalvingPeriod_",
          "type": "uint32"
        },
        {
          "internalType": "uint16",
          "name": "index_",
          "type": "uint16"
        },
        {
          "internalType": "contract IERC20Metadata",
          "name": "baseToken_",
          "type": "address"
        },
        {
          "internalType": "uint32",
          "name": "minLoanDuration_",
          "type": "uint32"
        },
        {
          "internalType": "uint32",
          "name": "maxLoanDuration_",
          "type": "uint32"
        },
        {
          "internalType": "uint16",
          "name": "serviceFeePercent_",
          "type": "uint16"
        },
        {
          "internalType": "bool",
          "name": "allowsPerpetual_",
          "type": "bool"
        }
      ],
      "name": "initialize",
      "outputs": [],
      "stateMutability": "nonpayable",
      "type": "function"
    },
    {
      "inputs": [
        {
          "internalType": "contract Enterprise",
          "name": "enterprise",
          "type": "address"
        }
      ],
      "name": "initialize",
      "outputs": [],
      "stateMutability": "nonpayable",
      "type": "function"
    },
    {
      "inputs": [
        {
          "internalType": "uint32",
          "name": "duration",
          "type": "uint32"
        }
      ],
      "name": "isAllowedLoanDuration",
      "outputs": [
        {
          "internalType": "bool",
          "name": "",
          "type": "bool"
        }
      ],
      "stateMutability": "view",
      "type": "function"
    },
    {
      "inputs": [],
      "name": "lambda",
      "outputs": [
        {
          "internalType": "uint256",
          "name": "",
          "type": "uint256"
        }
      ],
      "stateMutability": "view",
      "type": "function"
    },
    {
      "inputs": [],
      "name": "maxLoanDuration",
      "outputs": [
        {
          "internalType": "uint32",
          "name": "",
          "type": "uint32"
        }
      ],
      "stateMutability": "view",
      "type": "function"
    },
    {
      "inputs": [],
      "name": "minGCFee",
      "outputs": [
        {
          "internalType": "uint96",
          "name": "",
          "type": "uint96"
        }
      ],
      "stateMutability": "view",
      "type": "function"
    },
    {
      "inputs": [],
      "name": "minLoanDuration",
      "outputs": [
        {
          "internalType": "uint32",
          "name": "",
          "type": "uint32"
        }
      ],
      "stateMutability": "view",
      "type": "function"
    },
    {
      "inputs": [],
      "name": "serviceFeePercent",
      "outputs": [
        {
          "internalType": "uint16",
          "name": "",
          "type": "uint16"
        }
      ],
      "stateMutability": "view",
      "type": "function"
    },
    {
      "inputs": [
        {
          "internalType": "uint112",
          "name": "baseRate_",
          "type": "uint112"
        },
        {
          "internalType": "contract IERC20Metadata",
          "name": "baseToken_",
          "type": "address"
        },
        {
          "internalType": "uint96",
          "name": "minGCFee_",
          "type": "uint96"
        }
      ],
      "name": "setBaseRate",
      "outputs": [],
      "stateMutability": "nonpayable",
      "type": "function"
    },
    {
      "inputs": [
        {
          "internalType": "uint32",
          "name": "minLoanDuration_",
          "type": "uint32"
        },
        {
          "internalType": "uint32",
          "name": "maxLoanDuration_",
          "type": "uint32"
        }
      ],
      "name": "setLoanDurationLimits",
      "outputs": [],
      "stateMutability": "nonpayable",
      "type": "function"
    },
    {
      "inputs": [
        {
          "internalType": "uint16",
          "name": "newServiceFeePercent",
          "type": "uint16"
        }
      ],
      "name": "setServiceFeePercent",
      "outputs": [],
      "stateMutability": "nonpayable",
      "type": "function"
    },
    {
      "inputs": [
        {
          "internalType": "address",
          "name": "",
          "type": "address"
        }
      ],
      "name": "states",
      "outputs": [
        {
          "internalType": "uint112",
          "name": "lockedBalance",
          "type": "uint112"
        },
        {
          "internalType": "uint112",
          "name": "energy",
          "type": "uint112"
        },
        {
          "internalType": "uint32",
          "name": "timestamp",
          "type": "uint32"
        }
      ],
      "stateMutability": "view",
      "type": "function"
    }
  ],
  "bytecode": "0x608060405234801561001057600080fd5b50610dc7806100206000396000f3fe608060405234801561001057600080fd5b50600436106100f15760003560e01c806302a22337146100f65780630d148ab61461016b5780631f68f20a1461018057806327256486146101ab5780632986c0e5146101b35780632ef0cf8b146101db5780634522a06e146101ee57806353e6ccff1461021a5780636e4d898314610231578063759c8be314610254578063995bc51e14610267578063a4be77ee1461027c578063b53594ca14610293578063c0434352146102a7578063c4d66de8146102ba578063c55dae63146102cd578063dad0be61146102f8578063e298a2fd1461030f578063e8e2b23b14610320575b600080fd5b61013a610104366004610b78565b6004602052600090815260409020546001600160701b0380821691600160701b810490911690600160e01b900463ffffffff1683565b604080516001600160701b03948516815293909216602084015263ffffffff16908201526060015b60405180910390f35b61017e610179366004610cc0565b610352565b005b600154610193906001600160701b031681565b6040516001600160701b039091168152602001610162565b61017e61047d565b6001546101c890600160f01b900461ffff1681565b60405161ffff9091168152602001610162565b61017e6101e9366004610bb7565b610596565b60025461020590600160a01b900463ffffffff1681565b60405163ffffffff9091168152602001610162565b60015461020590600160d01b900463ffffffff1681565b61024461023f366004610cda565b610799565b6040519015158152602001610162565b61017e610262366004610c7c565b6107d7565b6002546101c890600160e01b900461ffff1681565b60025461020590600160c01b900463ffffffff1681565b60025461024490600160f01b900460ff1681565b61017e6102b5366004610cf4565b610930565b61017e6102c8366004610b78565b610a78565b6002546102e0906001600160a01b031681565b6040516001600160a01b039091168152602001610162565b61030160035481565b604051908152602001610162565b6000546001600160a01b03166102e0565b60015461033a90600160701b90046001600160601b031681565b6040516001600160601b039091168152602001610162565b60005460408051638da5cb5b60e01b8152905133926001600160a01b031691638da5cb5b916004808301926020929190829003018186803b15801561039657600080fd5b505afa1580156103aa573d6000803e3d6000fd5b505050506040513d601f19601f820116820180604052508101906103ce9190610b9b565b6001600160a01b031614604051806040016040528060018152602001603360f81b815250906104195760405162461bcd60e51b81526004016104109190610d26565b60405180910390fd5b50604080518082019091526002815261363760f01b602082015261138861ffff8316111561045a5760405162461bcd60e51b81526004016104109190610d26565b506002805461ffff909216600160e01b0261ffff60e01b19909216919091179055565b60005460408051638da5cb5b60e01b8152905133926001600160a01b031691638da5cb5b916004808301926020929190829003018186803b1580156104c157600080fd5b505afa1580156104d5573d6000803e3d6000fd5b505050506040513d601f19601f820116820180604052508101906104f99190610b9b565b6001600160a01b031614604051806040016040528060018152602001603360f81b8152509061053b5760405162461bcd60e51b81526004016104109190610d26565b50600280546040805180820190915291825261037360f41b6020830152600160f01b900460ff16156105805760405162461bcd60e51b81526004016104109190610d26565b506002805460ff60f01b1916600160f01b179055565b6001805460408051808201909152918252601960f91b6020830152600160d01b900463ffffffff16156105dc5760405162461bcd60e51b81526004016104109190610d26565b50604080518082019091526002815261343360f01b602082015263ffffffff881661061a5760405162461bcd60e51b81526004016104109190610d26565b50604080518082019091526002815261363760f01b602082015261138861ffff8416111561065b5760405162461bcd60e51b81526004016104109190610d26565b506002805460408051808201909152918252611a1960f11b602083015263ffffffff600160c01b82048116600160a01b9092041611156106ae5760405162461bcd60e51b81526004016104109190610d26565b506106b88a610a78565b600180546001600160701b039a909a166001600160d01b0319909a1699909917600160701b6001600160601b039990991698909802979097176001600160d01b0316600160d01b63ffffffff978816026001600160f01b031617600160f01b61ffff968716810291909117909855600280546001600160a01b03959095166001600160c01b031990951694909417600160a01b938716939093029290921765ffffffffffff60c01b1916600160c01b919095160261ffff60e01b191693909317600160e01b93909216929092021760ff60f01b191691151590920217905550565b60025460009063ffffffff808416600160a01b90920416118015906107d1575060025463ffffffff600160c01b909104811690831611155b92915050565b60005460408051638da5cb5b60e01b8152905133926001600160a01b031691638da5cb5b916004808301926020929190829003018186803b15801561081b57600080fd5b505afa15801561082f573d6000803e3d6000fd5b505050506040513d601f19601f820116820180604052508101906108539190610b9b565b6001600160a01b031614604051806040016040528060018152602001603360f81b815250906108955760405162461bcd60e51b81526004016104109190610d26565b5060028054604080518082019091529182526106c760f31b60208301526001600160a01b03166108d85760405162461bcd60e51b81526004016104109190610d26565b5060018054600280546001600160a01b039095166001600160a01b0319909516949094179093556001600160601b03909116600160701b026001600160d01b03199092166001600160701b0390931692909217179055565b60005460408051638da5cb5b60e01b8152905133926001600160a01b031691638da5cb5b916004808301926020929190829003018186803b15801561097457600080fd5b505afa158015610988573d6000803e3d6000fd5b505050506040513d601f19601f820116820180604052508101906109ac9190610b9b565b6001600160a01b031614604051806040016040528060018152602001603360f81b815250906109ee5760405162461bcd60e51b81526004016104109190610d26565b508063ffffffff168263ffffffff16111560405180604001604052806002815260200161363960f01b81525090610a385760405162461bcd60e51b81526004016104109190610d26565b5060028054600160a01b600160e01b031916600160a01b63ffffffff9485160263ffffffff60c01b191617600160c01b9290931691909102919091179055565b6000546040805180820190915260018152601960f91b6020820152906001600160a01b031615610abb5760405162461bcd60e51b81526004016104109190610d26565b50604080518082019091526002815261353960f01b60208201526001600160a01b038216610afc5760405162461bcd60e51b81526004016104109190610d26565b50600080546001600160a01b0319166001600160a01b0392909216919091179055565b80356001600160701b0381168114610b3657600080fd5b919050565b803561ffff81168114610b3657600080fd5b803563ffffffff81168114610b3657600080fd5b80356001600160601b0381168114610b3657600080fd5b600060208284031215610b89578081fd5b8135610b9481610d79565b9392505050565b600060208284031215610bac578081fd5b8151610b9481610d79565b6000806000806000806000806000806101408b8d031215610bd6578586fd5b8a35610be181610d79565b9950610bef60208c01610b1f565b9850610bfd60408c01610b61565b9750610c0b60608c01610b4d565b9650610c1960808c01610b3b565b955060a08b0135610c2981610d79565b9450610c3760c08c01610b4d565b9350610c4560e08c01610b4d565b9250610c546101008c01610b3b565b91506101208b01358015158114610c69578182fd5b809150509295989b9194979a5092959850565b600080600060608486031215610c90578283fd5b610c9984610b1f565b92506020840135610ca981610d79565b9150610cb760408501610b61565b90509250925092565b600060208284031215610cd1578081fd5b610b9482610b3b565b600060208284031215610ceb578081fd5b610b9482610b4d565b60008060408385031215610d06578182fd5b610d0f83610b4d565b9150610d1d60208401610b4d565b90509250929050565b6000602080835283518082850152825b81811015610d5257858101830151858201604001528201610d36565b81811115610d635783604083870101525b50601f01601f1916929092016040019392505050565b6001600160a01b0381168114610d8e57600080fd5b5056fea264697066735822122053450822e6ab82529fe2537804eaa87745d314e5f2a1d6fcb062a4ae7fc4f99f64736f6c63430008040033",
  "linkReferences": {},
  "deployedLinkReferences": {}
}