{
  "_format": "hh-sol-artifact-1",
  "contractName": "PowerTokenStorage",
  "sourceName": "contracts/PowerTokenStorage.sol",
  "abi": [
    {
      "inputs": [],
      "name": "allowPerpetualForever",
      "outputs": [],
      "stateMutability": "nonpayable",
      "type": "function"
    },
    {
      "inputs": [],
      "name": "getAllowsPerpetual",
      "outputs": [
        {
          "internalType": "bool",
          "name": "",
          "type": "bool"
        }
      ],
      "stateMutability": "view",
      "type": "function"
    },
    {
      "inputs": [],
      "name": "getBaseRate",
      "outputs": [
        {
          "internalType": "uint112",
          "name": "",
          "type": "uint112"
        }
      ],
      "stateMutability": "view",
      "type": "function"
    },
    {
      "inputs": [],
      "name": "getBaseToken",
      "outputs": [
        {
          "internalType": "contract IERC20Metadata",
          "name": "",
          "type": "address"
        }
      ],
      "stateMutability": "view",
      "type": "function"
    },
    {
      "inputs": [],
      "name": "getEnterprise",
      "outputs": [
        {
          "internalType": "contract Enterprise",
          "name": "",
          "type": "address"
        }
      ],
      "stateMutability": "view",
      "type": "function"
    },
    {
      "inputs": [],
      "name": "getGapHalvingPeriod",
      "outputs": [
        {
          "internalType": "uint32",
          "name": "",
          "type": "uint32"
        }
      ],
      "stateMutability": "view",
      "type": "function"
    },
    {
      "inputs": [],
      "name": "getIndex",
      "outputs": [
        {
          "internalType": "uint16",
          "name": "",
          "type": "uint16"
        }
      ],
      "stateMutability": "view",
      "type": "function"
    },
    {
      "inputs": [],
      "name": "getLambda",
      "outputs": [
        {
          "internalType": "uint256",
          "name": "",
          "type": "uint256"
        }
      ],
      "stateMutability": "view",
      "type": "function"
    },
    {
      "inputs": [],
      "name": "getMaxLoanDuration",
      "outputs": [
        {
          "internalType": "uint32",
          "name": "",
          "type": "uint32"
        }
      ],
      "stateMutability": "view",
      "type": "function"
    },
    {
      "inputs": [],
      "name": "getMinGCFee",
      "outputs": [
        {
          "internalType": "uint96",
          "name": "",
          "type": "uint96"
        }
      ],
      "stateMutability": "view",
      "type": "function"
    },
    {
      "inputs": [],
      "name": "getMinLoanDuration",
      "outputs": [
        {
          "internalType": "uint32",
          "name": "",
          "type": "uint32"
        }
      ],
      "stateMutability": "view",
      "type": "function"
    },
    {
      "inputs": [],
      "name": "getServiceFeePercent",
      "outputs": [
        {
          "internalType": "uint16",
          "name": "",
          "type": "uint16"
        }
      ],
      "stateMutability": "view",
      "type": "function"
    },
    {
      "inputs": [
        {
          "internalType": "address",
          "name": "account",
          "type": "address"
        }
      ],
      "name": "getState",
      "outputs": [
        {
          "components": [
            {
              "internalType": "uint112",
              "name": "lockedBalance",
              "type": "uint112"
            },
            {
              "internalType": "uint112",
              "name": "energy",
              "type": "uint112"
            },
            {
              "internalType": "uint32",
              "name": "timestamp",
              "type": "uint32"
            }
          ],
          "internalType": "struct PowerTokenStorage.State",
          "name": "",
          "type": "tuple"
        }
      ],
      "stateMutability": "view",
      "type": "function"
    },
    {
      "inputs": [
        {
          "internalType": "contract Enterprise",
          "name": "enterprise",
          "type": "address"
        },
        {
          "internalType": "uint112",
          "name": "baseRate",
          "type": "uint112"
        },
        {
          "internalType": "uint96",
          "name": "minGCFee",
          "type": "uint96"
        },
        {
          "internalType": "uint32",
          "name": "gapHalvingPeriod",
          "type": "uint32"
        },
        {
          "internalType": "uint16",
          "name": "index",
          "type": "uint16"
        },
        {
          "internalType": "contract IERC20Metadata",
          "name": "baseToken",
          "type": "address"
        },
        {
          "internalType": "uint32",
          "name": "minLoanDuration",
          "type": "uint32"
        },
        {
          "internalType": "uint32",
          "name": "maxLoanDuration",
          "type": "uint32"
        },
        {
          "internalType": "uint16",
          "name": "serviceFeePercent",
          "type": "uint16"
        },
        {
          "internalType": "bool",
          "name": "allowsPerpetual",
          "type": "bool"
        }
      ],
      "name": "initialize",
      "outputs": [],
      "stateMutability": "nonpayable",
      "type": "function"
    },
    {
      "inputs": [
        {
          "internalType": "contract Enterprise",
          "name": "enterprise",
          "type": "address"
        }
      ],
      "name": "initialize",
      "outputs": [],
      "stateMutability": "nonpayable",
      "type": "function"
    },
    {
      "inputs": [
        {
          "internalType": "uint32",
          "name": "duration",
          "type": "uint32"
        }
      ],
      "name": "isAllowedLoanDuration",
      "outputs": [
        {
          "internalType": "bool",
          "name": "",
          "type": "bool"
        }
      ],
      "stateMutability": "view",
      "type": "function"
    },
    {
      "inputs": [
        {
          "internalType": "uint112",
          "name": "baseRate",
          "type": "uint112"
        },
        {
          "internalType": "contract IERC20Metadata",
          "name": "baseToken",
          "type": "address"
        },
        {
          "internalType": "uint96",
          "name": "minGCFee",
          "type": "uint96"
        }
      ],
      "name": "setBaseRate",
      "outputs": [],
      "stateMutability": "nonpayable",
      "type": "function"
    },
    {
      "inputs": [
        {
          "internalType": "uint32",
          "name": "minLoanDuration",
          "type": "uint32"
        },
        {
          "internalType": "uint32",
          "name": "maxLoanDuration",
          "type": "uint32"
        }
      ],
      "name": "setLoanDurationLimits",
      "outputs": [],
      "stateMutability": "nonpayable",
      "type": "function"
    },
    {
      "inputs": [
        {
          "internalType": "uint16",
          "name": "newServiceFeePercent",
          "type": "uint16"
        }
      ],
      "name": "setServiceFeePercent",
      "outputs": [],
      "stateMutability": "nonpayable",
      "type": "function"
    }
  ],
  "bytecode": "0x608060405234801561001057600080fd5b50610dd0806100206000396000f3fe608060405234801561001057600080fd5b50600436106100f15760003560e01c80630aff9d19146100f65780630d148ab61461012657806313e7e63b1461013b5780631bab58f51461016157806327256486146102115780632ef0cf8b1461021957806342bb702e1461022c5780635932f4ff146102415780636dfbee1b146102565780636e4d898314610278578063759c8be31461029b57806381045ead146102ae578063927c9d87146102c157806398acd7a6146102d3578063b655d0c4146102f8578063c043435214610313578063c1ea019e14610326578063c4d66de814610337578063e298a2fd1461034a575b600080fd5b600154600160701b90046001600160601b03166040516001600160601b0390911681526020015b60405180910390f35b610139610134366004610cc9565b61035b565b005b600254600160a01b900463ffffffff165b60405163ffffffff909116815260200161011d565b6101db61016f366004610b81565b6040805160608082018352600080835260208084018290529284018190526001600160a01b03949094168452600482529282902082519384018352546001600160701b038082168552600160701b82041691840191909152600160e01b900463ffffffff169082015290565b6040805182516001600160701b039081168252602080850151909116908201529181015163ffffffff169082015260600161011d565b610139610486565b610139610227366004610bc0565b61059f565b600154600160d01b900463ffffffff1661014c565b600254600160c01b900463ffffffff1661014c565b600254600160e01b900461ffff165b60405161ffff909116815260200161011d565b61028b610286366004610ce3565b6107a2565b604051901515815260200161011d565b6101396102a9366004610c85565b6107e0565b600154600160f01b900461ffff16610265565b600254600160f01b900460ff1661028b565b6002546001600160a01b03165b6040516001600160a01b03909116815260200161011d565b6001546040516001600160701b03909116815260200161011d565b610139610321366004610cfd565b610939565b60035460405190815260200161011d565b610139610345366004610b81565b610a81565b6000546001600160a01b03166102e0565b60005460408051638da5cb5b60e01b8152905133926001600160a01b031691638da5cb5b916004808301926020929190829003018186803b15801561039f57600080fd5b505afa1580156103b3573d6000803e3d6000fd5b505050506040513d601f19601f820116820180604052508101906103d79190610ba4565b6001600160a01b031614604051806040016040528060018152602001603360f81b815250906104225760405162461bcd60e51b81526004016104199190610d2f565b60405180910390fd5b50604080518082019091526002815261363760f01b602082015261138861ffff831611156104635760405162461bcd60e51b81526004016104199190610d2f565b506002805461ffff909216600160e01b0261ffff60e01b19909216919091179055565b60005460408051638da5cb5b60e01b8152905133926001600160a01b031691638da5cb5b916004808301926020929190829003018186803b1580156104ca57600080fd5b505afa1580156104de573d6000803e3d6000fd5b505050506040513d601f19601f820116820180604052508101906105029190610ba4565b6001600160a01b031614604051806040016040528060018152602001603360f81b815250906105445760405162461bcd60e51b81526004016104199190610d2f565b50600280546040805180820190915291825261037360f41b6020830152600160f01b900460ff16156105895760405162461bcd60e51b81526004016104199190610d2f565b506002805460ff60f01b1916600160f01b179055565b6001805460408051808201909152918252601960f91b6020830152600160d01b900463ffffffff16156105e55760405162461bcd60e51b81526004016104199190610d2f565b50604080518082019091526002815261343360f01b602082015263ffffffff88166106235760405162461bcd60e51b81526004016104199190610d2f565b50604080518082019091526002815261363760f01b602082015261138861ffff841611156106645760405162461bcd60e51b81526004016104199190610d2f565b506002805460408051808201909152918252611a1960f11b602083015263ffffffff600160c01b82048116600160a01b9092041611156106b75760405162461bcd60e51b81526004016104199190610d2f565b506106c18a610a81565b600180546001600160701b039a909a166001600160d01b0319909a1699909917600160701b6001600160601b039990991698909802979097176001600160d01b0316600160d01b63ffffffff978816026001600160f01b031617600160f01b61ffff968716810291909117909855600280546001600160a01b03959095166001600160c01b031990951694909417600160a01b938716939093029290921765ffffffffffff60c01b1916600160c01b919095160261ffff60e01b191693909317600160e01b93909216929092021760ff60f01b191691151590920217905550565b60025460009063ffffffff808416600160a01b90920416118015906107da575060025463ffffffff600160c01b909104811690831611155b92915050565b60005460408051638da5cb5b60e01b8152905133926001600160a01b031691638da5cb5b916004808301926020929190829003018186803b15801561082457600080fd5b505afa158015610838573d6000803e3d6000fd5b505050506040513d601f19601f8201168201806040525081019061085c9190610ba4565b6001600160a01b031614604051806040016040528060018152602001603360f81b8152509061089e5760405162461bcd60e51b81526004016104199190610d2f565b5060028054604080518082019091529182526106c760f31b60208301526001600160a01b03166108e15760405162461bcd60e51b81526004016104199190610d2f565b5060018054600280546001600160a01b039095166001600160a01b0319909516949094179093556001600160601b03909116600160701b026001600160d01b03199092166001600160701b0390931692909217179055565b60005460408051638da5cb5b60e01b8152905133926001600160a01b031691638da5cb5b916004808301926020929190829003018186803b15801561097d57600080fd5b505afa158015610991573d6000803e3d6000fd5b505050506040513d601f19601f820116820180604052508101906109b59190610ba4565b6001600160a01b031614604051806040016040528060018152602001603360f81b815250906109f75760405162461bcd60e51b81526004016104199190610d2f565b508063ffffffff168263ffffffff16111560405180604001604052806002815260200161363960f01b81525090610a415760405162461bcd60e51b81526004016104199190610d2f565b5060028054600160a01b600160e01b031916600160a01b63ffffffff9485160263ffffffff60c01b191617600160c01b9290931691909102919091179055565b6000546040805180820190915260018152601960f91b6020820152906001600160a01b031615610ac45760405162461bcd60e51b81526004016104199190610d2f565b50604080518082019091526002815261353960f01b60208201526001600160a01b038216610b055760405162461bcd60e51b81526004016104199190610d2f565b50600080546001600160a01b0319166001600160a01b0392909216919091179055565b80356001600160701b0381168114610b3f57600080fd5b919050565b803561ffff81168114610b3f57600080fd5b803563ffffffff81168114610b3f57600080fd5b80356001600160601b0381168114610b3f57600080fd5b600060208284031215610b92578081fd5b8135610b9d81610d82565b9392505050565b600060208284031215610bb5578081fd5b8151610b9d81610d82565b6000806000806000806000806000806101408b8d031215610bdf578586fd5b8a35610bea81610d82565b9950610bf860208c01610b28565b9850610c0660408c01610b6a565b9750610c1460608c01610b56565b9650610c2260808c01610b44565b955060a08b0135610c3281610d82565b9450610c4060c08c01610b56565b9350610c4e60e08c01610b56565b9250610c5d6101008c01610b44565b91506101208b01358015158114610c72578182fd5b809150509295989b9194979a5092959850565b600080600060608486031215610c99578283fd5b610ca284610b28565b92506020840135610cb281610d82565b9150610cc060408501610b6a565b90509250925092565b600060208284031215610cda578081fd5b610b9d82610b44565b600060208284031215610cf4578081fd5b610b9d82610b56565b60008060408385031215610d0f578182fd5b610d1883610b56565b9150610d2660208401610b56565b90509250929050565b6000602080835283518082850152825b81811015610d5b57858101830151858201604001528201610d3f565b81811115610d6c5783604083870101525b50601f01601f1916929092016040019392505050565b6001600160a01b0381168114610d9757600080fd5b5056fea2646970667358221220518b92ba434cc930526086608cd4a4b30af70713d0da22228e4515e0c76ccb3164736f6c63430008040033",
  "linkReferences": {},
  "deployedLinkReferences": {}
}