{
  "_format": "hh-sol-artifact-1",
  "contractName": "DiamondCutFacet",
  "sourceName": "contracts/diamond/facets/DiamondCutFacet.sol",
  "abi": [
    {
      "anonymous": false,
      "inputs": [
        {
          "components": [
            {
              "internalType": "address",
              "name": "facetAddress",
              "type": "address"
            },
            {
              "internalType": "enum IDiamondCut.FacetCutAction",
              "name": "action",
              "type": "uint8"
            },
            {
              "internalType": "bytes4[]",
              "name": "functionSelectors",
              "type": "bytes4[]"
            }
          ],
          "indexed": false,
          "internalType": "struct IDiamondCut.FacetCut[]",
          "name": "_diamondCut",
          "type": "tuple[]"
        },
        {
          "indexed": false,
          "internalType": "address",
          "name": "_init",
          "type": "address"
        },
        {
          "indexed": false,
          "internalType": "bytes",
          "name": "_calldata",
          "type": "bytes"
        }
      ],
      "name": "DiamondCut",
      "type": "event"
    },
    {
      "inputs": [
        {
          "components": [
            {
              "internalType": "address",
              "name": "facetAddress",
              "type": "address"
            },
            {
              "internalType": "enum IDiamondCut.FacetCutAction",
              "name": "action",
              "type": "uint8"
            },
            {
              "internalType": "bytes4[]",
              "name": "functionSelectors",
              "type": "bytes4[]"
            }
          ],
          "internalType": "struct IDiamondCut.FacetCut[]",
          "name": "_diamondCut",
          "type": "tuple[]"
        },
        {
          "internalType": "address",
          "name": "_init",
          "type": "address"
        },
        {
          "internalType": "bytes",
          "name": "_calldata",
          "type": "bytes"
        }
      ],
      "name": "diamondCut",
      "outputs": [],
      "stateMutability": "nonpayable",
      "type": "function"
    }
  ],
  "bytecode": "0x608060405234801561001057600080fd5b50611495806100206000396000f3fe608060405234801561001057600080fd5b506004361061002b5760003560e01c80631f931c1c14610030575b600080fd5b61004361003e366004610c61565b610045565b005b61004d61009e565b61009761005a8587611326565b8484848080601f0160208091040260200160405190810160405280939291908181526020018383808284376000920191909152506100dc92505050565b5050505050565b6100a6610264565b600401546001600160a01b031633146100da5760405162461bcd60e51b81526004016100d190610f42565b60405180910390fd5b565b60005b83518110156102195760008482815181106100f657fe5b60200260200101516020015190506000600281111561011157fe5b81600281111561011d57fe5b14156101605761015b85838151811061013257fe5b60200260200101516000015186848151811061014a57fe5b602002602001015160400151610288565b610210565b600181600281111561016e57fe5b14156101ac5761015b85838151811061018357fe5b60200260200101516000015186848151811061019b57fe5b602002602001015160400151610482565b60028160028111156101ba57fe5b14156101f85761015b8583815181106101cf57fe5b6020026020010151600001518684815181106101e757fe5b602002602001015160400151610698565b60405162461bcd60e51b81526004016100d190611059565b506001016100df565b507f8faa70878671ccd212d20771b795c50af8fd3ff6cf27f4bde57e5d4de0aeb67383838360405161024d93929190610d88565b60405180910390a161025f8282610752565b505050565b7fc8fcad8db84d3cc18b4c41d551ea0ee66dd599cde068d998e57d5e09332c131c90565b60008151116102a95760405162461bcd60e51b81526004016100d190610f9f565b60006102b3610264565b90506001600160a01b0383166102db5760405162461bcd60e51b81526004016100d1906110b6565b6001600160a01b038316600090815260018201602052604090205461ffff811661037d576103218460405180606001604052806024815260200161143c60249139610879565b6002820180546001600160a01b038616600081815260018087016020908152604083208201805461ffff191661ffff90961695909517909455845490810185559381529190912090910180546001600160a01b03191690911790555b60005b835181101561009757600084828151811061039757fe5b6020908102919091018101516001600160e01b031981166000908152918690526040909120549091506001600160a01b031680156103e75760405162461bcd60e51b81526004016100d1906111cd565b506001600160a01b0386166000818152600186810160209081526040808420805480850182559085528285206008820401805463ffffffff60079093166004026101000a928302191660e089901c929092029190911790556001600160e01b0319909516835287905292902080546001600160a01b03191690911761ffff60a01b1916600160a01b61ffff8616021790559182019101610380565b60008151116104a35760405162461bcd60e51b81526004016100d190610f9f565b60006104ad610264565b90506001600160a01b0383166104d55760405162461bcd60e51b81526004016100d1906110b6565b6001600160a01b038316600090815260018201602052604090205461ffff81166105775761051b8460405180606001604052806024815260200161143c60249139610879565b6002820180546001600160a01b038616600081815260018087016020908152604083208201805461ffff191661ffff90961695909517909455845490810185559381529190912090910180546001600160a01b03191690911790555b60005b835181101561009757600084828151811061059157fe5b6020908102919091018101516001600160e01b031981166000908152918690526040909120549091506001600160a01b039081169087168114156105e75760405162461bcd60e51b81526004016100d19061122a565b6105f1818361089a565b506001600160e01b03198116600081815260208681526040808320805461ffff60a01b1916600160a01b61ffff8a16021781556001600160a01b038b168085526001808b018552928520805480850182559086528486206008820401805463ffffffff60079093166004026101000a928302191660e09990991c91909102979097179096559390925286905281546001600160a01b0319169092179055918201910161057a565b60008151116106b95760405162461bcd60e51b81526004016100d190610f9f565b60006106c3610264565b90506001600160a01b038316156106ec5760405162461bcd60e51b81526004016100d190611287565b60005b825181101561074c57600083828151811061070657fe5b6020908102919091018101516001600160e01b031981166000908152918590526040909120549091506001600160a01b0316610742818361089a565b50506001016106ef565b50505050565b6001600160a01b0382166107845780511561077f5760405162461bcd60e51b81526004016100d190610e88565b610875565b60008151116107a55760405162461bcd60e51b81526004016100d190611113565b6001600160a01b03821630146107d7576107d78260405180606001604052806028815260200161141460289139610879565b600080836001600160a01b0316836040516107f29190610d6c565b600060405180830381855af49150503d806000811461082d576040519150601f19603f3d011682016040523d82523d6000602084013e610832565b606091505b50915091508161074c5780511561085d578060405162461bcd60e51b81526004016100d19190610e6e565b60405162461bcd60e51b81526004016100d190610ee5565b5050565b813b818161074c5760405162461bcd60e51b81526004016100d19190610e6e565b60006108a4610264565b90506001600160a01b0383166108cc5760405162461bcd60e51b81526004016100d190610ffc565b6001600160a01b0383163014156108f55760405162461bcd60e51b81526004016100d190611170565b6001600160e01b03198216600090815260208281526040808320546001600160a01b03871684526001850190925290912054600160a01b90910461ffff169060001901808214610a16576001600160a01b0385166000908152600184016020526040812080548390811061096557fe5b600091825260208083206008830401546001600160a01b038a168452600188019091526040909220805460079092166004026101000a90920460e01b9250829190859081106109b057fe5b600091825260208083206008830401805463ffffffff60079094166004026101000a938402191660e09590951c929092029390931790556001600160e01b031992909216825284905260409020805461ffff60a01b1916600160a01b61ffff8516021790555b6001600160a01b03851660009081526001840160205260409020805480610a3957fe5b60008281526020808220600860001990940193840401805463ffffffff600460078716026101000a0219169055919092556001600160e01b0319861682528490526040902080547fffffffffffffffffffff00000000000000000000000000000000000000000000169055806100975760028301546001600160a01b03861660009081526001858101602052604090912001546000199091019061ffff16808214610b65576000856002018381548110610aef57fe5b6000918252602090912001546002870180546001600160a01b039092169250829184908110610b1a57fe5b600091825260208083209190910180546001600160a01b0319166001600160a01b0394851617905592909116815260018781019092526040902001805461ffff191661ffff83161790555b84600201805480610b7257fe5b60008281526020808220830160001990810180546001600160a01b03191690559092019092556001600160a01b03891682526001878101909152604090912001805461ffff1916905550505050505050565b80356001600160a01b0381168114610bdb57600080fd5b919050565b600082601f830112610bf0578081fd5b81356020610c05610c0083611308565b6112e4565b8281528181019085830183850287018401881015610c21578586fd5b855b85811015610c545781356001600160e01b031981168114610c42578788fd5b84529284019290840190600101610c23565b5090979650505050505050565b600080600080600060608688031215610c78578081fd5b853567ffffffffffffffff80821115610c8f578283fd5b818801915088601f830112610ca2578283fd5b813581811115610cb0578384fd5b60208a818284028601011115610cc4578485fd5b8084019850819750610cd7818b01610bc4565b965060408a0135935082841115610cec578485fd5b838a0193508a601f850112610cff578485fd5b8335915082821115610d0f578485fd5b8a81838601011115610d1f578485fd5b979a96995094975050909401935090919050565b6001600160a01b03169052565b60008151808452610d588160208601602086016113e7565b601f01601f19169290920160200192915050565b60008251610d7e8184602087016113e7565b9190910192915050565b606080825284518282018190526000919060809081850190602080820287018401818b01875b84811015610e3f57607f198a840301865281518884016001600160a01b0382511685528582015160038110610ddf57fe5b858701526040918201519185018a9052815190819052908501908a90898601905b80831015610e2a5783516001600160e01b0319168252928701926001929092019190870190610e00565b50978601979450505090830190600101610dae565b5050610e4d8289018b610d33565b8781036040890152610e5f818a610d40565b9b9a5050505050505050505050565b600060208252610e816020830184610d40565b9392505050565b6020808252603c908201527f4c69624469616d6f6e644375743a205f696e697420697320616464726573732860408201527f3029206275745f63616c6c64617461206973206e6f7420656d70747900000000606082015260800190565b60208082526026908201527f4c69624469616d6f6e644375743a205f696e69742066756e6374696f6e20726560408201527f7665727465640000000000000000000000000000000000000000000000000000606082015260800190565b60208082526022908201527f4c69624469616d6f6e643a204d75737420626520636f6e7472616374206f776e60408201527f6572000000000000000000000000000000000000000000000000000000000000606082015260800190565b6020808252602b908201527f4c69624469616d6f6e644375743a204e6f2073656c6563746f727320696e206660408201527f6163657420746f20637574000000000000000000000000000000000000000000606082015260800190565b60208082526037908201527f4c69624469616d6f6e644375743a2043616e27742072656d6f76652066756e6360408201527f74696f6e207468617420646f65736e2774206578697374000000000000000000606082015260800190565b60208082526027908201527f4c69624469616d6f6e644375743a20496e636f7272656374204661636574437560408201527f74416374696f6e00000000000000000000000000000000000000000000000000606082015260800190565b6020808252602c908201527f4c69624469616d6f6e644375743a204164642066616365742063616e2774206260408201527f6520616464726573732830290000000000000000000000000000000000000000606082015260800190565b6020808252603d908201527f4c69624469616d6f6e644375743a205f63616c6c6461746120697320656d707460408201527f7920627574205f696e6974206973206e6f742061646472657373283029000000606082015260800190565b6020808252602e908201527f4c69624469616d6f6e644375743a2043616e27742072656d6f766520696d6d7560408201527f7461626c652066756e6374696f6e000000000000000000000000000000000000606082015260800190565b60208082526035908201527f4c69624469616d6f6e644375743a2043616e2774206164642066756e6374696f60408201527f6e207468617420616c7265616479206578697374730000000000000000000000606082015260800190565b60208082526038908201527f4c69624469616d6f6e644375743a2043616e2774207265706c6163652066756e60408201527f6374696f6e20776974682073616d652066756e6374696f6e0000000000000000606082015260800190565b60208082526036908201527f4c69624469616d6f6e644375743a2052656d6f7665206661636574206164647260408201527f657373206d757374206265206164647265737328302900000000000000000000606082015260800190565b60405181810167ffffffffffffffff8111828210171561130057fe5b604052919050565b600067ffffffffffffffff82111561131c57fe5b5060209081020190565b6000611334610c0084611308565b8381526020808201919084845b878110156113db5781358701606080823603121561135d578788fd5b604080519182019167ffffffffffffffff808411828510171561137c57fe5b83835261138885610bc4565b82528785013593506003841061139c578a8bfd5b8388830152828501359350808411156113b3578a8bfd5b506113c036848601610be0565b91810191909152875250509382019390820190600101611341565b50919695505050505050565b60005b838110156114025781810151838201526020016113ea565b8381111561074c575050600091015256fe4c69624469616d6f6e644375743a205f696e6974206164647265737320686173206e6f20636f64654c69624469616d6f6e644375743a204e657720666163657420686173206e6f20636f6465a2646970667358221220b060408efbfee919d487620dfa82788cf15420566a3c14b9452f504dacdd7ecd64736f6c63430007060033",
  "linkReferences": {},
  "deployedLinkReferences": {}
}