{
  "_format": "hh-sol-artifact-1",
  "contractName": "EnterpriseStorage",
  "sourceName": "contracts/EnterpriseStorage.sol",
  "abi": [
    {
      "anonymous": false,
      "inputs": [
        {
          "indexed": true,
          "internalType": "address",
          "name": "previousOwner",
          "type": "address"
        },
        {
          "indexed": true,
          "internalType": "address",
          "name": "newOwner",
          "type": "address"
        }
      ],
      "name": "OwnershipTransferred",
      "type": "event"
    },
    {
      "inputs": [
        {
          "internalType": "address",
          "name": "token",
          "type": "address"
        }
      ],
      "name": "disablePaymentToken",
      "outputs": [],
      "stateMutability": "nonpayable",
      "type": "function"
    },
    {
      "inputs": [
        {
          "internalType": "address",
          "name": "token",
          "type": "address"
        }
      ],
      "name": "enablePaymentToken",
      "outputs": [],
      "stateMutability": "nonpayable",
      "type": "function"
    },
    {
      "inputs": [],
      "name": "getAvailableReserve",
      "outputs": [
        {
          "internalType": "uint256",
          "name": "",
          "type": "uint256"
        }
      ],
      "stateMutability": "view",
      "type": "function"
    },
    {
      "inputs": [],
      "name": "getBaseUri",
      "outputs": [
        {
          "internalType": "string",
          "name": "",
          "type": "string"
        }
      ],
      "stateMutability": "view",
      "type": "function"
    },
    {
      "inputs": [],
      "name": "getBondingLambda",
      "outputs": [
        {
          "internalType": "uint256",
          "name": "",
          "type": "uint256"
        }
      ],
      "stateMutability": "view",
      "type": "function"
    },
    {
      "inputs": [],
      "name": "getBorrowToken",
      "outputs": [
        {
          "internalType": "contract IBorrowToken",
          "name": "",
          "type": "address"
        }
      ],
      "stateMutability": "view",
      "type": "function"
    },
    {
      "inputs": [],
      "name": "getBorrowerLoanReturnGracePeriod",
      "outputs": [
        {
          "internalType": "uint32",
          "name": "",
          "type": "uint32"
        }
      ],
      "stateMutability": "view",
      "type": "function"
    },
    {
      "inputs": [],
      "name": "getConverter",
      "outputs": [
        {
          "internalType": "contract IConverter",
          "name": "",
          "type": "address"
        }
      ],
      "stateMutability": "view",
      "type": "function"
    },
    {
      "inputs": [],
      "name": "getEnterpriseCollector",
      "outputs": [
        {
          "internalType": "address",
          "name": "",
          "type": "address"
        }
      ],
      "stateMutability": "view",
      "type": "function"
    },
    {
      "inputs": [],
      "name": "getEnterpriseLoanCollectGracePeriod",
      "outputs": [
        {
          "internalType": "uint32",
          "name": "",
          "type": "uint32"
        }
      ],
      "stateMutability": "view",
      "type": "function"
    },
    {
      "inputs": [],
      "name": "getEnterpriseVault",
      "outputs": [
        {
          "internalType": "address",
          "name": "",
          "type": "address"
        }
      ],
      "stateMutability": "view",
      "type": "function"
    },
    {
      "inputs": [],
      "name": "getGCFeePercent",
      "outputs": [
        {
          "internalType": "uint16",
          "name": "",
          "type": "uint16"
        }
      ],
      "stateMutability": "view",
      "type": "function"
    },
    {
      "inputs": [],
      "name": "getInfo",
      "outputs": [
        {
          "internalType": "string",
          "name": "name",
          "type": "string"
        },
        {
          "internalType": "string",
          "name": "baseUri",
          "type": "string"
        },
        {
          "internalType": "uint256",
          "name": "totalShares",
          "type": "uint256"
        },
        {
          "internalType": "uint32",
          "name": "interestHalfLife",
          "type": "uint32"
        },
        {
          "internalType": "uint32",
          "name": "borrowerLoanReturnGracePeriod",
          "type": "uint32"
        },
        {
          "internalType": "uint32",
          "name": "enterpriseLoanCollectGracePeriod",
          "type": "uint32"
        },
        {
          "internalType": "uint16",
          "name": "gcFeePercent",
          "type": "uint16"
        },
        {
          "internalType": "uint256",
          "name": "fixedReserve",
          "type": "uint256"
        },
        {
          "internalType": "uint256",
          "name": "usedReserve",
          "type": "uint256"
        },
        {
          "internalType": "uint112",
          "name": "streamingReserve",
          "type": "uint112"
        },
        {
          "internalType": "uint112",
          "name": "streamingReserveTarget",
          "type": "uint112"
        },
        {
          "internalType": "uint32",
          "name": "streamingReserveUpdated",
          "type": "uint32"
        }
      ],
      "stateMutability": "view",
      "type": "function"
    },
    {
      "inputs": [],
      "name": "getInterestHalfLife",
      "outputs": [
        {
          "internalType": "uint32",
          "name": "",
          "type": "uint32"
        }
      ],
      "stateMutability": "view",
      "type": "function"
    },
    {
      "inputs": [],
      "name": "getInterestToken",
      "outputs": [
        {
          "internalType": "contract IInterestToken",
          "name": "",
          "type": "address"
        }
      ],
      "stateMutability": "view",
      "type": "function"
    },
    {
      "inputs": [
        {
          "internalType": "uint256",
          "name": "tokenId",
          "type": "uint256"
        }
      ],
      "name": "getLiquidityInfo",
      "outputs": [
        {
          "components": [
            {
              "internalType": "uint256",
              "name": "amount",
              "type": "uint256"
            },
            {
              "internalType": "uint256",
              "name": "shares",
              "type": "uint256"
            },
            {
              "internalType": "uint256",
              "name": "block",
              "type": "uint256"
            }
          ],
          "internalType": "struct EnterpriseStorage.LiquidityInfo",
          "name": "",
          "type": "tuple"
        }
      ],
      "stateMutability": "view",
      "type": "function"
    },
    {
      "inputs": [],
      "name": "getLiquidityToken",
      "outputs": [
        {
          "internalType": "contract IERC20Metadata",
          "name": "",
          "type": "address"
        }
      ],
      "stateMutability": "view",
      "type": "function"
    },
    {
      "inputs": [
        {
          "internalType": "uint256",
          "name": "tokenId",
          "type": "uint256"
        }
      ],
      "name": "getLoanInfo",
      "outputs": [
        {
          "components": [
            {
              "internalType": "uint112",
              "name": "amount",
              "type": "uint112"
            },
            {
              "internalType": "uint16",
              "name": "powerTokenIndex",
              "type": "uint16"
            },
            {
              "internalType": "uint32",
              "name": "borrowingTime",
              "type": "uint32"
            },
            {
              "internalType": "uint32",
              "name": "maturityTime",
              "type": "uint32"
            },
            {
              "internalType": "uint32",
              "name": "borrowerReturnGraceTime",
              "type": "uint32"
            },
            {
              "internalType": "uint32",
              "name": "enterpriseCollectGraceTime",
              "type": "uint32"
            },
            {
              "internalType": "uint112",
              "name": "gcFee",
              "type": "uint112"
            },
            {
              "internalType": "uint16",
              "name": "gcFeeTokenIndex",
              "type": "uint16"
            }
          ],
          "internalType": "struct EnterpriseStorage.LoanInfo",
          "name": "",
          "type": "tuple"
        }
      ],
      "stateMutability": "view",
      "type": "function"
    },
    {
      "inputs": [],
      "name": "getPowerTokens",
      "outputs": [
        {
          "internalType": "contract PowerToken[]",
          "name": "",
          "type": "address[]"
        }
      ],
      "stateMutability": "view",
      "type": "function"
    },
    {
      "inputs": [],
      "name": "getProxyAdmin",
      "outputs": [
        {
          "internalType": "contract ProxyAdmin",
          "name": "",
          "type": "address"
        }
      ],
      "stateMutability": "view",
      "type": "function"
    },
    {
      "inputs": [],
      "name": "getReserve",
      "outputs": [
        {
          "internalType": "uint256",
          "name": "",
          "type": "uint256"
        }
      ],
      "stateMutability": "view",
      "type": "function"
    },
    {
      "inputs": [],
      "name": "getUsedReserve",
      "outputs": [
        {
          "internalType": "uint256",
          "name": "",
          "type": "uint256"
        }
      ],
      "stateMutability": "view",
      "type": "function"
    },
    {
      "inputs": [
        {
          "internalType": "string",
          "name": "enterpriseName",
          "type": "string"
        },
        {
          "internalType": "string",
          "name": "baseUri",
          "type": "string"
        },
        {
          "internalType": "uint16",
          "name": "gcFeePercent",
          "type": "uint16"
        },
        {
          "internalType": "contract IConverter",
          "name": "converter",
          "type": "address"
        },
        {
          "internalType": "contract ProxyAdmin",
          "name": "proxyAdmin",
          "type": "address"
        },
        {
          "internalType": "address",
          "name": "owner",
          "type": "address"
        }
      ],
      "name": "initialize",
      "outputs": [],
      "stateMutability": "nonpayable",
      "type": "function"
    },
    {
      "inputs": [
        {
          "internalType": "address",
          "name": "initialOwner",
          "type": "address"
        }
      ],
      "name": "initialize",
      "outputs": [],
      "stateMutability": "nonpayable",
      "type": "function"
    },
    {
      "inputs": [
        {
          "internalType": "contract IERC20Metadata",
          "name": "liquidityToken",
          "type": "address"
        },
        {
          "internalType": "contract IInterestToken",
          "name": "interestToken",
          "type": "address"
        },
        {
          "internalType": "contract IBorrowToken",
          "name": "borrowToken",
          "type": "address"
        }
      ],
      "name": "initializeTokens",
      "outputs": [],
      "stateMutability": "nonpayable",
      "type": "function"
    },
    {
      "inputs": [
        {
          "internalType": "contract PowerToken",
          "name": "powerToken",
          "type": "address"
        }
      ],
      "name": "isRegisteredPowerToken",
      "outputs": [
        {
          "internalType": "bool",
          "name": "",
          "type": "bool"
        }
      ],
      "stateMutability": "view",
      "type": "function"
    },
    {
      "inputs": [
        {
          "internalType": "contract IERC20",
          "name": "token",
          "type": "address"
        }
      ],
      "name": "isSupportedPaymentToken",
      "outputs": [
        {
          "internalType": "bool",
          "name": "",
          "type": "bool"
        }
      ],
      "stateMutability": "view",
      "type": "function"
    },
    {
      "inputs": [],
      "name": "owner",
      "outputs": [
        {
          "internalType": "address",
          "name": "",
          "type": "address"
        }
      ],
      "stateMutability": "view",
      "type": "function"
    },
    {
      "inputs": [
        {
          "internalType": "uint256",
          "name": "index",
          "type": "uint256"
        }
      ],
      "name": "paymentToken",
      "outputs": [
        {
          "internalType": "address",
          "name": "",
          "type": "address"
        }
      ],
      "stateMutability": "view",
      "type": "function"
    },
    {
      "inputs": [
        {
          "internalType": "contract IERC20",
          "name": "token",
          "type": "address"
        }
      ],
      "name": "paymentTokenIndex",
      "outputs": [
        {
          "internalType": "int16",
          "name": "",
          "type": "int16"
        }
      ],
      "stateMutability": "view",
      "type": "function"
    },
    {
      "inputs": [
        {
          "internalType": "string",
          "name": "baseUri",
          "type": "string"
        }
      ],
      "name": "setBaseUri",
      "outputs": [],
      "stateMutability": "nonpayable",
      "type": "function"
    },
    {
      "inputs": [
        {
          "internalType": "uint256",
          "name": "lambda",
          "type": "uint256"
        }
      ],
      "name": "setBondingLambda",
      "outputs": [],
      "stateMutability": "nonpayable",
      "type": "function"
    },
    {
      "inputs": [
        {
          "internalType": "uint32",
          "name": "newPeriod",
          "type": "uint32"
        }
      ],
      "name": "setBorrowerLoanReturnGracePeriod",
      "outputs": [],
      "stateMutability": "nonpayable",
      "type": "function"
    },
    {
      "inputs": [
        {
          "internalType": "contract IConverter",
          "name": "newConverter",
          "type": "address"
        }
      ],
      "name": "setConverter",
      "outputs": [],
      "stateMutability": "nonpayable",
      "type": "function"
    },
    {
      "inputs": [
        {
          "internalType": "address",
          "name": "newCollector",
          "type": "address"
        }
      ],
      "name": "setEnterpriseCollector",
      "outputs": [],
      "stateMutability": "nonpayable",
      "type": "function"
    },
    {
      "inputs": [
        {
          "internalType": "uint32",
          "name": "newPeriod",
          "type": "uint32"
        }
      ],
      "name": "setEnterpriseLoanCollectGracePeriod",
      "outputs": [],
      "stateMutability": "nonpayable",
      "type": "function"
    },
    {
      "inputs": [
        {
          "internalType": "address",
          "name": "newVault",
          "type": "address"
        }
      ],
      "name": "setEnterpriseVault",
      "outputs": [],
      "stateMutability": "nonpayable",
      "type": "function"
    },
    {
      "inputs": [
        {
          "internalType": "uint16",
          "name": "newGcFeePercent",
          "type": "uint16"
        }
      ],
      "name": "setGcFeePercent",
      "outputs": [],
      "stateMutability": "nonpayable",
      "type": "function"
    },
    {
      "inputs": [
        {
          "internalType": "uint32",
          "name": "interestHalfLife",
          "type": "uint32"
        }
      ],
      "name": "setInterestHalfLife",
      "outputs": [],
      "stateMutability": "nonpayable",
      "type": "function"
    },
    {
      "inputs": [
        {
          "internalType": "address",
          "name": "newOwner",
          "type": "address"
        }
      ],
      "name": "transferOwnership",
      "outputs": [],
      "stateMutability": "nonpayable",
      "type": "function"
    },
    {
      "inputs": [
        {
          "internalType": "address",
          "name": "implementation",
          "type": "address"
        }
      ],
      "name": "upgradeBorrowToken",
      "outputs": [],
      "stateMutability": "nonpayable",
      "type": "function"
    },
    {
      "inputs": [
        {
          "internalType": "address",
          "name": "implementation",
          "type": "address"
        }
      ],
      "name": "upgradeEnterprise",
      "outputs": [],
      "stateMutability": "nonpayable",
      "type": "function"
    },
    {
      "inputs": [
        {
          "internalType": "address",
          "name": "implementation",
          "type": "address"
        }
      ],
      "name": "upgradeInterestToken",
      "outputs": [],
      "stateMutability": "nonpayable",
      "type": "function"
    },
    {
      "inputs": [
        {
          "internalType": "contract PowerToken",
          "name": "powerToken",
          "type": "address"
        },
        {
          "internalType": "address",
          "name": "implementation",
          "type": "address"
        }
      ],
      "name": "upgradePowerToken",
      "outputs": [],
      "stateMutability": "nonpayable",
      "type": "function"
    }
  ],
  "bytecode": "0x608060405234801561001057600080fd5b506122c0806100206000396000f3fe608060405234801561001057600080fd5b50600436106102045760003560e01c80630714012c146102095780630cac36b2146103095780630e101b601461031e5780630ea1dc9e146103495780632261b07f1461035a5780632b2f60951461036b5780632e365ade146103805780632ef02be3146103935780632fb2067f146103a657806337592148146103e7578063449497ec1461040d57806359bf5d39146104205780635a9b0b891461043657806362c1f38814610456578063644e44df146104695780636815f3371461047a5780636936cc2d1461048d5780637791c42d146104955780637b024363146104a65780638188d50d146104b957806389035b61146104ce5780638b3240a0146104fa5780638da5cb5b1461050257806390f55edd1461050a5780639c7aa7f81461051d578063a0bcfc7f14610530578063a0efd11814610543578063a554b26d14610558578063aebb504114610569578063b19337a414610571578063b406bf6d14610584578063b56de97e146105a5578063b96266fa146105b8578063bfd84fb4146105cd578063c1fc16d8146105e0578063c2294784146105f3578063c4d66de814610606578063c93d0b9214610619578063df57f2fa1461062a578063edc1a6281461065f578063ef1f9f3914610672578063f2fde38b14610685578063fbac9a5514610698578063fcb2884e146106be575b600080fd5b6102f3610217366004611ebb565b6040805161010081018252600080825260208201819052918101829052606081018290526080810182905260a0810182905260c0810182905260e08101919091525060009081526010602090815260409182902082516101008101845281546001600160701b038082168352600160701b80830461ffff90811696850196909652600160801b830463ffffffff90811697850197909752600160a01b830487166060850152600160c01b830487166080850152600160e01b90920490951660a083015260019092015493841660c082015292041660e082015290565b604051610300919061205f565b60405180910390f35b6103116106c6565b6040516103009190611fa9565b61033161032c366004611ebb565b610758565b6040516001600160a01b039091168152602001610300565b6001546001600160a01b0316610331565b6004546001600160a01b0316610331565b61037e610379366004611ca5565b610796565b005b61037e61038e366004611ed3565b61085b565b61037e6103a1366004611ebb565b61091c565b6103d76103b4366004611ca5565b6001600160a01b0316600090815260076020526040812054600190810b900b1390565b6040519015158152602001610300565b600354600160a01b900463ffffffff165b60405163ffffffff9091168152602001610300565b61037e61041b366004611ea1565b61096d565b6104286109db565b604051908152602001610300565b61043e610a00565b6040516103009c9b9a99989796959493929190611fbc565b61037e610464366004611ca5565b610bc3565b6000546001600160a01b0316610331565b61037e610488366004611d89565b610c72565b600d54610428565b6006546001600160a01b0316610331565b61037e6104b4366004611ca5565b610dbc565b600654600160a01b900463ffffffff166103f8565b6103d76104dc366004611ca5565b6001600160a01b031660009081526012602052604090205460ff1690565b610331610e43565b610331610e64565b61037e610518366004611ca5565b610e7a565b61037e61052b366004611ca5565b610f29565b61037e61053e366004611d4a565b611050565b600654600160c01b900463ffffffff166103f8565b6005546001600160a01b0316610331565b6104286110ad565b61037e61057f366004611ca5565b6110c4565b600654600160e01b900461ffff1660405161ffff9091168152602001610300565b61037e6105b3366004611ed3565b611173565b6105c0611233565b6040516103009190611f42565b61037e6105db366004611ca5565b611294565b61037e6105ee366004611ca5565b61132a565b61037e610601366004611d12565b6113ab565b61037e610614366004611ca5565b6114b8565b6002546001600160a01b0316610331565b61063d610638366004611ebb565b61158d565b6040805182518152602080840151908201529181015190820152606001610300565b61037e61066d366004611ed3565b6115ea565b61037e610680366004611cc8565b61169a565b61037e610693366004611ca5565b611724565b6106ab6106a6366004611ca5565b611815565b60405160019190910b8152602001610300565b600a54610428565b6060600f80546106d59061218e565b80601f01602080910402602001604051908101604052809291908181526020018280546107019061218e565b801561074e5780601f106107235761010080835404028352916020019161074e565b820191906000526020600020905b81548152906001019060200180831161073157829003601f168201915b5050505050905090565b60006008828154811061077b57634e487b7160e01b600052603260045260246000fd5b6000918252602090912001546001600160a01b031692915050565b3361079f610e64565b6001600160a01b031614604051806040016040528060018152602001603360f81b815250906107ea5760405162461bcd60e51b81526004016107e19190611fa9565b60405180910390fd5b506107f3610e43565b60015460405163266a23b160e21b81526001600160a01b03928316926399a88ec492610826929116908590600401611f8f565b600060405180830381600087803b15801561084057600080fd5b505af1158015610854573d6000803e3d6000fd5b5050505050565b33610864610e64565b6001600160a01b031614604051806040016040528060018152602001603360f81b815250906108a65760405162461bcd60e51b81526004016107e19190611fa9565b506006546040805180820190915260028152610d8d60f21b60208201529063ffffffff600160c01b909104811690831611156108f55760405162461bcd60e51b81526004016107e19190611fa9565b506006805463ffffffff909216600160a01b0263ffffffff60a01b19909216919091179055565b33610925610e64565b6001600160a01b031614604051806040016040528060018152602001603360f81b815250906109675760405162461bcd60e51b81526004016107e19190611fa9565b50600d55565b33610976610e64565b6001600160a01b031614604051806040016040528060018152602001603360f81b815250906109b85760405162461bcd60e51b81526004016107e19190611fa9565b506006805461ffff909216600160e01b0261ffff60e01b19909216919091179055565b60006109e5611842565b6001600160701b03166009546109fb91906120f2565b905090565b600c54600354600654600954600a54600b54600e805460609788976000978897889788978897889788978897889788979496600f96939563ffffffff600160a01b94859004811696948404811695600160c01b850482169561ffff600160e01b9687900416959394936001600160701b0380841694600160701b8504909116939190910416908c90610a919061218e565b80601f0160208091040260200160405190810160405280929190818152602001828054610abd9061218e565b8015610b0a5780601f10610adf57610100808354040283529160200191610b0a565b820191906000526020600020905b815481529060010190602001808311610aed57829003601f168201915b50505050509b508a8054610b1d9061218e565b80601f0160208091040260200160405190810160405280929190818152602001828054610b499061218e565b8015610b965780601f10610b6b57610100808354040283529160200191610b96565b820191906000526020600020905b815481529060010190602001808311610b7957829003601f168201915b50505050509a509b509b509b509b509b509b509b509b509b509b509b509b50909192939495969798999a9b565b33610bcc610e64565b6001600160a01b031614604051806040016040528060018152602001603360f81b81525090610c0e5760405162461bcd60e51b81526004016107e19190611fa9565b50604080518082019091526002815261363160f01b60208201526001600160a01b038216610c4f5760405162461bcd60e51b81526004016107e19190611fa9565b50600580546001600160a01b0319166001600160a01b0392909216919091179055565b600e8054610c7f9061218e565b6040805180820190915260018152601960f91b6020820152915015610cb75760405162461bcd60e51b81526004016107e19190611fa9565b50610cc1816114b8565b8160008051602061224b83398151915280546001600160a01b03929092166001600160a01b031992831617905560038054909116331790558651610d0c90600e9060208a0190611b30565b50610d19600f8787611bb4565b5060068054600480546001600160a01b03199081166001600160a01b03978816179091556005805494909616931683179094556003805463ffffffff60a01b191660e160a61b179055600165ffff0000000160c01b0319909316600160e01b61ffff95909516949094026001600160c01b031916939093179092176102a360a61b1763ffffffff60c01b19166102a360c71b1790555050600160401b600d555050565b33610dc5610e64565b6001600160a01b031614604051806040016040528060018152602001603360f81b81525090610e075760405162461bcd60e51b81526004016107e19190611fa9565b50610e10610e43565b60025460405163266a23b160e21b81526001600160a01b03928316926399a88ec492610826929116908590600401611f8f565b600060008051602061224b8339815191525b546001600160a01b0316919050565b600060008051602061222b833981519152610e55565b33610e83610e64565b6001600160a01b031614604051806040016040528060018152602001603360f81b81525090610ec55760405162461bcd60e51b81526004016107e19190611fa9565b506040805180820190915260028152611b1960f11b60208201526001600160a01b038216610f065760405162461bcd60e51b81526004016107e19190611fa9565b50600680546001600160a01b0319166001600160a01b0392909216919091179055565b33610f32610e64565b6001600160a01b031614604051806040016040528060018152602001603360f81b81525090610f745760405162461bcd60e51b81526004016107e19190611fa9565b506001600160a01b03811660009081526007602090815260409182902054825180840190935260028352611b9960f11b91830191909152600190810b900b610fcf5760405162461bcd60e51b81526004016107e19190611fa9565b506001600160a01b038116600090815260076020526040812054600190810b900b131561104d576001600160a01b03811660009081526007602052604090205461101b9060010b6121c9565b6001600160a01b0382166000908152600760205260409020805460019290920b61ffff1661ffff199092169190911790555b50565b33611059610e64565b6001600160a01b031614604051806040016040528060018152602001603360f81b8152509061109b5760405162461bcd60e51b81526004016107e19190611fa9565b506110a8600f8383611bb4565b505050565b6000600a546110ba6109db565b6109fb9190612177565b336110cd610e64565b6001600160a01b031614604051806040016040528060018152602001603360f81b8152509061110f5760405162461bcd60e51b81526004016107e19190611fa9565b50604080518082019091526002815261363360f01b60208201526001600160a01b0382166111505760405162461bcd60e51b81526004016107e19190611fa9565b50600480546001600160a01b0319166001600160a01b0392909216919091179055565b3361117c610e64565b6001600160a01b031614604051806040016040528060018152602001603360f81b815250906111be5760405162461bcd60e51b81526004016107e19190611fa9565b50600654604080518082019091526002815261363560f01b60208201529063ffffffff808416600160a01b90920416111561120c5760405162461bcd60e51b81526004016107e19190611fa9565b506006805463ffffffff909216600160c01b0263ffffffff60c01b19909216919091179055565b6060601380548060200260200160405190810160405280929190818152602001828054801561074e57602002820191906000526020600020905b81546001600160a01b0316815260019091019060200180831161126d575050505050905090565b3361129d610e64565b6001600160a01b031614604051806040016040528060018152602001603360f81b815250906112df5760405162461bcd60e51b81526004016107e19190611fa9565b50604080518082019091526002815261373160f01b60208201526001600160a01b0382166113205760405162461bcd60e51b81526004016107e19190611fa9565b5061104d816118aa565b33611333610e64565b6001600160a01b031614604051806040016040528060018152602001603360f81b815250906113755760405162461bcd60e51b81526004016107e19190611fa9565b5061137e610e43565b6001600160a01b03166399a88ec430836040518363ffffffff1660e01b8152600401610826929190611f8f565b336113b4610e64565b6001600160a01b031614604051806040016040528060018152602001603360f81b815250906113f65760405162461bcd60e51b81526004016107e19190611fa9565b506001600160a01b03821660009081526012602090815260409182902054825180840190935260018352601b60f91b9183019190915260ff1661144c5760405162461bcd60e51b81526004016107e19190611fa9565b50611455610e43565b6001600160a01b03166399a88ec483836040518363ffffffff1660e01b8152600401611482929190611f8f565b600060405180830381600087803b15801561149c57600080fd5b505af11580156114b0573d6000803e3d6000fd5b505050505050565b60006114c2610e64565b6001600160a01b031614604051806040016040528060018152602001601960f91b815250906115045760405162461bcd60e51b81526004016107e19190611fa9565b50604080518082019091526002815261373360f01b60208201526001600160a01b0382166115455760405162461bcd60e51b81526004016107e19190611fa9565b5060008051602061222b83398151915280546001600160a01b0319166001600160a01b03831690811790915560405160009060008051602061226b833981519152908290a350565b6115b160405180606001604052806000815260200160008152602001600081525090565b50600090815260116020908152604091829020825160608101845281548152600182015492810192909252600201549181019190915290565b336115f3610e64565b6001600160a01b031614604051806040016040528060018152602001603360f81b815250906116355760405162461bcd60e51b81526004016107e19190611fa9565b506040805180820190915260028152611b1b60f11b602082015263ffffffff82166116735760405162461bcd60e51b81526004016107e19190611fa9565b506003805463ffffffff909216600160a01b0263ffffffff60a01b19909216919091179055565b6000546040805180820190915260018152601960f91b6020820152906001600160a01b0316156116dd5760405162461bcd60e51b81526004016107e19190611fa9565b50600080546001600160a01b038086166001600160a01b0319928316179092556001805485841690831617905560028054928416929091169190911790556110a8836118aa565b3361172d610e64565b6001600160a01b031614604051806040016040528060018152602001603360f81b8152509061176f5760405162461bcd60e51b81526004016107e19190611fa9565b50604080518082019091526002815261373360f01b60208201526001600160a01b0382166117b05760405162461bcd60e51b81526004016107e19190611fa9565b50806001600160a01b03166117c3610e64565b6001600160a01b031660008051602061226b83398151915260405160405180910390a360008051602061222b83398151915280546001600160a01b0319166001600160a01b0392909216919091179055565b6001600160a01b03811660009081526007602052604081205461183c90600190810b61210a565b92915050565b600b5460009061188d9063ffffffff600160e01b82041690611877906001600160701b0380821691600160701b90041661214f565b600354600160a01b900463ffffffff164261198d565b600b546109fb9190600160701b90046001600160701b031661214f565b6001600160a01b038116600090815260076020526040902054600190810b900b6119425760088054600180820183557ff3f7a9fe364faab93b216da50a3214154f22a0a2b415b23a84c8169e8b636ee390910180546001600160a01b0319166001600160a01b039490941693841790559054600092835260076020526040909220805461ffff191661ffff9390920b92909216179055565b6001600160a01b038116600090815260076020526040812054600190810b900b121561104d576001600160a01b03811660009081526007602052604090205461101b9060010b6121c9565b60008463ffffffff168263ffffffff161015604051806040016040528060018152602001600760fb1b815250906119d75760405162461bcd60e51b81526004016107e19190611fa9565b5084820391508263ffffffff168263ffffffff1681611a0657634e487b7160e01b600052601260045260246000fd5b0463ffffffff16846001600160701b0316901c93508263ffffffff168263ffffffff1681611a4457634e487b7160e01b600052601260045260246000fd5b06915063ffffffff82161580611a6157506001600160701b038416155b15611a6d575082611b28565b60006001600160701b0385168163ffffffff86811690861671b17217f7d1cf79abc9e3b39803f2f6af40f30281611ab457634e487b7160e01b600052601260045260246000fd5b049050600160901b5b8215611b2157928201928082840281611ae657634e487b7160e01b600052601260045260246000fd5b0493849003939250600160901b018082840281611b1357634e487b7160e01b600052601260045260246000fd5b049250600160901b01611abd565b5091925050505b949350505050565b828054611b3c9061218e565b90600052602060002090601f016020900481019282611b5e5760008555611ba4565b82601f10611b7757805160ff1916838001178555611ba4565b82800160010185558215611ba4579182015b82811115611ba4578251825591602001919060010190611b89565b50611bb0929150611c28565b5090565b828054611bc09061218e565b90600052602060002090601f016020900481019282611be25760008555611ba4565b82601f10611bfb5782800160ff19823516178555611ba4565b82800160010185558215611ba4579182015b82811115611ba4578235825591602001919060010190611c0d565b5b80821115611bb05760008155600101611c29565b8035611c4881612215565b919050565b60008083601f840112611c5e578182fd5b5081356001600160401b03811115611c74578182fd5b602083019150836020828501011115611c8c57600080fd5b9250929050565b803561ffff81168114611c4857600080fd5b600060208284031215611cb6578081fd5b8135611cc181612215565b9392505050565b600080600060608486031215611cdc578182fd5b8335611ce781612215565b92506020840135611cf781612215565b91506040840135611d0781612215565b809150509250925092565b60008060408385031215611d24578182fd5b8235611d2f81612215565b91506020830135611d3f81612215565b809150509250929050565b60008060208385031215611d5c578182fd5b82356001600160401b03811115611d71578283fd5b611d7d85828601611c4d565b90969095509350505050565b600080600080600080600060c0888a031215611da3578283fd5b87356001600160401b0380821115611db9578485fd5b818a0191508a601f830112611dcc578485fd5b813581811115611dde57611dde6121ff565b604051601f8201601f19908116603f01168101908382118183101715611e0657611e066121ff565b816040528281528d6020848701011115611e1e578788fd5b826020860160208301378760208483010152809b5050505060208a0135915080821115611e49578485fd5b50611e568a828b01611c4d565b9097509550611e69905060408901611c93565b9350611e7760608901611c3d565b9250611e8560808901611c3d565b9150611e9360a08901611c3d565b905092959891949750929550565b600060208284031215611eb2578081fd5b611cc182611c93565b600060208284031215611ecc578081fd5b5035919050565b600060208284031215611ee4578081fd5b813563ffffffff81168114611cc1578182fd5b60008151808452815b81811015611f1c57602081850181015186830182015201611f00565b81811115611f2d5782602083870101525b50601f01601f19169290920160200192915050565b6020808252825182820181905260009190848201906040850190845b81811015611f835783516001600160a01b031683529284019291840191600101611f5e565b50909695505050505050565b6001600160a01b0392831681529116602082015260400190565b602081526000611cc16020830184611ef7565b61018081526000611fd161018083018f611ef7565b8281036020840152611fe3818f611ef7565b604084018e905263ffffffff8d811660608601528c811660808601528b1660a085015261ffff8a1660c085015260e0840189905261010084018890526001600160701b03878116610120860152861661014085015291506120419050565b63ffffffff83166101608301529d9c50505050505050505050505050565b81516001600160701b0316815260208083015161ffff169082015260408083015163ffffffff9081169183019190915260608084015182169083015260808084015182169083015260a080840151918216908301526101008201905060c08301516120d560c08401826001600160701b03169052565b5060e08301516120eb60e084018261ffff169052565b5092915050565b60008219821115612105576121056121e9565b500190565b60008160010b8360010b82811281617fff190183128115161561212f5761212f6121e9565b81617fff018313811615612145576121456121e9565b5090039392505050565b60006001600160701b038381169083168181101561216f5761216f6121e9565b039392505050565b600082821015612189576121896121e9565b500390565b600181811c908216806121a257607f821691505b602082108114156121c357634e487b7160e01b600052602260045260246000fd5b50919050565b60008160010b617fff198114156121e2576121e26121e9565b9003919050565b634e487b7160e01b600052601160045260246000fd5b634e487b7160e01b600052604160045260246000fd5b6001600160a01b038116811461104d57600080fdfe4f471908b72bb76dae5bd24599026e7bf3ddb256497722888ffa422f83729eded1248cccb5fef9131c731321e43e9a924840ffee7dc68c7d1d3e5cb7dedcae038be0079c531659141344cd1fd0a4f28419497f9722a3daafe3b4186f6b6457e0a2646970667358221220b063612373aa8c1786e509c3670b847785d05e66270f829ac448e1090085dc9864736f6c63430008040033",
  "linkReferences": {},
  "deployedLinkReferences": {}
}