{
  "_format": "hh-sol-artifact-1",
  "contractName": "EnterpriseStorage",
  "sourceName": "contracts/EnterpriseStorage.sol",
  "abi": [
    {
      "anonymous": false,
      "inputs": [
        {
          "indexed": true,
          "internalType": "address",
          "name": "previousOwner",
          "type": "address"
        },
        {
          "indexed": true,
          "internalType": "address",
          "name": "newOwner",
          "type": "address"
        }
      ],
      "name": "OwnershipTransferred",
      "type": "event"
    },
    {
      "inputs": [
        {
          "internalType": "address",
          "name": "token",
          "type": "address"
        }
      ],
      "name": "disablePaymentToken",
      "outputs": [],
      "stateMutability": "nonpayable",
      "type": "function"
    },
    {
      "inputs": [
        {
          "internalType": "address",
          "name": "token",
          "type": "address"
        }
      ],
      "name": "enablePaymentToken",
      "outputs": [],
      "stateMutability": "nonpayable",
      "type": "function"
    },
    {
      "inputs": [],
      "name": "getAvailableReserve",
      "outputs": [
        {
          "internalType": "uint256",
          "name": "",
          "type": "uint256"
        }
      ],
      "stateMutability": "view",
      "type": "function"
    },
    {
      "inputs": [],
      "name": "getBaseUri",
      "outputs": [
        {
          "internalType": "string",
          "name": "",
          "type": "string"
        }
      ],
      "stateMutability": "view",
      "type": "function"
    },
    {
      "inputs": [],
      "name": "getBorrowToken",
      "outputs": [
        {
          "internalType": "contract IBorrowToken",
          "name": "",
          "type": "address"
        }
      ],
      "stateMutability": "view",
      "type": "function"
    },
    {
      "inputs": [],
      "name": "getBorrowerLoanReturnGracePeriod",
      "outputs": [
        {
          "internalType": "uint32",
          "name": "",
          "type": "uint32"
        }
      ],
      "stateMutability": "view",
      "type": "function"
    },
    {
      "inputs": [],
      "name": "getConverter",
      "outputs": [
        {
          "internalType": "contract IConverter",
          "name": "",
          "type": "address"
        }
      ],
      "stateMutability": "view",
      "type": "function"
    },
    {
      "inputs": [],
      "name": "getEnterpriseCollector",
      "outputs": [
        {
          "internalType": "address",
          "name": "",
          "type": "address"
        }
      ],
      "stateMutability": "view",
      "type": "function"
    },
    {
      "inputs": [],
      "name": "getEnterpriseLoanCollectGracePeriod",
      "outputs": [
        {
          "internalType": "uint32",
          "name": "",
          "type": "uint32"
        }
      ],
      "stateMutability": "view",
      "type": "function"
    },
    {
      "inputs": [],
      "name": "getEnterpriseVault",
      "outputs": [
        {
          "internalType": "address",
          "name": "",
          "type": "address"
        }
      ],
      "stateMutability": "view",
      "type": "function"
    },
    {
      "inputs": [],
      "name": "getGCFeePercent",
      "outputs": [
        {
          "internalType": "uint16",
          "name": "",
          "type": "uint16"
        }
      ],
      "stateMutability": "view",
      "type": "function"
    },
    {
      "inputs": [],
      "name": "getInfo",
      "outputs": [
        {
          "internalType": "uint256",
          "name": "reserve",
          "type": "uint256"
        },
        {
          "internalType": "uint256",
          "name": "availableReserve",
          "type": "uint256"
        },
        {
          "internalType": "uint256",
          "name": "totalShares",
          "type": "uint256"
        },
        {
          "internalType": "string",
          "name": "name",
          "type": "string"
        }
      ],
      "stateMutability": "view",
      "type": "function"
    },
    {
      "inputs": [],
      "name": "getInterestToken",
      "outputs": [
        {
          "internalType": "contract IInterestToken",
          "name": "",
          "type": "address"
        }
      ],
      "stateMutability": "view",
      "type": "function"
    },
    {
      "inputs": [
        {
          "internalType": "uint256",
          "name": "tokenId",
          "type": "uint256"
        }
      ],
      "name": "getLiquidityInfo",
      "outputs": [
        {
          "components": [
            {
              "internalType": "uint256",
              "name": "amount",
              "type": "uint256"
            },
            {
              "internalType": "uint256",
              "name": "shares",
              "type": "uint256"
            },
            {
              "internalType": "uint256",
              "name": "block",
              "type": "uint256"
            }
          ],
          "internalType": "struct EnterpriseStorage.LiquidityInfo",
          "name": "",
          "type": "tuple"
        }
      ],
      "stateMutability": "view",
      "type": "function"
    },
    {
      "inputs": [],
      "name": "getLiquidityToken",
      "outputs": [
        {
          "internalType": "contract IERC20Metadata",
          "name": "",
          "type": "address"
        }
      ],
      "stateMutability": "view",
      "type": "function"
    },
    {
      "inputs": [],
      "name": "getLoanCostEstimator",
      "outputs": [
        {
          "internalType": "contract ILoanCostEstimator",
          "name": "",
          "type": "address"
        }
      ],
      "stateMutability": "view",
      "type": "function"
    },
    {
      "inputs": [
        {
          "internalType": "uint256",
          "name": "tokenId",
          "type": "uint256"
        }
      ],
      "name": "getLoanInfo",
      "outputs": [
        {
          "components": [
            {
              "internalType": "uint112",
              "name": "amount",
              "type": "uint112"
            },
            {
              "internalType": "uint16",
              "name": "powerTokenIndex",
              "type": "uint16"
            },
            {
              "internalType": "uint32",
              "name": "borrowingTime",
              "type": "uint32"
            },
            {
              "internalType": "uint32",
              "name": "maturityTime",
              "type": "uint32"
            },
            {
              "internalType": "uint32",
              "name": "borrowerReturnGraceTime",
              "type": "uint32"
            },
            {
              "internalType": "uint32",
              "name": "enterpriseCollectGraceTime",
              "type": "uint32"
            },
            {
              "internalType": "uint112",
              "name": "gcFee",
              "type": "uint112"
            },
            {
              "internalType": "uint16",
              "name": "gcFeeTokenIndex",
              "type": "uint16"
            }
          ],
          "internalType": "struct EnterpriseStorage.LoanInfo",
          "name": "",
          "type": "tuple"
        }
      ],
      "stateMutability": "view",
      "type": "function"
    },
    {
      "inputs": [
        {
          "internalType": "uint256",
          "name": "index",
          "type": "uint256"
        }
      ],
      "name": "getPowerToken",
      "outputs": [
        {
          "internalType": "contract IPowerToken",
          "name": "",
          "type": "address"
        }
      ],
      "stateMutability": "view",
      "type": "function"
    },
    {
      "inputs": [],
      "name": "getPowerTokenImpl",
      "outputs": [
        {
          "internalType": "address",
          "name": "",
          "type": "address"
        }
      ],
      "stateMutability": "view",
      "type": "function"
    },
    {
      "inputs": [
        {
          "internalType": "contract IPowerToken",
          "name": "powerToken",
          "type": "address"
        }
      ],
      "name": "getPowerTokenIndex",
      "outputs": [
        {
          "internalType": "uint16",
          "name": "",
          "type": "uint16"
        }
      ],
      "stateMutability": "view",
      "type": "function"
    },
    {
      "inputs": [],
      "name": "getPowerTokens",
      "outputs": [
        {
          "internalType": "contract IPowerToken[]",
          "name": "",
          "type": "address[]"
        }
      ],
      "stateMutability": "view",
      "type": "function"
    },
    {
      "inputs": [],
      "name": "getPowerTokensInfo",
      "outputs": [
        {
          "internalType": "address[]",
          "name": "addresses",
          "type": "address[]"
        },
        {
          "internalType": "string[]",
          "name": "names",
          "type": "string[]"
        },
        {
          "internalType": "string[]",
          "name": "symbols",
          "type": "string[]"
        },
        {
          "internalType": "uint32[]",
          "name": "halfLifes",
          "type": "uint32[]"
        }
      ],
      "stateMutability": "view",
      "type": "function"
    },
    {
      "inputs": [],
      "name": "getReserve",
      "outputs": [
        {
          "internalType": "uint256",
          "name": "",
          "type": "uint256"
        }
      ],
      "stateMutability": "view",
      "type": "function"
    },
    {
      "inputs": [
        {
          "internalType": "contract IPowerToken",
          "name": "powerToken",
          "type": "address"
        }
      ],
      "name": "getServiceBaseRate",
      "outputs": [
        {
          "internalType": "uint112",
          "name": "",
          "type": "uint112"
        }
      ],
      "stateMutability": "view",
      "type": "function"
    },
    {
      "inputs": [
        {
          "internalType": "contract IPowerToken",
          "name": "powerToken",
          "type": "address"
        }
      ],
      "name": "getServiceBaseToken",
      "outputs": [
        {
          "internalType": "contract IERC20Metadata",
          "name": "",
          "type": "address"
        }
      ],
      "stateMutability": "view",
      "type": "function"
    },
    {
      "inputs": [
        {
          "internalType": "contract IPowerToken",
          "name": "powerToken",
          "type": "address"
        }
      ],
      "name": "getServiceFeePercent",
      "outputs": [
        {
          "internalType": "uint112",
          "name": "",
          "type": "uint112"
        }
      ],
      "stateMutability": "view",
      "type": "function"
    },
    {
      "inputs": [
        {
          "internalType": "contract IPowerToken",
          "name": "powerToken",
          "type": "address"
        }
      ],
      "name": "getServiceHalfLife",
      "outputs": [
        {
          "internalType": "uint32",
          "name": "",
          "type": "uint32"
        }
      ],
      "stateMutability": "view",
      "type": "function"
    },
    {
      "inputs": [
        {
          "internalType": "contract IPowerToken",
          "name": "powerToken",
          "type": "address"
        }
      ],
      "name": "getServiceMaxLoanDuration",
      "outputs": [
        {
          "internalType": "uint32",
          "name": "",
          "type": "uint32"
        }
      ],
      "stateMutability": "view",
      "type": "function"
    },
    {
      "inputs": [
        {
          "internalType": "contract IPowerToken",
          "name": "powerToken",
          "type": "address"
        }
      ],
      "name": "getServiceMinGCFee",
      "outputs": [
        {
          "internalType": "uint112",
          "name": "",
          "type": "uint112"
        }
      ],
      "stateMutability": "view",
      "type": "function"
    },
    {
      "inputs": [
        {
          "internalType": "contract IPowerToken",
          "name": "powerToken",
          "type": "address"
        }
      ],
      "name": "getServiceMinLoanDuration",
      "outputs": [
        {
          "internalType": "uint32",
          "name": "",
          "type": "uint32"
        }
      ],
      "stateMutability": "view",
      "type": "function"
    },
    {
      "inputs": [
        {
          "internalType": "address",
          "name": "initialOwner",
          "type": "address"
        }
      ],
      "name": "initialize",
      "outputs": [],
      "stateMutability": "nonpayable",
      "type": "function"
    },
    {
      "inputs": [
        {
          "internalType": "string",
          "name": "enterpriseName",
          "type": "string"
        },
        {
          "internalType": "string",
          "name": "baseUri",
          "type": "string"
        },
        {
          "internalType": "contract ILoanCostEstimator",
          "name": "estimator",
          "type": "address"
        },
        {
          "internalType": "contract IConverter",
          "name": "converter",
          "type": "address"
        },
        {
          "internalType": "address",
          "name": "owner",
          "type": "address"
        }
      ],
      "name": "initialize",
      "outputs": [],
      "stateMutability": "nonpayable",
      "type": "function"
    },
    {
      "inputs": [
        {
          "internalType": "address",
          "name": "powerTokenImpl",
          "type": "address"
        },
        {
          "internalType": "contract IERC20Metadata",
          "name": "liquidityToken",
          "type": "address"
        },
        {
          "internalType": "contract IInterestToken",
          "name": "interestToken",
          "type": "address"
        },
        {
          "internalType": "contract IBorrowToken",
          "name": "borrowToken",
          "type": "address"
        }
      ],
      "name": "initializeTokens",
      "outputs": [],
      "stateMutability": "nonpayable",
      "type": "function"
    },
    {
      "inputs": [
        {
          "internalType": "contract IPowerToken",
          "name": "powerToken",
          "type": "address"
        }
      ],
      "name": "isRegisteredPowerToken",
      "outputs": [
        {
          "internalType": "bool",
          "name": "",
          "type": "bool"
        }
      ],
      "stateMutability": "view",
      "type": "function"
    },
    {
      "inputs": [
        {
          "internalType": "contract IPowerToken",
          "name": "powerToken",
          "type": "address"
        },
        {
          "internalType": "uint32",
          "name": "duration",
          "type": "uint32"
        }
      ],
      "name": "isServiceAllowedLoanDuration",
      "outputs": [
        {
          "internalType": "bool",
          "name": "",
          "type": "bool"
        }
      ],
      "stateMutability": "view",
      "type": "function"
    },
    {
      "inputs": [
        {
          "internalType": "contract IERC20",
          "name": "token",
          "type": "address"
        }
      ],
      "name": "isSupportedPaymentToken",
      "outputs": [
        {
          "internalType": "bool",
          "name": "",
          "type": "bool"
        }
      ],
      "stateMutability": "view",
      "type": "function"
    },
    {
      "inputs": [],
      "name": "owner",
      "outputs": [
        {
          "internalType": "address",
          "name": "",
          "type": "address"
        }
      ],
      "stateMutability": "view",
      "type": "function"
    },
    {
      "inputs": [
        {
          "internalType": "contract IPowerToken[]",
          "name": "powerToken",
          "type": "address[]"
        },
        {
          "internalType": "uint16[]",
          "name": "newServiceFeePercent",
          "type": "uint16[]"
        }
      ],
      "name": "scheduleServiceFeePercentBatch",
      "outputs": [],
      "stateMutability": "nonpayable",
      "type": "function"
    },
    {
      "inputs": [
        {
          "internalType": "string",
          "name": "baseUri",
          "type": "string"
        }
      ],
      "name": "setBaseUri",
      "outputs": [],
      "stateMutability": "nonpayable",
      "type": "function"
    },
    {
      "inputs": [
        {
          "internalType": "uint32",
          "name": "newPeriod",
          "type": "uint32"
        }
      ],
      "name": "setBorrowerLoanReturnGracePeriod",
      "outputs": [],
      "stateMutability": "nonpayable",
      "type": "function"
    },
    {
      "inputs": [
        {
          "internalType": "contract IConverter",
          "name": "newConverter",
          "type": "address"
        }
      ],
      "name": "setConverter",
      "outputs": [],
      "stateMutability": "nonpayable",
      "type": "function"
    },
    {
      "inputs": [
        {
          "internalType": "address",
          "name": "newCollector",
          "type": "address"
        }
      ],
      "name": "setEnterpriseCollector",
      "outputs": [],
      "stateMutability": "nonpayable",
      "type": "function"
    },
    {
      "inputs": [
        {
          "internalType": "uint32",
          "name": "newPeriod",
          "type": "uint32"
        }
      ],
      "name": "setEnterpriseLoanCollectGracePeriod",
      "outputs": [],
      "stateMutability": "nonpayable",
      "type": "function"
    },
    {
      "inputs": [
        {
          "internalType": "address",
          "name": "newVault",
          "type": "address"
        }
      ],
      "name": "setEnterpriseVault",
      "outputs": [],
      "stateMutability": "nonpayable",
      "type": "function"
    },
    {
      "inputs": [
        {
          "internalType": "uint16",
          "name": "newGcFeePercent",
          "type": "uint16"
        }
      ],
      "name": "setGcFeePercent",
      "outputs": [],
      "stateMutability": "nonpayable",
      "type": "function"
    },
    {
      "inputs": [
        {
          "internalType": "contract ILoanCostEstimator",
          "name": "newEstimator",
          "type": "address"
        }
      ],
      "name": "setLoanCostEstimator",
      "outputs": [],
      "stateMutability": "nonpayable",
      "type": "function"
    },
    {
      "inputs": [
        {
          "internalType": "contract IPowerToken",
          "name": "powerToken",
          "type": "address"
        },
        {
          "internalType": "uint112",
          "name": "baseRate",
          "type": "uint112"
        },
        {
          "internalType": "contract IERC20Metadata",
          "name": "baseToken",
          "type": "address"
        },
        {
          "internalType": "uint112",
          "name": "minGCFee",
          "type": "uint112"
        }
      ],
      "name": "setServiceBaseRate",
      "outputs": [],
      "stateMutability": "nonpayable",
      "type": "function"
    },
    {
      "inputs": [
        {
          "internalType": "contract IPowerToken",
          "name": "powerToken",
          "type": "address"
        },
        {
          "internalType": "uint16",
          "name": "newFeePercent",
          "type": "uint16"
        }
      ],
      "name": "setServiceFeePercent",
      "outputs": [],
      "stateMutability": "nonpayable",
      "type": "function"
    },
    {
      "inputs": [
        {
          "internalType": "contract IPowerToken",
          "name": "powerToken",
          "type": "address"
        },
        {
          "internalType": "uint32",
          "name": "minLoanDuration",
          "type": "uint32"
        },
        {
          "internalType": "uint32",
          "name": "maxLoanDuration",
          "type": "uint32"
        }
      ],
      "name": "setServiceLoanDurationLimits",
      "outputs": [],
      "stateMutability": "nonpayable",
      "type": "function"
    },
    {
      "inputs": [
        {
          "internalType": "uint256",
          "name": "index",
          "type": "uint256"
        }
      ],
      "name": "supportedPaymentTokens",
      "outputs": [
        {
          "internalType": "address",
          "name": "",
          "type": "address"
        }
      ],
      "stateMutability": "view",
      "type": "function"
    },
    {
      "inputs": [
        {
          "internalType": "contract IERC20",
          "name": "token",
          "type": "address"
        }
      ],
      "name": "supportedPaymentTokensIndex",
      "outputs": [
        {
          "internalType": "int16",
          "name": "",
          "type": "int16"
        }
      ],
      "stateMutability": "view",
      "type": "function"
    },
    {
      "inputs": [
        {
          "internalType": "address",
          "name": "newOwner",
          "type": "address"
        }
      ],
      "name": "transferOwnership",
      "outputs": [],
      "stateMutability": "nonpayable",
      "type": "function"
    }
  ],
  "bytecode": "0x608060405260088054600160a01b600160e01b031916650546000002a360a71b17905534801561002e57600080fd5b50612cc58061003e6000396000f3fe608060405234801561001057600080fd5b506004361061034c5760003560e01c806390f55edd116101bd578063c20aa9bc116100f9578063df57f2fa116100a2578063f2fde38b1161007c578063f2fde38b14610991578063f4e28f9a146109a4578063fc0915b1146109dd578063fec0dea0146109f057600080fd5b8063df57f2fa14610909578063e36eca0c1461093e578063e90286831461095157600080fd5b8063cc284f7b116100d3578063cc284f7b146108aa578063d1c82007146108bd578063db0ed6a0146108f657600080fd5b8063c20aa9bc14610873578063c4d66de814610886578063c93d0b921461089957600080fd5b8063a554b26d11610166578063b406bf6d11610140578063b406bf6d14610816578063b56de97e14610838578063b96266fa1461084b578063bfd84fb41461086057600080fd5b8063a554b26d146107ea578063aebb5041146107fb578063b19337a41461080357600080fd5b8063a0bcfc7f11610197578063a0bcfc7f146107af578063a0efd118146107c2578063a358426f146107d757600080fd5b806390f55edd1461077657806396ea2975146107895780639c7aa7f81461079c57600080fd5b8063449497ec1161028c5780637791c42d1161023557806389035b611161020f57806389035b61146106e45780638d6d50c91461071c5780638da5cb5b146107525780638e9fcf811461076357600080fd5b80637791c42d1461069c5780638188d50d146106ad57806383b9a009146106d357600080fd5b80635a9b0b89116102665780635a9b0b891461066057806362c1f38814610678578063644e44df1461068b57600080fd5b8063449497ec1461060c57806353c091241461061f57806359bf5d391461064e57600080fd5b806327623ddd116102f95780632fb2067f116102d35780632fb2067f1461058d5780633184fc64146105ce5780633d4df897146105e15780633ff6fe87146105f957600080fd5b806327623ddd1461051b5780632b39a0ac146105415780632e365ade1461057857600080fd5b80630ea1dc9e1161032a5780630ea1dc9e146104a15780632261b07f146104b25780632457056e146104c357600080fd5b806304196058146103515780630714012c146103815780630cac36b21461048c575b600080fd5b61036461035f366004612844565b610a01565b6040516001600160a01b0390911681526020015b60405180910390f35b61047f61038f366004612844565b6040805161010081018252600080825260208201819052918101829052606081018290526080810182905260a0810182905260c0810182905260e08101919091525060009081526010602090815260409182902082516101008101845281546dffffffffffffffffffffffffffff8082168352600160701b80830461ffff90811696850196909652700100000000000000000000000000000000830463ffffffff90811697850197909752600160a01b830487166060850152600160c01b830487166080850152600160e01b90920490951660a083015260019092015493841660c082015292041660e082015290565b6040516103789190612a0c565b610494610a3f565b60405161037891906129f9565b6002546001600160a01b0316610364565b6006546001600160a01b0316610364565b6104fc6104d13660046124bb565b6001600160a01b03166000908152601260205260409020546dffffffffffffffffffffffffffff1690565b6040516dffffffffffffffffffffffffffff9091168152602001610378565b61052e6105293660046124bb565b610ad1565b60405160019190910b8152602001610378565b6104fc61054f3660046124bb565b6001600160a01b0316600090815260126020526040902060010154600160e01b900461ffff1690565b61058b61058636600461285c565b610afe565b005b6105be61059b3660046124bb565b6001600160a01b0316600090815260096020526040812054600190810b900b1390565b6040519015158152602001610378565b61058b6105dc3660046124de565b610bec565b6105e9610c9e565b60405161037894939291906128f9565b61058b610607366004612539565b611056565b61058b61061a36600461282a565b6111fc565b61036461062d3660046124bb565b6001600160a01b039081166000908152601260205260409020600101541690565b600c545b604051908152602001610378565b610668611266565b6040516103789493929190612ac5565b61058b6106863660046124bb565b611312565b6001546001600160a01b0316610364565b6008546001600160a01b0316610364565b600854600160a01b900463ffffffff165b60405163ffffffff9091168152602001610378565b6004546001600160a01b0316610364565b6105be6106f23660046124bb565b6001600160a01b0316600090815260126020526040902054600160e01b900463ffffffff16151590565b6106be61072a3660046124bb565b6001600160a01b0316600090815260126020526040902054600160e01b900463ffffffff1690565b6000546001600160a01b0316610364565b61058b610771366004612658565b6113c1565b61058b6107843660046124bb565b61153e565b610364610797366004612844565b6115ed565b61058b6107aa3660046124bb565b611610565b61058b6107bd36600461269c565b611664565b600854600160c01b900463ffffffff166106be565b6105be6107e536600461262d565b6116bd565b6007546001600160a01b0316610364565b600d54610652565b61058b6108113660046124bb565b611716565b600854600160e01b900461ffff165b60405161ffff9091168152602001610378565b61058b61084636600461285c565b6117c5565b610853611895565b60405161037891906129ac565b61058b61086e3660046124bb565b6118f6565b61058b6108813660046125f9565b61198c565b61058b6108943660046124bb565b611a47565b6003546001600160a01b0316610364565b61058b6108b83660046124bb565b611b11565b6106be6108cb3660046124bb565b6001600160a01b0316600090815260126020526040902060010154600160a01b900463ffffffff1690565b61058b610904366004612754565b611bc0565b61091c610917366004612844565b611c93565b6040805182518152602080840151908201529181015190820152606001610378565b61082561094c3660046124bb565b611cf0565b6104fc61095f3660046124bb565b6001600160a01b0316600090815260126020526040902054600160701b90046dffffffffffffffffffffffffffff1690565b61058b61099f3660046124bb565b611da4565b6106be6109b23660046124bb565b6001600160a01b0316600090815260126020526040902060010154600160c01b900463ffffffff1690565b61058b6109eb3660046125a2565b611ec3565b6005546001600160a01b0316610364565b600060138281548110610a2457634e487b7160e01b600052603260045260246000fd5b6000918252602090912001546001600160a01b031692915050565b6060600b8054610a4e90612bbe565b80601f0160208091040260200160405190810160405280929190818152602001828054610a7a90612bbe565b8015610ac75780601f10610a9c57610100808354040283529160200191610ac7565b820191906000526020600020905b815481529060010190602001808311610aaa57829003601f168201915b5050505050905090565b6001600160a01b038116600090815260096020526040812054610af890600190810b612b4d565b92915050565b6000546001600160a01b03163314610b4b5760405162461bcd60e51b81526020600482018190526024820152600080516020612c7083398151915260448201526064015b60405180910390fd5b60085463ffffffff600160c01b90910481169082161115610bae5760405162461bcd60e51b815260206004820152601560248201527f496e76616c696420677261636520706572696f647300000000000000000000006044820152606401610b42565b6008805463ffffffff909216600160a01b027fffffffffffffffff00000000ffffffffffffffffffffffffffffffffffffffff909216919091179055565b6004546001600160a01b031615610c455760405162461bcd60e51b815260206004820152601360248201527f416c726561647920696e697469616c697a6564000000000000000000000000006044820152606401610b42565b600480546001600160a01b038087166001600160a01b03199283161790925560018054868416908316179055600280548584169083161790556003805492841692909116919091179055610c988361204a565b50505050565b6013546060908190819081908067ffffffffffffffff811115610cd157634e487b7160e01b600052604160045260246000fd5b604051908082528060200260200182016040528015610cfa578160200160208202803683370190505b5094508067ffffffffffffffff811115610d2457634e487b7160e01b600052604160045260246000fd5b604051908082528060200260200182016040528015610d5757816020015b6060815260200190600190039081610d425790505b5093508067ffffffffffffffff811115610d8157634e487b7160e01b600052604160045260246000fd5b604051908082528060200260200182016040528015610db457816020015b6060815260200190600190039081610d9f5790505b5092508067ffffffffffffffff811115610dde57634e487b7160e01b600052604160045260246000fd5b604051908082528060200260200182016040528015610e07578160200160208202803683370190505b50915060005b8181101561104e57600060138281548110610e3857634e487b7160e01b600052603260045260246000fd5b9060005260206000200160009054906101000a90046001600160a01b0316905080878381518110610e7957634e487b7160e01b600052603260045260246000fd5b60200260200101906001600160a01b031690816001600160a01b031681525050806001600160a01b03166306fdde036040518163ffffffff1660e01b815260040160006040518083038186803b158015610ed257600080fd5b505afa158015610ee6573d6000803e3d6000fd5b505050506040513d6000823e601f3d908101601f19168201604052610f0e91908101906126dc565b868381518110610f2e57634e487b7160e01b600052603260045260246000fd5b6020026020010181905250806001600160a01b03166395d89b416040518163ffffffff1660e01b815260040160006040518083038186803b158015610f7257600080fd5b505afa158015610f86573d6000803e3d6000fd5b505050506040513d6000823e601f3d908101601f19168201604052610fae91908101906126dc565b858381518110610fce57634e487b7160e01b600052603260045260246000fd5b6020026020010181905250611006816001600160a01b031660009081526012602052604090205463ffffffff600160e01b9091041690565b84838151811061102657634e487b7160e01b600052603260045260246000fd5b63ffffffff90921660209283029190910190910152508061104681612bf3565b915050610e0d565b505090919293565b6000546001600160a01b0316331461109e5760405162461bcd60e51b81526020600482018190526024820152600080516020612c708339815191526044820152606401610b42565b8281146110ed5760405162461bcd60e51b815260206004820152601460248201527f496e76616c6964206172726179206c656e6774680000000000000000000000006044820152606401610b42565b60005b838110156111f55761113085858381811061111b57634e487b7160e01b600052603260045260246000fd5b90506020020160208101906106f291906124bb565b6111715760405162461bcd60e51b81526020600482015260126024820152712ab735b737bbb7102837bbb2b92a37b5b2b760711b6044820152606401610b42565b6111e385858381811061119457634e487b7160e01b600052603260045260246000fd5b90506020020160208101906111a991906124bb565b8484848181106111c957634e487b7160e01b600052603260045260246000fd5b90506020020160208101906111de919061282a565b612161565b806111ed81612bf3565b9150506110f0565b5050505050565b6000546001600160a01b031633146112445760405162461bcd60e51b81526020600482018190526024820152600080516020612c708339815191526044820152606401610b42565b6008805461ffff909216600160e01b0261ffff60e01b19909216919091179055565b60008060006060600c54600d54600e54600f80805461128490612bbe565b80601f01602080910402602001604051908101604052809291908181526020018280546112b090612bbe565b80156112fd5780601f106112d2576101008083540402835291602001916112fd565b820191906000526020600020905b8154815290600101906020018083116112e057829003601f168201915b50505050509050935093509350935090919293565b6000546001600160a01b0316331461135a5760405162461bcd60e51b81526020600482018190526024820152600080516020612c708339815191526044820152606401610b42565b6001600160a01b03811661139f5760405162461bcd60e51b815260206004820152600c60248201526b5a65726f206164647265737360a01b6044820152606401610b42565b600780546001600160a01b0319166001600160a01b0392909216919091179055565b6000546001600160a01b031633146114095760405162461bcd60e51b81526020600482018190526024820152600080516020612c708339815191526044820152606401610b42565b6001600160a01b0383166000908152601260205260409020548390600160e01b900463ffffffff166114725760405162461bcd60e51b81526020600482015260126024820152712ab735b737bbb7102837bbb2b92a37b5b2b760711b6044820152606401610b42565b8163ffffffff168363ffffffff1611156114ce5760405162461bcd60e51b815260206004820152601160248201527f496e76616c6964206475726174696f6e730000000000000000000000000000006044820152606401610b42565b506001600160a01b0392909216600090815260126020526040902060010180547fffffffff0000000000000000ffffffffffffffffffffffffffffffffffffffff16600160a01b63ffffffff9384160263ffffffff60c01b191617600160c01b9290931691909102919091179055565b6000546001600160a01b031633146115865760405162461bcd60e51b81526020600482018190526024820152600080516020612c708339815191526044820152606401610b42565b6001600160a01b0381166115cb5760405162461bcd60e51b815260206004820152600c60248201526b5a65726f206164647265737360a01b6044820152606401610b42565b600880546001600160a01b0319166001600160a01b0392909216919091179055565b6000600a8281548110610a2457634e487b7160e01b600052603260045260246000fd5b6000546001600160a01b031633146116585760405162461bcd60e51b81526020600482018190526024820152600080516020612c708339815191526044820152606401610b42565b61166181612219565b50565b6000546001600160a01b031633146116ac5760405162461bcd60e51b81526020600482018190526024820152600080516020612c708339815191526044820152606401610b42565b6116b8600b83836122d0565b505050565b6001600160a01b0382166000908152601260205260408120600181015463ffffffff808516600160a01b909204161180159061170e5750600181015463ffffffff600160c01b909104811690841611155b949350505050565b6000546001600160a01b0316331461175e5760405162461bcd60e51b81526020600482018190526024820152600080516020612c708339815191526044820152606401610b42565b6001600160a01b0381166117a35760405162461bcd60e51b815260206004820152600c60248201526b5a65726f206164647265737360a01b6044820152606401610b42565b600680546001600160a01b0319166001600160a01b0392909216919091179055565b6000546001600160a01b0316331461180d5760405162461bcd60e51b81526020600482018190526024820152600080516020612c708339815191526044820152606401610b42565b60085463ffffffff808316600160a01b90920416111561186f5760405162461bcd60e51b815260206004820152601560248201527f496e76616c696420677261636520706572696f647300000000000000000000006044820152606401610b42565b6008805463ffffffff909216600160c01b0263ffffffff60c01b19909216919091179055565b60606013805480602002602001604051908101604052809291908181526020018280548015610ac757602002820191906000526020600020905b81546001600160a01b031681526001909101906020018083116118cf575050505050905090565b6000546001600160a01b0316331461193e5760405162461bcd60e51b81526020600482018190526024820152600080516020612c708339815191526044820152606401610b42565b6001600160a01b0381166119835760405162461bcd60e51b815260206004820152600c60248201526b5a65726f206164647265737360a01b6044820152606401610b42565b6116618161204a565b6000546001600160a01b031633146119d45760405162461bcd60e51b81526020600482018190526024820152600080516020612c708339815191526044820152606401610b42565b6001600160a01b0382166000908152601260205260409020548290600160e01b900463ffffffff16611a3d5760405162461bcd60e51b81526020600482015260126024820152712ab735b737bbb7102837bbb2b92a37b5b2b760711b6044820152606401610b42565b6116b88383612161565b6000546001600160a01b031615611ac65760405162461bcd60e51b815260206004820152602960248201527f496e697469616c697a61626c654f776e61626c653a20616c726561647920696e60448201527f697469616c697a656400000000000000000000000000000000000000000000006064820152608401610b42565b600080546001600160a01b0319166001600160a01b03831690811782556040519091907f8be0079c531659141344cd1fd0a4f28419497f9722a3daafe3b4186f6b6457e0908290a350565b6000546001600160a01b03163314611b595760405162461bcd60e51b81526020600482018190526024820152600080516020612c708339815191526044820152606401610b42565b6001600160a01b038116611b9e5760405162461bcd60e51b815260206004820152600c60248201526b5a65726f206164647265737360a01b6044820152606401610b42565b600580546001600160a01b0319166001600160a01b0392909216919091179055565b6002546001600160a01b031615611c195760405162461bcd60e51b815260206004820152601360248201527f416c726561647920696e697469616c697a6564000000000000000000000000006044820152606401610b42565b611c2281611a47565b8551611c3590600f906020890190612354565b50611c42600b86866122d0565b50600580546001600160a01b03199081166001600160a01b03958616179091556006805482169385169390931790925560088054831691909316908117909255600780549091169091179055505050565b611cb760405180606001604052806000815260200160008152602001600081525090565b50600090815260116020908152604091829020825160608101845281548152600182015492810192909252600201549181019190915290565b6001600160a01b0381166000908152601260205260408120548290600160e01b900463ffffffff16611d595760405162461bcd60e51b81526020600482015260126024820152712ab735b737bbb7102837bbb2b92a37b5b2b760711b6044820152606401610b42565b6001600160a01b0383166000908152601260205260409020600101547e01000000000000000000000000000000000000000000000000000000000000900461ffff1691505b50919050565b6000546001600160a01b03163314611dec5760405162461bcd60e51b81526020600482018190526024820152600080516020612c708339815191526044820152606401610b42565b6001600160a01b038116611e685760405162461bcd60e51b815260206004820152602660248201527f4f776e61626c653a206e6577206f776e657220697320746865207a65726f206160448201527f64647265737300000000000000000000000000000000000000000000000000006064820152608401610b42565b600080546040516001600160a01b03808516939216917f8be0079c531659141344cd1fd0a4f28419497f9722a3daafe3b4186f6b6457e091a3600080546001600160a01b0319166001600160a01b0392909216919091179055565b6000546001600160a01b03163314611f0b5760405162461bcd60e51b81526020600482018190526024820152600080516020612c708339815191526044820152606401610b42565b6001600160a01b0384166000908152601260205260409020548490600160e01b900463ffffffff16611f745760405162461bcd60e51b81526020600482015260126024820152712ab735b737bbb7102837bbb2b92a37b5b2b760711b6044820152606401610b42565b6001600160a01b038316611fca5760405162461bcd60e51b815260206004820152601260248201527f496e76616c6964204261736520546f6b656e00000000000000000000000000006044820152606401610b42565b506001600160a01b0393841660009081526012602052604090208054600182018054949096166001600160a01b0319909416939093179094556dffffffffffffffffffffffffffff908116600160701b027fffffffff00000000000000000000000000000000000000000000000000000000909216921691909117179055565b6001600160a01b038116600090815260096020526040902054600190810b900b6120e257600a8054600180820183557fc65a7bb8d6351c1cf70c95a316cc6a92839c986682d98bc35f958f4883f9d2a890910180546001600160a01b0319166001600160a01b039490941693841790559054600092835260096020526040909220805461ffff191661ffff9390920b92909216179055565b6001600160a01b038116600090815260096020526040812054600190810b900b1215611661576001600160a01b03811660009081526009602052604090205461212d9060010b612c0e565b6001600160a01b0382166000908152600960205260409020805460019290920b61ffff1661ffff1990921691909117905550565b61138861ffff821611156121dd5760405162461bcd60e51b815260206004820152602560248201527f4d6178696d756d2073657276696365206665652070657263656e74207468726560448201527f73686f6c640000000000000000000000000000000000000000000000000000006064820152608401610b42565b6001600160a01b039091166000908152601260205260409020600101805461ffff909216600160e01b0261ffff60e01b19909216919091179055565b6001600160a01b038116600090815260096020526040902054600190810b900b6122855760405162461bcd60e51b815260206004820152600d60248201527f496e76616c696420746f6b656e000000000000000000000000000000000000006044820152606401610b42565b6001600160a01b038116600090815260096020526040812054600190810b900b1315611661576001600160a01b03811660009081526009602052604090205461212d9060010b612c0e565b8280546122dc90612bbe565b90600052602060002090601f0160209004810192826122fe5760008555612344565b82601f106123175782800160ff19823516178555612344565b82800160010185558215612344579182015b82811115612344578235825591602001919060010190612329565b506123509291506123c8565b5090565b82805461236090612bbe565b90600052602060002090601f0160209004810192826123825760008555612344565b82601f1061239b57805160ff1916838001178555612344565b82800160010185558215612344579182015b828111156123445782518255916020019190600101906123ad565b5b8082111561235057600081556001016123c9565b80356123e881612c5a565b919050565b60008083601f8401126123fe578081fd5b50813567ffffffffffffffff811115612415578182fd5b6020830191508360208260051b850101111561243057600080fd5b9250929050565b60008083601f840112612448578182fd5b50813567ffffffffffffffff81111561245f578182fd5b60208301915083602082850101111561243057600080fd5b80356dffffffffffffffffffffffffffff811681146123e857600080fd5b803561ffff811681146123e857600080fd5b803563ffffffff811681146123e857600080fd5b6000602082840312156124cc578081fd5b81356124d781612c5a565b9392505050565b600080600080608085870312156124f3578283fd5b84356124fe81612c5a565b9350602085013561250e81612c5a565b9250604085013561251e81612c5a565b9150606085013561252e81612c5a565b939692955090935050565b6000806000806040858703121561254e578384fd5b843567ffffffffffffffff80821115612565578586fd5b612571888389016123ed565b90965094506020870135915080821115612589578384fd5b50612596878288016123ed565b95989497509550505050565b600080600080608085870312156125b7578384fd5b84356125c281612c5a565b93506125d060208601612477565b925060408501356125e081612c5a565b91506125ee60608601612477565b905092959194509250565b6000806040838503121561260b578182fd5b823561261681612c5a565b915061262460208401612495565b90509250929050565b6000806040838503121561263f578182fd5b823561264a81612c5a565b9150612624602084016124a7565b60008060006060848603121561266c578081fd5b833561267781612c5a565b9250612685602085016124a7565b9150612693604085016124a7565b90509250925092565b600080602083850312156126ae578182fd5b823567ffffffffffffffff8111156126c4578283fd5b6126d085828601612437565b90969095509350505050565b6000602082840312156126ed578081fd5b815167ffffffffffffffff811115612703578182fd5b8201601f81018413612713578182fd5b805161272661272182612b25565b612af4565b81815285602083850101111561273a578384fd5b61274b826020830160208601612b92565b95945050505050565b60008060008060008060a0878903121561276c578384fd5b863567ffffffffffffffff80821115612783578586fd5b818901915089601f830112612796578586fd5b81356127a461272182612b25565b8181528b60208386010111156127b8578788fd5b816020850160208301378760208383010152809950505060208901359150808211156127e2578586fd5b506127ef89828a01612437565b90965094506128029050604088016123dd565b9250612810606088016123dd565b915061281e608088016123dd565b90509295509295509295565b60006020828403121561283b578081fd5b6124d782612495565b600060208284031215612855578081fd5b5035919050565b60006020828403121561286d578081fd5b6124d7826124a7565b600082825180855260208086019550808260051b840101818601855b848110156128c057601f198684030189526128ae8383516128cd565b98840198925090830190600101612892565b5090979650505050505050565b600081518084526128e5816020860160208601612b92565b601f01601f19169290920160200192915050565b6080808252855190820181905260009060209060a0840190828901845b8281101561293b5781516001600160a01b031684529284019290840190600101612916565b5050508381038285015261294f8188612876565b905083810360408501526129638187612876565b84810360608601528551808252838701925090830190845b8181101561299d57835163ffffffff168352928401929184019160010161297b565b50909998505050505050505050565b6020808252825182820181905260009190848201906040850190845b818110156129ed5783516001600160a01b0316835292840192918401916001016129c8565b50909695505050505050565b6020815260006124d760208301846128cd565b6000610100820190506dffffffffffffffffffffffffffff835116825261ffff6020840151166020830152604083015163ffffffff808216604085015280606086015116606085015250506080830151612a6e608084018263ffffffff169052565b5060a0830151612a8660a084018263ffffffff169052565b5060c0830151612aa860c08401826dffffffffffffffffffffffffffff169052565b5060e0830151612abe60e084018261ffff169052565b5092915050565b848152836020820152826040820152608060608201526000612aea60808301846128cd565b9695505050505050565b604051601f8201601f1916810167ffffffffffffffff81118282101715612b1d57612b1d612c44565b604052919050565b600067ffffffffffffffff821115612b3f57612b3f612c44565b50601f01601f191660200190565b60008160010b8360010b82811281617fff1901831281151615612b7257612b72612c2e565b81617fff018313811615612b8857612b88612c2e565b5090039392505050565b60005b83811015612bad578181015183820152602001612b95565b83811115610c985750506000910152565b600181811c90821680612bd257607f821691505b60208210811415611d9e57634e487b7160e01b600052602260045260246000fd5b6000600019821415612c0757612c07612c2e565b5060010190565b60008160010b617fff19811415612c2757612c27612c2e565b9003919050565b634e487b7160e01b600052601160045260246000fd5b634e487b7160e01b600052604160045260246000fd5b6001600160a01b038116811461166157600080fdfe4f776e61626c653a2063616c6c6572206973206e6f7420746865206f776e6572a2646970667358221220c253c798db9e0a6527e439aa91df9d9b1a776268cfa794316ebdb66bc4270c7a64736f6c63430008040033",
  "linkReferences": {},
  "deployedLinkReferences": {}
}