{
  "_format": "hh-sol-artifact-1",
  "contractName": "EnterpriseStorage",
  "sourceName": "contracts/EnterpriseStorage.sol",
  "abi": [
    {
      "anonymous": false,
      "inputs": [
        {
          "indexed": true,
          "internalType": "address",
          "name": "previousOwner",
          "type": "address"
        },
        {
          "indexed": true,
          "internalType": "address",
          "name": "newOwner",
          "type": "address"
        }
      ],
      "name": "OwnershipTransferred",
      "type": "event"
    },
    {
      "inputs": [
        {
          "internalType": "contract IPowerToken",
          "name": "powerToken",
          "type": "address"
        }
      ],
      "name": "allowPerpetualPowerTokenForever",
      "outputs": [],
      "stateMutability": "nonpayable",
      "type": "function"
    },
    {
      "inputs": [
        {
          "internalType": "address",
          "name": "token",
          "type": "address"
        }
      ],
      "name": "disablePaymentToken",
      "outputs": [],
      "stateMutability": "nonpayable",
      "type": "function"
    },
    {
      "inputs": [
        {
          "internalType": "address",
          "name": "token",
          "type": "address"
        }
      ],
      "name": "enablePaymentToken",
      "outputs": [],
      "stateMutability": "nonpayable",
      "type": "function"
    },
    {
      "inputs": [],
      "name": "getAvailableReserve",
      "outputs": [
        {
          "internalType": "uint256",
          "name": "",
          "type": "uint256"
        }
      ],
      "stateMutability": "view",
      "type": "function"
    },
    {
      "inputs": [],
      "name": "getBaseUri",
      "outputs": [
        {
          "internalType": "string",
          "name": "",
          "type": "string"
        }
      ],
      "stateMutability": "view",
      "type": "function"
    },
    {
      "inputs": [],
      "name": "getBorrowToken",
      "outputs": [
        {
          "internalType": "contract IBorrowToken",
          "name": "",
          "type": "address"
        }
      ],
      "stateMutability": "view",
      "type": "function"
    },
    {
      "inputs": [],
      "name": "getBorrowerLoanReturnGracePeriod",
      "outputs": [
        {
          "internalType": "uint32",
          "name": "",
          "type": "uint32"
        }
      ],
      "stateMutability": "view",
      "type": "function"
    },
    {
      "inputs": [],
      "name": "getConverter",
      "outputs": [
        {
          "internalType": "contract IConverter",
          "name": "",
          "type": "address"
        }
      ],
      "stateMutability": "view",
      "type": "function"
    },
    {
      "inputs": [],
      "name": "getEnterpriseCollector",
      "outputs": [
        {
          "internalType": "address",
          "name": "",
          "type": "address"
        }
      ],
      "stateMutability": "view",
      "type": "function"
    },
    {
      "inputs": [],
      "name": "getEnterpriseLoanCollectGracePeriod",
      "outputs": [
        {
          "internalType": "uint32",
          "name": "",
          "type": "uint32"
        }
      ],
      "stateMutability": "view",
      "type": "function"
    },
    {
      "inputs": [],
      "name": "getEnterpriseVault",
      "outputs": [
        {
          "internalType": "address",
          "name": "",
          "type": "address"
        }
      ],
      "stateMutability": "view",
      "type": "function"
    },
    {
      "inputs": [],
      "name": "getEstimator",
      "outputs": [
        {
          "internalType": "contract IEstimator",
          "name": "",
          "type": "address"
        }
      ],
      "stateMutability": "view",
      "type": "function"
    },
    {
      "inputs": [],
      "name": "getGCFeePercent",
      "outputs": [
        {
          "internalType": "uint16",
          "name": "",
          "type": "uint16"
        }
      ],
      "stateMutability": "view",
      "type": "function"
    },
    {
      "inputs": [],
      "name": "getInfo",
      "outputs": [
        {
          "internalType": "string",
          "name": "name",
          "type": "string"
        },
        {
          "internalType": "string",
          "name": "baseUri",
          "type": "string"
        },
        {
          "internalType": "uint256",
          "name": "totalShares",
          "type": "uint256"
        },
        {
          "internalType": "uint32",
          "name": "interestHalfLife",
          "type": "uint32"
        },
        {
          "internalType": "uint32",
          "name": "borrowerLoanReturnGracePeriod",
          "type": "uint32"
        },
        {
          "internalType": "uint32",
          "name": "enterpriseLoanCollectGracePeriod",
          "type": "uint32"
        },
        {
          "internalType": "uint16",
          "name": "gcFeePercent",
          "type": "uint16"
        },
        {
          "internalType": "uint256",
          "name": "fixedReserve",
          "type": "uint256"
        },
        {
          "internalType": "uint256",
          "name": "usedReserve",
          "type": "uint256"
        },
        {
          "internalType": "uint112",
          "name": "streamingReserve",
          "type": "uint112"
        },
        {
          "internalType": "uint112",
          "name": "streamingReserveTarget",
          "type": "uint112"
        },
        {
          "internalType": "uint32",
          "name": "streamingReserveUpdated",
          "type": "uint32"
        }
      ],
      "stateMutability": "view",
      "type": "function"
    },
    {
      "inputs": [],
      "name": "getInterestHalfLife",
      "outputs": [
        {
          "internalType": "uint32",
          "name": "",
          "type": "uint32"
        }
      ],
      "stateMutability": "view",
      "type": "function"
    },
    {
      "inputs": [],
      "name": "getInterestToken",
      "outputs": [
        {
          "internalType": "contract IInterestToken",
          "name": "",
          "type": "address"
        }
      ],
      "stateMutability": "view",
      "type": "function"
    },
    {
      "inputs": [
        {
          "internalType": "uint256",
          "name": "tokenId",
          "type": "uint256"
        }
      ],
      "name": "getLiquidityInfo",
      "outputs": [
        {
          "components": [
            {
              "internalType": "uint256",
              "name": "amount",
              "type": "uint256"
            },
            {
              "internalType": "uint256",
              "name": "shares",
              "type": "uint256"
            },
            {
              "internalType": "uint256",
              "name": "block",
              "type": "uint256"
            }
          ],
          "internalType": "struct EnterpriseStorage.LiquidityInfo",
          "name": "",
          "type": "tuple"
        }
      ],
      "stateMutability": "view",
      "type": "function"
    },
    {
      "inputs": [],
      "name": "getLiquidityToken",
      "outputs": [
        {
          "internalType": "contract IERC20Metadata",
          "name": "",
          "type": "address"
        }
      ],
      "stateMutability": "view",
      "type": "function"
    },
    {
      "inputs": [
        {
          "internalType": "uint256",
          "name": "tokenId",
          "type": "uint256"
        }
      ],
      "name": "getLoanInfo",
      "outputs": [
        {
          "components": [
            {
              "internalType": "uint112",
              "name": "amount",
              "type": "uint112"
            },
            {
              "internalType": "uint16",
              "name": "powerTokenIndex",
              "type": "uint16"
            },
            {
              "internalType": "uint32",
              "name": "borrowingTime",
              "type": "uint32"
            },
            {
              "internalType": "uint32",
              "name": "maturityTime",
              "type": "uint32"
            },
            {
              "internalType": "uint32",
              "name": "borrowerReturnGraceTime",
              "type": "uint32"
            },
            {
              "internalType": "uint32",
              "name": "enterpriseCollectGraceTime",
              "type": "uint32"
            },
            {
              "internalType": "uint112",
              "name": "gcFee",
              "type": "uint112"
            },
            {
              "internalType": "uint16",
              "name": "gcFeeTokenIndex",
              "type": "uint16"
            }
          ],
          "internalType": "struct EnterpriseStorage.LoanInfo",
          "name": "",
          "type": "tuple"
        }
      ],
      "stateMutability": "view",
      "type": "function"
    },
    {
      "inputs": [],
      "name": "getPowerTokens",
      "outputs": [
        {
          "internalType": "contract IPowerToken[]",
          "name": "",
          "type": "address[]"
        }
      ],
      "stateMutability": "view",
      "type": "function"
    },
    {
      "inputs": [],
      "name": "getProxyAdmin",
      "outputs": [
        {
          "internalType": "contract ProxyAdmin",
          "name": "",
          "type": "address"
        }
      ],
      "stateMutability": "view",
      "type": "function"
    },
    {
      "inputs": [],
      "name": "getReserve",
      "outputs": [
        {
          "internalType": "uint256",
          "name": "",
          "type": "uint256"
        }
      ],
      "stateMutability": "view",
      "type": "function"
    },
    {
      "inputs": [
        {
          "internalType": "contract IPowerToken",
          "name": "powerToken",
          "type": "address"
        }
      ],
      "name": "getService",
      "outputs": [
        {
          "internalType": "string",
          "name": "name",
          "type": "string"
        },
        {
          "internalType": "string",
          "name": "symbol",
          "type": "string"
        },
        {
          "components": [
            {
              "internalType": "uint112",
              "name": "baseRate",
              "type": "uint112"
            },
            {
              "internalType": "uint96",
              "name": "minGCFee",
              "type": "uint96"
            },
            {
              "internalType": "uint32",
              "name": "halfLife",
              "type": "uint32"
            },
            {
              "internalType": "uint16",
              "name": "index",
              "type": "uint16"
            },
            {
              "internalType": "contract IERC20Metadata",
              "name": "baseToken",
              "type": "address"
            },
            {
              "internalType": "uint32",
              "name": "minLoanDuration",
              "type": "uint32"
            },
            {
              "internalType": "uint32",
              "name": "maxLoanDuration",
              "type": "uint32"
            },
            {
              "internalType": "uint16",
              "name": "serviceFeePercent",
              "type": "uint16"
            },
            {
              "internalType": "bool",
              "name": "allowsPerpetual",
              "type": "bool"
            }
          ],
          "internalType": "struct EnterpriseStorage.ServiceConfig",
          "name": "config",
          "type": "tuple"
        }
      ],
      "stateMutability": "view",
      "type": "function"
    },
    {
      "inputs": [],
      "name": "getUsedReserve",
      "outputs": [
        {
          "internalType": "uint256",
          "name": "",
          "type": "uint256"
        }
      ],
      "stateMutability": "view",
      "type": "function"
    },
    {
      "inputs": [
        {
          "internalType": "string",
          "name": "enterpriseName",
          "type": "string"
        },
        {
          "internalType": "string",
          "name": "baseUri",
          "type": "string"
        },
        {
          "internalType": "uint16",
          "name": "gcFeePercent",
          "type": "uint16"
        },
        {
          "internalType": "contract IEstimator",
          "name": "estimator",
          "type": "address"
        },
        {
          "internalType": "contract IConverter",
          "name": "converter",
          "type": "address"
        },
        {
          "internalType": "contract ProxyAdmin",
          "name": "proxyAdmin",
          "type": "address"
        },
        {
          "internalType": "address",
          "name": "owner",
          "type": "address"
        }
      ],
      "name": "initialize",
      "outputs": [],
      "stateMutability": "nonpayable",
      "type": "function"
    },
    {
      "inputs": [
        {
          "internalType": "address",
          "name": "initialOwner",
          "type": "address"
        }
      ],
      "name": "initialize",
      "outputs": [],
      "stateMutability": "nonpayable",
      "type": "function"
    },
    {
      "inputs": [
        {
          "internalType": "contract IERC20Metadata",
          "name": "liquidityToken",
          "type": "address"
        },
        {
          "internalType": "contract IInterestToken",
          "name": "interestToken",
          "type": "address"
        },
        {
          "internalType": "contract IBorrowToken",
          "name": "borrowToken",
          "type": "address"
        }
      ],
      "name": "initializeTokens",
      "outputs": [],
      "stateMutability": "nonpayable",
      "type": "function"
    },
    {
      "inputs": [
        {
          "internalType": "contract IPowerToken",
          "name": "powerToken",
          "type": "address"
        }
      ],
      "name": "isRegisteredPowerToken",
      "outputs": [
        {
          "internalType": "bool",
          "name": "",
          "type": "bool"
        }
      ],
      "stateMutability": "view",
      "type": "function"
    },
    {
      "inputs": [
        {
          "internalType": "contract IPowerToken",
          "name": "powerToken",
          "type": "address"
        },
        {
          "internalType": "uint32",
          "name": "duration",
          "type": "uint32"
        }
      ],
      "name": "isServiceAllowedLoanDuration",
      "outputs": [
        {
          "internalType": "bool",
          "name": "",
          "type": "bool"
        }
      ],
      "stateMutability": "view",
      "type": "function"
    },
    {
      "inputs": [
        {
          "internalType": "contract IERC20",
          "name": "token",
          "type": "address"
        }
      ],
      "name": "isSupportedPaymentToken",
      "outputs": [
        {
          "internalType": "bool",
          "name": "",
          "type": "bool"
        }
      ],
      "stateMutability": "view",
      "type": "function"
    },
    {
      "inputs": [],
      "name": "owner",
      "outputs": [
        {
          "internalType": "address",
          "name": "",
          "type": "address"
        }
      ],
      "stateMutability": "view",
      "type": "function"
    },
    {
      "inputs": [
        {
          "internalType": "uint256",
          "name": "index",
          "type": "uint256"
        }
      ],
      "name": "paymentToken",
      "outputs": [
        {
          "internalType": "address",
          "name": "",
          "type": "address"
        }
      ],
      "stateMutability": "view",
      "type": "function"
    },
    {
      "inputs": [
        {
          "internalType": "contract IERC20",
          "name": "token",
          "type": "address"
        }
      ],
      "name": "paymentTokenIndex",
      "outputs": [
        {
          "internalType": "int16",
          "name": "",
          "type": "int16"
        }
      ],
      "stateMutability": "view",
      "type": "function"
    },
    {
      "inputs": [
        {
          "internalType": "string",
          "name": "baseUri",
          "type": "string"
        }
      ],
      "name": "setBaseUri",
      "outputs": [],
      "stateMutability": "nonpayable",
      "type": "function"
    },
    {
      "inputs": [
        {
          "internalType": "uint32",
          "name": "newPeriod",
          "type": "uint32"
        }
      ],
      "name": "setBorrowerLoanReturnGracePeriod",
      "outputs": [],
      "stateMutability": "nonpayable",
      "type": "function"
    },
    {
      "inputs": [
        {
          "internalType": "contract IConverter",
          "name": "newConverter",
          "type": "address"
        }
      ],
      "name": "setConverter",
      "outputs": [],
      "stateMutability": "nonpayable",
      "type": "function"
    },
    {
      "inputs": [
        {
          "internalType": "address",
          "name": "newCollector",
          "type": "address"
        }
      ],
      "name": "setEnterpriseCollector",
      "outputs": [],
      "stateMutability": "nonpayable",
      "type": "function"
    },
    {
      "inputs": [
        {
          "internalType": "uint32",
          "name": "newPeriod",
          "type": "uint32"
        }
      ],
      "name": "setEnterpriseLoanCollectGracePeriod",
      "outputs": [],
      "stateMutability": "nonpayable",
      "type": "function"
    },
    {
      "inputs": [
        {
          "internalType": "address",
          "name": "newVault",
          "type": "address"
        }
      ],
      "name": "setEnterpriseVault",
      "outputs": [],
      "stateMutability": "nonpayable",
      "type": "function"
    },
    {
      "inputs": [
        {
          "internalType": "contract IEstimator",
          "name": "newEstimator",
          "type": "address"
        }
      ],
      "name": "setEstimator",
      "outputs": [],
      "stateMutability": "nonpayable",
      "type": "function"
    },
    {
      "inputs": [
        {
          "internalType": "uint16",
          "name": "newGcFeePercent",
          "type": "uint16"
        }
      ],
      "name": "setGcFeePercent",
      "outputs": [],
      "stateMutability": "nonpayable",
      "type": "function"
    },
    {
      "inputs": [
        {
          "internalType": "uint32",
          "name": "interestHalfLife",
          "type": "uint32"
        }
      ],
      "name": "setInterestHalfLife",
      "outputs": [],
      "stateMutability": "nonpayable",
      "type": "function"
    },
    {
      "inputs": [
        {
          "internalType": "contract IPowerToken",
          "name": "powerToken",
          "type": "address"
        },
        {
          "internalType": "uint112",
          "name": "baseRate",
          "type": "uint112"
        },
        {
          "internalType": "contract IERC20Metadata",
          "name": "baseToken",
          "type": "address"
        },
        {
          "internalType": "uint96",
          "name": "minGCFee",
          "type": "uint96"
        }
      ],
      "name": "setServiceBaseRate",
      "outputs": [],
      "stateMutability": "nonpayable",
      "type": "function"
    },
    {
      "inputs": [
        {
          "internalType": "contract IPowerToken",
          "name": "powerToken",
          "type": "address"
        },
        {
          "internalType": "uint16",
          "name": "newServiceFeePercent",
          "type": "uint16"
        }
      ],
      "name": "setServiceFeePercent",
      "outputs": [],
      "stateMutability": "nonpayable",
      "type": "function"
    },
    {
      "inputs": [
        {
          "internalType": "contract IPowerToken",
          "name": "powerToken",
          "type": "address"
        },
        {
          "internalType": "uint32",
          "name": "minLoanDuration",
          "type": "uint32"
        },
        {
          "internalType": "uint32",
          "name": "maxLoanDuration",
          "type": "uint32"
        }
      ],
      "name": "setServiceLoanDurationLimits",
      "outputs": [],
      "stateMutability": "nonpayable",
      "type": "function"
    },
    {
      "inputs": [
        {
          "internalType": "address",
          "name": "newOwner",
          "type": "address"
        }
      ],
      "name": "transferOwnership",
      "outputs": [],
      "stateMutability": "nonpayable",
      "type": "function"
    },
    {
      "inputs": [
        {
          "internalType": "address",
          "name": "implementation",
          "type": "address"
        }
      ],
      "name": "upgradeBorrowToken",
      "outputs": [],
      "stateMutability": "nonpayable",
      "type": "function"
    },
    {
      "inputs": [
        {
          "internalType": "address",
          "name": "implementation",
          "type": "address"
        }
      ],
      "name": "upgradeEnterprise",
      "outputs": [],
      "stateMutability": "nonpayable",
      "type": "function"
    },
    {
      "inputs": [
        {
          "internalType": "address",
          "name": "implementation",
          "type": "address"
        }
      ],
      "name": "upgradeEstimator",
      "outputs": [],
      "stateMutability": "nonpayable",
      "type": "function"
    },
    {
      "inputs": [
        {
          "internalType": "address",
          "name": "implementation",
          "type": "address"
        }
      ],
      "name": "upgradeInterestToken",
      "outputs": [],
      "stateMutability": "nonpayable",
      "type": "function"
    },
    {
      "inputs": [
        {
          "internalType": "contract IPowerToken",
          "name": "powerToken",
          "type": "address"
        },
        {
          "internalType": "address",
          "name": "implementation",
          "type": "address"
        }
      ],
      "name": "upgradePowerToken",
      "outputs": [],
      "stateMutability": "nonpayable",
      "type": "function"
    }
  ],
  "bytecode": "0x608060405234801561001057600080fd5b50612e37806100206000396000f3fe608060405234801561001057600080fd5b50600436106102515760003560e01c80630714012c146102565780630cac36b2146103565780630e101b601461036b5780630ea1dc9e1461039657806315a52302146103a75780631b912384146103c95780631ee5be61146103de5780632261b07f146103f15780632b2f6095146104025780632e365ade146104155780632fb2067f146104285780633759214814610469578063449497ec1461048f57806359bf5d39146104a25780635a9b0b89146104b857806362c1f388146104d8578063644e44df146104eb5780637791c42d146104fc5780637b0243631461050d5780637dcfeb73146105205780637eda9ff8146105335780638188d50d1461054657806389035b611461055b5780638b3240a01461056e5780638da5cb5b146105765780638e9fcf811461057e57806390f55edd146105915780639c7aa7f8146105a4578063a0bcfc7f146105b7578063a0efd118146105ca578063a358426f146105df578063a554b26d146105f2578063aebb504114610603578063b19337a41461060b578063b406bf6d1461061e578063b56de97e1461063f578063b96266fa14610652578063bf17088014610667578063bfd84fb414610678578063c1fc16d81461068b578063c20aa9bc1461069e578063c2294784146106b1578063c4d66de8146106c4578063c93d0b92146106d7578063df57f2fa146106e8578063edc1a6281461071d578063ef1f9f3914610730578063f2fde38b14610743578063f54133bb14610756578063fbac9a5514610769578063fcb2884e1461078f575b600080fd5b6103406102643660046128fa565b6040805161010081018252600080825260208201819052918101829052606081018290526080810182905260a0810182905260c0810182905260e08101919091525060009081526010602090815260409182902082516101008101845281546001600160701b038082168352600160701b80830461ffff90811696850196909652600160801b830463ffffffff90811697850197909752600160a01b830487166060850152600160c01b830487166080850152600160e01b90920490951660a083015260019092015493841660c082015292041660e082015290565b60405161034d9190612b4f565b60405180910390f35b61035e610797565b60405161034d91906129bf565b61037e6103793660046128fa565b610829565b6040516001600160a01b03909116815260200161034d565b6001546001600160a01b031661037e565b6103ba6103b536600461257a565b610867565b60405161034d939291906129d2565b6103dc6103d736600461257a565b610a63565b005b6103dc6103ec3660046127e9565b610b28565b6005546001600160a01b031661037e565b6103dc61041036600461257a565b610c7a565b6103dc610423366004612912565b610d01565b61045961043636600461257a565b6001600160a01b0316600090815260086020526040812054600190810b900b1390565b604051901515815260200161034d565b600354600160a01b900463ffffffff165b60405163ffffffff909116815260200161034d565b6103dc61049d3660046128e0565b610dc2565b6104aa610e30565b60405190815260200161034d565b6104c0610e55565b60405161034d9c9b9a99989796959493929190612aac565b6103dc6104e636600461257a565b611018565b6000546001600160a01b031661037e565b6007546001600160a01b031661037e565b6103dc61051b36600461257a565b6110c7565b6103dc61052e36600461261f565b61114e565b6103dc61054136600461257a565b611286565b600754600160a01b900463ffffffff1661047a565b61045961056936600461257a565b611335565b61037e61135f565b61037e611380565b6103dc61058c3660046126ef565b611396565b6103dc61059f36600461257a565b6114ca565b6103dc6105b236600461257a565b611579565b6103dc6105c5366004612733565b6116a0565b600754600160c01b900463ffffffff1661047a565b6104596105ed3660046126c4565b6116fd565b6006546001600160a01b031661037e565b6104aa611756565b6103dc61061936600461257a565b61176d565b600754600160e01b900461ffff1660405161ffff909116815260200161034d565b6103dc61064d366004612912565b61181c565b61065a6118dc565b60405161034d9190612958565b6004546001600160a01b031661037e565b6103dc61068636600461257a565b61193d565b6103dc61069936600461257a565b6119d3565b6103dc6106ac366004612690565b611a54565b6103dc6106bf3660046125e7565b611b61565b6103dc6106d236600461257a565b611c5c565b6002546001600160a01b031661037e565b6106fb6106f63660046128fa565b611d31565b604080518251815260208084015190820152918101519082015260600161034d565b6103dc61072b366004612912565b611d8e565b6103dc61073e36600461259d565b611e3e565b6103dc61075136600461257a565b611ec8565b6103dc61076436600461257a565b611fb9565b61077c61077736600461257a565b6120d8565b60405160019190910b815260200161034d565b600b546104aa565b6060600f80546107a690612d05565b80601f01602080910402602001604051908101604052809291908181526020018280546107d290612d05565b801561081f5780601f106107f45761010080835404028352916020019161081f565b820191906000526020600020905b81548152906001019060200180831161080257829003601f168201915b5050505050905090565b60006009828154811061084c57634e487b7160e01b600052603260045260246000fd5b6000918252602090912001546001600160a01b031692915050565b604080516101208101825260008082526020820181905291810182905260608181018390526080820183905260a0820183905260c0820183905260e082018390526101008201929092528190836001600160a01b03166306fdde036040518163ffffffff1660e01b815260040160006040518083038186803b1580156108ec57600080fd5b505afa158015610900573d6000803e3d6000fd5b505050506040513d6000823e601f3d908101601f191682016040526109289190810190612772565b846001600160a01b03166395d89b416040518163ffffffff1660e01b815260040160006040518083038186803b15801561096157600080fd5b505afa158015610975573d6000803e3d6000fd5b505050506040513d6000823e601f3d908101601f1916820160405261099d9190810190612772565b6001600160a01b0395861660009081526012602090815260409182902082516101208101845281546001600160701b0381168252600160701b81046001600160601b031693820193909352600160d01b830463ffffffff90811694820194909452600160f01b9283900461ffff9081166060830152600190920154998a166080820152600160a01b8a04841660a0820152600160c01b8a0490931660c0840152600160e01b89041660e083015290960460ff161515610100870152909590949350915050565b33610a6c611380565b6001600160a01b031614604051806040016040528060018152602001603360f81b81525090610ab75760405162461bcd60e51b8152600401610aae91906129bf565b60405180910390fd5b50610ac061135f565b6004805460405163266a23b160e21b81526001600160a01b03938416936399a88ec493610af393909116918691016129a5565b600060405180830381600087803b158015610b0d57600080fd5b505af1158015610b21573d6000803e3d6000fd5b5050505050565b600e8054610b3590612d05565b6040805180820190915260018152601960f91b6020820152915015610b6d5760405162461bcd60e51b8152600401610aae91906129bf565b50610b7781611c5c565b81600080516020612dc283398151915280546001600160a01b03929092166001600160a01b031992831617905560038054909116331790558751610bc290600e9060208b01906123f1565b50610bcf600f8888612475565b5060078054600480546001600160a01b03199081166001600160a01b03988916179091556005805482169688169690961790955560068054939096169290941682179094556003805463ffffffff60a01b191660e160a61b179055600165ffff0000000160c01b0319909216600160e01b61ffff95909516949094026001600160c01b03191693909317176102a360a61b1763ffffffff60c01b19166102a360c71b17905550505050565b33610c83611380565b6001600160a01b031614604051806040016040528060018152602001603360f81b81525090610cc55760405162461bcd60e51b8152600401610aae91906129bf565b50610cce61135f565b60015460405163266a23b160e21b81526001600160a01b03928316926399a88ec492610af39291169085906004016129a5565b33610d0a611380565b6001600160a01b031614604051806040016040528060018152602001603360f81b81525090610d4c5760405162461bcd60e51b8152600401610aae91906129bf565b506007546040805180820190915260028152610d8d60f21b60208201529063ffffffff600160c01b90910481169083161115610d9b5760405162461bcd60e51b8152600401610aae91906129bf565b506007805463ffffffff909216600160a01b0263ffffffff60a01b19909216919091179055565b33610dcb611380565b6001600160a01b031614604051806040016040528060018152602001603360f81b81525090610e0d5760405162461bcd60e51b8152600401610aae91906129bf565b506007805461ffff909216600160e01b0261ffff60e01b19909216919091179055565b6000610e3a612105565b6001600160701b0316600a54610e509190612c39565b905090565b600d54600354600754600a54600b54600c54600e805460609788976000978897889788978897889788978897889788979496600f96939563ffffffff600160a01b94859004811696948404811695600160c01b850482169561ffff600160e01b9687900416959394936001600160701b0380841694600160701b8504909116939190910416908c90610ee690612d05565b80601f0160208091040260200160405190810160405280929190818152602001828054610f1290612d05565b8015610f5f5780601f10610f3457610100808354040283529160200191610f5f565b820191906000526020600020905b815481529060010190602001808311610f4257829003601f168201915b50505050509b508a8054610f7290612d05565b80601f0160208091040260200160405190810160405280929190818152602001828054610f9e90612d05565b8015610feb5780601f10610fc057610100808354040283529160200191610feb565b820191906000526020600020905b815481529060010190602001808311610fce57829003601f168201915b50505050509a509b509b509b509b509b509b509b509b509b509b509b509b50909192939495969798999a9b565b33611021611380565b6001600160a01b031614604051806040016040528060018152602001603360f81b815250906110635760405162461bcd60e51b8152600401610aae91906129bf565b50604080518082019091526002815261363160f01b60208201526001600160a01b0382166110a45760405162461bcd60e51b8152600401610aae91906129bf565b50600680546001600160a01b0319166001600160a01b0392909216919091179055565b336110d0611380565b6001600160a01b031614604051806040016040528060018152602001603360f81b815250906111125760405162461bcd60e51b8152600401610aae91906129bf565b5061111b61135f565b60025460405163266a23b160e21b81526001600160a01b03928316926399a88ec492610af39291169085906004016129a5565b33611157611380565b6001600160a01b031614604051806040016040528060018152602001603360f81b815250906111995760405162461bcd60e51b8152600401610aae91906129bf565b50836111a481611335565b604051806040016040528060018152602001601b60f91b815250906111dc5760405162461bcd60e51b8152600401610aae91906129bf565b5060408051808201909152600281526106c760f31b60208201526001600160a01b03841661121d5760405162461bcd60e51b8152600401610aae91906129bf565b50506001600160a01b0393841660009081526012602052604090208054600182018054949096166001600160a01b0319909416939093179094556001600160601b0316600160701b026001600160d01b03199091166001600160701b0390921691909117179055565b3361128f611380565b6001600160a01b031614604051806040016040528060018152602001603360f81b815250906112d15760405162461bcd60e51b8152600401610aae91906129bf565b50604080518082019091526002815261036360f41b60208201526001600160a01b0382166113125760405162461bcd60e51b8152600401610aae91906129bf565b50600480546001600160a01b0319166001600160a01b0392909216919091179055565b6001600160a01b0316600090815260126020526040902054600160d01b900463ffffffff16151590565b6000600080516020612dc28339815191525b546001600160a01b0316919050565b6000600080516020612da2833981519152611371565b3361139f611380565b6001600160a01b031614604051806040016040528060018152602001603360f81b815250906113e15760405162461bcd60e51b8152600401610aae91906129bf565b50826113ec81611335565b604051806040016040528060018152602001601b60f91b815250906114245760405162461bcd60e51b8152600401610aae91906129bf565b508163ffffffff168363ffffffff16111560405180604001604052806002815260200161363960f01b8152509061146e5760405162461bcd60e51b8152600401610aae91906129bf565b50506001600160a01b039290921660009081526012602052604090206001018054600160a01b600160e01b031916600160a01b63ffffffff9384160263ffffffff60c01b191617600160c01b9290931691909102919091179055565b336114d3611380565b6001600160a01b031614604051806040016040528060018152602001603360f81b815250906115155760405162461bcd60e51b8152600401610aae91906129bf565b506040805180820190915260028152611b1960f11b60208201526001600160a01b0382166115565760405162461bcd60e51b8152600401610aae91906129bf565b50600780546001600160a01b0319166001600160a01b0392909216919091179055565b33611582611380565b6001600160a01b031614604051806040016040528060018152602001603360f81b815250906115c45760405162461bcd60e51b8152600401610aae91906129bf565b506001600160a01b03811660009081526008602090815260409182902054825180840190935260028352611b9960f11b91830191909152600190810b900b61161f5760405162461bcd60e51b8152600401610aae91906129bf565b506001600160a01b038116600090815260086020526040812054600190810b900b131561169d576001600160a01b03811660009081526008602052604090205461166b9060010b612d40565b6001600160a01b0382166000908152600860205260409020805460019290920b61ffff1661ffff199092169190911790555b50565b336116a9611380565b6001600160a01b031614604051806040016040528060018152602001603360f81b815250906116eb5760405162461bcd60e51b8152600401610aae91906129bf565b506116f8600f8383612475565b505050565b6001600160a01b0382166000908152601260205260408120600181015463ffffffff808516600160a01b909204161180159061174e5750600181015463ffffffff600160c01b909104811690841611155b949350505050565b6000600b54611763610e30565b610e509190612cbe565b33611776611380565b6001600160a01b031614604051806040016040528060018152602001603360f81b815250906117b85760405162461bcd60e51b8152600401610aae91906129bf565b50604080518082019091526002815261363360f01b60208201526001600160a01b0382166117f95760405162461bcd60e51b8152600401610aae91906129bf565b50600580546001600160a01b0319166001600160a01b0392909216919091179055565b33611825611380565b6001600160a01b031614604051806040016040528060018152602001603360f81b815250906118675760405162461bcd60e51b8152600401610aae91906129bf565b50600754604080518082019091526002815261363560f01b60208201529063ffffffff808416600160a01b9092041611156118b55760405162461bcd60e51b8152600401610aae91906129bf565b506007805463ffffffff909216600160c01b0263ffffffff60c01b19909216919091179055565b6060601380548060200260200160405190810160405280929190818152602001828054801561081f57602002820191906000526020600020905b81546001600160a01b03168152600190910190602001808311611916575050505050905090565b33611946611380565b6001600160a01b031614604051806040016040528060018152602001603360f81b815250906119885760405162461bcd60e51b8152600401610aae91906129bf565b50604080518082019091526002815261373160f01b60208201526001600160a01b0382166119c95760405162461bcd60e51b8152600401610aae91906129bf565b5061169d8161216d565b336119dc611380565b6001600160a01b031614604051806040016040528060018152602001603360f81b81525090611a1e5760405162461bcd60e51b8152600401610aae91906129bf565b50611a2761135f565b6001600160a01b03166399a88ec430836040518363ffffffff1660e01b8152600401610af39291906129a5565b33611a5d611380565b6001600160a01b031614604051806040016040528060018152602001603360f81b81525090611a9f5760405162461bcd60e51b8152600401610aae91906129bf565b5081611aaa81611335565b604051806040016040528060018152602001601b60f91b81525090611ae25760405162461bcd60e51b8152600401610aae91906129bf565b50604080518082019091526002815261363760f01b602082015261138861ffff84161115611b235760405162461bcd60e51b8152600401610aae91906129bf565b50506001600160a01b039091166000908152601260205260409020600101805461ffff909216600160e01b0261ffff60e01b19909216919091179055565b33611b6a611380565b6001600160a01b031614604051806040016040528060018152602001603360f81b81525090611bac5760405162461bcd60e51b8152600401610aae91906129bf565b5081611bb781611335565b604051806040016040528060018152602001601b60f91b81525090611bef5760405162461bcd60e51b8152600401610aae91906129bf565b50611bf861135f565b6001600160a01b03166399a88ec484846040518363ffffffff1660e01b8152600401611c259291906129a5565b600060405180830381600087803b158015611c3f57600080fd5b505af1158015611c53573d6000803e3d6000fd5b50505050505050565b6000611c66611380565b6001600160a01b031614604051806040016040528060018152602001601960f91b81525090611ca85760405162461bcd60e51b8152600401610aae91906129bf565b50604080518082019091526002815261373360f01b60208201526001600160a01b038216611ce95760405162461bcd60e51b8152600401610aae91906129bf565b50600080516020612da283398151915280546001600160a01b0319166001600160a01b038316908117909155604051600090600080516020612de2833981519152908290a350565b611d5560405180606001604052806000815260200160008152602001600081525090565b50600090815260116020908152604091829020825160608101845281548152600182015492810192909252600201549181019190915290565b33611d97611380565b6001600160a01b031614604051806040016040528060018152602001603360f81b81525090611dd95760405162461bcd60e51b8152600401610aae91906129bf565b506040805180820190915260028152611b1b60f11b602082015263ffffffff8216611e175760405162461bcd60e51b8152600401610aae91906129bf565b506003805463ffffffff909216600160a01b0263ffffffff60a01b19909216919091179055565b6000546040805180820190915260018152601960f91b6020820152906001600160a01b031615611e815760405162461bcd60e51b8152600401610aae91906129bf565b50600080546001600160a01b038086166001600160a01b0319928316179092556001805485841690831617905560028054928416929091169190911790556116f88361216d565b33611ed1611380565b6001600160a01b031614604051806040016040528060018152602001603360f81b81525090611f135760405162461bcd60e51b8152600401610aae91906129bf565b50604080518082019091526002815261373360f01b60208201526001600160a01b038216611f545760405162461bcd60e51b8152600401610aae91906129bf565b50806001600160a01b0316611f67611380565b6001600160a01b0316600080516020612de283398151915260405160405180910390a3600080516020612da283398151915280546001600160a01b0319166001600160a01b0392909216919091179055565b33611fc2611380565b6001600160a01b031614604051806040016040528060018152602001603360f81b815250906120045760405162461bcd60e51b8152600401610aae91906129bf565b508061200f81611335565b604051806040016040528060018152602001601b60f91b815250906120475760405162461bcd60e51b8152600401610aae91906129bf565b506001600160a01b0382166000908152601260209081526040918290206001015482518084019093526002835261037360f41b91830191909152600160f01b900460ff16156120a95760405162461bcd60e51b8152600401610aae91906129bf565b50506001600160a01b03166000908152601260205260409020600101805460ff60f01b1916600160f01b179055565b6001600160a01b0381166000908152600860205260408120546120ff90600190810b612c51565b92915050565b600c546000906121509063ffffffff600160e01b8204169061213a906001600160701b0380821691600160701b900416612c96565b600354600160a01b900463ffffffff1642612250565b600c54610e509190600160701b90046001600160701b0316612c96565b6001600160a01b038116600090815260086020526040902054600190810b900b6122055760098054600180820183557f6e1540171b6c0c960b71a7020d9f60077f6af931a8bbf590da0223dacf75c7af90910180546001600160a01b0319166001600160a01b039490941693841790559054600092835260086020526040909220805461ffff191661ffff9390920b92909216179055565b6001600160a01b038116600090815260086020526040812054600190810b900b121561169d576001600160a01b03811660009081526008602052604090205461166b9060010b612d40565b60008463ffffffff168263ffffffff161015604051806040016040528060018152602001600760fb1b8152509061229a5760405162461bcd60e51b8152600401610aae91906129bf565b5084820391508263ffffffff168263ffffffff16816122c957634e487b7160e01b600052601260045260246000fd5b0463ffffffff16846001600160701b0316901c93508263ffffffff168263ffffffff168161230757634e487b7160e01b600052601260045260246000fd5b06915063ffffffff8216158061232457506001600160701b038416155b1561233057508261174e565b60006001600160701b0385168163ffffffff86811690861671b17217f7d1cf79abc9e3b39803f2f6af40f3028161237757634e487b7160e01b600052601260045260246000fd5b049050600160901b5b82156123e4579282019280828402816123a957634e487b7160e01b600052601260045260246000fd5b0493849003939250600160901b0180828402816123d657634e487b7160e01b600052601260045260246000fd5b049250600160901b01612380565b5091979650505050505050565b8280546123fd90612d05565b90600052602060002090601f01602090048101928261241f5760008555612465565b82601f1061243857805160ff1916838001178555612465565b82800160010185558215612465579182015b8281111561246557825182559160200191906001019061244a565b506124719291506124e9565b5090565b82805461248190612d05565b90600052602060002090601f0160209004810192826124a35760008555612465565b82601f106124bc5782800160ff19823516178555612465565b82800160010185558215612465579182015b828111156124655782358255916020019190600101906124ce565b5b8082111561247157600081556001016124ea565b803561250981612d8c565b919050565b60008083601f84011261251f578182fd5b5081356001600160401b03811115612535578182fd5b60208301915083602082850101111561254d57600080fd5b9250929050565b803561ffff8116811461250957600080fd5b803563ffffffff8116811461250957600080fd5b60006020828403121561258b578081fd5b813561259681612d8c565b9392505050565b6000806000606084860312156125b1578182fd5b83356125bc81612d8c565b925060208401356125cc81612d8c565b915060408401356125dc81612d8c565b809150509250925092565b600080604083850312156125f9578182fd5b823561260481612d8c565b9150602083013561261481612d8c565b809150509250929050565b60008060008060808587031215612634578081fd5b843561263f81612d8c565b935060208501356001600160701b038116811461265a578182fd5b9250604085013561266a81612d8c565b915060608501356001600160601b0381168114612685578182fd5b939692955090935050565b600080604083850312156126a2578182fd5b82356126ad81612d8c565b91506126bb60208401612554565b90509250929050565b600080604083850312156126d6578182fd5b82356126e181612d8c565b91506126bb60208401612566565b600080600060608486031215612703578081fd5b833561270e81612d8c565b925061271c60208501612566565b915061272a60408501612566565b90509250925092565b60008060208385031215612745578182fd5b82356001600160401b0381111561275a578283fd5b6127668582860161250e565b90969095509350505050565b600060208284031215612783578081fd5b81516001600160401b03811115612798578182fd5b8201601f810184136127a8578182fd5b80516127bb6127b682612c12565b612be2565b8181528560208385010111156127cf578384fd5b6127e0826020830160208601612cd5565b95945050505050565b60008060008060008060008060e0898b031215612804578586fd5b88356001600160401b038082111561281a578788fd5b818b0191508b601f83011261282d578788fd5b813561283b6127b682612c12565b8181528d602083860101111561284f57898afd5b816020850160208301378960208383010152809b50505060208b0135915080821115612879578788fd5b506128868b828c0161250e565b9098509650612899905060408a01612554565b94506128a760608a016124fe565b93506128b560808a016124fe565b92506128c360a08a016124fe565b91506128d160c08a016124fe565b90509295985092959890939650565b6000602082840312156128f1578081fd5b61259682612554565b60006020828403121561290b578081fd5b5035919050565b600060208284031215612923578081fd5b61259682612566565b60008151808452612944816020860160208601612cd5565b601f01601f19169290920160200192915050565b6020808252825182820181905260009190848201906040850190845b818110156129995783516001600160a01b031683529284019291840191600101612974565b50909695505050505050565b6001600160a01b0392831681529116602082015260400190565b602081526000612596602083018461292c565b60006101608083526129e68184018761292c565b905082810360208401526129fa818661292c565b84516001600160701b031660408581019190915260208601516001600160601b0316606086015285015163ffffffff81166080860152909250905050606083015161ffff811660a08401525060808301516001600160a01b03811660c08401525060a083015163ffffffff811660e08401525060c0830151610100612a868185018363ffffffff169052565b60e085015161ffff16610120850152909301511515610140909201919091529392505050565b61018081526000612ac161018083018f61292c565b8281036020840152612ad3818f61292c565b604084018e905263ffffffff8d811660608601528c811660808601528b1660a085015261ffff8a1660c085015260e0840189905261010084018890526001600160701b0387811661012086015286166101408501529150612b319050565b63ffffffff83166101608301529d9c50505050505050505050505050565b81516001600160701b0316815260208083015161ffff169082015260408083015163ffffffff9081169183019190915260608084015182169083015260808084015182169083015260a080840151918216908301526101008201905060c0830151612bc560c08401826001600160701b03169052565b5060e0830151612bdb60e084018261ffff169052565b5092915050565b604051601f8201601f191681016001600160401b0381118282101715612c0a57612c0a612d76565b604052919050565b60006001600160401b03821115612c2b57612c2b612d76565b50601f01601f191660200190565b60008219821115612c4c57612c4c612d60565b500190565b60008160010b8360010b82811281617fff1901831281151615612c7657612c76612d60565b81617fff018313811615612c8c57612c8c612d60565b5090039392505050565b60006001600160701b0383811690831681811015612cb657612cb6612d60565b039392505050565b600082821015612cd057612cd0612d60565b500390565b60005b83811015612cf0578181015183820152602001612cd8565b83811115612cff576000848401525b50505050565b600181811c90821680612d1957607f821691505b60208210811415612d3a57634e487b7160e01b600052602260045260246000fd5b50919050565b60008160010b617fff19811415612d5957612d59612d60565b9003919050565b634e487b7160e01b600052601160045260246000fd5b634e487b7160e01b600052604160045260246000fd5b6001600160a01b038116811461169d57600080fdfe4f471908b72bb76dae5bd24599026e7bf3ddb256497722888ffa422f83729eded1248cccb5fef9131c731321e43e9a924840ffee7dc68c7d1d3e5cb7dedcae038be0079c531659141344cd1fd0a4f28419497f9722a3daafe3b4186f6b6457e0a26469706673582212204b50f5f69c606a1abc964ba52d4b69f42f0df94d46afe4576218977c4a41dbcb64736f6c63430008040033",
  "linkReferences": {},
  "deployedLinkReferences": {}
}