{
  "_format": "hh-sol-artifact-1",
  "contractName": "EnterpriseStorage",
  "sourceName": "contracts/EnterpriseStorage.sol",
  "abi": [
    {
      "anonymous": false,
      "inputs": [
        {
          "indexed": true,
          "internalType": "address",
          "name": "previousOwner",
          "type": "address"
        },
        {
          "indexed": true,
          "internalType": "address",
          "name": "newOwner",
          "type": "address"
        }
      ],
      "name": "OwnershipTransferred",
      "type": "event"
    },
    {
      "inputs": [
        {
          "internalType": "contract IPowerToken",
          "name": "powerToken",
          "type": "address"
        }
      ],
      "name": "allowPerpetualPowerTokenForever",
      "outputs": [],
      "stateMutability": "nonpayable",
      "type": "function"
    },
    {
      "inputs": [
        {
          "internalType": "address",
          "name": "token",
          "type": "address"
        }
      ],
      "name": "disablePaymentToken",
      "outputs": [],
      "stateMutability": "nonpayable",
      "type": "function"
    },
    {
      "inputs": [
        {
          "internalType": "address",
          "name": "token",
          "type": "address"
        }
      ],
      "name": "enablePaymentToken",
      "outputs": [],
      "stateMutability": "nonpayable",
      "type": "function"
    },
    {
      "inputs": [],
      "name": "getAvailableReserve",
      "outputs": [
        {
          "internalType": "uint256",
          "name": "",
          "type": "uint256"
        }
      ],
      "stateMutability": "view",
      "type": "function"
    },
    {
      "inputs": [],
      "name": "getBaseUri",
      "outputs": [
        {
          "internalType": "string",
          "name": "",
          "type": "string"
        }
      ],
      "stateMutability": "view",
      "type": "function"
    },
    {
      "inputs": [],
      "name": "getBorrowToken",
      "outputs": [
        {
          "internalType": "contract IBorrowToken",
          "name": "",
          "type": "address"
        }
      ],
      "stateMutability": "view",
      "type": "function"
    },
    {
      "inputs": [],
      "name": "getBorrowerLoanReturnGracePeriod",
      "outputs": [
        {
          "internalType": "uint32",
          "name": "",
          "type": "uint32"
        }
      ],
      "stateMutability": "view",
      "type": "function"
    },
    {
      "inputs": [],
      "name": "getConverter",
      "outputs": [
        {
          "internalType": "contract IConverter",
          "name": "",
          "type": "address"
        }
      ],
      "stateMutability": "view",
      "type": "function"
    },
    {
      "inputs": [],
      "name": "getEnterpriseCollector",
      "outputs": [
        {
          "internalType": "address",
          "name": "",
          "type": "address"
        }
      ],
      "stateMutability": "view",
      "type": "function"
    },
    {
      "inputs": [],
      "name": "getEnterpriseLoanCollectGracePeriod",
      "outputs": [
        {
          "internalType": "uint32",
          "name": "",
          "type": "uint32"
        }
      ],
      "stateMutability": "view",
      "type": "function"
    },
    {
      "inputs": [],
      "name": "getEnterpriseVault",
      "outputs": [
        {
          "internalType": "address",
          "name": "",
          "type": "address"
        }
      ],
      "stateMutability": "view",
      "type": "function"
    },
    {
      "inputs": [],
      "name": "getEstimator",
      "outputs": [
        {
          "internalType": "contract IEstimator",
          "name": "",
          "type": "address"
        }
      ],
      "stateMutability": "view",
      "type": "function"
    },
    {
      "inputs": [],
      "name": "getGCFeePercent",
      "outputs": [
        {
          "internalType": "uint16",
          "name": "",
          "type": "uint16"
        }
      ],
      "stateMutability": "view",
      "type": "function"
    },
    {
      "inputs": [],
      "name": "getInfo",
      "outputs": [
        {
          "internalType": "string",
          "name": "name",
          "type": "string"
        },
        {
          "internalType": "string",
          "name": "baseUri",
          "type": "string"
        },
        {
          "internalType": "uint256",
          "name": "totalShares",
          "type": "uint256"
        },
        {
          "internalType": "uint32",
          "name": "interestHalfLife",
          "type": "uint32"
        },
        {
          "internalType": "uint32",
          "name": "borrowerLoanReturnGracePeriod",
          "type": "uint32"
        },
        {
          "internalType": "uint32",
          "name": "enterpriseLoanCollectGracePeriod",
          "type": "uint32"
        },
        {
          "internalType": "uint16",
          "name": "gcFeePercent",
          "type": "uint16"
        },
        {
          "internalType": "uint256",
          "name": "fixedReserve",
          "type": "uint256"
        },
        {
          "internalType": "uint256",
          "name": "usedReserve",
          "type": "uint256"
        },
        {
          "internalType": "uint112",
          "name": "streamingReserve",
          "type": "uint112"
        },
        {
          "internalType": "uint112",
          "name": "streamingReserveTarget",
          "type": "uint112"
        },
        {
          "internalType": "uint32",
          "name": "streamingReserveUpdated",
          "type": "uint32"
        }
      ],
      "stateMutability": "view",
      "type": "function"
    },
    {
      "inputs": [],
      "name": "getInterestHalfLife",
      "outputs": [
        {
          "internalType": "uint32",
          "name": "",
          "type": "uint32"
        }
      ],
      "stateMutability": "view",
      "type": "function"
    },
    {
      "inputs": [],
      "name": "getInterestToken",
      "outputs": [
        {
          "internalType": "contract IInterestToken",
          "name": "",
          "type": "address"
        }
      ],
      "stateMutability": "view",
      "type": "function"
    },
    {
      "inputs": [
        {
          "internalType": "uint256",
          "name": "tokenId",
          "type": "uint256"
        }
      ],
      "name": "getLiquidityInfo",
      "outputs": [
        {
          "components": [
            {
              "internalType": "uint256",
              "name": "amount",
              "type": "uint256"
            },
            {
              "internalType": "uint256",
              "name": "shares",
              "type": "uint256"
            },
            {
              "internalType": "uint256",
              "name": "block",
              "type": "uint256"
            }
          ],
          "internalType": "struct EnterpriseStorage.LiquidityInfo",
          "name": "",
          "type": "tuple"
        }
      ],
      "stateMutability": "view",
      "type": "function"
    },
    {
      "inputs": [],
      "name": "getLiquidityToken",
      "outputs": [
        {
          "internalType": "contract IERC20Metadata",
          "name": "",
          "type": "address"
        }
      ],
      "stateMutability": "view",
      "type": "function"
    },
    {
      "inputs": [
        {
          "internalType": "uint256",
          "name": "tokenId",
          "type": "uint256"
        }
      ],
      "name": "getLoanInfo",
      "outputs": [
        {
          "components": [
            {
              "internalType": "uint112",
              "name": "amount",
              "type": "uint112"
            },
            {
              "internalType": "uint16",
              "name": "powerTokenIndex",
              "type": "uint16"
            },
            {
              "internalType": "uint32",
              "name": "borrowingTime",
              "type": "uint32"
            },
            {
              "internalType": "uint32",
              "name": "maturityTime",
              "type": "uint32"
            },
            {
              "internalType": "uint32",
              "name": "borrowerReturnGraceTime",
              "type": "uint32"
            },
            {
              "internalType": "uint32",
              "name": "enterpriseCollectGraceTime",
              "type": "uint32"
            },
            {
              "internalType": "uint112",
              "name": "gcFee",
              "type": "uint112"
            },
            {
              "internalType": "uint16",
              "name": "gcFeeTokenIndex",
              "type": "uint16"
            }
          ],
          "internalType": "struct EnterpriseStorage.LoanInfo",
          "name": "",
          "type": "tuple"
        }
      ],
      "stateMutability": "view",
      "type": "function"
    },
    {
      "inputs": [
        {
          "internalType": "uint256",
          "name": "index",
          "type": "uint256"
        }
      ],
      "name": "getPowerToken",
      "outputs": [
        {
          "internalType": "contract IPowerToken",
          "name": "",
          "type": "address"
        }
      ],
      "stateMutability": "view",
      "type": "function"
    },
    {
      "inputs": [],
      "name": "getPowerTokenImpl",
      "outputs": [
        {
          "internalType": "address",
          "name": "",
          "type": "address"
        }
      ],
      "stateMutability": "view",
      "type": "function"
    },
    {
      "inputs": [
        {
          "internalType": "contract IPowerToken",
          "name": "powerToken",
          "type": "address"
        }
      ],
      "name": "getPowerTokenIndex",
      "outputs": [
        {
          "internalType": "uint16",
          "name": "",
          "type": "uint16"
        }
      ],
      "stateMutability": "view",
      "type": "function"
    },
    {
      "inputs": [],
      "name": "getPowerTokens",
      "outputs": [
        {
          "internalType": "contract IPowerToken[]",
          "name": "",
          "type": "address[]"
        }
      ],
      "stateMutability": "view",
      "type": "function"
    },
    {
      "inputs": [],
      "name": "getReserve",
      "outputs": [
        {
          "internalType": "uint256",
          "name": "",
          "type": "uint256"
        }
      ],
      "stateMutability": "view",
      "type": "function"
    },
    {
      "inputs": [
        {
          "internalType": "contract IPowerToken",
          "name": "powerToken",
          "type": "address"
        }
      ],
      "name": "getService",
      "outputs": [
        {
          "internalType": "string",
          "name": "name",
          "type": "string"
        },
        {
          "internalType": "string",
          "name": "symbol",
          "type": "string"
        },
        {
          "components": [
            {
              "internalType": "uint112",
              "name": "baseRate",
              "type": "uint112"
            },
            {
              "internalType": "uint96",
              "name": "minGCFee",
              "type": "uint96"
            },
            {
              "internalType": "uint32",
              "name": "halfLife",
              "type": "uint32"
            },
            {
              "internalType": "uint16",
              "name": "index",
              "type": "uint16"
            },
            {
              "internalType": "contract IERC20Metadata",
              "name": "baseToken",
              "type": "address"
            },
            {
              "internalType": "uint32",
              "name": "minLoanDuration",
              "type": "uint32"
            },
            {
              "internalType": "uint32",
              "name": "maxLoanDuration",
              "type": "uint32"
            },
            {
              "internalType": "uint16",
              "name": "serviceFeePercent",
              "type": "uint16"
            },
            {
              "internalType": "bool",
              "name": "allowsPerpetual",
              "type": "bool"
            }
          ],
          "internalType": "struct EnterpriseStorage.ServiceConfig",
          "name": "config",
          "type": "tuple"
        }
      ],
      "stateMutability": "view",
      "type": "function"
    },
    {
      "inputs": [
        {
          "internalType": "contract IPowerToken",
          "name": "powerToken",
          "type": "address"
        }
      ],
      "name": "getServiceBaseRate",
      "outputs": [
        {
          "internalType": "uint112",
          "name": "",
          "type": "uint112"
        }
      ],
      "stateMutability": "view",
      "type": "function"
    },
    {
      "inputs": [
        {
          "internalType": "contract IPowerToken",
          "name": "powerToken",
          "type": "address"
        }
      ],
      "name": "getServiceBaseToken",
      "outputs": [
        {
          "internalType": "contract IERC20Metadata",
          "name": "",
          "type": "address"
        }
      ],
      "stateMutability": "view",
      "type": "function"
    },
    {
      "inputs": [
        {
          "internalType": "contract IPowerToken",
          "name": "powerToken",
          "type": "address"
        }
      ],
      "name": "getServiceFeePercent",
      "outputs": [
        {
          "internalType": "uint112",
          "name": "",
          "type": "uint112"
        }
      ],
      "stateMutability": "view",
      "type": "function"
    },
    {
      "inputs": [
        {
          "internalType": "contract IPowerToken",
          "name": "powerToken",
          "type": "address"
        }
      ],
      "name": "getServiceHalfLife",
      "outputs": [
        {
          "internalType": "uint32",
          "name": "",
          "type": "uint32"
        }
      ],
      "stateMutability": "view",
      "type": "function"
    },
    {
      "inputs": [
        {
          "internalType": "contract IPowerToken",
          "name": "powerToken",
          "type": "address"
        }
      ],
      "name": "getServiceMaxLoanDuration",
      "outputs": [
        {
          "internalType": "uint32",
          "name": "",
          "type": "uint32"
        }
      ],
      "stateMutability": "view",
      "type": "function"
    },
    {
      "inputs": [
        {
          "internalType": "contract IPowerToken",
          "name": "powerToken",
          "type": "address"
        }
      ],
      "name": "getServiceMinGCFee",
      "outputs": [
        {
          "internalType": "uint112",
          "name": "",
          "type": "uint112"
        }
      ],
      "stateMutability": "view",
      "type": "function"
    },
    {
      "inputs": [
        {
          "internalType": "contract IPowerToken",
          "name": "powerToken",
          "type": "address"
        }
      ],
      "name": "getServiceMinLoanDuration",
      "outputs": [
        {
          "internalType": "uint32",
          "name": "",
          "type": "uint32"
        }
      ],
      "stateMutability": "view",
      "type": "function"
    },
    {
      "inputs": [],
      "name": "getServices",
      "outputs": [
        {
          "internalType": "address[]",
          "name": "addresses",
          "type": "address[]"
        },
        {
          "internalType": "string[]",
          "name": "names",
          "type": "string[]"
        },
        {
          "internalType": "string[]",
          "name": "symbols",
          "type": "string[]"
        },
        {
          "components": [
            {
              "internalType": "uint112",
              "name": "baseRate",
              "type": "uint112"
            },
            {
              "internalType": "uint96",
              "name": "minGCFee",
              "type": "uint96"
            },
            {
              "internalType": "uint32",
              "name": "halfLife",
              "type": "uint32"
            },
            {
              "internalType": "uint16",
              "name": "index",
              "type": "uint16"
            },
            {
              "internalType": "contract IERC20Metadata",
              "name": "baseToken",
              "type": "address"
            },
            {
              "internalType": "uint32",
              "name": "minLoanDuration",
              "type": "uint32"
            },
            {
              "internalType": "uint32",
              "name": "maxLoanDuration",
              "type": "uint32"
            },
            {
              "internalType": "uint16",
              "name": "serviceFeePercent",
              "type": "uint16"
            },
            {
              "internalType": "bool",
              "name": "allowsPerpetual",
              "type": "bool"
            }
          ],
          "internalType": "struct EnterpriseStorage.ServiceConfig[]",
          "name": "configs",
          "type": "tuple[]"
        }
      ],
      "stateMutability": "view",
      "type": "function"
    },
    {
      "inputs": [],
      "name": "getUsedReserve",
      "outputs": [
        {
          "internalType": "uint256",
          "name": "",
          "type": "uint256"
        }
      ],
      "stateMutability": "view",
      "type": "function"
    },
    {
      "inputs": [
        {
          "internalType": "address",
          "name": "initialOwner",
          "type": "address"
        }
      ],
      "name": "initialize",
      "outputs": [],
      "stateMutability": "nonpayable",
      "type": "function"
    },
    {
      "inputs": [
        {
          "internalType": "string",
          "name": "enterpriseName",
          "type": "string"
        },
        {
          "internalType": "string",
          "name": "baseUri",
          "type": "string"
        },
        {
          "internalType": "contract IEstimator",
          "name": "estimator",
          "type": "address"
        },
        {
          "internalType": "contract IConverter",
          "name": "converter",
          "type": "address"
        },
        {
          "internalType": "address",
          "name": "owner",
          "type": "address"
        }
      ],
      "name": "initialize",
      "outputs": [],
      "stateMutability": "nonpayable",
      "type": "function"
    },
    {
      "inputs": [
        {
          "internalType": "address",
          "name": "powerTokenImpl",
          "type": "address"
        },
        {
          "internalType": "contract IERC20Metadata",
          "name": "liquidityToken",
          "type": "address"
        },
        {
          "internalType": "contract IInterestToken",
          "name": "interestToken",
          "type": "address"
        },
        {
          "internalType": "contract IBorrowToken",
          "name": "borrowToken",
          "type": "address"
        }
      ],
      "name": "initializeTokens",
      "outputs": [],
      "stateMutability": "nonpayable",
      "type": "function"
    },
    {
      "inputs": [
        {
          "internalType": "contract IPowerToken",
          "name": "powerToken",
          "type": "address"
        }
      ],
      "name": "isRegisteredPowerToken",
      "outputs": [
        {
          "internalType": "bool",
          "name": "",
          "type": "bool"
        }
      ],
      "stateMutability": "view",
      "type": "function"
    },
    {
      "inputs": [
        {
          "internalType": "contract IPowerToken",
          "name": "powerToken",
          "type": "address"
        },
        {
          "internalType": "uint32",
          "name": "duration",
          "type": "uint32"
        }
      ],
      "name": "isServiceAllowedLoanDuration",
      "outputs": [
        {
          "internalType": "bool",
          "name": "",
          "type": "bool"
        }
      ],
      "stateMutability": "view",
      "type": "function"
    },
    {
      "inputs": [
        {
          "internalType": "contract IERC20",
          "name": "token",
          "type": "address"
        }
      ],
      "name": "isSupportedPaymentToken",
      "outputs": [
        {
          "internalType": "bool",
          "name": "",
          "type": "bool"
        }
      ],
      "stateMutability": "view",
      "type": "function"
    },
    {
      "inputs": [],
      "name": "owner",
      "outputs": [
        {
          "internalType": "address",
          "name": "",
          "type": "address"
        }
      ],
      "stateMutability": "view",
      "type": "function"
    },
    {
      "inputs": [
        {
          "internalType": "uint256",
          "name": "index",
          "type": "uint256"
        }
      ],
      "name": "paymentToken",
      "outputs": [
        {
          "internalType": "address",
          "name": "",
          "type": "address"
        }
      ],
      "stateMutability": "view",
      "type": "function"
    },
    {
      "inputs": [
        {
          "internalType": "contract IERC20",
          "name": "token",
          "type": "address"
        }
      ],
      "name": "paymentTokenIndex",
      "outputs": [
        {
          "internalType": "int16",
          "name": "",
          "type": "int16"
        }
      ],
      "stateMutability": "view",
      "type": "function"
    },
    {
      "inputs": [
        {
          "internalType": "string",
          "name": "baseUri",
          "type": "string"
        }
      ],
      "name": "setBaseUri",
      "outputs": [],
      "stateMutability": "nonpayable",
      "type": "function"
    },
    {
      "inputs": [
        {
          "internalType": "uint32",
          "name": "newPeriod",
          "type": "uint32"
        }
      ],
      "name": "setBorrowerLoanReturnGracePeriod",
      "outputs": [],
      "stateMutability": "nonpayable",
      "type": "function"
    },
    {
      "inputs": [
        {
          "internalType": "contract IConverter",
          "name": "newConverter",
          "type": "address"
        }
      ],
      "name": "setConverter",
      "outputs": [],
      "stateMutability": "nonpayable",
      "type": "function"
    },
    {
      "inputs": [
        {
          "internalType": "address",
          "name": "newCollector",
          "type": "address"
        }
      ],
      "name": "setEnterpriseCollector",
      "outputs": [],
      "stateMutability": "nonpayable",
      "type": "function"
    },
    {
      "inputs": [
        {
          "internalType": "uint32",
          "name": "newPeriod",
          "type": "uint32"
        }
      ],
      "name": "setEnterpriseLoanCollectGracePeriod",
      "outputs": [],
      "stateMutability": "nonpayable",
      "type": "function"
    },
    {
      "inputs": [
        {
          "internalType": "address",
          "name": "newVault",
          "type": "address"
        }
      ],
      "name": "setEnterpriseVault",
      "outputs": [],
      "stateMutability": "nonpayable",
      "type": "function"
    },
    {
      "inputs": [
        {
          "internalType": "contract IEstimator",
          "name": "newEstimator",
          "type": "address"
        }
      ],
      "name": "setEstimator",
      "outputs": [],
      "stateMutability": "nonpayable",
      "type": "function"
    },
    {
      "inputs": [
        {
          "internalType": "uint16",
          "name": "newGcFeePercent",
          "type": "uint16"
        }
      ],
      "name": "setGcFeePercent",
      "outputs": [],
      "stateMutability": "nonpayable",
      "type": "function"
    },
    {
      "inputs": [
        {
          "internalType": "uint32",
          "name": "interestHalfLife",
          "type": "uint32"
        }
      ],
      "name": "setInterestHalfLife",
      "outputs": [],
      "stateMutability": "nonpayable",
      "type": "function"
    },
    {
      "inputs": [
        {
          "internalType": "contract IPowerToken",
          "name": "powerToken",
          "type": "address"
        },
        {
          "internalType": "uint112",
          "name": "baseRate",
          "type": "uint112"
        },
        {
          "internalType": "contract IERC20Metadata",
          "name": "baseToken",
          "type": "address"
        },
        {
          "internalType": "uint96",
          "name": "minGCFee",
          "type": "uint96"
        }
      ],
      "name": "setServiceBaseRate",
      "outputs": [],
      "stateMutability": "nonpayable",
      "type": "function"
    },
    {
      "inputs": [
        {
          "internalType": "contract IPowerToken",
          "name": "powerToken",
          "type": "address"
        },
        {
          "internalType": "uint16",
          "name": "newServiceFeePercent",
          "type": "uint16"
        }
      ],
      "name": "setServiceFeePercent",
      "outputs": [],
      "stateMutability": "nonpayable",
      "type": "function"
    },
    {
      "inputs": [
        {
          "internalType": "contract IPowerToken[]",
          "name": "powerToken",
          "type": "address[]"
        },
        {
          "internalType": "uint16[]",
          "name": "newServiceFeePercent",
          "type": "uint16[]"
        }
      ],
      "name": "setServiceFeePercentBatch",
      "outputs": [],
      "stateMutability": "nonpayable",
      "type": "function"
    },
    {
      "inputs": [
        {
          "internalType": "contract IPowerToken",
          "name": "powerToken",
          "type": "address"
        },
        {
          "internalType": "uint32",
          "name": "minLoanDuration",
          "type": "uint32"
        },
        {
          "internalType": "uint32",
          "name": "maxLoanDuration",
          "type": "uint32"
        }
      ],
      "name": "setServiceLoanDurationLimits",
      "outputs": [],
      "stateMutability": "nonpayable",
      "type": "function"
    },
    {
      "inputs": [
        {
          "internalType": "address",
          "name": "newOwner",
          "type": "address"
        }
      ],
      "name": "transferOwnership",
      "outputs": [],
      "stateMutability": "nonpayable",
      "type": "function"
    }
  ],
  "bytecode": "0x608060405234801561001057600080fd5b506131bb806100206000396000f3fe608060405234801561001057600080fd5b50600436106103835760003560e01c80638da5cb5b116101de578063bfd84fb41161010f578063e36eca0c116100ad578063f4e28f9a1161007c578063f4e28f9a14610a02578063f54133bb14610a3b578063fbac9a5514610a4e578063fcb2884e14610a7457600080fd5b8063e36eca0c1461096f578063e9028683146109a3578063edc1a628146109dc578063f2fde38b146109ef57600080fd5b8063c93d0b92116100e9578063c93d0b92146108dd578063d1c82007146108ee578063db0ed6a014610927578063df57f2fa1461093a57600080fd5b8063bfd84fb4146108a4578063c20aa9bc146108b7578063c4d66de8146108ca57600080fd5b8063a554b26d1161017c578063b406bf6d11610156578063b406bf6d14610849578063b56de97e1461086b578063b96266fa1461087e578063bf1708801461089357600080fd5b8063a554b26d1461081d578063aebb50411461082e578063b19337a41461083657600080fd5b80639c7aa7f8116101b85780639c7aa7f8146107cf578063a0bcfc7f146107e2578063a0efd118146107f5578063a358426f1461080a57600080fd5b80638da5cb5b146107985780638e9fcf81146107a957806390f55edd146107bc57600080fd5b8063449497ec116102b85780637791c42d116102565780638188d50d116102305780638188d50d1461072957806383b9a0091461073e57806389035b611461074f5780638d6d50c91461076257600080fd5b80637791c42d146106f25780637dcfeb73146107035780637eda9ff81461071657600080fd5b80635a9b0b89116102925780635a9b0b891461069657806362c1f388146106b6578063644e44df146106c957806375417851146106da57600080fd5b8063449497ec1461063e57806353c091241461065157806359bf5d391461068057600080fd5b80632261b07f116103255780632e365ade116102ff5780632e365ade146105b15780632fb2067f146105c45780633184fc6414610605578063375921481461061857600080fd5b80632261b07f1461051f5780632457056e146105305780632b39a0ac1461057a57600080fd5b80630e101b60116103615780630e101b60146104c45780630ea1dc9e146104d757806311eec529146104e857806315a52302146104fd57600080fd5b806304196058146103885780630714012c146103b85780630cac36b2146104af575b600080fd5b61039b610396366004612a6f565b610a7c565b6040516001600160a01b0390911681526020015b60405180910390f35b6104a26103c6366004612a6f565b6040805161010081018252600080825260208201819052918101829052606081018290526080810182905260a0810182905260c0810182905260e08101919091525060009081526011602090815260409182902082516101008101845281546001600160701b038082168352600160701b80830461ffff90811696850196909652600160801b830463ffffffff90811697850197909752600160a01b830487166060850152600160c01b830487166080850152600160e01b90920490951660a083015260019092015493841660c082015292041660e082015290565b6040516103af9190612e56565b6104b7610aba565b6040516103af9190612cdb565b61039b6104d2366004612a6f565b610b4c565b6002546001600160a01b031661039b565b6104fb6104f6366004612755565b610b6f565b005b61051061050b3660046126d7565b610cd2565b6040516103af93929190612cee565b6006546001600160a01b031661039b565b61056261053e3660046126d7565b6001600160a01b03166000908152601360205260409020546001600160701b031690565b6040516001600160701b0390911681526020016103af565b6105626105883660046126d7565b6001600160a01b0316600090815260136020526040902060010154600160e01b900461ffff1690565b6104fb6105bf366004612a87565b610e8d565b6105f56105d23660046126d7565b6001600160a01b0316600090815260096020526040812054600190810b900b1390565b60405190151581526020016103af565b6104fb6106133660046126fa565b610f37565b600454600160a01b900463ffffffff165b60405163ffffffff90911681526020016103af565b6104fb61064c366004612a55565b610fdf565b61039b61065f3660046126d7565b6001600160a01b039081166000908152601360205260409020600101541690565b61068861102b565b6040519081526020016103af565b61069e611050565b6040516103af9c9b9a99989796959493929190612d26565b6104fb6106c43660046126d7565b611213565b6001546001600160a01b031661039b565b6106e2611285565b6040516103af9493929190612bd6565b6008546001600160a01b031661039b565b6104fb6107113660046127be565b61153a565b6104fb6107243660046126d7565b61163d565b600854600160a01b900463ffffffff16610629565b6004546001600160a01b031661039b565b6105f561075d3660046126d7565b6116af565b6106296107703660046126d7565b6001600160a01b0316600090815260136020526040902054600160d01b900463ffffffff1690565b6000546001600160a01b031661039b565b6104fb6107b7366004612883565b6116d9565b6104fb6107ca3660046126d7565b6117d5565b6104fb6107dd3660046126d7565b611847565b6104fb6107f03660046128c7565b61187d565b600854600160c01b900463ffffffff16610629565b6105f5610818366004612858565b6118b8565b6007546001600160a01b031661039b565b610688611911565b6104fb6108443660046126d7565b611928565b600854600160e01b900461ffff165b60405161ffff90911681526020016103af565b6104fb610879366004612a87565b61199a565b610886611a43565b6040516103af9190612c8e565b6005546001600160a01b031661039b565b6104fb6108b23660046126d7565b611aa4565b6104fb6108c5366004612824565b611afd565b6104fb6108d83660046126d7565b611b57565b6003546001600160a01b031661039b565b6106296108fc3660046126d7565b6001600160a01b0316600090815260136020526040902060010154600160a01b900463ffffffff1690565b6104fb61093536600461297f565b611c77565b61094d610948366004612a6f565b611d79565b60408051825181526020808401519082015291810151908201526060016103af565b61085861097d3660046126d7565b6001600160a01b0316600090815260136020526040902054600160f01b900461ffff1690565b6105626109b13660046126d7565b6001600160a01b0316600090815260136020526040902054600160701b90046001600160601b031690565b6104fb6109ea366004612a87565b611dd6565b6104fb6109fd3660046126d7565b611e70565b610629610a103660046126d7565b6001600160a01b0316600090815260136020526040902060010154600160c01b900463ffffffff1690565b6104fb610a493660046126d7565b611f5a565b610a61610a5c3660046126d7565b61205a565b60405160019190910b81526020016103af565b600d54610688565b600060148281548110610a9f57634e487b7160e01b600052603260045260246000fd5b6000918252602090912001546001600160a01b031692915050565b6060600b8054610ac990613095565b80601f0160208091040260200160405190810160405280929190818152602001828054610af590613095565b8015610b425780601f10610b1757610100808354040283529160200191610b42565b820191906000526020600020905b815481529060010190602001808311610b2557829003601f168201915b5050505050905090565b6000600a8281548110610a9f57634e487b7160e01b600052603260045260246000fd5b6000546001600160a01b03163314610ba25760405162461bcd60e51b8152600401610b9990612df5565b60405180910390fd5b828114610be85760405162461bcd60e51b8152602060048201526014602482015273092dcecc2d8d2c840c2e4e4c2f240d8cadccee8d60631b6044820152606401610b99565b60005b83811015610ccb57610c2b858583818110610c1657634e487b7160e01b600052603260045260246000fd5b905060200201602081019061075d91906126d7565b610c475760405162461bcd60e51b8152600401610b9990612e2a565b610cb9858583818110610c6a57634e487b7160e01b600052603260045260246000fd5b9050602002016020810190610c7f91906126d7565b848484818110610c9f57634e487b7160e01b600052603260045260246000fd5b9050602002016020810190610cb49190612a55565b612087565b80610cc3816130d0565b915050610beb565b5050505050565b606080610cdd6124be565b836001600160a01b03166306fdde036040518163ffffffff1660e01b815260040160006040518083038186803b158015610d1657600080fd5b505afa158015610d2a573d6000803e3d6000fd5b505050506040513d6000823e601f3d908101601f19168201604052610d529190810190612907565b846001600160a01b03166395d89b416040518163ffffffff1660e01b815260040160006040518083038186803b158015610d8b57600080fd5b505afa158015610d9f573d6000803e3d6000fd5b505050506040513d6000823e601f3d908101601f19168201604052610dc79190810190612907565b6001600160a01b0395861660009081526013602090815260409182902082516101208101845281546001600160701b0381168252600160701b81046001600160601b031693820193909352600160d01b830463ffffffff90811694820194909452600160f01b9283900461ffff9081166060830152600190920154998a166080820152600160a01b8a04841660a0820152600160c01b8a0490931660c0840152600160e01b89041660e083015290960460ff161515610100870152909590949350915050565b6000546001600160a01b03163314610eb75760405162461bcd60e51b8152600401610b9990612df5565b60085463ffffffff600160c01b90910481169082161115610f115760405162461bcd60e51b8152602060048201526014602482015273125b9d985b1a590819dc9858d9481c195c9a5bd960621b6044820152606401610b99565b6008805463ffffffff909216600160a01b0263ffffffff60a01b19909216919091179055565b6004546001600160a01b031615610f865760405162461bcd60e51b8152602060048201526013602482015272105b1c9958591e481a5b9a5d1a585b1a5e9959606a1b6044820152606401610b99565b600480546001600160a01b038087166001600160a01b03199283161790925560018054868416908316179055600280548584169083161790556003805492841692909116919091179055610fd983612127565b50505050565b6000546001600160a01b031633146110095760405162461bcd60e51b8152600401610b9990612df5565b6008805461ffff909216600160e01b0261ffff60e01b19909216919091179055565b600061103561223e565b6001600160701b0316600c5461104b9190612f5a565b905090565b600f54600454600854600c54600d54600e546010805460609788976000978897889788978897889788978897889788979496600b96939563ffffffff600160a01b94859004811696948404811695600160c01b850482169561ffff600160e01b9687900416959394936001600160701b0380841694600160701b8504909116939190910416908c906110e190613095565b80601f016020809104026020016040519081016040528092919081815260200182805461110d90613095565b801561115a5780601f1061112f5761010080835404028352916020019161115a565b820191906000526020600020905b81548152906001019060200180831161113d57829003601f168201915b50505050509b508a805461116d90613095565b80601f016020809104026020016040519081016040528092919081815260200182805461119990613095565b80156111e65780601f106111bb576101008083540402835291602001916111e6565b820191906000526020600020905b8154815290600101906020018083116111c957829003601f168201915b50505050509a509b509b509b509b509b509b509b509b509b509b509b509b50909192939495969798999a9b565b6000546001600160a01b0316331461123d5760405162461bcd60e51b8152600401610b9990612df5565b6001600160a01b0381166112635760405162461bcd60e51b8152600401610b9990612dcf565b600780546001600160a01b0319166001600160a01b0392909216919091179055565b6014546060908190819081908067ffffffffffffffff8111156112b857634e487b7160e01b600052604160045260246000fd5b6040519080825280602002602001820160405280156112e1578160200160208202803683370190505b5094508067ffffffffffffffff81111561130b57634e487b7160e01b600052604160045260246000fd5b60405190808252806020026020018201604052801561133e57816020015b60608152602001906001900390816113295790505b5093508067ffffffffffffffff81111561136857634e487b7160e01b600052604160045260246000fd5b60405190808252806020026020018201604052801561139b57816020015b60608152602001906001900390816113865790505b5092508067ffffffffffffffff8111156113c557634e487b7160e01b600052604160045260246000fd5b6040519080825280602002602001820160405280156113fe57816020015b6113eb6124be565b8152602001906001900390816113e35790505b50915060005b818110156115325760006014828154811061142f57634e487b7160e01b600052603260045260246000fd5b60009182526020822001546001600160a01b03169150808061145084610cd2565b925092509250838a868151811061147757634e487b7160e01b600052603260045260246000fd5b60200260200101906001600160a01b031690816001600160a01b031681525050828986815181106114b857634e487b7160e01b600052603260045260246000fd5b6020026020010181905250818886815181106114e457634e487b7160e01b600052603260045260246000fd5b60200260200101819052508087868151811061151057634e487b7160e01b600052603260045260246000fd5b602002602001018190525050505050808061152a906130d0565b915050611404565b505090919293565b6000546001600160a01b031633146115645760405162461bcd60e51b8152600401610b9990612df5565b8361156e816116af565b61158a5760405162461bcd60e51b8152600401610b9990612e2a565b6001600160a01b0383166115d55760405162461bcd60e51b815260206004820152601260248201527124b73b30b634b2102130b9b2902a37b5b2b760711b6044820152606401610b99565b506001600160a01b0393841660009081526013602052604090208054600182018054949096166001600160a01b0319909416939093179094556001600160601b0316600160701b026001600160d01b03199091166001600160701b0390921691909117179055565b6000546001600160a01b031633146116675760405162461bcd60e51b8152600401610b9990612df5565b6001600160a01b03811661168d5760405162461bcd60e51b8152600401610b9990612dcf565b600580546001600160a01b0319166001600160a01b0392909216919091179055565b6001600160a01b0316600090815260136020526040902054600160d01b900463ffffffff16151590565b6000546001600160a01b031633146117035760405162461bcd60e51b8152600401610b9990612df5565b8261170d816116af565b6117295760405162461bcd60e51b8152600401610b9990612e2a565b8163ffffffff168363ffffffff1611156117795760405162461bcd60e51b8152602060048201526011602482015270496e76616c6964206475726174696f6e7360781b6044820152606401610b99565b506001600160a01b03929092166000908152601360205260409020600101805467ffffffffffffffff60a01b1916600160a01b63ffffffff9384160263ffffffff60c01b191617600160c01b9290931691909102919091179055565b6000546001600160a01b031633146117ff5760405162461bcd60e51b8152600401610b9990612df5565b6001600160a01b0381166118255760405162461bcd60e51b8152600401610b9990612dcf565b600880546001600160a01b0319166001600160a01b0392909216919091179055565b6000546001600160a01b031633146118715760405162461bcd60e51b8152600401610b9990612df5565b61187a816122a6565b50565b6000546001600160a01b031633146118a75760405162461bcd60e51b8152600401610b9990612df5565b6118b3600b838361250a565b505050565b6001600160a01b0382166000908152601360205260408120600181015463ffffffff808516600160a01b90920416118015906119095750600181015463ffffffff600160c01b909104811690841611155b949350505050565b6000600d5461191e61102b565b61104b9190613035565b6000546001600160a01b031633146119525760405162461bcd60e51b8152600401610b9990612df5565b6001600160a01b0381166119785760405162461bcd60e51b8152600401610b9990612dcf565b600680546001600160a01b0319166001600160a01b0392909216919091179055565b6000546001600160a01b031633146119c45760405162461bcd60e51b8152600401610b9990612df5565b60085463ffffffff808316600160a01b909204161115611a1d5760405162461bcd60e51b8152602060048201526014602482015273125b9d985b1a590819dc9858d9481c195c9a5bd960621b6044820152606401610b99565b6008805463ffffffff909216600160c01b0263ffffffff60c01b19909216919091179055565b60606014805480602002602001604051908101604052809291908181526020018280548015610b4257602002820191906000526020600020905b81546001600160a01b03168152600190910190602001808311611a7d575050505050905090565b6000546001600160a01b03163314611ace5760405162461bcd60e51b8152600401610b9990612df5565b6001600160a01b038116611af45760405162461bcd60e51b8152600401610b9990612dcf565b61187a81612127565b6000546001600160a01b03163314611b275760405162461bcd60e51b8152600401610b9990612df5565b81611b31816116af565b611b4d5760405162461bcd60e51b8152600401610b9990612e2a565b6118b38383612087565b6000546001600160a01b031615611bc25760405162461bcd60e51b815260206004820152602960248201527f496e697469616c697a61626c654f776e61626c653a20616c726561647920696e6044820152681a5d1a585b1a5e995960ba1b6064820152608401610b99565b6001600160a01b038116611c2c5760405162461bcd60e51b815260206004820152602b60248201527f496e697469616c697a61626c654f776e61626c653a20696e76616c696420696e60448201526a34ba34b0b61037bbb732b960a91b6064820152608401610b99565b600080546001600160a01b0319166001600160a01b03831690811782556040519091907f8be0079c531659141344cd1fd0a4f28419497f9722a3daafe3b4186f6b6457e0908290a350565b60108054611c8490613095565b159050611cc95760405162461bcd60e51b8152602060048201526013602482015272105b1c9958591e481a5b9a5d1a585b1a5e9959606a1b6044820152606401610b99565b611cd281611b57565b8551611ce590601090602089019061258e565b50611cf2600b868661250a565b50600580546001600160a01b03199081166001600160a01b0395861617909155600680548216938516939093179092556008805460078054939095169290931682179093556004805463ffffffff60a01b191660e160a61b1790556001600160c01b0319909116176102a360a61b1763ffffffff60c01b19166102a360c71b179055505050565b611d9d60405180606001604052806000815260200160008152602001600081525090565b50600090815260126020908152604091829020825160608101845281548152600182015492810192909252600201549181019190915290565b6000546001600160a01b03163314611e005760405162461bcd60e51b8152600401610b9990612df5565b60008163ffffffff1611611e4a5760405162461bcd60e51b8152602060048201526011602482015270496e76616c69642068616c66206c69666560781b6044820152606401610b99565b6004805463ffffffff909216600160a01b0263ffffffff60a01b19909216919091179055565b6000546001600160a01b03163314611e9a5760405162461bcd60e51b8152600401610b9990612df5565b6001600160a01b038116611eff5760405162461bcd60e51b815260206004820152602660248201527f4f776e61626c653a206e6577206f776e657220697320746865207a65726f206160448201526564647265737360d01b6064820152608401610b99565b600080546040516001600160a01b03808516939216917f8be0079c531659141344cd1fd0a4f28419497f9722a3daafe3b4186f6b6457e091a3600080546001600160a01b0319166001600160a01b0392909216919091179055565b6000546001600160a01b03163314611f845760405162461bcd60e51b8152600401610b9990612df5565b80611f8e816116af565b611faa5760405162461bcd60e51b8152600401610b9990612e2a565b6001600160a01b038216600090815260136020526040902060010154600160f01b900460ff161561202c5760405162461bcd60e51b815260206004820152602660248201527f50657270657475616c20506f77657220546f6b656e7320616c726561647920616044820152651b1b1bddd95960d21b6064820152608401610b99565b506001600160a01b03166000908152601360205260409020600101805460ff60f01b1916600160f01b179055565b6001600160a01b03811660009081526009602052604081205461208190600190810b612fc8565b92915050565b61138861ffff821611156120eb5760405162461bcd60e51b815260206004820152602560248201527f4d6178696d756d2073657276696365206665652070657263656e7420746872656044820152641cda1bdb1960da1b6064820152608401610b99565b6001600160a01b039091166000908152601360205260409020600101805461ffff909216600160e01b0261ffff60e01b19909216919091179055565b6001600160a01b038116600090815260096020526040902054600190810b900b6121bf57600a8054600180820183557fc65a7bb8d6351c1cf70c95a316cc6a92839c986682d98bc35f958f4883f9d2a890910180546001600160a01b0319166001600160a01b039490941693841790559054600092835260096020526040909220805461ffff191661ffff9390920b92909216179055565b6001600160a01b038116600090815260096020526040812054600190810b900b121561187a576001600160a01b03811660009081526009602052604090205461220a9060010b61310e565b6001600160a01b0382166000908152600960205260409020805460019290920b61ffff1661ffff1990921691909117905550565b600e546000906122899063ffffffff600160e01b82041690612273906001600160701b0380821691600160701b90041661300d565b600454600160a01b900463ffffffff164261234d565b600e5461104b9190600160701b90046001600160701b031661300d565b6001600160a01b038116600090815260096020526040902054600190810b900b6123025760405162461bcd60e51b815260206004820152600d60248201526c24b73b30b634b2103a37b5b2b760991b6044820152606401610b99565b6001600160a01b038116600090815260096020526040812054600190810b900b131561187a576001600160a01b03811660009081526009602052604090205461220a9060010b61310e565b60008463ffffffff168263ffffffff16101561239c5760405162461bcd60e51b815260206004820152600e60248201526d125b9d985b1a59081c195c9a5bd960921b6044820152606401610b99565b6123a6858361304c565b91506123b28383612f86565b63ffffffff16846001600160701b0316901c935082826123d291906130eb565b915063ffffffff821615806123ee57506001600160701b038416155b156123fa575082611909565b60006001600160701b0385168163ffffffff8087169061242e90871671b17217f7d1cf79abc9e3b39803f2f6af40f3612fa9565b6124389190612f72565b9050600160901b5b82156124b1576124508385612f5a565b93508061245d8385612fa9565b6124679190612f72565b9250612477600160901b82612f5a565b90506124838385613035565b9350806124908385612fa9565b61249a9190612f72565b92506124aa600160901b82612f5a565b9050612440565b5091979650505050505050565b6040805161012081018252600080825260208201819052918101829052606081018290526080810182905260a0810182905260c0810182905260e0810182905261010081019190915290565b82805461251690613095565b90600052602060002090601f016020900481019282612538576000855561257e565b82601f106125515782800160ff1982351617855561257e565b8280016001018555821561257e579182015b8281111561257e578235825591602001919060010190612563565b5061258a929150612602565b5090565b82805461259a90613095565b90600052602060002090601f0160209004810192826125bc576000855561257e565b82601f106125d557805160ff191683800117855561257e565b8280016001018555821561257e579182015b8281111561257e5782518255916020019190600101906125e7565b5b8082111561258a5760008155600101612603565b803561262281613170565b919050565b60008083601f840112612638578081fd5b50813567ffffffffffffffff81111561264f578182fd5b6020830191508360208260051b850101111561266a57600080fd5b9250929050565b60008083601f840112612682578182fd5b50813567ffffffffffffffff811115612699578182fd5b60208301915083602082850101111561266a57600080fd5b803561ffff8116811461262257600080fd5b803563ffffffff8116811461262257600080fd5b6000602082840312156126e8578081fd5b81356126f381613170565b9392505050565b6000806000806080858703121561270f578283fd5b843561271a81613170565b9350602085013561272a81613170565b9250604085013561273a81613170565b9150606085013561274a81613170565b939692955090935050565b6000806000806040858703121561276a578384fd5b843567ffffffffffffffff80821115612781578586fd5b61278d88838901612627565b909650945060208701359150808211156127a5578384fd5b506127b287828801612627565b95989497509550505050565b600080600080608085870312156127d3578384fd5b84356127de81613170565b935060208501356001600160701b03811681146127f9578384fd5b9250604085013561280981613170565b915060608501356001600160601b038116811461274a578182fd5b60008060408385031215612836578182fd5b823561284181613170565b915061284f602084016126b1565b90509250929050565b6000806040838503121561286a578182fd5b823561287581613170565b915061284f602084016126c3565b600080600060608486031215612897578081fd5b83356128a281613170565b92506128b0602085016126c3565b91506128be604085016126c3565b90509250925092565b600080602083850312156128d9578182fd5b823567ffffffffffffffff8111156128ef578283fd5b6128fb85828601612671565b90969095509350505050565b600060208284031215612918578081fd5b815167ffffffffffffffff81111561292e578182fd5b8201601f8101841361293e578182fd5b805161295161294c82612f32565b612f01565b818152856020838501011115612965578384fd5b612976826020830160208601613069565b95945050505050565b60008060008060008060a08789031215612997578384fd5b863567ffffffffffffffff808211156129ae578586fd5b818901915089601f8301126129c1578586fd5b81356129cf61294c82612f32565b8181528b60208386010111156129e3578788fd5b81602085016020830137876020838301015280995050506020890135915080821115612a0d578586fd5b50612a1a89828a01612671565b9096509450612a2d905060408801612617565b9250612a3b60608801612617565b9150612a4960808801612617565b90509295509295509295565b600060208284031215612a66578081fd5b6126f3826126b1565b600060208284031215612a80578081fd5b5035919050565b600060208284031215612a98578081fd5b6126f3826126c3565b600081518084526020808501808196508360051b81019150828601855b858110156124b1578284038952612ad6848351612ae8565b98850198935090840190600101612abe565b60008151808452612b00816020860160208601613069565b601f01601f19169290920160200192915050565b6001600160701b0381511682526001600160601b0360208201511660208301526040810151612b4b604084018263ffffffff169052565b506060810151612b61606084018261ffff169052565b506080810151612b7c60808401826001600160a01b03169052565b5060a0810151612b9460a084018263ffffffff169052565b5060c0810151612bac60c084018263ffffffff169052565b5060e0810151612bc260e084018261ffff169052565b506101008181015180151584830152610fd9565b6080808252855190820181905260009060209060a0840190828901845b82811015612c185781516001600160a01b031684529284019290840190600101612bf3565b50505083810382850152612c2c8188612aa1565b90508381036040850152612c408187612aa1565b84810360608601528551808252838701925090830190845b81811015612c7f57612c6b838551612b14565b928401926101209290920191600101612c58565b50909998505050505050505050565b6020808252825182820181905260009190848201906040850190845b81811015612ccf5783516001600160a01b031683529284019291840191600101612caa565b50909695505050505050565b6020815260006126f36020830184612ae8565b6000610160808352612d0281840187612ae8565b90508281036020840152612d168186612ae8565b9150506119096040830184612b14565b61018081526000612d3b61018083018f612ae8565b8281036020840152612d4d818f612ae8565b9150508b604083015263ffffffff808c166060840152808b166080840152808a1660a08401525061ffff881660c08301528660e0830152856101008301526001600160701b038516610120830152612db16101408301856001600160701b03169052565b63ffffffff83166101608301529d9c50505050505050505050505050565b6020808252600c908201526b5a65726f206164647265737360a01b604082015260600190565b6020808252818101527f4f776e61626c653a2063616c6c6572206973206e6f7420746865206f776e6572604082015260600190565b6020808252601290820152712ab735b737bbb7102837bbb2b92a37b5b2b760711b604082015260600190565b6000610100820190506001600160701b03835116825261ffff6020840151166020830152604083015163ffffffff808216604085015280606086015116606085015250506080830151612eb1608084018263ffffffff169052565b5060a0830151612ec960a084018263ffffffff169052565b5060c0830151612ee460c08401826001600160701b03169052565b5060e0830151612efa60e084018261ffff169052565b5092915050565b604051601f8201601f1916810167ffffffffffffffff81118282101715612f2a57612f2a61315a565b604052919050565b600067ffffffffffffffff821115612f4c57612f4c61315a565b50601f01601f191660200190565b60008219821115612f6d57612f6d61312e565b500190565b600082612f8157612f81613144565b500490565b600063ffffffff80841680612f9d57612f9d613144565b92169190910492915050565b6000816000190483118215151615612fc357612fc361312e565b500290565b60008160010b8360010b82811281617fff1901831281151615612fed57612fed61312e565b81617fff0183138116156130035761300361312e565b5090039392505050565b60006001600160701b038381169083168181101561302d5761302d61312e565b039392505050565b6000828210156130475761304761312e565b500390565b600063ffffffff8381169083168181101561302d5761302d61312e565b60005b8381101561308457818101518382015260200161306c565b83811115610fd95750506000910152565b600181811c908216806130a957607f821691505b602082108114156130ca57634e487b7160e01b600052602260045260246000fd5b50919050565b60006000198214156130e4576130e461312e565b5060010190565b600063ffffffff8084168061310257613102613144565b92169190910692915050565b60008160010b617fff198114156131275761312761312e565b9003919050565b634e487b7160e01b600052601160045260246000fd5b634e487b7160e01b600052601260045260246000fd5b634e487b7160e01b600052604160045260246000fd5b6001600160a01b038116811461187a57600080fdfea2646970667358221220958172c6148a533229144be0926d2957289eb534570606d4e3380c8bbd86affb64736f6c63430008040033",
  "linkReferences": {},
  "deployedLinkReferences": {}
}