{
  "_format": "hh-sol-artifact-1",
  "contractName": "EnterpriseStorage",
  "sourceName": "contracts/EnterpriseStorage.sol",
  "abi": [
    {
      "anonymous": false,
      "inputs": [
        {
          "indexed": true,
          "internalType": "address",
          "name": "previousOwner",
          "type": "address"
        },
        {
          "indexed": true,
          "internalType": "address",
          "name": "newOwner",
          "type": "address"
        }
      ],
      "name": "OwnershipTransferred",
      "type": "event"
    },
    {
      "inputs": [
        {
          "internalType": "contract IPowerToken",
          "name": "powerToken",
          "type": "address"
        }
      ],
      "name": "allowPerpetualPowerTokenForever",
      "outputs": [],
      "stateMutability": "nonpayable",
      "type": "function"
    },
    {
      "inputs": [
        {
          "internalType": "address",
          "name": "token",
          "type": "address"
        }
      ],
      "name": "disablePaymentToken",
      "outputs": [],
      "stateMutability": "nonpayable",
      "type": "function"
    },
    {
      "inputs": [
        {
          "internalType": "address",
          "name": "token",
          "type": "address"
        }
      ],
      "name": "enablePaymentToken",
      "outputs": [],
      "stateMutability": "nonpayable",
      "type": "function"
    },
    {
      "inputs": [],
      "name": "getAvailableReserve",
      "outputs": [
        {
          "internalType": "uint256",
          "name": "",
          "type": "uint256"
        }
      ],
      "stateMutability": "view",
      "type": "function"
    },
    {
      "inputs": [],
      "name": "getBaseUri",
      "outputs": [
        {
          "internalType": "string",
          "name": "",
          "type": "string"
        }
      ],
      "stateMutability": "view",
      "type": "function"
    },
    {
      "inputs": [],
      "name": "getBorrowToken",
      "outputs": [
        {
          "internalType": "contract IBorrowToken",
          "name": "",
          "type": "address"
        }
      ],
      "stateMutability": "view",
      "type": "function"
    },
    {
      "inputs": [],
      "name": "getBorrowerLoanReturnGracePeriod",
      "outputs": [
        {
          "internalType": "uint32",
          "name": "",
          "type": "uint32"
        }
      ],
      "stateMutability": "view",
      "type": "function"
    },
    {
      "inputs": [],
      "name": "getConverter",
      "outputs": [
        {
          "internalType": "contract IConverter",
          "name": "",
          "type": "address"
        }
      ],
      "stateMutability": "view",
      "type": "function"
    },
    {
      "inputs": [],
      "name": "getEnterpriseCollector",
      "outputs": [
        {
          "internalType": "address",
          "name": "",
          "type": "address"
        }
      ],
      "stateMutability": "view",
      "type": "function"
    },
    {
      "inputs": [],
      "name": "getEnterpriseLoanCollectGracePeriod",
      "outputs": [
        {
          "internalType": "uint32",
          "name": "",
          "type": "uint32"
        }
      ],
      "stateMutability": "view",
      "type": "function"
    },
    {
      "inputs": [],
      "name": "getEnterpriseVault",
      "outputs": [
        {
          "internalType": "address",
          "name": "",
          "type": "address"
        }
      ],
      "stateMutability": "view",
      "type": "function"
    },
    {
      "inputs": [],
      "name": "getEstimator",
      "outputs": [
        {
          "internalType": "contract IEstimator",
          "name": "",
          "type": "address"
        }
      ],
      "stateMutability": "view",
      "type": "function"
    },
    {
      "inputs": [],
      "name": "getGCFeePercent",
      "outputs": [
        {
          "internalType": "uint16",
          "name": "",
          "type": "uint16"
        }
      ],
      "stateMutability": "view",
      "type": "function"
    },
    {
      "inputs": [],
      "name": "getInfo",
      "outputs": [
        {
          "internalType": "string",
          "name": "name",
          "type": "string"
        },
        {
          "internalType": "string",
          "name": "baseUri",
          "type": "string"
        },
        {
          "internalType": "uint256",
          "name": "totalShares",
          "type": "uint256"
        },
        {
          "internalType": "uint32",
          "name": "interestHalfLife",
          "type": "uint32"
        },
        {
          "internalType": "uint32",
          "name": "borrowerLoanReturnGracePeriod",
          "type": "uint32"
        },
        {
          "internalType": "uint32",
          "name": "enterpriseLoanCollectGracePeriod",
          "type": "uint32"
        },
        {
          "internalType": "uint16",
          "name": "gcFeePercent",
          "type": "uint16"
        },
        {
          "internalType": "uint256",
          "name": "fixedReserve",
          "type": "uint256"
        },
        {
          "internalType": "uint256",
          "name": "usedReserve",
          "type": "uint256"
        },
        {
          "internalType": "uint112",
          "name": "streamingReserve",
          "type": "uint112"
        },
        {
          "internalType": "uint112",
          "name": "streamingReserveTarget",
          "type": "uint112"
        },
        {
          "internalType": "uint32",
          "name": "streamingReserveUpdated",
          "type": "uint32"
        }
      ],
      "stateMutability": "view",
      "type": "function"
    },
    {
      "inputs": [],
      "name": "getInterestHalfLife",
      "outputs": [
        {
          "internalType": "uint32",
          "name": "",
          "type": "uint32"
        }
      ],
      "stateMutability": "view",
      "type": "function"
    },
    {
      "inputs": [],
      "name": "getInterestToken",
      "outputs": [
        {
          "internalType": "contract IInterestToken",
          "name": "",
          "type": "address"
        }
      ],
      "stateMutability": "view",
      "type": "function"
    },
    {
      "inputs": [
        {
          "internalType": "uint256",
          "name": "tokenId",
          "type": "uint256"
        }
      ],
      "name": "getLiquidityInfo",
      "outputs": [
        {
          "components": [
            {
              "internalType": "uint256",
              "name": "amount",
              "type": "uint256"
            },
            {
              "internalType": "uint256",
              "name": "shares",
              "type": "uint256"
            },
            {
              "internalType": "uint256",
              "name": "block",
              "type": "uint256"
            }
          ],
          "internalType": "struct EnterpriseStorage.LiquidityInfo",
          "name": "",
          "type": "tuple"
        }
      ],
      "stateMutability": "view",
      "type": "function"
    },
    {
      "inputs": [],
      "name": "getLiquidityToken",
      "outputs": [
        {
          "internalType": "contract IERC20Metadata",
          "name": "",
          "type": "address"
        }
      ],
      "stateMutability": "view",
      "type": "function"
    },
    {
      "inputs": [
        {
          "internalType": "uint256",
          "name": "tokenId",
          "type": "uint256"
        }
      ],
      "name": "getLoanInfo",
      "outputs": [
        {
          "components": [
            {
              "internalType": "uint112",
              "name": "amount",
              "type": "uint112"
            },
            {
              "internalType": "uint16",
              "name": "powerTokenIndex",
              "type": "uint16"
            },
            {
              "internalType": "uint32",
              "name": "borrowingTime",
              "type": "uint32"
            },
            {
              "internalType": "uint32",
              "name": "maturityTime",
              "type": "uint32"
            },
            {
              "internalType": "uint32",
              "name": "borrowerReturnGraceTime",
              "type": "uint32"
            },
            {
              "internalType": "uint32",
              "name": "enterpriseCollectGraceTime",
              "type": "uint32"
            },
            {
              "internalType": "uint112",
              "name": "gcFee",
              "type": "uint112"
            },
            {
              "internalType": "uint16",
              "name": "gcFeeTokenIndex",
              "type": "uint16"
            }
          ],
          "internalType": "struct EnterpriseStorage.LoanInfo",
          "name": "",
          "type": "tuple"
        }
      ],
      "stateMutability": "view",
      "type": "function"
    },
    {
      "inputs": [
        {
          "internalType": "uint256",
          "name": "index",
          "type": "uint256"
        }
      ],
      "name": "getPowerToken",
      "outputs": [
        {
          "internalType": "contract IPowerToken",
          "name": "",
          "type": "address"
        }
      ],
      "stateMutability": "view",
      "type": "function"
    },
    {
      "inputs": [
        {
          "internalType": "contract IPowerToken",
          "name": "powerToken",
          "type": "address"
        }
      ],
      "name": "getPowerTokenIndex",
      "outputs": [
        {
          "internalType": "uint16",
          "name": "",
          "type": "uint16"
        }
      ],
      "stateMutability": "view",
      "type": "function"
    },
    {
      "inputs": [],
      "name": "getPowerTokens",
      "outputs": [
        {
          "internalType": "contract IPowerToken[]",
          "name": "",
          "type": "address[]"
        }
      ],
      "stateMutability": "view",
      "type": "function"
    },
    {
      "inputs": [],
      "name": "getProxyAdmin",
      "outputs": [
        {
          "internalType": "contract ProxyAdmin",
          "name": "",
          "type": "address"
        }
      ],
      "stateMutability": "view",
      "type": "function"
    },
    {
      "inputs": [],
      "name": "getReserve",
      "outputs": [
        {
          "internalType": "uint256",
          "name": "",
          "type": "uint256"
        }
      ],
      "stateMutability": "view",
      "type": "function"
    },
    {
      "inputs": [
        {
          "internalType": "contract IPowerToken",
          "name": "powerToken",
          "type": "address"
        }
      ],
      "name": "getService",
      "outputs": [
        {
          "internalType": "string",
          "name": "name",
          "type": "string"
        },
        {
          "internalType": "string",
          "name": "symbol",
          "type": "string"
        },
        {
          "components": [
            {
              "internalType": "uint112",
              "name": "baseRate",
              "type": "uint112"
            },
            {
              "internalType": "uint96",
              "name": "minGCFee",
              "type": "uint96"
            },
            {
              "internalType": "uint32",
              "name": "halfLife",
              "type": "uint32"
            },
            {
              "internalType": "uint16",
              "name": "index",
              "type": "uint16"
            },
            {
              "internalType": "contract IERC20Metadata",
              "name": "baseToken",
              "type": "address"
            },
            {
              "internalType": "uint32",
              "name": "minLoanDuration",
              "type": "uint32"
            },
            {
              "internalType": "uint32",
              "name": "maxLoanDuration",
              "type": "uint32"
            },
            {
              "internalType": "uint16",
              "name": "serviceFeePercent",
              "type": "uint16"
            },
            {
              "internalType": "bool",
              "name": "allowsPerpetual",
              "type": "bool"
            }
          ],
          "internalType": "struct EnterpriseStorage.ServiceConfig",
          "name": "config",
          "type": "tuple"
        }
      ],
      "stateMutability": "view",
      "type": "function"
    },
    {
      "inputs": [
        {
          "internalType": "contract IPowerToken",
          "name": "powerToken",
          "type": "address"
        }
      ],
      "name": "getServiceBaseRate",
      "outputs": [
        {
          "internalType": "uint112",
          "name": "",
          "type": "uint112"
        }
      ],
      "stateMutability": "view",
      "type": "function"
    },
    {
      "inputs": [
        {
          "internalType": "contract IPowerToken",
          "name": "powerToken",
          "type": "address"
        }
      ],
      "name": "getServiceBaseToken",
      "outputs": [
        {
          "internalType": "contract IERC20Metadata",
          "name": "",
          "type": "address"
        }
      ],
      "stateMutability": "view",
      "type": "function"
    },
    {
      "inputs": [
        {
          "internalType": "contract IPowerToken",
          "name": "powerToken",
          "type": "address"
        }
      ],
      "name": "getServiceFeePercent",
      "outputs": [
        {
          "internalType": "uint112",
          "name": "",
          "type": "uint112"
        }
      ],
      "stateMutability": "view",
      "type": "function"
    },
    {
      "inputs": [
        {
          "internalType": "contract IPowerToken",
          "name": "powerToken",
          "type": "address"
        }
      ],
      "name": "getServiceHalfLife",
      "outputs": [
        {
          "internalType": "uint32",
          "name": "",
          "type": "uint32"
        }
      ],
      "stateMutability": "view",
      "type": "function"
    },
    {
      "inputs": [
        {
          "internalType": "contract IPowerToken",
          "name": "powerToken",
          "type": "address"
        }
      ],
      "name": "getServiceMaxLoanDuration",
      "outputs": [
        {
          "internalType": "uint32",
          "name": "",
          "type": "uint32"
        }
      ],
      "stateMutability": "view",
      "type": "function"
    },
    {
      "inputs": [
        {
          "internalType": "contract IPowerToken",
          "name": "powerToken",
          "type": "address"
        }
      ],
      "name": "getServiceMinGCFee",
      "outputs": [
        {
          "internalType": "uint112",
          "name": "",
          "type": "uint112"
        }
      ],
      "stateMutability": "view",
      "type": "function"
    },
    {
      "inputs": [
        {
          "internalType": "contract IPowerToken",
          "name": "powerToken",
          "type": "address"
        }
      ],
      "name": "getServiceMinLoanDuration",
      "outputs": [
        {
          "internalType": "uint32",
          "name": "",
          "type": "uint32"
        }
      ],
      "stateMutability": "view",
      "type": "function"
    },
    {
      "inputs": [],
      "name": "getServices",
      "outputs": [
        {
          "internalType": "address[]",
          "name": "addresses",
          "type": "address[]"
        },
        {
          "internalType": "string[]",
          "name": "names",
          "type": "string[]"
        },
        {
          "internalType": "string[]",
          "name": "symbols",
          "type": "string[]"
        },
        {
          "components": [
            {
              "internalType": "uint112",
              "name": "baseRate",
              "type": "uint112"
            },
            {
              "internalType": "uint96",
              "name": "minGCFee",
              "type": "uint96"
            },
            {
              "internalType": "uint32",
              "name": "halfLife",
              "type": "uint32"
            },
            {
              "internalType": "uint16",
              "name": "index",
              "type": "uint16"
            },
            {
              "internalType": "contract IERC20Metadata",
              "name": "baseToken",
              "type": "address"
            },
            {
              "internalType": "uint32",
              "name": "minLoanDuration",
              "type": "uint32"
            },
            {
              "internalType": "uint32",
              "name": "maxLoanDuration",
              "type": "uint32"
            },
            {
              "internalType": "uint16",
              "name": "serviceFeePercent",
              "type": "uint16"
            },
            {
              "internalType": "bool",
              "name": "allowsPerpetual",
              "type": "bool"
            }
          ],
          "internalType": "struct EnterpriseStorage.ServiceConfig[]",
          "name": "configs",
          "type": "tuple[]"
        }
      ],
      "stateMutability": "view",
      "type": "function"
    },
    {
      "inputs": [],
      "name": "getUsedReserve",
      "outputs": [
        {
          "internalType": "uint256",
          "name": "",
          "type": "uint256"
        }
      ],
      "stateMutability": "view",
      "type": "function"
    },
    {
      "inputs": [
        {
          "internalType": "address",
          "name": "initialOwner",
          "type": "address"
        }
      ],
      "name": "initialize",
      "outputs": [],
      "stateMutability": "nonpayable",
      "type": "function"
    },
    {
      "inputs": [
        {
          "internalType": "string",
          "name": "enterpriseName",
          "type": "string"
        },
        {
          "internalType": "string",
          "name": "baseUri",
          "type": "string"
        },
        {
          "internalType": "contract IEstimator",
          "name": "estimator",
          "type": "address"
        },
        {
          "internalType": "contract IConverter",
          "name": "converter",
          "type": "address"
        },
        {
          "internalType": "contract ProxyAdmin",
          "name": "proxyAdmin",
          "type": "address"
        },
        {
          "internalType": "address",
          "name": "owner",
          "type": "address"
        }
      ],
      "name": "initialize",
      "outputs": [],
      "stateMutability": "nonpayable",
      "type": "function"
    },
    {
      "inputs": [
        {
          "internalType": "contract IERC20Metadata",
          "name": "liquidityToken",
          "type": "address"
        },
        {
          "internalType": "contract IInterestToken",
          "name": "interestToken",
          "type": "address"
        },
        {
          "internalType": "contract IBorrowToken",
          "name": "borrowToken",
          "type": "address"
        }
      ],
      "name": "initializeTokens",
      "outputs": [],
      "stateMutability": "nonpayable",
      "type": "function"
    },
    {
      "inputs": [
        {
          "internalType": "contract IPowerToken",
          "name": "powerToken",
          "type": "address"
        }
      ],
      "name": "isRegisteredPowerToken",
      "outputs": [
        {
          "internalType": "bool",
          "name": "",
          "type": "bool"
        }
      ],
      "stateMutability": "view",
      "type": "function"
    },
    {
      "inputs": [
        {
          "internalType": "contract IPowerToken",
          "name": "powerToken",
          "type": "address"
        },
        {
          "internalType": "uint32",
          "name": "duration",
          "type": "uint32"
        }
      ],
      "name": "isServiceAllowedLoanDuration",
      "outputs": [
        {
          "internalType": "bool",
          "name": "",
          "type": "bool"
        }
      ],
      "stateMutability": "view",
      "type": "function"
    },
    {
      "inputs": [
        {
          "internalType": "contract IERC20",
          "name": "token",
          "type": "address"
        }
      ],
      "name": "isSupportedPaymentToken",
      "outputs": [
        {
          "internalType": "bool",
          "name": "",
          "type": "bool"
        }
      ],
      "stateMutability": "view",
      "type": "function"
    },
    {
      "inputs": [],
      "name": "owner",
      "outputs": [
        {
          "internalType": "address",
          "name": "",
          "type": "address"
        }
      ],
      "stateMutability": "view",
      "type": "function"
    },
    {
      "inputs": [
        {
          "internalType": "uint256",
          "name": "index",
          "type": "uint256"
        }
      ],
      "name": "paymentToken",
      "outputs": [
        {
          "internalType": "address",
          "name": "",
          "type": "address"
        }
      ],
      "stateMutability": "view",
      "type": "function"
    },
    {
      "inputs": [
        {
          "internalType": "contract IERC20",
          "name": "token",
          "type": "address"
        }
      ],
      "name": "paymentTokenIndex",
      "outputs": [
        {
          "internalType": "int16",
          "name": "",
          "type": "int16"
        }
      ],
      "stateMutability": "view",
      "type": "function"
    },
    {
      "inputs": [
        {
          "internalType": "string",
          "name": "baseUri",
          "type": "string"
        }
      ],
      "name": "setBaseUri",
      "outputs": [],
      "stateMutability": "nonpayable",
      "type": "function"
    },
    {
      "inputs": [
        {
          "internalType": "uint32",
          "name": "newPeriod",
          "type": "uint32"
        }
      ],
      "name": "setBorrowerLoanReturnGracePeriod",
      "outputs": [],
      "stateMutability": "nonpayable",
      "type": "function"
    },
    {
      "inputs": [
        {
          "internalType": "contract IConverter",
          "name": "newConverter",
          "type": "address"
        }
      ],
      "name": "setConverter",
      "outputs": [],
      "stateMutability": "nonpayable",
      "type": "function"
    },
    {
      "inputs": [
        {
          "internalType": "address",
          "name": "newCollector",
          "type": "address"
        }
      ],
      "name": "setEnterpriseCollector",
      "outputs": [],
      "stateMutability": "nonpayable",
      "type": "function"
    },
    {
      "inputs": [
        {
          "internalType": "uint32",
          "name": "newPeriod",
          "type": "uint32"
        }
      ],
      "name": "setEnterpriseLoanCollectGracePeriod",
      "outputs": [],
      "stateMutability": "nonpayable",
      "type": "function"
    },
    {
      "inputs": [
        {
          "internalType": "address",
          "name": "newVault",
          "type": "address"
        }
      ],
      "name": "setEnterpriseVault",
      "outputs": [],
      "stateMutability": "nonpayable",
      "type": "function"
    },
    {
      "inputs": [
        {
          "internalType": "contract IEstimator",
          "name": "newEstimator",
          "type": "address"
        }
      ],
      "name": "setEstimator",
      "outputs": [],
      "stateMutability": "nonpayable",
      "type": "function"
    },
    {
      "inputs": [
        {
          "internalType": "uint16",
          "name": "newGcFeePercent",
          "type": "uint16"
        }
      ],
      "name": "setGcFeePercent",
      "outputs": [],
      "stateMutability": "nonpayable",
      "type": "function"
    },
    {
      "inputs": [
        {
          "internalType": "uint32",
          "name": "interestHalfLife",
          "type": "uint32"
        }
      ],
      "name": "setInterestHalfLife",
      "outputs": [],
      "stateMutability": "nonpayable",
      "type": "function"
    },
    {
      "inputs": [
        {
          "internalType": "contract IPowerToken",
          "name": "powerToken",
          "type": "address"
        },
        {
          "internalType": "uint112",
          "name": "baseRate",
          "type": "uint112"
        },
        {
          "internalType": "contract IERC20Metadata",
          "name": "baseToken",
          "type": "address"
        },
        {
          "internalType": "uint96",
          "name": "minGCFee",
          "type": "uint96"
        }
      ],
      "name": "setServiceBaseRate",
      "outputs": [],
      "stateMutability": "nonpayable",
      "type": "function"
    },
    {
      "inputs": [
        {
          "internalType": "contract IPowerToken",
          "name": "powerToken",
          "type": "address"
        },
        {
          "internalType": "uint16",
          "name": "newServiceFeePercent",
          "type": "uint16"
        }
      ],
      "name": "setServiceFeePercent",
      "outputs": [],
      "stateMutability": "nonpayable",
      "type": "function"
    },
    {
      "inputs": [
        {
          "internalType": "contract IPowerToken[]",
          "name": "powerToken",
          "type": "address[]"
        },
        {
          "internalType": "uint16[]",
          "name": "newServiceFeePercent",
          "type": "uint16[]"
        }
      ],
      "name": "setServiceFeePercentBatch",
      "outputs": [],
      "stateMutability": "nonpayable",
      "type": "function"
    },
    {
      "inputs": [
        {
          "internalType": "contract IPowerToken",
          "name": "powerToken",
          "type": "address"
        },
        {
          "internalType": "uint32",
          "name": "minLoanDuration",
          "type": "uint32"
        },
        {
          "internalType": "uint32",
          "name": "maxLoanDuration",
          "type": "uint32"
        }
      ],
      "name": "setServiceLoanDurationLimits",
      "outputs": [],
      "stateMutability": "nonpayable",
      "type": "function"
    },
    {
      "inputs": [
        {
          "internalType": "address",
          "name": "newOwner",
          "type": "address"
        }
      ],
      "name": "transferOwnership",
      "outputs": [],
      "stateMutability": "nonpayable",
      "type": "function"
    },
    {
      "inputs": [
        {
          "internalType": "address",
          "name": "implementation",
          "type": "address"
        }
      ],
      "name": "upgradeBorrowToken",
      "outputs": [],
      "stateMutability": "nonpayable",
      "type": "function"
    },
    {
      "inputs": [
        {
          "internalType": "address",
          "name": "implementation",
          "type": "address"
        }
      ],
      "name": "upgradeEnterprise",
      "outputs": [],
      "stateMutability": "nonpayable",
      "type": "function"
    },
    {
      "inputs": [
        {
          "internalType": "address",
          "name": "implementation",
          "type": "address"
        }
      ],
      "name": "upgradeEstimator",
      "outputs": [],
      "stateMutability": "nonpayable",
      "type": "function"
    },
    {
      "inputs": [
        {
          "internalType": "address",
          "name": "implementation",
          "type": "address"
        }
      ],
      "name": "upgradeInterestToken",
      "outputs": [],
      "stateMutability": "nonpayable",
      "type": "function"
    },
    {
      "inputs": [
        {
          "internalType": "contract IPowerToken",
          "name": "powerToken",
          "type": "address"
        },
        {
          "internalType": "address",
          "name": "implementation",
          "type": "address"
        }
      ],
      "name": "upgradePowerToken",
      "outputs": [],
      "stateMutability": "nonpayable",
      "type": "function"
    }
  ],
  "bytecode": "0x608060405234801561001057600080fd5b506136eb806100206000396000f3fe608060405234801561001057600080fd5b50600436106102ca5760003560e01c806304196058146102cf5780630714012c146102ff5780630cac36b2146103f65780630e101b601461040b5780630ea1dc9e1461041e57806311eec5291461042f57806315a52302146104445780631b912384146104665780632261b07f146104795780632457056e1461048a5780632b2f6095146104d45780632b39a0ac146104e75780632e365ade1461051e5780632fb2067f146105315780633759214814610572578063449497ec1461059857806353c09124146105ab57806359bf5d39146105da5780635a9b0b89146105f057806362c1f38814610610578063644e44df1461062357806375417851146106345780637791c42d1461064c5780637b0243631461065d5780637dcfeb73146106705780637eda9ff8146106835780638188d50d1461069657806389035b61146106ab5780638b3240a0146106be5780638d6d50c9146106c65780638da5cb5b146106fc5780638e9fcf811461070457806390f55edd146107175780639c7aa7f81461072a578063a0bcfc7f1461073d578063a0efd11814610750578063a358426f14610765578063a554b26d14610778578063aebb504114610789578063b19337a414610791578063b406bf6d146107a4578063b56de97e146107c6578063b96266fa146107d9578063bf170880146107ee578063bfd84fb4146107ff578063c1fc16d814610812578063c20aa9bc14610825578063c229478414610838578063c4d66de81461084b578063c93d0b921461085e578063d1c820071461086f578063df57f2fa146108a8578063e36eca0c146108dd578063e56f2fe414610911578063e902868314610924578063edc1a6281461095d578063ef1f9f3914610970578063f2fde38b14610983578063f4e28f9a14610996578063f54133bb146109cf578063fbac9a55146109e2578063fcb2884e14610a08575b600080fd5b6102e26102dd366004613075565b610a10565b6040516001600160a01b0390911681526020015b60405180910390f35b6103e961030d366004613075565b6040805161010081018252600080825260208201819052918101829052606081018290526080810182905260a0810182905260c0810182905260e08101919091525060009081526010602090815260409182902082516101008101845281546001600160701b038082168352600160701b80830461ffff90811696850196909652600160801b830463ffffffff90811697850197909752600160a01b830487166060850152600160c01b830487166080850152600160e01b90920490951660a083015260019092015493841660c082015292041660e082015290565b6040516102f691906133ec565b6103fe610a4e565b6040516102f691906132fe565b6102e2610419366004613075565b610ae0565b6001546001600160a01b03166102e2565b61044261043d366004612cc0565b610b03565b005b610457610452366004612c9d565b610c9d565b6040516102f693929190613311565b610442610474366004612c9d565b610e58565b6005546001600160a01b03166102e2565b6104bc610498366004612c9d565b6001600160a01b03166000908152601260205260409020546001600160701b031690565b6040516001600160701b0390911681526020016102f6565b6104426104e2366004612c9d565b610f0d565b6104bc6104f5366004612c9d565b6001600160a01b0316600090815260126020526040902060010154600160e01b900461ffff1690565b61044261052c36600461308d565b610f94565b61056261053f366004612c9d565b6001600160a01b0316600090815260086020526040812054600190810b900b1390565b60405190151581526020016102f6565b600354600160a01b900463ffffffff165b60405163ffffffff90911681526020016102f6565b6104426105a636600461305b565b611055565b6102e26105b9366004612c9d565b6001600160a01b039081166000908152601260205260409020600101541690565b6105e26110c3565b6040519081526020016102f6565b6105f86110e8565b6040516102f69c9b9a99989796959493929190613349565b61044261061e366004612c9d565b6112ab565b6000546001600160a01b03166102e2565b61063c61135a565b6040516102f694939291906131df565b6007546001600160a01b03166102e2565b61044261066b366004612c9d565b61160b565b61044261067e366004612daa565b611692565b610442610691366004612c9d565b6117ca565b600754600160a01b900463ffffffff16610583565b6105626106b9366004612c9d565b611879565b6102e261188a565b6105836106d4366004612c9d565b6001600160a01b0316600090815260126020526040902054600160d01b900463ffffffff1690565b6102e26118ab565b610442610712366004612e7a565b6118c1565b610442610725366004612c9d565b6119f5565b610442610738366004612c9d565b611aa4565b61044261074b366004612ebe565b611afc565b600754600160c01b900463ffffffff16610583565b610562610773366004612e4f565b611b59565b6006546001600160a01b03166102e2565b6105e2611bb2565b61044261079f366004612c9d565b611bc9565b600754600160e01b900461ffff165b60405161ffff90911681526020016102f6565b6104426107d436600461308d565b611c78565b6107e1611d38565b6040516102f69190613297565b6004546001600160a01b03166102e2565b61044261080d366004612c9d565b611d99565b610442610820366004612c9d565b611e2f565b610442610833366004612e1b565b611eb0565b610442610846366004612d72565b611f49565b610442610859366004612c9d565b612044565b6002546001600160a01b03166102e2565b61058361087d366004612c9d565b6001600160a01b0316600090815260126020526040902060010154600160a01b900463ffffffff1690565b6108bb6108b6366004613075565b612119565b60408051825181526020808401519082015291810151908201526060016102f6565b6107b36108eb366004612c9d565b6001600160a01b0316600090815260126020526040902054600160f01b900461ffff1690565b61044261091f366004612f74565b612176565b6104bc610932366004612c9d565b6001600160a01b0316600090815260126020526040902054600160701b90046001600160601b031690565b61044261096b36600461308d565b6122a8565b61044261097e366004612d28565b612358565b610442610991366004612c9d565b6123e2565b6105836109a4366004612c9d565b6001600160a01b0316600090815260126020526040902060010154600160c01b900463ffffffff1690565b6104426109dd366004612c9d565b6124d3565b6109f56109f0366004612c9d565b6125f2565b60405160019190910b81526020016102f6565b600c546105e2565b600060138281548110610a3357634e487b7160e01b600052603260045260246000fd5b6000918252602090912001546001600160a01b031692915050565b6060600a8054610a5d9061359e565b80601f0160208091040260200160405190810160405280929190818152602001828054610a899061359e565b8015610ad65780601f10610aab57610100808354040283529160200191610ad6565b820191906000526020600020905b815481529060010190602001808311610ab957829003601f168201915b5050505050905090565b600060098281548110610a3357634e487b7160e01b600052603260045260246000fd5b33610b0c6118ab565b6001600160a01b031614604051806040016040528060018152602001603360f81b81525090610b575760405162461bcd60e51b8152600401610b4e91906132fe565b60405180910390fd5b506040805180820190915260018152603760f81b6020820152838214610b905760405162461bcd60e51b8152600401610b4e91906132fe565b5060005b83811015610c9657610bd9858583818110610bbf57634e487b7160e01b600052603260045260246000fd5b9050602002016020810190610bd49190612c9d565b612619565b604051806040016040528060018152602001601b60f91b81525090610c115760405162461bcd60e51b8152600401610b4e91906132fe565b50610c84858583818110610c3557634e487b7160e01b600052603260045260246000fd5b9050602002016020810190610c4a9190612c9d565b848484818110610c6a57634e487b7160e01b600052603260045260246000fd5b9050602002016020810190610c7f919061305b565b612643565b80610c8e816135d9565b915050610b94565b5050505050565b606080610ca8612a86565b836001600160a01b03166306fdde036040518163ffffffff1660e01b815260040160006040518083038186803b158015610ce157600080fd5b505afa158015610cf5573d6000803e3d6000fd5b505050506040513d6000823e601f3d908101601f19168201604052610d1d9190810190612efd565b846001600160a01b03166395d89b416040518163ffffffff1660e01b815260040160006040518083038186803b158015610d5657600080fd5b505afa158015610d6a573d6000803e3d6000fd5b505050506040513d6000823e601f3d908101601f19168201604052610d929190810190612efd565b6001600160a01b0395861660009081526012602090815260409182902082516101208101845281546001600160701b0381168252600160701b81046001600160601b031693820193909352600160d01b830463ffffffff90811694820194909452600160f01b9283900461ffff9081166060830152600190920154998a166080820152600160a01b8a04841660a0820152600160c01b8a0490931660c0840152600160e01b89041660e083015290960460ff161515610100870152909590949350915050565b33610e616118ab565b6001600160a01b031614604051806040016040528060018152602001603360f81b81525090610ea35760405162461bcd60e51b8152600401610b4e91906132fe565b50610eac61188a565b6004805460405163266a23b160e21b81526001600160a01b03938416936399a88ec493610edf93909116918691016132e4565b600060405180830381600087803b158015610ef957600080fd5b505af1158015610c96573d6000803e3d6000fd5b33610f166118ab565b6001600160a01b031614604051806040016040528060018152602001603360f81b81525090610f585760405162461bcd60e51b8152600401610b4e91906132fe565b50610f6161188a565b60015460405163266a23b160e21b81526001600160a01b03928316926399a88ec492610edf9291169085906004016132e4565b33610f9d6118ab565b6001600160a01b031614604051806040016040528060018152602001603360f81b81525090610fdf5760405162461bcd60e51b8152600401610b4e91906132fe565b506007546040805180820190915260028152610d8d60f21b60208201529063ffffffff600160c01b9091048116908316111561102e5760405162461bcd60e51b8152600401610b4e91906132fe565b506007805463ffffffff909216600160a01b0263ffffffff60a01b19909216919091179055565b3361105e6118ab565b6001600160a01b031614604051806040016040528060018152602001603360f81b815250906110a05760405162461bcd60e51b8152600401610b4e91906132fe565b506007805461ffff909216600160e01b0261ffff60e01b19909216919091179055565b60006110cd6126c0565b6001600160701b0316600b546110e391906134d6565b905090565b600e54600354600754600b54600c54600d54600f805460609788976000978897889788978897889788978897889788979496600a96939563ffffffff600160a01b94859004811696948404811695600160c01b850482169561ffff600160e01b9687900416959394936001600160701b0380841694600160701b8504909116939190910416908c906111799061359e565b80601f01602080910402602001604051908101604052809291908181526020018280546111a59061359e565b80156111f25780601f106111c7576101008083540402835291602001916111f2565b820191906000526020600020905b8154815290600101906020018083116111d557829003601f168201915b50505050509b508a80546112059061359e565b80601f01602080910402602001604051908101604052809291908181526020018280546112319061359e565b801561127e5780601f106112535761010080835404028352916020019161127e565b820191906000526020600020905b81548152906001019060200180831161126157829003601f168201915b50505050509a509b509b509b509b509b509b509b509b509b509b509b509b50909192939495969798999a9b565b336112b46118ab565b6001600160a01b031614604051806040016040528060018152602001603360f81b815250906112f65760405162461bcd60e51b8152600401610b4e91906132fe565b50604080518082019091526002815261363160f01b60208201526001600160a01b0382166113375760405162461bcd60e51b8152600401610b4e91906132fe565b50600680546001600160a01b0319166001600160a01b0392909216919091179055565b601354606090819081908190806001600160401b0381111561138c57634e487b7160e01b600052604160045260246000fd5b6040519080825280602002602001820160405280156113b5578160200160208202803683370190505b509450806001600160401b038111156113de57634e487b7160e01b600052604160045260246000fd5b60405190808252806020026020018201604052801561141157816020015b60608152602001906001900390816113fc5790505b509350806001600160401b0381111561143a57634e487b7160e01b600052604160045260246000fd5b60405190808252806020026020018201604052801561146d57816020015b60608152602001906001900390816114585790505b509250806001600160401b0381111561149657634e487b7160e01b600052604160045260246000fd5b6040519080825280602002602001820160405280156114cf57816020015b6114bc612a86565b8152602001906001900390816114b45790505b50915060005b818110156116035760006013828154811061150057634e487b7160e01b600052603260045260246000fd5b60009182526020822001546001600160a01b03169150808061152184610c9d565b925092509250838a868151811061154857634e487b7160e01b600052603260045260246000fd5b60200260200101906001600160a01b031690816001600160a01b0316815250508289868151811061158957634e487b7160e01b600052603260045260246000fd5b6020026020010181905250818886815181106115b557634e487b7160e01b600052603260045260246000fd5b6020026020010181905250808786815181106115e157634e487b7160e01b600052603260045260246000fd5b60200260200101819052505050505080806115fb906135d9565b9150506114d5565b505090919293565b336116146118ab565b6001600160a01b031614604051806040016040528060018152602001603360f81b815250906116565760405162461bcd60e51b8152600401610b4e91906132fe565b5061165f61188a565b60025460405163266a23b160e21b81526001600160a01b03928316926399a88ec492610edf9291169085906004016132e4565b3361169b6118ab565b6001600160a01b031614604051806040016040528060018152602001603360f81b815250906116dd5760405162461bcd60e51b8152600401610b4e91906132fe565b50836116e881612619565b604051806040016040528060018152602001601b60f91b815250906117205760405162461bcd60e51b8152600401610b4e91906132fe565b5060408051808201909152600281526106c760f31b60208201526001600160a01b0384166117615760405162461bcd60e51b8152600401610b4e91906132fe565b50506001600160a01b0393841660009081526012602052604090208054600182018054949096166001600160a01b0319909416939093179094556001600160601b0316600160701b026001600160d01b03199091166001600160701b0390921691909117179055565b336117d36118ab565b6001600160a01b031614604051806040016040528060018152602001603360f81b815250906118155760405162461bcd60e51b8152600401610b4e91906132fe565b50604080518082019091526002815261036360f41b60208201526001600160a01b0382166118565760405162461bcd60e51b8152600401610b4e91906132fe565b50600480546001600160a01b0319166001600160a01b0392909216919091179055565b600061188482612619565b92915050565b60006000805160206136768339815191525b546001600160a01b0316919050565b600060008051602061365683398151915261189c565b336118ca6118ab565b6001600160a01b031614604051806040016040528060018152602001603360f81b8152509061190c5760405162461bcd60e51b8152600401610b4e91906132fe565b508261191781612619565b604051806040016040528060018152602001601b60f91b8152509061194f5760405162461bcd60e51b8152600401610b4e91906132fe565b508163ffffffff168363ffffffff16111560405180604001604052806002815260200161363960f01b815250906119995760405162461bcd60e51b8152600401610b4e91906132fe565b50506001600160a01b039290921660009081526012602052604090206001018054600160a01b600160e01b031916600160a01b63ffffffff9384160263ffffffff60c01b191617600160c01b9290931691909102919091179055565b336119fe6118ab565b6001600160a01b031614604051806040016040528060018152602001603360f81b81525090611a405760405162461bcd60e51b8152600401610b4e91906132fe565b506040805180820190915260028152611b1960f11b60208201526001600160a01b038216611a815760405162461bcd60e51b8152600401610b4e91906132fe565b50600780546001600160a01b0319166001600160a01b0392909216919091179055565b33611aad6118ab565b6001600160a01b031614604051806040016040528060018152602001603360f81b81525090611aef5760405162461bcd60e51b8152600401610b4e91906132fe565b50611af981612728565b50565b33611b056118ab565b6001600160a01b031614604051806040016040528060018152602001603360f81b81525090611b475760405162461bcd60e51b8152600401610b4e91906132fe565b50611b54600a8383612ad2565b505050565b6001600160a01b0382166000908152601260205260408120600181015463ffffffff808516600160a01b9092041611801590611baa5750600181015463ffffffff600160c01b909104811690841611155b949350505050565b6000600c54611bbf6110c3565b6110e3919061355b565b33611bd26118ab565b6001600160a01b031614604051806040016040528060018152602001603360f81b81525090611c145760405162461bcd60e51b8152600401610b4e91906132fe565b50604080518082019091526002815261363360f01b60208201526001600160a01b038216611c555760405162461bcd60e51b8152600401610b4e91906132fe565b50600580546001600160a01b0319166001600160a01b0392909216919091179055565b33611c816118ab565b6001600160a01b031614604051806040016040528060018152602001603360f81b81525090611cc35760405162461bcd60e51b8152600401610b4e91906132fe565b50600754604080518082019091526002815261363560f01b60208201529063ffffffff808416600160a01b909204161115611d115760405162461bcd60e51b8152600401610b4e91906132fe565b506007805463ffffffff909216600160c01b0263ffffffff60c01b19909216919091179055565b60606013805480602002602001604051908101604052809291908181526020018280548015610ad657602002820191906000526020600020905b81546001600160a01b03168152600190910190602001808311611d72575050505050905090565b33611da26118ab565b6001600160a01b031614604051806040016040528060018152602001603360f81b81525090611de45760405162461bcd60e51b8152600401610b4e91906132fe565b50604080518082019091526002815261373160f01b60208201526001600160a01b038216611e255760405162461bcd60e51b8152600401610b4e91906132fe565b50611af981612802565b33611e386118ab565b6001600160a01b031614604051806040016040528060018152602001603360f81b81525090611e7a5760405162461bcd60e51b8152600401610b4e91906132fe565b50611e8361188a565b6001600160a01b03166399a88ec430836040518363ffffffff1660e01b8152600401610edf9291906132e4565b33611eb96118ab565b6001600160a01b031614604051806040016040528060018152602001603360f81b81525090611efb5760405162461bcd60e51b8152600401610b4e91906132fe565b5081611f0681612619565b604051806040016040528060018152602001601b60f91b81525090611f3e5760405162461bcd60e51b8152600401610b4e91906132fe565b50611b548383612643565b33611f526118ab565b6001600160a01b031614604051806040016040528060018152602001603360f81b81525090611f945760405162461bcd60e51b8152600401610b4e91906132fe565b5081611f9f81612619565b604051806040016040528060018152602001601b60f91b81525090611fd75760405162461bcd60e51b8152600401610b4e91906132fe565b50611fe061188a565b6001600160a01b03166399a88ec484846040518363ffffffff1660e01b815260040161200d9291906132e4565b600060405180830381600087803b15801561202757600080fd5b505af115801561203b573d6000803e3d6000fd5b50505050505050565b600061204e6118ab565b6001600160a01b031614604051806040016040528060018152602001601960f91b815250906120905760405162461bcd60e51b8152600401610b4e91906132fe565b50604080518082019091526002815261373360f01b60208201526001600160a01b0382166120d15760405162461bcd60e51b8152600401610b4e91906132fe565b5060008051602061365683398151915280546001600160a01b0319166001600160a01b038316908117909155604051600090600080516020613696833981519152908290a350565b61213d60405180606001604052806000815260200160008152602001600081525090565b50600090815260116020908152604091829020825160608101845281548152600182015492810192909252600201549181019190915290565b600f80546121839061359e565b6040805180820190915260018152601960f91b60208201529150156121bb5760405162461bcd60e51b8152600401610b4e91906132fe565b506121c581612044565b8160008051602061367683398151915280546001600160a01b03929092166001600160a01b03199283161790556003805490911633179055865161221090600f9060208a0190612b56565b5061221d600a8787612ad2565b50600480546001600160a01b03199081166001600160a01b0396871617909155600580548216948616949094179093556007805460068054939096169290941682179094556003805463ffffffff60a01b191660e160a61b1790556001600160c01b03199092169091176102a360a61b1763ffffffff60c01b19166102a360c71b1790915550505050565b336122b16118ab565b6001600160a01b031614604051806040016040528060018152602001603360f81b815250906122f35760405162461bcd60e51b8152600401610b4e91906132fe565b506040805180820190915260028152611b1b60f11b602082015263ffffffff82166123315760405162461bcd60e51b8152600401610b4e91906132fe565b506003805463ffffffff909216600160a01b0263ffffffff60a01b19909216919091179055565b6000546040805180820190915260018152601960f91b6020820152906001600160a01b03161561239b5760405162461bcd60e51b8152600401610b4e91906132fe565b50600080546001600160a01b038086166001600160a01b031992831617909255600180548584169083161790556002805492841692909116919091179055611b5483612802565b336123eb6118ab565b6001600160a01b031614604051806040016040528060018152602001603360f81b8152509061242d5760405162461bcd60e51b8152600401610b4e91906132fe565b50604080518082019091526002815261373360f01b60208201526001600160a01b03821661246e5760405162461bcd60e51b8152600401610b4e91906132fe565b50806001600160a01b03166124816118ab565b6001600160a01b031660008051602061369683398151915260405160405180910390a360008051602061365683398151915280546001600160a01b0319166001600160a01b0392909216919091179055565b336124dc6118ab565b6001600160a01b031614604051806040016040528060018152602001603360f81b8152509061251e5760405162461bcd60e51b8152600401610b4e91906132fe565b508061252981612619565b604051806040016040528060018152602001601b60f91b815250906125615760405162461bcd60e51b8152600401610b4e91906132fe565b506001600160a01b0382166000908152601260209081526040918290206001015482518084019093526002835261037360f41b91830191909152600160f01b900460ff16156125c35760405162461bcd60e51b8152600401610b4e91906132fe565b50506001600160a01b03166000908152601260205260409020600101805460ff60f01b1916600160f01b179055565b6001600160a01b03811660009081526008602052604081205461188490600190810b6134ee565b6001600160a01b0316600090815260126020526040902054600160d01b900463ffffffff16151590565b604080518082019091526002815261363760f01b602082015261138861ffff831611156126835760405162461bcd60e51b8152600401610b4e91906132fe565b506001600160a01b039091166000908152601260205260409020600101805461ffff909216600160e01b0261ffff60e01b19909216919091179055565b600d5460009061270b9063ffffffff600160e01b820416906126f5906001600160701b0380821691600160701b900416613533565b600354600160a01b900463ffffffff16426128e5565b600d546110e39190600160701b90046001600160701b0316613533565b6001600160a01b03811660009081526008602090815260409182902054825180840190935260028352611b9960f11b91830191909152600190810b900b6127825760405162461bcd60e51b8152600401610b4e91906132fe565b506001600160a01b038116600090815260086020526040812054600190810b900b1315611af9576001600160a01b0381166000908152600860205260409020546127ce9060010b6135f4565b6001600160a01b0382166000908152600860205260409020805460019290920b61ffff1661ffff1990921691909117905550565b6001600160a01b038116600090815260086020526040902054600190810b900b61289a5760098054600180820183557f6e1540171b6c0c960b71a7020d9f60077f6af931a8bbf590da0223dacf75c7af90910180546001600160a01b0319166001600160a01b039490941693841790559054600092835260086020526040909220805461ffff191661ffff9390920b92909216179055565b6001600160a01b038116600090815260086020526040812054600190810b900b1215611af9576001600160a01b0381166000908152600860205260409020546127ce9060010b6135f4565b60008463ffffffff168263ffffffff161015604051806040016040528060018152602001600760fb1b8152509061292f5760405162461bcd60e51b8152600401610b4e91906132fe565b5084820391508263ffffffff168263ffffffff168161295e57634e487b7160e01b600052601260045260246000fd5b0463ffffffff16846001600160701b0316901c93508263ffffffff168263ffffffff168161299c57634e487b7160e01b600052601260045260246000fd5b06915063ffffffff821615806129b957506001600160701b038416155b156129c5575082611baa565b60006001600160701b0385168163ffffffff86811690861671b17217f7d1cf79abc9e3b39803f2f6af40f30281612a0c57634e487b7160e01b600052601260045260246000fd5b049050600160901b5b8215612a7957928201928082840281612a3e57634e487b7160e01b600052601260045260246000fd5b0493849003939250600160901b018082840281612a6b57634e487b7160e01b600052601260045260246000fd5b049250600160901b01612a15565b5091979650505050505050565b6040805161012081018252600080825260208201819052918101829052606081018290526080810182905260a0810182905260c0810182905260e0810182905261010081019190915290565b828054612ade9061359e565b90600052602060002090601f016020900481019282612b005760008555612b46565b82601f10612b195782800160ff19823516178555612b46565b82800160010185558215612b46579182015b82811115612b46578235825591602001919060010190612b2b565b50612b52929150612bca565b5090565b828054612b629061359e565b90600052602060002090601f016020900481019282612b845760008555612b46565b82601f10612b9d57805160ff1916838001178555612b46565b82800160010185558215612b46579182015b82811115612b46578251825591602001919060010190612baf565b5b80821115612b525760008155600101612bcb565b8035612bea81613640565b919050565b60008083601f840112612c00578081fd5b5081356001600160401b03811115612c16578182fd5b6020830191508360208260051b8501011115612c3157600080fd5b9250929050565b60008083601f840112612c49578182fd5b5081356001600160401b03811115612c5f578182fd5b602083019150836020828501011115612c3157600080fd5b803561ffff81168114612bea57600080fd5b803563ffffffff81168114612bea57600080fd5b600060208284031215612cae578081fd5b8135612cb981613640565b9392505050565b60008060008060408587031215612cd5578283fd5b84356001600160401b0380821115612ceb578485fd5b612cf788838901612bef565b90965094506020870135915080821115612d0f578384fd5b50612d1c87828801612bef565b95989497509550505050565b600080600060608486031215612d3c578283fd5b8335612d4781613640565b92506020840135612d5781613640565b91506040840135612d6781613640565b809150509250925092565b60008060408385031215612d84578182fd5b8235612d8f81613640565b91506020830135612d9f81613640565b809150509250929050565b60008060008060808587031215612dbf578182fd5b8435612dca81613640565b935060208501356001600160701b0381168114612de5578283fd5b92506040850135612df581613640565b915060608501356001600160601b0381168114612e10578182fd5b939692955090935050565b60008060408385031215612e2d578182fd5b8235612e3881613640565b9150612e4660208401612c77565b90509250929050565b60008060408385031215612e61578182fd5b8235612e6c81613640565b9150612e4660208401612c89565b600080600060608486031215612e8e578081fd5b8335612e9981613640565b9250612ea760208501612c89565b9150612eb560408501612c89565b90509250925092565b60008060208385031215612ed0578182fd5b82356001600160401b03811115612ee5578283fd5b612ef185828601612c38565b90969095509350505050565b600060208284031215612f0e578081fd5b81516001600160401b03811115612f23578182fd5b8201601f81018413612f33578182fd5b8051612f46612f41826134af565b61347f565b818152856020838501011115612f5a578384fd5b612f6b826020830160208601613572565b95945050505050565b600080600080600080600060c0888a031215612f8e578485fd5b87356001600160401b0380821115612fa4578687fd5b818a0191508a601f830112612fb7578687fd5b8135612fc5612f41826134af565b8181528c6020838601011115612fd9578889fd5b816020850160208301378860208383010152809a50505060208a0135915080821115613003578687fd5b506130108a828b01612c38565b9097509550613023905060408901612bdf565b935061303160608901612bdf565b925061303f60808901612bdf565b915061304d60a08901612bdf565b905092959891949750929550565b60006020828403121561306c578081fd5b612cb982612c77565b600060208284031215613086578081fd5b5035919050565b60006020828403121561309e578081fd5b612cb982612c89565b600081518084526020808501808196508360051b81019150828601855b85811015612a795782840389526130dc8483516130ee565b988501989350908401906001016130c4565b60008151808452613106816020860160208601613572565b601f01601f19169290920160200192915050565b80516001600160701b031682526020808201516001600160601b031690830152604080820151906131529084018263ffffffff169052565b506060810151613168606084018261ffff169052565b50608081015161318360808401826001600160a01b03169052565b5060a081015161319b60a084018263ffffffff169052565b5060c08101516131b360c084018263ffffffff169052565b5060e08101516131c960e084018261ffff169052565b5061010081810151801515848301525b50505050565b6080808252855190820181905260009060209060a0840190828901845b828110156132215781516001600160a01b0316845292840192908401906001016131fc565b5050508381038285015261323581886130a7565b9050838103604085015261324981876130a7565b84810360608601528551808252838701925090830190845b818110156132885761327483855161311a565b928401926101209290920191600101613261565b50909998505050505050505050565b6020808252825182820181905260009190848201906040850190845b818110156132d85783516001600160a01b0316835292840192918401916001016132b3565b50909695505050505050565b6001600160a01b0392831681529116602082015260400190565b602081526000612cb960208301846130ee565b6000610160808352613325818401876130ee565b9050828103602084015261333981866130ee565b915050611baa604083018461311a565b6101808152600061335e61018083018f6130ee565b8281036020840152613370818f6130ee565b604084018e905263ffffffff8d811660608601528c811660808601528b1660a085015261ffff8a1660c085015260e0840189905261010084018890526001600160701b03878116610120860152861661014085015291506133ce9050565b63ffffffff83166101608301529d9c50505050505050505050505050565b81516001600160701b0316815260208083015161ffff169082015260408083015163ffffffff9081169183019190915260608084015182169083015260808084015182169083015260a080840151918216908301526101008201905060c083015161346260c08401826001600160701b03169052565b5060e083015161347860e084018261ffff169052565b5092915050565b604051601f8201601f191681016001600160401b03811182821017156134a7576134a761362a565b604052919050565b60006001600160401b038211156134c8576134c861362a565b50601f01601f191660200190565b600082198211156134e9576134e9613614565b500190565b60008160010b8360010b82811281617fff190183128115161561351357613513613614565b81617fff01831381161561352957613529613614565b5090039392505050565b60006001600160701b038381169083168181101561355357613553613614565b039392505050565b60008282101561356d5761356d613614565b500390565b60005b8381101561358d578181015183820152602001613575565b838111156131d95750506000910152565b600181811c908216806135b257607f821691505b602082108114156135d357634e487b7160e01b600052602260045260246000fd5b50919050565b60006000198214156135ed576135ed613614565b5060010190565b60008160010b617fff1981141561360d5761360d613614565b9003919050565b634e487b7160e01b600052601160045260246000fd5b634e487b7160e01b600052604160045260246000fd5b6001600160a01b0381168114611af957600080fdfe4f471908b72bb76dae5bd24599026e7bf3ddb256497722888ffa422f83729eded1248cccb5fef9131c731321e43e9a924840ffee7dc68c7d1d3e5cb7dedcae038be0079c531659141344cd1fd0a4f28419497f9722a3daafe3b4186f6b6457e0a2646970667358221220438ba4e9d66bda7487f316ac1fb80bf0827fcca04b1a78c6968725cf0c9f48ff64736f6c63430008040033",
  "linkReferences": {},
  "deployedLinkReferences": {}
}