{
  "_format": "hh-sol-artifact-1",
  "contractName": "EnterpriseStorage",
  "sourceName": "contracts/EnterpriseStorage.sol",
  "abi": [
    {
      "anonymous": false,
      "inputs": [
        {
          "indexed": true,
          "internalType": "address",
          "name": "previousOwner",
          "type": "address"
        },
        {
          "indexed": true,
          "internalType": "address",
          "name": "newOwner",
          "type": "address"
        }
      ],
      "name": "OwnershipTransferred",
      "type": "event"
    },
    {
      "inputs": [
        {
          "internalType": "address",
          "name": "token",
          "type": "address"
        }
      ],
      "name": "disablePaymentToken",
      "outputs": [],
      "stateMutability": "nonpayable",
      "type": "function"
    },
    {
      "inputs": [
        {
          "internalType": "address",
          "name": "token",
          "type": "address"
        }
      ],
      "name": "enablePaymentToken",
      "outputs": [],
      "stateMutability": "nonpayable",
      "type": "function"
    },
    {
      "inputs": [],
      "name": "getAvailableReserve",
      "outputs": [
        {
          "internalType": "uint256",
          "name": "",
          "type": "uint256"
        }
      ],
      "stateMutability": "view",
      "type": "function"
    },
    {
      "inputs": [],
      "name": "getBaseUri",
      "outputs": [
        {
          "internalType": "string",
          "name": "",
          "type": "string"
        }
      ],
      "stateMutability": "view",
      "type": "function"
    },
    {
      "inputs": [],
      "name": "getBorrowToken",
      "outputs": [
        {
          "internalType": "contract IBorrowToken",
          "name": "",
          "type": "address"
        }
      ],
      "stateMutability": "view",
      "type": "function"
    },
    {
      "inputs": [],
      "name": "getBorrowerLoanReturnGracePeriod",
      "outputs": [
        {
          "internalType": "uint32",
          "name": "",
          "type": "uint32"
        }
      ],
      "stateMutability": "view",
      "type": "function"
    },
    {
      "inputs": [],
      "name": "getConverter",
      "outputs": [
        {
          "internalType": "contract IConverter",
          "name": "",
          "type": "address"
        }
      ],
      "stateMutability": "view",
      "type": "function"
    },
    {
      "inputs": [],
      "name": "getEnterpriseCollector",
      "outputs": [
        {
          "internalType": "address",
          "name": "",
          "type": "address"
        }
      ],
      "stateMutability": "view",
      "type": "function"
    },
    {
      "inputs": [],
      "name": "getEnterpriseLoanCollectGracePeriod",
      "outputs": [
        {
          "internalType": "uint32",
          "name": "",
          "type": "uint32"
        }
      ],
      "stateMutability": "view",
      "type": "function"
    },
    {
      "inputs": [],
      "name": "getEnterpriseVault",
      "outputs": [
        {
          "internalType": "address",
          "name": "",
          "type": "address"
        }
      ],
      "stateMutability": "view",
      "type": "function"
    },
    {
      "inputs": [],
      "name": "getEstimator",
      "outputs": [
        {
          "internalType": "contract IEstimator",
          "name": "",
          "type": "address"
        }
      ],
      "stateMutability": "view",
      "type": "function"
    },
    {
      "inputs": [],
      "name": "getGCFeePercent",
      "outputs": [
        {
          "internalType": "uint16",
          "name": "",
          "type": "uint16"
        }
      ],
      "stateMutability": "view",
      "type": "function"
    },
    {
      "inputs": [],
      "name": "getInfo",
      "outputs": [
        {
          "internalType": "string",
          "name": "name",
          "type": "string"
        },
        {
          "internalType": "string",
          "name": "baseUri",
          "type": "string"
        },
        {
          "internalType": "uint256",
          "name": "totalShares",
          "type": "uint256"
        },
        {
          "internalType": "uint32",
          "name": "interestHalfLife",
          "type": "uint32"
        },
        {
          "internalType": "uint32",
          "name": "borrowerLoanReturnGracePeriod",
          "type": "uint32"
        },
        {
          "internalType": "uint32",
          "name": "enterpriseLoanCollectGracePeriod",
          "type": "uint32"
        },
        {
          "internalType": "uint16",
          "name": "gcFeePercent",
          "type": "uint16"
        },
        {
          "internalType": "uint256",
          "name": "fixedReserve",
          "type": "uint256"
        },
        {
          "internalType": "uint256",
          "name": "usedReserve",
          "type": "uint256"
        },
        {
          "internalType": "uint112",
          "name": "streamingReserve",
          "type": "uint112"
        },
        {
          "internalType": "uint112",
          "name": "streamingReserveTarget",
          "type": "uint112"
        },
        {
          "internalType": "uint32",
          "name": "streamingReserveUpdated",
          "type": "uint32"
        }
      ],
      "stateMutability": "view",
      "type": "function"
    },
    {
      "inputs": [],
      "name": "getInterestHalfLife",
      "outputs": [
        {
          "internalType": "uint32",
          "name": "",
          "type": "uint32"
        }
      ],
      "stateMutability": "view",
      "type": "function"
    },
    {
      "inputs": [],
      "name": "getInterestToken",
      "outputs": [
        {
          "internalType": "contract IInterestToken",
          "name": "",
          "type": "address"
        }
      ],
      "stateMutability": "view",
      "type": "function"
    },
    {
      "inputs": [
        {
          "internalType": "uint256",
          "name": "tokenId",
          "type": "uint256"
        }
      ],
      "name": "getLiquidityInfo",
      "outputs": [
        {
          "components": [
            {
              "internalType": "uint256",
              "name": "amount",
              "type": "uint256"
            },
            {
              "internalType": "uint256",
              "name": "shares",
              "type": "uint256"
            },
            {
              "internalType": "uint256",
              "name": "block",
              "type": "uint256"
            }
          ],
          "internalType": "struct EnterpriseStorage.LiquidityInfo",
          "name": "",
          "type": "tuple"
        }
      ],
      "stateMutability": "view",
      "type": "function"
    },
    {
      "inputs": [],
      "name": "getLiquidityToken",
      "outputs": [
        {
          "internalType": "contract IERC20Metadata",
          "name": "",
          "type": "address"
        }
      ],
      "stateMutability": "view",
      "type": "function"
    },
    {
      "inputs": [
        {
          "internalType": "uint256",
          "name": "tokenId",
          "type": "uint256"
        }
      ],
      "name": "getLoanInfo",
      "outputs": [
        {
          "components": [
            {
              "internalType": "uint112",
              "name": "amount",
              "type": "uint112"
            },
            {
              "internalType": "uint16",
              "name": "powerTokenIndex",
              "type": "uint16"
            },
            {
              "internalType": "uint32",
              "name": "borrowingTime",
              "type": "uint32"
            },
            {
              "internalType": "uint32",
              "name": "maturityTime",
              "type": "uint32"
            },
            {
              "internalType": "uint32",
              "name": "borrowerReturnGraceTime",
              "type": "uint32"
            },
            {
              "internalType": "uint32",
              "name": "enterpriseCollectGraceTime",
              "type": "uint32"
            },
            {
              "internalType": "uint112",
              "name": "gcFee",
              "type": "uint112"
            },
            {
              "internalType": "uint16",
              "name": "gcFeeTokenIndex",
              "type": "uint16"
            }
          ],
          "internalType": "struct EnterpriseStorage.LoanInfo",
          "name": "",
          "type": "tuple"
        }
      ],
      "stateMutability": "view",
      "type": "function"
    },
    {
      "inputs": [
        {
          "internalType": "uint256",
          "name": "index",
          "type": "uint256"
        }
      ],
      "name": "getPowerToken",
      "outputs": [
        {
          "internalType": "contract IPowerToken",
          "name": "",
          "type": "address"
        }
      ],
      "stateMutability": "view",
      "type": "function"
    },
    {
      "inputs": [],
      "name": "getPowerTokenImpl",
      "outputs": [
        {
          "internalType": "address",
          "name": "",
          "type": "address"
        }
      ],
      "stateMutability": "view",
      "type": "function"
    },
    {
      "inputs": [
        {
          "internalType": "contract IPowerToken",
          "name": "powerToken",
          "type": "address"
        }
      ],
      "name": "getPowerTokenIndex",
      "outputs": [
        {
          "internalType": "uint16",
          "name": "",
          "type": "uint16"
        }
      ],
      "stateMutability": "view",
      "type": "function"
    },
    {
      "inputs": [],
      "name": "getPowerTokens",
      "outputs": [
        {
          "internalType": "contract IPowerToken[]",
          "name": "",
          "type": "address[]"
        }
      ],
      "stateMutability": "view",
      "type": "function"
    },
    {
      "inputs": [],
      "name": "getPowerTokensInfo",
      "outputs": [
        {
          "internalType": "address[]",
          "name": "addresses",
          "type": "address[]"
        },
        {
          "internalType": "string[]",
          "name": "names",
          "type": "string[]"
        },
        {
          "internalType": "string[]",
          "name": "symbols",
          "type": "string[]"
        },
        {
          "internalType": "uint32[]",
          "name": "halfLifes",
          "type": "uint32[]"
        }
      ],
      "stateMutability": "view",
      "type": "function"
    },
    {
      "inputs": [],
      "name": "getReserve",
      "outputs": [
        {
          "internalType": "uint256",
          "name": "",
          "type": "uint256"
        }
      ],
      "stateMutability": "view",
      "type": "function"
    },
    {
      "inputs": [
        {
          "internalType": "contract IPowerToken",
          "name": "powerToken",
          "type": "address"
        }
      ],
      "name": "getServiceBaseRate",
      "outputs": [
        {
          "internalType": "uint112",
          "name": "",
          "type": "uint112"
        }
      ],
      "stateMutability": "view",
      "type": "function"
    },
    {
      "inputs": [
        {
          "internalType": "contract IPowerToken",
          "name": "powerToken",
          "type": "address"
        }
      ],
      "name": "getServiceBaseToken",
      "outputs": [
        {
          "internalType": "contract IERC20Metadata",
          "name": "",
          "type": "address"
        }
      ],
      "stateMutability": "view",
      "type": "function"
    },
    {
      "inputs": [
        {
          "internalType": "contract IPowerToken",
          "name": "powerToken",
          "type": "address"
        }
      ],
      "name": "getServiceFeePercent",
      "outputs": [
        {
          "internalType": "uint112",
          "name": "",
          "type": "uint112"
        }
      ],
      "stateMutability": "view",
      "type": "function"
    },
    {
      "inputs": [
        {
          "internalType": "contract IPowerToken",
          "name": "powerToken",
          "type": "address"
        }
      ],
      "name": "getServiceHalfLife",
      "outputs": [
        {
          "internalType": "uint32",
          "name": "",
          "type": "uint32"
        }
      ],
      "stateMutability": "view",
      "type": "function"
    },
    {
      "inputs": [
        {
          "internalType": "contract IPowerToken",
          "name": "powerToken",
          "type": "address"
        }
      ],
      "name": "getServiceMaxLoanDuration",
      "outputs": [
        {
          "internalType": "uint32",
          "name": "",
          "type": "uint32"
        }
      ],
      "stateMutability": "view",
      "type": "function"
    },
    {
      "inputs": [
        {
          "internalType": "contract IPowerToken",
          "name": "powerToken",
          "type": "address"
        }
      ],
      "name": "getServiceMinGCFee",
      "outputs": [
        {
          "internalType": "uint112",
          "name": "",
          "type": "uint112"
        }
      ],
      "stateMutability": "view",
      "type": "function"
    },
    {
      "inputs": [
        {
          "internalType": "contract IPowerToken",
          "name": "powerToken",
          "type": "address"
        }
      ],
      "name": "getServiceMinLoanDuration",
      "outputs": [
        {
          "internalType": "uint32",
          "name": "",
          "type": "uint32"
        }
      ],
      "stateMutability": "view",
      "type": "function"
    },
    {
      "inputs": [],
      "name": "getUsedReserve",
      "outputs": [
        {
          "internalType": "uint256",
          "name": "",
          "type": "uint256"
        }
      ],
      "stateMutability": "view",
      "type": "function"
    },
    {
      "inputs": [
        {
          "internalType": "address",
          "name": "initialOwner",
          "type": "address"
        }
      ],
      "name": "initialize",
      "outputs": [],
      "stateMutability": "nonpayable",
      "type": "function"
    },
    {
      "inputs": [
        {
          "internalType": "string",
          "name": "enterpriseName",
          "type": "string"
        },
        {
          "internalType": "string",
          "name": "baseUri",
          "type": "string"
        },
        {
          "internalType": "contract IEstimator",
          "name": "estimator",
          "type": "address"
        },
        {
          "internalType": "contract IConverter",
          "name": "converter",
          "type": "address"
        },
        {
          "internalType": "address",
          "name": "owner",
          "type": "address"
        }
      ],
      "name": "initialize",
      "outputs": [],
      "stateMutability": "nonpayable",
      "type": "function"
    },
    {
      "inputs": [
        {
          "internalType": "address",
          "name": "powerTokenImpl",
          "type": "address"
        },
        {
          "internalType": "contract IERC20Metadata",
          "name": "liquidityToken",
          "type": "address"
        },
        {
          "internalType": "contract IInterestToken",
          "name": "interestToken",
          "type": "address"
        },
        {
          "internalType": "contract IBorrowToken",
          "name": "borrowToken",
          "type": "address"
        }
      ],
      "name": "initializeTokens",
      "outputs": [],
      "stateMutability": "nonpayable",
      "type": "function"
    },
    {
      "inputs": [
        {
          "internalType": "contract IPowerToken",
          "name": "powerToken",
          "type": "address"
        }
      ],
      "name": "isRegisteredPowerToken",
      "outputs": [
        {
          "internalType": "bool",
          "name": "",
          "type": "bool"
        }
      ],
      "stateMutability": "view",
      "type": "function"
    },
    {
      "inputs": [
        {
          "internalType": "contract IPowerToken",
          "name": "powerToken",
          "type": "address"
        },
        {
          "internalType": "uint32",
          "name": "duration",
          "type": "uint32"
        }
      ],
      "name": "isServiceAllowedLoanDuration",
      "outputs": [
        {
          "internalType": "bool",
          "name": "",
          "type": "bool"
        }
      ],
      "stateMutability": "view",
      "type": "function"
    },
    {
      "inputs": [
        {
          "internalType": "contract IERC20",
          "name": "token",
          "type": "address"
        }
      ],
      "name": "isSupportedPaymentToken",
      "outputs": [
        {
          "internalType": "bool",
          "name": "",
          "type": "bool"
        }
      ],
      "stateMutability": "view",
      "type": "function"
    },
    {
      "inputs": [],
      "name": "owner",
      "outputs": [
        {
          "internalType": "address",
          "name": "",
          "type": "address"
        }
      ],
      "stateMutability": "view",
      "type": "function"
    },
    {
      "inputs": [
        {
          "internalType": "uint256",
          "name": "index",
          "type": "uint256"
        }
      ],
      "name": "paymentToken",
      "outputs": [
        {
          "internalType": "address",
          "name": "",
          "type": "address"
        }
      ],
      "stateMutability": "view",
      "type": "function"
    },
    {
      "inputs": [
        {
          "internalType": "contract IERC20",
          "name": "token",
          "type": "address"
        }
      ],
      "name": "paymentTokenIndex",
      "outputs": [
        {
          "internalType": "int16",
          "name": "",
          "type": "int16"
        }
      ],
      "stateMutability": "view",
      "type": "function"
    },
    {
      "inputs": [
        {
          "internalType": "string",
          "name": "baseUri",
          "type": "string"
        }
      ],
      "name": "setBaseUri",
      "outputs": [],
      "stateMutability": "nonpayable",
      "type": "function"
    },
    {
      "inputs": [
        {
          "internalType": "uint32",
          "name": "newPeriod",
          "type": "uint32"
        }
      ],
      "name": "setBorrowerLoanReturnGracePeriod",
      "outputs": [],
      "stateMutability": "nonpayable",
      "type": "function"
    },
    {
      "inputs": [
        {
          "internalType": "contract IConverter",
          "name": "newConverter",
          "type": "address"
        }
      ],
      "name": "setConverter",
      "outputs": [],
      "stateMutability": "nonpayable",
      "type": "function"
    },
    {
      "inputs": [
        {
          "internalType": "address",
          "name": "newCollector",
          "type": "address"
        }
      ],
      "name": "setEnterpriseCollector",
      "outputs": [],
      "stateMutability": "nonpayable",
      "type": "function"
    },
    {
      "inputs": [
        {
          "internalType": "uint32",
          "name": "newPeriod",
          "type": "uint32"
        }
      ],
      "name": "setEnterpriseLoanCollectGracePeriod",
      "outputs": [],
      "stateMutability": "nonpayable",
      "type": "function"
    },
    {
      "inputs": [
        {
          "internalType": "address",
          "name": "newVault",
          "type": "address"
        }
      ],
      "name": "setEnterpriseVault",
      "outputs": [],
      "stateMutability": "nonpayable",
      "type": "function"
    },
    {
      "inputs": [
        {
          "internalType": "contract IEstimator",
          "name": "newEstimator",
          "type": "address"
        }
      ],
      "name": "setEstimator",
      "outputs": [],
      "stateMutability": "nonpayable",
      "type": "function"
    },
    {
      "inputs": [
        {
          "internalType": "uint16",
          "name": "newGcFeePercent",
          "type": "uint16"
        }
      ],
      "name": "setGcFeePercent",
      "outputs": [],
      "stateMutability": "nonpayable",
      "type": "function"
    },
    {
      "inputs": [
        {
          "internalType": "uint32",
          "name": "interestHalfLife",
          "type": "uint32"
        }
      ],
      "name": "setInterestHalfLife",
      "outputs": [],
      "stateMutability": "nonpayable",
      "type": "function"
    },
    {
      "inputs": [
        {
          "internalType": "contract IPowerToken",
          "name": "powerToken",
          "type": "address"
        },
        {
          "internalType": "uint112",
          "name": "baseRate",
          "type": "uint112"
        },
        {
          "internalType": "contract IERC20Metadata",
          "name": "baseToken",
          "type": "address"
        },
        {
          "internalType": "uint112",
          "name": "minGCFee",
          "type": "uint112"
        }
      ],
      "name": "setServiceBaseRate",
      "outputs": [],
      "stateMutability": "nonpayable",
      "type": "function"
    },
    {
      "inputs": [
        {
          "internalType": "contract IPowerToken",
          "name": "powerToken",
          "type": "address"
        },
        {
          "internalType": "uint16",
          "name": "newServiceFeePercent",
          "type": "uint16"
        }
      ],
      "name": "setServiceFeePercent",
      "outputs": [],
      "stateMutability": "nonpayable",
      "type": "function"
    },
    {
      "inputs": [
        {
          "internalType": "contract IPowerToken[]",
          "name": "powerToken",
          "type": "address[]"
        },
        {
          "internalType": "uint16[]",
          "name": "newServiceFeePercent",
          "type": "uint16[]"
        }
      ],
      "name": "setServiceFeePercentBatch",
      "outputs": [],
      "stateMutability": "nonpayable",
      "type": "function"
    },
    {
      "inputs": [
        {
          "internalType": "contract IPowerToken",
          "name": "powerToken",
          "type": "address"
        },
        {
          "internalType": "uint32",
          "name": "minLoanDuration",
          "type": "uint32"
        },
        {
          "internalType": "uint32",
          "name": "maxLoanDuration",
          "type": "uint32"
        }
      ],
      "name": "setServiceLoanDurationLimits",
      "outputs": [],
      "stateMutability": "nonpayable",
      "type": "function"
    },
    {
      "inputs": [
        {
          "internalType": "address",
          "name": "newOwner",
          "type": "address"
        }
      ],
      "name": "transferOwnership",
      "outputs": [],
      "stateMutability": "nonpayable",
      "type": "function"
    }
  ],
  "bytecode": "0x60806040526004805463ffffffff60a01b191660e160a61b17905560088054600160a01b600160e01b031916650546000002a360a61b17905534801561004457600080fd5b50612dc4806100546000396000f3fe608060405234801561001057600080fd5b506004361061035d5760003560e01c80638e9fcf81116101d3578063c20aa9bc11610104578063e9028683116100a2578063f4e28f9a1161007c578063f4e28f9a14610987578063fbac9a55146109c0578063fc0915b1146109e6578063fcb2884e146109f957600080fd5b8063e902868314610928578063edc1a62814610961578063f2fde38b1461097457600080fd5b8063d1c82007116100de578063d1c8200714610870578063db0ed6a0146108a9578063df57f2fa146108bc578063e36eca0c146108f157600080fd5b8063c20aa9bc14610839578063c4d66de81461084c578063c93d0b921461085f57600080fd5b8063aebb504111610171578063b56de97e1161014b578063b56de97e146107ed578063b96266fa14610800578063bf17088014610815578063bfd84fb41461082657600080fd5b8063aebb5041146107b0578063b19337a4146107b8578063b406bf6d146107cb57600080fd5b8063a0bcfc7f116101ad578063a0bcfc7f14610764578063a0efd11814610777578063a358426f1461078c578063a554b26d1461079f57600080fd5b80638e9fcf811461072b57806390f55edd1461073e5780639c7aa7f81461075157600080fd5b80633d4df897116102ad5780637791c42d1161024b57806383b9a0091161022557806383b9a009146106e357806389035b61146106f45780638d6d50c9146107075780638da5cb5b1461071a57600080fd5b80637791c42d146106aa5780637eda9ff8146106bb5780638188d50d146106ce57600080fd5b806359bf5d391161028757806359bf5d39146106505780635a9b0b891461066657806362c1f38814610686578063644e44df1461069957600080fd5b80633d4df897146105f6578063449497ec1461060e57806353c091241461062157600080fd5b80632261b07f1161031a5780632e365ade116102f45780632e365ade146105695780632fb2067f1461057c5780633184fc64146105bd57806337592148146105d057600080fd5b80632261b07f146104d75780632457056e146104e85780632b39a0ac1461053257600080fd5b806304196058146103625780630714012c146103925780630cac36b2146104895780630e101b601461049e5780630ea1dc9e146104b157806311eec529146104c2575b600080fd5b610375610370366004612777565b610a01565b6040516001600160a01b0390911681526020015b60405180910390f35b61047c6103a0366004612777565b6040805161010081018252600080825260208201819052918101829052606081018290526080810182905260a0810182905260c0810182905260e08101919091525060009081526011602090815260409182902082516101008101845281546001600160701b038082168352600160701b80830461ffff90811696850196909652600160801b830463ffffffff90811697850197909752600160a01b830487166060850152600160c01b830487166080850152600160e01b90920490951660a083015260019092015493841660c082015292041660e082015290565b6040516103899190612a5f565b610491610a3f565b604051610389919061291c565b6103756104ac366004612777565b610ad1565b6002546001600160a01b0316610375565b6104d56104d036600461246c565b610af4565b005b6006546001600160a01b0316610375565b61051a6104f63660046123ee565b6001600160a01b03166000908152601360205260409020546001600160701b031690565b6040516001600160701b039091168152602001610389565b61051a6105403660046123ee565b6001600160a01b0316600090815260136020526040902060010154600160e01b900461ffff1690565b6104d561057736600461278f565b610c57565b6105ad61058a3660046123ee565b6001600160a01b0316600090815260096020526040812054600190810b900b1390565b6040519015158152602001610389565b6104d56105cb366004612411565b610d02565b600454600160a01b900463ffffffff165b60405163ffffffff9091168152602001610389565b6105fe610daa565b604051610389949392919061281c565b6104d561061c36600461275d565b61113e565b61037561062f3660046123ee565b6001600160a01b039081166000908152601360205260409020600101541690565b61065861118a565b604051908152602001610389565b61066e6111af565b6040516103899c9b9a9998979695949392919061292f565b6104d56106943660046123ee565b611372565b6001546001600160a01b0316610375565b6008546001600160a01b0316610375565b6104d56106c93660046123ee565b6113e4565b600854600160a01b900463ffffffff166105e1565b6004546001600160a01b0316610375565b6105ad6107023660046123ee565b611456565b6105e16107153660046123ee565b611480565b6000546001600160a01b0316610375565b6104d561073936600461258b565b6114a8565b6104d561074c3660046123ee565b6115a4565b6104d561075f3660046123ee565b611616565b6104d56107723660046125cf565b61164c565b600854600160c01b900463ffffffff166105e1565b6105ad61079a366004612560565b611687565b6007546001600160a01b0316610375565b6106586116e0565b6104d56107c63660046123ee565b6116f7565b600854600160e01b900461ffff165b60405161ffff9091168152602001610389565b6104d56107fb36600461278f565b611769565b610808611813565b60405161038991906128cf565b6005546001600160a01b0316610375565b6104d56108343660046123ee565b611874565b6104d561084736600461252c565b6118cd565b6104d561085a3660046123ee565b611927565b6003546001600160a01b0316610375565b6105e161087e3660046123ee565b6001600160a01b0316600090815260136020526040902060010154600160a01b900463ffffffff1690565b6104d56108b7366004612687565b611a47565b6108cf6108ca366004612777565b611b13565b6040805182518152602080840151908201529181015190820152606001610389565b6107da6108ff3660046123ee565b6001600160a01b0316600090815260136020526040902060010154600160f01b900461ffff1690565b61051a6109363660046123ee565b6001600160a01b0316600090815260136020526040902054600160701b90046001600160701b031690565b6104d561096f36600461278f565b611b70565b6104d56109823660046123ee565b611bc0565b6105e16109953660046123ee565b6001600160a01b0316600090815260136020526040902060010154600160c01b900463ffffffff1690565b6109d36109ce3660046123ee565b611caa565b60405160019190910b8152602001610389565b6104d56109f43660046124d5565b611cd7565b600d54610658565b600060148281548110610a2457634e487b7160e01b600052603260045260246000fd5b6000918252602090912001546001600160a01b031692915050565b6060600b8054610a4e90612c9e565b80601f0160208091040260200160405190810160405280929190818152602001828054610a7a90612c9e565b8015610ac75780601f10610a9c57610100808354040283529160200191610ac7565b820191906000526020600020905b815481529060010190602001808311610aaa57829003601f168201915b5050505050905090565b6000600a8281548110610a2457634e487b7160e01b600052603260045260246000fd5b6000546001600160a01b03163314610b275760405162461bcd60e51b8152600401610b1e906129fe565b60405180910390fd5b828114610b6d5760405162461bcd60e51b8152602060048201526014602482015273092dcecc2d8d2c840c2e4e4c2f240d8cadccee8d60631b6044820152606401610b1e565b60005b83811015610c5057610bb0858583818110610b9b57634e487b7160e01b600052603260045260246000fd5b905060200201602081019061070291906123ee565b610bcc5760405162461bcd60e51b8152600401610b1e90612a33565b610c3e858583818110610bef57634e487b7160e01b600052603260045260246000fd5b9050602002016020810190610c0491906123ee565b848484818110610c2457634e487b7160e01b600052603260045260246000fd5b9050602002016020810190610c39919061275d565b611dd3565b80610c4881612cd9565b915050610b70565b5050505050565b6000546001600160a01b03163314610c815760405162461bcd60e51b8152600401610b1e906129fe565b60085463ffffffff600160c01b90910481169082161115610cdc5760405162461bcd60e51b8152602060048201526015602482015274496e76616c696420677261636520706572696f647360581b6044820152606401610b1e565b6008805463ffffffff909216600160a01b0263ffffffff60a01b19909216919091179055565b6004546001600160a01b031615610d515760405162461bcd60e51b8152602060048201526013602482015272105b1c9958591e481a5b9a5d1a585b1a5e9959606a1b6044820152606401610b1e565b600480546001600160a01b038087166001600160a01b03199283161790925560018054868416908316179055600280548584169083161790556003805492841692909116919091179055610da483611e73565b50505050565b6014546060908190819081908067ffffffffffffffff811115610ddd57634e487b7160e01b600052604160045260246000fd5b604051908082528060200260200182016040528015610e06578160200160208202803683370190505b5094508067ffffffffffffffff811115610e3057634e487b7160e01b600052604160045260246000fd5b604051908082528060200260200182016040528015610e6357816020015b6060815260200190600190039081610e4e5790505b5093508067ffffffffffffffff811115610e8d57634e487b7160e01b600052604160045260246000fd5b604051908082528060200260200182016040528015610ec057816020015b6060815260200190600190039081610eab5790505b5092508067ffffffffffffffff811115610eea57634e487b7160e01b600052604160045260246000fd5b604051908082528060200260200182016040528015610f13578160200160208202803683370190505b50915060005b8181101561113657600060148281548110610f4457634e487b7160e01b600052603260045260246000fd5b9060005260206000200160009054906101000a90046001600160a01b0316905080878381518110610f8557634e487b7160e01b600052603260045260246000fd5b60200260200101906001600160a01b031690816001600160a01b031681525050806001600160a01b03166306fdde036040518163ffffffff1660e01b815260040160006040518083038186803b158015610fde57600080fd5b505afa158015610ff2573d6000803e3d6000fd5b505050506040513d6000823e601f3d908101601f1916820160405261101a919081019061260f565b86838151811061103a57634e487b7160e01b600052603260045260246000fd5b6020026020010181905250806001600160a01b03166395d89b416040518163ffffffff1660e01b815260040160006040518083038186803b15801561107e57600080fd5b505afa158015611092573d6000803e3d6000fd5b505050506040513d6000823e601f3d908101601f191682016040526110ba919081019061260f565b8583815181106110da57634e487b7160e01b600052603260045260246000fd5b60200260200101819052506110ee81611480565b84838151811061110e57634e487b7160e01b600052603260045260246000fd5b63ffffffff90921660209283029190910190910152508061112e81612cd9565b915050610f19565b505090919293565b6000546001600160a01b031633146111685760405162461bcd60e51b8152600401610b1e906129fe565b6008805461ffff909216600160e01b0261ffff60e01b19909216919091179055565b6000611194611f8a565b6001600160701b0316600c546111aa9190612b63565b905090565b600f54600454600854600c54600d54600e546010805460609788976000978897889788978897889788978897889788979496600b96939563ffffffff600160a01b94859004811696948404811695600160c01b850482169561ffff600160e01b9687900416959394936001600160701b0380841694600160701b8504909116939190910416908c9061124090612c9e565b80601f016020809104026020016040519081016040528092919081815260200182805461126c90612c9e565b80156112b95780601f1061128e576101008083540402835291602001916112b9565b820191906000526020600020905b81548152906001019060200180831161129c57829003601f168201915b50505050509b508a80546112cc90612c9e565b80601f01602080910402602001604051908101604052809291908181526020018280546112f890612c9e565b80156113455780601f1061131a57610100808354040283529160200191611345565b820191906000526020600020905b81548152906001019060200180831161132857829003601f168201915b50505050509a509b509b509b509b509b509b509b509b509b509b509b509b50909192939495969798999a9b565b6000546001600160a01b0316331461139c5760405162461bcd60e51b8152600401610b1e906129fe565b6001600160a01b0381166113c25760405162461bcd60e51b8152600401610b1e906129d8565b600780546001600160a01b0319166001600160a01b0392909216919091179055565b6000546001600160a01b0316331461140e5760405162461bcd60e51b8152600401610b1e906129fe565b6001600160a01b0381166114345760405162461bcd60e51b8152600401610b1e906129d8565b600580546001600160a01b0319166001600160a01b0392909216919091179055565b6001600160a01b0316600090815260136020526040902054600160e01b900463ffffffff16151590565b6001600160a01b0316600090815260136020526040902054600160e01b900463ffffffff1690565b6000546001600160a01b031633146114d25760405162461bcd60e51b8152600401610b1e906129fe565b826114dc81611456565b6114f85760405162461bcd60e51b8152600401610b1e90612a33565b8163ffffffff168363ffffffff1611156115485760405162461bcd60e51b8152602060048201526011602482015270496e76616c6964206475726174696f6e7360781b6044820152606401610b1e565b506001600160a01b03929092166000908152601360205260409020600101805467ffffffffffffffff60a01b1916600160a01b63ffffffff9384160263ffffffff60c01b191617600160c01b9290931691909102919091179055565b6000546001600160a01b031633146115ce5760405162461bcd60e51b8152600401610b1e906129fe565b6001600160a01b0381166115f45760405162461bcd60e51b8152600401610b1e906129d8565b600880546001600160a01b0319166001600160a01b0392909216919091179055565b6000546001600160a01b031633146116405760405162461bcd60e51b8152600401610b1e906129fe565b61164981611ff2565b50565b6000546001600160a01b031633146116765760405162461bcd60e51b8152600401610b1e906129fe565b611682600b838361220a565b505050565b6001600160a01b0382166000908152601360205260408120600181015463ffffffff808516600160a01b90920416118015906116d85750600181015463ffffffff600160c01b909104811690841611155b949350505050565b6000600d546116ed61118a565b6111aa9190612c3e565b6000546001600160a01b031633146117215760405162461bcd60e51b8152600401610b1e906129fe565b6001600160a01b0381166117475760405162461bcd60e51b8152600401610b1e906129d8565b600680546001600160a01b0319166001600160a01b0392909216919091179055565b6000546001600160a01b031633146117935760405162461bcd60e51b8152600401610b1e906129fe565b60085463ffffffff808316600160a01b9092041611156117ed5760405162461bcd60e51b8152602060048201526015602482015274496e76616c696420677261636520706572696f647360581b6044820152606401610b1e565b6008805463ffffffff909216600160c01b0263ffffffff60c01b19909216919091179055565b60606014805480602002602001604051908101604052809291908181526020018280548015610ac757602002820191906000526020600020905b81546001600160a01b0316815260019091019060200180831161184d575050505050905090565b6000546001600160a01b0316331461189e5760405162461bcd60e51b8152600401610b1e906129fe565b6001600160a01b0381166118c45760405162461bcd60e51b8152600401610b1e906129d8565b61164981611e73565b6000546001600160a01b031633146118f75760405162461bcd60e51b8152600401610b1e906129fe565b8161190181611456565b61191d5760405162461bcd60e51b8152600401610b1e90612a33565b6116828383611dd3565b6000546001600160a01b0316156119925760405162461bcd60e51b815260206004820152602960248201527f496e697469616c697a61626c654f776e61626c653a20616c726561647920696e6044820152681a5d1a585b1a5e995960ba1b6064820152608401610b1e565b6001600160a01b0381166119fc5760405162461bcd60e51b815260206004820152602b60248201527f496e697469616c697a61626c654f776e61626c653a20696e76616c696420696e60448201526a34ba34b0b61037bbb732b960a91b6064820152608401610b1e565b600080546001600160a01b0319166001600160a01b03831690811782556040519091907f8be0079c531659141344cd1fd0a4f28419497f9722a3daafe3b4186f6b6457e0908290a350565b60108054611a5490612c9e565b159050611a995760405162461bcd60e51b8152602060048201526013602482015272105b1c9958591e481a5b9a5d1a585b1a5e9959606a1b6044820152606401610b1e565b611aa281611927565b8551611ab590601090602089019061228e565b50611ac2600b868661220a565b50600580546001600160a01b03199081166001600160a01b03958616179091556006805482169385169390931790925560088054831691909316908117909255600780549091169091179055505050565b611b3760405180606001604052806000815260200160008152602001600081525090565b50600090815260126020908152604091829020825160608101845281548152600182015492810192909252600201549181019190915290565b6000546001600160a01b03163314611b9a5760405162461bcd60e51b8152600401610b1e906129fe565b6004805463ffffffff909216600160a01b0263ffffffff60a01b19909216919091179055565b6000546001600160a01b03163314611bea5760405162461bcd60e51b8152600401610b1e906129fe565b6001600160a01b038116611c4f5760405162461bcd60e51b815260206004820152602660248201527f4f776e61626c653a206e6577206f776e657220697320746865207a65726f206160448201526564647265737360d01b6064820152608401610b1e565b600080546040516001600160a01b03808516939216917f8be0079c531659141344cd1fd0a4f28419497f9722a3daafe3b4186f6b6457e091a3600080546001600160a01b0319166001600160a01b0392909216919091179055565b6001600160a01b038116600090815260096020526040812054611cd190600190810b612bd1565b92915050565b6000546001600160a01b03163314611d015760405162461bcd60e51b8152600401610b1e906129fe565b83611d0b81611456565b611d275760405162461bcd60e51b8152600401610b1e90612a33565b6001600160a01b038316611d725760405162461bcd60e51b815260206004820152601260248201527124b73b30b634b2102130b9b2902a37b5b2b760711b6044820152606401610b1e565b506001600160a01b0393841660009081526013602052604090208054600182018054949096166001600160a01b0319909416939093179094556001600160701b03908116600160701b026001600160e01b0319909216921691909117179055565b61138861ffff82161115611e375760405162461bcd60e51b815260206004820152602560248201527f4d6178696d756d2073657276696365206665652070657263656e7420746872656044820152641cda1bdb1960da1b6064820152608401610b1e565b6001600160a01b039091166000908152601360205260409020600101805461ffff909216600160e01b0261ffff60e01b19909216919091179055565b6001600160a01b038116600090815260096020526040902054600190810b900b611f0b57600a8054600180820183557fc65a7bb8d6351c1cf70c95a316cc6a92839c986682d98bc35f958f4883f9d2a890910180546001600160a01b0319166001600160a01b039490941693841790559054600092835260096020526040909220805461ffff191661ffff9390920b92909216179055565b6001600160a01b038116600090815260096020526040812054600190810b900b1215611649576001600160a01b038116600090815260096020526040902054611f569060010b612d17565b6001600160a01b0382166000908152600960205260409020805460019290920b61ffff1661ffff1990921691909117905550565b600e54600090611fd59063ffffffff600160e01b82041690611fbf906001600160701b0380821691600160701b900416612c16565b600454600160a01b900463ffffffff1642612099565b600e546111aa9190600160701b90046001600160701b0316612c16565b6001600160a01b038116600090815260096020526040902054600190810b900b61204e5760405162461bcd60e51b815260206004820152600d60248201526c24b73b30b634b2103a37b5b2b760991b6044820152606401610b1e565b6001600160a01b038116600090815260096020526040812054600190810b900b1315611649576001600160a01b038116600090815260096020526040902054611f569060010b612d17565b60008463ffffffff168263ffffffff1610156120e85760405162461bcd60e51b815260206004820152600e60248201526d125b9d985b1a59081c195c9a5bd960921b6044820152606401610b1e565b6120f28583612c55565b91506120fe8383612b8f565b63ffffffff16846001600160701b0316901c9350828261211e9190612cf4565b915063ffffffff8216158061213a57506001600160701b038416155b156121465750826116d8565b60006001600160701b0385168163ffffffff8087169061217a90871671b17217f7d1cf79abc9e3b39803f2f6af40f3612bb2565b6121849190612b7b565b9050600160901b5b82156121fd5761219c8385612b63565b9350806121a98385612bb2565b6121b39190612b7b565b92506121c3600160901b82612b63565b90506121cf8385612c3e565b9350806121dc8385612bb2565b6121e69190612b7b565b92506121f6600160901b82612b63565b905061218c565b5091979650505050505050565b82805461221690612c9e565b90600052602060002090601f016020900481019282612238576000855561227e565b82601f106122515782800160ff1982351617855561227e565b8280016001018555821561227e579182015b8281111561227e578235825591602001919060010190612263565b5061228a929150612302565b5090565b82805461229a90612c9e565b90600052602060002090601f0160209004810192826122bc576000855561227e565b82601f106122d557805160ff191683800117855561227e565b8280016001018555821561227e579182015b8281111561227e5782518255916020019190600101906122e7565b5b8082111561228a5760008155600101612303565b803561232281612d79565b919050565b60008083601f840112612338578081fd5b50813567ffffffffffffffff81111561234f578182fd5b6020830191508360208260051b850101111561236a57600080fd5b9250929050565b60008083601f840112612382578182fd5b50813567ffffffffffffffff811115612399578182fd5b60208301915083602082850101111561236a57600080fd5b80356001600160701b038116811461232257600080fd5b803561ffff8116811461232257600080fd5b803563ffffffff8116811461232257600080fd5b6000602082840312156123ff578081fd5b813561240a81612d79565b9392505050565b60008060008060808587031215612426578283fd5b843561243181612d79565b9350602085013561244181612d79565b9250604085013561245181612d79565b9150606085013561246181612d79565b939692955090935050565b60008060008060408587031215612481578384fd5b843567ffffffffffffffff80821115612498578586fd5b6124a488838901612327565b909650945060208701359150808211156124bc578384fd5b506124c987828801612327565b95989497509550505050565b600080600080608085870312156124ea578384fd5b84356124f581612d79565b9350612503602086016123b1565b9250604085013561251381612d79565b9150612521606086016123b1565b905092959194509250565b6000806040838503121561253e578182fd5b823561254981612d79565b9150612557602084016123c8565b90509250929050565b60008060408385031215612572578182fd5b823561257d81612d79565b9150612557602084016123da565b60008060006060848603121561259f578081fd5b83356125aa81612d79565b92506125b8602085016123da565b91506125c6604085016123da565b90509250925092565b600080602083850312156125e1578182fd5b823567ffffffffffffffff8111156125f7578283fd5b61260385828601612371565b90969095509350505050565b600060208284031215612620578081fd5b815167ffffffffffffffff811115612636578182fd5b8201601f81018413612646578182fd5b805161265961265482612b3b565b612b0a565b81815285602083850101111561266d578384fd5b61267e826020830160208601612c72565b95945050505050565b60008060008060008060a0878903121561269f578384fd5b863567ffffffffffffffff808211156126b6578586fd5b818901915089601f8301126126c9578586fd5b81356126d761265482612b3b565b8181528b60208386010111156126eb578788fd5b81602085016020830137876020838301015280995050506020890135915080821115612715578586fd5b5061272289828a01612371565b9096509450612735905060408801612317565b925061274360608801612317565b915061275160808801612317565b90509295509295509295565b60006020828403121561276e578081fd5b61240a826123c8565b600060208284031215612788578081fd5b5035919050565b6000602082840312156127a0578081fd5b61240a826123da565b600081518084526020808501808196508360051b81019150828601855b858110156121fd5782840389526127de8483516127f0565b988501989350908401906001016127c6565b60008151808452612808816020860160208601612c72565b601f01601f19169290920160200192915050565b6080808252855190820181905260009060209060a0840190828901845b8281101561285e5781516001600160a01b031684529284019290840190600101612839565b5050508381038285015261287281886127a9565b9050838103604085015261288681876127a9565b84810360608601528551808252838701925090830190845b818110156128c057835163ffffffff168352928401929184019160010161289e565b50909998505050505050505050565b6020808252825182820181905260009190848201906040850190845b818110156129105783516001600160a01b0316835292840192918401916001016128eb565b50909695505050505050565b60208152600061240a60208301846127f0565b6101808152600061294461018083018f6127f0565b8281036020840152612956818f6127f0565b9150508b604083015263ffffffff808c166060840152808b166080840152808a1660a08401525061ffff881660c08301528660e0830152856101008301526001600160701b0385166101208301526129ba6101408301856001600160701b03169052565b63ffffffff83166101608301529d9c50505050505050505050505050565b6020808252600c908201526b5a65726f206164647265737360a01b604082015260600190565b6020808252818101527f4f776e61626c653a2063616c6c6572206973206e6f7420746865206f776e6572604082015260600190565b6020808252601290820152712ab735b737bbb7102837bbb2b92a37b5b2b760711b604082015260600190565b6000610100820190506001600160701b03835116825261ffff6020840151166020830152604083015163ffffffff808216604085015280606086015116606085015250506080830151612aba608084018263ffffffff169052565b5060a0830151612ad260a084018263ffffffff169052565b5060c0830151612aed60c08401826001600160701b03169052565b5060e0830151612b0360e084018261ffff169052565b5092915050565b604051601f8201601f1916810167ffffffffffffffff81118282101715612b3357612b33612d63565b604052919050565b600067ffffffffffffffff821115612b5557612b55612d63565b50601f01601f191660200190565b60008219821115612b7657612b76612d37565b500190565b600082612b8a57612b8a612d4d565b500490565b600063ffffffff80841680612ba657612ba6612d4d565b92169190910492915050565b6000816000190483118215151615612bcc57612bcc612d37565b500290565b60008160010b8360010b82811281617fff1901831281151615612bf657612bf6612d37565b81617fff018313811615612c0c57612c0c612d37565b5090039392505050565b60006001600160701b0383811690831681811015612c3657612c36612d37565b039392505050565b600082821015612c5057612c50612d37565b500390565b600063ffffffff83811690831681811015612c3657612c36612d37565b60005b83811015612c8d578181015183820152602001612c75565b83811115610da45750506000910152565b600181811c90821680612cb257607f821691505b60208210811415612cd357634e487b7160e01b600052602260045260246000fd5b50919050565b6000600019821415612ced57612ced612d37565b5060010190565b600063ffffffff80841680612d0b57612d0b612d4d565b92169190910692915050565b60008160010b617fff19811415612d3057612d30612d37565b9003919050565b634e487b7160e01b600052601160045260246000fd5b634e487b7160e01b600052601260045260246000fd5b634e487b7160e01b600052604160045260246000fd5b6001600160a01b038116811461164957600080fdfea2646970667358221220efbe5cecde59ffa1678f318db5f390c97b7e42c71cc089075ca041be42f18ac164736f6c63430008040033",
  "linkReferences": {},
  "deployedLinkReferences": {}
}