{
  "_format": "hh-sol-artifact-1",
  "contractName": "EnterpriseStorage",
  "sourceName": "contracts/EnterpriseStorage.sol",
  "abi": [
    {
      "anonymous": false,
      "inputs": [
        {
          "indexed": true,
          "internalType": "address",
          "name": "previousOwner",
          "type": "address"
        },
        {
          "indexed": true,
          "internalType": "address",
          "name": "newOwner",
          "type": "address"
        }
      ],
      "name": "OwnershipTransferred",
      "type": "event"
    },
    {
      "inputs": [
        {
          "internalType": "address",
          "name": "token",
          "type": "address"
        }
      ],
      "name": "disablePaymentToken",
      "outputs": [],
      "stateMutability": "nonpayable",
      "type": "function"
    },
    {
      "inputs": [
        {
          "internalType": "address",
          "name": "token",
          "type": "address"
        }
      ],
      "name": "enablePaymentToken",
      "outputs": [],
      "stateMutability": "nonpayable",
      "type": "function"
    },
    {
      "inputs": [],
      "name": "getAvailableReserve",
      "outputs": [
        {
          "internalType": "uint256",
          "name": "",
          "type": "uint256"
        }
      ],
      "stateMutability": "view",
      "type": "function"
    },
    {
      "inputs": [],
      "name": "getBaseUri",
      "outputs": [
        {
          "internalType": "string",
          "name": "",
          "type": "string"
        }
      ],
      "stateMutability": "view",
      "type": "function"
    },
    {
      "inputs": [],
      "name": "getBorrowToken",
      "outputs": [
        {
          "internalType": "contract IBorrowToken",
          "name": "",
          "type": "address"
        }
      ],
      "stateMutability": "view",
      "type": "function"
    },
    {
      "inputs": [],
      "name": "getBorrowerLoanReturnGracePeriod",
      "outputs": [
        {
          "internalType": "uint32",
          "name": "",
          "type": "uint32"
        }
      ],
      "stateMutability": "view",
      "type": "function"
    },
    {
      "inputs": [],
      "name": "getConverter",
      "outputs": [
        {
          "internalType": "contract IConverter",
          "name": "",
          "type": "address"
        }
      ],
      "stateMutability": "view",
      "type": "function"
    },
    {
      "inputs": [],
      "name": "getEnterpriseCollector",
      "outputs": [
        {
          "internalType": "address",
          "name": "",
          "type": "address"
        }
      ],
      "stateMutability": "view",
      "type": "function"
    },
    {
      "inputs": [],
      "name": "getEnterpriseLoanCollectGracePeriod",
      "outputs": [
        {
          "internalType": "uint32",
          "name": "",
          "type": "uint32"
        }
      ],
      "stateMutability": "view",
      "type": "function"
    },
    {
      "inputs": [],
      "name": "getEnterpriseVault",
      "outputs": [
        {
          "internalType": "address",
          "name": "",
          "type": "address"
        }
      ],
      "stateMutability": "view",
      "type": "function"
    },
    {
      "inputs": [],
      "name": "getGCFeePercent",
      "outputs": [
        {
          "internalType": "uint16",
          "name": "",
          "type": "uint16"
        }
      ],
      "stateMutability": "view",
      "type": "function"
    },
    {
      "inputs": [],
      "name": "getInfo",
      "outputs": [
        {
          "internalType": "uint256",
          "name": "reserve",
          "type": "uint256"
        },
        {
          "internalType": "uint256",
          "name": "usedReserve",
          "type": "uint256"
        },
        {
          "internalType": "uint256",
          "name": "totalShares",
          "type": "uint256"
        },
        {
          "internalType": "string",
          "name": "name",
          "type": "string"
        }
      ],
      "stateMutability": "view",
      "type": "function"
    },
    {
      "inputs": [],
      "name": "getInterestToken",
      "outputs": [
        {
          "internalType": "contract IInterestToken",
          "name": "",
          "type": "address"
        }
      ],
      "stateMutability": "view",
      "type": "function"
    },
    {
      "inputs": [
        {
          "internalType": "uint256",
          "name": "tokenId",
          "type": "uint256"
        }
      ],
      "name": "getLiquidityInfo",
      "outputs": [
        {
          "components": [
            {
              "internalType": "uint256",
              "name": "amount",
              "type": "uint256"
            },
            {
              "internalType": "uint256",
              "name": "shares",
              "type": "uint256"
            },
            {
              "internalType": "uint256",
              "name": "block",
              "type": "uint256"
            }
          ],
          "internalType": "struct EnterpriseStorage.LiquidityInfo",
          "name": "",
          "type": "tuple"
        }
      ],
      "stateMutability": "view",
      "type": "function"
    },
    {
      "inputs": [],
      "name": "getLiquidityToken",
      "outputs": [
        {
          "internalType": "contract IERC20Metadata",
          "name": "",
          "type": "address"
        }
      ],
      "stateMutability": "view",
      "type": "function"
    },
    {
      "inputs": [],
      "name": "getLoanCostEstimator",
      "outputs": [
        {
          "internalType": "contract IEstimator",
          "name": "",
          "type": "address"
        }
      ],
      "stateMutability": "view",
      "type": "function"
    },
    {
      "inputs": [
        {
          "internalType": "uint256",
          "name": "tokenId",
          "type": "uint256"
        }
      ],
      "name": "getLoanInfo",
      "outputs": [
        {
          "components": [
            {
              "internalType": "uint112",
              "name": "amount",
              "type": "uint112"
            },
            {
              "internalType": "uint16",
              "name": "powerTokenIndex",
              "type": "uint16"
            },
            {
              "internalType": "uint32",
              "name": "borrowingTime",
              "type": "uint32"
            },
            {
              "internalType": "uint32",
              "name": "maturityTime",
              "type": "uint32"
            },
            {
              "internalType": "uint32",
              "name": "borrowerReturnGraceTime",
              "type": "uint32"
            },
            {
              "internalType": "uint32",
              "name": "enterpriseCollectGraceTime",
              "type": "uint32"
            },
            {
              "internalType": "uint112",
              "name": "gcFee",
              "type": "uint112"
            },
            {
              "internalType": "uint16",
              "name": "gcFeeTokenIndex",
              "type": "uint16"
            }
          ],
          "internalType": "struct EnterpriseStorage.LoanInfo",
          "name": "",
          "type": "tuple"
        }
      ],
      "stateMutability": "view",
      "type": "function"
    },
    {
      "inputs": [
        {
          "internalType": "uint256",
          "name": "index",
          "type": "uint256"
        }
      ],
      "name": "getPowerToken",
      "outputs": [
        {
          "internalType": "contract IPowerToken",
          "name": "",
          "type": "address"
        }
      ],
      "stateMutability": "view",
      "type": "function"
    },
    {
      "inputs": [],
      "name": "getPowerTokenImpl",
      "outputs": [
        {
          "internalType": "address",
          "name": "",
          "type": "address"
        }
      ],
      "stateMutability": "view",
      "type": "function"
    },
    {
      "inputs": [
        {
          "internalType": "contract IPowerToken",
          "name": "powerToken",
          "type": "address"
        }
      ],
      "name": "getPowerTokenIndex",
      "outputs": [
        {
          "internalType": "uint16",
          "name": "",
          "type": "uint16"
        }
      ],
      "stateMutability": "view",
      "type": "function"
    },
    {
      "inputs": [],
      "name": "getPowerTokens",
      "outputs": [
        {
          "internalType": "contract IPowerToken[]",
          "name": "",
          "type": "address[]"
        }
      ],
      "stateMutability": "view",
      "type": "function"
    },
    {
      "inputs": [],
      "name": "getPowerTokensInfo",
      "outputs": [
        {
          "internalType": "address[]",
          "name": "addresses",
          "type": "address[]"
        },
        {
          "internalType": "string[]",
          "name": "names",
          "type": "string[]"
        },
        {
          "internalType": "string[]",
          "name": "symbols",
          "type": "string[]"
        },
        {
          "internalType": "uint32[]",
          "name": "halfLifes",
          "type": "uint32[]"
        }
      ],
      "stateMutability": "view",
      "type": "function"
    },
    {
      "inputs": [],
      "name": "getReserve",
      "outputs": [
        {
          "internalType": "uint256",
          "name": "",
          "type": "uint256"
        }
      ],
      "stateMutability": "view",
      "type": "function"
    },
    {
      "inputs": [
        {
          "internalType": "contract IPowerToken",
          "name": "powerToken",
          "type": "address"
        }
      ],
      "name": "getServiceBaseRate",
      "outputs": [
        {
          "internalType": "uint112",
          "name": "",
          "type": "uint112"
        }
      ],
      "stateMutability": "view",
      "type": "function"
    },
    {
      "inputs": [
        {
          "internalType": "contract IPowerToken",
          "name": "powerToken",
          "type": "address"
        }
      ],
      "name": "getServiceBaseToken",
      "outputs": [
        {
          "internalType": "contract IERC20Metadata",
          "name": "",
          "type": "address"
        }
      ],
      "stateMutability": "view",
      "type": "function"
    },
    {
      "inputs": [
        {
          "internalType": "contract IPowerToken",
          "name": "powerToken",
          "type": "address"
        }
      ],
      "name": "getServiceFeePercent",
      "outputs": [
        {
          "internalType": "uint112",
          "name": "",
          "type": "uint112"
        }
      ],
      "stateMutability": "view",
      "type": "function"
    },
    {
      "inputs": [
        {
          "internalType": "contract IPowerToken",
          "name": "powerToken",
          "type": "address"
        }
      ],
      "name": "getServiceHalfLife",
      "outputs": [
        {
          "internalType": "uint32",
          "name": "",
          "type": "uint32"
        }
      ],
      "stateMutability": "view",
      "type": "function"
    },
    {
      "inputs": [
        {
          "internalType": "contract IPowerToken",
          "name": "powerToken",
          "type": "address"
        }
      ],
      "name": "getServiceMaxLoanDuration",
      "outputs": [
        {
          "internalType": "uint32",
          "name": "",
          "type": "uint32"
        }
      ],
      "stateMutability": "view",
      "type": "function"
    },
    {
      "inputs": [
        {
          "internalType": "contract IPowerToken",
          "name": "powerToken",
          "type": "address"
        }
      ],
      "name": "getServiceMinGCFee",
      "outputs": [
        {
          "internalType": "uint112",
          "name": "",
          "type": "uint112"
        }
      ],
      "stateMutability": "view",
      "type": "function"
    },
    {
      "inputs": [
        {
          "internalType": "contract IPowerToken",
          "name": "powerToken",
          "type": "address"
        }
      ],
      "name": "getServiceMinLoanDuration",
      "outputs": [
        {
          "internalType": "uint32",
          "name": "",
          "type": "uint32"
        }
      ],
      "stateMutability": "view",
      "type": "function"
    },
    {
      "inputs": [],
      "name": "getUsedReserve",
      "outputs": [
        {
          "internalType": "uint256",
          "name": "",
          "type": "uint256"
        }
      ],
      "stateMutability": "view",
      "type": "function"
    },
    {
      "inputs": [
        {
          "internalType": "address",
          "name": "initialOwner",
          "type": "address"
        }
      ],
      "name": "initialize",
      "outputs": [],
      "stateMutability": "nonpayable",
      "type": "function"
    },
    {
      "inputs": [
        {
          "internalType": "string",
          "name": "enterpriseName",
          "type": "string"
        },
        {
          "internalType": "string",
          "name": "baseUri",
          "type": "string"
        },
        {
          "internalType": "contract IEstimator",
          "name": "estimator",
          "type": "address"
        },
        {
          "internalType": "contract IConverter",
          "name": "converter",
          "type": "address"
        },
        {
          "internalType": "address",
          "name": "owner",
          "type": "address"
        }
      ],
      "name": "initialize",
      "outputs": [],
      "stateMutability": "nonpayable",
      "type": "function"
    },
    {
      "inputs": [
        {
          "internalType": "address",
          "name": "powerTokenImpl",
          "type": "address"
        },
        {
          "internalType": "contract IERC20Metadata",
          "name": "liquidityToken",
          "type": "address"
        },
        {
          "internalType": "contract IInterestToken",
          "name": "interestToken",
          "type": "address"
        },
        {
          "internalType": "contract IBorrowToken",
          "name": "borrowToken",
          "type": "address"
        }
      ],
      "name": "initializeTokens",
      "outputs": [],
      "stateMutability": "nonpayable",
      "type": "function"
    },
    {
      "inputs": [
        {
          "internalType": "contract IPowerToken",
          "name": "powerToken",
          "type": "address"
        }
      ],
      "name": "isRegisteredPowerToken",
      "outputs": [
        {
          "internalType": "bool",
          "name": "",
          "type": "bool"
        }
      ],
      "stateMutability": "view",
      "type": "function"
    },
    {
      "inputs": [
        {
          "internalType": "contract IPowerToken",
          "name": "powerToken",
          "type": "address"
        },
        {
          "internalType": "uint32",
          "name": "duration",
          "type": "uint32"
        }
      ],
      "name": "isServiceAllowedLoanDuration",
      "outputs": [
        {
          "internalType": "bool",
          "name": "",
          "type": "bool"
        }
      ],
      "stateMutability": "view",
      "type": "function"
    },
    {
      "inputs": [
        {
          "internalType": "contract IERC20",
          "name": "token",
          "type": "address"
        }
      ],
      "name": "isSupportedPaymentToken",
      "outputs": [
        {
          "internalType": "bool",
          "name": "",
          "type": "bool"
        }
      ],
      "stateMutability": "view",
      "type": "function"
    },
    {
      "inputs": [],
      "name": "owner",
      "outputs": [
        {
          "internalType": "address",
          "name": "",
          "type": "address"
        }
      ],
      "stateMutability": "view",
      "type": "function"
    },
    {
      "inputs": [
        {
          "internalType": "contract IPowerToken[]",
          "name": "powerToken",
          "type": "address[]"
        },
        {
          "internalType": "uint16[]",
          "name": "newServiceFeePercent",
          "type": "uint16[]"
        }
      ],
      "name": "scheduleServiceFeePercentBatch",
      "outputs": [],
      "stateMutability": "nonpayable",
      "type": "function"
    },
    {
      "inputs": [
        {
          "internalType": "string",
          "name": "baseUri",
          "type": "string"
        }
      ],
      "name": "setBaseUri",
      "outputs": [],
      "stateMutability": "nonpayable",
      "type": "function"
    },
    {
      "inputs": [
        {
          "internalType": "uint32",
          "name": "newPeriod",
          "type": "uint32"
        }
      ],
      "name": "setBorrowerLoanReturnGracePeriod",
      "outputs": [],
      "stateMutability": "nonpayable",
      "type": "function"
    },
    {
      "inputs": [
        {
          "internalType": "contract IConverter",
          "name": "newConverter",
          "type": "address"
        }
      ],
      "name": "setConverter",
      "outputs": [],
      "stateMutability": "nonpayable",
      "type": "function"
    },
    {
      "inputs": [
        {
          "internalType": "address",
          "name": "newCollector",
          "type": "address"
        }
      ],
      "name": "setEnterpriseCollector",
      "outputs": [],
      "stateMutability": "nonpayable",
      "type": "function"
    },
    {
      "inputs": [
        {
          "internalType": "uint32",
          "name": "newPeriod",
          "type": "uint32"
        }
      ],
      "name": "setEnterpriseLoanCollectGracePeriod",
      "outputs": [],
      "stateMutability": "nonpayable",
      "type": "function"
    },
    {
      "inputs": [
        {
          "internalType": "address",
          "name": "newVault",
          "type": "address"
        }
      ],
      "name": "setEnterpriseVault",
      "outputs": [],
      "stateMutability": "nonpayable",
      "type": "function"
    },
    {
      "inputs": [
        {
          "internalType": "uint16",
          "name": "newGcFeePercent",
          "type": "uint16"
        }
      ],
      "name": "setGcFeePercent",
      "outputs": [],
      "stateMutability": "nonpayable",
      "type": "function"
    },
    {
      "inputs": [
        {
          "internalType": "contract IEstimator",
          "name": "newEstimator",
          "type": "address"
        }
      ],
      "name": "setLoanCostEstimator",
      "outputs": [],
      "stateMutability": "nonpayable",
      "type": "function"
    },
    {
      "inputs": [
        {
          "internalType": "contract IPowerToken",
          "name": "powerToken",
          "type": "address"
        },
        {
          "internalType": "uint112",
          "name": "baseRate",
          "type": "uint112"
        },
        {
          "internalType": "contract IERC20Metadata",
          "name": "baseToken",
          "type": "address"
        },
        {
          "internalType": "uint112",
          "name": "minGCFee",
          "type": "uint112"
        }
      ],
      "name": "setServiceBaseRate",
      "outputs": [],
      "stateMutability": "nonpayable",
      "type": "function"
    },
    {
      "inputs": [
        {
          "internalType": "contract IPowerToken",
          "name": "powerToken",
          "type": "address"
        },
        {
          "internalType": "uint16",
          "name": "newFeePercent",
          "type": "uint16"
        }
      ],
      "name": "setServiceFeePercent",
      "outputs": [],
      "stateMutability": "nonpayable",
      "type": "function"
    },
    {
      "inputs": [
        {
          "internalType": "contract IPowerToken",
          "name": "powerToken",
          "type": "address"
        },
        {
          "internalType": "uint32",
          "name": "minLoanDuration",
          "type": "uint32"
        },
        {
          "internalType": "uint32",
          "name": "maxLoanDuration",
          "type": "uint32"
        }
      ],
      "name": "setServiceLoanDurationLimits",
      "outputs": [],
      "stateMutability": "nonpayable",
      "type": "function"
    },
    {
      "inputs": [
        {
          "internalType": "uint256",
          "name": "index",
          "type": "uint256"
        }
      ],
      "name": "supportedPaymentTokens",
      "outputs": [
        {
          "internalType": "address",
          "name": "",
          "type": "address"
        }
      ],
      "stateMutability": "view",
      "type": "function"
    },
    {
      "inputs": [
        {
          "internalType": "contract IERC20",
          "name": "token",
          "type": "address"
        }
      ],
      "name": "supportedPaymentTokensIndex",
      "outputs": [
        {
          "internalType": "int16",
          "name": "",
          "type": "int16"
        }
      ],
      "stateMutability": "view",
      "type": "function"
    },
    {
      "inputs": [
        {
          "internalType": "address",
          "name": "newOwner",
          "type": "address"
        }
      ],
      "name": "transferOwnership",
      "outputs": [],
      "stateMutability": "nonpayable",
      "type": "function"
    }
  ],
  "bytecode": "0x608060405260088054600160a01b600160e01b031916650546000002a360a61b17905534801561002e57600080fd5b50612b9b8061003e6000396000f3fe608060405234801561001057600080fd5b50600436106103275760003560e01c806390f55edd116101b8578063c20aa9bc11610104578063e36eca0c116100a2578063f4e28f9a1161007c578063f4e28f9a14610912578063fc0915b11461094b578063fcb2884e1461095e578063fec0dea01461096657600080fd5b8063e36eca0c146108b3578063e9028683146108c6578063f2fde38b146108ff57600080fd5b8063cc284f7b116100de578063cc284f7b1461081f578063d1c8200714610832578063db0ed6a01461086b578063df57f2fa1461087e57600080fd5b8063c20aa9bc146107e8578063c4d66de8146107fb578063c93d0b921461080e57600080fd5b8063a554b26d11610171578063b406bf6d1161014b578063b406bf6d1461078b578063b56de97e146107ad578063b96266fa146107c0578063bfd84fb4146107d557600080fd5b8063a554b26d1461075f578063aebb504114610770578063b19337a41461077857600080fd5b806390f55edd146106eb57806396ea2975146106fe5780639c7aa7f814610711578063a0bcfc7f14610724578063a0efd11814610737578063a358426f1461074c57600080fd5b8063449497ec116102775780637791c42d1161023057806389035b611161020a57806389035b61146106a15780638d6d50c9146106b45780638da5cb5b146106c75780638e9fcf81146106d857600080fd5b80637791c42d146106595780638188d50d1461066a57806383b9a0091461069057600080fd5b8063449497ec146105c557806353c09124146105d857806359bf5d39146106075780635a9b0b891461061d57806362c1f38814610635578063644e44df1461064857600080fd5b806327623ddd116102e45780632fb2067f116102be5780632fb2067f146105465780633184fc64146105875780633d4df8971461059a5780633ff6fe87146105b257600080fd5b806327623ddd146104d45780632b39a0ac146104fa5780632e365ade1461053157600080fd5b8063041960581461032c5780630714012c1461035c5780630cac36b2146104535780630ea1dc9e146104685780632261b07f146104795780632457056e1461048a575b600080fd5b61033f61033a3660046125ce565b610977565b6040516001600160a01b0390911681526020015b60405180910390f35b61044661036a3660046125ce565b6040805161010081018252600080825260208201819052918101829052606081018290526080810182905260a0810182905260c0810182905260e08101919091525060009081526011602090815260409182902082516101008101845281546001600160701b038082168352600160701b80830461ffff90811696850196909652600160801b830463ffffffff90811697850197909752600160a01b830487166060850152600160c01b830487166080850152600160e01b90920490951660a083015260019092015493841660c082015292041660e082015290565b604051610353919061280d565b61045b6109b5565b6040516103539190612773565b6002546001600160a01b031661033f565b6006546001600160a01b031661033f565b6104bc610498366004612245565b6001600160a01b03166000908152601360205260409020546001600160701b031690565b6040516001600160701b039091168152602001610353565b6104e76104e2366004612245565b610a47565b60405160019190910b8152602001610353565b6104bc610508366004612245565b6001600160a01b0316600090815260136020526040902060010154600160e01b900461ffff1690565b61054461053f3660046125e6565b610a74565b005b610577610554366004612245565b6001600160a01b0316600090815260096020526040812054600190810b900b1390565b6040519015158152602001610353565b610544610595366004612268565b610b28565b6105a2610bd0565b6040516103539493929190612673565b6105446105c03660046122c3565b610f64565b6105446105d33660046125b4565b6110be565b61033f6105e6366004612245565b6001600160a01b039081166000908152601360205260409020600101541690565b61060f61110a565b604051908152602001610353565b61062561112f565b60405161035394939291906128b8565b610544610643366004612245565b6111db565b6001546001600160a01b031661033f565b6008546001600160a01b031661033f565b600854600160a01b900463ffffffff165b60405163ffffffff9091168152602001610353565b6004546001600160a01b031661033f565b6105776106af366004612245565b61124d565b61067b6106c2366004612245565b611277565b6000546001600160a01b031661033f565b6105446106e63660046123e2565b61129f565b6105446106f9366004612245565b61139b565b61033f61070c3660046125ce565b61140d565b61054461071f366004612245565b611430565b610544610732366004612426565b611466565b600854600160c01b900463ffffffff1661067b565b61057761075a3660046123b7565b6114a1565b6007546001600160a01b031661033f565b61060f6114fa565b610544610786366004612245565b611511565b600854600160e01b900461ffff165b60405161ffff9091168152602001610353565b6105446107bb3660046125e6565b611583565b6107c861162d565b6040516103539190612726565b6105446107e3366004612245565b61168e565b6105446107f6366004612383565b6116e7565b610544610809366004612245565b611741565b6003546001600160a01b031661033f565b61054461082d366004612245565b611861565b61067b610840366004612245565b6001600160a01b0316600090815260136020526040902060010154600160a01b900463ffffffff1690565b6105446108793660046124de565b6118d3565b61089161088c3660046125ce565b61199c565b6040805182518152602080840151908201529181015190820152606001610353565b61079a6108c1366004612245565b6119f9565b6104bc6108d4366004612245565b6001600160a01b0316600090815260136020526040902054600160701b90046001600160701b031690565b61054461090d366004612245565b611a51565b61067b610920366004612245565b6001600160a01b0316600090815260136020526040902060010154600160c01b900463ffffffff1690565b61054461095936600461232c565b611b3b565b600d5461060f565b6005546001600160a01b031661033f565b60006014828154811061099a57634e487b7160e01b600052603260045260246000fd5b6000918252602090912001546001600160a01b031692915050565b6060600b80546109c490612a7b565b80601f01602080910402602001604051908101604052809291908181526020018280546109f090612a7b565b8015610a3d5780601f10610a1257610100808354040283529160200191610a3d565b820191906000526020600020905b815481529060010190602001808311610a2057829003601f168201915b5050505050905090565b6001600160a01b038116600090815260096020526040812054610a6e90600190810b6129ae565b92915050565b6000546001600160a01b03163314610aa75760405162461bcd60e51b8152600401610a9e906127ac565b60405180910390fd5b60085463ffffffff600160c01b90910481169082161115610b025760405162461bcd60e51b8152602060048201526015602482015274496e76616c696420677261636520706572696f647360581b6044820152606401610a9e565b6008805463ffffffff909216600160a01b0263ffffffff60a01b19909216919091179055565b6004546001600160a01b031615610b775760405162461bcd60e51b8152602060048201526013602482015272105b1c9958591e481a5b9a5d1a585b1a5e9959606a1b6044820152606401610a9e565b600480546001600160a01b038087166001600160a01b03199283161790925560018054868416908316179055600280548584169083161790556003805492841692909116919091179055610bca83611c37565b50505050565b6014546060908190819081908067ffffffffffffffff811115610c0357634e487b7160e01b600052604160045260246000fd5b604051908082528060200260200182016040528015610c2c578160200160208202803683370190505b5094508067ffffffffffffffff811115610c5657634e487b7160e01b600052604160045260246000fd5b604051908082528060200260200182016040528015610c8957816020015b6060815260200190600190039081610c745790505b5093508067ffffffffffffffff811115610cb357634e487b7160e01b600052604160045260246000fd5b604051908082528060200260200182016040528015610ce657816020015b6060815260200190600190039081610cd15790505b5092508067ffffffffffffffff811115610d1057634e487b7160e01b600052604160045260246000fd5b604051908082528060200260200182016040528015610d39578160200160208202803683370190505b50915060005b81811015610f5c57600060148281548110610d6a57634e487b7160e01b600052603260045260246000fd5b9060005260206000200160009054906101000a90046001600160a01b0316905080878381518110610dab57634e487b7160e01b600052603260045260246000fd5b60200260200101906001600160a01b031690816001600160a01b031681525050806001600160a01b03166306fdde036040518163ffffffff1660e01b815260040160006040518083038186803b158015610e0457600080fd5b505afa158015610e18573d6000803e3d6000fd5b505050506040513d6000823e601f3d908101601f19168201604052610e409190810190612466565b868381518110610e6057634e487b7160e01b600052603260045260246000fd5b6020026020010181905250806001600160a01b03166395d89b416040518163ffffffff1660e01b815260040160006040518083038186803b158015610ea457600080fd5b505afa158015610eb8573d6000803e3d6000fd5b505050506040513d6000823e601f3d908101601f19168201604052610ee09190810190612466565b858381518110610f0057634e487b7160e01b600052603260045260246000fd5b6020026020010181905250610f1481611277565b848381518110610f3457634e487b7160e01b600052603260045260246000fd5b63ffffffff909216602092830291909101909101525080610f5481612ab0565b915050610d3f565b505090919293565b6000546001600160a01b03163314610f8e5760405162461bcd60e51b8152600401610a9e906127ac565b828114610fd45760405162461bcd60e51b8152602060048201526014602482015273092dcecc2d8d2c840c2e4e4c2f240d8cadccee8d60631b6044820152606401610a9e565b60005b838110156110b75761101785858381811061100257634e487b7160e01b600052603260045260246000fd5b90506020020160208101906106af9190612245565b6110335760405162461bcd60e51b8152600401610a9e906127e1565b6110a585858381811061105657634e487b7160e01b600052603260045260246000fd5b905060200201602081019061106b9190612245565b84848481811061108b57634e487b7160e01b600052603260045260246000fd5b90506020020160208101906110a091906125b4565b611d4e565b806110af81612ab0565b915050610fd7565b5050505050565b6000546001600160a01b031633146110e85760405162461bcd60e51b8152600401610a9e906127ac565b6008805461ffff909216600160e01b0261ffff60e01b19909216919091179055565b6000611114611dee565b6001600160701b0316600c5461112a9190612940565b905090565b60008060006060600c54600d54600f54601080805461114d90612a7b565b80601f016020809104026020016040519081016040528092919081815260200182805461117990612a7b565b80156111c65780601f1061119b576101008083540402835291602001916111c6565b820191906000526020600020905b8154815290600101906020018083116111a957829003601f168201915b50505050509050935093509350935090919293565b6000546001600160a01b031633146112055760405162461bcd60e51b8152600401610a9e906127ac565b6001600160a01b03811661122b5760405162461bcd60e51b8152600401610a9e90612786565b600780546001600160a01b0319166001600160a01b0392909216919091179055565b6001600160a01b0316600090815260136020526040902054600160e01b900463ffffffff16151590565b6001600160a01b0316600090815260136020526040902054600160e01b900463ffffffff1690565b6000546001600160a01b031633146112c95760405162461bcd60e51b8152600401610a9e906127ac565b826112d38161124d565b6112ef5760405162461bcd60e51b8152600401610a9e906127e1565b8163ffffffff168363ffffffff16111561133f5760405162461bcd60e51b8152602060048201526011602482015270496e76616c6964206475726174696f6e7360781b6044820152606401610a9e565b506001600160a01b03929092166000908152601360205260409020600101805467ffffffffffffffff60a01b1916600160a01b63ffffffff9384160263ffffffff60c01b191617600160c01b9290931691909102919091179055565b6000546001600160a01b031633146113c55760405162461bcd60e51b8152600401610a9e906127ac565b6001600160a01b0381166113eb5760405162461bcd60e51b8152600401610a9e90612786565b600880546001600160a01b0319166001600160a01b0392909216919091179055565b6000600a828154811061099a57634e487b7160e01b600052603260045260246000fd5b6000546001600160a01b0316331461145a5760405162461bcd60e51b8152600401610a9e906127ac565b61146381611e49565b50565b6000546001600160a01b031633146114905760405162461bcd60e51b8152600401610a9e906127ac565b61149c600b8383612061565b505050565b6001600160a01b0382166000908152601360205260408120600181015463ffffffff808516600160a01b90920416118015906114f25750600181015463ffffffff600160c01b909104811690841611155b949350505050565b6000600d5461150761110a565b61112a9190612a1b565b6000546001600160a01b0316331461153b5760405162461bcd60e51b8152600401610a9e906127ac565b6001600160a01b0381166115615760405162461bcd60e51b8152600401610a9e90612786565b600680546001600160a01b0319166001600160a01b0392909216919091179055565b6000546001600160a01b031633146115ad5760405162461bcd60e51b8152600401610a9e906127ac565b60085463ffffffff808316600160a01b9092041611156116075760405162461bcd60e51b8152602060048201526015602482015274496e76616c696420677261636520706572696f647360581b6044820152606401610a9e565b6008805463ffffffff909216600160c01b0263ffffffff60c01b19909216919091179055565b60606014805480602002602001604051908101604052809291908181526020018280548015610a3d57602002820191906000526020600020905b81546001600160a01b03168152600190910190602001808311611667575050505050905090565b6000546001600160a01b031633146116b85760405162461bcd60e51b8152600401610a9e906127ac565b6001600160a01b0381166116de5760405162461bcd60e51b8152600401610a9e90612786565b61146381611c37565b6000546001600160a01b031633146117115760405162461bcd60e51b8152600401610a9e906127ac565b8161171b8161124d565b6117375760405162461bcd60e51b8152600401610a9e906127e1565b61149c8383611d4e565b6000546001600160a01b0316156117ac5760405162461bcd60e51b815260206004820152602960248201527f496e697469616c697a61626c654f776e61626c653a20616c726561647920696e6044820152681a5d1a585b1a5e995960ba1b6064820152608401610a9e565b6001600160a01b0381166118165760405162461bcd60e51b815260206004820152602b60248201527f496e697469616c697a61626c654f776e61626c653a20696e76616c696420696e60448201526a34ba34b0b61037bbb732b960a91b6064820152608401610a9e565b600080546001600160a01b0319166001600160a01b03831690811782556040519091907f8be0079c531659141344cd1fd0a4f28419497f9722a3daafe3b4186f6b6457e0908290a350565b6000546001600160a01b0316331461188b5760405162461bcd60e51b8152600401610a9e906127ac565b6001600160a01b0381166118b15760405162461bcd60e51b8152600401610a9e90612786565b600580546001600160a01b0319166001600160a01b0392909216919091179055565b6002546001600160a01b0316156119225760405162461bcd60e51b8152602060048201526013602482015272105b1c9958591e481a5b9a5d1a585b1a5e9959606a1b6044820152606401610a9e565b61192b81611741565b855161193e9060109060208901906120e5565b5061194b600b8686612061565b50600580546001600160a01b03199081166001600160a01b03958616179091556006805482169385169390931790925560088054831691909316908117909255600780549091169091179055505050565b6119c060405180606001604052806000815260200160008152602001600081525090565b50600090815260126020908152604091829020825160608101845281548152600182015492810192909252600201549181019190915290565b600081611a058161124d565b611a215760405162461bcd60e51b8152600401610a9e906127e1565b6001600160a01b038316600090815260136020526040902060010154600160f01b900461ffff1691505b50919050565b6000546001600160a01b03163314611a7b5760405162461bcd60e51b8152600401610a9e906127ac565b6001600160a01b038116611ae05760405162461bcd60e51b815260206004820152602660248201527f4f776e61626c653a206e6577206f776e657220697320746865207a65726f206160448201526564647265737360d01b6064820152608401610a9e565b600080546040516001600160a01b03808516939216917f8be0079c531659141344cd1fd0a4f28419497f9722a3daafe3b4186f6b6457e091a3600080546001600160a01b0319166001600160a01b0392909216919091179055565b6000546001600160a01b03163314611b655760405162461bcd60e51b8152600401610a9e906127ac565b83611b6f8161124d565b611b8b5760405162461bcd60e51b8152600401610a9e906127e1565b6001600160a01b038316611bd65760405162461bcd60e51b815260206004820152601260248201527124b73b30b634b2102130b9b2902a37b5b2b760711b6044820152606401610a9e565b506001600160a01b0393841660009081526013602052604090208054600182018054949096166001600160a01b0319909416939093179094556001600160701b03908116600160701b026001600160e01b0319909216921691909117179055565b6001600160a01b038116600090815260096020526040902054600190810b900b611ccf57600a8054600180820183557fc65a7bb8d6351c1cf70c95a316cc6a92839c986682d98bc35f958f4883f9d2a890910180546001600160a01b0319166001600160a01b039490941693841790559054600092835260096020526040909220805461ffff191661ffff9390920b92909216179055565b6001600160a01b038116600090815260096020526040812054600190810b900b1215611463576001600160a01b038116600090815260096020526040902054611d1a9060010b612aee565b6001600160a01b0382166000908152600960205260409020805460019290920b61ffff1661ffff1990921691909117905550565b61138861ffff82161115611db25760405162461bcd60e51b815260206004820152602560248201527f4d6178696d756d2073657276696365206665652070657263656e7420746872656044820152641cda1bdb1960da1b6064820152608401610a9e565b6001600160a01b039091166000908152601360205260409020600101805461ffff909216600160e01b0261ffff60e01b19909216919091179055565b600e54600090611e2c9063ffffffff600160e01b82041690611e23906001600160701b0380821691600160701b9004166129f3565b61384042611ef0565b600e5461112a9190600160701b90046001600160701b03166129f3565b6001600160a01b038116600090815260096020526040902054600190810b900b611ea55760405162461bcd60e51b815260206004820152600d60248201526c24b73b30b634b2103a37b5b2b760991b6044820152606401610a9e565b6001600160a01b038116600090815260096020526040812054600190810b900b1315611463576001600160a01b038116600090815260096020526040902054611d1a9060010b612aee565b60008463ffffffff168263ffffffff161015611f3f5760405162461bcd60e51b815260206004820152600e60248201526d125b9d985b1a59081c195c9a5bd960921b6044820152606401610a9e565b611f498583612a32565b9150611f55838361296c565b63ffffffff16846001600160701b0316901c93508282611f759190612acb565b915063ffffffff82161580611f9157506001600160701b038416155b15611f9d5750826114f2565b60006001600160701b0385168163ffffffff80871690611fd190871671b17217f7d1cf79abc9e3b39803f2f6af40f361298f565b611fdb9190612958565b9050600160901b5b821561205457611ff38385612940565b935080612000838561298f565b61200a9190612958565b925061201a600160901b82612940565b90506120268385612a1b565b935080612033838561298f565b61203d9190612958565b925061204d600160901b82612940565b9050611fe3565b5091979650505050505050565b82805461206d90612a7b565b90600052602060002090601f01602090048101928261208f57600085556120d5565b82601f106120a85782800160ff198235161785556120d5565b828001600101855582156120d5579182015b828111156120d55782358255916020019190600101906120ba565b506120e1929150612159565b5090565b8280546120f190612a7b565b90600052602060002090601f01602090048101928261211357600085556120d5565b82601f1061212c57805160ff19168380011785556120d5565b828001600101855582156120d5579182015b828111156120d557825182559160200191906001019061213e565b5b808211156120e1576000815560010161215a565b803561217981612b50565b919050565b60008083601f84011261218f578081fd5b50813567ffffffffffffffff8111156121a6578182fd5b6020830191508360208260051b85010111156121c157600080fd5b9250929050565b60008083601f8401126121d9578182fd5b50813567ffffffffffffffff8111156121f0578182fd5b6020830191508360208285010111156121c157600080fd5b80356001600160701b038116811461217957600080fd5b803561ffff8116811461217957600080fd5b803563ffffffff8116811461217957600080fd5b600060208284031215612256578081fd5b813561226181612b50565b9392505050565b6000806000806080858703121561227d578283fd5b843561228881612b50565b9350602085013561229881612b50565b925060408501356122a881612b50565b915060608501356122b881612b50565b939692955090935050565b600080600080604085870312156122d8578384fd5b843567ffffffffffffffff808211156122ef578586fd5b6122fb8883890161217e565b90965094506020870135915080821115612313578384fd5b506123208782880161217e565b95989497509550505050565b60008060008060808587031215612341578384fd5b843561234c81612b50565b935061235a60208601612208565b9250604085013561236a81612b50565b915061237860608601612208565b905092959194509250565b60008060408385031215612395578182fd5b82356123a081612b50565b91506123ae6020840161221f565b90509250929050565b600080604083850312156123c9578182fd5b82356123d481612b50565b91506123ae60208401612231565b6000806000606084860312156123f6578081fd5b833561240181612b50565b925061240f60208501612231565b915061241d60408501612231565b90509250925092565b60008060208385031215612438578182fd5b823567ffffffffffffffff81111561244e578283fd5b61245a858286016121c8565b90969095509350505050565b600060208284031215612477578081fd5b815167ffffffffffffffff81111561248d578182fd5b8201601f8101841361249d578182fd5b80516124b06124ab82612918565b6128e7565b8181528560208385010111156124c4578384fd5b6124d5826020830160208601612a4f565b95945050505050565b60008060008060008060a087890312156124f6578384fd5b863567ffffffffffffffff8082111561250d578586fd5b818901915089601f830112612520578586fd5b813561252e6124ab82612918565b8181528b6020838601011115612542578788fd5b8160208501602083013787602083830101528099505050602089013591508082111561256c578586fd5b5061257989828a016121c8565b909650945061258c90506040880161216e565b925061259a6060880161216e565b91506125a86080880161216e565b90509295509295509295565b6000602082840312156125c5578081fd5b6122618261221f565b6000602082840312156125df578081fd5b5035919050565b6000602082840312156125f7578081fd5b61226182612231565b600081518084526020808501808196508360051b81019150828601855b85811015612054578284038952612635848351612647565b9885019893509084019060010161261d565b6000815180845261265f816020860160208601612a4f565b601f01601f19169290920160200192915050565b6080808252855190820181905260009060209060a0840190828901845b828110156126b55781516001600160a01b031684529284019290840190600101612690565b505050838103828501526126c98188612600565b905083810360408501526126dd8187612600565b84810360608601528551808252838701925090830190845b8181101561271757835163ffffffff16835292840192918401916001016126f5565b50909998505050505050505050565b6020808252825182820181905260009190848201906040850190845b818110156127675783516001600160a01b031683529284019291840191600101612742565b50909695505050505050565b6020815260006122616020830184612647565b6020808252600c908201526b5a65726f206164647265737360a01b604082015260600190565b6020808252818101527f4f776e61626c653a2063616c6c6572206973206e6f7420746865206f776e6572604082015260600190565b6020808252601290820152712ab735b737bbb7102837bbb2b92a37b5b2b760711b604082015260600190565b6000610100820190506001600160701b03835116825261ffff6020840151166020830152604083015163ffffffff808216604085015280606086015116606085015250506080830151612868608084018263ffffffff169052565b5060a083015161288060a084018263ffffffff169052565b5060c083015161289b60c08401826001600160701b03169052565b5060e08301516128b160e084018261ffff169052565b5092915050565b8481528360208201528260408201526080606082015260006128dd6080830184612647565b9695505050505050565b604051601f8201601f1916810167ffffffffffffffff8111828210171561291057612910612b3a565b604052919050565b600067ffffffffffffffff82111561293257612932612b3a565b50601f01601f191660200190565b6000821982111561295357612953612b0e565b500190565b60008261296757612967612b24565b500490565b600063ffffffff8084168061298357612983612b24565b92169190910492915050565b60008160001904831182151516156129a9576129a9612b0e565b500290565b60008160010b8360010b82811281617fff19018312811516156129d3576129d3612b0e565b81617fff0183138116156129e9576129e9612b0e565b5090039392505050565b60006001600160701b0383811690831681811015612a1357612a13612b0e565b039392505050565b600082821015612a2d57612a2d612b0e565b500390565b600063ffffffff83811690831681811015612a1357612a13612b0e565b60005b83811015612a6a578181015183820152602001612a52565b83811115610bca5750506000910152565b600181811c90821680612a8f57607f821691505b60208210811415611a4b57634e487b7160e01b600052602260045260246000fd5b6000600019821415612ac457612ac4612b0e565b5060010190565b600063ffffffff80841680612ae257612ae2612b24565b92169190910692915050565b60008160010b617fff19811415612b0757612b07612b0e565b9003919050565b634e487b7160e01b600052601160045260246000fd5b634e487b7160e01b600052601260045260246000fd5b634e487b7160e01b600052604160045260246000fd5b6001600160a01b038116811461146357600080fdfea26469706673582212209296b99483701a5859d7bc3a16f71606c83987ed30b5b2d1838bed15e191febe64736f6c63430008040033",
  "linkReferences": {},
  "deployedLinkReferences": {}
}