{
  "_format": "hh-sol-artifact-1",
  "contractName": "EnterpriseStorage",
  "sourceName": "contracts/EnterpriseStorage.sol",
  "abi": [
    {
      "anonymous": false,
      "inputs": [
        {
          "indexed": true,
          "internalType": "address",
          "name": "previousOwner",
          "type": "address"
        },
        {
          "indexed": true,
          "internalType": "address",
          "name": "newOwner",
          "type": "address"
        }
      ],
      "name": "OwnershipTransferred",
      "type": "event"
    },
    {
      "inputs": [
        {
          "internalType": "contract IPowerToken",
          "name": "powerToken",
          "type": "address"
        }
      ],
      "name": "allowPerpetualPowerTokenForever",
      "outputs": [],
      "stateMutability": "nonpayable",
      "type": "function"
    },
    {
      "inputs": [
        {
          "internalType": "address",
          "name": "token",
          "type": "address"
        }
      ],
      "name": "disablePaymentToken",
      "outputs": [],
      "stateMutability": "nonpayable",
      "type": "function"
    },
    {
      "inputs": [
        {
          "internalType": "address",
          "name": "token",
          "type": "address"
        }
      ],
      "name": "enablePaymentToken",
      "outputs": [],
      "stateMutability": "nonpayable",
      "type": "function"
    },
    {
      "inputs": [],
      "name": "getAvailableReserve",
      "outputs": [
        {
          "internalType": "uint256",
          "name": "",
          "type": "uint256"
        }
      ],
      "stateMutability": "view",
      "type": "function"
    },
    {
      "inputs": [],
      "name": "getBaseUri",
      "outputs": [
        {
          "internalType": "string",
          "name": "",
          "type": "string"
        }
      ],
      "stateMutability": "view",
      "type": "function"
    },
    {
      "inputs": [],
      "name": "getBorrowToken",
      "outputs": [
        {
          "internalType": "contract IBorrowToken",
          "name": "",
          "type": "address"
        }
      ],
      "stateMutability": "view",
      "type": "function"
    },
    {
      "inputs": [],
      "name": "getBorrowerLoanReturnGracePeriod",
      "outputs": [
        {
          "internalType": "uint32",
          "name": "",
          "type": "uint32"
        }
      ],
      "stateMutability": "view",
      "type": "function"
    },
    {
      "inputs": [],
      "name": "getConverter",
      "outputs": [
        {
          "internalType": "contract IConverter",
          "name": "",
          "type": "address"
        }
      ],
      "stateMutability": "view",
      "type": "function"
    },
    {
      "inputs": [],
      "name": "getEnterpriseCollector",
      "outputs": [
        {
          "internalType": "address",
          "name": "",
          "type": "address"
        }
      ],
      "stateMutability": "view",
      "type": "function"
    },
    {
      "inputs": [],
      "name": "getEnterpriseLoanCollectGracePeriod",
      "outputs": [
        {
          "internalType": "uint32",
          "name": "",
          "type": "uint32"
        }
      ],
      "stateMutability": "view",
      "type": "function"
    },
    {
      "inputs": [],
      "name": "getEnterpriseVault",
      "outputs": [
        {
          "internalType": "address",
          "name": "",
          "type": "address"
        }
      ],
      "stateMutability": "view",
      "type": "function"
    },
    {
      "inputs": [],
      "name": "getEstimator",
      "outputs": [
        {
          "internalType": "contract IEstimator",
          "name": "",
          "type": "address"
        }
      ],
      "stateMutability": "view",
      "type": "function"
    },
    {
      "inputs": [],
      "name": "getGCFeePercent",
      "outputs": [
        {
          "internalType": "uint16",
          "name": "",
          "type": "uint16"
        }
      ],
      "stateMutability": "view",
      "type": "function"
    },
    {
      "inputs": [],
      "name": "getInfo",
      "outputs": [
        {
          "internalType": "string",
          "name": "name",
          "type": "string"
        },
        {
          "internalType": "string",
          "name": "baseUri",
          "type": "string"
        },
        {
          "internalType": "uint256",
          "name": "totalShares",
          "type": "uint256"
        },
        {
          "internalType": "uint32",
          "name": "interestHalfLife",
          "type": "uint32"
        },
        {
          "internalType": "uint32",
          "name": "borrowerLoanReturnGracePeriod",
          "type": "uint32"
        },
        {
          "internalType": "uint32",
          "name": "enterpriseLoanCollectGracePeriod",
          "type": "uint32"
        },
        {
          "internalType": "uint16",
          "name": "gcFeePercent",
          "type": "uint16"
        },
        {
          "internalType": "uint256",
          "name": "fixedReserve",
          "type": "uint256"
        },
        {
          "internalType": "uint256",
          "name": "usedReserve",
          "type": "uint256"
        },
        {
          "internalType": "uint112",
          "name": "streamingReserve",
          "type": "uint112"
        },
        {
          "internalType": "uint112",
          "name": "streamingReserveTarget",
          "type": "uint112"
        },
        {
          "internalType": "uint32",
          "name": "streamingReserveUpdated",
          "type": "uint32"
        }
      ],
      "stateMutability": "view",
      "type": "function"
    },
    {
      "inputs": [],
      "name": "getInterestHalfLife",
      "outputs": [
        {
          "internalType": "uint32",
          "name": "",
          "type": "uint32"
        }
      ],
      "stateMutability": "view",
      "type": "function"
    },
    {
      "inputs": [],
      "name": "getInterestToken",
      "outputs": [
        {
          "internalType": "contract IInterestToken",
          "name": "",
          "type": "address"
        }
      ],
      "stateMutability": "view",
      "type": "function"
    },
    {
      "inputs": [
        {
          "internalType": "uint256",
          "name": "tokenId",
          "type": "uint256"
        }
      ],
      "name": "getLiquidityInfo",
      "outputs": [
        {
          "components": [
            {
              "internalType": "uint256",
              "name": "amount",
              "type": "uint256"
            },
            {
              "internalType": "uint256",
              "name": "shares",
              "type": "uint256"
            },
            {
              "internalType": "uint256",
              "name": "block",
              "type": "uint256"
            }
          ],
          "internalType": "struct EnterpriseStorage.LiquidityInfo",
          "name": "",
          "type": "tuple"
        }
      ],
      "stateMutability": "view",
      "type": "function"
    },
    {
      "inputs": [],
      "name": "getLiquidityToken",
      "outputs": [
        {
          "internalType": "contract IERC20Metadata",
          "name": "",
          "type": "address"
        }
      ],
      "stateMutability": "view",
      "type": "function"
    },
    {
      "inputs": [
        {
          "internalType": "uint256",
          "name": "tokenId",
          "type": "uint256"
        }
      ],
      "name": "getLoanInfo",
      "outputs": [
        {
          "components": [
            {
              "internalType": "uint112",
              "name": "amount",
              "type": "uint112"
            },
            {
              "internalType": "uint16",
              "name": "powerTokenIndex",
              "type": "uint16"
            },
            {
              "internalType": "uint32",
              "name": "borrowingTime",
              "type": "uint32"
            },
            {
              "internalType": "uint32",
              "name": "maturityTime",
              "type": "uint32"
            },
            {
              "internalType": "uint32",
              "name": "borrowerReturnGraceTime",
              "type": "uint32"
            },
            {
              "internalType": "uint32",
              "name": "enterpriseCollectGraceTime",
              "type": "uint32"
            },
            {
              "internalType": "uint112",
              "name": "gcFee",
              "type": "uint112"
            },
            {
              "internalType": "uint16",
              "name": "gcFeeTokenIndex",
              "type": "uint16"
            }
          ],
          "internalType": "struct EnterpriseStorage.LoanInfo",
          "name": "",
          "type": "tuple"
        }
      ],
      "stateMutability": "view",
      "type": "function"
    },
    {
      "inputs": [],
      "name": "getPowerTokens",
      "outputs": [
        {
          "internalType": "contract IPowerToken[]",
          "name": "",
          "type": "address[]"
        }
      ],
      "stateMutability": "view",
      "type": "function"
    },
    {
      "inputs": [],
      "name": "getProxyAdmin",
      "outputs": [
        {
          "internalType": "contract ProxyAdmin",
          "name": "",
          "type": "address"
        }
      ],
      "stateMutability": "view",
      "type": "function"
    },
    {
      "inputs": [],
      "name": "getReserve",
      "outputs": [
        {
          "internalType": "uint256",
          "name": "",
          "type": "uint256"
        }
      ],
      "stateMutability": "view",
      "type": "function"
    },
    {
      "inputs": [
        {
          "internalType": "contract IPowerToken",
          "name": "powerToken",
          "type": "address"
        }
      ],
      "name": "getService",
      "outputs": [
        {
          "internalType": "string",
          "name": "name",
          "type": "string"
        },
        {
          "internalType": "string",
          "name": "symbol",
          "type": "string"
        },
        {
          "components": [
            {
              "internalType": "uint112",
              "name": "baseRate",
              "type": "uint112"
            },
            {
              "internalType": "uint96",
              "name": "minGCFee",
              "type": "uint96"
            },
            {
              "internalType": "uint32",
              "name": "halfLife",
              "type": "uint32"
            },
            {
              "internalType": "uint16",
              "name": "index",
              "type": "uint16"
            },
            {
              "internalType": "contract IERC20Metadata",
              "name": "baseToken",
              "type": "address"
            },
            {
              "internalType": "uint32",
              "name": "minLoanDuration",
              "type": "uint32"
            },
            {
              "internalType": "uint32",
              "name": "maxLoanDuration",
              "type": "uint32"
            },
            {
              "internalType": "uint16",
              "name": "serviceFeePercent",
              "type": "uint16"
            },
            {
              "internalType": "bool",
              "name": "allowsPerpetual",
              "type": "bool"
            }
          ],
          "internalType": "struct EnterpriseStorage.ServiceConfig",
          "name": "config",
          "type": "tuple"
        }
      ],
      "stateMutability": "view",
      "type": "function"
    },
    {
      "inputs": [],
      "name": "getUsedReserve",
      "outputs": [
        {
          "internalType": "uint256",
          "name": "",
          "type": "uint256"
        }
      ],
      "stateMutability": "view",
      "type": "function"
    },
    {
      "inputs": [
        {
          "internalType": "address",
          "name": "initialOwner",
          "type": "address"
        }
      ],
      "name": "initialize",
      "outputs": [],
      "stateMutability": "nonpayable",
      "type": "function"
    },
    {
      "inputs": [
        {
          "internalType": "string",
          "name": "enterpriseName",
          "type": "string"
        },
        {
          "internalType": "string",
          "name": "baseUri",
          "type": "string"
        },
        {
          "internalType": "contract IEstimator",
          "name": "estimator",
          "type": "address"
        },
        {
          "internalType": "contract IConverter",
          "name": "converter",
          "type": "address"
        },
        {
          "internalType": "contract ProxyAdmin",
          "name": "proxyAdmin",
          "type": "address"
        },
        {
          "internalType": "address",
          "name": "owner",
          "type": "address"
        }
      ],
      "name": "initialize",
      "outputs": [],
      "stateMutability": "nonpayable",
      "type": "function"
    },
    {
      "inputs": [
        {
          "internalType": "contract IERC20Metadata",
          "name": "liquidityToken",
          "type": "address"
        },
        {
          "internalType": "contract IInterestToken",
          "name": "interestToken",
          "type": "address"
        },
        {
          "internalType": "contract IBorrowToken",
          "name": "borrowToken",
          "type": "address"
        }
      ],
      "name": "initializeTokens",
      "outputs": [],
      "stateMutability": "nonpayable",
      "type": "function"
    },
    {
      "inputs": [
        {
          "internalType": "contract IPowerToken",
          "name": "powerToken",
          "type": "address"
        }
      ],
      "name": "isRegisteredPowerToken",
      "outputs": [
        {
          "internalType": "bool",
          "name": "",
          "type": "bool"
        }
      ],
      "stateMutability": "view",
      "type": "function"
    },
    {
      "inputs": [
        {
          "internalType": "contract IPowerToken",
          "name": "powerToken",
          "type": "address"
        },
        {
          "internalType": "uint32",
          "name": "duration",
          "type": "uint32"
        }
      ],
      "name": "isServiceAllowedLoanDuration",
      "outputs": [
        {
          "internalType": "bool",
          "name": "",
          "type": "bool"
        }
      ],
      "stateMutability": "view",
      "type": "function"
    },
    {
      "inputs": [
        {
          "internalType": "contract IERC20",
          "name": "token",
          "type": "address"
        }
      ],
      "name": "isSupportedPaymentToken",
      "outputs": [
        {
          "internalType": "bool",
          "name": "",
          "type": "bool"
        }
      ],
      "stateMutability": "view",
      "type": "function"
    },
    {
      "inputs": [],
      "name": "owner",
      "outputs": [
        {
          "internalType": "address",
          "name": "",
          "type": "address"
        }
      ],
      "stateMutability": "view",
      "type": "function"
    },
    {
      "inputs": [
        {
          "internalType": "uint256",
          "name": "index",
          "type": "uint256"
        }
      ],
      "name": "paymentToken",
      "outputs": [
        {
          "internalType": "address",
          "name": "",
          "type": "address"
        }
      ],
      "stateMutability": "view",
      "type": "function"
    },
    {
      "inputs": [
        {
          "internalType": "contract IERC20",
          "name": "token",
          "type": "address"
        }
      ],
      "name": "paymentTokenIndex",
      "outputs": [
        {
          "internalType": "int16",
          "name": "",
          "type": "int16"
        }
      ],
      "stateMutability": "view",
      "type": "function"
    },
    {
      "inputs": [
        {
          "internalType": "string",
          "name": "baseUri",
          "type": "string"
        }
      ],
      "name": "setBaseUri",
      "outputs": [],
      "stateMutability": "nonpayable",
      "type": "function"
    },
    {
      "inputs": [
        {
          "internalType": "uint32",
          "name": "newPeriod",
          "type": "uint32"
        }
      ],
      "name": "setBorrowerLoanReturnGracePeriod",
      "outputs": [],
      "stateMutability": "nonpayable",
      "type": "function"
    },
    {
      "inputs": [
        {
          "internalType": "contract IConverter",
          "name": "newConverter",
          "type": "address"
        }
      ],
      "name": "setConverter",
      "outputs": [],
      "stateMutability": "nonpayable",
      "type": "function"
    },
    {
      "inputs": [
        {
          "internalType": "address",
          "name": "newCollector",
          "type": "address"
        }
      ],
      "name": "setEnterpriseCollector",
      "outputs": [],
      "stateMutability": "nonpayable",
      "type": "function"
    },
    {
      "inputs": [
        {
          "internalType": "uint32",
          "name": "newPeriod",
          "type": "uint32"
        }
      ],
      "name": "setEnterpriseLoanCollectGracePeriod",
      "outputs": [],
      "stateMutability": "nonpayable",
      "type": "function"
    },
    {
      "inputs": [
        {
          "internalType": "address",
          "name": "newVault",
          "type": "address"
        }
      ],
      "name": "setEnterpriseVault",
      "outputs": [],
      "stateMutability": "nonpayable",
      "type": "function"
    },
    {
      "inputs": [
        {
          "internalType": "contract IEstimator",
          "name": "newEstimator",
          "type": "address"
        }
      ],
      "name": "setEstimator",
      "outputs": [],
      "stateMutability": "nonpayable",
      "type": "function"
    },
    {
      "inputs": [
        {
          "internalType": "uint16",
          "name": "newGcFeePercent",
          "type": "uint16"
        }
      ],
      "name": "setGcFeePercent",
      "outputs": [],
      "stateMutability": "nonpayable",
      "type": "function"
    },
    {
      "inputs": [
        {
          "internalType": "uint32",
          "name": "interestHalfLife",
          "type": "uint32"
        }
      ],
      "name": "setInterestHalfLife",
      "outputs": [],
      "stateMutability": "nonpayable",
      "type": "function"
    },
    {
      "inputs": [
        {
          "internalType": "contract IPowerToken",
          "name": "powerToken",
          "type": "address"
        },
        {
          "internalType": "uint112",
          "name": "baseRate",
          "type": "uint112"
        },
        {
          "internalType": "contract IERC20Metadata",
          "name": "baseToken",
          "type": "address"
        },
        {
          "internalType": "uint96",
          "name": "minGCFee",
          "type": "uint96"
        }
      ],
      "name": "setServiceBaseRate",
      "outputs": [],
      "stateMutability": "nonpayable",
      "type": "function"
    },
    {
      "inputs": [
        {
          "internalType": "contract IPowerToken",
          "name": "powerToken",
          "type": "address"
        },
        {
          "internalType": "uint16",
          "name": "newServiceFeePercent",
          "type": "uint16"
        }
      ],
      "name": "setServiceFeePercent",
      "outputs": [],
      "stateMutability": "nonpayable",
      "type": "function"
    },
    {
      "inputs": [
        {
          "internalType": "contract IPowerToken",
          "name": "powerToken",
          "type": "address"
        },
        {
          "internalType": "uint32",
          "name": "minLoanDuration",
          "type": "uint32"
        },
        {
          "internalType": "uint32",
          "name": "maxLoanDuration",
          "type": "uint32"
        }
      ],
      "name": "setServiceLoanDurationLimits",
      "outputs": [],
      "stateMutability": "nonpayable",
      "type": "function"
    },
    {
      "inputs": [
        {
          "internalType": "address",
          "name": "newOwner",
          "type": "address"
        }
      ],
      "name": "transferOwnership",
      "outputs": [],
      "stateMutability": "nonpayable",
      "type": "function"
    },
    {
      "inputs": [
        {
          "internalType": "address",
          "name": "implementation",
          "type": "address"
        }
      ],
      "name": "upgradeBorrowToken",
      "outputs": [],
      "stateMutability": "nonpayable",
      "type": "function"
    },
    {
      "inputs": [
        {
          "internalType": "address",
          "name": "implementation",
          "type": "address"
        }
      ],
      "name": "upgradeEnterprise",
      "outputs": [],
      "stateMutability": "nonpayable",
      "type": "function"
    },
    {
      "inputs": [
        {
          "internalType": "address",
          "name": "implementation",
          "type": "address"
        }
      ],
      "name": "upgradeEstimator",
      "outputs": [],
      "stateMutability": "nonpayable",
      "type": "function"
    },
    {
      "inputs": [
        {
          "internalType": "address",
          "name": "implementation",
          "type": "address"
        }
      ],
      "name": "upgradeInterestToken",
      "outputs": [],
      "stateMutability": "nonpayable",
      "type": "function"
    },
    {
      "inputs": [
        {
          "internalType": "contract IPowerToken",
          "name": "powerToken",
          "type": "address"
        },
        {
          "internalType": "address",
          "name": "implementation",
          "type": "address"
        }
      ],
      "name": "upgradePowerToken",
      "outputs": [],
      "stateMutability": "nonpayable",
      "type": "function"
    }
  ],
  "bytecode": "0x608060405234801561001057600080fd5b50612e07806100206000396000f3fe608060405234801561001057600080fd5b50600436106102515760003560e01c80630714012c146102565780630cac36b2146103565780630e101b601461036b5780630ea1dc9e1461039657806315a52302146103a75780631b912384146103c95780632261b07f146103de5780632b2f6095146103ef5780632e365ade146104025780632fb2067f146104155780633759214814610456578063449497ec1461047c57806359bf5d391461048f5780635a9b0b89146104a557806362c1f388146104c5578063644e44df146104d85780637791c42d146104e95780637b024363146104fa5780637dcfeb731461050d5780637eda9ff8146105205780638188d50d1461053357806389035b61146105485780638b3240a01461055b5780638da5cb5b146105635780638e9fcf811461056b57806390f55edd1461057e5780639c7aa7f814610591578063a0bcfc7f146105a4578063a0efd118146105b7578063a358426f146105cc578063a554b26d146105df578063aebb5041146105f0578063b19337a4146105f8578063b406bf6d1461060b578063b56de97e1461062c578063b96266fa1461063f578063bf17088014610654578063bfd84fb414610665578063c1fc16d814610678578063c20aa9bc1461068b578063c22947841461069e578063c4d66de8146106b1578063c93d0b92146106c4578063df57f2fa146106d5578063e56f2fe41461070a578063edc1a6281461071d578063ef1f9f3914610730578063f2fde38b14610743578063f54133bb14610756578063fbac9a5514610769578063fcb2884e1461078f575b600080fd5b6103406102643660046128ca565b6040805161010081018252600080825260208201819052918101829052606081018290526080810182905260a0810182905260c0810182905260e08101919091525060009081526010602090815260409182902082516101008101845281546001600160701b038082168352600160701b80830461ffff90811696850196909652600160801b830463ffffffff90811697850197909752600160a01b830487166060850152600160c01b830487166080850152600160e01b90920490951660a083015260019092015493841660c082015292041660e082015290565b60405161034d9190612b1f565b60405180910390f35b61035e610797565b60405161034d919061298f565b61037e6103793660046128ca565b610829565b6040516001600160a01b03909116815260200161034d565b6001546001600160a01b031661037e565b6103ba6103b536600461255a565b610867565b60405161034d939291906129a2565b6103dc6103d736600461255a565b610a63565b005b6005546001600160a01b031661037e565b6103dc6103fd36600461255a565b610b28565b6103dc6104103660046128e2565b610baf565b61044661042336600461255a565b6001600160a01b0316600090815260086020526040812054600190810b900b1390565b604051901515815260200161034d565b600354600160a01b900463ffffffff165b60405163ffffffff909116815260200161034d565b6103dc61048a3660046128b0565b610c70565b610497610cde565b60405190815260200161034d565b6104ad610d03565b60405161034d9c9b9a99989796959493929190612a7c565b6103dc6104d336600461255a565b610ec6565b6000546001600160a01b031661037e565b6007546001600160a01b031661037e565b6103dc61050836600461255a565b610f75565b6103dc61051b3660046125ff565b610ffc565b6103dc61052e36600461255a565b611134565b600754600160a01b900463ffffffff16610467565b61044661055636600461255a565b6111e3565b61037e61120d565b61037e61122e565b6103dc6105793660046126cf565b611244565b6103dc61058c36600461255a565b611378565b6103dc61059f36600461255a565b611427565b6103dc6105b2366004612713565b61154e565b600754600160c01b900463ffffffff16610467565b6104466105da3660046126a4565b6115ab565b6006546001600160a01b031661037e565b610497611604565b6103dc61060636600461255a565b61161b565b600754600160e01b900461ffff1660405161ffff909116815260200161034d565b6103dc61063a3660046128e2565b6116ca565b61064761178a565b60405161034d9190612928565b6004546001600160a01b031661037e565b6103dc61067336600461255a565b6117eb565b6103dc61068636600461255a565b611881565b6103dc610699366004612670565b611902565b6103dc6106ac3660046125c7565b611a0f565b6103dc6106bf36600461255a565b611b0a565b6002546001600160a01b031661037e565b6106e86106e33660046128ca565b611bdf565b604080518251815260208084015190820152918101519082015260600161034d565b6103dc6107183660046127c9565b611c3c565b6103dc61072b3660046128e2565b611d6e565b6103dc61073e36600461257d565b611e1e565b6103dc61075136600461255a565b611ea8565b6103dc61076436600461255a565b611f99565b61077c61077736600461255a565b6120b8565b60405160019190910b815260200161034d565b600b54610497565b6060600f80546107a690612cd5565b80601f01602080910402602001604051908101604052809291908181526020018280546107d290612cd5565b801561081f5780601f106107f45761010080835404028352916020019161081f565b820191906000526020600020905b81548152906001019060200180831161080257829003601f168201915b5050505050905090565b60006009828154811061084c57634e487b7160e01b600052603260045260246000fd5b6000918252602090912001546001600160a01b031692915050565b604080516101208101825260008082526020820181905291810182905260608181018390526080820183905260a0820183905260c0820183905260e082018390526101008201929092528190836001600160a01b03166306fdde036040518163ffffffff1660e01b815260040160006040518083038186803b1580156108ec57600080fd5b505afa158015610900573d6000803e3d6000fd5b505050506040513d6000823e601f3d908101601f191682016040526109289190810190612752565b846001600160a01b03166395d89b416040518163ffffffff1660e01b815260040160006040518083038186803b15801561096157600080fd5b505afa158015610975573d6000803e3d6000fd5b505050506040513d6000823e601f3d908101601f1916820160405261099d9190810190612752565b6001600160a01b0395861660009081526012602090815260409182902082516101208101845281546001600160701b0381168252600160701b81046001600160601b031693820193909352600160d01b830463ffffffff90811694820194909452600160f01b9283900461ffff9081166060830152600190920154998a166080820152600160a01b8a04841660a0820152600160c01b8a0490931660c0840152600160e01b89041660e083015290960460ff161515610100870152909590949350915050565b33610a6c61122e565b6001600160a01b031614604051806040016040528060018152602001603360f81b81525090610ab75760405162461bcd60e51b8152600401610aae919061298f565b60405180910390fd5b50610ac061120d565b6004805460405163266a23b160e21b81526001600160a01b03938416936399a88ec493610af39390911691869101612975565b600060405180830381600087803b158015610b0d57600080fd5b505af1158015610b21573d6000803e3d6000fd5b5050505050565b33610b3161122e565b6001600160a01b031614604051806040016040528060018152602001603360f81b81525090610b735760405162461bcd60e51b8152600401610aae919061298f565b50610b7c61120d565b60015460405163266a23b160e21b81526001600160a01b03928316926399a88ec492610af3929116908590600401612975565b33610bb861122e565b6001600160a01b031614604051806040016040528060018152602001603360f81b81525090610bfa5760405162461bcd60e51b8152600401610aae919061298f565b506007546040805180820190915260028152610d8d60f21b60208201529063ffffffff600160c01b90910481169083161115610c495760405162461bcd60e51b8152600401610aae919061298f565b506007805463ffffffff909216600160a01b0263ffffffff60a01b19909216919091179055565b33610c7961122e565b6001600160a01b031614604051806040016040528060018152602001603360f81b81525090610cbb5760405162461bcd60e51b8152600401610aae919061298f565b506007805461ffff909216600160e01b0261ffff60e01b19909216919091179055565b6000610ce86120e5565b6001600160701b0316600a54610cfe9190612c09565b905090565b600d54600354600754600a54600b54600c54600e805460609788976000978897889788978897889788978897889788979496600f96939563ffffffff600160a01b94859004811696948404811695600160c01b850482169561ffff600160e01b9687900416959394936001600160701b0380841694600160701b8504909116939190910416908c90610d9490612cd5565b80601f0160208091040260200160405190810160405280929190818152602001828054610dc090612cd5565b8015610e0d5780601f10610de257610100808354040283529160200191610e0d565b820191906000526020600020905b815481529060010190602001808311610df057829003601f168201915b50505050509b508a8054610e2090612cd5565b80601f0160208091040260200160405190810160405280929190818152602001828054610e4c90612cd5565b8015610e995780601f10610e6e57610100808354040283529160200191610e99565b820191906000526020600020905b815481529060010190602001808311610e7c57829003601f168201915b50505050509a509b509b509b509b509b509b509b509b509b509b509b509b50909192939495969798999a9b565b33610ecf61122e565b6001600160a01b031614604051806040016040528060018152602001603360f81b81525090610f115760405162461bcd60e51b8152600401610aae919061298f565b50604080518082019091526002815261363160f01b60208201526001600160a01b038216610f525760405162461bcd60e51b8152600401610aae919061298f565b50600680546001600160a01b0319166001600160a01b0392909216919091179055565b33610f7e61122e565b6001600160a01b031614604051806040016040528060018152602001603360f81b81525090610fc05760405162461bcd60e51b8152600401610aae919061298f565b50610fc961120d565b60025460405163266a23b160e21b81526001600160a01b03928316926399a88ec492610af3929116908590600401612975565b3361100561122e565b6001600160a01b031614604051806040016040528060018152602001603360f81b815250906110475760405162461bcd60e51b8152600401610aae919061298f565b5083611052816111e3565b604051806040016040528060018152602001601b60f91b8152509061108a5760405162461bcd60e51b8152600401610aae919061298f565b5060408051808201909152600281526106c760f31b60208201526001600160a01b0384166110cb5760405162461bcd60e51b8152600401610aae919061298f565b50506001600160a01b0393841660009081526012602052604090208054600182018054949096166001600160a01b0319909416939093179094556001600160601b0316600160701b026001600160d01b03199091166001600160701b0390921691909117179055565b3361113d61122e565b6001600160a01b031614604051806040016040528060018152602001603360f81b8152509061117f5760405162461bcd60e51b8152600401610aae919061298f565b50604080518082019091526002815261036360f41b60208201526001600160a01b0382166111c05760405162461bcd60e51b8152600401610aae919061298f565b50600480546001600160a01b0319166001600160a01b0392909216919091179055565b6001600160a01b0316600090815260126020526040902054600160d01b900463ffffffff16151590565b6000600080516020612d928339815191525b546001600160a01b0316919050565b6000600080516020612d7283398151915261121f565b3361124d61122e565b6001600160a01b031614604051806040016040528060018152602001603360f81b8152509061128f5760405162461bcd60e51b8152600401610aae919061298f565b508261129a816111e3565b604051806040016040528060018152602001601b60f91b815250906112d25760405162461bcd60e51b8152600401610aae919061298f565b508163ffffffff168363ffffffff16111560405180604001604052806002815260200161363960f01b8152509061131c5760405162461bcd60e51b8152600401610aae919061298f565b50506001600160a01b039290921660009081526012602052604090206001018054600160a01b600160e01b031916600160a01b63ffffffff9384160263ffffffff60c01b191617600160c01b9290931691909102919091179055565b3361138161122e565b6001600160a01b031614604051806040016040528060018152602001603360f81b815250906113c35760405162461bcd60e51b8152600401610aae919061298f565b506040805180820190915260028152611b1960f11b60208201526001600160a01b0382166114045760405162461bcd60e51b8152600401610aae919061298f565b50600780546001600160a01b0319166001600160a01b0392909216919091179055565b3361143061122e565b6001600160a01b031614604051806040016040528060018152602001603360f81b815250906114725760405162461bcd60e51b8152600401610aae919061298f565b506001600160a01b03811660009081526008602090815260409182902054825180840190935260028352611b9960f11b91830191909152600190810b900b6114cd5760405162461bcd60e51b8152600401610aae919061298f565b506001600160a01b038116600090815260086020526040812054600190810b900b131561154b576001600160a01b0381166000908152600860205260409020546115199060010b612d10565b6001600160a01b0382166000908152600860205260409020805460019290920b61ffff1661ffff199092169190911790555b50565b3361155761122e565b6001600160a01b031614604051806040016040528060018152602001603360f81b815250906115995760405162461bcd60e51b8152600401610aae919061298f565b506115a6600f83836123d1565b505050565b6001600160a01b0382166000908152601260205260408120600181015463ffffffff808516600160a01b90920416118015906115fc5750600181015463ffffffff600160c01b909104811690841611155b949350505050565b6000600b54611611610cde565b610cfe9190612c8e565b3361162461122e565b6001600160a01b031614604051806040016040528060018152602001603360f81b815250906116665760405162461bcd60e51b8152600401610aae919061298f565b50604080518082019091526002815261363360f01b60208201526001600160a01b0382166116a75760405162461bcd60e51b8152600401610aae919061298f565b50600580546001600160a01b0319166001600160a01b0392909216919091179055565b336116d361122e565b6001600160a01b031614604051806040016040528060018152602001603360f81b815250906117155760405162461bcd60e51b8152600401610aae919061298f565b50600754604080518082019091526002815261363560f01b60208201529063ffffffff808416600160a01b9092041611156117635760405162461bcd60e51b8152600401610aae919061298f565b506007805463ffffffff909216600160c01b0263ffffffff60c01b19909216919091179055565b6060601380548060200260200160405190810160405280929190818152602001828054801561081f57602002820191906000526020600020905b81546001600160a01b031681526001909101906020018083116117c4575050505050905090565b336117f461122e565b6001600160a01b031614604051806040016040528060018152602001603360f81b815250906118365760405162461bcd60e51b8152600401610aae919061298f565b50604080518082019091526002815261373160f01b60208201526001600160a01b0382166118775760405162461bcd60e51b8152600401610aae919061298f565b5061154b8161214d565b3361188a61122e565b6001600160a01b031614604051806040016040528060018152602001603360f81b815250906118cc5760405162461bcd60e51b8152600401610aae919061298f565b506118d561120d565b6001600160a01b03166399a88ec430836040518363ffffffff1660e01b8152600401610af3929190612975565b3361190b61122e565b6001600160a01b031614604051806040016040528060018152602001603360f81b8152509061194d5760405162461bcd60e51b8152600401610aae919061298f565b5081611958816111e3565b604051806040016040528060018152602001601b60f91b815250906119905760405162461bcd60e51b8152600401610aae919061298f565b50604080518082019091526002815261363760f01b602082015261138861ffff841611156119d15760405162461bcd60e51b8152600401610aae919061298f565b50506001600160a01b039091166000908152601260205260409020600101805461ffff909216600160e01b0261ffff60e01b19909216919091179055565b33611a1861122e565b6001600160a01b031614604051806040016040528060018152602001603360f81b81525090611a5a5760405162461bcd60e51b8152600401610aae919061298f565b5081611a65816111e3565b604051806040016040528060018152602001601b60f91b81525090611a9d5760405162461bcd60e51b8152600401610aae919061298f565b50611aa661120d565b6001600160a01b03166399a88ec484846040518363ffffffff1660e01b8152600401611ad3929190612975565b600060405180830381600087803b158015611aed57600080fd5b505af1158015611b01573d6000803e3d6000fd5b50505050505050565b6000611b1461122e565b6001600160a01b031614604051806040016040528060018152602001601960f91b81525090611b565760405162461bcd60e51b8152600401610aae919061298f565b50604080518082019091526002815261373360f01b60208201526001600160a01b038216611b975760405162461bcd60e51b8152600401610aae919061298f565b50600080516020612d7283398151915280546001600160a01b0319166001600160a01b038316908117909155604051600090600080516020612db2833981519152908290a350565b611c0360405180606001604052806000815260200160008152602001600081525090565b50600090815260116020908152604091829020825160608101845281548152600182015492810192909252600201549181019190915290565b600e8054611c4990612cd5565b6040805180820190915260018152601960f91b6020820152915015611c815760405162461bcd60e51b8152600401610aae919061298f565b50611c8b81611b0a565b81600080516020612d9283398151915280546001600160a01b03929092166001600160a01b031992831617905560038054909116331790558651611cd690600e9060208a0190612455565b50611ce3600f87876123d1565b50600480546001600160a01b03199081166001600160a01b0396871617909155600580548216948616949094179093556007805460068054939096169290941682179094556003805463ffffffff60a01b191660e160a61b1790556001600160c01b03199092169091176102a360a61b1763ffffffff60c01b19166102a360c71b1790915550505050565b33611d7761122e565b6001600160a01b031614604051806040016040528060018152602001603360f81b81525090611db95760405162461bcd60e51b8152600401610aae919061298f565b506040805180820190915260028152611b1b60f11b602082015263ffffffff8216611df75760405162461bcd60e51b8152600401610aae919061298f565b506003805463ffffffff909216600160a01b0263ffffffff60a01b19909216919091179055565b6000546040805180820190915260018152601960f91b6020820152906001600160a01b031615611e615760405162461bcd60e51b8152600401610aae919061298f565b50600080546001600160a01b038086166001600160a01b0319928316179092556001805485841690831617905560028054928416929091169190911790556115a68361214d565b33611eb161122e565b6001600160a01b031614604051806040016040528060018152602001603360f81b81525090611ef35760405162461bcd60e51b8152600401610aae919061298f565b50604080518082019091526002815261373360f01b60208201526001600160a01b038216611f345760405162461bcd60e51b8152600401610aae919061298f565b50806001600160a01b0316611f4761122e565b6001600160a01b0316600080516020612db283398151915260405160405180910390a3600080516020612d7283398151915280546001600160a01b0319166001600160a01b0392909216919091179055565b33611fa261122e565b6001600160a01b031614604051806040016040528060018152602001603360f81b81525090611fe45760405162461bcd60e51b8152600401610aae919061298f565b5080611fef816111e3565b604051806040016040528060018152602001601b60f91b815250906120275760405162461bcd60e51b8152600401610aae919061298f565b506001600160a01b0382166000908152601260209081526040918290206001015482518084019093526002835261037360f41b91830191909152600160f01b900460ff16156120895760405162461bcd60e51b8152600401610aae919061298f565b50506001600160a01b03166000908152601260205260409020600101805460ff60f01b1916600160f01b179055565b6001600160a01b0381166000908152600860205260408120546120df90600190810b612c21565b92915050565b600c546000906121309063ffffffff600160e01b8204169061211a906001600160701b0380821691600160701b900416612c66565b600354600160a01b900463ffffffff1642612230565b600c54610cfe9190600160701b90046001600160701b0316612c66565b6001600160a01b038116600090815260086020526040902054600190810b900b6121e55760098054600180820183557f6e1540171b6c0c960b71a7020d9f60077f6af931a8bbf590da0223dacf75c7af90910180546001600160a01b0319166001600160a01b039490941693841790559054600092835260086020526040909220805461ffff191661ffff9390920b92909216179055565b6001600160a01b038116600090815260086020526040812054600190810b900b121561154b576001600160a01b0381166000908152600860205260409020546115199060010b612d10565b60008463ffffffff168263ffffffff161015604051806040016040528060018152602001600760fb1b8152509061227a5760405162461bcd60e51b8152600401610aae919061298f565b5084820391508263ffffffff168263ffffffff16816122a957634e487b7160e01b600052601260045260246000fd5b0463ffffffff16846001600160701b0316901c93508263ffffffff168263ffffffff16816122e757634e487b7160e01b600052601260045260246000fd5b06915063ffffffff8216158061230457506001600160701b038416155b156123105750826115fc565b60006001600160701b0385168163ffffffff86811690861671b17217f7d1cf79abc9e3b39803f2f6af40f3028161235757634e487b7160e01b600052601260045260246000fd5b049050600160901b5b82156123c45792820192808284028161238957634e487b7160e01b600052601260045260246000fd5b0493849003939250600160901b0180828402816123b657634e487b7160e01b600052601260045260246000fd5b049250600160901b01612360565b5091979650505050505050565b8280546123dd90612cd5565b90600052602060002090601f0160209004810192826123ff5760008555612445565b82601f106124185782800160ff19823516178555612445565b82800160010185558215612445579182015b8281111561244557823582559160200191906001019061242a565b506124519291506124c9565b5090565b82805461246190612cd5565b90600052602060002090601f0160209004810192826124835760008555612445565b82601f1061249c57805160ff1916838001178555612445565b82800160010185558215612445579182015b828111156124455782518255916020019190600101906124ae565b5b8082111561245157600081556001016124ca565b80356124e981612d5c565b919050565b60008083601f8401126124ff578182fd5b5081356001600160401b03811115612515578182fd5b60208301915083602082850101111561252d57600080fd5b9250929050565b803561ffff811681146124e957600080fd5b803563ffffffff811681146124e957600080fd5b60006020828403121561256b578081fd5b813561257681612d5c565b9392505050565b600080600060608486031215612591578182fd5b833561259c81612d5c565b925060208401356125ac81612d5c565b915060408401356125bc81612d5c565b809150509250925092565b600080604083850312156125d9578182fd5b82356125e481612d5c565b915060208301356125f481612d5c565b809150509250929050565b60008060008060808587031215612614578081fd5b843561261f81612d5c565b935060208501356001600160701b038116811461263a578182fd5b9250604085013561264a81612d5c565b915060608501356001600160601b0381168114612665578182fd5b939692955090935050565b60008060408385031215612682578182fd5b823561268d81612d5c565b915061269b60208401612534565b90509250929050565b600080604083850312156126b6578182fd5b82356126c181612d5c565b915061269b60208401612546565b6000806000606084860312156126e3578081fd5b83356126ee81612d5c565b92506126fc60208501612546565b915061270a60408501612546565b90509250925092565b60008060208385031215612725578182fd5b82356001600160401b0381111561273a578283fd5b612746858286016124ee565b90969095509350505050565b600060208284031215612763578081fd5b81516001600160401b03811115612778578182fd5b8201601f81018413612788578182fd5b805161279b61279682612be2565b612bb2565b8181528560208385010111156127af578384fd5b6127c0826020830160208601612ca5565b95945050505050565b600080600080600080600060c0888a0312156127e3578485fd5b87356001600160401b03808211156127f9578687fd5b818a0191508a601f83011261280c578687fd5b813561281a61279682612be2565b8181528c602083860101111561282e578889fd5b816020850160208301378860208383010152809a50505060208a0135915080821115612858578687fd5b506128658a828b016124ee565b90975095506128789050604089016124de565b9350612886606089016124de565b9250612894608089016124de565b91506128a260a089016124de565b905092959891949750929550565b6000602082840312156128c1578081fd5b61257682612534565b6000602082840312156128db578081fd5b5035919050565b6000602082840312156128f3578081fd5b61257682612546565b60008151808452612914816020860160208601612ca5565b601f01601f19169290920160200192915050565b6020808252825182820181905260009190848201906040850190845b818110156129695783516001600160a01b031683529284019291840191600101612944565b50909695505050505050565b6001600160a01b0392831681529116602082015260400190565b60208152600061257660208301846128fc565b60006101608083526129b6818401876128fc565b905082810360208401526129ca81866128fc565b84516001600160701b031660408581019190915260208601516001600160601b0316606086015285015163ffffffff81166080860152909250905050606083015161ffff811660a08401525060808301516001600160a01b03811660c08401525060a083015163ffffffff811660e08401525060c0830151610100612a568185018363ffffffff169052565b60e085015161ffff16610120850152909301511515610140909201919091529392505050565b61018081526000612a9161018083018f6128fc565b8281036020840152612aa3818f6128fc565b604084018e905263ffffffff8d811660608601528c811660808601528b1660a085015261ffff8a1660c085015260e0840189905261010084018890526001600160701b0387811661012086015286166101408501529150612b019050565b63ffffffff83166101608301529d9c50505050505050505050505050565b81516001600160701b0316815260208083015161ffff169082015260408083015163ffffffff9081169183019190915260608084015182169083015260808084015182169083015260a080840151918216908301526101008201905060c0830151612b9560c08401826001600160701b03169052565b5060e0830151612bab60e084018261ffff169052565b5092915050565b604051601f8201601f191681016001600160401b0381118282101715612bda57612bda612d46565b604052919050565b60006001600160401b03821115612bfb57612bfb612d46565b50601f01601f191660200190565b60008219821115612c1c57612c1c612d30565b500190565b60008160010b8360010b82811281617fff1901831281151615612c4657612c46612d30565b81617fff018313811615612c5c57612c5c612d30565b5090039392505050565b60006001600160701b0383811690831681811015612c8657612c86612d30565b039392505050565b600082821015612ca057612ca0612d30565b500390565b60005b83811015612cc0578181015183820152602001612ca8565b83811115612ccf576000848401525b50505050565b600181811c90821680612ce957607f821691505b60208210811415612d0a57634e487b7160e01b600052602260045260246000fd5b50919050565b60008160010b617fff19811415612d2957612d29612d30565b9003919050565b634e487b7160e01b600052601160045260246000fd5b634e487b7160e01b600052604160045260246000fd5b6001600160a01b038116811461154b57600080fdfe4f471908b72bb76dae5bd24599026e7bf3ddb256497722888ffa422f83729eded1248cccb5fef9131c731321e43e9a924840ffee7dc68c7d1d3e5cb7dedcae038be0079c531659141344cd1fd0a4f28419497f9722a3daafe3b4186f6b6457e0a2646970667358221220607c2b28dbf7fc2aad274e07d7f55d01a36c8cf77762f2ff0cd3cf2a8575bea064736f6c63430008040033",
  "linkReferences": {},
  "deployedLinkReferences": {}
}