{
  "_format": "hh-sol-artifact-1",
  "contractName": "EnterpriseStorage",
  "sourceName": "contracts/EnterpriseStorage.sol",
  "abi": [
    {
      "anonymous": false,
      "inputs": [
        {
          "indexed": true,
          "internalType": "address",
          "name": "previousOwner",
          "type": "address"
        },
        {
          "indexed": true,
          "internalType": "address",
          "name": "newOwner",
          "type": "address"
        }
      ],
      "name": "OwnershipTransferred",
      "type": "event"
    },
    {
      "inputs": [
        {
          "internalType": "address",
          "name": "token",
          "type": "address"
        }
      ],
      "name": "disablePaymentToken",
      "outputs": [],
      "stateMutability": "nonpayable",
      "type": "function"
    },
    {
      "inputs": [
        {
          "internalType": "address",
          "name": "token",
          "type": "address"
        }
      ],
      "name": "enablePaymentToken",
      "outputs": [],
      "stateMutability": "nonpayable",
      "type": "function"
    },
    {
      "inputs": [],
      "name": "getAvailableReserve",
      "outputs": [
        {
          "internalType": "uint256",
          "name": "",
          "type": "uint256"
        }
      ],
      "stateMutability": "view",
      "type": "function"
    },
    {
      "inputs": [],
      "name": "getBaseUri",
      "outputs": [
        {
          "internalType": "string",
          "name": "",
          "type": "string"
        }
      ],
      "stateMutability": "view",
      "type": "function"
    },
    {
      "inputs": [],
      "name": "getBorrowToken",
      "outputs": [
        {
          "internalType": "contract IBorrowToken",
          "name": "",
          "type": "address"
        }
      ],
      "stateMutability": "view",
      "type": "function"
    },
    {
      "inputs": [],
      "name": "getBorrowerLoanReturnGracePeriod",
      "outputs": [
        {
          "internalType": "uint32",
          "name": "",
          "type": "uint32"
        }
      ],
      "stateMutability": "view",
      "type": "function"
    },
    {
      "inputs": [],
      "name": "getConverter",
      "outputs": [
        {
          "internalType": "contract IConverter",
          "name": "",
          "type": "address"
        }
      ],
      "stateMutability": "view",
      "type": "function"
    },
    {
      "inputs": [],
      "name": "getEnterpriseCollector",
      "outputs": [
        {
          "internalType": "address",
          "name": "",
          "type": "address"
        }
      ],
      "stateMutability": "view",
      "type": "function"
    },
    {
      "inputs": [],
      "name": "getEnterpriseLoanCollectGracePeriod",
      "outputs": [
        {
          "internalType": "uint32",
          "name": "",
          "type": "uint32"
        }
      ],
      "stateMutability": "view",
      "type": "function"
    },
    {
      "inputs": [],
      "name": "getEnterpriseVault",
      "outputs": [
        {
          "internalType": "address",
          "name": "",
          "type": "address"
        }
      ],
      "stateMutability": "view",
      "type": "function"
    },
    {
      "inputs": [],
      "name": "getEstimator",
      "outputs": [
        {
          "internalType": "contract IEstimator",
          "name": "",
          "type": "address"
        }
      ],
      "stateMutability": "view",
      "type": "function"
    },
    {
      "inputs": [],
      "name": "getGCFeePercent",
      "outputs": [
        {
          "internalType": "uint16",
          "name": "",
          "type": "uint16"
        }
      ],
      "stateMutability": "view",
      "type": "function"
    },
    {
      "inputs": [],
      "name": "getInfo",
      "outputs": [
        {
          "internalType": "uint256",
          "name": "reserve",
          "type": "uint256"
        },
        {
          "internalType": "uint256",
          "name": "usedReserve",
          "type": "uint256"
        },
        {
          "internalType": "uint256",
          "name": "totalShares",
          "type": "uint256"
        },
        {
          "internalType": "string",
          "name": "name",
          "type": "string"
        }
      ],
      "stateMutability": "view",
      "type": "function"
    },
    {
      "inputs": [],
      "name": "getInterestToken",
      "outputs": [
        {
          "internalType": "contract IInterestToken",
          "name": "",
          "type": "address"
        }
      ],
      "stateMutability": "view",
      "type": "function"
    },
    {
      "inputs": [
        {
          "internalType": "uint256",
          "name": "tokenId",
          "type": "uint256"
        }
      ],
      "name": "getLiquidityInfo",
      "outputs": [
        {
          "components": [
            {
              "internalType": "uint256",
              "name": "amount",
              "type": "uint256"
            },
            {
              "internalType": "uint256",
              "name": "shares",
              "type": "uint256"
            },
            {
              "internalType": "uint256",
              "name": "block",
              "type": "uint256"
            }
          ],
          "internalType": "struct EnterpriseStorage.LiquidityInfo",
          "name": "",
          "type": "tuple"
        }
      ],
      "stateMutability": "view",
      "type": "function"
    },
    {
      "inputs": [],
      "name": "getLiquidityToken",
      "outputs": [
        {
          "internalType": "contract IERC20Metadata",
          "name": "",
          "type": "address"
        }
      ],
      "stateMutability": "view",
      "type": "function"
    },
    {
      "inputs": [
        {
          "internalType": "uint256",
          "name": "tokenId",
          "type": "uint256"
        }
      ],
      "name": "getLoanInfo",
      "outputs": [
        {
          "components": [
            {
              "internalType": "uint112",
              "name": "amount",
              "type": "uint112"
            },
            {
              "internalType": "uint16",
              "name": "powerTokenIndex",
              "type": "uint16"
            },
            {
              "internalType": "uint32",
              "name": "borrowingTime",
              "type": "uint32"
            },
            {
              "internalType": "uint32",
              "name": "maturityTime",
              "type": "uint32"
            },
            {
              "internalType": "uint32",
              "name": "borrowerReturnGraceTime",
              "type": "uint32"
            },
            {
              "internalType": "uint32",
              "name": "enterpriseCollectGraceTime",
              "type": "uint32"
            },
            {
              "internalType": "uint112",
              "name": "gcFee",
              "type": "uint112"
            },
            {
              "internalType": "uint16",
              "name": "gcFeeTokenIndex",
              "type": "uint16"
            }
          ],
          "internalType": "struct EnterpriseStorage.LoanInfo",
          "name": "",
          "type": "tuple"
        }
      ],
      "stateMutability": "view",
      "type": "function"
    },
    {
      "inputs": [
        {
          "internalType": "uint256",
          "name": "index",
          "type": "uint256"
        }
      ],
      "name": "getPowerToken",
      "outputs": [
        {
          "internalType": "contract IPowerToken",
          "name": "",
          "type": "address"
        }
      ],
      "stateMutability": "view",
      "type": "function"
    },
    {
      "inputs": [],
      "name": "getPowerTokenImpl",
      "outputs": [
        {
          "internalType": "address",
          "name": "",
          "type": "address"
        }
      ],
      "stateMutability": "view",
      "type": "function"
    },
    {
      "inputs": [
        {
          "internalType": "contract IPowerToken",
          "name": "powerToken",
          "type": "address"
        }
      ],
      "name": "getPowerTokenIndex",
      "outputs": [
        {
          "internalType": "uint16",
          "name": "",
          "type": "uint16"
        }
      ],
      "stateMutability": "view",
      "type": "function"
    },
    {
      "inputs": [],
      "name": "getPowerTokens",
      "outputs": [
        {
          "internalType": "contract IPowerToken[]",
          "name": "",
          "type": "address[]"
        }
      ],
      "stateMutability": "view",
      "type": "function"
    },
    {
      "inputs": [],
      "name": "getPowerTokensInfo",
      "outputs": [
        {
          "internalType": "address[]",
          "name": "addresses",
          "type": "address[]"
        },
        {
          "internalType": "string[]",
          "name": "names",
          "type": "string[]"
        },
        {
          "internalType": "string[]",
          "name": "symbols",
          "type": "string[]"
        },
        {
          "internalType": "uint32[]",
          "name": "halfLifes",
          "type": "uint32[]"
        }
      ],
      "stateMutability": "view",
      "type": "function"
    },
    {
      "inputs": [],
      "name": "getReserve",
      "outputs": [
        {
          "internalType": "uint256",
          "name": "",
          "type": "uint256"
        }
      ],
      "stateMutability": "view",
      "type": "function"
    },
    {
      "inputs": [
        {
          "internalType": "contract IPowerToken",
          "name": "powerToken",
          "type": "address"
        }
      ],
      "name": "getServiceBaseRate",
      "outputs": [
        {
          "internalType": "uint112",
          "name": "",
          "type": "uint112"
        }
      ],
      "stateMutability": "view",
      "type": "function"
    },
    {
      "inputs": [
        {
          "internalType": "contract IPowerToken",
          "name": "powerToken",
          "type": "address"
        }
      ],
      "name": "getServiceBaseToken",
      "outputs": [
        {
          "internalType": "contract IERC20Metadata",
          "name": "",
          "type": "address"
        }
      ],
      "stateMutability": "view",
      "type": "function"
    },
    {
      "inputs": [
        {
          "internalType": "contract IPowerToken",
          "name": "powerToken",
          "type": "address"
        }
      ],
      "name": "getServiceFeePercent",
      "outputs": [
        {
          "internalType": "uint112",
          "name": "",
          "type": "uint112"
        }
      ],
      "stateMutability": "view",
      "type": "function"
    },
    {
      "inputs": [
        {
          "internalType": "contract IPowerToken",
          "name": "powerToken",
          "type": "address"
        }
      ],
      "name": "getServiceHalfLife",
      "outputs": [
        {
          "internalType": "uint32",
          "name": "",
          "type": "uint32"
        }
      ],
      "stateMutability": "view",
      "type": "function"
    },
    {
      "inputs": [
        {
          "internalType": "contract IPowerToken",
          "name": "powerToken",
          "type": "address"
        }
      ],
      "name": "getServiceMaxLoanDuration",
      "outputs": [
        {
          "internalType": "uint32",
          "name": "",
          "type": "uint32"
        }
      ],
      "stateMutability": "view",
      "type": "function"
    },
    {
      "inputs": [
        {
          "internalType": "contract IPowerToken",
          "name": "powerToken",
          "type": "address"
        }
      ],
      "name": "getServiceMinGCFee",
      "outputs": [
        {
          "internalType": "uint112",
          "name": "",
          "type": "uint112"
        }
      ],
      "stateMutability": "view",
      "type": "function"
    },
    {
      "inputs": [
        {
          "internalType": "contract IPowerToken",
          "name": "powerToken",
          "type": "address"
        }
      ],
      "name": "getServiceMinLoanDuration",
      "outputs": [
        {
          "internalType": "uint32",
          "name": "",
          "type": "uint32"
        }
      ],
      "stateMutability": "view",
      "type": "function"
    },
    {
      "inputs": [],
      "name": "getUsedReserve",
      "outputs": [
        {
          "internalType": "uint256",
          "name": "",
          "type": "uint256"
        }
      ],
      "stateMutability": "view",
      "type": "function"
    },
    {
      "inputs": [
        {
          "internalType": "address",
          "name": "initialOwner",
          "type": "address"
        }
      ],
      "name": "initialize",
      "outputs": [],
      "stateMutability": "nonpayable",
      "type": "function"
    },
    {
      "inputs": [
        {
          "internalType": "string",
          "name": "enterpriseName",
          "type": "string"
        },
        {
          "internalType": "string",
          "name": "baseUri",
          "type": "string"
        },
        {
          "internalType": "contract IEstimator",
          "name": "estimator",
          "type": "address"
        },
        {
          "internalType": "contract IConverter",
          "name": "converter",
          "type": "address"
        },
        {
          "internalType": "address",
          "name": "owner",
          "type": "address"
        }
      ],
      "name": "initialize",
      "outputs": [],
      "stateMutability": "nonpayable",
      "type": "function"
    },
    {
      "inputs": [
        {
          "internalType": "address",
          "name": "powerTokenImpl",
          "type": "address"
        },
        {
          "internalType": "contract IERC20Metadata",
          "name": "liquidityToken",
          "type": "address"
        },
        {
          "internalType": "contract IInterestToken",
          "name": "interestToken",
          "type": "address"
        },
        {
          "internalType": "contract IBorrowToken",
          "name": "borrowToken",
          "type": "address"
        }
      ],
      "name": "initializeTokens",
      "outputs": [],
      "stateMutability": "nonpayable",
      "type": "function"
    },
    {
      "inputs": [
        {
          "internalType": "contract IPowerToken",
          "name": "powerToken",
          "type": "address"
        }
      ],
      "name": "isRegisteredPowerToken",
      "outputs": [
        {
          "internalType": "bool",
          "name": "",
          "type": "bool"
        }
      ],
      "stateMutability": "view",
      "type": "function"
    },
    {
      "inputs": [
        {
          "internalType": "contract IPowerToken",
          "name": "powerToken",
          "type": "address"
        },
        {
          "internalType": "uint32",
          "name": "duration",
          "type": "uint32"
        }
      ],
      "name": "isServiceAllowedLoanDuration",
      "outputs": [
        {
          "internalType": "bool",
          "name": "",
          "type": "bool"
        }
      ],
      "stateMutability": "view",
      "type": "function"
    },
    {
      "inputs": [
        {
          "internalType": "contract IERC20",
          "name": "token",
          "type": "address"
        }
      ],
      "name": "isSupportedPaymentToken",
      "outputs": [
        {
          "internalType": "bool",
          "name": "",
          "type": "bool"
        }
      ],
      "stateMutability": "view",
      "type": "function"
    },
    {
      "inputs": [],
      "name": "owner",
      "outputs": [
        {
          "internalType": "address",
          "name": "",
          "type": "address"
        }
      ],
      "stateMutability": "view",
      "type": "function"
    },
    {
      "inputs": [
        {
          "internalType": "uint256",
          "name": "index",
          "type": "uint256"
        }
      ],
      "name": "paymentToken",
      "outputs": [
        {
          "internalType": "address",
          "name": "",
          "type": "address"
        }
      ],
      "stateMutability": "view",
      "type": "function"
    },
    {
      "inputs": [
        {
          "internalType": "contract IERC20",
          "name": "token",
          "type": "address"
        }
      ],
      "name": "paymentTokenIndex",
      "outputs": [
        {
          "internalType": "int16",
          "name": "",
          "type": "int16"
        }
      ],
      "stateMutability": "view",
      "type": "function"
    },
    {
      "inputs": [
        {
          "internalType": "string",
          "name": "baseUri",
          "type": "string"
        }
      ],
      "name": "setBaseUri",
      "outputs": [],
      "stateMutability": "nonpayable",
      "type": "function"
    },
    {
      "inputs": [
        {
          "internalType": "uint32",
          "name": "newPeriod",
          "type": "uint32"
        }
      ],
      "name": "setBorrowerLoanReturnGracePeriod",
      "outputs": [],
      "stateMutability": "nonpayable",
      "type": "function"
    },
    {
      "inputs": [
        {
          "internalType": "contract IConverter",
          "name": "newConverter",
          "type": "address"
        }
      ],
      "name": "setConverter",
      "outputs": [],
      "stateMutability": "nonpayable",
      "type": "function"
    },
    {
      "inputs": [
        {
          "internalType": "address",
          "name": "newCollector",
          "type": "address"
        }
      ],
      "name": "setEnterpriseCollector",
      "outputs": [],
      "stateMutability": "nonpayable",
      "type": "function"
    },
    {
      "inputs": [
        {
          "internalType": "uint32",
          "name": "newPeriod",
          "type": "uint32"
        }
      ],
      "name": "setEnterpriseLoanCollectGracePeriod",
      "outputs": [],
      "stateMutability": "nonpayable",
      "type": "function"
    },
    {
      "inputs": [
        {
          "internalType": "address",
          "name": "newVault",
          "type": "address"
        }
      ],
      "name": "setEnterpriseVault",
      "outputs": [],
      "stateMutability": "nonpayable",
      "type": "function"
    },
    {
      "inputs": [
        {
          "internalType": "contract IEstimator",
          "name": "newEstimator",
          "type": "address"
        }
      ],
      "name": "setEstimator",
      "outputs": [],
      "stateMutability": "nonpayable",
      "type": "function"
    },
    {
      "inputs": [
        {
          "internalType": "uint16",
          "name": "newGcFeePercent",
          "type": "uint16"
        }
      ],
      "name": "setGcFeePercent",
      "outputs": [],
      "stateMutability": "nonpayable",
      "type": "function"
    },
    {
      "inputs": [
        {
          "internalType": "contract IPowerToken",
          "name": "powerToken",
          "type": "address"
        },
        {
          "internalType": "uint112",
          "name": "baseRate",
          "type": "uint112"
        },
        {
          "internalType": "contract IERC20Metadata",
          "name": "baseToken",
          "type": "address"
        },
        {
          "internalType": "uint112",
          "name": "minGCFee",
          "type": "uint112"
        }
      ],
      "name": "setServiceBaseRate",
      "outputs": [],
      "stateMutability": "nonpayable",
      "type": "function"
    },
    {
      "inputs": [
        {
          "internalType": "contract IPowerToken",
          "name": "powerToken",
          "type": "address"
        },
        {
          "internalType": "uint16",
          "name": "newServiceFeePercent",
          "type": "uint16"
        }
      ],
      "name": "setServiceFeePercent",
      "outputs": [],
      "stateMutability": "nonpayable",
      "type": "function"
    },
    {
      "inputs": [
        {
          "internalType": "contract IPowerToken[]",
          "name": "powerToken",
          "type": "address[]"
        },
        {
          "internalType": "uint16[]",
          "name": "newServiceFeePercent",
          "type": "uint16[]"
        }
      ],
      "name": "setServiceFeePercentBatch",
      "outputs": [],
      "stateMutability": "nonpayable",
      "type": "function"
    },
    {
      "inputs": [
        {
          "internalType": "contract IPowerToken",
          "name": "powerToken",
          "type": "address"
        },
        {
          "internalType": "uint32",
          "name": "minLoanDuration",
          "type": "uint32"
        },
        {
          "internalType": "uint32",
          "name": "maxLoanDuration",
          "type": "uint32"
        }
      ],
      "name": "setServiceLoanDurationLimits",
      "outputs": [],
      "stateMutability": "nonpayable",
      "type": "function"
    },
    {
      "inputs": [
        {
          "internalType": "address",
          "name": "newOwner",
          "type": "address"
        }
      ],
      "name": "transferOwnership",
      "outputs": [],
      "stateMutability": "nonpayable",
      "type": "function"
    }
  ],
  "bytecode": "0x608060405260088054600160a01b600160e01b031916650546000002a360a61b17905534801561002e57600080fd5b50612b708061003e6000396000f3fe608060405234801561001057600080fd5b50600436106103275760003560e01c80638e9fcf81116101b8578063bfd84fb411610104578063e36eca0c116100a2578063f4e28f9a1161007c578063f4e28f9a14610921578063fbac9a551461095a578063fc0915b114610980578063fcb2884e1461099357600080fd5b8063e36eca0c1461089e578063e9028683146108d5578063f2fde38b1461090e57600080fd5b8063c93d0b92116100de578063c93d0b921461080c578063d1c820071461081d578063db0ed6a014610856578063df57f2fa1461086957600080fd5b8063bfd84fb4146107d3578063c20aa9bc146107e6578063c4d66de8146107f957600080fd5b8063a554b26d11610171578063b406bf6d1161014b578063b406bf6d14610778578063b56de97e1461079a578063b96266fa146107ad578063bf170880146107c257600080fd5b8063a554b26d1461074c578063aebb50411461075d578063b19337a41461076557600080fd5b80638e9fcf81146106d857806390f55edd146106eb5780639c7aa7f8146106fe578063a0bcfc7f14610711578063a0efd11814610724578063a358426f1461073957600080fd5b8063449497ec116102775780637791c42d1161023057806383b9a0091161020a57806383b9a0091461069057806389035b61146106a15780638d6d50c9146106b45780638da5cb5b146106c757600080fd5b80637791c42d146106465780637eda9ff8146106575780638188d50d1461066a57600080fd5b8063449497ec146105b257806353c09124146105c557806359bf5d39146105f45780635a9b0b891461060a57806362c1f38814610622578063644e44df1461063557600080fd5b80632261b07f116102e45780632e365ade116102be5780632e365ade146105335780632fb2067f146105465780633184fc64146105875780633d4df8971461059a57600080fd5b80632261b07f146104a15780632457056e146104b25780632b39a0ac146104fc57600080fd5b8063041960581461032c5780630714012c1461035c5780630cac36b2146104535780630e101b60146104685780630ea1dc9e1461047b57806311eec5291461048c575b600080fd5b61033f61033a36600461259d565b61099b565b6040516001600160a01b0390911681526020015b60405180910390f35b61044661036a36600461259d565b6040805161010081018252600080825260208201819052918101829052606081018290526080810182905260a0810182905260c0810182905260e08101919091525060009081526011602090815260409182902082516101008101845281546001600160701b038082168352600160701b80830461ffff90811696850196909652600160801b830463ffffffff90811697850197909752600160a01b830487166060850152600160c01b830487166080850152600160e01b90920490951660a083015260019092015493841660c082015292041660e082015290565b60405161035391906127dc565b61045b6109d9565b6040516103539190612742565b61033f61047636600461259d565b610a6b565b6002546001600160a01b031661033f565b61049f61049a366004612292565b610a8e565b005b6006546001600160a01b031661033f565b6104e46104c0366004612214565b6001600160a01b03166000908152601360205260409020546001600160701b031690565b6040516001600160701b039091168152602001610353565b6104e461050a366004612214565b6001600160a01b0316600090815260136020526040902060010154600160e01b900461ffff1690565b61049f6105413660046125b5565b610bf1565b610577610554366004612214565b6001600160a01b0316600090815260096020526040812054600190810b900b1390565b6040519015158152602001610353565b61049f610595366004612237565b610c9c565b6105a2610d44565b6040516103539493929190612642565b61049f6105c0366004612583565b6110d8565b61033f6105d3366004612214565b6001600160a01b039081166000908152601360205260409020600101541690565b6105fc611124565b604051908152602001610353565b610612611149565b6040516103539493929190612887565b61049f610630366004612214565b6111f5565b6001546001600160a01b031661033f565b6008546001600160a01b031661033f565b61049f610665366004612214565b611267565b600854600160a01b900463ffffffff165b60405163ffffffff9091168152602001610353565b6004546001600160a01b031661033f565b6105776106af366004612214565b6112d9565b61067b6106c2366004612214565b611303565b6000546001600160a01b031661033f565b61049f6106e63660046123b1565b61132b565b61049f6106f9366004612214565b611427565b61049f61070c366004612214565b611499565b61049f61071f3660046123f5565b6114cf565b600854600160c01b900463ffffffff1661067b565b610577610747366004612386565b61150a565b6007546001600160a01b031661033f565b6105fc611563565b61049f610773366004612214565b61157a565b600854600160e01b900461ffff165b60405161ffff9091168152602001610353565b61049f6107a83660046125b5565b6115ec565b6107b5611696565b60405161035391906126f5565b6005546001600160a01b031661033f565b61049f6107e1366004612214565b6116f7565b61049f6107f4366004612352565b611750565b61049f610807366004612214565b6117aa565b6003546001600160a01b031661033f565b61067b61082b366004612214565b6001600160a01b0316600090815260136020526040902060010154600160a01b900463ffffffff1690565b61049f6108643660046124ad565b6118ca565b61087c61087736600461259d565b611996565b6040805182518152602080840151908201529181015190820152606001610353565b6107876108ac366004612214565b6001600160a01b0316600090815260136020526040902060010154600160f01b900461ffff1690565b6104e46108e3366004612214565b6001600160a01b0316600090815260136020526040902054600160701b90046001600160701b031690565b61049f61091c366004612214565b6119f3565b61067b61092f366004612214565b6001600160a01b0316600090815260136020526040902060010154600160c01b900463ffffffff1690565b61096d610968366004612214565b611add565b60405160019190910b8152602001610353565b61049f61098e3660046122fb565b611b0a565b600d546105fc565b6000601482815481106109be57634e487b7160e01b600052603260045260246000fd5b6000918252602090912001546001600160a01b031692915050565b6060600b80546109e890612a4a565b80601f0160208091040260200160405190810160405280929190818152602001828054610a1490612a4a565b8015610a615780601f10610a3657610100808354040283529160200191610a61565b820191906000526020600020905b815481529060010190602001808311610a4457829003601f168201915b5050505050905090565b6000600a82815481106109be57634e487b7160e01b600052603260045260246000fd5b6000546001600160a01b03163314610ac15760405162461bcd60e51b8152600401610ab89061277b565b60405180910390fd5b828114610b075760405162461bcd60e51b8152602060048201526014602482015273092dcecc2d8d2c840c2e4e4c2f240d8cadccee8d60631b6044820152606401610ab8565b60005b83811015610bea57610b4a858583818110610b3557634e487b7160e01b600052603260045260246000fd5b90506020020160208101906106af9190612214565b610b665760405162461bcd60e51b8152600401610ab8906127b0565b610bd8858583818110610b8957634e487b7160e01b600052603260045260246000fd5b9050602002016020810190610b9e9190612214565b848484818110610bbe57634e487b7160e01b600052603260045260246000fd5b9050602002016020810190610bd39190612583565b611c06565b80610be281612a85565b915050610b0a565b5050505050565b6000546001600160a01b03163314610c1b5760405162461bcd60e51b8152600401610ab89061277b565b60085463ffffffff600160c01b90910481169082161115610c765760405162461bcd60e51b8152602060048201526015602482015274496e76616c696420677261636520706572696f647360581b6044820152606401610ab8565b6008805463ffffffff909216600160a01b0263ffffffff60a01b19909216919091179055565b6004546001600160a01b031615610ceb5760405162461bcd60e51b8152602060048201526013602482015272105b1c9958591e481a5b9a5d1a585b1a5e9959606a1b6044820152606401610ab8565b600480546001600160a01b038087166001600160a01b03199283161790925560018054868416908316179055600280548584169083161790556003805492841692909116919091179055610d3e83611ca6565b50505050565b6014546060908190819081908067ffffffffffffffff811115610d7757634e487b7160e01b600052604160045260246000fd5b604051908082528060200260200182016040528015610da0578160200160208202803683370190505b5094508067ffffffffffffffff811115610dca57634e487b7160e01b600052604160045260246000fd5b604051908082528060200260200182016040528015610dfd57816020015b6060815260200190600190039081610de85790505b5093508067ffffffffffffffff811115610e2757634e487b7160e01b600052604160045260246000fd5b604051908082528060200260200182016040528015610e5a57816020015b6060815260200190600190039081610e455790505b5092508067ffffffffffffffff811115610e8457634e487b7160e01b600052604160045260246000fd5b604051908082528060200260200182016040528015610ead578160200160208202803683370190505b50915060005b818110156110d057600060148281548110610ede57634e487b7160e01b600052603260045260246000fd5b9060005260206000200160009054906101000a90046001600160a01b0316905080878381518110610f1f57634e487b7160e01b600052603260045260246000fd5b60200260200101906001600160a01b031690816001600160a01b031681525050806001600160a01b03166306fdde036040518163ffffffff1660e01b815260040160006040518083038186803b158015610f7857600080fd5b505afa158015610f8c573d6000803e3d6000fd5b505050506040513d6000823e601f3d908101601f19168201604052610fb49190810190612435565b868381518110610fd457634e487b7160e01b600052603260045260246000fd5b6020026020010181905250806001600160a01b03166395d89b416040518163ffffffff1660e01b815260040160006040518083038186803b15801561101857600080fd5b505afa15801561102c573d6000803e3d6000fd5b505050506040513d6000823e601f3d908101601f191682016040526110549190810190612435565b85838151811061107457634e487b7160e01b600052603260045260246000fd5b602002602001018190525061108881611303565b8483815181106110a857634e487b7160e01b600052603260045260246000fd5b63ffffffff9092166020928302919091019091015250806110c881612a85565b915050610eb3565b505090919293565b6000546001600160a01b031633146111025760405162461bcd60e51b8152600401610ab89061277b565b6008805461ffff909216600160e01b0261ffff60e01b19909216919091179055565b600061112e611dbd565b6001600160701b0316600c54611144919061290f565b905090565b60008060006060600c54600d54600f54601080805461116790612a4a565b80601f016020809104026020016040519081016040528092919081815260200182805461119390612a4a565b80156111e05780601f106111b5576101008083540402835291602001916111e0565b820191906000526020600020905b8154815290600101906020018083116111c357829003601f168201915b50505050509050935093509350935090919293565b6000546001600160a01b0316331461121f5760405162461bcd60e51b8152600401610ab89061277b565b6001600160a01b0381166112455760405162461bcd60e51b8152600401610ab890612755565b600780546001600160a01b0319166001600160a01b0392909216919091179055565b6000546001600160a01b031633146112915760405162461bcd60e51b8152600401610ab89061277b565b6001600160a01b0381166112b75760405162461bcd60e51b8152600401610ab890612755565b600580546001600160a01b0319166001600160a01b0392909216919091179055565b6001600160a01b0316600090815260136020526040902054600160e01b900463ffffffff16151590565b6001600160a01b0316600090815260136020526040902054600160e01b900463ffffffff1690565b6000546001600160a01b031633146113555760405162461bcd60e51b8152600401610ab89061277b565b8261135f816112d9565b61137b5760405162461bcd60e51b8152600401610ab8906127b0565b8163ffffffff168363ffffffff1611156113cb5760405162461bcd60e51b8152602060048201526011602482015270496e76616c6964206475726174696f6e7360781b6044820152606401610ab8565b506001600160a01b03929092166000908152601360205260409020600101805467ffffffffffffffff60a01b1916600160a01b63ffffffff9384160263ffffffff60c01b191617600160c01b9290931691909102919091179055565b6000546001600160a01b031633146114515760405162461bcd60e51b8152600401610ab89061277b565b6001600160a01b0381166114775760405162461bcd60e51b8152600401610ab890612755565b600880546001600160a01b0319166001600160a01b0392909216919091179055565b6000546001600160a01b031633146114c35760405162461bcd60e51b8152600401610ab89061277b565b6114cc81611e18565b50565b6000546001600160a01b031633146114f95760405162461bcd60e51b8152600401610ab89061277b565b611505600b8383612030565b505050565b6001600160a01b0382166000908152601360205260408120600181015463ffffffff808516600160a01b909204161180159061155b5750600181015463ffffffff600160c01b909104811690841611155b949350505050565b6000600d54611570611124565b61114491906129ea565b6000546001600160a01b031633146115a45760405162461bcd60e51b8152600401610ab89061277b565b6001600160a01b0381166115ca5760405162461bcd60e51b8152600401610ab890612755565b600680546001600160a01b0319166001600160a01b0392909216919091179055565b6000546001600160a01b031633146116165760405162461bcd60e51b8152600401610ab89061277b565b60085463ffffffff808316600160a01b9092041611156116705760405162461bcd60e51b8152602060048201526015602482015274496e76616c696420677261636520706572696f647360581b6044820152606401610ab8565b6008805463ffffffff909216600160c01b0263ffffffff60c01b19909216919091179055565b60606014805480602002602001604051908101604052809291908181526020018280548015610a6157602002820191906000526020600020905b81546001600160a01b031681526001909101906020018083116116d0575050505050905090565b6000546001600160a01b031633146117215760405162461bcd60e51b8152600401610ab89061277b565b6001600160a01b0381166117475760405162461bcd60e51b8152600401610ab890612755565b6114cc81611ca6565b6000546001600160a01b0316331461177a5760405162461bcd60e51b8152600401610ab89061277b565b81611784816112d9565b6117a05760405162461bcd60e51b8152600401610ab8906127b0565b6115058383611c06565b6000546001600160a01b0316156118155760405162461bcd60e51b815260206004820152602960248201527f496e697469616c697a61626c654f776e61626c653a20616c726561647920696e6044820152681a5d1a585b1a5e995960ba1b6064820152608401610ab8565b6001600160a01b03811661187f5760405162461bcd60e51b815260206004820152602b60248201527f496e697469616c697a61626c654f776e61626c653a20696e76616c696420696e60448201526a34ba34b0b61037bbb732b960a91b6064820152608401610ab8565b600080546001600160a01b0319166001600160a01b03831690811782556040519091907f8be0079c531659141344cd1fd0a4f28419497f9722a3daafe3b4186f6b6457e0908290a350565b601080546118d790612a4a565b15905061191c5760405162461bcd60e51b8152602060048201526013602482015272105b1c9958591e481a5b9a5d1a585b1a5e9959606a1b6044820152606401610ab8565b611925816117aa565b85516119389060109060208901906120b4565b50611945600b8686612030565b50600580546001600160a01b03199081166001600160a01b03958616179091556006805482169385169390931790925560088054831691909316908117909255600780549091169091179055505050565b6119ba60405180606001604052806000815260200160008152602001600081525090565b50600090815260126020908152604091829020825160608101845281548152600182015492810192909252600201549181019190915290565b6000546001600160a01b03163314611a1d5760405162461bcd60e51b8152600401610ab89061277b565b6001600160a01b038116611a825760405162461bcd60e51b815260206004820152602660248201527f4f776e61626c653a206e6577206f776e657220697320746865207a65726f206160448201526564647265737360d01b6064820152608401610ab8565b600080546040516001600160a01b03808516939216917f8be0079c531659141344cd1fd0a4f28419497f9722a3daafe3b4186f6b6457e091a3600080546001600160a01b0319166001600160a01b0392909216919091179055565b6001600160a01b038116600090815260096020526040812054611b0490600190810b61297d565b92915050565b6000546001600160a01b03163314611b345760405162461bcd60e51b8152600401610ab89061277b565b83611b3e816112d9565b611b5a5760405162461bcd60e51b8152600401610ab8906127b0565b6001600160a01b038316611ba55760405162461bcd60e51b815260206004820152601260248201527124b73b30b634b2102130b9b2902a37b5b2b760711b6044820152606401610ab8565b506001600160a01b0393841660009081526013602052604090208054600182018054949096166001600160a01b0319909416939093179094556001600160701b03908116600160701b026001600160e01b0319909216921691909117179055565b61138861ffff82161115611c6a5760405162461bcd60e51b815260206004820152602560248201527f4d6178696d756d2073657276696365206665652070657263656e7420746872656044820152641cda1bdb1960da1b6064820152608401610ab8565b6001600160a01b039091166000908152601360205260409020600101805461ffff909216600160e01b0261ffff60e01b19909216919091179055565b6001600160a01b038116600090815260096020526040902054600190810b900b611d3e57600a8054600180820183557fc65a7bb8d6351c1cf70c95a316cc6a92839c986682d98bc35f958f4883f9d2a890910180546001600160a01b0319166001600160a01b039490941693841790559054600092835260096020526040909220805461ffff191661ffff9390920b92909216179055565b6001600160a01b038116600090815260096020526040812054600190810b900b12156114cc576001600160a01b038116600090815260096020526040902054611d899060010b612ac3565b6001600160a01b0382166000908152600960205260409020805460019290920b61ffff1661ffff1990921691909117905550565b600e54600090611dfb9063ffffffff600160e01b82041690611df2906001600160701b0380821691600160701b9004166129c2565b61384042611ebf565b600e546111449190600160701b90046001600160701b03166129c2565b6001600160a01b038116600090815260096020526040902054600190810b900b611e745760405162461bcd60e51b815260206004820152600d60248201526c24b73b30b634b2103a37b5b2b760991b6044820152606401610ab8565b6001600160a01b038116600090815260096020526040812054600190810b900b13156114cc576001600160a01b038116600090815260096020526040902054611d899060010b612ac3565b60008463ffffffff168263ffffffff161015611f0e5760405162461bcd60e51b815260206004820152600e60248201526d125b9d985b1a59081c195c9a5bd960921b6044820152606401610ab8565b611f188583612a01565b9150611f24838361293b565b63ffffffff16846001600160701b0316901c93508282611f449190612aa0565b915063ffffffff82161580611f6057506001600160701b038416155b15611f6c57508261155b565b60006001600160701b0385168163ffffffff80871690611fa090871671b17217f7d1cf79abc9e3b39803f2f6af40f361295e565b611faa9190612927565b9050600160901b5b821561202357611fc2838561290f565b935080611fcf838561295e565b611fd99190612927565b9250611fe9600160901b8261290f565b9050611ff583856129ea565b935080612002838561295e565b61200c9190612927565b925061201c600160901b8261290f565b9050611fb2565b5091979650505050505050565b82805461203c90612a4a565b90600052602060002090601f01602090048101928261205e57600085556120a4565b82601f106120775782800160ff198235161785556120a4565b828001600101855582156120a4579182015b828111156120a4578235825591602001919060010190612089565b506120b0929150612128565b5090565b8280546120c090612a4a565b90600052602060002090601f0160209004810192826120e257600085556120a4565b82601f106120fb57805160ff19168380011785556120a4565b828001600101855582156120a4579182015b828111156120a457825182559160200191906001019061210d565b5b808211156120b05760008155600101612129565b803561214881612b25565b919050565b60008083601f84011261215e578081fd5b50813567ffffffffffffffff811115612175578182fd5b6020830191508360208260051b850101111561219057600080fd5b9250929050565b60008083601f8401126121a8578182fd5b50813567ffffffffffffffff8111156121bf578182fd5b60208301915083602082850101111561219057600080fd5b80356001600160701b038116811461214857600080fd5b803561ffff8116811461214857600080fd5b803563ffffffff8116811461214857600080fd5b600060208284031215612225578081fd5b813561223081612b25565b9392505050565b6000806000806080858703121561224c578283fd5b843561225781612b25565b9350602085013561226781612b25565b9250604085013561227781612b25565b9150606085013561228781612b25565b939692955090935050565b600080600080604085870312156122a7578384fd5b843567ffffffffffffffff808211156122be578586fd5b6122ca8883890161214d565b909650945060208701359150808211156122e2578384fd5b506122ef8782880161214d565b95989497509550505050565b60008060008060808587031215612310578384fd5b843561231b81612b25565b9350612329602086016121d7565b9250604085013561233981612b25565b9150612347606086016121d7565b905092959194509250565b60008060408385031215612364578182fd5b823561236f81612b25565b915061237d602084016121ee565b90509250929050565b60008060408385031215612398578182fd5b82356123a381612b25565b915061237d60208401612200565b6000806000606084860312156123c5578081fd5b83356123d081612b25565b92506123de60208501612200565b91506123ec60408501612200565b90509250925092565b60008060208385031215612407578182fd5b823567ffffffffffffffff81111561241d578283fd5b61242985828601612197565b90969095509350505050565b600060208284031215612446578081fd5b815167ffffffffffffffff81111561245c578182fd5b8201601f8101841361246c578182fd5b805161247f61247a826128e7565b6128b6565b818152856020838501011115612493578384fd5b6124a4826020830160208601612a1e565b95945050505050565b60008060008060008060a087890312156124c5578384fd5b863567ffffffffffffffff808211156124dc578586fd5b818901915089601f8301126124ef578586fd5b81356124fd61247a826128e7565b8181528b6020838601011115612511578788fd5b8160208501602083013787602083830101528099505050602089013591508082111561253b578586fd5b5061254889828a01612197565b909650945061255b90506040880161213d565b92506125696060880161213d565b91506125776080880161213d565b90509295509295509295565b600060208284031215612594578081fd5b612230826121ee565b6000602082840312156125ae578081fd5b5035919050565b6000602082840312156125c6578081fd5b61223082612200565b600081518084526020808501808196508360051b81019150828601855b85811015612023578284038952612604848351612616565b988501989350908401906001016125ec565b6000815180845261262e816020860160208601612a1e565b601f01601f19169290920160200192915050565b6080808252855190820181905260009060209060a0840190828901845b828110156126845781516001600160a01b03168452928401929084019060010161265f565b5050508381038285015261269881886125cf565b905083810360408501526126ac81876125cf565b84810360608601528551808252838701925090830190845b818110156126e657835163ffffffff16835292840192918401916001016126c4565b50909998505050505050505050565b6020808252825182820181905260009190848201906040850190845b818110156127365783516001600160a01b031683529284019291840191600101612711565b50909695505050505050565b6020815260006122306020830184612616565b6020808252600c908201526b5a65726f206164647265737360a01b604082015260600190565b6020808252818101527f4f776e61626c653a2063616c6c6572206973206e6f7420746865206f776e6572604082015260600190565b6020808252601290820152712ab735b737bbb7102837bbb2b92a37b5b2b760711b604082015260600190565b6000610100820190506001600160701b03835116825261ffff6020840151166020830152604083015163ffffffff808216604085015280606086015116606085015250506080830151612837608084018263ffffffff169052565b5060a083015161284f60a084018263ffffffff169052565b5060c083015161286a60c08401826001600160701b03169052565b5060e083015161288060e084018261ffff169052565b5092915050565b8481528360208201528260408201526080606082015260006128ac6080830184612616565b9695505050505050565b604051601f8201601f1916810167ffffffffffffffff811182821017156128df576128df612b0f565b604052919050565b600067ffffffffffffffff82111561290157612901612b0f565b50601f01601f191660200190565b6000821982111561292257612922612ae3565b500190565b60008261293657612936612af9565b500490565b600063ffffffff8084168061295257612952612af9565b92169190910492915050565b600081600019048311821515161561297857612978612ae3565b500290565b60008160010b8360010b82811281617fff19018312811516156129a2576129a2612ae3565b81617fff0183138116156129b8576129b8612ae3565b5090039392505050565b60006001600160701b03838116908316818110156129e2576129e2612ae3565b039392505050565b6000828210156129fc576129fc612ae3565b500390565b600063ffffffff838116908316818110156129e2576129e2612ae3565b60005b83811015612a39578181015183820152602001612a21565b83811115610d3e5750506000910152565b600181811c90821680612a5e57607f821691505b60208210811415612a7f57634e487b7160e01b600052602260045260246000fd5b50919050565b6000600019821415612a9957612a99612ae3565b5060010190565b600063ffffffff80841680612ab757612ab7612af9565b92169190910692915050565b60008160010b617fff19811415612adc57612adc612ae3565b9003919050565b634e487b7160e01b600052601160045260246000fd5b634e487b7160e01b600052601260045260246000fd5b634e487b7160e01b600052604160045260246000fd5b6001600160a01b03811681146114cc57600080fdfea2646970667358221220860993952e9c61f2a4eda699ab7d879d4eb254843a73e6e50e1a84bfb0a89ca964736f6c63430008040033",
  "linkReferences": {},
  "deployedLinkReferences": {}
}