{
  "_format": "hh-sol-artifact-1",
  "contractName": "EnterpriseStorage",
  "sourceName": "contracts/EnterpriseStorage.sol",
  "abi": [
    {
      "anonymous": false,
      "inputs": [
        {
          "indexed": true,
          "internalType": "address",
          "name": "previousOwner",
          "type": "address"
        },
        {
          "indexed": true,
          "internalType": "address",
          "name": "newOwner",
          "type": "address"
        }
      ],
      "name": "OwnershipTransferred",
      "type": "event"
    },
    {
      "inputs": [
        {
          "internalType": "address",
          "name": "token",
          "type": "address"
        }
      ],
      "name": "disablePaymentToken",
      "outputs": [],
      "stateMutability": "nonpayable",
      "type": "function"
    },
    {
      "inputs": [
        {
          "internalType": "address",
          "name": "token",
          "type": "address"
        }
      ],
      "name": "enablePaymentToken",
      "outputs": [],
      "stateMutability": "nonpayable",
      "type": "function"
    },
    {
      "inputs": [],
      "name": "getAvailableReserve",
      "outputs": [
        {
          "internalType": "uint256",
          "name": "",
          "type": "uint256"
        }
      ],
      "stateMutability": "view",
      "type": "function"
    },
    {
      "inputs": [],
      "name": "getBaseUri",
      "outputs": [
        {
          "internalType": "string",
          "name": "",
          "type": "string"
        }
      ],
      "stateMutability": "view",
      "type": "function"
    },
    {
      "inputs": [],
      "name": "getBorrowToken",
      "outputs": [
        {
          "internalType": "contract IBorrowToken",
          "name": "",
          "type": "address"
        }
      ],
      "stateMutability": "view",
      "type": "function"
    },
    {
      "inputs": [],
      "name": "getBorrowerLoanReturnGracePeriod",
      "outputs": [
        {
          "internalType": "uint32",
          "name": "",
          "type": "uint32"
        }
      ],
      "stateMutability": "view",
      "type": "function"
    },
    {
      "inputs": [],
      "name": "getConverter",
      "outputs": [
        {
          "internalType": "contract IConverter",
          "name": "",
          "type": "address"
        }
      ],
      "stateMutability": "view",
      "type": "function"
    },
    {
      "inputs": [],
      "name": "getEnterpriseCollector",
      "outputs": [
        {
          "internalType": "address",
          "name": "",
          "type": "address"
        }
      ],
      "stateMutability": "view",
      "type": "function"
    },
    {
      "inputs": [],
      "name": "getEnterpriseLoanCollectGracePeriod",
      "outputs": [
        {
          "internalType": "uint32",
          "name": "",
          "type": "uint32"
        }
      ],
      "stateMutability": "view",
      "type": "function"
    },
    {
      "inputs": [],
      "name": "getEnterpriseVault",
      "outputs": [
        {
          "internalType": "address",
          "name": "",
          "type": "address"
        }
      ],
      "stateMutability": "view",
      "type": "function"
    },
    {
      "inputs": [],
      "name": "getEstimator",
      "outputs": [
        {
          "internalType": "contract IEstimator",
          "name": "",
          "type": "address"
        }
      ],
      "stateMutability": "view",
      "type": "function"
    },
    {
      "inputs": [],
      "name": "getGCFeePercent",
      "outputs": [
        {
          "internalType": "uint16",
          "name": "",
          "type": "uint16"
        }
      ],
      "stateMutability": "view",
      "type": "function"
    },
    {
      "inputs": [],
      "name": "getInfo",
      "outputs": [
        {
          "internalType": "string",
          "name": "name",
          "type": "string"
        },
        {
          "internalType": "string",
          "name": "baseUri",
          "type": "string"
        },
        {
          "internalType": "uint256",
          "name": "totalShares",
          "type": "uint256"
        },
        {
          "internalType": "uint32",
          "name": "interestHalfLife",
          "type": "uint32"
        },
        {
          "internalType": "uint32",
          "name": "borrowerLoanReturnGracePeriod",
          "type": "uint32"
        },
        {
          "internalType": "uint32",
          "name": "enterpriseLoanCollectGracePeriod",
          "type": "uint32"
        },
        {
          "internalType": "uint16",
          "name": "gcFeePercent",
          "type": "uint16"
        },
        {
          "internalType": "uint256",
          "name": "fixedReserve",
          "type": "uint256"
        },
        {
          "internalType": "uint256",
          "name": "usedReserve",
          "type": "uint256"
        },
        {
          "internalType": "uint112",
          "name": "streamingReserve",
          "type": "uint112"
        },
        {
          "internalType": "uint112",
          "name": "streamingReserveTarget",
          "type": "uint112"
        },
        {
          "internalType": "uint32",
          "name": "streamingReserveUpdated",
          "type": "uint32"
        }
      ],
      "stateMutability": "view",
      "type": "function"
    },
    {
      "inputs": [],
      "name": "getInterestHalfLife",
      "outputs": [
        {
          "internalType": "uint32",
          "name": "",
          "type": "uint32"
        }
      ],
      "stateMutability": "view",
      "type": "function"
    },
    {
      "inputs": [],
      "name": "getInterestToken",
      "outputs": [
        {
          "internalType": "contract IInterestToken",
          "name": "",
          "type": "address"
        }
      ],
      "stateMutability": "view",
      "type": "function"
    },
    {
      "inputs": [
        {
          "internalType": "uint256",
          "name": "tokenId",
          "type": "uint256"
        }
      ],
      "name": "getLiquidityInfo",
      "outputs": [
        {
          "components": [
            {
              "internalType": "uint256",
              "name": "amount",
              "type": "uint256"
            },
            {
              "internalType": "uint256",
              "name": "shares",
              "type": "uint256"
            },
            {
              "internalType": "uint256",
              "name": "block",
              "type": "uint256"
            }
          ],
          "internalType": "struct EnterpriseStorage.LiquidityInfo",
          "name": "",
          "type": "tuple"
        }
      ],
      "stateMutability": "view",
      "type": "function"
    },
    {
      "inputs": [],
      "name": "getLiquidityToken",
      "outputs": [
        {
          "internalType": "contract IERC20Metadata",
          "name": "",
          "type": "address"
        }
      ],
      "stateMutability": "view",
      "type": "function"
    },
    {
      "inputs": [
        {
          "internalType": "uint256",
          "name": "tokenId",
          "type": "uint256"
        }
      ],
      "name": "getLoanInfo",
      "outputs": [
        {
          "components": [
            {
              "internalType": "uint112",
              "name": "amount",
              "type": "uint112"
            },
            {
              "internalType": "uint16",
              "name": "powerTokenIndex",
              "type": "uint16"
            },
            {
              "internalType": "uint32",
              "name": "borrowingTime",
              "type": "uint32"
            },
            {
              "internalType": "uint32",
              "name": "maturityTime",
              "type": "uint32"
            },
            {
              "internalType": "uint32",
              "name": "borrowerReturnGraceTime",
              "type": "uint32"
            },
            {
              "internalType": "uint32",
              "name": "enterpriseCollectGraceTime",
              "type": "uint32"
            },
            {
              "internalType": "uint112",
              "name": "gcFee",
              "type": "uint112"
            },
            {
              "internalType": "uint16",
              "name": "gcFeeTokenIndex",
              "type": "uint16"
            }
          ],
          "internalType": "struct EnterpriseStorage.LoanInfo",
          "name": "",
          "type": "tuple"
        }
      ],
      "stateMutability": "view",
      "type": "function"
    },
    {
      "inputs": [
        {
          "internalType": "uint256",
          "name": "index",
          "type": "uint256"
        }
      ],
      "name": "getPowerToken",
      "outputs": [
        {
          "internalType": "contract IPowerToken",
          "name": "",
          "type": "address"
        }
      ],
      "stateMutability": "view",
      "type": "function"
    },
    {
      "inputs": [],
      "name": "getPowerTokenImpl",
      "outputs": [
        {
          "internalType": "address",
          "name": "",
          "type": "address"
        }
      ],
      "stateMutability": "view",
      "type": "function"
    },
    {
      "inputs": [
        {
          "internalType": "contract IPowerToken",
          "name": "powerToken",
          "type": "address"
        }
      ],
      "name": "getPowerTokenIndex",
      "outputs": [
        {
          "internalType": "uint16",
          "name": "",
          "type": "uint16"
        }
      ],
      "stateMutability": "view",
      "type": "function"
    },
    {
      "inputs": [],
      "name": "getPowerTokens",
      "outputs": [
        {
          "internalType": "contract IPowerToken[]",
          "name": "",
          "type": "address[]"
        }
      ],
      "stateMutability": "view",
      "type": "function"
    },
    {
      "inputs": [],
      "name": "getReserve",
      "outputs": [
        {
          "internalType": "uint256",
          "name": "",
          "type": "uint256"
        }
      ],
      "stateMutability": "view",
      "type": "function"
    },
    {
      "inputs": [
        {
          "internalType": "contract IPowerToken",
          "name": "powerToken",
          "type": "address"
        }
      ],
      "name": "getService",
      "outputs": [
        {
          "internalType": "string",
          "name": "name",
          "type": "string"
        },
        {
          "internalType": "string",
          "name": "symbol",
          "type": "string"
        },
        {
          "components": [
            {
              "internalType": "uint112",
              "name": "baseRate",
              "type": "uint112"
            },
            {
              "internalType": "uint112",
              "name": "minGCFee",
              "type": "uint112"
            },
            {
              "internalType": "uint32",
              "name": "halfLife",
              "type": "uint32"
            },
            {
              "internalType": "contract IERC20Metadata",
              "name": "baseToken",
              "type": "address"
            },
            {
              "internalType": "uint32",
              "name": "minLoanDuration",
              "type": "uint32"
            },
            {
              "internalType": "uint32",
              "name": "maxLoanDuration",
              "type": "uint32"
            },
            {
              "internalType": "uint16",
              "name": "serviceFeePercent",
              "type": "uint16"
            },
            {
              "internalType": "uint16",
              "name": "index",
              "type": "uint16"
            }
          ],
          "internalType": "struct EnterpriseStorage.ServiceConfig",
          "name": "config",
          "type": "tuple"
        }
      ],
      "stateMutability": "view",
      "type": "function"
    },
    {
      "inputs": [
        {
          "internalType": "contract IPowerToken",
          "name": "powerToken",
          "type": "address"
        }
      ],
      "name": "getServiceBaseRate",
      "outputs": [
        {
          "internalType": "uint112",
          "name": "",
          "type": "uint112"
        }
      ],
      "stateMutability": "view",
      "type": "function"
    },
    {
      "inputs": [
        {
          "internalType": "contract IPowerToken",
          "name": "powerToken",
          "type": "address"
        }
      ],
      "name": "getServiceBaseToken",
      "outputs": [
        {
          "internalType": "contract IERC20Metadata",
          "name": "",
          "type": "address"
        }
      ],
      "stateMutability": "view",
      "type": "function"
    },
    {
      "inputs": [
        {
          "internalType": "contract IPowerToken",
          "name": "powerToken",
          "type": "address"
        }
      ],
      "name": "getServiceFeePercent",
      "outputs": [
        {
          "internalType": "uint112",
          "name": "",
          "type": "uint112"
        }
      ],
      "stateMutability": "view",
      "type": "function"
    },
    {
      "inputs": [
        {
          "internalType": "contract IPowerToken",
          "name": "powerToken",
          "type": "address"
        }
      ],
      "name": "getServiceHalfLife",
      "outputs": [
        {
          "internalType": "uint32",
          "name": "",
          "type": "uint32"
        }
      ],
      "stateMutability": "view",
      "type": "function"
    },
    {
      "inputs": [
        {
          "internalType": "contract IPowerToken",
          "name": "powerToken",
          "type": "address"
        }
      ],
      "name": "getServiceMaxLoanDuration",
      "outputs": [
        {
          "internalType": "uint32",
          "name": "",
          "type": "uint32"
        }
      ],
      "stateMutability": "view",
      "type": "function"
    },
    {
      "inputs": [
        {
          "internalType": "contract IPowerToken",
          "name": "powerToken",
          "type": "address"
        }
      ],
      "name": "getServiceMinGCFee",
      "outputs": [
        {
          "internalType": "uint112",
          "name": "",
          "type": "uint112"
        }
      ],
      "stateMutability": "view",
      "type": "function"
    },
    {
      "inputs": [
        {
          "internalType": "contract IPowerToken",
          "name": "powerToken",
          "type": "address"
        }
      ],
      "name": "getServiceMinLoanDuration",
      "outputs": [
        {
          "internalType": "uint32",
          "name": "",
          "type": "uint32"
        }
      ],
      "stateMutability": "view",
      "type": "function"
    },
    {
      "inputs": [],
      "name": "getServices",
      "outputs": [
        {
          "internalType": "address[]",
          "name": "addresses",
          "type": "address[]"
        },
        {
          "internalType": "string[]",
          "name": "names",
          "type": "string[]"
        },
        {
          "internalType": "string[]",
          "name": "symbols",
          "type": "string[]"
        },
        {
          "components": [
            {
              "internalType": "uint112",
              "name": "baseRate",
              "type": "uint112"
            },
            {
              "internalType": "uint112",
              "name": "minGCFee",
              "type": "uint112"
            },
            {
              "internalType": "uint32",
              "name": "halfLife",
              "type": "uint32"
            },
            {
              "internalType": "contract IERC20Metadata",
              "name": "baseToken",
              "type": "address"
            },
            {
              "internalType": "uint32",
              "name": "minLoanDuration",
              "type": "uint32"
            },
            {
              "internalType": "uint32",
              "name": "maxLoanDuration",
              "type": "uint32"
            },
            {
              "internalType": "uint16",
              "name": "serviceFeePercent",
              "type": "uint16"
            },
            {
              "internalType": "uint16",
              "name": "index",
              "type": "uint16"
            }
          ],
          "internalType": "struct EnterpriseStorage.ServiceConfig[]",
          "name": "configs",
          "type": "tuple[]"
        }
      ],
      "stateMutability": "view",
      "type": "function"
    },
    {
      "inputs": [],
      "name": "getUsedReserve",
      "outputs": [
        {
          "internalType": "uint256",
          "name": "",
          "type": "uint256"
        }
      ],
      "stateMutability": "view",
      "type": "function"
    },
    {
      "inputs": [
        {
          "internalType": "address",
          "name": "initialOwner",
          "type": "address"
        }
      ],
      "name": "initialize",
      "outputs": [],
      "stateMutability": "nonpayable",
      "type": "function"
    },
    {
      "inputs": [
        {
          "internalType": "string",
          "name": "enterpriseName",
          "type": "string"
        },
        {
          "internalType": "string",
          "name": "baseUri",
          "type": "string"
        },
        {
          "internalType": "contract IEstimator",
          "name": "estimator",
          "type": "address"
        },
        {
          "internalType": "contract IConverter",
          "name": "converter",
          "type": "address"
        },
        {
          "internalType": "address",
          "name": "owner",
          "type": "address"
        }
      ],
      "name": "initialize",
      "outputs": [],
      "stateMutability": "nonpayable",
      "type": "function"
    },
    {
      "inputs": [
        {
          "internalType": "address",
          "name": "powerTokenImpl",
          "type": "address"
        },
        {
          "internalType": "contract IERC20Metadata",
          "name": "liquidityToken",
          "type": "address"
        },
        {
          "internalType": "contract IInterestToken",
          "name": "interestToken",
          "type": "address"
        },
        {
          "internalType": "contract IBorrowToken",
          "name": "borrowToken",
          "type": "address"
        }
      ],
      "name": "initializeTokens",
      "outputs": [],
      "stateMutability": "nonpayable",
      "type": "function"
    },
    {
      "inputs": [
        {
          "internalType": "contract IPowerToken",
          "name": "powerToken",
          "type": "address"
        }
      ],
      "name": "isRegisteredPowerToken",
      "outputs": [
        {
          "internalType": "bool",
          "name": "",
          "type": "bool"
        }
      ],
      "stateMutability": "view",
      "type": "function"
    },
    {
      "inputs": [
        {
          "internalType": "contract IPowerToken",
          "name": "powerToken",
          "type": "address"
        },
        {
          "internalType": "uint32",
          "name": "duration",
          "type": "uint32"
        }
      ],
      "name": "isServiceAllowedLoanDuration",
      "outputs": [
        {
          "internalType": "bool",
          "name": "",
          "type": "bool"
        }
      ],
      "stateMutability": "view",
      "type": "function"
    },
    {
      "inputs": [
        {
          "internalType": "contract IERC20",
          "name": "token",
          "type": "address"
        }
      ],
      "name": "isSupportedPaymentToken",
      "outputs": [
        {
          "internalType": "bool",
          "name": "",
          "type": "bool"
        }
      ],
      "stateMutability": "view",
      "type": "function"
    },
    {
      "inputs": [],
      "name": "owner",
      "outputs": [
        {
          "internalType": "address",
          "name": "",
          "type": "address"
        }
      ],
      "stateMutability": "view",
      "type": "function"
    },
    {
      "inputs": [
        {
          "internalType": "uint256",
          "name": "index",
          "type": "uint256"
        }
      ],
      "name": "paymentToken",
      "outputs": [
        {
          "internalType": "address",
          "name": "",
          "type": "address"
        }
      ],
      "stateMutability": "view",
      "type": "function"
    },
    {
      "inputs": [
        {
          "internalType": "contract IERC20",
          "name": "token",
          "type": "address"
        }
      ],
      "name": "paymentTokenIndex",
      "outputs": [
        {
          "internalType": "int16",
          "name": "",
          "type": "int16"
        }
      ],
      "stateMutability": "view",
      "type": "function"
    },
    {
      "inputs": [
        {
          "internalType": "string",
          "name": "baseUri",
          "type": "string"
        }
      ],
      "name": "setBaseUri",
      "outputs": [],
      "stateMutability": "nonpayable",
      "type": "function"
    },
    {
      "inputs": [
        {
          "internalType": "uint32",
          "name": "newPeriod",
          "type": "uint32"
        }
      ],
      "name": "setBorrowerLoanReturnGracePeriod",
      "outputs": [],
      "stateMutability": "nonpayable",
      "type": "function"
    },
    {
      "inputs": [
        {
          "internalType": "contract IConverter",
          "name": "newConverter",
          "type": "address"
        }
      ],
      "name": "setConverter",
      "outputs": [],
      "stateMutability": "nonpayable",
      "type": "function"
    },
    {
      "inputs": [
        {
          "internalType": "address",
          "name": "newCollector",
          "type": "address"
        }
      ],
      "name": "setEnterpriseCollector",
      "outputs": [],
      "stateMutability": "nonpayable",
      "type": "function"
    },
    {
      "inputs": [
        {
          "internalType": "uint32",
          "name": "newPeriod",
          "type": "uint32"
        }
      ],
      "name": "setEnterpriseLoanCollectGracePeriod",
      "outputs": [],
      "stateMutability": "nonpayable",
      "type": "function"
    },
    {
      "inputs": [
        {
          "internalType": "address",
          "name": "newVault",
          "type": "address"
        }
      ],
      "name": "setEnterpriseVault",
      "outputs": [],
      "stateMutability": "nonpayable",
      "type": "function"
    },
    {
      "inputs": [
        {
          "internalType": "contract IEstimator",
          "name": "newEstimator",
          "type": "address"
        }
      ],
      "name": "setEstimator",
      "outputs": [],
      "stateMutability": "nonpayable",
      "type": "function"
    },
    {
      "inputs": [
        {
          "internalType": "uint16",
          "name": "newGcFeePercent",
          "type": "uint16"
        }
      ],
      "name": "setGcFeePercent",
      "outputs": [],
      "stateMutability": "nonpayable",
      "type": "function"
    },
    {
      "inputs": [
        {
          "internalType": "uint32",
          "name": "interestHalfLife",
          "type": "uint32"
        }
      ],
      "name": "setInterestHalfLife",
      "outputs": [],
      "stateMutability": "nonpayable",
      "type": "function"
    },
    {
      "inputs": [
        {
          "internalType": "contract IPowerToken",
          "name": "powerToken",
          "type": "address"
        },
        {
          "internalType": "uint112",
          "name": "baseRate",
          "type": "uint112"
        },
        {
          "internalType": "contract IERC20Metadata",
          "name": "baseToken",
          "type": "address"
        },
        {
          "internalType": "uint112",
          "name": "minGCFee",
          "type": "uint112"
        }
      ],
      "name": "setServiceBaseRate",
      "outputs": [],
      "stateMutability": "nonpayable",
      "type": "function"
    },
    {
      "inputs": [
        {
          "internalType": "contract IPowerToken",
          "name": "powerToken",
          "type": "address"
        },
        {
          "internalType": "uint16",
          "name": "newServiceFeePercent",
          "type": "uint16"
        }
      ],
      "name": "setServiceFeePercent",
      "outputs": [],
      "stateMutability": "nonpayable",
      "type": "function"
    },
    {
      "inputs": [
        {
          "internalType": "contract IPowerToken[]",
          "name": "powerToken",
          "type": "address[]"
        },
        {
          "internalType": "uint16[]",
          "name": "newServiceFeePercent",
          "type": "uint16[]"
        }
      ],
      "name": "setServiceFeePercentBatch",
      "outputs": [],
      "stateMutability": "nonpayable",
      "type": "function"
    },
    {
      "inputs": [
        {
          "internalType": "contract IPowerToken",
          "name": "powerToken",
          "type": "address"
        },
        {
          "internalType": "uint32",
          "name": "minLoanDuration",
          "type": "uint32"
        },
        {
          "internalType": "uint32",
          "name": "maxLoanDuration",
          "type": "uint32"
        }
      ],
      "name": "setServiceLoanDurationLimits",
      "outputs": [],
      "stateMutability": "nonpayable",
      "type": "function"
    },
    {
      "inputs": [
        {
          "internalType": "address",
          "name": "newOwner",
          "type": "address"
        }
      ],
      "name": "transferOwnership",
      "outputs": [],
      "stateMutability": "nonpayable",
      "type": "function"
    }
  ],
  "bytecode": "0x60806040526004805463ffffffff60a01b191660e160a61b17905560088054600160a01b600160e01b031916650546000002a360a61b17905534801561004457600080fd5b50612fc3806100546000396000f3fe608060405234801561001057600080fd5b50600436106103785760003560e01c80638e9fcf81116101d3578063c20aa9bc11610104578063e9028683116100a2578063f4e28f9a1161007c578063f4e28f9a146109e7578063fbac9a5514610a20578063fc0915b114610a46578063fcb2884e14610a5957600080fd5b8063e902868314610988578063edc1a628146109c1578063f2fde38b146109d457600080fd5b8063d1c82007116100de578063d1c82007146108d0578063db0ed6a014610909578063df57f2fa1461091c578063e36eca0c1461095157600080fd5b8063c20aa9bc14610899578063c4d66de8146108ac578063c93d0b92146108bf57600080fd5b8063aebb504111610171578063b56de97e1161014b578063b56de97e1461084d578063b96266fa14610860578063bf17088014610875578063bfd84fb41461088657600080fd5b8063aebb504114610810578063b19337a414610818578063b406bf6d1461082b57600080fd5b8063a0bcfc7f116101ad578063a0bcfc7f146107c4578063a0efd118146107d7578063a358426f146107ec578063a554b26d146107ff57600080fd5b80638e9fcf811461078b57806390f55edd1461079e5780639c7aa7f8146107b157600080fd5b8063449497ec116102ad5780637791c42d1161024b57806383b9a0091161022557806383b9a0091461072057806389035b61146107315780638d6d50c9146107445780638da5cb5b1461077a57600080fd5b80637791c42d146106e75780637eda9ff8146106f85780638188d50d1461070b57600080fd5b80635a9b0b89116102875780635a9b0b891461068b57806362c1f388146106ab578063644e44df146106be57806375417851146106cf57600080fd5b8063449497ec1461063357806353c091241461064657806359bf5d391461067557600080fd5b80632261b07f1161031a5780632e365ade116102f45780632e365ade146105a65780632fb2067f146105b95780633184fc64146105fa578063375921481461060d57600080fd5b80632261b07f146105145780632457056e146105255780632b39a0ac1461056f57600080fd5b80630e101b60116103565780630e101b60146104b95780630ea1dc9e146104cc57806311eec529146104dd57806315a52302146104f257600080fd5b8063041960581461037d5780630714012c146103ad5780630cac36b2146104a4575b600080fd5b61039061038b3660046128b5565b610a61565b6040516001600160a01b0390911681526020015b60405180910390f35b6104976103bb3660046128b5565b6040805161010081018252600080825260208201819052918101829052606081018290526080810182905260a0810182905260c0810182905260e08101919091525060009081526011602090815260409182902082516101008101845281546001600160701b038082168352600160701b80830461ffff90811696850196909652600160801b830463ffffffff90811697850197909752600160a01b830487166060850152600160c01b830487166080850152600160e01b90920490951660a083015260019092015493841660c082015292041660e082015290565b6040516103a49190612c5e565b6104ac610a9f565b6040516103a49190612ae3565b6103906104c73660046128b5565b610b31565b6002546001600160a01b0316610390565b6104f06104eb3660046125aa565b610b54565b005b61050561050036600461252c565b610cb7565b6040516103a493929190612af6565b6006546001600160a01b0316610390565b61055761053336600461252c565b6001600160a01b03166000908152601360205260409020546001600160701b031690565b6040516001600160701b0390911681526020016103a4565b61055761057d36600461252c565b6001600160a01b0316600090815260136020526040902060010154600160e01b900461ffff1690565b6104f06105b43660046128cd565b610e5a565b6105ea6105c736600461252c565b6001600160a01b0316600090815260096020526040812054600190810b900b1390565b60405190151581526020016103a4565b6104f061060836600461254f565b610f04565b600454600160a01b900463ffffffff165b60405163ffffffff90911681526020016103a4565b6104f061064136600461289b565b610fac565b61039061065436600461252c565b6001600160a01b039081166000908152601360205260409020600101541690565b61067d610ff8565b6040519081526020016103a4565b61069361101d565b6040516103a49c9b9a99989796959493929190612b2e565b6104f06106b936600461252c565b6111e0565b6001546001600160a01b0316610390565b6106d7611252565b6040516103a494939291906129de565b6008546001600160a01b0316610390565b6104f061070636600461252c565b611507565b600854600160a01b900463ffffffff1661061e565b6004546001600160a01b0316610390565b6105ea61073f36600461252c565b611579565b61061e61075236600461252c565b6001600160a01b0316600090815260136020526040902054600160e01b900463ffffffff1690565b6000546001600160a01b0316610390565b6104f06107993660046126c9565b6115a3565b6104f06107ac36600461252c565b61169f565b6104f06107bf36600461252c565b611711565b6104f06107d236600461270d565b611747565b600854600160c01b900463ffffffff1661061e565b6105ea6107fa36600461269e565b611782565b6007546001600160a01b0316610390565b61067d6117db565b6104f061082636600461252c565b6117f2565b600854600160e01b900461ffff165b60405161ffff90911681526020016103a4565b6104f061085b3660046128cd565b611864565b61086861190d565b6040516103a49190612a96565b6005546001600160a01b0316610390565b6104f061089436600461252c565b61196e565b6104f06108a736600461266a565b6119c7565b6104f06108ba36600461252c565b611a21565b6003546001600160a01b0316610390565b61061e6108de36600461252c565b6001600160a01b0316600090815260136020526040902060010154600160a01b900463ffffffff1690565b6104f06109173660046127c5565b611b41565b61092f61092a3660046128b5565b611c0d565b60408051825181526020808401519082015291810151908201526060016103a4565b61083a61095f36600461252c565b6001600160a01b0316600090815260136020526040902060010154600160f01b900461ffff1690565b61055761099636600461252c565b6001600160a01b0316600090815260136020526040902054600160701b90046001600160701b031690565b6104f06109cf3660046128cd565b611c6a565b6104f06109e236600461252c565b611cba565b61061e6109f536600461252c565b6001600160a01b0316600090815260136020526040902060010154600160c01b900463ffffffff1690565b610a33610a2e36600461252c565b611da4565b60405160019190910b81526020016103a4565b6104f0610a54366004612613565b611dd1565b600d5461067d565b600060148281548110610a8457634e487b7160e01b600052603260045260246000fd5b6000918252602090912001546001600160a01b031692915050565b6060600b8054610aae90612e9d565b80601f0160208091040260200160405190810160405280929190818152602001828054610ada90612e9d565b8015610b275780601f10610afc57610100808354040283529160200191610b27565b820191906000526020600020905b815481529060010190602001808311610b0a57829003601f168201915b5050505050905090565b6000600a8281548110610a8457634e487b7160e01b600052603260045260246000fd5b6000546001600160a01b03163314610b875760405162461bcd60e51b8152600401610b7e90612bfd565b60405180910390fd5b828114610bcd5760405162461bcd60e51b8152602060048201526014602482015273092dcecc2d8d2c840c2e4e4c2f240d8cadccee8d60631b6044820152606401610b7e565b60005b83811015610cb057610c10858583818110610bfb57634e487b7160e01b600052603260045260246000fd5b905060200201602081019061073f919061252c565b610c2c5760405162461bcd60e51b8152600401610b7e90612c32565b610c9e858583818110610c4f57634e487b7160e01b600052603260045260246000fd5b9050602002016020810190610c64919061252c565b848484818110610c8457634e487b7160e01b600052603260045260246000fd5b9050602002016020810190610c99919061289b565b611ecd565b80610ca881612ed8565b915050610bd0565b5050505050565b606080610cc2612304565b836001600160a01b03166306fdde036040518163ffffffff1660e01b815260040160006040518083038186803b158015610cfb57600080fd5b505afa158015610d0f573d6000803e3d6000fd5b505050506040513d6000823e601f3d908101601f19168201604052610d37919081019061274d565b846001600160a01b03166395d89b416040518163ffffffff1660e01b815260040160006040518083038186803b158015610d7057600080fd5b505afa158015610d84573d6000803e3d6000fd5b505050506040513d6000823e601f3d908101601f19168201604052610dac919081019061274d565b6001600160a01b0395861660009081526013602090815260409182902082516101008101845281546001600160701b038082168352600160701b8204169382019390935263ffffffff600160e01b938490048116948201949094526001909101549889166060820152600160a01b890483166080820152600160c01b890490921660a083015261ffff908804811660c0830152600160f01b90970490961660e0870152909590949350915050565b6000546001600160a01b03163314610e845760405162461bcd60e51b8152600401610b7e90612bfd565b60085463ffffffff600160c01b90910481169082161115610ede5760405162461bcd60e51b8152602060048201526014602482015273125b9d985b1a590819dc9858d9481c195c9a5bd960621b6044820152606401610b7e565b6008805463ffffffff909216600160a01b0263ffffffff60a01b19909216919091179055565b6004546001600160a01b031615610f535760405162461bcd60e51b8152602060048201526013602482015272105b1c9958591e481a5b9a5d1a585b1a5e9959606a1b6044820152606401610b7e565b600480546001600160a01b038087166001600160a01b03199283161790925560018054868416908316179055600280548584169083161790556003805492841692909116919091179055610fa683611f6d565b50505050565b6000546001600160a01b03163314610fd65760405162461bcd60e51b8152600401610b7e90612bfd565b6008805461ffff909216600160e01b0261ffff60e01b19909216919091179055565b6000611002612084565b6001600160701b0316600c546110189190612d62565b905090565b600f54600454600854600c54600d54600e546010805460609788976000978897889788978897889788978897889788979496600b96939563ffffffff600160a01b94859004811696948404811695600160c01b850482169561ffff600160e01b9687900416959394936001600160701b0380841694600160701b8504909116939190910416908c906110ae90612e9d565b80601f01602080910402602001604051908101604052809291908181526020018280546110da90612e9d565b80156111275780601f106110fc57610100808354040283529160200191611127565b820191906000526020600020905b81548152906001019060200180831161110a57829003601f168201915b50505050509b508a805461113a90612e9d565b80601f016020809104026020016040519081016040528092919081815260200182805461116690612e9d565b80156111b35780601f10611188576101008083540402835291602001916111b3565b820191906000526020600020905b81548152906001019060200180831161119657829003601f168201915b50505050509a509b509b509b509b509b509b509b509b509b509b509b509b50909192939495969798999a9b565b6000546001600160a01b0316331461120a5760405162461bcd60e51b8152600401610b7e90612bfd565b6001600160a01b0381166112305760405162461bcd60e51b8152600401610b7e90612bd7565b600780546001600160a01b0319166001600160a01b0392909216919091179055565b6014546060908190819081908067ffffffffffffffff81111561128557634e487b7160e01b600052604160045260246000fd5b6040519080825280602002602001820160405280156112ae578160200160208202803683370190505b5094508067ffffffffffffffff8111156112d857634e487b7160e01b600052604160045260246000fd5b60405190808252806020026020018201604052801561130b57816020015b60608152602001906001900390816112f65790505b5093508067ffffffffffffffff81111561133557634e487b7160e01b600052604160045260246000fd5b60405190808252806020026020018201604052801561136857816020015b60608152602001906001900390816113535790505b5092508067ffffffffffffffff81111561139257634e487b7160e01b600052604160045260246000fd5b6040519080825280602002602001820160405280156113cb57816020015b6113b8612304565b8152602001906001900390816113b05790505b50915060005b818110156114ff576000601482815481106113fc57634e487b7160e01b600052603260045260246000fd5b60009182526020822001546001600160a01b03169150808061141d84610cb7565b925092509250838a868151811061144457634e487b7160e01b600052603260045260246000fd5b60200260200101906001600160a01b031690816001600160a01b0316815250508289868151811061148557634e487b7160e01b600052603260045260246000fd5b6020026020010181905250818886815181106114b157634e487b7160e01b600052603260045260246000fd5b6020026020010181905250808786815181106114dd57634e487b7160e01b600052603260045260246000fd5b60200260200101819052505050505080806114f790612ed8565b9150506113d1565b505090919293565b6000546001600160a01b031633146115315760405162461bcd60e51b8152600401610b7e90612bfd565b6001600160a01b0381166115575760405162461bcd60e51b8152600401610b7e90612bd7565b600580546001600160a01b0319166001600160a01b0392909216919091179055565b6001600160a01b0316600090815260136020526040902054600160e01b900463ffffffff16151590565b6000546001600160a01b031633146115cd5760405162461bcd60e51b8152600401610b7e90612bfd565b826115d781611579565b6115f35760405162461bcd60e51b8152600401610b7e90612c32565b8163ffffffff168363ffffffff1611156116435760405162461bcd60e51b8152602060048201526011602482015270496e76616c6964206475726174696f6e7360781b6044820152606401610b7e565b506001600160a01b03929092166000908152601360205260409020600101805467ffffffffffffffff60a01b1916600160a01b63ffffffff9384160263ffffffff60c01b191617600160c01b9290931691909102919091179055565b6000546001600160a01b031633146116c95760405162461bcd60e51b8152600401610b7e90612bfd565b6001600160a01b0381166116ef5760405162461bcd60e51b8152600401610b7e90612bd7565b600880546001600160a01b0319166001600160a01b0392909216919091179055565b6000546001600160a01b0316331461173b5760405162461bcd60e51b8152600401610b7e90612bfd565b611744816120ec565b50565b6000546001600160a01b031633146117715760405162461bcd60e51b8152600401610b7e90612bfd565b61177d600b8383612348565b505050565b6001600160a01b0382166000908152601360205260408120600181015463ffffffff808516600160a01b90920416118015906117d35750600181015463ffffffff600160c01b909104811690841611155b949350505050565b6000600d546117e8610ff8565b6110189190612e3d565b6000546001600160a01b0316331461181c5760405162461bcd60e51b8152600401610b7e90612bfd565b6001600160a01b0381166118425760405162461bcd60e51b8152600401610b7e90612bd7565b600680546001600160a01b0319166001600160a01b0392909216919091179055565b6000546001600160a01b0316331461188e5760405162461bcd60e51b8152600401610b7e90612bfd565b60085463ffffffff808316600160a01b9092041611156118e75760405162461bcd60e51b8152602060048201526014602482015273125b9d985b1a590819dc9858d9481c195c9a5bd960621b6044820152606401610b7e565b6008805463ffffffff909216600160c01b0263ffffffff60c01b19909216919091179055565b60606014805480602002602001604051908101604052809291908181526020018280548015610b2757602002820191906000526020600020905b81546001600160a01b03168152600190910190602001808311611947575050505050905090565b6000546001600160a01b031633146119985760405162461bcd60e51b8152600401610b7e90612bfd565b6001600160a01b0381166119be5760405162461bcd60e51b8152600401610b7e90612bd7565b61174481611f6d565b6000546001600160a01b031633146119f15760405162461bcd60e51b8152600401610b7e90612bfd565b816119fb81611579565b611a175760405162461bcd60e51b8152600401610b7e90612c32565b61177d8383611ecd565b6000546001600160a01b031615611a8c5760405162461bcd60e51b815260206004820152602960248201527f496e697469616c697a61626c654f776e61626c653a20616c726561647920696e6044820152681a5d1a585b1a5e995960ba1b6064820152608401610b7e565b6001600160a01b038116611af65760405162461bcd60e51b815260206004820152602b60248201527f496e697469616c697a61626c654f776e61626c653a20696e76616c696420696e60448201526a34ba34b0b61037bbb732b960a91b6064820152608401610b7e565b600080546001600160a01b0319166001600160a01b03831690811782556040519091907f8be0079c531659141344cd1fd0a4f28419497f9722a3daafe3b4186f6b6457e0908290a350565b60108054611b4e90612e9d565b159050611b935760405162461bcd60e51b8152602060048201526013602482015272105b1c9958591e481a5b9a5d1a585b1a5e9959606a1b6044820152606401610b7e565b611b9c81611a21565b8551611baf9060109060208901906123cc565b50611bbc600b8686612348565b50600580546001600160a01b03199081166001600160a01b03958616179091556006805482169385169390931790925560088054831691909316908117909255600780549091169091179055505050565b611c3160405180606001604052806000815260200160008152602001600081525090565b50600090815260126020908152604091829020825160608101845281548152600182015492810192909252600201549181019190915290565b6000546001600160a01b03163314611c945760405162461bcd60e51b8152600401610b7e90612bfd565b6004805463ffffffff909216600160a01b0263ffffffff60a01b19909216919091179055565b6000546001600160a01b03163314611ce45760405162461bcd60e51b8152600401610b7e90612bfd565b6001600160a01b038116611d495760405162461bcd60e51b815260206004820152602660248201527f4f776e61626c653a206e6577206f776e657220697320746865207a65726f206160448201526564647265737360d01b6064820152608401610b7e565b600080546040516001600160a01b03808516939216917f8be0079c531659141344cd1fd0a4f28419497f9722a3daafe3b4186f6b6457e091a3600080546001600160a01b0319166001600160a01b0392909216919091179055565b6001600160a01b038116600090815260096020526040812054611dcb90600190810b612dd0565b92915050565b6000546001600160a01b03163314611dfb5760405162461bcd60e51b8152600401610b7e90612bfd565b83611e0581611579565b611e215760405162461bcd60e51b8152600401610b7e90612c32565b6001600160a01b038316611e6c5760405162461bcd60e51b815260206004820152601260248201527124b73b30b634b2102130b9b2902a37b5b2b760711b6044820152606401610b7e565b506001600160a01b0393841660009081526013602052604090208054600182018054949096166001600160a01b0319909416939093179094556001600160701b03908116600160701b026001600160e01b0319909216921691909117179055565b61138861ffff82161115611f315760405162461bcd60e51b815260206004820152602560248201527f4d6178696d756d2073657276696365206665652070657263656e7420746872656044820152641cda1bdb1960da1b6064820152608401610b7e565b6001600160a01b039091166000908152601360205260409020600101805461ffff909216600160e01b0261ffff60e01b19909216919091179055565b6001600160a01b038116600090815260096020526040902054600190810b900b61200557600a8054600180820183557fc65a7bb8d6351c1cf70c95a316cc6a92839c986682d98bc35f958f4883f9d2a890910180546001600160a01b0319166001600160a01b039490941693841790559054600092835260096020526040909220805461ffff191661ffff9390920b92909216179055565b6001600160a01b038116600090815260096020526040812054600190810b900b1215611744576001600160a01b0381166000908152600960205260409020546120509060010b612f16565b6001600160a01b0382166000908152600960205260409020805460019290920b61ffff1661ffff1990921691909117905550565b600e546000906120cf9063ffffffff600160e01b820416906120b9906001600160701b0380821691600160701b900416612e15565b600454600160a01b900463ffffffff1642612193565b600e546110189190600160701b90046001600160701b0316612e15565b6001600160a01b038116600090815260096020526040902054600190810b900b6121485760405162461bcd60e51b815260206004820152600d60248201526c24b73b30b634b2103a37b5b2b760991b6044820152606401610b7e565b6001600160a01b038116600090815260096020526040812054600190810b900b1315611744576001600160a01b0381166000908152600960205260409020546120509060010b612f16565b60008463ffffffff168263ffffffff1610156121e25760405162461bcd60e51b815260206004820152600e60248201526d125b9d985b1a59081c195c9a5bd960921b6044820152606401610b7e565b6121ec8583612e54565b91506121f88383612d8e565b63ffffffff16846001600160701b0316901c935082826122189190612ef3565b915063ffffffff8216158061223457506001600160701b038416155b156122405750826117d3565b60006001600160701b0385168163ffffffff8087169061227490871671b17217f7d1cf79abc9e3b39803f2f6af40f3612db1565b61227e9190612d7a565b9050600160901b5b82156122f7576122968385612d62565b9350806122a38385612db1565b6122ad9190612d7a565b92506122bd600160901b82612d62565b90506122c98385612e3d565b9350806122d68385612db1565b6122e09190612d7a565b92506122f0600160901b82612d62565b9050612286565b5091979650505050505050565b6040805161010081018252600080825260208201819052918101829052606081018290526080810182905260a0810182905260c0810182905260e081019190915290565b82805461235490612e9d565b90600052602060002090601f01602090048101928261237657600085556123bc565b82601f1061238f5782800160ff198235161785556123bc565b828001600101855582156123bc579182015b828111156123bc5782358255916020019190600101906123a1565b506123c8929150612440565b5090565b8280546123d890612e9d565b90600052602060002090601f0160209004810192826123fa57600085556123bc565b82601f1061241357805160ff19168380011785556123bc565b828001600101855582156123bc579182015b828111156123bc578251825591602001919060010190612425565b5b808211156123c85760008155600101612441565b803561246081612f78565b919050565b60008083601f840112612476578081fd5b50813567ffffffffffffffff81111561248d578182fd5b6020830191508360208260051b85010111156124a857600080fd5b9250929050565b60008083601f8401126124c0578182fd5b50813567ffffffffffffffff8111156124d7578182fd5b6020830191508360208285010111156124a857600080fd5b80356001600160701b038116811461246057600080fd5b803561ffff8116811461246057600080fd5b803563ffffffff8116811461246057600080fd5b60006020828403121561253d578081fd5b813561254881612f78565b9392505050565b60008060008060808587031215612564578283fd5b843561256f81612f78565b9350602085013561257f81612f78565b9250604085013561258f81612f78565b9150606085013561259f81612f78565b939692955090935050565b600080600080604085870312156125bf578384fd5b843567ffffffffffffffff808211156125d6578586fd5b6125e288838901612465565b909650945060208701359150808211156125fa578384fd5b5061260787828801612465565b95989497509550505050565b60008060008060808587031215612628578384fd5b843561263381612f78565b9350612641602086016124ef565b9250604085013561265181612f78565b915061265f606086016124ef565b905092959194509250565b6000806040838503121561267c578182fd5b823561268781612f78565b915061269560208401612506565b90509250929050565b600080604083850312156126b0578182fd5b82356126bb81612f78565b915061269560208401612518565b6000806000606084860312156126dd578081fd5b83356126e881612f78565b92506126f660208501612518565b915061270460408501612518565b90509250925092565b6000806020838503121561271f578182fd5b823567ffffffffffffffff811115612735578283fd5b612741858286016124af565b90969095509350505050565b60006020828403121561275e578081fd5b815167ffffffffffffffff811115612774578182fd5b8201601f81018413612784578182fd5b805161279761279282612d3a565b612d09565b8181528560208385010111156127ab578384fd5b6127bc826020830160208601612e71565b95945050505050565b60008060008060008060a087890312156127dd578384fd5b863567ffffffffffffffff808211156127f4578586fd5b818901915089601f830112612807578586fd5b813561281561279282612d3a565b8181528b6020838601011115612829578788fd5b81602085016020830137876020838301015280995050506020890135915080821115612853578586fd5b5061286089828a016124af565b9096509450612873905060408801612455565b925061288160608801612455565b915061288f60808801612455565b90509295509295509295565b6000602082840312156128ac578081fd5b61254882612506565b6000602082840312156128c6578081fd5b5035919050565b6000602082840312156128de578081fd5b61254882612518565b600081518084526020808501808196508360051b81019150828601855b858110156122f757828403895261291c84835161292e565b98850198935090840190600101612904565b60008151808452612946816020860160208601612e71565b601f01601f19169290920160200192915050565b6001600160701b0380825116835280602083015116602084015250604081015163ffffffff808216604085015260018060a01b0360608401511660608501528060808401511660808501528060a08401511660a0850152505060c08101516129c860c084018261ffff169052565b5060e081015161177d60e084018261ffff169052565b6080808252855190820181905260009060209060a0840190828901845b82811015612a205781516001600160a01b0316845292840192908401906001016129fb565b50505083810382850152612a3481886128e7565b90508381036040850152612a4881876128e7565b84810360608601528551808252838701925090830190845b81811015612a8757612a7383855161295a565b928401926101009290920191600101612a60565b50909998505050505050505050565b6020808252825182820181905260009190848201906040850190845b81811015612ad75783516001600160a01b031683529284019291840191600101612ab2565b50909695505050505050565b602081526000612548602083018461292e565b6000610140808352612b0a8184018761292e565b90508281036020840152612b1e818661292e565b9150506117d3604083018461295a565b61018081526000612b4361018083018f61292e565b8281036020840152612b55818f61292e565b9150508b604083015263ffffffff808c166060840152808b166080840152808a1660a08401525061ffff881660c08301528660e0830152856101008301526001600160701b038516610120830152612bb96101408301856001600160701b03169052565b63ffffffff83166101608301529d9c50505050505050505050505050565b6020808252600c908201526b5a65726f206164647265737360a01b604082015260600190565b6020808252818101527f4f776e61626c653a2063616c6c6572206973206e6f7420746865206f776e6572604082015260600190565b6020808252601290820152712ab735b737bbb7102837bbb2b92a37b5b2b760711b604082015260600190565b6000610100820190506001600160701b03835116825261ffff6020840151166020830152604083015163ffffffff808216604085015280606086015116606085015250506080830151612cb9608084018263ffffffff169052565b5060a0830151612cd160a084018263ffffffff169052565b5060c0830151612cec60c08401826001600160701b03169052565b5060e0830151612d0260e084018261ffff169052565b5092915050565b604051601f8201601f1916810167ffffffffffffffff81118282101715612d3257612d32612f62565b604052919050565b600067ffffffffffffffff821115612d5457612d54612f62565b50601f01601f191660200190565b60008219821115612d7557612d75612f36565b500190565b600082612d8957612d89612f4c565b500490565b600063ffffffff80841680612da557612da5612f4c565b92169190910492915050565b6000816000190483118215151615612dcb57612dcb612f36565b500290565b60008160010b8360010b82811281617fff1901831281151615612df557612df5612f36565b81617fff018313811615612e0b57612e0b612f36565b5090039392505050565b60006001600160701b0383811690831681811015612e3557612e35612f36565b039392505050565b600082821015612e4f57612e4f612f36565b500390565b600063ffffffff83811690831681811015612e3557612e35612f36565b60005b83811015612e8c578181015183820152602001612e74565b83811115610fa65750506000910152565b600181811c90821680612eb157607f821691505b60208210811415612ed257634e487b7160e01b600052602260045260246000fd5b50919050565b6000600019821415612eec57612eec612f36565b5060010190565b600063ffffffff80841680612f0a57612f0a612f4c565b92169190910692915050565b60008160010b617fff19811415612f2f57612f2f612f36565b9003919050565b634e487b7160e01b600052601160045260246000fd5b634e487b7160e01b600052601260045260246000fd5b634e487b7160e01b600052604160045260246000fd5b6001600160a01b038116811461174457600080fdfea2646970667358221220eb04954c0e8d774986081625a14fffea8d1bcffe0e1592e6c481591d2abd349b64736f6c63430008040033",
  "linkReferences": {},
  "deployedLinkReferences": {}
}