{
  "_format": "hh-sol-artifact-1",
  "contractName": "EnterpriseStorage",
  "sourceName": "contracts/EnterpriseStorage.sol",
  "abi": [
    {
      "anonymous": false,
      "inputs": [
        {
          "indexed": true,
          "internalType": "address",
          "name": "previousOwner",
          "type": "address"
        },
        {
          "indexed": true,
          "internalType": "address",
          "name": "newOwner",
          "type": "address"
        }
      ],
      "name": "OwnershipTransferred",
      "type": "event"
    },
    {
      "inputs": [
        {
          "internalType": "address",
          "name": "token",
          "type": "address"
        }
      ],
      "name": "disablePaymentToken",
      "outputs": [],
      "stateMutability": "nonpayable",
      "type": "function"
    },
    {
      "inputs": [
        {
          "internalType": "address",
          "name": "token",
          "type": "address"
        }
      ],
      "name": "enablePaymentToken",
      "outputs": [],
      "stateMutability": "nonpayable",
      "type": "function"
    },
    {
      "inputs": [],
      "name": "getAvailableReserve",
      "outputs": [
        {
          "internalType": "uint256",
          "name": "",
          "type": "uint256"
        }
      ],
      "stateMutability": "view",
      "type": "function"
    },
    {
      "inputs": [],
      "name": "getBaseUri",
      "outputs": [
        {
          "internalType": "string",
          "name": "",
          "type": "string"
        }
      ],
      "stateMutability": "view",
      "type": "function"
    },
    {
      "inputs": [],
      "name": "getBorrowToken",
      "outputs": [
        {
          "internalType": "contract IBorrowToken",
          "name": "",
          "type": "address"
        }
      ],
      "stateMutability": "view",
      "type": "function"
    },
    {
      "inputs": [],
      "name": "getBorrowerLoanReturnGracePeriod",
      "outputs": [
        {
          "internalType": "uint32",
          "name": "",
          "type": "uint32"
        }
      ],
      "stateMutability": "view",
      "type": "function"
    },
    {
      "inputs": [],
      "name": "getConverter",
      "outputs": [
        {
          "internalType": "contract IConverter",
          "name": "",
          "type": "address"
        }
      ],
      "stateMutability": "view",
      "type": "function"
    },
    {
      "inputs": [],
      "name": "getEnterpriseCollector",
      "outputs": [
        {
          "internalType": "address",
          "name": "",
          "type": "address"
        }
      ],
      "stateMutability": "view",
      "type": "function"
    },
    {
      "inputs": [],
      "name": "getEnterpriseLoanCollectGracePeriod",
      "outputs": [
        {
          "internalType": "uint32",
          "name": "",
          "type": "uint32"
        }
      ],
      "stateMutability": "view",
      "type": "function"
    },
    {
      "inputs": [],
      "name": "getEnterpriseVault",
      "outputs": [
        {
          "internalType": "address",
          "name": "",
          "type": "address"
        }
      ],
      "stateMutability": "view",
      "type": "function"
    },
    {
      "inputs": [],
      "name": "getEstimator",
      "outputs": [
        {
          "internalType": "contract IEstimator",
          "name": "",
          "type": "address"
        }
      ],
      "stateMutability": "view",
      "type": "function"
    },
    {
      "inputs": [],
      "name": "getGCFeePercent",
      "outputs": [
        {
          "internalType": "uint16",
          "name": "",
          "type": "uint16"
        }
      ],
      "stateMutability": "view",
      "type": "function"
    },
    {
      "inputs": [],
      "name": "getInfo",
      "outputs": [
        {
          "internalType": "uint256",
          "name": "reserve",
          "type": "uint256"
        },
        {
          "internalType": "uint256",
          "name": "usedReserve",
          "type": "uint256"
        },
        {
          "internalType": "uint256",
          "name": "totalShares",
          "type": "uint256"
        },
        {
          "internalType": "string",
          "name": "name",
          "type": "string"
        }
      ],
      "stateMutability": "view",
      "type": "function"
    },
    {
      "inputs": [],
      "name": "getInterestHalfLife",
      "outputs": [
        {
          "internalType": "uint32",
          "name": "",
          "type": "uint32"
        }
      ],
      "stateMutability": "view",
      "type": "function"
    },
    {
      "inputs": [],
      "name": "getInterestToken",
      "outputs": [
        {
          "internalType": "contract IInterestToken",
          "name": "",
          "type": "address"
        }
      ],
      "stateMutability": "view",
      "type": "function"
    },
    {
      "inputs": [
        {
          "internalType": "uint256",
          "name": "tokenId",
          "type": "uint256"
        }
      ],
      "name": "getLiquidityInfo",
      "outputs": [
        {
          "components": [
            {
              "internalType": "uint256",
              "name": "amount",
              "type": "uint256"
            },
            {
              "internalType": "uint256",
              "name": "shares",
              "type": "uint256"
            },
            {
              "internalType": "uint256",
              "name": "block",
              "type": "uint256"
            }
          ],
          "internalType": "struct EnterpriseStorage.LiquidityInfo",
          "name": "",
          "type": "tuple"
        }
      ],
      "stateMutability": "view",
      "type": "function"
    },
    {
      "inputs": [],
      "name": "getLiquidityToken",
      "outputs": [
        {
          "internalType": "contract IERC20Metadata",
          "name": "",
          "type": "address"
        }
      ],
      "stateMutability": "view",
      "type": "function"
    },
    {
      "inputs": [
        {
          "internalType": "uint256",
          "name": "tokenId",
          "type": "uint256"
        }
      ],
      "name": "getLoanInfo",
      "outputs": [
        {
          "components": [
            {
              "internalType": "uint112",
              "name": "amount",
              "type": "uint112"
            },
            {
              "internalType": "uint16",
              "name": "powerTokenIndex",
              "type": "uint16"
            },
            {
              "internalType": "uint32",
              "name": "borrowingTime",
              "type": "uint32"
            },
            {
              "internalType": "uint32",
              "name": "maturityTime",
              "type": "uint32"
            },
            {
              "internalType": "uint32",
              "name": "borrowerReturnGraceTime",
              "type": "uint32"
            },
            {
              "internalType": "uint32",
              "name": "enterpriseCollectGraceTime",
              "type": "uint32"
            },
            {
              "internalType": "uint112",
              "name": "gcFee",
              "type": "uint112"
            },
            {
              "internalType": "uint16",
              "name": "gcFeeTokenIndex",
              "type": "uint16"
            }
          ],
          "internalType": "struct EnterpriseStorage.LoanInfo",
          "name": "",
          "type": "tuple"
        }
      ],
      "stateMutability": "view",
      "type": "function"
    },
    {
      "inputs": [
        {
          "internalType": "uint256",
          "name": "index",
          "type": "uint256"
        }
      ],
      "name": "getPowerToken",
      "outputs": [
        {
          "internalType": "contract IPowerToken",
          "name": "",
          "type": "address"
        }
      ],
      "stateMutability": "view",
      "type": "function"
    },
    {
      "inputs": [],
      "name": "getPowerTokenImpl",
      "outputs": [
        {
          "internalType": "address",
          "name": "",
          "type": "address"
        }
      ],
      "stateMutability": "view",
      "type": "function"
    },
    {
      "inputs": [
        {
          "internalType": "contract IPowerToken",
          "name": "powerToken",
          "type": "address"
        }
      ],
      "name": "getPowerTokenIndex",
      "outputs": [
        {
          "internalType": "uint16",
          "name": "",
          "type": "uint16"
        }
      ],
      "stateMutability": "view",
      "type": "function"
    },
    {
      "inputs": [],
      "name": "getPowerTokens",
      "outputs": [
        {
          "internalType": "contract IPowerToken[]",
          "name": "",
          "type": "address[]"
        }
      ],
      "stateMutability": "view",
      "type": "function"
    },
    {
      "inputs": [],
      "name": "getPowerTokensInfo",
      "outputs": [
        {
          "internalType": "address[]",
          "name": "addresses",
          "type": "address[]"
        },
        {
          "internalType": "string[]",
          "name": "names",
          "type": "string[]"
        },
        {
          "internalType": "string[]",
          "name": "symbols",
          "type": "string[]"
        },
        {
          "internalType": "uint32[]",
          "name": "halfLifes",
          "type": "uint32[]"
        }
      ],
      "stateMutability": "view",
      "type": "function"
    },
    {
      "inputs": [],
      "name": "getReserve",
      "outputs": [
        {
          "internalType": "uint256",
          "name": "",
          "type": "uint256"
        }
      ],
      "stateMutability": "view",
      "type": "function"
    },
    {
      "inputs": [
        {
          "internalType": "contract IPowerToken",
          "name": "powerToken",
          "type": "address"
        }
      ],
      "name": "getServiceBaseRate",
      "outputs": [
        {
          "internalType": "uint112",
          "name": "",
          "type": "uint112"
        }
      ],
      "stateMutability": "view",
      "type": "function"
    },
    {
      "inputs": [
        {
          "internalType": "contract IPowerToken",
          "name": "powerToken",
          "type": "address"
        }
      ],
      "name": "getServiceBaseToken",
      "outputs": [
        {
          "internalType": "contract IERC20Metadata",
          "name": "",
          "type": "address"
        }
      ],
      "stateMutability": "view",
      "type": "function"
    },
    {
      "inputs": [
        {
          "internalType": "contract IPowerToken",
          "name": "powerToken",
          "type": "address"
        }
      ],
      "name": "getServiceFeePercent",
      "outputs": [
        {
          "internalType": "uint112",
          "name": "",
          "type": "uint112"
        }
      ],
      "stateMutability": "view",
      "type": "function"
    },
    {
      "inputs": [
        {
          "internalType": "contract IPowerToken",
          "name": "powerToken",
          "type": "address"
        }
      ],
      "name": "getServiceHalfLife",
      "outputs": [
        {
          "internalType": "uint32",
          "name": "",
          "type": "uint32"
        }
      ],
      "stateMutability": "view",
      "type": "function"
    },
    {
      "inputs": [
        {
          "internalType": "contract IPowerToken",
          "name": "powerToken",
          "type": "address"
        }
      ],
      "name": "getServiceMaxLoanDuration",
      "outputs": [
        {
          "internalType": "uint32",
          "name": "",
          "type": "uint32"
        }
      ],
      "stateMutability": "view",
      "type": "function"
    },
    {
      "inputs": [
        {
          "internalType": "contract IPowerToken",
          "name": "powerToken",
          "type": "address"
        }
      ],
      "name": "getServiceMinGCFee",
      "outputs": [
        {
          "internalType": "uint112",
          "name": "",
          "type": "uint112"
        }
      ],
      "stateMutability": "view",
      "type": "function"
    },
    {
      "inputs": [
        {
          "internalType": "contract IPowerToken",
          "name": "powerToken",
          "type": "address"
        }
      ],
      "name": "getServiceMinLoanDuration",
      "outputs": [
        {
          "internalType": "uint32",
          "name": "",
          "type": "uint32"
        }
      ],
      "stateMutability": "view",
      "type": "function"
    },
    {
      "inputs": [],
      "name": "getUsedReserve",
      "outputs": [
        {
          "internalType": "uint256",
          "name": "",
          "type": "uint256"
        }
      ],
      "stateMutability": "view",
      "type": "function"
    },
    {
      "inputs": [
        {
          "internalType": "address",
          "name": "initialOwner",
          "type": "address"
        }
      ],
      "name": "initialize",
      "outputs": [],
      "stateMutability": "nonpayable",
      "type": "function"
    },
    {
      "inputs": [
        {
          "internalType": "string",
          "name": "enterpriseName",
          "type": "string"
        },
        {
          "internalType": "string",
          "name": "baseUri",
          "type": "string"
        },
        {
          "internalType": "contract IEstimator",
          "name": "estimator",
          "type": "address"
        },
        {
          "internalType": "contract IConverter",
          "name": "converter",
          "type": "address"
        },
        {
          "internalType": "address",
          "name": "owner",
          "type": "address"
        }
      ],
      "name": "initialize",
      "outputs": [],
      "stateMutability": "nonpayable",
      "type": "function"
    },
    {
      "inputs": [
        {
          "internalType": "address",
          "name": "powerTokenImpl",
          "type": "address"
        },
        {
          "internalType": "contract IERC20Metadata",
          "name": "liquidityToken",
          "type": "address"
        },
        {
          "internalType": "contract IInterestToken",
          "name": "interestToken",
          "type": "address"
        },
        {
          "internalType": "contract IBorrowToken",
          "name": "borrowToken",
          "type": "address"
        }
      ],
      "name": "initializeTokens",
      "outputs": [],
      "stateMutability": "nonpayable",
      "type": "function"
    },
    {
      "inputs": [
        {
          "internalType": "contract IPowerToken",
          "name": "powerToken",
          "type": "address"
        }
      ],
      "name": "isRegisteredPowerToken",
      "outputs": [
        {
          "internalType": "bool",
          "name": "",
          "type": "bool"
        }
      ],
      "stateMutability": "view",
      "type": "function"
    },
    {
      "inputs": [
        {
          "internalType": "contract IPowerToken",
          "name": "powerToken",
          "type": "address"
        },
        {
          "internalType": "uint32",
          "name": "duration",
          "type": "uint32"
        }
      ],
      "name": "isServiceAllowedLoanDuration",
      "outputs": [
        {
          "internalType": "bool",
          "name": "",
          "type": "bool"
        }
      ],
      "stateMutability": "view",
      "type": "function"
    },
    {
      "inputs": [
        {
          "internalType": "contract IERC20",
          "name": "token",
          "type": "address"
        }
      ],
      "name": "isSupportedPaymentToken",
      "outputs": [
        {
          "internalType": "bool",
          "name": "",
          "type": "bool"
        }
      ],
      "stateMutability": "view",
      "type": "function"
    },
    {
      "inputs": [],
      "name": "owner",
      "outputs": [
        {
          "internalType": "address",
          "name": "",
          "type": "address"
        }
      ],
      "stateMutability": "view",
      "type": "function"
    },
    {
      "inputs": [
        {
          "internalType": "uint256",
          "name": "index",
          "type": "uint256"
        }
      ],
      "name": "paymentToken",
      "outputs": [
        {
          "internalType": "address",
          "name": "",
          "type": "address"
        }
      ],
      "stateMutability": "view",
      "type": "function"
    },
    {
      "inputs": [
        {
          "internalType": "contract IERC20",
          "name": "token",
          "type": "address"
        }
      ],
      "name": "paymentTokenIndex",
      "outputs": [
        {
          "internalType": "int16",
          "name": "",
          "type": "int16"
        }
      ],
      "stateMutability": "view",
      "type": "function"
    },
    {
      "inputs": [
        {
          "internalType": "string",
          "name": "baseUri",
          "type": "string"
        }
      ],
      "name": "setBaseUri",
      "outputs": [],
      "stateMutability": "nonpayable",
      "type": "function"
    },
    {
      "inputs": [
        {
          "internalType": "uint32",
          "name": "newPeriod",
          "type": "uint32"
        }
      ],
      "name": "setBorrowerLoanReturnGracePeriod",
      "outputs": [],
      "stateMutability": "nonpayable",
      "type": "function"
    },
    {
      "inputs": [
        {
          "internalType": "contract IConverter",
          "name": "newConverter",
          "type": "address"
        }
      ],
      "name": "setConverter",
      "outputs": [],
      "stateMutability": "nonpayable",
      "type": "function"
    },
    {
      "inputs": [
        {
          "internalType": "address",
          "name": "newCollector",
          "type": "address"
        }
      ],
      "name": "setEnterpriseCollector",
      "outputs": [],
      "stateMutability": "nonpayable",
      "type": "function"
    },
    {
      "inputs": [
        {
          "internalType": "uint32",
          "name": "newPeriod",
          "type": "uint32"
        }
      ],
      "name": "setEnterpriseLoanCollectGracePeriod",
      "outputs": [],
      "stateMutability": "nonpayable",
      "type": "function"
    },
    {
      "inputs": [
        {
          "internalType": "address",
          "name": "newVault",
          "type": "address"
        }
      ],
      "name": "setEnterpriseVault",
      "outputs": [],
      "stateMutability": "nonpayable",
      "type": "function"
    },
    {
      "inputs": [
        {
          "internalType": "contract IEstimator",
          "name": "newEstimator",
          "type": "address"
        }
      ],
      "name": "setEstimator",
      "outputs": [],
      "stateMutability": "nonpayable",
      "type": "function"
    },
    {
      "inputs": [
        {
          "internalType": "uint16",
          "name": "newGcFeePercent",
          "type": "uint16"
        }
      ],
      "name": "setGcFeePercent",
      "outputs": [],
      "stateMutability": "nonpayable",
      "type": "function"
    },
    {
      "inputs": [
        {
          "internalType": "uint32",
          "name": "interestHalfLife",
          "type": "uint32"
        }
      ],
      "name": "setInterestHalfLife",
      "outputs": [],
      "stateMutability": "nonpayable",
      "type": "function"
    },
    {
      "inputs": [
        {
          "internalType": "contract IPowerToken",
          "name": "powerToken",
          "type": "address"
        },
        {
          "internalType": "uint112",
          "name": "baseRate",
          "type": "uint112"
        },
        {
          "internalType": "contract IERC20Metadata",
          "name": "baseToken",
          "type": "address"
        },
        {
          "internalType": "uint112",
          "name": "minGCFee",
          "type": "uint112"
        }
      ],
      "name": "setServiceBaseRate",
      "outputs": [],
      "stateMutability": "nonpayable",
      "type": "function"
    },
    {
      "inputs": [
        {
          "internalType": "contract IPowerToken",
          "name": "powerToken",
          "type": "address"
        },
        {
          "internalType": "uint16",
          "name": "newServiceFeePercent",
          "type": "uint16"
        }
      ],
      "name": "setServiceFeePercent",
      "outputs": [],
      "stateMutability": "nonpayable",
      "type": "function"
    },
    {
      "inputs": [
        {
          "internalType": "contract IPowerToken[]",
          "name": "powerToken",
          "type": "address[]"
        },
        {
          "internalType": "uint16[]",
          "name": "newServiceFeePercent",
          "type": "uint16[]"
        }
      ],
      "name": "setServiceFeePercentBatch",
      "outputs": [],
      "stateMutability": "nonpayable",
      "type": "function"
    },
    {
      "inputs": [
        {
          "internalType": "contract IPowerToken",
          "name": "powerToken",
          "type": "address"
        },
        {
          "internalType": "uint32",
          "name": "minLoanDuration",
          "type": "uint32"
        },
        {
          "internalType": "uint32",
          "name": "maxLoanDuration",
          "type": "uint32"
        }
      ],
      "name": "setServiceLoanDurationLimits",
      "outputs": [],
      "stateMutability": "nonpayable",
      "type": "function"
    },
    {
      "inputs": [
        {
          "internalType": "address",
          "name": "newOwner",
          "type": "address"
        }
      ],
      "name": "transferOwnership",
      "outputs": [],
      "stateMutability": "nonpayable",
      "type": "function"
    }
  ],
  "bytecode": "0x60806040526004805463ffffffff60a01b191660e160a61b17905560088054600160a01b600160e01b031916650546000002a360a61b17905534801561004457600080fd5b50612c2b806100546000396000f3fe608060405234801561001057600080fd5b506004361061035d5760003560e01c80638e9fcf81116101d3578063c20aa9bc11610104578063e9028683116100a2578063f4e28f9a1161007c578063f4e28f9a1461097f578063fbac9a55146109b8578063fc0915b1146109de578063fcb2884e146109f157600080fd5b8063e902868314610920578063edc1a62814610959578063f2fde38b1461096c57600080fd5b8063d1c82007116100de578063d1c8200714610868578063db0ed6a0146108a1578063df57f2fa146108b4578063e36eca0c146108e957600080fd5b8063c20aa9bc14610831578063c4d66de814610844578063c93d0b921461085757600080fd5b8063aebb504111610171578063b56de97e1161014b578063b56de97e146107e5578063b96266fa146107f8578063bf1708801461080d578063bfd84fb41461081e57600080fd5b8063aebb5041146107a8578063b19337a4146107b0578063b406bf6d146107c357600080fd5b8063a0bcfc7f116101ad578063a0bcfc7f1461075c578063a0efd1181461076f578063a358426f14610784578063a554b26d1461079757600080fd5b80638e9fcf811461072357806390f55edd146107365780639c7aa7f81461074957600080fd5b80633d4df897116102ad5780637791c42d1161024b57806383b9a0091161022557806383b9a009146106db57806389035b61146106ec5780638d6d50c9146106ff5780638da5cb5b1461071257600080fd5b80637791c42d146106a25780637eda9ff8146106b35780638188d50d146106c657600080fd5b806359bf5d391161028757806359bf5d39146106505780635a9b0b891461066657806362c1f3881461067e578063644e44df1461069157600080fd5b80633d4df897146105f6578063449497ec1461060e57806353c091241461062157600080fd5b80632261b07f1161031a5780632e365ade116102f45780632e365ade146105695780632fb2067f1461057c5780633184fc64146105bd57806337592148146105d057600080fd5b80632261b07f146104d75780632457056e146104e85780632b39a0ac1461053257600080fd5b806304196058146103625780630714012c146103925780630cac36b2146104895780630e101b601461049e5780630ea1dc9e146104b157806311eec529146104c2575b600080fd5b610375610370366004612658565b6109f9565b6040516001600160a01b0390911681526020015b60405180910390f35b61047c6103a0366004612658565b6040805161010081018252600080825260208201819052918101829052606081018290526080810182905260a0810182905260c0810182905260e08101919091525060009081526011602090815260409182902082516101008101845281546001600160701b038082168352600160701b80830461ffff90811696850196909652600160801b830463ffffffff90811697850197909752600160a01b830487166060850152600160c01b830487166080850152600160e01b90920490951660a083015260019092015493841660c082015292041660e082015290565b6040516103899190612897565b610491610a37565b60405161038991906127fd565b6103756104ac366004612658565b610ac9565b6002546001600160a01b0316610375565b6104d56104d036600461234d565b610aec565b005b6006546001600160a01b0316610375565b61051a6104f63660046122cf565b6001600160a01b03166000908152601360205260409020546001600160701b031690565b6040516001600160701b039091168152602001610389565b61051a6105403660046122cf565b6001600160a01b0316600090815260136020526040902060010154600160e01b900461ffff1690565b6104d5610577366004612670565b610c4f565b6105ad61058a3660046122cf565b6001600160a01b0316600090815260096020526040812054600190810b900b1390565b6040519015158152602001610389565b6104d56105cb3660046122f2565b610cfa565b600454600160a01b900463ffffffff165b60405163ffffffff9091168152602001610389565b6105fe610da2565b60405161038994939291906126fd565b6104d561061c36600461263e565b611136565b61037561062f3660046122cf565b6001600160a01b039081166000908152601360205260409020600101541690565b610658611182565b604051908152602001610389565b61066e6111a7565b6040516103899493929190612942565b6104d561068c3660046122cf565b611253565b6001546001600160a01b0316610375565b6008546001600160a01b0316610375565b6104d56106c13660046122cf565b6112c5565b600854600160a01b900463ffffffff166105e1565b6004546001600160a01b0316610375565b6105ad6106fa3660046122cf565b611337565b6105e161070d3660046122cf565b611361565b6000546001600160a01b0316610375565b6104d561073136600461246c565b611389565b6104d56107443660046122cf565b611485565b6104d56107573660046122cf565b6114f7565b6104d561076a3660046124b0565b61152d565b600854600160c01b900463ffffffff166105e1565b6105ad610792366004612441565b611568565b6007546001600160a01b0316610375565b6106586115c1565b6104d56107be3660046122cf565b6115d8565b600854600160e01b900461ffff165b60405161ffff9091168152602001610389565b6104d56107f3366004612670565b61164a565b6108006116f4565b60405161038991906127b0565b6005546001600160a01b0316610375565b6104d561082c3660046122cf565b611755565b6104d561083f36600461240d565b6117ae565b6104d56108523660046122cf565b611808565b6003546001600160a01b0316610375565b6105e16108763660046122cf565b6001600160a01b0316600090815260136020526040902060010154600160a01b900463ffffffff1690565b6104d56108af366004612568565b611928565b6108c76108c2366004612658565b6119f4565b6040805182518152602080840151908201529181015190820152606001610389565b6107d26108f73660046122cf565b6001600160a01b0316600090815260136020526040902060010154600160f01b900461ffff1690565b61051a61092e3660046122cf565b6001600160a01b0316600090815260136020526040902054600160701b90046001600160701b031690565b6104d5610967366004612670565b611a51565b6104d561097a3660046122cf565b611aa1565b6105e161098d3660046122cf565b6001600160a01b0316600090815260136020526040902060010154600160c01b900463ffffffff1690565b6109cb6109c63660046122cf565b611b8b565b60405160019190910b8152602001610389565b6104d56109ec3660046123b6565b611bb8565b600d54610658565b600060148281548110610a1c57634e487b7160e01b600052603260045260246000fd5b6000918252602090912001546001600160a01b031692915050565b6060600b8054610a4690612b05565b80601f0160208091040260200160405190810160405280929190818152602001828054610a7290612b05565b8015610abf5780601f10610a9457610100808354040283529160200191610abf565b820191906000526020600020905b815481529060010190602001808311610aa257829003601f168201915b5050505050905090565b6000600a8281548110610a1c57634e487b7160e01b600052603260045260246000fd5b6000546001600160a01b03163314610b1f5760405162461bcd60e51b8152600401610b1690612836565b60405180910390fd5b828114610b655760405162461bcd60e51b8152602060048201526014602482015273092dcecc2d8d2c840c2e4e4c2f240d8cadccee8d60631b6044820152606401610b16565b60005b83811015610c4857610ba8858583818110610b9357634e487b7160e01b600052603260045260246000fd5b90506020020160208101906106fa91906122cf565b610bc45760405162461bcd60e51b8152600401610b169061286b565b610c36858583818110610be757634e487b7160e01b600052603260045260246000fd5b9050602002016020810190610bfc91906122cf565b848484818110610c1c57634e487b7160e01b600052603260045260246000fd5b9050602002016020810190610c31919061263e565b611cb4565b80610c4081612b40565b915050610b68565b5050505050565b6000546001600160a01b03163314610c795760405162461bcd60e51b8152600401610b1690612836565b60085463ffffffff600160c01b90910481169082161115610cd45760405162461bcd60e51b8152602060048201526015602482015274496e76616c696420677261636520706572696f647360581b6044820152606401610b16565b6008805463ffffffff909216600160a01b0263ffffffff60a01b19909216919091179055565b6004546001600160a01b031615610d495760405162461bcd60e51b8152602060048201526013602482015272105b1c9958591e481a5b9a5d1a585b1a5e9959606a1b6044820152606401610b16565b600480546001600160a01b038087166001600160a01b03199283161790925560018054868416908316179055600280548584169083161790556003805492841692909116919091179055610d9c83611d54565b50505050565b6014546060908190819081908067ffffffffffffffff811115610dd557634e487b7160e01b600052604160045260246000fd5b604051908082528060200260200182016040528015610dfe578160200160208202803683370190505b5094508067ffffffffffffffff811115610e2857634e487b7160e01b600052604160045260246000fd5b604051908082528060200260200182016040528015610e5b57816020015b6060815260200190600190039081610e465790505b5093508067ffffffffffffffff811115610e8557634e487b7160e01b600052604160045260246000fd5b604051908082528060200260200182016040528015610eb857816020015b6060815260200190600190039081610ea35790505b5092508067ffffffffffffffff811115610ee257634e487b7160e01b600052604160045260246000fd5b604051908082528060200260200182016040528015610f0b578160200160208202803683370190505b50915060005b8181101561112e57600060148281548110610f3c57634e487b7160e01b600052603260045260246000fd5b9060005260206000200160009054906101000a90046001600160a01b0316905080878381518110610f7d57634e487b7160e01b600052603260045260246000fd5b60200260200101906001600160a01b031690816001600160a01b031681525050806001600160a01b03166306fdde036040518163ffffffff1660e01b815260040160006040518083038186803b158015610fd657600080fd5b505afa158015610fea573d6000803e3d6000fd5b505050506040513d6000823e601f3d908101601f1916820160405261101291908101906124f0565b86838151811061103257634e487b7160e01b600052603260045260246000fd5b6020026020010181905250806001600160a01b03166395d89b416040518163ffffffff1660e01b815260040160006040518083038186803b15801561107657600080fd5b505afa15801561108a573d6000803e3d6000fd5b505050506040513d6000823e601f3d908101601f191682016040526110b291908101906124f0565b8583815181106110d257634e487b7160e01b600052603260045260246000fd5b60200260200101819052506110e681611361565b84838151811061110657634e487b7160e01b600052603260045260246000fd5b63ffffffff90921660209283029190910190910152508061112681612b40565b915050610f11565b505090919293565b6000546001600160a01b031633146111605760405162461bcd60e51b8152600401610b1690612836565b6008805461ffff909216600160e01b0261ffff60e01b19909216919091179055565b600061118c611e6b565b6001600160701b0316600c546111a291906129ca565b905090565b60008060006060600c54600d54600f5460108080546111c590612b05565b80601f01602080910402602001604051908101604052809291908181526020018280546111f190612b05565b801561123e5780601f106112135761010080835404028352916020019161123e565b820191906000526020600020905b81548152906001019060200180831161122157829003601f168201915b50505050509050935093509350935090919293565b6000546001600160a01b0316331461127d5760405162461bcd60e51b8152600401610b1690612836565b6001600160a01b0381166112a35760405162461bcd60e51b8152600401610b1690612810565b600780546001600160a01b0319166001600160a01b0392909216919091179055565b6000546001600160a01b031633146112ef5760405162461bcd60e51b8152600401610b1690612836565b6001600160a01b0381166113155760405162461bcd60e51b8152600401610b1690612810565b600580546001600160a01b0319166001600160a01b0392909216919091179055565b6001600160a01b0316600090815260136020526040902054600160e01b900463ffffffff16151590565b6001600160a01b0316600090815260136020526040902054600160e01b900463ffffffff1690565b6000546001600160a01b031633146113b35760405162461bcd60e51b8152600401610b1690612836565b826113bd81611337565b6113d95760405162461bcd60e51b8152600401610b169061286b565b8163ffffffff168363ffffffff1611156114295760405162461bcd60e51b8152602060048201526011602482015270496e76616c6964206475726174696f6e7360781b6044820152606401610b16565b506001600160a01b03929092166000908152601360205260409020600101805467ffffffffffffffff60a01b1916600160a01b63ffffffff9384160263ffffffff60c01b191617600160c01b9290931691909102919091179055565b6000546001600160a01b031633146114af5760405162461bcd60e51b8152600401610b1690612836565b6001600160a01b0381166114d55760405162461bcd60e51b8152600401610b1690612810565b600880546001600160a01b0319166001600160a01b0392909216919091179055565b6000546001600160a01b031633146115215760405162461bcd60e51b8152600401610b1690612836565b61152a81611ed3565b50565b6000546001600160a01b031633146115575760405162461bcd60e51b8152600401610b1690612836565b611563600b83836120eb565b505050565b6001600160a01b0382166000908152601360205260408120600181015463ffffffff808516600160a01b90920416118015906115b95750600181015463ffffffff600160c01b909104811690841611155b949350505050565b6000600d546115ce611182565b6111a29190612aa5565b6000546001600160a01b031633146116025760405162461bcd60e51b8152600401610b1690612836565b6001600160a01b0381166116285760405162461bcd60e51b8152600401610b1690612810565b600680546001600160a01b0319166001600160a01b0392909216919091179055565b6000546001600160a01b031633146116745760405162461bcd60e51b8152600401610b1690612836565b60085463ffffffff808316600160a01b9092041611156116ce5760405162461bcd60e51b8152602060048201526015602482015274496e76616c696420677261636520706572696f647360581b6044820152606401610b16565b6008805463ffffffff909216600160c01b0263ffffffff60c01b19909216919091179055565b60606014805480602002602001604051908101604052809291908181526020018280548015610abf57602002820191906000526020600020905b81546001600160a01b0316815260019091019060200180831161172e575050505050905090565b6000546001600160a01b0316331461177f5760405162461bcd60e51b8152600401610b1690612836565b6001600160a01b0381166117a55760405162461bcd60e51b8152600401610b1690612810565b61152a81611d54565b6000546001600160a01b031633146117d85760405162461bcd60e51b8152600401610b1690612836565b816117e281611337565b6117fe5760405162461bcd60e51b8152600401610b169061286b565b6115638383611cb4565b6000546001600160a01b0316156118735760405162461bcd60e51b815260206004820152602960248201527f496e697469616c697a61626c654f776e61626c653a20616c726561647920696e6044820152681a5d1a585b1a5e995960ba1b6064820152608401610b16565b6001600160a01b0381166118dd5760405162461bcd60e51b815260206004820152602b60248201527f496e697469616c697a61626c654f776e61626c653a20696e76616c696420696e60448201526a34ba34b0b61037bbb732b960a91b6064820152608401610b16565b600080546001600160a01b0319166001600160a01b03831690811782556040519091907f8be0079c531659141344cd1fd0a4f28419497f9722a3daafe3b4186f6b6457e0908290a350565b6010805461193590612b05565b15905061197a5760405162461bcd60e51b8152602060048201526013602482015272105b1c9958591e481a5b9a5d1a585b1a5e9959606a1b6044820152606401610b16565b61198381611808565b855161199690601090602089019061216f565b506119a3600b86866120eb565b50600580546001600160a01b03199081166001600160a01b03958616179091556006805482169385169390931790925560088054831691909316908117909255600780549091169091179055505050565b611a1860405180606001604052806000815260200160008152602001600081525090565b50600090815260126020908152604091829020825160608101845281548152600182015492810192909252600201549181019190915290565b6000546001600160a01b03163314611a7b5760405162461bcd60e51b8152600401610b1690612836565b6004805463ffffffff909216600160a01b0263ffffffff60a01b19909216919091179055565b6000546001600160a01b03163314611acb5760405162461bcd60e51b8152600401610b1690612836565b6001600160a01b038116611b305760405162461bcd60e51b815260206004820152602660248201527f4f776e61626c653a206e6577206f776e657220697320746865207a65726f206160448201526564647265737360d01b6064820152608401610b16565b600080546040516001600160a01b03808516939216917f8be0079c531659141344cd1fd0a4f28419497f9722a3daafe3b4186f6b6457e091a3600080546001600160a01b0319166001600160a01b0392909216919091179055565b6001600160a01b038116600090815260096020526040812054611bb290600190810b612a38565b92915050565b6000546001600160a01b03163314611be25760405162461bcd60e51b8152600401610b1690612836565b83611bec81611337565b611c085760405162461bcd60e51b8152600401610b169061286b565b6001600160a01b038316611c535760405162461bcd60e51b815260206004820152601260248201527124b73b30b634b2102130b9b2902a37b5b2b760711b6044820152606401610b16565b506001600160a01b0393841660009081526013602052604090208054600182018054949096166001600160a01b0319909416939093179094556001600160701b03908116600160701b026001600160e01b0319909216921691909117179055565b61138861ffff82161115611d185760405162461bcd60e51b815260206004820152602560248201527f4d6178696d756d2073657276696365206665652070657263656e7420746872656044820152641cda1bdb1960da1b6064820152608401610b16565b6001600160a01b039091166000908152601360205260409020600101805461ffff909216600160e01b0261ffff60e01b19909216919091179055565b6001600160a01b038116600090815260096020526040902054600190810b900b611dec57600a8054600180820183557fc65a7bb8d6351c1cf70c95a316cc6a92839c986682d98bc35f958f4883f9d2a890910180546001600160a01b0319166001600160a01b039490941693841790559054600092835260096020526040909220805461ffff191661ffff9390920b92909216179055565b6001600160a01b038116600090815260096020526040812054600190810b900b121561152a576001600160a01b038116600090815260096020526040902054611e379060010b612b7e565b6001600160a01b0382166000908152600960205260409020805460019290920b61ffff1661ffff1990921691909117905550565b600e54600090611eb69063ffffffff600160e01b82041690611ea0906001600160701b0380821691600160701b900416612a7d565b600454600160a01b900463ffffffff1642611f7a565b600e546111a29190600160701b90046001600160701b0316612a7d565b6001600160a01b038116600090815260096020526040902054600190810b900b611f2f5760405162461bcd60e51b815260206004820152600d60248201526c24b73b30b634b2103a37b5b2b760991b6044820152606401610b16565b6001600160a01b038116600090815260096020526040812054600190810b900b131561152a576001600160a01b038116600090815260096020526040902054611e379060010b612b7e565b60008463ffffffff168263ffffffff161015611fc95760405162461bcd60e51b815260206004820152600e60248201526d125b9d985b1a59081c195c9a5bd960921b6044820152606401610b16565b611fd38583612abc565b9150611fdf83836129f6565b63ffffffff16846001600160701b0316901c93508282611fff9190612b5b565b915063ffffffff8216158061201b57506001600160701b038416155b156120275750826115b9565b60006001600160701b0385168163ffffffff8087169061205b90871671b17217f7d1cf79abc9e3b39803f2f6af40f3612a19565b61206591906129e2565b9050600160901b5b82156120de5761207d83856129ca565b93508061208a8385612a19565b61209491906129e2565b92506120a4600160901b826129ca565b90506120b08385612aa5565b9350806120bd8385612a19565b6120c791906129e2565b92506120d7600160901b826129ca565b905061206d565b5091979650505050505050565b8280546120f790612b05565b90600052602060002090601f016020900481019282612119576000855561215f565b82601f106121325782800160ff1982351617855561215f565b8280016001018555821561215f579182015b8281111561215f578235825591602001919060010190612144565b5061216b9291506121e3565b5090565b82805461217b90612b05565b90600052602060002090601f01602090048101928261219d576000855561215f565b82601f106121b657805160ff191683800117855561215f565b8280016001018555821561215f579182015b8281111561215f5782518255916020019190600101906121c8565b5b8082111561216b57600081556001016121e4565b803561220381612be0565b919050565b60008083601f840112612219578081fd5b50813567ffffffffffffffff811115612230578182fd5b6020830191508360208260051b850101111561224b57600080fd5b9250929050565b60008083601f840112612263578182fd5b50813567ffffffffffffffff81111561227a578182fd5b60208301915083602082850101111561224b57600080fd5b80356001600160701b038116811461220357600080fd5b803561ffff8116811461220357600080fd5b803563ffffffff8116811461220357600080fd5b6000602082840312156122e0578081fd5b81356122eb81612be0565b9392505050565b60008060008060808587031215612307578283fd5b843561231281612be0565b9350602085013561232281612be0565b9250604085013561233281612be0565b9150606085013561234281612be0565b939692955090935050565b60008060008060408587031215612362578384fd5b843567ffffffffffffffff80821115612379578586fd5b61238588838901612208565b9096509450602087013591508082111561239d578384fd5b506123aa87828801612208565b95989497509550505050565b600080600080608085870312156123cb578384fd5b84356123d681612be0565b93506123e460208601612292565b925060408501356123f481612be0565b915061240260608601612292565b905092959194509250565b6000806040838503121561241f578182fd5b823561242a81612be0565b9150612438602084016122a9565b90509250929050565b60008060408385031215612453578182fd5b823561245e81612be0565b9150612438602084016122bb565b600080600060608486031215612480578081fd5b833561248b81612be0565b9250612499602085016122bb565b91506124a7604085016122bb565b90509250925092565b600080602083850312156124c2578182fd5b823567ffffffffffffffff8111156124d8578283fd5b6124e485828601612252565b90969095509350505050565b600060208284031215612501578081fd5b815167ffffffffffffffff811115612517578182fd5b8201601f81018413612527578182fd5b805161253a612535826129a2565b612971565b81815285602083850101111561254e578384fd5b61255f826020830160208601612ad9565b95945050505050565b60008060008060008060a08789031215612580578384fd5b863567ffffffffffffffff80821115612597578586fd5b818901915089601f8301126125aa578586fd5b81356125b8612535826129a2565b8181528b60208386010111156125cc578788fd5b816020850160208301378760208383010152809950505060208901359150808211156125f6578586fd5b5061260389828a01612252565b90965094506126169050604088016121f8565b9250612624606088016121f8565b9150612632608088016121f8565b90509295509295509295565b60006020828403121561264f578081fd5b6122eb826122a9565b600060208284031215612669578081fd5b5035919050565b600060208284031215612681578081fd5b6122eb826122bb565b600081518084526020808501808196508360051b81019150828601855b858110156120de5782840389526126bf8483516126d1565b988501989350908401906001016126a7565b600081518084526126e9816020860160208601612ad9565b601f01601f19169290920160200192915050565b6080808252855190820181905260009060209060a0840190828901845b8281101561273f5781516001600160a01b03168452928401929084019060010161271a565b50505083810382850152612753818861268a565b90508381036040850152612767818761268a565b84810360608601528551808252838701925090830190845b818110156127a157835163ffffffff168352928401929184019160010161277f565b50909998505050505050505050565b6020808252825182820181905260009190848201906040850190845b818110156127f15783516001600160a01b0316835292840192918401916001016127cc565b50909695505050505050565b6020815260006122eb60208301846126d1565b6020808252600c908201526b5a65726f206164647265737360a01b604082015260600190565b6020808252818101527f4f776e61626c653a2063616c6c6572206973206e6f7420746865206f776e6572604082015260600190565b6020808252601290820152712ab735b737bbb7102837bbb2b92a37b5b2b760711b604082015260600190565b6000610100820190506001600160701b03835116825261ffff6020840151166020830152604083015163ffffffff8082166040850152806060860151166060850152505060808301516128f2608084018263ffffffff169052565b5060a083015161290a60a084018263ffffffff169052565b5060c083015161292560c08401826001600160701b03169052565b5060e083015161293b60e084018261ffff169052565b5092915050565b84815283602082015282604082015260806060820152600061296760808301846126d1565b9695505050505050565b604051601f8201601f1916810167ffffffffffffffff8111828210171561299a5761299a612bca565b604052919050565b600067ffffffffffffffff8211156129bc576129bc612bca565b50601f01601f191660200190565b600082198211156129dd576129dd612b9e565b500190565b6000826129f1576129f1612bb4565b500490565b600063ffffffff80841680612a0d57612a0d612bb4565b92169190910492915050565b6000816000190483118215151615612a3357612a33612b9e565b500290565b60008160010b8360010b82811281617fff1901831281151615612a5d57612a5d612b9e565b81617fff018313811615612a7357612a73612b9e565b5090039392505050565b60006001600160701b0383811690831681811015612a9d57612a9d612b9e565b039392505050565b600082821015612ab757612ab7612b9e565b500390565b600063ffffffff83811690831681811015612a9d57612a9d612b9e565b60005b83811015612af4578181015183820152602001612adc565b83811115610d9c5750506000910152565b600181811c90821680612b1957607f821691505b60208210811415612b3a57634e487b7160e01b600052602260045260246000fd5b50919050565b6000600019821415612b5457612b54612b9e565b5060010190565b600063ffffffff80841680612b7257612b72612bb4565b92169190910692915050565b60008160010b617fff19811415612b9757612b97612b9e565b9003919050565b634e487b7160e01b600052601160045260246000fd5b634e487b7160e01b600052601260045260246000fd5b634e487b7160e01b600052604160045260246000fd5b6001600160a01b038116811461152a57600080fdfea2646970667358221220874457f852391d7422b5a9dd0d84f1f31a1dd16c326ac37396a40b81db66938b64736f6c63430008040033",
  "linkReferences": {},
  "deployedLinkReferences": {}
}