{
  "_format": "hh-sol-artifact-1",
  "contractName": "EnterpriseStorage",
  "sourceName": "contracts/EnterpriseStorage.sol",
  "abi": [
    {
      "anonymous": false,
      "inputs": [
        {
          "indexed": true,
          "internalType": "address",
          "name": "previousOwner",
          "type": "address"
        },
        {
          "indexed": true,
          "internalType": "address",
          "name": "newOwner",
          "type": "address"
        }
      ],
      "name": "OwnershipTransferred",
      "type": "event"
    },
    {
      "inputs": [
        {
          "internalType": "address",
          "name": "token",
          "type": "address"
        }
      ],
      "name": "disablePaymentToken",
      "outputs": [],
      "stateMutability": "nonpayable",
      "type": "function"
    },
    {
      "inputs": [
        {
          "internalType": "address",
          "name": "token",
          "type": "address"
        }
      ],
      "name": "enablePaymentToken",
      "outputs": [],
      "stateMutability": "nonpayable",
      "type": "function"
    },
    {
      "inputs": [],
      "name": "getAvailableReserve",
      "outputs": [
        {
          "internalType": "uint256",
          "name": "",
          "type": "uint256"
        }
      ],
      "stateMutability": "view",
      "type": "function"
    },
    {
      "inputs": [],
      "name": "getBaseUri",
      "outputs": [
        {
          "internalType": "string",
          "name": "",
          "type": "string"
        }
      ],
      "stateMutability": "view",
      "type": "function"
    },
    {
      "inputs": [],
      "name": "getBorrowToken",
      "outputs": [
        {
          "internalType": "contract IBorrowToken",
          "name": "",
          "type": "address"
        }
      ],
      "stateMutability": "view",
      "type": "function"
    },
    {
      "inputs": [],
      "name": "getBorrowerLoanReturnGracePeriod",
      "outputs": [
        {
          "internalType": "uint32",
          "name": "",
          "type": "uint32"
        }
      ],
      "stateMutability": "view",
      "type": "function"
    },
    {
      "inputs": [],
      "name": "getConverter",
      "outputs": [
        {
          "internalType": "contract IConverter",
          "name": "",
          "type": "address"
        }
      ],
      "stateMutability": "view",
      "type": "function"
    },
    {
      "inputs": [],
      "name": "getEnterpriseCollector",
      "outputs": [
        {
          "internalType": "address",
          "name": "",
          "type": "address"
        }
      ],
      "stateMutability": "view",
      "type": "function"
    },
    {
      "inputs": [],
      "name": "getEnterpriseLoanCollectGracePeriod",
      "outputs": [
        {
          "internalType": "uint32",
          "name": "",
          "type": "uint32"
        }
      ],
      "stateMutability": "view",
      "type": "function"
    },
    {
      "inputs": [],
      "name": "getEnterpriseVault",
      "outputs": [
        {
          "internalType": "address",
          "name": "",
          "type": "address"
        }
      ],
      "stateMutability": "view",
      "type": "function"
    },
    {
      "inputs": [],
      "name": "getEstimator",
      "outputs": [
        {
          "internalType": "contract IEstimator",
          "name": "",
          "type": "address"
        }
      ],
      "stateMutability": "view",
      "type": "function"
    },
    {
      "inputs": [],
      "name": "getGCFeePercent",
      "outputs": [
        {
          "internalType": "uint16",
          "name": "",
          "type": "uint16"
        }
      ],
      "stateMutability": "view",
      "type": "function"
    },
    {
      "inputs": [],
      "name": "getInfo",
      "outputs": [
        {
          "internalType": "string",
          "name": "name",
          "type": "string"
        },
        {
          "internalType": "string",
          "name": "baseUri",
          "type": "string"
        },
        {
          "internalType": "uint256",
          "name": "totalShares",
          "type": "uint256"
        },
        {
          "internalType": "uint32",
          "name": "interestHalfLife",
          "type": "uint32"
        },
        {
          "internalType": "uint32",
          "name": "borrowerLoanReturnGracePeriod",
          "type": "uint32"
        },
        {
          "internalType": "uint32",
          "name": "enterpriseLoanCollectGracePeriod",
          "type": "uint32"
        },
        {
          "internalType": "uint16",
          "name": "gcFeePercent",
          "type": "uint16"
        },
        {
          "internalType": "uint256",
          "name": "fixedReserve",
          "type": "uint256"
        },
        {
          "internalType": "uint256",
          "name": "usedReserve",
          "type": "uint256"
        },
        {
          "internalType": "uint112",
          "name": "streamingReserve",
          "type": "uint112"
        },
        {
          "internalType": "uint112",
          "name": "streamingReserveTarget",
          "type": "uint112"
        },
        {
          "internalType": "uint32",
          "name": "streamingReserveUpdated",
          "type": "uint32"
        }
      ],
      "stateMutability": "view",
      "type": "function"
    },
    {
      "inputs": [],
      "name": "getInterestHalfLife",
      "outputs": [
        {
          "internalType": "uint32",
          "name": "",
          "type": "uint32"
        }
      ],
      "stateMutability": "view",
      "type": "function"
    },
    {
      "inputs": [],
      "name": "getInterestToken",
      "outputs": [
        {
          "internalType": "contract IInterestToken",
          "name": "",
          "type": "address"
        }
      ],
      "stateMutability": "view",
      "type": "function"
    },
    {
      "inputs": [
        {
          "internalType": "uint256",
          "name": "tokenId",
          "type": "uint256"
        }
      ],
      "name": "getLiquidityInfo",
      "outputs": [
        {
          "components": [
            {
              "internalType": "uint256",
              "name": "amount",
              "type": "uint256"
            },
            {
              "internalType": "uint256",
              "name": "shares",
              "type": "uint256"
            },
            {
              "internalType": "uint256",
              "name": "block",
              "type": "uint256"
            }
          ],
          "internalType": "struct EnterpriseStorage.LiquidityInfo",
          "name": "",
          "type": "tuple"
        }
      ],
      "stateMutability": "view",
      "type": "function"
    },
    {
      "inputs": [],
      "name": "getLiquidityToken",
      "outputs": [
        {
          "internalType": "contract IERC20Metadata",
          "name": "",
          "type": "address"
        }
      ],
      "stateMutability": "view",
      "type": "function"
    },
    {
      "inputs": [
        {
          "internalType": "uint256",
          "name": "tokenId",
          "type": "uint256"
        }
      ],
      "name": "getLoanInfo",
      "outputs": [
        {
          "components": [
            {
              "internalType": "uint112",
              "name": "amount",
              "type": "uint112"
            },
            {
              "internalType": "uint16",
              "name": "powerTokenIndex",
              "type": "uint16"
            },
            {
              "internalType": "uint32",
              "name": "borrowingTime",
              "type": "uint32"
            },
            {
              "internalType": "uint32",
              "name": "maturityTime",
              "type": "uint32"
            },
            {
              "internalType": "uint32",
              "name": "borrowerReturnGraceTime",
              "type": "uint32"
            },
            {
              "internalType": "uint32",
              "name": "enterpriseCollectGraceTime",
              "type": "uint32"
            },
            {
              "internalType": "uint112",
              "name": "gcFee",
              "type": "uint112"
            },
            {
              "internalType": "uint16",
              "name": "gcFeeTokenIndex",
              "type": "uint16"
            }
          ],
          "internalType": "struct EnterpriseStorage.LoanInfo",
          "name": "",
          "type": "tuple"
        }
      ],
      "stateMutability": "view",
      "type": "function"
    },
    {
      "inputs": [
        {
          "internalType": "uint256",
          "name": "index",
          "type": "uint256"
        }
      ],
      "name": "getPowerToken",
      "outputs": [
        {
          "internalType": "contract IPowerToken",
          "name": "",
          "type": "address"
        }
      ],
      "stateMutability": "view",
      "type": "function"
    },
    {
      "inputs": [],
      "name": "getPowerTokenImpl",
      "outputs": [
        {
          "internalType": "address",
          "name": "",
          "type": "address"
        }
      ],
      "stateMutability": "view",
      "type": "function"
    },
    {
      "inputs": [
        {
          "internalType": "contract IPowerToken",
          "name": "powerToken",
          "type": "address"
        }
      ],
      "name": "getPowerTokenIndex",
      "outputs": [
        {
          "internalType": "uint16",
          "name": "",
          "type": "uint16"
        }
      ],
      "stateMutability": "view",
      "type": "function"
    },
    {
      "inputs": [],
      "name": "getPowerTokens",
      "outputs": [
        {
          "internalType": "contract IPowerToken[]",
          "name": "",
          "type": "address[]"
        }
      ],
      "stateMutability": "view",
      "type": "function"
    },
    {
      "inputs": [],
      "name": "getReserve",
      "outputs": [
        {
          "internalType": "uint256",
          "name": "",
          "type": "uint256"
        }
      ],
      "stateMutability": "view",
      "type": "function"
    },
    {
      "inputs": [
        {
          "internalType": "contract IPowerToken",
          "name": "powerToken",
          "type": "address"
        }
      ],
      "name": "getServiceBaseRate",
      "outputs": [
        {
          "internalType": "uint112",
          "name": "",
          "type": "uint112"
        }
      ],
      "stateMutability": "view",
      "type": "function"
    },
    {
      "inputs": [
        {
          "internalType": "contract IPowerToken",
          "name": "powerToken",
          "type": "address"
        }
      ],
      "name": "getServiceBaseToken",
      "outputs": [
        {
          "internalType": "contract IERC20Metadata",
          "name": "",
          "type": "address"
        }
      ],
      "stateMutability": "view",
      "type": "function"
    },
    {
      "inputs": [
        {
          "internalType": "contract IPowerToken",
          "name": "powerToken",
          "type": "address"
        }
      ],
      "name": "getServiceFeePercent",
      "outputs": [
        {
          "internalType": "uint112",
          "name": "",
          "type": "uint112"
        }
      ],
      "stateMutability": "view",
      "type": "function"
    },
    {
      "inputs": [
        {
          "internalType": "contract IPowerToken",
          "name": "powerToken",
          "type": "address"
        }
      ],
      "name": "getServiceHalfLife",
      "outputs": [
        {
          "internalType": "uint32",
          "name": "",
          "type": "uint32"
        }
      ],
      "stateMutability": "view",
      "type": "function"
    },
    {
      "inputs": [
        {
          "internalType": "contract IPowerToken",
          "name": "powerToken",
          "type": "address"
        }
      ],
      "name": "getServiceMaxLoanDuration",
      "outputs": [
        {
          "internalType": "uint32",
          "name": "",
          "type": "uint32"
        }
      ],
      "stateMutability": "view",
      "type": "function"
    },
    {
      "inputs": [
        {
          "internalType": "contract IPowerToken",
          "name": "powerToken",
          "type": "address"
        }
      ],
      "name": "getServiceMinGCFee",
      "outputs": [
        {
          "internalType": "uint112",
          "name": "",
          "type": "uint112"
        }
      ],
      "stateMutability": "view",
      "type": "function"
    },
    {
      "inputs": [
        {
          "internalType": "contract IPowerToken",
          "name": "powerToken",
          "type": "address"
        }
      ],
      "name": "getServiceMinLoanDuration",
      "outputs": [
        {
          "internalType": "uint32",
          "name": "",
          "type": "uint32"
        }
      ],
      "stateMutability": "view",
      "type": "function"
    },
    {
      "inputs": [],
      "name": "getServicesInfo",
      "outputs": [
        {
          "internalType": "address[]",
          "name": "addresses",
          "type": "address[]"
        },
        {
          "internalType": "string[]",
          "name": "names",
          "type": "string[]"
        },
        {
          "internalType": "string[]",
          "name": "symbols",
          "type": "string[]"
        },
        {
          "components": [
            {
              "internalType": "uint112",
              "name": "baseRate",
              "type": "uint112"
            },
            {
              "internalType": "uint112",
              "name": "minGCFee",
              "type": "uint112"
            },
            {
              "internalType": "uint32",
              "name": "halfLife",
              "type": "uint32"
            },
            {
              "internalType": "contract IERC20Metadata",
              "name": "baseToken",
              "type": "address"
            },
            {
              "internalType": "uint32",
              "name": "minLoanDuration",
              "type": "uint32"
            },
            {
              "internalType": "uint32",
              "name": "maxLoanDuration",
              "type": "uint32"
            },
            {
              "internalType": "uint16",
              "name": "serviceFeePercent",
              "type": "uint16"
            },
            {
              "internalType": "uint16",
              "name": "index",
              "type": "uint16"
            }
          ],
          "internalType": "struct EnterpriseStorage.ServiceConfig[]",
          "name": "configs",
          "type": "tuple[]"
        }
      ],
      "stateMutability": "view",
      "type": "function"
    },
    {
      "inputs": [],
      "name": "getUsedReserve",
      "outputs": [
        {
          "internalType": "uint256",
          "name": "",
          "type": "uint256"
        }
      ],
      "stateMutability": "view",
      "type": "function"
    },
    {
      "inputs": [
        {
          "internalType": "address",
          "name": "initialOwner",
          "type": "address"
        }
      ],
      "name": "initialize",
      "outputs": [],
      "stateMutability": "nonpayable",
      "type": "function"
    },
    {
      "inputs": [
        {
          "internalType": "string",
          "name": "enterpriseName",
          "type": "string"
        },
        {
          "internalType": "string",
          "name": "baseUri",
          "type": "string"
        },
        {
          "internalType": "contract IEstimator",
          "name": "estimator",
          "type": "address"
        },
        {
          "internalType": "contract IConverter",
          "name": "converter",
          "type": "address"
        },
        {
          "internalType": "address",
          "name": "owner",
          "type": "address"
        }
      ],
      "name": "initialize",
      "outputs": [],
      "stateMutability": "nonpayable",
      "type": "function"
    },
    {
      "inputs": [
        {
          "internalType": "address",
          "name": "powerTokenImpl",
          "type": "address"
        },
        {
          "internalType": "contract IERC20Metadata",
          "name": "liquidityToken",
          "type": "address"
        },
        {
          "internalType": "contract IInterestToken",
          "name": "interestToken",
          "type": "address"
        },
        {
          "internalType": "contract IBorrowToken",
          "name": "borrowToken",
          "type": "address"
        }
      ],
      "name": "initializeTokens",
      "outputs": [],
      "stateMutability": "nonpayable",
      "type": "function"
    },
    {
      "inputs": [
        {
          "internalType": "contract IPowerToken",
          "name": "powerToken",
          "type": "address"
        }
      ],
      "name": "isRegisteredPowerToken",
      "outputs": [
        {
          "internalType": "bool",
          "name": "",
          "type": "bool"
        }
      ],
      "stateMutability": "view",
      "type": "function"
    },
    {
      "inputs": [
        {
          "internalType": "contract IPowerToken",
          "name": "powerToken",
          "type": "address"
        },
        {
          "internalType": "uint32",
          "name": "duration",
          "type": "uint32"
        }
      ],
      "name": "isServiceAllowedLoanDuration",
      "outputs": [
        {
          "internalType": "bool",
          "name": "",
          "type": "bool"
        }
      ],
      "stateMutability": "view",
      "type": "function"
    },
    {
      "inputs": [
        {
          "internalType": "contract IERC20",
          "name": "token",
          "type": "address"
        }
      ],
      "name": "isSupportedPaymentToken",
      "outputs": [
        {
          "internalType": "bool",
          "name": "",
          "type": "bool"
        }
      ],
      "stateMutability": "view",
      "type": "function"
    },
    {
      "inputs": [],
      "name": "owner",
      "outputs": [
        {
          "internalType": "address",
          "name": "",
          "type": "address"
        }
      ],
      "stateMutability": "view",
      "type": "function"
    },
    {
      "inputs": [
        {
          "internalType": "uint256",
          "name": "index",
          "type": "uint256"
        }
      ],
      "name": "paymentToken",
      "outputs": [
        {
          "internalType": "address",
          "name": "",
          "type": "address"
        }
      ],
      "stateMutability": "view",
      "type": "function"
    },
    {
      "inputs": [
        {
          "internalType": "contract IERC20",
          "name": "token",
          "type": "address"
        }
      ],
      "name": "paymentTokenIndex",
      "outputs": [
        {
          "internalType": "int16",
          "name": "",
          "type": "int16"
        }
      ],
      "stateMutability": "view",
      "type": "function"
    },
    {
      "inputs": [
        {
          "internalType": "string",
          "name": "baseUri",
          "type": "string"
        }
      ],
      "name": "setBaseUri",
      "outputs": [],
      "stateMutability": "nonpayable",
      "type": "function"
    },
    {
      "inputs": [
        {
          "internalType": "uint32",
          "name": "newPeriod",
          "type": "uint32"
        }
      ],
      "name": "setBorrowerLoanReturnGracePeriod",
      "outputs": [],
      "stateMutability": "nonpayable",
      "type": "function"
    },
    {
      "inputs": [
        {
          "internalType": "contract IConverter",
          "name": "newConverter",
          "type": "address"
        }
      ],
      "name": "setConverter",
      "outputs": [],
      "stateMutability": "nonpayable",
      "type": "function"
    },
    {
      "inputs": [
        {
          "internalType": "address",
          "name": "newCollector",
          "type": "address"
        }
      ],
      "name": "setEnterpriseCollector",
      "outputs": [],
      "stateMutability": "nonpayable",
      "type": "function"
    },
    {
      "inputs": [
        {
          "internalType": "uint32",
          "name": "newPeriod",
          "type": "uint32"
        }
      ],
      "name": "setEnterpriseLoanCollectGracePeriod",
      "outputs": [],
      "stateMutability": "nonpayable",
      "type": "function"
    },
    {
      "inputs": [
        {
          "internalType": "address",
          "name": "newVault",
          "type": "address"
        }
      ],
      "name": "setEnterpriseVault",
      "outputs": [],
      "stateMutability": "nonpayable",
      "type": "function"
    },
    {
      "inputs": [
        {
          "internalType": "contract IEstimator",
          "name": "newEstimator",
          "type": "address"
        }
      ],
      "name": "setEstimator",
      "outputs": [],
      "stateMutability": "nonpayable",
      "type": "function"
    },
    {
      "inputs": [
        {
          "internalType": "uint16",
          "name": "newGcFeePercent",
          "type": "uint16"
        }
      ],
      "name": "setGcFeePercent",
      "outputs": [],
      "stateMutability": "nonpayable",
      "type": "function"
    },
    {
      "inputs": [
        {
          "internalType": "uint32",
          "name": "interestHalfLife",
          "type": "uint32"
        }
      ],
      "name": "setInterestHalfLife",
      "outputs": [],
      "stateMutability": "nonpayable",
      "type": "function"
    },
    {
      "inputs": [
        {
          "internalType": "contract IPowerToken",
          "name": "powerToken",
          "type": "address"
        },
        {
          "internalType": "uint112",
          "name": "baseRate",
          "type": "uint112"
        },
        {
          "internalType": "contract IERC20Metadata",
          "name": "baseToken",
          "type": "address"
        },
        {
          "internalType": "uint112",
          "name": "minGCFee",
          "type": "uint112"
        }
      ],
      "name": "setServiceBaseRate",
      "outputs": [],
      "stateMutability": "nonpayable",
      "type": "function"
    },
    {
      "inputs": [
        {
          "internalType": "contract IPowerToken",
          "name": "powerToken",
          "type": "address"
        },
        {
          "internalType": "uint16",
          "name": "newServiceFeePercent",
          "type": "uint16"
        }
      ],
      "name": "setServiceFeePercent",
      "outputs": [],
      "stateMutability": "nonpayable",
      "type": "function"
    },
    {
      "inputs": [
        {
          "internalType": "contract IPowerToken[]",
          "name": "powerToken",
          "type": "address[]"
        },
        {
          "internalType": "uint16[]",
          "name": "newServiceFeePercent",
          "type": "uint16[]"
        }
      ],
      "name": "setServiceFeePercentBatch",
      "outputs": [],
      "stateMutability": "nonpayable",
      "type": "function"
    },
    {
      "inputs": [
        {
          "internalType": "contract IPowerToken",
          "name": "powerToken",
          "type": "address"
        },
        {
          "internalType": "uint32",
          "name": "minLoanDuration",
          "type": "uint32"
        },
        {
          "internalType": "uint32",
          "name": "maxLoanDuration",
          "type": "uint32"
        }
      ],
      "name": "setServiceLoanDurationLimits",
      "outputs": [],
      "stateMutability": "nonpayable",
      "type": "function"
    },
    {
      "inputs": [
        {
          "internalType": "address",
          "name": "newOwner",
          "type": "address"
        }
      ],
      "name": "transferOwnership",
      "outputs": [],
      "stateMutability": "nonpayable",
      "type": "function"
    }
  ],
  "bytecode": "0x60806040526004805463ffffffff60a01b191660e160a61b17905560088054600160a01b600160e01b031916650546000002a360a61b17905534801561004457600080fd5b50612f2a806100546000396000f3fe608060405234801561001057600080fd5b506004361061035d5760003560e01c806390f55edd116101d3578063c4d66de811610104578063edc1a628116100a2578063f57ea1e41161007c578063f57ea1e4146109cb578063fbac9a55146109e3578063fc0915b114610a09578063fcb2884e14610a1c57600080fd5b8063edc1a6281461096c578063f2fde38b1461097f578063f4e28f9a1461099257600080fd5b8063db0ed6a0116100de578063db0ed6a0146108b4578063df57f2fa146108c7578063e36eca0c146108fc578063e90286831461093357600080fd5b8063c4d66de814610857578063c93d0b921461086a578063d1c820071461087b57600080fd5b8063b19337a411610171578063b96266fa1161014b578063b96266fa1461080b578063bf17088014610820578063bfd84fb414610831578063c20aa9bc1461084457600080fd5b8063b19337a4146107c3578063b406bf6d146107d6578063b56de97e146107f857600080fd5b8063a0efd118116101ad578063a0efd11814610782578063a358426f14610797578063a554b26d146107aa578063aebb5041146107bb57600080fd5b806390f55edd146107495780639c7aa7f81461075c578063a0bcfc7f1461076f57600080fd5b8063449497ec116102ad5780637eda9ff81161024b57806389035b611161022557806389035b61146106dc5780638d6d50c9146106ef5780638da5cb5b146107255780638e9fcf811461073657600080fd5b80637eda9ff8146106a35780638188d50d146106b657806383b9a009146106cb57600080fd5b80635a9b0b89116102875780635a9b0b891461064e57806362c1f3881461066e578063644e44df146106815780637791c42d1461069257600080fd5b8063449497ec146105f657806353c091241461060957806359bf5d391461063857600080fd5b80632261b07f1161031a5780632e365ade116102f45780632e365ade146105695780632fb2067f1461057c5780633184fc64146105bd57806337592148146105d057600080fd5b80632261b07f146104d75780632457056e146104e85780632b39a0ac1461053257600080fd5b806304196058146103625780630714012c146103925780630cac36b2146104895780630e101b601461049e5780630ea1dc9e146104b157806311eec529146104c2575b600080fd5b61037561037036600461285b565b610a24565b6040516001600160a01b0390911681526020015b60405180910390f35b61047c6103a036600461285b565b6040805161010081018252600080825260208201819052918101829052606081018290526080810182905260a0810182905260c0810182905260e08101919091525060009081526011602090815260409182902082516101008101845281546001600160701b038082168352600160701b80830461ffff90811696850196909652600160801b830463ffffffff90811697850197909752600160a01b830487166060850152600160c01b830487166080850152600160e01b90920490951660a083015260019092015493841660c082015292041660e082015290565b6040516103899190612bc5565b610491610a62565b6040516103899190612a82565b6103756104ac36600461285b565b610af4565b6002546001600160a01b0316610375565b6104d56104d0366004612550565b610b17565b005b6006546001600160a01b0316610375565b61051a6104f63660046124d2565b6001600160a01b03166000908152601360205260409020546001600160701b031690565b6040516001600160701b039091168152602001610389565b61051a6105403660046124d2565b6001600160a01b0316600090815260136020526040902060010154600160e01b900461ffff1690565b6104d5610577366004612873565b610c7a565b6105ad61058a3660046124d2565b6001600160a01b0316600090815260096020526040812054600190810b900b1390565b6040519015158152602001610389565b6104d56105cb3660046124f5565b610d24565b600454600160a01b900463ffffffff165b60405163ffffffff9091168152602001610389565b6104d5610604366004612841565b610dcc565b6103756106173660046124d2565b6001600160a01b039081166000908152601360205260409020600101541690565b610640610e18565b604051908152602001610389565b610656610e3d565b6040516103899c9b9a99989796959493929190612a95565b6104d561067c3660046124d2565b611000565b6001546001600160a01b0316610375565b6008546001600160a01b0316610375565b6104d56106b13660046124d2565b611072565b600854600160a01b900463ffffffff166105e1565b6004546001600160a01b0316610375565b6105ad6106ea3660046124d2565b6110e4565b6105e16106fd3660046124d2565b6001600160a01b0316600090815260136020526040902054600160e01b900463ffffffff1690565b6000546001600160a01b0316610375565b6104d561074436600461266f565b61110e565b6104d56107573660046124d2565b61120a565b6104d561076a3660046124d2565b61127c565b6104d561077d3660046126b3565b6112b2565b600854600160c01b900463ffffffff166105e1565b6105ad6107a5366004612644565b6112ed565b6007546001600160a01b0316610375565b610640611346565b6104d56107d13660046124d2565b61135d565b600854600160e01b900461ffff165b60405161ffff9091168152602001610389565b6104d5610806366004612873565b6113cf565b610813611478565b6040516103899190612a35565b6005546001600160a01b0316610375565b6104d561083f3660046124d2565b6114d9565b6104d5610852366004612610565b611532565b6104d56108653660046124d2565b61158c565b6003546001600160a01b0316610375565b6105e16108893660046124d2565b6001600160a01b0316600090815260136020526040902060010154600160a01b900463ffffffff1690565b6104d56108c236600461276b565b6116ac565b6108da6108d536600461285b565b611778565b6040805182518152602080840151908201529181015190820152606001610389565b6107e561090a3660046124d2565b6001600160a01b0316600090815260136020526040902060010154600160f01b900461ffff1690565b61051a6109413660046124d2565b6001600160a01b0316600090815260136020526040902054600160701b90046001600160701b031690565b6104d561097a366004612873565b6117d5565b6104d561098d3660046124d2565b611825565b6105e16109a03660046124d2565b6001600160a01b0316600090815260136020526040902060010154600160c01b900463ffffffff1690565b6109d361190f565b6040516103899493929190612910565b6109f66109f13660046124d2565b611c9b565b60405160019190910b8152602001610389565b6104d5610a173660046125b9565b611cc8565b600d54610640565b600060148281548110610a4757634e487b7160e01b600052603260045260246000fd5b6000918252602090912001546001600160a01b031692915050565b6060600b8054610a7190612e04565b80601f0160208091040260200160405190810160405280929190818152602001828054610a9d90612e04565b8015610aea5780601f10610abf57610100808354040283529160200191610aea565b820191906000526020600020905b815481529060010190602001808311610acd57829003601f168201915b5050505050905090565b6000600a8281548110610a4757634e487b7160e01b600052603260045260246000fd5b6000546001600160a01b03163314610b4a5760405162461bcd60e51b8152600401610b4190612b64565b60405180910390fd5b828114610b905760405162461bcd60e51b8152602060048201526014602482015273092dcecc2d8d2c840c2e4e4c2f240d8cadccee8d60631b6044820152606401610b41565b60005b83811015610c7357610bd3858583818110610bbe57634e487b7160e01b600052603260045260246000fd5b90506020020160208101906106ea91906124d2565b610bef5760405162461bcd60e51b8152600401610b4190612b99565b610c61858583818110610c1257634e487b7160e01b600052603260045260246000fd5b9050602002016020810190610c2791906124d2565b848484818110610c4757634e487b7160e01b600052603260045260246000fd5b9050602002016020810190610c5c9190612841565b611dc4565b80610c6b81612e3f565b915050610b93565b5050505050565b6000546001600160a01b03163314610ca45760405162461bcd60e51b8152600401610b4190612b64565b60085463ffffffff600160c01b90910481169082161115610cfe5760405162461bcd60e51b8152602060048201526014602482015273125b9d985b1a590819dc9858d9481c195c9a5bd960621b6044820152606401610b41565b6008805463ffffffff909216600160a01b0263ffffffff60a01b19909216919091179055565b6004546001600160a01b031615610d735760405162461bcd60e51b8152602060048201526013602482015272105b1c9958591e481a5b9a5d1a585b1a5e9959606a1b6044820152606401610b41565b600480546001600160a01b038087166001600160a01b03199283161790925560018054868416908316179055600280548584169083161790556003805492841692909116919091179055610dc683611e64565b50505050565b6000546001600160a01b03163314610df65760405162461bcd60e51b8152600401610b4190612b64565b6008805461ffff909216600160e01b0261ffff60e01b19909216919091179055565b6000610e22611f7b565b6001600160701b0316600c54610e389190612cc9565b905090565b600f54600454600854600c54600d54600e546010805460609788976000978897889788978897889788978897889788979496600b96939563ffffffff600160a01b94859004811696948404811695600160c01b850482169561ffff600160e01b9687900416959394936001600160701b0380841694600160701b8504909116939190910416908c90610ece90612e04565b80601f0160208091040260200160405190810160405280929190818152602001828054610efa90612e04565b8015610f475780601f10610f1c57610100808354040283529160200191610f47565b820191906000526020600020905b815481529060010190602001808311610f2a57829003601f168201915b50505050509b508a8054610f5a90612e04565b80601f0160208091040260200160405190810160405280929190818152602001828054610f8690612e04565b8015610fd35780601f10610fa857610100808354040283529160200191610fd3565b820191906000526020600020905b815481529060010190602001808311610fb657829003601f168201915b50505050509a509b509b509b509b509b509b509b509b509b509b509b509b50909192939495969798999a9b565b6000546001600160a01b0316331461102a5760405162461bcd60e51b8152600401610b4190612b64565b6001600160a01b0381166110505760405162461bcd60e51b8152600401610b4190612b3e565b600780546001600160a01b0319166001600160a01b0392909216919091179055565b6000546001600160a01b0316331461109c5760405162461bcd60e51b8152600401610b4190612b64565b6001600160a01b0381166110c25760405162461bcd60e51b8152600401610b4190612b3e565b600580546001600160a01b0319166001600160a01b0392909216919091179055565b6001600160a01b0316600090815260136020526040902054600160e01b900463ffffffff16151590565b6000546001600160a01b031633146111385760405162461bcd60e51b8152600401610b4190612b64565b82611142816110e4565b61115e5760405162461bcd60e51b8152600401610b4190612b99565b8163ffffffff168363ffffffff1611156111ae5760405162461bcd60e51b8152602060048201526011602482015270496e76616c6964206475726174696f6e7360781b6044820152606401610b41565b506001600160a01b03929092166000908152601360205260409020600101805467ffffffffffffffff60a01b1916600160a01b63ffffffff9384160263ffffffff60c01b191617600160c01b9290931691909102919091179055565b6000546001600160a01b031633146112345760405162461bcd60e51b8152600401610b4190612b64565b6001600160a01b03811661125a5760405162461bcd60e51b8152600401610b4190612b3e565b600880546001600160a01b0319166001600160a01b0392909216919091179055565b6000546001600160a01b031633146112a65760405162461bcd60e51b8152600401610b4190612b64565b6112af81611fe3565b50565b6000546001600160a01b031633146112dc5760405162461bcd60e51b8152600401610b4190612b64565b6112e8600b83836122aa565b505050565b6001600160a01b0382166000908152601360205260408120600181015463ffffffff808516600160a01b909204161180159061133e5750600181015463ffffffff600160c01b909104811690841611155b949350505050565b6000600d54611353610e18565b610e389190612da4565b6000546001600160a01b031633146113875760405162461bcd60e51b8152600401610b4190612b64565b6001600160a01b0381166113ad5760405162461bcd60e51b8152600401610b4190612b3e565b600680546001600160a01b0319166001600160a01b0392909216919091179055565b6000546001600160a01b031633146113f95760405162461bcd60e51b8152600401610b4190612b64565b60085463ffffffff808316600160a01b9092041611156114525760405162461bcd60e51b8152602060048201526014602482015273125b9d985b1a590819dc9858d9481c195c9a5bd960621b6044820152606401610b41565b6008805463ffffffff909216600160c01b0263ffffffff60c01b19909216919091179055565b60606014805480602002602001604051908101604052809291908181526020018280548015610aea57602002820191906000526020600020905b81546001600160a01b031681526001909101906020018083116114b2575050505050905090565b6000546001600160a01b031633146115035760405162461bcd60e51b8152600401610b4190612b64565b6001600160a01b0381166115295760405162461bcd60e51b8152600401610b4190612b3e565b6112af81611e64565b6000546001600160a01b0316331461155c5760405162461bcd60e51b8152600401610b4190612b64565b81611566816110e4565b6115825760405162461bcd60e51b8152600401610b4190612b99565b6112e88383611dc4565b6000546001600160a01b0316156115f75760405162461bcd60e51b815260206004820152602960248201527f496e697469616c697a61626c654f776e61626c653a20616c726561647920696e6044820152681a5d1a585b1a5e995960ba1b6064820152608401610b41565b6001600160a01b0381166116615760405162461bcd60e51b815260206004820152602b60248201527f496e697469616c697a61626c654f776e61626c653a20696e76616c696420696e60448201526a34ba34b0b61037bbb732b960a91b6064820152608401610b41565b600080546001600160a01b0319166001600160a01b03831690811782556040519091907f8be0079c531659141344cd1fd0a4f28419497f9722a3daafe3b4186f6b6457e0908290a350565b601080546116b990612e04565b1590506116fe5760405162461bcd60e51b8152602060048201526013602482015272105b1c9958591e481a5b9a5d1a585b1a5e9959606a1b6044820152606401610b41565b6117078161158c565b855161171a90601090602089019061232e565b50611727600b86866122aa565b50600580546001600160a01b03199081166001600160a01b03958616179091556006805482169385169390931790925560088054831691909316908117909255600780549091169091179055505050565b61179c60405180606001604052806000815260200160008152602001600081525090565b50600090815260126020908152604091829020825160608101845281548152600182015492810192909252600201549181019190915290565b6000546001600160a01b031633146117ff5760405162461bcd60e51b8152600401610b4190612b64565b6004805463ffffffff909216600160a01b0263ffffffff60a01b19909216919091179055565b6000546001600160a01b0316331461184f5760405162461bcd60e51b8152600401610b4190612b64565b6001600160a01b0381166118b45760405162461bcd60e51b815260206004820152602660248201527f4f776e61626c653a206e6577206f776e657220697320746865207a65726f206160448201526564647265737360d01b6064820152608401610b41565b600080546040516001600160a01b03808516939216917f8be0079c531659141344cd1fd0a4f28419497f9722a3daafe3b4186f6b6457e091a3600080546001600160a01b0319166001600160a01b0392909216919091179055565b6014546060908190819081908067ffffffffffffffff81111561194257634e487b7160e01b600052604160045260246000fd5b60405190808252806020026020018201604052801561196b578160200160208202803683370190505b5094508067ffffffffffffffff81111561199557634e487b7160e01b600052604160045260246000fd5b6040519080825280602002602001820160405280156119c857816020015b60608152602001906001900390816119b35790505b5093508067ffffffffffffffff8111156119f257634e487b7160e01b600052604160045260246000fd5b604051908082528060200260200182016040528015611a2557816020015b6060815260200190600190039081611a105790505b5092508067ffffffffffffffff811115611a4f57634e487b7160e01b600052604160045260246000fd5b604051908082528060200260200182016040528015611a8857816020015b611a756123a2565b815260200190600190039081611a6d5790505b50915060005b81811015611c9357600060148281548110611ab957634e487b7160e01b600052603260045260246000fd5b6000918252602082200154604080516306fdde0360e01b815290516001600160a01b03909216935083926306fdde0392600480840193829003018186803b158015611b0357600080fd5b505afa158015611b17573d6000803e3d6000fd5b505050506040513d6000823e601f3d908101601f19168201604052611b3f91908101906126f3565b868381518110611b5f57634e487b7160e01b600052603260045260246000fd5b6020026020010181905250806001600160a01b03166395d89b416040518163ffffffff1660e01b815260040160006040518083038186803b158015611ba357600080fd5b505afa158015611bb7573d6000803e3d6000fd5b505050506040513d6000823e601f3d908101601f19168201604052611bdf91908101906126f3565b858381518110611bff57634e487b7160e01b600052603260045260246000fd5b602002602001018190525080878381518110611c2b57634e487b7160e01b600052603260045260246000fd5b60200260200101906001600160a01b031690816001600160a01b031681525050611c548161208a565b848381518110611c7457634e487b7160e01b600052603260045260246000fd5b6020026020010181905250508080611c8b90612e3f565b915050611a8e565b505090919293565b6001600160a01b038116600090815260096020526040812054611cc290600190810b612d37565b92915050565b6000546001600160a01b03163314611cf25760405162461bcd60e51b8152600401610b4190612b64565b83611cfc816110e4565b611d185760405162461bcd60e51b8152600401610b4190612b99565b6001600160a01b038316611d635760405162461bcd60e51b815260206004820152601260248201527124b73b30b634b2102130b9b2902a37b5b2b760711b6044820152606401610b41565b506001600160a01b0393841660009081526013602052604090208054600182018054949096166001600160a01b0319909416939093179094556001600160701b03908116600160701b026001600160e01b0319909216921691909117179055565b61138861ffff82161115611e285760405162461bcd60e51b815260206004820152602560248201527f4d6178696d756d2073657276696365206665652070657263656e7420746872656044820152641cda1bdb1960da1b6064820152608401610b41565b6001600160a01b039091166000908152601360205260409020600101805461ffff909216600160e01b0261ffff60e01b19909216919091179055565b6001600160a01b038116600090815260096020526040902054600190810b900b611efc57600a8054600180820183557fc65a7bb8d6351c1cf70c95a316cc6a92839c986682d98bc35f958f4883f9d2a890910180546001600160a01b0319166001600160a01b039490941693841790559054600092835260096020526040909220805461ffff191661ffff9390920b92909216179055565b6001600160a01b038116600090815260096020526040812054600190810b900b12156112af576001600160a01b038116600090815260096020526040902054611f479060010b612e7d565b6001600160a01b0382166000908152600960205260409020805460019290920b61ffff1661ffff1990921691909117905550565b600e54600090611fc69063ffffffff600160e01b82041690611fb0906001600160701b0380821691600160701b900416612d7c565b600454600160a01b900463ffffffff1642612139565b600e54610e389190600160701b90046001600160701b0316612d7c565b6001600160a01b038116600090815260096020526040902054600190810b900b61203f5760405162461bcd60e51b815260206004820152600d60248201526c24b73b30b634b2103a37b5b2b760991b6044820152606401610b41565b6001600160a01b038116600090815260096020526040812054600190810b900b13156112af576001600160a01b038116600090815260096020526040902054611f479060010b612e7d565b6120926123a2565b506001600160a01b0390811660009081526013602090815260409182902082516101008101845281546001600160701b038082168352600160701b8204169382019390935263ffffffff600160e01b938490048116948201949094526001909101549384166060820152600160a01b840483166080820152600160c01b840490921660a083015261ffff908304811660c0830152600160f01b90920490911660e082015290565b60008463ffffffff168263ffffffff1610156121885760405162461bcd60e51b815260206004820152600e60248201526d125b9d985b1a59081c195c9a5bd960921b6044820152606401610b41565b6121928583612dbb565b915061219e8383612cf5565b63ffffffff16846001600160701b0316901c935082826121be9190612e5a565b915063ffffffff821615806121da57506001600160701b038416155b156121e657508261133e565b60006001600160701b0385168163ffffffff8087169061221a90871671b17217f7d1cf79abc9e3b39803f2f6af40f3612d18565b6122249190612ce1565b9050600160901b5b821561229d5761223c8385612cc9565b9350806122498385612d18565b6122539190612ce1565b9250612263600160901b82612cc9565b905061226f8385612da4565b93508061227c8385612d18565b6122869190612ce1565b9250612296600160901b82612cc9565b905061222c565b5091979650505050505050565b8280546122b690612e04565b90600052602060002090601f0160209004810192826122d8576000855561231e565b82601f106122f15782800160ff1982351617855561231e565b8280016001018555821561231e579182015b8281111561231e578235825591602001919060010190612303565b5061232a9291506123e6565b5090565b82805461233a90612e04565b90600052602060002090601f01602090048101928261235c576000855561231e565b82601f1061237557805160ff191683800117855561231e565b8280016001018555821561231e579182015b8281111561231e578251825591602001919060010190612387565b6040805161010081018252600080825260208201819052918101829052606081018290526080810182905260a0810182905260c0810182905260e081019190915290565b5b8082111561232a57600081556001016123e7565b803561240681612edf565b919050565b60008083601f84011261241c578081fd5b50813567ffffffffffffffff811115612433578182fd5b6020830191508360208260051b850101111561244e57600080fd5b9250929050565b60008083601f840112612466578182fd5b50813567ffffffffffffffff81111561247d578182fd5b60208301915083602082850101111561244e57600080fd5b80356001600160701b038116811461240657600080fd5b803561ffff8116811461240657600080fd5b803563ffffffff8116811461240657600080fd5b6000602082840312156124e3578081fd5b81356124ee81612edf565b9392505050565b6000806000806080858703121561250a578283fd5b843561251581612edf565b9350602085013561252581612edf565b9250604085013561253581612edf565b9150606085013561254581612edf565b939692955090935050565b60008060008060408587031215612565578384fd5b843567ffffffffffffffff8082111561257c578586fd5b6125888883890161240b565b909650945060208701359150808211156125a0578384fd5b506125ad8782880161240b565b95989497509550505050565b600080600080608085870312156125ce578384fd5b84356125d981612edf565b93506125e760208601612495565b925060408501356125f781612edf565b915061260560608601612495565b905092959194509250565b60008060408385031215612622578182fd5b823561262d81612edf565b915061263b602084016124ac565b90509250929050565b60008060408385031215612656578182fd5b823561266181612edf565b915061263b602084016124be565b600080600060608486031215612683578081fd5b833561268e81612edf565b925061269c602085016124be565b91506126aa604085016124be565b90509250925092565b600080602083850312156126c5578182fd5b823567ffffffffffffffff8111156126db578283fd5b6126e785828601612455565b90969095509350505050565b600060208284031215612704578081fd5b815167ffffffffffffffff81111561271a578182fd5b8201601f8101841361272a578182fd5b805161273d61273882612ca1565b612c70565b818152856020838501011115612751578384fd5b612762826020830160208601612dd8565b95945050505050565b60008060008060008060a08789031215612783578384fd5b863567ffffffffffffffff8082111561279a578586fd5b818901915089601f8301126127ad578586fd5b81356127bb61273882612ca1565b8181528b60208386010111156127cf578788fd5b816020850160208301378760208383010152809950505060208901359150808211156127f9578586fd5b5061280689828a01612455565b90965094506128199050604088016123fb565b9250612827606088016123fb565b9150612835608088016123fb565b90509295509295509295565b600060208284031215612852578081fd5b6124ee826124ac565b60006020828403121561286c578081fd5b5035919050565b600060208284031215612884578081fd5b6124ee826124be565b600082825180855260208086019550808260051b840101818601855b848110156128d757601f198684030189526128c58383516128e4565b988401989250908301906001016128a9565b5090979650505050505050565b600081518084526128fc816020860160208601612dd8565b601f01601f19169290920160200192915050565b608080825285518282018190526000919060a090818501906020808b01865b838110156129545781516001600160a01b03168552938201939082019060010161292f565b505086830381880152612967838b61288d565b9250604091508683038288015261297e838a61288d565b92506060878403818901528389518086528386019150838b019550885b81811015612a2257865180516001600160701b0390811685528682015116868501528681015163ffffffff90811688860152858201516001600160a01b0316868601528a82015181168b86015289820151168985015260c08082015161ffff9081169186019190915260e0918201511690840152958401956101009092019160010161299b565b50909d9c50505050505050505050505050565b6020808252825182820181905260009190848201906040850190845b81811015612a765783516001600160a01b031683529284019291840191600101612a51565b50909695505050505050565b6020815260006124ee60208301846128e4565b61018081526000612aaa61018083018f6128e4565b8281036020840152612abc818f6128e4565b9150508b604083015263ffffffff808c166060840152808b166080840152808a1660a08401525061ffff881660c08301528660e0830152856101008301526001600160701b038516610120830152612b206101408301856001600160701b03169052565b63ffffffff83166101608301529d9c50505050505050505050505050565b6020808252600c908201526b5a65726f206164647265737360a01b604082015260600190565b6020808252818101527f4f776e61626c653a2063616c6c6572206973206e6f7420746865206f776e6572604082015260600190565b6020808252601290820152712ab735b737bbb7102837bbb2b92a37b5b2b760711b604082015260600190565b6000610100820190506001600160701b03835116825261ffff6020840151166020830152604083015163ffffffff808216604085015280606086015116606085015250506080830151612c20608084018263ffffffff169052565b5060a0830151612c3860a084018263ffffffff169052565b5060c0830151612c5360c08401826001600160701b03169052565b5060e0830151612c6960e084018261ffff169052565b5092915050565b604051601f8201601f1916810167ffffffffffffffff81118282101715612c9957612c99612ec9565b604052919050565b600067ffffffffffffffff821115612cbb57612cbb612ec9565b50601f01601f191660200190565b60008219821115612cdc57612cdc612e9d565b500190565b600082612cf057612cf0612eb3565b500490565b600063ffffffff80841680612d0c57612d0c612eb3565b92169190910492915050565b6000816000190483118215151615612d3257612d32612e9d565b500290565b60008160010b8360010b82811281617fff1901831281151615612d5c57612d5c612e9d565b81617fff018313811615612d7257612d72612e9d565b5090039392505050565b60006001600160701b0383811690831681811015612d9c57612d9c612e9d565b039392505050565b600082821015612db657612db6612e9d565b500390565b600063ffffffff83811690831681811015612d9c57612d9c612e9d565b60005b83811015612df3578181015183820152602001612ddb565b83811115610dc65750506000910152565b600181811c90821680612e1857607f821691505b60208210811415612e3957634e487b7160e01b600052602260045260246000fd5b50919050565b6000600019821415612e5357612e53612e9d565b5060010190565b600063ffffffff80841680612e7157612e71612eb3565b92169190910692915050565b60008160010b617fff19811415612e9657612e96612e9d565b9003919050565b634e487b7160e01b600052601160045260246000fd5b634e487b7160e01b600052601260045260246000fd5b634e487b7160e01b600052604160045260246000fd5b6001600160a01b03811681146112af57600080fdfea264697066735822122020191ace463f540bb1b68443e606a1f85ac436c646828b309157486cfa314a9964736f6c63430008040033",
  "linkReferences": {},
  "deployedLinkReferences": {}
}