{
  "_format": "hh-sol-artifact-1",
  "contractName": "EnterpriseStorage",
  "sourceName": "contracts/EnterpriseStorage.sol",
  "abi": [
    {
      "anonymous": false,
      "inputs": [
        {
          "indexed": true,
          "internalType": "address",
          "name": "previousOwner",
          "type": "address"
        },
        {
          "indexed": true,
          "internalType": "address",
          "name": "newOwner",
          "type": "address"
        }
      ],
      "name": "OwnershipTransferred",
      "type": "event"
    },
    {
      "inputs": [
        {
          "internalType": "contract IPowerToken",
          "name": "powerToken",
          "type": "address"
        }
      ],
      "name": "allowPerpetualPowerTokenForever",
      "outputs": [],
      "stateMutability": "nonpayable",
      "type": "function"
    },
    {
      "inputs": [
        {
          "internalType": "address",
          "name": "token",
          "type": "address"
        }
      ],
      "name": "disablePaymentToken",
      "outputs": [],
      "stateMutability": "nonpayable",
      "type": "function"
    },
    {
      "inputs": [
        {
          "internalType": "address",
          "name": "token",
          "type": "address"
        }
      ],
      "name": "enablePaymentToken",
      "outputs": [],
      "stateMutability": "nonpayable",
      "type": "function"
    },
    {
      "inputs": [],
      "name": "getAvailableReserve",
      "outputs": [
        {
          "internalType": "uint256",
          "name": "",
          "type": "uint256"
        }
      ],
      "stateMutability": "view",
      "type": "function"
    },
    {
      "inputs": [],
      "name": "getBaseUri",
      "outputs": [
        {
          "internalType": "string",
          "name": "",
          "type": "string"
        }
      ],
      "stateMutability": "view",
      "type": "function"
    },
    {
      "inputs": [],
      "name": "getBorrowToken",
      "outputs": [
        {
          "internalType": "contract IBorrowToken",
          "name": "",
          "type": "address"
        }
      ],
      "stateMutability": "view",
      "type": "function"
    },
    {
      "inputs": [],
      "name": "getBorrowerLoanReturnGracePeriod",
      "outputs": [
        {
          "internalType": "uint32",
          "name": "",
          "type": "uint32"
        }
      ],
      "stateMutability": "view",
      "type": "function"
    },
    {
      "inputs": [],
      "name": "getConverter",
      "outputs": [
        {
          "internalType": "contract IConverter",
          "name": "",
          "type": "address"
        }
      ],
      "stateMutability": "view",
      "type": "function"
    },
    {
      "inputs": [],
      "name": "getEnterpriseCollector",
      "outputs": [
        {
          "internalType": "address",
          "name": "",
          "type": "address"
        }
      ],
      "stateMutability": "view",
      "type": "function"
    },
    {
      "inputs": [],
      "name": "getEnterpriseLoanCollectGracePeriod",
      "outputs": [
        {
          "internalType": "uint32",
          "name": "",
          "type": "uint32"
        }
      ],
      "stateMutability": "view",
      "type": "function"
    },
    {
      "inputs": [],
      "name": "getEnterpriseVault",
      "outputs": [
        {
          "internalType": "address",
          "name": "",
          "type": "address"
        }
      ],
      "stateMutability": "view",
      "type": "function"
    },
    {
      "inputs": [],
      "name": "getEstimator",
      "outputs": [
        {
          "internalType": "contract IEstimator",
          "name": "",
          "type": "address"
        }
      ],
      "stateMutability": "view",
      "type": "function"
    },
    {
      "inputs": [],
      "name": "getGCFeePercent",
      "outputs": [
        {
          "internalType": "uint16",
          "name": "",
          "type": "uint16"
        }
      ],
      "stateMutability": "view",
      "type": "function"
    },
    {
      "inputs": [],
      "name": "getInfo",
      "outputs": [
        {
          "internalType": "string",
          "name": "name",
          "type": "string"
        },
        {
          "internalType": "string",
          "name": "baseUri",
          "type": "string"
        },
        {
          "internalType": "uint256",
          "name": "totalShares",
          "type": "uint256"
        },
        {
          "internalType": "uint32",
          "name": "interestHalfLife",
          "type": "uint32"
        },
        {
          "internalType": "uint32",
          "name": "borrowerLoanReturnGracePeriod",
          "type": "uint32"
        },
        {
          "internalType": "uint32",
          "name": "enterpriseLoanCollectGracePeriod",
          "type": "uint32"
        },
        {
          "internalType": "uint16",
          "name": "gcFeePercent",
          "type": "uint16"
        },
        {
          "internalType": "uint256",
          "name": "fixedReserve",
          "type": "uint256"
        },
        {
          "internalType": "uint256",
          "name": "usedReserve",
          "type": "uint256"
        },
        {
          "internalType": "uint112",
          "name": "streamingReserve",
          "type": "uint112"
        },
        {
          "internalType": "uint112",
          "name": "streamingReserveTarget",
          "type": "uint112"
        },
        {
          "internalType": "uint32",
          "name": "streamingReserveUpdated",
          "type": "uint32"
        }
      ],
      "stateMutability": "view",
      "type": "function"
    },
    {
      "inputs": [],
      "name": "getInterestHalfLife",
      "outputs": [
        {
          "internalType": "uint32",
          "name": "",
          "type": "uint32"
        }
      ],
      "stateMutability": "view",
      "type": "function"
    },
    {
      "inputs": [],
      "name": "getInterestToken",
      "outputs": [
        {
          "internalType": "contract IInterestToken",
          "name": "",
          "type": "address"
        }
      ],
      "stateMutability": "view",
      "type": "function"
    },
    {
      "inputs": [
        {
          "internalType": "uint256",
          "name": "tokenId",
          "type": "uint256"
        }
      ],
      "name": "getLiquidityInfo",
      "outputs": [
        {
          "components": [
            {
              "internalType": "uint256",
              "name": "amount",
              "type": "uint256"
            },
            {
              "internalType": "uint256",
              "name": "shares",
              "type": "uint256"
            },
            {
              "internalType": "uint256",
              "name": "block",
              "type": "uint256"
            }
          ],
          "internalType": "struct EnterpriseStorage.LiquidityInfo",
          "name": "",
          "type": "tuple"
        }
      ],
      "stateMutability": "view",
      "type": "function"
    },
    {
      "inputs": [],
      "name": "getLiquidityToken",
      "outputs": [
        {
          "internalType": "contract IERC20Metadata",
          "name": "",
          "type": "address"
        }
      ],
      "stateMutability": "view",
      "type": "function"
    },
    {
      "inputs": [
        {
          "internalType": "uint256",
          "name": "tokenId",
          "type": "uint256"
        }
      ],
      "name": "getLoanInfo",
      "outputs": [
        {
          "components": [
            {
              "internalType": "uint112",
              "name": "amount",
              "type": "uint112"
            },
            {
              "internalType": "uint16",
              "name": "powerTokenIndex",
              "type": "uint16"
            },
            {
              "internalType": "uint32",
              "name": "borrowingTime",
              "type": "uint32"
            },
            {
              "internalType": "uint32",
              "name": "maturityTime",
              "type": "uint32"
            },
            {
              "internalType": "uint32",
              "name": "borrowerReturnGraceTime",
              "type": "uint32"
            },
            {
              "internalType": "uint32",
              "name": "enterpriseCollectGraceTime",
              "type": "uint32"
            },
            {
              "internalType": "uint112",
              "name": "gcFee",
              "type": "uint112"
            },
            {
              "internalType": "uint16",
              "name": "gcFeeTokenIndex",
              "type": "uint16"
            }
          ],
          "internalType": "struct EnterpriseStorage.LoanInfo",
          "name": "",
          "type": "tuple"
        }
      ],
      "stateMutability": "view",
      "type": "function"
    },
    {
      "inputs": [
        {
          "internalType": "uint256",
          "name": "index",
          "type": "uint256"
        }
      ],
      "name": "getPowerToken",
      "outputs": [
        {
          "internalType": "contract IPowerToken",
          "name": "",
          "type": "address"
        }
      ],
      "stateMutability": "view",
      "type": "function"
    },
    {
      "inputs": [
        {
          "internalType": "contract IPowerToken",
          "name": "powerToken",
          "type": "address"
        }
      ],
      "name": "getPowerTokenIndex",
      "outputs": [
        {
          "internalType": "uint16",
          "name": "",
          "type": "uint16"
        }
      ],
      "stateMutability": "view",
      "type": "function"
    },
    {
      "inputs": [],
      "name": "getPowerTokens",
      "outputs": [
        {
          "internalType": "contract IPowerToken[]",
          "name": "",
          "type": "address[]"
        }
      ],
      "stateMutability": "view",
      "type": "function"
    },
    {
      "inputs": [],
      "name": "getProxyAdmin",
      "outputs": [
        {
          "internalType": "contract ProxyAdmin",
          "name": "",
          "type": "address"
        }
      ],
      "stateMutability": "view",
      "type": "function"
    },
    {
      "inputs": [],
      "name": "getReserve",
      "outputs": [
        {
          "internalType": "uint256",
          "name": "",
          "type": "uint256"
        }
      ],
      "stateMutability": "view",
      "type": "function"
    },
    {
      "inputs": [
        {
          "internalType": "contract IPowerToken",
          "name": "powerToken",
          "type": "address"
        }
      ],
      "name": "getService",
      "outputs": [
        {
          "internalType": "string",
          "name": "name",
          "type": "string"
        },
        {
          "internalType": "string",
          "name": "symbol",
          "type": "string"
        },
        {
          "components": [
            {
              "internalType": "uint112",
              "name": "baseRate",
              "type": "uint112"
            },
            {
              "internalType": "uint96",
              "name": "minGCFee",
              "type": "uint96"
            },
            {
              "internalType": "uint32",
              "name": "halfLife",
              "type": "uint32"
            },
            {
              "internalType": "uint16",
              "name": "index",
              "type": "uint16"
            },
            {
              "internalType": "contract IERC20Metadata",
              "name": "baseToken",
              "type": "address"
            },
            {
              "internalType": "uint32",
              "name": "minLoanDuration",
              "type": "uint32"
            },
            {
              "internalType": "uint32",
              "name": "maxLoanDuration",
              "type": "uint32"
            },
            {
              "internalType": "uint16",
              "name": "serviceFeePercent",
              "type": "uint16"
            },
            {
              "internalType": "bool",
              "name": "allowsPerpetual",
              "type": "bool"
            }
          ],
          "internalType": "struct EnterpriseStorage.ServiceConfig",
          "name": "config",
          "type": "tuple"
        }
      ],
      "stateMutability": "view",
      "type": "function"
    },
    {
      "inputs": [
        {
          "internalType": "contract IPowerToken",
          "name": "powerToken",
          "type": "address"
        }
      ],
      "name": "getServiceBaseRate",
      "outputs": [
        {
          "internalType": "uint112",
          "name": "",
          "type": "uint112"
        }
      ],
      "stateMutability": "view",
      "type": "function"
    },
    {
      "inputs": [
        {
          "internalType": "contract IPowerToken",
          "name": "powerToken",
          "type": "address"
        }
      ],
      "name": "getServiceBaseToken",
      "outputs": [
        {
          "internalType": "contract IERC20Metadata",
          "name": "",
          "type": "address"
        }
      ],
      "stateMutability": "view",
      "type": "function"
    },
    {
      "inputs": [
        {
          "internalType": "contract IPowerToken",
          "name": "powerToken",
          "type": "address"
        }
      ],
      "name": "getServiceFeePercent",
      "outputs": [
        {
          "internalType": "uint112",
          "name": "",
          "type": "uint112"
        }
      ],
      "stateMutability": "view",
      "type": "function"
    },
    {
      "inputs": [
        {
          "internalType": "contract IPowerToken",
          "name": "powerToken",
          "type": "address"
        }
      ],
      "name": "getServiceHalfLife",
      "outputs": [
        {
          "internalType": "uint32",
          "name": "",
          "type": "uint32"
        }
      ],
      "stateMutability": "view",
      "type": "function"
    },
    {
      "inputs": [
        {
          "internalType": "contract IPowerToken",
          "name": "powerToken",
          "type": "address"
        }
      ],
      "name": "getServiceMaxLoanDuration",
      "outputs": [
        {
          "internalType": "uint32",
          "name": "",
          "type": "uint32"
        }
      ],
      "stateMutability": "view",
      "type": "function"
    },
    {
      "inputs": [
        {
          "internalType": "contract IPowerToken",
          "name": "powerToken",
          "type": "address"
        }
      ],
      "name": "getServiceMinGCFee",
      "outputs": [
        {
          "internalType": "uint112",
          "name": "",
          "type": "uint112"
        }
      ],
      "stateMutability": "view",
      "type": "function"
    },
    {
      "inputs": [
        {
          "internalType": "contract IPowerToken",
          "name": "powerToken",
          "type": "address"
        }
      ],
      "name": "getServiceMinLoanDuration",
      "outputs": [
        {
          "internalType": "uint32",
          "name": "",
          "type": "uint32"
        }
      ],
      "stateMutability": "view",
      "type": "function"
    },
    {
      "inputs": [],
      "name": "getServices",
      "outputs": [
        {
          "internalType": "address[]",
          "name": "addresses",
          "type": "address[]"
        },
        {
          "internalType": "string[]",
          "name": "names",
          "type": "string[]"
        },
        {
          "internalType": "string[]",
          "name": "symbols",
          "type": "string[]"
        },
        {
          "components": [
            {
              "internalType": "uint112",
              "name": "baseRate",
              "type": "uint112"
            },
            {
              "internalType": "uint96",
              "name": "minGCFee",
              "type": "uint96"
            },
            {
              "internalType": "uint32",
              "name": "halfLife",
              "type": "uint32"
            },
            {
              "internalType": "uint16",
              "name": "index",
              "type": "uint16"
            },
            {
              "internalType": "contract IERC20Metadata",
              "name": "baseToken",
              "type": "address"
            },
            {
              "internalType": "uint32",
              "name": "minLoanDuration",
              "type": "uint32"
            },
            {
              "internalType": "uint32",
              "name": "maxLoanDuration",
              "type": "uint32"
            },
            {
              "internalType": "uint16",
              "name": "serviceFeePercent",
              "type": "uint16"
            },
            {
              "internalType": "bool",
              "name": "allowsPerpetual",
              "type": "bool"
            }
          ],
          "internalType": "struct EnterpriseStorage.ServiceConfig[]",
          "name": "configs",
          "type": "tuple[]"
        }
      ],
      "stateMutability": "view",
      "type": "function"
    },
    {
      "inputs": [],
      "name": "getUsedReserve",
      "outputs": [
        {
          "internalType": "uint256",
          "name": "",
          "type": "uint256"
        }
      ],
      "stateMutability": "view",
      "type": "function"
    },
    {
      "inputs": [
        {
          "internalType": "address",
          "name": "initialOwner",
          "type": "address"
        }
      ],
      "name": "initialize",
      "outputs": [],
      "stateMutability": "nonpayable",
      "type": "function"
    },
    {
      "inputs": [
        {
          "internalType": "string",
          "name": "enterpriseName",
          "type": "string"
        },
        {
          "internalType": "string",
          "name": "baseUri",
          "type": "string"
        },
        {
          "internalType": "contract IEstimator",
          "name": "estimator",
          "type": "address"
        },
        {
          "internalType": "contract IConverter",
          "name": "converter",
          "type": "address"
        },
        {
          "internalType": "contract ProxyAdmin",
          "name": "proxyAdmin",
          "type": "address"
        },
        {
          "internalType": "address",
          "name": "owner",
          "type": "address"
        }
      ],
      "name": "initialize",
      "outputs": [],
      "stateMutability": "nonpayable",
      "type": "function"
    },
    {
      "inputs": [
        {
          "internalType": "contract IERC20Metadata",
          "name": "liquidityToken",
          "type": "address"
        },
        {
          "internalType": "contract IInterestToken",
          "name": "interestToken",
          "type": "address"
        },
        {
          "internalType": "contract IBorrowToken",
          "name": "borrowToken",
          "type": "address"
        }
      ],
      "name": "initializeTokens",
      "outputs": [],
      "stateMutability": "nonpayable",
      "type": "function"
    },
    {
      "inputs": [
        {
          "internalType": "contract IPowerToken",
          "name": "powerToken",
          "type": "address"
        }
      ],
      "name": "isRegisteredPowerToken",
      "outputs": [
        {
          "internalType": "bool",
          "name": "",
          "type": "bool"
        }
      ],
      "stateMutability": "view",
      "type": "function"
    },
    {
      "inputs": [
        {
          "internalType": "contract IPowerToken",
          "name": "powerToken",
          "type": "address"
        },
        {
          "internalType": "uint32",
          "name": "duration",
          "type": "uint32"
        }
      ],
      "name": "isServiceAllowedLoanDuration",
      "outputs": [
        {
          "internalType": "bool",
          "name": "",
          "type": "bool"
        }
      ],
      "stateMutability": "view",
      "type": "function"
    },
    {
      "inputs": [
        {
          "internalType": "contract IERC20",
          "name": "token",
          "type": "address"
        }
      ],
      "name": "isSupportedPaymentToken",
      "outputs": [
        {
          "internalType": "bool",
          "name": "",
          "type": "bool"
        }
      ],
      "stateMutability": "view",
      "type": "function"
    },
    {
      "inputs": [],
      "name": "owner",
      "outputs": [
        {
          "internalType": "address",
          "name": "",
          "type": "address"
        }
      ],
      "stateMutability": "view",
      "type": "function"
    },
    {
      "inputs": [
        {
          "internalType": "uint256",
          "name": "index",
          "type": "uint256"
        }
      ],
      "name": "paymentToken",
      "outputs": [
        {
          "internalType": "address",
          "name": "",
          "type": "address"
        }
      ],
      "stateMutability": "view",
      "type": "function"
    },
    {
      "inputs": [
        {
          "internalType": "contract IERC20",
          "name": "token",
          "type": "address"
        }
      ],
      "name": "paymentTokenIndex",
      "outputs": [
        {
          "internalType": "int16",
          "name": "",
          "type": "int16"
        }
      ],
      "stateMutability": "view",
      "type": "function"
    },
    {
      "inputs": [
        {
          "internalType": "string",
          "name": "baseUri",
          "type": "string"
        }
      ],
      "name": "setBaseUri",
      "outputs": [],
      "stateMutability": "nonpayable",
      "type": "function"
    },
    {
      "inputs": [
        {
          "internalType": "uint32",
          "name": "newPeriod",
          "type": "uint32"
        }
      ],
      "name": "setBorrowerLoanReturnGracePeriod",
      "outputs": [],
      "stateMutability": "nonpayable",
      "type": "function"
    },
    {
      "inputs": [
        {
          "internalType": "contract IConverter",
          "name": "newConverter",
          "type": "address"
        }
      ],
      "name": "setConverter",
      "outputs": [],
      "stateMutability": "nonpayable",
      "type": "function"
    },
    {
      "inputs": [
        {
          "internalType": "address",
          "name": "newCollector",
          "type": "address"
        }
      ],
      "name": "setEnterpriseCollector",
      "outputs": [],
      "stateMutability": "nonpayable",
      "type": "function"
    },
    {
      "inputs": [
        {
          "internalType": "uint32",
          "name": "newPeriod",
          "type": "uint32"
        }
      ],
      "name": "setEnterpriseLoanCollectGracePeriod",
      "outputs": [],
      "stateMutability": "nonpayable",
      "type": "function"
    },
    {
      "inputs": [
        {
          "internalType": "address",
          "name": "newVault",
          "type": "address"
        }
      ],
      "name": "setEnterpriseVault",
      "outputs": [],
      "stateMutability": "nonpayable",
      "type": "function"
    },
    {
      "inputs": [
        {
          "internalType": "contract IEstimator",
          "name": "newEstimator",
          "type": "address"
        }
      ],
      "name": "setEstimator",
      "outputs": [],
      "stateMutability": "nonpayable",
      "type": "function"
    },
    {
      "inputs": [
        {
          "internalType": "uint16",
          "name": "newGcFeePercent",
          "type": "uint16"
        }
      ],
      "name": "setGcFeePercent",
      "outputs": [],
      "stateMutability": "nonpayable",
      "type": "function"
    },
    {
      "inputs": [
        {
          "internalType": "uint32",
          "name": "interestHalfLife",
          "type": "uint32"
        }
      ],
      "name": "setInterestHalfLife",
      "outputs": [],
      "stateMutability": "nonpayable",
      "type": "function"
    },
    {
      "inputs": [
        {
          "internalType": "contract IPowerToken",
          "name": "powerToken",
          "type": "address"
        },
        {
          "internalType": "uint112",
          "name": "baseRate",
          "type": "uint112"
        },
        {
          "internalType": "contract IERC20Metadata",
          "name": "baseToken",
          "type": "address"
        },
        {
          "internalType": "uint96",
          "name": "minGCFee",
          "type": "uint96"
        }
      ],
      "name": "setServiceBaseRate",
      "outputs": [],
      "stateMutability": "nonpayable",
      "type": "function"
    },
    {
      "inputs": [
        {
          "internalType": "contract IPowerToken",
          "name": "powerToken",
          "type": "address"
        },
        {
          "internalType": "uint16",
          "name": "newServiceFeePercent",
          "type": "uint16"
        }
      ],
      "name": "setServiceFeePercent",
      "outputs": [],
      "stateMutability": "nonpayable",
      "type": "function"
    },
    {
      "inputs": [
        {
          "internalType": "contract IPowerToken[]",
          "name": "powerToken",
          "type": "address[]"
        },
        {
          "internalType": "uint16[]",
          "name": "newServiceFeePercent",
          "type": "uint16[]"
        }
      ],
      "name": "setServiceFeePercentBatch",
      "outputs": [],
      "stateMutability": "nonpayable",
      "type": "function"
    },
    {
      "inputs": [
        {
          "internalType": "contract IPowerToken",
          "name": "powerToken",
          "type": "address"
        },
        {
          "internalType": "uint32",
          "name": "minLoanDuration",
          "type": "uint32"
        },
        {
          "internalType": "uint32",
          "name": "maxLoanDuration",
          "type": "uint32"
        }
      ],
      "name": "setServiceLoanDurationLimits",
      "outputs": [],
      "stateMutability": "nonpayable",
      "type": "function"
    },
    {
      "inputs": [
        {
          "internalType": "address",
          "name": "newOwner",
          "type": "address"
        }
      ],
      "name": "transferOwnership",
      "outputs": [],
      "stateMutability": "nonpayable",
      "type": "function"
    },
    {
      "inputs": [
        {
          "internalType": "address",
          "name": "implementation",
          "type": "address"
        }
      ],
      "name": "upgradeBorrowToken",
      "outputs": [],
      "stateMutability": "nonpayable",
      "type": "function"
    },
    {
      "inputs": [
        {
          "internalType": "address",
          "name": "implementation",
          "type": "address"
        }
      ],
      "name": "upgradeEnterprise",
      "outputs": [],
      "stateMutability": "nonpayable",
      "type": "function"
    },
    {
      "inputs": [
        {
          "internalType": "address",
          "name": "implementation",
          "type": "address"
        }
      ],
      "name": "upgradeEstimator",
      "outputs": [],
      "stateMutability": "nonpayable",
      "type": "function"
    },
    {
      "inputs": [
        {
          "internalType": "address",
          "name": "implementation",
          "type": "address"
        }
      ],
      "name": "upgradeInterestToken",
      "outputs": [],
      "stateMutability": "nonpayable",
      "type": "function"
    },
    {
      "inputs": [
        {
          "internalType": "contract IPowerToken",
          "name": "powerToken",
          "type": "address"
        },
        {
          "internalType": "address",
          "name": "implementation",
          "type": "address"
        }
      ],
      "name": "upgradePowerToken",
      "outputs": [],
      "stateMutability": "nonpayable",
      "type": "function"
    }
  ],
  "bytecode": "0x608060405234801561001057600080fd5b50613473806100206000396000f3fe608060405234801561001057600080fd5b50600436106102ca5760003560e01c806304196058146102cf5780630714012c146102ff5780630cac36b2146103f65780630e101b601461040b5780630ea1dc9e1461041e57806311eec5291461042f57806315a52302146104445780631b912384146104665780632261b07f146104795780632457056e1461048a5780632b2f6095146104d45780632b39a0ac146104e75780632e365ade1461051e5780632fb2067f146105315780633759214814610572578063449497ec1461059857806353c09124146105ab57806359bf5d39146105da5780635a9b0b89146105f057806362c1f38814610610578063644e44df1461062357806375417851146106345780637791c42d1461064c5780637b0243631461065d5780637dcfeb73146106705780637eda9ff8146106835780638188d50d1461069657806389035b61146106ab5780638b3240a0146106be5780638d6d50c9146106c65780638da5cb5b146106fc5780638e9fcf811461070457806390f55edd146107175780639c7aa7f81461072a578063a0bcfc7f1461073d578063a0efd11814610750578063a358426f14610765578063a554b26d14610778578063aebb504114610789578063b19337a414610791578063b406bf6d146107a4578063b56de97e146107c6578063b96266fa146107d9578063bf170880146107ee578063bfd84fb4146107ff578063c1fc16d814610812578063c20aa9bc14610825578063c229478414610838578063c4d66de81461084b578063c93d0b921461085e578063d1c820071461086f578063df57f2fa146108a8578063e36eca0c146108dd578063e56f2fe414610911578063e902868314610924578063edc1a6281461095d578063ef1f9f3914610970578063f2fde38b14610983578063f4e28f9a14610996578063f54133bb146109cf578063fbac9a55146109e2578063fcb2884e14610a08575b600080fd5b6102e26102dd366004612d11565b610a10565b6040516001600160a01b0390911681526020015b60405180910390f35b6103e961030d366004612d11565b6040805161010081018252600080825260208201819052918101829052606081018290526080810182905260a0810182905260c0810182905260e08101919091525060009081526010602090815260409182902082516101008101845281546001600160701b038082168352600160701b80830461ffff90811696850196909652600160801b830463ffffffff90811697850197909752600160a01b830487166060850152600160c01b830487166080850152600160e01b90920490951660a083015260019092015493841660c082015292041660e082015290565b6040516102f69190613174565b6103fe610a4e565b6040516102f69190612fa4565b6102e2610419366004612d11565b610ae0565b6001546001600160a01b03166102e2565b61044261043d36600461295c565b610b03565b005b610457610452366004612939565b610c70565b6040516102f693929190612fb7565b610442610474366004612939565b610e2b565b6005546001600160a01b03166102e2565b6104bc610498366004612939565b6001600160a01b03166000908152601260205260409020546001600160701b031690565b6040516001600160701b0390911681526020016102f6565b6104426104e2366004612939565b610ec3565b6104bc6104f5366004612939565b6001600160a01b0316600090815260126020526040902060010154600160e01b900461ffff1690565b61044261052c366004612d29565b610f2d565b61056261053f366004612939565b6001600160a01b0316600090815260086020526040812054600190810b900b1390565b60405190151581526020016102f6565b600354600160a01b900463ffffffff165b60405163ffffffff90911681526020016102f6565b6104426105a6366004612cf7565b610fb5565b6102e26105b9366004612939565b6001600160a01b039081166000908152601260205260409020600101541690565b6105e2611006565b6040519081526020016102f6565b6105f861102b565b6040516102f69c9b9a99989796959493929190612fef565b61044261061e366004612939565b6111ee565b6000546001600160a01b03166102e2565b61063c611265565b6040516102f69493929190612e85565b6007546001600160a01b03166102e2565b61044261066b366004612939565b611516565b61044261067e366004612a46565b611580565b610442610691366004612939565b611688565b600754600160a01b900463ffffffff16610583565b6105626106b9366004612939565b6116ff565b6102e2611710565b6105836106d4366004612939565b6001600160a01b0316600090815260126020526040902054600160d01b900463ffffffff1690565b6102e2611731565b610442610712366004612b16565b611747565b610442610725366004612939565b611847565b610442610738366004612939565b6118be565b61044261074b366004612b5a565b6118f9565b600754600160c01b900463ffffffff16610583565b610562610773366004612aeb565b611939565b6006546001600160a01b03166102e2565b6105e2611992565b61044261079f366004612939565b6119a9565b600754600160e01b900461ffff165b60405161ffff90911681526020016102f6565b6104426107d4366004612d29565b611a20565b6107e1611aa7565b6040516102f69190612f3d565b6004546001600160a01b03166102e2565b61044261080d366004612939565b611b08565b610442610820366004612939565b611b66565b610442610833366004612ab7565b611bca565b610442610846366004612a0e565b611c29565b610442610859366004612939565b611cea565b6002546001600160a01b03166102e2565b61058361087d366004612939565b6001600160a01b0316600090815260126020526040902060010154600160a01b900463ffffffff1690565b6108bb6108b6366004612d11565b611de6565b60408051825181526020808401519082015291810151908201526060016102f6565b6107b36108eb366004612939565b6001600160a01b0316600090815260126020526040902054600160f01b900461ffff1690565b61044261091f366004612c10565b611e43565b6104bc610932366004612939565b6001600160a01b0316600090815260126020526040902054600160701b90046001600160601b031690565b61044261096b366004612d29565b611f5b565b61044261097e3660046129c4565b611ffa565b610442610991366004612939565b612069565b6105836109a4366004612939565b6001600160a01b0316600090815260126020526040902060010154600160c01b900463ffffffff1690565b6104426109dd366004612939565b612161565b6109f56109f0366004612939565b612266565b60405160019190910b81526020016102f6565b600c546105e2565b600060138281548110610a3357634e487b7160e01b600052603260045260246000fd5b6000918252602090912001546001600160a01b031692915050565b6060600a8054610a5d90613326565b80601f0160208091040260200160405190810160405280929190818152602001828054610a8990613326565b8015610ad65780601f10610aab57610100808354040283529160200191610ad6565b820191906000526020600020905b815481529060010190602001808311610ab957829003601f168201915b5050505050905090565b600060098281548110610a3357634e487b7160e01b600052603260045260246000fd5b33610b0c611731565b6001600160a01b031614610b3b5760405162461bcd60e51b8152600401610b32906130e6565b60405180910390fd5b828114610b815760405162461bcd60e51b8152602060048201526014602482015273092dcecc2d8d2c840c2e4e4c2f240d8cadccee8d60631b6044820152606401610b32565b60005b83811015610c6957610bc9858583818110610baf57634e487b7160e01b600052603260045260246000fd5b9050602002016020810190610bc49190612939565b61228d565b610be55760405162461bcd60e51b8152600401610b329061311b565b610c57858583818110610c0857634e487b7160e01b600052603260045260246000fd5b9050602002016020810190610c1d9190612939565b848484818110610c3d57634e487b7160e01b600052603260045260246000fd5b9050602002016020810190610c529190612cf7565b6122b7565b80610c6181613361565b915050610b84565b5050505050565b606080610c7b612722565b836001600160a01b03166306fdde036040518163ffffffff1660e01b815260040160006040518083038186803b158015610cb457600080fd5b505afa158015610cc8573d6000803e3d6000fd5b505050506040513d6000823e601f3d908101601f19168201604052610cf09190810190612b99565b846001600160a01b03166395d89b416040518163ffffffff1660e01b815260040160006040518083038186803b158015610d2957600080fd5b505afa158015610d3d573d6000803e3d6000fd5b505050506040513d6000823e601f3d908101601f19168201604052610d659190810190612b99565b6001600160a01b0395861660009081526012602090815260409182902082516101208101845281546001600160701b0381168252600160701b81046001600160601b031693820193909352600160d01b830463ffffffff90811694820194909452600160f01b9283900461ffff9081166060830152600190920154998a166080820152600160a01b8a04841660a0820152600160c01b8a0490931660c0840152600160e01b89041660e083015290960460ff161515610100870152909590949350915050565b33610e34611731565b6001600160a01b031614610e5a5760405162461bcd60e51b8152600401610b32906130e6565b610e62611710565b6004805460405163266a23b160e21b81526001600160a01b03938416936399a88ec493610e959390911691869101612f8a565b600060405180830381600087803b158015610eaf57600080fd5b505af1158015610c69573d6000803e3d6000fd5b33610ecc611731565b6001600160a01b031614610ef25760405162461bcd60e51b8152600401610b32906130e6565b610efa611710565b60015460405163266a23b160e21b81526001600160a01b03928316926399a88ec492610e95929116908590600401612f8a565b33610f36611731565b6001600160a01b031614610f5c5760405162461bcd60e51b8152600401610b32906130e6565b60075463ffffffff600160c01b90910481169082161115610f8f5760405162461bcd60e51b8152600401610b3290613092565b6007805463ffffffff909216600160a01b0263ffffffff60a01b19909216919091179055565b33610fbe611731565b6001600160a01b031614610fe45760405162461bcd60e51b8152600401610b32906130e6565b6007805461ffff909216600160e01b0261ffff60e01b19909216919091179055565b6000611010612357565b6001600160701b0316600b54611026919061325e565b905090565b600e54600354600754600b54600c54600d54600f805460609788976000978897889788978897889788978897889788979496600a96939563ffffffff600160a01b94859004811696948404811695600160c01b850482169561ffff600160e01b9687900416959394936001600160701b0380841694600160701b8504909116939190910416908c906110bc90613326565b80601f01602080910402602001604051908101604052809291908181526020018280546110e890613326565b80156111355780601f1061110a57610100808354040283529160200191611135565b820191906000526020600020905b81548152906001019060200180831161111857829003601f168201915b50505050509b508a805461114890613326565b80601f016020809104026020016040519081016040528092919081815260200182805461117490613326565b80156111c15780601f10611196576101008083540402835291602001916111c1565b820191906000526020600020905b8154815290600101906020018083116111a457829003601f168201915b50505050509a509b509b509b509b509b509b509b509b509b509b509b509b50909192939495969798999a9b565b336111f7611731565b6001600160a01b03161461121d5760405162461bcd60e51b8152600401610b32906130e6565b6001600160a01b0381166112435760405162461bcd60e51b8152600401610b32906130c0565b600680546001600160a01b0319166001600160a01b0392909216919091179055565b601354606090819081908190806001600160401b0381111561129757634e487b7160e01b600052604160045260246000fd5b6040519080825280602002602001820160405280156112c0578160200160208202803683370190505b509450806001600160401b038111156112e957634e487b7160e01b600052604160045260246000fd5b60405190808252806020026020018201604052801561131c57816020015b60608152602001906001900390816113075790505b509350806001600160401b0381111561134557634e487b7160e01b600052604160045260246000fd5b60405190808252806020026020018201604052801561137857816020015b60608152602001906001900390816113635790505b509250806001600160401b038111156113a157634e487b7160e01b600052604160045260246000fd5b6040519080825280602002602001820160405280156113da57816020015b6113c7612722565b8152602001906001900390816113bf5790505b50915060005b8181101561150e5760006013828154811061140b57634e487b7160e01b600052603260045260246000fd5b60009182526020822001546001600160a01b03169150808061142c84610c70565b925092509250838a868151811061145357634e487b7160e01b600052603260045260246000fd5b60200260200101906001600160a01b031690816001600160a01b0316815250508289868151811061149457634e487b7160e01b600052603260045260246000fd5b6020026020010181905250818886815181106114c057634e487b7160e01b600052603260045260246000fd5b6020026020010181905250808786815181106114ec57634e487b7160e01b600052603260045260246000fd5b602002602001018190525050505050808061150690613361565b9150506113e0565b505090919293565b3361151f611731565b6001600160a01b0316146115455760405162461bcd60e51b8152600401610b32906130e6565b61154d611710565b60025460405163266a23b160e21b81526001600160a01b03928316926399a88ec492610e95929116908590600401612f8a565b33611589611731565b6001600160a01b0316146115af5760405162461bcd60e51b8152600401610b32906130e6565b836115b98161228d565b6115d55760405162461bcd60e51b8152600401610b329061311b565b6001600160a01b0383166116205760405162461bcd60e51b815260206004820152601260248201527124b73b30b634b2102130b9b2902a37b5b2b760711b6044820152606401610b32565b506001600160a01b0393841660009081526012602052604090208054600182018054949096166001600160a01b0319909416939093179094556001600160601b0316600160701b026001600160d01b03199091166001600160701b0390921691909117179055565b33611691611731565b6001600160a01b0316146116b75760405162461bcd60e51b8152600401610b32906130e6565b6001600160a01b0381166116dd5760405162461bcd60e51b8152600401610b32906130c0565b600480546001600160a01b0319166001600160a01b0392909216919091179055565b600061170a8261228d565b92915050565b60006000805160206133fe8339815191525b546001600160a01b0316919050565b60006000805160206133de833981519152611722565b33611750611731565b6001600160a01b0316146117765760405162461bcd60e51b8152600401610b32906130e6565b826117808161228d565b61179c5760405162461bcd60e51b8152600401610b329061311b565b8163ffffffff168363ffffffff1611156117ec5760405162461bcd60e51b8152602060048201526011602482015270496e76616c6964206475726174696f6e7360781b6044820152606401610b32565b506001600160a01b039290921660009081526012602052604090206001018054600160a01b600160e01b031916600160a01b63ffffffff9384160263ffffffff60c01b191617600160c01b9290931691909102919091179055565b33611850611731565b6001600160a01b0316146118765760405162461bcd60e51b8152600401610b32906130e6565b6001600160a01b03811661189c5760405162461bcd60e51b8152600401610b32906130c0565b600780546001600160a01b0319166001600160a01b0392909216919091179055565b336118c7611731565b6001600160a01b0316146118ed5760405162461bcd60e51b8152600401610b32906130e6565b6118f6816123bf565b50565b33611902611731565b6001600160a01b0316146119285760405162461bcd60e51b8152600401610b32906130e6565b611934600a838361276e565b505050565b6001600160a01b0382166000908152601260205260408120600181015463ffffffff808516600160a01b909204161180159061198a5750600181015463ffffffff600160c01b909104811690841611155b949350505050565b6000600c5461199f611006565b61102691906132e3565b336119b2611731565b6001600160a01b0316146119d85760405162461bcd60e51b8152600401610b32906130e6565b6001600160a01b0381166119fe5760405162461bcd60e51b8152600401610b32906130c0565b600580546001600160a01b0319166001600160a01b0392909216919091179055565b33611a29611731565b6001600160a01b031614611a4f5760405162461bcd60e51b8152600401610b32906130e6565b60075463ffffffff808316600160a01b909204161115611a815760405162461bcd60e51b8152600401610b3290613092565b6007805463ffffffff909216600160c01b0263ffffffff60c01b19909216919091179055565b60606013805480602002602001604051908101604052809291908181526020018280548015610ad657602002820191906000526020600020905b81546001600160a01b03168152600190910190602001808311611ae1575050505050905090565b33611b11611731565b6001600160a01b031614611b375760405162461bcd60e51b8152600401610b32906130e6565b6001600160a01b038116611b5d5760405162461bcd60e51b8152600401610b32906130c0565b6118f68161249a565b33611b6f611731565b6001600160a01b031614611b955760405162461bcd60e51b8152600401610b32906130e6565b611b9d611710565b6001600160a01b03166399a88ec430836040518363ffffffff1660e01b8152600401610e95929190612f8a565b33611bd3611731565b6001600160a01b031614611bf95760405162461bcd60e51b8152600401610b32906130e6565b81611c038161228d565b611c1f5760405162461bcd60e51b8152600401610b329061311b565b61193483836122b7565b33611c32611731565b6001600160a01b031614611c585760405162461bcd60e51b8152600401610b32906130e6565b81611c628161228d565b611c7e5760405162461bcd60e51b8152600401610b329061311b565b611c86611710565b6001600160a01b03166399a88ec484846040518363ffffffff1660e01b8152600401611cb3929190612f8a565b600060405180830381600087803b158015611ccd57600080fd5b505af1158015611ce1573d6000803e3d6000fd5b50505050505050565b6000611cf4611731565b6001600160a01b031614611d495760405162461bcd60e51b815260206004820152601c60248201527b13dddb98589b194e88185b1c9958591e481a5b9a5d1a585b1a5e995960221b6044820152606401610b32565b6001600160a01b038116611d9f5760405162461bcd60e51b815260206004820152601e60248201527f4f776e61626c653a20696e76616c696420696e697469616c206f776e657200006044820152606401610b32565b6000805160206133de83398151915280546001600160a01b0319166001600160a01b03831690811790915560405160009060008051602061341e833981519152908290a350565b611e0a60405180606001604052806000815260200160008152602001600081525090565b50600090815260116020908152604091829020825160608101845281548152600182015492810192909252600201549181019190915290565b600f8054611e5090613326565b159050611e6f5760405162461bcd60e51b8152600401610b3290613147565b611e7881611cea565b816000805160206133fe83398151915280546001600160a01b03929092166001600160a01b031992831617905560038054909116331790558651611ec390600f9060208a01906127f2565b50611ed0600a878761276e565b50600480546001600160a01b03199081166001600160a01b0396871617909155600580548216948616949094179093556007805460068054939096169290941682179094556003805463ffffffff60a01b191660e160a61b1790556001600160c01b03199092169091176102a360a61b1763ffffffff60c01b19166102a360c71b1790915550505050565b33611f64611731565b6001600160a01b031614611f8a5760405162461bcd60e51b8152600401610b32906130e6565b60008163ffffffff1611611fd45760405162461bcd60e51b8152602060048201526011602482015270496e76616c69642068616c66206c69666560781b6044820152606401610b32565b6003805463ffffffff909216600160a01b0263ffffffff60a01b19909216919091179055565b6000546001600160a01b0316156120235760405162461bcd60e51b8152600401610b3290613147565b600080546001600160a01b038086166001600160a01b0319928316179092556001805485841690831617905560028054928416929091169190911790556119348361249a565b33612072611731565b6001600160a01b0316146120985760405162461bcd60e51b8152600401610b32906130e6565b6001600160a01b0381166120fd5760405162461bcd60e51b815260206004820152602660248201527f4f776e61626c653a206e6577206f776e657220697320746865207a65726f206160448201526564647265737360d01b6064820152608401610b32565b806001600160a01b031661210f611731565b6001600160a01b031660008051602061341e83398151915260405160405180910390a36000805160206133de83398151915280546001600160a01b0319166001600160a01b0392909216919091179055565b3361216a611731565b6001600160a01b0316146121905760405162461bcd60e51b8152600401610b32906130e6565b8061219a8161228d565b6121b65760405162461bcd60e51b8152600401610b329061311b565b6001600160a01b038216600090815260126020526040902060010154600160f01b900460ff16156122385760405162461bcd60e51b815260206004820152602660248201527f50657270657475616c20506f77657220546f6b656e7320616c726561647920616044820152651b1b1bddd95960d21b6064820152608401610b32565b506001600160a01b03166000908152601260205260409020600101805460ff60f01b1916600160f01b179055565b6001600160a01b03811660009081526008602052604081205461170a90600190810b613276565b6001600160a01b0316600090815260126020526040902054600160d01b900463ffffffff16151590565b61138861ffff8216111561231b5760405162461bcd60e51b815260206004820152602560248201527f4d6178696d756d2073657276696365206665652070657263656e7420746872656044820152641cda1bdb1960da1b6064820152608401610b32565b6001600160a01b039091166000908152601260205260409020600101805461ffff909216600160e01b0261ffff60e01b19909216919091179055565b600d546000906123a29063ffffffff600160e01b8204169061238c906001600160701b0380821691600160701b9004166132bb565b600354600160a01b900463ffffffff164261257d565b600d546110269190600160701b90046001600160701b03166132bb565b6001600160a01b038116600090815260086020526040902054600190810b900b61241b5760405162461bcd60e51b815260206004820152600d60248201526c24b73b30b634b2103a37b5b2b760991b6044820152606401610b32565b6001600160a01b038116600090815260086020526040812054600190810b900b13156118f6576001600160a01b0381166000908152600860205260409020546124669060010b61337c565b6001600160a01b0382166000908152600860205260409020805460019290920b61ffff1661ffff1990921691909117905550565b6001600160a01b038116600090815260086020526040902054600190810b900b6125325760098054600180820183557f6e1540171b6c0c960b71a7020d9f60077f6af931a8bbf590da0223dacf75c7af90910180546001600160a01b0319166001600160a01b039490941693841790559054600092835260086020526040909220805461ffff191661ffff9390920b92909216179055565b6001600160a01b038116600090815260086020526040812054600190810b900b12156118f6576001600160a01b0381166000908152600860205260409020546124669060010b61337c565b60008463ffffffff168263ffffffff1610156125cc5760405162461bcd60e51b815260206004820152600e60248201526d125b9d985b1a59081c195c9a5bd960921b6044820152606401610b32565b84820391508263ffffffff168263ffffffff16816125fa57634e487b7160e01b600052601260045260246000fd5b0463ffffffff16846001600160701b0316901c93508263ffffffff168263ffffffff168161263857634e487b7160e01b600052601260045260246000fd5b06915063ffffffff8216158061265557506001600160701b038416155b1561266157508261198a565b60006001600160701b0385168163ffffffff86811690861671b17217f7d1cf79abc9e3b39803f2f6af40f302816126a857634e487b7160e01b600052601260045260246000fd5b049050600160901b5b8215612715579282019280828402816126da57634e487b7160e01b600052601260045260246000fd5b0493849003939250600160901b01808284028161270757634e487b7160e01b600052601260045260246000fd5b049250600160901b016126b1565b5091979650505050505050565b6040805161012081018252600080825260208201819052918101829052606081018290526080810182905260a0810182905260c0810182905260e0810182905261010081019190915290565b82805461277a90613326565b90600052602060002090601f01602090048101928261279c57600085556127e2565b82601f106127b55782800160ff198235161785556127e2565b828001600101855582156127e2579182015b828111156127e25782358255916020019190600101906127c7565b506127ee929150612866565b5090565b8280546127fe90613326565b90600052602060002090601f01602090048101928261282057600085556127e2565b82601f1061283957805160ff19168380011785556127e2565b828001600101855582156127e2579182015b828111156127e257825182559160200191906001019061284b565b5b808211156127ee5760008155600101612867565b8035612886816133c8565b919050565b60008083601f84011261289c578081fd5b5081356001600160401b038111156128b2578182fd5b6020830191508360208260051b85010111156128cd57600080fd5b9250929050565b60008083601f8401126128e5578182fd5b5081356001600160401b038111156128fb578182fd5b6020830191508360208285010111156128cd57600080fd5b803561ffff8116811461288657600080fd5b803563ffffffff8116811461288657600080fd5b60006020828403121561294a578081fd5b8135612955816133c8565b9392505050565b60008060008060408587031215612971578283fd5b84356001600160401b0380821115612987578485fd5b6129938883890161288b565b909650945060208701359150808211156129ab578384fd5b506129b88782880161288b565b95989497509550505050565b6000806000606084860312156129d8578283fd5b83356129e3816133c8565b925060208401356129f3816133c8565b91506040840135612a03816133c8565b809150509250925092565b60008060408385031215612a20578182fd5b8235612a2b816133c8565b91506020830135612a3b816133c8565b809150509250929050565b60008060008060808587031215612a5b578182fd5b8435612a66816133c8565b935060208501356001600160701b0381168114612a81578283fd5b92506040850135612a91816133c8565b915060608501356001600160601b0381168114612aac578182fd5b939692955090935050565b60008060408385031215612ac9578182fd5b8235612ad4816133c8565b9150612ae260208401612913565b90509250929050565b60008060408385031215612afd578182fd5b8235612b08816133c8565b9150612ae260208401612925565b600080600060608486031215612b2a578081fd5b8335612b35816133c8565b9250612b4360208501612925565b9150612b5160408501612925565b90509250925092565b60008060208385031215612b6c578182fd5b82356001600160401b03811115612b81578283fd5b612b8d858286016128d4565b90969095509350505050565b600060208284031215612baa578081fd5b81516001600160401b03811115612bbf578182fd5b8201601f81018413612bcf578182fd5b8051612be2612bdd82613237565b613207565b818152856020838501011115612bf6578384fd5b612c078260208301602086016132fa565b95945050505050565b600080600080600080600060c0888a031215612c2a578485fd5b87356001600160401b0380821115612c40578687fd5b818a0191508a601f830112612c53578687fd5b8135612c61612bdd82613237565b8181528c6020838601011115612c75578889fd5b816020850160208301378860208383010152809a50505060208a0135915080821115612c9f578687fd5b50612cac8a828b016128d4565b9097509550612cbf90506040890161287b565b9350612ccd6060890161287b565b9250612cdb6080890161287b565b9150612ce960a0890161287b565b905092959891949750929550565b600060208284031215612d08578081fd5b61295582612913565b600060208284031215612d22578081fd5b5035919050565b600060208284031215612d3a578081fd5b61295582612925565b6000815180845260208085019450848260051b8601828601855b85811015612d87578383038952612d75838351612d94565b98850198925090840190600101612d5d565b5090979650505050505050565b60008151808452612dac8160208601602086016132fa565b601f01601f19169290920160200192915050565b80516001600160701b031682526020808201516001600160601b03169083015260408082015190612df89084018263ffffffff169052565b506060810151612e0e606084018261ffff169052565b506080810151612e2960808401826001600160a01b03169052565b5060a0810151612e4160a084018263ffffffff169052565b5060c0810151612e5960c084018263ffffffff169052565b5060e0810151612e6f60e084018261ffff169052565b5061010081810151801515848301525b50505050565b6080808252855190820181905260009060209060a0840190828901845b82811015612ec75781516001600160a01b031684529284019290840190600101612ea2565b50505083810382850152612edb8188612d43565b90508381036040850152612eef8187612d43565b84810360608601528551808252838701925090830190845b81811015612f2e57612f1a838551612dc0565b928401926101209290920191600101612f07565b50909998505050505050505050565b6020808252825182820181905260009190848201906040850190845b81811015612f7e5783516001600160a01b031683529284019291840191600101612f59565b50909695505050505050565b6001600160a01b0392831681529116602082015260400190565b6020815260006129556020830184612d94565b6000610160808352612fcb81840187612d94565b90508281036020840152612fdf8186612d94565b91505061198a6040830184612dc0565b6101808152600061300461018083018f612d94565b8281036020840152613016818f612d94565b604084018e905263ffffffff8d811660608601528c811660808601528b1660a085015261ffff8a1660c085015260e0840189905261010084018890526001600160701b03878116610120860152861661014085015291506130749050565b63ffffffff83166101608301529d9c50505050505050505050505050565b602080825260149082015273125b9d985b1a590819dc9858d9481c195c9a5bd960621b604082015260600190565b6020808252600c908201526b5a65726f206164647265737360a01b604082015260600190565b6020808252818101527f4f776e61626c653a2063616c6c6572206973206e6f7420746865206f776e6572604082015260600190565b6020808252601290820152712ab735b737bbb7102837bbb2b92a37b5b2b760711b604082015260600190565b602080825260139082015272105b1c9958591e481a5b9a5d1a585b1a5e9959606a1b604082015260600190565b81516001600160701b0316815260208083015161ffff169082015260408083015163ffffffff9081169183019190915260608084015182169083015260808084015182169083015260a080840151918216908301526101008201905060c08301516131ea60c08401826001600160701b03169052565b5060e083015161320060e084018261ffff169052565b5092915050565b604051601f8201601f191681016001600160401b038111828210171561322f5761322f6133b2565b604052919050565b60006001600160401b03821115613250576132506133b2565b50601f01601f191660200190565b600082198211156132715761327161339c565b500190565b60008160010b8360010b82811281617fff190183128115161561329b5761329b61339c565b81617fff0183138116156132b1576132b161339c565b5090039392505050565b60006001600160701b03838116908316818110156132db576132db61339c565b039392505050565b6000828210156132f5576132f561339c565b500390565b60005b838110156133155781810151838201526020016132fd565b83811115612e7f5750506000910152565b600181811c9082168061333a57607f821691505b6020821081141561335b57634e487b7160e01b600052602260045260246000fd5b50919050565b60006000198214156133755761337561339c565b5060010190565b60008160010b617fff198114156133955761339561339c565b9003919050565b634e487b7160e01b600052601160045260246000fd5b634e487b7160e01b600052604160045260246000fd5b6001600160a01b03811681146118f657600080fdfe4f471908b72bb76dae5bd24599026e7bf3ddb256497722888ffa422f83729eded1248cccb5fef9131c731321e43e9a924840ffee7dc68c7d1d3e5cb7dedcae038be0079c531659141344cd1fd0a4f28419497f9722a3daafe3b4186f6b6457e0a2646970667358221220a040d6e462802d46725757a421bd29e5e5ce456159477a6c7d69c6eaba4e2c0364736f6c63430008040033",
  "linkReferences": {},
  "deployedLinkReferences": {}
}