{
  "address": "0x7c88605dDB1f5eD8e7689088eBC77D82dee87f11",
  "abi": [
    {
      "inputs": [
        {
          "internalType": "contract IERC20",
          "name": "source",
          "type": "address"
        },
        {
          "internalType": "uint256",
          "name": "amount",
          "type": "uint256"
        },
        {
          "internalType": "contract IERC20",
          "name": "target",
          "type": "address"
        }
      ],
      "name": "convert",
      "outputs": [
        {
          "internalType": "uint256",
          "name": "",
          "type": "uint256"
        }
      ],
      "stateMutability": "pure",
      "type": "function"
    },
    {
      "inputs": [
        {
          "internalType": "contract IERC20",
          "name": "source",
          "type": "address"
        },
        {
          "internalType": "uint256",
          "name": "amount",
          "type": "uint256"
        },
        {
          "internalType": "contract IERC20",
          "name": "target",
          "type": "address"
        }
      ],
      "name": "estimateConvert",
      "outputs": [
        {
          "internalType": "uint256",
          "name": "",
          "type": "uint256"
        }
      ],
      "stateMutability": "pure",
      "type": "function"
    }
  ],
  "transactionHash": "0xd5dc688a16c764deee83782ae66a99a53a7dd686346820e31de916a47011d40a",
  "args": [],
  "solcInputHash": "a469f38498f6c7a2ecf96e9707df965d",
  "bytecode": "0x608060405234801561001057600080fd5b506101a2806100206000396000f3fe608060405234801561001057600080fd5b50600436106100365760003560e01c8063029b465d1461003b57806329fb92ce1461003b575b600080fd5b61004e6100493660046100de565b610060565b60405190815260200160405180910390f35b6000816001600160a01b0316846001600160a01b03161460405180604001604052806002815260200161199b60f11b815250906100b95760405162461bcd60e51b81526004016100b09190610119565b60405180910390fd5b50919392505050565b80356001600160a01b03811681146100d957600080fd5b919050565b6000806000606084860312156100f2578283fd5b6100fb846100c2565b925060208401359150610110604085016100c2565b90509250925092565b6000602080835283518082850152825b8181101561014557858101830151858201604001528201610129565b818111156101565783604083870101525b50601f01601f191692909201604001939250505056fea26469706673582212201b26b3b55f4d405a1083fb953a687509e0cc862aab50fad9f0fdb19abb81d38f64736f6c63430008040033",
  "devdoc": {
    "kind": "dev",
    "methods": {
      "convert(address,uint256,address)": {
        "details": "Converts `source` tokens to `target` tokens. Converted tokens must be on `msg.sender` address after exiting this function"
      }
    },
    "version": 1
  },
  "userdoc": {
    "kind": "user",
    "methods": {
      "estimateConvert(address,uint256,address)": {
        "notice": "Estimates conversion of `source` currency into `target` currency"
      }
    },
    "notice": "Noop converter",
    "version": 1
  },
  "storageLayout": {
    "storage": [],
    "types": null
  }
}