{
  "_format": "hh-sol-artifact-1",
  "contractName": "ERC1155Mintable",
  "sourceName": "contracts/facets/erc1155/ERC1155Mintable.sol",
  "abi": [
    {
      "inputs": [],
      "stateMutability": "nonpayable",
      "type": "constructor"
    },
    {
      "anonymous": false,
      "inputs": [
        {
          "indexed": true,
          "internalType": "address",
          "name": "_owner",
          "type": "address"
        },
        {
          "indexed": true,
          "internalType": "address",
          "name": "_operator",
          "type": "address"
        },
        {
          "indexed": false,
          "internalType": "bool",
          "name": "_approved",
          "type": "bool"
        }
      ],
      "name": "ApprovalForAll",
      "type": "event"
    },
    {
      "anonymous": false,
      "inputs": [
        {
          "indexed": true,
          "internalType": "address",
          "name": "_operator",
          "type": "address"
        },
        {
          "indexed": true,
          "internalType": "address",
          "name": "_from",
          "type": "address"
        },
        {
          "indexed": true,
          "internalType": "address",
          "name": "_to",
          "type": "address"
        },
        {
          "indexed": false,
          "internalType": "uint256[]",
          "name": "_ids",
          "type": "uint256[]"
        },
        {
          "indexed": false,
          "internalType": "uint256[]",
          "name": "_values",
          "type": "uint256[]"
        }
      ],
      "name": "TransferBatch",
      "type": "event"
    },
    {
      "anonymous": false,
      "inputs": [
        {
          "indexed": true,
          "internalType": "address",
          "name": "_operator",
          "type": "address"
        },
        {
          "indexed": true,
          "internalType": "address",
          "name": "_from",
          "type": "address"
        },
        {
          "indexed": true,
          "internalType": "address",
          "name": "_to",
          "type": "address"
        },
        {
          "indexed": false,
          "internalType": "uint256",
          "name": "_id",
          "type": "uint256"
        },
        {
          "indexed": false,
          "internalType": "uint256",
          "name": "_value",
          "type": "uint256"
        }
      ],
      "name": "TransferSingle",
      "type": "event"
    },
    {
      "anonymous": false,
      "inputs": [
        {
          "indexed": false,
          "internalType": "string",
          "name": "_value",
          "type": "string"
        },
        {
          "indexed": true,
          "internalType": "uint256",
          "name": "_id",
          "type": "uint256"
        }
      ],
      "name": "URI",
      "type": "event"
    },
    {
      "inputs": [
        {
          "internalType": "address",
          "name": "_owner",
          "type": "address"
        },
        {
          "internalType": "uint256",
          "name": "_id",
          "type": "uint256"
        }
      ],
      "name": "balanceOf",
      "outputs": [
        {
          "internalType": "uint256",
          "name": "",
          "type": "uint256"
        }
      ],
      "stateMutability": "view",
      "type": "function"
    },
    {
      "inputs": [
        {
          "internalType": "address[]",
          "name": "_owners",
          "type": "address[]"
        },
        {
          "internalType": "uint256[]",
          "name": "_ids",
          "type": "uint256[]"
        }
      ],
      "name": "balanceOfBatch",
      "outputs": [
        {
          "internalType": "uint256[]",
          "name": "",
          "type": "uint256[]"
        }
      ],
      "stateMutability": "view",
      "type": "function"
    },
    {
      "inputs": [
        {
          "internalType": "uint256",
          "name": "_initialSupply",
          "type": "uint256"
        },
        {
          "internalType": "string",
          "name": "_uri",
          "type": "string"
        }
      ],
      "name": "create",
      "outputs": [
        {
          "internalType": "uint256",
          "name": "_id",
          "type": "uint256"
        }
      ],
      "stateMutability": "nonpayable",
      "type": "function"
    },
    {
      "inputs": [],
      "name": "initialize",
      "outputs": [],
      "stateMutability": "nonpayable",
      "type": "function"
    },
    {
      "inputs": [
        {
          "internalType": "address",
          "name": "_owner",
          "type": "address"
        },
        {
          "internalType": "address",
          "name": "_operator",
          "type": "address"
        }
      ],
      "name": "isApprovedForAll",
      "outputs": [
        {
          "internalType": "bool",
          "name": "",
          "type": "bool"
        }
      ],
      "stateMutability": "view",
      "type": "function"
    },
    {
      "inputs": [
        {
          "internalType": "uint256",
          "name": "_id",
          "type": "uint256"
        },
        {
          "internalType": "address[]",
          "name": "_to",
          "type": "address[]"
        },
        {
          "internalType": "uint256[]",
          "name": "_quantities",
          "type": "uint256[]"
        }
      ],
      "name": "mint",
      "outputs": [],
      "stateMutability": "nonpayable",
      "type": "function"
    },
    {
      "inputs": [
        {
          "internalType": "address",
          "name": "_from",
          "type": "address"
        },
        {
          "internalType": "address",
          "name": "_to",
          "type": "address"
        },
        {
          "internalType": "uint256[]",
          "name": "_ids",
          "type": "uint256[]"
        },
        {
          "internalType": "uint256[]",
          "name": "_values",
          "type": "uint256[]"
        },
        {
          "internalType": "bytes",
          "name": "_data",
          "type": "bytes"
        }
      ],
      "name": "safeBatchTransferFrom",
      "outputs": [],
      "stateMutability": "nonpayable",
      "type": "function"
    },
    {
      "inputs": [
        {
          "internalType": "address",
          "name": "_from",
          "type": "address"
        },
        {
          "internalType": "address",
          "name": "_to",
          "type": "address"
        },
        {
          "internalType": "uint256",
          "name": "_id",
          "type": "uint256"
        },
        {
          "internalType": "uint256",
          "name": "_value",
          "type": "uint256"
        },
        {
          "internalType": "bytes",
          "name": "_data",
          "type": "bytes"
        }
      ],
      "name": "safeTransferFrom",
      "outputs": [],
      "stateMutability": "nonpayable",
      "type": "function"
    },
    {
      "inputs": [
        {
          "internalType": "address",
          "name": "_operator",
          "type": "address"
        },
        {
          "internalType": "bool",
          "name": "_approved",
          "type": "bool"
        }
      ],
      "name": "setApprovalForAll",
      "outputs": [],
      "stateMutability": "nonpayable",
      "type": "function"
    },
    {
      "inputs": [
        {
          "internalType": "string",
          "name": "_uri",
          "type": "string"
        },
        {
          "internalType": "uint256",
          "name": "_id",
          "type": "uint256"
        }
      ],
      "name": "setURI",
      "outputs": [],
      "stateMutability": "nonpayable",
      "type": "function"
    }
  ],
  "bytecode": "0x608060405234801561001057600080fd5b50600061002561004f60201b61108c1760201c565b6303a24d0760e21b6000908152600390910160205260409020805460ff1916600117905550610073565b7fc8fcad8db84d3cc18b4c41d551ea0ee66dd599cde068d998e57d5e09332c131c90565b611587806100826000396000f3fe608060405234801561001057600080fd5b506004361061009d5760003560e01c80638129fc1c116100665780638129fc1c146103fa578063a22cb46514610402578063cfa84fc114610430578063e985e9c5146104f5578063f242432a146105375761009d565b8062fdd58e146100a25780630118fa49146100e05780632eb2c2d6146101555780634e1273f41461027e57806367db3b8f1461038c575b600080fd5b6100ce600480360360408110156100b857600080fd5b506001600160a01b0381351690602001356105ca565b60408051918252519081900360200190f35b6100ce600480360360408110156100f657600080fd5b81359190810190604081016020820135600160201b81111561011757600080fd5b82018360208201111561012957600080fd5b803590602001918460018302840111600160201b8311171561014a57600080fd5b5090925090506105ff565b61027c600480360360a081101561016b57600080fd5b6001600160a01b038235811692602081013590911691810190606081016040820135600160201b81111561019e57600080fd5b8201836020820111156101b057600080fd5b803590602001918460208302840111600160201b831117156101d157600080fd5b919390929091602081019035600160201b8111156101ee57600080fd5b82018360208201111561020057600080fd5b803590602001918460208302840111600160201b8311171561022157600080fd5b919390929091602081019035600160201b81111561023e57600080fd5b82018360208201111561025057600080fd5b803590602001918460018302840111600160201b8311171561027157600080fd5b509092509050610707565b005b61033c6004803603604081101561029457600080fd5b810190602081018135600160201b8111156102ae57600080fd5b8201836020820111156102c057600080fd5b803590602001918460208302840111600160201b831117156102e157600080fd5b919390929091602081019035600160201b8111156102fe57600080fd5b82018360208201111561031057600080fd5b803590602001918460208302840111600160201b8311171561033157600080fd5b509092509050610ac3565b60408051602080825283518183015283519192839290830191858101910280838360005b83811015610378578181015183820152602001610360565b505050509050019250505060405180910390f35b61027c600480360360408110156103a257600080fd5b810190602081018135600160201b8111156103bc57600080fd5b8201836020820111156103ce57600080fd5b803590602001918460018302840111600160201b831117156103ef57600080fd5b919350915035610bbb565b61027c610c54565b61027c6004803603604081101561041857600080fd5b506001600160a01b0381351690602001351515610c85565b61027c6004803603606081101561044657600080fd5b81359190810190604081016020820135600160201b81111561046757600080fd5b82018360208201111561047957600080fd5b803590602001918460208302840111600160201b8311171561049a57600080fd5b919390929091602081019035600160201b8111156104b757600080fd5b8201836020820111156104c957600080fd5b803590602001918460208302840111600160201b831117156104ea57600080fd5b509092509050610d01565b6105236004803603604081101561050b57600080fd5b506001600160a01b0381358116916020013516610e49565b604080519115158252519081900360200190f35b61027c600480360360a081101561054d57600080fd5b6001600160a01b03823581169260208101359091169160408201359160608101359181019060a081016080820135600160201b81111561058c57600080fd5b82018360208201111561059e57600080fd5b803590602001918460018302840111600160201b831117156105bf57600080fd5b509092509050610e88565b6000806105d56110b0565b6000848152602091825260408082206001600160a01b038816835290925220549150505b92915050565b60008061060a6110d4565b905060006106166110b0565b600180840180549091019081905560008181526020858152604080832080546001600160a01b0319163390811790915585835281842081855283528184208c905581518581529283018c90528151949850949550919284927fc3d58168c5ae7397731d063d5bbf3d657854427343f4c083240f7aacaa2d0f62928290030190a483156106fe57827f6bb7ff708619ba0610cba295a58592e0451dee2622938c8755667688daf3529b868660405180806020018281038252848482818152602001925080828437600083820152604051601f909101601f19169092018290039550909350505050a25b50509392505050565b60006107116110b0565b90506001600160a01b0388166107585760405162461bcd60e51b815260040180806020018281038252602581526020018061145e6025913960400191505060405180910390fd5b8584146107965760405162461bcd60e51b81526004018080602001828103825260298152602001806114f06029913960400191505060405180910390fd5b6001600160a01b0389163314806107d757506001600160a01b03891660009081526001808301602090815260408084203385529091529091205460ff161515145b6108125760405162461bcd60e51b815260040180806020018281038252602f815260200180611483602f913960400191505060405180910390fd5b60005b8681101561094b57600088888381811061082b57fe5b905060200201359050600087878481811061084257fe5b9050602002013590506108968185600001600085815260200190815260200160002060008f6001600160a01b03166001600160a01b03168152602001908152602001600020546110f890919063ffffffff16565b84600001600084815260200190815260200160002060008e6001600160a01b03166001600160a01b031681526020019081526020016000208190555061091d84600001600084815260200190815260200160002060008d6001600160a01b03166001600160a01b03168152602001908152602001600020548261110a90919063ffffffff16565b6000928352602085815260408085206001600160a01b038f1686529091529092209190915550600101610815565b50876001600160a01b0316896001600160a01b0316336001600160a01b03167f4a39dc06d4c0dbc64b70af90fd698a233a518aa5d07e595d983b8c0526c8f7fb8a8a8a8a6040518080602001806020018381038352878782818152602001925060200280828437600083820152601f01601f19169091018481038352858152602090810191508690860280828437600083820152604051601f909101601f19169092018290039850909650505050505050a4610a0f886001600160a01b0316611117565b15610ab857610ab8338a8a8a8a8080602002602001604051908101604052809392919081815260200183836020028082843760009201919091525050604080516020808e0282810182019093528d82529093508d92508c91829185019084908082843760009201919091525050604080516020601f8d018190048102820181019092528b815292508b91508a908190840183828082843760009201919091525061111d92505050565b505050505050505050565b60606000610acf6110b0565b9050848314610add57600080fd5b60008567ffffffffffffffff81118015610af657600080fd5b50604051908082528060200260200182016040528015610b20578160200160208202803683370190505b50905060005b86811015610bb057826000878784818110610b3d57fe5b9050602002013581526020019081526020016000206000898984818110610b6057fe5b905060200201356001600160a01b03166001600160a01b03166001600160a01b0316815260200190815260200160002054828281518110610b9d57fe5b6020908102919091010152600101610b26565b509695505050505050565b806000610bc66110d4565b6000838152602082905260409020549091506001600160a01b03163314610bec57600080fd5b827f6bb7ff708619ba0610cba295a58592e0451dee2622938c8755667688daf3529b868660405180806020018281038252848482818152602001925080828437600083820152604051601f909101601f19169092018290039550909350505050a25050505050565b6000610c5e61108c565b636cdb3d1360e11b6000908152600390910160205260409020805460ff1916600117905550565b6000610c8f6110b0565b33600081815260018301602090815260408083206001600160a01b03891680855290835292819020805460ff19168815159081179091558151908152905194955091937f17307eab39ab6107e8899845ad3d59bd9653f200f220920489ca2b5937696c319281900390910190a3505050565b846000610d0c6110d4565b6000838152602082905260409020549091506001600160a01b03163314610d3257600080fd5b6000610d3c6110b0565b905060005b86811015610ab8576000888883818110610d5757fe5b905060200201356001600160a01b031690506000878784818110610d7757fe5b60008e8152602088815260408083206001600160a01b0389168452825290912054910292909201359250610dad9183915061110a565b60008c8152602086815260408083206001600160a01b0387168085529083528184209490945580518f8152918201859052805133927fc3d58168c5ae7397731d063d5bbf3d657854427343f4c083240f7aacaa2d0f6292908290030190a4610e1d826001600160a01b0316611117565b15610e3f57610e3f3333848e85604051806020016040528060008152506112ff565b5050600101610d41565b600080610e546110b0565b6001600160a01b03948516600090815260019190910160209081526040808320959096168252939093525050205460ff1690565b6000610e926110b0565b90506001600160a01b038616610ee7576040805162461bcd60e51b81526020600482015260156024820152742fba379036bab9ba103132903737b716bd32b9379760591b604482015290519081900360640190fd5b6001600160a01b038716331480610f2857506001600160a01b03871660009081526001808301602090815260408084203385529091529091205460ff161515145b610f635760405162461bcd60e51b815260040180806020018281038252602f815260200180611483602f913960400191505060405180910390fd5b6000858152602082815260408083206001600160a01b038b168452909152902054610f8e90856110f8565b6000868152602083815260408083206001600160a01b038c81168552925280832093909355881681522054610fc490859061110a565b6000868152602083815260408083206001600160a01b03808c16808652918452938290209490945580518981529182018890528051928b169233927fc3d58168c5ae7397731d063d5bbf3d657854427343f4c083240f7aacaa2d0f6292908290030190a461103a866001600160a01b0316611117565b1561108357611083338888888888888080601f0160208091040260200160405190810160405280939291908181526020018383808284376000920191909152506112ff92505050565b50505050505050565b7fc8fcad8db84d3cc18b4c41d551ea0ee66dd599cde068d998e57d5e09332c131c90565b7f27b80c39eaec9c44143bb86545037fefe1bfed0d54fd275b14504f734e7cfd3790565b7f82cd9774ab347c5ab504f7c22bb86302a068f5ef6567f511d4a5164a6c421d6690565b60008282111561110457fe5b50900390565b818101828110156105f957fe5b3b151590565b63bc197c8160e01b6001600160e01b031916846001600160a01b031663bc197c8188888787876040518663ffffffff1660e01b815260040180866001600160a01b03168152602001856001600160a01b03168152602001806020018060200180602001848103845287818151815260200191508051906020019060200280838360005b838110156111b85781810151838201526020016111a0565b50505050905001848103835286818151815260200191508051906020019060200280838360005b838110156111f75781810151838201526020016111df565b50505050905001848103825285818151815260200191508051906020019080838360005b8381101561123357818101518382015260200161121b565b50505050905090810190601f1680156112605780820380516001836020036101000a031916815260200191505b5098505050505050505050602060405180830381600087803b15801561128557600080fd5b505af1158015611299573d6000803e3d6000fd5b505050506040513d60208110156112af57600080fd5b50516001600160e01b031916146112f75760405162461bcd60e51b815260040180806020018281038252603e8152602001806114b2603e913960400191505060405180910390fd5b505050505050565b63f23a6e6160e01b6001600160e01b031916846001600160a01b031663f23a6e6188888787876040518663ffffffff1660e01b815260040180866001600160a01b03168152602001856001600160a01b0316815260200184815260200183815260200180602001828103825283818151815260200191508051906020019080838360005b8381101561139b578181015183820152602001611383565b50505050905090810190601f1680156113c85780820380516001836020036101000a031916815260200191505b509650505050505050602060405180830381600087803b1580156113eb57600080fd5b505af11580156113ff573d6000803e3d6000fd5b505050506040513d602081101561141557600080fd5b50516001600160e01b031916146112f75760405162461bcd60e51b81526004018080602001828103825260398152602001806115196039913960400191505060405180910390fdfe64657374696e6174696f6e2061646472657373206d757374206265206e6f6e2d7a65726f2e4e656564206f70657261746f7220617070726f76616c20666f7220337264207061727479207472616e73666572732e636f6e74726163742072657475726e656420616e20756e6b6e6f776e2076616c75652066726f6d206f6e45524331313535426174636852656365697665645f69647320616e64205f76616c756573206172726179206c656e677468206d757374206d617463682e636f6e74726163742072657475726e656420616e20756e6b6e6f776e2076616c75652066726f6d206f6e455243313135355265636569766564a26469706673582212208dd85fc907025ee865a66a1d3b995be0ff3128a67ac6d87c923c4a2466d9330864736f6c63430007060033",
  "linkReferences": {},
  "deployedLinkReferences": {}
}