{
  "_format": "hh-sol-artifact-1",
  "contractName": "ERC1155Mintable",
  "sourceName": "contracts/facets/erc1155/ERC1155Mintable.sol",
  "abi": [
    {
      "inputs": [],
      "stateMutability": "nonpayable",
      "type": "constructor"
    },
    {
      "anonymous": false,
      "inputs": [
        {
          "indexed": true,
          "internalType": "address",
          "name": "_owner",
          "type": "address"
        },
        {
          "indexed": true,
          "internalType": "address",
          "name": "_operator",
          "type": "address"
        },
        {
          "indexed": false,
          "internalType": "bool",
          "name": "_approved",
          "type": "bool"
        }
      ],
      "name": "ApprovalForAll",
      "type": "event"
    },
    {
      "anonymous": false,
      "inputs": [
        {
          "indexed": true,
          "internalType": "address",
          "name": "_operator",
          "type": "address"
        },
        {
          "indexed": true,
          "internalType": "address",
          "name": "_from",
          "type": "address"
        },
        {
          "indexed": true,
          "internalType": "address",
          "name": "_to",
          "type": "address"
        },
        {
          "indexed": false,
          "internalType": "uint256[]",
          "name": "_ids",
          "type": "uint256[]"
        },
        {
          "indexed": false,
          "internalType": "uint256[]",
          "name": "_values",
          "type": "uint256[]"
        }
      ],
      "name": "TransferBatch",
      "type": "event"
    },
    {
      "anonymous": false,
      "inputs": [
        {
          "indexed": true,
          "internalType": "address",
          "name": "_operator",
          "type": "address"
        },
        {
          "indexed": true,
          "internalType": "address",
          "name": "_from",
          "type": "address"
        },
        {
          "indexed": true,
          "internalType": "address",
          "name": "_to",
          "type": "address"
        },
        {
          "indexed": false,
          "internalType": "uint256",
          "name": "_id",
          "type": "uint256"
        },
        {
          "indexed": false,
          "internalType": "uint256",
          "name": "_value",
          "type": "uint256"
        }
      ],
      "name": "TransferSingle",
      "type": "event"
    },
    {
      "anonymous": false,
      "inputs": [
        {
          "indexed": false,
          "internalType": "string",
          "name": "_value",
          "type": "string"
        },
        {
          "indexed": true,
          "internalType": "uint256",
          "name": "_id",
          "type": "uint256"
        }
      ],
      "name": "URI",
      "type": "event"
    },
    {
      "inputs": [
        {
          "internalType": "address",
          "name": "_owner",
          "type": "address"
        },
        {
          "internalType": "uint256",
          "name": "_id",
          "type": "uint256"
        }
      ],
      "name": "balanceOf",
      "outputs": [
        {
          "internalType": "uint256",
          "name": "",
          "type": "uint256"
        }
      ],
      "stateMutability": "view",
      "type": "function"
    },
    {
      "inputs": [
        {
          "internalType": "address[]",
          "name": "_owners",
          "type": "address[]"
        },
        {
          "internalType": "uint256[]",
          "name": "_ids",
          "type": "uint256[]"
        }
      ],
      "name": "balanceOfBatch",
      "outputs": [
        {
          "internalType": "uint256[]",
          "name": "",
          "type": "uint256[]"
        }
      ],
      "stateMutability": "view",
      "type": "function"
    },
    {
      "inputs": [
        {
          "internalType": "uint256",
          "name": "_initialSupply",
          "type": "uint256"
        },
        {
          "internalType": "string",
          "name": "_uri",
          "type": "string"
        }
      ],
      "name": "create",
      "outputs": [
        {
          "internalType": "uint256",
          "name": "_id",
          "type": "uint256"
        }
      ],
      "stateMutability": "nonpayable",
      "type": "function"
    },
    {
      "inputs": [],
      "name": "initialize",
      "outputs": [],
      "stateMutability": "nonpayable",
      "type": "function"
    },
    {
      "inputs": [
        {
          "internalType": "address",
          "name": "_owner",
          "type": "address"
        },
        {
          "internalType": "address",
          "name": "_operator",
          "type": "address"
        }
      ],
      "name": "isApprovedForAll",
      "outputs": [
        {
          "internalType": "bool",
          "name": "",
          "type": "bool"
        }
      ],
      "stateMutability": "view",
      "type": "function"
    },
    {
      "inputs": [
        {
          "internalType": "uint256",
          "name": "_id",
          "type": "uint256"
        },
        {
          "internalType": "address[]",
          "name": "_to",
          "type": "address[]"
        },
        {
          "internalType": "uint256[]",
          "name": "_quantities",
          "type": "uint256[]"
        }
      ],
      "name": "mint",
      "outputs": [],
      "stateMutability": "nonpayable",
      "type": "function"
    },
    {
      "inputs": [
        {
          "internalType": "address",
          "name": "_from",
          "type": "address"
        },
        {
          "internalType": "address",
          "name": "_to",
          "type": "address"
        },
        {
          "internalType": "uint256[]",
          "name": "_ids",
          "type": "uint256[]"
        },
        {
          "internalType": "uint256[]",
          "name": "_values",
          "type": "uint256[]"
        },
        {
          "internalType": "bytes",
          "name": "_data",
          "type": "bytes"
        }
      ],
      "name": "safeBatchTransferFrom",
      "outputs": [],
      "stateMutability": "nonpayable",
      "type": "function"
    },
    {
      "inputs": [
        {
          "internalType": "address",
          "name": "_from",
          "type": "address"
        },
        {
          "internalType": "address",
          "name": "_to",
          "type": "address"
        },
        {
          "internalType": "uint256",
          "name": "_id",
          "type": "uint256"
        },
        {
          "internalType": "uint256",
          "name": "_value",
          "type": "uint256"
        },
        {
          "internalType": "bytes",
          "name": "_data",
          "type": "bytes"
        }
      ],
      "name": "safeTransferFrom",
      "outputs": [],
      "stateMutability": "nonpayable",
      "type": "function"
    },
    {
      "inputs": [
        {
          "internalType": "address",
          "name": "_operator",
          "type": "address"
        },
        {
          "internalType": "bool",
          "name": "_approved",
          "type": "bool"
        }
      ],
      "name": "setApprovalForAll",
      "outputs": [],
      "stateMutability": "nonpayable",
      "type": "function"
    },
    {
      "inputs": [
        {
          "internalType": "string",
          "name": "_uri",
          "type": "string"
        },
        {
          "internalType": "uint256",
          "name": "_id",
          "type": "uint256"
        }
      ],
      "name": "setURI",
      "outputs": [],
      "stateMutability": "nonpayable",
      "type": "function"
    }
  ],
  "bytecode": "0x608060405234801561001057600080fd5b50600061002561004f60201b6110f91760201c565b6303a24d0760e21b6000908152600390910160205260409020805460ff1916600117905550610073565b7fc8fcad8db84d3cc18b4c41d551ea0ee66dd599cde068d998e57d5e09332c131c90565b61164e806100826000396000f3fe608060405234801561001057600080fd5b50600436106100bd5760003560e01c80638129fc1c11610076578063cfa84fc11161005b578063cfa84fc11461045e578063e985e9c514610527578063f242432a14610569576100bd565b80638129fc1c14610428578063a22cb46514610430576100bd565b80632eb2c2d6116100a75780632eb2c2d6146101775780634e1273f4146102a657806367db3b8f146103b8576100bd565b8062fdd58e146100c25780630118fa4914610100575b600080fd5b6100ee600480360360408110156100d857600080fd5b506001600160a01b0381351690602001356105fe565b60408051918252519081900360200190f35b6100ee6004803603604081101561011657600080fd5b8135919081019060408101602082013564010000000081111561013857600080fd5b82018360208201111561014a57600080fd5b8035906020019184600183028401116401000000008311171561016c57600080fd5b509092509050610633565b6102a4600480360360a081101561018d57600080fd5b6001600160a01b0382358116926020810135909116918101906060810160408201356401000000008111156101c157600080fd5b8201836020820111156101d357600080fd5b803590602001918460208302840111640100000000831117156101f557600080fd5b91939092909160208101903564010000000081111561021357600080fd5b82018360208201111561022557600080fd5b8035906020019184602083028401116401000000008311171561024757600080fd5b91939092909160208101903564010000000081111561026557600080fd5b82018360208201111561027757600080fd5b8035906020019184600183028401116401000000008311171561029957600080fd5b509092509050610753565b005b610368600480360360408110156102bc57600080fd5b8101906020810181356401000000008111156102d757600080fd5b8201836020820111156102e957600080fd5b8035906020019184602083028401116401000000008311171561030b57600080fd5b91939092909160208101903564010000000081111561032957600080fd5b82018360208201111561033b57600080fd5b8035906020019184602083028401116401000000008311171561035d57600080fd5b509092509050610b0f565b60408051602080825283518183015283519192839290830191858101910280838360005b838110156103a457818101518382015260200161038c565b505050509050019250505060405180910390f35b6102a4600480360360408110156103ce57600080fd5b8101906020810181356401000000008111156103e957600080fd5b8201836020820111156103fb57600080fd5b8035906020019184600183028401116401000000008311171561041d57600080fd5b919350915035610c07565b6102a4610ca0565b6102a46004803603604081101561044657600080fd5b506001600160a01b0381351690602001351515610cea565b6102a46004803603606081101561047457600080fd5b8135919081019060408101602082013564010000000081111561049657600080fd5b8201836020820111156104a857600080fd5b803590602001918460208302840111640100000000831117156104ca57600080fd5b9193909290916020810190356401000000008111156104e857600080fd5b8201836020820111156104fa57600080fd5b8035906020019184602083028401116401000000008311171561051c57600080fd5b509092509050610d66565b6105556004803603604081101561053d57600080fd5b506001600160a01b0381358116916020013516610eae565b604080519115158252519081900360200190f35b6102a4600480360360a081101561057f57600080fd5b6001600160a01b03823581169260208101359091169160408201359160608101359181019060a0810160808201356401000000008111156105bf57600080fd5b8201836020820111156105d157600080fd5b803590602001918460018302840111640100000000831117156105f357600080fd5b509092509050610eed565b60008061060961111d565b6000848152602091825260408082206001600160a01b038816835290925220549150505b92915050565b60008061063e611141565b9050600061064a61111d565b600180840180549091019081905560008181526020858152604080832080547fffffffffffffffffffffffff0000000000000000000000000000000000000000163390811790915585835281842081855283528184208c905581518581529283018c90528151949850949550919284927fc3d58168c5ae7397731d063d5bbf3d657854427343f4c083240f7aacaa2d0f62928290030190a4831561074a57827f6bb7ff708619ba0610cba295a58592e0451dee2622938c8755667688daf3529b868660405180806020018281038252848482818152602001925080828437600083820152604051601f909101601f19169092018290039550909350505050a25b50509392505050565b600061075d61111d565b90506001600160a01b0388166107a45760405162461bcd60e51b81526004018080602001828103825260258152602001806115256025913960400191505060405180910390fd5b8584146107e25760405162461bcd60e51b81526004018080602001828103825260298152602001806115b76029913960400191505060405180910390fd5b6001600160a01b03891633148061082357506001600160a01b03891660009081526001808301602090815260408084203385529091529091205460ff161515145b61085e5760405162461bcd60e51b815260040180806020018281038252602f81526020018061154a602f913960400191505060405180910390fd5b60005b8681101561099757600088888381811061087757fe5b905060200201359050600087878481811061088e57fe5b9050602002013590506108e28185600001600085815260200190815260200160002060008f6001600160a01b03166001600160a01b031681526020019081526020016000205461116590919063ffffffff16565b84600001600084815260200190815260200160002060008e6001600160a01b03166001600160a01b031681526020019081526020016000208190555061096984600001600084815260200190815260200160002060008d6001600160a01b03166001600160a01b03168152602001908152602001600020548261117790919063ffffffff16565b6000928352602085815260408085206001600160a01b038f1686529091529092209190915550600101610861565b50876001600160a01b0316896001600160a01b0316336001600160a01b03167f4a39dc06d4c0dbc64b70af90fd698a233a518aa5d07e595d983b8c0526c8f7fb8a8a8a8a6040518080602001806020018381038352878782818152602001925060200280828437600083820152601f01601f19169091018481038352858152602090810191508690860280828437600083820152604051601f909101601f19169092018290039850909650505050505050a4610a5b886001600160a01b0316611184565b15610b0457610b04338a8a8a8a8080602002602001604051908101604052809392919081815260200183836020028082843760009201919091525050604080516020808e0282810182019093528d82529093508d92508c91829185019084908082843760009201919091525050604080516020601f8d018190048102820181019092528b815292508b91508a908190840183828082843760009201919091525061118a92505050565b505050505050505050565b60606000610b1b61111d565b9050848314610b2957600080fd5b60008567ffffffffffffffff81118015610b4257600080fd5b50604051908082528060200260200182016040528015610b6c578160200160208202803683370190505b50905060005b86811015610bfc57826000878784818110610b8957fe5b9050602002013581526020019081526020016000206000898984818110610bac57fe5b905060200201356001600160a01b03166001600160a01b03166001600160a01b0316815260200190815260200160002054828281518110610be957fe5b6020908102919091010152600101610b72565b509695505050505050565b806000610c12611141565b6000838152602082905260409020549091506001600160a01b03163314610c3857600080fd5b827f6bb7ff708619ba0610cba295a58592e0451dee2622938c8755667688daf3529b868660405180806020018281038252848482818152602001925080828437600083820152604051601f909101601f19169092018290039550909350505050a25050505050565b6000610caa6110f9565b7fd9b67a26000000000000000000000000000000000000000000000000000000006000908152600390910160205260409020805460ff1916600117905550565b6000610cf461111d565b33600081815260018301602090815260408083206001600160a01b03891680855290835292819020805460ff19168815159081179091558151908152905194955091937f17307eab39ab6107e8899845ad3d59bd9653f200f220920489ca2b5937696c319281900390910190a3505050565b846000610d71611141565b6000838152602082905260409020549091506001600160a01b03163314610d9757600080fd5b6000610da161111d565b905060005b86811015610b04576000888883818110610dbc57fe5b905060200201356001600160a01b031690506000878784818110610ddc57fe5b60008e8152602088815260408083206001600160a01b0389168452825290912054910292909201359250610e1291839150611177565b60008c8152602086815260408083206001600160a01b0387168085529083528184209490945580518f8152918201859052805133927fc3d58168c5ae7397731d063d5bbf3d657854427343f4c083240f7aacaa2d0f6292908290030190a4610e82826001600160a01b0316611184565b15610ea457610ea43333848e8560405180602001604052806000815250611399565b5050600101610da6565b600080610eb961111d565b6001600160a01b03948516600090815260019190910160209081526040808320959096168252939093525050205460ff1690565b6000610ef761111d565b90506001600160a01b038616610f54576040805162461bcd60e51b815260206004820152601560248201527f5f746f206d757374206265206e6f6e2d7a65726f2e0000000000000000000000604482015290519081900360640190fd5b6001600160a01b038716331480610f9557506001600160a01b03871660009081526001808301602090815260408084203385529091529091205460ff161515145b610fd05760405162461bcd60e51b815260040180806020018281038252602f81526020018061154a602f913960400191505060405180910390fd5b6000858152602082815260408083206001600160a01b038b168452909152902054610ffb9085611165565b6000868152602083815260408083206001600160a01b038c81168552925280832093909355881681522054611031908590611177565b6000868152602083815260408083206001600160a01b03808c16808652918452938290209490945580518981529182018890528051928b169233927fc3d58168c5ae7397731d063d5bbf3d657854427343f4c083240f7aacaa2d0f6292908290030190a46110a7866001600160a01b0316611184565b156110f0576110f0338888888888888080601f01602080910402602001604051908101604052809392919081815260200183838082843760009201919091525061139992505050565b50505050505050565b7fc8fcad8db84d3cc18b4c41d551ea0ee66dd599cde068d998e57d5e09332c131c90565b7f27b80c39eaec9c44143bb86545037fefe1bfed0d54fd275b14504f734e7cfd3790565b7f82cd9774ab347c5ab504f7c22bb86302a068f5ef6567f511d4a5164a6c421d6690565b60008282111561117157fe5b50900390565b8181018281101561062d57fe5b3b151590565b63bc197c8160e01b7bffffffffffffffffffffffffffffffffffffffffffffffffffffffff1916846001600160a01b031663bc197c8188888787876040518663ffffffff1660e01b815260040180866001600160a01b03168152602001856001600160a01b03168152602001806020018060200180602001848103845287818151815260200191508051906020019060200280838360005b8381101561123a578181015183820152602001611222565b50505050905001848103835286818151815260200191508051906020019060200280838360005b83811015611279578181015183820152602001611261565b50505050905001848103825285818151815260200191508051906020019080838360005b838110156112b557818101518382015260200161129d565b50505050905090810190601f1680156112e25780820380516001836020036101000a031916815260200191505b5098505050505050505050602060405180830381600087803b15801561130757600080fd5b505af115801561131b573d6000803e3d6000fd5b505050506040513d602081101561133157600080fd5b50517fffffffff0000000000000000000000000000000000000000000000000000000016146113915760405162461bcd60e51b815260040180806020018281038252603e815260200180611579603e913960400191505060405180910390fd5b505050505050565b63f23a6e6160e01b7bffffffffffffffffffffffffffffffffffffffffffffffffffffffff1916846001600160a01b031663f23a6e6188888787876040518663ffffffff1660e01b815260040180866001600160a01b03168152602001856001600160a01b0316815260200184815260200183815260200180602001828103825283818151815260200191508051906020019080838360005b8381101561144a578181015183820152602001611432565b50505050905090810190601f1680156114775780820380516001836020036101000a031916815260200191505b509650505050505050602060405180830381600087803b15801561149a57600080fd5b505af11580156114ae573d6000803e3d6000fd5b505050506040513d60208110156114c457600080fd5b50517fffffffff0000000000000000000000000000000000000000000000000000000016146113915760405162461bcd60e51b81526004018080602001828103825260398152602001806115e06039913960400191505060405180910390fdfe64657374696e6174696f6e2061646472657373206d757374206265206e6f6e2d7a65726f2e4e656564206f70657261746f7220617070726f76616c20666f7220337264207061727479207472616e73666572732e636f6e74726163742072657475726e656420616e20756e6b6e6f776e2076616c75652066726f6d206f6e45524331313535426174636852656365697665645f69647320616e64205f76616c756573206172726179206c656e677468206d757374206d617463682e636f6e74726163742072657475726e656420616e20756e6b6e6f776e2076616c75652066726f6d206f6e455243313135355265636569766564a264697066735822122023cc41477a3bef33beb630694f65646b97d211bcaccb42b6f6eea4264854329664736f6c63430007060033",
  "linkReferences": {},
  "deployedLinkReferences": {}
}